{
	".deps/studying-solidity/InheritanceContract.sol": {
		"InheritanceContract": {
			"abi": [
				{
					"inputs": [],
					"name": "cancelTestament",
					"outputs": [],
					"stateMutability": "nonpayable",
					"type": "function"
				},
				{
					"inputs": [],
					"name": "checkInheritance",
					"outputs": [],
					"stateMutability": "nonpayable",
					"type": "function"
				},
				{
					"inputs": [
						{
							"internalType": "address[]",
							"name": "_addresses",
							"type": "address[]"
						},
						{
							"internalType": "uint8[]",
							"name": "_percentagens",
							"type": "uint8[]"
						}
					],
					"name": "createInheritance",
					"outputs": [],
					"stateMutability": "payable",
					"type": "function"
				},
				{
					"inputs": [],
					"name": "getMyTestament",
					"outputs": [
						{
							"internalType": "address[]",
							"name": "",
							"type": "address[]"
						},
						{
							"internalType": "uint8[]",
							"name": "",
							"type": "uint8[]"
						},
						{
							"internalType": "uint256",
							"name": "",
							"type": "uint256"
						},
						{
							"internalType": "uint256",
							"name": "",
							"type": "uint256"
						}
					],
					"stateMutability": "view",
					"type": "function"
				},
				{
					"inputs": [
						{
							"internalType": "address",
							"name": "",
							"type": "address"
						}
					],
					"name": "inheritorToTestator",
					"outputs": [
						{
							"internalType": "address",
							"name": "",
							"type": "address"
						}
					],
					"stateMutability": "view",
					"type": "function"
				},
				{
					"inputs": [
						{
							"internalType": "address",
							"name": "",
							"type": "address"
						}
					],
					"name": "testators",
					"outputs": [
						{
							"internalType": "bool",
							"name": "exist",
							"type": "bool"
						},
						{
							"internalType": "uint256",
							"name": "lastProofOfLife",
							"type": "uint256"
						},
						{
							"internalType": "uint256",
							"name": "amount",
							"type": "uint256"
						}
					],
					"stateMutability": "view",
					"type": "function"
				},
				{
					"inputs": [],
					"name": "updateProofOfLife",
					"outputs": [],
					"stateMutability": "nonpayable",
					"type": "function"
				}
			],
			"devdoc": {
				"kind": "dev",
				"methods": {},
				"version": 1
			},
			"evm": {
				"assembly": "    /* \".deps/studying-solidity/InheritanceContract.sol\":456:3043  contract InheritanceContract is IInheritanceContract {... */\n  mstore(0x40, 0x80)\n  callvalue\n  dup1\n  iszero\n  tag_1\n  jumpi\n  0x00\n  dup1\n  revert\ntag_1:\n  pop\n  dataSize(sub_0)\n  dup1\n  dataOffset(sub_0)\n  0x00\n  codecopy\n  0x00\n  return\nstop\n\nsub_0: assembly {\n        /* \".deps/studying-solidity/InheritanceContract.sol\":456:3043  contract InheritanceContract is IInheritanceContract {... */\n      mstore(0x40, 0x80)\n      jumpi(tag_1, lt(calldatasize, 0x04))\n      shr(0xe0, calldataload(0x00))\n      dup1\n      0x69833808\n      gt\n      tag_9\n      jumpi\n      dup1\n      0x69833808\n      eq\n      tag_5\n      jumpi\n      dup1\n      0x759a8a98\n      eq\n      tag_6\n      jumpi\n      dup1\n      0xb45b91f2\n      eq\n      tag_7\n      jumpi\n      dup1\n      0xc80cc411\n      eq\n      tag_8\n      jumpi\n      jump(tag_1)\n    tag_9:\n      dup1\n      0x1aba6da6\n      eq\n      tag_2\n      jumpi\n      dup1\n      0x3a994a8b\n      eq\n      tag_3\n      jumpi\n      dup1\n      0x6355e754\n      eq\n      tag_4\n      jumpi\n    tag_1:\n      0x00\n      dup1\n      revert\n        /* \".deps/studying-solidity/InheritanceContract.sol\":2684:2791  function cancelTestament() public {... */\n    tag_2:\n      callvalue\n      dup1\n      iszero\n      tag_10\n      jumpi\n      0x00\n      dup1\n      revert\n    tag_10:\n      pop\n      tag_11\n      tag_12\n      jump\t// in\n    tag_11:\n      stop\n        /* \".deps/studying-solidity/InheritanceContract.sol\":1536:2561  function getMyTestament()... */\n    tag_3:\n      callvalue\n      dup1\n      iszero\n      tag_13\n      jumpi\n      0x00\n      dup1\n      revert\n    tag_13:\n      pop\n      tag_14\n      tag_15\n      jump\t// in\n    tag_14:\n      mload(0x40)\n      tag_16\n      swap5\n      swap4\n      swap3\n      swap2\n      swap1\n      tag_17\n      jump\t// in\n    tag_16:\n      mload(0x40)\n      dup1\n      swap2\n      sub\n      swap1\n      return\n        /* \".deps/studying-solidity/InheritanceContract.sol\":827:881  mapping(address => address) public inheritorToTestator */\n    tag_4:\n      callvalue\n      dup1\n      iszero\n      tag_18\n      jumpi\n      0x00\n      dup1\n      revert\n    tag_18:\n      pop\n      tag_19\n      0x04\n      dup1\n      calldatasize\n      sub\n      dup2\n      add\n      swap1\n      tag_20\n      swap2\n      swap1\n      tag_21\n      jump\t// in\n    tag_20:\n      tag_22\n      jump\t// in\n    tag_19:\n      mload(0x40)\n      tag_23\n      swap2\n      swap1\n      tag_24\n      jump\t// in\n    tag_23:\n      mload(0x40)\n      dup1\n      swap2\n      sub\n      swap1\n      return\n        /* \".deps/studying-solidity/InheritanceContract.sol\":3002:3041  function checkInheritance() external {} */\n    tag_5:\n      callvalue\n      dup1\n      iszero\n      tag_25\n      jumpi\n      0x00\n      dup1\n      revert\n    tag_25:\n      pop\n      tag_26\n      tag_27\n      jump\t// in\n    tag_26:\n      stop\n        /* \".deps/studying-solidity/InheritanceContract.sol\":888:1530  function createInheritance(... */\n    tag_6:\n      tag_28\n      0x04\n      dup1\n      calldatasize\n      sub\n      dup2\n      add\n      swap1\n      tag_29\n      swap2\n      swap1\n      tag_30\n      jump\t// in\n    tag_29:\n      tag_31\n      jump\t// in\n    tag_28:\n      stop\n        /* \".deps/studying-solidity/InheritanceContract.sol\":775:820  mapping(address => Testator) public testators */\n    tag_7:\n      callvalue\n      dup1\n      iszero\n      tag_32\n      jumpi\n      0x00\n      dup1\n      revert\n    tag_32:\n      pop\n      tag_33\n      0x04\n      dup1\n      calldatasize\n      sub\n      dup2\n      add\n      swap1\n      tag_34\n      swap2\n      swap1\n      tag_21\n      jump\t// in\n    tag_34:\n      tag_35\n      jump\t// in\n    tag_33:\n      mload(0x40)\n      tag_36\n      swap4\n      swap3\n      swap2\n      swap1\n      tag_37\n      jump\t// in\n    tag_36:\n      mload(0x40)\n      dup1\n      swap2\n      sub\n      swap1\n      return\n        /* \".deps/studying-solidity/InheritanceContract.sol\":2797:2996  function updateProofOfLife() external {... */\n    tag_8:\n      callvalue\n      dup1\n      iszero\n      tag_38\n      jumpi\n      0x00\n      dup1\n      revert\n    tag_38:\n      pop\n      tag_39\n      tag_40\n      jump\t// in\n    tag_39:\n      stop\n        /* \".deps/studying-solidity/InheritanceContract.sol\":2684:2791  function cancelTestament() public {... */\n    tag_12:\n        /* \".deps/studying-solidity/InheritanceContract.sol\":2728:2739  address own */\n      0x00\n        /* \".deps/studying-solidity/InheritanceContract.sol\":2742:2752  msg.sender */\n      caller\n        /* \".deps/studying-solidity/InheritanceContract.sol\":2728:2752  address own = msg.sender */\n      swap1\n      pop\n        /* \".deps/studying-solidity/InheritanceContract.sol\":2770:2779  testators */\n      0x00\n        /* \".deps/studying-solidity/InheritanceContract.sol\":2770:2784  testators[own] */\n      dup1\n        /* \".deps/studying-solidity/InheritanceContract.sol\":2780:2783  own */\n      dup3\n        /* \".deps/studying-solidity/InheritanceContract.sol\":2770:2784  testators[own] */\n      0xffffffffffffffffffffffffffffffffffffffff\n      and\n      0xffffffffffffffffffffffffffffffffffffffff\n      and\n      dup2\n      mstore\n      0x20\n      add\n      swap1\n      dup2\n      mstore\n      0x20\n      add\n      0x00\n      keccak256\n      0x00\n        /* \".deps/studying-solidity/InheritanceContract.sol\":2763:2784  delete testators[own] */\n      dup1\n      dup3\n      add\n      0x00\n      tag_42\n      swap2\n      swap1\n      tag_43\n      jump\t// in\n    tag_42:\n      0x01\n      dup3\n      add\n      exp(0x0100, 0x00)\n      dup2\n      sload\n      swap1\n      0xff\n      mul\n      not\n      and\n      swap1\n      sstore\n      0x02\n      dup3\n      add\n      0x00\n      swap1\n      sstore\n      0x03\n      dup3\n      add\n      0x00\n      swap1\n      sstore\n      pop\n      pop\n        /* \".deps/studying-solidity/InheritanceContract.sol\":2718:2791  {... */\n      pop\n        /* \".deps/studying-solidity/InheritanceContract.sol\":2684:2791  function cancelTestament() public {... */\n      jump\t// out\n        /* \".deps/studying-solidity/InheritanceContract.sol\":1536:2561  function getMyTestament()... */\n    tag_15:\n        /* \".deps/studying-solidity/InheritanceContract.sol\":1622:1638  address[] memory */\n      0x60\n        /* \".deps/studying-solidity/InheritanceContract.sol\":1652:1666  uint8[] memory */\n      dup1\n        /* \".deps/studying-solidity/InheritanceContract.sol\":1680:1687  uint256 */\n      0x00\n        /* \".deps/studying-solidity/InheritanceContract.sol\":1732:1739  uint256 */\n      dup1\n        /* \".deps/studying-solidity/InheritanceContract.sol\":1773:1784  address own */\n      0x00\n        /* \".deps/studying-solidity/InheritanceContract.sol\":1787:1797  msg.sender */\n      caller\n        /* \".deps/studying-solidity/InheritanceContract.sol\":1773:1797  address own = msg.sender */\n      swap1\n      pop\n        /* \".deps/studying-solidity/InheritanceContract.sol\":1808:1833  Testator memory _testator */\n      0x00\n        /* \".deps/studying-solidity/InheritanceContract.sol\":1836:1845  testators */\n      dup1\n        /* \".deps/studying-solidity/InheritanceContract.sol\":1836:1850  testators[own] */\n      0x00\n        /* \".deps/studying-solidity/InheritanceContract.sol\":1846:1849  own */\n      dup4\n        /* \".deps/studying-solidity/InheritanceContract.sol\":1836:1850  testators[own] */\n      0xffffffffffffffffffffffffffffffffffffffff\n      and\n      0xffffffffffffffffffffffffffffffffffffffff\n      and\n      dup2\n      mstore\n      0x20\n      add\n      swap1\n      dup2\n      mstore\n      0x20\n      add\n      0x00\n      keccak256\n        /* \".deps/studying-solidity/InheritanceContract.sol\":1808:1850  Testator memory _testator = testators[own] */\n      mload(0x40)\n      dup1\n      0x80\n      add\n      0x40\n      mstore\n      swap1\n      dup2\n      0x00\n      dup3\n      add\n      dup1\n      sload\n      dup1\n      0x20\n      mul\n      0x20\n      add\n      mload(0x40)\n      swap1\n      dup2\n      add\n      0x40\n      mstore\n      dup1\n      swap3\n      swap2\n      swap1\n      dup2\n      dup2\n      mstore\n      0x20\n      add\n      0x00\n      swap1\n    tag_45:\n      dup3\n      dup3\n      lt\n      iszero\n      tag_46\n      jumpi\n      dup4\n      dup3\n      swap1\n      0x00\n      mstore\n      keccak256(0x00, 0x20)\n      add\n      mload(0x40)\n      dup1\n      0x40\n      add\n      0x40\n      mstore\n      swap1\n      dup2\n      0x00\n      dup3\n      add\n      0x00\n      swap1\n      sload\n      swap1\n      0x0100\n      exp\n      swap1\n      div\n      0xffffffffffffffffffffffffffffffffffffffff\n      and\n      0xffffffffffffffffffffffffffffffffffffffff\n      and\n      0xffffffffffffffffffffffffffffffffffffffff\n      and\n      dup2\n      mstore\n      0x20\n      add\n      0x00\n      dup3\n      add\n      0x14\n      swap1\n      sload\n      swap1\n      0x0100\n      exp\n      swap1\n      div\n      0xff\n      and\n      0xff\n      and\n      0xff\n      and\n      dup2\n      mstore\n      pop\n      pop\n      dup2\n      mstore\n      0x20\n      add\n      swap1\n      0x01\n      add\n      swap1\n      jump(tag_45)\n    tag_46:\n      pop\n      pop\n      pop\n      pop\n      dup2\n      mstore\n      0x20\n      add\n      0x01\n      dup3\n      add\n      0x00\n      swap1\n      sload\n      swap1\n      0x0100\n      exp\n      swap1\n      div\n      0xff\n      and\n      iszero\n      iszero\n      iszero\n      iszero\n      dup2\n      mstore\n      0x20\n      add\n      0x02\n      dup3\n      add\n      sload\n      dup2\n      mstore\n      0x20\n      add\n      0x03\n      dup3\n      add\n      sload\n      dup2\n      mstore\n      pop\n      pop\n      swap1\n      pop\n        /* \".deps/studying-solidity/InheritanceContract.sol\":1869:1878  _testator */\n      dup1\n        /* \".deps/studying-solidity/InheritanceContract.sol\":1869:1884  _testator.exist */\n      0x20\n      add\n      mload\n        /* \".deps/studying-solidity/InheritanceContract.sol\":1861:1912  require(_testator.exist, \"Testador nao encontrado\") */\n      tag_48\n      jumpi\n      mload(0x40)\n      0x08c379a000000000000000000000000000000000000000000000000000000000\n      dup2\n      mstore\n      0x04\n      add\n      tag_49\n      swap1\n      tag_50\n      jump\t// in\n    tag_49:\n      mload(0x40)\n      dup1\n      swap2\n      sub\n      swap1\n      revert\n    tag_48:\n        /* \".deps/studying-solidity/InheritanceContract.sol\":1923:1959  address[] memory _inheritorAddresses */\n      0x00\n        /* \".deps/studying-solidity/InheritanceContract.sol\":1989:1998  _testator */\n      dup2\n        /* \".deps/studying-solidity/InheritanceContract.sol\":1989:2009  _testator.inheritors */\n      0x00\n      add\n      mload\n        /* \".deps/studying-solidity/InheritanceContract.sol\":1989:2016  _testator.inheritors.length */\n      mload\n        /* \".deps/studying-solidity/InheritanceContract.sol\":1962:2026  new address[](... */\n      0xffffffffffffffff\n      dup2\n      gt\n      iszero\n      tag_51\n      jumpi\n      tag_52\n      tag_53\n      jump\t// in\n    tag_52:\n    tag_51:\n      mload(0x40)\n      swap1\n      dup1\n      dup3\n      mstore\n      dup1\n      0x20\n      mul\n      0x20\n      add\n      dup3\n      add\n      0x40\n      mstore\n      dup1\n      iszero\n      tag_54\n      jumpi\n      dup2\n      0x20\n      add\n      0x20\n      dup3\n      mul\n      dup1\n      calldatasize\n      dup4\n      calldatacopy\n      dup1\n      dup3\n      add\n      swap2\n      pop\n      pop\n      swap1\n      pop\n    tag_54:\n      pop\n        /* \".deps/studying-solidity/InheritanceContract.sol\":1923:2026  address[] memory _inheritorAddresses = new address[](... */\n      swap1\n      pop\n        /* \".deps/studying-solidity/InheritanceContract.sol\":2037:2064  uint8[] memory _percentages */\n      0x00\n        /* \".deps/studying-solidity/InheritanceContract.sol\":2079:2088  _testator */\n      dup3\n        /* \".deps/studying-solidity/InheritanceContract.sol\":2079:2099  _testator.inheritors */\n      0x00\n      add\n      mload\n        /* \".deps/studying-solidity/InheritanceContract.sol\":2079:2106  _testator.inheritors.length */\n      mload\n        /* \".deps/studying-solidity/InheritanceContract.sol\":2067:2107  new uint8[](_testator.inheritors.length) */\n      0xffffffffffffffff\n      dup2\n      gt\n      iszero\n      tag_55\n      jumpi\n      tag_56\n      tag_53\n      jump\t// in\n    tag_56:\n    tag_55:\n      mload(0x40)\n      swap1\n      dup1\n      dup3\n      mstore\n      dup1\n      0x20\n      mul\n      0x20\n      add\n      dup3\n      add\n      0x40\n      mstore\n      dup1\n      iszero\n      tag_57\n      jumpi\n      dup2\n      0x20\n      add\n      0x20\n      dup3\n      mul\n      dup1\n      calldatasize\n      dup4\n      calldatacopy\n      dup1\n      dup3\n      add\n      swap2\n      pop\n      pop\n      swap1\n      pop\n    tag_57:\n      pop\n        /* \".deps/studying-solidity/InheritanceContract.sol\":2037:2107  uint8[] memory _percentages = new uint8[](_testator.inheritors.length) */\n      swap1\n      pop\n        /* \".deps/studying-solidity/InheritanceContract.sol\":2123:2132  uint256 i */\n      0x00\n        /* \".deps/studying-solidity/InheritanceContract.sol\":2118:2399  for (uint256 i = 0; i < _testator.inheritors.length; i++) {... */\n    tag_58:\n        /* \".deps/studying-solidity/InheritanceContract.sol\":2142:2151  _testator */\n      dup4\n        /* \".deps/studying-solidity/InheritanceContract.sol\":2142:2162  _testator.inheritors */\n      0x00\n      add\n      mload\n        /* \".deps/studying-solidity/InheritanceContract.sol\":2142:2169  _testator.inheritors.length */\n      mload\n        /* \".deps/studying-solidity/InheritanceContract.sol\":2138:2139  i */\n      dup2\n        /* \".deps/studying-solidity/InheritanceContract.sol\":2138:2169  i < _testator.inheritors.length */\n      lt\n        /* \".deps/studying-solidity/InheritanceContract.sol\":2118:2399  for (uint256 i = 0; i < _testator.inheritors.length; i++) {... */\n      iszero\n      tag_59\n      jumpi\n        /* \".deps/studying-solidity/InheritanceContract.sol\":2190:2224  Inheritor memory _currentInheritor */\n      0x00\n        /* \".deps/studying-solidity/InheritanceContract.sol\":2227:2236  _testator */\n      dup5\n        /* \".deps/studying-solidity/InheritanceContract.sol\":2227:2247  _testator.inheritors */\n      0x00\n      add\n      mload\n        /* \".deps/studying-solidity/InheritanceContract.sol\":2248:2249  i */\n      dup3\n        /* \".deps/studying-solidity/InheritanceContract.sol\":2227:2250  _testator.inheritors[i] */\n      dup2\n      mload\n      dup2\n      lt\n      tag_61\n      jumpi\n      tag_62\n      tag_63\n      jump\t// in\n    tag_62:\n    tag_61:\n      0x20\n      mul\n      0x20\n      add\n      add\n      mload\n        /* \".deps/studying-solidity/InheritanceContract.sol\":2190:2250  Inheritor memory _currentInheritor = _testator.inheritors[i] */\n      swap1\n      pop\n        /* \".deps/studying-solidity/InheritanceContract.sol\":2291:2308  _currentInheritor */\n      dup1\n        /* \".deps/studying-solidity/InheritanceContract.sol\":2291:2325  _currentInheritor.inheritorAddress */\n      0x00\n      add\n      mload\n        /* \".deps/studying-solidity/InheritanceContract.sol\":2265:2284  _inheritorAddresses */\n      dup5\n        /* \".deps/studying-solidity/InheritanceContract.sol\":2285:2286  i */\n      dup4\n        /* \".deps/studying-solidity/InheritanceContract.sol\":2265:2287  _inheritorAddresses[i] */\n      dup2\n      mload\n      dup2\n      lt\n      tag_64\n      jumpi\n      tag_65\n      tag_63\n      jump\t// in\n    tag_65:\n    tag_64:\n      0x20\n      mul\n      0x20\n      add\n      add\n        /* \".deps/studying-solidity/InheritanceContract.sol\":2265:2326  _inheritorAddresses[i] = (_currentInheritor.inheritorAddress) */\n      swap1\n      0xffffffffffffffffffffffffffffffffffffffff\n      and\n      swap1\n      dup2\n      0xffffffffffffffffffffffffffffffffffffffff\n      and\n      dup2\n      mstore\n      pop\n      pop\n        /* \".deps/studying-solidity/InheritanceContract.sol\":2359:2376  _currentInheritor */\n      dup1\n        /* \".deps/studying-solidity/InheritanceContract.sol\":2359:2387  _currentInheritor.percentage */\n      0x20\n      add\n      mload\n        /* \".deps/studying-solidity/InheritanceContract.sol\":2340:2352  _percentages */\n      dup4\n        /* \".deps/studying-solidity/InheritanceContract.sol\":2353:2354  i */\n      dup4\n        /* \".deps/studying-solidity/InheritanceContract.sol\":2340:2355  _percentages[i] */\n      dup2\n      mload\n      dup2\n      lt\n      tag_66\n      jumpi\n      tag_67\n      tag_63\n      jump\t// in\n    tag_67:\n    tag_66:\n      0x20\n      mul\n      0x20\n      add\n      add\n        /* \".deps/studying-solidity/InheritanceContract.sol\":2340:2388  _percentages[i] = (_currentInheritor.percentage) */\n      swap1\n      0xff\n      and\n      swap1\n      dup2\n      0xff\n      and\n      dup2\n      mstore\n      pop\n      pop\n        /* \".deps/studying-solidity/InheritanceContract.sol\":2176:2399  {... */\n      pop\n        /* \".deps/studying-solidity/InheritanceContract.sol\":2171:2174  i++ */\n      dup1\n      dup1\n      0x01\n      add\n      swap2\n      pop\n      pop\n        /* \".deps/studying-solidity/InheritanceContract.sol\":2118:2399  for (uint256 i = 0; i < _testator.inheritors.length; i++) {... */\n      jump(tag_58)\n    tag_59:\n      pop\n        /* \".deps/studying-solidity/InheritanceContract.sol\":2430:2449  _inheritorAddresses */\n      dup2\n        /* \".deps/studying-solidity/InheritanceContract.sol\":2463:2475  _percentages */\n      dup2\n        /* \".deps/studying-solidity/InheritanceContract.sol\":2489:2498  _testator */\n      dup5\n        /* \".deps/studying-solidity/InheritanceContract.sol\":2489:2514  _testator.lastProofOfLife */\n      0x40\n      add\n      mload\n        /* \".deps/studying-solidity/InheritanceContract.sol\":2528:2537  _testator */\n      dup6\n        /* \".deps/studying-solidity/InheritanceContract.sol\":2528:2544  _testator.amount */\n      0x60\n      add\n      mload\n        /* \".deps/studying-solidity/InheritanceContract.sol\":2409:2554  return (... */\n      swap8\n      pop\n      swap8\n      pop\n      swap8\n      pop\n      swap8\n      pop\n      pop\n      pop\n      pop\n      pop\n        /* \".deps/studying-solidity/InheritanceContract.sol\":1536:2561  function getMyTestament()... */\n      swap1\n      swap2\n      swap3\n      swap4\n      jump\t// out\n        /* \".deps/studying-solidity/InheritanceContract.sol\":827:881  mapping(address => address) public inheritorToTestator */\n    tag_22:\n      mstore(0x20, 0x01)\n      dup1\n      0x00\n      mstore\n      keccak256(0x00, 0x40)\n      0x00\n      swap2\n      pop\n      sload\n      swap1\n      0x0100\n      exp\n      swap1\n      div\n      0xffffffffffffffffffffffffffffffffffffffff\n      and\n      dup2\n      jump\t// out\n        /* \".deps/studying-solidity/InheritanceContract.sol\":3002:3041  function checkInheritance() external {} */\n    tag_27:\n      jump\t// out\n        /* \".deps/studying-solidity/InheritanceContract.sol\":888:1530  function createInheritance(... */\n    tag_31:\n        /* \".deps/studying-solidity/InheritanceContract.sol\":1023:1034  address own */\n      0x00\n        /* \".deps/studying-solidity/InheritanceContract.sol\":1037:1047  msg.sender */\n      caller\n        /* \".deps/studying-solidity/InheritanceContract.sol\":1023:1047  address own = msg.sender */\n      swap1\n      pop\n        /* \".deps/studying-solidity/InheritanceContract.sol\":1062:1071  testators */\n      0x00\n        /* \".deps/studying-solidity/InheritanceContract.sol\":1062:1076  testators[own] */\n      dup1\n        /* \".deps/studying-solidity/InheritanceContract.sol\":1072:1075  own */\n      dup3\n        /* \".deps/studying-solidity/InheritanceContract.sol\":1062:1076  testators[own] */\n      0xffffffffffffffffffffffffffffffffffffffff\n      and\n      0xffffffffffffffffffffffffffffffffffffffff\n      and\n      dup2\n      mstore\n      0x20\n      add\n      swap1\n      dup2\n      mstore\n      0x20\n      add\n      0x00\n      keccak256\n        /* \".deps/studying-solidity/InheritanceContract.sol\":1062:1082  testators[own].exist */\n      0x01\n      add\n      0x00\n      swap1\n      sload\n      swap1\n      0x0100\n      exp\n      swap1\n      div\n      0xff\n      and\n        /* \".deps/studying-solidity/InheritanceContract.sol\":1058:1116  if (testators[own].exist) delete testators[own].inheritors */\n      iszero\n      tag_70\n      jumpi\n        /* \".deps/studying-solidity/InheritanceContract.sol\":1091:1100  testators */\n      0x00\n        /* \".deps/studying-solidity/InheritanceContract.sol\":1091:1105  testators[own] */\n      dup1\n        /* \".deps/studying-solidity/InheritanceContract.sol\":1101:1104  own */\n      dup3\n        /* \".deps/studying-solidity/InheritanceContract.sol\":1091:1105  testators[own] */\n      0xffffffffffffffffffffffffffffffffffffffff\n      and\n      0xffffffffffffffffffffffffffffffffffffffff\n      and\n      dup2\n      mstore\n      0x20\n      add\n      swap1\n      dup2\n      mstore\n      0x20\n      add\n      0x00\n      keccak256\n        /* \".deps/studying-solidity/InheritanceContract.sol\":1091:1116  testators[own].inheritors */\n      0x00\n      add\n      0x00\n        /* \".deps/studying-solidity/InheritanceContract.sol\":1084:1116  delete testators[own].inheritors */\n      tag_71\n      swap2\n      swap1\n      tag_43\n      jump\t// in\n    tag_71:\n        /* \".deps/studying-solidity/InheritanceContract.sol\":1058:1116  if (testators[own].exist) delete testators[own].inheritors */\n    tag_70:\n        /* \".deps/studying-solidity/InheritanceContract.sol\":1132:1141  uint256 i */\n      0x00\n        /* \".deps/studying-solidity/InheritanceContract.sol\":1127:1429  for (uint256 i = 0; i < _addresses.length; i++) {... */\n    tag_72:\n        /* \".deps/studying-solidity/InheritanceContract.sol\":1151:1161  _addresses */\n      dup4\n        /* \".deps/studying-solidity/InheritanceContract.sol\":1151:1168  _addresses.length */\n      mload\n        /* \".deps/studying-solidity/InheritanceContract.sol\":1147:1148  i */\n      dup2\n        /* \".deps/studying-solidity/InheritanceContract.sol\":1147:1168  i < _addresses.length */\n      lt\n        /* \".deps/studying-solidity/InheritanceContract.sol\":1127:1429  for (uint256 i = 0; i < _addresses.length; i++) {... */\n      iszero\n      tag_73\n      jumpi\n        /* \".deps/studying-solidity/InheritanceContract.sol\":1189:1216  Inheritor memory _inheritor */\n      0x00\n        /* \".deps/studying-solidity/InheritanceContract.sol\":1219:1307  Inheritor(... */\n      mload(0x40)\n      dup1\n      0x40\n      add\n      0x40\n      mstore\n      dup1\n        /* \".deps/studying-solidity/InheritanceContract.sol\":1246:1256  _addresses */\n      dup7\n        /* \".deps/studying-solidity/InheritanceContract.sol\":1257:1258  i */\n      dup5\n        /* \".deps/studying-solidity/InheritanceContract.sol\":1246:1259  _addresses[i] */\n      dup2\n      mload\n      dup2\n      lt\n      tag_75\n      jumpi\n      tag_76\n      tag_63\n      jump\t// in\n    tag_76:\n    tag_75:\n      0x20\n      mul\n      0x20\n      add\n      add\n      mload\n        /* \".deps/studying-solidity/InheritanceContract.sol\":1219:1307  Inheritor(... */\n      0xffffffffffffffffffffffffffffffffffffffff\n      and\n      dup2\n      mstore\n      0x20\n      add\n        /* \".deps/studying-solidity/InheritanceContract.sol\":1277:1290  _percentagens */\n      dup6\n        /* \".deps/studying-solidity/InheritanceContract.sol\":1291:1292  i */\n      dup5\n        /* \".deps/studying-solidity/InheritanceContract.sol\":1277:1293  _percentagens[i] */\n      dup2\n      mload\n      dup2\n      lt\n      tag_77\n      jumpi\n      tag_78\n      tag_63\n      jump\t// in\n    tag_78:\n    tag_77:\n      0x20\n      mul\n      0x20\n      add\n      add\n      mload\n        /* \".deps/studying-solidity/InheritanceContract.sol\":1219:1307  Inheritor(... */\n      0xff\n      and\n      dup2\n      mstore\n      pop\n        /* \".deps/studying-solidity/InheritanceContract.sol\":1189:1307  Inheritor memory _inheritor = Inheritor(... */\n      swap1\n      pop\n        /* \".deps/studying-solidity/InheritanceContract.sol\":1359:1362  own */\n      dup3\n        /* \".deps/studying-solidity/InheritanceContract.sol\":1322:1341  inheritorToTestator */\n      0x01\n        /* \".deps/studying-solidity/InheritanceContract.sol\":1322:1356  inheritorToTestator[_addresses[i]] */\n      0x00\n        /* \".deps/studying-solidity/InheritanceContract.sol\":1342:1352  _addresses */\n      dup8\n        /* \".deps/studying-solidity/InheritanceContract.sol\":1353:1354  i */\n      dup6\n        /* \".deps/studying-solidity/InheritanceContract.sol\":1342:1355  _addresses[i] */\n      dup2\n      mload\n      dup2\n      lt\n      tag_79\n      jumpi\n      tag_80\n      tag_63\n      jump\t// in\n    tag_80:\n    tag_79:\n      0x20\n      mul\n      0x20\n      add\n      add\n      mload\n        /* \".deps/studying-solidity/InheritanceContract.sol\":1322:1356  inheritorToTestator[_addresses[i]] */\n      0xffffffffffffffffffffffffffffffffffffffff\n      and\n      0xffffffffffffffffffffffffffffffffffffffff\n      and\n      dup2\n      mstore\n      0x20\n      add\n      swap1\n      dup2\n      mstore\n      0x20\n      add\n      0x00\n      keccak256\n      0x00\n        /* \".deps/studying-solidity/InheritanceContract.sol\":1322:1362  inheritorToTestator[_addresses[i]] = own */\n      0x0100\n      exp\n      dup2\n      sload\n      dup2\n      0xffffffffffffffffffffffffffffffffffffffff\n      mul\n      not\n      and\n      swap1\n      dup4\n      0xffffffffffffffffffffffffffffffffffffffff\n      and\n      mul\n      or\n      swap1\n      sstore\n      pop\n        /* \".deps/studying-solidity/InheritanceContract.sol\":1376:1385  testators */\n      0x00\n        /* \".deps/studying-solidity/InheritanceContract.sol\":1376:1390  testators[own] */\n      dup1\n        /* \".deps/studying-solidity/InheritanceContract.sol\":1386:1389  own */\n      dup5\n        /* \".deps/studying-solidity/InheritanceContract.sol\":1376:1390  testators[own] */\n      0xffffffffffffffffffffffffffffffffffffffff\n      and\n      0xffffffffffffffffffffffffffffffffffffffff\n      and\n      dup2\n      mstore\n      0x20\n      add\n      swap1\n      dup2\n      mstore\n      0x20\n      add\n      0x00\n      keccak256\n        /* \".deps/studying-solidity/InheritanceContract.sol\":1376:1401  testators[own].inheritors */\n      0x00\n      add\n        /* \".deps/studying-solidity/InheritanceContract.sol\":1407:1417  _inheritor */\n      dup2\n        /* \".deps/studying-solidity/InheritanceContract.sol\":1376:1418  testators[own].inheritors.push(_inheritor) */\n      swap1\n      dup1\n      0x01\n      dup2\n      sload\n      add\n      dup1\n      dup3\n      sstore\n      dup1\n      swap2\n      pop\n      pop\n      0x01\n      swap1\n      sub\n      swap1\n      0x00\n      mstore\n      keccak256(0x00, 0x20)\n      add\n      0x00\n      swap1\n      swap2\n      swap1\n      swap2\n      swap1\n      swap2\n      pop\n      0x00\n      dup3\n      add\n      mload\n      dup2\n      0x00\n      add\n      exp(0x0100, 0x00)\n      dup2\n      sload\n      dup2\n      0xffffffffffffffffffffffffffffffffffffffff\n      mul\n      not\n      and\n      swap1\n      dup4\n      0xffffffffffffffffffffffffffffffffffffffff\n      and\n      mul\n      or\n      swap1\n      sstore\n      pop\n      0x20\n      dup3\n      add\n      mload\n      dup2\n      0x00\n      add\n      exp(0x0100, 0x14)\n      dup2\n      sload\n      dup2\n      0xff\n      mul\n      not\n      and\n      swap1\n      dup4\n      0xff\n      and\n      mul\n      or\n      swap1\n      sstore\n      pop\n      pop\n      pop\n        /* \".deps/studying-solidity/InheritanceContract.sol\":1175:1429  {... */\n      pop\n        /* \".deps/studying-solidity/InheritanceContract.sol\":1170:1173  i++ */\n      dup1\n      dup1\n      0x01\n      add\n      swap2\n      pop\n      pop\n        /* \".deps/studying-solidity/InheritanceContract.sol\":1127:1429  for (uint256 i = 0; i < _addresses.length; i++) {... */\n      jump(tag_72)\n    tag_73:\n      pop\n        /* \".deps/studying-solidity/InheritanceContract.sol\":1461:1465  true */\n      0x01\n        /* \".deps/studying-solidity/InheritanceContract.sol\":1438:1447  testators */\n      0x00\n        /* \".deps/studying-solidity/InheritanceContract.sol\":1438:1452  testators[own] */\n      dup1\n        /* \".deps/studying-solidity/InheritanceContract.sol\":1448:1451  own */\n      dup4\n        /* \".deps/studying-solidity/InheritanceContract.sol\":1438:1452  testators[own] */\n      0xffffffffffffffffffffffffffffffffffffffff\n      and\n      0xffffffffffffffffffffffffffffffffffffffff\n      and\n      dup2\n      mstore\n      0x20\n      add\n      swap1\n      dup2\n      mstore\n      0x20\n      add\n      0x00\n      keccak256\n        /* \".deps/studying-solidity/InheritanceContract.sol\":1438:1458  testators[own].exist */\n      0x01\n      add\n      0x00\n        /* \".deps/studying-solidity/InheritanceContract.sol\":1438:1465  testators[own].exist = true */\n      0x0100\n      exp\n      dup2\n      sload\n      dup2\n      0xff\n      mul\n      not\n      and\n      swap1\n      dup4\n      iszero\n      iszero\n      mul\n      or\n      swap1\n      sstore\n      pop\n        /* \".deps/studying-solidity/InheritanceContract.sol\":1508:1523  block.timestamp */\n      timestamp\n        /* \".deps/studying-solidity/InheritanceContract.sol\":1475:1484  testators */\n      0x00\n        /* \".deps/studying-solidity/InheritanceContract.sol\":1475:1489  testators[own] */\n      dup1\n        /* \".deps/studying-solidity/InheritanceContract.sol\":1485:1488  own */\n      dup4\n        /* \".deps/studying-solidity/InheritanceContract.sol\":1475:1489  testators[own] */\n      0xffffffffffffffffffffffffffffffffffffffff\n      and\n      0xffffffffffffffffffffffffffffffffffffffff\n      and\n      dup2\n      mstore\n      0x20\n      add\n      swap1\n      dup2\n      mstore\n      0x20\n      add\n      0x00\n      keccak256\n        /* \".deps/studying-solidity/InheritanceContract.sol\":1475:1505  testators[own].lastProofOfLife */\n      0x02\n      add\n        /* \".deps/studying-solidity/InheritanceContract.sol\":1475:1523  testators[own].lastProofOfLife = block.timestamp */\n      dup2\n      swap1\n      sstore\n      pop\n        /* \".deps/studying-solidity/InheritanceContract.sol\":1013:1530  {... */\n      pop\n        /* \".deps/studying-solidity/InheritanceContract.sol\":888:1530  function createInheritance(... */\n      pop\n      pop\n      jump\t// out\n        /* \".deps/studying-solidity/InheritanceContract.sol\":775:820  mapping(address => Testator) public testators */\n    tag_35:\n      mstore(0x20, 0x00)\n      dup1\n      0x00\n      mstore\n      keccak256(0x00, 0x40)\n      0x00\n      swap2\n      pop\n      swap1\n      pop\n      dup1\n      0x01\n      add\n      0x00\n      swap1\n      sload\n      swap1\n      0x0100\n      exp\n      swap1\n      div\n      0xff\n      and\n      swap1\n      dup1\n      0x02\n      add\n      sload\n      swap1\n      dup1\n      0x03\n      add\n      sload\n      swap1\n      pop\n      dup4\n      jump\t// out\n        /* \".deps/studying-solidity/InheritanceContract.sol\":2797:2996  function updateProofOfLife() external {... */\n    tag_40:\n        /* \".deps/studying-solidity/InheritanceContract.sol\":2845:2856  address own */\n      0x00\n        /* \".deps/studying-solidity/InheritanceContract.sol\":2859:2869  msg.sender */\n      caller\n        /* \".deps/studying-solidity/InheritanceContract.sol\":2845:2869  address own = msg.sender */\n      swap1\n      pop\n        /* \".deps/studying-solidity/InheritanceContract.sol\":2887:2896  testators */\n      0x00\n        /* \".deps/studying-solidity/InheritanceContract.sol\":2887:2901  testators[own] */\n      dup1\n        /* \".deps/studying-solidity/InheritanceContract.sol\":2897:2900  own */\n      dup3\n        /* \".deps/studying-solidity/InheritanceContract.sol\":2887:2901  testators[own] */\n      0xffffffffffffffffffffffffffffffffffffffff\n      and\n      0xffffffffffffffffffffffffffffffffffffffff\n      and\n      dup2\n      mstore\n      0x20\n      add\n      swap1\n      dup2\n      mstore\n      0x20\n      add\n      0x00\n      keccak256\n        /* \".deps/studying-solidity/InheritanceContract.sol\":2887:2907  testators[own].exist */\n      0x01\n      add\n      0x00\n      swap1\n      sload\n      swap1\n      0x0100\n      exp\n      swap1\n      div\n      0xff\n      and\n        /* \".deps/studying-solidity/InheritanceContract.sol\":2879:2931  require(testators[own].exist, \"Testador nao existe\") */\n      tag_83\n      jumpi\n      mload(0x40)\n      0x08c379a000000000000000000000000000000000000000000000000000000000\n      dup2\n      mstore\n      0x04\n      add\n      tag_84\n      swap1\n      tag_85\n      jump\t// in\n    tag_84:\n      mload(0x40)\n      dup1\n      swap2\n      sub\n      swap1\n      revert\n    tag_83:\n        /* \".deps/studying-solidity/InheritanceContract.sol\":2974:2989  block.timestamp */\n      timestamp\n        /* \".deps/studying-solidity/InheritanceContract.sol\":2941:2950  testators */\n      0x00\n        /* \".deps/studying-solidity/InheritanceContract.sol\":2941:2955  testators[own] */\n      dup1\n        /* \".deps/studying-solidity/InheritanceContract.sol\":2951:2954  own */\n      dup4\n        /* \".deps/studying-solidity/InheritanceContract.sol\":2941:2955  testators[own] */\n      0xffffffffffffffffffffffffffffffffffffffff\n      and\n      0xffffffffffffffffffffffffffffffffffffffff\n      and\n      dup2\n      mstore\n      0x20\n      add\n      swap1\n      dup2\n      mstore\n      0x20\n      add\n      0x00\n      keccak256\n        /* \".deps/studying-solidity/InheritanceContract.sol\":2941:2971  testators[own].lastProofOfLife */\n      0x02\n      add\n        /* \".deps/studying-solidity/InheritanceContract.sol\":2941:2989  testators[own].lastProofOfLife = block.timestamp */\n      dup2\n      swap1\n      sstore\n      pop\n        /* \".deps/studying-solidity/InheritanceContract.sol\":2835:2996  {... */\n      pop\n        /* \".deps/studying-solidity/InheritanceContract.sol\":2797:2996  function updateProofOfLife() external {... */\n      jump\t// out\n    tag_43:\n      pop\n      dup1\n      sload\n      0x00\n      dup3\n      sstore\n      swap1\n      0x00\n      mstore\n      keccak256(0x00, 0x20)\n      swap1\n      dup2\n      add\n      swap1\n      tag_87\n      swap2\n      swap1\n      tag_88\n      jump\t// in\n    tag_87:\n      pop\n      jump\t// out\n    tag_88:\n    tag_89:\n      dup1\n      dup3\n      gt\n      iszero\n      tag_90\n      jumpi\n      0x00\n      dup1\n      dup3\n      add\n      exp(0x0100, 0x00)\n      dup2\n      sload\n      swap1\n      0xffffffffffffffffffffffffffffffffffffffff\n      mul\n      not\n      and\n      swap1\n      sstore\n      0x00\n      dup3\n      add\n      exp(0x0100, 0x14)\n      dup2\n      sload\n      swap1\n      0xff\n      mul\n      not\n      and\n      swap1\n      sstore\n      pop\n      0x01\n      add\n      jump(tag_89)\n    tag_90:\n      pop\n      swap1\n      jump\t// out\n        /* \"#utility.yul\":7:121   */\n    tag_91:\n        /* \"#utility.yul\":74:80   */\n      0x00\n        /* \"#utility.yul\":108:113   */\n      dup2\n        /* \"#utility.yul\":102:114   */\n      mload\n        /* \"#utility.yul\":92:114   */\n      swap1\n      pop\n        /* \"#utility.yul\":7:121   */\n      swap2\n      swap1\n      pop\n      jump\t// out\n        /* \"#utility.yul\":127:311   */\n    tag_92:\n        /* \"#utility.yul\":226:237   */\n      0x00\n        /* \"#utility.yul\":260:266   */\n      dup3\n        /* \"#utility.yul\":255:258   */\n      dup3\n        /* \"#utility.yul\":248:267   */\n      mstore\n        /* \"#utility.yul\":300:304   */\n      0x20\n        /* \"#utility.yul\":295:298   */\n      dup3\n        /* \"#utility.yul\":291:305   */\n      add\n        /* \"#utility.yul\":276:305   */\n      swap1\n      pop\n        /* \"#utility.yul\":127:311   */\n      swap3\n      swap2\n      pop\n      pop\n      jump\t// out\n        /* \"#utility.yul\":317:449   */\n    tag_93:\n        /* \"#utility.yul\":384:388   */\n      0x00\n        /* \"#utility.yul\":407:410   */\n      dup2\n        /* \"#utility.yul\":399:410   */\n      swap1\n      pop\n        /* \"#utility.yul\":437:441   */\n      0x20\n        /* \"#utility.yul\":432:435   */\n      dup3\n        /* \"#utility.yul\":428:442   */\n      add\n        /* \"#utility.yul\":420:442   */\n      swap1\n      pop\n        /* \"#utility.yul\":317:449   */\n      swap2\n      swap1\n      pop\n      jump\t// out\n        /* \"#utility.yul\":455:581   */\n    tag_94:\n        /* \"#utility.yul\":492:499   */\n      0x00\n        /* \"#utility.yul\":532:574   */\n      0xffffffffffffffffffffffffffffffffffffffff\n        /* \"#utility.yul\":525:530   */\n      dup3\n        /* \"#utility.yul\":521:575   */\n      and\n        /* \"#utility.yul\":510:575   */\n      swap1\n      pop\n        /* \"#utility.yul\":455:581   */\n      swap2\n      swap1\n      pop\n      jump\t// out\n        /* \"#utility.yul\":587:683   */\n    tag_95:\n        /* \"#utility.yul\":624:631   */\n      0x00\n        /* \"#utility.yul\":653:677   */\n      tag_142\n        /* \"#utility.yul\":671:676   */\n      dup3\n        /* \"#utility.yul\":653:677   */\n      tag_94\n      jump\t// in\n    tag_142:\n        /* \"#utility.yul\":642:677   */\n      swap1\n      pop\n        /* \"#utility.yul\":587:683   */\n      swap2\n      swap1\n      pop\n      jump\t// out\n        /* \"#utility.yul\":689:797   */\n    tag_96:\n        /* \"#utility.yul\":766:790   */\n      tag_144\n        /* \"#utility.yul\":784:789   */\n      dup2\n        /* \"#utility.yul\":766:790   */\n      tag_95\n      jump\t// in\n    tag_144:\n        /* \"#utility.yul\":761:764   */\n      dup3\n        /* \"#utility.yul\":754:791   */\n      mstore\n        /* \"#utility.yul\":689:797   */\n      pop\n      pop\n      jump\t// out\n        /* \"#utility.yul\":803:982   */\n    tag_97:\n        /* \"#utility.yul\":872:882   */\n      0x00\n        /* \"#utility.yul\":893:939   */\n      tag_146\n        /* \"#utility.yul\":935:938   */\n      dup4\n        /* \"#utility.yul\":927:933   */\n      dup4\n        /* \"#utility.yul\":893:939   */\n      tag_96\n      jump\t// in\n    tag_146:\n        /* \"#utility.yul\":971:975   */\n      0x20\n        /* \"#utility.yul\":966:969   */\n      dup4\n        /* \"#utility.yul\":962:976   */\n      add\n        /* \"#utility.yul\":948:976   */\n      swap1\n      pop\n        /* \"#utility.yul\":803:982   */\n      swap3\n      swap2\n      pop\n      pop\n      jump\t// out\n        /* \"#utility.yul\":988:1101   */\n    tag_98:\n        /* \"#utility.yul\":1058:1062   */\n      0x00\n        /* \"#utility.yul\":1090:1094   */\n      0x20\n        /* \"#utility.yul\":1085:1088   */\n      dup3\n        /* \"#utility.yul\":1081:1095   */\n      add\n        /* \"#utility.yul\":1073:1095   */\n      swap1\n      pop\n        /* \"#utility.yul\":988:1101   */\n      swap2\n      swap1\n      pop\n      jump\t// out\n        /* \"#utility.yul\":1137:1869   */\n    tag_99:\n        /* \"#utility.yul\":1256:1259   */\n      0x00\n        /* \"#utility.yul\":1285:1339   */\n      tag_149\n        /* \"#utility.yul\":1333:1338   */\n      dup3\n        /* \"#utility.yul\":1285:1339   */\n      tag_91\n      jump\t// in\n    tag_149:\n        /* \"#utility.yul\":1355:1441   */\n      tag_150\n        /* \"#utility.yul\":1434:1440   */\n      dup2\n        /* \"#utility.yul\":1429:1432   */\n      dup6\n        /* \"#utility.yul\":1355:1441   */\n      tag_92\n      jump\t// in\n    tag_150:\n        /* \"#utility.yul\":1348:1441   */\n      swap4\n      pop\n        /* \"#utility.yul\":1465:1521   */\n      tag_151\n        /* \"#utility.yul\":1515:1520   */\n      dup4\n        /* \"#utility.yul\":1465:1521   */\n      tag_93\n      jump\t// in\n    tag_151:\n        /* \"#utility.yul\":1544:1551   */\n      dup1\n        /* \"#utility.yul\":1575:1576   */\n      0x00\n        /* \"#utility.yul\":1560:1844   */\n    tag_152:\n        /* \"#utility.yul\":1585:1591   */\n      dup4\n        /* \"#utility.yul\":1582:1583   */\n      dup2\n        /* \"#utility.yul\":1579:1592   */\n      lt\n        /* \"#utility.yul\":1560:1844   */\n      iszero\n      tag_154\n      jumpi\n        /* \"#utility.yul\":1661:1667   */\n      dup2\n        /* \"#utility.yul\":1655:1668   */\n      mload\n        /* \"#utility.yul\":1688:1751   */\n      tag_155\n        /* \"#utility.yul\":1747:1750   */\n      dup9\n        /* \"#utility.yul\":1732:1745   */\n      dup3\n        /* \"#utility.yul\":1688:1751   */\n      tag_97\n      jump\t// in\n    tag_155:\n        /* \"#utility.yul\":1681:1751   */\n      swap8\n      pop\n        /* \"#utility.yul\":1774:1834   */\n      tag_156\n        /* \"#utility.yul\":1827:1833   */\n      dup4\n        /* \"#utility.yul\":1774:1834   */\n      tag_98\n      jump\t// in\n    tag_156:\n        /* \"#utility.yul\":1764:1834   */\n      swap3\n      pop\n        /* \"#utility.yul\":1620:1844   */\n      pop\n        /* \"#utility.yul\":1607:1608   */\n      0x01\n        /* \"#utility.yul\":1604:1605   */\n      dup2\n        /* \"#utility.yul\":1600:1609   */\n      add\n        /* \"#utility.yul\":1595:1609   */\n      swap1\n      pop\n        /* \"#utility.yul\":1560:1844   */\n      jump(tag_152)\n    tag_154:\n        /* \"#utility.yul\":1564:1578   */\n      pop\n        /* \"#utility.yul\":1860:1863   */\n      dup6\n        /* \"#utility.yul\":1853:1863   */\n      swap4\n      pop\n        /* \"#utility.yul\":1261:1869   */\n      pop\n      pop\n      pop\n        /* \"#utility.yul\":1137:1869   */\n      swap3\n      swap2\n      pop\n      pop\n      jump\t// out\n        /* \"#utility.yul\":1875:1987   */\n    tag_100:\n        /* \"#utility.yul\":1940:1946   */\n      0x00\n        /* \"#utility.yul\":1974:1979   */\n      dup2\n        /* \"#utility.yul\":1968:1980   */\n      mload\n        /* \"#utility.yul\":1958:1980   */\n      swap1\n      pop\n        /* \"#utility.yul\":1875:1987   */\n      swap2\n      swap1\n      pop\n      jump\t// out\n        /* \"#utility.yul\":1993:2175   */\n    tag_101:\n        /* \"#utility.yul\":2090:2101   */\n      0x00\n        /* \"#utility.yul\":2124:2130   */\n      dup3\n        /* \"#utility.yul\":2119:2122   */\n      dup3\n        /* \"#utility.yul\":2112:2131   */\n      mstore\n        /* \"#utility.yul\":2164:2168   */\n      0x20\n        /* \"#utility.yul\":2159:2162   */\n      dup3\n        /* \"#utility.yul\":2155:2169   */\n      add\n        /* \"#utility.yul\":2140:2169   */\n      swap1\n      pop\n        /* \"#utility.yul\":1993:2175   */\n      swap3\n      swap2\n      pop\n      pop\n      jump\t// out\n        /* \"#utility.yul\":2181:2311   */\n    tag_102:\n        /* \"#utility.yul\":2246:2250   */\n      0x00\n        /* \"#utility.yul\":2269:2272   */\n      dup2\n        /* \"#utility.yul\":2261:2272   */\n      swap1\n      pop\n        /* \"#utility.yul\":2299:2303   */\n      0x20\n        /* \"#utility.yul\":2294:2297   */\n      dup3\n        /* \"#utility.yul\":2290:2304   */\n      add\n        /* \"#utility.yul\":2282:2304   */\n      swap1\n      pop\n        /* \"#utility.yul\":2181:2311   */\n      swap2\n      swap1\n      pop\n      jump\t// out\n        /* \"#utility.yul\":2317:2403   */\n    tag_103:\n        /* \"#utility.yul\":2352:2359   */\n      0x00\n        /* \"#utility.yul\":2392:2396   */\n      0xff\n        /* \"#utility.yul\":2385:2390   */\n      dup3\n        /* \"#utility.yul\":2381:2397   */\n      and\n        /* \"#utility.yul\":2370:2397   */\n      swap1\n      pop\n        /* \"#utility.yul\":2317:2403   */\n      swap2\n      swap1\n      pop\n      jump\t// out\n        /* \"#utility.yul\":2409:2511   */\n    tag_104:\n        /* \"#utility.yul\":2482:2504   */\n      tag_162\n        /* \"#utility.yul\":2498:2503   */\n      dup2\n        /* \"#utility.yul\":2482:2504   */\n      tag_103\n      jump\t// in\n    tag_162:\n        /* \"#utility.yul\":2477:2480   */\n      dup3\n        /* \"#utility.yul\":2470:2505   */\n      mstore\n        /* \"#utility.yul\":2409:2511   */\n      pop\n      pop\n      jump\t// out\n        /* \"#utility.yul\":2517:2688   */\n    tag_105:\n        /* \"#utility.yul\":2582:2592   */\n      0x00\n        /* \"#utility.yul\":2603:2645   */\n      tag_164\n        /* \"#utility.yul\":2641:2644   */\n      dup4\n        /* \"#utility.yul\":2633:2639   */\n      dup4\n        /* \"#utility.yul\":2603:2645   */\n      tag_104\n      jump\t// in\n    tag_164:\n        /* \"#utility.yul\":2677:2681   */\n      0x20\n        /* \"#utility.yul\":2672:2675   */\n      dup4\n        /* \"#utility.yul\":2668:2682   */\n      add\n        /* \"#utility.yul\":2654:2682   */\n      swap1\n      pop\n        /* \"#utility.yul\":2517:2688   */\n      swap3\n      swap2\n      pop\n      pop\n      jump\t// out\n        /* \"#utility.yul\":2694:2805   */\n    tag_106:\n        /* \"#utility.yul\":2762:2766   */\n      0x00\n        /* \"#utility.yul\":2794:2798   */\n      0x20\n        /* \"#utility.yul\":2789:2792   */\n      dup3\n        /* \"#utility.yul\":2785:2799   */\n      add\n        /* \"#utility.yul\":2777:2799   */\n      swap1\n      pop\n        /* \"#utility.yul\":2694:2805   */\n      swap2\n      swap1\n      pop\n      jump\t// out\n        /* \"#utility.yul\":2837:3553   */\n    tag_107:\n        /* \"#utility.yul\":2952:2955   */\n      0x00\n        /* \"#utility.yul\":2981:3033   */\n      tag_167\n        /* \"#utility.yul\":3027:3032   */\n      dup3\n        /* \"#utility.yul\":2981:3033   */\n      tag_100\n      jump\t// in\n    tag_167:\n        /* \"#utility.yul\":3049:3133   */\n      tag_168\n        /* \"#utility.yul\":3126:3132   */\n      dup2\n        /* \"#utility.yul\":3121:3124   */\n      dup6\n        /* \"#utility.yul\":3049:3133   */\n      tag_101\n      jump\t// in\n    tag_168:\n        /* \"#utility.yul\":3042:3133   */\n      swap4\n      pop\n        /* \"#utility.yul\":3157:3211   */\n      tag_169\n        /* \"#utility.yul\":3205:3210   */\n      dup4\n        /* \"#utility.yul\":3157:3211   */\n      tag_102\n      jump\t// in\n    tag_169:\n        /* \"#utility.yul\":3234:3241   */\n      dup1\n        /* \"#utility.yul\":3265:3266   */\n      0x00\n        /* \"#utility.yul\":3250:3528   */\n    tag_170:\n        /* \"#utility.yul\":3275:3281   */\n      dup4\n        /* \"#utility.yul\":3272:3273   */\n      dup2\n        /* \"#utility.yul\":3269:3282   */\n      lt\n        /* \"#utility.yul\":3250:3528   */\n      iszero\n      tag_172\n      jumpi\n        /* \"#utility.yul\":3351:3357   */\n      dup2\n        /* \"#utility.yul\":3345:3358   */\n      mload\n        /* \"#utility.yul\":3378:3437   */\n      tag_173\n        /* \"#utility.yul\":3433:3436   */\n      dup9\n        /* \"#utility.yul\":3418:3431   */\n      dup3\n        /* \"#utility.yul\":3378:3437   */\n      tag_105\n      jump\t// in\n    tag_173:\n        /* \"#utility.yul\":3371:3437   */\n      swap8\n      pop\n        /* \"#utility.yul\":3460:3518   */\n      tag_174\n        /* \"#utility.yul\":3511:3517   */\n      dup4\n        /* \"#utility.yul\":3460:3518   */\n      tag_106\n      jump\t// in\n    tag_174:\n        /* \"#utility.yul\":3450:3518   */\n      swap3\n      pop\n        /* \"#utility.yul\":3310:3528   */\n      pop\n        /* \"#utility.yul\":3297:3298   */\n      0x01\n        /* \"#utility.yul\":3294:3295   */\n      dup2\n        /* \"#utility.yul\":3290:3299   */\n      add\n        /* \"#utility.yul\":3285:3299   */\n      swap1\n      pop\n        /* \"#utility.yul\":3250:3528   */\n      jump(tag_170)\n    tag_172:\n        /* \"#utility.yul\":3254:3268   */\n      pop\n        /* \"#utility.yul\":3544:3547   */\n      dup6\n        /* \"#utility.yul\":3537:3547   */\n      swap4\n      pop\n        /* \"#utility.yul\":2957:3553   */\n      pop\n      pop\n      pop\n        /* \"#utility.yul\":2837:3553   */\n      swap3\n      swap2\n      pop\n      pop\n      jump\t// out\n        /* \"#utility.yul\":3559:3636   */\n    tag_108:\n        /* \"#utility.yul\":3596:3603   */\n      0x00\n        /* \"#utility.yul\":3625:3630   */\n      dup2\n        /* \"#utility.yul\":3614:3630   */\n      swap1\n      pop\n        /* \"#utility.yul\":3559:3636   */\n      swap2\n      swap1\n      pop\n      jump\t// out\n        /* \"#utility.yul\":3642:3760   */\n    tag_109:\n        /* \"#utility.yul\":3729:3753   */\n      tag_177\n        /* \"#utility.yul\":3747:3752   */\n      dup2\n        /* \"#utility.yul\":3729:3753   */\n      tag_108\n      jump\t// in\n    tag_177:\n        /* \"#utility.yul\":3724:3727   */\n      dup3\n        /* \"#utility.yul\":3717:3754   */\n      mstore\n        /* \"#utility.yul\":3642:3760   */\n      pop\n      pop\n      jump\t// out\n        /* \"#utility.yul\":3766:4613   */\n    tag_17:\n        /* \"#utility.yul\":4039:4043   */\n      0x00\n        /* \"#utility.yul\":4077:4080   */\n      0x80\n        /* \"#utility.yul\":4066:4075   */\n      dup3\n        /* \"#utility.yul\":4062:4081   */\n      add\n        /* \"#utility.yul\":4054:4081   */\n      swap1\n      pop\n        /* \"#utility.yul\":4127:4136   */\n      dup2\n        /* \"#utility.yul\":4121:4125   */\n      dup2\n        /* \"#utility.yul\":4117:4137   */\n      sub\n        /* \"#utility.yul\":4113:4114   */\n      0x00\n        /* \"#utility.yul\":4102:4111   */\n      dup4\n        /* \"#utility.yul\":4098:4115   */\n      add\n        /* \"#utility.yul\":4091:4138   */\n      mstore\n        /* \"#utility.yul\":4155:4263   */\n      tag_179\n        /* \"#utility.yul\":4258:4262   */\n      dup2\n        /* \"#utility.yul\":4249:4255   */\n      dup8\n        /* \"#utility.yul\":4155:4263   */\n      tag_99\n      jump\t// in\n    tag_179:\n        /* \"#utility.yul\":4147:4263   */\n      swap1\n      pop\n        /* \"#utility.yul\":4310:4319   */\n      dup2\n        /* \"#utility.yul\":4304:4308   */\n      dup2\n        /* \"#utility.yul\":4300:4320   */\n      sub\n        /* \"#utility.yul\":4295:4297   */\n      0x20\n        /* \"#utility.yul\":4284:4293   */\n      dup4\n        /* \"#utility.yul\":4280:4298   */\n      add\n        /* \"#utility.yul\":4273:4321   */\n      mstore\n        /* \"#utility.yul\":4338:4442   */\n      tag_180\n        /* \"#utility.yul\":4437:4441   */\n      dup2\n        /* \"#utility.yul\":4428:4434   */\n      dup7\n        /* \"#utility.yul\":4338:4442   */\n      tag_107\n      jump\t// in\n    tag_180:\n        /* \"#utility.yul\":4330:4442   */\n      swap1\n      pop\n        /* \"#utility.yul\":4452:4524   */\n      tag_181\n        /* \"#utility.yul\":4520:4522   */\n      0x40\n        /* \"#utility.yul\":4509:4518   */\n      dup4\n        /* \"#utility.yul\":4505:4523   */\n      add\n        /* \"#utility.yul\":4496:4502   */\n      dup6\n        /* \"#utility.yul\":4452:4524   */\n      tag_109\n      jump\t// in\n    tag_181:\n        /* \"#utility.yul\":4534:4606   */\n      tag_182\n        /* \"#utility.yul\":4602:4604   */\n      0x60\n        /* \"#utility.yul\":4591:4600   */\n      dup4\n        /* \"#utility.yul\":4587:4605   */\n      add\n        /* \"#utility.yul\":4578:4584   */\n      dup5\n        /* \"#utility.yul\":4534:4606   */\n      tag_109\n      jump\t// in\n    tag_182:\n        /* \"#utility.yul\":3766:4613   */\n      swap6\n      swap5\n      pop\n      pop\n      pop\n      pop\n      pop\n      jump\t// out\n        /* \"#utility.yul\":4619:4694   */\n    tag_110:\n        /* \"#utility.yul\":4652:4658   */\n      0x00\n        /* \"#utility.yul\":4685:4687   */\n      0x40\n        /* \"#utility.yul\":4679:4688   */\n      mload\n        /* \"#utility.yul\":4669:4688   */\n      swap1\n      pop\n        /* \"#utility.yul\":4619:4694   */\n      swap1\n      jump\t// out\n        /* \"#utility.yul\":4700:4817   */\n    tag_111:\n        /* \"#utility.yul\":4809:4810   */\n      0x00\n        /* \"#utility.yul\":4806:4807   */\n      dup1\n        /* \"#utility.yul\":4799:4811   */\n      revert\n        /* \"#utility.yul\":4823:4940   */\n    tag_112:\n        /* \"#utility.yul\":4932:4933   */\n      0x00\n        /* \"#utility.yul\":4929:4930   */\n      dup1\n        /* \"#utility.yul\":4922:4934   */\n      revert\n        /* \"#utility.yul\":4946:5068   */\n    tag_113:\n        /* \"#utility.yul\":5019:5043   */\n      tag_187\n        /* \"#utility.yul\":5037:5042   */\n      dup2\n        /* \"#utility.yul\":5019:5043   */\n      tag_95\n      jump\t// in\n    tag_187:\n        /* \"#utility.yul\":5012:5017   */\n      dup2\n        /* \"#utility.yul\":5009:5044   */\n      eq\n        /* \"#utility.yul\":4999:5062   */\n      tag_188\n      jumpi\n        /* \"#utility.yul\":5058:5059   */\n      0x00\n        /* \"#utility.yul\":5055:5056   */\n      dup1\n        /* \"#utility.yul\":5048:5060   */\n      revert\n        /* \"#utility.yul\":4999:5062   */\n    tag_188:\n        /* \"#utility.yul\":4946:5068   */\n      pop\n      jump\t// out\n        /* \"#utility.yul\":5074:5213   */\n    tag_114:\n        /* \"#utility.yul\":5120:5125   */\n      0x00\n        /* \"#utility.yul\":5158:5164   */\n      dup2\n        /* \"#utility.yul\":5145:5165   */\n      calldataload\n        /* \"#utility.yul\":5136:5165   */\n      swap1\n      pop\n        /* \"#utility.yul\":5174:5207   */\n      tag_190\n        /* \"#utility.yul\":5201:5206   */\n      dup2\n        /* \"#utility.yul\":5174:5207   */\n      tag_113\n      jump\t// in\n    tag_190:\n        /* \"#utility.yul\":5074:5213   */\n      swap3\n      swap2\n      pop\n      pop\n      jump\t// out\n        /* \"#utility.yul\":5219:5548   */\n    tag_21:\n        /* \"#utility.yul\":5278:5284   */\n      0x00\n        /* \"#utility.yul\":5327:5329   */\n      0x20\n        /* \"#utility.yul\":5315:5324   */\n      dup3\n        /* \"#utility.yul\":5306:5313   */\n      dup5\n        /* \"#utility.yul\":5302:5325   */\n      sub\n        /* \"#utility.yul\":5298:5330   */\n      slt\n        /* \"#utility.yul\":5295:5414   */\n      iszero\n      tag_192\n      jumpi\n        /* \"#utility.yul\":5333:5412   */\n      tag_193\n      tag_111\n      jump\t// in\n    tag_193:\n        /* \"#utility.yul\":5295:5414   */\n    tag_192:\n        /* \"#utility.yul\":5453:5454   */\n      0x00\n        /* \"#utility.yul\":5478:5531   */\n      tag_194\n        /* \"#utility.yul\":5523:5530   */\n      dup5\n        /* \"#utility.yul\":5514:5520   */\n      dup3\n        /* \"#utility.yul\":5503:5512   */\n      dup6\n        /* \"#utility.yul\":5499:5521   */\n      add\n        /* \"#utility.yul\":5478:5531   */\n      tag_114\n      jump\t// in\n    tag_194:\n        /* \"#utility.yul\":5468:5531   */\n      swap2\n      pop\n        /* \"#utility.yul\":5424:5541   */\n      pop\n        /* \"#utility.yul\":5219:5548   */\n      swap3\n      swap2\n      pop\n      pop\n      jump\t// out\n        /* \"#utility.yul\":5554:5672   */\n    tag_115:\n        /* \"#utility.yul\":5641:5665   */\n      tag_196\n        /* \"#utility.yul\":5659:5664   */\n      dup2\n        /* \"#utility.yul\":5641:5665   */\n      tag_95\n      jump\t// in\n    tag_196:\n        /* \"#utility.yul\":5636:5639   */\n      dup3\n        /* \"#utility.yul\":5629:5666   */\n      mstore\n        /* \"#utility.yul\":5554:5672   */\n      pop\n      pop\n      jump\t// out\n        /* \"#utility.yul\":5678:5900   */\n    tag_24:\n        /* \"#utility.yul\":5771:5775   */\n      0x00\n        /* \"#utility.yul\":5809:5811   */\n      0x20\n        /* \"#utility.yul\":5798:5807   */\n      dup3\n        /* \"#utility.yul\":5794:5812   */\n      add\n        /* \"#utility.yul\":5786:5812   */\n      swap1\n      pop\n        /* \"#utility.yul\":5822:5893   */\n      tag_198\n        /* \"#utility.yul\":5890:5891   */\n      0x00\n        /* \"#utility.yul\":5879:5888   */\n      dup4\n        /* \"#utility.yul\":5875:5892   */\n      add\n        /* \"#utility.yul\":5866:5872   */\n      dup5\n        /* \"#utility.yul\":5822:5893   */\n      tag_115\n      jump\t// in\n    tag_198:\n        /* \"#utility.yul\":5678:5900   */\n      swap3\n      swap2\n      pop\n      pop\n      jump\t// out\n        /* \"#utility.yul\":5906:6023   */\n    tag_116:\n        /* \"#utility.yul\":6015:6016   */\n      0x00\n        /* \"#utility.yul\":6012:6013   */\n      dup1\n        /* \"#utility.yul\":6005:6017   */\n      revert\n        /* \"#utility.yul\":6029:6131   */\n    tag_117:\n        /* \"#utility.yul\":6070:6076   */\n      0x00\n        /* \"#utility.yul\":6121:6123   */\n      0x1f\n        /* \"#utility.yul\":6117:6124   */\n      not\n        /* \"#utility.yul\":6112:6114   */\n      0x1f\n        /* \"#utility.yul\":6105:6110   */\n      dup4\n        /* \"#utility.yul\":6101:6115   */\n      add\n        /* \"#utility.yul\":6097:6125   */\n      and\n        /* \"#utility.yul\":6087:6125   */\n      swap1\n      pop\n        /* \"#utility.yul\":6029:6131   */\n      swap2\n      swap1\n      pop\n      jump\t// out\n        /* \"#utility.yul\":6137:6317   */\n    tag_53:\n        /* \"#utility.yul\":6185:6262   */\n      0x4e487b7100000000000000000000000000000000000000000000000000000000\n        /* \"#utility.yul\":6182:6183   */\n      0x00\n        /* \"#utility.yul\":6175:6263   */\n      mstore\n        /* \"#utility.yul\":6282:6286   */\n      0x41\n        /* \"#utility.yul\":6279:6280   */\n      0x04\n        /* \"#utility.yul\":6272:6287   */\n      mstore\n        /* \"#utility.yul\":6306:6310   */\n      0x24\n        /* \"#utility.yul\":6303:6304   */\n      0x00\n        /* \"#utility.yul\":6296:6311   */\n      revert\n        /* \"#utility.yul\":6323:6604   */\n    tag_118:\n        /* \"#utility.yul\":6406:6433   */\n      tag_203\n        /* \"#utility.yul\":6428:6432   */\n      dup3\n        /* \"#utility.yul\":6406:6433   */\n      tag_117\n      jump\t// in\n    tag_203:\n        /* \"#utility.yul\":6398:6404   */\n      dup2\n        /* \"#utility.yul\":6394:6434   */\n      add\n        /* \"#utility.yul\":6536:6542   */\n      dup2\n        /* \"#utility.yul\":6524:6534   */\n      dup2\n        /* \"#utility.yul\":6521:6543   */\n      lt\n        /* \"#utility.yul\":6500:6518   */\n      0xffffffffffffffff\n        /* \"#utility.yul\":6488:6498   */\n      dup3\n        /* \"#utility.yul\":6485:6519   */\n      gt\n        /* \"#utility.yul\":6482:6544   */\n      or\n        /* \"#utility.yul\":6479:6567   */\n      iszero\n      tag_204\n      jumpi\n        /* \"#utility.yul\":6547:6565   */\n      tag_205\n      tag_53\n      jump\t// in\n    tag_205:\n        /* \"#utility.yul\":6479:6567   */\n    tag_204:\n        /* \"#utility.yul\":6587:6597   */\n      dup1\n        /* \"#utility.yul\":6583:6585   */\n      0x40\n        /* \"#utility.yul\":6576:6598   */\n      mstore\n        /* \"#utility.yul\":6366:6604   */\n      pop\n        /* \"#utility.yul\":6323:6604   */\n      pop\n      pop\n      jump\t// out\n        /* \"#utility.yul\":6610:6739   */\n    tag_119:\n        /* \"#utility.yul\":6644:6650   */\n      0x00\n        /* \"#utility.yul\":6671:6691   */\n      tag_207\n      tag_110\n      jump\t// in\n    tag_207:\n        /* \"#utility.yul\":6661:6691   */\n      swap1\n      pop\n        /* \"#utility.yul\":6700:6733   */\n      tag_208\n        /* \"#utility.yul\":6728:6732   */\n      dup3\n        /* \"#utility.yul\":6720:6726   */\n      dup3\n        /* \"#utility.yul\":6700:6733   */\n      tag_118\n      jump\t// in\n    tag_208:\n        /* \"#utility.yul\":6610:6739   */\n      swap2\n      swap1\n      pop\n      jump\t// out\n        /* \"#utility.yul\":6745:7056   */\n    tag_120:\n        /* \"#utility.yul\":6822:6826   */\n      0x00\n        /* \"#utility.yul\":6912:6930   */\n      0xffffffffffffffff\n        /* \"#utility.yul\":6904:6910   */\n      dup3\n        /* \"#utility.yul\":6901:6931   */\n      gt\n        /* \"#utility.yul\":6898:6954   */\n      iszero\n      tag_210\n      jumpi\n        /* \"#utility.yul\":6934:6952   */\n      tag_211\n      tag_53\n      jump\t// in\n    tag_211:\n        /* \"#utility.yul\":6898:6954   */\n    tag_210:\n        /* \"#utility.yul\":6984:6988   */\n      0x20\n        /* \"#utility.yul\":6976:6982   */\n      dup3\n        /* \"#utility.yul\":6972:6989   */\n      mul\n        /* \"#utility.yul\":6964:6989   */\n      swap1\n      pop\n        /* \"#utility.yul\":7044:7048   */\n      0x20\n        /* \"#utility.yul\":7038:7042   */\n      dup2\n        /* \"#utility.yul\":7034:7049   */\n      add\n        /* \"#utility.yul\":7026:7049   */\n      swap1\n      pop\n        /* \"#utility.yul\":6745:7056   */\n      swap2\n      swap1\n      pop\n      jump\t// out\n        /* \"#utility.yul\":7062:7179   */\n    tag_121:\n        /* \"#utility.yul\":7171:7172   */\n      0x00\n        /* \"#utility.yul\":7168:7169   */\n      dup1\n        /* \"#utility.yul\":7161:7173   */\n      revert\n        /* \"#utility.yul\":7202:7912   */\n    tag_122:\n        /* \"#utility.yul\":7298:7303   */\n      0x00\n        /* \"#utility.yul\":7323:7404   */\n      tag_214\n        /* \"#utility.yul\":7339:7403   */\n      tag_215\n        /* \"#utility.yul\":7396:7402   */\n      dup5\n        /* \"#utility.yul\":7339:7403   */\n      tag_120\n      jump\t// in\n    tag_215:\n        /* \"#utility.yul\":7323:7404   */\n      tag_119\n      jump\t// in\n    tag_214:\n        /* \"#utility.yul\":7314:7404   */\n      swap1\n      pop\n        /* \"#utility.yul\":7424:7429   */\n      dup1\n        /* \"#utility.yul\":7453:7459   */\n      dup4\n        /* \"#utility.yul\":7446:7451   */\n      dup3\n        /* \"#utility.yul\":7439:7460   */\n      mstore\n        /* \"#utility.yul\":7487:7491   */\n      0x20\n        /* \"#utility.yul\":7480:7485   */\n      dup3\n        /* \"#utility.yul\":7476:7492   */\n      add\n        /* \"#utility.yul\":7469:7492   */\n      swap1\n      pop\n        /* \"#utility.yul\":7540:7544   */\n      0x20\n        /* \"#utility.yul\":7532:7538   */\n      dup5\n        /* \"#utility.yul\":7528:7545   */\n      mul\n        /* \"#utility.yul\":7520:7526   */\n      dup4\n        /* \"#utility.yul\":7516:7546   */\n      add\n        /* \"#utility.yul\":7569:7572   */\n      dup6\n        /* \"#utility.yul\":7561:7567   */\n      dup2\n        /* \"#utility.yul\":7558:7573   */\n      gt\n        /* \"#utility.yul\":7555:7677   */\n      iszero\n      tag_216\n      jumpi\n        /* \"#utility.yul\":7588:7667   */\n      tag_217\n      tag_121\n      jump\t// in\n    tag_217:\n        /* \"#utility.yul\":7555:7677   */\n    tag_216:\n        /* \"#utility.yul\":7703:7709   */\n      dup4\n        /* \"#utility.yul\":7686:7906   */\n    tag_218:\n        /* \"#utility.yul\":7720:7726   */\n      dup2\n        /* \"#utility.yul\":7715:7718   */\n      dup2\n        /* \"#utility.yul\":7712:7727   */\n      lt\n        /* \"#utility.yul\":7686:7906   */\n      iszero\n      tag_220\n      jumpi\n        /* \"#utility.yul\":7795:7798   */\n      dup1\n        /* \"#utility.yul\":7824:7861   */\n      tag_221\n        /* \"#utility.yul\":7857:7860   */\n      dup9\n        /* \"#utility.yul\":7845:7855   */\n      dup3\n        /* \"#utility.yul\":7824:7861   */\n      tag_114\n      jump\t// in\n    tag_221:\n        /* \"#utility.yul\":7819:7822   */\n      dup5\n        /* \"#utility.yul\":7812:7862   */\n      mstore\n        /* \"#utility.yul\":7891:7895   */\n      0x20\n        /* \"#utility.yul\":7886:7889   */\n      dup5\n        /* \"#utility.yul\":7882:7896   */\n      add\n        /* \"#utility.yul\":7875:7896   */\n      swap4\n      pop\n        /* \"#utility.yul\":7762:7906   */\n      pop\n        /* \"#utility.yul\":7746:7750   */\n      0x20\n        /* \"#utility.yul\":7741:7744   */\n      dup2\n        /* \"#utility.yul\":7737:7751   */\n      add\n        /* \"#utility.yul\":7730:7751   */\n      swap1\n      pop\n        /* \"#utility.yul\":7686:7906   */\n      jump(tag_218)\n    tag_220:\n        /* \"#utility.yul\":7690:7711   */\n      pop\n        /* \"#utility.yul\":7304:7912   */\n      pop\n      pop\n        /* \"#utility.yul\":7202:7912   */\n      swap4\n      swap3\n      pop\n      pop\n      pop\n      jump\t// out\n        /* \"#utility.yul\":7935:8305   */\n    tag_123:\n        /* \"#utility.yul\":8006:8011   */\n      0x00\n        /* \"#utility.yul\":8055:8058   */\n      dup3\n        /* \"#utility.yul\":8048:8052   */\n      0x1f\n        /* \"#utility.yul\":8040:8046   */\n      dup4\n        /* \"#utility.yul\":8036:8053   */\n      add\n        /* \"#utility.yul\":8032:8059   */\n      slt\n        /* \"#utility.yul\":8022:8144   */\n      tag_223\n      jumpi\n        /* \"#utility.yul\":8063:8142   */\n      tag_224\n      tag_116\n      jump\t// in\n    tag_224:\n        /* \"#utility.yul\":8022:8144   */\n    tag_223:\n        /* \"#utility.yul\":8180:8186   */\n      dup2\n        /* \"#utility.yul\":8167:8187   */\n      calldataload\n        /* \"#utility.yul\":8205:8299   */\n      tag_225\n        /* \"#utility.yul\":8295:8298   */\n      dup5\n        /* \"#utility.yul\":8287:8293   */\n      dup3\n        /* \"#utility.yul\":8280:8284   */\n      0x20\n        /* \"#utility.yul\":8272:8278   */\n      dup7\n        /* \"#utility.yul\":8268:8285   */\n      add\n        /* \"#utility.yul\":8205:8299   */\n      tag_122\n      jump\t// in\n    tag_225:\n        /* \"#utility.yul\":8196:8299   */\n      swap2\n      pop\n        /* \"#utility.yul\":8012:8305   */\n      pop\n        /* \"#utility.yul\":7935:8305   */\n      swap3\n      swap2\n      pop\n      pop\n      jump\t// out\n        /* \"#utility.yul\":8311:8620   */\n    tag_124:\n        /* \"#utility.yul\":8386:8390   */\n      0x00\n        /* \"#utility.yul\":8476:8494   */\n      0xffffffffffffffff\n        /* \"#utility.yul\":8468:8474   */\n      dup3\n        /* \"#utility.yul\":8465:8495   */\n      gt\n        /* \"#utility.yul\":8462:8518   */\n      iszero\n      tag_227\n      jumpi\n        /* \"#utility.yul\":8498:8516   */\n      tag_228\n      tag_53\n      jump\t// in\n    tag_228:\n        /* \"#utility.yul\":8462:8518   */\n    tag_227:\n        /* \"#utility.yul\":8548:8552   */\n      0x20\n        /* \"#utility.yul\":8540:8546   */\n      dup3\n        /* \"#utility.yul\":8536:8553   */\n      mul\n        /* \"#utility.yul\":8528:8553   */\n      swap1\n      pop\n        /* \"#utility.yul\":8608:8612   */\n      0x20\n        /* \"#utility.yul\":8602:8606   */\n      dup2\n        /* \"#utility.yul\":8598:8613   */\n      add\n        /* \"#utility.yul\":8590:8613   */\n      swap1\n      pop\n        /* \"#utility.yul\":8311:8620   */\n      swap2\n      swap1\n      pop\n      jump\t// out\n        /* \"#utility.yul\":8626:8744   */\n    tag_125:\n        /* \"#utility.yul\":8697:8719   */\n      tag_230\n        /* \"#utility.yul\":8713:8718   */\n      dup2\n        /* \"#utility.yul\":8697:8719   */\n      tag_103\n      jump\t// in\n    tag_230:\n        /* \"#utility.yul\":8690:8695   */\n      dup2\n        /* \"#utility.yul\":8687:8720   */\n      eq\n        /* \"#utility.yul\":8677:8738   */\n      tag_231\n      jumpi\n        /* \"#utility.yul\":8734:8735   */\n      0x00\n        /* \"#utility.yul\":8731:8732   */\n      dup1\n        /* \"#utility.yul\":8724:8736   */\n      revert\n        /* \"#utility.yul\":8677:8738   */\n    tag_231:\n        /* \"#utility.yul\":8626:8744   */\n      pop\n      jump\t// out\n        /* \"#utility.yul\":8750:8885   */\n    tag_126:\n        /* \"#utility.yul\":8794:8799   */\n      0x00\n        /* \"#utility.yul\":8832:8838   */\n      dup2\n        /* \"#utility.yul\":8819:8839   */\n      calldataload\n        /* \"#utility.yul\":8810:8839   */\n      swap1\n      pop\n        /* \"#utility.yul\":8848:8879   */\n      tag_233\n        /* \"#utility.yul\":8873:8878   */\n      dup2\n        /* \"#utility.yul\":8848:8879   */\n      tag_125\n      jump\t// in\n    tag_233:\n        /* \"#utility.yul\":8750:8885   */\n      swap3\n      swap2\n      pop\n      pop\n      jump\t// out\n        /* \"#utility.yul\":8906:9610   */\n    tag_127:\n        /* \"#utility.yul\":9000:9005   */\n      0x00\n        /* \"#utility.yul\":9025:9104   */\n      tag_235\n        /* \"#utility.yul\":9041:9103   */\n      tag_236\n        /* \"#utility.yul\":9096:9102   */\n      dup5\n        /* \"#utility.yul\":9041:9103   */\n      tag_124\n      jump\t// in\n    tag_236:\n        /* \"#utility.yul\":9025:9104   */\n      tag_119\n      jump\t// in\n    tag_235:\n        /* \"#utility.yul\":9016:9104   */\n      swap1\n      pop\n        /* \"#utility.yul\":9124:9129   */\n      dup1\n        /* \"#utility.yul\":9153:9159   */\n      dup4\n        /* \"#utility.yul\":9146:9151   */\n      dup3\n        /* \"#utility.yul\":9139:9160   */\n      mstore\n        /* \"#utility.yul\":9187:9191   */\n      0x20\n        /* \"#utility.yul\":9180:9185   */\n      dup3\n        /* \"#utility.yul\":9176:9192   */\n      add\n        /* \"#utility.yul\":9169:9192   */\n      swap1\n      pop\n        /* \"#utility.yul\":9240:9244   */\n      0x20\n        /* \"#utility.yul\":9232:9238   */\n      dup5\n        /* \"#utility.yul\":9228:9245   */\n      mul\n        /* \"#utility.yul\":9220:9226   */\n      dup4\n        /* \"#utility.yul\":9216:9246   */\n      add\n        /* \"#utility.yul\":9269:9272   */\n      dup6\n        /* \"#utility.yul\":9261:9267   */\n      dup2\n        /* \"#utility.yul\":9258:9273   */\n      gt\n        /* \"#utility.yul\":9255:9377   */\n      iszero\n      tag_237\n      jumpi\n        /* \"#utility.yul\":9288:9367   */\n      tag_238\n      tag_121\n      jump\t// in\n    tag_238:\n        /* \"#utility.yul\":9255:9377   */\n    tag_237:\n        /* \"#utility.yul\":9403:9409   */\n      dup4\n        /* \"#utility.yul\":9386:9604   */\n    tag_239:\n        /* \"#utility.yul\":9420:9426   */\n      dup2\n        /* \"#utility.yul\":9415:9418   */\n      dup2\n        /* \"#utility.yul\":9412:9427   */\n      lt\n        /* \"#utility.yul\":9386:9604   */\n      iszero\n      tag_241\n      jumpi\n        /* \"#utility.yul\":9495:9498   */\n      dup1\n        /* \"#utility.yul\":9524:9559   */\n      tag_242\n        /* \"#utility.yul\":9555:9558   */\n      dup9\n        /* \"#utility.yul\":9543:9553   */\n      dup3\n        /* \"#utility.yul\":9524:9559   */\n      tag_126\n      jump\t// in\n    tag_242:\n        /* \"#utility.yul\":9519:9522   */\n      dup5\n        /* \"#utility.yul\":9512:9560   */\n      mstore\n        /* \"#utility.yul\":9589:9593   */\n      0x20\n        /* \"#utility.yul\":9584:9587   */\n      dup5\n        /* \"#utility.yul\":9580:9594   */\n      add\n        /* \"#utility.yul\":9573:9594   */\n      swap4\n      pop\n        /* \"#utility.yul\":9462:9604   */\n      pop\n        /* \"#utility.yul\":9446:9450   */\n      0x20\n        /* \"#utility.yul\":9441:9444   */\n      dup2\n        /* \"#utility.yul\":9437:9451   */\n      add\n        /* \"#utility.yul\":9430:9451   */\n      swap1\n      pop\n        /* \"#utility.yul\":9386:9604   */\n      jump(tag_239)\n    tag_241:\n        /* \"#utility.yul\":9390:9411   */\n      pop\n        /* \"#utility.yul\":9006:9610   */\n      pop\n      pop\n        /* \"#utility.yul\":8906:9610   */\n      swap4\n      swap3\n      pop\n      pop\n      pop\n      jump\t// out\n        /* \"#utility.yul\":9631:9997   */\n    tag_128:\n        /* \"#utility.yul\":9700:9705   */\n      0x00\n        /* \"#utility.yul\":9749:9752   */\n      dup3\n        /* \"#utility.yul\":9742:9746   */\n      0x1f\n        /* \"#utility.yul\":9734:9740   */\n      dup4\n        /* \"#utility.yul\":9730:9747   */\n      add\n        /* \"#utility.yul\":9726:9753   */\n      slt\n        /* \"#utility.yul\":9716:9838   */\n      tag_244\n      jumpi\n        /* \"#utility.yul\":9757:9836   */\n      tag_245\n      tag_116\n      jump\t// in\n    tag_245:\n        /* \"#utility.yul\":9716:9838   */\n    tag_244:\n        /* \"#utility.yul\":9874:9880   */\n      dup2\n        /* \"#utility.yul\":9861:9881   */\n      calldataload\n        /* \"#utility.yul\":9899:9991   */\n      tag_246\n        /* \"#utility.yul\":9987:9990   */\n      dup5\n        /* \"#utility.yul\":9979:9985   */\n      dup3\n        /* \"#utility.yul\":9972:9976   */\n      0x20\n        /* \"#utility.yul\":9964:9970   */\n      dup7\n        /* \"#utility.yul\":9960:9977   */\n      add\n        /* \"#utility.yul\":9899:9991   */\n      tag_127\n      jump\t// in\n    tag_246:\n        /* \"#utility.yul\":9890:9991   */\n      swap2\n      pop\n        /* \"#utility.yul\":9706:9997   */\n      pop\n        /* \"#utility.yul\":9631:9997   */\n      swap3\n      swap2\n      pop\n      pop\n      jump\t// out\n        /* \"#utility.yul\":10003:10893   */\n    tag_30:\n        /* \"#utility.yul\":10119:10125   */\n      0x00\n        /* \"#utility.yul\":10127:10133   */\n      dup1\n        /* \"#utility.yul\":10176:10178   */\n      0x40\n        /* \"#utility.yul\":10164:10173   */\n      dup4\n        /* \"#utility.yul\":10155:10162   */\n      dup6\n        /* \"#utility.yul\":10151:10174   */\n      sub\n        /* \"#utility.yul\":10147:10179   */\n      slt\n        /* \"#utility.yul\":10144:10263   */\n      iszero\n      tag_248\n      jumpi\n        /* \"#utility.yul\":10182:10261   */\n      tag_249\n      tag_111\n      jump\t// in\n    tag_249:\n        /* \"#utility.yul\":10144:10263   */\n    tag_248:\n        /* \"#utility.yul\":10330:10331   */\n      0x00\n        /* \"#utility.yul\":10319:10328   */\n      dup4\n        /* \"#utility.yul\":10315:10332   */\n      add\n        /* \"#utility.yul\":10302:10333   */\n      calldataload\n        /* \"#utility.yul\":10360:10378   */\n      0xffffffffffffffff\n        /* \"#utility.yul\":10352:10358   */\n      dup2\n        /* \"#utility.yul\":10349:10379   */\n      gt\n        /* \"#utility.yul\":10346:10463   */\n      iszero\n      tag_250\n      jumpi\n        /* \"#utility.yul\":10382:10461   */\n      tag_251\n      tag_112\n      jump\t// in\n    tag_251:\n        /* \"#utility.yul\":10346:10463   */\n    tag_250:\n        /* \"#utility.yul\":10487:10565   */\n      tag_252\n        /* \"#utility.yul\":10557:10564   */\n      dup6\n        /* \"#utility.yul\":10548:10554   */\n      dup3\n        /* \"#utility.yul\":10537:10546   */\n      dup7\n        /* \"#utility.yul\":10533:10555   */\n      add\n        /* \"#utility.yul\":10487:10565   */\n      tag_123\n      jump\t// in\n    tag_252:\n        /* \"#utility.yul\":10477:10565   */\n      swap3\n      pop\n        /* \"#utility.yul\":10273:10575   */\n      pop\n        /* \"#utility.yul\":10642:10644   */\n      0x20\n        /* \"#utility.yul\":10631:10640   */\n      dup4\n        /* \"#utility.yul\":10627:10645   */\n      add\n        /* \"#utility.yul\":10614:10646   */\n      calldataload\n        /* \"#utility.yul\":10673:10691   */\n      0xffffffffffffffff\n        /* \"#utility.yul\":10665:10671   */\n      dup2\n        /* \"#utility.yul\":10662:10692   */\n      gt\n        /* \"#utility.yul\":10659:10776   */\n      iszero\n      tag_253\n      jumpi\n        /* \"#utility.yul\":10695:10774   */\n      tag_254\n      tag_112\n      jump\t// in\n    tag_254:\n        /* \"#utility.yul\":10659:10776   */\n    tag_253:\n        /* \"#utility.yul\":10800:10876   */\n      tag_255\n        /* \"#utility.yul\":10868:10875   */\n      dup6\n        /* \"#utility.yul\":10859:10865   */\n      dup3\n        /* \"#utility.yul\":10848:10857   */\n      dup7\n        /* \"#utility.yul\":10844:10866   */\n      add\n        /* \"#utility.yul\":10800:10876   */\n      tag_128\n      jump\t// in\n    tag_255:\n        /* \"#utility.yul\":10790:10876   */\n      swap2\n      pop\n        /* \"#utility.yul\":10585:10886   */\n      pop\n        /* \"#utility.yul\":10003:10893   */\n      swap3\n      pop\n      swap3\n      swap1\n      pop\n      jump\t// out\n        /* \"#utility.yul\":10899:10989   */\n    tag_129:\n        /* \"#utility.yul\":10933:10940   */\n      0x00\n        /* \"#utility.yul\":10976:10981   */\n      dup2\n        /* \"#utility.yul\":10969:10982   */\n      iszero\n        /* \"#utility.yul\":10962:10983   */\n      iszero\n        /* \"#utility.yul\":10951:10983   */\n      swap1\n      pop\n        /* \"#utility.yul\":10899:10989   */\n      swap2\n      swap1\n      pop\n      jump\t// out\n        /* \"#utility.yul\":10995:11104   */\n    tag_130:\n        /* \"#utility.yul\":11076:11097   */\n      tag_258\n        /* \"#utility.yul\":11091:11096   */\n      dup2\n        /* \"#utility.yul\":11076:11097   */\n      tag_129\n      jump\t// in\n    tag_258:\n        /* \"#utility.yul\":11071:11074   */\n      dup3\n        /* \"#utility.yul\":11064:11098   */\n      mstore\n        /* \"#utility.yul\":10995:11104   */\n      pop\n      pop\n      jump\t// out\n        /* \"#utility.yul\":11110:11540   */\n    tag_37:\n        /* \"#utility.yul\":11253:11257   */\n      0x00\n        /* \"#utility.yul\":11291:11293   */\n      0x60\n        /* \"#utility.yul\":11280:11289   */\n      dup3\n        /* \"#utility.yul\":11276:11294   */\n      add\n        /* \"#utility.yul\":11268:11294   */\n      swap1\n      pop\n        /* \"#utility.yul\":11304:11369   */\n      tag_260\n        /* \"#utility.yul\":11366:11367   */\n      0x00\n        /* \"#utility.yul\":11355:11364   */\n      dup4\n        /* \"#utility.yul\":11351:11368   */\n      add\n        /* \"#utility.yul\":11342:11348   */\n      dup7\n        /* \"#utility.yul\":11304:11369   */\n      tag_130\n      jump\t// in\n    tag_260:\n        /* \"#utility.yul\":11379:11451   */\n      tag_261\n        /* \"#utility.yul\":11447:11449   */\n      0x20\n        /* \"#utility.yul\":11436:11445   */\n      dup4\n        /* \"#utility.yul\":11432:11450   */\n      add\n        /* \"#utility.yul\":11423:11429   */\n      dup6\n        /* \"#utility.yul\":11379:11451   */\n      tag_109\n      jump\t// in\n    tag_261:\n        /* \"#utility.yul\":11461:11533   */\n      tag_262\n        /* \"#utility.yul\":11529:11531   */\n      0x40\n        /* \"#utility.yul\":11518:11527   */\n      dup4\n        /* \"#utility.yul\":11514:11532   */\n      add\n        /* \"#utility.yul\":11505:11511   */\n      dup5\n        /* \"#utility.yul\":11461:11533   */\n      tag_109\n      jump\t// in\n    tag_262:\n        /* \"#utility.yul\":11110:11540   */\n      swap5\n      swap4\n      pop\n      pop\n      pop\n      pop\n      jump\t// out\n        /* \"#utility.yul\":11546:11715   */\n    tag_131:\n        /* \"#utility.yul\":11630:11641   */\n      0x00\n        /* \"#utility.yul\":11664:11670   */\n      dup3\n        /* \"#utility.yul\":11659:11662   */\n      dup3\n        /* \"#utility.yul\":11652:11671   */\n      mstore\n        /* \"#utility.yul\":11704:11708   */\n      0x20\n        /* \"#utility.yul\":11699:11702   */\n      dup3\n        /* \"#utility.yul\":11695:11709   */\n      add\n        /* \"#utility.yul\":11680:11709   */\n      swap1\n      pop\n        /* \"#utility.yul\":11546:11715   */\n      swap3\n      swap2\n      pop\n      pop\n      jump\t// out\n        /* \"#utility.yul\":11721:11894   */\n    tag_132:\n        /* \"#utility.yul\":11861:11886   */\n      0x5465737461646f72206e616f20656e636f6e747261646f000000000000000000\n        /* \"#utility.yul\":11857:11858   */\n      0x00\n        /* \"#utility.yul\":11849:11855   */\n      dup3\n        /* \"#utility.yul\":11845:11859   */\n      add\n        /* \"#utility.yul\":11838:11887   */\n      mstore\n        /* \"#utility.yul\":11721:11894   */\n      pop\n      jump\t// out\n        /* \"#utility.yul\":11900:12266   */\n    tag_133:\n        /* \"#utility.yul\":12042:12045   */\n      0x00\n        /* \"#utility.yul\":12063:12130   */\n      tag_266\n        /* \"#utility.yul\":12127:12129   */\n      0x17\n        /* \"#utility.yul\":12122:12125   */\n      dup4\n        /* \"#utility.yul\":12063:12130   */\n      tag_131\n      jump\t// in\n    tag_266:\n        /* \"#utility.yul\":12056:12130   */\n      swap2\n      pop\n        /* \"#utility.yul\":12139:12232   */\n      tag_267\n        /* \"#utility.yul\":12228:12231   */\n      dup3\n        /* \"#utility.yul\":12139:12232   */\n      tag_132\n      jump\t// in\n    tag_267:\n        /* \"#utility.yul\":12257:12259   */\n      0x20\n        /* \"#utility.yul\":12252:12255   */\n      dup3\n        /* \"#utility.yul\":12248:12260   */\n      add\n        /* \"#utility.yul\":12241:12260   */\n      swap1\n      pop\n        /* \"#utility.yul\":11900:12266   */\n      swap2\n      swap1\n      pop\n      jump\t// out\n        /* \"#utility.yul\":12272:12691   */\n    tag_50:\n        /* \"#utility.yul\":12438:12442   */\n      0x00\n        /* \"#utility.yul\":12476:12478   */\n      0x20\n        /* \"#utility.yul\":12465:12474   */\n      dup3\n        /* \"#utility.yul\":12461:12479   */\n      add\n        /* \"#utility.yul\":12453:12479   */\n      swap1\n      pop\n        /* \"#utility.yul\":12525:12534   */\n      dup2\n        /* \"#utility.yul\":12519:12523   */\n      dup2\n        /* \"#utility.yul\":12515:12535   */\n      sub\n        /* \"#utility.yul\":12511:12512   */\n      0x00\n        /* \"#utility.yul\":12500:12509   */\n      dup4\n        /* \"#utility.yul\":12496:12513   */\n      add\n        /* \"#utility.yul\":12489:12536   */\n      mstore\n        /* \"#utility.yul\":12553:12684   */\n      tag_269\n        /* \"#utility.yul\":12679:12683   */\n      dup2\n        /* \"#utility.yul\":12553:12684   */\n      tag_133\n      jump\t// in\n    tag_269:\n        /* \"#utility.yul\":12545:12684   */\n      swap1\n      pop\n        /* \"#utility.yul\":12272:12691   */\n      swap2\n      swap1\n      pop\n      jump\t// out\n        /* \"#utility.yul\":12697:12877   */\n    tag_63:\n        /* \"#utility.yul\":12745:12822   */\n      0x4e487b7100000000000000000000000000000000000000000000000000000000\n        /* \"#utility.yul\":12742:12743   */\n      0x00\n        /* \"#utility.yul\":12735:12823   */\n      mstore\n        /* \"#utility.yul\":12842:12846   */\n      0x32\n        /* \"#utility.yul\":12839:12840   */\n      0x04\n        /* \"#utility.yul\":12832:12847   */\n      mstore\n        /* \"#utility.yul\":12866:12870   */\n      0x24\n        /* \"#utility.yul\":12863:12864   */\n      0x00\n        /* \"#utility.yul\":12856:12871   */\n      revert\n        /* \"#utility.yul\":12883:13052   */\n    tag_134:\n        /* \"#utility.yul\":13023:13044   */\n      0x5465737461646f72206e616f2065786973746500000000000000000000000000\n        /* \"#utility.yul\":13019:13020   */\n      0x00\n        /* \"#utility.yul\":13011:13017   */\n      dup3\n        /* \"#utility.yul\":13007:13021   */\n      add\n        /* \"#utility.yul\":13000:13045   */\n      mstore\n        /* \"#utility.yul\":12883:13052   */\n      pop\n      jump\t// out\n        /* \"#utility.yul\":13058:13424   */\n    tag_135:\n        /* \"#utility.yul\":13200:13203   */\n      0x00\n        /* \"#utility.yul\":13221:13288   */\n      tag_273\n        /* \"#utility.yul\":13285:13287   */\n      0x13\n        /* \"#utility.yul\":13280:13283   */\n      dup4\n        /* \"#utility.yul\":13221:13288   */\n      tag_131\n      jump\t// in\n    tag_273:\n        /* \"#utility.yul\":13214:13288   */\n      swap2\n      pop\n        /* \"#utility.yul\":13297:13390   */\n      tag_274\n        /* \"#utility.yul\":13386:13389   */\n      dup3\n        /* \"#utility.yul\":13297:13390   */\n      tag_134\n      jump\t// in\n    tag_274:\n        /* \"#utility.yul\":13415:13417   */\n      0x20\n        /* \"#utility.yul\":13410:13413   */\n      dup3\n        /* \"#utility.yul\":13406:13418   */\n      add\n        /* \"#utility.yul\":13399:13418   */\n      swap1\n      pop\n        /* \"#utility.yul\":13058:13424   */\n      swap2\n      swap1\n      pop\n      jump\t// out\n        /* \"#utility.yul\":13430:13849   */\n    tag_85:\n        /* \"#utility.yul\":13596:13600   */\n      0x00\n        /* \"#utility.yul\":13634:13636   */\n      0x20\n        /* \"#utility.yul\":13623:13632   */\n      dup3\n        /* \"#utility.yul\":13619:13637   */\n      add\n        /* \"#utility.yul\":13611:13637   */\n      swap1\n      pop\n        /* \"#utility.yul\":13683:13692   */\n      dup2\n        /* \"#utility.yul\":13677:13681   */\n      dup2\n        /* \"#utility.yul\":13673:13693   */\n      sub\n        /* \"#utility.yul\":13669:13670   */\n      0x00\n        /* \"#utility.yul\":13658:13667   */\n      dup4\n        /* \"#utility.yul\":13654:13671   */\n      add\n        /* \"#utility.yul\":13647:13694   */\n      mstore\n        /* \"#utility.yul\":13711:13842   */\n      tag_276\n        /* \"#utility.yul\":13837:13841   */\n      dup2\n        /* \"#utility.yul\":13711:13842   */\n      tag_135\n      jump\t// in\n    tag_276:\n        /* \"#utility.yul\":13703:13842   */\n      swap1\n      pop\n        /* \"#utility.yul\":13430:13849   */\n      swap2\n      swap1\n      pop\n      jump\t// out\n\n    auxdata: 0xa2646970667358221220d6d71af38692e7211b223a96dce5cd30330dac140134c59d148ccd81cf81c95c64736f6c634300081a0033\n}\n",
				"bytecode": {
					"linkReferences": {},
					"object": "6080604052348015600e575f80fd5b506110968061001c5f395ff3fe60806040526004361061006f575f3560e01c8063698338081161004d57806369833808146100f2578063759a8a9814610108578063b45b91f214610124578063c80cc411146101625761006f565b80631aba6da6146100735780633a994a8b146100895780636355e754146100b6575b5f80fd5b34801561007e575f80fd5b50610087610178565b005b348015610094575f80fd5b5061009d6101ed565b6040516100ad9493929190610b75565b60405180910390f35b3480156100c1575f80fd5b506100dc60048036038101906100d79190610c01565b6104f2565b6040516100e99190610c3b565b60405180910390f35b3480156100fd575f80fd5b50610106610522565b005b610122600480360381019061011d9190610e8e565b610524565b005b34801561012f575f80fd5b5061014a60048036038101906101459190610c01565b61083e565b60405161015993929190610f1e565b60405180910390f35b34801561016d575f80fd5b50610176610870565b005b5f3390505f808273ffffffffffffffffffffffffffffffffffffffff1673ffffffffffffffffffffffffffffffffffffffff1681526020019081526020015f205f8082015f6101c79190610946565b600182015f6101000a81549060ff0219169055600282015f9055600382015f9055505050565b6060805f805f3390505f805f8373ffffffffffffffffffffffffffffffffffffffff1673ffffffffffffffffffffffffffffffffffffffff1681526020019081526020015f206040518060800160405290815f8201805480602002602001604051908101604052809291908181526020015f905b828210156102fd578382905f5260205f20016040518060400160405290815f82015f9054906101000a900473ffffffffffffffffffffffffffffffffffffffff1673ffffffffffffffffffffffffffffffffffffffff1673ffffffffffffffffffffffffffffffffffffffff1681526020015f820160149054906101000a900460ff1660ff1660ff168152505081526020019060010190610261565b505050508152602001600182015f9054906101000a900460ff161515151581526020016002820154815260200160038201548152505090508060200151610379576040517f08c379a000000000000000000000000000000000000000000000000000000000815260040161037090610fad565b60405180910390fd5b5f815f01515167ffffffffffffffff81111561039857610397610c68565b5b6040519080825280602002602001820160405280156103c65781602001602082028036833780820191505090505b5090505f825f01515167ffffffffffffffff8111156103e8576103e7610c68565b5b6040519080825280602002602001820160405280156104165781602001602082028036833780820191505090505b5090505f5b835f0151518110156104d3575f845f0151828151811061043e5761043d610fcb565b5b60200260200101519050805f015184838151811061045f5761045e610fcb565b5b602002602001019073ffffffffffffffffffffffffffffffffffffffff16908173ffffffffffffffffffffffffffffffffffffffff168152505080602001518383815181106104b1576104b0610fcb565b5b602002602001019060ff16908160ff168152505050808060010191505061041b565b5081818460400151856060015197509750975097505050505090919293565b6001602052805f5260405f205f915054906101000a900473ffffffffffffffffffffffffffffffffffffffff1681565b565b5f3390505f808273ffffffffffffffffffffffffffffffffffffffff1673ffffffffffffffffffffffffffffffffffffffff1681526020019081526020015f206001015f9054906101000a900460ff16156105c3575f808273ffffffffffffffffffffffffffffffffffffffff1673ffffffffffffffffffffffffffffffffffffffff1681526020019081526020015f205f015f6105c29190610946565b5b5f5b835181101561079d575f60405180604001604052808684815181106105ed576105ec610fcb565b5b602002602001015173ffffffffffffffffffffffffffffffffffffffff16815260200185848151811061062357610622610fcb565b5b602002602001015160ff1681525090508260015f87858151811061064a57610649610fcb565b5b602002602001015173ffffffffffffffffffffffffffffffffffffffff1673ffffffffffffffffffffffffffffffffffffffff1681526020019081526020015f205f6101000a81548173ffffffffffffffffffffffffffffffffffffffff021916908373ffffffffffffffffffffffffffffffffffffffff1602179055505f808473ffffffffffffffffffffffffffffffffffffffff1673ffffffffffffffffffffffffffffffffffffffff1681526020019081526020015f205f0181908060018154018082558091505060019003905f5260205f20015f909190919091505f820151815f015f6101000a81548173ffffffffffffffffffffffffffffffffffffffff021916908373ffffffffffffffffffffffffffffffffffffffff1602179055506020820151815f0160146101000a81548160ff021916908360ff16021790555050505080806001019150506105c5565b5060015f808373ffffffffffffffffffffffffffffffffffffffff1673ffffffffffffffffffffffffffffffffffffffff1681526020019081526020015f206001015f6101000a81548160ff021916908315150217905550425f808373ffffffffffffffffffffffffffffffffffffffff1673ffffffffffffffffffffffffffffffffffffffff1681526020019081526020015f2060020181905550505050565b5f602052805f5260405f205f91509050806001015f9054906101000a900460ff16908060020154908060030154905083565b5f3390505f808273ffffffffffffffffffffffffffffffffffffffff1673ffffffffffffffffffffffffffffffffffffffff1681526020019081526020015f206001015f9054906101000a900460ff166108ff576040517f08c379a00000000000000000000000000000000000000000000000000000000081526004016108f690611042565b60405180910390fd5b425f808373ffffffffffffffffffffffffffffffffffffffff1673ffffffffffffffffffffffffffffffffffffffff1681526020019081526020015f206002018190555050565b5080545f8255905f5260205f20908101906109619190610964565b50565b5b808211156109af575f8082015f6101000a81549073ffffffffffffffffffffffffffffffffffffffff02191690555f820160146101000a81549060ff021916905550600101610965565b5090565b5f81519050919050565b5f82825260208201905092915050565b5f819050602082019050919050565b5f73ffffffffffffffffffffffffffffffffffffffff82169050919050565b5f610a05826109dc565b9050919050565b610a15816109fb565b82525050565b5f610a268383610a0c565b60208301905092915050565b5f602082019050919050565b5f610a48826109b3565b610a5281856109bd565b9350610a5d836109cd565b805f5b83811015610a8d578151610a748882610a1b565b9750610a7f83610a32565b925050600181019050610a60565b5085935050505092915050565b5f81519050919050565b5f82825260208201905092915050565b5f819050602082019050919050565b5f60ff82169050919050565b610ad881610ac3565b82525050565b5f610ae98383610acf565b60208301905092915050565b5f602082019050919050565b5f610b0b82610a9a565b610b158185610aa4565b9350610b2083610ab4565b805f5b83811015610b50578151610b378882610ade565b9750610b4283610af5565b925050600181019050610b23565b5085935050505092915050565b5f819050919050565b610b6f81610b5d565b82525050565b5f6080820190508181035f830152610b8d8187610a3e565b90508181036020830152610ba18186610b01565b9050610bb06040830185610b66565b610bbd6060830184610b66565b95945050505050565b5f604051905090565b5f80fd5b5f80fd5b610be0816109fb565b8114610bea575f80fd5b50565b5f81359050610bfb81610bd7565b92915050565b5f60208284031215610c1657610c15610bcf565b5b5f610c2384828501610bed565b91505092915050565b610c35816109fb565b82525050565b5f602082019050610c4e5f830184610c2c565b92915050565b5f80fd5b5f601f19601f8301169050919050565b7f4e487b71000000000000000000000000000000000000000000000000000000005f52604160045260245ffd5b610c9e82610c58565b810181811067ffffffffffffffff82111715610cbd57610cbc610c68565b5b80604052505050565b5f610ccf610bc6565b9050610cdb8282610c95565b919050565b5f67ffffffffffffffff821115610cfa57610cf9610c68565b5b602082029050602081019050919050565b5f80fd5b5f610d21610d1c84610ce0565b610cc6565b90508083825260208201905060208402830185811115610d4457610d43610d0b565b5b835b81811015610d6d5780610d598882610bed565b845260208401935050602081019050610d46565b5050509392505050565b5f82601f830112610d8b57610d8a610c54565b5b8135610d9b848260208601610d0f565b91505092915050565b5f67ffffffffffffffff821115610dbe57610dbd610c68565b5b602082029050602081019050919050565b610dd881610ac3565b8114610de2575f80fd5b50565b5f81359050610df381610dcf565b92915050565b5f610e0b610e0684610da4565b610cc6565b90508083825260208201905060208402830185811115610e2e57610e2d610d0b565b5b835b81811015610e575780610e438882610de5565b845260208401935050602081019050610e30565b5050509392505050565b5f82601f830112610e7557610e74610c54565b5b8135610e85848260208601610df9565b91505092915050565b5f8060408385031215610ea457610ea3610bcf565b5b5f83013567ffffffffffffffff811115610ec157610ec0610bd3565b5b610ecd85828601610d77565b925050602083013567ffffffffffffffff811115610eee57610eed610bd3565b5b610efa85828601610e61565b9150509250929050565b5f8115159050919050565b610f1881610f04565b82525050565b5f606082019050610f315f830186610f0f565b610f3e6020830185610b66565b610f4b6040830184610b66565b949350505050565b5f82825260208201905092915050565b7f5465737461646f72206e616f20656e636f6e747261646f0000000000000000005f82015250565b5f610f97601783610f53565b9150610fa282610f63565b602082019050919050565b5f6020820190508181035f830152610fc481610f8b565b9050919050565b7f4e487b71000000000000000000000000000000000000000000000000000000005f52603260045260245ffd5b7f5465737461646f72206e616f20657869737465000000000000000000000000005f82015250565b5f61102c601383610f53565b915061103782610ff8565b602082019050919050565b5f6020820190508181035f83015261105981611020565b905091905056fea2646970667358221220d6d71af38692e7211b223a96dce5cd30330dac140134c59d148ccd81cf81c95c64736f6c634300081a0033",
					"opcodes": "PUSH1 0x80 PUSH1 0x40 MSTORE CALLVALUE DUP1 ISZERO PUSH1 0xE JUMPI PUSH0 DUP1 REVERT JUMPDEST POP PUSH2 0x1096 DUP1 PUSH2 0x1C PUSH0 CODECOPY PUSH0 RETURN INVALID PUSH1 0x80 PUSH1 0x40 MSTORE PUSH1 0x4 CALLDATASIZE LT PUSH2 0x6F JUMPI PUSH0 CALLDATALOAD PUSH1 0xE0 SHR DUP1 PUSH4 0x69833808 GT PUSH2 0x4D JUMPI DUP1 PUSH4 0x69833808 EQ PUSH2 0xF2 JUMPI DUP1 PUSH4 0x759A8A98 EQ PUSH2 0x108 JUMPI DUP1 PUSH4 0xB45B91F2 EQ PUSH2 0x124 JUMPI DUP1 PUSH4 0xC80CC411 EQ PUSH2 0x162 JUMPI PUSH2 0x6F JUMP JUMPDEST DUP1 PUSH4 0x1ABA6DA6 EQ PUSH2 0x73 JUMPI DUP1 PUSH4 0x3A994A8B EQ PUSH2 0x89 JUMPI DUP1 PUSH4 0x6355E754 EQ PUSH2 0xB6 JUMPI JUMPDEST PUSH0 DUP1 REVERT JUMPDEST CALLVALUE DUP1 ISZERO PUSH2 0x7E JUMPI PUSH0 DUP1 REVERT JUMPDEST POP PUSH2 0x87 PUSH2 0x178 JUMP JUMPDEST STOP JUMPDEST CALLVALUE DUP1 ISZERO PUSH2 0x94 JUMPI PUSH0 DUP1 REVERT JUMPDEST POP PUSH2 0x9D PUSH2 0x1ED JUMP JUMPDEST PUSH1 0x40 MLOAD PUSH2 0xAD SWAP5 SWAP4 SWAP3 SWAP2 SWAP1 PUSH2 0xB75 JUMP JUMPDEST PUSH1 0x40 MLOAD DUP1 SWAP2 SUB SWAP1 RETURN JUMPDEST CALLVALUE DUP1 ISZERO PUSH2 0xC1 JUMPI PUSH0 DUP1 REVERT JUMPDEST POP PUSH2 0xDC PUSH1 0x4 DUP1 CALLDATASIZE SUB DUP2 ADD SWAP1 PUSH2 0xD7 SWAP2 SWAP1 PUSH2 0xC01 JUMP JUMPDEST PUSH2 0x4F2 JUMP JUMPDEST PUSH1 0x40 MLOAD PUSH2 0xE9 SWAP2 SWAP1 PUSH2 0xC3B JUMP JUMPDEST PUSH1 0x40 MLOAD DUP1 SWAP2 SUB SWAP1 RETURN JUMPDEST CALLVALUE DUP1 ISZERO PUSH2 0xFD JUMPI PUSH0 DUP1 REVERT JUMPDEST POP PUSH2 0x106 PUSH2 0x522 JUMP JUMPDEST STOP JUMPDEST PUSH2 0x122 PUSH1 0x4 DUP1 CALLDATASIZE SUB DUP2 ADD SWAP1 PUSH2 0x11D SWAP2 SWAP1 PUSH2 0xE8E JUMP JUMPDEST PUSH2 0x524 JUMP JUMPDEST STOP JUMPDEST CALLVALUE DUP1 ISZERO PUSH2 0x12F JUMPI PUSH0 DUP1 REVERT JUMPDEST POP PUSH2 0x14A PUSH1 0x4 DUP1 CALLDATASIZE SUB DUP2 ADD SWAP1 PUSH2 0x145 SWAP2 SWAP1 PUSH2 0xC01 JUMP JUMPDEST PUSH2 0x83E JUMP JUMPDEST PUSH1 0x40 MLOAD PUSH2 0x159 SWAP4 SWAP3 SWAP2 SWAP1 PUSH2 0xF1E JUMP JUMPDEST PUSH1 0x40 MLOAD DUP1 SWAP2 SUB SWAP1 RETURN JUMPDEST CALLVALUE DUP1 ISZERO PUSH2 0x16D JUMPI PUSH0 DUP1 REVERT JUMPDEST POP PUSH2 0x176 PUSH2 0x870 JUMP JUMPDEST STOP JUMPDEST PUSH0 CALLER SWAP1 POP PUSH0 DUP1 DUP3 PUSH20 0xFFFFFFFFFFFFFFFFFFFFFFFFFFFFFFFFFFFFFFFF AND PUSH20 0xFFFFFFFFFFFFFFFFFFFFFFFFFFFFFFFFFFFFFFFF AND DUP2 MSTORE PUSH1 0x20 ADD SWAP1 DUP2 MSTORE PUSH1 0x20 ADD PUSH0 KECCAK256 PUSH0 DUP1 DUP3 ADD PUSH0 PUSH2 0x1C7 SWAP2 SWAP1 PUSH2 0x946 JUMP JUMPDEST PUSH1 0x1 DUP3 ADD PUSH0 PUSH2 0x100 EXP DUP2 SLOAD SWAP1 PUSH1 0xFF MUL NOT AND SWAP1 SSTORE PUSH1 0x2 DUP3 ADD PUSH0 SWAP1 SSTORE PUSH1 0x3 DUP3 ADD PUSH0 SWAP1 SSTORE POP POP POP JUMP JUMPDEST PUSH1 0x60 DUP1 PUSH0 DUP1 PUSH0 CALLER SWAP1 POP PUSH0 DUP1 PUSH0 DUP4 PUSH20 0xFFFFFFFFFFFFFFFFFFFFFFFFFFFFFFFFFFFFFFFF AND PUSH20 0xFFFFFFFFFFFFFFFFFFFFFFFFFFFFFFFFFFFFFFFF AND DUP2 MSTORE PUSH1 0x20 ADD SWAP1 DUP2 MSTORE PUSH1 0x20 ADD PUSH0 KECCAK256 PUSH1 0x40 MLOAD DUP1 PUSH1 0x80 ADD PUSH1 0x40 MSTORE SWAP1 DUP2 PUSH0 DUP3 ADD DUP1 SLOAD DUP1 PUSH1 0x20 MUL PUSH1 0x20 ADD PUSH1 0x40 MLOAD SWAP1 DUP2 ADD PUSH1 0x40 MSTORE DUP1 SWAP3 SWAP2 SWAP1 DUP2 DUP2 MSTORE PUSH1 0x20 ADD PUSH0 SWAP1 JUMPDEST DUP3 DUP3 LT ISZERO PUSH2 0x2FD JUMPI DUP4 DUP3 SWAP1 PUSH0 MSTORE PUSH1 0x20 PUSH0 KECCAK256 ADD PUSH1 0x40 MLOAD DUP1 PUSH1 0x40 ADD PUSH1 0x40 MSTORE SWAP1 DUP2 PUSH0 DUP3 ADD PUSH0 SWAP1 SLOAD SWAP1 PUSH2 0x100 EXP SWAP1 DIV PUSH20 0xFFFFFFFFFFFFFFFFFFFFFFFFFFFFFFFFFFFFFFFF AND PUSH20 0xFFFFFFFFFFFFFFFFFFFFFFFFFFFFFFFFFFFFFFFF AND PUSH20 0xFFFFFFFFFFFFFFFFFFFFFFFFFFFFFFFFFFFFFFFF AND DUP2 MSTORE PUSH1 0x20 ADD PUSH0 DUP3 ADD PUSH1 0x14 SWAP1 SLOAD SWAP1 PUSH2 0x100 EXP SWAP1 DIV PUSH1 0xFF AND PUSH1 0xFF AND PUSH1 0xFF AND DUP2 MSTORE POP POP DUP2 MSTORE PUSH1 0x20 ADD SWAP1 PUSH1 0x1 ADD SWAP1 PUSH2 0x261 JUMP JUMPDEST POP POP POP POP DUP2 MSTORE PUSH1 0x20 ADD PUSH1 0x1 DUP3 ADD PUSH0 SWAP1 SLOAD SWAP1 PUSH2 0x100 EXP SWAP1 DIV PUSH1 0xFF AND ISZERO ISZERO ISZERO ISZERO DUP2 MSTORE PUSH1 0x20 ADD PUSH1 0x2 DUP3 ADD SLOAD DUP2 MSTORE PUSH1 0x20 ADD PUSH1 0x3 DUP3 ADD SLOAD DUP2 MSTORE POP POP SWAP1 POP DUP1 PUSH1 0x20 ADD MLOAD PUSH2 0x379 JUMPI PUSH1 0x40 MLOAD PUSH32 0x8C379A000000000000000000000000000000000000000000000000000000000 DUP2 MSTORE PUSH1 0x4 ADD PUSH2 0x370 SWAP1 PUSH2 0xFAD JUMP JUMPDEST PUSH1 0x40 MLOAD DUP1 SWAP2 SUB SWAP1 REVERT JUMPDEST PUSH0 DUP2 PUSH0 ADD MLOAD MLOAD PUSH8 0xFFFFFFFFFFFFFFFF DUP2 GT ISZERO PUSH2 0x398 JUMPI PUSH2 0x397 PUSH2 0xC68 JUMP JUMPDEST JUMPDEST PUSH1 0x40 MLOAD SWAP1 DUP1 DUP3 MSTORE DUP1 PUSH1 0x20 MUL PUSH1 0x20 ADD DUP3 ADD PUSH1 0x40 MSTORE DUP1 ISZERO PUSH2 0x3C6 JUMPI DUP2 PUSH1 0x20 ADD PUSH1 0x20 DUP3 MUL DUP1 CALLDATASIZE DUP4 CALLDATACOPY DUP1 DUP3 ADD SWAP2 POP POP SWAP1 POP JUMPDEST POP SWAP1 POP PUSH0 DUP3 PUSH0 ADD MLOAD MLOAD PUSH8 0xFFFFFFFFFFFFFFFF DUP2 GT ISZERO PUSH2 0x3E8 JUMPI PUSH2 0x3E7 PUSH2 0xC68 JUMP JUMPDEST JUMPDEST PUSH1 0x40 MLOAD SWAP1 DUP1 DUP3 MSTORE DUP1 PUSH1 0x20 MUL PUSH1 0x20 ADD DUP3 ADD PUSH1 0x40 MSTORE DUP1 ISZERO PUSH2 0x416 JUMPI DUP2 PUSH1 0x20 ADD PUSH1 0x20 DUP3 MUL DUP1 CALLDATASIZE DUP4 CALLDATACOPY DUP1 DUP3 ADD SWAP2 POP POP SWAP1 POP JUMPDEST POP SWAP1 POP PUSH0 JUMPDEST DUP4 PUSH0 ADD MLOAD MLOAD DUP2 LT ISZERO PUSH2 0x4D3 JUMPI PUSH0 DUP5 PUSH0 ADD MLOAD DUP3 DUP2 MLOAD DUP2 LT PUSH2 0x43E JUMPI PUSH2 0x43D PUSH2 0xFCB JUMP JUMPDEST JUMPDEST PUSH1 0x20 MUL PUSH1 0x20 ADD ADD MLOAD SWAP1 POP DUP1 PUSH0 ADD MLOAD DUP5 DUP4 DUP2 MLOAD DUP2 LT PUSH2 0x45F JUMPI PUSH2 0x45E PUSH2 0xFCB JUMP JUMPDEST JUMPDEST PUSH1 0x20 MUL PUSH1 0x20 ADD ADD SWAP1 PUSH20 0xFFFFFFFFFFFFFFFFFFFFFFFFFFFFFFFFFFFFFFFF AND SWAP1 DUP2 PUSH20 0xFFFFFFFFFFFFFFFFFFFFFFFFFFFFFFFFFFFFFFFF AND DUP2 MSTORE POP POP DUP1 PUSH1 0x20 ADD MLOAD DUP4 DUP4 DUP2 MLOAD DUP2 LT PUSH2 0x4B1 JUMPI PUSH2 0x4B0 PUSH2 0xFCB JUMP JUMPDEST JUMPDEST PUSH1 0x20 MUL PUSH1 0x20 ADD ADD SWAP1 PUSH1 0xFF AND SWAP1 DUP2 PUSH1 0xFF AND DUP2 MSTORE POP POP POP DUP1 DUP1 PUSH1 0x1 ADD SWAP2 POP POP PUSH2 0x41B JUMP JUMPDEST POP DUP2 DUP2 DUP5 PUSH1 0x40 ADD MLOAD DUP6 PUSH1 0x60 ADD MLOAD SWAP8 POP SWAP8 POP SWAP8 POP SWAP8 POP POP POP POP POP SWAP1 SWAP2 SWAP3 SWAP4 JUMP JUMPDEST PUSH1 0x1 PUSH1 0x20 MSTORE DUP1 PUSH0 MSTORE PUSH1 0x40 PUSH0 KECCAK256 PUSH0 SWAP2 POP SLOAD SWAP1 PUSH2 0x100 EXP SWAP1 DIV PUSH20 0xFFFFFFFFFFFFFFFFFFFFFFFFFFFFFFFFFFFFFFFF AND DUP2 JUMP JUMPDEST JUMP JUMPDEST PUSH0 CALLER SWAP1 POP PUSH0 DUP1 DUP3 PUSH20 0xFFFFFFFFFFFFFFFFFFFFFFFFFFFFFFFFFFFFFFFF AND PUSH20 0xFFFFFFFFFFFFFFFFFFFFFFFFFFFFFFFFFFFFFFFF AND DUP2 MSTORE PUSH1 0x20 ADD SWAP1 DUP2 MSTORE PUSH1 0x20 ADD PUSH0 KECCAK256 PUSH1 0x1 ADD PUSH0 SWAP1 SLOAD SWAP1 PUSH2 0x100 EXP SWAP1 DIV PUSH1 0xFF AND ISZERO PUSH2 0x5C3 JUMPI PUSH0 DUP1 DUP3 PUSH20 0xFFFFFFFFFFFFFFFFFFFFFFFFFFFFFFFFFFFFFFFF AND PUSH20 0xFFFFFFFFFFFFFFFFFFFFFFFFFFFFFFFFFFFFFFFF AND DUP2 MSTORE PUSH1 0x20 ADD SWAP1 DUP2 MSTORE PUSH1 0x20 ADD PUSH0 KECCAK256 PUSH0 ADD PUSH0 PUSH2 0x5C2 SWAP2 SWAP1 PUSH2 0x946 JUMP JUMPDEST JUMPDEST PUSH0 JUMPDEST DUP4 MLOAD DUP2 LT ISZERO PUSH2 0x79D JUMPI PUSH0 PUSH1 0x40 MLOAD DUP1 PUSH1 0x40 ADD PUSH1 0x40 MSTORE DUP1 DUP7 DUP5 DUP2 MLOAD DUP2 LT PUSH2 0x5ED JUMPI PUSH2 0x5EC PUSH2 0xFCB JUMP JUMPDEST JUMPDEST PUSH1 0x20 MUL PUSH1 0x20 ADD ADD MLOAD PUSH20 0xFFFFFFFFFFFFFFFFFFFFFFFFFFFFFFFFFFFFFFFF AND DUP2 MSTORE PUSH1 0x20 ADD DUP6 DUP5 DUP2 MLOAD DUP2 LT PUSH2 0x623 JUMPI PUSH2 0x622 PUSH2 0xFCB JUMP JUMPDEST JUMPDEST PUSH1 0x20 MUL PUSH1 0x20 ADD ADD MLOAD PUSH1 0xFF AND DUP2 MSTORE POP SWAP1 POP DUP3 PUSH1 0x1 PUSH0 DUP8 DUP6 DUP2 MLOAD DUP2 LT PUSH2 0x64A JUMPI PUSH2 0x649 PUSH2 0xFCB JUMP JUMPDEST JUMPDEST PUSH1 0x20 MUL PUSH1 0x20 ADD ADD MLOAD PUSH20 0xFFFFFFFFFFFFFFFFFFFFFFFFFFFFFFFFFFFFFFFF AND PUSH20 0xFFFFFFFFFFFFFFFFFFFFFFFFFFFFFFFFFFFFFFFF AND DUP2 MSTORE PUSH1 0x20 ADD SWAP1 DUP2 MSTORE PUSH1 0x20 ADD PUSH0 KECCAK256 PUSH0 PUSH2 0x100 EXP DUP2 SLOAD DUP2 PUSH20 0xFFFFFFFFFFFFFFFFFFFFFFFFFFFFFFFFFFFFFFFF MUL NOT AND SWAP1 DUP4 PUSH20 0xFFFFFFFFFFFFFFFFFFFFFFFFFFFFFFFFFFFFFFFF AND MUL OR SWAP1 SSTORE POP PUSH0 DUP1 DUP5 PUSH20 0xFFFFFFFFFFFFFFFFFFFFFFFFFFFFFFFFFFFFFFFF AND PUSH20 0xFFFFFFFFFFFFFFFFFFFFFFFFFFFFFFFFFFFFFFFF AND DUP2 MSTORE PUSH1 0x20 ADD SWAP1 DUP2 MSTORE PUSH1 0x20 ADD PUSH0 KECCAK256 PUSH0 ADD DUP2 SWAP1 DUP1 PUSH1 0x1 DUP2 SLOAD ADD DUP1 DUP3 SSTORE DUP1 SWAP2 POP POP PUSH1 0x1 SWAP1 SUB SWAP1 PUSH0 MSTORE PUSH1 0x20 PUSH0 KECCAK256 ADD PUSH0 SWAP1 SWAP2 SWAP1 SWAP2 SWAP1 SWAP2 POP PUSH0 DUP3 ADD MLOAD DUP2 PUSH0 ADD PUSH0 PUSH2 0x100 EXP DUP2 SLOAD DUP2 PUSH20 0xFFFFFFFFFFFFFFFFFFFFFFFFFFFFFFFFFFFFFFFF MUL NOT AND SWAP1 DUP4 PUSH20 0xFFFFFFFFFFFFFFFFFFFFFFFFFFFFFFFFFFFFFFFF AND MUL OR SWAP1 SSTORE POP PUSH1 0x20 DUP3 ADD MLOAD DUP2 PUSH0 ADD PUSH1 0x14 PUSH2 0x100 EXP DUP2 SLOAD DUP2 PUSH1 0xFF MUL NOT AND SWAP1 DUP4 PUSH1 0xFF AND MUL OR SWAP1 SSTORE POP POP POP POP DUP1 DUP1 PUSH1 0x1 ADD SWAP2 POP POP PUSH2 0x5C5 JUMP JUMPDEST POP PUSH1 0x1 PUSH0 DUP1 DUP4 PUSH20 0xFFFFFFFFFFFFFFFFFFFFFFFFFFFFFFFFFFFFFFFF AND PUSH20 0xFFFFFFFFFFFFFFFFFFFFFFFFFFFFFFFFFFFFFFFF AND DUP2 MSTORE PUSH1 0x20 ADD SWAP1 DUP2 MSTORE PUSH1 0x20 ADD PUSH0 KECCAK256 PUSH1 0x1 ADD PUSH0 PUSH2 0x100 EXP DUP2 SLOAD DUP2 PUSH1 0xFF MUL NOT AND SWAP1 DUP4 ISZERO ISZERO MUL OR SWAP1 SSTORE POP TIMESTAMP PUSH0 DUP1 DUP4 PUSH20 0xFFFFFFFFFFFFFFFFFFFFFFFFFFFFFFFFFFFFFFFF AND PUSH20 0xFFFFFFFFFFFFFFFFFFFFFFFFFFFFFFFFFFFFFFFF AND DUP2 MSTORE PUSH1 0x20 ADD SWAP1 DUP2 MSTORE PUSH1 0x20 ADD PUSH0 KECCAK256 PUSH1 0x2 ADD DUP2 SWAP1 SSTORE POP POP POP POP JUMP JUMPDEST PUSH0 PUSH1 0x20 MSTORE DUP1 PUSH0 MSTORE PUSH1 0x40 PUSH0 KECCAK256 PUSH0 SWAP2 POP SWAP1 POP DUP1 PUSH1 0x1 ADD PUSH0 SWAP1 SLOAD SWAP1 PUSH2 0x100 EXP SWAP1 DIV PUSH1 0xFF AND SWAP1 DUP1 PUSH1 0x2 ADD SLOAD SWAP1 DUP1 PUSH1 0x3 ADD SLOAD SWAP1 POP DUP4 JUMP JUMPDEST PUSH0 CALLER SWAP1 POP PUSH0 DUP1 DUP3 PUSH20 0xFFFFFFFFFFFFFFFFFFFFFFFFFFFFFFFFFFFFFFFF AND PUSH20 0xFFFFFFFFFFFFFFFFFFFFFFFFFFFFFFFFFFFFFFFF AND DUP2 MSTORE PUSH1 0x20 ADD SWAP1 DUP2 MSTORE PUSH1 0x20 ADD PUSH0 KECCAK256 PUSH1 0x1 ADD PUSH0 SWAP1 SLOAD SWAP1 PUSH2 0x100 EXP SWAP1 DIV PUSH1 0xFF AND PUSH2 0x8FF JUMPI PUSH1 0x40 MLOAD PUSH32 0x8C379A000000000000000000000000000000000000000000000000000000000 DUP2 MSTORE PUSH1 0x4 ADD PUSH2 0x8F6 SWAP1 PUSH2 0x1042 JUMP JUMPDEST PUSH1 0x40 MLOAD DUP1 SWAP2 SUB SWAP1 REVERT JUMPDEST TIMESTAMP PUSH0 DUP1 DUP4 PUSH20 0xFFFFFFFFFFFFFFFFFFFFFFFFFFFFFFFFFFFFFFFF AND PUSH20 0xFFFFFFFFFFFFFFFFFFFFFFFFFFFFFFFFFFFFFFFF AND DUP2 MSTORE PUSH1 0x20 ADD SWAP1 DUP2 MSTORE PUSH1 0x20 ADD PUSH0 KECCAK256 PUSH1 0x2 ADD DUP2 SWAP1 SSTORE POP POP JUMP JUMPDEST POP DUP1 SLOAD PUSH0 DUP3 SSTORE SWAP1 PUSH0 MSTORE PUSH1 0x20 PUSH0 KECCAK256 SWAP1 DUP2 ADD SWAP1 PUSH2 0x961 SWAP2 SWAP1 PUSH2 0x964 JUMP JUMPDEST POP JUMP JUMPDEST JUMPDEST DUP1 DUP3 GT ISZERO PUSH2 0x9AF JUMPI PUSH0 DUP1 DUP3 ADD PUSH0 PUSH2 0x100 EXP DUP2 SLOAD SWAP1 PUSH20 0xFFFFFFFFFFFFFFFFFFFFFFFFFFFFFFFFFFFFFFFF MUL NOT AND SWAP1 SSTORE PUSH0 DUP3 ADD PUSH1 0x14 PUSH2 0x100 EXP DUP2 SLOAD SWAP1 PUSH1 0xFF MUL NOT AND SWAP1 SSTORE POP PUSH1 0x1 ADD PUSH2 0x965 JUMP JUMPDEST POP SWAP1 JUMP JUMPDEST PUSH0 DUP2 MLOAD SWAP1 POP SWAP2 SWAP1 POP JUMP JUMPDEST PUSH0 DUP3 DUP3 MSTORE PUSH1 0x20 DUP3 ADD SWAP1 POP SWAP3 SWAP2 POP POP JUMP JUMPDEST PUSH0 DUP2 SWAP1 POP PUSH1 0x20 DUP3 ADD SWAP1 POP SWAP2 SWAP1 POP JUMP JUMPDEST PUSH0 PUSH20 0xFFFFFFFFFFFFFFFFFFFFFFFFFFFFFFFFFFFFFFFF DUP3 AND SWAP1 POP SWAP2 SWAP1 POP JUMP JUMPDEST PUSH0 PUSH2 0xA05 DUP3 PUSH2 0x9DC JUMP JUMPDEST SWAP1 POP SWAP2 SWAP1 POP JUMP JUMPDEST PUSH2 0xA15 DUP2 PUSH2 0x9FB JUMP JUMPDEST DUP3 MSTORE POP POP JUMP JUMPDEST PUSH0 PUSH2 0xA26 DUP4 DUP4 PUSH2 0xA0C JUMP JUMPDEST PUSH1 0x20 DUP4 ADD SWAP1 POP SWAP3 SWAP2 POP POP JUMP JUMPDEST PUSH0 PUSH1 0x20 DUP3 ADD SWAP1 POP SWAP2 SWAP1 POP JUMP JUMPDEST PUSH0 PUSH2 0xA48 DUP3 PUSH2 0x9B3 JUMP JUMPDEST PUSH2 0xA52 DUP2 DUP6 PUSH2 0x9BD JUMP JUMPDEST SWAP4 POP PUSH2 0xA5D DUP4 PUSH2 0x9CD JUMP JUMPDEST DUP1 PUSH0 JUMPDEST DUP4 DUP2 LT ISZERO PUSH2 0xA8D JUMPI DUP2 MLOAD PUSH2 0xA74 DUP9 DUP3 PUSH2 0xA1B JUMP JUMPDEST SWAP8 POP PUSH2 0xA7F DUP4 PUSH2 0xA32 JUMP JUMPDEST SWAP3 POP POP PUSH1 0x1 DUP2 ADD SWAP1 POP PUSH2 0xA60 JUMP JUMPDEST POP DUP6 SWAP4 POP POP POP POP SWAP3 SWAP2 POP POP JUMP JUMPDEST PUSH0 DUP2 MLOAD SWAP1 POP SWAP2 SWAP1 POP JUMP JUMPDEST PUSH0 DUP3 DUP3 MSTORE PUSH1 0x20 DUP3 ADD SWAP1 POP SWAP3 SWAP2 POP POP JUMP JUMPDEST PUSH0 DUP2 SWAP1 POP PUSH1 0x20 DUP3 ADD SWAP1 POP SWAP2 SWAP1 POP JUMP JUMPDEST PUSH0 PUSH1 0xFF DUP3 AND SWAP1 POP SWAP2 SWAP1 POP JUMP JUMPDEST PUSH2 0xAD8 DUP2 PUSH2 0xAC3 JUMP JUMPDEST DUP3 MSTORE POP POP JUMP JUMPDEST PUSH0 PUSH2 0xAE9 DUP4 DUP4 PUSH2 0xACF JUMP JUMPDEST PUSH1 0x20 DUP4 ADD SWAP1 POP SWAP3 SWAP2 POP POP JUMP JUMPDEST PUSH0 PUSH1 0x20 DUP3 ADD SWAP1 POP SWAP2 SWAP1 POP JUMP JUMPDEST PUSH0 PUSH2 0xB0B DUP3 PUSH2 0xA9A JUMP JUMPDEST PUSH2 0xB15 DUP2 DUP6 PUSH2 0xAA4 JUMP JUMPDEST SWAP4 POP PUSH2 0xB20 DUP4 PUSH2 0xAB4 JUMP JUMPDEST DUP1 PUSH0 JUMPDEST DUP4 DUP2 LT ISZERO PUSH2 0xB50 JUMPI DUP2 MLOAD PUSH2 0xB37 DUP9 DUP3 PUSH2 0xADE JUMP JUMPDEST SWAP8 POP PUSH2 0xB42 DUP4 PUSH2 0xAF5 JUMP JUMPDEST SWAP3 POP POP PUSH1 0x1 DUP2 ADD SWAP1 POP PUSH2 0xB23 JUMP JUMPDEST POP DUP6 SWAP4 POP POP POP POP SWAP3 SWAP2 POP POP JUMP JUMPDEST PUSH0 DUP2 SWAP1 POP SWAP2 SWAP1 POP JUMP JUMPDEST PUSH2 0xB6F DUP2 PUSH2 0xB5D JUMP JUMPDEST DUP3 MSTORE POP POP JUMP JUMPDEST PUSH0 PUSH1 0x80 DUP3 ADD SWAP1 POP DUP2 DUP2 SUB PUSH0 DUP4 ADD MSTORE PUSH2 0xB8D DUP2 DUP8 PUSH2 0xA3E JUMP JUMPDEST SWAP1 POP DUP2 DUP2 SUB PUSH1 0x20 DUP4 ADD MSTORE PUSH2 0xBA1 DUP2 DUP7 PUSH2 0xB01 JUMP JUMPDEST SWAP1 POP PUSH2 0xBB0 PUSH1 0x40 DUP4 ADD DUP6 PUSH2 0xB66 JUMP JUMPDEST PUSH2 0xBBD PUSH1 0x60 DUP4 ADD DUP5 PUSH2 0xB66 JUMP JUMPDEST SWAP6 SWAP5 POP POP POP POP POP JUMP JUMPDEST PUSH0 PUSH1 0x40 MLOAD SWAP1 POP SWAP1 JUMP JUMPDEST PUSH0 DUP1 REVERT JUMPDEST PUSH0 DUP1 REVERT JUMPDEST PUSH2 0xBE0 DUP2 PUSH2 0x9FB JUMP JUMPDEST DUP2 EQ PUSH2 0xBEA JUMPI PUSH0 DUP1 REVERT JUMPDEST POP JUMP JUMPDEST PUSH0 DUP2 CALLDATALOAD SWAP1 POP PUSH2 0xBFB DUP2 PUSH2 0xBD7 JUMP JUMPDEST SWAP3 SWAP2 POP POP JUMP JUMPDEST PUSH0 PUSH1 0x20 DUP3 DUP5 SUB SLT ISZERO PUSH2 0xC16 JUMPI PUSH2 0xC15 PUSH2 0xBCF JUMP JUMPDEST JUMPDEST PUSH0 PUSH2 0xC23 DUP5 DUP3 DUP6 ADD PUSH2 0xBED JUMP JUMPDEST SWAP2 POP POP SWAP3 SWAP2 POP POP JUMP JUMPDEST PUSH2 0xC35 DUP2 PUSH2 0x9FB JUMP JUMPDEST DUP3 MSTORE POP POP JUMP JUMPDEST PUSH0 PUSH1 0x20 DUP3 ADD SWAP1 POP PUSH2 0xC4E PUSH0 DUP4 ADD DUP5 PUSH2 0xC2C JUMP JUMPDEST SWAP3 SWAP2 POP POP JUMP JUMPDEST PUSH0 DUP1 REVERT JUMPDEST PUSH0 PUSH1 0x1F NOT PUSH1 0x1F DUP4 ADD AND SWAP1 POP SWAP2 SWAP1 POP JUMP JUMPDEST PUSH32 0x4E487B7100000000000000000000000000000000000000000000000000000000 PUSH0 MSTORE PUSH1 0x41 PUSH1 0x4 MSTORE PUSH1 0x24 PUSH0 REVERT JUMPDEST PUSH2 0xC9E DUP3 PUSH2 0xC58 JUMP JUMPDEST DUP2 ADD DUP2 DUP2 LT PUSH8 0xFFFFFFFFFFFFFFFF DUP3 GT OR ISZERO PUSH2 0xCBD JUMPI PUSH2 0xCBC PUSH2 0xC68 JUMP JUMPDEST JUMPDEST DUP1 PUSH1 0x40 MSTORE POP POP POP JUMP JUMPDEST PUSH0 PUSH2 0xCCF PUSH2 0xBC6 JUMP JUMPDEST SWAP1 POP PUSH2 0xCDB DUP3 DUP3 PUSH2 0xC95 JUMP JUMPDEST SWAP2 SWAP1 POP JUMP JUMPDEST PUSH0 PUSH8 0xFFFFFFFFFFFFFFFF DUP3 GT ISZERO PUSH2 0xCFA JUMPI PUSH2 0xCF9 PUSH2 0xC68 JUMP JUMPDEST JUMPDEST PUSH1 0x20 DUP3 MUL SWAP1 POP PUSH1 0x20 DUP2 ADD SWAP1 POP SWAP2 SWAP1 POP JUMP JUMPDEST PUSH0 DUP1 REVERT JUMPDEST PUSH0 PUSH2 0xD21 PUSH2 0xD1C DUP5 PUSH2 0xCE0 JUMP JUMPDEST PUSH2 0xCC6 JUMP JUMPDEST SWAP1 POP DUP1 DUP4 DUP3 MSTORE PUSH1 0x20 DUP3 ADD SWAP1 POP PUSH1 0x20 DUP5 MUL DUP4 ADD DUP6 DUP2 GT ISZERO PUSH2 0xD44 JUMPI PUSH2 0xD43 PUSH2 0xD0B JUMP JUMPDEST JUMPDEST DUP4 JUMPDEST DUP2 DUP2 LT ISZERO PUSH2 0xD6D JUMPI DUP1 PUSH2 0xD59 DUP9 DUP3 PUSH2 0xBED JUMP JUMPDEST DUP5 MSTORE PUSH1 0x20 DUP5 ADD SWAP4 POP POP PUSH1 0x20 DUP2 ADD SWAP1 POP PUSH2 0xD46 JUMP JUMPDEST POP POP POP SWAP4 SWAP3 POP POP POP JUMP JUMPDEST PUSH0 DUP3 PUSH1 0x1F DUP4 ADD SLT PUSH2 0xD8B JUMPI PUSH2 0xD8A PUSH2 0xC54 JUMP JUMPDEST JUMPDEST DUP2 CALLDATALOAD PUSH2 0xD9B DUP5 DUP3 PUSH1 0x20 DUP7 ADD PUSH2 0xD0F JUMP JUMPDEST SWAP2 POP POP SWAP3 SWAP2 POP POP JUMP JUMPDEST PUSH0 PUSH8 0xFFFFFFFFFFFFFFFF DUP3 GT ISZERO PUSH2 0xDBE JUMPI PUSH2 0xDBD PUSH2 0xC68 JUMP JUMPDEST JUMPDEST PUSH1 0x20 DUP3 MUL SWAP1 POP PUSH1 0x20 DUP2 ADD SWAP1 POP SWAP2 SWAP1 POP JUMP JUMPDEST PUSH2 0xDD8 DUP2 PUSH2 0xAC3 JUMP JUMPDEST DUP2 EQ PUSH2 0xDE2 JUMPI PUSH0 DUP1 REVERT JUMPDEST POP JUMP JUMPDEST PUSH0 DUP2 CALLDATALOAD SWAP1 POP PUSH2 0xDF3 DUP2 PUSH2 0xDCF JUMP JUMPDEST SWAP3 SWAP2 POP POP JUMP JUMPDEST PUSH0 PUSH2 0xE0B PUSH2 0xE06 DUP5 PUSH2 0xDA4 JUMP JUMPDEST PUSH2 0xCC6 JUMP JUMPDEST SWAP1 POP DUP1 DUP4 DUP3 MSTORE PUSH1 0x20 DUP3 ADD SWAP1 POP PUSH1 0x20 DUP5 MUL DUP4 ADD DUP6 DUP2 GT ISZERO PUSH2 0xE2E JUMPI PUSH2 0xE2D PUSH2 0xD0B JUMP JUMPDEST JUMPDEST DUP4 JUMPDEST DUP2 DUP2 LT ISZERO PUSH2 0xE57 JUMPI DUP1 PUSH2 0xE43 DUP9 DUP3 PUSH2 0xDE5 JUMP JUMPDEST DUP5 MSTORE PUSH1 0x20 DUP5 ADD SWAP4 POP POP PUSH1 0x20 DUP2 ADD SWAP1 POP PUSH2 0xE30 JUMP JUMPDEST POP POP POP SWAP4 SWAP3 POP POP POP JUMP JUMPDEST PUSH0 DUP3 PUSH1 0x1F DUP4 ADD SLT PUSH2 0xE75 JUMPI PUSH2 0xE74 PUSH2 0xC54 JUMP JUMPDEST JUMPDEST DUP2 CALLDATALOAD PUSH2 0xE85 DUP5 DUP3 PUSH1 0x20 DUP7 ADD PUSH2 0xDF9 JUMP JUMPDEST SWAP2 POP POP SWAP3 SWAP2 POP POP JUMP JUMPDEST PUSH0 DUP1 PUSH1 0x40 DUP4 DUP6 SUB SLT ISZERO PUSH2 0xEA4 JUMPI PUSH2 0xEA3 PUSH2 0xBCF JUMP JUMPDEST JUMPDEST PUSH0 DUP4 ADD CALLDATALOAD PUSH8 0xFFFFFFFFFFFFFFFF DUP2 GT ISZERO PUSH2 0xEC1 JUMPI PUSH2 0xEC0 PUSH2 0xBD3 JUMP JUMPDEST JUMPDEST PUSH2 0xECD DUP6 DUP3 DUP7 ADD PUSH2 0xD77 JUMP JUMPDEST SWAP3 POP POP PUSH1 0x20 DUP4 ADD CALLDATALOAD PUSH8 0xFFFFFFFFFFFFFFFF DUP2 GT ISZERO PUSH2 0xEEE JUMPI PUSH2 0xEED PUSH2 0xBD3 JUMP JUMPDEST JUMPDEST PUSH2 0xEFA DUP6 DUP3 DUP7 ADD PUSH2 0xE61 JUMP JUMPDEST SWAP2 POP POP SWAP3 POP SWAP3 SWAP1 POP JUMP JUMPDEST PUSH0 DUP2 ISZERO ISZERO SWAP1 POP SWAP2 SWAP1 POP JUMP JUMPDEST PUSH2 0xF18 DUP2 PUSH2 0xF04 JUMP JUMPDEST DUP3 MSTORE POP POP JUMP JUMPDEST PUSH0 PUSH1 0x60 DUP3 ADD SWAP1 POP PUSH2 0xF31 PUSH0 DUP4 ADD DUP7 PUSH2 0xF0F JUMP JUMPDEST PUSH2 0xF3E PUSH1 0x20 DUP4 ADD DUP6 PUSH2 0xB66 JUMP JUMPDEST PUSH2 0xF4B PUSH1 0x40 DUP4 ADD DUP5 PUSH2 0xB66 JUMP JUMPDEST SWAP5 SWAP4 POP POP POP POP JUMP JUMPDEST PUSH0 DUP3 DUP3 MSTORE PUSH1 0x20 DUP3 ADD SWAP1 POP SWAP3 SWAP2 POP POP JUMP JUMPDEST PUSH32 0x5465737461646F72206E616F20656E636F6E747261646F000000000000000000 PUSH0 DUP3 ADD MSTORE POP JUMP JUMPDEST PUSH0 PUSH2 0xF97 PUSH1 0x17 DUP4 PUSH2 0xF53 JUMP JUMPDEST SWAP2 POP PUSH2 0xFA2 DUP3 PUSH2 0xF63 JUMP JUMPDEST PUSH1 0x20 DUP3 ADD SWAP1 POP SWAP2 SWAP1 POP JUMP JUMPDEST PUSH0 PUSH1 0x20 DUP3 ADD SWAP1 POP DUP2 DUP2 SUB PUSH0 DUP4 ADD MSTORE PUSH2 0xFC4 DUP2 PUSH2 0xF8B JUMP JUMPDEST SWAP1 POP SWAP2 SWAP1 POP JUMP JUMPDEST PUSH32 0x4E487B7100000000000000000000000000000000000000000000000000000000 PUSH0 MSTORE PUSH1 0x32 PUSH1 0x4 MSTORE PUSH1 0x24 PUSH0 REVERT JUMPDEST PUSH32 0x5465737461646F72206E616F2065786973746500000000000000000000000000 PUSH0 DUP3 ADD MSTORE POP JUMP JUMPDEST PUSH0 PUSH2 0x102C PUSH1 0x13 DUP4 PUSH2 0xF53 JUMP JUMPDEST SWAP2 POP PUSH2 0x1037 DUP3 PUSH2 0xFF8 JUMP JUMPDEST PUSH1 0x20 DUP3 ADD SWAP1 POP SWAP2 SWAP1 POP JUMP JUMPDEST PUSH0 PUSH1 0x20 DUP3 ADD SWAP1 POP DUP2 DUP2 SUB PUSH0 DUP4 ADD MSTORE PUSH2 0x1059 DUP2 PUSH2 0x1020 JUMP JUMPDEST SWAP1 POP SWAP2 SWAP1 POP JUMP INVALID LOG2 PUSH5 0x6970667358 0x22 SLT KECCAK256 0xD6 0xD7 BYTE RETURN DUP7 SWAP3 0xE7 0x21 SHL 0x22 GASPRICE SWAP7 0xDC 0xE5 0xCD ADDRESS CALLER 0xD 0xAC EQ ADD CALLVALUE 0xC5 SWAP14 EQ DUP13 0xCD DUP2 0xCF DUP2 0xC9 TLOAD PUSH5 0x736F6C6343 STOP ADDMOD BYTE STOP CALLER "
				},
				"gasEstimates": {
					"creation": {
						"codeDepositCost": "849200",
						"executionCost": "881",
						"totalCost": "850081"
					},
					"external": {
						"cancelTestament()": "infinite",
						"checkInheritance()": "143",
						"createInheritance(address[],uint8[])": "infinite",
						"getMyTestament()": "infinite",
						"inheritorToTestator(address)": "infinite",
						"testators(address)": "infinite",
						"updateProofOfLife()": "24673"
					},
					"internal": {
						"checkIfTestatorExist()": "infinite"
					}
				},
				"methodIdentifiers": {
					"cancelTestament()": "1aba6da6",
					"checkInheritance()": "69833808",
					"createInheritance(address[],uint8[])": "759a8a98",
					"getMyTestament()": "3a994a8b",
					"inheritorToTestator(address)": "6355e754",
					"testators(address)": "b45b91f2",
					"updateProofOfLife()": "c80cc411"
				}
			},
			"storageLayout": {
				"storage": [
					{
						"astId": 50,
						"contract": ".deps/studying-solidity/InheritanceContract.sol:InheritanceContract",
						"label": "testators",
						"offset": 0,
						"slot": "0",
						"type": "t_mapping(t_address,t_struct(Testator)45_storage)"
					},
					{
						"astId": 54,
						"contract": ".deps/studying-solidity/InheritanceContract.sol:InheritanceContract",
						"label": "inheritorToTestator",
						"offset": 0,
						"slot": "1",
						"type": "t_mapping(t_address,t_address)"
					}
				],
				"types": {
					"t_address": {
						"encoding": "inplace",
						"label": "address",
						"numberOfBytes": "20"
					},
					"t_array(t_struct(Inheritor)34_storage)dyn_storage": {
						"base": "t_struct(Inheritor)34_storage",
						"encoding": "dynamic_array",
						"label": "struct InheritanceContract.Inheritor[]",
						"numberOfBytes": "32"
					},
					"t_bool": {
						"encoding": "inplace",
						"label": "bool",
						"numberOfBytes": "1"
					},
					"t_mapping(t_address,t_address)": {
						"encoding": "mapping",
						"key": "t_address",
						"label": "mapping(address => address)",
						"numberOfBytes": "32",
						"value": "t_address"
					},
					"t_mapping(t_address,t_struct(Testator)45_storage)": {
						"encoding": "mapping",
						"key": "t_address",
						"label": "mapping(address => struct InheritanceContract.Testator)",
						"numberOfBytes": "32",
						"value": "t_struct(Testator)45_storage"
					},
					"t_struct(Inheritor)34_storage": {
						"encoding": "inplace",
						"label": "struct InheritanceContract.Inheritor",
						"members": [
							{
								"astId": 31,
								"contract": ".deps/studying-solidity/InheritanceContract.sol:InheritanceContract",
								"label": "inheritorAddress",
								"offset": 0,
								"slot": "0",
								"type": "t_address"
							},
							{
								"astId": 33,
								"contract": ".deps/studying-solidity/InheritanceContract.sol:InheritanceContract",
								"label": "percentage",
								"offset": 20,
								"slot": "0",
								"type": "t_uint8"
							}
						],
						"numberOfBytes": "32"
					},
					"t_struct(Testator)45_storage": {
						"encoding": "inplace",
						"label": "struct InheritanceContract.Testator",
						"members": [
							{
								"astId": 38,
								"contract": ".deps/studying-solidity/InheritanceContract.sol:InheritanceContract",
								"label": "inheritors",
								"offset": 0,
								"slot": "0",
								"type": "t_array(t_struct(Inheritor)34_storage)dyn_storage"
							},
							{
								"astId": 40,
								"contract": ".deps/studying-solidity/InheritanceContract.sol:InheritanceContract",
								"label": "exist",
								"offset": 0,
								"slot": "1",
								"type": "t_bool"
							},
							{
								"astId": 42,
								"contract": ".deps/studying-solidity/InheritanceContract.sol:InheritanceContract",
								"label": "lastProofOfLife",
								"offset": 0,
								"slot": "2",
								"type": "t_uint256"
							},
							{
								"astId": 44,
								"contract": ".deps/studying-solidity/InheritanceContract.sol:InheritanceContract",
								"label": "amount",
								"offset": 0,
								"slot": "3",
								"type": "t_uint256"
							}
						],
						"numberOfBytes": "128"
					},
					"t_uint256": {
						"encoding": "inplace",
						"label": "uint256",
						"numberOfBytes": "32"
					},
					"t_uint8": {
						"encoding": "inplace",
						"label": "uint8",
						"numberOfBytes": "1"
					}
				}
			},
			"userdoc": {
				"kind": "user",
				"methods": {},
				"version": 1
			}
		}
	}
}