{
	".deps/studying-solidity/InheritanceContract.sol": {
		"InheritanceContract": {
			"abi": [
				{
					"inputs": [],
					"name": "cancelTestament",
					"outputs": [],
					"stateMutability": "nonpayable",
					"type": "function"
				},
				{
					"inputs": [
						{
							"internalType": "address[]",
							"name": "_addresses",
							"type": "address[]"
						},
						{
							"internalType": "uint8[]",
							"name": "_percentagens",
							"type": "uint8[]"
						}
					],
					"name": "createInheritance",
					"outputs": [],
					"stateMutability": "payable",
					"type": "function"
				},
				{
					"inputs": [],
					"name": "getMyTestament",
					"outputs": [
						{
							"internalType": "address[]",
							"name": "",
							"type": "address[]"
						},
						{
							"internalType": "uint64[]",
							"name": "",
							"type": "uint64[]"
						},
						{
							"internalType": "uint128",
							"name": "",
							"type": "uint128"
						},
						{
							"internalType": "uint256",
							"name": "",
							"type": "uint256"
						}
					],
					"stateMutability": "view",
					"type": "function"
				},
				{
					"inputs": [
						{
							"internalType": "address",
							"name": "",
							"type": "address"
						}
					],
					"name": "inheritorToTestator",
					"outputs": [
						{
							"internalType": "address",
							"name": "",
							"type": "address"
						}
					],
					"stateMutability": "view",
					"type": "function"
				},
				{
					"inputs": [
						{
							"internalType": "address",
							"name": "",
							"type": "address"
						}
					],
					"name": "testators",
					"outputs": [
						{
							"internalType": "bool",
							"name": "exist",
							"type": "bool"
						},
						{
							"internalType": "uint128",
							"name": "lastProofOfLife",
							"type": "uint128"
						},
						{
							"internalType": "uint256",
							"name": "totalAmount",
							"type": "uint256"
						}
					],
					"stateMutability": "view",
					"type": "function"
				},
				{
					"inputs": [],
					"name": "updateProofOfLife",
					"outputs": [],
					"stateMutability": "nonpayable",
					"type": "function"
				},
				{
					"inputs": [],
					"name": "withdrawal",
					"outputs": [],
					"stateMutability": "nonpayable",
					"type": "function"
				}
			],
			"devdoc": {
				"kind": "dev",
				"methods": {},
				"version": 1
			},
			"evm": {
				"assembly": "    /* \".deps/studying-solidity/InheritanceContract.sol\":723:5006  contract InheritanceContract is IInheritanceContract {... */\n  mstore(0x40, 0x80)\n  callvalue\n  dup1\n  iszero\n  tag_1\n  jumpi\n  0x00\n  dup1\n  revert\ntag_1:\n  pop\n  dataSize(sub_0)\n  dup1\n  dataOffset(sub_0)\n  0x00\n  codecopy\n  0x00\n  return\nstop\n\nsub_0: assembly {\n        /* \".deps/studying-solidity/InheritanceContract.sol\":723:5006  contract InheritanceContract is IInheritanceContract {... */\n      mstore(0x40, 0x80)\n      jumpi(tag_1, lt(calldatasize, 0x04))\n      shr(0xe0, calldataload(0x00))\n      dup1\n      0x759a8a98\n      gt\n      tag_9\n      jumpi\n      dup1\n      0x759a8a98\n      eq\n      tag_5\n      jumpi\n      dup1\n      0xb45b91f2\n      eq\n      tag_6\n      jumpi\n      dup1\n      0xc80cc411\n      eq\n      tag_7\n      jumpi\n      dup1\n      0xd4e93292\n      eq\n      tag_8\n      jumpi\n      jump(tag_1)\n    tag_9:\n      dup1\n      0x1aba6da6\n      eq\n      tag_2\n      jumpi\n      dup1\n      0x3a994a8b\n      eq\n      tag_3\n      jumpi\n      dup1\n      0x6355e754\n      eq\n      tag_4\n      jumpi\n    tag_1:\n      0x00\n      dup1\n      revert\n        /* \".deps/studying-solidity/InheritanceContract.sol\":3707:3990  function cancelTestament() external {... */\n    tag_2:\n      callvalue\n      dup1\n      iszero\n      tag_10\n      jumpi\n      0x00\n      dup1\n      revert\n    tag_10:\n      pop\n      tag_11\n      tag_12\n      jump\t// in\n    tag_11:\n      stop\n        /* \".deps/studying-solidity/InheritanceContract.sol\":2297:3351  function getMyTestament()... */\n    tag_3:\n      callvalue\n      dup1\n      iszero\n      tag_13\n      jumpi\n      0x00\n      dup1\n      revert\n    tag_13:\n      pop\n      tag_14\n      tag_15\n      jump\t// in\n    tag_14:\n      mload(0x40)\n      tag_16\n      swap5\n      swap4\n      swap3\n      swap2\n      swap1\n      tag_17\n      jump\t// in\n    tag_16:\n      mload(0x40)\n      dup1\n      swap2\n      sub\n      swap1\n      return\n        /* \".deps/studying-solidity/InheritanceContract.sol\":1131:1185  mapping(address => address) public inheritorToTestator */\n    tag_4:\n      callvalue\n      dup1\n      iszero\n      tag_18\n      jumpi\n      0x00\n      dup1\n      revert\n    tag_18:\n      pop\n      tag_19\n      0x04\n      dup1\n      calldatasize\n      sub\n      dup2\n      add\n      swap1\n      tag_20\n      swap2\n      swap1\n      tag_21\n      jump\t// in\n    tag_20:\n      tag_22\n      jump\t// in\n    tag_19:\n      mload(0x40)\n      tag_23\n      swap2\n      swap1\n      tag_24\n      jump\t// in\n    tag_23:\n      mload(0x40)\n      dup1\n      swap2\n      sub\n      swap1\n      return\n        /* \".deps/studying-solidity/InheritanceContract.sol\":1211:2272  function createInheritance(... */\n    tag_5:\n      tag_25\n      0x04\n      dup1\n      calldatasize\n      sub\n      dup2\n      add\n      swap1\n      tag_26\n      swap2\n      swap1\n      tag_27\n      jump\t// in\n    tag_26:\n      tag_28\n      jump\t// in\n    tag_25:\n      stop\n        /* \".deps/studying-solidity/InheritanceContract.sol\":1079:1124  mapping(address => Testator) public testators */\n    tag_6:\n      callvalue\n      dup1\n      iszero\n      tag_29\n      jumpi\n      0x00\n      dup1\n      revert\n    tag_29:\n      pop\n      tag_30\n      0x04\n      dup1\n      calldatasize\n      sub\n      dup2\n      add\n      swap1\n      tag_31\n      swap2\n      swap1\n      tag_21\n      jump\t// in\n    tag_31:\n      tag_32\n      jump\t// in\n    tag_30:\n      mload(0x40)\n      tag_33\n      swap4\n      swap3\n      swap2\n      swap1\n      tag_34\n      jump\t// in\n    tag_33:\n      mload(0x40)\n      dup1\n      swap2\n      sub\n      swap1\n      return\n        /* \".deps/studying-solidity/InheritanceContract.sol\":3376:3584  function updateProofOfLife() external {... */\n    tag_7:\n      callvalue\n      dup1\n      iszero\n      tag_35\n      jumpi\n      0x00\n      dup1\n      revert\n    tag_35:\n      pop\n      tag_36\n      tag_37\n      jump\t// in\n    tag_36:\n      stop\n        /* \".deps/studying-solidity/InheritanceContract.sol\":3996:5004  function withdrawal() external {... */\n    tag_8:\n      callvalue\n      dup1\n      iszero\n      tag_38\n      jumpi\n      0x00\n      dup1\n      revert\n    tag_38:\n      pop\n      tag_39\n      tag_40\n      jump\t// in\n    tag_39:\n      stop\n        /* \".deps/studying-solidity/InheritanceContract.sol\":3707:3990  function cancelTestament() external {... */\n    tag_12:\n        /* \".deps/studying-solidity/InheritanceContract.sol\":3753:3764  address own */\n      0x00\n        /* \".deps/studying-solidity/InheritanceContract.sol\":3767:3777  msg.sender */\n      caller\n        /* \".deps/studying-solidity/InheritanceContract.sol\":3753:3777  address own = msg.sender */\n      swap1\n      pop\n        /* \".deps/studying-solidity/InheritanceContract.sol\":3789:3801  bool success */\n      0x00\n        /* \".deps/studying-solidity/InheritanceContract.sol\":3807:3817  msg.sender */\n      caller\n        /* \".deps/studying-solidity/InheritanceContract.sol\":3807:3822  msg.sender.call */\n      0xffffffffffffffffffffffffffffffffffffffff\n      and\n        /* \".deps/studying-solidity/InheritanceContract.sol\":3830:3839  testators */\n      0x00\n        /* \".deps/studying-solidity/InheritanceContract.sol\":3830:3844  testators[own] */\n      dup1\n        /* \".deps/studying-solidity/InheritanceContract.sol\":3840:3843  own */\n      dup5\n        /* \".deps/studying-solidity/InheritanceContract.sol\":3830:3844  testators[own] */\n      0xffffffffffffffffffffffffffffffffffffffff\n      and\n      0xffffffffffffffffffffffffffffffffffffffff\n      and\n      dup2\n      mstore\n      0x20\n      add\n      swap1\n      dup2\n      mstore\n      0x20\n      add\n      0x00\n      keccak256\n        /* \".deps/studying-solidity/InheritanceContract.sol\":3830:3856  testators[own].totalAmount */\n      0x02\n      add\n      sload\n        /* \".deps/studying-solidity/InheritanceContract.sol\":3807:3883  msg.sender.call{value: testators[own].totalAmount}(... */\n      mload(0x40)\n      tag_42\n      swap1\n      tag_43\n      jump\t// in\n    tag_42:\n      0x00\n      mload(0x40)\n      dup1\n      dup4\n      sub\n      dup2\n      dup6\n      dup8\n      gas\n      call\n      swap3\n      pop\n      pop\n      pop\n      returndatasize\n      dup1\n      0x00\n      dup2\n      eq\n      tag_46\n      jumpi\n      mload(0x40)\n      swap2\n      pop\n      and(add(returndatasize, 0x3f), not(0x1f))\n      dup3\n      add\n      0x40\n      mstore\n      returndatasize\n      dup3\n      mstore\n      returndatasize\n      0x00\n      0x20\n      dup5\n      add\n      returndatacopy\n      jump(tag_45)\n    tag_46:\n      0x60\n      swap2\n      pop\n    tag_45:\n      pop\n        /* \".deps/studying-solidity/InheritanceContract.sol\":3788:3883  (bool success, ) = msg.sender.call{value: testators[own].totalAmount}(... */\n      pop\n      swap1\n      pop\n        /* \".deps/studying-solidity/InheritanceContract.sol\":3901:3908  success */\n      dup1\n        /* \".deps/studying-solidity/InheritanceContract.sol\":3893:3951  require(success, \"cancelTestament(), Falha ao enviar ETH\") */\n      tag_47\n      jumpi\n      mload(0x40)\n      0x08c379a000000000000000000000000000000000000000000000000000000000\n      dup2\n      mstore\n      0x04\n      add\n      tag_48\n      swap1\n      tag_49\n      jump\t// in\n    tag_48:\n      mload(0x40)\n      dup1\n      swap2\n      sub\n      swap1\n      revert\n    tag_47:\n        /* \".deps/studying-solidity/InheritanceContract.sol\":3969:3978  testators */\n      0x00\n        /* \".deps/studying-solidity/InheritanceContract.sol\":3969:3983  testators[own] */\n      dup1\n        /* \".deps/studying-solidity/InheritanceContract.sol\":3979:3982  own */\n      dup4\n        /* \".deps/studying-solidity/InheritanceContract.sol\":3969:3983  testators[own] */\n      0xffffffffffffffffffffffffffffffffffffffff\n      and\n      0xffffffffffffffffffffffffffffffffffffffff\n      and\n      dup2\n      mstore\n      0x20\n      add\n      swap1\n      dup2\n      mstore\n      0x20\n      add\n      0x00\n      keccak256\n      0x00\n        /* \".deps/studying-solidity/InheritanceContract.sol\":3962:3983  delete testators[own] */\n      dup1\n      dup3\n      add\n      0x00\n      tag_50\n      swap2\n      swap1\n      tag_51\n      jump\t// in\n    tag_50:\n      0x01\n      dup3\n      add\n      exp(0x0100, 0x00)\n      dup2\n      sload\n      swap1\n      0xff\n      mul\n      not\n      and\n      swap1\n      sstore\n      0x01\n      dup3\n      add\n      exp(0x0100, 0x01)\n      dup2\n      sload\n      swap1\n      0xffffffffffffffffffffffffffffffff\n      mul\n      not\n      and\n      swap1\n      sstore\n      0x02\n      dup3\n      add\n      0x00\n      swap1\n      sstore\n      pop\n      pop\n        /* \".deps/studying-solidity/InheritanceContract.sol\":3743:3990  {... */\n      pop\n      pop\n        /* \".deps/studying-solidity/InheritanceContract.sol\":3707:3990  function cancelTestament() external {... */\n      jump\t// out\n        /* \".deps/studying-solidity/InheritanceContract.sol\":2297:3351  function getMyTestament()... */\n    tag_15:\n        /* \".deps/studying-solidity/InheritanceContract.sol\":2383:2399  address[] memory */\n      0x60\n        /* \".deps/studying-solidity/InheritanceContract.sol\":2413:2428  uint64[] memory */\n      dup1\n        /* \".deps/studying-solidity/InheritanceContract.sol\":2442:2449  uint128 */\n      0x00\n        /* \".deps/studying-solidity/InheritanceContract.sol\":2494:2501  uint256 */\n      dup1\n        /* \".deps/studying-solidity/InheritanceContract.sol\":2535:2546  address own */\n      0x00\n        /* \".deps/studying-solidity/InheritanceContract.sol\":2549:2559  msg.sender */\n      caller\n        /* \".deps/studying-solidity/InheritanceContract.sol\":2535:2559  address own = msg.sender */\n      swap1\n      pop\n        /* \".deps/studying-solidity/InheritanceContract.sol\":2570:2595  Testator memory _testator */\n      0x00\n        /* \".deps/studying-solidity/InheritanceContract.sol\":2598:2607  testators */\n      dup1\n        /* \".deps/studying-solidity/InheritanceContract.sol\":2598:2612  testators[own] */\n      0x00\n        /* \".deps/studying-solidity/InheritanceContract.sol\":2608:2611  own */\n      dup4\n        /* \".deps/studying-solidity/InheritanceContract.sol\":2598:2612  testators[own] */\n      0xffffffffffffffffffffffffffffffffffffffff\n      and\n      0xffffffffffffffffffffffffffffffffffffffff\n      and\n      dup2\n      mstore\n      0x20\n      add\n      swap1\n      dup2\n      mstore\n      0x20\n      add\n      0x00\n      keccak256\n        /* \".deps/studying-solidity/InheritanceContract.sol\":2570:2612  Testator memory _testator = testators[own] */\n      mload(0x40)\n      dup1\n      0x80\n      add\n      0x40\n      mstore\n      swap1\n      dup2\n      0x00\n      dup3\n      add\n      dup1\n      sload\n      dup1\n      0x20\n      mul\n      0x20\n      add\n      mload(0x40)\n      swap1\n      dup2\n      add\n      0x40\n      mstore\n      dup1\n      swap3\n      swap2\n      swap1\n      dup2\n      dup2\n      mstore\n      0x20\n      add\n      0x00\n      swap1\n    tag_53:\n      dup3\n      dup3\n      lt\n      iszero\n      tag_54\n      jumpi\n      dup4\n      dup3\n      swap1\n      0x00\n      mstore\n      keccak256(0x00, 0x20)\n      add\n      mload(0x40)\n      dup1\n      0x40\n      add\n      0x40\n      mstore\n      swap1\n      dup2\n      0x00\n      dup3\n      add\n      0x00\n      swap1\n      sload\n      swap1\n      0x0100\n      exp\n      swap1\n      div\n      0xffffffffffffffffffffffffffffffffffffffff\n      and\n      0xffffffffffffffffffffffffffffffffffffffff\n      and\n      0xffffffffffffffffffffffffffffffffffffffff\n      and\n      dup2\n      mstore\n      0x20\n      add\n      0x00\n      dup3\n      add\n      0x14\n      swap1\n      sload\n      swap1\n      0x0100\n      exp\n      swap1\n      div\n      0xffffffffffffffff\n      and\n      0xffffffffffffffff\n      and\n      0xffffffffffffffff\n      and\n      dup2\n      mstore\n      pop\n      pop\n      dup2\n      mstore\n      0x20\n      add\n      swap1\n      0x01\n      add\n      swap1\n      jump(tag_53)\n    tag_54:\n      pop\n      pop\n      pop\n      pop\n      dup2\n      mstore\n      0x20\n      add\n      0x01\n      dup3\n      add\n      0x00\n      swap1\n      sload\n      swap1\n      0x0100\n      exp\n      swap1\n      div\n      0xff\n      and\n      iszero\n      iszero\n      iszero\n      iszero\n      dup2\n      mstore\n      0x20\n      add\n      0x01\n      dup3\n      add\n      0x01\n      swap1\n      sload\n      swap1\n      0x0100\n      exp\n      swap1\n      div\n      0xffffffffffffffffffffffffffffffff\n      and\n      0xffffffffffffffffffffffffffffffff\n      and\n      0xffffffffffffffffffffffffffffffff\n      and\n      dup2\n      mstore\n      0x20\n      add\n      0x02\n      dup3\n      add\n      sload\n      dup2\n      mstore\n      pop\n      pop\n      swap1\n      pop\n        /* \".deps/studying-solidity/InheritanceContract.sol\":2631:2640  _testator */\n      dup1\n        /* \".deps/studying-solidity/InheritanceContract.sol\":2631:2646  _testator.exist */\n      0x20\n      add\n      mload\n        /* \".deps/studying-solidity/InheritanceContract.sol\":2623:2674  require(_testator.exist, \"Testador nao encontrado\") */\n      tag_56\n      jumpi\n      mload(0x40)\n      0x08c379a000000000000000000000000000000000000000000000000000000000\n      dup2\n      mstore\n      0x04\n      add\n      tag_57\n      swap1\n      tag_58\n      jump\t// in\n    tag_57:\n      mload(0x40)\n      dup1\n      swap2\n      sub\n      swap1\n      revert\n    tag_56:\n        /* \".deps/studying-solidity/InheritanceContract.sol\":2685:2721  address[] memory _inheritorAddresses */\n      0x00\n        /* \".deps/studying-solidity/InheritanceContract.sol\":2751:2760  _testator */\n      dup2\n        /* \".deps/studying-solidity/InheritanceContract.sol\":2751:2771  _testator.inheritors */\n      0x00\n      add\n      mload\n        /* \".deps/studying-solidity/InheritanceContract.sol\":2751:2778  _testator.inheritors.length */\n      mload\n        /* \".deps/studying-solidity/InheritanceContract.sol\":2724:2788  new address[](... */\n      0xffffffffffffffff\n      dup2\n      gt\n      iszero\n      tag_59\n      jumpi\n      tag_60\n      tag_61\n      jump\t// in\n    tag_60:\n    tag_59:\n      mload(0x40)\n      swap1\n      dup1\n      dup3\n      mstore\n      dup1\n      0x20\n      mul\n      0x20\n      add\n      dup3\n      add\n      0x40\n      mstore\n      dup1\n      iszero\n      tag_62\n      jumpi\n      dup2\n      0x20\n      add\n      0x20\n      dup3\n      mul\n      dup1\n      calldatasize\n      dup4\n      calldatacopy\n      dup1\n      dup3\n      add\n      swap2\n      pop\n      pop\n      swap1\n      pop\n    tag_62:\n      pop\n        /* \".deps/studying-solidity/InheritanceContract.sol\":2685:2788  address[] memory _inheritorAddresses = new address[](... */\n      swap1\n      pop\n        /* \".deps/studying-solidity/InheritanceContract.sol\":2799:2827  uint64[] memory _percentages */\n      0x00\n        /* \".deps/studying-solidity/InheritanceContract.sol\":2856:2865  _testator */\n      dup3\n        /* \".deps/studying-solidity/InheritanceContract.sol\":2856:2876  _testator.inheritors */\n      0x00\n      add\n      mload\n        /* \".deps/studying-solidity/InheritanceContract.sol\":2856:2883  _testator.inheritors.length */\n      mload\n        /* \".deps/studying-solidity/InheritanceContract.sol\":2830:2893  new uint64[](... */\n      0xffffffffffffffff\n      dup2\n      gt\n      iszero\n      tag_63\n      jumpi\n      tag_64\n      tag_61\n      jump\t// in\n    tag_64:\n    tag_63:\n      mload(0x40)\n      swap1\n      dup1\n      dup3\n      mstore\n      dup1\n      0x20\n      mul\n      0x20\n      add\n      dup3\n      add\n      0x40\n      mstore\n      dup1\n      iszero\n      tag_65\n      jumpi\n      dup2\n      0x20\n      add\n      0x20\n      dup3\n      mul\n      dup1\n      calldatasize\n      dup4\n      calldatacopy\n      dup1\n      dup3\n      add\n      swap2\n      pop\n      pop\n      swap1\n      pop\n    tag_65:\n      pop\n        /* \".deps/studying-solidity/InheritanceContract.sol\":2799:2893  uint64[] memory _percentages = new uint64[](... */\n      swap1\n      pop\n        /* \".deps/studying-solidity/InheritanceContract.sol\":2909:2917  uint64 i */\n      0x00\n        /* \".deps/studying-solidity/InheritanceContract.sol\":2904:3184  for (uint64 i = 0; i < _testator.inheritors.length; i++) {... */\n    tag_66:\n        /* \".deps/studying-solidity/InheritanceContract.sol\":2927:2936  _testator */\n      dup4\n        /* \".deps/studying-solidity/InheritanceContract.sol\":2927:2947  _testator.inheritors */\n      0x00\n      add\n      mload\n        /* \".deps/studying-solidity/InheritanceContract.sol\":2927:2954  _testator.inheritors.length */\n      mload\n        /* \".deps/studying-solidity/InheritanceContract.sol\":2923:2924  i */\n      dup2\n        /* \".deps/studying-solidity/InheritanceContract.sol\":2923:2954  i < _testator.inheritors.length */\n      0xffffffffffffffff\n      and\n      lt\n        /* \".deps/studying-solidity/InheritanceContract.sol\":2904:3184  for (uint64 i = 0; i < _testator.inheritors.length; i++) {... */\n      iszero\n      tag_67\n      jumpi\n        /* \".deps/studying-solidity/InheritanceContract.sol\":2975:3009  Inheritor memory _currentInheritor */\n      0x00\n        /* \".deps/studying-solidity/InheritanceContract.sol\":3012:3021  _testator */\n      dup5\n        /* \".deps/studying-solidity/InheritanceContract.sol\":3012:3032  _testator.inheritors */\n      0x00\n      add\n      mload\n        /* \".deps/studying-solidity/InheritanceContract.sol\":3033:3034  i */\n      dup3\n        /* \".deps/studying-solidity/InheritanceContract.sol\":3012:3035  _testator.inheritors[i] */\n      0xffffffffffffffff\n      and\n      dup2\n      mload\n      dup2\n      lt\n      tag_69\n      jumpi\n      tag_70\n      tag_71\n      jump\t// in\n    tag_70:\n    tag_69:\n      0x20\n      mul\n      0x20\n      add\n      add\n      mload\n        /* \".deps/studying-solidity/InheritanceContract.sol\":2975:3035  Inheritor memory _currentInheritor = _testator.inheritors[i] */\n      swap1\n      pop\n        /* \".deps/studying-solidity/InheritanceContract.sol\":3076:3093  _currentInheritor */\n      dup1\n        /* \".deps/studying-solidity/InheritanceContract.sol\":3076:3110  _currentInheritor.inheritorAddress */\n      0x00\n      add\n      mload\n        /* \".deps/studying-solidity/InheritanceContract.sol\":3050:3069  _inheritorAddresses */\n      dup5\n        /* \".deps/studying-solidity/InheritanceContract.sol\":3070:3071  i */\n      dup4\n        /* \".deps/studying-solidity/InheritanceContract.sol\":3050:3072  _inheritorAddresses[i] */\n      0xffffffffffffffff\n      and\n      dup2\n      mload\n      dup2\n      lt\n      tag_72\n      jumpi\n      tag_73\n      tag_71\n      jump\t// in\n    tag_73:\n    tag_72:\n      0x20\n      mul\n      0x20\n      add\n      add\n        /* \".deps/studying-solidity/InheritanceContract.sol\":3050:3111  _inheritorAddresses[i] = (_currentInheritor.inheritorAddress) */\n      swap1\n      0xffffffffffffffffffffffffffffffffffffffff\n      and\n      swap1\n      dup2\n      0xffffffffffffffffffffffffffffffffffffffff\n      and\n      dup2\n      mstore\n      pop\n      pop\n        /* \".deps/studying-solidity/InheritanceContract.sol\":3144:3161  _currentInheritor */\n      dup1\n        /* \".deps/studying-solidity/InheritanceContract.sol\":3144:3172  _currentInheritor.percentage */\n      0x20\n      add\n      mload\n        /* \".deps/studying-solidity/InheritanceContract.sol\":3125:3137  _percentages */\n      dup4\n        /* \".deps/studying-solidity/InheritanceContract.sol\":3138:3139  i */\n      dup4\n        /* \".deps/studying-solidity/InheritanceContract.sol\":3125:3140  _percentages[i] */\n      0xffffffffffffffff\n      and\n      dup2\n      mload\n      dup2\n      lt\n      tag_74\n      jumpi\n      tag_75\n      tag_71\n      jump\t// in\n    tag_75:\n    tag_74:\n      0x20\n      mul\n      0x20\n      add\n      add\n        /* \".deps/studying-solidity/InheritanceContract.sol\":3125:3173  _percentages[i] = (_currentInheritor.percentage) */\n      swap1\n      0xffffffffffffffff\n      and\n      swap1\n      dup2\n      0xffffffffffffffff\n      and\n      dup2\n      mstore\n      pop\n      pop\n        /* \".deps/studying-solidity/InheritanceContract.sol\":2961:3184  {... */\n      pop\n        /* \".deps/studying-solidity/InheritanceContract.sol\":2956:2959  i++ */\n      dup1\n      dup1\n      tag_76\n      swap1\n      tag_77\n      jump\t// in\n    tag_76:\n      swap2\n      pop\n      pop\n        /* \".deps/studying-solidity/InheritanceContract.sol\":2904:3184  for (uint64 i = 0; i < _testator.inheritors.length; i++) {... */\n      jump(tag_66)\n    tag_67:\n      pop\n        /* \".deps/studying-solidity/InheritanceContract.sol\":3215:3234  _inheritorAddresses */\n      dup2\n        /* \".deps/studying-solidity/InheritanceContract.sol\":3248:3260  _percentages */\n      dup2\n        /* \".deps/studying-solidity/InheritanceContract.sol\":3274:3283  _testator */\n      dup5\n        /* \".deps/studying-solidity/InheritanceContract.sol\":3274:3299  _testator.lastProofOfLife */\n      0x40\n      add\n      mload\n        /* \".deps/studying-solidity/InheritanceContract.sol\":3313:3322  _testator */\n      dup6\n        /* \".deps/studying-solidity/InheritanceContract.sol\":3313:3334  _testator.totalAmount */\n      0x60\n      add\n      mload\n        /* \".deps/studying-solidity/InheritanceContract.sol\":3194:3344  return (... */\n      swap8\n      pop\n      swap8\n      pop\n      swap8\n      pop\n      swap8\n      pop\n      pop\n      pop\n      pop\n      pop\n        /* \".deps/studying-solidity/InheritanceContract.sol\":2297:3351  function getMyTestament()... */\n      swap1\n      swap2\n      swap3\n      swap4\n      jump\t// out\n        /* \".deps/studying-solidity/InheritanceContract.sol\":1131:1185  mapping(address => address) public inheritorToTestator */\n    tag_22:\n      mstore(0x20, 0x01)\n      dup1\n      0x00\n      mstore\n      keccak256(0x00, 0x40)\n      0x00\n      swap2\n      pop\n      sload\n      swap1\n      0x0100\n      exp\n      swap1\n      div\n      0xffffffffffffffffffffffffffffffffffffffff\n      and\n      dup2\n      jump\t// out\n        /* \".deps/studying-solidity/InheritanceContract.sol\":1211:2272  function createInheritance(... */\n    tag_28:\n        /* \".deps/studying-solidity/InheritanceContract.sol\":1367:1368  0 */\n      0x00\n        /* \".deps/studying-solidity/InheritanceContract.sol\":1354:1363  msg.value */\n      callvalue\n        /* \".deps/studying-solidity/InheritanceContract.sol\":1354:1368  msg.value != 0 */\n      sub\n        /* \".deps/studying-solidity/InheritanceContract.sol\":1346:1408  require(msg.value != 0, \"createInheritance(), valor invalido\") */\n      tag_79\n      jumpi\n      mload(0x40)\n      0x08c379a000000000000000000000000000000000000000000000000000000000\n      dup2\n      mstore\n      0x04\n      add\n      tag_80\n      swap1\n      tag_81\n      jump\t// in\n    tag_80:\n      mload(0x40)\n      dup1\n      swap2\n      sub\n      swap1\n      revert\n    tag_79:\n        /* \".deps/studying-solidity/InheritanceContract.sol\":1460:1461  0 */\n      0x00\n        /* \".deps/studying-solidity/InheritanceContract.sol\":1439:1449  _addresses */\n      dup3\n        /* \".deps/studying-solidity/InheritanceContract.sol\":1439:1456  _addresses.length */\n      mload\n        /* \".deps/studying-solidity/InheritanceContract.sol\":1439:1461  _addresses.length != 0 */\n      sub\n        /* \".deps/studying-solidity/InheritanceContract.sol\":1418:1529  require(... */\n      tag_82\n      jumpi\n      mload(0x40)\n      0x08c379a000000000000000000000000000000000000000000000000000000000\n      dup2\n      mstore\n      0x04\n      add\n      tag_83\n      swap1\n      tag_84\n      jump\t// in\n    tag_83:\n      mload(0x40)\n      dup1\n      swap2\n      sub\n      swap1\n      revert\n    tag_82:\n        /* \".deps/studying-solidity/InheritanceContract.sol\":1581:1594  _percentagens */\n      dup1\n        /* \".deps/studying-solidity/InheritanceContract.sol\":1581:1601  _percentagens.length */\n      mload\n        /* \".deps/studying-solidity/InheritanceContract.sol\":1560:1570  _addresses */\n      dup3\n        /* \".deps/studying-solidity/InheritanceContract.sol\":1560:1577  _addresses.length */\n      mload\n        /* \".deps/studying-solidity/InheritanceContract.sol\":1560:1601  _addresses.length == _percentagens.length */\n      eq\n        /* \".deps/studying-solidity/InheritanceContract.sol\":1539:1697  require(... */\n      tag_85\n      jumpi\n      mload(0x40)\n      0x08c379a000000000000000000000000000000000000000000000000000000000\n      dup2\n      mstore\n      0x04\n      add\n      tag_86\n      swap1\n      tag_87\n      jump\t// in\n    tag_86:\n      mload(0x40)\n      dup1\n      swap2\n      sub\n      swap1\n      revert\n    tag_85:\n        /* \".deps/studying-solidity/InheritanceContract.sol\":1708:1719  address own */\n      0x00\n        /* \".deps/studying-solidity/InheritanceContract.sol\":1722:1732  msg.sender */\n      caller\n        /* \".deps/studying-solidity/InheritanceContract.sol\":1708:1732  address own = msg.sender */\n      swap1\n      pop\n        /* \".deps/studying-solidity/InheritanceContract.sol\":1747:1756  testators */\n      0x00\n        /* \".deps/studying-solidity/InheritanceContract.sol\":1747:1761  testators[own] */\n      dup1\n        /* \".deps/studying-solidity/InheritanceContract.sol\":1757:1760  own */\n      dup3\n        /* \".deps/studying-solidity/InheritanceContract.sol\":1747:1761  testators[own] */\n      0xffffffffffffffffffffffffffffffffffffffff\n      and\n      0xffffffffffffffffffffffffffffffffffffffff\n      and\n      dup2\n      mstore\n      0x20\n      add\n      swap1\n      dup2\n      mstore\n      0x20\n      add\n      0x00\n      keccak256\n        /* \".deps/studying-solidity/InheritanceContract.sol\":1747:1767  testators[own].exist */\n      0x01\n      add\n      0x00\n      swap1\n      sload\n      swap1\n      0x0100\n      exp\n      swap1\n      div\n      0xff\n      and\n        /* \".deps/studying-solidity/InheritanceContract.sol\":1743:1801  if (testators[own].exist) delete testators[own].inheritors */\n      iszero\n      tag_88\n      jumpi\n        /* \".deps/studying-solidity/InheritanceContract.sol\":1776:1785  testators */\n      0x00\n        /* \".deps/studying-solidity/InheritanceContract.sol\":1776:1790  testators[own] */\n      dup1\n        /* \".deps/studying-solidity/InheritanceContract.sol\":1786:1789  own */\n      dup3\n        /* \".deps/studying-solidity/InheritanceContract.sol\":1776:1790  testators[own] */\n      0xffffffffffffffffffffffffffffffffffffffff\n      and\n      0xffffffffffffffffffffffffffffffffffffffff\n      and\n      dup2\n      mstore\n      0x20\n      add\n      swap1\n      dup2\n      mstore\n      0x20\n      add\n      0x00\n      keccak256\n        /* \".deps/studying-solidity/InheritanceContract.sol\":1776:1801  testators[own].inheritors */\n      0x00\n      add\n      0x00\n        /* \".deps/studying-solidity/InheritanceContract.sol\":1769:1801  delete testators[own].inheritors */\n      tag_89\n      swap2\n      swap1\n      tag_51\n      jump\t// in\n    tag_89:\n        /* \".deps/studying-solidity/InheritanceContract.sol\":1743:1801  if (testators[own].exist) delete testators[own].inheritors */\n    tag_88:\n        /* \".deps/studying-solidity/InheritanceContract.sol\":1817:1826  uint256 i */\n      0x00\n        /* \".deps/studying-solidity/InheritanceContract.sol\":1812:2114  for (uint256 i = 0; i < _addresses.length; i++) {... */\n    tag_90:\n        /* \".deps/studying-solidity/InheritanceContract.sol\":1836:1846  _addresses */\n      dup4\n        /* \".deps/studying-solidity/InheritanceContract.sol\":1836:1853  _addresses.length */\n      mload\n        /* \".deps/studying-solidity/InheritanceContract.sol\":1832:1833  i */\n      dup2\n        /* \".deps/studying-solidity/InheritanceContract.sol\":1832:1853  i < _addresses.length */\n      lt\n        /* \".deps/studying-solidity/InheritanceContract.sol\":1812:2114  for (uint256 i = 0; i < _addresses.length; i++) {... */\n      iszero\n      tag_91\n      jumpi\n        /* \".deps/studying-solidity/InheritanceContract.sol\":1874:1901  Inheritor memory _inheritor */\n      0x00\n        /* \".deps/studying-solidity/InheritanceContract.sol\":1904:1992  Inheritor(... */\n      mload(0x40)\n      dup1\n      0x40\n      add\n      0x40\n      mstore\n      dup1\n        /* \".deps/studying-solidity/InheritanceContract.sol\":1931:1941  _addresses */\n      dup7\n        /* \".deps/studying-solidity/InheritanceContract.sol\":1942:1943  i */\n      dup5\n        /* \".deps/studying-solidity/InheritanceContract.sol\":1931:1944  _addresses[i] */\n      dup2\n      mload\n      dup2\n      lt\n      tag_93\n      jumpi\n      tag_94\n      tag_71\n      jump\t// in\n    tag_94:\n    tag_93:\n      0x20\n      mul\n      0x20\n      add\n      add\n      mload\n        /* \".deps/studying-solidity/InheritanceContract.sol\":1904:1992  Inheritor(... */\n      0xffffffffffffffffffffffffffffffffffffffff\n      and\n      dup2\n      mstore\n      0x20\n      add\n        /* \".deps/studying-solidity/InheritanceContract.sol\":1962:1975  _percentagens */\n      dup6\n        /* \".deps/studying-solidity/InheritanceContract.sol\":1976:1977  i */\n      dup5\n        /* \".deps/studying-solidity/InheritanceContract.sol\":1962:1978  _percentagens[i] */\n      dup2\n      mload\n      dup2\n      lt\n      tag_95\n      jumpi\n      tag_96\n      tag_71\n      jump\t// in\n    tag_96:\n    tag_95:\n      0x20\n      mul\n      0x20\n      add\n      add\n      mload\n        /* \".deps/studying-solidity/InheritanceContract.sol\":1904:1992  Inheritor(... */\n      0xff\n      and\n      0xffffffffffffffff\n      and\n      dup2\n      mstore\n      pop\n        /* \".deps/studying-solidity/InheritanceContract.sol\":1874:1992  Inheritor memory _inheritor = Inheritor(... */\n      swap1\n      pop\n        /* \".deps/studying-solidity/InheritanceContract.sol\":2044:2047  own */\n      dup3\n        /* \".deps/studying-solidity/InheritanceContract.sol\":2007:2026  inheritorToTestator */\n      0x01\n        /* \".deps/studying-solidity/InheritanceContract.sol\":2007:2041  inheritorToTestator[_addresses[i]] */\n      0x00\n        /* \".deps/studying-solidity/InheritanceContract.sol\":2027:2037  _addresses */\n      dup8\n        /* \".deps/studying-solidity/InheritanceContract.sol\":2038:2039  i */\n      dup6\n        /* \".deps/studying-solidity/InheritanceContract.sol\":2027:2040  _addresses[i] */\n      dup2\n      mload\n      dup2\n      lt\n      tag_97\n      jumpi\n      tag_98\n      tag_71\n      jump\t// in\n    tag_98:\n    tag_97:\n      0x20\n      mul\n      0x20\n      add\n      add\n      mload\n        /* \".deps/studying-solidity/InheritanceContract.sol\":2007:2041  inheritorToTestator[_addresses[i]] */\n      0xffffffffffffffffffffffffffffffffffffffff\n      and\n      0xffffffffffffffffffffffffffffffffffffffff\n      and\n      dup2\n      mstore\n      0x20\n      add\n      swap1\n      dup2\n      mstore\n      0x20\n      add\n      0x00\n      keccak256\n      0x00\n        /* \".deps/studying-solidity/InheritanceContract.sol\":2007:2047  inheritorToTestator[_addresses[i]] = own */\n      0x0100\n      exp\n      dup2\n      sload\n      dup2\n      0xffffffffffffffffffffffffffffffffffffffff\n      mul\n      not\n      and\n      swap1\n      dup4\n      0xffffffffffffffffffffffffffffffffffffffff\n      and\n      mul\n      or\n      swap1\n      sstore\n      pop\n        /* \".deps/studying-solidity/InheritanceContract.sol\":2061:2070  testators */\n      0x00\n        /* \".deps/studying-solidity/InheritanceContract.sol\":2061:2075  testators[own] */\n      dup1\n        /* \".deps/studying-solidity/InheritanceContract.sol\":2071:2074  own */\n      dup5\n        /* \".deps/studying-solidity/InheritanceContract.sol\":2061:2075  testators[own] */\n      0xffffffffffffffffffffffffffffffffffffffff\n      and\n      0xffffffffffffffffffffffffffffffffffffffff\n      and\n      dup2\n      mstore\n      0x20\n      add\n      swap1\n      dup2\n      mstore\n      0x20\n      add\n      0x00\n      keccak256\n        /* \".deps/studying-solidity/InheritanceContract.sol\":2061:2086  testators[own].inheritors */\n      0x00\n      add\n        /* \".deps/studying-solidity/InheritanceContract.sol\":2092:2102  _inheritor */\n      dup2\n        /* \".deps/studying-solidity/InheritanceContract.sol\":2061:2103  testators[own].inheritors.push(_inheritor) */\n      swap1\n      dup1\n      0x01\n      dup2\n      sload\n      add\n      dup1\n      dup3\n      sstore\n      dup1\n      swap2\n      pop\n      pop\n      0x01\n      swap1\n      sub\n      swap1\n      0x00\n      mstore\n      keccak256(0x00, 0x20)\n      add\n      0x00\n      swap1\n      swap2\n      swap1\n      swap2\n      swap1\n      swap2\n      pop\n      0x00\n      dup3\n      add\n      mload\n      dup2\n      0x00\n      add\n      exp(0x0100, 0x00)\n      dup2\n      sload\n      dup2\n      0xffffffffffffffffffffffffffffffffffffffff\n      mul\n      not\n      and\n      swap1\n      dup4\n      0xffffffffffffffffffffffffffffffffffffffff\n      and\n      mul\n      or\n      swap1\n      sstore\n      pop\n      0x20\n      dup3\n      add\n      mload\n      dup2\n      0x00\n      add\n      exp(0x0100, 0x14)\n      dup2\n      sload\n      dup2\n      0xffffffffffffffff\n      mul\n      not\n      and\n      swap1\n      dup4\n      0xffffffffffffffff\n      and\n      mul\n      or\n      swap1\n      sstore\n      pop\n      pop\n      pop\n        /* \".deps/studying-solidity/InheritanceContract.sol\":1860:2114  {... */\n      pop\n        /* \".deps/studying-solidity/InheritanceContract.sol\":1855:1858  i++ */\n      dup1\n      dup1\n      0x01\n      add\n      swap2\n      pop\n      pop\n        /* \".deps/studying-solidity/InheritanceContract.sol\":1812:2114  for (uint256 i = 0; i < _addresses.length; i++) {... */\n      jump(tag_90)\n    tag_91:\n      pop\n        /* \".deps/studying-solidity/InheritanceContract.sol\":2146:2150  true */\n      0x01\n        /* \".deps/studying-solidity/InheritanceContract.sol\":2123:2132  testators */\n      0x00\n        /* \".deps/studying-solidity/InheritanceContract.sol\":2123:2137  testators[own] */\n      dup1\n        /* \".deps/studying-solidity/InheritanceContract.sol\":2133:2136  own */\n      dup4\n        /* \".deps/studying-solidity/InheritanceContract.sol\":2123:2137  testators[own] */\n      0xffffffffffffffffffffffffffffffffffffffff\n      and\n      0xffffffffffffffffffffffffffffffffffffffff\n      and\n      dup2\n      mstore\n      0x20\n      add\n      swap1\n      dup2\n      mstore\n      0x20\n      add\n      0x00\n      keccak256\n        /* \".deps/studying-solidity/InheritanceContract.sol\":2123:2143  testators[own].exist */\n      0x01\n      add\n      0x00\n        /* \".deps/studying-solidity/InheritanceContract.sol\":2123:2150  testators[own].exist = true */\n      0x0100\n      exp\n      dup2\n      sload\n      dup2\n      0xff\n      mul\n      not\n      and\n      swap1\n      dup4\n      iszero\n      iszero\n      mul\n      or\n      swap1\n      sstore\n      pop\n        /* \".deps/studying-solidity/InheritanceContract.sol\":2201:2216  block.timestamp */\n      timestamp\n        /* \".deps/studying-solidity/InheritanceContract.sol\":2160:2169  testators */\n      0x00\n        /* \".deps/studying-solidity/InheritanceContract.sol\":2160:2174  testators[own] */\n      dup1\n        /* \".deps/studying-solidity/InheritanceContract.sol\":2170:2173  own */\n      dup4\n        /* \".deps/studying-solidity/InheritanceContract.sol\":2160:2174  testators[own] */\n      0xffffffffffffffffffffffffffffffffffffffff\n      and\n      0xffffffffffffffffffffffffffffffffffffffff\n      and\n      dup2\n      mstore\n      0x20\n      add\n      swap1\n      dup2\n      mstore\n      0x20\n      add\n      0x00\n      keccak256\n        /* \".deps/studying-solidity/InheritanceContract.sol\":2160:2190  testators[own].lastProofOfLife */\n      0x01\n      add\n      0x01\n        /* \".deps/studying-solidity/InheritanceContract.sol\":2160:2217  testators[own].lastProofOfLife = uint128(block.timestamp) */\n      0x0100\n      exp\n      dup2\n      sload\n      dup2\n      0xffffffffffffffffffffffffffffffff\n      mul\n      not\n      and\n      swap1\n      dup4\n      0xffffffffffffffffffffffffffffffff\n      and\n      mul\n      or\n      swap1\n      sstore\n      pop\n        /* \".deps/studying-solidity/InheritanceContract.sol\":2256:2265  msg.value */\n      callvalue\n        /* \".deps/studying-solidity/InheritanceContract.sol\":2227:2236  testators */\n      0x00\n        /* \".deps/studying-solidity/InheritanceContract.sol\":2227:2241  testators[own] */\n      dup1\n        /* \".deps/studying-solidity/InheritanceContract.sol\":2237:2240  own */\n      dup4\n        /* \".deps/studying-solidity/InheritanceContract.sol\":2227:2241  testators[own] */\n      0xffffffffffffffffffffffffffffffffffffffff\n      and\n      0xffffffffffffffffffffffffffffffffffffffff\n      and\n      dup2\n      mstore\n      0x20\n      add\n      swap1\n      dup2\n      mstore\n      0x20\n      add\n      0x00\n      keccak256\n        /* \".deps/studying-solidity/InheritanceContract.sol\":2227:2253  testators[own].totalAmount */\n      0x02\n      add\n        /* \".deps/studying-solidity/InheritanceContract.sol\":2227:2265  testators[own].totalAmount = msg.value */\n      dup2\n      swap1\n      sstore\n      pop\n        /* \".deps/studying-solidity/InheritanceContract.sol\":1336:2272  {... */\n      pop\n        /* \".deps/studying-solidity/InheritanceContract.sol\":1211:2272  function createInheritance(... */\n      pop\n      pop\n      jump\t// out\n        /* \".deps/studying-solidity/InheritanceContract.sol\":1079:1124  mapping(address => Testator) public testators */\n    tag_32:\n      mstore(0x20, 0x00)\n      dup1\n      0x00\n      mstore\n      keccak256(0x00, 0x40)\n      0x00\n      swap2\n      pop\n      swap1\n      pop\n      dup1\n      0x01\n      add\n      0x00\n      swap1\n      sload\n      swap1\n      0x0100\n      exp\n      swap1\n      div\n      0xff\n      and\n      swap1\n      dup1\n      0x01\n      add\n      0x01\n      swap1\n      sload\n      swap1\n      0x0100\n      exp\n      swap1\n      div\n      0xffffffffffffffffffffffffffffffff\n      and\n      swap1\n      dup1\n      0x02\n      add\n      sload\n      swap1\n      pop\n      dup4\n      jump\t// out\n        /* \".deps/studying-solidity/InheritanceContract.sol\":3376:3584  function updateProofOfLife() external {... */\n    tag_37:\n        /* \".deps/studying-solidity/InheritanceContract.sol\":3424:3435  address own */\n      0x00\n        /* \".deps/studying-solidity/InheritanceContract.sol\":3438:3448  msg.sender */\n      caller\n        /* \".deps/studying-solidity/InheritanceContract.sol\":3424:3448  address own = msg.sender */\n      swap1\n      pop\n        /* \".deps/studying-solidity/InheritanceContract.sol\":3466:3475  testators */\n      0x00\n        /* \".deps/studying-solidity/InheritanceContract.sol\":3466:3480  testators[own] */\n      dup1\n        /* \".deps/studying-solidity/InheritanceContract.sol\":3476:3479  own */\n      dup3\n        /* \".deps/studying-solidity/InheritanceContract.sol\":3466:3480  testators[own] */\n      0xffffffffffffffffffffffffffffffffffffffff\n      and\n      0xffffffffffffffffffffffffffffffffffffffff\n      and\n      dup2\n      mstore\n      0x20\n      add\n      swap1\n      dup2\n      mstore\n      0x20\n      add\n      0x00\n      keccak256\n        /* \".deps/studying-solidity/InheritanceContract.sol\":3466:3486  testators[own].exist */\n      0x01\n      add\n      0x00\n      swap1\n      sload\n      swap1\n      0x0100\n      exp\n      swap1\n      div\n      0xff\n      and\n        /* \".deps/studying-solidity/InheritanceContract.sol\":3458:3510  require(testators[own].exist, \"Testador nao existe\") */\n      tag_101\n      jumpi\n      mload(0x40)\n      0x08c379a000000000000000000000000000000000000000000000000000000000\n      dup2\n      mstore\n      0x04\n      add\n      tag_102\n      swap1\n      tag_103\n      jump\t// in\n    tag_102:\n      mload(0x40)\n      dup1\n      swap2\n      sub\n      swap1\n      revert\n    tag_101:\n        /* \".deps/studying-solidity/InheritanceContract.sol\":3561:3576  block.timestamp */\n      timestamp\n        /* \".deps/studying-solidity/InheritanceContract.sol\":3520:3529  testators */\n      0x00\n        /* \".deps/studying-solidity/InheritanceContract.sol\":3520:3534  testators[own] */\n      dup1\n        /* \".deps/studying-solidity/InheritanceContract.sol\":3530:3533  own */\n      dup4\n        /* \".deps/studying-solidity/InheritanceContract.sol\":3520:3534  testators[own] */\n      0xffffffffffffffffffffffffffffffffffffffff\n      and\n      0xffffffffffffffffffffffffffffffffffffffff\n      and\n      dup2\n      mstore\n      0x20\n      add\n      swap1\n      dup2\n      mstore\n      0x20\n      add\n      0x00\n      keccak256\n        /* \".deps/studying-solidity/InheritanceContract.sol\":3520:3550  testators[own].lastProofOfLife */\n      0x01\n      add\n      0x01\n        /* \".deps/studying-solidity/InheritanceContract.sol\":3520:3577  testators[own].lastProofOfLife = uint128(block.timestamp) */\n      0x0100\n      exp\n      dup2\n      sload\n      dup2\n      0xffffffffffffffffffffffffffffffff\n      mul\n      not\n      and\n      swap1\n      dup4\n      0xffffffffffffffffffffffffffffffff\n      and\n      mul\n      or\n      swap1\n      sstore\n      pop\n        /* \".deps/studying-solidity/InheritanceContract.sol\":3414:3584  {... */\n      pop\n        /* \".deps/studying-solidity/InheritanceContract.sol\":3376:3584  function updateProofOfLife() external {... */\n      jump\t// out\n        /* \".deps/studying-solidity/InheritanceContract.sol\":3996:5004  function withdrawal() external {... */\n    tag_40:\n        /* \".deps/studying-solidity/InheritanceContract.sol\":4037:4055  address _inheritor */\n      0x00\n        /* \".deps/studying-solidity/InheritanceContract.sol\":4058:4068  msg.sender */\n      caller\n        /* \".deps/studying-solidity/InheritanceContract.sol\":4037:4068  address _inheritor = msg.sender */\n      swap1\n      pop\n        /* \".deps/studying-solidity/InheritanceContract.sol\":4078:4100  address ownInheritance */\n      0x00\n        /* \".deps/studying-solidity/InheritanceContract.sol\":4103:4122  inheritorToTestator */\n      0x01\n        /* \".deps/studying-solidity/InheritanceContract.sol\":4103:4134  inheritorToTestator[_inheritor] */\n      0x00\n        /* \".deps/studying-solidity/InheritanceContract.sol\":4123:4133  _inheritor */\n      dup4\n        /* \".deps/studying-solidity/InheritanceContract.sol\":4103:4134  inheritorToTestator[_inheritor] */\n      0xffffffffffffffffffffffffffffffffffffffff\n      and\n      0xffffffffffffffffffffffffffffffffffffffff\n      and\n      dup2\n      mstore\n      0x20\n      add\n      swap1\n      dup2\n      mstore\n      0x20\n      add\n      0x00\n      keccak256\n      0x00\n      swap1\n      sload\n      swap1\n      0x0100\n      exp\n      swap1\n      div\n      0xffffffffffffffffffffffffffffffffffffffff\n      and\n        /* \".deps/studying-solidity/InheritanceContract.sol\":4078:4134  address ownInheritance = inheritorToTestator[_inheritor] */\n      swap1\n      pop\n        /* \".deps/studying-solidity/InheritanceContract.sol\":4191:4192  0 */\n      0x00\n        /* \".deps/studying-solidity/InheritanceContract.sol\":4165:4193  ownInheritance != address(0) */\n      0xffffffffffffffffffffffffffffffffffffffff\n      and\n        /* \".deps/studying-solidity/InheritanceContract.sol\":4165:4179  ownInheritance */\n      dup2\n        /* \".deps/studying-solidity/InheritanceContract.sol\":4165:4193  ownInheritance != address(0) */\n      0xffffffffffffffffffffffffffffffffffffffff\n      and\n      sub\n        /* \".deps/studying-solidity/InheritanceContract.sol\":4144:4263  require(... */\n      tag_105\n      jumpi\n      mload(0x40)\n      0x08c379a000000000000000000000000000000000000000000000000000000000\n      dup2\n      mstore\n      0x04\n      add\n      tag_106\n      swap1\n      tag_107\n      jump\t// in\n    tag_106:\n      mload(0x40)\n      dup1\n      swap2\n      sub\n      swap1\n      revert\n    tag_105:\n        /* \".deps/studying-solidity/InheritanceContract.sol\":4282:4291  testators */\n      0x00\n        /* \".deps/studying-solidity/InheritanceContract.sol\":4282:4307  testators[ownInheritance] */\n      dup1\n        /* \".deps/studying-solidity/InheritanceContract.sol\":4292:4306  ownInheritance */\n      dup3\n        /* \".deps/studying-solidity/InheritanceContract.sol\":4282:4307  testators[ownInheritance] */\n      0xffffffffffffffffffffffffffffffffffffffff\n      and\n      0xffffffffffffffffffffffffffffffffffffffff\n      and\n      dup2\n      mstore\n      0x20\n      add\n      swap1\n      dup2\n      mstore\n      0x20\n      add\n      0x00\n      keccak256\n        /* \".deps/studying-solidity/InheritanceContract.sol\":4282:4313  testators[ownInheritance].exist */\n      0x01\n      add\n      0x00\n      swap1\n      sload\n      swap1\n      0x0100\n      exp\n      swap1\n      div\n      0xff\n      and\n        /* \".deps/studying-solidity/InheritanceContract.sol\":4274:4343  require(testators[ownInheritance].exist, \"testamento nao encontrado\") */\n      tag_108\n      jumpi\n      mload(0x40)\n      0x08c379a000000000000000000000000000000000000000000000000000000000\n      dup2\n      mstore\n      0x04\n      add\n      tag_109\n      swap1\n      tag_110\n      jump\t// in\n    tag_109:\n      mload(0x40)\n      dup1\n      swap2\n      sub\n      swap1\n      revert\n    tag_108:\n        /* \".deps/studying-solidity/InheritanceContract.sol\":4354:4379  Testator memory _testator */\n      0x00\n        /* \".deps/studying-solidity/InheritanceContract.sol\":4382:4391  testators */\n      dup1\n        /* \".deps/studying-solidity/InheritanceContract.sol\":4382:4407  testators[ownInheritance] */\n      0x00\n        /* \".deps/studying-solidity/InheritanceContract.sol\":4392:4406  ownInheritance */\n      dup4\n        /* \".deps/studying-solidity/InheritanceContract.sol\":4382:4407  testators[ownInheritance] */\n      0xffffffffffffffffffffffffffffffffffffffff\n      and\n      0xffffffffffffffffffffffffffffffffffffffff\n      and\n      dup2\n      mstore\n      0x20\n      add\n      swap1\n      dup2\n      mstore\n      0x20\n      add\n      0x00\n      keccak256\n        /* \".deps/studying-solidity/InheritanceContract.sol\":4354:4407  Testator memory _testator = testators[ownInheritance] */\n      mload(0x40)\n      dup1\n      0x80\n      add\n      0x40\n      mstore\n      swap1\n      dup2\n      0x00\n      dup3\n      add\n      dup1\n      sload\n      dup1\n      0x20\n      mul\n      0x20\n      add\n      mload(0x40)\n      swap1\n      dup2\n      add\n      0x40\n      mstore\n      dup1\n      swap3\n      swap2\n      swap1\n      dup2\n      dup2\n      mstore\n      0x20\n      add\n      0x00\n      swap1\n    tag_111:\n      dup3\n      dup3\n      lt\n      iszero\n      tag_112\n      jumpi\n      dup4\n      dup3\n      swap1\n      0x00\n      mstore\n      keccak256(0x00, 0x20)\n      add\n      mload(0x40)\n      dup1\n      0x40\n      add\n      0x40\n      mstore\n      swap1\n      dup2\n      0x00\n      dup3\n      add\n      0x00\n      swap1\n      sload\n      swap1\n      0x0100\n      exp\n      swap1\n      div\n      0xffffffffffffffffffffffffffffffffffffffff\n      and\n      0xffffffffffffffffffffffffffffffffffffffff\n      and\n      0xffffffffffffffffffffffffffffffffffffffff\n      and\n      dup2\n      mstore\n      0x20\n      add\n      0x00\n      dup3\n      add\n      0x14\n      swap1\n      sload\n      swap1\n      0x0100\n      exp\n      swap1\n      div\n      0xffffffffffffffff\n      and\n      0xffffffffffffffff\n      and\n      0xffffffffffffffff\n      and\n      dup2\n      mstore\n      pop\n      pop\n      dup2\n      mstore\n      0x20\n      add\n      swap1\n      0x01\n      add\n      swap1\n      jump(tag_111)\n    tag_112:\n      pop\n      pop\n      pop\n      pop\n      dup2\n      mstore\n      0x20\n      add\n      0x01\n      dup3\n      add\n      0x00\n      swap1\n      sload\n      swap1\n      0x0100\n      exp\n      swap1\n      div\n      0xff\n      and\n      iszero\n      iszero\n      iszero\n      iszero\n      dup2\n      mstore\n      0x20\n      add\n      0x01\n      dup3\n      add\n      0x01\n      swap1\n      sload\n      swap1\n      0x0100\n      exp\n      swap1\n      div\n      0xffffffffffffffffffffffffffffffff\n      and\n      0xffffffffffffffffffffffffffffffff\n      and\n      0xffffffffffffffffffffffffffffffff\n      and\n      dup2\n      mstore\n      0x20\n      add\n      0x02\n      dup3\n      add\n      sload\n      dup2\n      mstore\n      pop\n      pop\n      swap1\n      pop\n        /* \".deps/studying-solidity/InheritanceContract.sol\":4423:4432  uint256 i */\n      0x00\n        /* \".deps/studying-solidity/InheritanceContract.sol\":4418:4998  for (uint256 i = 0; _testator.inheritors.length >= i; i++) {... */\n    tag_114:\n        /* \".deps/studying-solidity/InheritanceContract.sol\":4469:4470  i */\n      dup1\n        /* \".deps/studying-solidity/InheritanceContract.sol\":4438:4447  _testator */\n      dup3\n        /* \".deps/studying-solidity/InheritanceContract.sol\":4438:4458  _testator.inheritors */\n      0x00\n      add\n      mload\n        /* \".deps/studying-solidity/InheritanceContract.sol\":4438:4465  _testator.inheritors.length */\n      mload\n        /* \".deps/studying-solidity/InheritanceContract.sol\":4438:4470  _testator.inheritors.length >= i */\n      lt\n        /* \".deps/studying-solidity/InheritanceContract.sol\":4418:4998  for (uint256 i = 0; _testator.inheritors.length >= i; i++) {... */\n      tag_115\n      jumpi\n        /* \".deps/studying-solidity/InheritanceContract.sol\":4509:4518  _testator */\n      dup2\n        /* \".deps/studying-solidity/InheritanceContract.sol\":4509:4529  _testator.inheritors */\n      0x00\n      add\n      mload\n        /* \".deps/studying-solidity/InheritanceContract.sol\":4530:4531  i */\n      dup2\n        /* \".deps/studying-solidity/InheritanceContract.sol\":4509:4532  _testator.inheritors[i] */\n      dup2\n      mload\n      dup2\n      lt\n      tag_117\n      jumpi\n      tag_118\n      tag_71\n      jump\t// in\n    tag_118:\n    tag_117:\n      0x20\n      mul\n      0x20\n      add\n      add\n      mload\n        /* \".deps/studying-solidity/InheritanceContract.sol\":4509:4549  _testator.inheritors[i].inheritorAddress */\n      0x00\n      add\n      mload\n        /* \".deps/studying-solidity/InheritanceContract.sol\":4495:4549  _inheritor == _testator.inheritors[i].inheritorAddress */\n      0xffffffffffffffffffffffffffffffffffffffff\n      and\n        /* \".deps/studying-solidity/InheritanceContract.sol\":4495:4505  _inheritor */\n      dup5\n        /* \".deps/studying-solidity/InheritanceContract.sol\":4495:4549  _inheritor == _testator.inheritors[i].inheritorAddress */\n      0xffffffffffffffffffffffffffffffffffffffff\n      and\n      sub\n        /* \".deps/studying-solidity/InheritanceContract.sol\":4491:4988  if (_inheritor == _testator.inheritors[i].inheritorAddress) {... */\n      tag_119\n      jumpi\n        /* \".deps/studying-solidity/InheritanceContract.sol\":4569:4584  uint256 _amount */\n      0x00\n        /* \".deps/studying-solidity/InheritanceContract.sol\":4644:4653  _testator */\n      dup3\n        /* \".deps/studying-solidity/InheritanceContract.sol\":4644:4665  _testator.totalAmount */\n      0x60\n      add\n      mload\n        /* \".deps/studying-solidity/InheritanceContract.sol\":4587:4596  _testator */\n      dup4\n        /* \".deps/studying-solidity/InheritanceContract.sol\":4587:4607  _testator.inheritors */\n      0x00\n      add\n      mload\n        /* \".deps/studying-solidity/InheritanceContract.sol\":4608:4609  i */\n      dup4\n        /* \".deps/studying-solidity/InheritanceContract.sol\":4587:4610  _testator.inheritors[i] */\n      dup2\n      mload\n      dup2\n      lt\n      tag_120\n      jumpi\n      tag_121\n      tag_71\n      jump\t// in\n    tag_121:\n    tag_120:\n      0x20\n      mul\n      0x20\n      add\n      add\n      mload\n        /* \".deps/studying-solidity/InheritanceContract.sol\":4587:4621  _testator.inheritors[i].percentage */\n      0x20\n      add\n      mload\n        /* \".deps/studying-solidity/InheritanceContract.sol\":4587:4665  _testator.inheritors[i].percentage *... */\n      0xffffffffffffffff\n      and\n      tag_122\n      swap2\n      swap1\n      tag_123\n      jump\t// in\n    tag_122:\n        /* \".deps/studying-solidity/InheritanceContract.sol\":4569:4665  uint256 _amount = _testator.inheritors[i].percentage *... */\n      swap1\n      pop\n        /* \".deps/studying-solidity/InheritanceContract.sol\":4944:4954  msg.sender */\n      caller\n        /* \".deps/studying-solidity/InheritanceContract.sol\":4936:4964  payable(msg.sender).transfer */\n      0xffffffffffffffffffffffffffffffffffffffff\n      and\n        /* \".deps/studying-solidity/InheritanceContract.sol\":4936:4973  payable(msg.sender).transfer(_amount) */\n      0x08fc\n        /* \".deps/studying-solidity/InheritanceContract.sol\":4965:4972  _amount */\n      dup3\n        /* \".deps/studying-solidity/InheritanceContract.sol\":4936:4973  payable(msg.sender).transfer(_amount) */\n      swap1\n      dup2\n      iszero\n      mul\n      swap1\n      mload(0x40)\n      0x00\n      mload(0x40)\n      dup1\n      dup4\n      sub\n      dup2\n      dup6\n      dup9\n      dup9\n      call\n      swap4\n      pop\n      pop\n      pop\n      pop\n      iszero\n      dup1\n      iszero\n      tag_125\n      jumpi\n      returndatasize\n      0x00\n      dup1\n      returndatacopy\n      revert(0x00, returndatasize)\n    tag_125:\n      pop\n        /* \".deps/studying-solidity/InheritanceContract.sol\":4551:4988  {... */\n      pop\n        /* \".deps/studying-solidity/InheritanceContract.sol\":4491:4988  if (_inheritor == _testator.inheritors[i].inheritorAddress) {... */\n    tag_119:\n        /* \".deps/studying-solidity/InheritanceContract.sol\":4472:4475  i++ */\n      dup1\n      dup1\n      tag_126\n      swap1\n      tag_127\n      jump\t// in\n    tag_126:\n      swap2\n      pop\n      pop\n        /* \".deps/studying-solidity/InheritanceContract.sol\":4418:4998  for (uint256 i = 0; _testator.inheritors.length >= i; i++) {... */\n      jump(tag_114)\n    tag_115:\n      pop\n        /* \".deps/studying-solidity/InheritanceContract.sol\":4027:5004  {... */\n      pop\n      pop\n      pop\n        /* \".deps/studying-solidity/InheritanceContract.sol\":3996:5004  function withdrawal() external {... */\n      jump\t// out\n    tag_51:\n      pop\n      dup1\n      sload\n      0x00\n      dup3\n      sstore\n      swap1\n      0x00\n      mstore\n      keccak256(0x00, 0x20)\n      swap1\n      dup2\n      add\n      swap1\n      tag_129\n      swap2\n      swap1\n      tag_130\n      jump\t// in\n    tag_129:\n      pop\n      jump\t// out\n    tag_130:\n    tag_131:\n      dup1\n      dup3\n      gt\n      iszero\n      tag_132\n      jumpi\n      0x00\n      dup1\n      dup3\n      add\n      exp(0x0100, 0x00)\n      dup2\n      sload\n      swap1\n      0xffffffffffffffffffffffffffffffffffffffff\n      mul\n      not\n      and\n      swap1\n      sstore\n      0x00\n      dup3\n      add\n      exp(0x0100, 0x14)\n      dup2\n      sload\n      swap1\n      0xffffffffffffffff\n      mul\n      not\n      and\n      swap1\n      sstore\n      pop\n      0x01\n      add\n      jump(tag_131)\n    tag_132:\n      pop\n      swap1\n      jump\t// out\n        /* \"#utility.yul\":7:121   */\n    tag_133:\n        /* \"#utility.yul\":74:80   */\n      0x00\n        /* \"#utility.yul\":108:113   */\n      dup2\n        /* \"#utility.yul\":102:114   */\n      mload\n        /* \"#utility.yul\":92:114   */\n      swap1\n      pop\n        /* \"#utility.yul\":7:121   */\n      swap2\n      swap1\n      pop\n      jump\t// out\n        /* \"#utility.yul\":127:311   */\n    tag_134:\n        /* \"#utility.yul\":226:237   */\n      0x00\n        /* \"#utility.yul\":260:266   */\n      dup3\n        /* \"#utility.yul\":255:258   */\n      dup3\n        /* \"#utility.yul\":248:267   */\n      mstore\n        /* \"#utility.yul\":300:304   */\n      0x20\n        /* \"#utility.yul\":295:298   */\n      dup3\n        /* \"#utility.yul\":291:305   */\n      add\n        /* \"#utility.yul\":276:305   */\n      swap1\n      pop\n        /* \"#utility.yul\":127:311   */\n      swap3\n      swap2\n      pop\n      pop\n      jump\t// out\n        /* \"#utility.yul\":317:449   */\n    tag_135:\n        /* \"#utility.yul\":384:388   */\n      0x00\n        /* \"#utility.yul\":407:410   */\n      dup2\n        /* \"#utility.yul\":399:410   */\n      swap1\n      pop\n        /* \"#utility.yul\":437:441   */\n      0x20\n        /* \"#utility.yul\":432:435   */\n      dup3\n        /* \"#utility.yul\":428:442   */\n      add\n        /* \"#utility.yul\":420:442   */\n      swap1\n      pop\n        /* \"#utility.yul\":317:449   */\n      swap2\n      swap1\n      pop\n      jump\t// out\n        /* \"#utility.yul\":455:581   */\n    tag_136:\n        /* \"#utility.yul\":492:499   */\n      0x00\n        /* \"#utility.yul\":532:574   */\n      0xffffffffffffffffffffffffffffffffffffffff\n        /* \"#utility.yul\":525:530   */\n      dup3\n        /* \"#utility.yul\":521:575   */\n      and\n        /* \"#utility.yul\":510:575   */\n      swap1\n      pop\n        /* \"#utility.yul\":455:581   */\n      swap2\n      swap1\n      pop\n      jump\t// out\n        /* \"#utility.yul\":587:683   */\n    tag_137:\n        /* \"#utility.yul\":624:631   */\n      0x00\n        /* \"#utility.yul\":653:677   */\n      tag_203\n        /* \"#utility.yul\":671:676   */\n      dup3\n        /* \"#utility.yul\":653:677   */\n      tag_136\n      jump\t// in\n    tag_203:\n        /* \"#utility.yul\":642:677   */\n      swap1\n      pop\n        /* \"#utility.yul\":587:683   */\n      swap2\n      swap1\n      pop\n      jump\t// out\n        /* \"#utility.yul\":689:797   */\n    tag_138:\n        /* \"#utility.yul\":766:790   */\n      tag_205\n        /* \"#utility.yul\":784:789   */\n      dup2\n        /* \"#utility.yul\":766:790   */\n      tag_137\n      jump\t// in\n    tag_205:\n        /* \"#utility.yul\":761:764   */\n      dup3\n        /* \"#utility.yul\":754:791   */\n      mstore\n        /* \"#utility.yul\":689:797   */\n      pop\n      pop\n      jump\t// out\n        /* \"#utility.yul\":803:982   */\n    tag_139:\n        /* \"#utility.yul\":872:882   */\n      0x00\n        /* \"#utility.yul\":893:939   */\n      tag_207\n        /* \"#utility.yul\":935:938   */\n      dup4\n        /* \"#utility.yul\":927:933   */\n      dup4\n        /* \"#utility.yul\":893:939   */\n      tag_138\n      jump\t// in\n    tag_207:\n        /* \"#utility.yul\":971:975   */\n      0x20\n        /* \"#utility.yul\":966:969   */\n      dup4\n        /* \"#utility.yul\":962:976   */\n      add\n        /* \"#utility.yul\":948:976   */\n      swap1\n      pop\n        /* \"#utility.yul\":803:982   */\n      swap3\n      swap2\n      pop\n      pop\n      jump\t// out\n        /* \"#utility.yul\":988:1101   */\n    tag_140:\n        /* \"#utility.yul\":1058:1062   */\n      0x00\n        /* \"#utility.yul\":1090:1094   */\n      0x20\n        /* \"#utility.yul\":1085:1088   */\n      dup3\n        /* \"#utility.yul\":1081:1095   */\n      add\n        /* \"#utility.yul\":1073:1095   */\n      swap1\n      pop\n        /* \"#utility.yul\":988:1101   */\n      swap2\n      swap1\n      pop\n      jump\t// out\n        /* \"#utility.yul\":1137:1869   */\n    tag_141:\n        /* \"#utility.yul\":1256:1259   */\n      0x00\n        /* \"#utility.yul\":1285:1339   */\n      tag_210\n        /* \"#utility.yul\":1333:1338   */\n      dup3\n        /* \"#utility.yul\":1285:1339   */\n      tag_133\n      jump\t// in\n    tag_210:\n        /* \"#utility.yul\":1355:1441   */\n      tag_211\n        /* \"#utility.yul\":1434:1440   */\n      dup2\n        /* \"#utility.yul\":1429:1432   */\n      dup6\n        /* \"#utility.yul\":1355:1441   */\n      tag_134\n      jump\t// in\n    tag_211:\n        /* \"#utility.yul\":1348:1441   */\n      swap4\n      pop\n        /* \"#utility.yul\":1465:1521   */\n      tag_212\n        /* \"#utility.yul\":1515:1520   */\n      dup4\n        /* \"#utility.yul\":1465:1521   */\n      tag_135\n      jump\t// in\n    tag_212:\n        /* \"#utility.yul\":1544:1551   */\n      dup1\n        /* \"#utility.yul\":1575:1576   */\n      0x00\n        /* \"#utility.yul\":1560:1844   */\n    tag_213:\n        /* \"#utility.yul\":1585:1591   */\n      dup4\n        /* \"#utility.yul\":1582:1583   */\n      dup2\n        /* \"#utility.yul\":1579:1592   */\n      lt\n        /* \"#utility.yul\":1560:1844   */\n      iszero\n      tag_215\n      jumpi\n        /* \"#utility.yul\":1661:1667   */\n      dup2\n        /* \"#utility.yul\":1655:1668   */\n      mload\n        /* \"#utility.yul\":1688:1751   */\n      tag_216\n        /* \"#utility.yul\":1747:1750   */\n      dup9\n        /* \"#utility.yul\":1732:1745   */\n      dup3\n        /* \"#utility.yul\":1688:1751   */\n      tag_139\n      jump\t// in\n    tag_216:\n        /* \"#utility.yul\":1681:1751   */\n      swap8\n      pop\n        /* \"#utility.yul\":1774:1834   */\n      tag_217\n        /* \"#utility.yul\":1827:1833   */\n      dup4\n        /* \"#utility.yul\":1774:1834   */\n      tag_140\n      jump\t// in\n    tag_217:\n        /* \"#utility.yul\":1764:1834   */\n      swap3\n      pop\n        /* \"#utility.yul\":1620:1844   */\n      pop\n        /* \"#utility.yul\":1607:1608   */\n      0x01\n        /* \"#utility.yul\":1604:1605   */\n      dup2\n        /* \"#utility.yul\":1600:1609   */\n      add\n        /* \"#utility.yul\":1595:1609   */\n      swap1\n      pop\n        /* \"#utility.yul\":1560:1844   */\n      jump(tag_213)\n    tag_215:\n        /* \"#utility.yul\":1564:1578   */\n      pop\n        /* \"#utility.yul\":1860:1863   */\n      dup6\n        /* \"#utility.yul\":1853:1863   */\n      swap4\n      pop\n        /* \"#utility.yul\":1261:1869   */\n      pop\n      pop\n      pop\n        /* \"#utility.yul\":1137:1869   */\n      swap3\n      swap2\n      pop\n      pop\n      jump\t// out\n        /* \"#utility.yul\":1875:1988   */\n    tag_142:\n        /* \"#utility.yul\":1941:1947   */\n      0x00\n        /* \"#utility.yul\":1975:1980   */\n      dup2\n        /* \"#utility.yul\":1969:1981   */\n      mload\n        /* \"#utility.yul\":1959:1981   */\n      swap1\n      pop\n        /* \"#utility.yul\":1875:1988   */\n      swap2\n      swap1\n      pop\n      jump\t// out\n        /* \"#utility.yul\":1994:2177   */\n    tag_143:\n        /* \"#utility.yul\":2092:2103   */\n      0x00\n        /* \"#utility.yul\":2126:2132   */\n      dup3\n        /* \"#utility.yul\":2121:2124   */\n      dup3\n        /* \"#utility.yul\":2114:2133   */\n      mstore\n        /* \"#utility.yul\":2166:2170   */\n      0x20\n        /* \"#utility.yul\":2161:2164   */\n      dup3\n        /* \"#utility.yul\":2157:2171   */\n      add\n        /* \"#utility.yul\":2142:2171   */\n      swap1\n      pop\n        /* \"#utility.yul\":1994:2177   */\n      swap3\n      swap2\n      pop\n      pop\n      jump\t// out\n        /* \"#utility.yul\":2183:2314   */\n    tag_144:\n        /* \"#utility.yul\":2249:2253   */\n      0x00\n        /* \"#utility.yul\":2272:2275   */\n      dup2\n        /* \"#utility.yul\":2264:2275   */\n      swap1\n      pop\n        /* \"#utility.yul\":2302:2306   */\n      0x20\n        /* \"#utility.yul\":2297:2300   */\n      dup3\n        /* \"#utility.yul\":2293:2307   */\n      add\n        /* \"#utility.yul\":2285:2307   */\n      swap1\n      pop\n        /* \"#utility.yul\":2183:2314   */\n      swap2\n      swap1\n      pop\n      jump\t// out\n        /* \"#utility.yul\":2320:2421   */\n    tag_145:\n        /* \"#utility.yul\":2356:2363   */\n      0x00\n        /* \"#utility.yul\":2396:2414   */\n      0xffffffffffffffff\n        /* \"#utility.yul\":2389:2394   */\n      dup3\n        /* \"#utility.yul\":2385:2415   */\n      and\n        /* \"#utility.yul\":2374:2415   */\n      swap1\n      pop\n        /* \"#utility.yul\":2320:2421   */\n      swap2\n      swap1\n      pop\n      jump\t// out\n        /* \"#utility.yul\":2427:2532   */\n    tag_146:\n        /* \"#utility.yul\":2502:2525   */\n      tag_223\n        /* \"#utility.yul\":2519:2524   */\n      dup2\n        /* \"#utility.yul\":2502:2525   */\n      tag_145\n      jump\t// in\n    tag_223:\n        /* \"#utility.yul\":2497:2500   */\n      dup3\n        /* \"#utility.yul\":2490:2526   */\n      mstore\n        /* \"#utility.yul\":2427:2532   */\n      pop\n      pop\n      jump\t// out\n        /* \"#utility.yul\":2538:2713   */\n    tag_147:\n        /* \"#utility.yul\":2605:2615   */\n      0x00\n        /* \"#utility.yul\":2626:2670   */\n      tag_225\n        /* \"#utility.yul\":2666:2669   */\n      dup4\n        /* \"#utility.yul\":2658:2664   */\n      dup4\n        /* \"#utility.yul\":2626:2670   */\n      tag_146\n      jump\t// in\n    tag_225:\n        /* \"#utility.yul\":2702:2706   */\n      0x20\n        /* \"#utility.yul\":2697:2700   */\n      dup4\n        /* \"#utility.yul\":2693:2707   */\n      add\n        /* \"#utility.yul\":2679:2707   */\n      swap1\n      pop\n        /* \"#utility.yul\":2538:2713   */\n      swap3\n      swap2\n      pop\n      pop\n      jump\t// out\n        /* \"#utility.yul\":2719:2831   */\n    tag_148:\n        /* \"#utility.yul\":2788:2792   */\n      0x00\n        /* \"#utility.yul\":2820:2824   */\n      0x20\n        /* \"#utility.yul\":2815:2818   */\n      dup3\n        /* \"#utility.yul\":2811:2825   */\n      add\n        /* \"#utility.yul\":2803:2825   */\n      swap1\n      pop\n        /* \"#utility.yul\":2719:2831   */\n      swap2\n      swap1\n      pop\n      jump\t// out\n        /* \"#utility.yul\":2865:3589   */\n    tag_149:\n        /* \"#utility.yul\":2982:2985   */\n      0x00\n        /* \"#utility.yul\":3011:3064   */\n      tag_228\n        /* \"#utility.yul\":3058:3063   */\n      dup3\n        /* \"#utility.yul\":3011:3064   */\n      tag_142\n      jump\t// in\n    tag_228:\n        /* \"#utility.yul\":3080:3165   */\n      tag_229\n        /* \"#utility.yul\":3158:3164   */\n      dup2\n        /* \"#utility.yul\":3153:3156   */\n      dup6\n        /* \"#utility.yul\":3080:3165   */\n      tag_143\n      jump\t// in\n    tag_229:\n        /* \"#utility.yul\":3073:3165   */\n      swap4\n      pop\n        /* \"#utility.yul\":3189:3244   */\n      tag_230\n        /* \"#utility.yul\":3238:3243   */\n      dup4\n        /* \"#utility.yul\":3189:3244   */\n      tag_144\n      jump\t// in\n    tag_230:\n        /* \"#utility.yul\":3267:3274   */\n      dup1\n        /* \"#utility.yul\":3298:3299   */\n      0x00\n        /* \"#utility.yul\":3283:3564   */\n    tag_231:\n        /* \"#utility.yul\":3308:3314   */\n      dup4\n        /* \"#utility.yul\":3305:3306   */\n      dup2\n        /* \"#utility.yul\":3302:3315   */\n      lt\n        /* \"#utility.yul\":3283:3564   */\n      iszero\n      tag_233\n      jumpi\n        /* \"#utility.yul\":3384:3390   */\n      dup2\n        /* \"#utility.yul\":3378:3391   */\n      mload\n        /* \"#utility.yul\":3411:3472   */\n      tag_234\n        /* \"#utility.yul\":3468:3471   */\n      dup9\n        /* \"#utility.yul\":3453:3466   */\n      dup3\n        /* \"#utility.yul\":3411:3472   */\n      tag_147\n      jump\t// in\n    tag_234:\n        /* \"#utility.yul\":3404:3472   */\n      swap8\n      pop\n        /* \"#utility.yul\":3495:3554   */\n      tag_235\n        /* \"#utility.yul\":3547:3553   */\n      dup4\n        /* \"#utility.yul\":3495:3554   */\n      tag_148\n      jump\t// in\n    tag_235:\n        /* \"#utility.yul\":3485:3554   */\n      swap3\n      pop\n        /* \"#utility.yul\":3343:3564   */\n      pop\n        /* \"#utility.yul\":3330:3331   */\n      0x01\n        /* \"#utility.yul\":3327:3328   */\n      dup2\n        /* \"#utility.yul\":3323:3332   */\n      add\n        /* \"#utility.yul\":3318:3332   */\n      swap1\n      pop\n        /* \"#utility.yul\":3283:3564   */\n      jump(tag_231)\n    tag_233:\n        /* \"#utility.yul\":3287:3301   */\n      pop\n        /* \"#utility.yul\":3580:3583   */\n      dup6\n        /* \"#utility.yul\":3573:3583   */\n      swap4\n      pop\n        /* \"#utility.yul\":2987:3589   */\n      pop\n      pop\n      pop\n        /* \"#utility.yul\":2865:3589   */\n      swap3\n      swap2\n      pop\n      pop\n      jump\t// out\n        /* \"#utility.yul\":3595:3713   */\n    tag_150:\n        /* \"#utility.yul\":3632:3639   */\n      0x00\n        /* \"#utility.yul\":3672:3706   */\n      0xffffffffffffffffffffffffffffffff\n        /* \"#utility.yul\":3665:3670   */\n      dup3\n        /* \"#utility.yul\":3661:3707   */\n      and\n        /* \"#utility.yul\":3650:3707   */\n      swap1\n      pop\n        /* \"#utility.yul\":3595:3713   */\n      swap2\n      swap1\n      pop\n      jump\t// out\n        /* \"#utility.yul\":3719:3837   */\n    tag_151:\n        /* \"#utility.yul\":3806:3830   */\n      tag_238\n        /* \"#utility.yul\":3824:3829   */\n      dup2\n        /* \"#utility.yul\":3806:3830   */\n      tag_150\n      jump\t// in\n    tag_238:\n        /* \"#utility.yul\":3801:3804   */\n      dup3\n        /* \"#utility.yul\":3794:3831   */\n      mstore\n        /* \"#utility.yul\":3719:3837   */\n      pop\n      pop\n      jump\t// out\n        /* \"#utility.yul\":3843:3920   */\n    tag_152:\n        /* \"#utility.yul\":3880:3887   */\n      0x00\n        /* \"#utility.yul\":3909:3914   */\n      dup2\n        /* \"#utility.yul\":3898:3914   */\n      swap1\n      pop\n        /* \"#utility.yul\":3843:3920   */\n      swap2\n      swap1\n      pop\n      jump\t// out\n        /* \"#utility.yul\":3926:4044   */\n    tag_153:\n        /* \"#utility.yul\":4013:4037   */\n      tag_241\n        /* \"#utility.yul\":4031:4036   */\n      dup2\n        /* \"#utility.yul\":4013:4037   */\n      tag_152\n      jump\t// in\n    tag_241:\n        /* \"#utility.yul\":4008:4011   */\n      dup3\n        /* \"#utility.yul\":4001:4038   */\n      mstore\n        /* \"#utility.yul\":3926:4044   */\n      pop\n      pop\n      jump\t// out\n        /* \"#utility.yul\":4050:4901   */\n    tag_17:\n        /* \"#utility.yul\":4325:4329   */\n      0x00\n        /* \"#utility.yul\":4363:4366   */\n      0x80\n        /* \"#utility.yul\":4352:4361   */\n      dup3\n        /* \"#utility.yul\":4348:4367   */\n      add\n        /* \"#utility.yul\":4340:4367   */\n      swap1\n      pop\n        /* \"#utility.yul\":4413:4422   */\n      dup2\n        /* \"#utility.yul\":4407:4411   */\n      dup2\n        /* \"#utility.yul\":4403:4423   */\n      sub\n        /* \"#utility.yul\":4399:4400   */\n      0x00\n        /* \"#utility.yul\":4388:4397   */\n      dup4\n        /* \"#utility.yul\":4384:4401   */\n      add\n        /* \"#utility.yul\":4377:4424   */\n      mstore\n        /* \"#utility.yul\":4441:4549   */\n      tag_243\n        /* \"#utility.yul\":4544:4548   */\n      dup2\n        /* \"#utility.yul\":4535:4541   */\n      dup8\n        /* \"#utility.yul\":4441:4549   */\n      tag_141\n      jump\t// in\n    tag_243:\n        /* \"#utility.yul\":4433:4549   */\n      swap1\n      pop\n        /* \"#utility.yul\":4596:4605   */\n      dup2\n        /* \"#utility.yul\":4590:4594   */\n      dup2\n        /* \"#utility.yul\":4586:4606   */\n      sub\n        /* \"#utility.yul\":4581:4583   */\n      0x20\n        /* \"#utility.yul\":4570:4579   */\n      dup4\n        /* \"#utility.yul\":4566:4584   */\n      add\n        /* \"#utility.yul\":4559:4607   */\n      mstore\n        /* \"#utility.yul\":4624:4730   */\n      tag_244\n        /* \"#utility.yul\":4725:4729   */\n      dup2\n        /* \"#utility.yul\":4716:4722   */\n      dup7\n        /* \"#utility.yul\":4624:4730   */\n      tag_149\n      jump\t// in\n    tag_244:\n        /* \"#utility.yul\":4616:4730   */\n      swap1\n      pop\n        /* \"#utility.yul\":4740:4812   */\n      tag_245\n        /* \"#utility.yul\":4808:4810   */\n      0x40\n        /* \"#utility.yul\":4797:4806   */\n      dup4\n        /* \"#utility.yul\":4793:4811   */\n      add\n        /* \"#utility.yul\":4784:4790   */\n      dup6\n        /* \"#utility.yul\":4740:4812   */\n      tag_151\n      jump\t// in\n    tag_245:\n        /* \"#utility.yul\":4822:4894   */\n      tag_246\n        /* \"#utility.yul\":4890:4892   */\n      0x60\n        /* \"#utility.yul\":4879:4888   */\n      dup4\n        /* \"#utility.yul\":4875:4893   */\n      add\n        /* \"#utility.yul\":4866:4872   */\n      dup5\n        /* \"#utility.yul\":4822:4894   */\n      tag_153\n      jump\t// in\n    tag_246:\n        /* \"#utility.yul\":4050:4901   */\n      swap6\n      swap5\n      pop\n      pop\n      pop\n      pop\n      pop\n      jump\t// out\n        /* \"#utility.yul\":4907:4982   */\n    tag_154:\n        /* \"#utility.yul\":4940:4946   */\n      0x00\n        /* \"#utility.yul\":4973:4975   */\n      0x40\n        /* \"#utility.yul\":4967:4976   */\n      mload\n        /* \"#utility.yul\":4957:4976   */\n      swap1\n      pop\n        /* \"#utility.yul\":4907:4982   */\n      swap1\n      jump\t// out\n        /* \"#utility.yul\":4988:5105   */\n    tag_155:\n        /* \"#utility.yul\":5097:5098   */\n      0x00\n        /* \"#utility.yul\":5094:5095   */\n      dup1\n        /* \"#utility.yul\":5087:5099   */\n      revert\n        /* \"#utility.yul\":5111:5228   */\n    tag_156:\n        /* \"#utility.yul\":5220:5221   */\n      0x00\n        /* \"#utility.yul\":5217:5218   */\n      dup1\n        /* \"#utility.yul\":5210:5222   */\n      revert\n        /* \"#utility.yul\":5234:5356   */\n    tag_157:\n        /* \"#utility.yul\":5307:5331   */\n      tag_251\n        /* \"#utility.yul\":5325:5330   */\n      dup2\n        /* \"#utility.yul\":5307:5331   */\n      tag_137\n      jump\t// in\n    tag_251:\n        /* \"#utility.yul\":5300:5305   */\n      dup2\n        /* \"#utility.yul\":5297:5332   */\n      eq\n        /* \"#utility.yul\":5287:5350   */\n      tag_252\n      jumpi\n        /* \"#utility.yul\":5346:5347   */\n      0x00\n        /* \"#utility.yul\":5343:5344   */\n      dup1\n        /* \"#utility.yul\":5336:5348   */\n      revert\n        /* \"#utility.yul\":5287:5350   */\n    tag_252:\n        /* \"#utility.yul\":5234:5356   */\n      pop\n      jump\t// out\n        /* \"#utility.yul\":5362:5501   */\n    tag_158:\n        /* \"#utility.yul\":5408:5413   */\n      0x00\n        /* \"#utility.yul\":5446:5452   */\n      dup2\n        /* \"#utility.yul\":5433:5453   */\n      calldataload\n        /* \"#utility.yul\":5424:5453   */\n      swap1\n      pop\n        /* \"#utility.yul\":5462:5495   */\n      tag_254\n        /* \"#utility.yul\":5489:5494   */\n      dup2\n        /* \"#utility.yul\":5462:5495   */\n      tag_157\n      jump\t// in\n    tag_254:\n        /* \"#utility.yul\":5362:5501   */\n      swap3\n      swap2\n      pop\n      pop\n      jump\t// out\n        /* \"#utility.yul\":5507:5836   */\n    tag_21:\n        /* \"#utility.yul\":5566:5572   */\n      0x00\n        /* \"#utility.yul\":5615:5617   */\n      0x20\n        /* \"#utility.yul\":5603:5612   */\n      dup3\n        /* \"#utility.yul\":5594:5601   */\n      dup5\n        /* \"#utility.yul\":5590:5613   */\n      sub\n        /* \"#utility.yul\":5586:5618   */\n      slt\n        /* \"#utility.yul\":5583:5702   */\n      iszero\n      tag_256\n      jumpi\n        /* \"#utility.yul\":5621:5700   */\n      tag_257\n      tag_155\n      jump\t// in\n    tag_257:\n        /* \"#utility.yul\":5583:5702   */\n    tag_256:\n        /* \"#utility.yul\":5741:5742   */\n      0x00\n        /* \"#utility.yul\":5766:5819   */\n      tag_258\n        /* \"#utility.yul\":5811:5818   */\n      dup5\n        /* \"#utility.yul\":5802:5808   */\n      dup3\n        /* \"#utility.yul\":5791:5800   */\n      dup6\n        /* \"#utility.yul\":5787:5809   */\n      add\n        /* \"#utility.yul\":5766:5819   */\n      tag_158\n      jump\t// in\n    tag_258:\n        /* \"#utility.yul\":5756:5819   */\n      swap2\n      pop\n        /* \"#utility.yul\":5712:5829   */\n      pop\n        /* \"#utility.yul\":5507:5836   */\n      swap3\n      swap2\n      pop\n      pop\n      jump\t// out\n        /* \"#utility.yul\":5842:5960   */\n    tag_159:\n        /* \"#utility.yul\":5929:5953   */\n      tag_260\n        /* \"#utility.yul\":5947:5952   */\n      dup2\n        /* \"#utility.yul\":5929:5953   */\n      tag_137\n      jump\t// in\n    tag_260:\n        /* \"#utility.yul\":5924:5927   */\n      dup3\n        /* \"#utility.yul\":5917:5954   */\n      mstore\n        /* \"#utility.yul\":5842:5960   */\n      pop\n      pop\n      jump\t// out\n        /* \"#utility.yul\":5966:6188   */\n    tag_24:\n        /* \"#utility.yul\":6059:6063   */\n      0x00\n        /* \"#utility.yul\":6097:6099   */\n      0x20\n        /* \"#utility.yul\":6086:6095   */\n      dup3\n        /* \"#utility.yul\":6082:6100   */\n      add\n        /* \"#utility.yul\":6074:6100   */\n      swap1\n      pop\n        /* \"#utility.yul\":6110:6181   */\n      tag_262\n        /* \"#utility.yul\":6178:6179   */\n      0x00\n        /* \"#utility.yul\":6167:6176   */\n      dup4\n        /* \"#utility.yul\":6163:6180   */\n      add\n        /* \"#utility.yul\":6154:6160   */\n      dup5\n        /* \"#utility.yul\":6110:6181   */\n      tag_159\n      jump\t// in\n    tag_262:\n        /* \"#utility.yul\":5966:6188   */\n      swap3\n      swap2\n      pop\n      pop\n      jump\t// out\n        /* \"#utility.yul\":6194:6311   */\n    tag_160:\n        /* \"#utility.yul\":6303:6304   */\n      0x00\n        /* \"#utility.yul\":6300:6301   */\n      dup1\n        /* \"#utility.yul\":6293:6305   */\n      revert\n        /* \"#utility.yul\":6317:6419   */\n    tag_161:\n        /* \"#utility.yul\":6358:6364   */\n      0x00\n        /* \"#utility.yul\":6409:6411   */\n      0x1f\n        /* \"#utility.yul\":6405:6412   */\n      not\n        /* \"#utility.yul\":6400:6402   */\n      0x1f\n        /* \"#utility.yul\":6393:6398   */\n      dup4\n        /* \"#utility.yul\":6389:6403   */\n      add\n        /* \"#utility.yul\":6385:6413   */\n      and\n        /* \"#utility.yul\":6375:6413   */\n      swap1\n      pop\n        /* \"#utility.yul\":6317:6419   */\n      swap2\n      swap1\n      pop\n      jump\t// out\n        /* \"#utility.yul\":6425:6605   */\n    tag_61:\n        /* \"#utility.yul\":6473:6550   */\n      0x4e487b7100000000000000000000000000000000000000000000000000000000\n        /* \"#utility.yul\":6470:6471   */\n      0x00\n        /* \"#utility.yul\":6463:6551   */\n      mstore\n        /* \"#utility.yul\":6570:6574   */\n      0x41\n        /* \"#utility.yul\":6567:6568   */\n      0x04\n        /* \"#utility.yul\":6560:6575   */\n      mstore\n        /* \"#utility.yul\":6594:6598   */\n      0x24\n        /* \"#utility.yul\":6591:6592   */\n      0x00\n        /* \"#utility.yul\":6584:6599   */\n      revert\n        /* \"#utility.yul\":6611:6892   */\n    tag_162:\n        /* \"#utility.yul\":6694:6721   */\n      tag_267\n        /* \"#utility.yul\":6716:6720   */\n      dup3\n        /* \"#utility.yul\":6694:6721   */\n      tag_161\n      jump\t// in\n    tag_267:\n        /* \"#utility.yul\":6686:6692   */\n      dup2\n        /* \"#utility.yul\":6682:6722   */\n      add\n        /* \"#utility.yul\":6824:6830   */\n      dup2\n        /* \"#utility.yul\":6812:6822   */\n      dup2\n        /* \"#utility.yul\":6809:6831   */\n      lt\n        /* \"#utility.yul\":6788:6806   */\n      0xffffffffffffffff\n        /* \"#utility.yul\":6776:6786   */\n      dup3\n        /* \"#utility.yul\":6773:6807   */\n      gt\n        /* \"#utility.yul\":6770:6832   */\n      or\n        /* \"#utility.yul\":6767:6855   */\n      iszero\n      tag_268\n      jumpi\n        /* \"#utility.yul\":6835:6853   */\n      tag_269\n      tag_61\n      jump\t// in\n    tag_269:\n        /* \"#utility.yul\":6767:6855   */\n    tag_268:\n        /* \"#utility.yul\":6875:6885   */\n      dup1\n        /* \"#utility.yul\":6871:6873   */\n      0x40\n        /* \"#utility.yul\":6864:6886   */\n      mstore\n        /* \"#utility.yul\":6654:6892   */\n      pop\n        /* \"#utility.yul\":6611:6892   */\n      pop\n      pop\n      jump\t// out\n        /* \"#utility.yul\":6898:7027   */\n    tag_163:\n        /* \"#utility.yul\":6932:6938   */\n      0x00\n        /* \"#utility.yul\":6959:6979   */\n      tag_271\n      tag_154\n      jump\t// in\n    tag_271:\n        /* \"#utility.yul\":6949:6979   */\n      swap1\n      pop\n        /* \"#utility.yul\":6988:7021   */\n      tag_272\n        /* \"#utility.yul\":7016:7020   */\n      dup3\n        /* \"#utility.yul\":7008:7014   */\n      dup3\n        /* \"#utility.yul\":6988:7021   */\n      tag_162\n      jump\t// in\n    tag_272:\n        /* \"#utility.yul\":6898:7027   */\n      swap2\n      swap1\n      pop\n      jump\t// out\n        /* \"#utility.yul\":7033:7344   */\n    tag_164:\n        /* \"#utility.yul\":7110:7114   */\n      0x00\n        /* \"#utility.yul\":7200:7218   */\n      0xffffffffffffffff\n        /* \"#utility.yul\":7192:7198   */\n      dup3\n        /* \"#utility.yul\":7189:7219   */\n      gt\n        /* \"#utility.yul\":7186:7242   */\n      iszero\n      tag_274\n      jumpi\n        /* \"#utility.yul\":7222:7240   */\n      tag_275\n      tag_61\n      jump\t// in\n    tag_275:\n        /* \"#utility.yul\":7186:7242   */\n    tag_274:\n        /* \"#utility.yul\":7272:7276   */\n      0x20\n        /* \"#utility.yul\":7264:7270   */\n      dup3\n        /* \"#utility.yul\":7260:7277   */\n      mul\n        /* \"#utility.yul\":7252:7277   */\n      swap1\n      pop\n        /* \"#utility.yul\":7332:7336   */\n      0x20\n        /* \"#utility.yul\":7326:7330   */\n      dup2\n        /* \"#utility.yul\":7322:7337   */\n      add\n        /* \"#utility.yul\":7314:7337   */\n      swap1\n      pop\n        /* \"#utility.yul\":7033:7344   */\n      swap2\n      swap1\n      pop\n      jump\t// out\n        /* \"#utility.yul\":7350:7467   */\n    tag_165:\n        /* \"#utility.yul\":7459:7460   */\n      0x00\n        /* \"#utility.yul\":7456:7457   */\n      dup1\n        /* \"#utility.yul\":7449:7461   */\n      revert\n        /* \"#utility.yul\":7490:8200   */\n    tag_166:\n        /* \"#utility.yul\":7586:7591   */\n      0x00\n        /* \"#utility.yul\":7611:7692   */\n      tag_278\n        /* \"#utility.yul\":7627:7691   */\n      tag_279\n        /* \"#utility.yul\":7684:7690   */\n      dup5\n        /* \"#utility.yul\":7627:7691   */\n      tag_164\n      jump\t// in\n    tag_279:\n        /* \"#utility.yul\":7611:7692   */\n      tag_163\n      jump\t// in\n    tag_278:\n        /* \"#utility.yul\":7602:7692   */\n      swap1\n      pop\n        /* \"#utility.yul\":7712:7717   */\n      dup1\n        /* \"#utility.yul\":7741:7747   */\n      dup4\n        /* \"#utility.yul\":7734:7739   */\n      dup3\n        /* \"#utility.yul\":7727:7748   */\n      mstore\n        /* \"#utility.yul\":7775:7779   */\n      0x20\n        /* \"#utility.yul\":7768:7773   */\n      dup3\n        /* \"#utility.yul\":7764:7780   */\n      add\n        /* \"#utility.yul\":7757:7780   */\n      swap1\n      pop\n        /* \"#utility.yul\":7828:7832   */\n      0x20\n        /* \"#utility.yul\":7820:7826   */\n      dup5\n        /* \"#utility.yul\":7816:7833   */\n      mul\n        /* \"#utility.yul\":7808:7814   */\n      dup4\n        /* \"#utility.yul\":7804:7834   */\n      add\n        /* \"#utility.yul\":7857:7860   */\n      dup6\n        /* \"#utility.yul\":7849:7855   */\n      dup2\n        /* \"#utility.yul\":7846:7861   */\n      gt\n        /* \"#utility.yul\":7843:7965   */\n      iszero\n      tag_280\n      jumpi\n        /* \"#utility.yul\":7876:7955   */\n      tag_281\n      tag_165\n      jump\t// in\n    tag_281:\n        /* \"#utility.yul\":7843:7965   */\n    tag_280:\n        /* \"#utility.yul\":7991:7997   */\n      dup4\n        /* \"#utility.yul\":7974:8194   */\n    tag_282:\n        /* \"#utility.yul\":8008:8014   */\n      dup2\n        /* \"#utility.yul\":8003:8006   */\n      dup2\n        /* \"#utility.yul\":8000:8015   */\n      lt\n        /* \"#utility.yul\":7974:8194   */\n      iszero\n      tag_284\n      jumpi\n        /* \"#utility.yul\":8083:8086   */\n      dup1\n        /* \"#utility.yul\":8112:8149   */\n      tag_285\n        /* \"#utility.yul\":8145:8148   */\n      dup9\n        /* \"#utility.yul\":8133:8143   */\n      dup3\n        /* \"#utility.yul\":8112:8149   */\n      tag_158\n      jump\t// in\n    tag_285:\n        /* \"#utility.yul\":8107:8110   */\n      dup5\n        /* \"#utility.yul\":8100:8150   */\n      mstore\n        /* \"#utility.yul\":8179:8183   */\n      0x20\n        /* \"#utility.yul\":8174:8177   */\n      dup5\n        /* \"#utility.yul\":8170:8184   */\n      add\n        /* \"#utility.yul\":8163:8184   */\n      swap4\n      pop\n        /* \"#utility.yul\":8050:8194   */\n      pop\n        /* \"#utility.yul\":8034:8038   */\n      0x20\n        /* \"#utility.yul\":8029:8032   */\n      dup2\n        /* \"#utility.yul\":8025:8039   */\n      add\n        /* \"#utility.yul\":8018:8039   */\n      swap1\n      pop\n        /* \"#utility.yul\":7974:8194   */\n      jump(tag_282)\n    tag_284:\n        /* \"#utility.yul\":7978:7999   */\n      pop\n        /* \"#utility.yul\":7592:8200   */\n      pop\n      pop\n        /* \"#utility.yul\":7490:8200   */\n      swap4\n      swap3\n      pop\n      pop\n      pop\n      jump\t// out\n        /* \"#utility.yul\":8223:8593   */\n    tag_167:\n        /* \"#utility.yul\":8294:8299   */\n      0x00\n        /* \"#utility.yul\":8343:8346   */\n      dup3\n        /* \"#utility.yul\":8336:8340   */\n      0x1f\n        /* \"#utility.yul\":8328:8334   */\n      dup4\n        /* \"#utility.yul\":8324:8341   */\n      add\n        /* \"#utility.yul\":8320:8347   */\n      slt\n        /* \"#utility.yul\":8310:8432   */\n      tag_287\n      jumpi\n        /* \"#utility.yul\":8351:8430   */\n      tag_288\n      tag_160\n      jump\t// in\n    tag_288:\n        /* \"#utility.yul\":8310:8432   */\n    tag_287:\n        /* \"#utility.yul\":8468:8474   */\n      dup2\n        /* \"#utility.yul\":8455:8475   */\n      calldataload\n        /* \"#utility.yul\":8493:8587   */\n      tag_289\n        /* \"#utility.yul\":8583:8586   */\n      dup5\n        /* \"#utility.yul\":8575:8581   */\n      dup3\n        /* \"#utility.yul\":8568:8572   */\n      0x20\n        /* \"#utility.yul\":8560:8566   */\n      dup7\n        /* \"#utility.yul\":8556:8573   */\n      add\n        /* \"#utility.yul\":8493:8587   */\n      tag_166\n      jump\t// in\n    tag_289:\n        /* \"#utility.yul\":8484:8587   */\n      swap2\n      pop\n        /* \"#utility.yul\":8300:8593   */\n      pop\n        /* \"#utility.yul\":8223:8593   */\n      swap3\n      swap2\n      pop\n      pop\n      jump\t// out\n        /* \"#utility.yul\":8599:8908   */\n    tag_168:\n        /* \"#utility.yul\":8674:8678   */\n      0x00\n        /* \"#utility.yul\":8764:8782   */\n      0xffffffffffffffff\n        /* \"#utility.yul\":8756:8762   */\n      dup3\n        /* \"#utility.yul\":8753:8783   */\n      gt\n        /* \"#utility.yul\":8750:8806   */\n      iszero\n      tag_291\n      jumpi\n        /* \"#utility.yul\":8786:8804   */\n      tag_292\n      tag_61\n      jump\t// in\n    tag_292:\n        /* \"#utility.yul\":8750:8806   */\n    tag_291:\n        /* \"#utility.yul\":8836:8840   */\n      0x20\n        /* \"#utility.yul\":8828:8834   */\n      dup3\n        /* \"#utility.yul\":8824:8841   */\n      mul\n        /* \"#utility.yul\":8816:8841   */\n      swap1\n      pop\n        /* \"#utility.yul\":8896:8900   */\n      0x20\n        /* \"#utility.yul\":8890:8894   */\n      dup2\n        /* \"#utility.yul\":8886:8901   */\n      add\n        /* \"#utility.yul\":8878:8901   */\n      swap1\n      pop\n        /* \"#utility.yul\":8599:8908   */\n      swap2\n      swap1\n      pop\n      jump\t// out\n        /* \"#utility.yul\":8914:9000   */\n    tag_169:\n        /* \"#utility.yul\":8949:8956   */\n      0x00\n        /* \"#utility.yul\":8989:8993   */\n      0xff\n        /* \"#utility.yul\":8982:8987   */\n      dup3\n        /* \"#utility.yul\":8978:8994   */\n      and\n        /* \"#utility.yul\":8967:8994   */\n      swap1\n      pop\n        /* \"#utility.yul\":8914:9000   */\n      swap2\n      swap1\n      pop\n      jump\t// out\n        /* \"#utility.yul\":9006:9124   */\n    tag_170:\n        /* \"#utility.yul\":9077:9099   */\n      tag_295\n        /* \"#utility.yul\":9093:9098   */\n      dup2\n        /* \"#utility.yul\":9077:9099   */\n      tag_169\n      jump\t// in\n    tag_295:\n        /* \"#utility.yul\":9070:9075   */\n      dup2\n        /* \"#utility.yul\":9067:9100   */\n      eq\n        /* \"#utility.yul\":9057:9118   */\n      tag_296\n      jumpi\n        /* \"#utility.yul\":9114:9115   */\n      0x00\n        /* \"#utility.yul\":9111:9112   */\n      dup1\n        /* \"#utility.yul\":9104:9116   */\n      revert\n        /* \"#utility.yul\":9057:9118   */\n    tag_296:\n        /* \"#utility.yul\":9006:9124   */\n      pop\n      jump\t// out\n        /* \"#utility.yul\":9130:9265   */\n    tag_171:\n        /* \"#utility.yul\":9174:9179   */\n      0x00\n        /* \"#utility.yul\":9212:9218   */\n      dup2\n        /* \"#utility.yul\":9199:9219   */\n      calldataload\n        /* \"#utility.yul\":9190:9219   */\n      swap1\n      pop\n        /* \"#utility.yul\":9228:9259   */\n      tag_298\n        /* \"#utility.yul\":9253:9258   */\n      dup2\n        /* \"#utility.yul\":9228:9259   */\n      tag_170\n      jump\t// in\n    tag_298:\n        /* \"#utility.yul\":9130:9265   */\n      swap3\n      swap2\n      pop\n      pop\n      jump\t// out\n        /* \"#utility.yul\":9286:9990   */\n    tag_172:\n        /* \"#utility.yul\":9380:9385   */\n      0x00\n        /* \"#utility.yul\":9405:9484   */\n      tag_300\n        /* \"#utility.yul\":9421:9483   */\n      tag_301\n        /* \"#utility.yul\":9476:9482   */\n      dup5\n        /* \"#utility.yul\":9421:9483   */\n      tag_168\n      jump\t// in\n    tag_301:\n        /* \"#utility.yul\":9405:9484   */\n      tag_163\n      jump\t// in\n    tag_300:\n        /* \"#utility.yul\":9396:9484   */\n      swap1\n      pop\n        /* \"#utility.yul\":9504:9509   */\n      dup1\n        /* \"#utility.yul\":9533:9539   */\n      dup4\n        /* \"#utility.yul\":9526:9531   */\n      dup3\n        /* \"#utility.yul\":9519:9540   */\n      mstore\n        /* \"#utility.yul\":9567:9571   */\n      0x20\n        /* \"#utility.yul\":9560:9565   */\n      dup3\n        /* \"#utility.yul\":9556:9572   */\n      add\n        /* \"#utility.yul\":9549:9572   */\n      swap1\n      pop\n        /* \"#utility.yul\":9620:9624   */\n      0x20\n        /* \"#utility.yul\":9612:9618   */\n      dup5\n        /* \"#utility.yul\":9608:9625   */\n      mul\n        /* \"#utility.yul\":9600:9606   */\n      dup4\n        /* \"#utility.yul\":9596:9626   */\n      add\n        /* \"#utility.yul\":9649:9652   */\n      dup6\n        /* \"#utility.yul\":9641:9647   */\n      dup2\n        /* \"#utility.yul\":9638:9653   */\n      gt\n        /* \"#utility.yul\":9635:9757   */\n      iszero\n      tag_302\n      jumpi\n        /* \"#utility.yul\":9668:9747   */\n      tag_303\n      tag_165\n      jump\t// in\n    tag_303:\n        /* \"#utility.yul\":9635:9757   */\n    tag_302:\n        /* \"#utility.yul\":9783:9789   */\n      dup4\n        /* \"#utility.yul\":9766:9984   */\n    tag_304:\n        /* \"#utility.yul\":9800:9806   */\n      dup2\n        /* \"#utility.yul\":9795:9798   */\n      dup2\n        /* \"#utility.yul\":9792:9807   */\n      lt\n        /* \"#utility.yul\":9766:9984   */\n      iszero\n      tag_306\n      jumpi\n        /* \"#utility.yul\":9875:9878   */\n      dup1\n        /* \"#utility.yul\":9904:9939   */\n      tag_307\n        /* \"#utility.yul\":9935:9938   */\n      dup9\n        /* \"#utility.yul\":9923:9933   */\n      dup3\n        /* \"#utility.yul\":9904:9939   */\n      tag_171\n      jump\t// in\n    tag_307:\n        /* \"#utility.yul\":9899:9902   */\n      dup5\n        /* \"#utility.yul\":9892:9940   */\n      mstore\n        /* \"#utility.yul\":9969:9973   */\n      0x20\n        /* \"#utility.yul\":9964:9967   */\n      dup5\n        /* \"#utility.yul\":9960:9974   */\n      add\n        /* \"#utility.yul\":9953:9974   */\n      swap4\n      pop\n        /* \"#utility.yul\":9842:9984   */\n      pop\n        /* \"#utility.yul\":9826:9830   */\n      0x20\n        /* \"#utility.yul\":9821:9824   */\n      dup2\n        /* \"#utility.yul\":9817:9831   */\n      add\n        /* \"#utility.yul\":9810:9831   */\n      swap1\n      pop\n        /* \"#utility.yul\":9766:9984   */\n      jump(tag_304)\n    tag_306:\n        /* \"#utility.yul\":9770:9791   */\n      pop\n        /* \"#utility.yul\":9386:9990   */\n      pop\n      pop\n        /* \"#utility.yul\":9286:9990   */\n      swap4\n      swap3\n      pop\n      pop\n      pop\n      jump\t// out\n        /* \"#utility.yul\":10011:10377   */\n    tag_173:\n        /* \"#utility.yul\":10080:10085   */\n      0x00\n        /* \"#utility.yul\":10129:10132   */\n      dup3\n        /* \"#utility.yul\":10122:10126   */\n      0x1f\n        /* \"#utility.yul\":10114:10120   */\n      dup4\n        /* \"#utility.yul\":10110:10127   */\n      add\n        /* \"#utility.yul\":10106:10133   */\n      slt\n        /* \"#utility.yul\":10096:10218   */\n      tag_309\n      jumpi\n        /* \"#utility.yul\":10137:10216   */\n      tag_310\n      tag_160\n      jump\t// in\n    tag_310:\n        /* \"#utility.yul\":10096:10218   */\n    tag_309:\n        /* \"#utility.yul\":10254:10260   */\n      dup2\n        /* \"#utility.yul\":10241:10261   */\n      calldataload\n        /* \"#utility.yul\":10279:10371   */\n      tag_311\n        /* \"#utility.yul\":10367:10370   */\n      dup5\n        /* \"#utility.yul\":10359:10365   */\n      dup3\n        /* \"#utility.yul\":10352:10356   */\n      0x20\n        /* \"#utility.yul\":10344:10350   */\n      dup7\n        /* \"#utility.yul\":10340:10357   */\n      add\n        /* \"#utility.yul\":10279:10371   */\n      tag_172\n      jump\t// in\n    tag_311:\n        /* \"#utility.yul\":10270:10371   */\n      swap2\n      pop\n        /* \"#utility.yul\":10086:10377   */\n      pop\n        /* \"#utility.yul\":10011:10377   */\n      swap3\n      swap2\n      pop\n      pop\n      jump\t// out\n        /* \"#utility.yul\":10383:11273   */\n    tag_27:\n        /* \"#utility.yul\":10499:10505   */\n      0x00\n        /* \"#utility.yul\":10507:10513   */\n      dup1\n        /* \"#utility.yul\":10556:10558   */\n      0x40\n        /* \"#utility.yul\":10544:10553   */\n      dup4\n        /* \"#utility.yul\":10535:10542   */\n      dup6\n        /* \"#utility.yul\":10531:10554   */\n      sub\n        /* \"#utility.yul\":10527:10559   */\n      slt\n        /* \"#utility.yul\":10524:10643   */\n      iszero\n      tag_313\n      jumpi\n        /* \"#utility.yul\":10562:10641   */\n      tag_314\n      tag_155\n      jump\t// in\n    tag_314:\n        /* \"#utility.yul\":10524:10643   */\n    tag_313:\n        /* \"#utility.yul\":10710:10711   */\n      0x00\n        /* \"#utility.yul\":10699:10708   */\n      dup4\n        /* \"#utility.yul\":10695:10712   */\n      add\n        /* \"#utility.yul\":10682:10713   */\n      calldataload\n        /* \"#utility.yul\":10740:10758   */\n      0xffffffffffffffff\n        /* \"#utility.yul\":10732:10738   */\n      dup2\n        /* \"#utility.yul\":10729:10759   */\n      gt\n        /* \"#utility.yul\":10726:10843   */\n      iszero\n      tag_315\n      jumpi\n        /* \"#utility.yul\":10762:10841   */\n      tag_316\n      tag_156\n      jump\t// in\n    tag_316:\n        /* \"#utility.yul\":10726:10843   */\n    tag_315:\n        /* \"#utility.yul\":10867:10945   */\n      tag_317\n        /* \"#utility.yul\":10937:10944   */\n      dup6\n        /* \"#utility.yul\":10928:10934   */\n      dup3\n        /* \"#utility.yul\":10917:10926   */\n      dup7\n        /* \"#utility.yul\":10913:10935   */\n      add\n        /* \"#utility.yul\":10867:10945   */\n      tag_167\n      jump\t// in\n    tag_317:\n        /* \"#utility.yul\":10857:10945   */\n      swap3\n      pop\n        /* \"#utility.yul\":10653:10955   */\n      pop\n        /* \"#utility.yul\":11022:11024   */\n      0x20\n        /* \"#utility.yul\":11011:11020   */\n      dup4\n        /* \"#utility.yul\":11007:11025   */\n      add\n        /* \"#utility.yul\":10994:11026   */\n      calldataload\n        /* \"#utility.yul\":11053:11071   */\n      0xffffffffffffffff\n        /* \"#utility.yul\":11045:11051   */\n      dup2\n        /* \"#utility.yul\":11042:11072   */\n      gt\n        /* \"#utility.yul\":11039:11156   */\n      iszero\n      tag_318\n      jumpi\n        /* \"#utility.yul\":11075:11154   */\n      tag_319\n      tag_156\n      jump\t// in\n    tag_319:\n        /* \"#utility.yul\":11039:11156   */\n    tag_318:\n        /* \"#utility.yul\":11180:11256   */\n      tag_320\n        /* \"#utility.yul\":11248:11255   */\n      dup6\n        /* \"#utility.yul\":11239:11245   */\n      dup3\n        /* \"#utility.yul\":11228:11237   */\n      dup7\n        /* \"#utility.yul\":11224:11246   */\n      add\n        /* \"#utility.yul\":11180:11256   */\n      tag_173\n      jump\t// in\n    tag_320:\n        /* \"#utility.yul\":11170:11256   */\n      swap2\n      pop\n        /* \"#utility.yul\":10965:11266   */\n      pop\n        /* \"#utility.yul\":10383:11273   */\n      swap3\n      pop\n      swap3\n      swap1\n      pop\n      jump\t// out\n        /* \"#utility.yul\":11279:11369   */\n    tag_174:\n        /* \"#utility.yul\":11313:11320   */\n      0x00\n        /* \"#utility.yul\":11356:11361   */\n      dup2\n        /* \"#utility.yul\":11349:11362   */\n      iszero\n        /* \"#utility.yul\":11342:11363   */\n      iszero\n        /* \"#utility.yul\":11331:11363   */\n      swap1\n      pop\n        /* \"#utility.yul\":11279:11369   */\n      swap2\n      swap1\n      pop\n      jump\t// out\n        /* \"#utility.yul\":11375:11484   */\n    tag_175:\n        /* \"#utility.yul\":11456:11477   */\n      tag_323\n        /* \"#utility.yul\":11471:11476   */\n      dup2\n        /* \"#utility.yul\":11456:11477   */\n      tag_174\n      jump\t// in\n    tag_323:\n        /* \"#utility.yul\":11451:11454   */\n      dup3\n        /* \"#utility.yul\":11444:11478   */\n      mstore\n        /* \"#utility.yul\":11375:11484   */\n      pop\n      pop\n      jump\t// out\n        /* \"#utility.yul\":11490:11920   */\n    tag_34:\n        /* \"#utility.yul\":11633:11637   */\n      0x00\n        /* \"#utility.yul\":11671:11673   */\n      0x60\n        /* \"#utility.yul\":11660:11669   */\n      dup3\n        /* \"#utility.yul\":11656:11674   */\n      add\n        /* \"#utility.yul\":11648:11674   */\n      swap1\n      pop\n        /* \"#utility.yul\":11684:11749   */\n      tag_325\n        /* \"#utility.yul\":11746:11747   */\n      0x00\n        /* \"#utility.yul\":11735:11744   */\n      dup4\n        /* \"#utility.yul\":11731:11748   */\n      add\n        /* \"#utility.yul\":11722:11728   */\n      dup7\n        /* \"#utility.yul\":11684:11749   */\n      tag_175\n      jump\t// in\n    tag_325:\n        /* \"#utility.yul\":11759:11831   */\n      tag_326\n        /* \"#utility.yul\":11827:11829   */\n      0x20\n        /* \"#utility.yul\":11816:11825   */\n      dup4\n        /* \"#utility.yul\":11812:11830   */\n      add\n        /* \"#utility.yul\":11803:11809   */\n      dup6\n        /* \"#utility.yul\":11759:11831   */\n      tag_151\n      jump\t// in\n    tag_326:\n        /* \"#utility.yul\":11841:11913   */\n      tag_327\n        /* \"#utility.yul\":11909:11911   */\n      0x40\n        /* \"#utility.yul\":11898:11907   */\n      dup4\n        /* \"#utility.yul\":11894:11912   */\n      add\n        /* \"#utility.yul\":11885:11891   */\n      dup5\n        /* \"#utility.yul\":11841:11913   */\n      tag_153\n      jump\t// in\n    tag_327:\n        /* \"#utility.yul\":11490:11920   */\n      swap5\n      swap4\n      pop\n      pop\n      pop\n      pop\n      jump\t// out\n        /* \"#utility.yul\":11926:12073   */\n    tag_176:\n        /* \"#utility.yul\":12027:12038   */\n      0x00\n        /* \"#utility.yul\":12064:12067   */\n      dup2\n        /* \"#utility.yul\":12049:12067   */\n      swap1\n      pop\n        /* \"#utility.yul\":11926:12073   */\n      swap3\n      swap2\n      pop\n      pop\n      jump\t// out\n        /* \"#utility.yul\":12079:12193   */\n    tag_177:\n      pop\n      jump\t// out\n        /* \"#utility.yul\":12199:12597   */\n    tag_178:\n        /* \"#utility.yul\":12358:12361   */\n      0x00\n        /* \"#utility.yul\":12379:12462   */\n      tag_331\n        /* \"#utility.yul\":12460:12461   */\n      0x00\n        /* \"#utility.yul\":12455:12458   */\n      dup4\n        /* \"#utility.yul\":12379:12462   */\n      tag_176\n      jump\t// in\n    tag_331:\n        /* \"#utility.yul\":12372:12462   */\n      swap2\n      pop\n        /* \"#utility.yul\":12471:12564   */\n      tag_332\n        /* \"#utility.yul\":12560:12563   */\n      dup3\n        /* \"#utility.yul\":12471:12564   */\n      tag_177\n      jump\t// in\n    tag_332:\n        /* \"#utility.yul\":12589:12590   */\n      0x00\n        /* \"#utility.yul\":12584:12587   */\n      dup3\n        /* \"#utility.yul\":12580:12591   */\n      add\n        /* \"#utility.yul\":12573:12591   */\n      swap1\n      pop\n        /* \"#utility.yul\":12199:12597   */\n      swap2\n      swap1\n      pop\n      jump\t// out\n        /* \"#utility.yul\":12603:12982   */\n    tag_43:\n        /* \"#utility.yul\":12787:12790   */\n      0x00\n        /* \"#utility.yul\":12809:12956   */\n      tag_334\n        /* \"#utility.yul\":12952:12955   */\n      dup3\n        /* \"#utility.yul\":12809:12956   */\n      tag_178\n      jump\t// in\n    tag_334:\n        /* \"#utility.yul\":12802:12956   */\n      swap2\n      pop\n        /* \"#utility.yul\":12973:12976   */\n      dup2\n        /* \"#utility.yul\":12966:12976   */\n      swap1\n      pop\n        /* \"#utility.yul\":12603:12982   */\n      swap2\n      swap1\n      pop\n      jump\t// out\n        /* \"#utility.yul\":12988:13157   */\n    tag_179:\n        /* \"#utility.yul\":13072:13083   */\n      0x00\n        /* \"#utility.yul\":13106:13112   */\n      dup3\n        /* \"#utility.yul\":13101:13104   */\n      dup3\n        /* \"#utility.yul\":13094:13113   */\n      mstore\n        /* \"#utility.yul\":13146:13150   */\n      0x20\n        /* \"#utility.yul\":13141:13144   */\n      dup3\n        /* \"#utility.yul\":13137:13151   */\n      add\n        /* \"#utility.yul\":13122:13151   */\n      swap1\n      pop\n        /* \"#utility.yul\":12988:13157   */\n      swap3\n      swap2\n      pop\n      pop\n      jump\t// out\n        /* \"#utility.yul\":13163:13388   */\n    tag_180:\n        /* \"#utility.yul\":13303:13337   */\n      0x63616e63656c54657374616d656e7428292c2046616c686120616f20656e7669\n        /* \"#utility.yul\":13299:13300   */\n      0x00\n        /* \"#utility.yul\":13291:13297   */\n      dup3\n        /* \"#utility.yul\":13287:13301   */\n      add\n        /* \"#utility.yul\":13280:13338   */\n      mstore\n        /* \"#utility.yul\":13372:13380   */\n      0x6172204554480000000000000000000000000000000000000000000000000000\n        /* \"#utility.yul\":13367:13369   */\n      0x20\n        /* \"#utility.yul\":13359:13365   */\n      dup3\n        /* \"#utility.yul\":13355:13370   */\n      add\n        /* \"#utility.yul\":13348:13381   */\n      mstore\n        /* \"#utility.yul\":13163:13388   */\n      pop\n      jump\t// out\n        /* \"#utility.yul\":13394:13760   */\n    tag_181:\n        /* \"#utility.yul\":13536:13539   */\n      0x00\n        /* \"#utility.yul\":13557:13624   */\n      tag_338\n        /* \"#utility.yul\":13621:13623   */\n      0x26\n        /* \"#utility.yul\":13616:13619   */\n      dup4\n        /* \"#utility.yul\":13557:13624   */\n      tag_179\n      jump\t// in\n    tag_338:\n        /* \"#utility.yul\":13550:13624   */\n      swap2\n      pop\n        /* \"#utility.yul\":13633:13726   */\n      tag_339\n        /* \"#utility.yul\":13722:13725   */\n      dup3\n        /* \"#utility.yul\":13633:13726   */\n      tag_180\n      jump\t// in\n    tag_339:\n        /* \"#utility.yul\":13751:13753   */\n      0x40\n        /* \"#utility.yul\":13746:13749   */\n      dup3\n        /* \"#utility.yul\":13742:13754   */\n      add\n        /* \"#utility.yul\":13735:13754   */\n      swap1\n      pop\n        /* \"#utility.yul\":13394:13760   */\n      swap2\n      swap1\n      pop\n      jump\t// out\n        /* \"#utility.yul\":13766:14185   */\n    tag_49:\n        /* \"#utility.yul\":13932:13936   */\n      0x00\n        /* \"#utility.yul\":13970:13972   */\n      0x20\n        /* \"#utility.yul\":13959:13968   */\n      dup3\n        /* \"#utility.yul\":13955:13973   */\n      add\n        /* \"#utility.yul\":13947:13973   */\n      swap1\n      pop\n        /* \"#utility.yul\":14019:14028   */\n      dup2\n        /* \"#utility.yul\":14013:14017   */\n      dup2\n        /* \"#utility.yul\":14009:14029   */\n      sub\n        /* \"#utility.yul\":14005:14006   */\n      0x00\n        /* \"#utility.yul\":13994:14003   */\n      dup4\n        /* \"#utility.yul\":13990:14007   */\n      add\n        /* \"#utility.yul\":13983:14030   */\n      mstore\n        /* \"#utility.yul\":14047:14178   */\n      tag_341\n        /* \"#utility.yul\":14173:14177   */\n      dup2\n        /* \"#utility.yul\":14047:14178   */\n      tag_181\n      jump\t// in\n    tag_341:\n        /* \"#utility.yul\":14039:14178   */\n      swap1\n      pop\n        /* \"#utility.yul\":13766:14185   */\n      swap2\n      swap1\n      pop\n      jump\t// out\n        /* \"#utility.yul\":14191:14364   */\n    tag_182:\n        /* \"#utility.yul\":14331:14356   */\n      0x5465737461646f72206e616f20656e636f6e747261646f000000000000000000\n        /* \"#utility.yul\":14327:14328   */\n      0x00\n        /* \"#utility.yul\":14319:14325   */\n      dup3\n        /* \"#utility.yul\":14315:14329   */\n      add\n        /* \"#utility.yul\":14308:14357   */\n      mstore\n        /* \"#utility.yul\":14191:14364   */\n      pop\n      jump\t// out\n        /* \"#utility.yul\":14370:14736   */\n    tag_183:\n        /* \"#utility.yul\":14512:14515   */\n      0x00\n        /* \"#utility.yul\":14533:14600   */\n      tag_344\n        /* \"#utility.yul\":14597:14599   */\n      0x17\n        /* \"#utility.yul\":14592:14595   */\n      dup4\n        /* \"#utility.yul\":14533:14600   */\n      tag_179\n      jump\t// in\n    tag_344:\n        /* \"#utility.yul\":14526:14600   */\n      swap2\n      pop\n        /* \"#utility.yul\":14609:14702   */\n      tag_345\n        /* \"#utility.yul\":14698:14701   */\n      dup3\n        /* \"#utility.yul\":14609:14702   */\n      tag_182\n      jump\t// in\n    tag_345:\n        /* \"#utility.yul\":14727:14729   */\n      0x20\n        /* \"#utility.yul\":14722:14725   */\n      dup3\n        /* \"#utility.yul\":14718:14730   */\n      add\n        /* \"#utility.yul\":14711:14730   */\n      swap1\n      pop\n        /* \"#utility.yul\":14370:14736   */\n      swap2\n      swap1\n      pop\n      jump\t// out\n        /* \"#utility.yul\":14742:15161   */\n    tag_58:\n        /* \"#utility.yul\":14908:14912   */\n      0x00\n        /* \"#utility.yul\":14946:14948   */\n      0x20\n        /* \"#utility.yul\":14935:14944   */\n      dup3\n        /* \"#utility.yul\":14931:14949   */\n      add\n        /* \"#utility.yul\":14923:14949   */\n      swap1\n      pop\n        /* \"#utility.yul\":14995:15004   */\n      dup2\n        /* \"#utility.yul\":14989:14993   */\n      dup2\n        /* \"#utility.yul\":14985:15005   */\n      sub\n        /* \"#utility.yul\":14981:14982   */\n      0x00\n        /* \"#utility.yul\":14970:14979   */\n      dup4\n        /* \"#utility.yul\":14966:14983   */\n      add\n        /* \"#utility.yul\":14959:15006   */\n      mstore\n        /* \"#utility.yul\":15023:15154   */\n      tag_347\n        /* \"#utility.yul\":15149:15153   */\n      dup2\n        /* \"#utility.yul\":15023:15154   */\n      tag_183\n      jump\t// in\n    tag_347:\n        /* \"#utility.yul\":15015:15154   */\n      swap1\n      pop\n        /* \"#utility.yul\":14742:15161   */\n      swap2\n      swap1\n      pop\n      jump\t// out\n        /* \"#utility.yul\":15167:15347   */\n    tag_71:\n        /* \"#utility.yul\":15215:15292   */\n      0x4e487b7100000000000000000000000000000000000000000000000000000000\n        /* \"#utility.yul\":15212:15213   */\n      0x00\n        /* \"#utility.yul\":15205:15293   */\n      mstore\n        /* \"#utility.yul\":15312:15316   */\n      0x32\n        /* \"#utility.yul\":15309:15310   */\n      0x04\n        /* \"#utility.yul\":15302:15317   */\n      mstore\n        /* \"#utility.yul\":15336:15340   */\n      0x24\n        /* \"#utility.yul\":15333:15334   */\n      0x00\n        /* \"#utility.yul\":15326:15341   */\n      revert\n        /* \"#utility.yul\":15353:15533   */\n    tag_184:\n        /* \"#utility.yul\":15401:15478   */\n      0x4e487b7100000000000000000000000000000000000000000000000000000000\n        /* \"#utility.yul\":15398:15399   */\n      0x00\n        /* \"#utility.yul\":15391:15479   */\n      mstore\n        /* \"#utility.yul\":15498:15502   */\n      0x11\n        /* \"#utility.yul\":15495:15496   */\n      0x04\n        /* \"#utility.yul\":15488:15503   */\n      mstore\n        /* \"#utility.yul\":15522:15526   */\n      0x24\n        /* \"#utility.yul\":15519:15520   */\n      0x00\n        /* \"#utility.yul\":15512:15527   */\n      revert\n        /* \"#utility.yul\":15539:15722   */\n    tag_77:\n        /* \"#utility.yul\":15577:15580   */\n      0x00\n        /* \"#utility.yul\":15600:15623   */\n      tag_351\n        /* \"#utility.yul\":15617:15622   */\n      dup3\n        /* \"#utility.yul\":15600:15623   */\n      tag_145\n      jump\t// in\n    tag_351:\n        /* \"#utility.yul\":15591:15623   */\n      swap2\n      pop\n        /* \"#utility.yul\":15645:15663   */\n      0xffffffffffffffff\n        /* \"#utility.yul\":15638:15643   */\n      dup3\n        /* \"#utility.yul\":15635:15664   */\n      sub\n        /* \"#utility.yul\":15632:15687   */\n      tag_352\n      jumpi\n        /* \"#utility.yul\":15667:15685   */\n      tag_353\n      tag_184\n      jump\t// in\n    tag_353:\n        /* \"#utility.yul\":15632:15687   */\n    tag_352:\n        /* \"#utility.yul\":15714:15715   */\n      0x01\n        /* \"#utility.yul\":15707:15712   */\n      dup3\n        /* \"#utility.yul\":15703:15716   */\n      add\n        /* \"#utility.yul\":15696:15716   */\n      swap1\n      pop\n        /* \"#utility.yul\":15539:15722   */\n      swap2\n      swap1\n      pop\n      jump\t// out\n        /* \"#utility.yul\":15728:15950   */\n    tag_185:\n        /* \"#utility.yul\":15868:15902   */\n      0x637265617465496e6865726974616e636528292c2076616c6f7220696e76616c\n        /* \"#utility.yul\":15864:15865   */\n      0x00\n        /* \"#utility.yul\":15856:15862   */\n      dup3\n        /* \"#utility.yul\":15852:15866   */\n      add\n        /* \"#utility.yul\":15845:15903   */\n      mstore\n        /* \"#utility.yul\":15937:15942   */\n      0x69646f0000000000000000000000000000000000000000000000000000000000\n        /* \"#utility.yul\":15932:15934   */\n      0x20\n        /* \"#utility.yul\":15924:15930   */\n      dup3\n        /* \"#utility.yul\":15920:15935   */\n      add\n        /* \"#utility.yul\":15913:15943   */\n      mstore\n        /* \"#utility.yul\":15728:15950   */\n      pop\n      jump\t// out\n        /* \"#utility.yul\":15956:16322   */\n    tag_186:\n        /* \"#utility.yul\":16098:16101   */\n      0x00\n        /* \"#utility.yul\":16119:16186   */\n      tag_356\n        /* \"#utility.yul\":16183:16185   */\n      0x23\n        /* \"#utility.yul\":16178:16181   */\n      dup4\n        /* \"#utility.yul\":16119:16186   */\n      tag_179\n      jump\t// in\n    tag_356:\n        /* \"#utility.yul\":16112:16186   */\n      swap2\n      pop\n        /* \"#utility.yul\":16195:16288   */\n      tag_357\n        /* \"#utility.yul\":16284:16287   */\n      dup3\n        /* \"#utility.yul\":16195:16288   */\n      tag_185\n      jump\t// in\n    tag_357:\n        /* \"#utility.yul\":16313:16315   */\n      0x40\n        /* \"#utility.yul\":16308:16311   */\n      dup3\n        /* \"#utility.yul\":16304:16316   */\n      add\n        /* \"#utility.yul\":16297:16316   */\n      swap1\n      pop\n        /* \"#utility.yul\":15956:16322   */\n      swap2\n      swap1\n      pop\n      jump\t// out\n        /* \"#utility.yul\":16328:16747   */\n    tag_81:\n        /* \"#utility.yul\":16494:16498   */\n      0x00\n        /* \"#utility.yul\":16532:16534   */\n      0x20\n        /* \"#utility.yul\":16521:16530   */\n      dup3\n        /* \"#utility.yul\":16517:16535   */\n      add\n        /* \"#utility.yul\":16509:16535   */\n      swap1\n      pop\n        /* \"#utility.yul\":16581:16590   */\n      dup2\n        /* \"#utility.yul\":16575:16579   */\n      dup2\n        /* \"#utility.yul\":16571:16591   */\n      sub\n        /* \"#utility.yul\":16567:16568   */\n      0x00\n        /* \"#utility.yul\":16556:16565   */\n      dup4\n        /* \"#utility.yul\":16552:16569   */\n      add\n        /* \"#utility.yul\":16545:16592   */\n      mstore\n        /* \"#utility.yul\":16609:16740   */\n      tag_359\n        /* \"#utility.yul\":16735:16739   */\n      dup2\n        /* \"#utility.yul\":16609:16740   */\n      tag_186\n      jump\t// in\n    tag_359:\n        /* \"#utility.yul\":16601:16740   */\n      swap1\n      pop\n        /* \"#utility.yul\":16328:16747   */\n      swap2\n      swap1\n      pop\n      jump\t// out\n        /* \"#utility.yul\":16753:16982   */\n    tag_187:\n        /* \"#utility.yul\":16893:16927   */\n      0x637265617465496e6865726974616e636528292c2061646963696f6e65206f73\n        /* \"#utility.yul\":16889:16890   */\n      0x00\n        /* \"#utility.yul\":16881:16887   */\n      dup3\n        /* \"#utility.yul\":16877:16891   */\n      add\n        /* \"#utility.yul\":16870:16928   */\n      mstore\n        /* \"#utility.yul\":16962:16974   */\n      0x20686572646569726f7300000000000000000000000000000000000000000000\n        /* \"#utility.yul\":16957:16959   */\n      0x20\n        /* \"#utility.yul\":16949:16955   */\n      dup3\n        /* \"#utility.yul\":16945:16960   */\n      add\n        /* \"#utility.yul\":16938:16975   */\n      mstore\n        /* \"#utility.yul\":16753:16982   */\n      pop\n      jump\t// out\n        /* \"#utility.yul\":16988:17354   */\n    tag_188:\n        /* \"#utility.yul\":17130:17133   */\n      0x00\n        /* \"#utility.yul\":17151:17218   */\n      tag_362\n        /* \"#utility.yul\":17215:17217   */\n      0x2a\n        /* \"#utility.yul\":17210:17213   */\n      dup4\n        /* \"#utility.yul\":17151:17218   */\n      tag_179\n      jump\t// in\n    tag_362:\n        /* \"#utility.yul\":17144:17218   */\n      swap2\n      pop\n        /* \"#utility.yul\":17227:17320   */\n      tag_363\n        /* \"#utility.yul\":17316:17319   */\n      dup3\n        /* \"#utility.yul\":17227:17320   */\n      tag_187\n      jump\t// in\n    tag_363:\n        /* \"#utility.yul\":17345:17347   */\n      0x40\n        /* \"#utility.yul\":17340:17343   */\n      dup3\n        /* \"#utility.yul\":17336:17348   */\n      add\n        /* \"#utility.yul\":17329:17348   */\n      swap1\n      pop\n        /* \"#utility.yul\":16988:17354   */\n      swap2\n      swap1\n      pop\n      jump\t// out\n        /* \"#utility.yul\":17360:17779   */\n    tag_84:\n        /* \"#utility.yul\":17526:17530   */\n      0x00\n        /* \"#utility.yul\":17564:17566   */\n      0x20\n        /* \"#utility.yul\":17553:17562   */\n      dup3\n        /* \"#utility.yul\":17549:17567   */\n      add\n        /* \"#utility.yul\":17541:17567   */\n      swap1\n      pop\n        /* \"#utility.yul\":17613:17622   */\n      dup2\n        /* \"#utility.yul\":17607:17611   */\n      dup2\n        /* \"#utility.yul\":17603:17623   */\n      sub\n        /* \"#utility.yul\":17599:17600   */\n      0x00\n        /* \"#utility.yul\":17588:17597   */\n      dup4\n        /* \"#utility.yul\":17584:17601   */\n      add\n        /* \"#utility.yul\":17577:17624   */\n      mstore\n        /* \"#utility.yul\":17641:17772   */\n      tag_365\n        /* \"#utility.yul\":17767:17771   */\n      dup2\n        /* \"#utility.yul\":17641:17772   */\n      tag_188\n      jump\t// in\n    tag_365:\n        /* \"#utility.yul\":17633:17772   */\n      swap1\n      pop\n        /* \"#utility.yul\":17360:17779   */\n      swap2\n      swap1\n      pop\n      jump\t// out\n        /* \"#utility.yul\":17785:18079   */\n    tag_189:\n        /* \"#utility.yul\":17925:17959   */\n      0x637265617465496e6865726974616e636528292c207175616e74696461646520\n        /* \"#utility.yul\":17921:17922   */\n      0x00\n        /* \"#utility.yul\":17913:17919   */\n      dup3\n        /* \"#utility.yul\":17909:17923   */\n      add\n        /* \"#utility.yul\":17902:17960   */\n      mstore\n        /* \"#utility.yul\":17994:18028   */\n      0x646520656e64657265636f73206520706f7263656e746167656e732064696665\n        /* \"#utility.yul\":17989:17991   */\n      0x20\n        /* \"#utility.yul\":17981:17987   */\n      dup3\n        /* \"#utility.yul\":17977:17992   */\n      add\n        /* \"#utility.yul\":17970:18029   */\n      mstore\n        /* \"#utility.yul\":18063:18071   */\n      0x72656e7465730000000000000000000000000000000000000000000000000000\n        /* \"#utility.yul\":18058:18060   */\n      0x40\n        /* \"#utility.yul\":18050:18056   */\n      dup3\n        /* \"#utility.yul\":18046:18061   */\n      add\n        /* \"#utility.yul\":18039:18072   */\n      mstore\n        /* \"#utility.yul\":17785:18079   */\n      pop\n      jump\t// out\n        /* \"#utility.yul\":18085:18451   */\n    tag_190:\n        /* \"#utility.yul\":18227:18230   */\n      0x00\n        /* \"#utility.yul\":18248:18315   */\n      tag_368\n        /* \"#utility.yul\":18312:18314   */\n      0x46\n        /* \"#utility.yul\":18307:18310   */\n      dup4\n        /* \"#utility.yul\":18248:18315   */\n      tag_179\n      jump\t// in\n    tag_368:\n        /* \"#utility.yul\":18241:18315   */\n      swap2\n      pop\n        /* \"#utility.yul\":18324:18417   */\n      tag_369\n        /* \"#utility.yul\":18413:18416   */\n      dup3\n        /* \"#utility.yul\":18324:18417   */\n      tag_189\n      jump\t// in\n    tag_369:\n        /* \"#utility.yul\":18442:18444   */\n      0x60\n        /* \"#utility.yul\":18437:18440   */\n      dup3\n        /* \"#utility.yul\":18433:18445   */\n      add\n        /* \"#utility.yul\":18426:18445   */\n      swap1\n      pop\n        /* \"#utility.yul\":18085:18451   */\n      swap2\n      swap1\n      pop\n      jump\t// out\n        /* \"#utility.yul\":18457:18876   */\n    tag_87:\n        /* \"#utility.yul\":18623:18627   */\n      0x00\n        /* \"#utility.yul\":18661:18663   */\n      0x20\n        /* \"#utility.yul\":18650:18659   */\n      dup3\n        /* \"#utility.yul\":18646:18664   */\n      add\n        /* \"#utility.yul\":18638:18664   */\n      swap1\n      pop\n        /* \"#utility.yul\":18710:18719   */\n      dup2\n        /* \"#utility.yul\":18704:18708   */\n      dup2\n        /* \"#utility.yul\":18700:18720   */\n      sub\n        /* \"#utility.yul\":18696:18697   */\n      0x00\n        /* \"#utility.yul\":18685:18694   */\n      dup4\n        /* \"#utility.yul\":18681:18698   */\n      add\n        /* \"#utility.yul\":18674:18721   */\n      mstore\n        /* \"#utility.yul\":18738:18869   */\n      tag_371\n        /* \"#utility.yul\":18864:18868   */\n      dup2\n        /* \"#utility.yul\":18738:18869   */\n      tag_190\n      jump\t// in\n    tag_371:\n        /* \"#utility.yul\":18730:18869   */\n      swap1\n      pop\n        /* \"#utility.yul\":18457:18876   */\n      swap2\n      swap1\n      pop\n      jump\t// out\n        /* \"#utility.yul\":18882:19051   */\n    tag_191:\n        /* \"#utility.yul\":19022:19043   */\n      0x5465737461646f72206e616f2065786973746500000000000000000000000000\n        /* \"#utility.yul\":19018:19019   */\n      0x00\n        /* \"#utility.yul\":19010:19016   */\n      dup3\n        /* \"#utility.yul\":19006:19020   */\n      add\n        /* \"#utility.yul\":18999:19044   */\n      mstore\n        /* \"#utility.yul\":18882:19051   */\n      pop\n      jump\t// out\n        /* \"#utility.yul\":19057:19423   */\n    tag_192:\n        /* \"#utility.yul\":19199:19202   */\n      0x00\n        /* \"#utility.yul\":19220:19287   */\n      tag_374\n        /* \"#utility.yul\":19284:19286   */\n      0x13\n        /* \"#utility.yul\":19279:19282   */\n      dup4\n        /* \"#utility.yul\":19220:19287   */\n      tag_179\n      jump\t// in\n    tag_374:\n        /* \"#utility.yul\":19213:19287   */\n      swap2\n      pop\n        /* \"#utility.yul\":19296:19389   */\n      tag_375\n        /* \"#utility.yul\":19385:19388   */\n      dup3\n        /* \"#utility.yul\":19296:19389   */\n      tag_191\n      jump\t// in\n    tag_375:\n        /* \"#utility.yul\":19414:19416   */\n      0x20\n        /* \"#utility.yul\":19409:19412   */\n      dup3\n        /* \"#utility.yul\":19405:19417   */\n      add\n        /* \"#utility.yul\":19398:19417   */\n      swap1\n      pop\n        /* \"#utility.yul\":19057:19423   */\n      swap2\n      swap1\n      pop\n      jump\t// out\n        /* \"#utility.yul\":19429:19848   */\n    tag_103:\n        /* \"#utility.yul\":19595:19599   */\n      0x00\n        /* \"#utility.yul\":19633:19635   */\n      0x20\n        /* \"#utility.yul\":19622:19631   */\n      dup3\n        /* \"#utility.yul\":19618:19636   */\n      add\n        /* \"#utility.yul\":19610:19636   */\n      swap1\n      pop\n        /* \"#utility.yul\":19682:19691   */\n      dup2\n        /* \"#utility.yul\":19676:19680   */\n      dup2\n        /* \"#utility.yul\":19672:19692   */\n      sub\n        /* \"#utility.yul\":19668:19669   */\n      0x00\n        /* \"#utility.yul\":19657:19666   */\n      dup4\n        /* \"#utility.yul\":19653:19670   */\n      add\n        /* \"#utility.yul\":19646:19693   */\n      mstore\n        /* \"#utility.yul\":19710:19841   */\n      tag_377\n        /* \"#utility.yul\":19836:19840   */\n      dup2\n        /* \"#utility.yul\":19710:19841   */\n      tag_192\n      jump\t// in\n    tag_377:\n        /* \"#utility.yul\":19702:19841   */\n      swap1\n      pop\n        /* \"#utility.yul\":19429:19848   */\n      swap2\n      swap1\n      pop\n      jump\t// out\n        /* \"#utility.yul\":19854:20085   */\n    tag_193:\n        /* \"#utility.yul\":19994:20028   */\n      0x766f6365206e616f20666f69206361646173747261646f20656d206e656e6875\n        /* \"#utility.yul\":19990:19991   */\n      0x00\n        /* \"#utility.yul\":19982:19988   */\n      dup3\n        /* \"#utility.yul\":19978:19992   */\n      add\n        /* \"#utility.yul\":19971:20029   */\n      mstore\n        /* \"#utility.yul\":20063:20077   */\n      0x6d2074657374616d656e746f0000000000000000000000000000000000000000\n        /* \"#utility.yul\":20058:20060   */\n      0x20\n        /* \"#utility.yul\":20050:20056   */\n      dup3\n        /* \"#utility.yul\":20046:20061   */\n      add\n        /* \"#utility.yul\":20039:20078   */\n      mstore\n        /* \"#utility.yul\":19854:20085   */\n      pop\n      jump\t// out\n        /* \"#utility.yul\":20091:20457   */\n    tag_194:\n        /* \"#utility.yul\":20233:20236   */\n      0x00\n        /* \"#utility.yul\":20254:20321   */\n      tag_380\n        /* \"#utility.yul\":20318:20320   */\n      0x2c\n        /* \"#utility.yul\":20313:20316   */\n      dup4\n        /* \"#utility.yul\":20254:20321   */\n      tag_179\n      jump\t// in\n    tag_380:\n        /* \"#utility.yul\":20247:20321   */\n      swap2\n      pop\n        /* \"#utility.yul\":20330:20423   */\n      tag_381\n        /* \"#utility.yul\":20419:20422   */\n      dup3\n        /* \"#utility.yul\":20330:20423   */\n      tag_193\n      jump\t// in\n    tag_381:\n        /* \"#utility.yul\":20448:20450   */\n      0x40\n        /* \"#utility.yul\":20443:20446   */\n      dup3\n        /* \"#utility.yul\":20439:20451   */\n      add\n        /* \"#utility.yul\":20432:20451   */\n      swap1\n      pop\n        /* \"#utility.yul\":20091:20457   */\n      swap2\n      swap1\n      pop\n      jump\t// out\n        /* \"#utility.yul\":20463:20882   */\n    tag_107:\n        /* \"#utility.yul\":20629:20633   */\n      0x00\n        /* \"#utility.yul\":20667:20669   */\n      0x20\n        /* \"#utility.yul\":20656:20665   */\n      dup3\n        /* \"#utility.yul\":20652:20670   */\n      add\n        /* \"#utility.yul\":20644:20670   */\n      swap1\n      pop\n        /* \"#utility.yul\":20716:20725   */\n      dup2\n        /* \"#utility.yul\":20710:20714   */\n      dup2\n        /* \"#utility.yul\":20706:20726   */\n      sub\n        /* \"#utility.yul\":20702:20703   */\n      0x00\n        /* \"#utility.yul\":20691:20700   */\n      dup4\n        /* \"#utility.yul\":20687:20704   */\n      add\n        /* \"#utility.yul\":20680:20727   */\n      mstore\n        /* \"#utility.yul\":20744:20875   */\n      tag_383\n        /* \"#utility.yul\":20870:20874   */\n      dup2\n        /* \"#utility.yul\":20744:20875   */\n      tag_194\n      jump\t// in\n    tag_383:\n        /* \"#utility.yul\":20736:20875   */\n      swap1\n      pop\n        /* \"#utility.yul\":20463:20882   */\n      swap2\n      swap1\n      pop\n      jump\t// out\n        /* \"#utility.yul\":20888:21063   */\n    tag_195:\n        /* \"#utility.yul\":21028:21055   */\n      0x74657374616d656e746f206e616f20656e636f6e747261646f00000000000000\n        /* \"#utility.yul\":21024:21025   */\n      0x00\n        /* \"#utility.yul\":21016:21022   */\n      dup3\n        /* \"#utility.yul\":21012:21026   */\n      add\n        /* \"#utility.yul\":21005:21056   */\n      mstore\n        /* \"#utility.yul\":20888:21063   */\n      pop\n      jump\t// out\n        /* \"#utility.yul\":21069:21435   */\n    tag_196:\n        /* \"#utility.yul\":21211:21214   */\n      0x00\n        /* \"#utility.yul\":21232:21299   */\n      tag_386\n        /* \"#utility.yul\":21296:21298   */\n      0x19\n        /* \"#utility.yul\":21291:21294   */\n      dup4\n        /* \"#utility.yul\":21232:21299   */\n      tag_179\n      jump\t// in\n    tag_386:\n        /* \"#utility.yul\":21225:21299   */\n      swap2\n      pop\n        /* \"#utility.yul\":21308:21401   */\n      tag_387\n        /* \"#utility.yul\":21397:21400   */\n      dup3\n        /* \"#utility.yul\":21308:21401   */\n      tag_195\n      jump\t// in\n    tag_387:\n        /* \"#utility.yul\":21426:21428   */\n      0x20\n        /* \"#utility.yul\":21421:21424   */\n      dup3\n        /* \"#utility.yul\":21417:21429   */\n      add\n        /* \"#utility.yul\":21410:21429   */\n      swap1\n      pop\n        /* \"#utility.yul\":21069:21435   */\n      swap2\n      swap1\n      pop\n      jump\t// out\n        /* \"#utility.yul\":21441:21860   */\n    tag_110:\n        /* \"#utility.yul\":21607:21611   */\n      0x00\n        /* \"#utility.yul\":21645:21647   */\n      0x20\n        /* \"#utility.yul\":21634:21643   */\n      dup3\n        /* \"#utility.yul\":21630:21648   */\n      add\n        /* \"#utility.yul\":21622:21648   */\n      swap1\n      pop\n        /* \"#utility.yul\":21694:21703   */\n      dup2\n        /* \"#utility.yul\":21688:21692   */\n      dup2\n        /* \"#utility.yul\":21684:21704   */\n      sub\n        /* \"#utility.yul\":21680:21681   */\n      0x00\n        /* \"#utility.yul\":21669:21678   */\n      dup4\n        /* \"#utility.yul\":21665:21682   */\n      add\n        /* \"#utility.yul\":21658:21705   */\n      mstore\n        /* \"#utility.yul\":21722:21853   */\n      tag_389\n        /* \"#utility.yul\":21848:21852   */\n      dup2\n        /* \"#utility.yul\":21722:21853   */\n      tag_196\n      jump\t// in\n    tag_389:\n        /* \"#utility.yul\":21714:21853   */\n      swap1\n      pop\n        /* \"#utility.yul\":21441:21860   */\n      swap2\n      swap1\n      pop\n      jump\t// out\n        /* \"#utility.yul\":21866:22276   */\n    tag_123:\n        /* \"#utility.yul\":21906:21913   */\n      0x00\n        /* \"#utility.yul\":21929:21949   */\n      tag_391\n        /* \"#utility.yul\":21947:21948   */\n      dup3\n        /* \"#utility.yul\":21929:21949   */\n      tag_152\n      jump\t// in\n    tag_391:\n        /* \"#utility.yul\":21924:21949   */\n      swap2\n      pop\n        /* \"#utility.yul\":21963:21983   */\n      tag_392\n        /* \"#utility.yul\":21981:21982   */\n      dup4\n        /* \"#utility.yul\":21963:21983   */\n      tag_152\n      jump\t// in\n    tag_392:\n        /* \"#utility.yul\":21958:21983   */\n      swap3\n      pop\n        /* \"#utility.yul\":22018:22019   */\n      dup3\n        /* \"#utility.yul\":22015:22016   */\n      dup3\n        /* \"#utility.yul\":22011:22020   */\n      mul\n        /* \"#utility.yul\":22040:22070   */\n      tag_393\n        /* \"#utility.yul\":22058:22069   */\n      dup2\n        /* \"#utility.yul\":22040:22070   */\n      tag_152\n      jump\t// in\n    tag_393:\n        /* \"#utility.yul\":22029:22070   */\n      swap2\n      pop\n        /* \"#utility.yul\":22219:22220   */\n      dup3\n        /* \"#utility.yul\":22210:22217   */\n      dup3\n        /* \"#utility.yul\":22206:22221   */\n      div\n        /* \"#utility.yul\":22203:22204   */\n      dup5\n        /* \"#utility.yul\":22200:22222   */\n      eq\n        /* \"#utility.yul\":22180:22181   */\n      dup4\n        /* \"#utility.yul\":22173:22182   */\n      iszero\n        /* \"#utility.yul\":22153:22236   */\n      or\n        /* \"#utility.yul\":22130:22269   */\n      tag_394\n      jumpi\n        /* \"#utility.yul\":22249:22267   */\n      tag_395\n      tag_184\n      jump\t// in\n    tag_395:\n        /* \"#utility.yul\":22130:22269   */\n    tag_394:\n        /* \"#utility.yul\":21914:22276   */\n      pop\n        /* \"#utility.yul\":21866:22276   */\n      swap3\n      swap2\n      pop\n      pop\n      jump\t// out\n        /* \"#utility.yul\":22282:22515   */\n    tag_127:\n        /* \"#utility.yul\":22321:22324   */\n      0x00\n        /* \"#utility.yul\":22344:22368   */\n      tag_397\n        /* \"#utility.yul\":22362:22367   */\n      dup3\n        /* \"#utility.yul\":22344:22368   */\n      tag_152\n      jump\t// in\n    tag_397:\n        /* \"#utility.yul\":22335:22368   */\n      swap2\n      pop\n        /* \"#utility.yul\":22390:22456   */\n      0xffffffffffffffffffffffffffffffffffffffffffffffffffffffffffffffff\n        /* \"#utility.yul\":22383:22388   */\n      dup3\n        /* \"#utility.yul\":22380:22457   */\n      sub\n        /* \"#utility.yul\":22377:22480   */\n      tag_398\n      jumpi\n        /* \"#utility.yul\":22460:22478   */\n      tag_399\n      tag_184\n      jump\t// in\n    tag_399:\n        /* \"#utility.yul\":22377:22480   */\n    tag_398:\n        /* \"#utility.yul\":22507:22508   */\n      0x01\n        /* \"#utility.yul\":22500:22505   */\n      dup3\n        /* \"#utility.yul\":22496:22509   */\n      add\n        /* \"#utility.yul\":22489:22509   */\n      swap1\n      pop\n        /* \"#utility.yul\":22282:22515   */\n      swap2\n      swap1\n      pop\n      jump\t// out\n\n    auxdata: 0xa2646970667358221220fed43a6bea4bccc6635cd23a98dd4abc92b4949f33079739a85792d17336c17a64736f6c634300081a0033\n}\n",
				"bytecode": {
					"linkReferences": {},
					"object": "6080604052348015600e575f80fd5b50611c798061001c5f395ff3fe60806040526004361061006f575f3560e01c8063759a8a981161004d578063759a8a98146100f2578063b45b91f21461010e578063c80cc4111461014c578063d4e93292146101625761006f565b80631aba6da6146100735780633a994a8b146100895780636355e754146100b6575b5f80fd5b34801561007e575f80fd5b50610087610178565b005b348015610094575f80fd5b5061009d6102f1565b6040516100ad94939291906112d3565b60405180910390f35b3480156100c1575f80fd5b506100dc60048036038101906100d7919061135f565b610687565b6040516100e99190611399565b60405180910390f35b61010c600480360381019061010791906115f8565b6106b7565b005b348015610119575f80fd5b50610134600480360381019061012f919061135f565b610b28565b60405161014393929190611688565b60405180910390f35b348015610157575f80fd5b50610160610b76565b005b34801561016d575f80fd5b50610176610c7e565b005b5f3390505f3373ffffffffffffffffffffffffffffffffffffffff165f808473ffffffffffffffffffffffffffffffffffffffff1673ffffffffffffffffffffffffffffffffffffffff1681526020019081526020015f20600201546040516101e0906116ea565b5f6040518083038185875af1925050503d805f811461021a576040519150601f19603f3d011682016040523d82523d5f602084013e61021f565b606091505b5050905080610263576040517f08c379a000000000000000000000000000000000000000000000000000000000815260040161025a9061177e565b60405180910390fd5b5f808373ffffffffffffffffffffffffffffffffffffffff1673ffffffffffffffffffffffffffffffffffffffff1681526020019081526020015f205f8082015f6102ae919061106c565b600182015f6101000a81549060ff02191690556001820160016101000a8154906fffffffffffffffffffffffffffffffff0219169055600282015f905550505050565b6060805f805f3390505f805f8373ffffffffffffffffffffffffffffffffffffffff1673ffffffffffffffffffffffffffffffffffffffff1681526020019081526020015f206040518060800160405290815f8201805480602002602001604051908101604052809291908181526020015f905b82821015610416578382905f5260205f20016040518060400160405290815f82015f9054906101000a900473ffffffffffffffffffffffffffffffffffffffff1673ffffffffffffffffffffffffffffffffffffffff1673ffffffffffffffffffffffffffffffffffffffff1681526020015f820160149054906101000a900467ffffffffffffffff1667ffffffffffffffff1667ffffffffffffffff168152505081526020019060010190610365565b505050508152602001600182015f9054906101000a900460ff161515151581526020016001820160019054906101000a90046fffffffffffffffffffffffffffffffff166fffffffffffffffffffffffffffffffff166fffffffffffffffffffffffffffffffff168152602001600282015481525050905080602001516104d2576040517f08c379a00000000000000000000000000000000000000000000000000000000081526004016104c9906117e6565b60405180910390fd5b5f815f01515167ffffffffffffffff8111156104f1576104f06113c6565b5b60405190808252806020026020018201604052801561051f5781602001602082028036833780820191505090505b5090505f825f01515167ffffffffffffffff811115610541576105406113c6565b5b60405190808252806020026020018201604052801561056f5781602001602082028036833780820191505090505b5090505f5b835f0151518167ffffffffffffffff161015610668575f845f01518267ffffffffffffffff16815181106105ab576105aa611804565b5b60200260200101519050805f0151848367ffffffffffffffff16815181106105d6576105d5611804565b5b602002602001019073ffffffffffffffffffffffffffffffffffffffff16908173ffffffffffffffffffffffffffffffffffffffff16815250508060200151838367ffffffffffffffff168151811061063257610631611804565b5b602002602001019067ffffffffffffffff16908167ffffffffffffffff16815250505080806106609061185e565b915050610574565b5081818460400151856060015197509750975097505050505090919293565b6001602052805f5260405f205f915054906101000a900473ffffffffffffffffffffffffffffffffffffffff1681565b5f34036106f9576040517f08c379a00000000000000000000000000000000000000000000000000000000081526004016106f0906118fd565b60405180910390fd5b5f82510361073c576040517f08c379a00000000000000000000000000000000000000000000000000000000081526004016107339061198b565b60405180910390fd5b8051825114610780576040517f08c379a000000000000000000000000000000000000000000000000000000000815260040161077790611a3f565b60405180910390fd5b5f3390505f808273ffffffffffffffffffffffffffffffffffffffff1673ffffffffffffffffffffffffffffffffffffffff1681526020019081526020015f206001015f9054906101000a900460ff161561081f575f808273ffffffffffffffffffffffffffffffffffffffff1673ffffffffffffffffffffffffffffffffffffffff1681526020019081526020015f205f015f61081e919061106c565b5b5f5b8351811015610a11575f604051806040016040528086848151811061084957610848611804565b5b602002602001015173ffffffffffffffffffffffffffffffffffffffff16815260200185848151811061087f5761087e611804565b5b602002602001015160ff1667ffffffffffffffff1681525090508260015f8785815181106108b0576108af611804565b5b602002602001015173ffffffffffffffffffffffffffffffffffffffff1673ffffffffffffffffffffffffffffffffffffffff1681526020019081526020015f205f6101000a81548173ffffffffffffffffffffffffffffffffffffffff021916908373ffffffffffffffffffffffffffffffffffffffff1602179055505f808473ffffffffffffffffffffffffffffffffffffffff1673ffffffffffffffffffffffffffffffffffffffff1681526020019081526020015f205f0181908060018154018082558091505060019003905f5260205f20015f909190919091505f820151815f015f6101000a81548173ffffffffffffffffffffffffffffffffffffffff021916908373ffffffffffffffffffffffffffffffffffffffff1602179055506020820151815f0160146101000a81548167ffffffffffffffff021916908367ffffffffffffffff1602179055505050508080600101915050610821565b5060015f808373ffffffffffffffffffffffffffffffffffffffff1673ffffffffffffffffffffffffffffffffffffffff1681526020019081526020015f206001015f6101000a81548160ff021916908315150217905550425f808373ffffffffffffffffffffffffffffffffffffffff1673ffffffffffffffffffffffffffffffffffffffff1681526020019081526020015f2060010160016101000a8154816fffffffffffffffffffffffffffffffff02191690836fffffffffffffffffffffffffffffffff160217905550345f808373ffffffffffffffffffffffffffffffffffffffff1673ffffffffffffffffffffffffffffffffffffffff1681526020019081526020015f2060020181905550505050565b5f602052805f5260405f205f91509050806001015f9054906101000a900460ff16908060010160019054906101000a90046fffffffffffffffffffffffffffffffff16908060020154905083565b5f3390505f808273ffffffffffffffffffffffffffffffffffffffff1673ffffffffffffffffffffffffffffffffffffffff1681526020019081526020015f206001015f9054906101000a900460ff16610c05576040517f08c379a0000000000000000000000000000000000000000000000000000000008152600401610bfc90611aa7565b60405180910390fd5b425f808373ffffffffffffffffffffffffffffffffffffffff1673ffffffffffffffffffffffffffffffffffffffff1681526020019081526020015f2060010160016101000a8154816fffffffffffffffffffffffffffffffff02191690836fffffffffffffffffffffffffffffffff16021790555050565b5f3390505f60015f8373ffffffffffffffffffffffffffffffffffffffff1673ffffffffffffffffffffffffffffffffffffffff1681526020019081526020015f205f9054906101000a900473ffffffffffffffffffffffffffffffffffffffff1690505f73ffffffffffffffffffffffffffffffffffffffff168173ffffffffffffffffffffffffffffffffffffffff1603610d50576040517f08c379a0000000000000000000000000000000000000000000000000000000008152600401610d4790611b35565b60405180910390fd5b5f808273ffffffffffffffffffffffffffffffffffffffff1673ffffffffffffffffffffffffffffffffffffffff1681526020019081526020015f206001015f9054906101000a900460ff16610ddb576040517f08c379a0000000000000000000000000000000000000000000000000000000008152600401610dd290611b9d565b60405180910390fd5b5f805f8373ffffffffffffffffffffffffffffffffffffffff1673ffffffffffffffffffffffffffffffffffffffff1681526020019081526020015f206040518060800160405290815f8201805480602002602001604051908101604052809291908181526020015f905b82821015610ef7578382905f5260205f20016040518060400160405290815f82015f9054906101000a900473ffffffffffffffffffffffffffffffffffffffff1673ffffffffffffffffffffffffffffffffffffffff1673ffffffffffffffffffffffffffffffffffffffff1681526020015f820160149054906101000a900467ffffffffffffffff1667ffffffffffffffff1667ffffffffffffffff168152505081526020019060010190610e46565b505050508152602001600182015f9054906101000a900460ff161515151581526020016001820160019054906101000a90046fffffffffffffffffffffffffffffffff166fffffffffffffffffffffffffffffffff166fffffffffffffffffffffffffffffffff16815260200160028201548152505090505f5b80825f0151511061106657815f01518181518110610f9257610f91611804565b5b60200260200101515f015173ffffffffffffffffffffffffffffffffffffffff168473ffffffffffffffffffffffffffffffffffffffff1603611053575f8260600151835f01518381518110610feb57610fea611804565b5b60200260200101516020015167ffffffffffffffff1661100b9190611bbb565b90503373ffffffffffffffffffffffffffffffffffffffff166108fc8290811502906040515f60405180830381858888f19350505050158015611050573d5f803e3d5ffd5b50505b808061105e90611bfc565b915050610f71565b50505050565b5080545f8255905f5260205f2090810190611087919061108a565b50565b5b808211156110dc575f8082015f6101000a81549073ffffffffffffffffffffffffffffffffffffffff02191690555f820160146101000a81549067ffffffffffffffff02191690555060010161108b565b5090565b5f81519050919050565b5f82825260208201905092915050565b5f819050602082019050919050565b5f73ffffffffffffffffffffffffffffffffffffffff82169050919050565b5f61113282611109565b9050919050565b61114281611128565b82525050565b5f6111538383611139565b60208301905092915050565b5f602082019050919050565b5f611175826110e0565b61117f81856110ea565b935061118a836110fa565b805f5b838110156111ba5781516111a18882611148565b97506111ac8361115f565b92505060018101905061118d565b5085935050505092915050565b5f81519050919050565b5f82825260208201905092915050565b5f819050602082019050919050565b5f67ffffffffffffffff82169050919050565b61120c816111f0565b82525050565b5f61121d8383611203565b60208301905092915050565b5f602082019050919050565b5f61123f826111c7565b61124981856111d1565b9350611254836111e1565b805f5b8381101561128457815161126b8882611212565b975061127683611229565b925050600181019050611257565b5085935050505092915050565b5f6fffffffffffffffffffffffffffffffff82169050919050565b6112b581611291565b82525050565b5f819050919050565b6112cd816112bb565b82525050565b5f6080820190508181035f8301526112eb818761116b565b905081810360208301526112ff8186611235565b905061130e60408301856112ac565b61131b60608301846112c4565b95945050505050565b5f604051905090565b5f80fd5b5f80fd5b61133e81611128565b8114611348575f80fd5b50565b5f8135905061135981611335565b92915050565b5f602082840312156113745761137361132d565b5b5f6113818482850161134b565b91505092915050565b61139381611128565b82525050565b5f6020820190506113ac5f83018461138a565b92915050565b5f80fd5b5f601f19601f8301169050919050565b7f4e487b71000000000000000000000000000000000000000000000000000000005f52604160045260245ffd5b6113fc826113b6565b810181811067ffffffffffffffff8211171561141b5761141a6113c6565b5b80604052505050565b5f61142d611324565b905061143982826113f3565b919050565b5f67ffffffffffffffff821115611458576114576113c6565b5b602082029050602081019050919050565b5f80fd5b5f61147f61147a8461143e565b611424565b905080838252602082019050602084028301858111156114a2576114a1611469565b5b835b818110156114cb57806114b7888261134b565b8452602084019350506020810190506114a4565b5050509392505050565b5f82601f8301126114e9576114e86113b2565b5b81356114f984826020860161146d565b91505092915050565b5f67ffffffffffffffff82111561151c5761151b6113c6565b5b602082029050602081019050919050565b5f60ff82169050919050565b6115428161152d565b811461154c575f80fd5b50565b5f8135905061155d81611539565b92915050565b5f61157561157084611502565b611424565b9050808382526020820190506020840283018581111561159857611597611469565b5b835b818110156115c157806115ad888261154f565b84526020840193505060208101905061159a565b5050509392505050565b5f82601f8301126115df576115de6113b2565b5b81356115ef848260208601611563565b91505092915050565b5f806040838503121561160e5761160d61132d565b5b5f83013567ffffffffffffffff81111561162b5761162a611331565b5b611637858286016114d5565b925050602083013567ffffffffffffffff81111561165857611657611331565b5b611664858286016115cb565b9150509250929050565b5f8115159050919050565b6116828161166e565b82525050565b5f60608201905061169b5f830186611679565b6116a860208301856112ac565b6116b560408301846112c4565b949350505050565b5f81905092915050565b50565b5f6116d55f836116bd565b91506116e0826116c7565b5f82019050919050565b5f6116f4826116ca565b9150819050919050565b5f82825260208201905092915050565b7f63616e63656c54657374616d656e7428292c2046616c686120616f20656e76695f8201527f6172204554480000000000000000000000000000000000000000000000000000602082015250565b5f6117686026836116fe565b91506117738261170e565b604082019050919050565b5f6020820190508181035f8301526117958161175c565b9050919050565b7f5465737461646f72206e616f20656e636f6e747261646f0000000000000000005f82015250565b5f6117d06017836116fe565b91506117db8261179c565b602082019050919050565b5f6020820190508181035f8301526117fd816117c4565b9050919050565b7f4e487b71000000000000000000000000000000000000000000000000000000005f52603260045260245ffd5b7f4e487b71000000000000000000000000000000000000000000000000000000005f52601160045260245ffd5b5f611868826111f0565b915067ffffffffffffffff820361188257611881611831565b5b600182019050919050565b7f637265617465496e6865726974616e636528292c2076616c6f7220696e76616c5f8201527f69646f0000000000000000000000000000000000000000000000000000000000602082015250565b5f6118e76023836116fe565b91506118f28261188d565b604082019050919050565b5f6020820190508181035f830152611914816118db565b9050919050565b7f637265617465496e6865726974616e636528292c2061646963696f6e65206f735f8201527f20686572646569726f7300000000000000000000000000000000000000000000602082015250565b5f611975602a836116fe565b91506119808261191b565b604082019050919050565b5f6020820190508181035f8301526119a281611969565b9050919050565b7f637265617465496e6865726974616e636528292c207175616e746964616465205f8201527f646520656e64657265636f73206520706f7263656e746167656e73206469666560208201527f72656e7465730000000000000000000000000000000000000000000000000000604082015250565b5f611a296046836116fe565b9150611a34826119a9565b606082019050919050565b5f6020820190508181035f830152611a5681611a1d565b9050919050565b7f5465737461646f72206e616f20657869737465000000000000000000000000005f82015250565b5f611a916013836116fe565b9150611a9c82611a5d565b602082019050919050565b5f6020820190508181035f830152611abe81611a85565b9050919050565b7f766f6365206e616f20666f69206361646173747261646f20656d206e656e68755f8201527f6d2074657374616d656e746f0000000000000000000000000000000000000000602082015250565b5f611b1f602c836116fe565b9150611b2a82611ac5565b604082019050919050565b5f6020820190508181035f830152611b4c81611b13565b9050919050565b7f74657374616d656e746f206e616f20656e636f6e747261646f000000000000005f82015250565b5f611b876019836116fe565b9150611b9282611b53565b602082019050919050565b5f6020820190508181035f830152611bb481611b7b565b9050919050565b5f611bc5826112bb565b9150611bd0836112bb565b9250828202611bde816112bb565b91508282048414831517611bf557611bf4611831565b5b5092915050565b5f611c06826112bb565b91507fffffffffffffffffffffffffffffffffffffffffffffffffffffffffffffffff8203611c3857611c37611831565b5b60018201905091905056fea2646970667358221220fed43a6bea4bccc6635cd23a98dd4abc92b4949f33079739a85792d17336c17a64736f6c634300081a0033",
					"opcodes": "PUSH1 0x80 PUSH1 0x40 MSTORE CALLVALUE DUP1 ISZERO PUSH1 0xE JUMPI PUSH0 DUP1 REVERT JUMPDEST POP PUSH2 0x1C79 DUP1 PUSH2 0x1C PUSH0 CODECOPY PUSH0 RETURN INVALID PUSH1 0x80 PUSH1 0x40 MSTORE PUSH1 0x4 CALLDATASIZE LT PUSH2 0x6F JUMPI PUSH0 CALLDATALOAD PUSH1 0xE0 SHR DUP1 PUSH4 0x759A8A98 GT PUSH2 0x4D JUMPI DUP1 PUSH4 0x759A8A98 EQ PUSH2 0xF2 JUMPI DUP1 PUSH4 0xB45B91F2 EQ PUSH2 0x10E JUMPI DUP1 PUSH4 0xC80CC411 EQ PUSH2 0x14C JUMPI DUP1 PUSH4 0xD4E93292 EQ PUSH2 0x162 JUMPI PUSH2 0x6F JUMP JUMPDEST DUP1 PUSH4 0x1ABA6DA6 EQ PUSH2 0x73 JUMPI DUP1 PUSH4 0x3A994A8B EQ PUSH2 0x89 JUMPI DUP1 PUSH4 0x6355E754 EQ PUSH2 0xB6 JUMPI JUMPDEST PUSH0 DUP1 REVERT JUMPDEST CALLVALUE DUP1 ISZERO PUSH2 0x7E JUMPI PUSH0 DUP1 REVERT JUMPDEST POP PUSH2 0x87 PUSH2 0x178 JUMP JUMPDEST STOP JUMPDEST CALLVALUE DUP1 ISZERO PUSH2 0x94 JUMPI PUSH0 DUP1 REVERT JUMPDEST POP PUSH2 0x9D PUSH2 0x2F1 JUMP JUMPDEST PUSH1 0x40 MLOAD PUSH2 0xAD SWAP5 SWAP4 SWAP3 SWAP2 SWAP1 PUSH2 0x12D3 JUMP JUMPDEST PUSH1 0x40 MLOAD DUP1 SWAP2 SUB SWAP1 RETURN JUMPDEST CALLVALUE DUP1 ISZERO PUSH2 0xC1 JUMPI PUSH0 DUP1 REVERT JUMPDEST POP PUSH2 0xDC PUSH1 0x4 DUP1 CALLDATASIZE SUB DUP2 ADD SWAP1 PUSH2 0xD7 SWAP2 SWAP1 PUSH2 0x135F JUMP JUMPDEST PUSH2 0x687 JUMP JUMPDEST PUSH1 0x40 MLOAD PUSH2 0xE9 SWAP2 SWAP1 PUSH2 0x1399 JUMP JUMPDEST PUSH1 0x40 MLOAD DUP1 SWAP2 SUB SWAP1 RETURN JUMPDEST PUSH2 0x10C PUSH1 0x4 DUP1 CALLDATASIZE SUB DUP2 ADD SWAP1 PUSH2 0x107 SWAP2 SWAP1 PUSH2 0x15F8 JUMP JUMPDEST PUSH2 0x6B7 JUMP JUMPDEST STOP JUMPDEST CALLVALUE DUP1 ISZERO PUSH2 0x119 JUMPI PUSH0 DUP1 REVERT JUMPDEST POP PUSH2 0x134 PUSH1 0x4 DUP1 CALLDATASIZE SUB DUP2 ADD SWAP1 PUSH2 0x12F SWAP2 SWAP1 PUSH2 0x135F JUMP JUMPDEST PUSH2 0xB28 JUMP JUMPDEST PUSH1 0x40 MLOAD PUSH2 0x143 SWAP4 SWAP3 SWAP2 SWAP1 PUSH2 0x1688 JUMP JUMPDEST PUSH1 0x40 MLOAD DUP1 SWAP2 SUB SWAP1 RETURN JUMPDEST CALLVALUE DUP1 ISZERO PUSH2 0x157 JUMPI PUSH0 DUP1 REVERT JUMPDEST POP PUSH2 0x160 PUSH2 0xB76 JUMP JUMPDEST STOP JUMPDEST CALLVALUE DUP1 ISZERO PUSH2 0x16D JUMPI PUSH0 DUP1 REVERT JUMPDEST POP PUSH2 0x176 PUSH2 0xC7E JUMP JUMPDEST STOP JUMPDEST PUSH0 CALLER SWAP1 POP PUSH0 CALLER PUSH20 0xFFFFFFFFFFFFFFFFFFFFFFFFFFFFFFFFFFFFFFFF AND PUSH0 DUP1 DUP5 PUSH20 0xFFFFFFFFFFFFFFFFFFFFFFFFFFFFFFFFFFFFFFFF AND PUSH20 0xFFFFFFFFFFFFFFFFFFFFFFFFFFFFFFFFFFFFFFFF AND DUP2 MSTORE PUSH1 0x20 ADD SWAP1 DUP2 MSTORE PUSH1 0x20 ADD PUSH0 KECCAK256 PUSH1 0x2 ADD SLOAD PUSH1 0x40 MLOAD PUSH2 0x1E0 SWAP1 PUSH2 0x16EA JUMP JUMPDEST PUSH0 PUSH1 0x40 MLOAD DUP1 DUP4 SUB DUP2 DUP6 DUP8 GAS CALL SWAP3 POP POP POP RETURNDATASIZE DUP1 PUSH0 DUP2 EQ PUSH2 0x21A JUMPI PUSH1 0x40 MLOAD SWAP2 POP PUSH1 0x1F NOT PUSH1 0x3F RETURNDATASIZE ADD AND DUP3 ADD PUSH1 0x40 MSTORE RETURNDATASIZE DUP3 MSTORE RETURNDATASIZE PUSH0 PUSH1 0x20 DUP5 ADD RETURNDATACOPY PUSH2 0x21F JUMP JUMPDEST PUSH1 0x60 SWAP2 POP JUMPDEST POP POP SWAP1 POP DUP1 PUSH2 0x263 JUMPI PUSH1 0x40 MLOAD PUSH32 0x8C379A000000000000000000000000000000000000000000000000000000000 DUP2 MSTORE PUSH1 0x4 ADD PUSH2 0x25A SWAP1 PUSH2 0x177E JUMP JUMPDEST PUSH1 0x40 MLOAD DUP1 SWAP2 SUB SWAP1 REVERT JUMPDEST PUSH0 DUP1 DUP4 PUSH20 0xFFFFFFFFFFFFFFFFFFFFFFFFFFFFFFFFFFFFFFFF AND PUSH20 0xFFFFFFFFFFFFFFFFFFFFFFFFFFFFFFFFFFFFFFFF AND DUP2 MSTORE PUSH1 0x20 ADD SWAP1 DUP2 MSTORE PUSH1 0x20 ADD PUSH0 KECCAK256 PUSH0 DUP1 DUP3 ADD PUSH0 PUSH2 0x2AE SWAP2 SWAP1 PUSH2 0x106C JUMP JUMPDEST PUSH1 0x1 DUP3 ADD PUSH0 PUSH2 0x100 EXP DUP2 SLOAD SWAP1 PUSH1 0xFF MUL NOT AND SWAP1 SSTORE PUSH1 0x1 DUP3 ADD PUSH1 0x1 PUSH2 0x100 EXP DUP2 SLOAD SWAP1 PUSH16 0xFFFFFFFFFFFFFFFFFFFFFFFFFFFFFFFF MUL NOT AND SWAP1 SSTORE PUSH1 0x2 DUP3 ADD PUSH0 SWAP1 SSTORE POP POP POP POP JUMP JUMPDEST PUSH1 0x60 DUP1 PUSH0 DUP1 PUSH0 CALLER SWAP1 POP PUSH0 DUP1 PUSH0 DUP4 PUSH20 0xFFFFFFFFFFFFFFFFFFFFFFFFFFFFFFFFFFFFFFFF AND PUSH20 0xFFFFFFFFFFFFFFFFFFFFFFFFFFFFFFFFFFFFFFFF AND DUP2 MSTORE PUSH1 0x20 ADD SWAP1 DUP2 MSTORE PUSH1 0x20 ADD PUSH0 KECCAK256 PUSH1 0x40 MLOAD DUP1 PUSH1 0x80 ADD PUSH1 0x40 MSTORE SWAP1 DUP2 PUSH0 DUP3 ADD DUP1 SLOAD DUP1 PUSH1 0x20 MUL PUSH1 0x20 ADD PUSH1 0x40 MLOAD SWAP1 DUP2 ADD PUSH1 0x40 MSTORE DUP1 SWAP3 SWAP2 SWAP1 DUP2 DUP2 MSTORE PUSH1 0x20 ADD PUSH0 SWAP1 JUMPDEST DUP3 DUP3 LT ISZERO PUSH2 0x416 JUMPI DUP4 DUP3 SWAP1 PUSH0 MSTORE PUSH1 0x20 PUSH0 KECCAK256 ADD PUSH1 0x40 MLOAD DUP1 PUSH1 0x40 ADD PUSH1 0x40 MSTORE SWAP1 DUP2 PUSH0 DUP3 ADD PUSH0 SWAP1 SLOAD SWAP1 PUSH2 0x100 EXP SWAP1 DIV PUSH20 0xFFFFFFFFFFFFFFFFFFFFFFFFFFFFFFFFFFFFFFFF AND PUSH20 0xFFFFFFFFFFFFFFFFFFFFFFFFFFFFFFFFFFFFFFFF AND PUSH20 0xFFFFFFFFFFFFFFFFFFFFFFFFFFFFFFFFFFFFFFFF AND DUP2 MSTORE PUSH1 0x20 ADD PUSH0 DUP3 ADD PUSH1 0x14 SWAP1 SLOAD SWAP1 PUSH2 0x100 EXP SWAP1 DIV PUSH8 0xFFFFFFFFFFFFFFFF AND PUSH8 0xFFFFFFFFFFFFFFFF AND PUSH8 0xFFFFFFFFFFFFFFFF AND DUP2 MSTORE POP POP DUP2 MSTORE PUSH1 0x20 ADD SWAP1 PUSH1 0x1 ADD SWAP1 PUSH2 0x365 JUMP JUMPDEST POP POP POP POP DUP2 MSTORE PUSH1 0x20 ADD PUSH1 0x1 DUP3 ADD PUSH0 SWAP1 SLOAD SWAP1 PUSH2 0x100 EXP SWAP1 DIV PUSH1 0xFF AND ISZERO ISZERO ISZERO ISZERO DUP2 MSTORE PUSH1 0x20 ADD PUSH1 0x1 DUP3 ADD PUSH1 0x1 SWAP1 SLOAD SWAP1 PUSH2 0x100 EXP SWAP1 DIV PUSH16 0xFFFFFFFFFFFFFFFFFFFFFFFFFFFFFFFF AND PUSH16 0xFFFFFFFFFFFFFFFFFFFFFFFFFFFFFFFF AND PUSH16 0xFFFFFFFFFFFFFFFFFFFFFFFFFFFFFFFF AND DUP2 MSTORE PUSH1 0x20 ADD PUSH1 0x2 DUP3 ADD SLOAD DUP2 MSTORE POP POP SWAP1 POP DUP1 PUSH1 0x20 ADD MLOAD PUSH2 0x4D2 JUMPI PUSH1 0x40 MLOAD PUSH32 0x8C379A000000000000000000000000000000000000000000000000000000000 DUP2 MSTORE PUSH1 0x4 ADD PUSH2 0x4C9 SWAP1 PUSH2 0x17E6 JUMP JUMPDEST PUSH1 0x40 MLOAD DUP1 SWAP2 SUB SWAP1 REVERT JUMPDEST PUSH0 DUP2 PUSH0 ADD MLOAD MLOAD PUSH8 0xFFFFFFFFFFFFFFFF DUP2 GT ISZERO PUSH2 0x4F1 JUMPI PUSH2 0x4F0 PUSH2 0x13C6 JUMP JUMPDEST JUMPDEST PUSH1 0x40 MLOAD SWAP1 DUP1 DUP3 MSTORE DUP1 PUSH1 0x20 MUL PUSH1 0x20 ADD DUP3 ADD PUSH1 0x40 MSTORE DUP1 ISZERO PUSH2 0x51F JUMPI DUP2 PUSH1 0x20 ADD PUSH1 0x20 DUP3 MUL DUP1 CALLDATASIZE DUP4 CALLDATACOPY DUP1 DUP3 ADD SWAP2 POP POP SWAP1 POP JUMPDEST POP SWAP1 POP PUSH0 DUP3 PUSH0 ADD MLOAD MLOAD PUSH8 0xFFFFFFFFFFFFFFFF DUP2 GT ISZERO PUSH2 0x541 JUMPI PUSH2 0x540 PUSH2 0x13C6 JUMP JUMPDEST JUMPDEST PUSH1 0x40 MLOAD SWAP1 DUP1 DUP3 MSTORE DUP1 PUSH1 0x20 MUL PUSH1 0x20 ADD DUP3 ADD PUSH1 0x40 MSTORE DUP1 ISZERO PUSH2 0x56F JUMPI DUP2 PUSH1 0x20 ADD PUSH1 0x20 DUP3 MUL DUP1 CALLDATASIZE DUP4 CALLDATACOPY DUP1 DUP3 ADD SWAP2 POP POP SWAP1 POP JUMPDEST POP SWAP1 POP PUSH0 JUMPDEST DUP4 PUSH0 ADD MLOAD MLOAD DUP2 PUSH8 0xFFFFFFFFFFFFFFFF AND LT ISZERO PUSH2 0x668 JUMPI PUSH0 DUP5 PUSH0 ADD MLOAD DUP3 PUSH8 0xFFFFFFFFFFFFFFFF AND DUP2 MLOAD DUP2 LT PUSH2 0x5AB JUMPI PUSH2 0x5AA PUSH2 0x1804 JUMP JUMPDEST JUMPDEST PUSH1 0x20 MUL PUSH1 0x20 ADD ADD MLOAD SWAP1 POP DUP1 PUSH0 ADD MLOAD DUP5 DUP4 PUSH8 0xFFFFFFFFFFFFFFFF AND DUP2 MLOAD DUP2 LT PUSH2 0x5D6 JUMPI PUSH2 0x5D5 PUSH2 0x1804 JUMP JUMPDEST JUMPDEST PUSH1 0x20 MUL PUSH1 0x20 ADD ADD SWAP1 PUSH20 0xFFFFFFFFFFFFFFFFFFFFFFFFFFFFFFFFFFFFFFFF AND SWAP1 DUP2 PUSH20 0xFFFFFFFFFFFFFFFFFFFFFFFFFFFFFFFFFFFFFFFF AND DUP2 MSTORE POP POP DUP1 PUSH1 0x20 ADD MLOAD DUP4 DUP4 PUSH8 0xFFFFFFFFFFFFFFFF AND DUP2 MLOAD DUP2 LT PUSH2 0x632 JUMPI PUSH2 0x631 PUSH2 0x1804 JUMP JUMPDEST JUMPDEST PUSH1 0x20 MUL PUSH1 0x20 ADD ADD SWAP1 PUSH8 0xFFFFFFFFFFFFFFFF AND SWAP1 DUP2 PUSH8 0xFFFFFFFFFFFFFFFF AND DUP2 MSTORE POP POP POP DUP1 DUP1 PUSH2 0x660 SWAP1 PUSH2 0x185E JUMP JUMPDEST SWAP2 POP POP PUSH2 0x574 JUMP JUMPDEST POP DUP2 DUP2 DUP5 PUSH1 0x40 ADD MLOAD DUP6 PUSH1 0x60 ADD MLOAD SWAP8 POP SWAP8 POP SWAP8 POP SWAP8 POP POP POP POP POP SWAP1 SWAP2 SWAP3 SWAP4 JUMP JUMPDEST PUSH1 0x1 PUSH1 0x20 MSTORE DUP1 PUSH0 MSTORE PUSH1 0x40 PUSH0 KECCAK256 PUSH0 SWAP2 POP SLOAD SWAP1 PUSH2 0x100 EXP SWAP1 DIV PUSH20 0xFFFFFFFFFFFFFFFFFFFFFFFFFFFFFFFFFFFFFFFF AND DUP2 JUMP JUMPDEST PUSH0 CALLVALUE SUB PUSH2 0x6F9 JUMPI PUSH1 0x40 MLOAD PUSH32 0x8C379A000000000000000000000000000000000000000000000000000000000 DUP2 MSTORE PUSH1 0x4 ADD PUSH2 0x6F0 SWAP1 PUSH2 0x18FD JUMP JUMPDEST PUSH1 0x40 MLOAD DUP1 SWAP2 SUB SWAP1 REVERT JUMPDEST PUSH0 DUP3 MLOAD SUB PUSH2 0x73C JUMPI PUSH1 0x40 MLOAD PUSH32 0x8C379A000000000000000000000000000000000000000000000000000000000 DUP2 MSTORE PUSH1 0x4 ADD PUSH2 0x733 SWAP1 PUSH2 0x198B JUMP JUMPDEST PUSH1 0x40 MLOAD DUP1 SWAP2 SUB SWAP1 REVERT JUMPDEST DUP1 MLOAD DUP3 MLOAD EQ PUSH2 0x780 JUMPI PUSH1 0x40 MLOAD PUSH32 0x8C379A000000000000000000000000000000000000000000000000000000000 DUP2 MSTORE PUSH1 0x4 ADD PUSH2 0x777 SWAP1 PUSH2 0x1A3F JUMP JUMPDEST PUSH1 0x40 MLOAD DUP1 SWAP2 SUB SWAP1 REVERT JUMPDEST PUSH0 CALLER SWAP1 POP PUSH0 DUP1 DUP3 PUSH20 0xFFFFFFFFFFFFFFFFFFFFFFFFFFFFFFFFFFFFFFFF AND PUSH20 0xFFFFFFFFFFFFFFFFFFFFFFFFFFFFFFFFFFFFFFFF AND DUP2 MSTORE PUSH1 0x20 ADD SWAP1 DUP2 MSTORE PUSH1 0x20 ADD PUSH0 KECCAK256 PUSH1 0x1 ADD PUSH0 SWAP1 SLOAD SWAP1 PUSH2 0x100 EXP SWAP1 DIV PUSH1 0xFF AND ISZERO PUSH2 0x81F JUMPI PUSH0 DUP1 DUP3 PUSH20 0xFFFFFFFFFFFFFFFFFFFFFFFFFFFFFFFFFFFFFFFF AND PUSH20 0xFFFFFFFFFFFFFFFFFFFFFFFFFFFFFFFFFFFFFFFF AND DUP2 MSTORE PUSH1 0x20 ADD SWAP1 DUP2 MSTORE PUSH1 0x20 ADD PUSH0 KECCAK256 PUSH0 ADD PUSH0 PUSH2 0x81E SWAP2 SWAP1 PUSH2 0x106C JUMP JUMPDEST JUMPDEST PUSH0 JUMPDEST DUP4 MLOAD DUP2 LT ISZERO PUSH2 0xA11 JUMPI PUSH0 PUSH1 0x40 MLOAD DUP1 PUSH1 0x40 ADD PUSH1 0x40 MSTORE DUP1 DUP7 DUP5 DUP2 MLOAD DUP2 LT PUSH2 0x849 JUMPI PUSH2 0x848 PUSH2 0x1804 JUMP JUMPDEST JUMPDEST PUSH1 0x20 MUL PUSH1 0x20 ADD ADD MLOAD PUSH20 0xFFFFFFFFFFFFFFFFFFFFFFFFFFFFFFFFFFFFFFFF AND DUP2 MSTORE PUSH1 0x20 ADD DUP6 DUP5 DUP2 MLOAD DUP2 LT PUSH2 0x87F JUMPI PUSH2 0x87E PUSH2 0x1804 JUMP JUMPDEST JUMPDEST PUSH1 0x20 MUL PUSH1 0x20 ADD ADD MLOAD PUSH1 0xFF AND PUSH8 0xFFFFFFFFFFFFFFFF AND DUP2 MSTORE POP SWAP1 POP DUP3 PUSH1 0x1 PUSH0 DUP8 DUP6 DUP2 MLOAD DUP2 LT PUSH2 0x8B0 JUMPI PUSH2 0x8AF PUSH2 0x1804 JUMP JUMPDEST JUMPDEST PUSH1 0x20 MUL PUSH1 0x20 ADD ADD MLOAD PUSH20 0xFFFFFFFFFFFFFFFFFFFFFFFFFFFFFFFFFFFFFFFF AND PUSH20 0xFFFFFFFFFFFFFFFFFFFFFFFFFFFFFFFFFFFFFFFF AND DUP2 MSTORE PUSH1 0x20 ADD SWAP1 DUP2 MSTORE PUSH1 0x20 ADD PUSH0 KECCAK256 PUSH0 PUSH2 0x100 EXP DUP2 SLOAD DUP2 PUSH20 0xFFFFFFFFFFFFFFFFFFFFFFFFFFFFFFFFFFFFFFFF MUL NOT AND SWAP1 DUP4 PUSH20 0xFFFFFFFFFFFFFFFFFFFFFFFFFFFFFFFFFFFFFFFF AND MUL OR SWAP1 SSTORE POP PUSH0 DUP1 DUP5 PUSH20 0xFFFFFFFFFFFFFFFFFFFFFFFFFFFFFFFFFFFFFFFF AND PUSH20 0xFFFFFFFFFFFFFFFFFFFFFFFFFFFFFFFFFFFFFFFF AND DUP2 MSTORE PUSH1 0x20 ADD SWAP1 DUP2 MSTORE PUSH1 0x20 ADD PUSH0 KECCAK256 PUSH0 ADD DUP2 SWAP1 DUP1 PUSH1 0x1 DUP2 SLOAD ADD DUP1 DUP3 SSTORE DUP1 SWAP2 POP POP PUSH1 0x1 SWAP1 SUB SWAP1 PUSH0 MSTORE PUSH1 0x20 PUSH0 KECCAK256 ADD PUSH0 SWAP1 SWAP2 SWAP1 SWAP2 SWAP1 SWAP2 POP PUSH0 DUP3 ADD MLOAD DUP2 PUSH0 ADD PUSH0 PUSH2 0x100 EXP DUP2 SLOAD DUP2 PUSH20 0xFFFFFFFFFFFFFFFFFFFFFFFFFFFFFFFFFFFFFFFF MUL NOT AND SWAP1 DUP4 PUSH20 0xFFFFFFFFFFFFFFFFFFFFFFFFFFFFFFFFFFFFFFFF AND MUL OR SWAP1 SSTORE POP PUSH1 0x20 DUP3 ADD MLOAD DUP2 PUSH0 ADD PUSH1 0x14 PUSH2 0x100 EXP DUP2 SLOAD DUP2 PUSH8 0xFFFFFFFFFFFFFFFF MUL NOT AND SWAP1 DUP4 PUSH8 0xFFFFFFFFFFFFFFFF AND MUL OR SWAP1 SSTORE POP POP POP POP DUP1 DUP1 PUSH1 0x1 ADD SWAP2 POP POP PUSH2 0x821 JUMP JUMPDEST POP PUSH1 0x1 PUSH0 DUP1 DUP4 PUSH20 0xFFFFFFFFFFFFFFFFFFFFFFFFFFFFFFFFFFFFFFFF AND PUSH20 0xFFFFFFFFFFFFFFFFFFFFFFFFFFFFFFFFFFFFFFFF AND DUP2 MSTORE PUSH1 0x20 ADD SWAP1 DUP2 MSTORE PUSH1 0x20 ADD PUSH0 KECCAK256 PUSH1 0x1 ADD PUSH0 PUSH2 0x100 EXP DUP2 SLOAD DUP2 PUSH1 0xFF MUL NOT AND SWAP1 DUP4 ISZERO ISZERO MUL OR SWAP1 SSTORE POP TIMESTAMP PUSH0 DUP1 DUP4 PUSH20 0xFFFFFFFFFFFFFFFFFFFFFFFFFFFFFFFFFFFFFFFF AND PUSH20 0xFFFFFFFFFFFFFFFFFFFFFFFFFFFFFFFFFFFFFFFF AND DUP2 MSTORE PUSH1 0x20 ADD SWAP1 DUP2 MSTORE PUSH1 0x20 ADD PUSH0 KECCAK256 PUSH1 0x1 ADD PUSH1 0x1 PUSH2 0x100 EXP DUP2 SLOAD DUP2 PUSH16 0xFFFFFFFFFFFFFFFFFFFFFFFFFFFFFFFF MUL NOT AND SWAP1 DUP4 PUSH16 0xFFFFFFFFFFFFFFFFFFFFFFFFFFFFFFFF AND MUL OR SWAP1 SSTORE POP CALLVALUE PUSH0 DUP1 DUP4 PUSH20 0xFFFFFFFFFFFFFFFFFFFFFFFFFFFFFFFFFFFFFFFF AND PUSH20 0xFFFFFFFFFFFFFFFFFFFFFFFFFFFFFFFFFFFFFFFF AND DUP2 MSTORE PUSH1 0x20 ADD SWAP1 DUP2 MSTORE PUSH1 0x20 ADD PUSH0 KECCAK256 PUSH1 0x2 ADD DUP2 SWAP1 SSTORE POP POP POP POP JUMP JUMPDEST PUSH0 PUSH1 0x20 MSTORE DUP1 PUSH0 MSTORE PUSH1 0x40 PUSH0 KECCAK256 PUSH0 SWAP2 POP SWAP1 POP DUP1 PUSH1 0x1 ADD PUSH0 SWAP1 SLOAD SWAP1 PUSH2 0x100 EXP SWAP1 DIV PUSH1 0xFF AND SWAP1 DUP1 PUSH1 0x1 ADD PUSH1 0x1 SWAP1 SLOAD SWAP1 PUSH2 0x100 EXP SWAP1 DIV PUSH16 0xFFFFFFFFFFFFFFFFFFFFFFFFFFFFFFFF AND SWAP1 DUP1 PUSH1 0x2 ADD SLOAD SWAP1 POP DUP4 JUMP JUMPDEST PUSH0 CALLER SWAP1 POP PUSH0 DUP1 DUP3 PUSH20 0xFFFFFFFFFFFFFFFFFFFFFFFFFFFFFFFFFFFFFFFF AND PUSH20 0xFFFFFFFFFFFFFFFFFFFFFFFFFFFFFFFFFFFFFFFF AND DUP2 MSTORE PUSH1 0x20 ADD SWAP1 DUP2 MSTORE PUSH1 0x20 ADD PUSH0 KECCAK256 PUSH1 0x1 ADD PUSH0 SWAP1 SLOAD SWAP1 PUSH2 0x100 EXP SWAP1 DIV PUSH1 0xFF AND PUSH2 0xC05 JUMPI PUSH1 0x40 MLOAD PUSH32 0x8C379A000000000000000000000000000000000000000000000000000000000 DUP2 MSTORE PUSH1 0x4 ADD PUSH2 0xBFC SWAP1 PUSH2 0x1AA7 JUMP JUMPDEST PUSH1 0x40 MLOAD DUP1 SWAP2 SUB SWAP1 REVERT JUMPDEST TIMESTAMP PUSH0 DUP1 DUP4 PUSH20 0xFFFFFFFFFFFFFFFFFFFFFFFFFFFFFFFFFFFFFFFF AND PUSH20 0xFFFFFFFFFFFFFFFFFFFFFFFFFFFFFFFFFFFFFFFF AND DUP2 MSTORE PUSH1 0x20 ADD SWAP1 DUP2 MSTORE PUSH1 0x20 ADD PUSH0 KECCAK256 PUSH1 0x1 ADD PUSH1 0x1 PUSH2 0x100 EXP DUP2 SLOAD DUP2 PUSH16 0xFFFFFFFFFFFFFFFFFFFFFFFFFFFFFFFF MUL NOT AND SWAP1 DUP4 PUSH16 0xFFFFFFFFFFFFFFFFFFFFFFFFFFFFFFFF AND MUL OR SWAP1 SSTORE POP POP JUMP JUMPDEST PUSH0 CALLER SWAP1 POP PUSH0 PUSH1 0x1 PUSH0 DUP4 PUSH20 0xFFFFFFFFFFFFFFFFFFFFFFFFFFFFFFFFFFFFFFFF AND PUSH20 0xFFFFFFFFFFFFFFFFFFFFFFFFFFFFFFFFFFFFFFFF AND DUP2 MSTORE PUSH1 0x20 ADD SWAP1 DUP2 MSTORE PUSH1 0x20 ADD PUSH0 KECCAK256 PUSH0 SWAP1 SLOAD SWAP1 PUSH2 0x100 EXP SWAP1 DIV PUSH20 0xFFFFFFFFFFFFFFFFFFFFFFFFFFFFFFFFFFFFFFFF AND SWAP1 POP PUSH0 PUSH20 0xFFFFFFFFFFFFFFFFFFFFFFFFFFFFFFFFFFFFFFFF AND DUP2 PUSH20 0xFFFFFFFFFFFFFFFFFFFFFFFFFFFFFFFFFFFFFFFF AND SUB PUSH2 0xD50 JUMPI PUSH1 0x40 MLOAD PUSH32 0x8C379A000000000000000000000000000000000000000000000000000000000 DUP2 MSTORE PUSH1 0x4 ADD PUSH2 0xD47 SWAP1 PUSH2 0x1B35 JUMP JUMPDEST PUSH1 0x40 MLOAD DUP1 SWAP2 SUB SWAP1 REVERT JUMPDEST PUSH0 DUP1 DUP3 PUSH20 0xFFFFFFFFFFFFFFFFFFFFFFFFFFFFFFFFFFFFFFFF AND PUSH20 0xFFFFFFFFFFFFFFFFFFFFFFFFFFFFFFFFFFFFFFFF AND DUP2 MSTORE PUSH1 0x20 ADD SWAP1 DUP2 MSTORE PUSH1 0x20 ADD PUSH0 KECCAK256 PUSH1 0x1 ADD PUSH0 SWAP1 SLOAD SWAP1 PUSH2 0x100 EXP SWAP1 DIV PUSH1 0xFF AND PUSH2 0xDDB JUMPI PUSH1 0x40 MLOAD PUSH32 0x8C379A000000000000000000000000000000000000000000000000000000000 DUP2 MSTORE PUSH1 0x4 ADD PUSH2 0xDD2 SWAP1 PUSH2 0x1B9D JUMP JUMPDEST PUSH1 0x40 MLOAD DUP1 SWAP2 SUB SWAP1 REVERT JUMPDEST PUSH0 DUP1 PUSH0 DUP4 PUSH20 0xFFFFFFFFFFFFFFFFFFFFFFFFFFFFFFFFFFFFFFFF AND PUSH20 0xFFFFFFFFFFFFFFFFFFFFFFFFFFFFFFFFFFFFFFFF AND DUP2 MSTORE PUSH1 0x20 ADD SWAP1 DUP2 MSTORE PUSH1 0x20 ADD PUSH0 KECCAK256 PUSH1 0x40 MLOAD DUP1 PUSH1 0x80 ADD PUSH1 0x40 MSTORE SWAP1 DUP2 PUSH0 DUP3 ADD DUP1 SLOAD DUP1 PUSH1 0x20 MUL PUSH1 0x20 ADD PUSH1 0x40 MLOAD SWAP1 DUP2 ADD PUSH1 0x40 MSTORE DUP1 SWAP3 SWAP2 SWAP1 DUP2 DUP2 MSTORE PUSH1 0x20 ADD PUSH0 SWAP1 JUMPDEST DUP3 DUP3 LT ISZERO PUSH2 0xEF7 JUMPI DUP4 DUP3 SWAP1 PUSH0 MSTORE PUSH1 0x20 PUSH0 KECCAK256 ADD PUSH1 0x40 MLOAD DUP1 PUSH1 0x40 ADD PUSH1 0x40 MSTORE SWAP1 DUP2 PUSH0 DUP3 ADD PUSH0 SWAP1 SLOAD SWAP1 PUSH2 0x100 EXP SWAP1 DIV PUSH20 0xFFFFFFFFFFFFFFFFFFFFFFFFFFFFFFFFFFFFFFFF AND PUSH20 0xFFFFFFFFFFFFFFFFFFFFFFFFFFFFFFFFFFFFFFFF AND PUSH20 0xFFFFFFFFFFFFFFFFFFFFFFFFFFFFFFFFFFFFFFFF AND DUP2 MSTORE PUSH1 0x20 ADD PUSH0 DUP3 ADD PUSH1 0x14 SWAP1 SLOAD SWAP1 PUSH2 0x100 EXP SWAP1 DIV PUSH8 0xFFFFFFFFFFFFFFFF AND PUSH8 0xFFFFFFFFFFFFFFFF AND PUSH8 0xFFFFFFFFFFFFFFFF AND DUP2 MSTORE POP POP DUP2 MSTORE PUSH1 0x20 ADD SWAP1 PUSH1 0x1 ADD SWAP1 PUSH2 0xE46 JUMP JUMPDEST POP POP POP POP DUP2 MSTORE PUSH1 0x20 ADD PUSH1 0x1 DUP3 ADD PUSH0 SWAP1 SLOAD SWAP1 PUSH2 0x100 EXP SWAP1 DIV PUSH1 0xFF AND ISZERO ISZERO ISZERO ISZERO DUP2 MSTORE PUSH1 0x20 ADD PUSH1 0x1 DUP3 ADD PUSH1 0x1 SWAP1 SLOAD SWAP1 PUSH2 0x100 EXP SWAP1 DIV PUSH16 0xFFFFFFFFFFFFFFFFFFFFFFFFFFFFFFFF AND PUSH16 0xFFFFFFFFFFFFFFFFFFFFFFFFFFFFFFFF AND PUSH16 0xFFFFFFFFFFFFFFFFFFFFFFFFFFFFFFFF AND DUP2 MSTORE PUSH1 0x20 ADD PUSH1 0x2 DUP3 ADD SLOAD DUP2 MSTORE POP POP SWAP1 POP PUSH0 JUMPDEST DUP1 DUP3 PUSH0 ADD MLOAD MLOAD LT PUSH2 0x1066 JUMPI DUP2 PUSH0 ADD MLOAD DUP2 DUP2 MLOAD DUP2 LT PUSH2 0xF92 JUMPI PUSH2 0xF91 PUSH2 0x1804 JUMP JUMPDEST JUMPDEST PUSH1 0x20 MUL PUSH1 0x20 ADD ADD MLOAD PUSH0 ADD MLOAD PUSH20 0xFFFFFFFFFFFFFFFFFFFFFFFFFFFFFFFFFFFFFFFF AND DUP5 PUSH20 0xFFFFFFFFFFFFFFFFFFFFFFFFFFFFFFFFFFFFFFFF AND SUB PUSH2 0x1053 JUMPI PUSH0 DUP3 PUSH1 0x60 ADD MLOAD DUP4 PUSH0 ADD MLOAD DUP4 DUP2 MLOAD DUP2 LT PUSH2 0xFEB JUMPI PUSH2 0xFEA PUSH2 0x1804 JUMP JUMPDEST JUMPDEST PUSH1 0x20 MUL PUSH1 0x20 ADD ADD MLOAD PUSH1 0x20 ADD MLOAD PUSH8 0xFFFFFFFFFFFFFFFF AND PUSH2 0x100B SWAP2 SWAP1 PUSH2 0x1BBB JUMP JUMPDEST SWAP1 POP CALLER PUSH20 0xFFFFFFFFFFFFFFFFFFFFFFFFFFFFFFFFFFFFFFFF AND PUSH2 0x8FC DUP3 SWAP1 DUP2 ISZERO MUL SWAP1 PUSH1 0x40 MLOAD PUSH0 PUSH1 0x40 MLOAD DUP1 DUP4 SUB DUP2 DUP6 DUP9 DUP9 CALL SWAP4 POP POP POP POP ISZERO DUP1 ISZERO PUSH2 0x1050 JUMPI RETURNDATASIZE PUSH0 DUP1 RETURNDATACOPY RETURNDATASIZE PUSH0 REVERT JUMPDEST POP POP JUMPDEST DUP1 DUP1 PUSH2 0x105E SWAP1 PUSH2 0x1BFC JUMP JUMPDEST SWAP2 POP POP PUSH2 0xF71 JUMP JUMPDEST POP POP POP POP JUMP JUMPDEST POP DUP1 SLOAD PUSH0 DUP3 SSTORE SWAP1 PUSH0 MSTORE PUSH1 0x20 PUSH0 KECCAK256 SWAP1 DUP2 ADD SWAP1 PUSH2 0x1087 SWAP2 SWAP1 PUSH2 0x108A JUMP JUMPDEST POP JUMP JUMPDEST JUMPDEST DUP1 DUP3 GT ISZERO PUSH2 0x10DC JUMPI PUSH0 DUP1 DUP3 ADD PUSH0 PUSH2 0x100 EXP DUP2 SLOAD SWAP1 PUSH20 0xFFFFFFFFFFFFFFFFFFFFFFFFFFFFFFFFFFFFFFFF MUL NOT AND SWAP1 SSTORE PUSH0 DUP3 ADD PUSH1 0x14 PUSH2 0x100 EXP DUP2 SLOAD SWAP1 PUSH8 0xFFFFFFFFFFFFFFFF MUL NOT AND SWAP1 SSTORE POP PUSH1 0x1 ADD PUSH2 0x108B JUMP JUMPDEST POP SWAP1 JUMP JUMPDEST PUSH0 DUP2 MLOAD SWAP1 POP SWAP2 SWAP1 POP JUMP JUMPDEST PUSH0 DUP3 DUP3 MSTORE PUSH1 0x20 DUP3 ADD SWAP1 POP SWAP3 SWAP2 POP POP JUMP JUMPDEST PUSH0 DUP2 SWAP1 POP PUSH1 0x20 DUP3 ADD SWAP1 POP SWAP2 SWAP1 POP JUMP JUMPDEST PUSH0 PUSH20 0xFFFFFFFFFFFFFFFFFFFFFFFFFFFFFFFFFFFFFFFF DUP3 AND SWAP1 POP SWAP2 SWAP1 POP JUMP JUMPDEST PUSH0 PUSH2 0x1132 DUP3 PUSH2 0x1109 JUMP JUMPDEST SWAP1 POP SWAP2 SWAP1 POP JUMP JUMPDEST PUSH2 0x1142 DUP2 PUSH2 0x1128 JUMP JUMPDEST DUP3 MSTORE POP POP JUMP JUMPDEST PUSH0 PUSH2 0x1153 DUP4 DUP4 PUSH2 0x1139 JUMP JUMPDEST PUSH1 0x20 DUP4 ADD SWAP1 POP SWAP3 SWAP2 POP POP JUMP JUMPDEST PUSH0 PUSH1 0x20 DUP3 ADD SWAP1 POP SWAP2 SWAP1 POP JUMP JUMPDEST PUSH0 PUSH2 0x1175 DUP3 PUSH2 0x10E0 JUMP JUMPDEST PUSH2 0x117F DUP2 DUP6 PUSH2 0x10EA JUMP JUMPDEST SWAP4 POP PUSH2 0x118A DUP4 PUSH2 0x10FA JUMP JUMPDEST DUP1 PUSH0 JUMPDEST DUP4 DUP2 LT ISZERO PUSH2 0x11BA JUMPI DUP2 MLOAD PUSH2 0x11A1 DUP9 DUP3 PUSH2 0x1148 JUMP JUMPDEST SWAP8 POP PUSH2 0x11AC DUP4 PUSH2 0x115F JUMP JUMPDEST SWAP3 POP POP PUSH1 0x1 DUP2 ADD SWAP1 POP PUSH2 0x118D JUMP JUMPDEST POP DUP6 SWAP4 POP POP POP POP SWAP3 SWAP2 POP POP JUMP JUMPDEST PUSH0 DUP2 MLOAD SWAP1 POP SWAP2 SWAP1 POP JUMP JUMPDEST PUSH0 DUP3 DUP3 MSTORE PUSH1 0x20 DUP3 ADD SWAP1 POP SWAP3 SWAP2 POP POP JUMP JUMPDEST PUSH0 DUP2 SWAP1 POP PUSH1 0x20 DUP3 ADD SWAP1 POP SWAP2 SWAP1 POP JUMP JUMPDEST PUSH0 PUSH8 0xFFFFFFFFFFFFFFFF DUP3 AND SWAP1 POP SWAP2 SWAP1 POP JUMP JUMPDEST PUSH2 0x120C DUP2 PUSH2 0x11F0 JUMP JUMPDEST DUP3 MSTORE POP POP JUMP JUMPDEST PUSH0 PUSH2 0x121D DUP4 DUP4 PUSH2 0x1203 JUMP JUMPDEST PUSH1 0x20 DUP4 ADD SWAP1 POP SWAP3 SWAP2 POP POP JUMP JUMPDEST PUSH0 PUSH1 0x20 DUP3 ADD SWAP1 POP SWAP2 SWAP1 POP JUMP JUMPDEST PUSH0 PUSH2 0x123F DUP3 PUSH2 0x11C7 JUMP JUMPDEST PUSH2 0x1249 DUP2 DUP6 PUSH2 0x11D1 JUMP JUMPDEST SWAP4 POP PUSH2 0x1254 DUP4 PUSH2 0x11E1 JUMP JUMPDEST DUP1 PUSH0 JUMPDEST DUP4 DUP2 LT ISZERO PUSH2 0x1284 JUMPI DUP2 MLOAD PUSH2 0x126B DUP9 DUP3 PUSH2 0x1212 JUMP JUMPDEST SWAP8 POP PUSH2 0x1276 DUP4 PUSH2 0x1229 JUMP JUMPDEST SWAP3 POP POP PUSH1 0x1 DUP2 ADD SWAP1 POP PUSH2 0x1257 JUMP JUMPDEST POP DUP6 SWAP4 POP POP POP POP SWAP3 SWAP2 POP POP JUMP JUMPDEST PUSH0 PUSH16 0xFFFFFFFFFFFFFFFFFFFFFFFFFFFFFFFF DUP3 AND SWAP1 POP SWAP2 SWAP1 POP JUMP JUMPDEST PUSH2 0x12B5 DUP2 PUSH2 0x1291 JUMP JUMPDEST DUP3 MSTORE POP POP JUMP JUMPDEST PUSH0 DUP2 SWAP1 POP SWAP2 SWAP1 POP JUMP JUMPDEST PUSH2 0x12CD DUP2 PUSH2 0x12BB JUMP JUMPDEST DUP3 MSTORE POP POP JUMP JUMPDEST PUSH0 PUSH1 0x80 DUP3 ADD SWAP1 POP DUP2 DUP2 SUB PUSH0 DUP4 ADD MSTORE PUSH2 0x12EB DUP2 DUP8 PUSH2 0x116B JUMP JUMPDEST SWAP1 POP DUP2 DUP2 SUB PUSH1 0x20 DUP4 ADD MSTORE PUSH2 0x12FF DUP2 DUP7 PUSH2 0x1235 JUMP JUMPDEST SWAP1 POP PUSH2 0x130E PUSH1 0x40 DUP4 ADD DUP6 PUSH2 0x12AC JUMP JUMPDEST PUSH2 0x131B PUSH1 0x60 DUP4 ADD DUP5 PUSH2 0x12C4 JUMP JUMPDEST SWAP6 SWAP5 POP POP POP POP POP JUMP JUMPDEST PUSH0 PUSH1 0x40 MLOAD SWAP1 POP SWAP1 JUMP JUMPDEST PUSH0 DUP1 REVERT JUMPDEST PUSH0 DUP1 REVERT JUMPDEST PUSH2 0x133E DUP2 PUSH2 0x1128 JUMP JUMPDEST DUP2 EQ PUSH2 0x1348 JUMPI PUSH0 DUP1 REVERT JUMPDEST POP JUMP JUMPDEST PUSH0 DUP2 CALLDATALOAD SWAP1 POP PUSH2 0x1359 DUP2 PUSH2 0x1335 JUMP JUMPDEST SWAP3 SWAP2 POP POP JUMP JUMPDEST PUSH0 PUSH1 0x20 DUP3 DUP5 SUB SLT ISZERO PUSH2 0x1374 JUMPI PUSH2 0x1373 PUSH2 0x132D JUMP JUMPDEST JUMPDEST PUSH0 PUSH2 0x1381 DUP5 DUP3 DUP6 ADD PUSH2 0x134B JUMP JUMPDEST SWAP2 POP POP SWAP3 SWAP2 POP POP JUMP JUMPDEST PUSH2 0x1393 DUP2 PUSH2 0x1128 JUMP JUMPDEST DUP3 MSTORE POP POP JUMP JUMPDEST PUSH0 PUSH1 0x20 DUP3 ADD SWAP1 POP PUSH2 0x13AC PUSH0 DUP4 ADD DUP5 PUSH2 0x138A JUMP JUMPDEST SWAP3 SWAP2 POP POP JUMP JUMPDEST PUSH0 DUP1 REVERT JUMPDEST PUSH0 PUSH1 0x1F NOT PUSH1 0x1F DUP4 ADD AND SWAP1 POP SWAP2 SWAP1 POP JUMP JUMPDEST PUSH32 0x4E487B7100000000000000000000000000000000000000000000000000000000 PUSH0 MSTORE PUSH1 0x41 PUSH1 0x4 MSTORE PUSH1 0x24 PUSH0 REVERT JUMPDEST PUSH2 0x13FC DUP3 PUSH2 0x13B6 JUMP JUMPDEST DUP2 ADD DUP2 DUP2 LT PUSH8 0xFFFFFFFFFFFFFFFF DUP3 GT OR ISZERO PUSH2 0x141B JUMPI PUSH2 0x141A PUSH2 0x13C6 JUMP JUMPDEST JUMPDEST DUP1 PUSH1 0x40 MSTORE POP POP POP JUMP JUMPDEST PUSH0 PUSH2 0x142D PUSH2 0x1324 JUMP JUMPDEST SWAP1 POP PUSH2 0x1439 DUP3 DUP3 PUSH2 0x13F3 JUMP JUMPDEST SWAP2 SWAP1 POP JUMP JUMPDEST PUSH0 PUSH8 0xFFFFFFFFFFFFFFFF DUP3 GT ISZERO PUSH2 0x1458 JUMPI PUSH2 0x1457 PUSH2 0x13C6 JUMP JUMPDEST JUMPDEST PUSH1 0x20 DUP3 MUL SWAP1 POP PUSH1 0x20 DUP2 ADD SWAP1 POP SWAP2 SWAP1 POP JUMP JUMPDEST PUSH0 DUP1 REVERT JUMPDEST PUSH0 PUSH2 0x147F PUSH2 0x147A DUP5 PUSH2 0x143E JUMP JUMPDEST PUSH2 0x1424 JUMP JUMPDEST SWAP1 POP DUP1 DUP4 DUP3 MSTORE PUSH1 0x20 DUP3 ADD SWAP1 POP PUSH1 0x20 DUP5 MUL DUP4 ADD DUP6 DUP2 GT ISZERO PUSH2 0x14A2 JUMPI PUSH2 0x14A1 PUSH2 0x1469 JUMP JUMPDEST JUMPDEST DUP4 JUMPDEST DUP2 DUP2 LT ISZERO PUSH2 0x14CB JUMPI DUP1 PUSH2 0x14B7 DUP9 DUP3 PUSH2 0x134B JUMP JUMPDEST DUP5 MSTORE PUSH1 0x20 DUP5 ADD SWAP4 POP POP PUSH1 0x20 DUP2 ADD SWAP1 POP PUSH2 0x14A4 JUMP JUMPDEST POP POP POP SWAP4 SWAP3 POP POP POP JUMP JUMPDEST PUSH0 DUP3 PUSH1 0x1F DUP4 ADD SLT PUSH2 0x14E9 JUMPI PUSH2 0x14E8 PUSH2 0x13B2 JUMP JUMPDEST JUMPDEST DUP2 CALLDATALOAD PUSH2 0x14F9 DUP5 DUP3 PUSH1 0x20 DUP7 ADD PUSH2 0x146D JUMP JUMPDEST SWAP2 POP POP SWAP3 SWAP2 POP POP JUMP JUMPDEST PUSH0 PUSH8 0xFFFFFFFFFFFFFFFF DUP3 GT ISZERO PUSH2 0x151C JUMPI PUSH2 0x151B PUSH2 0x13C6 JUMP JUMPDEST JUMPDEST PUSH1 0x20 DUP3 MUL SWAP1 POP PUSH1 0x20 DUP2 ADD SWAP1 POP SWAP2 SWAP1 POP JUMP JUMPDEST PUSH0 PUSH1 0xFF DUP3 AND SWAP1 POP SWAP2 SWAP1 POP JUMP JUMPDEST PUSH2 0x1542 DUP2 PUSH2 0x152D JUMP JUMPDEST DUP2 EQ PUSH2 0x154C JUMPI PUSH0 DUP1 REVERT JUMPDEST POP JUMP JUMPDEST PUSH0 DUP2 CALLDATALOAD SWAP1 POP PUSH2 0x155D DUP2 PUSH2 0x1539 JUMP JUMPDEST SWAP3 SWAP2 POP POP JUMP JUMPDEST PUSH0 PUSH2 0x1575 PUSH2 0x1570 DUP5 PUSH2 0x1502 JUMP JUMPDEST PUSH2 0x1424 JUMP JUMPDEST SWAP1 POP DUP1 DUP4 DUP3 MSTORE PUSH1 0x20 DUP3 ADD SWAP1 POP PUSH1 0x20 DUP5 MUL DUP4 ADD DUP6 DUP2 GT ISZERO PUSH2 0x1598 JUMPI PUSH2 0x1597 PUSH2 0x1469 JUMP JUMPDEST JUMPDEST DUP4 JUMPDEST DUP2 DUP2 LT ISZERO PUSH2 0x15C1 JUMPI DUP1 PUSH2 0x15AD DUP9 DUP3 PUSH2 0x154F JUMP JUMPDEST DUP5 MSTORE PUSH1 0x20 DUP5 ADD SWAP4 POP POP PUSH1 0x20 DUP2 ADD SWAP1 POP PUSH2 0x159A JUMP JUMPDEST POP POP POP SWAP4 SWAP3 POP POP POP JUMP JUMPDEST PUSH0 DUP3 PUSH1 0x1F DUP4 ADD SLT PUSH2 0x15DF JUMPI PUSH2 0x15DE PUSH2 0x13B2 JUMP JUMPDEST JUMPDEST DUP2 CALLDATALOAD PUSH2 0x15EF DUP5 DUP3 PUSH1 0x20 DUP7 ADD PUSH2 0x1563 JUMP JUMPDEST SWAP2 POP POP SWAP3 SWAP2 POP POP JUMP JUMPDEST PUSH0 DUP1 PUSH1 0x40 DUP4 DUP6 SUB SLT ISZERO PUSH2 0x160E JUMPI PUSH2 0x160D PUSH2 0x132D JUMP JUMPDEST JUMPDEST PUSH0 DUP4 ADD CALLDATALOAD PUSH8 0xFFFFFFFFFFFFFFFF DUP2 GT ISZERO PUSH2 0x162B JUMPI PUSH2 0x162A PUSH2 0x1331 JUMP JUMPDEST JUMPDEST PUSH2 0x1637 DUP6 DUP3 DUP7 ADD PUSH2 0x14D5 JUMP JUMPDEST SWAP3 POP POP PUSH1 0x20 DUP4 ADD CALLDATALOAD PUSH8 0xFFFFFFFFFFFFFFFF DUP2 GT ISZERO PUSH2 0x1658 JUMPI PUSH2 0x1657 PUSH2 0x1331 JUMP JUMPDEST JUMPDEST PUSH2 0x1664 DUP6 DUP3 DUP7 ADD PUSH2 0x15CB JUMP JUMPDEST SWAP2 POP POP SWAP3 POP SWAP3 SWAP1 POP JUMP JUMPDEST PUSH0 DUP2 ISZERO ISZERO SWAP1 POP SWAP2 SWAP1 POP JUMP JUMPDEST PUSH2 0x1682 DUP2 PUSH2 0x166E JUMP JUMPDEST DUP3 MSTORE POP POP JUMP JUMPDEST PUSH0 PUSH1 0x60 DUP3 ADD SWAP1 POP PUSH2 0x169B PUSH0 DUP4 ADD DUP7 PUSH2 0x1679 JUMP JUMPDEST PUSH2 0x16A8 PUSH1 0x20 DUP4 ADD DUP6 PUSH2 0x12AC JUMP JUMPDEST PUSH2 0x16B5 PUSH1 0x40 DUP4 ADD DUP5 PUSH2 0x12C4 JUMP JUMPDEST SWAP5 SWAP4 POP POP POP POP JUMP JUMPDEST PUSH0 DUP2 SWAP1 POP SWAP3 SWAP2 POP POP JUMP JUMPDEST POP JUMP JUMPDEST PUSH0 PUSH2 0x16D5 PUSH0 DUP4 PUSH2 0x16BD JUMP JUMPDEST SWAP2 POP PUSH2 0x16E0 DUP3 PUSH2 0x16C7 JUMP JUMPDEST PUSH0 DUP3 ADD SWAP1 POP SWAP2 SWAP1 POP JUMP JUMPDEST PUSH0 PUSH2 0x16F4 DUP3 PUSH2 0x16CA JUMP JUMPDEST SWAP2 POP DUP2 SWAP1 POP SWAP2 SWAP1 POP JUMP JUMPDEST PUSH0 DUP3 DUP3 MSTORE PUSH1 0x20 DUP3 ADD SWAP1 POP SWAP3 SWAP2 POP POP JUMP JUMPDEST PUSH32 0x63616E63656C54657374616D656E7428292C2046616C686120616F20656E7669 PUSH0 DUP3 ADD MSTORE PUSH32 0x6172204554480000000000000000000000000000000000000000000000000000 PUSH1 0x20 DUP3 ADD MSTORE POP JUMP JUMPDEST PUSH0 PUSH2 0x1768 PUSH1 0x26 DUP4 PUSH2 0x16FE JUMP JUMPDEST SWAP2 POP PUSH2 0x1773 DUP3 PUSH2 0x170E JUMP JUMPDEST PUSH1 0x40 DUP3 ADD SWAP1 POP SWAP2 SWAP1 POP JUMP JUMPDEST PUSH0 PUSH1 0x20 DUP3 ADD SWAP1 POP DUP2 DUP2 SUB PUSH0 DUP4 ADD MSTORE PUSH2 0x1795 DUP2 PUSH2 0x175C JUMP JUMPDEST SWAP1 POP SWAP2 SWAP1 POP JUMP JUMPDEST PUSH32 0x5465737461646F72206E616F20656E636F6E747261646F000000000000000000 PUSH0 DUP3 ADD MSTORE POP JUMP JUMPDEST PUSH0 PUSH2 0x17D0 PUSH1 0x17 DUP4 PUSH2 0x16FE JUMP JUMPDEST SWAP2 POP PUSH2 0x17DB DUP3 PUSH2 0x179C JUMP JUMPDEST PUSH1 0x20 DUP3 ADD SWAP1 POP SWAP2 SWAP1 POP JUMP JUMPDEST PUSH0 PUSH1 0x20 DUP3 ADD SWAP1 POP DUP2 DUP2 SUB PUSH0 DUP4 ADD MSTORE PUSH2 0x17FD DUP2 PUSH2 0x17C4 JUMP JUMPDEST SWAP1 POP SWAP2 SWAP1 POP JUMP JUMPDEST PUSH32 0x4E487B7100000000000000000000000000000000000000000000000000000000 PUSH0 MSTORE PUSH1 0x32 PUSH1 0x4 MSTORE PUSH1 0x24 PUSH0 REVERT JUMPDEST PUSH32 0x4E487B7100000000000000000000000000000000000000000000000000000000 PUSH0 MSTORE PUSH1 0x11 PUSH1 0x4 MSTORE PUSH1 0x24 PUSH0 REVERT JUMPDEST PUSH0 PUSH2 0x1868 DUP3 PUSH2 0x11F0 JUMP JUMPDEST SWAP2 POP PUSH8 0xFFFFFFFFFFFFFFFF DUP3 SUB PUSH2 0x1882 JUMPI PUSH2 0x1881 PUSH2 0x1831 JUMP JUMPDEST JUMPDEST PUSH1 0x1 DUP3 ADD SWAP1 POP SWAP2 SWAP1 POP JUMP JUMPDEST PUSH32 0x637265617465496E6865726974616E636528292C2076616C6F7220696E76616C PUSH0 DUP3 ADD MSTORE PUSH32 0x69646F0000000000000000000000000000000000000000000000000000000000 PUSH1 0x20 DUP3 ADD MSTORE POP JUMP JUMPDEST PUSH0 PUSH2 0x18E7 PUSH1 0x23 DUP4 PUSH2 0x16FE JUMP JUMPDEST SWAP2 POP PUSH2 0x18F2 DUP3 PUSH2 0x188D JUMP JUMPDEST PUSH1 0x40 DUP3 ADD SWAP1 POP SWAP2 SWAP1 POP JUMP JUMPDEST PUSH0 PUSH1 0x20 DUP3 ADD SWAP1 POP DUP2 DUP2 SUB PUSH0 DUP4 ADD MSTORE PUSH2 0x1914 DUP2 PUSH2 0x18DB JUMP JUMPDEST SWAP1 POP SWAP2 SWAP1 POP JUMP JUMPDEST PUSH32 0x637265617465496E6865726974616E636528292C2061646963696F6E65206F73 PUSH0 DUP3 ADD MSTORE PUSH32 0x20686572646569726F7300000000000000000000000000000000000000000000 PUSH1 0x20 DUP3 ADD MSTORE POP JUMP JUMPDEST PUSH0 PUSH2 0x1975 PUSH1 0x2A DUP4 PUSH2 0x16FE JUMP JUMPDEST SWAP2 POP PUSH2 0x1980 DUP3 PUSH2 0x191B JUMP JUMPDEST PUSH1 0x40 DUP3 ADD SWAP1 POP SWAP2 SWAP1 POP JUMP JUMPDEST PUSH0 PUSH1 0x20 DUP3 ADD SWAP1 POP DUP2 DUP2 SUB PUSH0 DUP4 ADD MSTORE PUSH2 0x19A2 DUP2 PUSH2 0x1969 JUMP JUMPDEST SWAP1 POP SWAP2 SWAP1 POP JUMP JUMPDEST PUSH32 0x637265617465496E6865726974616E636528292C207175616E74696461646520 PUSH0 DUP3 ADD MSTORE PUSH32 0x646520656E64657265636F73206520706F7263656E746167656E732064696665 PUSH1 0x20 DUP3 ADD MSTORE PUSH32 0x72656E7465730000000000000000000000000000000000000000000000000000 PUSH1 0x40 DUP3 ADD MSTORE POP JUMP JUMPDEST PUSH0 PUSH2 0x1A29 PUSH1 0x46 DUP4 PUSH2 0x16FE JUMP JUMPDEST SWAP2 POP PUSH2 0x1A34 DUP3 PUSH2 0x19A9 JUMP JUMPDEST PUSH1 0x60 DUP3 ADD SWAP1 POP SWAP2 SWAP1 POP JUMP JUMPDEST PUSH0 PUSH1 0x20 DUP3 ADD SWAP1 POP DUP2 DUP2 SUB PUSH0 DUP4 ADD MSTORE PUSH2 0x1A56 DUP2 PUSH2 0x1A1D JUMP JUMPDEST SWAP1 POP SWAP2 SWAP1 POP JUMP JUMPDEST PUSH32 0x5465737461646F72206E616F2065786973746500000000000000000000000000 PUSH0 DUP3 ADD MSTORE POP JUMP JUMPDEST PUSH0 PUSH2 0x1A91 PUSH1 0x13 DUP4 PUSH2 0x16FE JUMP JUMPDEST SWAP2 POP PUSH2 0x1A9C DUP3 PUSH2 0x1A5D JUMP JUMPDEST PUSH1 0x20 DUP3 ADD SWAP1 POP SWAP2 SWAP1 POP JUMP JUMPDEST PUSH0 PUSH1 0x20 DUP3 ADD SWAP1 POP DUP2 DUP2 SUB PUSH0 DUP4 ADD MSTORE PUSH2 0x1ABE DUP2 PUSH2 0x1A85 JUMP JUMPDEST SWAP1 POP SWAP2 SWAP1 POP JUMP JUMPDEST PUSH32 0x766F6365206E616F20666F69206361646173747261646F20656D206E656E6875 PUSH0 DUP3 ADD MSTORE PUSH32 0x6D2074657374616D656E746F0000000000000000000000000000000000000000 PUSH1 0x20 DUP3 ADD MSTORE POP JUMP JUMPDEST PUSH0 PUSH2 0x1B1F PUSH1 0x2C DUP4 PUSH2 0x16FE JUMP JUMPDEST SWAP2 POP PUSH2 0x1B2A DUP3 PUSH2 0x1AC5 JUMP JUMPDEST PUSH1 0x40 DUP3 ADD SWAP1 POP SWAP2 SWAP1 POP JUMP JUMPDEST PUSH0 PUSH1 0x20 DUP3 ADD SWAP1 POP DUP2 DUP2 SUB PUSH0 DUP4 ADD MSTORE PUSH2 0x1B4C DUP2 PUSH2 0x1B13 JUMP JUMPDEST SWAP1 POP SWAP2 SWAP1 POP JUMP JUMPDEST PUSH32 0x74657374616D656E746F206E616F20656E636F6E747261646F00000000000000 PUSH0 DUP3 ADD MSTORE POP JUMP JUMPDEST PUSH0 PUSH2 0x1B87 PUSH1 0x19 DUP4 PUSH2 0x16FE JUMP JUMPDEST SWAP2 POP PUSH2 0x1B92 DUP3 PUSH2 0x1B53 JUMP JUMPDEST PUSH1 0x20 DUP3 ADD SWAP1 POP SWAP2 SWAP1 POP JUMP JUMPDEST PUSH0 PUSH1 0x20 DUP3 ADD SWAP1 POP DUP2 DUP2 SUB PUSH0 DUP4 ADD MSTORE PUSH2 0x1BB4 DUP2 PUSH2 0x1B7B JUMP JUMPDEST SWAP1 POP SWAP2 SWAP1 POP JUMP JUMPDEST PUSH0 PUSH2 0x1BC5 DUP3 PUSH2 0x12BB JUMP JUMPDEST SWAP2 POP PUSH2 0x1BD0 DUP4 PUSH2 0x12BB JUMP JUMPDEST SWAP3 POP DUP3 DUP3 MUL PUSH2 0x1BDE DUP2 PUSH2 0x12BB JUMP JUMPDEST SWAP2 POP DUP3 DUP3 DIV DUP5 EQ DUP4 ISZERO OR PUSH2 0x1BF5 JUMPI PUSH2 0x1BF4 PUSH2 0x1831 JUMP JUMPDEST JUMPDEST POP SWAP3 SWAP2 POP POP JUMP JUMPDEST PUSH0 PUSH2 0x1C06 DUP3 PUSH2 0x12BB JUMP JUMPDEST SWAP2 POP PUSH32 0xFFFFFFFFFFFFFFFFFFFFFFFFFFFFFFFFFFFFFFFFFFFFFFFFFFFFFFFFFFFFFFFF DUP3 SUB PUSH2 0x1C38 JUMPI PUSH2 0x1C37 PUSH2 0x1831 JUMP JUMPDEST JUMPDEST PUSH1 0x1 DUP3 ADD SWAP1 POP SWAP2 SWAP1 POP JUMP INVALID LOG2 PUSH5 0x6970667358 0x22 SLT KECCAK256 INVALID 0xD4 GASPRICE PUSH12 0xEA4BCCC6635CD23A98DD4ABC SWAP3 0xB4 SWAP5 SWAP16 CALLER SMOD SWAP8 CODECOPY 0xA8 JUMPI SWAP3 0xD1 PUSH20 0x36C17A64736F6C634300081A0033000000000000 "
				},
				"gasEstimates": {
					"creation": {
						"codeDepositCost": "1457800",
						"executionCost": "1518",
						"totalCost": "1459318"
					},
					"external": {
						"cancelTestament()": "infinite",
						"createInheritance(address[],uint8[])": "infinite",
						"getMyTestament()": "infinite",
						"inheritorToTestator(address)": "infinite",
						"testators(address)": "7392",
						"updateProofOfLife()": "26854",
						"withdrawal()": "infinite"
					},
					"internal": {
						"checkIfTestatorExist()": "infinite"
					}
				},
				"methodIdentifiers": {
					"cancelTestament()": "1aba6da6",
					"createInheritance(address[],uint8[])": "759a8a98",
					"getMyTestament()": "3a994a8b",
					"inheritorToTestator(address)": "6355e754",
					"testators(address)": "b45b91f2",
					"updateProofOfLife()": "c80cc411",
					"withdrawal()": "d4e93292"
				}
			},
			"storageLayout": {
				"storage": [
					{
						"astId": 60,
						"contract": ".deps/studying-solidity/InheritanceContract.sol:InheritanceContract",
						"label": "testators",
						"offset": 0,
						"slot": "0",
						"type": "t_mapping(t_address,t_struct(Testator)55_storage)"
					},
					{
						"astId": 64,
						"contract": ".deps/studying-solidity/InheritanceContract.sol:InheritanceContract",
						"label": "inheritorToTestator",
						"offset": 0,
						"slot": "1",
						"type": "t_mapping(t_address,t_address)"
					}
				],
				"types": {
					"t_address": {
						"encoding": "inplace",
						"label": "address",
						"numberOfBytes": "20"
					},
					"t_array(t_struct(Inheritor)44_storage)dyn_storage": {
						"base": "t_struct(Inheritor)44_storage",
						"encoding": "dynamic_array",
						"label": "struct InheritanceContract.Inheritor[]",
						"numberOfBytes": "32"
					},
					"t_bool": {
						"encoding": "inplace",
						"label": "bool",
						"numberOfBytes": "1"
					},
					"t_mapping(t_address,t_address)": {
						"encoding": "mapping",
						"key": "t_address",
						"label": "mapping(address => address)",
						"numberOfBytes": "32",
						"value": "t_address"
					},
					"t_mapping(t_address,t_struct(Testator)55_storage)": {
						"encoding": "mapping",
						"key": "t_address",
						"label": "mapping(address => struct InheritanceContract.Testator)",
						"numberOfBytes": "32",
						"value": "t_struct(Testator)55_storage"
					},
					"t_struct(Inheritor)44_storage": {
						"encoding": "inplace",
						"label": "struct InheritanceContract.Inheritor",
						"members": [
							{
								"astId": 41,
								"contract": ".deps/studying-solidity/InheritanceContract.sol:InheritanceContract",
								"label": "inheritorAddress",
								"offset": 0,
								"slot": "0",
								"type": "t_address"
							},
							{
								"astId": 43,
								"contract": ".deps/studying-solidity/InheritanceContract.sol:InheritanceContract",
								"label": "percentage",
								"offset": 20,
								"slot": "0",
								"type": "t_uint64"
							}
						],
						"numberOfBytes": "32"
					},
					"t_struct(Testator)55_storage": {
						"encoding": "inplace",
						"label": "struct InheritanceContract.Testator",
						"members": [
							{
								"astId": 48,
								"contract": ".deps/studying-solidity/InheritanceContract.sol:InheritanceContract",
								"label": "inheritors",
								"offset": 0,
								"slot": "0",
								"type": "t_array(t_struct(Inheritor)44_storage)dyn_storage"
							},
							{
								"astId": 50,
								"contract": ".deps/studying-solidity/InheritanceContract.sol:InheritanceContract",
								"label": "exist",
								"offset": 0,
								"slot": "1",
								"type": "t_bool"
							},
							{
								"astId": 52,
								"contract": ".deps/studying-solidity/InheritanceContract.sol:InheritanceContract",
								"label": "lastProofOfLife",
								"offset": 1,
								"slot": "1",
								"type": "t_uint128"
							},
							{
								"astId": 54,
								"contract": ".deps/studying-solidity/InheritanceContract.sol:InheritanceContract",
								"label": "totalAmount",
								"offset": 0,
								"slot": "2",
								"type": "t_uint256"
							}
						],
						"numberOfBytes": "96"
					},
					"t_uint128": {
						"encoding": "inplace",
						"label": "uint128",
						"numberOfBytes": "16"
					},
					"t_uint256": {
						"encoding": "inplace",
						"label": "uint256",
						"numberOfBytes": "32"
					},
					"t_uint64": {
						"encoding": "inplace",
						"label": "uint64",
						"numberOfBytes": "8"
					}
				}
			},
			"userdoc": {
				"kind": "user",
				"methods": {},
				"version": 1
			}
		}
	}
}