{
	".deps/studying-solidity/InheritanceContract.sol": {
		"InheritanceContract": {
			"abi": [
				{
					"inputs": [],
					"name": "cancelTestament",
					"outputs": [],
					"stateMutability": "nonpayable",
					"type": "function"
				},
				{
					"inputs": [
						{
							"internalType": "address[]",
							"name": "_addresses",
							"type": "address[]"
						},
						{
							"internalType": "uint8[]",
							"name": "_percentagens",
							"type": "uint8[]"
						}
					],
					"name": "createInheritance",
					"outputs": [],
					"stateMutability": "nonpayable",
					"type": "function"
				},
				{
					"inputs": [],
					"name": "getMyTestament",
					"outputs": [
						{
							"internalType": "address[]",
							"name": "",
							"type": "address[]"
						},
						{
							"internalType": "uint8[]",
							"name": "",
							"type": "uint8[]"
						}
					],
					"stateMutability": "view",
					"type": "function"
				},
				{
					"inputs": [
						{
							"internalType": "address",
							"name": "",
							"type": "address"
						}
					],
					"name": "testators",
					"outputs": [
						{
							"internalType": "bool",
							"name": "exist",
							"type": "bool"
						},
						{
							"internalType": "uint256",
							"name": "lastProofOfLife",
							"type": "uint256"
						}
					],
					"stateMutability": "view",
					"type": "function"
				}
			],
			"devdoc": {
				"kind": "dev",
				"methods": {},
				"version": 1
			},
			"evm": {
				"assembly": "    /* \".deps/studying-solidity/InheritanceContract.sol\":57:1995  contract InheritanceContract {... */\n  mstore(0x40, 0x80)\n  callvalue\n  dup1\n  iszero\n  tag_1\n  jumpi\n  0x00\n  dup1\n  revert\ntag_1:\n  pop\n  dataSize(sub_0)\n  dup1\n  dataOffset(sub_0)\n  0x00\n  codecopy\n  0x00\n  return\nstop\n\nsub_0: assembly {\n        /* \".deps/studying-solidity/InheritanceContract.sol\":57:1995  contract InheritanceContract {... */\n      mstore(0x40, 0x80)\n      callvalue\n      dup1\n      iszero\n      tag_1\n      jumpi\n      0x00\n      dup1\n      revert\n    tag_1:\n      pop\n      jumpi(tag_2, lt(calldatasize, 0x04))\n      shr(0xe0, calldataload(0x00))\n      dup1\n      0x1aba6da6\n      eq\n      tag_3\n      jumpi\n      dup1\n      0x3a994a8b\n      eq\n      tag_4\n      jumpi\n      dup1\n      0x759a8a98\n      eq\n      tag_5\n      jumpi\n      dup1\n      0xb45b91f2\n      eq\n      tag_6\n      jumpi\n    tag_2:\n      0x00\n      dup1\n      revert\n        /* \".deps/studying-solidity/InheritanceContract.sol\":1886:1993  function cancelTestament() public {... */\n    tag_3:\n      tag_7\n      tag_8\n      jump\t// in\n    tag_7:\n      stop\n        /* \".deps/studying-solidity/InheritanceContract.sol\":964:1763  function getMyTestament()... */\n    tag_4:\n      tag_9\n      tag_10\n      jump\t// in\n    tag_9:\n      mload(0x40)\n      tag_11\n      swap3\n      swap2\n      swap1\n      tag_12\n      jump\t// in\n    tag_11:\n      mload(0x40)\n      dup1\n      swap2\n      sub\n      swap1\n      return\n        /* \".deps/studying-solidity/InheritanceContract.sol\":380:958  function createInheritance(... */\n    tag_5:\n      tag_13\n      0x04\n      dup1\n      calldatasize\n      sub\n      dup2\n      add\n      swap1\n      tag_14\n      swap2\n      swap1\n      tag_15\n      jump\t// in\n    tag_14:\n      tag_16\n      jump\t// in\n    tag_13:\n      stop\n        /* \".deps/studying-solidity/InheritanceContract.sol\":328:373  mapping(address => Testator) public testators */\n    tag_6:\n      tag_17\n      0x04\n      dup1\n      calldatasize\n      sub\n      dup2\n      add\n      swap1\n      tag_18\n      swap2\n      swap1\n      tag_19\n      jump\t// in\n    tag_18:\n      tag_20\n      jump\t// in\n    tag_17:\n      mload(0x40)\n      tag_21\n      swap3\n      swap2\n      swap1\n      tag_22\n      jump\t// in\n    tag_21:\n      mload(0x40)\n      dup1\n      swap2\n      sub\n      swap1\n      return\n        /* \".deps/studying-solidity/InheritanceContract.sol\":1886:1993  function cancelTestament() public {... */\n    tag_8:\n        /* \".deps/studying-solidity/InheritanceContract.sol\":1930:1941  address own */\n      0x00\n        /* \".deps/studying-solidity/InheritanceContract.sol\":1944:1954  msg.sender */\n      caller\n        /* \".deps/studying-solidity/InheritanceContract.sol\":1930:1954  address own = msg.sender */\n      swap1\n      pop\n        /* \".deps/studying-solidity/InheritanceContract.sol\":1972:1981  testators */\n      0x00\n        /* \".deps/studying-solidity/InheritanceContract.sol\":1972:1986  testators[own] */\n      dup1\n        /* \".deps/studying-solidity/InheritanceContract.sol\":1982:1985  own */\n      dup3\n        /* \".deps/studying-solidity/InheritanceContract.sol\":1972:1986  testators[own] */\n      0xffffffffffffffffffffffffffffffffffffffff\n      and\n      0xffffffffffffffffffffffffffffffffffffffff\n      and\n      dup2\n      mstore\n      0x20\n      add\n      swap1\n      dup2\n      mstore\n      0x20\n      add\n      0x00\n      keccak256\n      0x00\n        /* \".deps/studying-solidity/InheritanceContract.sol\":1965:1986  delete testators[own] */\n      dup1\n      dup3\n      add\n      0x00\n      tag_24\n      swap2\n      swap1\n      tag_25\n      jump\t// in\n    tag_24:\n      0x01\n      dup3\n      add\n      exp(0x0100, 0x00)\n      dup2\n      sload\n      swap1\n      0xff\n      mul\n      not\n      and\n      swap1\n      sstore\n      0x02\n      dup3\n      add\n      0x00\n      swap1\n      sstore\n      pop\n      pop\n        /* \".deps/studying-solidity/InheritanceContract.sol\":1920:1993  {... */\n      pop\n        /* \".deps/studying-solidity/InheritanceContract.sol\":1886:1993  function cancelTestament() public {... */\n      jump\t// out\n        /* \".deps/studying-solidity/InheritanceContract.sol\":964:1763  function getMyTestament()... */\n    tag_10:\n        /* \".deps/studying-solidity/InheritanceContract.sol\":1037:1053  address[] memory */\n      0x60\n        /* \".deps/studying-solidity/InheritanceContract.sol\":1055:1069  uint8[] memory */\n      dup1\n        /* \".deps/studying-solidity/InheritanceContract.sol\":1085:1096  address own */\n      0x00\n        /* \".deps/studying-solidity/InheritanceContract.sol\":1099:1109  msg.sender */\n      caller\n        /* \".deps/studying-solidity/InheritanceContract.sol\":1085:1109  address own = msg.sender */\n      swap1\n      pop\n        /* \".deps/studying-solidity/InheritanceContract.sol\":1127:1136  testators */\n      0x00\n        /* \".deps/studying-solidity/InheritanceContract.sol\":1127:1141  testators[own] */\n      dup1\n        /* \".deps/studying-solidity/InheritanceContract.sol\":1137:1140  own */\n      dup3\n        /* \".deps/studying-solidity/InheritanceContract.sol\":1127:1141  testators[own] */\n      0xffffffffffffffffffffffffffffffffffffffff\n      and\n      0xffffffffffffffffffffffffffffffffffffffff\n      and\n      dup2\n      mstore\n      0x20\n      add\n      swap1\n      dup2\n      mstore\n      0x20\n      add\n      0x00\n      keccak256\n        /* \".deps/studying-solidity/InheritanceContract.sol\":1127:1147  testators[own].exist */\n      0x01\n      add\n      0x00\n      swap1\n      sload\n      swap1\n      0x0100\n      exp\n      swap1\n      div\n      0xff\n      and\n        /* \".deps/studying-solidity/InheritanceContract.sol\":1119:1175  require(testators[own].exist, \"Testador nao encontrado\") */\n      tag_27\n      jumpi\n      mload(0x40)\n      0x08c379a000000000000000000000000000000000000000000000000000000000\n      dup2\n      mstore\n      0x04\n      add\n      tag_28\n      swap1\n      tag_29\n      jump\t// in\n    tag_28:\n      mload(0x40)\n      dup1\n      swap2\n      sub\n      swap1\n      revert\n    tag_27:\n        /* \".deps/studying-solidity/InheritanceContract.sol\":1186:1222  address[] memory _inheritorAddresses */\n      0x00\n        /* \".deps/studying-solidity/InheritanceContract.sol\":1252:1261  testators */\n      dup1\n        /* \".deps/studying-solidity/InheritanceContract.sol\":1252:1266  testators[own] */\n      0x00\n        /* \".deps/studying-solidity/InheritanceContract.sol\":1262:1265  own */\n      dup4\n        /* \".deps/studying-solidity/InheritanceContract.sol\":1252:1266  testators[own] */\n      0xffffffffffffffffffffffffffffffffffffffff\n      and\n      0xffffffffffffffffffffffffffffffffffffffff\n      and\n      dup2\n      mstore\n      0x20\n      add\n      swap1\n      dup2\n      mstore\n      0x20\n      add\n      0x00\n      keccak256\n        /* \".deps/studying-solidity/InheritanceContract.sol\":1252:1277  testators[own].inheritors */\n      0x00\n      add\n        /* \".deps/studying-solidity/InheritanceContract.sol\":1252:1284  testators[own].inheritors.length */\n      dup1\n      sload\n      swap1\n      pop\n        /* \".deps/studying-solidity/InheritanceContract.sol\":1225:1294  new address[](... */\n      0xffffffffffffffff\n      dup2\n      gt\n      iszero\n      tag_30\n      jumpi\n      tag_31\n      tag_32\n      jump\t// in\n    tag_31:\n    tag_30:\n      mload(0x40)\n      swap1\n      dup1\n      dup3\n      mstore\n      dup1\n      0x20\n      mul\n      0x20\n      add\n      dup3\n      add\n      0x40\n      mstore\n      dup1\n      iszero\n      tag_33\n      jumpi\n      dup2\n      0x20\n      add\n      0x20\n      dup3\n      mul\n      dup1\n      calldatasize\n      dup4\n      calldatacopy\n      dup1\n      dup3\n      add\n      swap2\n      pop\n      pop\n      swap1\n      pop\n    tag_33:\n      pop\n        /* \".deps/studying-solidity/InheritanceContract.sol\":1186:1294  address[] memory _inheritorAddresses = new address[](... */\n      swap1\n      pop\n        /* \".deps/studying-solidity/InheritanceContract.sol\":1305:1332  uint8[] memory _percentages */\n      0x00\n        /* \".deps/studying-solidity/InheritanceContract.sol\":1360:1369  testators */\n      dup1\n        /* \".deps/studying-solidity/InheritanceContract.sol\":1360:1374  testators[own] */\n      0x00\n        /* \".deps/studying-solidity/InheritanceContract.sol\":1370:1373  own */\n      dup5\n        /* \".deps/studying-solidity/InheritanceContract.sol\":1360:1374  testators[own] */\n      0xffffffffffffffffffffffffffffffffffffffff\n      and\n      0xffffffffffffffffffffffffffffffffffffffff\n      and\n      dup2\n      mstore\n      0x20\n      add\n      swap1\n      dup2\n      mstore\n      0x20\n      add\n      0x00\n      keccak256\n        /* \".deps/studying-solidity/InheritanceContract.sol\":1360:1385  testators[own].inheritors */\n      0x00\n      add\n        /* \".deps/studying-solidity/InheritanceContract.sol\":1360:1392  testators[own].inheritors.length */\n      dup1\n      sload\n      swap1\n      pop\n        /* \".deps/studying-solidity/InheritanceContract.sol\":1335:1402  new uint8[](... */\n      0xffffffffffffffff\n      dup2\n      gt\n      iszero\n      tag_34\n      jumpi\n      tag_35\n      tag_32\n      jump\t// in\n    tag_35:\n    tag_34:\n      mload(0x40)\n      swap1\n      dup1\n      dup3\n      mstore\n      dup1\n      0x20\n      mul\n      0x20\n      add\n      dup3\n      add\n      0x40\n      mstore\n      dup1\n      iszero\n      tag_36\n      jumpi\n      dup2\n      0x20\n      add\n      0x20\n      dup3\n      mul\n      dup1\n      calldatasize\n      dup4\n      calldatacopy\n      dup1\n      dup3\n      add\n      swap2\n      pop\n      pop\n      swap1\n      pop\n    tag_36:\n      pop\n        /* \".deps/studying-solidity/InheritanceContract.sol\":1305:1402  uint8[] memory _percentages = new uint8[](... */\n      swap1\n      pop\n        /* \".deps/studying-solidity/InheritanceContract.sol\":1418:1427  uint256 i */\n      0x00\n        /* \".deps/studying-solidity/InheritanceContract.sol\":1413:1704  for (uint256 i = 0; i < testators[own].inheritors.length; i++) {... */\n    tag_37:\n        /* \".deps/studying-solidity/InheritanceContract.sol\":1437:1446  testators */\n      0x00\n        /* \".deps/studying-solidity/InheritanceContract.sol\":1437:1451  testators[own] */\n      dup1\n        /* \".deps/studying-solidity/InheritanceContract.sol\":1447:1450  own */\n      dup6\n        /* \".deps/studying-solidity/InheritanceContract.sol\":1437:1451  testators[own] */\n      0xffffffffffffffffffffffffffffffffffffffff\n      and\n      0xffffffffffffffffffffffffffffffffffffffff\n      and\n      dup2\n      mstore\n      0x20\n      add\n      swap1\n      dup2\n      mstore\n      0x20\n      add\n      0x00\n      keccak256\n        /* \".deps/studying-solidity/InheritanceContract.sol\":1437:1462  testators[own].inheritors */\n      0x00\n      add\n        /* \".deps/studying-solidity/InheritanceContract.sol\":1437:1469  testators[own].inheritors.length */\n      dup1\n      sload\n      swap1\n      pop\n        /* \".deps/studying-solidity/InheritanceContract.sol\":1433:1434  i */\n      dup2\n        /* \".deps/studying-solidity/InheritanceContract.sol\":1433:1469  i < testators[own].inheritors.length */\n      lt\n        /* \".deps/studying-solidity/InheritanceContract.sol\":1413:1704  for (uint256 i = 0; i < testators[own].inheritors.length; i++) {... */\n      iszero\n      tag_38\n      jumpi\n        /* \".deps/studying-solidity/InheritanceContract.sol\":1490:1524  Inheritor memory _currentInheritor */\n      0x00\n        /* \".deps/studying-solidity/InheritanceContract.sol\":1527:1536  testators */\n      dup1\n        /* \".deps/studying-solidity/InheritanceContract.sol\":1527:1541  testators[own] */\n      0x00\n        /* \".deps/studying-solidity/InheritanceContract.sol\":1537:1540  own */\n      dup7\n        /* \".deps/studying-solidity/InheritanceContract.sol\":1527:1541  testators[own] */\n      0xffffffffffffffffffffffffffffffffffffffff\n      and\n      0xffffffffffffffffffffffffffffffffffffffff\n      and\n      dup2\n      mstore\n      0x20\n      add\n      swap1\n      dup2\n      mstore\n      0x20\n      add\n      0x00\n      keccak256\n        /* \".deps/studying-solidity/InheritanceContract.sol\":1527:1552  testators[own].inheritors */\n      0x00\n      add\n        /* \".deps/studying-solidity/InheritanceContract.sol\":1553:1554  i */\n      dup3\n        /* \".deps/studying-solidity/InheritanceContract.sol\":1527:1555  testators[own].inheritors[i] */\n      dup2\n      sload\n      dup2\n      lt\n      tag_40\n      jumpi\n      tag_41\n      tag_42\n      jump\t// in\n    tag_41:\n    tag_40:\n      swap1\n      0x00\n      mstore\n      keccak256(0x00, 0x20)\n      add\n        /* \".deps/studying-solidity/InheritanceContract.sol\":1490:1555  Inheritor memory _currentInheritor = testators[own].inheritors[i] */\n      mload(0x40)\n      dup1\n      0x40\n      add\n      0x40\n      mstore\n      swap1\n      dup2\n      0x00\n      dup3\n      add\n      0x00\n      swap1\n      sload\n      swap1\n      0x0100\n      exp\n      swap1\n      div\n      0xffffffffffffffffffffffffffffffffffffffff\n      and\n      0xffffffffffffffffffffffffffffffffffffffff\n      and\n      0xffffffffffffffffffffffffffffffffffffffff\n      and\n      dup2\n      mstore\n      0x20\n      add\n      0x00\n      dup3\n      add\n      0x14\n      swap1\n      sload\n      swap1\n      0x0100\n      exp\n      swap1\n      div\n      0xff\n      and\n      0xff\n      and\n      0xff\n      and\n      dup2\n      mstore\n      pop\n      pop\n      swap1\n      pop\n        /* \".deps/studying-solidity/InheritanceContract.sol\":1596:1613  _currentInheritor */\n      dup1\n        /* \".deps/studying-solidity/InheritanceContract.sol\":1596:1630  _currentInheritor.inheritorAddress */\n      0x00\n      add\n      mload\n        /* \".deps/studying-solidity/InheritanceContract.sol\":1570:1589  _inheritorAddresses */\n      dup5\n        /* \".deps/studying-solidity/InheritanceContract.sol\":1590:1591  i */\n      dup4\n        /* \".deps/studying-solidity/InheritanceContract.sol\":1570:1592  _inheritorAddresses[i] */\n      dup2\n      mload\n      dup2\n      lt\n      tag_44\n      jumpi\n      tag_45\n      tag_42\n      jump\t// in\n    tag_45:\n    tag_44:\n      0x20\n      mul\n      0x20\n      add\n      add\n        /* \".deps/studying-solidity/InheritanceContract.sol\":1570:1631  _inheritorAddresses[i] = (_currentInheritor.inheritorAddress) */\n      swap1\n      0xffffffffffffffffffffffffffffffffffffffff\n      and\n      swap1\n      dup2\n      0xffffffffffffffffffffffffffffffffffffffff\n      and\n      dup2\n      mstore\n      pop\n      pop\n        /* \".deps/studying-solidity/InheritanceContract.sol\":1664:1681  _currentInheritor */\n      dup1\n        /* \".deps/studying-solidity/InheritanceContract.sol\":1664:1692  _currentInheritor.percentage */\n      0x20\n      add\n      mload\n        /* \".deps/studying-solidity/InheritanceContract.sol\":1645:1657  _percentages */\n      dup4\n        /* \".deps/studying-solidity/InheritanceContract.sol\":1658:1659  i */\n      dup4\n        /* \".deps/studying-solidity/InheritanceContract.sol\":1645:1660  _percentages[i] */\n      dup2\n      mload\n      dup2\n      lt\n      tag_46\n      jumpi\n      tag_47\n      tag_42\n      jump\t// in\n    tag_47:\n    tag_46:\n      0x20\n      mul\n      0x20\n      add\n      add\n        /* \".deps/studying-solidity/InheritanceContract.sol\":1645:1693  _percentages[i] = (_currentInheritor.percentage) */\n      swap1\n      0xff\n      and\n      swap1\n      dup2\n      0xff\n      and\n      dup2\n      mstore\n      pop\n      pop\n        /* \".deps/studying-solidity/InheritanceContract.sol\":1476:1704  {... */\n      pop\n        /* \".deps/studying-solidity/InheritanceContract.sol\":1471:1474  i++ */\n      dup1\n      dup1\n      0x01\n      add\n      swap2\n      pop\n      pop\n        /* \".deps/studying-solidity/InheritanceContract.sol\":1413:1704  for (uint256 i = 0; i < testators[own].inheritors.length; i++) {... */\n      jump(tag_37)\n    tag_38:\n      pop\n        /* \".deps/studying-solidity/InheritanceContract.sol\":1722:1741  _inheritorAddresses */\n      dup2\n        /* \".deps/studying-solidity/InheritanceContract.sol\":1743:1755  _percentages */\n      dup2\n        /* \".deps/studying-solidity/InheritanceContract.sol\":1714:1756  return (_inheritorAddresses, _percentages) */\n      swap5\n      pop\n      swap5\n      pop\n      pop\n      pop\n      pop\n        /* \".deps/studying-solidity/InheritanceContract.sol\":964:1763  function getMyTestament()... */\n      swap1\n      swap2\n      jump\t// out\n        /* \".deps/studying-solidity/InheritanceContract.sol\":380:958  function createInheritance(... */\n    tag_16:\n        /* \".deps/studying-solidity/InheritanceContract.sol\":507:518  address own */\n      0x00\n        /* \".deps/studying-solidity/InheritanceContract.sol\":521:531  msg.sender */\n      caller\n        /* \".deps/studying-solidity/InheritanceContract.sol\":507:531  address own = msg.sender */\n      swap1\n      pop\n        /* \".deps/studying-solidity/InheritanceContract.sol\":542:575  Inheritor[] memory _newInheritors */\n      0x00\n        /* \".deps/studying-solidity/InheritanceContract.sol\":594:604  _addresses */\n      dup4\n        /* \".deps/studying-solidity/InheritanceContract.sol\":594:611  _addresses.length */\n      mload\n        /* \".deps/studying-solidity/InheritanceContract.sol\":578:612  new Inheritor[](_addresses.length) */\n      0xffffffffffffffff\n      dup2\n      gt\n      iszero\n      tag_49\n      jumpi\n      tag_50\n      tag_32\n      jump\t// in\n    tag_50:\n    tag_49:\n      mload(0x40)\n      swap1\n      dup1\n      dup3\n      mstore\n      dup1\n      0x20\n      mul\n      0x20\n      add\n      dup3\n      add\n      0x40\n      mstore\n      dup1\n      iszero\n      tag_51\n      jumpi\n      dup2\n      0x20\n      add\n    tag_52:\n      tag_53\n      tag_54\n      jump\t// in\n    tag_53:\n      dup2\n      mstore\n      0x20\n      add\n      swap1\n      0x01\n      swap1\n      sub\n      swap1\n      dup2\n      tag_52\n      jumpi\n      swap1\n      pop\n    tag_51:\n      pop\n        /* \".deps/studying-solidity/InheritanceContract.sol\":542:612  Inheritor[] memory _newInheritors = new Inheritor[](_addresses.length) */\n      swap1\n      pop\n        /* \".deps/studying-solidity/InheritanceContract.sol\":628:637  uint256 i */\n      0x00\n        /* \".deps/studying-solidity/InheritanceContract.sol\":623:915  for (uint256 i = 0; i < _addresses.length; i++) {... */\n    tag_55:\n        /* \".deps/studying-solidity/InheritanceContract.sol\":647:657  _addresses */\n      dup5\n        /* \".deps/studying-solidity/InheritanceContract.sol\":647:664  _addresses.length */\n      mload\n        /* \".deps/studying-solidity/InheritanceContract.sol\":643:644  i */\n      dup2\n        /* \".deps/studying-solidity/InheritanceContract.sol\":643:664  i < _addresses.length */\n      lt\n        /* \".deps/studying-solidity/InheritanceContract.sol\":623:915  for (uint256 i = 0; i < _addresses.length; i++) {... */\n      iszero\n      tag_56\n      jumpi\n        /* \".deps/studying-solidity/InheritanceContract.sol\":685:712  Inheritor memory _inheritor */\n      0x00\n        /* \".deps/studying-solidity/InheritanceContract.sol\":715:803  Inheritor(... */\n      mload(0x40)\n      dup1\n      0x40\n      add\n      0x40\n      mstore\n      dup1\n        /* \".deps/studying-solidity/InheritanceContract.sol\":742:752  _addresses */\n      dup8\n        /* \".deps/studying-solidity/InheritanceContract.sol\":753:754  i */\n      dup5\n        /* \".deps/studying-solidity/InheritanceContract.sol\":742:755  _addresses[i] */\n      dup2\n      mload\n      dup2\n      lt\n      tag_58\n      jumpi\n      tag_59\n      tag_42\n      jump\t// in\n    tag_59:\n    tag_58:\n      0x20\n      mul\n      0x20\n      add\n      add\n      mload\n        /* \".deps/studying-solidity/InheritanceContract.sol\":715:803  Inheritor(... */\n      0xffffffffffffffffffffffffffffffffffffffff\n      and\n      dup2\n      mstore\n      0x20\n      add\n        /* \".deps/studying-solidity/InheritanceContract.sol\":773:786  _percentagens */\n      dup7\n        /* \".deps/studying-solidity/InheritanceContract.sol\":787:788  i */\n      dup5\n        /* \".deps/studying-solidity/InheritanceContract.sol\":773:789  _percentagens[i] */\n      dup2\n      mload\n      dup2\n      lt\n      tag_60\n      jumpi\n      tag_61\n      tag_42\n      jump\t// in\n    tag_61:\n    tag_60:\n      0x20\n      mul\n      0x20\n      add\n      add\n      mload\n        /* \".deps/studying-solidity/InheritanceContract.sol\":715:803  Inheritor(... */\n      0xff\n      and\n      dup2\n      mstore\n      pop\n        /* \".deps/studying-solidity/InheritanceContract.sol\":685:803  Inheritor memory _inheritor = Inheritor(... */\n      swap1\n      pop\n        /* \".deps/studying-solidity/InheritanceContract.sol\":838:848  _inheritor */\n      dup1\n        /* \".deps/studying-solidity/InheritanceContract.sol\":818:832  _newInheritors */\n      dup4\n        /* \".deps/studying-solidity/InheritanceContract.sol\":833:834  i */\n      dup4\n        /* \".deps/studying-solidity/InheritanceContract.sol\":818:835  _newInheritors[i] */\n      dup2\n      mload\n      dup2\n      lt\n      tag_62\n      jumpi\n      tag_63\n      tag_42\n      jump\t// in\n    tag_63:\n    tag_62:\n      0x20\n      mul\n      0x20\n      add\n      add\n        /* \".deps/studying-solidity/InheritanceContract.sol\":818:848  _newInheritors[i] = _inheritor */\n      dup2\n      swap1\n      mstore\n      pop\n        /* \".deps/studying-solidity/InheritanceContract.sol\":862:871  testators */\n      0x00\n        /* \".deps/studying-solidity/InheritanceContract.sol\":862:876  testators[own] */\n      dup1\n        /* \".deps/studying-solidity/InheritanceContract.sol\":872:875  own */\n      dup6\n        /* \".deps/studying-solidity/InheritanceContract.sol\":862:876  testators[own] */\n      0xffffffffffffffffffffffffffffffffffffffff\n      and\n      0xffffffffffffffffffffffffffffffffffffffff\n      and\n      dup2\n      mstore\n      0x20\n      add\n      swap1\n      dup2\n      mstore\n      0x20\n      add\n      0x00\n      keccak256\n        /* \".deps/studying-solidity/InheritanceContract.sol\":862:887  testators[own].inheritors */\n      0x00\n      add\n        /* \".deps/studying-solidity/InheritanceContract.sol\":893:903  _inheritor */\n      dup2\n        /* \".deps/studying-solidity/InheritanceContract.sol\":862:904  testators[own].inheritors.push(_inheritor) */\n      swap1\n      dup1\n      0x01\n      dup2\n      sload\n      add\n      dup1\n      dup3\n      sstore\n      dup1\n      swap2\n      pop\n      pop\n      0x01\n      swap1\n      sub\n      swap1\n      0x00\n      mstore\n      keccak256(0x00, 0x20)\n      add\n      0x00\n      swap1\n      swap2\n      swap1\n      swap2\n      swap1\n      swap2\n      pop\n      0x00\n      dup3\n      add\n      mload\n      dup2\n      0x00\n      add\n      exp(0x0100, 0x00)\n      dup2\n      sload\n      dup2\n      0xffffffffffffffffffffffffffffffffffffffff\n      mul\n      not\n      and\n      swap1\n      dup4\n      0xffffffffffffffffffffffffffffffffffffffff\n      and\n      mul\n      or\n      swap1\n      sstore\n      pop\n      0x20\n      dup3\n      add\n      mload\n      dup2\n      0x00\n      add\n      exp(0x0100, 0x14)\n      dup2\n      sload\n      dup2\n      0xff\n      mul\n      not\n      and\n      swap1\n      dup4\n      0xff\n      and\n      mul\n      or\n      swap1\n      sstore\n      pop\n      pop\n      pop\n        /* \".deps/studying-solidity/InheritanceContract.sol\":671:915  {... */\n      pop\n        /* \".deps/studying-solidity/InheritanceContract.sol\":666:669  i++ */\n      dup1\n      dup1\n      0x01\n      add\n      swap2\n      pop\n      pop\n        /* \".deps/studying-solidity/InheritanceContract.sol\":623:915  for (uint256 i = 0; i < _addresses.length; i++) {... */\n      jump(tag_55)\n    tag_56:\n      pop\n        /* \".deps/studying-solidity/InheritanceContract.sol\":947:951  true */\n      0x01\n        /* \".deps/studying-solidity/InheritanceContract.sol\":924:933  testators */\n      0x00\n        /* \".deps/studying-solidity/InheritanceContract.sol\":924:938  testators[own] */\n      dup1\n        /* \".deps/studying-solidity/InheritanceContract.sol\":934:937  own */\n      dup5\n        /* \".deps/studying-solidity/InheritanceContract.sol\":924:938  testators[own] */\n      0xffffffffffffffffffffffffffffffffffffffff\n      and\n      0xffffffffffffffffffffffffffffffffffffffff\n      and\n      dup2\n      mstore\n      0x20\n      add\n      swap1\n      dup2\n      mstore\n      0x20\n      add\n      0x00\n      keccak256\n        /* \".deps/studying-solidity/InheritanceContract.sol\":924:944  testators[own].exist */\n      0x01\n      add\n      0x00\n        /* \".deps/studying-solidity/InheritanceContract.sol\":924:951  testators[own].exist = true */\n      0x0100\n      exp\n      dup2\n      sload\n      dup2\n      0xff\n      mul\n      not\n      and\n      swap1\n      dup4\n      iszero\n      iszero\n      mul\n      or\n      swap1\n      sstore\n      pop\n        /* \".deps/studying-solidity/InheritanceContract.sol\":497:958  {... */\n      pop\n      pop\n        /* \".deps/studying-solidity/InheritanceContract.sol\":380:958  function createInheritance(... */\n      pop\n      pop\n      jump\t// out\n        /* \".deps/studying-solidity/InheritanceContract.sol\":328:373  mapping(address => Testator) public testators */\n    tag_20:\n      mstore(0x20, 0x00)\n      dup1\n      0x00\n      mstore\n      keccak256(0x00, 0x40)\n      0x00\n      swap2\n      pop\n      swap1\n      pop\n      dup1\n      0x01\n      add\n      0x00\n      swap1\n      sload\n      swap1\n      0x0100\n      exp\n      swap1\n      div\n      0xff\n      and\n      swap1\n      dup1\n      0x02\n      add\n      sload\n      swap1\n      pop\n      dup3\n      jump\t// out\n    tag_25:\n      pop\n      dup1\n      sload\n      0x00\n      dup3\n      sstore\n      swap1\n      0x00\n      mstore\n      keccak256(0x00, 0x20)\n      swap1\n      dup2\n      add\n      swap1\n      tag_66\n      swap2\n      swap1\n      tag_67\n      jump\t// in\n    tag_66:\n      pop\n      jump\t// out\n    tag_54:\n      mload(0x40)\n      dup1\n      0x40\n      add\n      0x40\n      mstore\n      dup1\n      and(0xffffffffffffffffffffffffffffffffffffffff, 0x00)\n      dup2\n      mstore\n      0x20\n      add\n      and(0xff, 0x00)\n      dup2\n      mstore\n      pop\n      swap1\n      jump\t// out\n    tag_67:\n    tag_68:\n      dup1\n      dup3\n      gt\n      iszero\n      tag_69\n      jumpi\n      0x00\n      dup1\n      dup3\n      add\n      exp(0x0100, 0x00)\n      dup2\n      sload\n      swap1\n      0xffffffffffffffffffffffffffffffffffffffff\n      mul\n      not\n      and\n      swap1\n      sstore\n      0x00\n      dup3\n      add\n      exp(0x0100, 0x14)\n      dup2\n      sload\n      swap1\n      0xff\n      mul\n      not\n      and\n      swap1\n      sstore\n      pop\n      0x01\n      add\n      jump(tag_68)\n    tag_69:\n      pop\n      swap1\n      jump\t// out\n        /* \"#utility.yul\":7:121   */\n    tag_70:\n        /* \"#utility.yul\":74:80   */\n      0x00\n        /* \"#utility.yul\":108:113   */\n      dup2\n        /* \"#utility.yul\":102:114   */\n      mload\n        /* \"#utility.yul\":92:114   */\n      swap1\n      pop\n        /* \"#utility.yul\":7:121   */\n      swap2\n      swap1\n      pop\n      jump\t// out\n        /* \"#utility.yul\":127:311   */\n    tag_71:\n        /* \"#utility.yul\":226:237   */\n      0x00\n        /* \"#utility.yul\":260:266   */\n      dup3\n        /* \"#utility.yul\":255:258   */\n      dup3\n        /* \"#utility.yul\":248:267   */\n      mstore\n        /* \"#utility.yul\":300:304   */\n      0x20\n        /* \"#utility.yul\":295:298   */\n      dup3\n        /* \"#utility.yul\":291:305   */\n      add\n        /* \"#utility.yul\":276:305   */\n      swap1\n      pop\n        /* \"#utility.yul\":127:311   */\n      swap3\n      swap2\n      pop\n      pop\n      jump\t// out\n        /* \"#utility.yul\":317:449   */\n    tag_72:\n        /* \"#utility.yul\":384:388   */\n      0x00\n        /* \"#utility.yul\":407:410   */\n      dup2\n        /* \"#utility.yul\":399:410   */\n      swap1\n      pop\n        /* \"#utility.yul\":437:441   */\n      0x20\n        /* \"#utility.yul\":432:435   */\n      dup3\n        /* \"#utility.yul\":428:442   */\n      add\n        /* \"#utility.yul\":420:442   */\n      swap1\n      pop\n        /* \"#utility.yul\":317:449   */\n      swap2\n      swap1\n      pop\n      jump\t// out\n        /* \"#utility.yul\":455:581   */\n    tag_73:\n        /* \"#utility.yul\":492:499   */\n      0x00\n        /* \"#utility.yul\":532:574   */\n      0xffffffffffffffffffffffffffffffffffffffff\n        /* \"#utility.yul\":525:530   */\n      dup3\n        /* \"#utility.yul\":521:575   */\n      and\n        /* \"#utility.yul\":510:575   */\n      swap1\n      pop\n        /* \"#utility.yul\":455:581   */\n      swap2\n      swap1\n      pop\n      jump\t// out\n        /* \"#utility.yul\":587:683   */\n    tag_74:\n        /* \"#utility.yul\":624:631   */\n      0x00\n        /* \"#utility.yul\":653:677   */\n      tag_118\n        /* \"#utility.yul\":671:676   */\n      dup3\n        /* \"#utility.yul\":653:677   */\n      tag_73\n      jump\t// in\n    tag_118:\n        /* \"#utility.yul\":642:677   */\n      swap1\n      pop\n        /* \"#utility.yul\":587:683   */\n      swap2\n      swap1\n      pop\n      jump\t// out\n        /* \"#utility.yul\":689:797   */\n    tag_75:\n        /* \"#utility.yul\":766:790   */\n      tag_120\n        /* \"#utility.yul\":784:789   */\n      dup2\n        /* \"#utility.yul\":766:790   */\n      tag_74\n      jump\t// in\n    tag_120:\n        /* \"#utility.yul\":761:764   */\n      dup3\n        /* \"#utility.yul\":754:791   */\n      mstore\n        /* \"#utility.yul\":689:797   */\n      pop\n      pop\n      jump\t// out\n        /* \"#utility.yul\":803:982   */\n    tag_76:\n        /* \"#utility.yul\":872:882   */\n      0x00\n        /* \"#utility.yul\":893:939   */\n      tag_122\n        /* \"#utility.yul\":935:938   */\n      dup4\n        /* \"#utility.yul\":927:933   */\n      dup4\n        /* \"#utility.yul\":893:939   */\n      tag_75\n      jump\t// in\n    tag_122:\n        /* \"#utility.yul\":971:975   */\n      0x20\n        /* \"#utility.yul\":966:969   */\n      dup4\n        /* \"#utility.yul\":962:976   */\n      add\n        /* \"#utility.yul\":948:976   */\n      swap1\n      pop\n        /* \"#utility.yul\":803:982   */\n      swap3\n      swap2\n      pop\n      pop\n      jump\t// out\n        /* \"#utility.yul\":988:1101   */\n    tag_77:\n        /* \"#utility.yul\":1058:1062   */\n      0x00\n        /* \"#utility.yul\":1090:1094   */\n      0x20\n        /* \"#utility.yul\":1085:1088   */\n      dup3\n        /* \"#utility.yul\":1081:1095   */\n      add\n        /* \"#utility.yul\":1073:1095   */\n      swap1\n      pop\n        /* \"#utility.yul\":988:1101   */\n      swap2\n      swap1\n      pop\n      jump\t// out\n        /* \"#utility.yul\":1137:1869   */\n    tag_78:\n        /* \"#utility.yul\":1256:1259   */\n      0x00\n        /* \"#utility.yul\":1285:1339   */\n      tag_125\n        /* \"#utility.yul\":1333:1338   */\n      dup3\n        /* \"#utility.yul\":1285:1339   */\n      tag_70\n      jump\t// in\n    tag_125:\n        /* \"#utility.yul\":1355:1441   */\n      tag_126\n        /* \"#utility.yul\":1434:1440   */\n      dup2\n        /* \"#utility.yul\":1429:1432   */\n      dup6\n        /* \"#utility.yul\":1355:1441   */\n      tag_71\n      jump\t// in\n    tag_126:\n        /* \"#utility.yul\":1348:1441   */\n      swap4\n      pop\n        /* \"#utility.yul\":1465:1521   */\n      tag_127\n        /* \"#utility.yul\":1515:1520   */\n      dup4\n        /* \"#utility.yul\":1465:1521   */\n      tag_72\n      jump\t// in\n    tag_127:\n        /* \"#utility.yul\":1544:1551   */\n      dup1\n        /* \"#utility.yul\":1575:1576   */\n      0x00\n        /* \"#utility.yul\":1560:1844   */\n    tag_128:\n        /* \"#utility.yul\":1585:1591   */\n      dup4\n        /* \"#utility.yul\":1582:1583   */\n      dup2\n        /* \"#utility.yul\":1579:1592   */\n      lt\n        /* \"#utility.yul\":1560:1844   */\n      iszero\n      tag_130\n      jumpi\n        /* \"#utility.yul\":1661:1667   */\n      dup2\n        /* \"#utility.yul\":1655:1668   */\n      mload\n        /* \"#utility.yul\":1688:1751   */\n      tag_131\n        /* \"#utility.yul\":1747:1750   */\n      dup9\n        /* \"#utility.yul\":1732:1745   */\n      dup3\n        /* \"#utility.yul\":1688:1751   */\n      tag_76\n      jump\t// in\n    tag_131:\n        /* \"#utility.yul\":1681:1751   */\n      swap8\n      pop\n        /* \"#utility.yul\":1774:1834   */\n      tag_132\n        /* \"#utility.yul\":1827:1833   */\n      dup4\n        /* \"#utility.yul\":1774:1834   */\n      tag_77\n      jump\t// in\n    tag_132:\n        /* \"#utility.yul\":1764:1834   */\n      swap3\n      pop\n        /* \"#utility.yul\":1620:1844   */\n      pop\n        /* \"#utility.yul\":1607:1608   */\n      0x01\n        /* \"#utility.yul\":1604:1605   */\n      dup2\n        /* \"#utility.yul\":1600:1609   */\n      add\n        /* \"#utility.yul\":1595:1609   */\n      swap1\n      pop\n        /* \"#utility.yul\":1560:1844   */\n      jump(tag_128)\n    tag_130:\n        /* \"#utility.yul\":1564:1578   */\n      pop\n        /* \"#utility.yul\":1860:1863   */\n      dup6\n        /* \"#utility.yul\":1853:1863   */\n      swap4\n      pop\n        /* \"#utility.yul\":1261:1869   */\n      pop\n      pop\n      pop\n        /* \"#utility.yul\":1137:1869   */\n      swap3\n      swap2\n      pop\n      pop\n      jump\t// out\n        /* \"#utility.yul\":1875:1987   */\n    tag_79:\n        /* \"#utility.yul\":1940:1946   */\n      0x00\n        /* \"#utility.yul\":1974:1979   */\n      dup2\n        /* \"#utility.yul\":1968:1980   */\n      mload\n        /* \"#utility.yul\":1958:1980   */\n      swap1\n      pop\n        /* \"#utility.yul\":1875:1987   */\n      swap2\n      swap1\n      pop\n      jump\t// out\n        /* \"#utility.yul\":1993:2175   */\n    tag_80:\n        /* \"#utility.yul\":2090:2101   */\n      0x00\n        /* \"#utility.yul\":2124:2130   */\n      dup3\n        /* \"#utility.yul\":2119:2122   */\n      dup3\n        /* \"#utility.yul\":2112:2131   */\n      mstore\n        /* \"#utility.yul\":2164:2168   */\n      0x20\n        /* \"#utility.yul\":2159:2162   */\n      dup3\n        /* \"#utility.yul\":2155:2169   */\n      add\n        /* \"#utility.yul\":2140:2169   */\n      swap1\n      pop\n        /* \"#utility.yul\":1993:2175   */\n      swap3\n      swap2\n      pop\n      pop\n      jump\t// out\n        /* \"#utility.yul\":2181:2311   */\n    tag_81:\n        /* \"#utility.yul\":2246:2250   */\n      0x00\n        /* \"#utility.yul\":2269:2272   */\n      dup2\n        /* \"#utility.yul\":2261:2272   */\n      swap1\n      pop\n        /* \"#utility.yul\":2299:2303   */\n      0x20\n        /* \"#utility.yul\":2294:2297   */\n      dup3\n        /* \"#utility.yul\":2290:2304   */\n      add\n        /* \"#utility.yul\":2282:2304   */\n      swap1\n      pop\n        /* \"#utility.yul\":2181:2311   */\n      swap2\n      swap1\n      pop\n      jump\t// out\n        /* \"#utility.yul\":2317:2403   */\n    tag_82:\n        /* \"#utility.yul\":2352:2359   */\n      0x00\n        /* \"#utility.yul\":2392:2396   */\n      0xff\n        /* \"#utility.yul\":2385:2390   */\n      dup3\n        /* \"#utility.yul\":2381:2397   */\n      and\n        /* \"#utility.yul\":2370:2397   */\n      swap1\n      pop\n        /* \"#utility.yul\":2317:2403   */\n      swap2\n      swap1\n      pop\n      jump\t// out\n        /* \"#utility.yul\":2409:2511   */\n    tag_83:\n        /* \"#utility.yul\":2482:2504   */\n      tag_138\n        /* \"#utility.yul\":2498:2503   */\n      dup2\n        /* \"#utility.yul\":2482:2504   */\n      tag_82\n      jump\t// in\n    tag_138:\n        /* \"#utility.yul\":2477:2480   */\n      dup3\n        /* \"#utility.yul\":2470:2505   */\n      mstore\n        /* \"#utility.yul\":2409:2511   */\n      pop\n      pop\n      jump\t// out\n        /* \"#utility.yul\":2517:2688   */\n    tag_84:\n        /* \"#utility.yul\":2582:2592   */\n      0x00\n        /* \"#utility.yul\":2603:2645   */\n      tag_140\n        /* \"#utility.yul\":2641:2644   */\n      dup4\n        /* \"#utility.yul\":2633:2639   */\n      dup4\n        /* \"#utility.yul\":2603:2645   */\n      tag_83\n      jump\t// in\n    tag_140:\n        /* \"#utility.yul\":2677:2681   */\n      0x20\n        /* \"#utility.yul\":2672:2675   */\n      dup4\n        /* \"#utility.yul\":2668:2682   */\n      add\n        /* \"#utility.yul\":2654:2682   */\n      swap1\n      pop\n        /* \"#utility.yul\":2517:2688   */\n      swap3\n      swap2\n      pop\n      pop\n      jump\t// out\n        /* \"#utility.yul\":2694:2805   */\n    tag_85:\n        /* \"#utility.yul\":2762:2766   */\n      0x00\n        /* \"#utility.yul\":2794:2798   */\n      0x20\n        /* \"#utility.yul\":2789:2792   */\n      dup3\n        /* \"#utility.yul\":2785:2799   */\n      add\n        /* \"#utility.yul\":2777:2799   */\n      swap1\n      pop\n        /* \"#utility.yul\":2694:2805   */\n      swap2\n      swap1\n      pop\n      jump\t// out\n        /* \"#utility.yul\":2837:3553   */\n    tag_86:\n        /* \"#utility.yul\":2952:2955   */\n      0x00\n        /* \"#utility.yul\":2981:3033   */\n      tag_143\n        /* \"#utility.yul\":3027:3032   */\n      dup3\n        /* \"#utility.yul\":2981:3033   */\n      tag_79\n      jump\t// in\n    tag_143:\n        /* \"#utility.yul\":3049:3133   */\n      tag_144\n        /* \"#utility.yul\":3126:3132   */\n      dup2\n        /* \"#utility.yul\":3121:3124   */\n      dup6\n        /* \"#utility.yul\":3049:3133   */\n      tag_80\n      jump\t// in\n    tag_144:\n        /* \"#utility.yul\":3042:3133   */\n      swap4\n      pop\n        /* \"#utility.yul\":3157:3211   */\n      tag_145\n        /* \"#utility.yul\":3205:3210   */\n      dup4\n        /* \"#utility.yul\":3157:3211   */\n      tag_81\n      jump\t// in\n    tag_145:\n        /* \"#utility.yul\":3234:3241   */\n      dup1\n        /* \"#utility.yul\":3265:3266   */\n      0x00\n        /* \"#utility.yul\":3250:3528   */\n    tag_146:\n        /* \"#utility.yul\":3275:3281   */\n      dup4\n        /* \"#utility.yul\":3272:3273   */\n      dup2\n        /* \"#utility.yul\":3269:3282   */\n      lt\n        /* \"#utility.yul\":3250:3528   */\n      iszero\n      tag_148\n      jumpi\n        /* \"#utility.yul\":3351:3357   */\n      dup2\n        /* \"#utility.yul\":3345:3358   */\n      mload\n        /* \"#utility.yul\":3378:3437   */\n      tag_149\n        /* \"#utility.yul\":3433:3436   */\n      dup9\n        /* \"#utility.yul\":3418:3431   */\n      dup3\n        /* \"#utility.yul\":3378:3437   */\n      tag_84\n      jump\t// in\n    tag_149:\n        /* \"#utility.yul\":3371:3437   */\n      swap8\n      pop\n        /* \"#utility.yul\":3460:3518   */\n      tag_150\n        /* \"#utility.yul\":3511:3517   */\n      dup4\n        /* \"#utility.yul\":3460:3518   */\n      tag_85\n      jump\t// in\n    tag_150:\n        /* \"#utility.yul\":3450:3518   */\n      swap3\n      pop\n        /* \"#utility.yul\":3310:3528   */\n      pop\n        /* \"#utility.yul\":3297:3298   */\n      0x01\n        /* \"#utility.yul\":3294:3295   */\n      dup2\n        /* \"#utility.yul\":3290:3299   */\n      add\n        /* \"#utility.yul\":3285:3299   */\n      swap1\n      pop\n        /* \"#utility.yul\":3250:3528   */\n      jump(tag_146)\n    tag_148:\n        /* \"#utility.yul\":3254:3268   */\n      pop\n        /* \"#utility.yul\":3544:3547   */\n      dup6\n        /* \"#utility.yul\":3537:3547   */\n      swap4\n      pop\n        /* \"#utility.yul\":2957:3553   */\n      pop\n      pop\n      pop\n        /* \"#utility.yul\":2837:3553   */\n      swap3\n      swap2\n      pop\n      pop\n      jump\t// out\n        /* \"#utility.yul\":3559:4185   */\n    tag_12:\n        /* \"#utility.yul\":3776:3780   */\n      0x00\n        /* \"#utility.yul\":3814:3816   */\n      0x40\n        /* \"#utility.yul\":3803:3812   */\n      dup3\n        /* \"#utility.yul\":3799:3817   */\n      add\n        /* \"#utility.yul\":3791:3817   */\n      swap1\n      pop\n        /* \"#utility.yul\":3863:3872   */\n      dup2\n        /* \"#utility.yul\":3857:3861   */\n      dup2\n        /* \"#utility.yul\":3853:3873   */\n      sub\n        /* \"#utility.yul\":3849:3850   */\n      0x00\n        /* \"#utility.yul\":3838:3847   */\n      dup4\n        /* \"#utility.yul\":3834:3851   */\n      add\n        /* \"#utility.yul\":3827:3874   */\n      mstore\n        /* \"#utility.yul\":3891:3999   */\n      tag_152\n        /* \"#utility.yul\":3994:3998   */\n      dup2\n        /* \"#utility.yul\":3985:3991   */\n      dup6\n        /* \"#utility.yul\":3891:3999   */\n      tag_78\n      jump\t// in\n    tag_152:\n        /* \"#utility.yul\":3883:3999   */\n      swap1\n      pop\n        /* \"#utility.yul\":4046:4055   */\n      dup2\n        /* \"#utility.yul\":4040:4044   */\n      dup2\n        /* \"#utility.yul\":4036:4056   */\n      sub\n        /* \"#utility.yul\":4031:4033   */\n      0x20\n        /* \"#utility.yul\":4020:4029   */\n      dup4\n        /* \"#utility.yul\":4016:4034   */\n      add\n        /* \"#utility.yul\":4009:4057   */\n      mstore\n        /* \"#utility.yul\":4074:4178   */\n      tag_153\n        /* \"#utility.yul\":4173:4177   */\n      dup2\n        /* \"#utility.yul\":4164:4170   */\n      dup5\n        /* \"#utility.yul\":4074:4178   */\n      tag_86\n      jump\t// in\n    tag_153:\n        /* \"#utility.yul\":4066:4178   */\n      swap1\n      pop\n        /* \"#utility.yul\":3559:4185   */\n      swap4\n      swap3\n      pop\n      pop\n      pop\n      jump\t// out\n        /* \"#utility.yul\":4191:4266   */\n    tag_87:\n        /* \"#utility.yul\":4224:4230   */\n      0x00\n        /* \"#utility.yul\":4257:4259   */\n      0x40\n        /* \"#utility.yul\":4251:4260   */\n      mload\n        /* \"#utility.yul\":4241:4260   */\n      swap1\n      pop\n        /* \"#utility.yul\":4191:4266   */\n      swap1\n      jump\t// out\n        /* \"#utility.yul\":4272:4389   */\n    tag_88:\n        /* \"#utility.yul\":4381:4382   */\n      0x00\n        /* \"#utility.yul\":4378:4379   */\n      dup1\n        /* \"#utility.yul\":4371:4383   */\n      revert\n        /* \"#utility.yul\":4395:4512   */\n    tag_89:\n        /* \"#utility.yul\":4504:4505   */\n      0x00\n        /* \"#utility.yul\":4501:4502   */\n      dup1\n        /* \"#utility.yul\":4494:4506   */\n      revert\n        /* \"#utility.yul\":4518:4635   */\n    tag_90:\n        /* \"#utility.yul\":4627:4628   */\n      0x00\n        /* \"#utility.yul\":4624:4625   */\n      dup1\n        /* \"#utility.yul\":4617:4629   */\n      revert\n        /* \"#utility.yul\":4641:4743   */\n    tag_91:\n        /* \"#utility.yul\":4682:4688   */\n      0x00\n        /* \"#utility.yul\":4733:4735   */\n      0x1f\n        /* \"#utility.yul\":4729:4736   */\n      not\n        /* \"#utility.yul\":4724:4726   */\n      0x1f\n        /* \"#utility.yul\":4717:4722   */\n      dup4\n        /* \"#utility.yul\":4713:4727   */\n      add\n        /* \"#utility.yul\":4709:4737   */\n      and\n        /* \"#utility.yul\":4699:4737   */\n      swap1\n      pop\n        /* \"#utility.yul\":4641:4743   */\n      swap2\n      swap1\n      pop\n      jump\t// out\n        /* \"#utility.yul\":4749:4929   */\n    tag_32:\n        /* \"#utility.yul\":4797:4874   */\n      0x4e487b7100000000000000000000000000000000000000000000000000000000\n        /* \"#utility.yul\":4794:4795   */\n      0x00\n        /* \"#utility.yul\":4787:4875   */\n      mstore\n        /* \"#utility.yul\":4894:4898   */\n      0x41\n        /* \"#utility.yul\":4891:4892   */\n      0x04\n        /* \"#utility.yul\":4884:4899   */\n      mstore\n        /* \"#utility.yul\":4918:4922   */\n      0x24\n        /* \"#utility.yul\":4915:4916   */\n      0x00\n        /* \"#utility.yul\":4908:4923   */\n      revert\n        /* \"#utility.yul\":4935:5216   */\n    tag_92:\n        /* \"#utility.yul\":5018:5045   */\n      tag_161\n        /* \"#utility.yul\":5040:5044   */\n      dup3\n        /* \"#utility.yul\":5018:5045   */\n      tag_91\n      jump\t// in\n    tag_161:\n        /* \"#utility.yul\":5010:5016   */\n      dup2\n        /* \"#utility.yul\":5006:5046   */\n      add\n        /* \"#utility.yul\":5148:5154   */\n      dup2\n        /* \"#utility.yul\":5136:5146   */\n      dup2\n        /* \"#utility.yul\":5133:5155   */\n      lt\n        /* \"#utility.yul\":5112:5130   */\n      0xffffffffffffffff\n        /* \"#utility.yul\":5100:5110   */\n      dup3\n        /* \"#utility.yul\":5097:5131   */\n      gt\n        /* \"#utility.yul\":5094:5156   */\n      or\n        /* \"#utility.yul\":5091:5179   */\n      iszero\n      tag_162\n      jumpi\n        /* \"#utility.yul\":5159:5177   */\n      tag_163\n      tag_32\n      jump\t// in\n    tag_163:\n        /* \"#utility.yul\":5091:5179   */\n    tag_162:\n        /* \"#utility.yul\":5199:5209   */\n      dup1\n        /* \"#utility.yul\":5195:5197   */\n      0x40\n        /* \"#utility.yul\":5188:5210   */\n      mstore\n        /* \"#utility.yul\":4978:5216   */\n      pop\n        /* \"#utility.yul\":4935:5216   */\n      pop\n      pop\n      jump\t// out\n        /* \"#utility.yul\":5222:5351   */\n    tag_93:\n        /* \"#utility.yul\":5256:5262   */\n      0x00\n        /* \"#utility.yul\":5283:5303   */\n      tag_165\n      tag_87\n      jump\t// in\n    tag_165:\n        /* \"#utility.yul\":5273:5303   */\n      swap1\n      pop\n        /* \"#utility.yul\":5312:5345   */\n      tag_166\n        /* \"#utility.yul\":5340:5344   */\n      dup3\n        /* \"#utility.yul\":5332:5338   */\n      dup3\n        /* \"#utility.yul\":5312:5345   */\n      tag_92\n      jump\t// in\n    tag_166:\n        /* \"#utility.yul\":5222:5351   */\n      swap2\n      swap1\n      pop\n      jump\t// out\n        /* \"#utility.yul\":5357:5668   */\n    tag_94:\n        /* \"#utility.yul\":5434:5438   */\n      0x00\n        /* \"#utility.yul\":5524:5542   */\n      0xffffffffffffffff\n        /* \"#utility.yul\":5516:5522   */\n      dup3\n        /* \"#utility.yul\":5513:5543   */\n      gt\n        /* \"#utility.yul\":5510:5566   */\n      iszero\n      tag_168\n      jumpi\n        /* \"#utility.yul\":5546:5564   */\n      tag_169\n      tag_32\n      jump\t// in\n    tag_169:\n        /* \"#utility.yul\":5510:5566   */\n    tag_168:\n        /* \"#utility.yul\":5596:5600   */\n      0x20\n        /* \"#utility.yul\":5588:5594   */\n      dup3\n        /* \"#utility.yul\":5584:5601   */\n      mul\n        /* \"#utility.yul\":5576:5601   */\n      swap1\n      pop\n        /* \"#utility.yul\":5656:5660   */\n      0x20\n        /* \"#utility.yul\":5650:5654   */\n      dup2\n        /* \"#utility.yul\":5646:5661   */\n      add\n        /* \"#utility.yul\":5638:5661   */\n      swap1\n      pop\n        /* \"#utility.yul\":5357:5668   */\n      swap2\n      swap1\n      pop\n      jump\t// out\n        /* \"#utility.yul\":5674:5791   */\n    tag_95:\n        /* \"#utility.yul\":5783:5784   */\n      0x00\n        /* \"#utility.yul\":5780:5781   */\n      dup1\n        /* \"#utility.yul\":5773:5785   */\n      revert\n        /* \"#utility.yul\":5797:5919   */\n    tag_96:\n        /* \"#utility.yul\":5870:5894   */\n      tag_172\n        /* \"#utility.yul\":5888:5893   */\n      dup2\n        /* \"#utility.yul\":5870:5894   */\n      tag_74\n      jump\t// in\n    tag_172:\n        /* \"#utility.yul\":5863:5868   */\n      dup2\n        /* \"#utility.yul\":5860:5895   */\n      eq\n        /* \"#utility.yul\":5850:5913   */\n      tag_173\n      jumpi\n        /* \"#utility.yul\":5909:5910   */\n      0x00\n        /* \"#utility.yul\":5906:5907   */\n      dup1\n        /* \"#utility.yul\":5899:5911   */\n      revert\n        /* \"#utility.yul\":5850:5913   */\n    tag_173:\n        /* \"#utility.yul\":5797:5919   */\n      pop\n      jump\t// out\n        /* \"#utility.yul\":5925:6064   */\n    tag_97:\n        /* \"#utility.yul\":5971:5976   */\n      0x00\n        /* \"#utility.yul\":6009:6015   */\n      dup2\n        /* \"#utility.yul\":5996:6016   */\n      calldataload\n        /* \"#utility.yul\":5987:6016   */\n      swap1\n      pop\n        /* \"#utility.yul\":6025:6058   */\n      tag_175\n        /* \"#utility.yul\":6052:6057   */\n      dup2\n        /* \"#utility.yul\":6025:6058   */\n      tag_96\n      jump\t// in\n    tag_175:\n        /* \"#utility.yul\":5925:6064   */\n      swap3\n      swap2\n      pop\n      pop\n      jump\t// out\n        /* \"#utility.yul\":6087:6797   */\n    tag_98:\n        /* \"#utility.yul\":6183:6188   */\n      0x00\n        /* \"#utility.yul\":6208:6289   */\n      tag_177\n        /* \"#utility.yul\":6224:6288   */\n      tag_178\n        /* \"#utility.yul\":6281:6287   */\n      dup5\n        /* \"#utility.yul\":6224:6288   */\n      tag_94\n      jump\t// in\n    tag_178:\n        /* \"#utility.yul\":6208:6289   */\n      tag_93\n      jump\t// in\n    tag_177:\n        /* \"#utility.yul\":6199:6289   */\n      swap1\n      pop\n        /* \"#utility.yul\":6309:6314   */\n      dup1\n        /* \"#utility.yul\":6338:6344   */\n      dup4\n        /* \"#utility.yul\":6331:6336   */\n      dup3\n        /* \"#utility.yul\":6324:6345   */\n      mstore\n        /* \"#utility.yul\":6372:6376   */\n      0x20\n        /* \"#utility.yul\":6365:6370   */\n      dup3\n        /* \"#utility.yul\":6361:6377   */\n      add\n        /* \"#utility.yul\":6354:6377   */\n      swap1\n      pop\n        /* \"#utility.yul\":6425:6429   */\n      0x20\n        /* \"#utility.yul\":6417:6423   */\n      dup5\n        /* \"#utility.yul\":6413:6430   */\n      mul\n        /* \"#utility.yul\":6405:6411   */\n      dup4\n        /* \"#utility.yul\":6401:6431   */\n      add\n        /* \"#utility.yul\":6454:6457   */\n      dup6\n        /* \"#utility.yul\":6446:6452   */\n      dup2\n        /* \"#utility.yul\":6443:6458   */\n      gt\n        /* \"#utility.yul\":6440:6562   */\n      iszero\n      tag_179\n      jumpi\n        /* \"#utility.yul\":6473:6552   */\n      tag_180\n      tag_95\n      jump\t// in\n    tag_180:\n        /* \"#utility.yul\":6440:6562   */\n    tag_179:\n        /* \"#utility.yul\":6588:6594   */\n      dup4\n        /* \"#utility.yul\":6571:6791   */\n    tag_181:\n        /* \"#utility.yul\":6605:6611   */\n      dup2\n        /* \"#utility.yul\":6600:6603   */\n      dup2\n        /* \"#utility.yul\":6597:6612   */\n      lt\n        /* \"#utility.yul\":6571:6791   */\n      iszero\n      tag_183\n      jumpi\n        /* \"#utility.yul\":6680:6683   */\n      dup1\n        /* \"#utility.yul\":6709:6746   */\n      tag_184\n        /* \"#utility.yul\":6742:6745   */\n      dup9\n        /* \"#utility.yul\":6730:6740   */\n      dup3\n        /* \"#utility.yul\":6709:6746   */\n      tag_97\n      jump\t// in\n    tag_184:\n        /* \"#utility.yul\":6704:6707   */\n      dup5\n        /* \"#utility.yul\":6697:6747   */\n      mstore\n        /* \"#utility.yul\":6776:6780   */\n      0x20\n        /* \"#utility.yul\":6771:6774   */\n      dup5\n        /* \"#utility.yul\":6767:6781   */\n      add\n        /* \"#utility.yul\":6760:6781   */\n      swap4\n      pop\n        /* \"#utility.yul\":6647:6791   */\n      pop\n        /* \"#utility.yul\":6631:6635   */\n      0x20\n        /* \"#utility.yul\":6626:6629   */\n      dup2\n        /* \"#utility.yul\":6622:6636   */\n      add\n        /* \"#utility.yul\":6615:6636   */\n      swap1\n      pop\n        /* \"#utility.yul\":6571:6791   */\n      jump(tag_181)\n    tag_183:\n        /* \"#utility.yul\":6575:6596   */\n      pop\n        /* \"#utility.yul\":6189:6797   */\n      pop\n      pop\n        /* \"#utility.yul\":6087:6797   */\n      swap4\n      swap3\n      pop\n      pop\n      pop\n      jump\t// out\n        /* \"#utility.yul\":6820:7190   */\n    tag_99:\n        /* \"#utility.yul\":6891:6896   */\n      0x00\n        /* \"#utility.yul\":6940:6943   */\n      dup3\n        /* \"#utility.yul\":6933:6937   */\n      0x1f\n        /* \"#utility.yul\":6925:6931   */\n      dup4\n        /* \"#utility.yul\":6921:6938   */\n      add\n        /* \"#utility.yul\":6917:6944   */\n      slt\n        /* \"#utility.yul\":6907:7029   */\n      tag_186\n      jumpi\n        /* \"#utility.yul\":6948:7027   */\n      tag_187\n      tag_90\n      jump\t// in\n    tag_187:\n        /* \"#utility.yul\":6907:7029   */\n    tag_186:\n        /* \"#utility.yul\":7065:7071   */\n      dup2\n        /* \"#utility.yul\":7052:7072   */\n      calldataload\n        /* \"#utility.yul\":7090:7184   */\n      tag_188\n        /* \"#utility.yul\":7180:7183   */\n      dup5\n        /* \"#utility.yul\":7172:7178   */\n      dup3\n        /* \"#utility.yul\":7165:7169   */\n      0x20\n        /* \"#utility.yul\":7157:7163   */\n      dup7\n        /* \"#utility.yul\":7153:7170   */\n      add\n        /* \"#utility.yul\":7090:7184   */\n      tag_98\n      jump\t// in\n    tag_188:\n        /* \"#utility.yul\":7081:7184   */\n      swap2\n      pop\n        /* \"#utility.yul\":6897:7190   */\n      pop\n        /* \"#utility.yul\":6820:7190   */\n      swap3\n      swap2\n      pop\n      pop\n      jump\t// out\n        /* \"#utility.yul\":7196:7505   */\n    tag_100:\n        /* \"#utility.yul\":7271:7275   */\n      0x00\n        /* \"#utility.yul\":7361:7379   */\n      0xffffffffffffffff\n        /* \"#utility.yul\":7353:7359   */\n      dup3\n        /* \"#utility.yul\":7350:7380   */\n      gt\n        /* \"#utility.yul\":7347:7403   */\n      iszero\n      tag_190\n      jumpi\n        /* \"#utility.yul\":7383:7401   */\n      tag_191\n      tag_32\n      jump\t// in\n    tag_191:\n        /* \"#utility.yul\":7347:7403   */\n    tag_190:\n        /* \"#utility.yul\":7433:7437   */\n      0x20\n        /* \"#utility.yul\":7425:7431   */\n      dup3\n        /* \"#utility.yul\":7421:7438   */\n      mul\n        /* \"#utility.yul\":7413:7438   */\n      swap1\n      pop\n        /* \"#utility.yul\":7493:7497   */\n      0x20\n        /* \"#utility.yul\":7487:7491   */\n      dup2\n        /* \"#utility.yul\":7483:7498   */\n      add\n        /* \"#utility.yul\":7475:7498   */\n      swap1\n      pop\n        /* \"#utility.yul\":7196:7505   */\n      swap2\n      swap1\n      pop\n      jump\t// out\n        /* \"#utility.yul\":7511:7629   */\n    tag_101:\n        /* \"#utility.yul\":7582:7604   */\n      tag_193\n        /* \"#utility.yul\":7598:7603   */\n      dup2\n        /* \"#utility.yul\":7582:7604   */\n      tag_82\n      jump\t// in\n    tag_193:\n        /* \"#utility.yul\":7575:7580   */\n      dup2\n        /* \"#utility.yul\":7572:7605   */\n      eq\n        /* \"#utility.yul\":7562:7623   */\n      tag_194\n      jumpi\n        /* \"#utility.yul\":7619:7620   */\n      0x00\n        /* \"#utility.yul\":7616:7617   */\n      dup1\n        /* \"#utility.yul\":7609:7621   */\n      revert\n        /* \"#utility.yul\":7562:7623   */\n    tag_194:\n        /* \"#utility.yul\":7511:7629   */\n      pop\n      jump\t// out\n        /* \"#utility.yul\":7635:7770   */\n    tag_102:\n        /* \"#utility.yul\":7679:7684   */\n      0x00\n        /* \"#utility.yul\":7717:7723   */\n      dup2\n        /* \"#utility.yul\":7704:7724   */\n      calldataload\n        /* \"#utility.yul\":7695:7724   */\n      swap1\n      pop\n        /* \"#utility.yul\":7733:7764   */\n      tag_196\n        /* \"#utility.yul\":7758:7763   */\n      dup2\n        /* \"#utility.yul\":7733:7764   */\n      tag_101\n      jump\t// in\n    tag_196:\n        /* \"#utility.yul\":7635:7770   */\n      swap3\n      swap2\n      pop\n      pop\n      jump\t// out\n        /* \"#utility.yul\":7791:8495   */\n    tag_103:\n        /* \"#utility.yul\":7885:7890   */\n      0x00\n        /* \"#utility.yul\":7910:7989   */\n      tag_198\n        /* \"#utility.yul\":7926:7988   */\n      tag_199\n        /* \"#utility.yul\":7981:7987   */\n      dup5\n        /* \"#utility.yul\":7926:7988   */\n      tag_100\n      jump\t// in\n    tag_199:\n        /* \"#utility.yul\":7910:7989   */\n      tag_93\n      jump\t// in\n    tag_198:\n        /* \"#utility.yul\":7901:7989   */\n      swap1\n      pop\n        /* \"#utility.yul\":8009:8014   */\n      dup1\n        /* \"#utility.yul\":8038:8044   */\n      dup4\n        /* \"#utility.yul\":8031:8036   */\n      dup3\n        /* \"#utility.yul\":8024:8045   */\n      mstore\n        /* \"#utility.yul\":8072:8076   */\n      0x20\n        /* \"#utility.yul\":8065:8070   */\n      dup3\n        /* \"#utility.yul\":8061:8077   */\n      add\n        /* \"#utility.yul\":8054:8077   */\n      swap1\n      pop\n        /* \"#utility.yul\":8125:8129   */\n      0x20\n        /* \"#utility.yul\":8117:8123   */\n      dup5\n        /* \"#utility.yul\":8113:8130   */\n      mul\n        /* \"#utility.yul\":8105:8111   */\n      dup4\n        /* \"#utility.yul\":8101:8131   */\n      add\n        /* \"#utility.yul\":8154:8157   */\n      dup6\n        /* \"#utility.yul\":8146:8152   */\n      dup2\n        /* \"#utility.yul\":8143:8158   */\n      gt\n        /* \"#utility.yul\":8140:8262   */\n      iszero\n      tag_200\n      jumpi\n        /* \"#utility.yul\":8173:8252   */\n      tag_201\n      tag_95\n      jump\t// in\n    tag_201:\n        /* \"#utility.yul\":8140:8262   */\n    tag_200:\n        /* \"#utility.yul\":8288:8294   */\n      dup4\n        /* \"#utility.yul\":8271:8489   */\n    tag_202:\n        /* \"#utility.yul\":8305:8311   */\n      dup2\n        /* \"#utility.yul\":8300:8303   */\n      dup2\n        /* \"#utility.yul\":8297:8312   */\n      lt\n        /* \"#utility.yul\":8271:8489   */\n      iszero\n      tag_204\n      jumpi\n        /* \"#utility.yul\":8380:8383   */\n      dup1\n        /* \"#utility.yul\":8409:8444   */\n      tag_205\n        /* \"#utility.yul\":8440:8443   */\n      dup9\n        /* \"#utility.yul\":8428:8438   */\n      dup3\n        /* \"#utility.yul\":8409:8444   */\n      tag_102\n      jump\t// in\n    tag_205:\n        /* \"#utility.yul\":8404:8407   */\n      dup5\n        /* \"#utility.yul\":8397:8445   */\n      mstore\n        /* \"#utility.yul\":8474:8478   */\n      0x20\n        /* \"#utility.yul\":8469:8472   */\n      dup5\n        /* \"#utility.yul\":8465:8479   */\n      add\n        /* \"#utility.yul\":8458:8479   */\n      swap4\n      pop\n        /* \"#utility.yul\":8347:8489   */\n      pop\n        /* \"#utility.yul\":8331:8335   */\n      0x20\n        /* \"#utility.yul\":8326:8329   */\n      dup2\n        /* \"#utility.yul\":8322:8336   */\n      add\n        /* \"#utility.yul\":8315:8336   */\n      swap1\n      pop\n        /* \"#utility.yul\":8271:8489   */\n      jump(tag_202)\n    tag_204:\n        /* \"#utility.yul\":8275:8296   */\n      pop\n        /* \"#utility.yul\":7891:8495   */\n      pop\n      pop\n        /* \"#utility.yul\":7791:8495   */\n      swap4\n      swap3\n      pop\n      pop\n      pop\n      jump\t// out\n        /* \"#utility.yul\":8516:8882   */\n    tag_104:\n        /* \"#utility.yul\":8585:8590   */\n      0x00\n        /* \"#utility.yul\":8634:8637   */\n      dup3\n        /* \"#utility.yul\":8627:8631   */\n      0x1f\n        /* \"#utility.yul\":8619:8625   */\n      dup4\n        /* \"#utility.yul\":8615:8632   */\n      add\n        /* \"#utility.yul\":8611:8638   */\n      slt\n        /* \"#utility.yul\":8601:8723   */\n      tag_207\n      jumpi\n        /* \"#utility.yul\":8642:8721   */\n      tag_208\n      tag_90\n      jump\t// in\n    tag_208:\n        /* \"#utility.yul\":8601:8723   */\n    tag_207:\n        /* \"#utility.yul\":8759:8765   */\n      dup2\n        /* \"#utility.yul\":8746:8766   */\n      calldataload\n        /* \"#utility.yul\":8784:8876   */\n      tag_209\n        /* \"#utility.yul\":8872:8875   */\n      dup5\n        /* \"#utility.yul\":8864:8870   */\n      dup3\n        /* \"#utility.yul\":8857:8861   */\n      0x20\n        /* \"#utility.yul\":8849:8855   */\n      dup7\n        /* \"#utility.yul\":8845:8862   */\n      add\n        /* \"#utility.yul\":8784:8876   */\n      tag_103\n      jump\t// in\n    tag_209:\n        /* \"#utility.yul\":8775:8876   */\n      swap2\n      pop\n        /* \"#utility.yul\":8591:8882   */\n      pop\n        /* \"#utility.yul\":8516:8882   */\n      swap3\n      swap2\n      pop\n      pop\n      jump\t// out\n        /* \"#utility.yul\":8888:9778   */\n    tag_15:\n        /* \"#utility.yul\":9004:9010   */\n      0x00\n        /* \"#utility.yul\":9012:9018   */\n      dup1\n        /* \"#utility.yul\":9061:9063   */\n      0x40\n        /* \"#utility.yul\":9049:9058   */\n      dup4\n        /* \"#utility.yul\":9040:9047   */\n      dup6\n        /* \"#utility.yul\":9036:9059   */\n      sub\n        /* \"#utility.yul\":9032:9064   */\n      slt\n        /* \"#utility.yul\":9029:9148   */\n      iszero\n      tag_211\n      jumpi\n        /* \"#utility.yul\":9067:9146   */\n      tag_212\n      tag_88\n      jump\t// in\n    tag_212:\n        /* \"#utility.yul\":9029:9148   */\n    tag_211:\n        /* \"#utility.yul\":9215:9216   */\n      0x00\n        /* \"#utility.yul\":9204:9213   */\n      dup4\n        /* \"#utility.yul\":9200:9217   */\n      add\n        /* \"#utility.yul\":9187:9218   */\n      calldataload\n        /* \"#utility.yul\":9245:9263   */\n      0xffffffffffffffff\n        /* \"#utility.yul\":9237:9243   */\n      dup2\n        /* \"#utility.yul\":9234:9264   */\n      gt\n        /* \"#utility.yul\":9231:9348   */\n      iszero\n      tag_213\n      jumpi\n        /* \"#utility.yul\":9267:9346   */\n      tag_214\n      tag_89\n      jump\t// in\n    tag_214:\n        /* \"#utility.yul\":9231:9348   */\n    tag_213:\n        /* \"#utility.yul\":9372:9450   */\n      tag_215\n        /* \"#utility.yul\":9442:9449   */\n      dup6\n        /* \"#utility.yul\":9433:9439   */\n      dup3\n        /* \"#utility.yul\":9422:9431   */\n      dup7\n        /* \"#utility.yul\":9418:9440   */\n      add\n        /* \"#utility.yul\":9372:9450   */\n      tag_99\n      jump\t// in\n    tag_215:\n        /* \"#utility.yul\":9362:9450   */\n      swap3\n      pop\n        /* \"#utility.yul\":9158:9460   */\n      pop\n        /* \"#utility.yul\":9527:9529   */\n      0x20\n        /* \"#utility.yul\":9516:9525   */\n      dup4\n        /* \"#utility.yul\":9512:9530   */\n      add\n        /* \"#utility.yul\":9499:9531   */\n      calldataload\n        /* \"#utility.yul\":9558:9576   */\n      0xffffffffffffffff\n        /* \"#utility.yul\":9550:9556   */\n      dup2\n        /* \"#utility.yul\":9547:9577   */\n      gt\n        /* \"#utility.yul\":9544:9661   */\n      iszero\n      tag_216\n      jumpi\n        /* \"#utility.yul\":9580:9659   */\n      tag_217\n      tag_89\n      jump\t// in\n    tag_217:\n        /* \"#utility.yul\":9544:9661   */\n    tag_216:\n        /* \"#utility.yul\":9685:9761   */\n      tag_218\n        /* \"#utility.yul\":9753:9760   */\n      dup6\n        /* \"#utility.yul\":9744:9750   */\n      dup3\n        /* \"#utility.yul\":9733:9742   */\n      dup7\n        /* \"#utility.yul\":9729:9751   */\n      add\n        /* \"#utility.yul\":9685:9761   */\n      tag_104\n      jump\t// in\n    tag_218:\n        /* \"#utility.yul\":9675:9761   */\n      swap2\n      pop\n        /* \"#utility.yul\":9470:9771   */\n      pop\n        /* \"#utility.yul\":8888:9778   */\n      swap3\n      pop\n      swap3\n      swap1\n      pop\n      jump\t// out\n        /* \"#utility.yul\":9784:10113   */\n    tag_19:\n        /* \"#utility.yul\":9843:9849   */\n      0x00\n        /* \"#utility.yul\":9892:9894   */\n      0x20\n        /* \"#utility.yul\":9880:9889   */\n      dup3\n        /* \"#utility.yul\":9871:9878   */\n      dup5\n        /* \"#utility.yul\":9867:9890   */\n      sub\n        /* \"#utility.yul\":9863:9895   */\n      slt\n        /* \"#utility.yul\":9860:9979   */\n      iszero\n      tag_220\n      jumpi\n        /* \"#utility.yul\":9898:9977   */\n      tag_221\n      tag_88\n      jump\t// in\n    tag_221:\n        /* \"#utility.yul\":9860:9979   */\n    tag_220:\n        /* \"#utility.yul\":10018:10019   */\n      0x00\n        /* \"#utility.yul\":10043:10096   */\n      tag_222\n        /* \"#utility.yul\":10088:10095   */\n      dup5\n        /* \"#utility.yul\":10079:10085   */\n      dup3\n        /* \"#utility.yul\":10068:10077   */\n      dup6\n        /* \"#utility.yul\":10064:10086   */\n      add\n        /* \"#utility.yul\":10043:10096   */\n      tag_97\n      jump\t// in\n    tag_222:\n        /* \"#utility.yul\":10033:10096   */\n      swap2\n      pop\n        /* \"#utility.yul\":9989:10106   */\n      pop\n        /* \"#utility.yul\":9784:10113   */\n      swap3\n      swap2\n      pop\n      pop\n      jump\t// out\n        /* \"#utility.yul\":10119:10209   */\n    tag_105:\n        /* \"#utility.yul\":10153:10160   */\n      0x00\n        /* \"#utility.yul\":10196:10201   */\n      dup2\n        /* \"#utility.yul\":10189:10202   */\n      iszero\n        /* \"#utility.yul\":10182:10203   */\n      iszero\n        /* \"#utility.yul\":10171:10203   */\n      swap1\n      pop\n        /* \"#utility.yul\":10119:10209   */\n      swap2\n      swap1\n      pop\n      jump\t// out\n        /* \"#utility.yul\":10215:10324   */\n    tag_106:\n        /* \"#utility.yul\":10296:10317   */\n      tag_225\n        /* \"#utility.yul\":10311:10316   */\n      dup2\n        /* \"#utility.yul\":10296:10317   */\n      tag_105\n      jump\t// in\n    tag_225:\n        /* \"#utility.yul\":10291:10294   */\n      dup3\n        /* \"#utility.yul\":10284:10318   */\n      mstore\n        /* \"#utility.yul\":10215:10324   */\n      pop\n      pop\n      jump\t// out\n        /* \"#utility.yul\":10330:10407   */\n    tag_107:\n        /* \"#utility.yul\":10367:10374   */\n      0x00\n        /* \"#utility.yul\":10396:10401   */\n      dup2\n        /* \"#utility.yul\":10385:10401   */\n      swap1\n      pop\n        /* \"#utility.yul\":10330:10407   */\n      swap2\n      swap1\n      pop\n      jump\t// out\n        /* \"#utility.yul\":10413:10531   */\n    tag_108:\n        /* \"#utility.yul\":10500:10524   */\n      tag_228\n        /* \"#utility.yul\":10518:10523   */\n      dup2\n        /* \"#utility.yul\":10500:10524   */\n      tag_107\n      jump\t// in\n    tag_228:\n        /* \"#utility.yul\":10495:10498   */\n      dup3\n        /* \"#utility.yul\":10488:10525   */\n      mstore\n        /* \"#utility.yul\":10413:10531   */\n      pop\n      pop\n      jump\t// out\n        /* \"#utility.yul\":10537:10857   */\n    tag_22:\n        /* \"#utility.yul\":10652:10656   */\n      0x00\n        /* \"#utility.yul\":10690:10692   */\n      0x40\n        /* \"#utility.yul\":10679:10688   */\n      dup3\n        /* \"#utility.yul\":10675:10693   */\n      add\n        /* \"#utility.yul\":10667:10693   */\n      swap1\n      pop\n        /* \"#utility.yul\":10703:10768   */\n      tag_230\n        /* \"#utility.yul\":10765:10766   */\n      0x00\n        /* \"#utility.yul\":10754:10763   */\n      dup4\n        /* \"#utility.yul\":10750:10767   */\n      add\n        /* \"#utility.yul\":10741:10747   */\n      dup6\n        /* \"#utility.yul\":10703:10768   */\n      tag_106\n      jump\t// in\n    tag_230:\n        /* \"#utility.yul\":10778:10850   */\n      tag_231\n        /* \"#utility.yul\":10846:10848   */\n      0x20\n        /* \"#utility.yul\":10835:10844   */\n      dup4\n        /* \"#utility.yul\":10831:10849   */\n      add\n        /* \"#utility.yul\":10822:10828   */\n      dup5\n        /* \"#utility.yul\":10778:10850   */\n      tag_108\n      jump\t// in\n    tag_231:\n        /* \"#utility.yul\":10537:10857   */\n      swap4\n      swap3\n      pop\n      pop\n      pop\n      jump\t// out\n        /* \"#utility.yul\":10863:11032   */\n    tag_109:\n        /* \"#utility.yul\":10947:10958   */\n      0x00\n        /* \"#utility.yul\":10981:10987   */\n      dup3\n        /* \"#utility.yul\":10976:10979   */\n      dup3\n        /* \"#utility.yul\":10969:10988   */\n      mstore\n        /* \"#utility.yul\":11021:11025   */\n      0x20\n        /* \"#utility.yul\":11016:11019   */\n      dup3\n        /* \"#utility.yul\":11012:11026   */\n      add\n        /* \"#utility.yul\":10997:11026   */\n      swap1\n      pop\n        /* \"#utility.yul\":10863:11032   */\n      swap3\n      swap2\n      pop\n      pop\n      jump\t// out\n        /* \"#utility.yul\":11038:11211   */\n    tag_110:\n        /* \"#utility.yul\":11178:11203   */\n      0x5465737461646f72206e616f20656e636f6e747261646f000000000000000000\n        /* \"#utility.yul\":11174:11175   */\n      0x00\n        /* \"#utility.yul\":11166:11172   */\n      dup3\n        /* \"#utility.yul\":11162:11176   */\n      add\n        /* \"#utility.yul\":11155:11204   */\n      mstore\n        /* \"#utility.yul\":11038:11211   */\n      pop\n      jump\t// out\n        /* \"#utility.yul\":11217:11583   */\n    tag_111:\n        /* \"#utility.yul\":11359:11362   */\n      0x00\n        /* \"#utility.yul\":11380:11447   */\n      tag_235\n        /* \"#utility.yul\":11444:11446   */\n      0x17\n        /* \"#utility.yul\":11439:11442   */\n      dup4\n        /* \"#utility.yul\":11380:11447   */\n      tag_109\n      jump\t// in\n    tag_235:\n        /* \"#utility.yul\":11373:11447   */\n      swap2\n      pop\n        /* \"#utility.yul\":11456:11549   */\n      tag_236\n        /* \"#utility.yul\":11545:11548   */\n      dup3\n        /* \"#utility.yul\":11456:11549   */\n      tag_110\n      jump\t// in\n    tag_236:\n        /* \"#utility.yul\":11574:11576   */\n      0x20\n        /* \"#utility.yul\":11569:11572   */\n      dup3\n        /* \"#utility.yul\":11565:11577   */\n      add\n        /* \"#utility.yul\":11558:11577   */\n      swap1\n      pop\n        /* \"#utility.yul\":11217:11583   */\n      swap2\n      swap1\n      pop\n      jump\t// out\n        /* \"#utility.yul\":11589:12008   */\n    tag_29:\n        /* \"#utility.yul\":11755:11759   */\n      0x00\n        /* \"#utility.yul\":11793:11795   */\n      0x20\n        /* \"#utility.yul\":11782:11791   */\n      dup3\n        /* \"#utility.yul\":11778:11796   */\n      add\n        /* \"#utility.yul\":11770:11796   */\n      swap1\n      pop\n        /* \"#utility.yul\":11842:11851   */\n      dup2\n        /* \"#utility.yul\":11836:11840   */\n      dup2\n        /* \"#utility.yul\":11832:11852   */\n      sub\n        /* \"#utility.yul\":11828:11829   */\n      0x00\n        /* \"#utility.yul\":11817:11826   */\n      dup4\n        /* \"#utility.yul\":11813:11830   */\n      add\n        /* \"#utility.yul\":11806:11853   */\n      mstore\n        /* \"#utility.yul\":11870:12001   */\n      tag_238\n        /* \"#utility.yul\":11996:12000   */\n      dup2\n        /* \"#utility.yul\":11870:12001   */\n      tag_111\n      jump\t// in\n    tag_238:\n        /* \"#utility.yul\":11862:12001   */\n      swap1\n      pop\n        /* \"#utility.yul\":11589:12008   */\n      swap2\n      swap1\n      pop\n      jump\t// out\n        /* \"#utility.yul\":12014:12194   */\n    tag_42:\n        /* \"#utility.yul\":12062:12139   */\n      0x4e487b7100000000000000000000000000000000000000000000000000000000\n        /* \"#utility.yul\":12059:12060   */\n      0x00\n        /* \"#utility.yul\":12052:12140   */\n      mstore\n        /* \"#utility.yul\":12159:12163   */\n      0x32\n        /* \"#utility.yul\":12156:12157   */\n      0x04\n        /* \"#utility.yul\":12149:12164   */\n      mstore\n        /* \"#utility.yul\":12183:12187   */\n      0x24\n        /* \"#utility.yul\":12180:12181   */\n      0x00\n        /* \"#utility.yul\":12173:12188   */\n      revert\n\n    auxdata: 0xa26469706673582212209ef80d4f0fe42412c1fb0bba819d5ce0060477697adf52aa61374b4b1f60185964736f6c634300081a0033\n}\n",
				"bytecode": {
					"linkReferences": {},
					"object": "6080604052348015600e575f80fd5b50610da98061001c5f395ff3fe608060405234801561000f575f80fd5b506004361061004a575f3560e01c80631aba6da61461004e5780633a994a8b14610058578063759a8a9814610077578063b45b91f214610093575b5f80fd5b6100566100c4565b005b610060610132565b60405161006e92919061092a565b60405180910390f35b610091600480360381019061008c9190610bd4565b610498565b005b6100ad60048036038101906100a89190610c4a565b6106b6565b6040516100bb929190610ca7565b60405180910390f35b5f3390505f808273ffffffffffffffffffffffffffffffffffffffff1673ffffffffffffffffffffffffffffffffffffffff1681526020019081526020015f205f8082015f61011391906106e2565b600182015f6101000a81549060ff0219169055600282015f9055505050565b6060805f3390505f808273ffffffffffffffffffffffffffffffffffffffff1673ffffffffffffffffffffffffffffffffffffffff1681526020019081526020015f206001015f9054906101000a900460ff166101c4576040517f08c379a00000000000000000000000000000000000000000000000000000000081526004016101bb90610d28565b60405180910390fd5b5f805f8373ffffffffffffffffffffffffffffffffffffffff1673ffffffffffffffffffffffffffffffffffffffff1681526020019081526020015f205f018054905067ffffffffffffffff8111156102205761021f610984565b5b60405190808252806020026020018201604052801561024e5781602001602082028036833780820191505090505b5090505f805f8473ffffffffffffffffffffffffffffffffffffffff1673ffffffffffffffffffffffffffffffffffffffff1681526020019081526020015f205f018054905067ffffffffffffffff8111156102ad576102ac610984565b5b6040519080825280602002602001820160405280156102db5781602001602082028036833780820191505090505b5090505f5b5f808573ffffffffffffffffffffffffffffffffffffffff1673ffffffffffffffffffffffffffffffffffffffff1681526020019081526020015f205f018054905081101561048a575f805f8673ffffffffffffffffffffffffffffffffffffffff1673ffffffffffffffffffffffffffffffffffffffff1681526020019081526020015f205f01828154811061037a57610379610d46565b5b905f5260205f20016040518060400160405290815f82015f9054906101000a900473ffffffffffffffffffffffffffffffffffffffff1673ffffffffffffffffffffffffffffffffffffffff1673ffffffffffffffffffffffffffffffffffffffff1681526020015f820160149054906101000a900460ff1660ff1660ff16815250509050805f015184838151811061041657610415610d46565b5b602002602001019073ffffffffffffffffffffffffffffffffffffffff16908173ffffffffffffffffffffffffffffffffffffffff1681525050806020015183838151811061046857610467610d46565b5b602002602001019060ff16908160ff16815250505080806001019150506102e0565b508181945094505050509091565b5f3390505f835167ffffffffffffffff8111156104b8576104b7610984565b5b6040519080825280602002602001820160405280156104f157816020015b6104de610700565b8152602001906001900390816104d65790505b5090505f5b8451811015610658575f604051806040016040528087848151811061051e5761051d610d46565b5b602002602001015173ffffffffffffffffffffffffffffffffffffffff16815260200186848151811061055457610553610d46565b5b602002602001015160ff1681525090508083838151811061057857610577610d46565b5b60200260200101819052505f808573ffffffffffffffffffffffffffffffffffffffff1673ffffffffffffffffffffffffffffffffffffffff1681526020019081526020015f205f0181908060018154018082558091505060019003905f5260205f20015f909190919091505f820151815f015f6101000a81548173ffffffffffffffffffffffffffffffffffffffff021916908373ffffffffffffffffffffffffffffffffffffffff1602179055506020820151815f0160146101000a81548160ff021916908360ff16021790555050505080806001019150506104f6565b5060015f808473ffffffffffffffffffffffffffffffffffffffff1673ffffffffffffffffffffffffffffffffffffffff1681526020019081526020015f206001015f6101000a81548160ff02191690831515021790555050505050565b5f602052805f5260405f205f91509050806001015f9054906101000a900460ff16908060020154905082565b5080545f8255905f5260205f20908101906106fd9190610731565b50565b60405180604001604052805f73ffffffffffffffffffffffffffffffffffffffff1681526020015f60ff1681525090565b5b8082111561077c575f8082015f6101000a81549073ffffffffffffffffffffffffffffffffffffffff02191690555f820160146101000a81549060ff021916905550600101610732565b5090565b5f81519050919050565b5f82825260208201905092915050565b5f819050602082019050919050565b5f73ffffffffffffffffffffffffffffffffffffffff82169050919050565b5f6107d2826107a9565b9050919050565b6107e2816107c8565b82525050565b5f6107f383836107d9565b60208301905092915050565b5f602082019050919050565b5f61081582610780565b61081f818561078a565b935061082a8361079a565b805f5b8381101561085a57815161084188826107e8565b975061084c836107ff565b92505060018101905061082d565b5085935050505092915050565b5f81519050919050565b5f82825260208201905092915050565b5f819050602082019050919050565b5f60ff82169050919050565b6108a581610890565b82525050565b5f6108b6838361089c565b60208301905092915050565b5f602082019050919050565b5f6108d882610867565b6108e28185610871565b93506108ed83610881565b805f5b8381101561091d57815161090488826108ab565b975061090f836108c2565b9250506001810190506108f0565b5085935050505092915050565b5f6040820190508181035f830152610942818561080b565b9050818103602083015261095681846108ce565b90509392505050565b5f604051905090565b5f80fd5b5f80fd5b5f80fd5b5f601f19601f8301169050919050565b7f4e487b71000000000000000000000000000000000000000000000000000000005f52604160045260245ffd5b6109ba82610974565b810181811067ffffffffffffffff821117156109d9576109d8610984565b5b80604052505050565b5f6109eb61095f565b90506109f782826109b1565b919050565b5f67ffffffffffffffff821115610a1657610a15610984565b5b602082029050602081019050919050565b5f80fd5b610a34816107c8565b8114610a3e575f80fd5b50565b5f81359050610a4f81610a2b565b92915050565b5f610a67610a62846109fc565b6109e2565b90508083825260208201905060208402830185811115610a8a57610a89610a27565b5b835b81811015610ab35780610a9f8882610a41565b845260208401935050602081019050610a8c565b5050509392505050565b5f82601f830112610ad157610ad0610970565b5b8135610ae1848260208601610a55565b91505092915050565b5f67ffffffffffffffff821115610b0457610b03610984565b5b602082029050602081019050919050565b610b1e81610890565b8114610b28575f80fd5b50565b5f81359050610b3981610b15565b92915050565b5f610b51610b4c84610aea565b6109e2565b90508083825260208201905060208402830185811115610b7457610b73610a27565b5b835b81811015610b9d5780610b898882610b2b565b845260208401935050602081019050610b76565b5050509392505050565b5f82601f830112610bbb57610bba610970565b5b8135610bcb848260208601610b3f565b91505092915050565b5f8060408385031215610bea57610be9610968565b5b5f83013567ffffffffffffffff811115610c0757610c0661096c565b5b610c1385828601610abd565b925050602083013567ffffffffffffffff811115610c3457610c3361096c565b5b610c4085828601610ba7565b9150509250929050565b5f60208284031215610c5f57610c5e610968565b5b5f610c6c84828501610a41565b91505092915050565b5f8115159050919050565b610c8981610c75565b82525050565b5f819050919050565b610ca181610c8f565b82525050565b5f604082019050610cba5f830185610c80565b610cc76020830184610c98565b9392505050565b5f82825260208201905092915050565b7f5465737461646f72206e616f20656e636f6e747261646f0000000000000000005f82015250565b5f610d12601783610cce565b9150610d1d82610cde565b602082019050919050565b5f6020820190508181035f830152610d3f81610d06565b9050919050565b7f4e487b71000000000000000000000000000000000000000000000000000000005f52603260045260245ffdfea26469706673582212209ef80d4f0fe42412c1fb0bba819d5ce0060477697adf52aa61374b4b1f60185964736f6c634300081a0033",
					"opcodes": "PUSH1 0x80 PUSH1 0x40 MSTORE CALLVALUE DUP1 ISZERO PUSH1 0xE JUMPI PUSH0 DUP1 REVERT JUMPDEST POP PUSH2 0xDA9 DUP1 PUSH2 0x1C PUSH0 CODECOPY PUSH0 RETURN INVALID PUSH1 0x80 PUSH1 0x40 MSTORE CALLVALUE DUP1 ISZERO PUSH2 0xF JUMPI PUSH0 DUP1 REVERT JUMPDEST POP PUSH1 0x4 CALLDATASIZE LT PUSH2 0x4A JUMPI PUSH0 CALLDATALOAD PUSH1 0xE0 SHR DUP1 PUSH4 0x1ABA6DA6 EQ PUSH2 0x4E JUMPI DUP1 PUSH4 0x3A994A8B EQ PUSH2 0x58 JUMPI DUP1 PUSH4 0x759A8A98 EQ PUSH2 0x77 JUMPI DUP1 PUSH4 0xB45B91F2 EQ PUSH2 0x93 JUMPI JUMPDEST PUSH0 DUP1 REVERT JUMPDEST PUSH2 0x56 PUSH2 0xC4 JUMP JUMPDEST STOP JUMPDEST PUSH2 0x60 PUSH2 0x132 JUMP JUMPDEST PUSH1 0x40 MLOAD PUSH2 0x6E SWAP3 SWAP2 SWAP1 PUSH2 0x92A JUMP JUMPDEST PUSH1 0x40 MLOAD DUP1 SWAP2 SUB SWAP1 RETURN JUMPDEST PUSH2 0x91 PUSH1 0x4 DUP1 CALLDATASIZE SUB DUP2 ADD SWAP1 PUSH2 0x8C SWAP2 SWAP1 PUSH2 0xBD4 JUMP JUMPDEST PUSH2 0x498 JUMP JUMPDEST STOP JUMPDEST PUSH2 0xAD PUSH1 0x4 DUP1 CALLDATASIZE SUB DUP2 ADD SWAP1 PUSH2 0xA8 SWAP2 SWAP1 PUSH2 0xC4A JUMP JUMPDEST PUSH2 0x6B6 JUMP JUMPDEST PUSH1 0x40 MLOAD PUSH2 0xBB SWAP3 SWAP2 SWAP1 PUSH2 0xCA7 JUMP JUMPDEST PUSH1 0x40 MLOAD DUP1 SWAP2 SUB SWAP1 RETURN JUMPDEST PUSH0 CALLER SWAP1 POP PUSH0 DUP1 DUP3 PUSH20 0xFFFFFFFFFFFFFFFFFFFFFFFFFFFFFFFFFFFFFFFF AND PUSH20 0xFFFFFFFFFFFFFFFFFFFFFFFFFFFFFFFFFFFFFFFF AND DUP2 MSTORE PUSH1 0x20 ADD SWAP1 DUP2 MSTORE PUSH1 0x20 ADD PUSH0 KECCAK256 PUSH0 DUP1 DUP3 ADD PUSH0 PUSH2 0x113 SWAP2 SWAP1 PUSH2 0x6E2 JUMP JUMPDEST PUSH1 0x1 DUP3 ADD PUSH0 PUSH2 0x100 EXP DUP2 SLOAD SWAP1 PUSH1 0xFF MUL NOT AND SWAP1 SSTORE PUSH1 0x2 DUP3 ADD PUSH0 SWAP1 SSTORE POP POP POP JUMP JUMPDEST PUSH1 0x60 DUP1 PUSH0 CALLER SWAP1 POP PUSH0 DUP1 DUP3 PUSH20 0xFFFFFFFFFFFFFFFFFFFFFFFFFFFFFFFFFFFFFFFF AND PUSH20 0xFFFFFFFFFFFFFFFFFFFFFFFFFFFFFFFFFFFFFFFF AND DUP2 MSTORE PUSH1 0x20 ADD SWAP1 DUP2 MSTORE PUSH1 0x20 ADD PUSH0 KECCAK256 PUSH1 0x1 ADD PUSH0 SWAP1 SLOAD SWAP1 PUSH2 0x100 EXP SWAP1 DIV PUSH1 0xFF AND PUSH2 0x1C4 JUMPI PUSH1 0x40 MLOAD PUSH32 0x8C379A000000000000000000000000000000000000000000000000000000000 DUP2 MSTORE PUSH1 0x4 ADD PUSH2 0x1BB SWAP1 PUSH2 0xD28 JUMP JUMPDEST PUSH1 0x40 MLOAD DUP1 SWAP2 SUB SWAP1 REVERT JUMPDEST PUSH0 DUP1 PUSH0 DUP4 PUSH20 0xFFFFFFFFFFFFFFFFFFFFFFFFFFFFFFFFFFFFFFFF AND PUSH20 0xFFFFFFFFFFFFFFFFFFFFFFFFFFFFFFFFFFFFFFFF AND DUP2 MSTORE PUSH1 0x20 ADD SWAP1 DUP2 MSTORE PUSH1 0x20 ADD PUSH0 KECCAK256 PUSH0 ADD DUP1 SLOAD SWAP1 POP PUSH8 0xFFFFFFFFFFFFFFFF DUP2 GT ISZERO PUSH2 0x220 JUMPI PUSH2 0x21F PUSH2 0x984 JUMP JUMPDEST JUMPDEST PUSH1 0x40 MLOAD SWAP1 DUP1 DUP3 MSTORE DUP1 PUSH1 0x20 MUL PUSH1 0x20 ADD DUP3 ADD PUSH1 0x40 MSTORE DUP1 ISZERO PUSH2 0x24E JUMPI DUP2 PUSH1 0x20 ADD PUSH1 0x20 DUP3 MUL DUP1 CALLDATASIZE DUP4 CALLDATACOPY DUP1 DUP3 ADD SWAP2 POP POP SWAP1 POP JUMPDEST POP SWAP1 POP PUSH0 DUP1 PUSH0 DUP5 PUSH20 0xFFFFFFFFFFFFFFFFFFFFFFFFFFFFFFFFFFFFFFFF AND PUSH20 0xFFFFFFFFFFFFFFFFFFFFFFFFFFFFFFFFFFFFFFFF AND DUP2 MSTORE PUSH1 0x20 ADD SWAP1 DUP2 MSTORE PUSH1 0x20 ADD PUSH0 KECCAK256 PUSH0 ADD DUP1 SLOAD SWAP1 POP PUSH8 0xFFFFFFFFFFFFFFFF DUP2 GT ISZERO PUSH2 0x2AD JUMPI PUSH2 0x2AC PUSH2 0x984 JUMP JUMPDEST JUMPDEST PUSH1 0x40 MLOAD SWAP1 DUP1 DUP3 MSTORE DUP1 PUSH1 0x20 MUL PUSH1 0x20 ADD DUP3 ADD PUSH1 0x40 MSTORE DUP1 ISZERO PUSH2 0x2DB JUMPI DUP2 PUSH1 0x20 ADD PUSH1 0x20 DUP3 MUL DUP1 CALLDATASIZE DUP4 CALLDATACOPY DUP1 DUP3 ADD SWAP2 POP POP SWAP1 POP JUMPDEST POP SWAP1 POP PUSH0 JUMPDEST PUSH0 DUP1 DUP6 PUSH20 0xFFFFFFFFFFFFFFFFFFFFFFFFFFFFFFFFFFFFFFFF AND PUSH20 0xFFFFFFFFFFFFFFFFFFFFFFFFFFFFFFFFFFFFFFFF AND DUP2 MSTORE PUSH1 0x20 ADD SWAP1 DUP2 MSTORE PUSH1 0x20 ADD PUSH0 KECCAK256 PUSH0 ADD DUP1 SLOAD SWAP1 POP DUP2 LT ISZERO PUSH2 0x48A JUMPI PUSH0 DUP1 PUSH0 DUP7 PUSH20 0xFFFFFFFFFFFFFFFFFFFFFFFFFFFFFFFFFFFFFFFF AND PUSH20 0xFFFFFFFFFFFFFFFFFFFFFFFFFFFFFFFFFFFFFFFF AND DUP2 MSTORE PUSH1 0x20 ADD SWAP1 DUP2 MSTORE PUSH1 0x20 ADD PUSH0 KECCAK256 PUSH0 ADD DUP3 DUP2 SLOAD DUP2 LT PUSH2 0x37A JUMPI PUSH2 0x379 PUSH2 0xD46 JUMP JUMPDEST JUMPDEST SWAP1 PUSH0 MSTORE PUSH1 0x20 PUSH0 KECCAK256 ADD PUSH1 0x40 MLOAD DUP1 PUSH1 0x40 ADD PUSH1 0x40 MSTORE SWAP1 DUP2 PUSH0 DUP3 ADD PUSH0 SWAP1 SLOAD SWAP1 PUSH2 0x100 EXP SWAP1 DIV PUSH20 0xFFFFFFFFFFFFFFFFFFFFFFFFFFFFFFFFFFFFFFFF AND PUSH20 0xFFFFFFFFFFFFFFFFFFFFFFFFFFFFFFFFFFFFFFFF AND PUSH20 0xFFFFFFFFFFFFFFFFFFFFFFFFFFFFFFFFFFFFFFFF AND DUP2 MSTORE PUSH1 0x20 ADD PUSH0 DUP3 ADD PUSH1 0x14 SWAP1 SLOAD SWAP1 PUSH2 0x100 EXP SWAP1 DIV PUSH1 0xFF AND PUSH1 0xFF AND PUSH1 0xFF AND DUP2 MSTORE POP POP SWAP1 POP DUP1 PUSH0 ADD MLOAD DUP5 DUP4 DUP2 MLOAD DUP2 LT PUSH2 0x416 JUMPI PUSH2 0x415 PUSH2 0xD46 JUMP JUMPDEST JUMPDEST PUSH1 0x20 MUL PUSH1 0x20 ADD ADD SWAP1 PUSH20 0xFFFFFFFFFFFFFFFFFFFFFFFFFFFFFFFFFFFFFFFF AND SWAP1 DUP2 PUSH20 0xFFFFFFFFFFFFFFFFFFFFFFFFFFFFFFFFFFFFFFFF AND DUP2 MSTORE POP POP DUP1 PUSH1 0x20 ADD MLOAD DUP4 DUP4 DUP2 MLOAD DUP2 LT PUSH2 0x468 JUMPI PUSH2 0x467 PUSH2 0xD46 JUMP JUMPDEST JUMPDEST PUSH1 0x20 MUL PUSH1 0x20 ADD ADD SWAP1 PUSH1 0xFF AND SWAP1 DUP2 PUSH1 0xFF AND DUP2 MSTORE POP POP POP DUP1 DUP1 PUSH1 0x1 ADD SWAP2 POP POP PUSH2 0x2E0 JUMP JUMPDEST POP DUP2 DUP2 SWAP5 POP SWAP5 POP POP POP POP SWAP1 SWAP2 JUMP JUMPDEST PUSH0 CALLER SWAP1 POP PUSH0 DUP4 MLOAD PUSH8 0xFFFFFFFFFFFFFFFF DUP2 GT ISZERO PUSH2 0x4B8 JUMPI PUSH2 0x4B7 PUSH2 0x984 JUMP JUMPDEST JUMPDEST PUSH1 0x40 MLOAD SWAP1 DUP1 DUP3 MSTORE DUP1 PUSH1 0x20 MUL PUSH1 0x20 ADD DUP3 ADD PUSH1 0x40 MSTORE DUP1 ISZERO PUSH2 0x4F1 JUMPI DUP2 PUSH1 0x20 ADD JUMPDEST PUSH2 0x4DE PUSH2 0x700 JUMP JUMPDEST DUP2 MSTORE PUSH1 0x20 ADD SWAP1 PUSH1 0x1 SWAP1 SUB SWAP1 DUP2 PUSH2 0x4D6 JUMPI SWAP1 POP JUMPDEST POP SWAP1 POP PUSH0 JUMPDEST DUP5 MLOAD DUP2 LT ISZERO PUSH2 0x658 JUMPI PUSH0 PUSH1 0x40 MLOAD DUP1 PUSH1 0x40 ADD PUSH1 0x40 MSTORE DUP1 DUP8 DUP5 DUP2 MLOAD DUP2 LT PUSH2 0x51E JUMPI PUSH2 0x51D PUSH2 0xD46 JUMP JUMPDEST JUMPDEST PUSH1 0x20 MUL PUSH1 0x20 ADD ADD MLOAD PUSH20 0xFFFFFFFFFFFFFFFFFFFFFFFFFFFFFFFFFFFFFFFF AND DUP2 MSTORE PUSH1 0x20 ADD DUP7 DUP5 DUP2 MLOAD DUP2 LT PUSH2 0x554 JUMPI PUSH2 0x553 PUSH2 0xD46 JUMP JUMPDEST JUMPDEST PUSH1 0x20 MUL PUSH1 0x20 ADD ADD MLOAD PUSH1 0xFF AND DUP2 MSTORE POP SWAP1 POP DUP1 DUP4 DUP4 DUP2 MLOAD DUP2 LT PUSH2 0x578 JUMPI PUSH2 0x577 PUSH2 0xD46 JUMP JUMPDEST JUMPDEST PUSH1 0x20 MUL PUSH1 0x20 ADD ADD DUP2 SWAP1 MSTORE POP PUSH0 DUP1 DUP6 PUSH20 0xFFFFFFFFFFFFFFFFFFFFFFFFFFFFFFFFFFFFFFFF AND PUSH20 0xFFFFFFFFFFFFFFFFFFFFFFFFFFFFFFFFFFFFFFFF AND DUP2 MSTORE PUSH1 0x20 ADD SWAP1 DUP2 MSTORE PUSH1 0x20 ADD PUSH0 KECCAK256 PUSH0 ADD DUP2 SWAP1 DUP1 PUSH1 0x1 DUP2 SLOAD ADD DUP1 DUP3 SSTORE DUP1 SWAP2 POP POP PUSH1 0x1 SWAP1 SUB SWAP1 PUSH0 MSTORE PUSH1 0x20 PUSH0 KECCAK256 ADD PUSH0 SWAP1 SWAP2 SWAP1 SWAP2 SWAP1 SWAP2 POP PUSH0 DUP3 ADD MLOAD DUP2 PUSH0 ADD PUSH0 PUSH2 0x100 EXP DUP2 SLOAD DUP2 PUSH20 0xFFFFFFFFFFFFFFFFFFFFFFFFFFFFFFFFFFFFFFFF MUL NOT AND SWAP1 DUP4 PUSH20 0xFFFFFFFFFFFFFFFFFFFFFFFFFFFFFFFFFFFFFFFF AND MUL OR SWAP1 SSTORE POP PUSH1 0x20 DUP3 ADD MLOAD DUP2 PUSH0 ADD PUSH1 0x14 PUSH2 0x100 EXP DUP2 SLOAD DUP2 PUSH1 0xFF MUL NOT AND SWAP1 DUP4 PUSH1 0xFF AND MUL OR SWAP1 SSTORE POP POP POP POP DUP1 DUP1 PUSH1 0x1 ADD SWAP2 POP POP PUSH2 0x4F6 JUMP JUMPDEST POP PUSH1 0x1 PUSH0 DUP1 DUP5 PUSH20 0xFFFFFFFFFFFFFFFFFFFFFFFFFFFFFFFFFFFFFFFF AND PUSH20 0xFFFFFFFFFFFFFFFFFFFFFFFFFFFFFFFFFFFFFFFF AND DUP2 MSTORE PUSH1 0x20 ADD SWAP1 DUP2 MSTORE PUSH1 0x20 ADD PUSH0 KECCAK256 PUSH1 0x1 ADD PUSH0 PUSH2 0x100 EXP DUP2 SLOAD DUP2 PUSH1 0xFF MUL NOT AND SWAP1 DUP4 ISZERO ISZERO MUL OR SWAP1 SSTORE POP POP POP POP POP JUMP JUMPDEST PUSH0 PUSH1 0x20 MSTORE DUP1 PUSH0 MSTORE PUSH1 0x40 PUSH0 KECCAK256 PUSH0 SWAP2 POP SWAP1 POP DUP1 PUSH1 0x1 ADD PUSH0 SWAP1 SLOAD SWAP1 PUSH2 0x100 EXP SWAP1 DIV PUSH1 0xFF AND SWAP1 DUP1 PUSH1 0x2 ADD SLOAD SWAP1 POP DUP3 JUMP JUMPDEST POP DUP1 SLOAD PUSH0 DUP3 SSTORE SWAP1 PUSH0 MSTORE PUSH1 0x20 PUSH0 KECCAK256 SWAP1 DUP2 ADD SWAP1 PUSH2 0x6FD SWAP2 SWAP1 PUSH2 0x731 JUMP JUMPDEST POP JUMP JUMPDEST PUSH1 0x40 MLOAD DUP1 PUSH1 0x40 ADD PUSH1 0x40 MSTORE DUP1 PUSH0 PUSH20 0xFFFFFFFFFFFFFFFFFFFFFFFFFFFFFFFFFFFFFFFF AND DUP2 MSTORE PUSH1 0x20 ADD PUSH0 PUSH1 0xFF AND DUP2 MSTORE POP SWAP1 JUMP JUMPDEST JUMPDEST DUP1 DUP3 GT ISZERO PUSH2 0x77C JUMPI PUSH0 DUP1 DUP3 ADD PUSH0 PUSH2 0x100 EXP DUP2 SLOAD SWAP1 PUSH20 0xFFFFFFFFFFFFFFFFFFFFFFFFFFFFFFFFFFFFFFFF MUL NOT AND SWAP1 SSTORE PUSH0 DUP3 ADD PUSH1 0x14 PUSH2 0x100 EXP DUP2 SLOAD SWAP1 PUSH1 0xFF MUL NOT AND SWAP1 SSTORE POP PUSH1 0x1 ADD PUSH2 0x732 JUMP JUMPDEST POP SWAP1 JUMP JUMPDEST PUSH0 DUP2 MLOAD SWAP1 POP SWAP2 SWAP1 POP JUMP JUMPDEST PUSH0 DUP3 DUP3 MSTORE PUSH1 0x20 DUP3 ADD SWAP1 POP SWAP3 SWAP2 POP POP JUMP JUMPDEST PUSH0 DUP2 SWAP1 POP PUSH1 0x20 DUP3 ADD SWAP1 POP SWAP2 SWAP1 POP JUMP JUMPDEST PUSH0 PUSH20 0xFFFFFFFFFFFFFFFFFFFFFFFFFFFFFFFFFFFFFFFF DUP3 AND SWAP1 POP SWAP2 SWAP1 POP JUMP JUMPDEST PUSH0 PUSH2 0x7D2 DUP3 PUSH2 0x7A9 JUMP JUMPDEST SWAP1 POP SWAP2 SWAP1 POP JUMP JUMPDEST PUSH2 0x7E2 DUP2 PUSH2 0x7C8 JUMP JUMPDEST DUP3 MSTORE POP POP JUMP JUMPDEST PUSH0 PUSH2 0x7F3 DUP4 DUP4 PUSH2 0x7D9 JUMP JUMPDEST PUSH1 0x20 DUP4 ADD SWAP1 POP SWAP3 SWAP2 POP POP JUMP JUMPDEST PUSH0 PUSH1 0x20 DUP3 ADD SWAP1 POP SWAP2 SWAP1 POP JUMP JUMPDEST PUSH0 PUSH2 0x815 DUP3 PUSH2 0x780 JUMP JUMPDEST PUSH2 0x81F DUP2 DUP6 PUSH2 0x78A JUMP JUMPDEST SWAP4 POP PUSH2 0x82A DUP4 PUSH2 0x79A JUMP JUMPDEST DUP1 PUSH0 JUMPDEST DUP4 DUP2 LT ISZERO PUSH2 0x85A JUMPI DUP2 MLOAD PUSH2 0x841 DUP9 DUP3 PUSH2 0x7E8 JUMP JUMPDEST SWAP8 POP PUSH2 0x84C DUP4 PUSH2 0x7FF JUMP JUMPDEST SWAP3 POP POP PUSH1 0x1 DUP2 ADD SWAP1 POP PUSH2 0x82D JUMP JUMPDEST POP DUP6 SWAP4 POP POP POP POP SWAP3 SWAP2 POP POP JUMP JUMPDEST PUSH0 DUP2 MLOAD SWAP1 POP SWAP2 SWAP1 POP JUMP JUMPDEST PUSH0 DUP3 DUP3 MSTORE PUSH1 0x20 DUP3 ADD SWAP1 POP SWAP3 SWAP2 POP POP JUMP JUMPDEST PUSH0 DUP2 SWAP1 POP PUSH1 0x20 DUP3 ADD SWAP1 POP SWAP2 SWAP1 POP JUMP JUMPDEST PUSH0 PUSH1 0xFF DUP3 AND SWAP1 POP SWAP2 SWAP1 POP JUMP JUMPDEST PUSH2 0x8A5 DUP2 PUSH2 0x890 JUMP JUMPDEST DUP3 MSTORE POP POP JUMP JUMPDEST PUSH0 PUSH2 0x8B6 DUP4 DUP4 PUSH2 0x89C JUMP JUMPDEST PUSH1 0x20 DUP4 ADD SWAP1 POP SWAP3 SWAP2 POP POP JUMP JUMPDEST PUSH0 PUSH1 0x20 DUP3 ADD SWAP1 POP SWAP2 SWAP1 POP JUMP JUMPDEST PUSH0 PUSH2 0x8D8 DUP3 PUSH2 0x867 JUMP JUMPDEST PUSH2 0x8E2 DUP2 DUP6 PUSH2 0x871 JUMP JUMPDEST SWAP4 POP PUSH2 0x8ED DUP4 PUSH2 0x881 JUMP JUMPDEST DUP1 PUSH0 JUMPDEST DUP4 DUP2 LT ISZERO PUSH2 0x91D JUMPI DUP2 MLOAD PUSH2 0x904 DUP9 DUP3 PUSH2 0x8AB JUMP JUMPDEST SWAP8 POP PUSH2 0x90F DUP4 PUSH2 0x8C2 JUMP JUMPDEST SWAP3 POP POP PUSH1 0x1 DUP2 ADD SWAP1 POP PUSH2 0x8F0 JUMP JUMPDEST POP DUP6 SWAP4 POP POP POP POP SWAP3 SWAP2 POP POP JUMP JUMPDEST PUSH0 PUSH1 0x40 DUP3 ADD SWAP1 POP DUP2 DUP2 SUB PUSH0 DUP4 ADD MSTORE PUSH2 0x942 DUP2 DUP6 PUSH2 0x80B JUMP JUMPDEST SWAP1 POP DUP2 DUP2 SUB PUSH1 0x20 DUP4 ADD MSTORE PUSH2 0x956 DUP2 DUP5 PUSH2 0x8CE JUMP JUMPDEST SWAP1 POP SWAP4 SWAP3 POP POP POP JUMP JUMPDEST PUSH0 PUSH1 0x40 MLOAD SWAP1 POP SWAP1 JUMP JUMPDEST PUSH0 DUP1 REVERT JUMPDEST PUSH0 DUP1 REVERT JUMPDEST PUSH0 DUP1 REVERT JUMPDEST PUSH0 PUSH1 0x1F NOT PUSH1 0x1F DUP4 ADD AND SWAP1 POP SWAP2 SWAP1 POP JUMP JUMPDEST PUSH32 0x4E487B7100000000000000000000000000000000000000000000000000000000 PUSH0 MSTORE PUSH1 0x41 PUSH1 0x4 MSTORE PUSH1 0x24 PUSH0 REVERT JUMPDEST PUSH2 0x9BA DUP3 PUSH2 0x974 JUMP JUMPDEST DUP2 ADD DUP2 DUP2 LT PUSH8 0xFFFFFFFFFFFFFFFF DUP3 GT OR ISZERO PUSH2 0x9D9 JUMPI PUSH2 0x9D8 PUSH2 0x984 JUMP JUMPDEST JUMPDEST DUP1 PUSH1 0x40 MSTORE POP POP POP JUMP JUMPDEST PUSH0 PUSH2 0x9EB PUSH2 0x95F JUMP JUMPDEST SWAP1 POP PUSH2 0x9F7 DUP3 DUP3 PUSH2 0x9B1 JUMP JUMPDEST SWAP2 SWAP1 POP JUMP JUMPDEST PUSH0 PUSH8 0xFFFFFFFFFFFFFFFF DUP3 GT ISZERO PUSH2 0xA16 JUMPI PUSH2 0xA15 PUSH2 0x984 JUMP JUMPDEST JUMPDEST PUSH1 0x20 DUP3 MUL SWAP1 POP PUSH1 0x20 DUP2 ADD SWAP1 POP SWAP2 SWAP1 POP JUMP JUMPDEST PUSH0 DUP1 REVERT JUMPDEST PUSH2 0xA34 DUP2 PUSH2 0x7C8 JUMP JUMPDEST DUP2 EQ PUSH2 0xA3E JUMPI PUSH0 DUP1 REVERT JUMPDEST POP JUMP JUMPDEST PUSH0 DUP2 CALLDATALOAD SWAP1 POP PUSH2 0xA4F DUP2 PUSH2 0xA2B JUMP JUMPDEST SWAP3 SWAP2 POP POP JUMP JUMPDEST PUSH0 PUSH2 0xA67 PUSH2 0xA62 DUP5 PUSH2 0x9FC JUMP JUMPDEST PUSH2 0x9E2 JUMP JUMPDEST SWAP1 POP DUP1 DUP4 DUP3 MSTORE PUSH1 0x20 DUP3 ADD SWAP1 POP PUSH1 0x20 DUP5 MUL DUP4 ADD DUP6 DUP2 GT ISZERO PUSH2 0xA8A JUMPI PUSH2 0xA89 PUSH2 0xA27 JUMP JUMPDEST JUMPDEST DUP4 JUMPDEST DUP2 DUP2 LT ISZERO PUSH2 0xAB3 JUMPI DUP1 PUSH2 0xA9F DUP9 DUP3 PUSH2 0xA41 JUMP JUMPDEST DUP5 MSTORE PUSH1 0x20 DUP5 ADD SWAP4 POP POP PUSH1 0x20 DUP2 ADD SWAP1 POP PUSH2 0xA8C JUMP JUMPDEST POP POP POP SWAP4 SWAP3 POP POP POP JUMP JUMPDEST PUSH0 DUP3 PUSH1 0x1F DUP4 ADD SLT PUSH2 0xAD1 JUMPI PUSH2 0xAD0 PUSH2 0x970 JUMP JUMPDEST JUMPDEST DUP2 CALLDATALOAD PUSH2 0xAE1 DUP5 DUP3 PUSH1 0x20 DUP7 ADD PUSH2 0xA55 JUMP JUMPDEST SWAP2 POP POP SWAP3 SWAP2 POP POP JUMP JUMPDEST PUSH0 PUSH8 0xFFFFFFFFFFFFFFFF DUP3 GT ISZERO PUSH2 0xB04 JUMPI PUSH2 0xB03 PUSH2 0x984 JUMP JUMPDEST JUMPDEST PUSH1 0x20 DUP3 MUL SWAP1 POP PUSH1 0x20 DUP2 ADD SWAP1 POP SWAP2 SWAP1 POP JUMP JUMPDEST PUSH2 0xB1E DUP2 PUSH2 0x890 JUMP JUMPDEST DUP2 EQ PUSH2 0xB28 JUMPI PUSH0 DUP1 REVERT JUMPDEST POP JUMP JUMPDEST PUSH0 DUP2 CALLDATALOAD SWAP1 POP PUSH2 0xB39 DUP2 PUSH2 0xB15 JUMP JUMPDEST SWAP3 SWAP2 POP POP JUMP JUMPDEST PUSH0 PUSH2 0xB51 PUSH2 0xB4C DUP5 PUSH2 0xAEA JUMP JUMPDEST PUSH2 0x9E2 JUMP JUMPDEST SWAP1 POP DUP1 DUP4 DUP3 MSTORE PUSH1 0x20 DUP3 ADD SWAP1 POP PUSH1 0x20 DUP5 MUL DUP4 ADD DUP6 DUP2 GT ISZERO PUSH2 0xB74 JUMPI PUSH2 0xB73 PUSH2 0xA27 JUMP JUMPDEST JUMPDEST DUP4 JUMPDEST DUP2 DUP2 LT ISZERO PUSH2 0xB9D JUMPI DUP1 PUSH2 0xB89 DUP9 DUP3 PUSH2 0xB2B JUMP JUMPDEST DUP5 MSTORE PUSH1 0x20 DUP5 ADD SWAP4 POP POP PUSH1 0x20 DUP2 ADD SWAP1 POP PUSH2 0xB76 JUMP JUMPDEST POP POP POP SWAP4 SWAP3 POP POP POP JUMP JUMPDEST PUSH0 DUP3 PUSH1 0x1F DUP4 ADD SLT PUSH2 0xBBB JUMPI PUSH2 0xBBA PUSH2 0x970 JUMP JUMPDEST JUMPDEST DUP2 CALLDATALOAD PUSH2 0xBCB DUP5 DUP3 PUSH1 0x20 DUP7 ADD PUSH2 0xB3F JUMP JUMPDEST SWAP2 POP POP SWAP3 SWAP2 POP POP JUMP JUMPDEST PUSH0 DUP1 PUSH1 0x40 DUP4 DUP6 SUB SLT ISZERO PUSH2 0xBEA JUMPI PUSH2 0xBE9 PUSH2 0x968 JUMP JUMPDEST JUMPDEST PUSH0 DUP4 ADD CALLDATALOAD PUSH8 0xFFFFFFFFFFFFFFFF DUP2 GT ISZERO PUSH2 0xC07 JUMPI PUSH2 0xC06 PUSH2 0x96C JUMP JUMPDEST JUMPDEST PUSH2 0xC13 DUP6 DUP3 DUP7 ADD PUSH2 0xABD JUMP JUMPDEST SWAP3 POP POP PUSH1 0x20 DUP4 ADD CALLDATALOAD PUSH8 0xFFFFFFFFFFFFFFFF DUP2 GT ISZERO PUSH2 0xC34 JUMPI PUSH2 0xC33 PUSH2 0x96C JUMP JUMPDEST JUMPDEST PUSH2 0xC40 DUP6 DUP3 DUP7 ADD PUSH2 0xBA7 JUMP JUMPDEST SWAP2 POP POP SWAP3 POP SWAP3 SWAP1 POP JUMP JUMPDEST PUSH0 PUSH1 0x20 DUP3 DUP5 SUB SLT ISZERO PUSH2 0xC5F JUMPI PUSH2 0xC5E PUSH2 0x968 JUMP JUMPDEST JUMPDEST PUSH0 PUSH2 0xC6C DUP5 DUP3 DUP6 ADD PUSH2 0xA41 JUMP JUMPDEST SWAP2 POP POP SWAP3 SWAP2 POP POP JUMP JUMPDEST PUSH0 DUP2 ISZERO ISZERO SWAP1 POP SWAP2 SWAP1 POP JUMP JUMPDEST PUSH2 0xC89 DUP2 PUSH2 0xC75 JUMP JUMPDEST DUP3 MSTORE POP POP JUMP JUMPDEST PUSH0 DUP2 SWAP1 POP SWAP2 SWAP1 POP JUMP JUMPDEST PUSH2 0xCA1 DUP2 PUSH2 0xC8F JUMP JUMPDEST DUP3 MSTORE POP POP JUMP JUMPDEST PUSH0 PUSH1 0x40 DUP3 ADD SWAP1 POP PUSH2 0xCBA PUSH0 DUP4 ADD DUP6 PUSH2 0xC80 JUMP JUMPDEST PUSH2 0xCC7 PUSH1 0x20 DUP4 ADD DUP5 PUSH2 0xC98 JUMP JUMPDEST SWAP4 SWAP3 POP POP POP JUMP JUMPDEST PUSH0 DUP3 DUP3 MSTORE PUSH1 0x20 DUP3 ADD SWAP1 POP SWAP3 SWAP2 POP POP JUMP JUMPDEST PUSH32 0x5465737461646F72206E616F20656E636F6E747261646F000000000000000000 PUSH0 DUP3 ADD MSTORE POP JUMP JUMPDEST PUSH0 PUSH2 0xD12 PUSH1 0x17 DUP4 PUSH2 0xCCE JUMP JUMPDEST SWAP2 POP PUSH2 0xD1D DUP3 PUSH2 0xCDE JUMP JUMPDEST PUSH1 0x20 DUP3 ADD SWAP1 POP SWAP2 SWAP1 POP JUMP JUMPDEST PUSH0 PUSH1 0x20 DUP3 ADD SWAP1 POP DUP2 DUP2 SUB PUSH0 DUP4 ADD MSTORE PUSH2 0xD3F DUP2 PUSH2 0xD06 JUMP JUMPDEST SWAP1 POP SWAP2 SWAP1 POP JUMP JUMPDEST PUSH32 0x4E487B7100000000000000000000000000000000000000000000000000000000 PUSH0 MSTORE PUSH1 0x32 PUSH1 0x4 MSTORE PUSH1 0x24 PUSH0 REVERT INVALID LOG2 PUSH5 0x6970667358 0x22 SLT KECCAK256 SWAP15 0xF8 0xD 0x4F 0xF 0xE4 0x24 SLT 0xC1 0xFB SIGNEXTEND 0xBA DUP2 SWAP14 TLOAD 0xE0 MOD DIV PUSH24 0x697ADF52AA61374B4B1F60185964736F6C634300081A0033 "
				},
				"gasEstimates": {
					"creation": {
						"codeDepositCost": "699400",
						"executionCost": "732",
						"totalCost": "700132"
					},
					"external": {
						"cancelTestament()": "infinite",
						"createInheritance(address[],uint8[])": "infinite",
						"getMyTestament()": "infinite",
						"testators(address)": "5111"
					},
					"internal": {
						"checkIfTestatorExist()": "infinite"
					}
				},
				"methodIdentifiers": {
					"cancelTestament()": "1aba6da6",
					"createInheritance(address[],uint8[])": "759a8a98",
					"getMyTestament()": "3a994a8b",
					"testators(address)": "b45b91f2"
				}
			},
			"storageLayout": {
				"storage": [
					{
						"astId": 20,
						"contract": ".deps/studying-solidity/InheritanceContract.sol:InheritanceContract",
						"label": "testators",
						"offset": 0,
						"slot": "0",
						"type": "t_mapping(t_address,t_struct(Testator)15_storage)"
					}
				],
				"types": {
					"t_address": {
						"encoding": "inplace",
						"label": "address",
						"numberOfBytes": "20"
					},
					"t_array(t_struct(Inheritor)6_storage)dyn_storage": {
						"base": "t_struct(Inheritor)6_storage",
						"encoding": "dynamic_array",
						"label": "struct InheritanceContract.Inheritor[]",
						"numberOfBytes": "32"
					},
					"t_bool": {
						"encoding": "inplace",
						"label": "bool",
						"numberOfBytes": "1"
					},
					"t_mapping(t_address,t_struct(Testator)15_storage)": {
						"encoding": "mapping",
						"key": "t_address",
						"label": "mapping(address => struct InheritanceContract.Testator)",
						"numberOfBytes": "32",
						"value": "t_struct(Testator)15_storage"
					},
					"t_struct(Inheritor)6_storage": {
						"encoding": "inplace",
						"label": "struct InheritanceContract.Inheritor",
						"members": [
							{
								"astId": 3,
								"contract": ".deps/studying-solidity/InheritanceContract.sol:InheritanceContract",
								"label": "inheritorAddress",
								"offset": 0,
								"slot": "0",
								"type": "t_address"
							},
							{
								"astId": 5,
								"contract": ".deps/studying-solidity/InheritanceContract.sol:InheritanceContract",
								"label": "percentage",
								"offset": 20,
								"slot": "0",
								"type": "t_uint8"
							}
						],
						"numberOfBytes": "32"
					},
					"t_struct(Testator)15_storage": {
						"encoding": "inplace",
						"label": "struct InheritanceContract.Testator",
						"members": [
							{
								"astId": 10,
								"contract": ".deps/studying-solidity/InheritanceContract.sol:InheritanceContract",
								"label": "inheritors",
								"offset": 0,
								"slot": "0",
								"type": "t_array(t_struct(Inheritor)6_storage)dyn_storage"
							},
							{
								"astId": 12,
								"contract": ".deps/studying-solidity/InheritanceContract.sol:InheritanceContract",
								"label": "exist",
								"offset": 0,
								"slot": "1",
								"type": "t_bool"
							},
							{
								"astId": 14,
								"contract": ".deps/studying-solidity/InheritanceContract.sol:InheritanceContract",
								"label": "lastProofOfLife",
								"offset": 0,
								"slot": "2",
								"type": "t_uint256"
							}
						],
						"numberOfBytes": "96"
					},
					"t_uint256": {
						"encoding": "inplace",
						"label": "uint256",
						"numberOfBytes": "32"
					},
					"t_uint8": {
						"encoding": "inplace",
						"label": "uint8",
						"numberOfBytes": "1"
					}
				}
			},
			"userdoc": {
				"kind": "user",
				"methods": {},
				"version": 1
			}
		}
	}
}