{
	".deps/studying-solidity/v0.1/Testament/ProofOfLife.sol": {
		"ProofOfLife": {
			"abi": [
				{
					"inputs": [
						{
							"internalType": "address",
							"name": "initialOwner",
							"type": "address"
						}
					],
					"stateMutability": "nonpayable",
					"type": "constructor"
				},
				{
					"inputs": [
						{
							"internalType": "address",
							"name": "owner",
							"type": "address"
						}
					],
					"name": "OwnableInvalidOwner",
					"type": "error"
				},
				{
					"inputs": [
						{
							"internalType": "address",
							"name": "account",
							"type": "address"
						}
					],
					"name": "OwnableUnauthorizedAccount",
					"type": "error"
				},
				{
					"anonymous": false,
					"inputs": [
						{
							"indexed": true,
							"internalType": "address",
							"name": "previousOwner",
							"type": "address"
						},
						{
							"indexed": true,
							"internalType": "address",
							"name": "newOwner",
							"type": "address"
						}
					],
					"name": "OwnershipTransferred",
					"type": "event"
				},
				{
					"inputs": [],
					"name": "contractCore",
					"outputs": [
						{
							"internalType": "address",
							"name": "",
							"type": "address"
						}
					],
					"stateMutability": "view",
					"type": "function"
				},
				{
					"inputs": [],
					"name": "contractData",
					"outputs": [
						{
							"internalType": "address",
							"name": "",
							"type": "address"
						}
					],
					"stateMutability": "view",
					"type": "function"
				},
				{
					"inputs": [],
					"name": "owner",
					"outputs": [
						{
							"internalType": "address",
							"name": "",
							"type": "address"
						}
					],
					"stateMutability": "view",
					"type": "function"
				},
				{
					"inputs": [],
					"name": "renounceOwnership",
					"outputs": [],
					"stateMutability": "nonpayable",
					"type": "function"
				},
				{
					"inputs": [
						{
							"internalType": "address",
							"name": "core",
							"type": "address"
						}
					],
					"name": "setCore",
					"outputs": [],
					"stateMutability": "nonpayable",
					"type": "function"
				},
				{
					"inputs": [
						{
							"internalType": "address",
							"name": "data",
							"type": "address"
						}
					],
					"name": "setData",
					"outputs": [],
					"stateMutability": "nonpayable",
					"type": "function"
				},
				{
					"inputs": [
						{
							"internalType": "address",
							"name": "newOwner",
							"type": "address"
						}
					],
					"name": "setNewOwner",
					"outputs": [],
					"stateMutability": "nonpayable",
					"type": "function"
				},
				{
					"inputs": [
						{
							"internalType": "address",
							"name": "newOwner",
							"type": "address"
						}
					],
					"name": "transferOwnership",
					"outputs": [],
					"stateMutability": "nonpayable",
					"type": "function"
				},
				{
					"inputs": [
						{
							"internalType": "address",
							"name": "testament",
							"type": "address"
						}
					],
					"name": "updateProofOfLife",
					"outputs": [],
					"stateMutability": "nonpayable",
					"type": "function"
				}
			],
			"devdoc": {
				"errors": {
					"OwnableInvalidOwner(address)": [
						{
							"details": "The owner is not a valid owner account. (eg. `address(0)`)"
						}
					],
					"OwnableUnauthorizedAccount(address)": [
						{
							"details": "The caller account is not authorized to perform an operation."
						}
					]
				},
				"kind": "dev",
				"methods": {
					"owner()": {
						"details": "Returns the address of the current owner."
					},
					"renounceOwnership()": {
						"details": "Leaves the contract without owner. It will not be possible to call `onlyOwner` functions. Can only be called by the current owner. NOTE: Renouncing ownership will leave the contract without an owner, thereby disabling any functionality that is only available to the owner."
					},
					"transferOwnership(address)": {
						"details": "Transfers ownership of the contract to a new account (`newOwner`). Can only be called by the current owner."
					}
				},
				"version": 1
			},
			"evm": {
				"assembly": "    /* \".deps/studying-solidity/v0.1/Testament/ProofOfLife.sol\":244:1203  contract ProofOfLife is Ownable {... */\n  mstore(0x40, 0x80)\n    /* \".deps/studying-solidity/v0.1/Testament/ProofOfLife.sol\":349:407  constructor(address initialOwner) Ownable(initialOwner) {} */\n  callvalue\n  dup1\n  iszero\n  tag_1\n  jumpi\n  0x00\n  dup1\n  revert\ntag_1:\n  pop\n  mload(0x40)\n  sub(codesize, bytecodeSize)\n  dup1\n  bytecodeSize\n  dup4\n  codecopy\n  dup2\n  dup2\n  add\n  0x40\n  mstore\n  dup2\n  add\n  swap1\n  tag_2\n  swap2\n  swap1\n  tag_3\n  jump\t// in\ntag_2:\n    /* \".deps/studying-solidity/v0.1/Testament/ProofOfLife.sol\":391:403  initialOwner */\n  dup1\n    /* \"@openzeppelin/contracts/access/Ownable.sol\":1297:1298  0 */\n  0x00\n    /* \"@openzeppelin/contracts/access/Ownable.sol\":1273:1299  initialOwner == address(0) */\n  0xffffffffffffffffffffffffffffffffffffffff\n  and\n    /* \"@openzeppelin/contracts/access/Ownable.sol\":1273:1285  initialOwner */\n  dup2\n    /* \"@openzeppelin/contracts/access/Ownable.sol\":1273:1299  initialOwner == address(0) */\n  0xffffffffffffffffffffffffffffffffffffffff\n  and\n  sub\n    /* \"@openzeppelin/contracts/access/Ownable.sol\":1269:1364  if (initialOwner == address(0)) {... */\n  tag_7\n  jumpi\n    /* \"@openzeppelin/contracts/access/Ownable.sol\":1350:1351  0 */\n  0x00\n    /* \"@openzeppelin/contracts/access/Ownable.sol\":1322:1353  OwnableInvalidOwner(address(0)) */\n  mload(0x40)\n  0x1e4fbdf700000000000000000000000000000000000000000000000000000000\n  dup2\n  mstore\n  0x04\n  add\n  tag_8\n  swap2\n  swap1\n  tag_9\n  jump\t// in\ntag_8:\n  mload(0x40)\n  dup1\n  swap2\n  sub\n  swap1\n  revert\n    /* \"@openzeppelin/contracts/access/Ownable.sol\":1269:1364  if (initialOwner == address(0)) {... */\ntag_7:\n    /* \"@openzeppelin/contracts/access/Ownable.sol\":1373:1405  _transferOwnership(initialOwner) */\n  tag_10\n    /* \"@openzeppelin/contracts/access/Ownable.sol\":1392:1404  initialOwner */\n  dup2\n    /* \"@openzeppelin/contracts/access/Ownable.sol\":1373:1391  _transferOwnership */\n  shl(0x20, tag_11)\n    /* \"@openzeppelin/contracts/access/Ownable.sol\":1373:1405  _transferOwnership(initialOwner) */\n  0x20\n  shr\n  jump\t// in\ntag_10:\n    /* \"@openzeppelin/contracts/access/Ownable.sol\":1225:1412  constructor(address initialOwner) {... */\n  pop\n    /* \".deps/studying-solidity/v0.1/Testament/ProofOfLife.sol\":349:407  constructor(address initialOwner) Ownable(initialOwner) {} */\n  pop\n    /* \".deps/studying-solidity/v0.1/Testament/ProofOfLife.sol\":244:1203  contract ProofOfLife is Ownable {... */\n  jump(tag_13)\n    /* \"@openzeppelin/contracts/access/Ownable.sol\":2912:3099  function _transferOwnership(address newOwner) internal virtual {... */\ntag_11:\n    /* \"@openzeppelin/contracts/access/Ownable.sol\":2985:3001  address oldOwner */\n  0x00\n    /* \"@openzeppelin/contracts/access/Ownable.sol\":3004:3010  _owner */\n  dup1\n  0x00\n  swap1\n  sload\n  swap1\n  0x0100\n  exp\n  swap1\n  div\n  0xffffffffffffffffffffffffffffffffffffffff\n  and\n    /* \"@openzeppelin/contracts/access/Ownable.sol\":2985:3010  address oldOwner = _owner */\n  swap1\n  pop\n    /* \"@openzeppelin/contracts/access/Ownable.sol\":3029:3037  newOwner */\n  dup2\n    /* \"@openzeppelin/contracts/access/Ownable.sol\":3020:3026  _owner */\n  0x00\n  dup1\n    /* \"@openzeppelin/contracts/access/Ownable.sol\":3020:3037  _owner = newOwner */\n  0x0100\n  exp\n  dup2\n  sload\n  dup2\n  0xffffffffffffffffffffffffffffffffffffffff\n  mul\n  not\n  and\n  swap1\n  dup4\n  0xffffffffffffffffffffffffffffffffffffffff\n  and\n  mul\n  or\n  swap1\n  sstore\n  pop\n    /* \"@openzeppelin/contracts/access/Ownable.sol\":3083:3091  newOwner */\n  dup2\n    /* \"@openzeppelin/contracts/access/Ownable.sol\":3052:3092  OwnershipTransferred(oldOwner, newOwner) */\n  0xffffffffffffffffffffffffffffffffffffffff\n  and\n    /* \"@openzeppelin/contracts/access/Ownable.sol\":3073:3081  oldOwner */\n  dup2\n    /* \"@openzeppelin/contracts/access/Ownable.sol\":3052:3092  OwnershipTransferred(oldOwner, newOwner) */\n  0xffffffffffffffffffffffffffffffffffffffff\n  and\n  0x8be0079c531659141344cd1fd0a4f28419497f9722a3daafe3b4186f6b6457e0\n  mload(0x40)\n  mload(0x40)\n  dup1\n  swap2\n  sub\n  swap1\n  log3\n    /* \"@openzeppelin/contracts/access/Ownable.sol\":2975:3099  {... */\n  pop\n    /* \"@openzeppelin/contracts/access/Ownable.sol\":2912:3099  function _transferOwnership(address newOwner) internal virtual {... */\n  pop\n  jump\t// out\n    /* \"#utility.yul\":88:205   */\ntag_16:\n    /* \"#utility.yul\":197:198   */\n  0x00\n    /* \"#utility.yul\":194:195   */\n  dup1\n    /* \"#utility.yul\":187:199   */\n  revert\n    /* \"#utility.yul\":334:460   */\ntag_18:\n    /* \"#utility.yul\":371:378   */\n  0x00\n    /* \"#utility.yul\":411:453   */\n  0xffffffffffffffffffffffffffffffffffffffff\n    /* \"#utility.yul\":404:409   */\n  dup3\n    /* \"#utility.yul\":400:454   */\n  and\n    /* \"#utility.yul\":389:454   */\n  swap1\n  pop\n    /* \"#utility.yul\":334:460   */\n  swap2\n  swap1\n  pop\n  jump\t// out\n    /* \"#utility.yul\":466:562   */\ntag_19:\n    /* \"#utility.yul\":503:510   */\n  0x00\n    /* \"#utility.yul\":532:556   */\n  tag_29\n    /* \"#utility.yul\":550:555   */\n  dup3\n    /* \"#utility.yul\":532:556   */\n  tag_18\n  jump\t// in\ntag_29:\n    /* \"#utility.yul\":521:556   */\n  swap1\n  pop\n    /* \"#utility.yul\":466:562   */\n  swap2\n  swap1\n  pop\n  jump\t// out\n    /* \"#utility.yul\":568:690   */\ntag_20:\n    /* \"#utility.yul\":641:665   */\n  tag_31\n    /* \"#utility.yul\":659:664   */\n  dup2\n    /* \"#utility.yul\":641:665   */\n  tag_19\n  jump\t// in\ntag_31:\n    /* \"#utility.yul\":634:639   */\n  dup2\n    /* \"#utility.yul\":631:666   */\n  eq\n    /* \"#utility.yul\":621:684   */\n  tag_32\n  jumpi\n    /* \"#utility.yul\":680:681   */\n  0x00\n    /* \"#utility.yul\":677:678   */\n  dup1\n    /* \"#utility.yul\":670:682   */\n  revert\n    /* \"#utility.yul\":621:684   */\ntag_32:\n    /* \"#utility.yul\":568:690   */\n  pop\n  jump\t// out\n    /* \"#utility.yul\":696:839   */\ntag_21:\n    /* \"#utility.yul\":753:758   */\n  0x00\n    /* \"#utility.yul\":784:790   */\n  dup2\n    /* \"#utility.yul\":778:791   */\n  mload\n    /* \"#utility.yul\":769:791   */\n  swap1\n  pop\n    /* \"#utility.yul\":800:833   */\n  tag_34\n    /* \"#utility.yul\":827:832   */\n  dup2\n    /* \"#utility.yul\":800:833   */\n  tag_20\n  jump\t// in\ntag_34:\n    /* \"#utility.yul\":696:839   */\n  swap3\n  swap2\n  pop\n  pop\n  jump\t// out\n    /* \"#utility.yul\":845:1196   */\ntag_3:\n    /* \"#utility.yul\":915:921   */\n  0x00\n    /* \"#utility.yul\":964:966   */\n  0x20\n    /* \"#utility.yul\":952:961   */\n  dup3\n    /* \"#utility.yul\":943:950   */\n  dup5\n    /* \"#utility.yul\":939:962   */\n  sub\n    /* \"#utility.yul\":935:967   */\n  slt\n    /* \"#utility.yul\":932:1051   */\n  iszero\n  tag_36\n  jumpi\n    /* \"#utility.yul\":970:1049   */\n  tag_37\n  tag_16\n  jump\t// in\ntag_37:\n    /* \"#utility.yul\":932:1051   */\ntag_36:\n    /* \"#utility.yul\":1090:1091   */\n  0x00\n    /* \"#utility.yul\":1115:1179   */\n  tag_38\n    /* \"#utility.yul\":1171:1178   */\n  dup5\n    /* \"#utility.yul\":1162:1168   */\n  dup3\n    /* \"#utility.yul\":1151:1160   */\n  dup6\n    /* \"#utility.yul\":1147:1169   */\n  add\n    /* \"#utility.yul\":1115:1179   */\n  tag_21\n  jump\t// in\ntag_38:\n    /* \"#utility.yul\":1105:1179   */\n  swap2\n  pop\n    /* \"#utility.yul\":1061:1189   */\n  pop\n    /* \"#utility.yul\":845:1196   */\n  swap3\n  swap2\n  pop\n  pop\n  jump\t// out\n    /* \"#utility.yul\":1202:1320   */\ntag_22:\n    /* \"#utility.yul\":1289:1313   */\n  tag_40\n    /* \"#utility.yul\":1307:1312   */\n  dup2\n    /* \"#utility.yul\":1289:1313   */\n  tag_19\n  jump\t// in\ntag_40:\n    /* \"#utility.yul\":1284:1287   */\n  dup3\n    /* \"#utility.yul\":1277:1314   */\n  mstore\n    /* \"#utility.yul\":1202:1320   */\n  pop\n  pop\n  jump\t// out\n    /* \"#utility.yul\":1326:1548   */\ntag_9:\n    /* \"#utility.yul\":1419:1423   */\n  0x00\n    /* \"#utility.yul\":1457:1459   */\n  0x20\n    /* \"#utility.yul\":1446:1455   */\n  dup3\n    /* \"#utility.yul\":1442:1460   */\n  add\n    /* \"#utility.yul\":1434:1460   */\n  swap1\n  pop\n    /* \"#utility.yul\":1470:1541   */\n  tag_42\n    /* \"#utility.yul\":1538:1539   */\n  0x00\n    /* \"#utility.yul\":1527:1536   */\n  dup4\n    /* \"#utility.yul\":1523:1540   */\n  add\n    /* \"#utility.yul\":1514:1520   */\n  dup5\n    /* \"#utility.yul\":1470:1541   */\n  tag_22\n  jump\t// in\ntag_42:\n    /* \"#utility.yul\":1326:1548   */\n  swap3\n  swap2\n  pop\n  pop\n  jump\t// out\n    /* \".deps/studying-solidity/v0.1/Testament/ProofOfLife.sol\":244:1203  contract ProofOfLife is Ownable {... */\ntag_13:\n  dataSize(sub_0)\n  dup1\n  dataOffset(sub_0)\n  0x00\n  codecopy\n  0x00\n  return\nstop\n\nsub_0: assembly {\n        /* \".deps/studying-solidity/v0.1/Testament/ProofOfLife.sol\":244:1203  contract ProofOfLife is Ownable {... */\n      mstore(0x40, 0x80)\n      callvalue\n      dup1\n      iszero\n      tag_1\n      jumpi\n      0x00\n      dup1\n      revert\n    tag_1:\n      pop\n      jumpi(tag_2, lt(calldatasize, 0x04))\n      shr(0xe0, calldataload(0x00))\n      dup1\n      0x715018a6\n      gt\n      tag_12\n      jumpi\n      dup1\n      0x715018a6\n      eq\n      tag_7\n      jumpi\n      dup1\n      0x80009630\n      eq\n      tag_8\n      jumpi\n      dup1\n      0x8da5cb5b\n      eq\n      tag_9\n      jumpi\n      dup1\n      0xf2fde38b\n      eq\n      tag_10\n      jumpi\n      dup1\n      0xf5a1f5b4\n      eq\n      tag_11\n      jumpi\n      jump(tag_2)\n    tag_12:\n      dup1\n      0x3cca2420\n      eq\n      tag_3\n      jumpi\n      dup1\n      0x4d1ba077\n      eq\n      tag_4\n      jumpi\n      dup1\n      0x5e431a5b\n      eq\n      tag_5\n      jumpi\n      dup1\n      0x61dfdae6\n      eq\n      tag_6\n      jumpi\n    tag_2:\n      0x00\n      dup1\n      revert\n        /* \".deps/studying-solidity/v0.1/Testament/ProofOfLife.sol\":315:342  address public contractData */\n    tag_3:\n      tag_13\n      tag_14\n      jump\t// in\n    tag_13:\n      mload(0x40)\n      tag_15\n      swap2\n      swap1\n      tag_16\n      jump\t// in\n    tag_15:\n      mload(0x40)\n      dup1\n      swap2\n      sub\n      swap1\n      return\n        /* \".deps/studying-solidity/v0.1/Testament/ProofOfLife.sol\":995:1201  function updateProofOfLife(address testament) external onlyCore {... */\n    tag_4:\n      tag_17\n      0x04\n      dup1\n      calldatasize\n      sub\n      dup2\n      add\n      swap1\n      tag_18\n      swap2\n      swap1\n      tag_19\n      jump\t// in\n    tag_18:\n      tag_20\n      jump\t// in\n    tag_17:\n      stop\n        /* \".deps/studying-solidity/v0.1/Testament/ProofOfLife.sol\":282:309  address public contractCore */\n    tag_5:\n      tag_21\n      tag_22\n      jump\t// in\n    tag_21:\n      mload(0x40)\n      tag_23\n      swap2\n      swap1\n      tag_16\n      jump\t// in\n    tag_23:\n      mload(0x40)\n      dup1\n      swap2\n      sub\n      swap1\n      return\n        /* \".deps/studying-solidity/v0.1/Testament/ProofOfLife.sol\":842:989  function setData(address data) external onlyOwner {... */\n    tag_6:\n      tag_24\n      0x04\n      dup1\n      calldatasize\n      sub\n      dup2\n      add\n      swap1\n      tag_25\n      swap2\n      swap1\n      tag_19\n      jump\t// in\n    tag_25:\n      tag_26\n      jump\t// in\n    tag_24:\n      stop\n        /* \"@openzeppelin/contracts/access/Ownable.sol\":2293:2394  function renounceOwnership() public virtual onlyOwner {... */\n    tag_7:\n      tag_27\n      tag_28\n      jump\t// in\n    tag_27:\n      stop\n        /* \".deps/studying-solidity/v0.1/Testament/ProofOfLife.sol\":689:836  function setCore(address core) external onlyOwner {... */\n    tag_8:\n      tag_29\n      0x04\n      dup1\n      calldatasize\n      sub\n      dup2\n      add\n      swap1\n      tag_30\n      swap2\n      swap1\n      tag_19\n      jump\t// in\n    tag_30:\n      tag_31\n      jump\t// in\n    tag_29:\n      stop\n        /* \"@openzeppelin/contracts/access/Ownable.sol\":1638:1723  function owner() public view virtual returns (address) {... */\n    tag_9:\n      tag_32\n      tag_33\n      jump\t// in\n    tag_32:\n      mload(0x40)\n      tag_34\n      swap2\n      swap1\n      tag_16\n      jump\t// in\n    tag_34:\n      mload(0x40)\n      dup1\n      swap2\n      sub\n      swap1\n      return\n        /* \"@openzeppelin/contracts/access/Ownable.sol\":2543:2758  function transferOwnership(address newOwner) public virtual onlyOwner {... */\n    tag_10:\n      tag_35\n      0x04\n      dup1\n      calldatasize\n      sub\n      dup2\n      add\n      swap1\n      tag_36\n      swap2\n      swap1\n      tag_19\n      jump\t// in\n    tag_36:\n      tag_37\n      jump\t// in\n    tag_35:\n      stop\n        /* \".deps/studying-solidity/v0.1/Testament/ProofOfLife.sol\":581:683  function setNewOwner(address newOwner) external onlyOwner {... */\n    tag_11:\n      tag_38\n      0x04\n      dup1\n      calldatasize\n      sub\n      dup2\n      add\n      swap1\n      tag_39\n      swap2\n      swap1\n      tag_19\n      jump\t// in\n    tag_39:\n      tag_40\n      jump\t// in\n    tag_38:\n      stop\n        /* \".deps/studying-solidity/v0.1/Testament/ProofOfLife.sol\":315:342  address public contractData */\n    tag_14:\n      0x02\n      0x00\n      swap1\n      sload\n      swap1\n      0x0100\n      exp\n      swap1\n      div\n      0xffffffffffffffffffffffffffffffffffffffff\n      and\n      dup2\n      jump\t// out\n        /* \".deps/studying-solidity/v0.1/Testament/ProofOfLife.sol\":995:1201  function updateProofOfLife(address testament) external onlyCore {... */\n    tag_20:\n        /* \".deps/studying-solidity/v0.1/Testament/ProofOfLife.sol\":478:490  contractCore */\n      0x01\n      0x00\n      swap1\n      sload\n      swap1\n      0x0100\n      exp\n      swap1\n      div\n      0xffffffffffffffffffffffffffffffffffffffff\n      and\n        /* \".deps/studying-solidity/v0.1/Testament/ProofOfLife.sol\":464:490  msg.sender == contractCore */\n      0xffffffffffffffffffffffffffffffffffffffff\n      and\n        /* \".deps/studying-solidity/v0.1/Testament/ProofOfLife.sol\":464:474  msg.sender */\n      caller\n        /* \".deps/studying-solidity/v0.1/Testament/ProofOfLife.sol\":464:490  msg.sender == contractCore */\n      0xffffffffffffffffffffffffffffffffffffffff\n      and\n      eq\n        /* \".deps/studying-solidity/v0.1/Testament/ProofOfLife.sol\":443:557  require(... */\n      tag_42\n      jumpi\n      mload(0x40)\n      0x08c379a000000000000000000000000000000000000000000000000000000000\n      dup2\n      mstore\n      0x04\n      add\n      tag_43\n      swap1\n      tag_44\n      jump\t// in\n    tag_43:\n      mload(0x40)\n      dup1\n      swap2\n      sub\n      swap1\n      revert\n    tag_42:\n        /* \".deps/studying-solidity/v0.1/Testament/ProofOfLife.sol\":1069:1089  uint128 timestampNow */\n      0x00\n        /* \".deps/studying-solidity/v0.1/Testament/ProofOfLife.sol\":1100:1115  block.timestamp */\n      timestamp\n        /* \".deps/studying-solidity/v0.1/Testament/ProofOfLife.sol\":1069:1116  uint128 timestampNow = uint128(block.timestamp) */\n      swap1\n      pop\n        /* \".deps/studying-solidity/v0.1/Testament/ProofOfLife.sol\":1141:1153  contractData */\n      0x02\n      0x00\n      swap1\n      sload\n      swap1\n      0x0100\n      exp\n      swap1\n      div\n      0xffffffffffffffffffffffffffffffffffffffff\n      and\n        /* \".deps/studying-solidity/v0.1/Testament/ProofOfLife.sol\":1126:1169  ITestamentData(contractData).setProofOfLife */\n      0xffffffffffffffffffffffffffffffffffffffff\n      and\n      0x4a5ffd09\n        /* \".deps/studying-solidity/v0.1/Testament/ProofOfLife.sol\":1170:1179  testament */\n      dup4\n        /* \".deps/studying-solidity/v0.1/Testament/ProofOfLife.sol\":1181:1193  timestampNow */\n      dup4\n        /* \".deps/studying-solidity/v0.1/Testament/ProofOfLife.sol\":1126:1194  ITestamentData(contractData).setProofOfLife(testament, timestampNow) */\n      mload(0x40)\n      dup4\n      0xffffffff\n      and\n      0xe0\n      shl\n      dup2\n      mstore\n      0x04\n      add\n      tag_46\n      swap3\n      swap2\n      swap1\n      tag_47\n      jump\t// in\n    tag_46:\n      0x00\n      mload(0x40)\n      dup1\n      dup4\n      sub\n      dup2\n      0x00\n      dup8\n      dup1\n      extcodesize\n      iszero\n      dup1\n      iszero\n      tag_48\n      jumpi\n      0x00\n      dup1\n      revert\n    tag_48:\n      pop\n      gas\n      call\n      iszero\n      dup1\n      iszero\n      tag_50\n      jumpi\n      returndatasize\n      0x00\n      dup1\n      returndatacopy\n      revert(0x00, returndatasize)\n    tag_50:\n      pop\n      pop\n      pop\n      pop\n        /* \".deps/studying-solidity/v0.1/Testament/ProofOfLife.sol\":1059:1201  {... */\n      pop\n        /* \".deps/studying-solidity/v0.1/Testament/ProofOfLife.sol\":995:1201  function updateProofOfLife(address testament) external onlyCore {... */\n      pop\n      jump\t// out\n        /* \".deps/studying-solidity/v0.1/Testament/ProofOfLife.sol\":282:309  address public contractCore */\n    tag_22:\n      0x01\n      0x00\n      swap1\n      sload\n      swap1\n      0x0100\n      exp\n      swap1\n      div\n      0xffffffffffffffffffffffffffffffffffffffff\n      and\n      dup2\n      jump\t// out\n        /* \".deps/studying-solidity/v0.1/Testament/ProofOfLife.sol\":842:989  function setData(address data) external onlyOwner {... */\n    tag_26:\n        /* \"@openzeppelin/contracts/access/Ownable.sol\":1531:1544  _checkOwner() */\n      tag_52\n        /* \"@openzeppelin/contracts/access/Ownable.sol\":1531:1542  _checkOwner */\n      tag_53\n        /* \"@openzeppelin/contracts/access/Ownable.sol\":1531:1544  _checkOwner() */\n      jump\t// in\n    tag_52:\n        /* \".deps/studying-solidity/v0.1/Testament/ProofOfLife.sol\":926:927  0 */\n      0x00\n        /* \".deps/studying-solidity/v0.1/Testament/ProofOfLife.sol\":910:928  data != address(0) */\n      0xffffffffffffffffffffffffffffffffffffffff\n      and\n        /* \".deps/studying-solidity/v0.1/Testament/ProofOfLife.sol\":910:914  data */\n      dup2\n        /* \".deps/studying-solidity/v0.1/Testament/ProofOfLife.sol\":910:928  data != address(0) */\n      0xffffffffffffffffffffffffffffffffffffffff\n      and\n      sub\n        /* \".deps/studying-solidity/v0.1/Testament/ProofOfLife.sol\":902:953  require(data != address(0), \"Invalid Data address\") */\n      tag_55\n      jumpi\n      mload(0x40)\n      0x08c379a000000000000000000000000000000000000000000000000000000000\n      dup2\n      mstore\n      0x04\n      add\n      tag_56\n      swap1\n      tag_57\n      jump\t// in\n    tag_56:\n      mload(0x40)\n      dup1\n      swap2\n      sub\n      swap1\n      revert\n    tag_55:\n        /* \".deps/studying-solidity/v0.1/Testament/ProofOfLife.sol\":978:982  data */\n      dup1\n        /* \".deps/studying-solidity/v0.1/Testament/ProofOfLife.sol\":963:975  contractData */\n      0x02\n      0x00\n        /* \".deps/studying-solidity/v0.1/Testament/ProofOfLife.sol\":963:982  contractData = data */\n      0x0100\n      exp\n      dup2\n      sload\n      dup2\n      0xffffffffffffffffffffffffffffffffffffffff\n      mul\n      not\n      and\n      swap1\n      dup4\n      0xffffffffffffffffffffffffffffffffffffffff\n      and\n      mul\n      or\n      swap1\n      sstore\n      pop\n        /* \".deps/studying-solidity/v0.1/Testament/ProofOfLife.sol\":842:989  function setData(address data) external onlyOwner {... */\n      pop\n      jump\t// out\n        /* \"@openzeppelin/contracts/access/Ownable.sol\":2293:2394  function renounceOwnership() public virtual onlyOwner {... */\n    tag_28:\n        /* \"@openzeppelin/contracts/access/Ownable.sol\":1531:1544  _checkOwner() */\n      tag_59\n        /* \"@openzeppelin/contracts/access/Ownable.sol\":1531:1542  _checkOwner */\n      tag_53\n        /* \"@openzeppelin/contracts/access/Ownable.sol\":1531:1544  _checkOwner() */\n      jump\t// in\n    tag_59:\n        /* \"@openzeppelin/contracts/access/Ownable.sol\":2357:2387  _transferOwnership(address(0)) */\n      tag_61\n        /* \"@openzeppelin/contracts/access/Ownable.sol\":2384:2385  0 */\n      0x00\n        /* \"@openzeppelin/contracts/access/Ownable.sol\":2357:2375  _transferOwnership */\n      tag_62\n        /* \"@openzeppelin/contracts/access/Ownable.sol\":2357:2387  _transferOwnership(address(0)) */\n      jump\t// in\n    tag_61:\n        /* \"@openzeppelin/contracts/access/Ownable.sol\":2293:2394  function renounceOwnership() public virtual onlyOwner {... */\n      jump\t// out\n        /* \".deps/studying-solidity/v0.1/Testament/ProofOfLife.sol\":689:836  function setCore(address core) external onlyOwner {... */\n    tag_31:\n        /* \"@openzeppelin/contracts/access/Ownable.sol\":1531:1544  _checkOwner() */\n      tag_64\n        /* \"@openzeppelin/contracts/access/Ownable.sol\":1531:1542  _checkOwner */\n      tag_53\n        /* \"@openzeppelin/contracts/access/Ownable.sol\":1531:1544  _checkOwner() */\n      jump\t// in\n    tag_64:\n        /* \".deps/studying-solidity/v0.1/Testament/ProofOfLife.sol\":773:774  0 */\n      0x00\n        /* \".deps/studying-solidity/v0.1/Testament/ProofOfLife.sol\":757:775  core != address(0) */\n      0xffffffffffffffffffffffffffffffffffffffff\n      and\n        /* \".deps/studying-solidity/v0.1/Testament/ProofOfLife.sol\":757:761  core */\n      dup2\n        /* \".deps/studying-solidity/v0.1/Testament/ProofOfLife.sol\":757:775  core != address(0) */\n      0xffffffffffffffffffffffffffffffffffffffff\n      and\n      sub\n        /* \".deps/studying-solidity/v0.1/Testament/ProofOfLife.sol\":749:800  require(core != address(0), \"Invalid Core address\") */\n      tag_66\n      jumpi\n      mload(0x40)\n      0x08c379a000000000000000000000000000000000000000000000000000000000\n      dup2\n      mstore\n      0x04\n      add\n      tag_67\n      swap1\n      tag_68\n      jump\t// in\n    tag_67:\n      mload(0x40)\n      dup1\n      swap2\n      sub\n      swap1\n      revert\n    tag_66:\n        /* \".deps/studying-solidity/v0.1/Testament/ProofOfLife.sol\":825:829  core */\n      dup1\n        /* \".deps/studying-solidity/v0.1/Testament/ProofOfLife.sol\":810:822  contractCore */\n      0x01\n      0x00\n        /* \".deps/studying-solidity/v0.1/Testament/ProofOfLife.sol\":810:829  contractCore = core */\n      0x0100\n      exp\n      dup2\n      sload\n      dup2\n      0xffffffffffffffffffffffffffffffffffffffff\n      mul\n      not\n      and\n      swap1\n      dup4\n      0xffffffffffffffffffffffffffffffffffffffff\n      and\n      mul\n      or\n      swap1\n      sstore\n      pop\n        /* \".deps/studying-solidity/v0.1/Testament/ProofOfLife.sol\":689:836  function setCore(address core) external onlyOwner {... */\n      pop\n      jump\t// out\n        /* \"@openzeppelin/contracts/access/Ownable.sol\":1638:1723  function owner() public view virtual returns (address) {... */\n    tag_33:\n        /* \"@openzeppelin/contracts/access/Ownable.sol\":1684:1691  address */\n      0x00\n        /* \"@openzeppelin/contracts/access/Ownable.sol\":1710:1716  _owner */\n      dup1\n      0x00\n      swap1\n      sload\n      swap1\n      0x0100\n      exp\n      swap1\n      div\n      0xffffffffffffffffffffffffffffffffffffffff\n      and\n        /* \"@openzeppelin/contracts/access/Ownable.sol\":1703:1716  return _owner */\n      swap1\n      pop\n        /* \"@openzeppelin/contracts/access/Ownable.sol\":1638:1723  function owner() public view virtual returns (address) {... */\n      swap1\n      jump\t// out\n        /* \"@openzeppelin/contracts/access/Ownable.sol\":2543:2758  function transferOwnership(address newOwner) public virtual onlyOwner {... */\n    tag_37:\n        /* \"@openzeppelin/contracts/access/Ownable.sol\":1531:1544  _checkOwner() */\n      tag_71\n        /* \"@openzeppelin/contracts/access/Ownable.sol\":1531:1542  _checkOwner */\n      tag_53\n        /* \"@openzeppelin/contracts/access/Ownable.sol\":1531:1544  _checkOwner() */\n      jump\t// in\n    tag_71:\n        /* \"@openzeppelin/contracts/access/Ownable.sol\":2647:2648  0 */\n      0x00\n        /* \"@openzeppelin/contracts/access/Ownable.sol\":2627:2649  newOwner == address(0) */\n      0xffffffffffffffffffffffffffffffffffffffff\n      and\n        /* \"@openzeppelin/contracts/access/Ownable.sol\":2627:2635  newOwner */\n      dup2\n        /* \"@openzeppelin/contracts/access/Ownable.sol\":2627:2649  newOwner == address(0) */\n      0xffffffffffffffffffffffffffffffffffffffff\n      and\n      sub\n        /* \"@openzeppelin/contracts/access/Ownable.sol\":2623:2714  if (newOwner == address(0)) {... */\n      tag_73\n      jumpi\n        /* \"@openzeppelin/contracts/access/Ownable.sol\":2700:2701  0 */\n      0x00\n        /* \"@openzeppelin/contracts/access/Ownable.sol\":2672:2703  OwnableInvalidOwner(address(0)) */\n      mload(0x40)\n      0x1e4fbdf700000000000000000000000000000000000000000000000000000000\n      dup2\n      mstore\n      0x04\n      add\n      tag_74\n      swap2\n      swap1\n      tag_16\n      jump\t// in\n    tag_74:\n      mload(0x40)\n      dup1\n      swap2\n      sub\n      swap1\n      revert\n        /* \"@openzeppelin/contracts/access/Ownable.sol\":2623:2714  if (newOwner == address(0)) {... */\n    tag_73:\n        /* \"@openzeppelin/contracts/access/Ownable.sol\":2723:2751  _transferOwnership(newOwner) */\n      tag_75\n        /* \"@openzeppelin/contracts/access/Ownable.sol\":2742:2750  newOwner */\n      dup2\n        /* \"@openzeppelin/contracts/access/Ownable.sol\":2723:2741  _transferOwnership */\n      tag_62\n        /* \"@openzeppelin/contracts/access/Ownable.sol\":2723:2751  _transferOwnership(newOwner) */\n      jump\t// in\n    tag_75:\n        /* \"@openzeppelin/contracts/access/Ownable.sol\":2543:2758  function transferOwnership(address newOwner) public virtual onlyOwner {... */\n      pop\n      jump\t// out\n        /* \".deps/studying-solidity/v0.1/Testament/ProofOfLife.sol\":581:683  function setNewOwner(address newOwner) external onlyOwner {... */\n    tag_40:\n        /* \"@openzeppelin/contracts/access/Ownable.sol\":1531:1544  _checkOwner() */\n      tag_77\n        /* \"@openzeppelin/contracts/access/Ownable.sol\":1531:1542  _checkOwner */\n      tag_53\n        /* \"@openzeppelin/contracts/access/Ownable.sol\":1531:1544  _checkOwner() */\n      jump\t// in\n    tag_77:\n        /* \".deps/studying-solidity/v0.1/Testament/ProofOfLife.sol\":649:676  transferOwnership(newOwner) */\n      tag_79\n        /* \".deps/studying-solidity/v0.1/Testament/ProofOfLife.sol\":667:675  newOwner */\n      dup2\n        /* \".deps/studying-solidity/v0.1/Testament/ProofOfLife.sol\":649:666  transferOwnership */\n      tag_37\n        /* \".deps/studying-solidity/v0.1/Testament/ProofOfLife.sol\":649:676  transferOwnership(newOwner) */\n      jump\t// in\n    tag_79:\n        /* \".deps/studying-solidity/v0.1/Testament/ProofOfLife.sol\":581:683  function setNewOwner(address newOwner) external onlyOwner {... */\n      pop\n      jump\t// out\n        /* \"@openzeppelin/contracts/access/Ownable.sol\":1796:1958  function _checkOwner() internal view virtual {... */\n    tag_53:\n        /* \"@openzeppelin/contracts/access/Ownable.sol\":1866:1878  _msgSender() */\n      tag_81\n        /* \"@openzeppelin/contracts/access/Ownable.sol\":1866:1876  _msgSender */\n      tag_82\n        /* \"@openzeppelin/contracts/access/Ownable.sol\":1866:1878  _msgSender() */\n      jump\t// in\n    tag_81:\n        /* \"@openzeppelin/contracts/access/Ownable.sol\":1855:1878  owner() != _msgSender() */\n      0xffffffffffffffffffffffffffffffffffffffff\n      and\n        /* \"@openzeppelin/contracts/access/Ownable.sol\":1855:1862  owner() */\n      tag_83\n        /* \"@openzeppelin/contracts/access/Ownable.sol\":1855:1860  owner */\n      tag_33\n        /* \"@openzeppelin/contracts/access/Ownable.sol\":1855:1862  owner() */\n      jump\t// in\n    tag_83:\n        /* \"@openzeppelin/contracts/access/Ownable.sol\":1855:1878  owner() != _msgSender() */\n      0xffffffffffffffffffffffffffffffffffffffff\n      and\n      eq\n        /* \"@openzeppelin/contracts/access/Ownable.sol\":1851:1952  if (owner() != _msgSender()) {... */\n      tag_84\n      jumpi\n        /* \"@openzeppelin/contracts/access/Ownable.sol\":1928:1940  _msgSender() */\n      tag_85\n        /* \"@openzeppelin/contracts/access/Ownable.sol\":1928:1938  _msgSender */\n      tag_82\n        /* \"@openzeppelin/contracts/access/Ownable.sol\":1928:1940  _msgSender() */\n      jump\t// in\n    tag_85:\n        /* \"@openzeppelin/contracts/access/Ownable.sol\":1901:1941  OwnableUnauthorizedAccount(_msgSender()) */\n      mload(0x40)\n      0x118cdaa700000000000000000000000000000000000000000000000000000000\n      dup2\n      mstore\n      0x04\n      add\n      tag_86\n      swap2\n      swap1\n      tag_16\n      jump\t// in\n    tag_86:\n      mload(0x40)\n      dup1\n      swap2\n      sub\n      swap1\n      revert\n        /* \"@openzeppelin/contracts/access/Ownable.sol\":1851:1952  if (owner() != _msgSender()) {... */\n    tag_84:\n        /* \"@openzeppelin/contracts/access/Ownable.sol\":1796:1958  function _checkOwner() internal view virtual {... */\n      jump\t// out\n        /* \"@openzeppelin/contracts/access/Ownable.sol\":2912:3099  function _transferOwnership(address newOwner) internal virtual {... */\n    tag_62:\n        /* \"@openzeppelin/contracts/access/Ownable.sol\":2985:3001  address oldOwner */\n      0x00\n        /* \"@openzeppelin/contracts/access/Ownable.sol\":3004:3010  _owner */\n      dup1\n      0x00\n      swap1\n      sload\n      swap1\n      0x0100\n      exp\n      swap1\n      div\n      0xffffffffffffffffffffffffffffffffffffffff\n      and\n        /* \"@openzeppelin/contracts/access/Ownable.sol\":2985:3010  address oldOwner = _owner */\n      swap1\n      pop\n        /* \"@openzeppelin/contracts/access/Ownable.sol\":3029:3037  newOwner */\n      dup2\n        /* \"@openzeppelin/contracts/access/Ownable.sol\":3020:3026  _owner */\n      0x00\n      dup1\n        /* \"@openzeppelin/contracts/access/Ownable.sol\":3020:3037  _owner = newOwner */\n      0x0100\n      exp\n      dup2\n      sload\n      dup2\n      0xffffffffffffffffffffffffffffffffffffffff\n      mul\n      not\n      and\n      swap1\n      dup4\n      0xffffffffffffffffffffffffffffffffffffffff\n      and\n      mul\n      or\n      swap1\n      sstore\n      pop\n        /* \"@openzeppelin/contracts/access/Ownable.sol\":3083:3091  newOwner */\n      dup2\n        /* \"@openzeppelin/contracts/access/Ownable.sol\":3052:3092  OwnershipTransferred(oldOwner, newOwner) */\n      0xffffffffffffffffffffffffffffffffffffffff\n      and\n        /* \"@openzeppelin/contracts/access/Ownable.sol\":3073:3081  oldOwner */\n      dup2\n        /* \"@openzeppelin/contracts/access/Ownable.sol\":3052:3092  OwnershipTransferred(oldOwner, newOwner) */\n      0xffffffffffffffffffffffffffffffffffffffff\n      and\n      0x8be0079c531659141344cd1fd0a4f28419497f9722a3daafe3b4186f6b6457e0\n      mload(0x40)\n      mload(0x40)\n      dup1\n      swap2\n      sub\n      swap1\n      log3\n        /* \"@openzeppelin/contracts/access/Ownable.sol\":2975:3099  {... */\n      pop\n        /* \"@openzeppelin/contracts/access/Ownable.sol\":2912:3099  function _transferOwnership(address newOwner) internal virtual {... */\n      pop\n      jump\t// out\n        /* \"@openzeppelin/contracts/utils/Context.sol\":656:752  function _msgSender() internal view virtual returns (address) {... */\n    tag_82:\n        /* \"@openzeppelin/contracts/utils/Context.sol\":709:716  address */\n      0x00\n        /* \"@openzeppelin/contracts/utils/Context.sol\":735:745  msg.sender */\n      caller\n        /* \"@openzeppelin/contracts/utils/Context.sol\":728:745  return msg.sender */\n      swap1\n      pop\n        /* \"@openzeppelin/contracts/utils/Context.sol\":656:752  function _msgSender() internal view virtual returns (address) {... */\n      swap1\n      jump\t// out\n        /* \"#utility.yul\":7:133   */\n    tag_89:\n        /* \"#utility.yul\":44:51   */\n      0x00\n        /* \"#utility.yul\":84:126   */\n      0xffffffffffffffffffffffffffffffffffffffff\n        /* \"#utility.yul\":77:82   */\n      dup3\n        /* \"#utility.yul\":73:127   */\n      and\n        /* \"#utility.yul\":62:127   */\n      swap1\n      pop\n        /* \"#utility.yul\":7:133   */\n      swap2\n      swap1\n      pop\n      jump\t// out\n        /* \"#utility.yul\":139:235   */\n    tag_90:\n        /* \"#utility.yul\":176:183   */\n      0x00\n        /* \"#utility.yul\":205:229   */\n      tag_109\n        /* \"#utility.yul\":223:228   */\n      dup3\n        /* \"#utility.yul\":205:229   */\n      tag_89\n      jump\t// in\n    tag_109:\n        /* \"#utility.yul\":194:229   */\n      swap1\n      pop\n        /* \"#utility.yul\":139:235   */\n      swap2\n      swap1\n      pop\n      jump\t// out\n        /* \"#utility.yul\":241:359   */\n    tag_91:\n        /* \"#utility.yul\":328:352   */\n      tag_111\n        /* \"#utility.yul\":346:351   */\n      dup2\n        /* \"#utility.yul\":328:352   */\n      tag_90\n      jump\t// in\n    tag_111:\n        /* \"#utility.yul\":323:326   */\n      dup3\n        /* \"#utility.yul\":316:353   */\n      mstore\n        /* \"#utility.yul\":241:359   */\n      pop\n      pop\n      jump\t// out\n        /* \"#utility.yul\":365:587   */\n    tag_16:\n        /* \"#utility.yul\":458:462   */\n      0x00\n        /* \"#utility.yul\":496:498   */\n      0x20\n        /* \"#utility.yul\":485:494   */\n      dup3\n        /* \"#utility.yul\":481:499   */\n      add\n        /* \"#utility.yul\":473:499   */\n      swap1\n      pop\n        /* \"#utility.yul\":509:580   */\n      tag_113\n        /* \"#utility.yul\":577:578   */\n      0x00\n        /* \"#utility.yul\":566:575   */\n      dup4\n        /* \"#utility.yul\":562:579   */\n      add\n        /* \"#utility.yul\":553:559   */\n      dup5\n        /* \"#utility.yul\":509:580   */\n      tag_91\n      jump\t// in\n    tag_113:\n        /* \"#utility.yul\":365:587   */\n      swap3\n      swap2\n      pop\n      pop\n      jump\t// out\n        /* \"#utility.yul\":674:791   */\n    tag_93:\n        /* \"#utility.yul\":783:784   */\n      0x00\n        /* \"#utility.yul\":780:781   */\n      dup1\n        /* \"#utility.yul\":773:785   */\n      revert\n        /* \"#utility.yul\":920:1042   */\n    tag_95:\n        /* \"#utility.yul\":993:1017   */\n      tag_118\n        /* \"#utility.yul\":1011:1016   */\n      dup2\n        /* \"#utility.yul\":993:1017   */\n      tag_90\n      jump\t// in\n    tag_118:\n        /* \"#utility.yul\":986:991   */\n      dup2\n        /* \"#utility.yul\":983:1018   */\n      eq\n        /* \"#utility.yul\":973:1036   */\n      tag_119\n      jumpi\n        /* \"#utility.yul\":1032:1033   */\n      0x00\n        /* \"#utility.yul\":1029:1030   */\n      dup1\n        /* \"#utility.yul\":1022:1034   */\n      revert\n        /* \"#utility.yul\":973:1036   */\n    tag_119:\n        /* \"#utility.yul\":920:1042   */\n      pop\n      jump\t// out\n        /* \"#utility.yul\":1048:1187   */\n    tag_96:\n        /* \"#utility.yul\":1094:1099   */\n      0x00\n        /* \"#utility.yul\":1132:1138   */\n      dup2\n        /* \"#utility.yul\":1119:1139   */\n      calldataload\n        /* \"#utility.yul\":1110:1139   */\n      swap1\n      pop\n        /* \"#utility.yul\":1148:1181   */\n      tag_121\n        /* \"#utility.yul\":1175:1180   */\n      dup2\n        /* \"#utility.yul\":1148:1181   */\n      tag_95\n      jump\t// in\n    tag_121:\n        /* \"#utility.yul\":1048:1187   */\n      swap3\n      swap2\n      pop\n      pop\n      jump\t// out\n        /* \"#utility.yul\":1193:1522   */\n    tag_19:\n        /* \"#utility.yul\":1252:1258   */\n      0x00\n        /* \"#utility.yul\":1301:1303   */\n      0x20\n        /* \"#utility.yul\":1289:1298   */\n      dup3\n        /* \"#utility.yul\":1280:1287   */\n      dup5\n        /* \"#utility.yul\":1276:1299   */\n      sub\n        /* \"#utility.yul\":1272:1304   */\n      slt\n        /* \"#utility.yul\":1269:1388   */\n      iszero\n      tag_123\n      jumpi\n        /* \"#utility.yul\":1307:1386   */\n      tag_124\n      tag_93\n      jump\t// in\n    tag_124:\n        /* \"#utility.yul\":1269:1388   */\n    tag_123:\n        /* \"#utility.yul\":1427:1428   */\n      0x00\n        /* \"#utility.yul\":1452:1505   */\n      tag_125\n        /* \"#utility.yul\":1497:1504   */\n      dup5\n        /* \"#utility.yul\":1488:1494   */\n      dup3\n        /* \"#utility.yul\":1477:1486   */\n      dup6\n        /* \"#utility.yul\":1473:1495   */\n      add\n        /* \"#utility.yul\":1452:1505   */\n      tag_96\n      jump\t// in\n    tag_125:\n        /* \"#utility.yul\":1442:1505   */\n      swap2\n      pop\n        /* \"#utility.yul\":1398:1515   */\n      pop\n        /* \"#utility.yul\":1193:1522   */\n      swap3\n      swap2\n      pop\n      pop\n      jump\t// out\n        /* \"#utility.yul\":1528:1697   */\n    tag_97:\n        /* \"#utility.yul\":1612:1623   */\n      0x00\n        /* \"#utility.yul\":1646:1652   */\n      dup3\n        /* \"#utility.yul\":1641:1644   */\n      dup3\n        /* \"#utility.yul\":1634:1653   */\n      mstore\n        /* \"#utility.yul\":1686:1690   */\n      0x20\n        /* \"#utility.yul\":1681:1684   */\n      dup3\n        /* \"#utility.yul\":1677:1691   */\n      add\n        /* \"#utility.yul\":1662:1691   */\n      swap1\n      pop\n        /* \"#utility.yul\":1528:1697   */\n      swap3\n      swap2\n      pop\n      pop\n      jump\t// out\n        /* \"#utility.yul\":1703:1931   */\n    tag_98:\n        /* \"#utility.yul\":1843:1877   */\n      0x4f6e6c792054657374616d656e74436f72652063616e2063616c6c2074686973\n        /* \"#utility.yul\":1839:1840   */\n      0x00\n        /* \"#utility.yul\":1831:1837   */\n      dup3\n        /* \"#utility.yul\":1827:1841   */\n      add\n        /* \"#utility.yul\":1820:1878   */\n      mstore\n        /* \"#utility.yul\":1912:1923   */\n      0x2066756e6374696f6e0000000000000000000000000000000000000000000000\n        /* \"#utility.yul\":1907:1909   */\n      0x20\n        /* \"#utility.yul\":1899:1905   */\n      dup3\n        /* \"#utility.yul\":1895:1910   */\n      add\n        /* \"#utility.yul\":1888:1924   */\n      mstore\n        /* \"#utility.yul\":1703:1931   */\n      pop\n      jump\t// out\n        /* \"#utility.yul\":1937:2303   */\n    tag_99:\n        /* \"#utility.yul\":2079:2082   */\n      0x00\n        /* \"#utility.yul\":2100:2167   */\n      tag_129\n        /* \"#utility.yul\":2164:2166   */\n      0x29\n        /* \"#utility.yul\":2159:2162   */\n      dup4\n        /* \"#utility.yul\":2100:2167   */\n      tag_97\n      jump\t// in\n    tag_129:\n        /* \"#utility.yul\":2093:2167   */\n      swap2\n      pop\n        /* \"#utility.yul\":2176:2269   */\n      tag_130\n        /* \"#utility.yul\":2265:2268   */\n      dup3\n        /* \"#utility.yul\":2176:2269   */\n      tag_98\n      jump\t// in\n    tag_130:\n        /* \"#utility.yul\":2294:2296   */\n      0x40\n        /* \"#utility.yul\":2289:2292   */\n      dup3\n        /* \"#utility.yul\":2285:2297   */\n      add\n        /* \"#utility.yul\":2278:2297   */\n      swap1\n      pop\n        /* \"#utility.yul\":1937:2303   */\n      swap2\n      swap1\n      pop\n      jump\t// out\n        /* \"#utility.yul\":2309:2728   */\n    tag_44:\n        /* \"#utility.yul\":2475:2479   */\n      0x00\n        /* \"#utility.yul\":2513:2515   */\n      0x20\n        /* \"#utility.yul\":2502:2511   */\n      dup3\n        /* \"#utility.yul\":2498:2516   */\n      add\n        /* \"#utility.yul\":2490:2516   */\n      swap1\n      pop\n        /* \"#utility.yul\":2562:2571   */\n      dup2\n        /* \"#utility.yul\":2556:2560   */\n      dup2\n        /* \"#utility.yul\":2552:2572   */\n      sub\n        /* \"#utility.yul\":2548:2549   */\n      0x00\n        /* \"#utility.yul\":2537:2546   */\n      dup4\n        /* \"#utility.yul\":2533:2550   */\n      add\n        /* \"#utility.yul\":2526:2573   */\n      mstore\n        /* \"#utility.yul\":2590:2721   */\n      tag_132\n        /* \"#utility.yul\":2716:2720   */\n      dup2\n        /* \"#utility.yul\":2590:2721   */\n      tag_99\n      jump\t// in\n    tag_132:\n        /* \"#utility.yul\":2582:2721   */\n      swap1\n      pop\n        /* \"#utility.yul\":2309:2728   */\n      swap2\n      swap1\n      pop\n      jump\t// out\n        /* \"#utility.yul\":2734:2852   */\n    tag_100:\n        /* \"#utility.yul\":2771:2778   */\n      0x00\n        /* \"#utility.yul\":2811:2845   */\n      0xffffffffffffffffffffffffffffffff\n        /* \"#utility.yul\":2804:2809   */\n      dup3\n        /* \"#utility.yul\":2800:2846   */\n      and\n        /* \"#utility.yul\":2789:2846   */\n      swap1\n      pop\n        /* \"#utility.yul\":2734:2852   */\n      swap2\n      swap1\n      pop\n      jump\t// out\n        /* \"#utility.yul\":2858:2976   */\n    tag_101:\n        /* \"#utility.yul\":2945:2969   */\n      tag_135\n        /* \"#utility.yul\":2963:2968   */\n      dup2\n        /* \"#utility.yul\":2945:2969   */\n      tag_100\n      jump\t// in\n    tag_135:\n        /* \"#utility.yul\":2940:2943   */\n      dup3\n        /* \"#utility.yul\":2933:2970   */\n      mstore\n        /* \"#utility.yul\":2858:2976   */\n      pop\n      pop\n      jump\t// out\n        /* \"#utility.yul\":2982:3314   */\n    tag_47:\n        /* \"#utility.yul\":3103:3107   */\n      0x00\n        /* \"#utility.yul\":3141:3143   */\n      0x40\n        /* \"#utility.yul\":3130:3139   */\n      dup3\n        /* \"#utility.yul\":3126:3144   */\n      add\n        /* \"#utility.yul\":3118:3144   */\n      swap1\n      pop\n        /* \"#utility.yul\":3154:3225   */\n      tag_137\n        /* \"#utility.yul\":3222:3223   */\n      0x00\n        /* \"#utility.yul\":3211:3220   */\n      dup4\n        /* \"#utility.yul\":3207:3224   */\n      add\n        /* \"#utility.yul\":3198:3204   */\n      dup6\n        /* \"#utility.yul\":3154:3225   */\n      tag_91\n      jump\t// in\n    tag_137:\n        /* \"#utility.yul\":3235:3307   */\n      tag_138\n        /* \"#utility.yul\":3303:3305   */\n      0x20\n        /* \"#utility.yul\":3292:3301   */\n      dup4\n        /* \"#utility.yul\":3288:3306   */\n      add\n        /* \"#utility.yul\":3279:3285   */\n      dup5\n        /* \"#utility.yul\":3235:3307   */\n      tag_101\n      jump\t// in\n    tag_138:\n        /* \"#utility.yul\":2982:3314   */\n      swap4\n      swap3\n      pop\n      pop\n      pop\n      jump\t// out\n        /* \"#utility.yul\":3320:3490   */\n    tag_102:\n        /* \"#utility.yul\":3460:3482   */\n      0x496e76616c696420446174612061646472657373000000000000000000000000\n        /* \"#utility.yul\":3456:3457   */\n      0x00\n        /* \"#utility.yul\":3448:3454   */\n      dup3\n        /* \"#utility.yul\":3444:3458   */\n      add\n        /* \"#utility.yul\":3437:3483   */\n      mstore\n        /* \"#utility.yul\":3320:3490   */\n      pop\n      jump\t// out\n        /* \"#utility.yul\":3496:3862   */\n    tag_103:\n        /* \"#utility.yul\":3638:3641   */\n      0x00\n        /* \"#utility.yul\":3659:3726   */\n      tag_141\n        /* \"#utility.yul\":3723:3725   */\n      0x14\n        /* \"#utility.yul\":3718:3721   */\n      dup4\n        /* \"#utility.yul\":3659:3726   */\n      tag_97\n      jump\t// in\n    tag_141:\n        /* \"#utility.yul\":3652:3726   */\n      swap2\n      pop\n        /* \"#utility.yul\":3735:3828   */\n      tag_142\n        /* \"#utility.yul\":3824:3827   */\n      dup3\n        /* \"#utility.yul\":3735:3828   */\n      tag_102\n      jump\t// in\n    tag_142:\n        /* \"#utility.yul\":3853:3855   */\n      0x20\n        /* \"#utility.yul\":3848:3851   */\n      dup3\n        /* \"#utility.yul\":3844:3856   */\n      add\n        /* \"#utility.yul\":3837:3856   */\n      swap1\n      pop\n        /* \"#utility.yul\":3496:3862   */\n      swap2\n      swap1\n      pop\n      jump\t// out\n        /* \"#utility.yul\":3868:4287   */\n    tag_57:\n        /* \"#utility.yul\":4034:4038   */\n      0x00\n        /* \"#utility.yul\":4072:4074   */\n      0x20\n        /* \"#utility.yul\":4061:4070   */\n      dup3\n        /* \"#utility.yul\":4057:4075   */\n      add\n        /* \"#utility.yul\":4049:4075   */\n      swap1\n      pop\n        /* \"#utility.yul\":4121:4130   */\n      dup2\n        /* \"#utility.yul\":4115:4119   */\n      dup2\n        /* \"#utility.yul\":4111:4131   */\n      sub\n        /* \"#utility.yul\":4107:4108   */\n      0x00\n        /* \"#utility.yul\":4096:4105   */\n      dup4\n        /* \"#utility.yul\":4092:4109   */\n      add\n        /* \"#utility.yul\":4085:4132   */\n      mstore\n        /* \"#utility.yul\":4149:4280   */\n      tag_144\n        /* \"#utility.yul\":4275:4279   */\n      dup2\n        /* \"#utility.yul\":4149:4280   */\n      tag_103\n      jump\t// in\n    tag_144:\n        /* \"#utility.yul\":4141:4280   */\n      swap1\n      pop\n        /* \"#utility.yul\":3868:4287   */\n      swap2\n      swap1\n      pop\n      jump\t// out\n        /* \"#utility.yul\":4293:4463   */\n    tag_104:\n        /* \"#utility.yul\":4433:4455   */\n      0x496e76616c696420436f72652061646472657373000000000000000000000000\n        /* \"#utility.yul\":4429:4430   */\n      0x00\n        /* \"#utility.yul\":4421:4427   */\n      dup3\n        /* \"#utility.yul\":4417:4431   */\n      add\n        /* \"#utility.yul\":4410:4456   */\n      mstore\n        /* \"#utility.yul\":4293:4463   */\n      pop\n      jump\t// out\n        /* \"#utility.yul\":4469:4835   */\n    tag_105:\n        /* \"#utility.yul\":4611:4614   */\n      0x00\n        /* \"#utility.yul\":4632:4699   */\n      tag_147\n        /* \"#utility.yul\":4696:4698   */\n      0x14\n        /* \"#utility.yul\":4691:4694   */\n      dup4\n        /* \"#utility.yul\":4632:4699   */\n      tag_97\n      jump\t// in\n    tag_147:\n        /* \"#utility.yul\":4625:4699   */\n      swap2\n      pop\n        /* \"#utility.yul\":4708:4801   */\n      tag_148\n        /* \"#utility.yul\":4797:4800   */\n      dup3\n        /* \"#utility.yul\":4708:4801   */\n      tag_104\n      jump\t// in\n    tag_148:\n        /* \"#utility.yul\":4826:4828   */\n      0x20\n        /* \"#utility.yul\":4821:4824   */\n      dup3\n        /* \"#utility.yul\":4817:4829   */\n      add\n        /* \"#utility.yul\":4810:4829   */\n      swap1\n      pop\n        /* \"#utility.yul\":4469:4835   */\n      swap2\n      swap1\n      pop\n      jump\t// out\n        /* \"#utility.yul\":4841:5260   */\n    tag_68:\n        /* \"#utility.yul\":5007:5011   */\n      0x00\n        /* \"#utility.yul\":5045:5047   */\n      0x20\n        /* \"#utility.yul\":5034:5043   */\n      dup3\n        /* \"#utility.yul\":5030:5048   */\n      add\n        /* \"#utility.yul\":5022:5048   */\n      swap1\n      pop\n        /* \"#utility.yul\":5094:5103   */\n      dup2\n        /* \"#utility.yul\":5088:5092   */\n      dup2\n        /* \"#utility.yul\":5084:5104   */\n      sub\n        /* \"#utility.yul\":5080:5081   */\n      0x00\n        /* \"#utility.yul\":5069:5078   */\n      dup4\n        /* \"#utility.yul\":5065:5082   */\n      add\n        /* \"#utility.yul\":5058:5105   */\n      mstore\n        /* \"#utility.yul\":5122:5253   */\n      tag_150\n        /* \"#utility.yul\":5248:5252   */\n      dup2\n        /* \"#utility.yul\":5122:5253   */\n      tag_105\n      jump\t// in\n    tag_150:\n        /* \"#utility.yul\":5114:5253   */\n      swap1\n      pop\n        /* \"#utility.yul\":4841:5260   */\n      swap2\n      swap1\n      pop\n      jump\t// out\n\n    auxdata: 0xa2646970667358221220b60345f2003511fe108663185ef0a3a1dc294c3c5a083003a642a3339ecfca7c64736f6c634300081a0033\n}\n",
				"bytecode": {
					"linkReferences": {},
					"object": "608060405234801561000f575f80fd5b50604051610b5f380380610b5f833981810160405281019061003191906101d7565b805f73ffffffffffffffffffffffffffffffffffffffff168173ffffffffffffffffffffffffffffffffffffffff16036100a2575f6040517f1e4fbdf70000000000000000000000000000000000000000000000000000000081526004016100999190610211565b60405180910390fd5b6100b1816100b860201b60201c565b505061022a565b5f805f9054906101000a900473ffffffffffffffffffffffffffffffffffffffff169050815f806101000a81548173ffffffffffffffffffffffffffffffffffffffff021916908373ffffffffffffffffffffffffffffffffffffffff1602179055508173ffffffffffffffffffffffffffffffffffffffff168173ffffffffffffffffffffffffffffffffffffffff167f8be0079c531659141344cd1fd0a4f28419497f9722a3daafe3b4186f6b6457e060405160405180910390a35050565b5f80fd5b5f73ffffffffffffffffffffffffffffffffffffffff82169050919050565b5f6101a68261017d565b9050919050565b6101b68161019c565b81146101c0575f80fd5b50565b5f815190506101d1816101ad565b92915050565b5f602082840312156101ec576101eb610179565b5b5f6101f9848285016101c3565b91505092915050565b61020b8161019c565b82525050565b5f6020820190506102245f830184610202565b92915050565b610928806102375f395ff3fe608060405234801561000f575f80fd5b5060043610610091575f3560e01c8063715018a611610064578063715018a61461010957806380009630146101135780638da5cb5b1461012f578063f2fde38b1461014d578063f5a1f5b41461016957610091565b80633cca2420146100955780634d1ba077146100b35780635e431a5b146100cf57806361dfdae6146100ed575b5f80fd5b61009d610185565b6040516100aa91906106c1565b60405180910390f35b6100cd60048036038101906100c89190610708565b6101aa565b005b6100d76102ca565b6040516100e491906106c1565b60405180910390f35b61010760048036038101906101029190610708565b6102ef565b005b6101116103a8565b005b61012d60048036038101906101289190610708565b6103bb565b005b610137610474565b60405161014491906106c1565b60405180910390f35b61016760048036038101906101629190610708565b61049b565b005b610183600480360381019061017e9190610708565b61051f565b005b60025f9054906101000a900473ffffffffffffffffffffffffffffffffffffffff1681565b60015f9054906101000a900473ffffffffffffffffffffffffffffffffffffffff1673ffffffffffffffffffffffffffffffffffffffff163373ffffffffffffffffffffffffffffffffffffffff1614610239576040517f08c379a0000000000000000000000000000000000000000000000000000000008152600401610230906107b3565b60405180910390fd5b5f42905060025f9054906101000a900473ffffffffffffffffffffffffffffffffffffffff1673ffffffffffffffffffffffffffffffffffffffff16634a5ffd0983836040518363ffffffff1660e01b81526004016102999291906107fb565b5f604051808303815f87803b1580156102b0575f80fd5b505af11580156102c2573d5f803e3d5ffd5b505050505050565b60015f9054906101000a900473ffffffffffffffffffffffffffffffffffffffff1681565b6102f7610533565b5f73ffffffffffffffffffffffffffffffffffffffff168173ffffffffffffffffffffffffffffffffffffffff1603610365576040517f08c379a000000000000000000000000000000000000000000000000000000000815260040161035c9061086c565b60405180910390fd5b8060025f6101000a81548173ffffffffffffffffffffffffffffffffffffffff021916908373ffffffffffffffffffffffffffffffffffffffff16021790555050565b6103b0610533565b6103b95f6105ba565b565b6103c3610533565b5f73ffffffffffffffffffffffffffffffffffffffff168173ffffffffffffffffffffffffffffffffffffffff1603610431576040517f08c379a0000000000000000000000000000000000000000000000000000000008152600401610428906108d4565b60405180910390fd5b8060015f6101000a81548173ffffffffffffffffffffffffffffffffffffffff021916908373ffffffffffffffffffffffffffffffffffffffff16021790555050565b5f805f9054906101000a900473ffffffffffffffffffffffffffffffffffffffff16905090565b6104a3610533565b5f73ffffffffffffffffffffffffffffffffffffffff168173ffffffffffffffffffffffffffffffffffffffff1603610513575f6040517f1e4fbdf700000000000000000000000000000000000000000000000000000000815260040161050a91906106c1565b60405180910390fd5b61051c816105ba565b50565b610527610533565b6105308161049b565b50565b61053b61067b565b73ffffffffffffffffffffffffffffffffffffffff16610559610474565b73ffffffffffffffffffffffffffffffffffffffff16146105b85761057c61067b565b6040517f118cdaa70000000000000000000000000000000000000000000000000000000081526004016105af91906106c1565b60405180910390fd5b565b5f805f9054906101000a900473ffffffffffffffffffffffffffffffffffffffff169050815f806101000a81548173ffffffffffffffffffffffffffffffffffffffff021916908373ffffffffffffffffffffffffffffffffffffffff1602179055508173ffffffffffffffffffffffffffffffffffffffff168173ffffffffffffffffffffffffffffffffffffffff167f8be0079c531659141344cd1fd0a4f28419497f9722a3daafe3b4186f6b6457e060405160405180910390a35050565b5f33905090565b5f73ffffffffffffffffffffffffffffffffffffffff82169050919050565b5f6106ab82610682565b9050919050565b6106bb816106a1565b82525050565b5f6020820190506106d45f8301846106b2565b92915050565b5f80fd5b6106e7816106a1565b81146106f1575f80fd5b50565b5f81359050610702816106de565b92915050565b5f6020828403121561071d5761071c6106da565b5b5f61072a848285016106f4565b91505092915050565b5f82825260208201905092915050565b7f4f6e6c792054657374616d656e74436f72652063616e2063616c6c20746869735f8201527f2066756e6374696f6e0000000000000000000000000000000000000000000000602082015250565b5f61079d602983610733565b91506107a882610743565b604082019050919050565b5f6020820190508181035f8301526107ca81610791565b9050919050565b5f6fffffffffffffffffffffffffffffffff82169050919050565b6107f5816107d1565b82525050565b5f60408201905061080e5f8301856106b2565b61081b60208301846107ec565b9392505050565b7f496e76616c6964204461746120616464726573730000000000000000000000005f82015250565b5f610856601483610733565b915061086182610822565b602082019050919050565b5f6020820190508181035f8301526108838161084a565b9050919050565b7f496e76616c696420436f726520616464726573730000000000000000000000005f82015250565b5f6108be601483610733565b91506108c98261088a565b602082019050919050565b5f6020820190508181035f8301526108eb816108b2565b905091905056fea2646970667358221220b60345f2003511fe108663185ef0a3a1dc294c3c5a083003a642a3339ecfca7c64736f6c634300081a0033",
					"opcodes": "PUSH1 0x80 PUSH1 0x40 MSTORE CALLVALUE DUP1 ISZERO PUSH2 0xF JUMPI PUSH0 DUP1 REVERT JUMPDEST POP PUSH1 0x40 MLOAD PUSH2 0xB5F CODESIZE SUB DUP1 PUSH2 0xB5F DUP4 CODECOPY DUP2 DUP2 ADD PUSH1 0x40 MSTORE DUP2 ADD SWAP1 PUSH2 0x31 SWAP2 SWAP1 PUSH2 0x1D7 JUMP JUMPDEST DUP1 PUSH0 PUSH20 0xFFFFFFFFFFFFFFFFFFFFFFFFFFFFFFFFFFFFFFFF AND DUP2 PUSH20 0xFFFFFFFFFFFFFFFFFFFFFFFFFFFFFFFFFFFFFFFF AND SUB PUSH2 0xA2 JUMPI PUSH0 PUSH1 0x40 MLOAD PUSH32 0x1E4FBDF700000000000000000000000000000000000000000000000000000000 DUP2 MSTORE PUSH1 0x4 ADD PUSH2 0x99 SWAP2 SWAP1 PUSH2 0x211 JUMP JUMPDEST PUSH1 0x40 MLOAD DUP1 SWAP2 SUB SWAP1 REVERT JUMPDEST PUSH2 0xB1 DUP2 PUSH2 0xB8 PUSH1 0x20 SHL PUSH1 0x20 SHR JUMP JUMPDEST POP POP PUSH2 0x22A JUMP JUMPDEST PUSH0 DUP1 PUSH0 SWAP1 SLOAD SWAP1 PUSH2 0x100 EXP SWAP1 DIV PUSH20 0xFFFFFFFFFFFFFFFFFFFFFFFFFFFFFFFFFFFFFFFF AND SWAP1 POP DUP2 PUSH0 DUP1 PUSH2 0x100 EXP DUP2 SLOAD DUP2 PUSH20 0xFFFFFFFFFFFFFFFFFFFFFFFFFFFFFFFFFFFFFFFF MUL NOT AND SWAP1 DUP4 PUSH20 0xFFFFFFFFFFFFFFFFFFFFFFFFFFFFFFFFFFFFFFFF AND MUL OR SWAP1 SSTORE POP DUP2 PUSH20 0xFFFFFFFFFFFFFFFFFFFFFFFFFFFFFFFFFFFFFFFF AND DUP2 PUSH20 0xFFFFFFFFFFFFFFFFFFFFFFFFFFFFFFFFFFFFFFFF AND PUSH32 0x8BE0079C531659141344CD1FD0A4F28419497F9722A3DAAFE3B4186F6B6457E0 PUSH1 0x40 MLOAD PUSH1 0x40 MLOAD DUP1 SWAP2 SUB SWAP1 LOG3 POP POP JUMP JUMPDEST PUSH0 DUP1 REVERT JUMPDEST PUSH0 PUSH20 0xFFFFFFFFFFFFFFFFFFFFFFFFFFFFFFFFFFFFFFFF DUP3 AND SWAP1 POP SWAP2 SWAP1 POP JUMP JUMPDEST PUSH0 PUSH2 0x1A6 DUP3 PUSH2 0x17D JUMP JUMPDEST SWAP1 POP SWAP2 SWAP1 POP JUMP JUMPDEST PUSH2 0x1B6 DUP2 PUSH2 0x19C JUMP JUMPDEST DUP2 EQ PUSH2 0x1C0 JUMPI PUSH0 DUP1 REVERT JUMPDEST POP JUMP JUMPDEST PUSH0 DUP2 MLOAD SWAP1 POP PUSH2 0x1D1 DUP2 PUSH2 0x1AD JUMP JUMPDEST SWAP3 SWAP2 POP POP JUMP JUMPDEST PUSH0 PUSH1 0x20 DUP3 DUP5 SUB SLT ISZERO PUSH2 0x1EC JUMPI PUSH2 0x1EB PUSH2 0x179 JUMP JUMPDEST JUMPDEST PUSH0 PUSH2 0x1F9 DUP5 DUP3 DUP6 ADD PUSH2 0x1C3 JUMP JUMPDEST SWAP2 POP POP SWAP3 SWAP2 POP POP JUMP JUMPDEST PUSH2 0x20B DUP2 PUSH2 0x19C JUMP JUMPDEST DUP3 MSTORE POP POP JUMP JUMPDEST PUSH0 PUSH1 0x20 DUP3 ADD SWAP1 POP PUSH2 0x224 PUSH0 DUP4 ADD DUP5 PUSH2 0x202 JUMP JUMPDEST SWAP3 SWAP2 POP POP JUMP JUMPDEST PUSH2 0x928 DUP1 PUSH2 0x237 PUSH0 CODECOPY PUSH0 RETURN INVALID PUSH1 0x80 PUSH1 0x40 MSTORE CALLVALUE DUP1 ISZERO PUSH2 0xF JUMPI PUSH0 DUP1 REVERT JUMPDEST POP PUSH1 0x4 CALLDATASIZE LT PUSH2 0x91 JUMPI PUSH0 CALLDATALOAD PUSH1 0xE0 SHR DUP1 PUSH4 0x715018A6 GT PUSH2 0x64 JUMPI DUP1 PUSH4 0x715018A6 EQ PUSH2 0x109 JUMPI DUP1 PUSH4 0x80009630 EQ PUSH2 0x113 JUMPI DUP1 PUSH4 0x8DA5CB5B EQ PUSH2 0x12F JUMPI DUP1 PUSH4 0xF2FDE38B EQ PUSH2 0x14D JUMPI DUP1 PUSH4 0xF5A1F5B4 EQ PUSH2 0x169 JUMPI PUSH2 0x91 JUMP JUMPDEST DUP1 PUSH4 0x3CCA2420 EQ PUSH2 0x95 JUMPI DUP1 PUSH4 0x4D1BA077 EQ PUSH2 0xB3 JUMPI DUP1 PUSH4 0x5E431A5B EQ PUSH2 0xCF JUMPI DUP1 PUSH4 0x61DFDAE6 EQ PUSH2 0xED JUMPI JUMPDEST PUSH0 DUP1 REVERT JUMPDEST PUSH2 0x9D PUSH2 0x185 JUMP JUMPDEST PUSH1 0x40 MLOAD PUSH2 0xAA SWAP2 SWAP1 PUSH2 0x6C1 JUMP JUMPDEST PUSH1 0x40 MLOAD DUP1 SWAP2 SUB SWAP1 RETURN JUMPDEST PUSH2 0xCD PUSH1 0x4 DUP1 CALLDATASIZE SUB DUP2 ADD SWAP1 PUSH2 0xC8 SWAP2 SWAP1 PUSH2 0x708 JUMP JUMPDEST PUSH2 0x1AA JUMP JUMPDEST STOP JUMPDEST PUSH2 0xD7 PUSH2 0x2CA JUMP JUMPDEST PUSH1 0x40 MLOAD PUSH2 0xE4 SWAP2 SWAP1 PUSH2 0x6C1 JUMP JUMPDEST PUSH1 0x40 MLOAD DUP1 SWAP2 SUB SWAP1 RETURN JUMPDEST PUSH2 0x107 PUSH1 0x4 DUP1 CALLDATASIZE SUB DUP2 ADD SWAP1 PUSH2 0x102 SWAP2 SWAP1 PUSH2 0x708 JUMP JUMPDEST PUSH2 0x2EF JUMP JUMPDEST STOP JUMPDEST PUSH2 0x111 PUSH2 0x3A8 JUMP JUMPDEST STOP JUMPDEST PUSH2 0x12D PUSH1 0x4 DUP1 CALLDATASIZE SUB DUP2 ADD SWAP1 PUSH2 0x128 SWAP2 SWAP1 PUSH2 0x708 JUMP JUMPDEST PUSH2 0x3BB JUMP JUMPDEST STOP JUMPDEST PUSH2 0x137 PUSH2 0x474 JUMP JUMPDEST PUSH1 0x40 MLOAD PUSH2 0x144 SWAP2 SWAP1 PUSH2 0x6C1 JUMP JUMPDEST PUSH1 0x40 MLOAD DUP1 SWAP2 SUB SWAP1 RETURN JUMPDEST PUSH2 0x167 PUSH1 0x4 DUP1 CALLDATASIZE SUB DUP2 ADD SWAP1 PUSH2 0x162 SWAP2 SWAP1 PUSH2 0x708 JUMP JUMPDEST PUSH2 0x49B JUMP JUMPDEST STOP JUMPDEST PUSH2 0x183 PUSH1 0x4 DUP1 CALLDATASIZE SUB DUP2 ADD SWAP1 PUSH2 0x17E SWAP2 SWAP1 PUSH2 0x708 JUMP JUMPDEST PUSH2 0x51F JUMP JUMPDEST STOP JUMPDEST PUSH1 0x2 PUSH0 SWAP1 SLOAD SWAP1 PUSH2 0x100 EXP SWAP1 DIV PUSH20 0xFFFFFFFFFFFFFFFFFFFFFFFFFFFFFFFFFFFFFFFF AND DUP2 JUMP JUMPDEST PUSH1 0x1 PUSH0 SWAP1 SLOAD SWAP1 PUSH2 0x100 EXP SWAP1 DIV PUSH20 0xFFFFFFFFFFFFFFFFFFFFFFFFFFFFFFFFFFFFFFFF AND PUSH20 0xFFFFFFFFFFFFFFFFFFFFFFFFFFFFFFFFFFFFFFFF AND CALLER PUSH20 0xFFFFFFFFFFFFFFFFFFFFFFFFFFFFFFFFFFFFFFFF AND EQ PUSH2 0x239 JUMPI PUSH1 0x40 MLOAD PUSH32 0x8C379A000000000000000000000000000000000000000000000000000000000 DUP2 MSTORE PUSH1 0x4 ADD PUSH2 0x230 SWAP1 PUSH2 0x7B3 JUMP JUMPDEST PUSH1 0x40 MLOAD DUP1 SWAP2 SUB SWAP1 REVERT JUMPDEST PUSH0 TIMESTAMP SWAP1 POP PUSH1 0x2 PUSH0 SWAP1 SLOAD SWAP1 PUSH2 0x100 EXP SWAP1 DIV PUSH20 0xFFFFFFFFFFFFFFFFFFFFFFFFFFFFFFFFFFFFFFFF AND PUSH20 0xFFFFFFFFFFFFFFFFFFFFFFFFFFFFFFFFFFFFFFFF AND PUSH4 0x4A5FFD09 DUP4 DUP4 PUSH1 0x40 MLOAD DUP4 PUSH4 0xFFFFFFFF AND PUSH1 0xE0 SHL DUP2 MSTORE PUSH1 0x4 ADD PUSH2 0x299 SWAP3 SWAP2 SWAP1 PUSH2 0x7FB JUMP JUMPDEST PUSH0 PUSH1 0x40 MLOAD DUP1 DUP4 SUB DUP2 PUSH0 DUP8 DUP1 EXTCODESIZE ISZERO DUP1 ISZERO PUSH2 0x2B0 JUMPI PUSH0 DUP1 REVERT JUMPDEST POP GAS CALL ISZERO DUP1 ISZERO PUSH2 0x2C2 JUMPI RETURNDATASIZE PUSH0 DUP1 RETURNDATACOPY RETURNDATASIZE PUSH0 REVERT JUMPDEST POP POP POP POP POP POP JUMP JUMPDEST PUSH1 0x1 PUSH0 SWAP1 SLOAD SWAP1 PUSH2 0x100 EXP SWAP1 DIV PUSH20 0xFFFFFFFFFFFFFFFFFFFFFFFFFFFFFFFFFFFFFFFF AND DUP2 JUMP JUMPDEST PUSH2 0x2F7 PUSH2 0x533 JUMP JUMPDEST PUSH0 PUSH20 0xFFFFFFFFFFFFFFFFFFFFFFFFFFFFFFFFFFFFFFFF AND DUP2 PUSH20 0xFFFFFFFFFFFFFFFFFFFFFFFFFFFFFFFFFFFFFFFF AND SUB PUSH2 0x365 JUMPI PUSH1 0x40 MLOAD PUSH32 0x8C379A000000000000000000000000000000000000000000000000000000000 DUP2 MSTORE PUSH1 0x4 ADD PUSH2 0x35C SWAP1 PUSH2 0x86C JUMP JUMPDEST PUSH1 0x40 MLOAD DUP1 SWAP2 SUB SWAP1 REVERT JUMPDEST DUP1 PUSH1 0x2 PUSH0 PUSH2 0x100 EXP DUP2 SLOAD DUP2 PUSH20 0xFFFFFFFFFFFFFFFFFFFFFFFFFFFFFFFFFFFFFFFF MUL NOT AND SWAP1 DUP4 PUSH20 0xFFFFFFFFFFFFFFFFFFFFFFFFFFFFFFFFFFFFFFFF AND MUL OR SWAP1 SSTORE POP POP JUMP JUMPDEST PUSH2 0x3B0 PUSH2 0x533 JUMP JUMPDEST PUSH2 0x3B9 PUSH0 PUSH2 0x5BA JUMP JUMPDEST JUMP JUMPDEST PUSH2 0x3C3 PUSH2 0x533 JUMP JUMPDEST PUSH0 PUSH20 0xFFFFFFFFFFFFFFFFFFFFFFFFFFFFFFFFFFFFFFFF AND DUP2 PUSH20 0xFFFFFFFFFFFFFFFFFFFFFFFFFFFFFFFFFFFFFFFF AND SUB PUSH2 0x431 JUMPI PUSH1 0x40 MLOAD PUSH32 0x8C379A000000000000000000000000000000000000000000000000000000000 DUP2 MSTORE PUSH1 0x4 ADD PUSH2 0x428 SWAP1 PUSH2 0x8D4 JUMP JUMPDEST PUSH1 0x40 MLOAD DUP1 SWAP2 SUB SWAP1 REVERT JUMPDEST DUP1 PUSH1 0x1 PUSH0 PUSH2 0x100 EXP DUP2 SLOAD DUP2 PUSH20 0xFFFFFFFFFFFFFFFFFFFFFFFFFFFFFFFFFFFFFFFF MUL NOT AND SWAP1 DUP4 PUSH20 0xFFFFFFFFFFFFFFFFFFFFFFFFFFFFFFFFFFFFFFFF AND MUL OR SWAP1 SSTORE POP POP JUMP JUMPDEST PUSH0 DUP1 PUSH0 SWAP1 SLOAD SWAP1 PUSH2 0x100 EXP SWAP1 DIV PUSH20 0xFFFFFFFFFFFFFFFFFFFFFFFFFFFFFFFFFFFFFFFF AND SWAP1 POP SWAP1 JUMP JUMPDEST PUSH2 0x4A3 PUSH2 0x533 JUMP JUMPDEST PUSH0 PUSH20 0xFFFFFFFFFFFFFFFFFFFFFFFFFFFFFFFFFFFFFFFF AND DUP2 PUSH20 0xFFFFFFFFFFFFFFFFFFFFFFFFFFFFFFFFFFFFFFFF AND SUB PUSH2 0x513 JUMPI PUSH0 PUSH1 0x40 MLOAD PUSH32 0x1E4FBDF700000000000000000000000000000000000000000000000000000000 DUP2 MSTORE PUSH1 0x4 ADD PUSH2 0x50A SWAP2 SWAP1 PUSH2 0x6C1 JUMP JUMPDEST PUSH1 0x40 MLOAD DUP1 SWAP2 SUB SWAP1 REVERT JUMPDEST PUSH2 0x51C DUP2 PUSH2 0x5BA JUMP JUMPDEST POP JUMP JUMPDEST PUSH2 0x527 PUSH2 0x533 JUMP JUMPDEST PUSH2 0x530 DUP2 PUSH2 0x49B JUMP JUMPDEST POP JUMP JUMPDEST PUSH2 0x53B PUSH2 0x67B JUMP JUMPDEST PUSH20 0xFFFFFFFFFFFFFFFFFFFFFFFFFFFFFFFFFFFFFFFF AND PUSH2 0x559 PUSH2 0x474 JUMP JUMPDEST PUSH20 0xFFFFFFFFFFFFFFFFFFFFFFFFFFFFFFFFFFFFFFFF AND EQ PUSH2 0x5B8 JUMPI PUSH2 0x57C PUSH2 0x67B JUMP JUMPDEST PUSH1 0x40 MLOAD PUSH32 0x118CDAA700000000000000000000000000000000000000000000000000000000 DUP2 MSTORE PUSH1 0x4 ADD PUSH2 0x5AF SWAP2 SWAP1 PUSH2 0x6C1 JUMP JUMPDEST PUSH1 0x40 MLOAD DUP1 SWAP2 SUB SWAP1 REVERT JUMPDEST JUMP JUMPDEST PUSH0 DUP1 PUSH0 SWAP1 SLOAD SWAP1 PUSH2 0x100 EXP SWAP1 DIV PUSH20 0xFFFFFFFFFFFFFFFFFFFFFFFFFFFFFFFFFFFFFFFF AND SWAP1 POP DUP2 PUSH0 DUP1 PUSH2 0x100 EXP DUP2 SLOAD DUP2 PUSH20 0xFFFFFFFFFFFFFFFFFFFFFFFFFFFFFFFFFFFFFFFF MUL NOT AND SWAP1 DUP4 PUSH20 0xFFFFFFFFFFFFFFFFFFFFFFFFFFFFFFFFFFFFFFFF AND MUL OR SWAP1 SSTORE POP DUP2 PUSH20 0xFFFFFFFFFFFFFFFFFFFFFFFFFFFFFFFFFFFFFFFF AND DUP2 PUSH20 0xFFFFFFFFFFFFFFFFFFFFFFFFFFFFFFFFFFFFFFFF AND PUSH32 0x8BE0079C531659141344CD1FD0A4F28419497F9722A3DAAFE3B4186F6B6457E0 PUSH1 0x40 MLOAD PUSH1 0x40 MLOAD DUP1 SWAP2 SUB SWAP1 LOG3 POP POP JUMP JUMPDEST PUSH0 CALLER SWAP1 POP SWAP1 JUMP JUMPDEST PUSH0 PUSH20 0xFFFFFFFFFFFFFFFFFFFFFFFFFFFFFFFFFFFFFFFF DUP3 AND SWAP1 POP SWAP2 SWAP1 POP JUMP JUMPDEST PUSH0 PUSH2 0x6AB DUP3 PUSH2 0x682 JUMP JUMPDEST SWAP1 POP SWAP2 SWAP1 POP JUMP JUMPDEST PUSH2 0x6BB DUP2 PUSH2 0x6A1 JUMP JUMPDEST DUP3 MSTORE POP POP JUMP JUMPDEST PUSH0 PUSH1 0x20 DUP3 ADD SWAP1 POP PUSH2 0x6D4 PUSH0 DUP4 ADD DUP5 PUSH2 0x6B2 JUMP JUMPDEST SWAP3 SWAP2 POP POP JUMP JUMPDEST PUSH0 DUP1 REVERT JUMPDEST PUSH2 0x6E7 DUP2 PUSH2 0x6A1 JUMP JUMPDEST DUP2 EQ PUSH2 0x6F1 JUMPI PUSH0 DUP1 REVERT JUMPDEST POP JUMP JUMPDEST PUSH0 DUP2 CALLDATALOAD SWAP1 POP PUSH2 0x702 DUP2 PUSH2 0x6DE JUMP JUMPDEST SWAP3 SWAP2 POP POP JUMP JUMPDEST PUSH0 PUSH1 0x20 DUP3 DUP5 SUB SLT ISZERO PUSH2 0x71D JUMPI PUSH2 0x71C PUSH2 0x6DA JUMP JUMPDEST JUMPDEST PUSH0 PUSH2 0x72A DUP5 DUP3 DUP6 ADD PUSH2 0x6F4 JUMP JUMPDEST SWAP2 POP POP SWAP3 SWAP2 POP POP JUMP JUMPDEST PUSH0 DUP3 DUP3 MSTORE PUSH1 0x20 DUP3 ADD SWAP1 POP SWAP3 SWAP2 POP POP JUMP JUMPDEST PUSH32 0x4F6E6C792054657374616D656E74436F72652063616E2063616C6C2074686973 PUSH0 DUP3 ADD MSTORE PUSH32 0x2066756E6374696F6E0000000000000000000000000000000000000000000000 PUSH1 0x20 DUP3 ADD MSTORE POP JUMP JUMPDEST PUSH0 PUSH2 0x79D PUSH1 0x29 DUP4 PUSH2 0x733 JUMP JUMPDEST SWAP2 POP PUSH2 0x7A8 DUP3 PUSH2 0x743 JUMP JUMPDEST PUSH1 0x40 DUP3 ADD SWAP1 POP SWAP2 SWAP1 POP JUMP JUMPDEST PUSH0 PUSH1 0x20 DUP3 ADD SWAP1 POP DUP2 DUP2 SUB PUSH0 DUP4 ADD MSTORE PUSH2 0x7CA DUP2 PUSH2 0x791 JUMP JUMPDEST SWAP1 POP SWAP2 SWAP1 POP JUMP JUMPDEST PUSH0 PUSH16 0xFFFFFFFFFFFFFFFFFFFFFFFFFFFFFFFF DUP3 AND SWAP1 POP SWAP2 SWAP1 POP JUMP JUMPDEST PUSH2 0x7F5 DUP2 PUSH2 0x7D1 JUMP JUMPDEST DUP3 MSTORE POP POP JUMP JUMPDEST PUSH0 PUSH1 0x40 DUP3 ADD SWAP1 POP PUSH2 0x80E PUSH0 DUP4 ADD DUP6 PUSH2 0x6B2 JUMP JUMPDEST PUSH2 0x81B PUSH1 0x20 DUP4 ADD DUP5 PUSH2 0x7EC JUMP JUMPDEST SWAP4 SWAP3 POP POP POP JUMP JUMPDEST PUSH32 0x496E76616C696420446174612061646472657373000000000000000000000000 PUSH0 DUP3 ADD MSTORE POP JUMP JUMPDEST PUSH0 PUSH2 0x856 PUSH1 0x14 DUP4 PUSH2 0x733 JUMP JUMPDEST SWAP2 POP PUSH2 0x861 DUP3 PUSH2 0x822 JUMP JUMPDEST PUSH1 0x20 DUP3 ADD SWAP1 POP SWAP2 SWAP1 POP JUMP JUMPDEST PUSH0 PUSH1 0x20 DUP3 ADD SWAP1 POP DUP2 DUP2 SUB PUSH0 DUP4 ADD MSTORE PUSH2 0x883 DUP2 PUSH2 0x84A JUMP JUMPDEST SWAP1 POP SWAP2 SWAP1 POP JUMP JUMPDEST PUSH32 0x496E76616C696420436F72652061646472657373000000000000000000000000 PUSH0 DUP3 ADD MSTORE POP JUMP JUMPDEST PUSH0 PUSH2 0x8BE PUSH1 0x14 DUP4 PUSH2 0x733 JUMP JUMPDEST SWAP2 POP PUSH2 0x8C9 DUP3 PUSH2 0x88A JUMP JUMPDEST PUSH1 0x20 DUP3 ADD SWAP1 POP SWAP2 SWAP1 POP JUMP JUMPDEST PUSH0 PUSH1 0x20 DUP3 ADD SWAP1 POP DUP2 DUP2 SUB PUSH0 DUP4 ADD MSTORE PUSH2 0x8EB DUP2 PUSH2 0x8B2 JUMP JUMPDEST SWAP1 POP SWAP2 SWAP1 POP JUMP INVALID LOG2 PUSH5 0x6970667358 0x22 SLT KECCAK256 0xB6 SUB GASLIMIT CALLCODE STOP CALLDATALOAD GT INVALID LT DUP7 PUSH4 0x185EF0A3 LOG1 0xDC 0x29 0x4C EXTCODECOPY GAS ADDMOD ADDRESS SUB 0xA6 TIMESTAMP LOG3 CALLER SWAP15 0xCF 0xCA PUSH29 0x64736F6C634300081A0033000000000000000000000000000000000000 "
				},
				"gasEstimates": {
					"creation": {
						"codeDepositCost": "468800",
						"executionCost": "infinite",
						"totalCost": "infinite"
					},
					"external": {
						"contractCore()": "2553",
						"contractData()": "2509",
						"owner()": "2559",
						"renounceOwnership()": "infinite",
						"setCore(address)": "infinite",
						"setData(address)": "infinite",
						"setNewOwner(address)": "infinite",
						"transferOwnership(address)": "infinite",
						"updateProofOfLife(address)": "infinite"
					}
				},
				"methodIdentifiers": {
					"contractCore()": "5e431a5b",
					"contractData()": "3cca2420",
					"owner()": "8da5cb5b",
					"renounceOwnership()": "715018a6",
					"setCore(address)": "80009630",
					"setData(address)": "61dfdae6",
					"setNewOwner(address)": "f5a1f5b4",
					"transferOwnership(address)": "f2fde38b",
					"updateProofOfLife(address)": "4d1ba077"
				}
			},
			"storageLayout": {
				"storage": [
					{
						"astId": 347,
						"contract": ".deps/studying-solidity/v0.1/Testament/ProofOfLife.sol:ProofOfLife",
						"label": "_owner",
						"offset": 0,
						"slot": "0",
						"type": "t_address"
					},
					{
						"astId": 15,
						"contract": ".deps/studying-solidity/v0.1/Testament/ProofOfLife.sol:ProofOfLife",
						"label": "contractCore",
						"offset": 0,
						"slot": "1",
						"type": "t_address"
					},
					{
						"astId": 17,
						"contract": ".deps/studying-solidity/v0.1/Testament/ProofOfLife.sol:ProofOfLife",
						"label": "contractData",
						"offset": 0,
						"slot": "2",
						"type": "t_address"
					}
				],
				"types": {
					"t_address": {
						"encoding": "inplace",
						"label": "address",
						"numberOfBytes": "20"
					}
				}
			},
			"userdoc": {
				"kind": "user",
				"methods": {},
				"version": 1
			}
		}
	}
}