{
	".deps/studying-solidity/v0.1/Testament/TestamentData.sol": {
		"TestamentData": {
			"abi": [
				{
					"inputs": [
						{
							"internalType": "address",
							"name": "initialOwner",
							"type": "address"
						}
					],
					"stateMutability": "nonpayable",
					"type": "constructor"
				},
				{
					"inputs": [
						{
							"internalType": "address",
							"name": "owner",
							"type": "address"
						}
					],
					"name": "OwnableInvalidOwner",
					"type": "error"
				},
				{
					"inputs": [
						{
							"internalType": "address",
							"name": "account",
							"type": "address"
						}
					],
					"name": "OwnableUnauthorizedAccount",
					"type": "error"
				},
				{
					"anonymous": false,
					"inputs": [
						{
							"indexed": true,
							"internalType": "address",
							"name": "previousOwner",
							"type": "address"
						},
						{
							"indexed": true,
							"internalType": "address",
							"name": "newOwner",
							"type": "address"
						}
					],
					"name": "OwnershipTransferred",
					"type": "event"
				},
				{
					"inputs": [
						{
							"internalType": "address",
							"name": "ownerTestament",
							"type": "address"
						},
						{
							"internalType": "uint256",
							"name": "amount",
							"type": "uint256"
						},
						{
							"internalType": "address[]",
							"name": "_addresses",
							"type": "address[]"
						},
						{
							"internalType": "uint16[]",
							"name": "_percentagens",
							"type": "uint16[]"
						}
					],
					"name": "createInheritance",
					"outputs": [],
					"stateMutability": "nonpayable",
					"type": "function"
				},
				{
					"inputs": [
						{
							"internalType": "address",
							"name": "testator",
							"type": "address"
						}
					],
					"name": "getIfTestamentExist",
					"outputs": [
						{
							"internalType": "bool",
							"name": "",
							"type": "bool"
						}
					],
					"stateMutability": "view",
					"type": "function"
				},
				{
					"inputs": [
						{
							"internalType": "address",
							"name": "testator",
							"type": "address"
						}
					],
					"name": "getTestamentOf",
					"outputs": [
						{
							"components": [
								{
									"components": [
										{
											"internalType": "address",
											"name": "inheritorAddress",
											"type": "address"
										},
										{
											"internalType": "uint16",
											"name": "percentage",
											"type": "uint16"
										},
										{
											"internalType": "bool",
											"name": "canWithdraw",
											"type": "bool"
										}
									],
									"internalType": "struct Inheritor[]",
									"name": "inheritors",
									"type": "tuple[]"
								},
								{
									"internalType": "bool",
									"name": "exist",
									"type": "bool"
								},
								{
									"internalType": "uint128",
									"name": "lastProofOfLife",
									"type": "uint128"
								},
								{
									"internalType": "uint256",
									"name": "inheritanceTotalValue",
									"type": "uint256"
								}
							],
							"internalType": "struct Testament",
							"name": "",
							"type": "tuple"
						}
					],
					"stateMutability": "view",
					"type": "function"
				},
				{
					"inputs": [],
					"name": "owner",
					"outputs": [
						{
							"internalType": "address",
							"name": "",
							"type": "address"
						}
					],
					"stateMutability": "view",
					"type": "function"
				},
				{
					"inputs": [],
					"name": "proofOfLife",
					"outputs": [
						{
							"internalType": "address",
							"name": "",
							"type": "address"
						}
					],
					"stateMutability": "view",
					"type": "function"
				},
				{
					"inputs": [],
					"name": "renounceOwnership",
					"outputs": [],
					"stateMutability": "nonpayable",
					"type": "function"
				},
				{
					"inputs": [
						{
							"internalType": "address",
							"name": "user",
							"type": "address"
						},
						{
							"internalType": "uint128",
							"name": "timestamp",
							"type": "uint128"
						}
					],
					"name": "setProofOfLife",
					"outputs": [],
					"stateMutability": "nonpayable",
					"type": "function"
				},
				{
					"inputs": [
						{
							"internalType": "address",
							"name": "_proofOfLife",
							"type": "address"
						}
					],
					"name": "setProofOfLife",
					"outputs": [],
					"stateMutability": "nonpayable",
					"type": "function"
				},
				{
					"inputs": [
						{
							"internalType": "address",
							"name": "newOwner",
							"type": "address"
						}
					],
					"name": "transferOwnership",
					"outputs": [],
					"stateMutability": "nonpayable",
					"type": "function"
				}
			],
			"devdoc": {
				"errors": {
					"OwnableInvalidOwner(address)": [
						{
							"details": "The owner is not a valid owner account. (eg. `address(0)`)"
						}
					],
					"OwnableUnauthorizedAccount(address)": [
						{
							"details": "The caller account is not authorized to perform an operation."
						}
					]
				},
				"kind": "dev",
				"methods": {
					"owner()": {
						"details": "Returns the address of the current owner."
					},
					"renounceOwnership()": {
						"details": "Leaves the contract without owner. It will not be possible to call `onlyOwner` functions. Can only be called by the current owner. NOTE: Renouncing ownership will leave the contract without an owner, thereby disabling any functionality that is only available to the owner."
					},
					"transferOwnership(address)": {
						"details": "Transfers ownership of the contract to a new account (`newOwner`). Can only be called by the current owner."
					}
				},
				"version": 1
			},
			"evm": {
				"assembly": "    /* \".deps/studying-solidity/v0.1/Testament/TestamentData.sol\":377:2618  contract TestamentData is Ownable {... */\n  mstore(0x40, 0x80)\n    /* \".deps/studying-solidity/v0.1/Testament/TestamentData.sol\":702:760  constructor(address initialOwner) Ownable(initialOwner) {} */\n  callvalue\n  dup1\n  iszero\n  tag_1\n  jumpi\n  0x00\n  dup1\n  revert\ntag_1:\n  pop\n  mload(0x40)\n  sub(codesize, bytecodeSize)\n  dup1\n  bytecodeSize\n  dup4\n  codecopy\n  dup2\n  dup2\n  add\n  0x40\n  mstore\n  dup2\n  add\n  swap1\n  tag_2\n  swap2\n  swap1\n  tag_3\n  jump\t// in\ntag_2:\n    /* \".deps/studying-solidity/v0.1/Testament/TestamentData.sol\":744:756  initialOwner */\n  dup1\n    /* \"@openzeppelin/contracts/access/Ownable.sol\":1297:1298  0 */\n  0x00\n    /* \"@openzeppelin/contracts/access/Ownable.sol\":1273:1299  initialOwner == address(0) */\n  0xffffffffffffffffffffffffffffffffffffffff\n  and\n    /* \"@openzeppelin/contracts/access/Ownable.sol\":1273:1285  initialOwner */\n  dup2\n    /* \"@openzeppelin/contracts/access/Ownable.sol\":1273:1299  initialOwner == address(0) */\n  0xffffffffffffffffffffffffffffffffffffffff\n  and\n  sub\n    /* \"@openzeppelin/contracts/access/Ownable.sol\":1269:1364  if (initialOwner == address(0)) {... */\n  tag_7\n  jumpi\n    /* \"@openzeppelin/contracts/access/Ownable.sol\":1350:1351  0 */\n  0x00\n    /* \"@openzeppelin/contracts/access/Ownable.sol\":1322:1353  OwnableInvalidOwner(address(0)) */\n  mload(0x40)\n  0x1e4fbdf700000000000000000000000000000000000000000000000000000000\n  dup2\n  mstore\n  0x04\n  add\n  tag_8\n  swap2\n  swap1\n  tag_9\n  jump\t// in\ntag_8:\n  mload(0x40)\n  dup1\n  swap2\n  sub\n  swap1\n  revert\n    /* \"@openzeppelin/contracts/access/Ownable.sol\":1269:1364  if (initialOwner == address(0)) {... */\ntag_7:\n    /* \"@openzeppelin/contracts/access/Ownable.sol\":1373:1405  _transferOwnership(initialOwner) */\n  tag_10\n    /* \"@openzeppelin/contracts/access/Ownable.sol\":1392:1404  initialOwner */\n  dup2\n    /* \"@openzeppelin/contracts/access/Ownable.sol\":1373:1391  _transferOwnership */\n  shl(0x20, tag_11)\n    /* \"@openzeppelin/contracts/access/Ownable.sol\":1373:1405  _transferOwnership(initialOwner) */\n  0x20\n  shr\n  jump\t// in\ntag_10:\n    /* \"@openzeppelin/contracts/access/Ownable.sol\":1225:1412  constructor(address initialOwner) {... */\n  pop\n    /* \".deps/studying-solidity/v0.1/Testament/TestamentData.sol\":702:760  constructor(address initialOwner) Ownable(initialOwner) {} */\n  pop\n    /* \".deps/studying-solidity/v0.1/Testament/TestamentData.sol\":377:2618  contract TestamentData is Ownable {... */\n  jump(tag_13)\n    /* \"@openzeppelin/contracts/access/Ownable.sol\":2912:3099  function _transferOwnership(address newOwner) internal virtual {... */\ntag_11:\n    /* \"@openzeppelin/contracts/access/Ownable.sol\":2985:3001  address oldOwner */\n  0x00\n    /* \"@openzeppelin/contracts/access/Ownable.sol\":3004:3010  _owner */\n  dup1\n  0x00\n  swap1\n  sload\n  swap1\n  0x0100\n  exp\n  swap1\n  div\n  0xffffffffffffffffffffffffffffffffffffffff\n  and\n    /* \"@openzeppelin/contracts/access/Ownable.sol\":2985:3010  address oldOwner = _owner */\n  swap1\n  pop\n    /* \"@openzeppelin/contracts/access/Ownable.sol\":3029:3037  newOwner */\n  dup2\n    /* \"@openzeppelin/contracts/access/Ownable.sol\":3020:3026  _owner */\n  0x00\n  dup1\n    /* \"@openzeppelin/contracts/access/Ownable.sol\":3020:3037  _owner = newOwner */\n  0x0100\n  exp\n  dup2\n  sload\n  dup2\n  0xffffffffffffffffffffffffffffffffffffffff\n  mul\n  not\n  and\n  swap1\n  dup4\n  0xffffffffffffffffffffffffffffffffffffffff\n  and\n  mul\n  or\n  swap1\n  sstore\n  pop\n    /* \"@openzeppelin/contracts/access/Ownable.sol\":3083:3091  newOwner */\n  dup2\n    /* \"@openzeppelin/contracts/access/Ownable.sol\":3052:3092  OwnershipTransferred(oldOwner, newOwner) */\n  0xffffffffffffffffffffffffffffffffffffffff\n  and\n    /* \"@openzeppelin/contracts/access/Ownable.sol\":3073:3081  oldOwner */\n  dup2\n    /* \"@openzeppelin/contracts/access/Ownable.sol\":3052:3092  OwnershipTransferred(oldOwner, newOwner) */\n  0xffffffffffffffffffffffffffffffffffffffff\n  and\n  0x8be0079c531659141344cd1fd0a4f28419497f9722a3daafe3b4186f6b6457e0\n  mload(0x40)\n  mload(0x40)\n  dup1\n  swap2\n  sub\n  swap1\n  log3\n    /* \"@openzeppelin/contracts/access/Ownable.sol\":2975:3099  {... */\n  pop\n    /* \"@openzeppelin/contracts/access/Ownable.sol\":2912:3099  function _transferOwnership(address newOwner) internal virtual {... */\n  pop\n  jump\t// out\n    /* \"#utility.yul\":88:205   */\ntag_16:\n    /* \"#utility.yul\":197:198   */\n  0x00\n    /* \"#utility.yul\":194:195   */\n  dup1\n    /* \"#utility.yul\":187:199   */\n  revert\n    /* \"#utility.yul\":334:460   */\ntag_18:\n    /* \"#utility.yul\":371:378   */\n  0x00\n    /* \"#utility.yul\":411:453   */\n  0xffffffffffffffffffffffffffffffffffffffff\n    /* \"#utility.yul\":404:409   */\n  dup3\n    /* \"#utility.yul\":400:454   */\n  and\n    /* \"#utility.yul\":389:454   */\n  swap1\n  pop\n    /* \"#utility.yul\":334:460   */\n  swap2\n  swap1\n  pop\n  jump\t// out\n    /* \"#utility.yul\":466:562   */\ntag_19:\n    /* \"#utility.yul\":503:510   */\n  0x00\n    /* \"#utility.yul\":532:556   */\n  tag_29\n    /* \"#utility.yul\":550:555   */\n  dup3\n    /* \"#utility.yul\":532:556   */\n  tag_18\n  jump\t// in\ntag_29:\n    /* \"#utility.yul\":521:556   */\n  swap1\n  pop\n    /* \"#utility.yul\":466:562   */\n  swap2\n  swap1\n  pop\n  jump\t// out\n    /* \"#utility.yul\":568:690   */\ntag_20:\n    /* \"#utility.yul\":641:665   */\n  tag_31\n    /* \"#utility.yul\":659:664   */\n  dup2\n    /* \"#utility.yul\":641:665   */\n  tag_19\n  jump\t// in\ntag_31:\n    /* \"#utility.yul\":634:639   */\n  dup2\n    /* \"#utility.yul\":631:666   */\n  eq\n    /* \"#utility.yul\":621:684   */\n  tag_32\n  jumpi\n    /* \"#utility.yul\":680:681   */\n  0x00\n    /* \"#utility.yul\":677:678   */\n  dup1\n    /* \"#utility.yul\":670:682   */\n  revert\n    /* \"#utility.yul\":621:684   */\ntag_32:\n    /* \"#utility.yul\":568:690   */\n  pop\n  jump\t// out\n    /* \"#utility.yul\":696:839   */\ntag_21:\n    /* \"#utility.yul\":753:758   */\n  0x00\n    /* \"#utility.yul\":784:790   */\n  dup2\n    /* \"#utility.yul\":778:791   */\n  mload\n    /* \"#utility.yul\":769:791   */\n  swap1\n  pop\n    /* \"#utility.yul\":800:833   */\n  tag_34\n    /* \"#utility.yul\":827:832   */\n  dup2\n    /* \"#utility.yul\":800:833   */\n  tag_20\n  jump\t// in\ntag_34:\n    /* \"#utility.yul\":696:839   */\n  swap3\n  swap2\n  pop\n  pop\n  jump\t// out\n    /* \"#utility.yul\":845:1196   */\ntag_3:\n    /* \"#utility.yul\":915:921   */\n  0x00\n    /* \"#utility.yul\":964:966   */\n  0x20\n    /* \"#utility.yul\":952:961   */\n  dup3\n    /* \"#utility.yul\":943:950   */\n  dup5\n    /* \"#utility.yul\":939:962   */\n  sub\n    /* \"#utility.yul\":935:967   */\n  slt\n    /* \"#utility.yul\":932:1051   */\n  iszero\n  tag_36\n  jumpi\n    /* \"#utility.yul\":970:1049   */\n  tag_37\n  tag_16\n  jump\t// in\ntag_37:\n    /* \"#utility.yul\":932:1051   */\ntag_36:\n    /* \"#utility.yul\":1090:1091   */\n  0x00\n    /* \"#utility.yul\":1115:1179   */\n  tag_38\n    /* \"#utility.yul\":1171:1178   */\n  dup5\n    /* \"#utility.yul\":1162:1168   */\n  dup3\n    /* \"#utility.yul\":1151:1160   */\n  dup6\n    /* \"#utility.yul\":1147:1169   */\n  add\n    /* \"#utility.yul\":1115:1179   */\n  tag_21\n  jump\t// in\ntag_38:\n    /* \"#utility.yul\":1105:1179   */\n  swap2\n  pop\n    /* \"#utility.yul\":1061:1189   */\n  pop\n    /* \"#utility.yul\":845:1196   */\n  swap3\n  swap2\n  pop\n  pop\n  jump\t// out\n    /* \"#utility.yul\":1202:1320   */\ntag_22:\n    /* \"#utility.yul\":1289:1313   */\n  tag_40\n    /* \"#utility.yul\":1307:1312   */\n  dup2\n    /* \"#utility.yul\":1289:1313   */\n  tag_19\n  jump\t// in\ntag_40:\n    /* \"#utility.yul\":1284:1287   */\n  dup3\n    /* \"#utility.yul\":1277:1314   */\n  mstore\n    /* \"#utility.yul\":1202:1320   */\n  pop\n  pop\n  jump\t// out\n    /* \"#utility.yul\":1326:1548   */\ntag_9:\n    /* \"#utility.yul\":1419:1423   */\n  0x00\n    /* \"#utility.yul\":1457:1459   */\n  0x20\n    /* \"#utility.yul\":1446:1455   */\n  dup3\n    /* \"#utility.yul\":1442:1460   */\n  add\n    /* \"#utility.yul\":1434:1460   */\n  swap1\n  pop\n    /* \"#utility.yul\":1470:1541   */\n  tag_42\n    /* \"#utility.yul\":1538:1539   */\n  0x00\n    /* \"#utility.yul\":1527:1536   */\n  dup4\n    /* \"#utility.yul\":1523:1540   */\n  add\n    /* \"#utility.yul\":1514:1520   */\n  dup5\n    /* \"#utility.yul\":1470:1541   */\n  tag_22\n  jump\t// in\ntag_42:\n    /* \"#utility.yul\":1326:1548   */\n  swap3\n  swap2\n  pop\n  pop\n  jump\t// out\n    /* \".deps/studying-solidity/v0.1/Testament/TestamentData.sol\":377:2618  contract TestamentData is Ownable {... */\ntag_13:\n  dataSize(sub_0)\n  dup1\n  dataOffset(sub_0)\n  0x00\n  codecopy\n  0x00\n  return\nstop\n\nsub_0: assembly {\n        /* \".deps/studying-solidity/v0.1/Testament/TestamentData.sol\":377:2618  contract TestamentData is Ownable {... */\n      mstore(0x40, 0x80)\n      callvalue\n      dup1\n      iszero\n      tag_1\n      jumpi\n      0x00\n      dup1\n      revert\n    tag_1:\n      pop\n      jumpi(tag_2, lt(calldatasize, 0x04))\n      shr(0xe0, calldataload(0x00))\n      dup1\n      0x6769e3dd\n      gt\n      tag_12\n      jumpi\n      dup1\n      0x6769e3dd\n      eq\n      tag_7\n      jumpi\n      dup1\n      0x715018a6\n      eq\n      tag_8\n      jumpi\n      dup1\n      0x8da5cb5b\n      eq\n      tag_9\n      jumpi\n      dup1\n      0xcc7a64da\n      eq\n      tag_10\n      jumpi\n      dup1\n      0xf2fde38b\n      eq\n      tag_11\n      jumpi\n      jump(tag_2)\n    tag_12:\n      dup1\n      0x20888d1e\n      eq\n      tag_3\n      jumpi\n      dup1\n      0x3e1f040d\n      eq\n      tag_4\n      jumpi\n      dup1\n      0x4a5ffd09\n      eq\n      tag_5\n      jumpi\n      dup1\n      0x5c0a3127\n      eq\n      tag_6\n      jumpi\n    tag_2:\n      0x00\n      dup1\n      revert\n        /* \".deps/studying-solidity/v0.1/Testament/TestamentData.sol\":417:443  address public proofOfLife */\n    tag_3:\n      tag_13\n      tag_14\n      jump\t// in\n    tag_13:\n      mload(0x40)\n      tag_15\n      swap2\n      swap1\n      tag_16\n      jump\t// in\n    tag_15:\n      mload(0x40)\n      dup1\n      swap2\n      sub\n      swap1\n      return\n        /* \".deps/studying-solidity/v0.1/Testament/TestamentData.sol\":1194:2059  function createInheritance(... */\n    tag_4:\n      tag_17\n      0x04\n      dup1\n      calldatasize\n      sub\n      dup2\n      add\n      swap1\n      tag_18\n      swap2\n      swap1\n      tag_19\n      jump\t// in\n    tag_18:\n      tag_20\n      jump\t// in\n    tag_17:\n      stop\n        /* \".deps/studying-solidity/v0.1/Testament/TestamentData.sol\":2065:2192  function setProofOfLife(address user, uint128 timestamp) external {... */\n    tag_5:\n      tag_21\n      0x04\n      dup1\n      calldatasize\n      sub\n      dup2\n      add\n      swap1\n      tag_22\n      swap2\n      swap1\n      tag_23\n      jump\t// in\n    tag_22:\n      tag_24\n      jump\t// in\n    tag_21:\n      stop\n        /* \".deps/studying-solidity/v0.1/Testament/TestamentData.sol\":2372:2616  function getTestamentOf(address testator)... */\n    tag_6:\n      tag_25\n      0x04\n      dup1\n      calldatasize\n      sub\n      dup2\n      add\n      swap1\n      tag_26\n      swap2\n      swap1\n      tag_27\n      jump\t// in\n    tag_26:\n      tag_28\n      jump\t// in\n    tag_25:\n      mload(0x40)\n      tag_29\n      swap2\n      swap1\n      tag_30\n      jump\t// in\n    tag_29:\n      mload(0x40)\n      dup1\n      swap2\n      sub\n      swap1\n      return\n        /* \".deps/studying-solidity/v0.1/Testament/TestamentData.sol\":996:1173  function setProofOfLife(address _proofOfLife) external onlyOwner {... */\n    tag_7:\n      tag_31\n      0x04\n      dup1\n      calldatasize\n      sub\n      dup2\n      add\n      swap1\n      tag_32\n      swap2\n      swap1\n      tag_27\n      jump\t// in\n    tag_32:\n      tag_33\n      jump\t// in\n    tag_31:\n      stop\n        /* \"@openzeppelin/contracts/access/Ownable.sol\":2293:2394  function renounceOwnership() public virtual onlyOwner {... */\n    tag_8:\n      tag_34\n      tag_35\n      jump\t// in\n    tag_34:\n      stop\n        /* \"@openzeppelin/contracts/access/Ownable.sol\":1638:1723  function owner() public view virtual returns (address) {... */\n    tag_9:\n      tag_36\n      tag_37\n      jump\t// in\n    tag_36:\n      mload(0x40)\n      tag_38\n      swap2\n      swap1\n      tag_16\n      jump\t// in\n    tag_38:\n      mload(0x40)\n      dup1\n      swap2\n      sub\n      swap1\n      return\n        /* \".deps/studying-solidity/v0.1/Testament/TestamentData.sol\":2212:2366  function getIfTestamentExist(address testator)... */\n    tag_10:\n      tag_39\n      0x04\n      dup1\n      calldatasize\n      sub\n      dup2\n      add\n      swap1\n      tag_40\n      swap2\n      swap1\n      tag_27\n      jump\t// in\n    tag_40:\n      tag_41\n      jump\t// in\n    tag_39:\n      mload(0x40)\n      tag_42\n      swap2\n      swap1\n      tag_43\n      jump\t// in\n    tag_42:\n      mload(0x40)\n      dup1\n      swap2\n      sub\n      swap1\n      return\n        /* \"@openzeppelin/contracts/access/Ownable.sol\":2543:2758  function transferOwnership(address newOwner) public virtual onlyOwner {... */\n    tag_11:\n      tag_44\n      0x04\n      dup1\n      calldatasize\n      sub\n      dup2\n      add\n      swap1\n      tag_45\n      swap2\n      swap1\n      tag_27\n      jump\t// in\n    tag_45:\n      tag_46\n      jump\t// in\n    tag_44:\n      stop\n        /* \".deps/studying-solidity/v0.1/Testament/TestamentData.sol\":417:443  address public proofOfLife */\n    tag_14:\n      0x01\n      0x00\n      swap1\n      sload\n      swap1\n      0x0100\n      exp\n      swap1\n      div\n      0xffffffffffffffffffffffffffffffffffffffff\n      and\n      dup2\n      jump\t// out\n        /* \".deps/studying-solidity/v0.1/Testament/TestamentData.sol\":1194:2059  function createInheritance(... */\n    tag_20:\n        /* \".deps/studying-solidity/v0.1/Testament/TestamentData.sol\":1382:1410  Testament storage _testament */\n      0x00\n        /* \".deps/studying-solidity/v0.1/Testament/TestamentData.sol\":1413:1423  testaments */\n      0x02\n        /* \".deps/studying-solidity/v0.1/Testament/TestamentData.sol\":1413:1439  testaments[ownerTestament] */\n      0x00\n        /* \".deps/studying-solidity/v0.1/Testament/TestamentData.sol\":1424:1438  ownerTestament */\n      dup9\n        /* \".deps/studying-solidity/v0.1/Testament/TestamentData.sol\":1413:1439  testaments[ownerTestament] */\n      0xffffffffffffffffffffffffffffffffffffffff\n      and\n      0xffffffffffffffffffffffffffffffffffffffff\n      and\n      dup2\n      mstore\n      0x20\n      add\n      swap1\n      dup2\n      mstore\n      0x20\n      add\n      0x00\n      keccak256\n        /* \".deps/studying-solidity/v0.1/Testament/TestamentData.sol\":1382:1439  Testament storage _testament = testaments[ownerTestament] */\n      swap1\n      pop\n        /* \".deps/studying-solidity/v0.1/Testament/TestamentData.sol\":1516:1525  uint256 i */\n      0x00\n        /* \".deps/studying-solidity/v0.1/Testament/TestamentData.sol\":1511:1968  for (uint256 i = 0; i < _addresses.length; i++) {... */\n    tag_48:\n        /* \".deps/studying-solidity/v0.1/Testament/TestamentData.sol\":1535:1545  _addresses */\n      dup6\n      dup6\n        /* \".deps/studying-solidity/v0.1/Testament/TestamentData.sol\":1535:1552  _addresses.length */\n      swap1\n      pop\n        /* \".deps/studying-solidity/v0.1/Testament/TestamentData.sol\":1531:1532  i */\n      dup2\n        /* \".deps/studying-solidity/v0.1/Testament/TestamentData.sol\":1531:1552  i < _addresses.length */\n      lt\n        /* \".deps/studying-solidity/v0.1/Testament/TestamentData.sol\":1511:1968  for (uint256 i = 0; i < _addresses.length; i++) {... */\n      iszero\n      tag_49\n      jumpi\n        /* \".deps/studying-solidity/v0.1/Testament/TestamentData.sol\":1573:1600  Inheritor memory _inheritor */\n      0x00\n        /* \".deps/studying-solidity/v0.1/Testament/TestamentData.sol\":1603:1713  Inheritor(... */\n      mload(0x40)\n      dup1\n      0x60\n      add\n      0x40\n      mstore\n      dup1\n        /* \".deps/studying-solidity/v0.1/Testament/TestamentData.sol\":1630:1640  _addresses */\n      dup9\n      dup9\n        /* \".deps/studying-solidity/v0.1/Testament/TestamentData.sol\":1641:1642  i */\n      dup6\n        /* \".deps/studying-solidity/v0.1/Testament/TestamentData.sol\":1630:1643  _addresses[i] */\n      dup2\n      dup2\n      lt\n      tag_51\n      jumpi\n      tag_52\n      tag_53\n      jump\t// in\n    tag_52:\n    tag_51:\n      swap1\n      pop\n      0x20\n      mul\n      add\n      0x20\n      dup2\n      add\n      swap1\n      tag_54\n      swap2\n      swap1\n      tag_27\n      jump\t// in\n    tag_54:\n        /* \".deps/studying-solidity/v0.1/Testament/TestamentData.sol\":1603:1713  Inheritor(... */\n      0xffffffffffffffffffffffffffffffffffffffff\n      and\n      dup2\n      mstore\n      0x20\n      add\n        /* \".deps/studying-solidity/v0.1/Testament/TestamentData.sol\":1661:1674  _percentagens */\n      dup7\n      dup7\n        /* \".deps/studying-solidity/v0.1/Testament/TestamentData.sol\":1675:1676  i */\n      dup6\n        /* \".deps/studying-solidity/v0.1/Testament/TestamentData.sol\":1661:1677  _percentagens[i] */\n      dup2\n      dup2\n      lt\n      tag_55\n      jumpi\n      tag_56\n      tag_53\n      jump\t// in\n    tag_56:\n    tag_55:\n      swap1\n      pop\n      0x20\n      mul\n      add\n      0x20\n      dup2\n      add\n      swap1\n      tag_57\n      swap2\n      swap1\n      tag_58\n      jump\t// in\n    tag_57:\n        /* \".deps/studying-solidity/v0.1/Testament/TestamentData.sol\":1603:1713  Inheritor(... */\n      0xffff\n      and\n      dup2\n      mstore\n      0x20\n      add\n        /* \".deps/studying-solidity/v0.1/Testament/TestamentData.sol\":1695:1699  true */\n      0x01\n        /* \".deps/studying-solidity/v0.1/Testament/TestamentData.sol\":1603:1713  Inheritor(... */\n      iszero\n      iszero\n      dup2\n      mstore\n      pop\n        /* \".deps/studying-solidity/v0.1/Testament/TestamentData.sol\":1573:1713  Inheritor memory _inheritor = Inheritor(... */\n      swap1\n      pop\n        /* \".deps/studying-solidity/v0.1/Testament/TestamentData.sol\":1796:1816  inheritorToTestators */\n      0x03\n        /* \".deps/studying-solidity/v0.1/Testament/TestamentData.sol\":1796:1831  inheritorToTestators[_addresses[i]] */\n      0x00\n        /* \".deps/studying-solidity/v0.1/Testament/TestamentData.sol\":1817:1827  _addresses */\n      dup9\n      dup9\n        /* \".deps/studying-solidity/v0.1/Testament/TestamentData.sol\":1828:1829  i */\n      dup6\n        /* \".deps/studying-solidity/v0.1/Testament/TestamentData.sol\":1817:1830  _addresses[i] */\n      dup2\n      dup2\n      lt\n      tag_59\n      jumpi\n      tag_60\n      tag_53\n      jump\t// in\n    tag_60:\n    tag_59:\n      swap1\n      pop\n      0x20\n      mul\n      add\n      0x20\n      dup2\n      add\n      swap1\n      tag_61\n      swap2\n      swap1\n      tag_27\n      jump\t// in\n    tag_61:\n        /* \".deps/studying-solidity/v0.1/Testament/TestamentData.sol\":1796:1831  inheritorToTestators[_addresses[i]] */\n      0xffffffffffffffffffffffffffffffffffffffff\n      and\n      0xffffffffffffffffffffffffffffffffffffffff\n      and\n      dup2\n      mstore\n      0x20\n      add\n      swap1\n      dup2\n      mstore\n      0x20\n      add\n      0x00\n      keccak256\n        /* \".deps/studying-solidity/v0.1/Testament/TestamentData.sol\":1837:1851  ownerTestament */\n      dup10\n        /* \".deps/studying-solidity/v0.1/Testament/TestamentData.sol\":1796:1852  inheritorToTestators[_addresses[i]].push(ownerTestament) */\n      swap1\n      dup1\n      0x01\n      dup2\n      sload\n      add\n      dup1\n      dup3\n      sstore\n      dup1\n      swap2\n      pop\n      pop\n      0x01\n      swap1\n      sub\n      swap1\n      0x00\n      mstore\n      keccak256(0x00, 0x20)\n      add\n      0x00\n      swap1\n      swap2\n      swap1\n      swap2\n      swap1\n      swap2\n      0x0100\n      exp\n      dup2\n      sload\n      dup2\n      0xffffffffffffffffffffffffffffffffffffffff\n      mul\n      not\n      and\n      swap1\n      dup4\n      0xffffffffffffffffffffffffffffffffffffffff\n      and\n      mul\n      or\n      swap1\n      sstore\n      pop\n        /* \".deps/studying-solidity/v0.1/Testament/TestamentData.sol\":1919:1929  _testament */\n      dup3\n        /* \".deps/studying-solidity/v0.1/Testament/TestamentData.sol\":1919:1940  _testament.inheritors */\n      0x00\n      add\n        /* \".deps/studying-solidity/v0.1/Testament/TestamentData.sol\":1946:1956  _inheritor */\n      dup2\n        /* \".deps/studying-solidity/v0.1/Testament/TestamentData.sol\":1919:1957  _testament.inheritors.push(_inheritor) */\n      swap1\n      dup1\n      0x01\n      dup2\n      sload\n      add\n      dup1\n      dup3\n      sstore\n      dup1\n      swap2\n      pop\n      pop\n      0x01\n      swap1\n      sub\n      swap1\n      0x00\n      mstore\n      keccak256(0x00, 0x20)\n      add\n      0x00\n      swap1\n      swap2\n      swap1\n      swap2\n      swap1\n      swap2\n      pop\n      0x00\n      dup3\n      add\n      mload\n      dup2\n      0x00\n      add\n      exp(0x0100, 0x00)\n      dup2\n      sload\n      dup2\n      0xffffffffffffffffffffffffffffffffffffffff\n      mul\n      not\n      and\n      swap1\n      dup4\n      0xffffffffffffffffffffffffffffffffffffffff\n      and\n      mul\n      or\n      swap1\n      sstore\n      pop\n      0x20\n      dup3\n      add\n      mload\n      dup2\n      0x00\n      add\n      exp(0x0100, 0x14)\n      dup2\n      sload\n      dup2\n      0xffff\n      mul\n      not\n      and\n      swap1\n      dup4\n      0xffff\n      and\n      mul\n      or\n      swap1\n      sstore\n      pop\n      0x40\n      dup3\n      add\n      mload\n      dup2\n      0x00\n      add\n      exp(0x0100, 0x16)\n      dup2\n      sload\n      dup2\n      0xff\n      mul\n      not\n      and\n      swap1\n      dup4\n      iszero\n      iszero\n      mul\n      or\n      swap1\n      sstore\n      pop\n      pop\n      pop\n        /* \".deps/studying-solidity/v0.1/Testament/TestamentData.sol\":1559:1968  {... */\n      pop\n        /* \".deps/studying-solidity/v0.1/Testament/TestamentData.sol\":1554:1557  i++ */\n      dup1\n      dup1\n      0x01\n      add\n      swap2\n      pop\n      pop\n        /* \".deps/studying-solidity/v0.1/Testament/TestamentData.sol\":1511:1968  for (uint256 i = 0; i < _addresses.length; i++) {... */\n      jump(tag_48)\n    tag_49:\n      pop\n        /* \".deps/studying-solidity/v0.1/Testament/TestamentData.sol\":1997:2001  true */\n      0x01\n        /* \".deps/studying-solidity/v0.1/Testament/TestamentData.sol\":1978:1988  _testament */\n      dup2\n        /* \".deps/studying-solidity/v0.1/Testament/TestamentData.sol\":1978:1994  _testament.exist */\n      0x01\n      add\n      0x00\n        /* \".deps/studying-solidity/v0.1/Testament/TestamentData.sol\":1978:2001  _testament.exist = true */\n      0x0100\n      exp\n      dup2\n      sload\n      dup2\n      0xff\n      mul\n      not\n      and\n      swap1\n      dup4\n      iszero\n      iszero\n      mul\n      or\n      swap1\n      sstore\n      pop\n        /* \".deps/studying-solidity/v0.1/Testament/TestamentData.sol\":2046:2052  amount */\n      dup6\n        /* \".deps/studying-solidity/v0.1/Testament/TestamentData.sol\":2011:2021  _testament */\n      dup2\n        /* \".deps/studying-solidity/v0.1/Testament/TestamentData.sol\":2011:2043  _testament.inheritanceTotalValue */\n      0x02\n      add\n        /* \".deps/studying-solidity/v0.1/Testament/TestamentData.sol\":2011:2052  _testament.inheritanceTotalValue = amount */\n      dup2\n      swap1\n      sstore\n      pop\n        /* \".deps/studying-solidity/v0.1/Testament/TestamentData.sol\":1372:2059  {... */\n      pop\n        /* \".deps/studying-solidity/v0.1/Testament/TestamentData.sol\":1194:2059  function createInheritance(... */\n      pop\n      pop\n      pop\n      pop\n      pop\n      pop\n      jump\t// out\n        /* \".deps/studying-solidity/v0.1/Testament/TestamentData.sol\":2065:2192  function setProofOfLife(address user, uint128 timestamp) external {... */\n    tag_24:\n        /* \".deps/studying-solidity/v0.1/Testament/TestamentData.sol\":2176:2185  timestamp */\n      dup1\n        /* \".deps/studying-solidity/v0.1/Testament/TestamentData.sol\":2141:2151  testaments */\n      0x02\n        /* \".deps/studying-solidity/v0.1/Testament/TestamentData.sol\":2141:2157  testaments[user] */\n      0x00\n        /* \".deps/studying-solidity/v0.1/Testament/TestamentData.sol\":2152:2156  user */\n      dup5\n        /* \".deps/studying-solidity/v0.1/Testament/TestamentData.sol\":2141:2157  testaments[user] */\n      0xffffffffffffffffffffffffffffffffffffffff\n      and\n      0xffffffffffffffffffffffffffffffffffffffff\n      and\n      dup2\n      mstore\n      0x20\n      add\n      swap1\n      dup2\n      mstore\n      0x20\n      add\n      0x00\n      keccak256\n        /* \".deps/studying-solidity/v0.1/Testament/TestamentData.sol\":2141:2173  testaments[user].lastProofOfLife */\n      0x01\n      add\n      0x01\n        /* \".deps/studying-solidity/v0.1/Testament/TestamentData.sol\":2141:2185  testaments[user].lastProofOfLife = timestamp */\n      0x0100\n      exp\n      dup2\n      sload\n      dup2\n      0xffffffffffffffffffffffffffffffff\n      mul\n      not\n      and\n      swap1\n      dup4\n      0xffffffffffffffffffffffffffffffff\n      and\n      mul\n      or\n      swap1\n      sstore\n      pop\n        /* \".deps/studying-solidity/v0.1/Testament/TestamentData.sol\":2065:2192  function setProofOfLife(address user, uint128 timestamp) external {... */\n      pop\n      pop\n      jump\t// out\n        /* \".deps/studying-solidity/v0.1/Testament/TestamentData.sol\":2372:2616  function getTestamentOf(address testator)... */\n    tag_28:\n        /* \".deps/studying-solidity/v0.1/Testament/TestamentData.sol\":2482:2498  Testament memory */\n      tag_65\n      tag_66\n      jump\t// in\n    tag_65:\n        /* \".deps/studying-solidity/v0.1/Testament/TestamentData.sol\":808:818  testaments */\n      0x02\n        /* \".deps/studying-solidity/v0.1/Testament/TestamentData.sol\":808:830  testaments[msg.sender] */\n      0x00\n        /* \".deps/studying-solidity/v0.1/Testament/TestamentData.sol\":819:829  msg.sender */\n      caller\n        /* \".deps/studying-solidity/v0.1/Testament/TestamentData.sol\":808:830  testaments[msg.sender] */\n      0xffffffffffffffffffffffffffffffffffffffff\n      and\n      0xffffffffffffffffffffffffffffffffffffffff\n      and\n      dup2\n      mstore\n      0x20\n      add\n      swap1\n      dup2\n      mstore\n      0x20\n      add\n      0x00\n      keccak256\n        /* \".deps/studying-solidity/v0.1/Testament/TestamentData.sol\":808:836  testaments[msg.sender].exist */\n      0x01\n      add\n      0x00\n      swap1\n      sload\n      swap1\n      0x0100\n      exp\n      swap1\n      div\n      0xff\n      and\n        /* \".deps/studying-solidity/v0.1/Testament/TestamentData.sol\":800:861  require(testaments[msg.sender].exist, \"Voce nao eh testador\") */\n      tag_68\n      jumpi\n      mload(0x40)\n      0x08c379a000000000000000000000000000000000000000000000000000000000\n      dup2\n      mstore\n      0x04\n      add\n      tag_69\n      swap1\n      tag_70\n      jump\t// in\n    tag_69:\n      mload(0x40)\n      dup1\n      swap2\n      sub\n      swap1\n      revert\n    tag_68:\n        /* \".deps/studying-solidity/v0.1/Testament/TestamentData.sol\":2522:2532  testaments */\n      0x02\n        /* \".deps/studying-solidity/v0.1/Testament/TestamentData.sol\":2522:2542  testaments[testator] */\n      0x00\n        /* \".deps/studying-solidity/v0.1/Testament/TestamentData.sol\":2533:2541  testator */\n      dup4\n        /* \".deps/studying-solidity/v0.1/Testament/TestamentData.sol\":2522:2542  testaments[testator] */\n      0xffffffffffffffffffffffffffffffffffffffff\n      and\n      0xffffffffffffffffffffffffffffffffffffffff\n      and\n      dup2\n      mstore\n      0x20\n      add\n      swap1\n      dup2\n      mstore\n      0x20\n      add\n      0x00\n      keccak256\n        /* \".deps/studying-solidity/v0.1/Testament/TestamentData.sol\":2522:2548  testaments[testator].exist */\n      0x01\n      add\n      0x00\n      swap1\n      sload\n      swap1\n      0x0100\n      exp\n      swap1\n      div\n      0xff\n      and\n        /* \".deps/studying-solidity/v0.1/Testament/TestamentData.sol\":2514:2572  require(testaments[testator].exist, \"Testament not found\") */\n      tag_72\n      jumpi\n      mload(0x40)\n      0x08c379a000000000000000000000000000000000000000000000000000000000\n      dup2\n      mstore\n      0x04\n      add\n      tag_73\n      swap1\n      tag_74\n      jump\t// in\n    tag_73:\n      mload(0x40)\n      dup1\n      swap2\n      sub\n      swap1\n      revert\n    tag_72:\n        /* \".deps/studying-solidity/v0.1/Testament/TestamentData.sol\":2589:2599  testaments */\n      0x02\n        /* \".deps/studying-solidity/v0.1/Testament/TestamentData.sol\":2589:2609  testaments[testator] */\n      0x00\n        /* \".deps/studying-solidity/v0.1/Testament/TestamentData.sol\":2600:2608  testator */\n      dup4\n        /* \".deps/studying-solidity/v0.1/Testament/TestamentData.sol\":2589:2609  testaments[testator] */\n      0xffffffffffffffffffffffffffffffffffffffff\n      and\n      0xffffffffffffffffffffffffffffffffffffffff\n      and\n      dup2\n      mstore\n      0x20\n      add\n      swap1\n      dup2\n      mstore\n      0x20\n      add\n      0x00\n      keccak256\n        /* \".deps/studying-solidity/v0.1/Testament/TestamentData.sol\":2582:2609  return testaments[testator] */\n      mload(0x40)\n      dup1\n      0x80\n      add\n      0x40\n      mstore\n      swap1\n      dup2\n      0x00\n      dup3\n      add\n      dup1\n      sload\n      dup1\n      0x20\n      mul\n      0x20\n      add\n      mload(0x40)\n      swap1\n      dup2\n      add\n      0x40\n      mstore\n      dup1\n      swap3\n      swap2\n      swap1\n      dup2\n      dup2\n      mstore\n      0x20\n      add\n      0x00\n      swap1\n    tag_75:\n      dup3\n      dup3\n      lt\n      iszero\n      tag_76\n      jumpi\n      dup4\n      dup3\n      swap1\n      0x00\n      mstore\n      keccak256(0x00, 0x20)\n      add\n      mload(0x40)\n      dup1\n      0x60\n      add\n      0x40\n      mstore\n      swap1\n      dup2\n      0x00\n      dup3\n      add\n      0x00\n      swap1\n      sload\n      swap1\n      0x0100\n      exp\n      swap1\n      div\n      0xffffffffffffffffffffffffffffffffffffffff\n      and\n      0xffffffffffffffffffffffffffffffffffffffff\n      and\n      0xffffffffffffffffffffffffffffffffffffffff\n      and\n      dup2\n      mstore\n      0x20\n      add\n      0x00\n      dup3\n      add\n      0x14\n      swap1\n      sload\n      swap1\n      0x0100\n      exp\n      swap1\n      div\n      0xffff\n      and\n      0xffff\n      and\n      0xffff\n      and\n      dup2\n      mstore\n      0x20\n      add\n      0x00\n      dup3\n      add\n      0x16\n      swap1\n      sload\n      swap1\n      0x0100\n      exp\n      swap1\n      div\n      0xff\n      and\n      iszero\n      iszero\n      iszero\n      iszero\n      dup2\n      mstore\n      pop\n      pop\n      dup2\n      mstore\n      0x20\n      add\n      swap1\n      0x01\n      add\n      swap1\n      jump(tag_75)\n    tag_76:\n      pop\n      pop\n      pop\n      pop\n      dup2\n      mstore\n      0x20\n      add\n      0x01\n      dup3\n      add\n      0x00\n      swap1\n      sload\n      swap1\n      0x0100\n      exp\n      swap1\n      div\n      0xff\n      and\n      iszero\n      iszero\n      iszero\n      iszero\n      dup2\n      mstore\n      0x20\n      add\n      0x01\n      dup3\n      add\n      0x01\n      swap1\n      sload\n      swap1\n      0x0100\n      exp\n      swap1\n      div\n      0xffffffffffffffffffffffffffffffff\n      and\n      0xffffffffffffffffffffffffffffffff\n      and\n      0xffffffffffffffffffffffffffffffff\n      and\n      dup2\n      mstore\n      0x20\n      add\n      0x02\n      dup3\n      add\n      sload\n      dup2\n      mstore\n      pop\n      pop\n      swap1\n      pop\n        /* \".deps/studying-solidity/v0.1/Testament/TestamentData.sol\":2372:2616  function getTestamentOf(address testator)... */\n      swap2\n      swap1\n      pop\n      jump\t// out\n        /* \".deps/studying-solidity/v0.1/Testament/TestamentData.sol\":996:1173  function setProofOfLife(address _proofOfLife) external onlyOwner {... */\n    tag_33:\n        /* \"@openzeppelin/contracts/access/Ownable.sol\":1531:1544  _checkOwner() */\n      tag_79\n        /* \"@openzeppelin/contracts/access/Ownable.sol\":1531:1542  _checkOwner */\n      tag_80\n        /* \"@openzeppelin/contracts/access/Ownable.sol\":1531:1544  _checkOwner() */\n      jump\t// in\n    tag_79:\n        /* \".deps/studying-solidity/v0.1/Testament/TestamentData.sol\":1103:1104  0 */\n      0x00\n        /* \".deps/studying-solidity/v0.1/Testament/TestamentData.sol\":1079:1105  _proofOfLife != address(0) */\n      0xffffffffffffffffffffffffffffffffffffffff\n      and\n        /* \".deps/studying-solidity/v0.1/Testament/TestamentData.sol\":1079:1091  _proofOfLife */\n      dup2\n        /* \".deps/studying-solidity/v0.1/Testament/TestamentData.sol\":1079:1105  _proofOfLife != address(0) */\n      0xffffffffffffffffffffffffffffffffffffffff\n      and\n      sub\n        /* \".deps/studying-solidity/v0.1/Testament/TestamentData.sol\":1071:1130  require(_proofOfLife != address(0), \"Invalid Core address\") */\n      tag_82\n      jumpi\n      mload(0x40)\n      0x08c379a000000000000000000000000000000000000000000000000000000000\n      dup2\n      mstore\n      0x04\n      add\n      tag_83\n      swap1\n      tag_84\n      jump\t// in\n    tag_83:\n      mload(0x40)\n      dup1\n      swap2\n      sub\n      swap1\n      revert\n    tag_82:\n        /* \".deps/studying-solidity/v0.1/Testament/TestamentData.sol\":1154:1166  _proofOfLife */\n      dup1\n        /* \".deps/studying-solidity/v0.1/Testament/TestamentData.sol\":1140:1151  proofOfLife */\n      0x01\n      0x00\n        /* \".deps/studying-solidity/v0.1/Testament/TestamentData.sol\":1140:1166  proofOfLife = _proofOfLife */\n      0x0100\n      exp\n      dup2\n      sload\n      dup2\n      0xffffffffffffffffffffffffffffffffffffffff\n      mul\n      not\n      and\n      swap1\n      dup4\n      0xffffffffffffffffffffffffffffffffffffffff\n      and\n      mul\n      or\n      swap1\n      sstore\n      pop\n        /* \".deps/studying-solidity/v0.1/Testament/TestamentData.sol\":996:1173  function setProofOfLife(address _proofOfLife) external onlyOwner {... */\n      pop\n      jump\t// out\n        /* \"@openzeppelin/contracts/access/Ownable.sol\":2293:2394  function renounceOwnership() public virtual onlyOwner {... */\n    tag_35:\n        /* \"@openzeppelin/contracts/access/Ownable.sol\":1531:1544  _checkOwner() */\n      tag_86\n        /* \"@openzeppelin/contracts/access/Ownable.sol\":1531:1542  _checkOwner */\n      tag_80\n        /* \"@openzeppelin/contracts/access/Ownable.sol\":1531:1544  _checkOwner() */\n      jump\t// in\n    tag_86:\n        /* \"@openzeppelin/contracts/access/Ownable.sol\":2357:2387  _transferOwnership(address(0)) */\n      tag_88\n        /* \"@openzeppelin/contracts/access/Ownable.sol\":2384:2385  0 */\n      0x00\n        /* \"@openzeppelin/contracts/access/Ownable.sol\":2357:2375  _transferOwnership */\n      tag_89\n        /* \"@openzeppelin/contracts/access/Ownable.sol\":2357:2387  _transferOwnership(address(0)) */\n      jump\t// in\n    tag_88:\n        /* \"@openzeppelin/contracts/access/Ownable.sol\":2293:2394  function renounceOwnership() public virtual onlyOwner {... */\n      jump\t// out\n        /* \"@openzeppelin/contracts/access/Ownable.sol\":1638:1723  function owner() public view virtual returns (address) {... */\n    tag_37:\n        /* \"@openzeppelin/contracts/access/Ownable.sol\":1684:1691  address */\n      0x00\n        /* \"@openzeppelin/contracts/access/Ownable.sol\":1710:1716  _owner */\n      dup1\n      0x00\n      swap1\n      sload\n      swap1\n      0x0100\n      exp\n      swap1\n      div\n      0xffffffffffffffffffffffffffffffffffffffff\n      and\n        /* \"@openzeppelin/contracts/access/Ownable.sol\":1703:1716  return _owner */\n      swap1\n      pop\n        /* \"@openzeppelin/contracts/access/Ownable.sol\":1638:1723  function owner() public view virtual returns (address) {... */\n      swap1\n      jump\t// out\n        /* \".deps/studying-solidity/v0.1/Testament/TestamentData.sol\":2212:2366  function getIfTestamentExist(address testator)... */\n    tag_41:\n        /* \".deps/studying-solidity/v0.1/Testament/TestamentData.sol\":2306:2310  bool */\n      0x00\n        /* \".deps/studying-solidity/v0.1/Testament/TestamentData.sol\":2333:2343  testaments */\n      0x02\n        /* \".deps/studying-solidity/v0.1/Testament/TestamentData.sol\":2333:2353  testaments[testator] */\n      0x00\n        /* \".deps/studying-solidity/v0.1/Testament/TestamentData.sol\":2344:2352  testator */\n      dup4\n        /* \".deps/studying-solidity/v0.1/Testament/TestamentData.sol\":2333:2353  testaments[testator] */\n      0xffffffffffffffffffffffffffffffffffffffff\n      and\n      0xffffffffffffffffffffffffffffffffffffffff\n      and\n      dup2\n      mstore\n      0x20\n      add\n      swap1\n      dup2\n      mstore\n      0x20\n      add\n      0x00\n      keccak256\n        /* \".deps/studying-solidity/v0.1/Testament/TestamentData.sol\":2333:2359  testaments[testator].exist */\n      0x01\n      add\n      0x00\n      swap1\n      sload\n      swap1\n      0x0100\n      exp\n      swap1\n      div\n      0xff\n      and\n        /* \".deps/studying-solidity/v0.1/Testament/TestamentData.sol\":2326:2359  return testaments[testator].exist */\n      swap1\n      pop\n        /* \".deps/studying-solidity/v0.1/Testament/TestamentData.sol\":2212:2366  function getIfTestamentExist(address testator)... */\n      swap2\n      swap1\n      pop\n      jump\t// out\n        /* \"@openzeppelin/contracts/access/Ownable.sol\":2543:2758  function transferOwnership(address newOwner) public virtual onlyOwner {... */\n    tag_46:\n        /* \"@openzeppelin/contracts/access/Ownable.sol\":1531:1544  _checkOwner() */\n      tag_93\n        /* \"@openzeppelin/contracts/access/Ownable.sol\":1531:1542  _checkOwner */\n      tag_80\n        /* \"@openzeppelin/contracts/access/Ownable.sol\":1531:1544  _checkOwner() */\n      jump\t// in\n    tag_93:\n        /* \"@openzeppelin/contracts/access/Ownable.sol\":2647:2648  0 */\n      0x00\n        /* \"@openzeppelin/contracts/access/Ownable.sol\":2627:2649  newOwner == address(0) */\n      0xffffffffffffffffffffffffffffffffffffffff\n      and\n        /* \"@openzeppelin/contracts/access/Ownable.sol\":2627:2635  newOwner */\n      dup2\n        /* \"@openzeppelin/contracts/access/Ownable.sol\":2627:2649  newOwner == address(0) */\n      0xffffffffffffffffffffffffffffffffffffffff\n      and\n      sub\n        /* \"@openzeppelin/contracts/access/Ownable.sol\":2623:2714  if (newOwner == address(0)) {... */\n      tag_95\n      jumpi\n        /* \"@openzeppelin/contracts/access/Ownable.sol\":2700:2701  0 */\n      0x00\n        /* \"@openzeppelin/contracts/access/Ownable.sol\":2672:2703  OwnableInvalidOwner(address(0)) */\n      mload(0x40)\n      0x1e4fbdf700000000000000000000000000000000000000000000000000000000\n      dup2\n      mstore\n      0x04\n      add\n      tag_96\n      swap2\n      swap1\n      tag_16\n      jump\t// in\n    tag_96:\n      mload(0x40)\n      dup1\n      swap2\n      sub\n      swap1\n      revert\n        /* \"@openzeppelin/contracts/access/Ownable.sol\":2623:2714  if (newOwner == address(0)) {... */\n    tag_95:\n        /* \"@openzeppelin/contracts/access/Ownable.sol\":2723:2751  _transferOwnership(newOwner) */\n      tag_97\n        /* \"@openzeppelin/contracts/access/Ownable.sol\":2742:2750  newOwner */\n      dup2\n        /* \"@openzeppelin/contracts/access/Ownable.sol\":2723:2741  _transferOwnership */\n      tag_89\n        /* \"@openzeppelin/contracts/access/Ownable.sol\":2723:2751  _transferOwnership(newOwner) */\n      jump\t// in\n    tag_97:\n        /* \"@openzeppelin/contracts/access/Ownable.sol\":2543:2758  function transferOwnership(address newOwner) public virtual onlyOwner {... */\n      pop\n      jump\t// out\n        /* \"@openzeppelin/contracts/access/Ownable.sol\":1796:1958  function _checkOwner() internal view virtual {... */\n    tag_80:\n        /* \"@openzeppelin/contracts/access/Ownable.sol\":1866:1878  _msgSender() */\n      tag_99\n        /* \"@openzeppelin/contracts/access/Ownable.sol\":1866:1876  _msgSender */\n      tag_100\n        /* \"@openzeppelin/contracts/access/Ownable.sol\":1866:1878  _msgSender() */\n      jump\t// in\n    tag_99:\n        /* \"@openzeppelin/contracts/access/Ownable.sol\":1855:1878  owner() != _msgSender() */\n      0xffffffffffffffffffffffffffffffffffffffff\n      and\n        /* \"@openzeppelin/contracts/access/Ownable.sol\":1855:1862  owner() */\n      tag_101\n        /* \"@openzeppelin/contracts/access/Ownable.sol\":1855:1860  owner */\n      tag_37\n        /* \"@openzeppelin/contracts/access/Ownable.sol\":1855:1862  owner() */\n      jump\t// in\n    tag_101:\n        /* \"@openzeppelin/contracts/access/Ownable.sol\":1855:1878  owner() != _msgSender() */\n      0xffffffffffffffffffffffffffffffffffffffff\n      and\n      eq\n        /* \"@openzeppelin/contracts/access/Ownable.sol\":1851:1952  if (owner() != _msgSender()) {... */\n      tag_102\n      jumpi\n        /* \"@openzeppelin/contracts/access/Ownable.sol\":1928:1940  _msgSender() */\n      tag_103\n        /* \"@openzeppelin/contracts/access/Ownable.sol\":1928:1938  _msgSender */\n      tag_100\n        /* \"@openzeppelin/contracts/access/Ownable.sol\":1928:1940  _msgSender() */\n      jump\t// in\n    tag_103:\n        /* \"@openzeppelin/contracts/access/Ownable.sol\":1901:1941  OwnableUnauthorizedAccount(_msgSender()) */\n      mload(0x40)\n      0x118cdaa700000000000000000000000000000000000000000000000000000000\n      dup2\n      mstore\n      0x04\n      add\n      tag_104\n      swap2\n      swap1\n      tag_16\n      jump\t// in\n    tag_104:\n      mload(0x40)\n      dup1\n      swap2\n      sub\n      swap1\n      revert\n        /* \"@openzeppelin/contracts/access/Ownable.sol\":1851:1952  if (owner() != _msgSender()) {... */\n    tag_102:\n        /* \"@openzeppelin/contracts/access/Ownable.sol\":1796:1958  function _checkOwner() internal view virtual {... */\n      jump\t// out\n        /* \"@openzeppelin/contracts/access/Ownable.sol\":2912:3099  function _transferOwnership(address newOwner) internal virtual {... */\n    tag_89:\n        /* \"@openzeppelin/contracts/access/Ownable.sol\":2985:3001  address oldOwner */\n      0x00\n        /* \"@openzeppelin/contracts/access/Ownable.sol\":3004:3010  _owner */\n      dup1\n      0x00\n      swap1\n      sload\n      swap1\n      0x0100\n      exp\n      swap1\n      div\n      0xffffffffffffffffffffffffffffffffffffffff\n      and\n        /* \"@openzeppelin/contracts/access/Ownable.sol\":2985:3010  address oldOwner = _owner */\n      swap1\n      pop\n        /* \"@openzeppelin/contracts/access/Ownable.sol\":3029:3037  newOwner */\n      dup2\n        /* \"@openzeppelin/contracts/access/Ownable.sol\":3020:3026  _owner */\n      0x00\n      dup1\n        /* \"@openzeppelin/contracts/access/Ownable.sol\":3020:3037  _owner = newOwner */\n      0x0100\n      exp\n      dup2\n      sload\n      dup2\n      0xffffffffffffffffffffffffffffffffffffffff\n      mul\n      not\n      and\n      swap1\n      dup4\n      0xffffffffffffffffffffffffffffffffffffffff\n      and\n      mul\n      or\n      swap1\n      sstore\n      pop\n        /* \"@openzeppelin/contracts/access/Ownable.sol\":3083:3091  newOwner */\n      dup2\n        /* \"@openzeppelin/contracts/access/Ownable.sol\":3052:3092  OwnershipTransferred(oldOwner, newOwner) */\n      0xffffffffffffffffffffffffffffffffffffffff\n      and\n        /* \"@openzeppelin/contracts/access/Ownable.sol\":3073:3081  oldOwner */\n      dup2\n        /* \"@openzeppelin/contracts/access/Ownable.sol\":3052:3092  OwnershipTransferred(oldOwner, newOwner) */\n      0xffffffffffffffffffffffffffffffffffffffff\n      and\n      0x8be0079c531659141344cd1fd0a4f28419497f9722a3daafe3b4186f6b6457e0\n      mload(0x40)\n      mload(0x40)\n      dup1\n      swap2\n      sub\n      swap1\n      log3\n        /* \"@openzeppelin/contracts/access/Ownable.sol\":2975:3099  {... */\n      pop\n        /* \"@openzeppelin/contracts/access/Ownable.sol\":2912:3099  function _transferOwnership(address newOwner) internal virtual {... */\n      pop\n      jump\t// out\n        /* \"@openzeppelin/contracts/utils/Context.sol\":656:752  function _msgSender() internal view virtual returns (address) {... */\n    tag_100:\n        /* \"@openzeppelin/contracts/utils/Context.sol\":709:716  address */\n      0x00\n        /* \"@openzeppelin/contracts/utils/Context.sol\":735:745  msg.sender */\n      caller\n        /* \"@openzeppelin/contracts/utils/Context.sol\":728:745  return msg.sender */\n      swap1\n      pop\n        /* \"@openzeppelin/contracts/utils/Context.sol\":656:752  function _msgSender() internal view virtual returns (address) {... */\n      swap1\n      jump\t// out\n    tag_66:\n      mload(0x40)\n      dup1\n      0x80\n      add\n      0x40\n      mstore\n      dup1\n      0x60\n      dup2\n      mstore\n      0x20\n      add\n      iszero(iszero(0x00))\n      dup2\n      mstore\n      0x20\n      add\n      and(0xffffffffffffffffffffffffffffffff, 0x00)\n      dup2\n      mstore\n      0x20\n      add\n      0x00\n      dup2\n      mstore\n      pop\n      swap1\n      jump\t// out\n        /* \"#utility.yul\":7:133   */\n    tag_107:\n        /* \"#utility.yul\":44:51   */\n      0x00\n        /* \"#utility.yul\":84:126   */\n      0xffffffffffffffffffffffffffffffffffffffff\n        /* \"#utility.yul\":77:82   */\n      dup3\n        /* \"#utility.yul\":73:127   */\n      and\n        /* \"#utility.yul\":62:127   */\n      swap1\n      pop\n        /* \"#utility.yul\":7:133   */\n      swap2\n      swap1\n      pop\n      jump\t// out\n        /* \"#utility.yul\":139:235   */\n    tag_108:\n        /* \"#utility.yul\":176:183   */\n      0x00\n        /* \"#utility.yul\":205:229   */\n      tag_154\n        /* \"#utility.yul\":223:228   */\n      dup3\n        /* \"#utility.yul\":205:229   */\n      tag_107\n      jump\t// in\n    tag_154:\n        /* \"#utility.yul\":194:229   */\n      swap1\n      pop\n        /* \"#utility.yul\":139:235   */\n      swap2\n      swap1\n      pop\n      jump\t// out\n        /* \"#utility.yul\":241:359   */\n    tag_109:\n        /* \"#utility.yul\":328:352   */\n      tag_156\n        /* \"#utility.yul\":346:351   */\n      dup2\n        /* \"#utility.yul\":328:352   */\n      tag_108\n      jump\t// in\n    tag_156:\n        /* \"#utility.yul\":323:326   */\n      dup3\n        /* \"#utility.yul\":316:353   */\n      mstore\n        /* \"#utility.yul\":241:359   */\n      pop\n      pop\n      jump\t// out\n        /* \"#utility.yul\":365:587   */\n    tag_16:\n        /* \"#utility.yul\":458:462   */\n      0x00\n        /* \"#utility.yul\":496:498   */\n      0x20\n        /* \"#utility.yul\":485:494   */\n      dup3\n        /* \"#utility.yul\":481:499   */\n      add\n        /* \"#utility.yul\":473:499   */\n      swap1\n      pop\n        /* \"#utility.yul\":509:580   */\n      tag_158\n        /* \"#utility.yul\":577:578   */\n      0x00\n        /* \"#utility.yul\":566:575   */\n      dup4\n        /* \"#utility.yul\":562:579   */\n      add\n        /* \"#utility.yul\":553:559   */\n      dup5\n        /* \"#utility.yul\":509:580   */\n      tag_109\n      jump\t// in\n    tag_158:\n        /* \"#utility.yul\":365:587   */\n      swap3\n      swap2\n      pop\n      pop\n      jump\t// out\n        /* \"#utility.yul\":674:791   */\n    tag_111:\n        /* \"#utility.yul\":783:784   */\n      0x00\n        /* \"#utility.yul\":780:781   */\n      dup1\n        /* \"#utility.yul\":773:785   */\n      revert\n        /* \"#utility.yul\":797:914   */\n    tag_112:\n        /* \"#utility.yul\":906:907   */\n      0x00\n        /* \"#utility.yul\":903:904   */\n      dup1\n        /* \"#utility.yul\":896:908   */\n      revert\n        /* \"#utility.yul\":920:1042   */\n    tag_113:\n        /* \"#utility.yul\":993:1017   */\n      tag_163\n        /* \"#utility.yul\":1011:1016   */\n      dup2\n        /* \"#utility.yul\":993:1017   */\n      tag_108\n      jump\t// in\n    tag_163:\n        /* \"#utility.yul\":986:991   */\n      dup2\n        /* \"#utility.yul\":983:1018   */\n      eq\n        /* \"#utility.yul\":973:1036   */\n      tag_164\n      jumpi\n        /* \"#utility.yul\":1032:1033   */\n      0x00\n        /* \"#utility.yul\":1029:1030   */\n      dup1\n        /* \"#utility.yul\":1022:1034   */\n      revert\n        /* \"#utility.yul\":973:1036   */\n    tag_164:\n        /* \"#utility.yul\":920:1042   */\n      pop\n      jump\t// out\n        /* \"#utility.yul\":1048:1187   */\n    tag_114:\n        /* \"#utility.yul\":1094:1099   */\n      0x00\n        /* \"#utility.yul\":1132:1138   */\n      dup2\n        /* \"#utility.yul\":1119:1139   */\n      calldataload\n        /* \"#utility.yul\":1110:1139   */\n      swap1\n      pop\n        /* \"#utility.yul\":1148:1181   */\n      tag_166\n        /* \"#utility.yul\":1175:1180   */\n      dup2\n        /* \"#utility.yul\":1148:1181   */\n      tag_113\n      jump\t// in\n    tag_166:\n        /* \"#utility.yul\":1048:1187   */\n      swap3\n      swap2\n      pop\n      pop\n      jump\t// out\n        /* \"#utility.yul\":1193:1270   */\n    tag_115:\n        /* \"#utility.yul\":1230:1237   */\n      0x00\n        /* \"#utility.yul\":1259:1264   */\n      dup2\n        /* \"#utility.yul\":1248:1264   */\n      swap1\n      pop\n        /* \"#utility.yul\":1193:1270   */\n      swap2\n      swap1\n      pop\n      jump\t// out\n        /* \"#utility.yul\":1276:1398   */\n    tag_116:\n        /* \"#utility.yul\":1349:1373   */\n      tag_169\n        /* \"#utility.yul\":1367:1372   */\n      dup2\n        /* \"#utility.yul\":1349:1373   */\n      tag_115\n      jump\t// in\n    tag_169:\n        /* \"#utility.yul\":1342:1347   */\n      dup2\n        /* \"#utility.yul\":1339:1374   */\n      eq\n        /* \"#utility.yul\":1329:1392   */\n      tag_170\n      jumpi\n        /* \"#utility.yul\":1388:1389   */\n      0x00\n        /* \"#utility.yul\":1385:1386   */\n      dup1\n        /* \"#utility.yul\":1378:1390   */\n      revert\n        /* \"#utility.yul\":1329:1392   */\n    tag_170:\n        /* \"#utility.yul\":1276:1398   */\n      pop\n      jump\t// out\n        /* \"#utility.yul\":1404:1543   */\n    tag_117:\n        /* \"#utility.yul\":1450:1455   */\n      0x00\n        /* \"#utility.yul\":1488:1494   */\n      dup2\n        /* \"#utility.yul\":1475:1495   */\n      calldataload\n        /* \"#utility.yul\":1466:1495   */\n      swap1\n      pop\n        /* \"#utility.yul\":1504:1537   */\n      tag_172\n        /* \"#utility.yul\":1531:1536   */\n      dup2\n        /* \"#utility.yul\":1504:1537   */\n      tag_116\n      jump\t// in\n    tag_172:\n        /* \"#utility.yul\":1404:1543   */\n      swap3\n      swap2\n      pop\n      pop\n      jump\t// out\n        /* \"#utility.yul\":1549:1666   */\n    tag_118:\n        /* \"#utility.yul\":1658:1659   */\n      0x00\n        /* \"#utility.yul\":1655:1656   */\n      dup1\n        /* \"#utility.yul\":1648:1660   */\n      revert\n        /* \"#utility.yul\":1672:1789   */\n    tag_119:\n        /* \"#utility.yul\":1781:1782   */\n      0x00\n        /* \"#utility.yul\":1778:1779   */\n      dup1\n        /* \"#utility.yul\":1771:1783   */\n      revert\n        /* \"#utility.yul\":1795:1912   */\n    tag_120:\n        /* \"#utility.yul\":1904:1905   */\n      0x00\n        /* \"#utility.yul\":1901:1902   */\n      dup1\n        /* \"#utility.yul\":1894:1906   */\n      revert\n        /* \"#utility.yul\":1935:2503   */\n    tag_121:\n        /* \"#utility.yul\":2008:2016   */\n      0x00\n        /* \"#utility.yul\":2018:2024   */\n      dup1\n        /* \"#utility.yul\":2068:2071   */\n      dup4\n        /* \"#utility.yul\":2061:2065   */\n      0x1f\n        /* \"#utility.yul\":2053:2059   */\n      dup5\n        /* \"#utility.yul\":2049:2066   */\n      add\n        /* \"#utility.yul\":2045:2072   */\n      slt\n        /* \"#utility.yul\":2035:2157   */\n      tag_177\n      jumpi\n        /* \"#utility.yul\":2076:2155   */\n      tag_178\n      tag_118\n      jump\t// in\n    tag_178:\n        /* \"#utility.yul\":2035:2157   */\n    tag_177:\n        /* \"#utility.yul\":2189:2195   */\n      dup3\n        /* \"#utility.yul\":2176:2196   */\n      calldataload\n        /* \"#utility.yul\":2166:2196   */\n      swap1\n      pop\n        /* \"#utility.yul\":2219:2237   */\n      0xffffffffffffffff\n        /* \"#utility.yul\":2211:2217   */\n      dup2\n        /* \"#utility.yul\":2208:2238   */\n      gt\n        /* \"#utility.yul\":2205:2322   */\n      iszero\n      tag_179\n      jumpi\n        /* \"#utility.yul\":2241:2320   */\n      tag_180\n      tag_119\n      jump\t// in\n    tag_180:\n        /* \"#utility.yul\":2205:2322   */\n    tag_179:\n        /* \"#utility.yul\":2355:2359   */\n      0x20\n        /* \"#utility.yul\":2347:2353   */\n      dup4\n        /* \"#utility.yul\":2343:2360   */\n      add\n        /* \"#utility.yul\":2331:2360   */\n      swap2\n      pop\n        /* \"#utility.yul\":2409:2412   */\n      dup4\n        /* \"#utility.yul\":2401:2405   */\n      0x20\n        /* \"#utility.yul\":2393:2399   */\n      dup3\n        /* \"#utility.yul\":2389:2406   */\n      mul\n        /* \"#utility.yul\":2379:2387   */\n      dup4\n        /* \"#utility.yul\":2375:2407   */\n      add\n        /* \"#utility.yul\":2372:2413   */\n      gt\n        /* \"#utility.yul\":2369:2497   */\n      iszero\n      tag_181\n      jumpi\n        /* \"#utility.yul\":2416:2495   */\n      tag_182\n      tag_120\n      jump\t// in\n    tag_182:\n        /* \"#utility.yul\":2369:2497   */\n    tag_181:\n        /* \"#utility.yul\":1935:2503   */\n      swap3\n      pop\n      swap3\n      swap1\n      pop\n      jump\t// out\n        /* \"#utility.yul\":2525:3092   */\n    tag_122:\n        /* \"#utility.yul\":2597:2605   */\n      0x00\n        /* \"#utility.yul\":2607:2613   */\n      dup1\n        /* \"#utility.yul\":2657:2660   */\n      dup4\n        /* \"#utility.yul\":2650:2654   */\n      0x1f\n        /* \"#utility.yul\":2642:2648   */\n      dup5\n        /* \"#utility.yul\":2638:2655   */\n      add\n        /* \"#utility.yul\":2634:2661   */\n      slt\n        /* \"#utility.yul\":2624:2746   */\n      tag_184\n      jumpi\n        /* \"#utility.yul\":2665:2744   */\n      tag_185\n      tag_118\n      jump\t// in\n    tag_185:\n        /* \"#utility.yul\":2624:2746   */\n    tag_184:\n        /* \"#utility.yul\":2778:2784   */\n      dup3\n        /* \"#utility.yul\":2765:2785   */\n      calldataload\n        /* \"#utility.yul\":2755:2785   */\n      swap1\n      pop\n        /* \"#utility.yul\":2808:2826   */\n      0xffffffffffffffff\n        /* \"#utility.yul\":2800:2806   */\n      dup2\n        /* \"#utility.yul\":2797:2827   */\n      gt\n        /* \"#utility.yul\":2794:2911   */\n      iszero\n      tag_186\n      jumpi\n        /* \"#utility.yul\":2830:2909   */\n      tag_187\n      tag_119\n      jump\t// in\n    tag_187:\n        /* \"#utility.yul\":2794:2911   */\n    tag_186:\n        /* \"#utility.yul\":2944:2948   */\n      0x20\n        /* \"#utility.yul\":2936:2942   */\n      dup4\n        /* \"#utility.yul\":2932:2949   */\n      add\n        /* \"#utility.yul\":2920:2949   */\n      swap2\n      pop\n        /* \"#utility.yul\":2998:3001   */\n      dup4\n        /* \"#utility.yul\":2990:2994   */\n      0x20\n        /* \"#utility.yul\":2982:2988   */\n      dup3\n        /* \"#utility.yul\":2978:2995   */\n      mul\n        /* \"#utility.yul\":2968:2976   */\n      dup4\n        /* \"#utility.yul\":2964:2996   */\n      add\n        /* \"#utility.yul\":2961:3002   */\n      gt\n        /* \"#utility.yul\":2958:3086   */\n      iszero\n      tag_188\n      jumpi\n        /* \"#utility.yul\":3005:3084   */\n      tag_189\n      tag_120\n      jump\t// in\n    tag_189:\n        /* \"#utility.yul\":2958:3086   */\n    tag_188:\n        /* \"#utility.yul\":2525:3092   */\n      swap3\n      pop\n      swap3\n      swap1\n      pop\n      jump\t// out\n        /* \"#utility.yul\":3098:4321   */\n    tag_19:\n        /* \"#utility.yul\":3237:3243   */\n      0x00\n        /* \"#utility.yul\":3245:3251   */\n      dup1\n        /* \"#utility.yul\":3253:3259   */\n      0x00\n        /* \"#utility.yul\":3261:3267   */\n      dup1\n        /* \"#utility.yul\":3269:3275   */\n      0x00\n        /* \"#utility.yul\":3277:3283   */\n      dup1\n        /* \"#utility.yul\":3326:3329   */\n      0x80\n        /* \"#utility.yul\":3314:3323   */\n      dup8\n        /* \"#utility.yul\":3305:3312   */\n      dup10\n        /* \"#utility.yul\":3301:3324   */\n      sub\n        /* \"#utility.yul\":3297:3330   */\n      slt\n        /* \"#utility.yul\":3294:3414   */\n      iszero\n      tag_191\n      jumpi\n        /* \"#utility.yul\":3333:3412   */\n      tag_192\n      tag_111\n      jump\t// in\n    tag_192:\n        /* \"#utility.yul\":3294:3414   */\n    tag_191:\n        /* \"#utility.yul\":3453:3454   */\n      0x00\n        /* \"#utility.yul\":3478:3531   */\n      tag_193\n        /* \"#utility.yul\":3523:3530   */\n      dup10\n        /* \"#utility.yul\":3514:3520   */\n      dup3\n        /* \"#utility.yul\":3503:3512   */\n      dup11\n        /* \"#utility.yul\":3499:3521   */\n      add\n        /* \"#utility.yul\":3478:3531   */\n      tag_114\n      jump\t// in\n    tag_193:\n        /* \"#utility.yul\":3468:3531   */\n      swap7\n      pop\n        /* \"#utility.yul\":3424:3541   */\n      pop\n        /* \"#utility.yul\":3580:3582   */\n      0x20\n        /* \"#utility.yul\":3606:3659   */\n      tag_194\n        /* \"#utility.yul\":3651:3658   */\n      dup10\n        /* \"#utility.yul\":3642:3648   */\n      dup3\n        /* \"#utility.yul\":3631:3640   */\n      dup11\n        /* \"#utility.yul\":3627:3649   */\n      add\n        /* \"#utility.yul\":3606:3659   */\n      tag_117\n      jump\t// in\n    tag_194:\n        /* \"#utility.yul\":3596:3659   */\n      swap6\n      pop\n        /* \"#utility.yul\":3551:3669   */\n      pop\n        /* \"#utility.yul\":3736:3738   */\n      0x40\n        /* \"#utility.yul\":3725:3734   */\n      dup8\n        /* \"#utility.yul\":3721:3739   */\n      add\n        /* \"#utility.yul\":3708:3740   */\n      calldataload\n        /* \"#utility.yul\":3767:3785   */\n      0xffffffffffffffff\n        /* \"#utility.yul\":3759:3765   */\n      dup2\n        /* \"#utility.yul\":3756:3786   */\n      gt\n        /* \"#utility.yul\":3753:3870   */\n      iszero\n      tag_195\n      jumpi\n        /* \"#utility.yul\":3789:3868   */\n      tag_196\n      tag_112\n      jump\t// in\n    tag_196:\n        /* \"#utility.yul\":3753:3870   */\n    tag_195:\n        /* \"#utility.yul\":3902:3982   */\n      tag_197\n        /* \"#utility.yul\":3974:3981   */\n      dup10\n        /* \"#utility.yul\":3965:3971   */\n      dup3\n        /* \"#utility.yul\":3954:3963   */\n      dup11\n        /* \"#utility.yul\":3950:3972   */\n      add\n        /* \"#utility.yul\":3902:3982   */\n      tag_121\n      jump\t// in\n    tag_197:\n        /* \"#utility.yul\":3884:3982   */\n      swap5\n      pop\n      swap5\n      pop\n        /* \"#utility.yul\":3679:3992   */\n      pop\n        /* \"#utility.yul\":4059:4061   */\n      0x60\n        /* \"#utility.yul\":4048:4057   */\n      dup8\n        /* \"#utility.yul\":4044:4062   */\n      add\n        /* \"#utility.yul\":4031:4063   */\n      calldataload\n        /* \"#utility.yul\":4090:4108   */\n      0xffffffffffffffff\n        /* \"#utility.yul\":4082:4088   */\n      dup2\n        /* \"#utility.yul\":4079:4109   */\n      gt\n        /* \"#utility.yul\":4076:4193   */\n      iszero\n      tag_198\n      jumpi\n        /* \"#utility.yul\":4112:4191   */\n      tag_199\n      tag_112\n      jump\t// in\n    tag_199:\n        /* \"#utility.yul\":4076:4193   */\n    tag_198:\n        /* \"#utility.yul\":4225:4304   */\n      tag_200\n        /* \"#utility.yul\":4296:4303   */\n      dup10\n        /* \"#utility.yul\":4287:4293   */\n      dup3\n        /* \"#utility.yul\":4276:4285   */\n      dup11\n        /* \"#utility.yul\":4272:4294   */\n      add\n        /* \"#utility.yul\":4225:4304   */\n      tag_122\n      jump\t// in\n    tag_200:\n        /* \"#utility.yul\":4207:4304   */\n      swap3\n      pop\n      swap3\n      pop\n        /* \"#utility.yul\":4002:4314   */\n      pop\n        /* \"#utility.yul\":3098:4321   */\n      swap3\n      swap6\n      pop\n      swap3\n      swap6\n      pop\n      swap3\n      swap6\n      jump\t// out\n        /* \"#utility.yul\":4327:4445   */\n    tag_123:\n        /* \"#utility.yul\":4364:4371   */\n      0x00\n        /* \"#utility.yul\":4404:4438   */\n      0xffffffffffffffffffffffffffffffff\n        /* \"#utility.yul\":4397:4402   */\n      dup3\n        /* \"#utility.yul\":4393:4439   */\n      and\n        /* \"#utility.yul\":4382:4439   */\n      swap1\n      pop\n        /* \"#utility.yul\":4327:4445   */\n      swap2\n      swap1\n      pop\n      jump\t// out\n        /* \"#utility.yul\":4451:4573   */\n    tag_124:\n        /* \"#utility.yul\":4524:4548   */\n      tag_203\n        /* \"#utility.yul\":4542:4547   */\n      dup2\n        /* \"#utility.yul\":4524:4548   */\n      tag_123\n      jump\t// in\n    tag_203:\n        /* \"#utility.yul\":4517:4522   */\n      dup2\n        /* \"#utility.yul\":4514:4549   */\n      eq\n        /* \"#utility.yul\":4504:4567   */\n      tag_204\n      jumpi\n        /* \"#utility.yul\":4563:4564   */\n      0x00\n        /* \"#utility.yul\":4560:4561   */\n      dup1\n        /* \"#utility.yul\":4553:4565   */\n      revert\n        /* \"#utility.yul\":4504:4567   */\n    tag_204:\n        /* \"#utility.yul\":4451:4573   */\n      pop\n      jump\t// out\n        /* \"#utility.yul\":4579:4718   */\n    tag_125:\n        /* \"#utility.yul\":4625:4630   */\n      0x00\n        /* \"#utility.yul\":4663:4669   */\n      dup2\n        /* \"#utility.yul\":4650:4670   */\n      calldataload\n        /* \"#utility.yul\":4641:4670   */\n      swap1\n      pop\n        /* \"#utility.yul\":4679:4712   */\n      tag_206\n        /* \"#utility.yul\":4706:4711   */\n      dup2\n        /* \"#utility.yul\":4679:4712   */\n      tag_124\n      jump\t// in\n    tag_206:\n        /* \"#utility.yul\":4579:4718   */\n      swap3\n      swap2\n      pop\n      pop\n      jump\t// out\n        /* \"#utility.yul\":4724:5198   */\n    tag_23:\n        /* \"#utility.yul\":4792:4798   */\n      0x00\n        /* \"#utility.yul\":4800:4806   */\n      dup1\n        /* \"#utility.yul\":4849:4851   */\n      0x40\n        /* \"#utility.yul\":4837:4846   */\n      dup4\n        /* \"#utility.yul\":4828:4835   */\n      dup6\n        /* \"#utility.yul\":4824:4847   */\n      sub\n        /* \"#utility.yul\":4820:4852   */\n      slt\n        /* \"#utility.yul\":4817:4936   */\n      iszero\n      tag_208\n      jumpi\n        /* \"#utility.yul\":4855:4934   */\n      tag_209\n      tag_111\n      jump\t// in\n    tag_209:\n        /* \"#utility.yul\":4817:4936   */\n    tag_208:\n        /* \"#utility.yul\":4975:4976   */\n      0x00\n        /* \"#utility.yul\":5000:5053   */\n      tag_210\n        /* \"#utility.yul\":5045:5052   */\n      dup6\n        /* \"#utility.yul\":5036:5042   */\n      dup3\n        /* \"#utility.yul\":5025:5034   */\n      dup7\n        /* \"#utility.yul\":5021:5043   */\n      add\n        /* \"#utility.yul\":5000:5053   */\n      tag_114\n      jump\t// in\n    tag_210:\n        /* \"#utility.yul\":4990:5053   */\n      swap3\n      pop\n        /* \"#utility.yul\":4946:5063   */\n      pop\n        /* \"#utility.yul\":5102:5104   */\n      0x20\n        /* \"#utility.yul\":5128:5181   */\n      tag_211\n        /* \"#utility.yul\":5173:5180   */\n      dup6\n        /* \"#utility.yul\":5164:5170   */\n      dup3\n        /* \"#utility.yul\":5153:5162   */\n      dup7\n        /* \"#utility.yul\":5149:5171   */\n      add\n        /* \"#utility.yul\":5128:5181   */\n      tag_125\n      jump\t// in\n    tag_211:\n        /* \"#utility.yul\":5118:5181   */\n      swap2\n      pop\n        /* \"#utility.yul\":5073:5191   */\n      pop\n        /* \"#utility.yul\":4724:5198   */\n      swap3\n      pop\n      swap3\n      swap1\n      pop\n      jump\t// out\n        /* \"#utility.yul\":5204:5533   */\n    tag_27:\n        /* \"#utility.yul\":5263:5269   */\n      0x00\n        /* \"#utility.yul\":5312:5314   */\n      0x20\n        /* \"#utility.yul\":5300:5309   */\n      dup3\n        /* \"#utility.yul\":5291:5298   */\n      dup5\n        /* \"#utility.yul\":5287:5310   */\n      sub\n        /* \"#utility.yul\":5283:5315   */\n      slt\n        /* \"#utility.yul\":5280:5399   */\n      iszero\n      tag_213\n      jumpi\n        /* \"#utility.yul\":5318:5397   */\n      tag_214\n      tag_111\n      jump\t// in\n    tag_214:\n        /* \"#utility.yul\":5280:5399   */\n    tag_213:\n        /* \"#utility.yul\":5438:5439   */\n      0x00\n        /* \"#utility.yul\":5463:5516   */\n      tag_215\n        /* \"#utility.yul\":5508:5515   */\n      dup5\n        /* \"#utility.yul\":5499:5505   */\n      dup3\n        /* \"#utility.yul\":5488:5497   */\n      dup6\n        /* \"#utility.yul\":5484:5506   */\n      add\n        /* \"#utility.yul\":5463:5516   */\n      tag_114\n      jump\t// in\n    tag_215:\n        /* \"#utility.yul\":5453:5516   */\n      swap2\n      pop\n        /* \"#utility.yul\":5409:5526   */\n      pop\n        /* \"#utility.yul\":5204:5533   */\n      swap3\n      swap2\n      pop\n      pop\n      jump\t// out\n        /* \"#utility.yul\":5539:5679   */\n    tag_126:\n        /* \"#utility.yul\":5632:5638   */\n      0x00\n        /* \"#utility.yul\":5666:5671   */\n      dup2\n        /* \"#utility.yul\":5660:5672   */\n      mload\n        /* \"#utility.yul\":5650:5672   */\n      swap1\n      pop\n        /* \"#utility.yul\":5539:5679   */\n      swap2\n      swap1\n      pop\n      jump\t// out\n        /* \"#utility.yul\":5685:5885   */\n    tag_127:\n        /* \"#utility.yul\":5800:5811   */\n      0x00\n        /* \"#utility.yul\":5834:5840   */\n      dup3\n        /* \"#utility.yul\":5829:5832   */\n      dup3\n        /* \"#utility.yul\":5822:5841   */\n      mstore\n        /* \"#utility.yul\":5874:5878   */\n      0x20\n        /* \"#utility.yul\":5869:5872   */\n      dup3\n        /* \"#utility.yul\":5865:5879   */\n      add\n        /* \"#utility.yul\":5850:5879   */\n      swap1\n      pop\n        /* \"#utility.yul\":5685:5885   */\n      swap3\n      swap2\n      pop\n      pop\n      jump\t// out\n        /* \"#utility.yul\":5891:6049   */\n    tag_128:\n        /* \"#utility.yul\":5984:5988   */\n      0x00\n        /* \"#utility.yul\":6007:6010   */\n      dup2\n        /* \"#utility.yul\":5999:6010   */\n      swap1\n      pop\n        /* \"#utility.yul\":6037:6041   */\n      0x20\n        /* \"#utility.yul\":6032:6035   */\n      dup3\n        /* \"#utility.yul\":6028:6042   */\n      add\n        /* \"#utility.yul\":6020:6042   */\n      swap1\n      pop\n        /* \"#utility.yul\":5891:6049   */\n      swap2\n      swap1\n      pop\n      jump\t// out\n        /* \"#utility.yul\":6055:6163   */\n    tag_129:\n        /* \"#utility.yul\":6132:6156   */\n      tag_220\n        /* \"#utility.yul\":6150:6155   */\n      dup2\n        /* \"#utility.yul\":6132:6156   */\n      tag_108\n      jump\t// in\n    tag_220:\n        /* \"#utility.yul\":6127:6130   */\n      dup3\n        /* \"#utility.yul\":6120:6157   */\n      mstore\n        /* \"#utility.yul\":6055:6163   */\n      pop\n      pop\n      jump\t// out\n        /* \"#utility.yul\":6169:6258   */\n    tag_130:\n        /* \"#utility.yul\":6205:6212   */\n      0x00\n        /* \"#utility.yul\":6245:6251   */\n      0xffff\n        /* \"#utility.yul\":6238:6243   */\n      dup3\n        /* \"#utility.yul\":6234:6252   */\n      and\n        /* \"#utility.yul\":6223:6252   */\n      swap1\n      pop\n        /* \"#utility.yul\":6169:6258   */\n      swap2\n      swap1\n      pop\n      jump\t// out\n        /* \"#utility.yul\":6264:6369   */\n    tag_131:\n        /* \"#utility.yul\":6339:6362   */\n      tag_223\n        /* \"#utility.yul\":6356:6361   */\n      dup2\n        /* \"#utility.yul\":6339:6362   */\n      tag_130\n      jump\t// in\n    tag_223:\n        /* \"#utility.yul\":6334:6337   */\n      dup3\n        /* \"#utility.yul\":6327:6363   */\n      mstore\n        /* \"#utility.yul\":6264:6369   */\n      pop\n      pop\n      jump\t// out\n        /* \"#utility.yul\":6375:6465   */\n    tag_132:\n        /* \"#utility.yul\":6409:6416   */\n      0x00\n        /* \"#utility.yul\":6452:6457   */\n      dup2\n        /* \"#utility.yul\":6445:6458   */\n      iszero\n        /* \"#utility.yul\":6438:6459   */\n      iszero\n        /* \"#utility.yul\":6427:6459   */\n      swap1\n      pop\n        /* \"#utility.yul\":6375:6465   */\n      swap2\n      swap1\n      pop\n      jump\t// out\n        /* \"#utility.yul\":6471:6570   */\n    tag_133:\n        /* \"#utility.yul\":6542:6563   */\n      tag_226\n        /* \"#utility.yul\":6557:6562   */\n      dup2\n        /* \"#utility.yul\":6542:6563   */\n      tag_132\n      jump\t// in\n    tag_226:\n        /* \"#utility.yul\":6537:6540   */\n      dup3\n        /* \"#utility.yul\":6530:6564   */\n      mstore\n        /* \"#utility.yul\":6471:6570   */\n      pop\n      pop\n      jump\t// out\n        /* \"#utility.yul\":6620:7310   */\n    tag_134:\n        /* \"#utility.yul\":6759:6763   */\n      0x60\n        /* \"#utility.yul\":6754:6757   */\n      dup3\n        /* \"#utility.yul\":6750:6764   */\n      add\n        /* \"#utility.yul\":6858:6862   */\n      0x00\n        /* \"#utility.yul\":6851:6856   */\n      dup3\n        /* \"#utility.yul\":6847:6863   */\n      add\n        /* \"#utility.yul\":6841:6864   */\n      mload\n        /* \"#utility.yul\":6877:6940   */\n      tag_228\n        /* \"#utility.yul\":6934:6938   */\n      0x00\n        /* \"#utility.yul\":6929:6932   */\n      dup6\n        /* \"#utility.yul\":6925:6939   */\n      add\n        /* \"#utility.yul\":6911:6923   */\n      dup3\n        /* \"#utility.yul\":6877:6940   */\n      tag_129\n      jump\t// in\n    tag_228:\n        /* \"#utility.yul\":6774:6950   */\n      pop\n        /* \"#utility.yul\":7038:7042   */\n      0x20\n        /* \"#utility.yul\":7031:7036   */\n      dup3\n        /* \"#utility.yul\":7027:7043   */\n      add\n        /* \"#utility.yul\":7021:7044   */\n      mload\n        /* \"#utility.yul\":7057:7118   */\n      tag_229\n        /* \"#utility.yul\":7112:7116   */\n      0x20\n        /* \"#utility.yul\":7107:7110   */\n      dup6\n        /* \"#utility.yul\":7103:7117   */\n      add\n        /* \"#utility.yul\":7089:7101   */\n      dup3\n        /* \"#utility.yul\":7057:7118   */\n      tag_131\n      jump\t// in\n    tag_229:\n        /* \"#utility.yul\":6960:7128   */\n      pop\n        /* \"#utility.yul\":7217:7221   */\n      0x40\n        /* \"#utility.yul\":7210:7215   */\n      dup3\n        /* \"#utility.yul\":7206:7222   */\n      add\n        /* \"#utility.yul\":7200:7223   */\n      mload\n        /* \"#utility.yul\":7236:7293   */\n      tag_230\n        /* \"#utility.yul\":7287:7291   */\n      0x40\n        /* \"#utility.yul\":7282:7285   */\n      dup6\n        /* \"#utility.yul\":7278:7292   */\n      add\n        /* \"#utility.yul\":7264:7276   */\n      dup3\n        /* \"#utility.yul\":7236:7293   */\n      tag_133\n      jump\t// in\n    tag_230:\n        /* \"#utility.yul\":7138:7303   */\n      pop\n        /* \"#utility.yul\":6728:7310   */\n      pop\n        /* \"#utility.yul\":6620:7310   */\n      pop\n      pop\n      jump\t// out\n        /* \"#utility.yul\":7316:7599   */\n    tag_135:\n        /* \"#utility.yul\":7437:7447   */\n      0x00\n        /* \"#utility.yul\":7458:7556   */\n      tag_232\n        /* \"#utility.yul\":7552:7555   */\n      dup4\n        /* \"#utility.yul\":7544:7550   */\n      dup4\n        /* \"#utility.yul\":7458:7556   */\n      tag_134\n      jump\t// in\n    tag_232:\n        /* \"#utility.yul\":7588:7592   */\n      0x60\n        /* \"#utility.yul\":7583:7586   */\n      dup4\n        /* \"#utility.yul\":7579:7593   */\n      add\n        /* \"#utility.yul\":7565:7593   */\n      swap1\n      pop\n        /* \"#utility.yul\":7316:7599   */\n      swap3\n      swap2\n      pop\n      pop\n      jump\t// out\n        /* \"#utility.yul\":7605:7744   */\n    tag_136:\n        /* \"#utility.yul\":7701:7705   */\n      0x00\n        /* \"#utility.yul\":7733:7737   */\n      0x20\n        /* \"#utility.yul\":7728:7731   */\n      dup3\n        /* \"#utility.yul\":7724:7738   */\n      add\n        /* \"#utility.yul\":7716:7738   */\n      swap1\n      pop\n        /* \"#utility.yul\":7605:7744   */\n      swap2\n      swap1\n      pop\n      jump\t// out\n        /* \"#utility.yul\":7798:8718   */\n    tag_137:\n        /* \"#utility.yul\":7959:7962   */\n      0x00\n        /* \"#utility.yul\":7988:8068   */\n      tag_235\n        /* \"#utility.yul\":8062:8067   */\n      dup3\n        /* \"#utility.yul\":7988:8068   */\n      tag_126\n      jump\t// in\n    tag_235:\n        /* \"#utility.yul\":8084:8186   */\n      tag_236\n        /* \"#utility.yul\":8179:8185   */\n      dup2\n        /* \"#utility.yul\":8174:8177   */\n      dup6\n        /* \"#utility.yul\":8084:8186   */\n      tag_127\n      jump\t// in\n    tag_236:\n        /* \"#utility.yul\":8077:8186   */\n      swap4\n      pop\n        /* \"#utility.yul\":8210:8292   */\n      tag_237\n        /* \"#utility.yul\":8286:8291   */\n      dup4\n        /* \"#utility.yul\":8210:8292   */\n      tag_128\n      jump\t// in\n    tag_237:\n        /* \"#utility.yul\":8315:8322   */\n      dup1\n        /* \"#utility.yul\":8346:8347   */\n      0x00\n        /* \"#utility.yul\":8331:8693   */\n    tag_238:\n        /* \"#utility.yul\":8356:8362   */\n      dup4\n        /* \"#utility.yul\":8353:8354   */\n      dup2\n        /* \"#utility.yul\":8350:8363   */\n      lt\n        /* \"#utility.yul\":8331:8693   */\n      iszero\n      tag_240\n      jumpi\n        /* \"#utility.yul\":8432:8438   */\n      dup2\n        /* \"#utility.yul\":8426:8439   */\n      mload\n        /* \"#utility.yul\":8459:8574   */\n      tag_241\n        /* \"#utility.yul\":8570:8573   */\n      dup9\n        /* \"#utility.yul\":8555:8568   */\n      dup3\n        /* \"#utility.yul\":8459:8574   */\n      tag_135\n      jump\t// in\n    tag_241:\n        /* \"#utility.yul\":8452:8574   */\n      swap8\n      pop\n        /* \"#utility.yul\":8597:8683   */\n      tag_242\n        /* \"#utility.yul\":8676:8682   */\n      dup4\n        /* \"#utility.yul\":8597:8683   */\n      tag_136\n      jump\t// in\n    tag_242:\n        /* \"#utility.yul\":8587:8683   */\n      swap3\n      pop\n        /* \"#utility.yul\":8391:8693   */\n      pop\n        /* \"#utility.yul\":8378:8379   */\n      0x01\n        /* \"#utility.yul\":8375:8376   */\n      dup2\n        /* \"#utility.yul\":8371:8380   */\n      add\n        /* \"#utility.yul\":8366:8380   */\n      swap1\n      pop\n        /* \"#utility.yul\":8331:8693   */\n      jump(tag_238)\n    tag_240:\n        /* \"#utility.yul\":8335:8349   */\n      pop\n        /* \"#utility.yul\":8709:8712   */\n      dup6\n        /* \"#utility.yul\":8702:8712   */\n      swap4\n      pop\n        /* \"#utility.yul\":7964:8718   */\n      pop\n      pop\n      pop\n        /* \"#utility.yul\":7798:8718   */\n      swap3\n      swap2\n      pop\n      pop\n      jump\t// out\n        /* \"#utility.yul\":8724:8832   */\n    tag_138:\n        /* \"#utility.yul\":8801:8825   */\n      tag_244\n        /* \"#utility.yul\":8819:8824   */\n      dup2\n        /* \"#utility.yul\":8801:8825   */\n      tag_123\n      jump\t// in\n    tag_244:\n        /* \"#utility.yul\":8796:8799   */\n      dup3\n        /* \"#utility.yul\":8789:8826   */\n      mstore\n        /* \"#utility.yul\":8724:8832   */\n      pop\n      pop\n      jump\t// out\n        /* \"#utility.yul\":8838:8946   */\n    tag_139:\n        /* \"#utility.yul\":8915:8939   */\n      tag_246\n        /* \"#utility.yul\":8933:8938   */\n      dup2\n        /* \"#utility.yul\":8915:8939   */\n      tag_115\n      jump\t// in\n    tag_246:\n        /* \"#utility.yul\":8910:8913   */\n      dup3\n        /* \"#utility.yul\":8903:8940   */\n      mstore\n        /* \"#utility.yul\":8838:8946   */\n      pop\n      pop\n      jump\t// out\n        /* \"#utility.yul\":8996:10063   */\n    tag_140:\n        /* \"#utility.yul\":9117:9120   */\n      0x00\n        /* \"#utility.yul\":9153:9157   */\n      0x80\n        /* \"#utility.yul\":9148:9151   */\n      dup4\n        /* \"#utility.yul\":9144:9158   */\n      add\n        /* \"#utility.yul\":9246:9250   */\n      0x00\n        /* \"#utility.yul\":9239:9244   */\n      dup4\n        /* \"#utility.yul\":9235:9251   */\n      add\n        /* \"#utility.yul\":9229:9252   */\n      mload\n        /* \"#utility.yul\":9299:9302   */\n      dup5\n        /* \"#utility.yul\":9293:9297   */\n      dup3\n        /* \"#utility.yul\":9289:9303   */\n      sub\n        /* \"#utility.yul\":9282:9286   */\n      0x00\n        /* \"#utility.yul\":9277:9280   */\n      dup7\n        /* \"#utility.yul\":9273:9287   */\n      add\n        /* \"#utility.yul\":9266:9304   */\n      mstore\n        /* \"#utility.yul\":9325:9480   */\n      tag_248\n        /* \"#utility.yul\":9475:9479   */\n      dup3\n        /* \"#utility.yul\":9461:9473   */\n      dup3\n        /* \"#utility.yul\":9325:9480   */\n      tag_137\n      jump\t// in\n    tag_248:\n        /* \"#utility.yul\":9317:9480   */\n      swap2\n      pop\n        /* \"#utility.yul\":9168:9491   */\n      pop\n        /* \"#utility.yul\":9574:9578   */\n      0x20\n        /* \"#utility.yul\":9567:9572   */\n      dup4\n        /* \"#utility.yul\":9563:9579   */\n      add\n        /* \"#utility.yul\":9557:9580   */\n      mload\n        /* \"#utility.yul\":9593:9650   */\n      tag_249\n        /* \"#utility.yul\":9644:9648   */\n      0x20\n        /* \"#utility.yul\":9639:9642   */\n      dup7\n        /* \"#utility.yul\":9635:9649   */\n      add\n        /* \"#utility.yul\":9621:9633   */\n      dup3\n        /* \"#utility.yul\":9593:9650   */\n      tag_133\n      jump\t// in\n    tag_249:\n        /* \"#utility.yul\":9501:9660   */\n      pop\n        /* \"#utility.yul\":9753:9757   */\n      0x40\n        /* \"#utility.yul\":9746:9751   */\n      dup4\n        /* \"#utility.yul\":9742:9758   */\n      add\n        /* \"#utility.yul\":9736:9759   */\n      mload\n        /* \"#utility.yul\":9772:9835   */\n      tag_250\n        /* \"#utility.yul\":9829:9833   */\n      0x40\n        /* \"#utility.yul\":9824:9827   */\n      dup7\n        /* \"#utility.yul\":9820:9834   */\n      add\n        /* \"#utility.yul\":9806:9818   */\n      dup3\n        /* \"#utility.yul\":9772:9835   */\n      tag_138\n      jump\t// in\n    tag_250:\n        /* \"#utility.yul\":9670:9845   */\n      pop\n        /* \"#utility.yul\":9944:9948   */\n      0x60\n        /* \"#utility.yul\":9937:9942   */\n      dup4\n        /* \"#utility.yul\":9933:9949   */\n      add\n        /* \"#utility.yul\":9927:9950   */\n      mload\n        /* \"#utility.yul\":9963:10026   */\n      tag_251\n        /* \"#utility.yul\":10020:10024   */\n      0x60\n        /* \"#utility.yul\":10015:10018   */\n      dup7\n        /* \"#utility.yul\":10011:10025   */\n      add\n        /* \"#utility.yul\":9997:10009   */\n      dup3\n        /* \"#utility.yul\":9963:10026   */\n      tag_139\n      jump\t// in\n    tag_251:\n        /* \"#utility.yul\":9855:10036   */\n      pop\n        /* \"#utility.yul\":10053:10057   */\n      dup1\n        /* \"#utility.yul\":10046:10057   */\n      swap2\n      pop\n        /* \"#utility.yul\":9122:10063   */\n      pop\n        /* \"#utility.yul\":8996:10063   */\n      swap3\n      swap2\n      pop\n      pop\n      jump\t// out\n        /* \"#utility.yul\":10069:10446   */\n    tag_30:\n        /* \"#utility.yul\":10214:10218   */\n      0x00\n        /* \"#utility.yul\":10252:10254   */\n      0x20\n        /* \"#utility.yul\":10241:10250   */\n      dup3\n        /* \"#utility.yul\":10237:10255   */\n      add\n        /* \"#utility.yul\":10229:10255   */\n      swap1\n      pop\n        /* \"#utility.yul\":10301:10310   */\n      dup2\n        /* \"#utility.yul\":10295:10299   */\n      dup2\n        /* \"#utility.yul\":10291:10311   */\n      sub\n        /* \"#utility.yul\":10287:10288   */\n      0x00\n        /* \"#utility.yul\":10276:10285   */\n      dup4\n        /* \"#utility.yul\":10272:10289   */\n      add\n        /* \"#utility.yul\":10265:10312   */\n      mstore\n        /* \"#utility.yul\":10329:10439   */\n      tag_253\n        /* \"#utility.yul\":10434:10438   */\n      dup2\n        /* \"#utility.yul\":10425:10431   */\n      dup5\n        /* \"#utility.yul\":10329:10439   */\n      tag_140\n      jump\t// in\n    tag_253:\n        /* \"#utility.yul\":10321:10439   */\n      swap1\n      pop\n        /* \"#utility.yul\":10069:10446   */\n      swap3\n      swap2\n      pop\n      pop\n      jump\t// out\n        /* \"#utility.yul\":10452:10561   */\n    tag_141:\n        /* \"#utility.yul\":10533:10554   */\n      tag_255\n        /* \"#utility.yul\":10548:10553   */\n      dup2\n        /* \"#utility.yul\":10533:10554   */\n      tag_132\n      jump\t// in\n    tag_255:\n        /* \"#utility.yul\":10528:10531   */\n      dup3\n        /* \"#utility.yul\":10521:10555   */\n      mstore\n        /* \"#utility.yul\":10452:10561   */\n      pop\n      pop\n      jump\t// out\n        /* \"#utility.yul\":10567:10777   */\n    tag_43:\n        /* \"#utility.yul\":10654:10658   */\n      0x00\n        /* \"#utility.yul\":10692:10694   */\n      0x20\n        /* \"#utility.yul\":10681:10690   */\n      dup3\n        /* \"#utility.yul\":10677:10695   */\n      add\n        /* \"#utility.yul\":10669:10695   */\n      swap1\n      pop\n        /* \"#utility.yul\":10705:10770   */\n      tag_257\n        /* \"#utility.yul\":10767:10768   */\n      0x00\n        /* \"#utility.yul\":10756:10765   */\n      dup4\n        /* \"#utility.yul\":10752:10769   */\n      add\n        /* \"#utility.yul\":10743:10749   */\n      dup5\n        /* \"#utility.yul\":10705:10770   */\n      tag_141\n      jump\t// in\n    tag_257:\n        /* \"#utility.yul\":10567:10777   */\n      swap3\n      swap2\n      pop\n      pop\n      jump\t// out\n        /* \"#utility.yul\":10783:10963   */\n    tag_53:\n        /* \"#utility.yul\":10831:10908   */\n      0x4e487b7100000000000000000000000000000000000000000000000000000000\n        /* \"#utility.yul\":10828:10829   */\n      0x00\n        /* \"#utility.yul\":10821:10909   */\n      mstore\n        /* \"#utility.yul\":10928:10932   */\n      0x32\n        /* \"#utility.yul\":10925:10926   */\n      0x04\n        /* \"#utility.yul\":10918:10933   */\n      mstore\n        /* \"#utility.yul\":10952:10956   */\n      0x24\n        /* \"#utility.yul\":10949:10950   */\n      0x00\n        /* \"#utility.yul\":10942:10957   */\n      revert\n        /* \"#utility.yul\":10969:11089   */\n    tag_142:\n        /* \"#utility.yul\":11041:11064   */\n      tag_260\n        /* \"#utility.yul\":11058:11063   */\n      dup2\n        /* \"#utility.yul\":11041:11064   */\n      tag_130\n      jump\t// in\n    tag_260:\n        /* \"#utility.yul\":11034:11039   */\n      dup2\n        /* \"#utility.yul\":11031:11065   */\n      eq\n        /* \"#utility.yul\":11021:11083   */\n      tag_261\n      jumpi\n        /* \"#utility.yul\":11079:11080   */\n      0x00\n        /* \"#utility.yul\":11076:11077   */\n      dup1\n        /* \"#utility.yul\":11069:11081   */\n      revert\n        /* \"#utility.yul\":11021:11083   */\n    tag_261:\n        /* \"#utility.yul\":10969:11089   */\n      pop\n      jump\t// out\n        /* \"#utility.yul\":11095:11232   */\n    tag_143:\n        /* \"#utility.yul\":11140:11145   */\n      0x00\n        /* \"#utility.yul\":11178:11184   */\n      dup2\n        /* \"#utility.yul\":11165:11185   */\n      calldataload\n        /* \"#utility.yul\":11156:11185   */\n      swap1\n      pop\n        /* \"#utility.yul\":11194:11226   */\n      tag_263\n        /* \"#utility.yul\":11220:11225   */\n      dup2\n        /* \"#utility.yul\":11194:11226   */\n      tag_142\n      jump\t// in\n    tag_263:\n        /* \"#utility.yul\":11095:11232   */\n      swap3\n      swap2\n      pop\n      pop\n      jump\t// out\n        /* \"#utility.yul\":11238:11565   */\n    tag_58:\n        /* \"#utility.yul\":11296:11302   */\n      0x00\n        /* \"#utility.yul\":11345:11347   */\n      0x20\n        /* \"#utility.yul\":11333:11342   */\n      dup3\n        /* \"#utility.yul\":11324:11331   */\n      dup5\n        /* \"#utility.yul\":11320:11343   */\n      sub\n        /* \"#utility.yul\":11316:11348   */\n      slt\n        /* \"#utility.yul\":11313:11432   */\n      iszero\n      tag_265\n      jumpi\n        /* \"#utility.yul\":11351:11430   */\n      tag_266\n      tag_111\n      jump\t// in\n    tag_266:\n        /* \"#utility.yul\":11313:11432   */\n    tag_265:\n        /* \"#utility.yul\":11471:11472   */\n      0x00\n        /* \"#utility.yul\":11496:11548   */\n      tag_267\n        /* \"#utility.yul\":11540:11547   */\n      dup5\n        /* \"#utility.yul\":11531:11537   */\n      dup3\n        /* \"#utility.yul\":11520:11529   */\n      dup6\n        /* \"#utility.yul\":11516:11538   */\n      add\n        /* \"#utility.yul\":11496:11548   */\n      tag_143\n      jump\t// in\n    tag_267:\n        /* \"#utility.yul\":11486:11548   */\n      swap2\n      pop\n        /* \"#utility.yul\":11442:11558   */\n      pop\n        /* \"#utility.yul\":11238:11565   */\n      swap3\n      swap2\n      pop\n      pop\n      jump\t// out\n        /* \"#utility.yul\":11571:11740   */\n    tag_144:\n        /* \"#utility.yul\":11655:11666   */\n      0x00\n        /* \"#utility.yul\":11689:11695   */\n      dup3\n        /* \"#utility.yul\":11684:11687   */\n      dup3\n        /* \"#utility.yul\":11677:11696   */\n      mstore\n        /* \"#utility.yul\":11729:11733   */\n      0x20\n        /* \"#utility.yul\":11724:11727   */\n      dup3\n        /* \"#utility.yul\":11720:11734   */\n      add\n        /* \"#utility.yul\":11705:11734   */\n      swap1\n      pop\n        /* \"#utility.yul\":11571:11740   */\n      swap3\n      swap2\n      pop\n      pop\n      jump\t// out\n        /* \"#utility.yul\":11746:11916   */\n    tag_145:\n        /* \"#utility.yul\":11886:11908   */\n      0x566f6365206e616f206568207465737461646f72000000000000000000000000\n        /* \"#utility.yul\":11882:11883   */\n      0x00\n        /* \"#utility.yul\":11874:11880   */\n      dup3\n        /* \"#utility.yul\":11870:11884   */\n      add\n        /* \"#utility.yul\":11863:11909   */\n      mstore\n        /* \"#utility.yul\":11746:11916   */\n      pop\n      jump\t// out\n        /* \"#utility.yul\":11922:12288   */\n    tag_146:\n        /* \"#utility.yul\":12064:12067   */\n      0x00\n        /* \"#utility.yul\":12085:12152   */\n      tag_271\n        /* \"#utility.yul\":12149:12151   */\n      0x14\n        /* \"#utility.yul\":12144:12147   */\n      dup4\n        /* \"#utility.yul\":12085:12152   */\n      tag_144\n      jump\t// in\n    tag_271:\n        /* \"#utility.yul\":12078:12152   */\n      swap2\n      pop\n        /* \"#utility.yul\":12161:12254   */\n      tag_272\n        /* \"#utility.yul\":12250:12253   */\n      dup3\n        /* \"#utility.yul\":12161:12254   */\n      tag_145\n      jump\t// in\n    tag_272:\n        /* \"#utility.yul\":12279:12281   */\n      0x20\n        /* \"#utility.yul\":12274:12277   */\n      dup3\n        /* \"#utility.yul\":12270:12282   */\n      add\n        /* \"#utility.yul\":12263:12282   */\n      swap1\n      pop\n        /* \"#utility.yul\":11922:12288   */\n      swap2\n      swap1\n      pop\n      jump\t// out\n        /* \"#utility.yul\":12294:12713   */\n    tag_70:\n        /* \"#utility.yul\":12460:12464   */\n      0x00\n        /* \"#utility.yul\":12498:12500   */\n      0x20\n        /* \"#utility.yul\":12487:12496   */\n      dup3\n        /* \"#utility.yul\":12483:12501   */\n      add\n        /* \"#utility.yul\":12475:12501   */\n      swap1\n      pop\n        /* \"#utility.yul\":12547:12556   */\n      dup2\n        /* \"#utility.yul\":12541:12545   */\n      dup2\n        /* \"#utility.yul\":12537:12557   */\n      sub\n        /* \"#utility.yul\":12533:12534   */\n      0x00\n        /* \"#utility.yul\":12522:12531   */\n      dup4\n        /* \"#utility.yul\":12518:12535   */\n      add\n        /* \"#utility.yul\":12511:12558   */\n      mstore\n        /* \"#utility.yul\":12575:12706   */\n      tag_274\n        /* \"#utility.yul\":12701:12705   */\n      dup2\n        /* \"#utility.yul\":12575:12706   */\n      tag_146\n      jump\t// in\n    tag_274:\n        /* \"#utility.yul\":12567:12706   */\n      swap1\n      pop\n        /* \"#utility.yul\":12294:12713   */\n      swap2\n      swap1\n      pop\n      jump\t// out\n        /* \"#utility.yul\":12719:12888   */\n    tag_147:\n        /* \"#utility.yul\":12859:12880   */\n      0x54657374616d656e74206e6f7420666f756e6400000000000000000000000000\n        /* \"#utility.yul\":12855:12856   */\n      0x00\n        /* \"#utility.yul\":12847:12853   */\n      dup3\n        /* \"#utility.yul\":12843:12857   */\n      add\n        /* \"#utility.yul\":12836:12881   */\n      mstore\n        /* \"#utility.yul\":12719:12888   */\n      pop\n      jump\t// out\n        /* \"#utility.yul\":12894:13260   */\n    tag_148:\n        /* \"#utility.yul\":13036:13039   */\n      0x00\n        /* \"#utility.yul\":13057:13124   */\n      tag_277\n        /* \"#utility.yul\":13121:13123   */\n      0x13\n        /* \"#utility.yul\":13116:13119   */\n      dup4\n        /* \"#utility.yul\":13057:13124   */\n      tag_144\n      jump\t// in\n    tag_277:\n        /* \"#utility.yul\":13050:13124   */\n      swap2\n      pop\n        /* \"#utility.yul\":13133:13226   */\n      tag_278\n        /* \"#utility.yul\":13222:13225   */\n      dup3\n        /* \"#utility.yul\":13133:13226   */\n      tag_147\n      jump\t// in\n    tag_278:\n        /* \"#utility.yul\":13251:13253   */\n      0x20\n        /* \"#utility.yul\":13246:13249   */\n      dup3\n        /* \"#utility.yul\":13242:13254   */\n      add\n        /* \"#utility.yul\":13235:13254   */\n      swap1\n      pop\n        /* \"#utility.yul\":12894:13260   */\n      swap2\n      swap1\n      pop\n      jump\t// out\n        /* \"#utility.yul\":13266:13685   */\n    tag_74:\n        /* \"#utility.yul\":13432:13436   */\n      0x00\n        /* \"#utility.yul\":13470:13472   */\n      0x20\n        /* \"#utility.yul\":13459:13468   */\n      dup3\n        /* \"#utility.yul\":13455:13473   */\n      add\n        /* \"#utility.yul\":13447:13473   */\n      swap1\n      pop\n        /* \"#utility.yul\":13519:13528   */\n      dup2\n        /* \"#utility.yul\":13513:13517   */\n      dup2\n        /* \"#utility.yul\":13509:13529   */\n      sub\n        /* \"#utility.yul\":13505:13506   */\n      0x00\n        /* \"#utility.yul\":13494:13503   */\n      dup4\n        /* \"#utility.yul\":13490:13507   */\n      add\n        /* \"#utility.yul\":13483:13530   */\n      mstore\n        /* \"#utility.yul\":13547:13678   */\n      tag_280\n        /* \"#utility.yul\":13673:13677   */\n      dup2\n        /* \"#utility.yul\":13547:13678   */\n      tag_148\n      jump\t// in\n    tag_280:\n        /* \"#utility.yul\":13539:13678   */\n      swap1\n      pop\n        /* \"#utility.yul\":13266:13685   */\n      swap2\n      swap1\n      pop\n      jump\t// out\n        /* \"#utility.yul\":13691:13861   */\n    tag_149:\n        /* \"#utility.yul\":13831:13853   */\n      0x496e76616c696420436f72652061646472657373000000000000000000000000\n        /* \"#utility.yul\":13827:13828   */\n      0x00\n        /* \"#utility.yul\":13819:13825   */\n      dup3\n        /* \"#utility.yul\":13815:13829   */\n      add\n        /* \"#utility.yul\":13808:13854   */\n      mstore\n        /* \"#utility.yul\":13691:13861   */\n      pop\n      jump\t// out\n        /* \"#utility.yul\":13867:14233   */\n    tag_150:\n        /* \"#utility.yul\":14009:14012   */\n      0x00\n        /* \"#utility.yul\":14030:14097   */\n      tag_283\n        /* \"#utility.yul\":14094:14096   */\n      0x14\n        /* \"#utility.yul\":14089:14092   */\n      dup4\n        /* \"#utility.yul\":14030:14097   */\n      tag_144\n      jump\t// in\n    tag_283:\n        /* \"#utility.yul\":14023:14097   */\n      swap2\n      pop\n        /* \"#utility.yul\":14106:14199   */\n      tag_284\n        /* \"#utility.yul\":14195:14198   */\n      dup3\n        /* \"#utility.yul\":14106:14199   */\n      tag_149\n      jump\t// in\n    tag_284:\n        /* \"#utility.yul\":14224:14226   */\n      0x20\n        /* \"#utility.yul\":14219:14222   */\n      dup3\n        /* \"#utility.yul\":14215:14227   */\n      add\n        /* \"#utility.yul\":14208:14227   */\n      swap1\n      pop\n        /* \"#utility.yul\":13867:14233   */\n      swap2\n      swap1\n      pop\n      jump\t// out\n        /* \"#utility.yul\":14239:14658   */\n    tag_84:\n        /* \"#utility.yul\":14405:14409   */\n      0x00\n        /* \"#utility.yul\":14443:14445   */\n      0x20\n        /* \"#utility.yul\":14432:14441   */\n      dup3\n        /* \"#utility.yul\":14428:14446   */\n      add\n        /* \"#utility.yul\":14420:14446   */\n      swap1\n      pop\n        /* \"#utility.yul\":14492:14501   */\n      dup2\n        /* \"#utility.yul\":14486:14490   */\n      dup2\n        /* \"#utility.yul\":14482:14502   */\n      sub\n        /* \"#utility.yul\":14478:14479   */\n      0x00\n        /* \"#utility.yul\":14467:14476   */\n      dup4\n        /* \"#utility.yul\":14463:14480   */\n      add\n        /* \"#utility.yul\":14456:14503   */\n      mstore\n        /* \"#utility.yul\":14520:14651   */\n      tag_286\n        /* \"#utility.yul\":14646:14650   */\n      dup2\n        /* \"#utility.yul\":14520:14651   */\n      tag_150\n      jump\t// in\n    tag_286:\n        /* \"#utility.yul\":14512:14651   */\n      swap1\n      pop\n        /* \"#utility.yul\":14239:14658   */\n      swap2\n      swap1\n      pop\n      jump\t// out\n\n    auxdata: 0xa26469706673582212200385f220f6aa80f95d2decf93764df167c918f7ebfef711fa036133423f4b87e64736f6c634300081a0033\n}\n",
				"bytecode": {
					"linkReferences": {},
					"object": "608060405234801561000f575f80fd5b506040516113d03803806113d0833981810160405281019061003191906101d7565b805f73ffffffffffffffffffffffffffffffffffffffff168173ffffffffffffffffffffffffffffffffffffffff16036100a2575f6040517f1e4fbdf70000000000000000000000000000000000000000000000000000000081526004016100999190610211565b60405180910390fd5b6100b1816100b860201b60201c565b505061022a565b5f805f9054906101000a900473ffffffffffffffffffffffffffffffffffffffff169050815f806101000a81548173ffffffffffffffffffffffffffffffffffffffff021916908373ffffffffffffffffffffffffffffffffffffffff1602179055508173ffffffffffffffffffffffffffffffffffffffff168173ffffffffffffffffffffffffffffffffffffffff167f8be0079c531659141344cd1fd0a4f28419497f9722a3daafe3b4186f6b6457e060405160405180910390a35050565b5f80fd5b5f73ffffffffffffffffffffffffffffffffffffffff82169050919050565b5f6101a68261017d565b9050919050565b6101b68161019c565b81146101c0575f80fd5b50565b5f815190506101d1816101ad565b92915050565b5f602082840312156101ec576101eb610179565b5b5f6101f9848285016101c3565b91505092915050565b61020b8161019c565b82525050565b5f6020820190506102245f830184610202565b92915050565b611199806102375f395ff3fe608060405234801561000f575f80fd5b5060043610610091575f3560e01c80636769e3dd116100645780636769e3dd1461011b578063715018a6146101375780638da5cb5b14610141578063cc7a64da1461015f578063f2fde38b1461018f57610091565b806320888d1e146100955780633e1f040d146100b35780634a5ffd09146100cf5780635c0a3127146100eb575b5f80fd5b61009d6101ab565b6040516100aa9190610b21565b60405180910390f35b6100cd60048036038101906100c89190610c55565b6101d0565b005b6100e960048036038101906100e49190610d3d565b610452565b005b61010560048036038101906101009190610d7b565b6104cd565b6040516101129190610f51565b60405180910390f35b61013560048036038101906101309190610d7b565b61078e565b005b61013f610847565b005b61014961085a565b6040516101569190610b21565b60405180910390f35b61017960048036038101906101749190610d7b565b610881565b6040516101869190610f80565b60405180910390f35b6101a960048036038101906101a49190610d7b565b6108d6565b005b60015f9054906101000a900473ffffffffffffffffffffffffffffffffffffffff1681565b5f60025f8873ffffffffffffffffffffffffffffffffffffffff1673ffffffffffffffffffffffffffffffffffffffff1681526020019081526020015f2090505f5b85859050811015610423575f604051806060016040528088888581811061023c5761023b610f99565b5b90506020020160208101906102519190610d7b565b73ffffffffffffffffffffffffffffffffffffffff16815260200186868581811061027f5761027e610f99565b5b90506020020160208101906102949190610ff0565b61ffff16815260200160011515815250905060035f8888858181106102bc576102bb610f99565b5b90506020020160208101906102d19190610d7b565b73ffffffffffffffffffffffffffffffffffffffff1673ffffffffffffffffffffffffffffffffffffffff1681526020019081526020015f2089908060018154018082558091505060019003905f5260205f20015f9091909190916101000a81548173ffffffffffffffffffffffffffffffffffffffff021916908373ffffffffffffffffffffffffffffffffffffffff160217905550825f0181908060018154018082558091505060019003905f5260205f20015f909190919091505f820151815f015f6101000a81548173ffffffffffffffffffffffffffffffffffffffff021916908373ffffffffffffffffffffffffffffffffffffffff1602179055506020820151815f0160146101000a81548161ffff021916908361ffff1602179055506040820151815f0160166101000a81548160ff0219169083151502179055505050508080600101915050610212565b506001816001015f6101000a81548160ff02191690831515021790555085816002018190555050505050505050565b8060025f8473ffffffffffffffffffffffffffffffffffffffff1673ffffffffffffffffffffffffffffffffffffffff1681526020019081526020015f2060010160016101000a8154816fffffffffffffffffffffffffffffffff02191690836fffffffffffffffffffffffffffffffff1602179055505050565b6104d5610aa9565b60025f3373ffffffffffffffffffffffffffffffffffffffff1673ffffffffffffffffffffffffffffffffffffffff1681526020019081526020015f206001015f9054906101000a900460ff16610561576040517f08c379a000000000000000000000000000000000000000000000000000000000815260040161055890611075565b60405180910390fd5b60025f8373ffffffffffffffffffffffffffffffffffffffff1673ffffffffffffffffffffffffffffffffffffffff1681526020019081526020015f206001015f9054906101000a900460ff166105ed576040517f08c379a00000000000000000000000000000000000000000000000000000000081526004016105e4906110dd565b60405180910390fd5b60025f8373ffffffffffffffffffffffffffffffffffffffff1673ffffffffffffffffffffffffffffffffffffffff1681526020019081526020015f206040518060800160405290815f8201805480602002602001604051908101604052809291908181526020015f905b82821015610711578382905f5260205f20016040518060600160405290815f82015f9054906101000a900473ffffffffffffffffffffffffffffffffffffffff1673ffffffffffffffffffffffffffffffffffffffff1673ffffffffffffffffffffffffffffffffffffffff1681526020015f820160149054906101000a900461ffff1661ffff1661ffff1681526020015f820160169054906101000a900460ff16151515158152505081526020019060010190610658565b505050508152602001600182015f9054906101000a900460ff161515151581526020016001820160019054906101000a90046fffffffffffffffffffffffffffffffff166fffffffffffffffffffffffffffffffff166fffffffffffffffffffffffffffffffff1681526020016002820154815250509050919050565b61079661095a565b5f73ffffffffffffffffffffffffffffffffffffffff168173ffffffffffffffffffffffffffffffffffffffff1603610804576040517f08c379a00000000000000000000000000000000000000000000000000000000081526004016107fb90611145565b60405180910390fd5b8060015f6101000a81548173ffffffffffffffffffffffffffffffffffffffff021916908373ffffffffffffffffffffffffffffffffffffffff16021790555050565b61084f61095a565b6108585f6109e1565b565b5f805f9054906101000a900473ffffffffffffffffffffffffffffffffffffffff16905090565b5f60025f8373ffffffffffffffffffffffffffffffffffffffff1673ffffffffffffffffffffffffffffffffffffffff1681526020019081526020015f206001015f9054906101000a900460ff169050919050565b6108de61095a565b5f73ffffffffffffffffffffffffffffffffffffffff168173ffffffffffffffffffffffffffffffffffffffff160361094e575f6040517f1e4fbdf70000000000000000000000000000000000000000000000000000000081526004016109459190610b21565b60405180910390fd5b610957816109e1565b50565b610962610aa2565b73ffffffffffffffffffffffffffffffffffffffff1661098061085a565b73ffffffffffffffffffffffffffffffffffffffff16146109df576109a3610aa2565b6040517f118cdaa70000000000000000000000000000000000000000000000000000000081526004016109d69190610b21565b60405180910390fd5b565b5f805f9054906101000a900473ffffffffffffffffffffffffffffffffffffffff169050815f806101000a81548173ffffffffffffffffffffffffffffffffffffffff021916908373ffffffffffffffffffffffffffffffffffffffff1602179055508173ffffffffffffffffffffffffffffffffffffffff168173ffffffffffffffffffffffffffffffffffffffff167f8be0079c531659141344cd1fd0a4f28419497f9722a3daafe3b4186f6b6457e060405160405180910390a35050565b5f33905090565b6040518060800160405280606081526020015f151581526020015f6fffffffffffffffffffffffffffffffff1681526020015f81525090565b5f73ffffffffffffffffffffffffffffffffffffffff82169050919050565b5f610b0b82610ae2565b9050919050565b610b1b81610b01565b82525050565b5f602082019050610b345f830184610b12565b92915050565b5f80fd5b5f80fd5b610b4b81610b01565b8114610b55575f80fd5b50565b5f81359050610b6681610b42565b92915050565b5f819050919050565b610b7e81610b6c565b8114610b88575f80fd5b50565b5f81359050610b9981610b75565b92915050565b5f80fd5b5f80fd5b5f80fd5b5f8083601f840112610bc057610bbf610b9f565b5b8235905067ffffffffffffffff811115610bdd57610bdc610ba3565b5b602083019150836020820283011115610bf957610bf8610ba7565b5b9250929050565b5f8083601f840112610c1557610c14610b9f565b5b8235905067ffffffffffffffff811115610c3257610c31610ba3565b5b602083019150836020820283011115610c4e57610c4d610ba7565b5b9250929050565b5f805f805f8060808789031215610c6f57610c6e610b3a565b5b5f610c7c89828a01610b58565b9650506020610c8d89828a01610b8b565b955050604087013567ffffffffffffffff811115610cae57610cad610b3e565b5b610cba89828a01610bab565b9450945050606087013567ffffffffffffffff811115610cdd57610cdc610b3e565b5b610ce989828a01610c00565b92509250509295509295509295565b5f6fffffffffffffffffffffffffffffffff82169050919050565b610d1c81610cf8565b8114610d26575f80fd5b50565b5f81359050610d3781610d13565b92915050565b5f8060408385031215610d5357610d52610b3a565b5b5f610d6085828601610b58565b9250506020610d7185828601610d29565b9150509250929050565b5f60208284031215610d9057610d8f610b3a565b5b5f610d9d84828501610b58565b91505092915050565b5f81519050919050565b5f82825260208201905092915050565b5f819050602082019050919050565b610dd881610b01565b82525050565b5f61ffff82169050919050565b610df481610dde565b82525050565b5f8115159050919050565b610e0e81610dfa565b82525050565b606082015f820151610e285f850182610dcf565b506020820151610e3b6020850182610deb565b506040820151610e4e6040850182610e05565b50505050565b5f610e5f8383610e14565b60608301905092915050565b5f602082019050919050565b5f610e8182610da6565b610e8b8185610db0565b9350610e9683610dc0565b805f5b83811015610ec6578151610ead8882610e54565b9750610eb883610e6b565b925050600181019050610e99565b5085935050505092915050565b610edc81610cf8565b82525050565b610eeb81610b6c565b82525050565b5f608083015f8301518482035f860152610f0b8282610e77565b9150506020830151610f206020860182610e05565b506040830151610f336040860182610ed3565b506060830151610f466060860182610ee2565b508091505092915050565b5f6020820190508181035f830152610f698184610ef1565b905092915050565b610f7a81610dfa565b82525050565b5f602082019050610f935f830184610f71565b92915050565b7f4e487b71000000000000000000000000000000000000000000000000000000005f52603260045260245ffd5b610fcf81610dde565b8114610fd9575f80fd5b50565b5f81359050610fea81610fc6565b92915050565b5f6020828403121561100557611004610b3a565b5b5f61101284828501610fdc565b91505092915050565b5f82825260208201905092915050565b7f566f6365206e616f206568207465737461646f720000000000000000000000005f82015250565b5f61105f60148361101b565b915061106a8261102b565b602082019050919050565b5f6020820190508181035f83015261108c81611053565b9050919050565b7f54657374616d656e74206e6f7420666f756e64000000000000000000000000005f82015250565b5f6110c760138361101b565b91506110d282611093565b602082019050919050565b5f6020820190508181035f8301526110f4816110bb565b9050919050565b7f496e76616c696420436f726520616464726573730000000000000000000000005f82015250565b5f61112f60148361101b565b915061113a826110fb565b602082019050919050565b5f6020820190508181035f83015261115c81611123565b905091905056fea26469706673582212200385f220f6aa80f95d2decf93764df167c918f7ebfef711fa036133423f4b87e64736f6c634300081a0033",
					"opcodes": "PUSH1 0x80 PUSH1 0x40 MSTORE CALLVALUE DUP1 ISZERO PUSH2 0xF JUMPI PUSH0 DUP1 REVERT JUMPDEST POP PUSH1 0x40 MLOAD PUSH2 0x13D0 CODESIZE SUB DUP1 PUSH2 0x13D0 DUP4 CODECOPY DUP2 DUP2 ADD PUSH1 0x40 MSTORE DUP2 ADD SWAP1 PUSH2 0x31 SWAP2 SWAP1 PUSH2 0x1D7 JUMP JUMPDEST DUP1 PUSH0 PUSH20 0xFFFFFFFFFFFFFFFFFFFFFFFFFFFFFFFFFFFFFFFF AND DUP2 PUSH20 0xFFFFFFFFFFFFFFFFFFFFFFFFFFFFFFFFFFFFFFFF AND SUB PUSH2 0xA2 JUMPI PUSH0 PUSH1 0x40 MLOAD PUSH32 0x1E4FBDF700000000000000000000000000000000000000000000000000000000 DUP2 MSTORE PUSH1 0x4 ADD PUSH2 0x99 SWAP2 SWAP1 PUSH2 0x211 JUMP JUMPDEST PUSH1 0x40 MLOAD DUP1 SWAP2 SUB SWAP1 REVERT JUMPDEST PUSH2 0xB1 DUP2 PUSH2 0xB8 PUSH1 0x20 SHL PUSH1 0x20 SHR JUMP JUMPDEST POP POP PUSH2 0x22A JUMP JUMPDEST PUSH0 DUP1 PUSH0 SWAP1 SLOAD SWAP1 PUSH2 0x100 EXP SWAP1 DIV PUSH20 0xFFFFFFFFFFFFFFFFFFFFFFFFFFFFFFFFFFFFFFFF AND SWAP1 POP DUP2 PUSH0 DUP1 PUSH2 0x100 EXP DUP2 SLOAD DUP2 PUSH20 0xFFFFFFFFFFFFFFFFFFFFFFFFFFFFFFFFFFFFFFFF MUL NOT AND SWAP1 DUP4 PUSH20 0xFFFFFFFFFFFFFFFFFFFFFFFFFFFFFFFFFFFFFFFF AND MUL OR SWAP1 SSTORE POP DUP2 PUSH20 0xFFFFFFFFFFFFFFFFFFFFFFFFFFFFFFFFFFFFFFFF AND DUP2 PUSH20 0xFFFFFFFFFFFFFFFFFFFFFFFFFFFFFFFFFFFFFFFF AND PUSH32 0x8BE0079C531659141344CD1FD0A4F28419497F9722A3DAAFE3B4186F6B6457E0 PUSH1 0x40 MLOAD PUSH1 0x40 MLOAD DUP1 SWAP2 SUB SWAP1 LOG3 POP POP JUMP JUMPDEST PUSH0 DUP1 REVERT JUMPDEST PUSH0 PUSH20 0xFFFFFFFFFFFFFFFFFFFFFFFFFFFFFFFFFFFFFFFF DUP3 AND SWAP1 POP SWAP2 SWAP1 POP JUMP JUMPDEST PUSH0 PUSH2 0x1A6 DUP3 PUSH2 0x17D JUMP JUMPDEST SWAP1 POP SWAP2 SWAP1 POP JUMP JUMPDEST PUSH2 0x1B6 DUP2 PUSH2 0x19C JUMP JUMPDEST DUP2 EQ PUSH2 0x1C0 JUMPI PUSH0 DUP1 REVERT JUMPDEST POP JUMP JUMPDEST PUSH0 DUP2 MLOAD SWAP1 POP PUSH2 0x1D1 DUP2 PUSH2 0x1AD JUMP JUMPDEST SWAP3 SWAP2 POP POP JUMP JUMPDEST PUSH0 PUSH1 0x20 DUP3 DUP5 SUB SLT ISZERO PUSH2 0x1EC JUMPI PUSH2 0x1EB PUSH2 0x179 JUMP JUMPDEST JUMPDEST PUSH0 PUSH2 0x1F9 DUP5 DUP3 DUP6 ADD PUSH2 0x1C3 JUMP JUMPDEST SWAP2 POP POP SWAP3 SWAP2 POP POP JUMP JUMPDEST PUSH2 0x20B DUP2 PUSH2 0x19C JUMP JUMPDEST DUP3 MSTORE POP POP JUMP JUMPDEST PUSH0 PUSH1 0x20 DUP3 ADD SWAP1 POP PUSH2 0x224 PUSH0 DUP4 ADD DUP5 PUSH2 0x202 JUMP JUMPDEST SWAP3 SWAP2 POP POP JUMP JUMPDEST PUSH2 0x1199 DUP1 PUSH2 0x237 PUSH0 CODECOPY PUSH0 RETURN INVALID PUSH1 0x80 PUSH1 0x40 MSTORE CALLVALUE DUP1 ISZERO PUSH2 0xF JUMPI PUSH0 DUP1 REVERT JUMPDEST POP PUSH1 0x4 CALLDATASIZE LT PUSH2 0x91 JUMPI PUSH0 CALLDATALOAD PUSH1 0xE0 SHR DUP1 PUSH4 0x6769E3DD GT PUSH2 0x64 JUMPI DUP1 PUSH4 0x6769E3DD EQ PUSH2 0x11B JUMPI DUP1 PUSH4 0x715018A6 EQ PUSH2 0x137 JUMPI DUP1 PUSH4 0x8DA5CB5B EQ PUSH2 0x141 JUMPI DUP1 PUSH4 0xCC7A64DA EQ PUSH2 0x15F JUMPI DUP1 PUSH4 0xF2FDE38B EQ PUSH2 0x18F JUMPI PUSH2 0x91 JUMP JUMPDEST DUP1 PUSH4 0x20888D1E EQ PUSH2 0x95 JUMPI DUP1 PUSH4 0x3E1F040D EQ PUSH2 0xB3 JUMPI DUP1 PUSH4 0x4A5FFD09 EQ PUSH2 0xCF JUMPI DUP1 PUSH4 0x5C0A3127 EQ PUSH2 0xEB JUMPI JUMPDEST PUSH0 DUP1 REVERT JUMPDEST PUSH2 0x9D PUSH2 0x1AB JUMP JUMPDEST PUSH1 0x40 MLOAD PUSH2 0xAA SWAP2 SWAP1 PUSH2 0xB21 JUMP JUMPDEST PUSH1 0x40 MLOAD DUP1 SWAP2 SUB SWAP1 RETURN JUMPDEST PUSH2 0xCD PUSH1 0x4 DUP1 CALLDATASIZE SUB DUP2 ADD SWAP1 PUSH2 0xC8 SWAP2 SWAP1 PUSH2 0xC55 JUMP JUMPDEST PUSH2 0x1D0 JUMP JUMPDEST STOP JUMPDEST PUSH2 0xE9 PUSH1 0x4 DUP1 CALLDATASIZE SUB DUP2 ADD SWAP1 PUSH2 0xE4 SWAP2 SWAP1 PUSH2 0xD3D JUMP JUMPDEST PUSH2 0x452 JUMP JUMPDEST STOP JUMPDEST PUSH2 0x105 PUSH1 0x4 DUP1 CALLDATASIZE SUB DUP2 ADD SWAP1 PUSH2 0x100 SWAP2 SWAP1 PUSH2 0xD7B JUMP JUMPDEST PUSH2 0x4CD JUMP JUMPDEST PUSH1 0x40 MLOAD PUSH2 0x112 SWAP2 SWAP1 PUSH2 0xF51 JUMP JUMPDEST PUSH1 0x40 MLOAD DUP1 SWAP2 SUB SWAP1 RETURN JUMPDEST PUSH2 0x135 PUSH1 0x4 DUP1 CALLDATASIZE SUB DUP2 ADD SWAP1 PUSH2 0x130 SWAP2 SWAP1 PUSH2 0xD7B JUMP JUMPDEST PUSH2 0x78E JUMP JUMPDEST STOP JUMPDEST PUSH2 0x13F PUSH2 0x847 JUMP JUMPDEST STOP JUMPDEST PUSH2 0x149 PUSH2 0x85A JUMP JUMPDEST PUSH1 0x40 MLOAD PUSH2 0x156 SWAP2 SWAP1 PUSH2 0xB21 JUMP JUMPDEST PUSH1 0x40 MLOAD DUP1 SWAP2 SUB SWAP1 RETURN JUMPDEST PUSH2 0x179 PUSH1 0x4 DUP1 CALLDATASIZE SUB DUP2 ADD SWAP1 PUSH2 0x174 SWAP2 SWAP1 PUSH2 0xD7B JUMP JUMPDEST PUSH2 0x881 JUMP JUMPDEST PUSH1 0x40 MLOAD PUSH2 0x186 SWAP2 SWAP1 PUSH2 0xF80 JUMP JUMPDEST PUSH1 0x40 MLOAD DUP1 SWAP2 SUB SWAP1 RETURN JUMPDEST PUSH2 0x1A9 PUSH1 0x4 DUP1 CALLDATASIZE SUB DUP2 ADD SWAP1 PUSH2 0x1A4 SWAP2 SWAP1 PUSH2 0xD7B JUMP JUMPDEST PUSH2 0x8D6 JUMP JUMPDEST STOP JUMPDEST PUSH1 0x1 PUSH0 SWAP1 SLOAD SWAP1 PUSH2 0x100 EXP SWAP1 DIV PUSH20 0xFFFFFFFFFFFFFFFFFFFFFFFFFFFFFFFFFFFFFFFF AND DUP2 JUMP JUMPDEST PUSH0 PUSH1 0x2 PUSH0 DUP9 PUSH20 0xFFFFFFFFFFFFFFFFFFFFFFFFFFFFFFFFFFFFFFFF AND PUSH20 0xFFFFFFFFFFFFFFFFFFFFFFFFFFFFFFFFFFFFFFFF AND DUP2 MSTORE PUSH1 0x20 ADD SWAP1 DUP2 MSTORE PUSH1 0x20 ADD PUSH0 KECCAK256 SWAP1 POP PUSH0 JUMPDEST DUP6 DUP6 SWAP1 POP DUP2 LT ISZERO PUSH2 0x423 JUMPI PUSH0 PUSH1 0x40 MLOAD DUP1 PUSH1 0x60 ADD PUSH1 0x40 MSTORE DUP1 DUP9 DUP9 DUP6 DUP2 DUP2 LT PUSH2 0x23C JUMPI PUSH2 0x23B PUSH2 0xF99 JUMP JUMPDEST JUMPDEST SWAP1 POP PUSH1 0x20 MUL ADD PUSH1 0x20 DUP2 ADD SWAP1 PUSH2 0x251 SWAP2 SWAP1 PUSH2 0xD7B JUMP JUMPDEST PUSH20 0xFFFFFFFFFFFFFFFFFFFFFFFFFFFFFFFFFFFFFFFF AND DUP2 MSTORE PUSH1 0x20 ADD DUP7 DUP7 DUP6 DUP2 DUP2 LT PUSH2 0x27F JUMPI PUSH2 0x27E PUSH2 0xF99 JUMP JUMPDEST JUMPDEST SWAP1 POP PUSH1 0x20 MUL ADD PUSH1 0x20 DUP2 ADD SWAP1 PUSH2 0x294 SWAP2 SWAP1 PUSH2 0xFF0 JUMP JUMPDEST PUSH2 0xFFFF AND DUP2 MSTORE PUSH1 0x20 ADD PUSH1 0x1 ISZERO ISZERO DUP2 MSTORE POP SWAP1 POP PUSH1 0x3 PUSH0 DUP9 DUP9 DUP6 DUP2 DUP2 LT PUSH2 0x2BC JUMPI PUSH2 0x2BB PUSH2 0xF99 JUMP JUMPDEST JUMPDEST SWAP1 POP PUSH1 0x20 MUL ADD PUSH1 0x20 DUP2 ADD SWAP1 PUSH2 0x2D1 SWAP2 SWAP1 PUSH2 0xD7B JUMP JUMPDEST PUSH20 0xFFFFFFFFFFFFFFFFFFFFFFFFFFFFFFFFFFFFFFFF AND PUSH20 0xFFFFFFFFFFFFFFFFFFFFFFFFFFFFFFFFFFFFFFFF AND DUP2 MSTORE PUSH1 0x20 ADD SWAP1 DUP2 MSTORE PUSH1 0x20 ADD PUSH0 KECCAK256 DUP10 SWAP1 DUP1 PUSH1 0x1 DUP2 SLOAD ADD DUP1 DUP3 SSTORE DUP1 SWAP2 POP POP PUSH1 0x1 SWAP1 SUB SWAP1 PUSH0 MSTORE PUSH1 0x20 PUSH0 KECCAK256 ADD PUSH0 SWAP1 SWAP2 SWAP1 SWAP2 SWAP1 SWAP2 PUSH2 0x100 EXP DUP2 SLOAD DUP2 PUSH20 0xFFFFFFFFFFFFFFFFFFFFFFFFFFFFFFFFFFFFFFFF MUL NOT AND SWAP1 DUP4 PUSH20 0xFFFFFFFFFFFFFFFFFFFFFFFFFFFFFFFFFFFFFFFF AND MUL OR SWAP1 SSTORE POP DUP3 PUSH0 ADD DUP2 SWAP1 DUP1 PUSH1 0x1 DUP2 SLOAD ADD DUP1 DUP3 SSTORE DUP1 SWAP2 POP POP PUSH1 0x1 SWAP1 SUB SWAP1 PUSH0 MSTORE PUSH1 0x20 PUSH0 KECCAK256 ADD PUSH0 SWAP1 SWAP2 SWAP1 SWAP2 SWAP1 SWAP2 POP PUSH0 DUP3 ADD MLOAD DUP2 PUSH0 ADD PUSH0 PUSH2 0x100 EXP DUP2 SLOAD DUP2 PUSH20 0xFFFFFFFFFFFFFFFFFFFFFFFFFFFFFFFFFFFFFFFF MUL NOT AND SWAP1 DUP4 PUSH20 0xFFFFFFFFFFFFFFFFFFFFFFFFFFFFFFFFFFFFFFFF AND MUL OR SWAP1 SSTORE POP PUSH1 0x20 DUP3 ADD MLOAD DUP2 PUSH0 ADD PUSH1 0x14 PUSH2 0x100 EXP DUP2 SLOAD DUP2 PUSH2 0xFFFF MUL NOT AND SWAP1 DUP4 PUSH2 0xFFFF AND MUL OR SWAP1 SSTORE POP PUSH1 0x40 DUP3 ADD MLOAD DUP2 PUSH0 ADD PUSH1 0x16 PUSH2 0x100 EXP DUP2 SLOAD DUP2 PUSH1 0xFF MUL NOT AND SWAP1 DUP4 ISZERO ISZERO MUL OR SWAP1 SSTORE POP POP POP POP DUP1 DUP1 PUSH1 0x1 ADD SWAP2 POP POP PUSH2 0x212 JUMP JUMPDEST POP PUSH1 0x1 DUP2 PUSH1 0x1 ADD PUSH0 PUSH2 0x100 EXP DUP2 SLOAD DUP2 PUSH1 0xFF MUL NOT AND SWAP1 DUP4 ISZERO ISZERO MUL OR SWAP1 SSTORE POP DUP6 DUP2 PUSH1 0x2 ADD DUP2 SWAP1 SSTORE POP POP POP POP POP POP POP POP JUMP JUMPDEST DUP1 PUSH1 0x2 PUSH0 DUP5 PUSH20 0xFFFFFFFFFFFFFFFFFFFFFFFFFFFFFFFFFFFFFFFF AND PUSH20 0xFFFFFFFFFFFFFFFFFFFFFFFFFFFFFFFFFFFFFFFF AND DUP2 MSTORE PUSH1 0x20 ADD SWAP1 DUP2 MSTORE PUSH1 0x20 ADD PUSH0 KECCAK256 PUSH1 0x1 ADD PUSH1 0x1 PUSH2 0x100 EXP DUP2 SLOAD DUP2 PUSH16 0xFFFFFFFFFFFFFFFFFFFFFFFFFFFFFFFF MUL NOT AND SWAP1 DUP4 PUSH16 0xFFFFFFFFFFFFFFFFFFFFFFFFFFFFFFFF AND MUL OR SWAP1 SSTORE POP POP POP JUMP JUMPDEST PUSH2 0x4D5 PUSH2 0xAA9 JUMP JUMPDEST PUSH1 0x2 PUSH0 CALLER PUSH20 0xFFFFFFFFFFFFFFFFFFFFFFFFFFFFFFFFFFFFFFFF AND PUSH20 0xFFFFFFFFFFFFFFFFFFFFFFFFFFFFFFFFFFFFFFFF AND DUP2 MSTORE PUSH1 0x20 ADD SWAP1 DUP2 MSTORE PUSH1 0x20 ADD PUSH0 KECCAK256 PUSH1 0x1 ADD PUSH0 SWAP1 SLOAD SWAP1 PUSH2 0x100 EXP SWAP1 DIV PUSH1 0xFF AND PUSH2 0x561 JUMPI PUSH1 0x40 MLOAD PUSH32 0x8C379A000000000000000000000000000000000000000000000000000000000 DUP2 MSTORE PUSH1 0x4 ADD PUSH2 0x558 SWAP1 PUSH2 0x1075 JUMP JUMPDEST PUSH1 0x40 MLOAD DUP1 SWAP2 SUB SWAP1 REVERT JUMPDEST PUSH1 0x2 PUSH0 DUP4 PUSH20 0xFFFFFFFFFFFFFFFFFFFFFFFFFFFFFFFFFFFFFFFF AND PUSH20 0xFFFFFFFFFFFFFFFFFFFFFFFFFFFFFFFFFFFFFFFF AND DUP2 MSTORE PUSH1 0x20 ADD SWAP1 DUP2 MSTORE PUSH1 0x20 ADD PUSH0 KECCAK256 PUSH1 0x1 ADD PUSH0 SWAP1 SLOAD SWAP1 PUSH2 0x100 EXP SWAP1 DIV PUSH1 0xFF AND PUSH2 0x5ED JUMPI PUSH1 0x40 MLOAD PUSH32 0x8C379A000000000000000000000000000000000000000000000000000000000 DUP2 MSTORE PUSH1 0x4 ADD PUSH2 0x5E4 SWAP1 PUSH2 0x10DD JUMP JUMPDEST PUSH1 0x40 MLOAD DUP1 SWAP2 SUB SWAP1 REVERT JUMPDEST PUSH1 0x2 PUSH0 DUP4 PUSH20 0xFFFFFFFFFFFFFFFFFFFFFFFFFFFFFFFFFFFFFFFF AND PUSH20 0xFFFFFFFFFFFFFFFFFFFFFFFFFFFFFFFFFFFFFFFF AND DUP2 MSTORE PUSH1 0x20 ADD SWAP1 DUP2 MSTORE PUSH1 0x20 ADD PUSH0 KECCAK256 PUSH1 0x40 MLOAD DUP1 PUSH1 0x80 ADD PUSH1 0x40 MSTORE SWAP1 DUP2 PUSH0 DUP3 ADD DUP1 SLOAD DUP1 PUSH1 0x20 MUL PUSH1 0x20 ADD PUSH1 0x40 MLOAD SWAP1 DUP2 ADD PUSH1 0x40 MSTORE DUP1 SWAP3 SWAP2 SWAP1 DUP2 DUP2 MSTORE PUSH1 0x20 ADD PUSH0 SWAP1 JUMPDEST DUP3 DUP3 LT ISZERO PUSH2 0x711 JUMPI DUP4 DUP3 SWAP1 PUSH0 MSTORE PUSH1 0x20 PUSH0 KECCAK256 ADD PUSH1 0x40 MLOAD DUP1 PUSH1 0x60 ADD PUSH1 0x40 MSTORE SWAP1 DUP2 PUSH0 DUP3 ADD PUSH0 SWAP1 SLOAD SWAP1 PUSH2 0x100 EXP SWAP1 DIV PUSH20 0xFFFFFFFFFFFFFFFFFFFFFFFFFFFFFFFFFFFFFFFF AND PUSH20 0xFFFFFFFFFFFFFFFFFFFFFFFFFFFFFFFFFFFFFFFF AND PUSH20 0xFFFFFFFFFFFFFFFFFFFFFFFFFFFFFFFFFFFFFFFF AND DUP2 MSTORE PUSH1 0x20 ADD PUSH0 DUP3 ADD PUSH1 0x14 SWAP1 SLOAD SWAP1 PUSH2 0x100 EXP SWAP1 DIV PUSH2 0xFFFF AND PUSH2 0xFFFF AND PUSH2 0xFFFF AND DUP2 MSTORE PUSH1 0x20 ADD PUSH0 DUP3 ADD PUSH1 0x16 SWAP1 SLOAD SWAP1 PUSH2 0x100 EXP SWAP1 DIV PUSH1 0xFF AND ISZERO ISZERO ISZERO ISZERO DUP2 MSTORE POP POP DUP2 MSTORE PUSH1 0x20 ADD SWAP1 PUSH1 0x1 ADD SWAP1 PUSH2 0x658 JUMP JUMPDEST POP POP POP POP DUP2 MSTORE PUSH1 0x20 ADD PUSH1 0x1 DUP3 ADD PUSH0 SWAP1 SLOAD SWAP1 PUSH2 0x100 EXP SWAP1 DIV PUSH1 0xFF AND ISZERO ISZERO ISZERO ISZERO DUP2 MSTORE PUSH1 0x20 ADD PUSH1 0x1 DUP3 ADD PUSH1 0x1 SWAP1 SLOAD SWAP1 PUSH2 0x100 EXP SWAP1 DIV PUSH16 0xFFFFFFFFFFFFFFFFFFFFFFFFFFFFFFFF AND PUSH16 0xFFFFFFFFFFFFFFFFFFFFFFFFFFFFFFFF AND PUSH16 0xFFFFFFFFFFFFFFFFFFFFFFFFFFFFFFFF AND DUP2 MSTORE PUSH1 0x20 ADD PUSH1 0x2 DUP3 ADD SLOAD DUP2 MSTORE POP POP SWAP1 POP SWAP2 SWAP1 POP JUMP JUMPDEST PUSH2 0x796 PUSH2 0x95A JUMP JUMPDEST PUSH0 PUSH20 0xFFFFFFFFFFFFFFFFFFFFFFFFFFFFFFFFFFFFFFFF AND DUP2 PUSH20 0xFFFFFFFFFFFFFFFFFFFFFFFFFFFFFFFFFFFFFFFF AND SUB PUSH2 0x804 JUMPI PUSH1 0x40 MLOAD PUSH32 0x8C379A000000000000000000000000000000000000000000000000000000000 DUP2 MSTORE PUSH1 0x4 ADD PUSH2 0x7FB SWAP1 PUSH2 0x1145 JUMP JUMPDEST PUSH1 0x40 MLOAD DUP1 SWAP2 SUB SWAP1 REVERT JUMPDEST DUP1 PUSH1 0x1 PUSH0 PUSH2 0x100 EXP DUP2 SLOAD DUP2 PUSH20 0xFFFFFFFFFFFFFFFFFFFFFFFFFFFFFFFFFFFFFFFF MUL NOT AND SWAP1 DUP4 PUSH20 0xFFFFFFFFFFFFFFFFFFFFFFFFFFFFFFFFFFFFFFFF AND MUL OR SWAP1 SSTORE POP POP JUMP JUMPDEST PUSH2 0x84F PUSH2 0x95A JUMP JUMPDEST PUSH2 0x858 PUSH0 PUSH2 0x9E1 JUMP JUMPDEST JUMP JUMPDEST PUSH0 DUP1 PUSH0 SWAP1 SLOAD SWAP1 PUSH2 0x100 EXP SWAP1 DIV PUSH20 0xFFFFFFFFFFFFFFFFFFFFFFFFFFFFFFFFFFFFFFFF AND SWAP1 POP SWAP1 JUMP JUMPDEST PUSH0 PUSH1 0x2 PUSH0 DUP4 PUSH20 0xFFFFFFFFFFFFFFFFFFFFFFFFFFFFFFFFFFFFFFFF AND PUSH20 0xFFFFFFFFFFFFFFFFFFFFFFFFFFFFFFFFFFFFFFFF AND DUP2 MSTORE PUSH1 0x20 ADD SWAP1 DUP2 MSTORE PUSH1 0x20 ADD PUSH0 KECCAK256 PUSH1 0x1 ADD PUSH0 SWAP1 SLOAD SWAP1 PUSH2 0x100 EXP SWAP1 DIV PUSH1 0xFF AND SWAP1 POP SWAP2 SWAP1 POP JUMP JUMPDEST PUSH2 0x8DE PUSH2 0x95A JUMP JUMPDEST PUSH0 PUSH20 0xFFFFFFFFFFFFFFFFFFFFFFFFFFFFFFFFFFFFFFFF AND DUP2 PUSH20 0xFFFFFFFFFFFFFFFFFFFFFFFFFFFFFFFFFFFFFFFF AND SUB PUSH2 0x94E JUMPI PUSH0 PUSH1 0x40 MLOAD PUSH32 0x1E4FBDF700000000000000000000000000000000000000000000000000000000 DUP2 MSTORE PUSH1 0x4 ADD PUSH2 0x945 SWAP2 SWAP1 PUSH2 0xB21 JUMP JUMPDEST PUSH1 0x40 MLOAD DUP1 SWAP2 SUB SWAP1 REVERT JUMPDEST PUSH2 0x957 DUP2 PUSH2 0x9E1 JUMP JUMPDEST POP JUMP JUMPDEST PUSH2 0x962 PUSH2 0xAA2 JUMP JUMPDEST PUSH20 0xFFFFFFFFFFFFFFFFFFFFFFFFFFFFFFFFFFFFFFFF AND PUSH2 0x980 PUSH2 0x85A JUMP JUMPDEST PUSH20 0xFFFFFFFFFFFFFFFFFFFFFFFFFFFFFFFFFFFFFFFF AND EQ PUSH2 0x9DF JUMPI PUSH2 0x9A3 PUSH2 0xAA2 JUMP JUMPDEST PUSH1 0x40 MLOAD PUSH32 0x118CDAA700000000000000000000000000000000000000000000000000000000 DUP2 MSTORE PUSH1 0x4 ADD PUSH2 0x9D6 SWAP2 SWAP1 PUSH2 0xB21 JUMP JUMPDEST PUSH1 0x40 MLOAD DUP1 SWAP2 SUB SWAP1 REVERT JUMPDEST JUMP JUMPDEST PUSH0 DUP1 PUSH0 SWAP1 SLOAD SWAP1 PUSH2 0x100 EXP SWAP1 DIV PUSH20 0xFFFFFFFFFFFFFFFFFFFFFFFFFFFFFFFFFFFFFFFF AND SWAP1 POP DUP2 PUSH0 DUP1 PUSH2 0x100 EXP DUP2 SLOAD DUP2 PUSH20 0xFFFFFFFFFFFFFFFFFFFFFFFFFFFFFFFFFFFFFFFF MUL NOT AND SWAP1 DUP4 PUSH20 0xFFFFFFFFFFFFFFFFFFFFFFFFFFFFFFFFFFFFFFFF AND MUL OR SWAP1 SSTORE POP DUP2 PUSH20 0xFFFFFFFFFFFFFFFFFFFFFFFFFFFFFFFFFFFFFFFF AND DUP2 PUSH20 0xFFFFFFFFFFFFFFFFFFFFFFFFFFFFFFFFFFFFFFFF AND PUSH32 0x8BE0079C531659141344CD1FD0A4F28419497F9722A3DAAFE3B4186F6B6457E0 PUSH1 0x40 MLOAD PUSH1 0x40 MLOAD DUP1 SWAP2 SUB SWAP1 LOG3 POP POP JUMP JUMPDEST PUSH0 CALLER SWAP1 POP SWAP1 JUMP JUMPDEST PUSH1 0x40 MLOAD DUP1 PUSH1 0x80 ADD PUSH1 0x40 MSTORE DUP1 PUSH1 0x60 DUP2 MSTORE PUSH1 0x20 ADD PUSH0 ISZERO ISZERO DUP2 MSTORE PUSH1 0x20 ADD PUSH0 PUSH16 0xFFFFFFFFFFFFFFFFFFFFFFFFFFFFFFFF AND DUP2 MSTORE PUSH1 0x20 ADD PUSH0 DUP2 MSTORE POP SWAP1 JUMP JUMPDEST PUSH0 PUSH20 0xFFFFFFFFFFFFFFFFFFFFFFFFFFFFFFFFFFFFFFFF DUP3 AND SWAP1 POP SWAP2 SWAP1 POP JUMP JUMPDEST PUSH0 PUSH2 0xB0B DUP3 PUSH2 0xAE2 JUMP JUMPDEST SWAP1 POP SWAP2 SWAP1 POP JUMP JUMPDEST PUSH2 0xB1B DUP2 PUSH2 0xB01 JUMP JUMPDEST DUP3 MSTORE POP POP JUMP JUMPDEST PUSH0 PUSH1 0x20 DUP3 ADD SWAP1 POP PUSH2 0xB34 PUSH0 DUP4 ADD DUP5 PUSH2 0xB12 JUMP JUMPDEST SWAP3 SWAP2 POP POP JUMP JUMPDEST PUSH0 DUP1 REVERT JUMPDEST PUSH0 DUP1 REVERT JUMPDEST PUSH2 0xB4B DUP2 PUSH2 0xB01 JUMP JUMPDEST DUP2 EQ PUSH2 0xB55 JUMPI PUSH0 DUP1 REVERT JUMPDEST POP JUMP JUMPDEST PUSH0 DUP2 CALLDATALOAD SWAP1 POP PUSH2 0xB66 DUP2 PUSH2 0xB42 JUMP JUMPDEST SWAP3 SWAP2 POP POP JUMP JUMPDEST PUSH0 DUP2 SWAP1 POP SWAP2 SWAP1 POP JUMP JUMPDEST PUSH2 0xB7E DUP2 PUSH2 0xB6C JUMP JUMPDEST DUP2 EQ PUSH2 0xB88 JUMPI PUSH0 DUP1 REVERT JUMPDEST POP JUMP JUMPDEST PUSH0 DUP2 CALLDATALOAD SWAP1 POP PUSH2 0xB99 DUP2 PUSH2 0xB75 JUMP JUMPDEST SWAP3 SWAP2 POP POP JUMP JUMPDEST PUSH0 DUP1 REVERT JUMPDEST PUSH0 DUP1 REVERT JUMPDEST PUSH0 DUP1 REVERT JUMPDEST PUSH0 DUP1 DUP4 PUSH1 0x1F DUP5 ADD SLT PUSH2 0xBC0 JUMPI PUSH2 0xBBF PUSH2 0xB9F JUMP JUMPDEST JUMPDEST DUP3 CALLDATALOAD SWAP1 POP PUSH8 0xFFFFFFFFFFFFFFFF DUP2 GT ISZERO PUSH2 0xBDD JUMPI PUSH2 0xBDC PUSH2 0xBA3 JUMP JUMPDEST JUMPDEST PUSH1 0x20 DUP4 ADD SWAP2 POP DUP4 PUSH1 0x20 DUP3 MUL DUP4 ADD GT ISZERO PUSH2 0xBF9 JUMPI PUSH2 0xBF8 PUSH2 0xBA7 JUMP JUMPDEST JUMPDEST SWAP3 POP SWAP3 SWAP1 POP JUMP JUMPDEST PUSH0 DUP1 DUP4 PUSH1 0x1F DUP5 ADD SLT PUSH2 0xC15 JUMPI PUSH2 0xC14 PUSH2 0xB9F JUMP JUMPDEST JUMPDEST DUP3 CALLDATALOAD SWAP1 POP PUSH8 0xFFFFFFFFFFFFFFFF DUP2 GT ISZERO PUSH2 0xC32 JUMPI PUSH2 0xC31 PUSH2 0xBA3 JUMP JUMPDEST JUMPDEST PUSH1 0x20 DUP4 ADD SWAP2 POP DUP4 PUSH1 0x20 DUP3 MUL DUP4 ADD GT ISZERO PUSH2 0xC4E JUMPI PUSH2 0xC4D PUSH2 0xBA7 JUMP JUMPDEST JUMPDEST SWAP3 POP SWAP3 SWAP1 POP JUMP JUMPDEST PUSH0 DUP1 PUSH0 DUP1 PUSH0 DUP1 PUSH1 0x80 DUP8 DUP10 SUB SLT ISZERO PUSH2 0xC6F JUMPI PUSH2 0xC6E PUSH2 0xB3A JUMP JUMPDEST JUMPDEST PUSH0 PUSH2 0xC7C DUP10 DUP3 DUP11 ADD PUSH2 0xB58 JUMP JUMPDEST SWAP7 POP POP PUSH1 0x20 PUSH2 0xC8D DUP10 DUP3 DUP11 ADD PUSH2 0xB8B JUMP JUMPDEST SWAP6 POP POP PUSH1 0x40 DUP8 ADD CALLDATALOAD PUSH8 0xFFFFFFFFFFFFFFFF DUP2 GT ISZERO PUSH2 0xCAE JUMPI PUSH2 0xCAD PUSH2 0xB3E JUMP JUMPDEST JUMPDEST PUSH2 0xCBA DUP10 DUP3 DUP11 ADD PUSH2 0xBAB JUMP JUMPDEST SWAP5 POP SWAP5 POP POP PUSH1 0x60 DUP8 ADD CALLDATALOAD PUSH8 0xFFFFFFFFFFFFFFFF DUP2 GT ISZERO PUSH2 0xCDD JUMPI PUSH2 0xCDC PUSH2 0xB3E JUMP JUMPDEST JUMPDEST PUSH2 0xCE9 DUP10 DUP3 DUP11 ADD PUSH2 0xC00 JUMP JUMPDEST SWAP3 POP SWAP3 POP POP SWAP3 SWAP6 POP SWAP3 SWAP6 POP SWAP3 SWAP6 JUMP JUMPDEST PUSH0 PUSH16 0xFFFFFFFFFFFFFFFFFFFFFFFFFFFFFFFF DUP3 AND SWAP1 POP SWAP2 SWAP1 POP JUMP JUMPDEST PUSH2 0xD1C DUP2 PUSH2 0xCF8 JUMP JUMPDEST DUP2 EQ PUSH2 0xD26 JUMPI PUSH0 DUP1 REVERT JUMPDEST POP JUMP JUMPDEST PUSH0 DUP2 CALLDATALOAD SWAP1 POP PUSH2 0xD37 DUP2 PUSH2 0xD13 JUMP JUMPDEST SWAP3 SWAP2 POP POP JUMP JUMPDEST PUSH0 DUP1 PUSH1 0x40 DUP4 DUP6 SUB SLT ISZERO PUSH2 0xD53 JUMPI PUSH2 0xD52 PUSH2 0xB3A JUMP JUMPDEST JUMPDEST PUSH0 PUSH2 0xD60 DUP6 DUP3 DUP7 ADD PUSH2 0xB58 JUMP JUMPDEST SWAP3 POP POP PUSH1 0x20 PUSH2 0xD71 DUP6 DUP3 DUP7 ADD PUSH2 0xD29 JUMP JUMPDEST SWAP2 POP POP SWAP3 POP SWAP3 SWAP1 POP JUMP JUMPDEST PUSH0 PUSH1 0x20 DUP3 DUP5 SUB SLT ISZERO PUSH2 0xD90 JUMPI PUSH2 0xD8F PUSH2 0xB3A JUMP JUMPDEST JUMPDEST PUSH0 PUSH2 0xD9D DUP5 DUP3 DUP6 ADD PUSH2 0xB58 JUMP JUMPDEST SWAP2 POP POP SWAP3 SWAP2 POP POP JUMP JUMPDEST PUSH0 DUP2 MLOAD SWAP1 POP SWAP2 SWAP1 POP JUMP JUMPDEST PUSH0 DUP3 DUP3 MSTORE PUSH1 0x20 DUP3 ADD SWAP1 POP SWAP3 SWAP2 POP POP JUMP JUMPDEST PUSH0 DUP2 SWAP1 POP PUSH1 0x20 DUP3 ADD SWAP1 POP SWAP2 SWAP1 POP JUMP JUMPDEST PUSH2 0xDD8 DUP2 PUSH2 0xB01 JUMP JUMPDEST DUP3 MSTORE POP POP JUMP JUMPDEST PUSH0 PUSH2 0xFFFF DUP3 AND SWAP1 POP SWAP2 SWAP1 POP JUMP JUMPDEST PUSH2 0xDF4 DUP2 PUSH2 0xDDE JUMP JUMPDEST DUP3 MSTORE POP POP JUMP JUMPDEST PUSH0 DUP2 ISZERO ISZERO SWAP1 POP SWAP2 SWAP1 POP JUMP JUMPDEST PUSH2 0xE0E DUP2 PUSH2 0xDFA JUMP JUMPDEST DUP3 MSTORE POP POP JUMP JUMPDEST PUSH1 0x60 DUP3 ADD PUSH0 DUP3 ADD MLOAD PUSH2 0xE28 PUSH0 DUP6 ADD DUP3 PUSH2 0xDCF JUMP JUMPDEST POP PUSH1 0x20 DUP3 ADD MLOAD PUSH2 0xE3B PUSH1 0x20 DUP6 ADD DUP3 PUSH2 0xDEB JUMP JUMPDEST POP PUSH1 0x40 DUP3 ADD MLOAD PUSH2 0xE4E PUSH1 0x40 DUP6 ADD DUP3 PUSH2 0xE05 JUMP JUMPDEST POP POP POP POP JUMP JUMPDEST PUSH0 PUSH2 0xE5F DUP4 DUP4 PUSH2 0xE14 JUMP JUMPDEST PUSH1 0x60 DUP4 ADD SWAP1 POP SWAP3 SWAP2 POP POP JUMP JUMPDEST PUSH0 PUSH1 0x20 DUP3 ADD SWAP1 POP SWAP2 SWAP1 POP JUMP JUMPDEST PUSH0 PUSH2 0xE81 DUP3 PUSH2 0xDA6 JUMP JUMPDEST PUSH2 0xE8B DUP2 DUP6 PUSH2 0xDB0 JUMP JUMPDEST SWAP4 POP PUSH2 0xE96 DUP4 PUSH2 0xDC0 JUMP JUMPDEST DUP1 PUSH0 JUMPDEST DUP4 DUP2 LT ISZERO PUSH2 0xEC6 JUMPI DUP2 MLOAD PUSH2 0xEAD DUP9 DUP3 PUSH2 0xE54 JUMP JUMPDEST SWAP8 POP PUSH2 0xEB8 DUP4 PUSH2 0xE6B JUMP JUMPDEST SWAP3 POP POP PUSH1 0x1 DUP2 ADD SWAP1 POP PUSH2 0xE99 JUMP JUMPDEST POP DUP6 SWAP4 POP POP POP POP SWAP3 SWAP2 POP POP JUMP JUMPDEST PUSH2 0xEDC DUP2 PUSH2 0xCF8 JUMP JUMPDEST DUP3 MSTORE POP POP JUMP JUMPDEST PUSH2 0xEEB DUP2 PUSH2 0xB6C JUMP JUMPDEST DUP3 MSTORE POP POP JUMP JUMPDEST PUSH0 PUSH1 0x80 DUP4 ADD PUSH0 DUP4 ADD MLOAD DUP5 DUP3 SUB PUSH0 DUP7 ADD MSTORE PUSH2 0xF0B DUP3 DUP3 PUSH2 0xE77 JUMP JUMPDEST SWAP2 POP POP PUSH1 0x20 DUP4 ADD MLOAD PUSH2 0xF20 PUSH1 0x20 DUP7 ADD DUP3 PUSH2 0xE05 JUMP JUMPDEST POP PUSH1 0x40 DUP4 ADD MLOAD PUSH2 0xF33 PUSH1 0x40 DUP7 ADD DUP3 PUSH2 0xED3 JUMP JUMPDEST POP PUSH1 0x60 DUP4 ADD MLOAD PUSH2 0xF46 PUSH1 0x60 DUP7 ADD DUP3 PUSH2 0xEE2 JUMP JUMPDEST POP DUP1 SWAP2 POP POP SWAP3 SWAP2 POP POP JUMP JUMPDEST PUSH0 PUSH1 0x20 DUP3 ADD SWAP1 POP DUP2 DUP2 SUB PUSH0 DUP4 ADD MSTORE PUSH2 0xF69 DUP2 DUP5 PUSH2 0xEF1 JUMP JUMPDEST SWAP1 POP SWAP3 SWAP2 POP POP JUMP JUMPDEST PUSH2 0xF7A DUP2 PUSH2 0xDFA JUMP JUMPDEST DUP3 MSTORE POP POP JUMP JUMPDEST PUSH0 PUSH1 0x20 DUP3 ADD SWAP1 POP PUSH2 0xF93 PUSH0 DUP4 ADD DUP5 PUSH2 0xF71 JUMP JUMPDEST SWAP3 SWAP2 POP POP JUMP JUMPDEST PUSH32 0x4E487B7100000000000000000000000000000000000000000000000000000000 PUSH0 MSTORE PUSH1 0x32 PUSH1 0x4 MSTORE PUSH1 0x24 PUSH0 REVERT JUMPDEST PUSH2 0xFCF DUP2 PUSH2 0xDDE JUMP JUMPDEST DUP2 EQ PUSH2 0xFD9 JUMPI PUSH0 DUP1 REVERT JUMPDEST POP JUMP JUMPDEST PUSH0 DUP2 CALLDATALOAD SWAP1 POP PUSH2 0xFEA DUP2 PUSH2 0xFC6 JUMP JUMPDEST SWAP3 SWAP2 POP POP JUMP JUMPDEST PUSH0 PUSH1 0x20 DUP3 DUP5 SUB SLT ISZERO PUSH2 0x1005 JUMPI PUSH2 0x1004 PUSH2 0xB3A JUMP JUMPDEST JUMPDEST PUSH0 PUSH2 0x1012 DUP5 DUP3 DUP6 ADD PUSH2 0xFDC JUMP JUMPDEST SWAP2 POP POP SWAP3 SWAP2 POP POP JUMP JUMPDEST PUSH0 DUP3 DUP3 MSTORE PUSH1 0x20 DUP3 ADD SWAP1 POP SWAP3 SWAP2 POP POP JUMP JUMPDEST PUSH32 0x566F6365206E616F206568207465737461646F72000000000000000000000000 PUSH0 DUP3 ADD MSTORE POP JUMP JUMPDEST PUSH0 PUSH2 0x105F PUSH1 0x14 DUP4 PUSH2 0x101B JUMP JUMPDEST SWAP2 POP PUSH2 0x106A DUP3 PUSH2 0x102B JUMP JUMPDEST PUSH1 0x20 DUP3 ADD SWAP1 POP SWAP2 SWAP1 POP JUMP JUMPDEST PUSH0 PUSH1 0x20 DUP3 ADD SWAP1 POP DUP2 DUP2 SUB PUSH0 DUP4 ADD MSTORE PUSH2 0x108C DUP2 PUSH2 0x1053 JUMP JUMPDEST SWAP1 POP SWAP2 SWAP1 POP JUMP JUMPDEST PUSH32 0x54657374616D656E74206E6F7420666F756E6400000000000000000000000000 PUSH0 DUP3 ADD MSTORE POP JUMP JUMPDEST PUSH0 PUSH2 0x10C7 PUSH1 0x13 DUP4 PUSH2 0x101B JUMP JUMPDEST SWAP2 POP PUSH2 0x10D2 DUP3 PUSH2 0x1093 JUMP JUMPDEST PUSH1 0x20 DUP3 ADD SWAP1 POP SWAP2 SWAP1 POP JUMP JUMPDEST PUSH0 PUSH1 0x20 DUP3 ADD SWAP1 POP DUP2 DUP2 SUB PUSH0 DUP4 ADD MSTORE PUSH2 0x10F4 DUP2 PUSH2 0x10BB JUMP JUMPDEST SWAP1 POP SWAP2 SWAP1 POP JUMP JUMPDEST PUSH32 0x496E76616C696420436F72652061646472657373000000000000000000000000 PUSH0 DUP3 ADD MSTORE POP JUMP JUMPDEST PUSH0 PUSH2 0x112F PUSH1 0x14 DUP4 PUSH2 0x101B JUMP JUMPDEST SWAP2 POP PUSH2 0x113A DUP3 PUSH2 0x10FB JUMP JUMPDEST PUSH1 0x20 DUP3 ADD SWAP1 POP SWAP2 SWAP1 POP JUMP JUMPDEST PUSH0 PUSH1 0x20 DUP3 ADD SWAP1 POP DUP2 DUP2 SUB PUSH0 DUP4 ADD MSTORE PUSH2 0x115C DUP2 PUSH2 0x1123 JUMP JUMPDEST SWAP1 POP SWAP2 SWAP1 POP JUMP INVALID LOG2 PUSH5 0x6970667358 0x22 SLT KECCAK256 SUB DUP6 CALLCODE KECCAK256 0xF6 0xAA DUP1 0xF9 TSTORE 0x2D 0xEC 0xF9 CALLDATACOPY PUSH5 0xDF167C918F PUSH31 0xBFEF711FA036133423F4B87E64736F6C634300081A00330000000000000000 "
				},
				"gasEstimates": {
					"creation": {
						"codeDepositCost": "901000",
						"executionCost": "infinite",
						"totalCost": "infinite"
					},
					"external": {
						"createInheritance(address,uint256,address[],uint16[])": "infinite",
						"getIfTestamentExist(address)": "2942",
						"getTestamentOf(address)": "infinite",
						"owner()": "2559",
						"proofOfLife()": "2509",
						"renounceOwnership()": "infinite",
						"setProofOfLife(address)": "infinite",
						"setProofOfLife(address,uint128)": "25082",
						"transferOwnership(address)": "infinite"
					}
				},
				"methodIdentifiers": {
					"createInheritance(address,uint256,address[],uint16[])": "3e1f040d",
					"getIfTestamentExist(address)": "cc7a64da",
					"getTestamentOf(address)": "5c0a3127",
					"owner()": "8da5cb5b",
					"proofOfLife()": "20888d1e",
					"renounceOwnership()": "715018a6",
					"setProofOfLife(address)": "6769e3dd",
					"setProofOfLife(address,uint128)": "4a5ffd09",
					"transferOwnership(address)": "f2fde38b"
				}
			},
			"storageLayout": {
				"storage": [
					{
						"astId": 347,
						"contract": ".deps/studying-solidity/v0.1/Testament/TestamentData.sol:TestamentData",
						"label": "_owner",
						"offset": 0,
						"slot": "0",
						"type": "t_address"
					},
					{
						"astId": 144,
						"contract": ".deps/studying-solidity/v0.1/Testament/TestamentData.sol:TestamentData",
						"label": "proofOfLife",
						"offset": 0,
						"slot": "1",
						"type": "t_address"
					},
					{
						"astId": 149,
						"contract": ".deps/studying-solidity/v0.1/Testament/TestamentData.sol:TestamentData",
						"label": "testaments",
						"offset": 0,
						"slot": "2",
						"type": "t_mapping(t_address,t_struct(Testament)140_storage)"
					},
					{
						"astId": 154,
						"contract": ".deps/studying-solidity/v0.1/Testament/TestamentData.sol:TestamentData",
						"label": "inheritorToTestators",
						"offset": 0,
						"slot": "3",
						"type": "t_mapping(t_address,t_array(t_address)dyn_storage)"
					}
				],
				"types": {
					"t_address": {
						"encoding": "inplace",
						"label": "address",
						"numberOfBytes": "20"
					},
					"t_array(t_address)dyn_storage": {
						"base": "t_address",
						"encoding": "dynamic_array",
						"label": "address[]",
						"numberOfBytes": "32"
					},
					"t_array(t_struct(Inheritor)129_storage)dyn_storage": {
						"base": "t_struct(Inheritor)129_storage",
						"encoding": "dynamic_array",
						"label": "struct Inheritor[]",
						"numberOfBytes": "32"
					},
					"t_bool": {
						"encoding": "inplace",
						"label": "bool",
						"numberOfBytes": "1"
					},
					"t_mapping(t_address,t_array(t_address)dyn_storage)": {
						"encoding": "mapping",
						"key": "t_address",
						"label": "mapping(address => address[])",
						"numberOfBytes": "32",
						"value": "t_array(t_address)dyn_storage"
					},
					"t_mapping(t_address,t_struct(Testament)140_storage)": {
						"encoding": "mapping",
						"key": "t_address",
						"label": "mapping(address => struct Testament)",
						"numberOfBytes": "32",
						"value": "t_struct(Testament)140_storage"
					},
					"t_struct(Inheritor)129_storage": {
						"encoding": "inplace",
						"label": "struct Inheritor",
						"members": [
							{
								"astId": 124,
								"contract": ".deps/studying-solidity/v0.1/Testament/TestamentData.sol:TestamentData",
								"label": "inheritorAddress",
								"offset": 0,
								"slot": "0",
								"type": "t_address"
							},
							{
								"astId": 126,
								"contract": ".deps/studying-solidity/v0.1/Testament/TestamentData.sol:TestamentData",
								"label": "percentage",
								"offset": 20,
								"slot": "0",
								"type": "t_uint16"
							},
							{
								"astId": 128,
								"contract": ".deps/studying-solidity/v0.1/Testament/TestamentData.sol:TestamentData",
								"label": "canWithdraw",
								"offset": 22,
								"slot": "0",
								"type": "t_bool"
							}
						],
						"numberOfBytes": "32"
					},
					"t_struct(Testament)140_storage": {
						"encoding": "inplace",
						"label": "struct Testament",
						"members": [
							{
								"astId": 133,
								"contract": ".deps/studying-solidity/v0.1/Testament/TestamentData.sol:TestamentData",
								"label": "inheritors",
								"offset": 0,
								"slot": "0",
								"type": "t_array(t_struct(Inheritor)129_storage)dyn_storage"
							},
							{
								"astId": 135,
								"contract": ".deps/studying-solidity/v0.1/Testament/TestamentData.sol:TestamentData",
								"label": "exist",
								"offset": 0,
								"slot": "1",
								"type": "t_bool"
							},
							{
								"astId": 137,
								"contract": ".deps/studying-solidity/v0.1/Testament/TestamentData.sol:TestamentData",
								"label": "lastProofOfLife",
								"offset": 1,
								"slot": "1",
								"type": "t_uint128"
							},
							{
								"astId": 139,
								"contract": ".deps/studying-solidity/v0.1/Testament/TestamentData.sol:TestamentData",
								"label": "inheritanceTotalValue",
								"offset": 0,
								"slot": "2",
								"type": "t_uint256"
							}
						],
						"numberOfBytes": "96"
					},
					"t_uint128": {
						"encoding": "inplace",
						"label": "uint128",
						"numberOfBytes": "16"
					},
					"t_uint16": {
						"encoding": "inplace",
						"label": "uint16",
						"numberOfBytes": "2"
					},
					"t_uint256": {
						"encoding": "inplace",
						"label": "uint256",
						"numberOfBytes": "32"
					}
				}
			},
			"userdoc": {
				"kind": "user",
				"methods": {},
				"version": 1
			}
		}
	}
}