{
	".deps/studying-solidity/v0.1/Testament/InheritanceManager.sol": {
		"InheritanceManager": {
			"abi": [
				{
					"inputs": [
						{
							"internalType": "address",
							"name": "initialOwner",
							"type": "address"
						}
					],
					"stateMutability": "nonpayable",
					"type": "constructor"
				},
				{
					"inputs": [
						{
							"internalType": "address",
							"name": "owner",
							"type": "address"
						}
					],
					"name": "OwnableInvalidOwner",
					"type": "error"
				},
				{
					"inputs": [
						{
							"internalType": "address",
							"name": "account",
							"type": "address"
						}
					],
					"name": "OwnableUnauthorizedAccount",
					"type": "error"
				},
				{
					"anonymous": false,
					"inputs": [
						{
							"indexed": true,
							"internalType": "address",
							"name": "previousOwner",
							"type": "address"
						},
						{
							"indexed": true,
							"internalType": "address",
							"name": "newOwner",
							"type": "address"
						}
					],
					"name": "OwnershipTransferred",
					"type": "event"
				},
				{
					"inputs": [
						{
							"internalType": "uint256",
							"name": "amount",
							"type": "uint256"
						},
						{
							"internalType": "address[]",
							"name": "_addresses",
							"type": "address[]"
						},
						{
							"internalType": "uint16[]",
							"name": "_percentagens",
							"type": "uint16[]"
						}
					],
					"name": "createInheritance",
					"outputs": [],
					"stateMutability": "payable",
					"type": "function"
				},
				{
					"inputs": [],
					"name": "owner",
					"outputs": [
						{
							"internalType": "address",
							"name": "",
							"type": "address"
						}
					],
					"stateMutability": "view",
					"type": "function"
				},
				{
					"inputs": [],
					"name": "renounceOwnership",
					"outputs": [],
					"stateMutability": "nonpayable",
					"type": "function"
				},
				{
					"inputs": [],
					"name": "testamentData",
					"outputs": [
						{
							"internalType": "address",
							"name": "",
							"type": "address"
						}
					],
					"stateMutability": "view",
					"type": "function"
				},
				{
					"inputs": [
						{
							"internalType": "address",
							"name": "newOwner",
							"type": "address"
						}
					],
					"name": "transferOwnership",
					"outputs": [],
					"stateMutability": "nonpayable",
					"type": "function"
				}
			],
			"devdoc": {
				"errors": {
					"OwnableInvalidOwner(address)": [
						{
							"details": "The owner is not a valid owner account. (eg. `address(0)`)"
						}
					],
					"OwnableUnauthorizedAccount(address)": [
						{
							"details": "The caller account is not authorized to perform an operation."
						}
					]
				},
				"kind": "dev",
				"methods": {
					"owner()": {
						"details": "Returns the address of the current owner."
					},
					"renounceOwnership()": {
						"details": "Leaves the contract without owner. It will not be possible to call `onlyOwner` functions. Can only be called by the current owner. NOTE: Renouncing ownership will leave the contract without an owner, thereby disabling any functionality that is only available to the owner."
					},
					"transferOwnership(address)": {
						"details": "Transfers ownership of the contract to a new account (`newOwner`). Can only be called by the current owner."
					}
				},
				"version": 1
			},
			"evm": {
				"assembly": "    /* \".deps/studying-solidity/v0.1/Testament/InheritanceManager.sol\":356:1270  contract InheritanceManager is Ownable {... */\n  mstore(0x40, 0x80)\n    /* \".deps/studying-solidity/v0.1/Testament/InheritanceManager.sol\":436:494  constructor(address initialOwner) Ownable(initialOwner) {} */\n  callvalue\n  dup1\n  iszero\n  tag_1\n  jumpi\n  0x00\n  dup1\n  revert\ntag_1:\n  pop\n  mload(0x40)\n  sub(codesize, bytecodeSize)\n  dup1\n  bytecodeSize\n  dup4\n  codecopy\n  dup2\n  dup2\n  add\n  0x40\n  mstore\n  dup2\n  add\n  swap1\n  tag_2\n  swap2\n  swap1\n  tag_3\n  jump\t// in\ntag_2:\n    /* \".deps/studying-solidity/v0.1/Testament/InheritanceManager.sol\":478:490  initialOwner */\n  dup1\n    /* \"@openzeppelin/contracts/access/Ownable.sol\":1297:1298  0 */\n  0x00\n    /* \"@openzeppelin/contracts/access/Ownable.sol\":1273:1299  initialOwner == address(0) */\n  0xffffffffffffffffffffffffffffffffffffffff\n  and\n    /* \"@openzeppelin/contracts/access/Ownable.sol\":1273:1285  initialOwner */\n  dup2\n    /* \"@openzeppelin/contracts/access/Ownable.sol\":1273:1299  initialOwner == address(0) */\n  0xffffffffffffffffffffffffffffffffffffffff\n  and\n  sub\n    /* \"@openzeppelin/contracts/access/Ownable.sol\":1269:1364  if (initialOwner == address(0)) {... */\n  tag_7\n  jumpi\n    /* \"@openzeppelin/contracts/access/Ownable.sol\":1350:1351  0 */\n  0x00\n    /* \"@openzeppelin/contracts/access/Ownable.sol\":1322:1353  OwnableInvalidOwner(address(0)) */\n  mload(0x40)\n  0x1e4fbdf700000000000000000000000000000000000000000000000000000000\n  dup2\n  mstore\n  0x04\n  add\n  tag_8\n  swap2\n  swap1\n  tag_9\n  jump\t// in\ntag_8:\n  mload(0x40)\n  dup1\n  swap2\n  sub\n  swap1\n  revert\n    /* \"@openzeppelin/contracts/access/Ownable.sol\":1269:1364  if (initialOwner == address(0)) {... */\ntag_7:\n    /* \"@openzeppelin/contracts/access/Ownable.sol\":1373:1405  _transferOwnership(initialOwner) */\n  tag_10\n    /* \"@openzeppelin/contracts/access/Ownable.sol\":1392:1404  initialOwner */\n  dup2\n    /* \"@openzeppelin/contracts/access/Ownable.sol\":1373:1391  _transferOwnership */\n  shl(0x20, tag_11)\n    /* \"@openzeppelin/contracts/access/Ownable.sol\":1373:1405  _transferOwnership(initialOwner) */\n  0x20\n  shr\n  jump\t// in\ntag_10:\n    /* \"@openzeppelin/contracts/access/Ownable.sol\":1225:1412  constructor(address initialOwner) {... */\n  pop\n    /* \".deps/studying-solidity/v0.1/Testament/InheritanceManager.sol\":436:494  constructor(address initialOwner) Ownable(initialOwner) {} */\n  pop\n    /* \".deps/studying-solidity/v0.1/Testament/InheritanceManager.sol\":356:1270  contract InheritanceManager is Ownable {... */\n  jump(tag_13)\n    /* \"@openzeppelin/contracts/access/Ownable.sol\":2912:3099  function _transferOwnership(address newOwner) internal virtual {... */\ntag_11:\n    /* \"@openzeppelin/contracts/access/Ownable.sol\":2985:3001  address oldOwner */\n  0x00\n    /* \"@openzeppelin/contracts/access/Ownable.sol\":3004:3010  _owner */\n  dup1\n  0x00\n  swap1\n  sload\n  swap1\n  0x0100\n  exp\n  swap1\n  div\n  0xffffffffffffffffffffffffffffffffffffffff\n  and\n    /* \"@openzeppelin/contracts/access/Ownable.sol\":2985:3010  address oldOwner = _owner */\n  swap1\n  pop\n    /* \"@openzeppelin/contracts/access/Ownable.sol\":3029:3037  newOwner */\n  dup2\n    /* \"@openzeppelin/contracts/access/Ownable.sol\":3020:3026  _owner */\n  0x00\n  dup1\n    /* \"@openzeppelin/contracts/access/Ownable.sol\":3020:3037  _owner = newOwner */\n  0x0100\n  exp\n  dup2\n  sload\n  dup2\n  0xffffffffffffffffffffffffffffffffffffffff\n  mul\n  not\n  and\n  swap1\n  dup4\n  0xffffffffffffffffffffffffffffffffffffffff\n  and\n  mul\n  or\n  swap1\n  sstore\n  pop\n    /* \"@openzeppelin/contracts/access/Ownable.sol\":3083:3091  newOwner */\n  dup2\n    /* \"@openzeppelin/contracts/access/Ownable.sol\":3052:3092  OwnershipTransferred(oldOwner, newOwner) */\n  0xffffffffffffffffffffffffffffffffffffffff\n  and\n    /* \"@openzeppelin/contracts/access/Ownable.sol\":3073:3081  oldOwner */\n  dup2\n    /* \"@openzeppelin/contracts/access/Ownable.sol\":3052:3092  OwnershipTransferred(oldOwner, newOwner) */\n  0xffffffffffffffffffffffffffffffffffffffff\n  and\n  0x8be0079c531659141344cd1fd0a4f28419497f9722a3daafe3b4186f6b6457e0\n  mload(0x40)\n  mload(0x40)\n  dup1\n  swap2\n  sub\n  swap1\n  log3\n    /* \"@openzeppelin/contracts/access/Ownable.sol\":2975:3099  {... */\n  pop\n    /* \"@openzeppelin/contracts/access/Ownable.sol\":2912:3099  function _transferOwnership(address newOwner) internal virtual {... */\n  pop\n  jump\t// out\n    /* \"#utility.yul\":88:205   */\ntag_16:\n    /* \"#utility.yul\":197:198   */\n  0x00\n    /* \"#utility.yul\":194:195   */\n  dup1\n    /* \"#utility.yul\":187:199   */\n  revert\n    /* \"#utility.yul\":334:460   */\ntag_18:\n    /* \"#utility.yul\":371:378   */\n  0x00\n    /* \"#utility.yul\":411:453   */\n  0xffffffffffffffffffffffffffffffffffffffff\n    /* \"#utility.yul\":404:409   */\n  dup3\n    /* \"#utility.yul\":400:454   */\n  and\n    /* \"#utility.yul\":389:454   */\n  swap1\n  pop\n    /* \"#utility.yul\":334:460   */\n  swap2\n  swap1\n  pop\n  jump\t// out\n    /* \"#utility.yul\":466:562   */\ntag_19:\n    /* \"#utility.yul\":503:510   */\n  0x00\n    /* \"#utility.yul\":532:556   */\n  tag_29\n    /* \"#utility.yul\":550:555   */\n  dup3\n    /* \"#utility.yul\":532:556   */\n  tag_18\n  jump\t// in\ntag_29:\n    /* \"#utility.yul\":521:556   */\n  swap1\n  pop\n    /* \"#utility.yul\":466:562   */\n  swap2\n  swap1\n  pop\n  jump\t// out\n    /* \"#utility.yul\":568:690   */\ntag_20:\n    /* \"#utility.yul\":641:665   */\n  tag_31\n    /* \"#utility.yul\":659:664   */\n  dup2\n    /* \"#utility.yul\":641:665   */\n  tag_19\n  jump\t// in\ntag_31:\n    /* \"#utility.yul\":634:639   */\n  dup2\n    /* \"#utility.yul\":631:666   */\n  eq\n    /* \"#utility.yul\":621:684   */\n  tag_32\n  jumpi\n    /* \"#utility.yul\":680:681   */\n  0x00\n    /* \"#utility.yul\":677:678   */\n  dup1\n    /* \"#utility.yul\":670:682   */\n  revert\n    /* \"#utility.yul\":621:684   */\ntag_32:\n    /* \"#utility.yul\":568:690   */\n  pop\n  jump\t// out\n    /* \"#utility.yul\":696:839   */\ntag_21:\n    /* \"#utility.yul\":753:758   */\n  0x00\n    /* \"#utility.yul\":784:790   */\n  dup2\n    /* \"#utility.yul\":778:791   */\n  mload\n    /* \"#utility.yul\":769:791   */\n  swap1\n  pop\n    /* \"#utility.yul\":800:833   */\n  tag_34\n    /* \"#utility.yul\":827:832   */\n  dup2\n    /* \"#utility.yul\":800:833   */\n  tag_20\n  jump\t// in\ntag_34:\n    /* \"#utility.yul\":696:839   */\n  swap3\n  swap2\n  pop\n  pop\n  jump\t// out\n    /* \"#utility.yul\":845:1196   */\ntag_3:\n    /* \"#utility.yul\":915:921   */\n  0x00\n    /* \"#utility.yul\":964:966   */\n  0x20\n    /* \"#utility.yul\":952:961   */\n  dup3\n    /* \"#utility.yul\":943:950   */\n  dup5\n    /* \"#utility.yul\":939:962   */\n  sub\n    /* \"#utility.yul\":935:967   */\n  slt\n    /* \"#utility.yul\":932:1051   */\n  iszero\n  tag_36\n  jumpi\n    /* \"#utility.yul\":970:1049   */\n  tag_37\n  tag_16\n  jump\t// in\ntag_37:\n    /* \"#utility.yul\":932:1051   */\ntag_36:\n    /* \"#utility.yul\":1090:1091   */\n  0x00\n    /* \"#utility.yul\":1115:1179   */\n  tag_38\n    /* \"#utility.yul\":1171:1178   */\n  dup5\n    /* \"#utility.yul\":1162:1168   */\n  dup3\n    /* \"#utility.yul\":1151:1160   */\n  dup6\n    /* \"#utility.yul\":1147:1169   */\n  add\n    /* \"#utility.yul\":1115:1179   */\n  tag_21\n  jump\t// in\ntag_38:\n    /* \"#utility.yul\":1105:1179   */\n  swap2\n  pop\n    /* \"#utility.yul\":1061:1189   */\n  pop\n    /* \"#utility.yul\":845:1196   */\n  swap3\n  swap2\n  pop\n  pop\n  jump\t// out\n    /* \"#utility.yul\":1202:1320   */\ntag_22:\n    /* \"#utility.yul\":1289:1313   */\n  tag_40\n    /* \"#utility.yul\":1307:1312   */\n  dup2\n    /* \"#utility.yul\":1289:1313   */\n  tag_19\n  jump\t// in\ntag_40:\n    /* \"#utility.yul\":1284:1287   */\n  dup3\n    /* \"#utility.yul\":1277:1314   */\n  mstore\n    /* \"#utility.yul\":1202:1320   */\n  pop\n  pop\n  jump\t// out\n    /* \"#utility.yul\":1326:1548   */\ntag_9:\n    /* \"#utility.yul\":1419:1423   */\n  0x00\n    /* \"#utility.yul\":1457:1459   */\n  0x20\n    /* \"#utility.yul\":1446:1455   */\n  dup3\n    /* \"#utility.yul\":1442:1460   */\n  add\n    /* \"#utility.yul\":1434:1460   */\n  swap1\n  pop\n    /* \"#utility.yul\":1470:1541   */\n  tag_42\n    /* \"#utility.yul\":1538:1539   */\n  0x00\n    /* \"#utility.yul\":1527:1536   */\n  dup4\n    /* \"#utility.yul\":1523:1540   */\n  add\n    /* \"#utility.yul\":1514:1520   */\n  dup5\n    /* \"#utility.yul\":1470:1541   */\n  tag_22\n  jump\t// in\ntag_42:\n    /* \"#utility.yul\":1326:1548   */\n  swap3\n  swap2\n  pop\n  pop\n  jump\t// out\n    /* \".deps/studying-solidity/v0.1/Testament/InheritanceManager.sol\":356:1270  contract InheritanceManager is Ownable {... */\ntag_13:\n  dataSize(sub_0)\n  dup1\n  dataOffset(sub_0)\n  0x00\n  codecopy\n  0x00\n  return\nstop\n\nsub_0: assembly {\n        /* \".deps/studying-solidity/v0.1/Testament/InheritanceManager.sol\":356:1270  contract InheritanceManager is Ownable {... */\n      mstore(0x40, 0x80)\n      jumpi(tag_1, lt(calldatasize, 0x04))\n      shr(0xe0, calldataload(0x00))\n      dup1\n      0x6f6a30f3\n      eq\n      tag_2\n      jumpi\n      dup1\n      0x715018a6\n      eq\n      tag_3\n      jumpi\n      dup1\n      0x8adc7d54\n      eq\n      tag_4\n      jumpi\n      dup1\n      0x8da5cb5b\n      eq\n      tag_5\n      jumpi\n      dup1\n      0xf2fde38b\n      eq\n      tag_6\n      jumpi\n    tag_1:\n      0x00\n      dup1\n      revert\n        /* \".deps/studying-solidity/v0.1/Testament/InheritanceManager.sol\":401:429  address public testamentData */\n    tag_2:\n      callvalue\n      dup1\n      iszero\n      tag_7\n      jumpi\n      0x00\n      dup1\n      revert\n    tag_7:\n      pop\n      tag_8\n      tag_9\n      jump\t// in\n    tag_8:\n      mload(0x40)\n      tag_10\n      swap2\n      swap1\n      tag_11\n      jump\t// in\n    tag_10:\n      mload(0x40)\n      dup1\n      swap2\n      sub\n      swap1\n      return\n        /* \"@openzeppelin/contracts/access/Ownable.sol\":2293:2394  function renounceOwnership() public virtual onlyOwner {... */\n    tag_3:\n      callvalue\n      dup1\n      iszero\n      tag_12\n      jumpi\n      0x00\n      dup1\n      revert\n    tag_12:\n      pop\n      tag_13\n      tag_14\n      jump\t// in\n    tag_13:\n      stop\n        /* \".deps/studying-solidity/v0.1/Testament/InheritanceManager.sol\":500:1268  function createInheritance(... */\n    tag_4:\n      tag_15\n      0x04\n      dup1\n      calldatasize\n      sub\n      dup2\n      add\n      swap1\n      tag_16\n      swap2\n      swap1\n      tag_17\n      jump\t// in\n    tag_16:\n      tag_18\n      jump\t// in\n    tag_15:\n      stop\n        /* \"@openzeppelin/contracts/access/Ownable.sol\":1638:1723  function owner() public view virtual returns (address) {... */\n    tag_5:\n      callvalue\n      dup1\n      iszero\n      tag_19\n      jumpi\n      0x00\n      dup1\n      revert\n    tag_19:\n      pop\n      tag_20\n      tag_21\n      jump\t// in\n    tag_20:\n      mload(0x40)\n      tag_22\n      swap2\n      swap1\n      tag_11\n      jump\t// in\n    tag_22:\n      mload(0x40)\n      dup1\n      swap2\n      sub\n      swap1\n      return\n        /* \"@openzeppelin/contracts/access/Ownable.sol\":2543:2758  function transferOwnership(address newOwner) public virtual onlyOwner {... */\n    tag_6:\n      callvalue\n      dup1\n      iszero\n      tag_23\n      jumpi\n      0x00\n      dup1\n      revert\n    tag_23:\n      pop\n      tag_24\n      0x04\n      dup1\n      calldatasize\n      sub\n      dup2\n      add\n      swap1\n      tag_25\n      swap2\n      swap1\n      tag_26\n      jump\t// in\n    tag_25:\n      tag_27\n      jump\t// in\n    tag_24:\n      stop\n        /* \".deps/studying-solidity/v0.1/Testament/InheritanceManager.sol\":401:429  address public testamentData */\n    tag_9:\n      0x01\n      0x00\n      swap1\n      sload\n      swap1\n      0x0100\n      exp\n      swap1\n      div\n      0xffffffffffffffffffffffffffffffffffffffff\n      and\n      dup2\n      jump\t// out\n        /* \"@openzeppelin/contracts/access/Ownable.sol\":2293:2394  function renounceOwnership() public virtual onlyOwner {... */\n    tag_14:\n        /* \"@openzeppelin/contracts/access/Ownable.sol\":1531:1544  _checkOwner() */\n      tag_29\n        /* \"@openzeppelin/contracts/access/Ownable.sol\":1531:1542  _checkOwner */\n      tag_30\n        /* \"@openzeppelin/contracts/access/Ownable.sol\":1531:1544  _checkOwner() */\n      jump\t// in\n    tag_29:\n        /* \"@openzeppelin/contracts/access/Ownable.sol\":2357:2387  _transferOwnership(address(0)) */\n      tag_32\n        /* \"@openzeppelin/contracts/access/Ownable.sol\":2384:2385  0 */\n      0x00\n        /* \"@openzeppelin/contracts/access/Ownable.sol\":2357:2375  _transferOwnership */\n      tag_33\n        /* \"@openzeppelin/contracts/access/Ownable.sol\":2357:2387  _transferOwnership(address(0)) */\n      jump\t// in\n    tag_32:\n        /* \"@openzeppelin/contracts/access/Ownable.sol\":2293:2394  function renounceOwnership() public virtual onlyOwner {... */\n      jump\t// out\n        /* \".deps/studying-solidity/v0.1/Testament/InheritanceManager.sol\":500:1268  function createInheritance(... */\n    tag_18:\n        /* \".deps/studying-solidity/v0.1/Testament/InheritanceManager.sol\":731:732  0 */\n      0x00\n        /* \".deps/studying-solidity/v0.1/Testament/InheritanceManager.sol\":718:727  msg.value */\n      callvalue\n        /* \".deps/studying-solidity/v0.1/Testament/InheritanceManager.sol\":718:732  msg.value != 0 */\n      sub\n        /* \".deps/studying-solidity/v0.1/Testament/InheritanceManager.sol\":710:772  require(msg.value != 0, \"createInheritance(), valor invalido\") */\n      tag_35\n      jumpi\n      mload(0x40)\n      0x08c379a000000000000000000000000000000000000000000000000000000000\n      dup2\n      mstore\n      0x04\n      add\n      tag_36\n      swap1\n      tag_37\n      jump\t// in\n    tag_36:\n      mload(0x40)\n      dup1\n      swap2\n      sub\n      swap1\n      revert\n    tag_35:\n        /* \".deps/studying-solidity/v0.1/Testament/InheritanceManager.sol\":824:825  0 */\n      0x00\n        /* \".deps/studying-solidity/v0.1/Testament/InheritanceManager.sol\":803:813  _addresses */\n      dup5\n      dup5\n        /* \".deps/studying-solidity/v0.1/Testament/InheritanceManager.sol\":803:820  _addresses.length */\n      swap1\n      pop\n        /* \".deps/studying-solidity/v0.1/Testament/InheritanceManager.sol\":803:825  _addresses.length != 0 */\n      sub\n        /* \".deps/studying-solidity/v0.1/Testament/InheritanceManager.sol\":782:893  require(... */\n      tag_38\n      jumpi\n      mload(0x40)\n      0x08c379a000000000000000000000000000000000000000000000000000000000\n      dup2\n      mstore\n      0x04\n      add\n      tag_39\n      swap1\n      tag_40\n      jump\t// in\n    tag_39:\n      mload(0x40)\n      dup1\n      swap2\n      sub\n      swap1\n      revert\n    tag_38:\n        /* \".deps/studying-solidity/v0.1/Testament/InheritanceManager.sol\":945:958  _percentagens */\n      dup2\n      dup2\n        /* \".deps/studying-solidity/v0.1/Testament/InheritanceManager.sol\":945:965  _percentagens.length */\n      swap1\n      pop\n        /* \".deps/studying-solidity/v0.1/Testament/InheritanceManager.sol\":924:934  _addresses */\n      dup5\n      dup5\n        /* \".deps/studying-solidity/v0.1/Testament/InheritanceManager.sol\":924:941  _addresses.length */\n      swap1\n      pop\n        /* \".deps/studying-solidity/v0.1/Testament/InheritanceManager.sol\":924:965  _addresses.length == _percentagens.length */\n      eq\n        /* \".deps/studying-solidity/v0.1/Testament/InheritanceManager.sol\":903:1061  require(... */\n      tag_41\n      jumpi\n      mload(0x40)\n      0x08c379a000000000000000000000000000000000000000000000000000000000\n      dup2\n      mstore\n      0x04\n      add\n      tag_42\n      swap1\n      tag_43\n      jump\t// in\n    tag_42:\n      mload(0x40)\n      dup1\n      swap2\n      sub\n      swap1\n      revert\n    tag_41:\n        /* \".deps/studying-solidity/v0.1/Testament/InheritanceManager.sol\":1071:1087  address testator */\n      0x00\n        /* \".deps/studying-solidity/v0.1/Testament/InheritanceManager.sol\":1090:1100  msg.sender */\n      caller\n        /* \".deps/studying-solidity/v0.1/Testament/InheritanceManager.sol\":1071:1100  address testator = msg.sender */\n      swap1\n      pop\n        /* \".deps/studying-solidity/v0.1/Testament/InheritanceManager.sol\":1126:1139  testamentData */\n      0x01\n      0x00\n      swap1\n      sload\n      swap1\n      0x0100\n      exp\n      swap1\n      div\n      0xffffffffffffffffffffffffffffffffffffffff\n      and\n        /* \".deps/studying-solidity/v0.1/Testament/InheritanceManager.sol\":1111:1158  ITestamentData(testamentData).createInheritance */\n      0xffffffffffffffffffffffffffffffffffffffff\n      and\n      0x3e1f040d\n        /* \".deps/studying-solidity/v0.1/Testament/InheritanceManager.sol\":1172:1180  testator */\n      dup3\n        /* \".deps/studying-solidity/v0.1/Testament/InheritanceManager.sol\":1194:1200  amount */\n      dup9\n        /* \".deps/studying-solidity/v0.1/Testament/InheritanceManager.sol\":1214:1224  _addresses */\n      dup9\n      dup9\n        /* \".deps/studying-solidity/v0.1/Testament/InheritanceManager.sol\":1238:1251  _percentagens */\n      dup9\n      dup9\n        /* \".deps/studying-solidity/v0.1/Testament/InheritanceManager.sol\":1111:1261  ITestamentData(testamentData).createInheritance(... */\n      mload(0x40)\n      dup8\n      0xffffffff\n      and\n      0xe0\n      shl\n      dup2\n      mstore\n      0x04\n      add\n      tag_44\n      swap7\n      swap6\n      swap5\n      swap4\n      swap3\n      swap2\n      swap1\n      tag_45\n      jump\t// in\n    tag_44:\n      0x00\n      mload(0x40)\n      dup1\n      dup4\n      sub\n      dup2\n      0x00\n      dup8\n      dup1\n      extcodesize\n      iszero\n      dup1\n      iszero\n      tag_46\n      jumpi\n      0x00\n      dup1\n      revert\n    tag_46:\n      pop\n      gas\n      call\n      iszero\n      dup1\n      iszero\n      tag_48\n      jumpi\n      returndatasize\n      0x00\n      dup1\n      returndatacopy\n      revert(0x00, returndatasize)\n    tag_48:\n      pop\n      pop\n      pop\n      pop\n        /* \".deps/studying-solidity/v0.1/Testament/InheritanceManager.sol\":654:1268  {... */\n      pop\n        /* \".deps/studying-solidity/v0.1/Testament/InheritanceManager.sol\":500:1268  function createInheritance(... */\n      pop\n      pop\n      pop\n      pop\n      pop\n      jump\t// out\n        /* \"@openzeppelin/contracts/access/Ownable.sol\":1638:1723  function owner() public view virtual returns (address) {... */\n    tag_21:\n        /* \"@openzeppelin/contracts/access/Ownable.sol\":1684:1691  address */\n      0x00\n        /* \"@openzeppelin/contracts/access/Ownable.sol\":1710:1716  _owner */\n      dup1\n      0x00\n      swap1\n      sload\n      swap1\n      0x0100\n      exp\n      swap1\n      div\n      0xffffffffffffffffffffffffffffffffffffffff\n      and\n        /* \"@openzeppelin/contracts/access/Ownable.sol\":1703:1716  return _owner */\n      swap1\n      pop\n        /* \"@openzeppelin/contracts/access/Ownable.sol\":1638:1723  function owner() public view virtual returns (address) {... */\n      swap1\n      jump\t// out\n        /* \"@openzeppelin/contracts/access/Ownable.sol\":2543:2758  function transferOwnership(address newOwner) public virtual onlyOwner {... */\n    tag_27:\n        /* \"@openzeppelin/contracts/access/Ownable.sol\":1531:1544  _checkOwner() */\n      tag_51\n        /* \"@openzeppelin/contracts/access/Ownable.sol\":1531:1542  _checkOwner */\n      tag_30\n        /* \"@openzeppelin/contracts/access/Ownable.sol\":1531:1544  _checkOwner() */\n      jump\t// in\n    tag_51:\n        /* \"@openzeppelin/contracts/access/Ownable.sol\":2647:2648  0 */\n      0x00\n        /* \"@openzeppelin/contracts/access/Ownable.sol\":2627:2649  newOwner == address(0) */\n      0xffffffffffffffffffffffffffffffffffffffff\n      and\n        /* \"@openzeppelin/contracts/access/Ownable.sol\":2627:2635  newOwner */\n      dup2\n        /* \"@openzeppelin/contracts/access/Ownable.sol\":2627:2649  newOwner == address(0) */\n      0xffffffffffffffffffffffffffffffffffffffff\n      and\n      sub\n        /* \"@openzeppelin/contracts/access/Ownable.sol\":2623:2714  if (newOwner == address(0)) {... */\n      tag_53\n      jumpi\n        /* \"@openzeppelin/contracts/access/Ownable.sol\":2700:2701  0 */\n      0x00\n        /* \"@openzeppelin/contracts/access/Ownable.sol\":2672:2703  OwnableInvalidOwner(address(0)) */\n      mload(0x40)\n      0x1e4fbdf700000000000000000000000000000000000000000000000000000000\n      dup2\n      mstore\n      0x04\n      add\n      tag_54\n      swap2\n      swap1\n      tag_11\n      jump\t// in\n    tag_54:\n      mload(0x40)\n      dup1\n      swap2\n      sub\n      swap1\n      revert\n        /* \"@openzeppelin/contracts/access/Ownable.sol\":2623:2714  if (newOwner == address(0)) {... */\n    tag_53:\n        /* \"@openzeppelin/contracts/access/Ownable.sol\":2723:2751  _transferOwnership(newOwner) */\n      tag_55\n        /* \"@openzeppelin/contracts/access/Ownable.sol\":2742:2750  newOwner */\n      dup2\n        /* \"@openzeppelin/contracts/access/Ownable.sol\":2723:2741  _transferOwnership */\n      tag_33\n        /* \"@openzeppelin/contracts/access/Ownable.sol\":2723:2751  _transferOwnership(newOwner) */\n      jump\t// in\n    tag_55:\n        /* \"@openzeppelin/contracts/access/Ownable.sol\":2543:2758  function transferOwnership(address newOwner) public virtual onlyOwner {... */\n      pop\n      jump\t// out\n        /* \"@openzeppelin/contracts/access/Ownable.sol\":1796:1958  function _checkOwner() internal view virtual {... */\n    tag_30:\n        /* \"@openzeppelin/contracts/access/Ownable.sol\":1866:1878  _msgSender() */\n      tag_57\n        /* \"@openzeppelin/contracts/access/Ownable.sol\":1866:1876  _msgSender */\n      tag_58\n        /* \"@openzeppelin/contracts/access/Ownable.sol\":1866:1878  _msgSender() */\n      jump\t// in\n    tag_57:\n        /* \"@openzeppelin/contracts/access/Ownable.sol\":1855:1878  owner() != _msgSender() */\n      0xffffffffffffffffffffffffffffffffffffffff\n      and\n        /* \"@openzeppelin/contracts/access/Ownable.sol\":1855:1862  owner() */\n      tag_59\n        /* \"@openzeppelin/contracts/access/Ownable.sol\":1855:1860  owner */\n      tag_21\n        /* \"@openzeppelin/contracts/access/Ownable.sol\":1855:1862  owner() */\n      jump\t// in\n    tag_59:\n        /* \"@openzeppelin/contracts/access/Ownable.sol\":1855:1878  owner() != _msgSender() */\n      0xffffffffffffffffffffffffffffffffffffffff\n      and\n      eq\n        /* \"@openzeppelin/contracts/access/Ownable.sol\":1851:1952  if (owner() != _msgSender()) {... */\n      tag_60\n      jumpi\n        /* \"@openzeppelin/contracts/access/Ownable.sol\":1928:1940  _msgSender() */\n      tag_61\n        /* \"@openzeppelin/contracts/access/Ownable.sol\":1928:1938  _msgSender */\n      tag_58\n        /* \"@openzeppelin/contracts/access/Ownable.sol\":1928:1940  _msgSender() */\n      jump\t// in\n    tag_61:\n        /* \"@openzeppelin/contracts/access/Ownable.sol\":1901:1941  OwnableUnauthorizedAccount(_msgSender()) */\n      mload(0x40)\n      0x118cdaa700000000000000000000000000000000000000000000000000000000\n      dup2\n      mstore\n      0x04\n      add\n      tag_62\n      swap2\n      swap1\n      tag_11\n      jump\t// in\n    tag_62:\n      mload(0x40)\n      dup1\n      swap2\n      sub\n      swap1\n      revert\n        /* \"@openzeppelin/contracts/access/Ownable.sol\":1851:1952  if (owner() != _msgSender()) {... */\n    tag_60:\n        /* \"@openzeppelin/contracts/access/Ownable.sol\":1796:1958  function _checkOwner() internal view virtual {... */\n      jump\t// out\n        /* \"@openzeppelin/contracts/access/Ownable.sol\":2912:3099  function _transferOwnership(address newOwner) internal virtual {... */\n    tag_33:\n        /* \"@openzeppelin/contracts/access/Ownable.sol\":2985:3001  address oldOwner */\n      0x00\n        /* \"@openzeppelin/contracts/access/Ownable.sol\":3004:3010  _owner */\n      dup1\n      0x00\n      swap1\n      sload\n      swap1\n      0x0100\n      exp\n      swap1\n      div\n      0xffffffffffffffffffffffffffffffffffffffff\n      and\n        /* \"@openzeppelin/contracts/access/Ownable.sol\":2985:3010  address oldOwner = _owner */\n      swap1\n      pop\n        /* \"@openzeppelin/contracts/access/Ownable.sol\":3029:3037  newOwner */\n      dup2\n        /* \"@openzeppelin/contracts/access/Ownable.sol\":3020:3026  _owner */\n      0x00\n      dup1\n        /* \"@openzeppelin/contracts/access/Ownable.sol\":3020:3037  _owner = newOwner */\n      0x0100\n      exp\n      dup2\n      sload\n      dup2\n      0xffffffffffffffffffffffffffffffffffffffff\n      mul\n      not\n      and\n      swap1\n      dup4\n      0xffffffffffffffffffffffffffffffffffffffff\n      and\n      mul\n      or\n      swap1\n      sstore\n      pop\n        /* \"@openzeppelin/contracts/access/Ownable.sol\":3083:3091  newOwner */\n      dup2\n        /* \"@openzeppelin/contracts/access/Ownable.sol\":3052:3092  OwnershipTransferred(oldOwner, newOwner) */\n      0xffffffffffffffffffffffffffffffffffffffff\n      and\n        /* \"@openzeppelin/contracts/access/Ownable.sol\":3073:3081  oldOwner */\n      dup2\n        /* \"@openzeppelin/contracts/access/Ownable.sol\":3052:3092  OwnershipTransferred(oldOwner, newOwner) */\n      0xffffffffffffffffffffffffffffffffffffffff\n      and\n      0x8be0079c531659141344cd1fd0a4f28419497f9722a3daafe3b4186f6b6457e0\n      mload(0x40)\n      mload(0x40)\n      dup1\n      swap2\n      sub\n      swap1\n      log3\n        /* \"@openzeppelin/contracts/access/Ownable.sol\":2975:3099  {... */\n      pop\n        /* \"@openzeppelin/contracts/access/Ownable.sol\":2912:3099  function _transferOwnership(address newOwner) internal virtual {... */\n      pop\n      jump\t// out\n        /* \"@openzeppelin/contracts/utils/Context.sol\":656:752  function _msgSender() internal view virtual returns (address) {... */\n    tag_58:\n        /* \"@openzeppelin/contracts/utils/Context.sol\":709:716  address */\n      0x00\n        /* \"@openzeppelin/contracts/utils/Context.sol\":735:745  msg.sender */\n      caller\n        /* \"@openzeppelin/contracts/utils/Context.sol\":728:745  return msg.sender */\n      swap1\n      pop\n        /* \"@openzeppelin/contracts/utils/Context.sol\":656:752  function _msgSender() internal view virtual returns (address) {... */\n      swap1\n      jump\t// out\n        /* \"#utility.yul\":7:133   */\n    tag_65:\n        /* \"#utility.yul\":44:51   */\n      0x00\n        /* \"#utility.yul\":84:126   */\n      0xffffffffffffffffffffffffffffffffffffffff\n        /* \"#utility.yul\":77:82   */\n      dup3\n        /* \"#utility.yul\":73:127   */\n      and\n        /* \"#utility.yul\":62:127   */\n      swap1\n      pop\n        /* \"#utility.yul\":7:133   */\n      swap2\n      swap1\n      pop\n      jump\t// out\n        /* \"#utility.yul\":139:235   */\n    tag_66:\n        /* \"#utility.yul\":176:183   */\n      0x00\n        /* \"#utility.yul\":205:229   */\n      tag_109\n        /* \"#utility.yul\":223:228   */\n      dup3\n        /* \"#utility.yul\":205:229   */\n      tag_65\n      jump\t// in\n    tag_109:\n        /* \"#utility.yul\":194:229   */\n      swap1\n      pop\n        /* \"#utility.yul\":139:235   */\n      swap2\n      swap1\n      pop\n      jump\t// out\n        /* \"#utility.yul\":241:359   */\n    tag_67:\n        /* \"#utility.yul\":328:352   */\n      tag_111\n        /* \"#utility.yul\":346:351   */\n      dup2\n        /* \"#utility.yul\":328:352   */\n      tag_66\n      jump\t// in\n    tag_111:\n        /* \"#utility.yul\":323:326   */\n      dup3\n        /* \"#utility.yul\":316:353   */\n      mstore\n        /* \"#utility.yul\":241:359   */\n      pop\n      pop\n      jump\t// out\n        /* \"#utility.yul\":365:587   */\n    tag_11:\n        /* \"#utility.yul\":458:462   */\n      0x00\n        /* \"#utility.yul\":496:498   */\n      0x20\n        /* \"#utility.yul\":485:494   */\n      dup3\n        /* \"#utility.yul\":481:499   */\n      add\n        /* \"#utility.yul\":473:499   */\n      swap1\n      pop\n        /* \"#utility.yul\":509:580   */\n      tag_113\n        /* \"#utility.yul\":577:578   */\n      0x00\n        /* \"#utility.yul\":566:575   */\n      dup4\n        /* \"#utility.yul\":562:579   */\n      add\n        /* \"#utility.yul\":553:559   */\n      dup5\n        /* \"#utility.yul\":509:580   */\n      tag_67\n      jump\t// in\n    tag_113:\n        /* \"#utility.yul\":365:587   */\n      swap3\n      swap2\n      pop\n      pop\n      jump\t// out\n        /* \"#utility.yul\":674:791   */\n    tag_69:\n        /* \"#utility.yul\":783:784   */\n      0x00\n        /* \"#utility.yul\":780:781   */\n      dup1\n        /* \"#utility.yul\":773:785   */\n      revert\n        /* \"#utility.yul\":797:914   */\n    tag_70:\n        /* \"#utility.yul\":906:907   */\n      0x00\n        /* \"#utility.yul\":903:904   */\n      dup1\n        /* \"#utility.yul\":896:908   */\n      revert\n        /* \"#utility.yul\":920:997   */\n    tag_71:\n        /* \"#utility.yul\":957:964   */\n      0x00\n        /* \"#utility.yul\":986:991   */\n      dup2\n        /* \"#utility.yul\":975:991   */\n      swap1\n      pop\n        /* \"#utility.yul\":920:997   */\n      swap2\n      swap1\n      pop\n      jump\t// out\n        /* \"#utility.yul\":1003:1125   */\n    tag_72:\n        /* \"#utility.yul\":1076:1100   */\n      tag_119\n        /* \"#utility.yul\":1094:1099   */\n      dup2\n        /* \"#utility.yul\":1076:1100   */\n      tag_71\n      jump\t// in\n    tag_119:\n        /* \"#utility.yul\":1069:1074   */\n      dup2\n        /* \"#utility.yul\":1066:1101   */\n      eq\n        /* \"#utility.yul\":1056:1119   */\n      tag_120\n      jumpi\n        /* \"#utility.yul\":1115:1116   */\n      0x00\n        /* \"#utility.yul\":1112:1113   */\n      dup1\n        /* \"#utility.yul\":1105:1117   */\n      revert\n        /* \"#utility.yul\":1056:1119   */\n    tag_120:\n        /* \"#utility.yul\":1003:1125   */\n      pop\n      jump\t// out\n        /* \"#utility.yul\":1131:1270   */\n    tag_73:\n        /* \"#utility.yul\":1177:1182   */\n      0x00\n        /* \"#utility.yul\":1215:1221   */\n      dup2\n        /* \"#utility.yul\":1202:1222   */\n      calldataload\n        /* \"#utility.yul\":1193:1222   */\n      swap1\n      pop\n        /* \"#utility.yul\":1231:1264   */\n      tag_122\n        /* \"#utility.yul\":1258:1263   */\n      dup2\n        /* \"#utility.yul\":1231:1264   */\n      tag_72\n      jump\t// in\n    tag_122:\n        /* \"#utility.yul\":1131:1270   */\n      swap3\n      swap2\n      pop\n      pop\n      jump\t// out\n        /* \"#utility.yul\":1276:1393   */\n    tag_74:\n        /* \"#utility.yul\":1385:1386   */\n      0x00\n        /* \"#utility.yul\":1382:1383   */\n      dup1\n        /* \"#utility.yul\":1375:1387   */\n      revert\n        /* \"#utility.yul\":1399:1516   */\n    tag_75:\n        /* \"#utility.yul\":1508:1509   */\n      0x00\n        /* \"#utility.yul\":1505:1506   */\n      dup1\n        /* \"#utility.yul\":1498:1510   */\n      revert\n        /* \"#utility.yul\":1522:1639   */\n    tag_76:\n        /* \"#utility.yul\":1631:1632   */\n      0x00\n        /* \"#utility.yul\":1628:1629   */\n      dup1\n        /* \"#utility.yul\":1621:1633   */\n      revert\n        /* \"#utility.yul\":1662:2230   */\n    tag_77:\n        /* \"#utility.yul\":1735:1743   */\n      0x00\n        /* \"#utility.yul\":1745:1751   */\n      dup1\n        /* \"#utility.yul\":1795:1798   */\n      dup4\n        /* \"#utility.yul\":1788:1792   */\n      0x1f\n        /* \"#utility.yul\":1780:1786   */\n      dup5\n        /* \"#utility.yul\":1776:1793   */\n      add\n        /* \"#utility.yul\":1772:1799   */\n      slt\n        /* \"#utility.yul\":1762:1884   */\n      tag_127\n      jumpi\n        /* \"#utility.yul\":1803:1882   */\n      tag_128\n      tag_74\n      jump\t// in\n    tag_128:\n        /* \"#utility.yul\":1762:1884   */\n    tag_127:\n        /* \"#utility.yul\":1916:1922   */\n      dup3\n        /* \"#utility.yul\":1903:1923   */\n      calldataload\n        /* \"#utility.yul\":1893:1923   */\n      swap1\n      pop\n        /* \"#utility.yul\":1946:1964   */\n      0xffffffffffffffff\n        /* \"#utility.yul\":1938:1944   */\n      dup2\n        /* \"#utility.yul\":1935:1965   */\n      gt\n        /* \"#utility.yul\":1932:2049   */\n      iszero\n      tag_129\n      jumpi\n        /* \"#utility.yul\":1968:2047   */\n      tag_130\n      tag_75\n      jump\t// in\n    tag_130:\n        /* \"#utility.yul\":1932:2049   */\n    tag_129:\n        /* \"#utility.yul\":2082:2086   */\n      0x20\n        /* \"#utility.yul\":2074:2080   */\n      dup4\n        /* \"#utility.yul\":2070:2087   */\n      add\n        /* \"#utility.yul\":2058:2087   */\n      swap2\n      pop\n        /* \"#utility.yul\":2136:2139   */\n      dup4\n        /* \"#utility.yul\":2128:2132   */\n      0x20\n        /* \"#utility.yul\":2120:2126   */\n      dup3\n        /* \"#utility.yul\":2116:2133   */\n      mul\n        /* \"#utility.yul\":2106:2114   */\n      dup4\n        /* \"#utility.yul\":2102:2134   */\n      add\n        /* \"#utility.yul\":2099:2140   */\n      gt\n        /* \"#utility.yul\":2096:2224   */\n      iszero\n      tag_131\n      jumpi\n        /* \"#utility.yul\":2143:2222   */\n      tag_132\n      tag_76\n      jump\t// in\n    tag_132:\n        /* \"#utility.yul\":2096:2224   */\n    tag_131:\n        /* \"#utility.yul\":1662:2230   */\n      swap3\n      pop\n      swap3\n      swap1\n      pop\n      jump\t// out\n        /* \"#utility.yul\":2252:2819   */\n    tag_78:\n        /* \"#utility.yul\":2324:2332   */\n      0x00\n        /* \"#utility.yul\":2334:2340   */\n      dup1\n        /* \"#utility.yul\":2384:2387   */\n      dup4\n        /* \"#utility.yul\":2377:2381   */\n      0x1f\n        /* \"#utility.yul\":2369:2375   */\n      dup5\n        /* \"#utility.yul\":2365:2382   */\n      add\n        /* \"#utility.yul\":2361:2388   */\n      slt\n        /* \"#utility.yul\":2351:2473   */\n      tag_134\n      jumpi\n        /* \"#utility.yul\":2392:2471   */\n      tag_135\n      tag_74\n      jump\t// in\n    tag_135:\n        /* \"#utility.yul\":2351:2473   */\n    tag_134:\n        /* \"#utility.yul\":2505:2511   */\n      dup3\n        /* \"#utility.yul\":2492:2512   */\n      calldataload\n        /* \"#utility.yul\":2482:2512   */\n      swap1\n      pop\n        /* \"#utility.yul\":2535:2553   */\n      0xffffffffffffffff\n        /* \"#utility.yul\":2527:2533   */\n      dup2\n        /* \"#utility.yul\":2524:2554   */\n      gt\n        /* \"#utility.yul\":2521:2638   */\n      iszero\n      tag_136\n      jumpi\n        /* \"#utility.yul\":2557:2636   */\n      tag_137\n      tag_75\n      jump\t// in\n    tag_137:\n        /* \"#utility.yul\":2521:2638   */\n    tag_136:\n        /* \"#utility.yul\":2671:2675   */\n      0x20\n        /* \"#utility.yul\":2663:2669   */\n      dup4\n        /* \"#utility.yul\":2659:2676   */\n      add\n        /* \"#utility.yul\":2647:2676   */\n      swap2\n      pop\n        /* \"#utility.yul\":2725:2728   */\n      dup4\n        /* \"#utility.yul\":2717:2721   */\n      0x20\n        /* \"#utility.yul\":2709:2715   */\n      dup3\n        /* \"#utility.yul\":2705:2722   */\n      mul\n        /* \"#utility.yul\":2695:2703   */\n      dup4\n        /* \"#utility.yul\":2691:2723   */\n      add\n        /* \"#utility.yul\":2688:2729   */\n      gt\n        /* \"#utility.yul\":2685:2813   */\n      iszero\n      tag_138\n      jumpi\n        /* \"#utility.yul\":2732:2811   */\n      tag_139\n      tag_76\n      jump\t// in\n    tag_139:\n        /* \"#utility.yul\":2685:2813   */\n    tag_138:\n        /* \"#utility.yul\":2252:2819   */\n      swap3\n      pop\n      swap3\n      swap1\n      pop\n      jump\t// out\n        /* \"#utility.yul\":2825:3902   */\n    tag_17:\n        /* \"#utility.yul\":2955:2961   */\n      0x00\n        /* \"#utility.yul\":2963:2969   */\n      dup1\n        /* \"#utility.yul\":2971:2977   */\n      0x00\n        /* \"#utility.yul\":2979:2985   */\n      dup1\n        /* \"#utility.yul\":2987:2993   */\n      0x00\n        /* \"#utility.yul\":3036:3038   */\n      0x60\n        /* \"#utility.yul\":3024:3033   */\n      dup7\n        /* \"#utility.yul\":3015:3022   */\n      dup9\n        /* \"#utility.yul\":3011:3034   */\n      sub\n        /* \"#utility.yul\":3007:3039   */\n      slt\n        /* \"#utility.yul\":3004:3123   */\n      iszero\n      tag_141\n      jumpi\n        /* \"#utility.yul\":3042:3121   */\n      tag_142\n      tag_69\n      jump\t// in\n    tag_142:\n        /* \"#utility.yul\":3004:3123   */\n    tag_141:\n        /* \"#utility.yul\":3162:3163   */\n      0x00\n        /* \"#utility.yul\":3187:3240   */\n      tag_143\n        /* \"#utility.yul\":3232:3239   */\n      dup9\n        /* \"#utility.yul\":3223:3229   */\n      dup3\n        /* \"#utility.yul\":3212:3221   */\n      dup10\n        /* \"#utility.yul\":3208:3230   */\n      add\n        /* \"#utility.yul\":3187:3240   */\n      tag_73\n      jump\t// in\n    tag_143:\n        /* \"#utility.yul\":3177:3240   */\n      swap6\n      pop\n        /* \"#utility.yul\":3133:3250   */\n      pop\n        /* \"#utility.yul\":3317:3319   */\n      0x20\n        /* \"#utility.yul\":3306:3315   */\n      dup7\n        /* \"#utility.yul\":3302:3320   */\n      add\n        /* \"#utility.yul\":3289:3321   */\n      calldataload\n        /* \"#utility.yul\":3348:3366   */\n      0xffffffffffffffff\n        /* \"#utility.yul\":3340:3346   */\n      dup2\n        /* \"#utility.yul\":3337:3367   */\n      gt\n        /* \"#utility.yul\":3334:3451   */\n      iszero\n      tag_144\n      jumpi\n        /* \"#utility.yul\":3370:3449   */\n      tag_145\n      tag_70\n      jump\t// in\n    tag_145:\n        /* \"#utility.yul\":3334:3451   */\n    tag_144:\n        /* \"#utility.yul\":3483:3563   */\n      tag_146\n        /* \"#utility.yul\":3555:3562   */\n      dup9\n        /* \"#utility.yul\":3546:3552   */\n      dup3\n        /* \"#utility.yul\":3535:3544   */\n      dup10\n        /* \"#utility.yul\":3531:3553   */\n      add\n        /* \"#utility.yul\":3483:3563   */\n      tag_77\n      jump\t// in\n    tag_146:\n        /* \"#utility.yul\":3465:3563   */\n      swap5\n      pop\n      swap5\n      pop\n        /* \"#utility.yul\":3260:3573   */\n      pop\n        /* \"#utility.yul\":3640:3642   */\n      0x40\n        /* \"#utility.yul\":3629:3638   */\n      dup7\n        /* \"#utility.yul\":3625:3643   */\n      add\n        /* \"#utility.yul\":3612:3644   */\n      calldataload\n        /* \"#utility.yul\":3671:3689   */\n      0xffffffffffffffff\n        /* \"#utility.yul\":3663:3669   */\n      dup2\n        /* \"#utility.yul\":3660:3690   */\n      gt\n        /* \"#utility.yul\":3657:3774   */\n      iszero\n      tag_147\n      jumpi\n        /* \"#utility.yul\":3693:3772   */\n      tag_148\n      tag_70\n      jump\t// in\n    tag_148:\n        /* \"#utility.yul\":3657:3774   */\n    tag_147:\n        /* \"#utility.yul\":3806:3885   */\n      tag_149\n        /* \"#utility.yul\":3877:3884   */\n      dup9\n        /* \"#utility.yul\":3868:3874   */\n      dup3\n        /* \"#utility.yul\":3857:3866   */\n      dup10\n        /* \"#utility.yul\":3853:3875   */\n      add\n        /* \"#utility.yul\":3806:3885   */\n      tag_78\n      jump\t// in\n    tag_149:\n        /* \"#utility.yul\":3788:3885   */\n      swap3\n      pop\n      swap3\n      pop\n        /* \"#utility.yul\":3583:3895   */\n      pop\n        /* \"#utility.yul\":2825:3902   */\n      swap3\n      swap6\n      pop\n      swap3\n      swap6\n      swap1\n      swap4\n      pop\n      jump\t// out\n        /* \"#utility.yul\":3908:4030   */\n    tag_79:\n        /* \"#utility.yul\":3981:4005   */\n      tag_151\n        /* \"#utility.yul\":3999:4004   */\n      dup2\n        /* \"#utility.yul\":3981:4005   */\n      tag_66\n      jump\t// in\n    tag_151:\n        /* \"#utility.yul\":3974:3979   */\n      dup2\n        /* \"#utility.yul\":3971:4006   */\n      eq\n        /* \"#utility.yul\":3961:4024   */\n      tag_152\n      jumpi\n        /* \"#utility.yul\":4020:4021   */\n      0x00\n        /* \"#utility.yul\":4017:4018   */\n      dup1\n        /* \"#utility.yul\":4010:4022   */\n      revert\n        /* \"#utility.yul\":3961:4024   */\n    tag_152:\n        /* \"#utility.yul\":3908:4030   */\n      pop\n      jump\t// out\n        /* \"#utility.yul\":4036:4175   */\n    tag_80:\n        /* \"#utility.yul\":4082:4087   */\n      0x00\n        /* \"#utility.yul\":4120:4126   */\n      dup2\n        /* \"#utility.yul\":4107:4127   */\n      calldataload\n        /* \"#utility.yul\":4098:4127   */\n      swap1\n      pop\n        /* \"#utility.yul\":4136:4169   */\n      tag_154\n        /* \"#utility.yul\":4163:4168   */\n      dup2\n        /* \"#utility.yul\":4136:4169   */\n      tag_79\n      jump\t// in\n    tag_154:\n        /* \"#utility.yul\":4036:4175   */\n      swap3\n      swap2\n      pop\n      pop\n      jump\t// out\n        /* \"#utility.yul\":4181:4510   */\n    tag_26:\n        /* \"#utility.yul\":4240:4246   */\n      0x00\n        /* \"#utility.yul\":4289:4291   */\n      0x20\n        /* \"#utility.yul\":4277:4286   */\n      dup3\n        /* \"#utility.yul\":4268:4275   */\n      dup5\n        /* \"#utility.yul\":4264:4287   */\n      sub\n        /* \"#utility.yul\":4260:4292   */\n      slt\n        /* \"#utility.yul\":4257:4376   */\n      iszero\n      tag_156\n      jumpi\n        /* \"#utility.yul\":4295:4374   */\n      tag_157\n      tag_69\n      jump\t// in\n    tag_157:\n        /* \"#utility.yul\":4257:4376   */\n    tag_156:\n        /* \"#utility.yul\":4415:4416   */\n      0x00\n        /* \"#utility.yul\":4440:4493   */\n      tag_158\n        /* \"#utility.yul\":4485:4492   */\n      dup5\n        /* \"#utility.yul\":4476:4482   */\n      dup3\n        /* \"#utility.yul\":4465:4474   */\n      dup6\n        /* \"#utility.yul\":4461:4483   */\n      add\n        /* \"#utility.yul\":4440:4493   */\n      tag_80\n      jump\t// in\n    tag_158:\n        /* \"#utility.yul\":4430:4493   */\n      swap2\n      pop\n        /* \"#utility.yul\":4386:4503   */\n      pop\n        /* \"#utility.yul\":4181:4510   */\n      swap3\n      swap2\n      pop\n      pop\n      jump\t// out\n        /* \"#utility.yul\":4516:4685   */\n    tag_81:\n        /* \"#utility.yul\":4600:4611   */\n      0x00\n        /* \"#utility.yul\":4634:4640   */\n      dup3\n        /* \"#utility.yul\":4629:4632   */\n      dup3\n        /* \"#utility.yul\":4622:4641   */\n      mstore\n        /* \"#utility.yul\":4674:4678   */\n      0x20\n        /* \"#utility.yul\":4669:4672   */\n      dup3\n        /* \"#utility.yul\":4665:4679   */\n      add\n        /* \"#utility.yul\":4650:4679   */\n      swap1\n      pop\n        /* \"#utility.yul\":4516:4685   */\n      swap3\n      swap2\n      pop\n      pop\n      jump\t// out\n        /* \"#utility.yul\":4691:4913   */\n    tag_82:\n        /* \"#utility.yul\":4831:4865   */\n      0x637265617465496e6865726974616e636528292c2076616c6f7220696e76616c\n        /* \"#utility.yul\":4827:4828   */\n      0x00\n        /* \"#utility.yul\":4819:4825   */\n      dup3\n        /* \"#utility.yul\":4815:4829   */\n      add\n        /* \"#utility.yul\":4808:4866   */\n      mstore\n        /* \"#utility.yul\":4900:4905   */\n      0x69646f0000000000000000000000000000000000000000000000000000000000\n        /* \"#utility.yul\":4895:4897   */\n      0x20\n        /* \"#utility.yul\":4887:4893   */\n      dup3\n        /* \"#utility.yul\":4883:4898   */\n      add\n        /* \"#utility.yul\":4876:4906   */\n      mstore\n        /* \"#utility.yul\":4691:4913   */\n      pop\n      jump\t// out\n        /* \"#utility.yul\":4919:5285   */\n    tag_83:\n        /* \"#utility.yul\":5061:5064   */\n      0x00\n        /* \"#utility.yul\":5082:5149   */\n      tag_162\n        /* \"#utility.yul\":5146:5148   */\n      0x23\n        /* \"#utility.yul\":5141:5144   */\n      dup4\n        /* \"#utility.yul\":5082:5149   */\n      tag_81\n      jump\t// in\n    tag_162:\n        /* \"#utility.yul\":5075:5149   */\n      swap2\n      pop\n        /* \"#utility.yul\":5158:5251   */\n      tag_163\n        /* \"#utility.yul\":5247:5250   */\n      dup3\n        /* \"#utility.yul\":5158:5251   */\n      tag_82\n      jump\t// in\n    tag_163:\n        /* \"#utility.yul\":5276:5278   */\n      0x40\n        /* \"#utility.yul\":5271:5274   */\n      dup3\n        /* \"#utility.yul\":5267:5279   */\n      add\n        /* \"#utility.yul\":5260:5279   */\n      swap1\n      pop\n        /* \"#utility.yul\":4919:5285   */\n      swap2\n      swap1\n      pop\n      jump\t// out\n        /* \"#utility.yul\":5291:5710   */\n    tag_37:\n        /* \"#utility.yul\":5457:5461   */\n      0x00\n        /* \"#utility.yul\":5495:5497   */\n      0x20\n        /* \"#utility.yul\":5484:5493   */\n      dup3\n        /* \"#utility.yul\":5480:5498   */\n      add\n        /* \"#utility.yul\":5472:5498   */\n      swap1\n      pop\n        /* \"#utility.yul\":5544:5553   */\n      dup2\n        /* \"#utility.yul\":5538:5542   */\n      dup2\n        /* \"#utility.yul\":5534:5554   */\n      sub\n        /* \"#utility.yul\":5530:5531   */\n      0x00\n        /* \"#utility.yul\":5519:5528   */\n      dup4\n        /* \"#utility.yul\":5515:5532   */\n      add\n        /* \"#utility.yul\":5508:5555   */\n      mstore\n        /* \"#utility.yul\":5572:5703   */\n      tag_165\n        /* \"#utility.yul\":5698:5702   */\n      dup2\n        /* \"#utility.yul\":5572:5703   */\n      tag_83\n      jump\t// in\n    tag_165:\n        /* \"#utility.yul\":5564:5703   */\n      swap1\n      pop\n        /* \"#utility.yul\":5291:5710   */\n      swap2\n      swap1\n      pop\n      jump\t// out\n        /* \"#utility.yul\":5716:5945   */\n    tag_84:\n        /* \"#utility.yul\":5856:5890   */\n      0x637265617465496e6865726974616e636528292c2061646963696f6e65206f73\n        /* \"#utility.yul\":5852:5853   */\n      0x00\n        /* \"#utility.yul\":5844:5850   */\n      dup3\n        /* \"#utility.yul\":5840:5854   */\n      add\n        /* \"#utility.yul\":5833:5891   */\n      mstore\n        /* \"#utility.yul\":5925:5937   */\n      0x20686572646569726f7300000000000000000000000000000000000000000000\n        /* \"#utility.yul\":5920:5922   */\n      0x20\n        /* \"#utility.yul\":5912:5918   */\n      dup3\n        /* \"#utility.yul\":5908:5923   */\n      add\n        /* \"#utility.yul\":5901:5938   */\n      mstore\n        /* \"#utility.yul\":5716:5945   */\n      pop\n      jump\t// out\n        /* \"#utility.yul\":5951:6317   */\n    tag_85:\n        /* \"#utility.yul\":6093:6096   */\n      0x00\n        /* \"#utility.yul\":6114:6181   */\n      tag_168\n        /* \"#utility.yul\":6178:6180   */\n      0x2a\n        /* \"#utility.yul\":6173:6176   */\n      dup4\n        /* \"#utility.yul\":6114:6181   */\n      tag_81\n      jump\t// in\n    tag_168:\n        /* \"#utility.yul\":6107:6181   */\n      swap2\n      pop\n        /* \"#utility.yul\":6190:6283   */\n      tag_169\n        /* \"#utility.yul\":6279:6282   */\n      dup3\n        /* \"#utility.yul\":6190:6283   */\n      tag_84\n      jump\t// in\n    tag_169:\n        /* \"#utility.yul\":6308:6310   */\n      0x40\n        /* \"#utility.yul\":6303:6306   */\n      dup3\n        /* \"#utility.yul\":6299:6311   */\n      add\n        /* \"#utility.yul\":6292:6311   */\n      swap1\n      pop\n        /* \"#utility.yul\":5951:6317   */\n      swap2\n      swap1\n      pop\n      jump\t// out\n        /* \"#utility.yul\":6323:6742   */\n    tag_40:\n        /* \"#utility.yul\":6489:6493   */\n      0x00\n        /* \"#utility.yul\":6527:6529   */\n      0x20\n        /* \"#utility.yul\":6516:6525   */\n      dup3\n        /* \"#utility.yul\":6512:6530   */\n      add\n        /* \"#utility.yul\":6504:6530   */\n      swap1\n      pop\n        /* \"#utility.yul\":6576:6585   */\n      dup2\n        /* \"#utility.yul\":6570:6574   */\n      dup2\n        /* \"#utility.yul\":6566:6586   */\n      sub\n        /* \"#utility.yul\":6562:6563   */\n      0x00\n        /* \"#utility.yul\":6551:6560   */\n      dup4\n        /* \"#utility.yul\":6547:6564   */\n      add\n        /* \"#utility.yul\":6540:6587   */\n      mstore\n        /* \"#utility.yul\":6604:6735   */\n      tag_171\n        /* \"#utility.yul\":6730:6734   */\n      dup2\n        /* \"#utility.yul\":6604:6735   */\n      tag_85\n      jump\t// in\n    tag_171:\n        /* \"#utility.yul\":6596:6735   */\n      swap1\n      pop\n        /* \"#utility.yul\":6323:6742   */\n      swap2\n      swap1\n      pop\n      jump\t// out\n        /* \"#utility.yul\":6748:7042   */\n    tag_86:\n        /* \"#utility.yul\":6888:6922   */\n      0x637265617465496e6865726974616e636528292c207175616e74696461646520\n        /* \"#utility.yul\":6884:6885   */\n      0x00\n        /* \"#utility.yul\":6876:6882   */\n      dup3\n        /* \"#utility.yul\":6872:6886   */\n      add\n        /* \"#utility.yul\":6865:6923   */\n      mstore\n        /* \"#utility.yul\":6957:6991   */\n      0x646520656e64657265636f73206520706f7263656e746167656e732064696665\n        /* \"#utility.yul\":6952:6954   */\n      0x20\n        /* \"#utility.yul\":6944:6950   */\n      dup3\n        /* \"#utility.yul\":6940:6955   */\n      add\n        /* \"#utility.yul\":6933:6992   */\n      mstore\n        /* \"#utility.yul\":7026:7034   */\n      0x72656e7465730000000000000000000000000000000000000000000000000000\n        /* \"#utility.yul\":7021:7023   */\n      0x40\n        /* \"#utility.yul\":7013:7019   */\n      dup3\n        /* \"#utility.yul\":7009:7024   */\n      add\n        /* \"#utility.yul\":7002:7035   */\n      mstore\n        /* \"#utility.yul\":6748:7042   */\n      pop\n      jump\t// out\n        /* \"#utility.yul\":7048:7414   */\n    tag_87:\n        /* \"#utility.yul\":7190:7193   */\n      0x00\n        /* \"#utility.yul\":7211:7278   */\n      tag_174\n        /* \"#utility.yul\":7275:7277   */\n      0x46\n        /* \"#utility.yul\":7270:7273   */\n      dup4\n        /* \"#utility.yul\":7211:7278   */\n      tag_81\n      jump\t// in\n    tag_174:\n        /* \"#utility.yul\":7204:7278   */\n      swap2\n      pop\n        /* \"#utility.yul\":7287:7380   */\n      tag_175\n        /* \"#utility.yul\":7376:7379   */\n      dup3\n        /* \"#utility.yul\":7287:7380   */\n      tag_86\n      jump\t// in\n    tag_175:\n        /* \"#utility.yul\":7405:7407   */\n      0x60\n        /* \"#utility.yul\":7400:7403   */\n      dup3\n        /* \"#utility.yul\":7396:7408   */\n      add\n        /* \"#utility.yul\":7389:7408   */\n      swap1\n      pop\n        /* \"#utility.yul\":7048:7414   */\n      swap2\n      swap1\n      pop\n      jump\t// out\n        /* \"#utility.yul\":7420:7839   */\n    tag_43:\n        /* \"#utility.yul\":7586:7590   */\n      0x00\n        /* \"#utility.yul\":7624:7626   */\n      0x20\n        /* \"#utility.yul\":7613:7622   */\n      dup3\n        /* \"#utility.yul\":7609:7627   */\n      add\n        /* \"#utility.yul\":7601:7627   */\n      swap1\n      pop\n        /* \"#utility.yul\":7673:7682   */\n      dup2\n        /* \"#utility.yul\":7667:7671   */\n      dup2\n        /* \"#utility.yul\":7663:7683   */\n      sub\n        /* \"#utility.yul\":7659:7660   */\n      0x00\n        /* \"#utility.yul\":7648:7657   */\n      dup4\n        /* \"#utility.yul\":7644:7661   */\n      add\n        /* \"#utility.yul\":7637:7684   */\n      mstore\n        /* \"#utility.yul\":7701:7832   */\n      tag_177\n        /* \"#utility.yul\":7827:7831   */\n      dup2\n        /* \"#utility.yul\":7701:7832   */\n      tag_87\n      jump\t// in\n    tag_177:\n        /* \"#utility.yul\":7693:7832   */\n      swap1\n      pop\n        /* \"#utility.yul\":7420:7839   */\n      swap2\n      swap1\n      pop\n      jump\t// out\n        /* \"#utility.yul\":7845:7963   */\n    tag_88:\n        /* \"#utility.yul\":7932:7956   */\n      tag_179\n        /* \"#utility.yul\":7950:7955   */\n      dup2\n        /* \"#utility.yul\":7932:7956   */\n      tag_71\n      jump\t// in\n    tag_179:\n        /* \"#utility.yul\":7927:7930   */\n      dup3\n        /* \"#utility.yul\":7920:7957   */\n      mstore\n        /* \"#utility.yul\":7845:7963   */\n      pop\n      pop\n      jump\t// out\n        /* \"#utility.yul\":7969:8153   */\n    tag_89:\n        /* \"#utility.yul\":8068:8079   */\n      0x00\n        /* \"#utility.yul\":8102:8108   */\n      dup3\n        /* \"#utility.yul\":8097:8100   */\n      dup3\n        /* \"#utility.yul\":8090:8109   */\n      mstore\n        /* \"#utility.yul\":8142:8146   */\n      0x20\n        /* \"#utility.yul\":8137:8140   */\n      dup3\n        /* \"#utility.yul\":8133:8147   */\n      add\n        /* \"#utility.yul\":8118:8147   */\n      swap1\n      pop\n        /* \"#utility.yul\":7969:8153   */\n      swap3\n      swap2\n      pop\n      pop\n      jump\t// out\n        /* \"#utility.yul\":8159:8261   */\n    tag_90:\n        /* \"#utility.yul\":8228:8232   */\n      0x00\n        /* \"#utility.yul\":8251:8254   */\n      dup2\n        /* \"#utility.yul\":8243:8254   */\n      swap1\n      pop\n        /* \"#utility.yul\":8159:8261   */\n      swap2\n      swap1\n      pop\n      jump\t// out\n        /* \"#utility.yul\":8267:8375   */\n    tag_91:\n        /* \"#utility.yul\":8344:8368   */\n      tag_183\n        /* \"#utility.yul\":8362:8367   */\n      dup2\n        /* \"#utility.yul\":8344:8368   */\n      tag_66\n      jump\t// in\n    tag_183:\n        /* \"#utility.yul\":8339:8342   */\n      dup3\n        /* \"#utility.yul\":8332:8369   */\n      mstore\n        /* \"#utility.yul\":8267:8375   */\n      pop\n      pop\n      jump\t// out\n        /* \"#utility.yul\":8381:8560   */\n    tag_92:\n        /* \"#utility.yul\":8450:8460   */\n      0x00\n        /* \"#utility.yul\":8471:8517   */\n      tag_185\n        /* \"#utility.yul\":8513:8516   */\n      dup4\n        /* \"#utility.yul\":8505:8511   */\n      dup4\n        /* \"#utility.yul\":8471:8517   */\n      tag_91\n      jump\t// in\n    tag_185:\n        /* \"#utility.yul\":8549:8553   */\n      0x20\n        /* \"#utility.yul\":8544:8547   */\n      dup4\n        /* \"#utility.yul\":8540:8554   */\n      add\n        /* \"#utility.yul\":8526:8554   */\n      swap1\n      pop\n        /* \"#utility.yul\":8381:8560   */\n      swap3\n      swap2\n      pop\n      pop\n      jump\t// out\n        /* \"#utility.yul\":8566:8688   */\n    tag_93:\n        /* \"#utility.yul\":8618:8623   */\n      0x00\n        /* \"#utility.yul\":8643:8682   */\n      tag_187\n        /* \"#utility.yul\":8678:8680   */\n      0x20\n        /* \"#utility.yul\":8673:8676   */\n      dup5\n        /* \"#utility.yul\":8669:8681   */\n      add\n        /* \"#utility.yul\":8664:8667   */\n      dup5\n        /* \"#utility.yul\":8643:8682   */\n      tag_80\n      jump\t// in\n    tag_187:\n        /* \"#utility.yul\":8634:8682   */\n      swap1\n      pop\n        /* \"#utility.yul\":8566:8688   */\n      swap3\n      swap2\n      pop\n      pop\n      jump\t// out\n        /* \"#utility.yul\":8694:8809   */\n    tag_94:\n        /* \"#utility.yul\":8766:8770   */\n      0x00\n        /* \"#utility.yul\":8798:8802   */\n      0x20\n        /* \"#utility.yul\":8793:8796   */\n      dup3\n        /* \"#utility.yul\":8789:8803   */\n      add\n        /* \"#utility.yul\":8781:8803   */\n      swap1\n      pop\n        /* \"#utility.yul\":8694:8809   */\n      swap2\n      swap1\n      pop\n      jump\t// out\n        /* \"#utility.yul\":8845:9544   */\n    tag_95:\n        /* \"#utility.yul\":8974:8977   */\n      0x00\n        /* \"#utility.yul\":8997:9083   */\n      tag_190\n        /* \"#utility.yul\":9076:9082   */\n      dup4\n        /* \"#utility.yul\":9071:9074   */\n      dup6\n        /* \"#utility.yul\":8997:9083   */\n      tag_89\n      jump\t// in\n    tag_190:\n        /* \"#utility.yul\":8990:9083   */\n      swap4\n      pop\n        /* \"#utility.yul\":9107:9165   */\n      tag_191\n        /* \"#utility.yul\":9159:9164   */\n      dup3\n        /* \"#utility.yul\":9107:9165   */\n      tag_90\n      jump\t// in\n    tag_191:\n        /* \"#utility.yul\":9188:9195   */\n      dup1\n        /* \"#utility.yul\":9219:9220   */\n      0x00\n        /* \"#utility.yul\":9204:9519   */\n    tag_192:\n        /* \"#utility.yul\":9229:9235   */\n      dup6\n        /* \"#utility.yul\":9226:9227   */\n      dup2\n        /* \"#utility.yul\":9223:9236   */\n      lt\n        /* \"#utility.yul\":9204:9519   */\n      iszero\n      tag_194\n      jumpi\n        /* \"#utility.yul\":9299:9341   */\n      tag_195\n        /* \"#utility.yul\":9334:9340   */\n      dup3\n        /* \"#utility.yul\":9325:9332   */\n      dup5\n        /* \"#utility.yul\":9299:9341   */\n      tag_93\n      jump\t// in\n    tag_195:\n        /* \"#utility.yul\":9361:9424   */\n      tag_196\n        /* \"#utility.yul\":9420:9423   */\n      dup9\n        /* \"#utility.yul\":9405:9418   */\n      dup3\n        /* \"#utility.yul\":9361:9424   */\n      tag_92\n      jump\t// in\n    tag_196:\n        /* \"#utility.yul\":9354:9424   */\n      swap8\n      pop\n        /* \"#utility.yul\":9447:9509   */\n      tag_197\n        /* \"#utility.yul\":9502:9508   */\n      dup4\n        /* \"#utility.yul\":9447:9509   */\n      tag_94\n      jump\t// in\n    tag_197:\n        /* \"#utility.yul\":9437:9509   */\n      swap3\n      pop\n        /* \"#utility.yul\":9264:9519   */\n      pop\n        /* \"#utility.yul\":9251:9252   */\n      0x01\n        /* \"#utility.yul\":9248:9249   */\n      dup2\n        /* \"#utility.yul\":9244:9253   */\n      add\n        /* \"#utility.yul\":9239:9253   */\n      swap1\n      pop\n        /* \"#utility.yul\":9204:9519   */\n      jump(tag_192)\n    tag_194:\n        /* \"#utility.yul\":9208:9222   */\n      pop\n        /* \"#utility.yul\":9535:9538   */\n      dup6\n        /* \"#utility.yul\":9528:9538   */\n      swap3\n      pop\n        /* \"#utility.yul\":8979:9544   */\n      pop\n      pop\n        /* \"#utility.yul\":8845:9544   */\n      swap4\n      swap3\n      pop\n      pop\n      pop\n      jump\t// out\n        /* \"#utility.yul\":9550:9733   */\n    tag_96:\n        /* \"#utility.yul\":9648:9659   */\n      0x00\n        /* \"#utility.yul\":9682:9688   */\n      dup3\n        /* \"#utility.yul\":9677:9680   */\n      dup3\n        /* \"#utility.yul\":9670:9689   */\n      mstore\n        /* \"#utility.yul\":9722:9726   */\n      0x20\n        /* \"#utility.yul\":9717:9720   */\n      dup3\n        /* \"#utility.yul\":9713:9727   */\n      add\n        /* \"#utility.yul\":9698:9727   */\n      swap1\n      pop\n        /* \"#utility.yul\":9550:9733   */\n      swap3\n      swap2\n      pop\n      pop\n      jump\t// out\n        /* \"#utility.yul\":9739:9840   */\n    tag_97:\n        /* \"#utility.yul\":9807:9811   */\n      0x00\n        /* \"#utility.yul\":9830:9833   */\n      dup2\n        /* \"#utility.yul\":9822:9833   */\n      swap1\n      pop\n        /* \"#utility.yul\":9739:9840   */\n      swap2\n      swap1\n      pop\n      jump\t// out\n        /* \"#utility.yul\":9846:9935   */\n    tag_98:\n        /* \"#utility.yul\":9882:9889   */\n      0x00\n        /* \"#utility.yul\":9922:9928   */\n      0xffff\n        /* \"#utility.yul\":9915:9920   */\n      dup3\n        /* \"#utility.yul\":9911:9929   */\n      and\n        /* \"#utility.yul\":9900:9929   */\n      swap1\n      pop\n        /* \"#utility.yul\":9846:9935   */\n      swap2\n      swap1\n      pop\n      jump\t// out\n        /* \"#utility.yul\":9941:10046   */\n    tag_99:\n        /* \"#utility.yul\":10016:10039   */\n      tag_202\n        /* \"#utility.yul\":10033:10038   */\n      dup2\n        /* \"#utility.yul\":10016:10039   */\n      tag_98\n      jump\t// in\n    tag_202:\n        /* \"#utility.yul\":10011:10014   */\n      dup3\n        /* \"#utility.yul\":10004:10040   */\n      mstore\n        /* \"#utility.yul\":9941:10046   */\n      pop\n      pop\n      jump\t// out\n        /* \"#utility.yul\":10052:10227   */\n    tag_100:\n        /* \"#utility.yul\":10119:10129   */\n      0x00\n        /* \"#utility.yul\":10140:10184   */\n      tag_204\n        /* \"#utility.yul\":10180:10183   */\n      dup4\n        /* \"#utility.yul\":10172:10178   */\n      dup4\n        /* \"#utility.yul\":10140:10184   */\n      tag_99\n      jump\t// in\n    tag_204:\n        /* \"#utility.yul\":10216:10220   */\n      0x20\n        /* \"#utility.yul\":10211:10214   */\n      dup4\n        /* \"#utility.yul\":10207:10221   */\n      add\n        /* \"#utility.yul\":10193:10221   */\n      swap1\n      pop\n        /* \"#utility.yul\":10052:10227   */\n      swap3\n      swap2\n      pop\n      pop\n      jump\t// out\n        /* \"#utility.yul\":10233:10353   */\n    tag_101:\n        /* \"#utility.yul\":10305:10328   */\n      tag_206\n        /* \"#utility.yul\":10322:10327   */\n      dup2\n        /* \"#utility.yul\":10305:10328   */\n      tag_98\n      jump\t// in\n    tag_206:\n        /* \"#utility.yul\":10298:10303   */\n      dup2\n        /* \"#utility.yul\":10295:10329   */\n      eq\n        /* \"#utility.yul\":10285:10347   */\n      tag_207\n      jumpi\n        /* \"#utility.yul\":10343:10344   */\n      0x00\n        /* \"#utility.yul\":10340:10341   */\n      dup1\n        /* \"#utility.yul\":10333:10345   */\n      revert\n        /* \"#utility.yul\":10285:10347   */\n    tag_207:\n        /* \"#utility.yul\":10233:10353   */\n      pop\n      jump\t// out\n        /* \"#utility.yul\":10359:10496   */\n    tag_102:\n        /* \"#utility.yul\":10404:10409   */\n      0x00\n        /* \"#utility.yul\":10442:10448   */\n      dup2\n        /* \"#utility.yul\":10429:10449   */\n      calldataload\n        /* \"#utility.yul\":10420:10449   */\n      swap1\n      pop\n        /* \"#utility.yul\":10458:10490   */\n      tag_209\n        /* \"#utility.yul\":10484:10489   */\n      dup2\n        /* \"#utility.yul\":10458:10490   */\n      tag_101\n      jump\t// in\n    tag_209:\n        /* \"#utility.yul\":10359:10496   */\n      swap3\n      swap2\n      pop\n      pop\n      jump\t// out\n        /* \"#utility.yul\":10502:10622   */\n    tag_103:\n        /* \"#utility.yul\":10553:10558   */\n      0x00\n        /* \"#utility.yul\":10578:10616   */\n      tag_211\n        /* \"#utility.yul\":10612:10614   */\n      0x20\n        /* \"#utility.yul\":10607:10610   */\n      dup5\n        /* \"#utility.yul\":10603:10615   */\n      add\n        /* \"#utility.yul\":10598:10601   */\n      dup5\n        /* \"#utility.yul\":10578:10616   */\n      tag_102\n      jump\t// in\n    tag_211:\n        /* \"#utility.yul\":10569:10616   */\n      swap1\n      pop\n        /* \"#utility.yul\":10502:10622   */\n      swap3\n      swap2\n      pop\n      pop\n      jump\t// out\n        /* \"#utility.yul\":10628:10742   */\n    tag_104:\n        /* \"#utility.yul\":10699:10703   */\n      0x00\n        /* \"#utility.yul\":10731:10735   */\n      0x20\n        /* \"#utility.yul\":10726:10729   */\n      dup3\n        /* \"#utility.yul\":10722:10736   */\n      add\n        /* \"#utility.yul\":10714:10736   */\n      swap1\n      pop\n        /* \"#utility.yul\":10628:10742   */\n      swap2\n      swap1\n      pop\n      jump\t// out\n        /* \"#utility.yul\":10776:11467   */\n    tag_105:\n        /* \"#utility.yul\":10903:10906   */\n      0x00\n        /* \"#utility.yul\":10926:11011   */\n      tag_214\n        /* \"#utility.yul\":11004:11010   */\n      dup4\n        /* \"#utility.yul\":10999:11002   */\n      dup6\n        /* \"#utility.yul\":10926:11011   */\n      tag_96\n      jump\t// in\n    tag_214:\n        /* \"#utility.yul\":10919:11011   */\n      swap4\n      pop\n        /* \"#utility.yul\":11035:11092   */\n      tag_215\n        /* \"#utility.yul\":11086:11091   */\n      dup3\n        /* \"#utility.yul\":11035:11092   */\n      tag_97\n      jump\t// in\n    tag_215:\n        /* \"#utility.yul\":11115:11122   */\n      dup1\n        /* \"#utility.yul\":11146:11147   */\n      0x00\n        /* \"#utility.yul\":11131:11442   */\n    tag_216:\n        /* \"#utility.yul\":11156:11162   */\n      dup6\n        /* \"#utility.yul\":11153:11154   */\n      dup2\n        /* \"#utility.yul\":11150:11163   */\n      lt\n        /* \"#utility.yul\":11131:11442   */\n      iszero\n      tag_218\n      jumpi\n        /* \"#utility.yul\":11226:11267   */\n      tag_219\n        /* \"#utility.yul\":11260:11266   */\n      dup3\n        /* \"#utility.yul\":11251:11258   */\n      dup5\n        /* \"#utility.yul\":11226:11267   */\n      tag_103\n      jump\t// in\n    tag_219:\n        /* \"#utility.yul\":11287:11348   */\n      tag_220\n        /* \"#utility.yul\":11344:11347   */\n      dup9\n        /* \"#utility.yul\":11329:11342   */\n      dup3\n        /* \"#utility.yul\":11287:11348   */\n      tag_100\n      jump\t// in\n    tag_220:\n        /* \"#utility.yul\":11280:11348   */\n      swap8\n      pop\n        /* \"#utility.yul\":11371:11432   */\n      tag_221\n        /* \"#utility.yul\":11425:11431   */\n      dup4\n        /* \"#utility.yul\":11371:11432   */\n      tag_104\n      jump\t// in\n    tag_221:\n        /* \"#utility.yul\":11361:11432   */\n      swap3\n      pop\n        /* \"#utility.yul\":11191:11442   */\n      pop\n        /* \"#utility.yul\":11178:11179   */\n      0x01\n        /* \"#utility.yul\":11175:11176   */\n      dup2\n        /* \"#utility.yul\":11171:11180   */\n      add\n        /* \"#utility.yul\":11166:11180   */\n      swap1\n      pop\n        /* \"#utility.yul\":11131:11442   */\n      jump(tag_216)\n    tag_218:\n        /* \"#utility.yul\":11135:11149   */\n      pop\n        /* \"#utility.yul\":11458:11461   */\n      dup6\n        /* \"#utility.yul\":11451:11461   */\n      swap3\n      pop\n        /* \"#utility.yul\":10908:11467   */\n      pop\n      pop\n        /* \"#utility.yul\":10776:11467   */\n      swap4\n      swap3\n      pop\n      pop\n      pop\n      jump\t// out\n        /* \"#utility.yul\":11473:12364   */\n    tag_45:\n        /* \"#utility.yul\":11768:11772   */\n      0x00\n        /* \"#utility.yul\":11806:11809   */\n      0x80\n        /* \"#utility.yul\":11795:11804   */\n      dup3\n        /* \"#utility.yul\":11791:11810   */\n      add\n        /* \"#utility.yul\":11783:11810   */\n      swap1\n      pop\n        /* \"#utility.yul\":11820:11891   */\n      tag_223\n        /* \"#utility.yul\":11888:11889   */\n      0x00\n        /* \"#utility.yul\":11877:11886   */\n      dup4\n        /* \"#utility.yul\":11873:11890   */\n      add\n        /* \"#utility.yul\":11864:11870   */\n      dup10\n        /* \"#utility.yul\":11820:11891   */\n      tag_67\n      jump\t// in\n    tag_223:\n        /* \"#utility.yul\":11901:11973   */\n      tag_224\n        /* \"#utility.yul\":11969:11971   */\n      0x20\n        /* \"#utility.yul\":11958:11967   */\n      dup4\n        /* \"#utility.yul\":11954:11972   */\n      add\n        /* \"#utility.yul\":11945:11951   */\n      dup9\n        /* \"#utility.yul\":11901:11973   */\n      tag_88\n      jump\t// in\n    tag_224:\n        /* \"#utility.yul\":12020:12029   */\n      dup2\n        /* \"#utility.yul\":12014:12018   */\n      dup2\n        /* \"#utility.yul\":12010:12030   */\n      sub\n        /* \"#utility.yul\":12005:12007   */\n      0x40\n        /* \"#utility.yul\":11994:12003   */\n      dup4\n        /* \"#utility.yul\":11990:12008   */\n      add\n        /* \"#utility.yul\":11983:12031   */\n      mstore\n        /* \"#utility.yul\":12048:12166   */\n      tag_225\n        /* \"#utility.yul\":12161:12165   */\n      dup2\n        /* \"#utility.yul\":12152:12158   */\n      dup7\n        /* \"#utility.yul\":12144:12150   */\n      dup9\n        /* \"#utility.yul\":12048:12166   */\n      tag_95\n      jump\t// in\n    tag_225:\n        /* \"#utility.yul\":12040:12166   */\n      swap1\n      pop\n        /* \"#utility.yul\":12213:12222   */\n      dup2\n        /* \"#utility.yul\":12207:12211   */\n      dup2\n        /* \"#utility.yul\":12203:12223   */\n      sub\n        /* \"#utility.yul\":12198:12200   */\n      0x60\n        /* \"#utility.yul\":12187:12196   */\n      dup4\n        /* \"#utility.yul\":12183:12201   */\n      add\n        /* \"#utility.yul\":12176:12224   */\n      mstore\n        /* \"#utility.yul\":12241:12357   */\n      tag_226\n        /* \"#utility.yul\":12352:12356   */\n      dup2\n        /* \"#utility.yul\":12343:12349   */\n      dup5\n        /* \"#utility.yul\":12335:12341   */\n      dup7\n        /* \"#utility.yul\":12241:12357   */\n      tag_105\n      jump\t// in\n    tag_226:\n        /* \"#utility.yul\":12233:12357   */\n      swap1\n      pop\n        /* \"#utility.yul\":11473:12364   */\n      swap8\n      swap7\n      pop\n      pop\n      pop\n      pop\n      pop\n      pop\n      pop\n      jump\t// out\n\n    auxdata: 0xa2646970667358221220ccb3931e181b840c8df1fa0af0646f7020b9913bca8bd7ee5626c77ffc3f424764736f6c634300081a0033\n}\n",
				"bytecode": {
					"linkReferences": {},
					"object": "608060405234801561000f575f80fd5b50604051610d28380380610d28833981810160405281019061003191906101d7565b805f73ffffffffffffffffffffffffffffffffffffffff168173ffffffffffffffffffffffffffffffffffffffff16036100a2575f6040517f1e4fbdf70000000000000000000000000000000000000000000000000000000081526004016100999190610211565b60405180910390fd5b6100b1816100b860201b60201c565b505061022a565b5f805f9054906101000a900473ffffffffffffffffffffffffffffffffffffffff169050815f806101000a81548173ffffffffffffffffffffffffffffffffffffffff021916908373ffffffffffffffffffffffffffffffffffffffff1602179055508173ffffffffffffffffffffffffffffffffffffffff168173ffffffffffffffffffffffffffffffffffffffff167f8be0079c531659141344cd1fd0a4f28419497f9722a3daafe3b4186f6b6457e060405160405180910390a35050565b5f80fd5b5f73ffffffffffffffffffffffffffffffffffffffff82169050919050565b5f6101a68261017d565b9050919050565b6101b68161019c565b81146101c0575f80fd5b50565b5f815190506101d1816101ad565b92915050565b5f602082840312156101ec576101eb610179565b5b5f6101f9848285016101c3565b91505092915050565b61020b8161019c565b82525050565b5f6020820190506102245f830184610202565b92915050565b610af1806102375f395ff3fe608060405260043610610049575f3560e01c80636f6a30f31461004d578063715018a6146100775780638adc7d541461008d5780638da5cb5b146100a9578063f2fde38b146100d3575b5f80fd5b348015610058575f80fd5b506100616100fb565b60405161006e91906104d8565b60405180910390f35b348015610082575f80fd5b5061008b610120565b005b6100a760048036038101906100a291906105e2565b610133565b005b3480156100b4575f80fd5b506100bd61029f565b6040516100ca91906104d8565b60405180910390f35b3480156100de575f80fd5b506100f960048036038101906100f4919061069d565b6102c6565b005b60015f9054906101000a900473ffffffffffffffffffffffffffffffffffffffff1681565b61012861034a565b6101315f6103d1565b565b5f3403610175576040517f08c379a000000000000000000000000000000000000000000000000000000000815260040161016c90610748565b60405180910390fd5b5f84849050036101ba576040517f08c379a00000000000000000000000000000000000000000000000000000000081526004016101b1906107d6565b60405180910390fd5b818190508484905014610202576040517f08c379a00000000000000000000000000000000000000000000000000000000081526004016101f99061088a565b60405180910390fd5b5f33905060015f9054906101000a900473ffffffffffffffffffffffffffffffffffffffff1673ffffffffffffffffffffffffffffffffffffffff16633e1f040d8288888888886040518763ffffffff1660e01b815260040161026a96959493929190610a66565b5f604051808303815f87803b158015610281575f80fd5b505af1158015610293573d5f803e3d5ffd5b50505050505050505050565b5f805f9054906101000a900473ffffffffffffffffffffffffffffffffffffffff16905090565b6102ce61034a565b5f73ffffffffffffffffffffffffffffffffffffffff168173ffffffffffffffffffffffffffffffffffffffff160361033e575f6040517f1e4fbdf700000000000000000000000000000000000000000000000000000000815260040161033591906104d8565b60405180910390fd5b610347816103d1565b50565b610352610492565b73ffffffffffffffffffffffffffffffffffffffff1661037061029f565b73ffffffffffffffffffffffffffffffffffffffff16146103cf57610393610492565b6040517f118cdaa70000000000000000000000000000000000000000000000000000000081526004016103c691906104d8565b60405180910390fd5b565b5f805f9054906101000a900473ffffffffffffffffffffffffffffffffffffffff169050815f806101000a81548173ffffffffffffffffffffffffffffffffffffffff021916908373ffffffffffffffffffffffffffffffffffffffff1602179055508173ffffffffffffffffffffffffffffffffffffffff168173ffffffffffffffffffffffffffffffffffffffff167f8be0079c531659141344cd1fd0a4f28419497f9722a3daafe3b4186f6b6457e060405160405180910390a35050565b5f33905090565b5f73ffffffffffffffffffffffffffffffffffffffff82169050919050565b5f6104c282610499565b9050919050565b6104d2816104b8565b82525050565b5f6020820190506104eb5f8301846104c9565b92915050565b5f80fd5b5f80fd5b5f819050919050565b61050b816104f9565b8114610515575f80fd5b50565b5f8135905061052681610502565b92915050565b5f80fd5b5f80fd5b5f80fd5b5f8083601f84011261054d5761054c61052c565b5b8235905067ffffffffffffffff81111561056a57610569610530565b5b60208301915083602082028301111561058657610585610534565b5b9250929050565b5f8083601f8401126105a2576105a161052c565b5b8235905067ffffffffffffffff8111156105bf576105be610530565b5b6020830191508360208202830111156105db576105da610534565b5b9250929050565b5f805f805f606086880312156105fb576105fa6104f1565b5b5f61060888828901610518565b955050602086013567ffffffffffffffff811115610629576106286104f5565b5b61063588828901610538565b9450945050604086013567ffffffffffffffff811115610658576106576104f5565b5b6106648882890161058d565b92509250509295509295909350565b61067c816104b8565b8114610686575f80fd5b50565b5f8135905061069781610673565b92915050565b5f602082840312156106b2576106b16104f1565b5b5f6106bf84828501610689565b91505092915050565b5f82825260208201905092915050565b7f637265617465496e6865726974616e636528292c2076616c6f7220696e76616c5f8201527f69646f0000000000000000000000000000000000000000000000000000000000602082015250565b5f6107326023836106c8565b915061073d826106d8565b604082019050919050565b5f6020820190508181035f83015261075f81610726565b9050919050565b7f637265617465496e6865726974616e636528292c2061646963696f6e65206f735f8201527f20686572646569726f7300000000000000000000000000000000000000000000602082015250565b5f6107c0602a836106c8565b91506107cb82610766565b604082019050919050565b5f6020820190508181035f8301526107ed816107b4565b9050919050565b7f637265617465496e6865726974616e636528292c207175616e746964616465205f8201527f646520656e64657265636f73206520706f7263656e746167656e73206469666560208201527f72656e7465730000000000000000000000000000000000000000000000000000604082015250565b5f6108746046836106c8565b915061087f826107f4565b606082019050919050565b5f6020820190508181035f8301526108a181610868565b9050919050565b6108b1816104f9565b82525050565b5f82825260208201905092915050565b5f819050919050565b6108d9816104b8565b82525050565b5f6108ea83836108d0565b60208301905092915050565b5f6109046020840184610689565b905092915050565b5f602082019050919050565b5f61092383856108b7565b935061092e826108c7565b805f5b858110156109665761094382846108f6565b61094d88826108df565b97506109588361090c565b925050600181019050610931565b5085925050509392505050565b5f82825260208201905092915050565b5f819050919050565b5f61ffff82169050919050565b6109a28161098c565b82525050565b5f6109b38383610999565b60208301905092915050565b6109c88161098c565b81146109d2575f80fd5b50565b5f813590506109e3816109bf565b92915050565b5f6109f760208401846109d5565b905092915050565b5f602082019050919050565b5f610a168385610973565b9350610a2182610983565b805f5b85811015610a5957610a3682846109e9565b610a4088826109a8565b9750610a4b836109ff565b925050600181019050610a24565b5085925050509392505050565b5f608082019050610a795f8301896104c9565b610a8660208301886108a8565b8181036040830152610a99818688610918565b90508181036060830152610aae818486610a0b565b905097965050505050505056fea2646970667358221220ccb3931e181b840c8df1fa0af0646f7020b9913bca8bd7ee5626c77ffc3f424764736f6c634300081a0033",
					"opcodes": "PUSH1 0x80 PUSH1 0x40 MSTORE CALLVALUE DUP1 ISZERO PUSH2 0xF JUMPI PUSH0 DUP1 REVERT JUMPDEST POP PUSH1 0x40 MLOAD PUSH2 0xD28 CODESIZE SUB DUP1 PUSH2 0xD28 DUP4 CODECOPY DUP2 DUP2 ADD PUSH1 0x40 MSTORE DUP2 ADD SWAP1 PUSH2 0x31 SWAP2 SWAP1 PUSH2 0x1D7 JUMP JUMPDEST DUP1 PUSH0 PUSH20 0xFFFFFFFFFFFFFFFFFFFFFFFFFFFFFFFFFFFFFFFF AND DUP2 PUSH20 0xFFFFFFFFFFFFFFFFFFFFFFFFFFFFFFFFFFFFFFFF AND SUB PUSH2 0xA2 JUMPI PUSH0 PUSH1 0x40 MLOAD PUSH32 0x1E4FBDF700000000000000000000000000000000000000000000000000000000 DUP2 MSTORE PUSH1 0x4 ADD PUSH2 0x99 SWAP2 SWAP1 PUSH2 0x211 JUMP JUMPDEST PUSH1 0x40 MLOAD DUP1 SWAP2 SUB SWAP1 REVERT JUMPDEST PUSH2 0xB1 DUP2 PUSH2 0xB8 PUSH1 0x20 SHL PUSH1 0x20 SHR JUMP JUMPDEST POP POP PUSH2 0x22A JUMP JUMPDEST PUSH0 DUP1 PUSH0 SWAP1 SLOAD SWAP1 PUSH2 0x100 EXP SWAP1 DIV PUSH20 0xFFFFFFFFFFFFFFFFFFFFFFFFFFFFFFFFFFFFFFFF AND SWAP1 POP DUP2 PUSH0 DUP1 PUSH2 0x100 EXP DUP2 SLOAD DUP2 PUSH20 0xFFFFFFFFFFFFFFFFFFFFFFFFFFFFFFFFFFFFFFFF MUL NOT AND SWAP1 DUP4 PUSH20 0xFFFFFFFFFFFFFFFFFFFFFFFFFFFFFFFFFFFFFFFF AND MUL OR SWAP1 SSTORE POP DUP2 PUSH20 0xFFFFFFFFFFFFFFFFFFFFFFFFFFFFFFFFFFFFFFFF AND DUP2 PUSH20 0xFFFFFFFFFFFFFFFFFFFFFFFFFFFFFFFFFFFFFFFF AND PUSH32 0x8BE0079C531659141344CD1FD0A4F28419497F9722A3DAAFE3B4186F6B6457E0 PUSH1 0x40 MLOAD PUSH1 0x40 MLOAD DUP1 SWAP2 SUB SWAP1 LOG3 POP POP JUMP JUMPDEST PUSH0 DUP1 REVERT JUMPDEST PUSH0 PUSH20 0xFFFFFFFFFFFFFFFFFFFFFFFFFFFFFFFFFFFFFFFF DUP3 AND SWAP1 POP SWAP2 SWAP1 POP JUMP JUMPDEST PUSH0 PUSH2 0x1A6 DUP3 PUSH2 0x17D JUMP JUMPDEST SWAP1 POP SWAP2 SWAP1 POP JUMP JUMPDEST PUSH2 0x1B6 DUP2 PUSH2 0x19C JUMP JUMPDEST DUP2 EQ PUSH2 0x1C0 JUMPI PUSH0 DUP1 REVERT JUMPDEST POP JUMP JUMPDEST PUSH0 DUP2 MLOAD SWAP1 POP PUSH2 0x1D1 DUP2 PUSH2 0x1AD JUMP JUMPDEST SWAP3 SWAP2 POP POP JUMP JUMPDEST PUSH0 PUSH1 0x20 DUP3 DUP5 SUB SLT ISZERO PUSH2 0x1EC JUMPI PUSH2 0x1EB PUSH2 0x179 JUMP JUMPDEST JUMPDEST PUSH0 PUSH2 0x1F9 DUP5 DUP3 DUP6 ADD PUSH2 0x1C3 JUMP JUMPDEST SWAP2 POP POP SWAP3 SWAP2 POP POP JUMP JUMPDEST PUSH2 0x20B DUP2 PUSH2 0x19C JUMP JUMPDEST DUP3 MSTORE POP POP JUMP JUMPDEST PUSH0 PUSH1 0x20 DUP3 ADD SWAP1 POP PUSH2 0x224 PUSH0 DUP4 ADD DUP5 PUSH2 0x202 JUMP JUMPDEST SWAP3 SWAP2 POP POP JUMP JUMPDEST PUSH2 0xAF1 DUP1 PUSH2 0x237 PUSH0 CODECOPY PUSH0 RETURN INVALID PUSH1 0x80 PUSH1 0x40 MSTORE PUSH1 0x4 CALLDATASIZE LT PUSH2 0x49 JUMPI PUSH0 CALLDATALOAD PUSH1 0xE0 SHR DUP1 PUSH4 0x6F6A30F3 EQ PUSH2 0x4D JUMPI DUP1 PUSH4 0x715018A6 EQ PUSH2 0x77 JUMPI DUP1 PUSH4 0x8ADC7D54 EQ PUSH2 0x8D JUMPI DUP1 PUSH4 0x8DA5CB5B EQ PUSH2 0xA9 JUMPI DUP1 PUSH4 0xF2FDE38B EQ PUSH2 0xD3 JUMPI JUMPDEST PUSH0 DUP1 REVERT JUMPDEST CALLVALUE DUP1 ISZERO PUSH2 0x58 JUMPI PUSH0 DUP1 REVERT JUMPDEST POP PUSH2 0x61 PUSH2 0xFB JUMP JUMPDEST PUSH1 0x40 MLOAD PUSH2 0x6E SWAP2 SWAP1 PUSH2 0x4D8 JUMP JUMPDEST PUSH1 0x40 MLOAD DUP1 SWAP2 SUB SWAP1 RETURN JUMPDEST CALLVALUE DUP1 ISZERO PUSH2 0x82 JUMPI PUSH0 DUP1 REVERT JUMPDEST POP PUSH2 0x8B PUSH2 0x120 JUMP JUMPDEST STOP JUMPDEST PUSH2 0xA7 PUSH1 0x4 DUP1 CALLDATASIZE SUB DUP2 ADD SWAP1 PUSH2 0xA2 SWAP2 SWAP1 PUSH2 0x5E2 JUMP JUMPDEST PUSH2 0x133 JUMP JUMPDEST STOP JUMPDEST CALLVALUE DUP1 ISZERO PUSH2 0xB4 JUMPI PUSH0 DUP1 REVERT JUMPDEST POP PUSH2 0xBD PUSH2 0x29F JUMP JUMPDEST PUSH1 0x40 MLOAD PUSH2 0xCA SWAP2 SWAP1 PUSH2 0x4D8 JUMP JUMPDEST PUSH1 0x40 MLOAD DUP1 SWAP2 SUB SWAP1 RETURN JUMPDEST CALLVALUE DUP1 ISZERO PUSH2 0xDE JUMPI PUSH0 DUP1 REVERT JUMPDEST POP PUSH2 0xF9 PUSH1 0x4 DUP1 CALLDATASIZE SUB DUP2 ADD SWAP1 PUSH2 0xF4 SWAP2 SWAP1 PUSH2 0x69D JUMP JUMPDEST PUSH2 0x2C6 JUMP JUMPDEST STOP JUMPDEST PUSH1 0x1 PUSH0 SWAP1 SLOAD SWAP1 PUSH2 0x100 EXP SWAP1 DIV PUSH20 0xFFFFFFFFFFFFFFFFFFFFFFFFFFFFFFFFFFFFFFFF AND DUP2 JUMP JUMPDEST PUSH2 0x128 PUSH2 0x34A JUMP JUMPDEST PUSH2 0x131 PUSH0 PUSH2 0x3D1 JUMP JUMPDEST JUMP JUMPDEST PUSH0 CALLVALUE SUB PUSH2 0x175 JUMPI PUSH1 0x40 MLOAD PUSH32 0x8C379A000000000000000000000000000000000000000000000000000000000 DUP2 MSTORE PUSH1 0x4 ADD PUSH2 0x16C SWAP1 PUSH2 0x748 JUMP JUMPDEST PUSH1 0x40 MLOAD DUP1 SWAP2 SUB SWAP1 REVERT JUMPDEST PUSH0 DUP5 DUP5 SWAP1 POP SUB PUSH2 0x1BA JUMPI PUSH1 0x40 MLOAD PUSH32 0x8C379A000000000000000000000000000000000000000000000000000000000 DUP2 MSTORE PUSH1 0x4 ADD PUSH2 0x1B1 SWAP1 PUSH2 0x7D6 JUMP JUMPDEST PUSH1 0x40 MLOAD DUP1 SWAP2 SUB SWAP1 REVERT JUMPDEST DUP2 DUP2 SWAP1 POP DUP5 DUP5 SWAP1 POP EQ PUSH2 0x202 JUMPI PUSH1 0x40 MLOAD PUSH32 0x8C379A000000000000000000000000000000000000000000000000000000000 DUP2 MSTORE PUSH1 0x4 ADD PUSH2 0x1F9 SWAP1 PUSH2 0x88A JUMP JUMPDEST PUSH1 0x40 MLOAD DUP1 SWAP2 SUB SWAP1 REVERT JUMPDEST PUSH0 CALLER SWAP1 POP PUSH1 0x1 PUSH0 SWAP1 SLOAD SWAP1 PUSH2 0x100 EXP SWAP1 DIV PUSH20 0xFFFFFFFFFFFFFFFFFFFFFFFFFFFFFFFFFFFFFFFF AND PUSH20 0xFFFFFFFFFFFFFFFFFFFFFFFFFFFFFFFFFFFFFFFF AND PUSH4 0x3E1F040D DUP3 DUP9 DUP9 DUP9 DUP9 DUP9 PUSH1 0x40 MLOAD DUP8 PUSH4 0xFFFFFFFF AND PUSH1 0xE0 SHL DUP2 MSTORE PUSH1 0x4 ADD PUSH2 0x26A SWAP7 SWAP6 SWAP5 SWAP4 SWAP3 SWAP2 SWAP1 PUSH2 0xA66 JUMP JUMPDEST PUSH0 PUSH1 0x40 MLOAD DUP1 DUP4 SUB DUP2 PUSH0 DUP8 DUP1 EXTCODESIZE ISZERO DUP1 ISZERO PUSH2 0x281 JUMPI PUSH0 DUP1 REVERT JUMPDEST POP GAS CALL ISZERO DUP1 ISZERO PUSH2 0x293 JUMPI RETURNDATASIZE PUSH0 DUP1 RETURNDATACOPY RETURNDATASIZE PUSH0 REVERT JUMPDEST POP POP POP POP POP POP POP POP POP POP JUMP JUMPDEST PUSH0 DUP1 PUSH0 SWAP1 SLOAD SWAP1 PUSH2 0x100 EXP SWAP1 DIV PUSH20 0xFFFFFFFFFFFFFFFFFFFFFFFFFFFFFFFFFFFFFFFF AND SWAP1 POP SWAP1 JUMP JUMPDEST PUSH2 0x2CE PUSH2 0x34A JUMP JUMPDEST PUSH0 PUSH20 0xFFFFFFFFFFFFFFFFFFFFFFFFFFFFFFFFFFFFFFFF AND DUP2 PUSH20 0xFFFFFFFFFFFFFFFFFFFFFFFFFFFFFFFFFFFFFFFF AND SUB PUSH2 0x33E JUMPI PUSH0 PUSH1 0x40 MLOAD PUSH32 0x1E4FBDF700000000000000000000000000000000000000000000000000000000 DUP2 MSTORE PUSH1 0x4 ADD PUSH2 0x335 SWAP2 SWAP1 PUSH2 0x4D8 JUMP JUMPDEST PUSH1 0x40 MLOAD DUP1 SWAP2 SUB SWAP1 REVERT JUMPDEST PUSH2 0x347 DUP2 PUSH2 0x3D1 JUMP JUMPDEST POP JUMP JUMPDEST PUSH2 0x352 PUSH2 0x492 JUMP JUMPDEST PUSH20 0xFFFFFFFFFFFFFFFFFFFFFFFFFFFFFFFFFFFFFFFF AND PUSH2 0x370 PUSH2 0x29F JUMP JUMPDEST PUSH20 0xFFFFFFFFFFFFFFFFFFFFFFFFFFFFFFFFFFFFFFFF AND EQ PUSH2 0x3CF JUMPI PUSH2 0x393 PUSH2 0x492 JUMP JUMPDEST PUSH1 0x40 MLOAD PUSH32 0x118CDAA700000000000000000000000000000000000000000000000000000000 DUP2 MSTORE PUSH1 0x4 ADD PUSH2 0x3C6 SWAP2 SWAP1 PUSH2 0x4D8 JUMP JUMPDEST PUSH1 0x40 MLOAD DUP1 SWAP2 SUB SWAP1 REVERT JUMPDEST JUMP JUMPDEST PUSH0 DUP1 PUSH0 SWAP1 SLOAD SWAP1 PUSH2 0x100 EXP SWAP1 DIV PUSH20 0xFFFFFFFFFFFFFFFFFFFFFFFFFFFFFFFFFFFFFFFF AND SWAP1 POP DUP2 PUSH0 DUP1 PUSH2 0x100 EXP DUP2 SLOAD DUP2 PUSH20 0xFFFFFFFFFFFFFFFFFFFFFFFFFFFFFFFFFFFFFFFF MUL NOT AND SWAP1 DUP4 PUSH20 0xFFFFFFFFFFFFFFFFFFFFFFFFFFFFFFFFFFFFFFFF AND MUL OR SWAP1 SSTORE POP DUP2 PUSH20 0xFFFFFFFFFFFFFFFFFFFFFFFFFFFFFFFFFFFFFFFF AND DUP2 PUSH20 0xFFFFFFFFFFFFFFFFFFFFFFFFFFFFFFFFFFFFFFFF AND PUSH32 0x8BE0079C531659141344CD1FD0A4F28419497F9722A3DAAFE3B4186F6B6457E0 PUSH1 0x40 MLOAD PUSH1 0x40 MLOAD DUP1 SWAP2 SUB SWAP1 LOG3 POP POP JUMP JUMPDEST PUSH0 CALLER SWAP1 POP SWAP1 JUMP JUMPDEST PUSH0 PUSH20 0xFFFFFFFFFFFFFFFFFFFFFFFFFFFFFFFFFFFFFFFF DUP3 AND SWAP1 POP SWAP2 SWAP1 POP JUMP JUMPDEST PUSH0 PUSH2 0x4C2 DUP3 PUSH2 0x499 JUMP JUMPDEST SWAP1 POP SWAP2 SWAP1 POP JUMP JUMPDEST PUSH2 0x4D2 DUP2 PUSH2 0x4B8 JUMP JUMPDEST DUP3 MSTORE POP POP JUMP JUMPDEST PUSH0 PUSH1 0x20 DUP3 ADD SWAP1 POP PUSH2 0x4EB PUSH0 DUP4 ADD DUP5 PUSH2 0x4C9 JUMP JUMPDEST SWAP3 SWAP2 POP POP JUMP JUMPDEST PUSH0 DUP1 REVERT JUMPDEST PUSH0 DUP1 REVERT JUMPDEST PUSH0 DUP2 SWAP1 POP SWAP2 SWAP1 POP JUMP JUMPDEST PUSH2 0x50B DUP2 PUSH2 0x4F9 JUMP JUMPDEST DUP2 EQ PUSH2 0x515 JUMPI PUSH0 DUP1 REVERT JUMPDEST POP JUMP JUMPDEST PUSH0 DUP2 CALLDATALOAD SWAP1 POP PUSH2 0x526 DUP2 PUSH2 0x502 JUMP JUMPDEST SWAP3 SWAP2 POP POP JUMP JUMPDEST PUSH0 DUP1 REVERT JUMPDEST PUSH0 DUP1 REVERT JUMPDEST PUSH0 DUP1 REVERT JUMPDEST PUSH0 DUP1 DUP4 PUSH1 0x1F DUP5 ADD SLT PUSH2 0x54D JUMPI PUSH2 0x54C PUSH2 0x52C JUMP JUMPDEST JUMPDEST DUP3 CALLDATALOAD SWAP1 POP PUSH8 0xFFFFFFFFFFFFFFFF DUP2 GT ISZERO PUSH2 0x56A JUMPI PUSH2 0x569 PUSH2 0x530 JUMP JUMPDEST JUMPDEST PUSH1 0x20 DUP4 ADD SWAP2 POP DUP4 PUSH1 0x20 DUP3 MUL DUP4 ADD GT ISZERO PUSH2 0x586 JUMPI PUSH2 0x585 PUSH2 0x534 JUMP JUMPDEST JUMPDEST SWAP3 POP SWAP3 SWAP1 POP JUMP JUMPDEST PUSH0 DUP1 DUP4 PUSH1 0x1F DUP5 ADD SLT PUSH2 0x5A2 JUMPI PUSH2 0x5A1 PUSH2 0x52C JUMP JUMPDEST JUMPDEST DUP3 CALLDATALOAD SWAP1 POP PUSH8 0xFFFFFFFFFFFFFFFF DUP2 GT ISZERO PUSH2 0x5BF JUMPI PUSH2 0x5BE PUSH2 0x530 JUMP JUMPDEST JUMPDEST PUSH1 0x20 DUP4 ADD SWAP2 POP DUP4 PUSH1 0x20 DUP3 MUL DUP4 ADD GT ISZERO PUSH2 0x5DB JUMPI PUSH2 0x5DA PUSH2 0x534 JUMP JUMPDEST JUMPDEST SWAP3 POP SWAP3 SWAP1 POP JUMP JUMPDEST PUSH0 DUP1 PUSH0 DUP1 PUSH0 PUSH1 0x60 DUP7 DUP9 SUB SLT ISZERO PUSH2 0x5FB JUMPI PUSH2 0x5FA PUSH2 0x4F1 JUMP JUMPDEST JUMPDEST PUSH0 PUSH2 0x608 DUP9 DUP3 DUP10 ADD PUSH2 0x518 JUMP JUMPDEST SWAP6 POP POP PUSH1 0x20 DUP7 ADD CALLDATALOAD PUSH8 0xFFFFFFFFFFFFFFFF DUP2 GT ISZERO PUSH2 0x629 JUMPI PUSH2 0x628 PUSH2 0x4F5 JUMP JUMPDEST JUMPDEST PUSH2 0x635 DUP9 DUP3 DUP10 ADD PUSH2 0x538 JUMP JUMPDEST SWAP5 POP SWAP5 POP POP PUSH1 0x40 DUP7 ADD CALLDATALOAD PUSH8 0xFFFFFFFFFFFFFFFF DUP2 GT ISZERO PUSH2 0x658 JUMPI PUSH2 0x657 PUSH2 0x4F5 JUMP JUMPDEST JUMPDEST PUSH2 0x664 DUP9 DUP3 DUP10 ADD PUSH2 0x58D JUMP JUMPDEST SWAP3 POP SWAP3 POP POP SWAP3 SWAP6 POP SWAP3 SWAP6 SWAP1 SWAP4 POP JUMP JUMPDEST PUSH2 0x67C DUP2 PUSH2 0x4B8 JUMP JUMPDEST DUP2 EQ PUSH2 0x686 JUMPI PUSH0 DUP1 REVERT JUMPDEST POP JUMP JUMPDEST PUSH0 DUP2 CALLDATALOAD SWAP1 POP PUSH2 0x697 DUP2 PUSH2 0x673 JUMP JUMPDEST SWAP3 SWAP2 POP POP JUMP JUMPDEST PUSH0 PUSH1 0x20 DUP3 DUP5 SUB SLT ISZERO PUSH2 0x6B2 JUMPI PUSH2 0x6B1 PUSH2 0x4F1 JUMP JUMPDEST JUMPDEST PUSH0 PUSH2 0x6BF DUP5 DUP3 DUP6 ADD PUSH2 0x689 JUMP JUMPDEST SWAP2 POP POP SWAP3 SWAP2 POP POP JUMP JUMPDEST PUSH0 DUP3 DUP3 MSTORE PUSH1 0x20 DUP3 ADD SWAP1 POP SWAP3 SWAP2 POP POP JUMP JUMPDEST PUSH32 0x637265617465496E6865726974616E636528292C2076616C6F7220696E76616C PUSH0 DUP3 ADD MSTORE PUSH32 0x69646F0000000000000000000000000000000000000000000000000000000000 PUSH1 0x20 DUP3 ADD MSTORE POP JUMP JUMPDEST PUSH0 PUSH2 0x732 PUSH1 0x23 DUP4 PUSH2 0x6C8 JUMP JUMPDEST SWAP2 POP PUSH2 0x73D DUP3 PUSH2 0x6D8 JUMP JUMPDEST PUSH1 0x40 DUP3 ADD SWAP1 POP SWAP2 SWAP1 POP JUMP JUMPDEST PUSH0 PUSH1 0x20 DUP3 ADD SWAP1 POP DUP2 DUP2 SUB PUSH0 DUP4 ADD MSTORE PUSH2 0x75F DUP2 PUSH2 0x726 JUMP JUMPDEST SWAP1 POP SWAP2 SWAP1 POP JUMP JUMPDEST PUSH32 0x637265617465496E6865726974616E636528292C2061646963696F6E65206F73 PUSH0 DUP3 ADD MSTORE PUSH32 0x20686572646569726F7300000000000000000000000000000000000000000000 PUSH1 0x20 DUP3 ADD MSTORE POP JUMP JUMPDEST PUSH0 PUSH2 0x7C0 PUSH1 0x2A DUP4 PUSH2 0x6C8 JUMP JUMPDEST SWAP2 POP PUSH2 0x7CB DUP3 PUSH2 0x766 JUMP JUMPDEST PUSH1 0x40 DUP3 ADD SWAP1 POP SWAP2 SWAP1 POP JUMP JUMPDEST PUSH0 PUSH1 0x20 DUP3 ADD SWAP1 POP DUP2 DUP2 SUB PUSH0 DUP4 ADD MSTORE PUSH2 0x7ED DUP2 PUSH2 0x7B4 JUMP JUMPDEST SWAP1 POP SWAP2 SWAP1 POP JUMP JUMPDEST PUSH32 0x637265617465496E6865726974616E636528292C207175616E74696461646520 PUSH0 DUP3 ADD MSTORE PUSH32 0x646520656E64657265636F73206520706F7263656E746167656E732064696665 PUSH1 0x20 DUP3 ADD MSTORE PUSH32 0x72656E7465730000000000000000000000000000000000000000000000000000 PUSH1 0x40 DUP3 ADD MSTORE POP JUMP JUMPDEST PUSH0 PUSH2 0x874 PUSH1 0x46 DUP4 PUSH2 0x6C8 JUMP JUMPDEST SWAP2 POP PUSH2 0x87F DUP3 PUSH2 0x7F4 JUMP JUMPDEST PUSH1 0x60 DUP3 ADD SWAP1 POP SWAP2 SWAP1 POP JUMP JUMPDEST PUSH0 PUSH1 0x20 DUP3 ADD SWAP1 POP DUP2 DUP2 SUB PUSH0 DUP4 ADD MSTORE PUSH2 0x8A1 DUP2 PUSH2 0x868 JUMP JUMPDEST SWAP1 POP SWAP2 SWAP1 POP JUMP JUMPDEST PUSH2 0x8B1 DUP2 PUSH2 0x4F9 JUMP JUMPDEST DUP3 MSTORE POP POP JUMP JUMPDEST PUSH0 DUP3 DUP3 MSTORE PUSH1 0x20 DUP3 ADD SWAP1 POP SWAP3 SWAP2 POP POP JUMP JUMPDEST PUSH0 DUP2 SWAP1 POP SWAP2 SWAP1 POP JUMP JUMPDEST PUSH2 0x8D9 DUP2 PUSH2 0x4B8 JUMP JUMPDEST DUP3 MSTORE POP POP JUMP JUMPDEST PUSH0 PUSH2 0x8EA DUP4 DUP4 PUSH2 0x8D0 JUMP JUMPDEST PUSH1 0x20 DUP4 ADD SWAP1 POP SWAP3 SWAP2 POP POP JUMP JUMPDEST PUSH0 PUSH2 0x904 PUSH1 0x20 DUP5 ADD DUP5 PUSH2 0x689 JUMP JUMPDEST SWAP1 POP SWAP3 SWAP2 POP POP JUMP JUMPDEST PUSH0 PUSH1 0x20 DUP3 ADD SWAP1 POP SWAP2 SWAP1 POP JUMP JUMPDEST PUSH0 PUSH2 0x923 DUP4 DUP6 PUSH2 0x8B7 JUMP JUMPDEST SWAP4 POP PUSH2 0x92E DUP3 PUSH2 0x8C7 JUMP JUMPDEST DUP1 PUSH0 JUMPDEST DUP6 DUP2 LT ISZERO PUSH2 0x966 JUMPI PUSH2 0x943 DUP3 DUP5 PUSH2 0x8F6 JUMP JUMPDEST PUSH2 0x94D DUP9 DUP3 PUSH2 0x8DF JUMP JUMPDEST SWAP8 POP PUSH2 0x958 DUP4 PUSH2 0x90C JUMP JUMPDEST SWAP3 POP POP PUSH1 0x1 DUP2 ADD SWAP1 POP PUSH2 0x931 JUMP JUMPDEST POP DUP6 SWAP3 POP POP POP SWAP4 SWAP3 POP POP POP JUMP JUMPDEST PUSH0 DUP3 DUP3 MSTORE PUSH1 0x20 DUP3 ADD SWAP1 POP SWAP3 SWAP2 POP POP JUMP JUMPDEST PUSH0 DUP2 SWAP1 POP SWAP2 SWAP1 POP JUMP JUMPDEST PUSH0 PUSH2 0xFFFF DUP3 AND SWAP1 POP SWAP2 SWAP1 POP JUMP JUMPDEST PUSH2 0x9A2 DUP2 PUSH2 0x98C JUMP JUMPDEST DUP3 MSTORE POP POP JUMP JUMPDEST PUSH0 PUSH2 0x9B3 DUP4 DUP4 PUSH2 0x999 JUMP JUMPDEST PUSH1 0x20 DUP4 ADD SWAP1 POP SWAP3 SWAP2 POP POP JUMP JUMPDEST PUSH2 0x9C8 DUP2 PUSH2 0x98C JUMP JUMPDEST DUP2 EQ PUSH2 0x9D2 JUMPI PUSH0 DUP1 REVERT JUMPDEST POP JUMP JUMPDEST PUSH0 DUP2 CALLDATALOAD SWAP1 POP PUSH2 0x9E3 DUP2 PUSH2 0x9BF JUMP JUMPDEST SWAP3 SWAP2 POP POP JUMP JUMPDEST PUSH0 PUSH2 0x9F7 PUSH1 0x20 DUP5 ADD DUP5 PUSH2 0x9D5 JUMP JUMPDEST SWAP1 POP SWAP3 SWAP2 POP POP JUMP JUMPDEST PUSH0 PUSH1 0x20 DUP3 ADD SWAP1 POP SWAP2 SWAP1 POP JUMP JUMPDEST PUSH0 PUSH2 0xA16 DUP4 DUP6 PUSH2 0x973 JUMP JUMPDEST SWAP4 POP PUSH2 0xA21 DUP3 PUSH2 0x983 JUMP JUMPDEST DUP1 PUSH0 JUMPDEST DUP6 DUP2 LT ISZERO PUSH2 0xA59 JUMPI PUSH2 0xA36 DUP3 DUP5 PUSH2 0x9E9 JUMP JUMPDEST PUSH2 0xA40 DUP9 DUP3 PUSH2 0x9A8 JUMP JUMPDEST SWAP8 POP PUSH2 0xA4B DUP4 PUSH2 0x9FF JUMP JUMPDEST SWAP3 POP POP PUSH1 0x1 DUP2 ADD SWAP1 POP PUSH2 0xA24 JUMP JUMPDEST POP DUP6 SWAP3 POP POP POP SWAP4 SWAP3 POP POP POP JUMP JUMPDEST PUSH0 PUSH1 0x80 DUP3 ADD SWAP1 POP PUSH2 0xA79 PUSH0 DUP4 ADD DUP10 PUSH2 0x4C9 JUMP JUMPDEST PUSH2 0xA86 PUSH1 0x20 DUP4 ADD DUP9 PUSH2 0x8A8 JUMP JUMPDEST DUP2 DUP2 SUB PUSH1 0x40 DUP4 ADD MSTORE PUSH2 0xA99 DUP2 DUP7 DUP9 PUSH2 0x918 JUMP JUMPDEST SWAP1 POP DUP2 DUP2 SUB PUSH1 0x60 DUP4 ADD MSTORE PUSH2 0xAAE DUP2 DUP5 DUP7 PUSH2 0xA0B JUMP JUMPDEST SWAP1 POP SWAP8 SWAP7 POP POP POP POP POP POP POP JUMP INVALID LOG2 PUSH5 0x6970667358 0x22 SLT KECCAK256 0xCC 0xB3 SWAP4 0x1E XOR SHL DUP5 0xC DUP14 CALL STATICCALL EXP CREATE PUSH5 0x6F7020B991 EXTCODESIZE 0xCA DUP12 0xD7 0xEE JUMP 0x26 0xC7 PUSH32 0xFC3F424764736F6C634300081A00330000000000000000000000000000000000 "
				},
				"gasEstimates": {
					"creation": {
						"codeDepositCost": "560200",
						"executionCost": "infinite",
						"totalCost": "infinite"
					},
					"external": {
						"createInheritance(uint256,address[],uint16[])": "infinite",
						"owner()": "2559",
						"renounceOwnership()": "infinite",
						"testamentData()": "2486",
						"transferOwnership(address)": "infinite"
					}
				},
				"methodIdentifiers": {
					"createInheritance(uint256,address[],uint16[])": "8adc7d54",
					"owner()": "8da5cb5b",
					"renounceOwnership()": "715018a6",
					"testamentData()": "6f6a30f3",
					"transferOwnership(address)": "f2fde38b"
				}
			},
			"storageLayout": {
				"storage": [
					{
						"astId": 311,
						"contract": ".deps/studying-solidity/v0.1/Testament/InheritanceManager.sol:InheritanceManager",
						"label": "_owner",
						"offset": 0,
						"slot": "0",
						"type": "t_address"
					},
					{
						"astId": 21,
						"contract": ".deps/studying-solidity/v0.1/Testament/InheritanceManager.sol:InheritanceManager",
						"label": "testamentData",
						"offset": 0,
						"slot": "1",
						"type": "t_address"
					}
				],
				"types": {
					"t_address": {
						"encoding": "inplace",
						"label": "address",
						"numberOfBytes": "20"
					}
				}
			},
			"userdoc": {
				"kind": "user",
				"methods": {},
				"version": 1
			}
		}
	}
}