{
	".deps/studying-solidity/testament/Testament.sol": {
		"Testament": {
			"abi": [
				{
					"inputs": [],
					"name": "cancelTestament",
					"outputs": [],
					"stateMutability": "nonpayable",
					"type": "function"
				},
				{
					"inputs": [
						{
							"internalType": "address[]",
							"name": "_addresses",
							"type": "address[]"
						},
						{
							"internalType": "uint8[]",
							"name": "_percentagens",
							"type": "uint8[]"
						}
					],
					"name": "createInheritance",
					"outputs": [],
					"stateMutability": "payable",
					"type": "function"
				},
				{
					"inputs": [
						{
							"internalType": "address[]",
							"name": "inheritorsAddresses",
							"type": "address[]"
						},
						{
							"internalType": "uint64[]",
							"name": "percentages",
							"type": "uint64[]"
						}
					],
					"name": "editInheritorsInMyTestament",
					"outputs": [],
					"stateMutability": "nonpayable",
					"type": "function"
				},
				{
					"inputs": [
						{
							"internalType": "address",
							"name": "testator",
							"type": "address"
						}
					],
					"name": "getMyTestament",
					"outputs": [
						{
							"internalType": "address[]",
							"name": "",
							"type": "address[]"
						},
						{
							"internalType": "uint64[]",
							"name": "",
							"type": "uint64[]"
						},
						{
							"internalType": "uint128",
							"name": "",
							"type": "uint128"
						},
						{
							"internalType": "uint256",
							"name": "",
							"type": "uint256"
						}
					],
					"stateMutability": "view",
					"type": "function"
				},
				{
					"inputs": [],
					"name": "getMyTestators",
					"outputs": [
						{
							"internalType": "address[]",
							"name": "",
							"type": "address[]"
						}
					],
					"stateMutability": "view",
					"type": "function"
				},
				{
					"inputs": [
						{
							"internalType": "address",
							"name": "testator",
							"type": "address"
						}
					],
					"name": "inheritorCanWithdrawal",
					"outputs": [
						{
							"internalType": "bool",
							"name": "",
							"type": "bool"
						}
					],
					"stateMutability": "view",
					"type": "function"
				},
				{
					"inputs": [
						{
							"internalType": "address",
							"name": "",
							"type": "address"
						},
						{
							"internalType": "uint256",
							"name": "",
							"type": "uint256"
						}
					],
					"name": "inheritorToTestators",
					"outputs": [
						{
							"internalType": "address",
							"name": "",
							"type": "address"
						}
					],
					"stateMutability": "view",
					"type": "function"
				},
				{
					"inputs": [
						{
							"internalType": "address",
							"name": "",
							"type": "address"
						}
					],
					"name": "testament",
					"outputs": [
						{
							"internalType": "bool",
							"name": "exist",
							"type": "bool"
						},
						{
							"internalType": "uint128",
							"name": "lastProofOfLife",
							"type": "uint128"
						},
						{
							"internalType": "uint256",
							"name": "balance",
							"type": "uint256"
						}
					],
					"stateMutability": "view",
					"type": "function"
				},
				{
					"inputs": [],
					"name": "updateProofOfLife",
					"outputs": [],
					"stateMutability": "nonpayable",
					"type": "function"
				}
			],
			"devdoc": {
				"kind": "dev",
				"methods": {},
				"version": 1
			},
			"evm": {
				"assembly": "    /* \".deps/studying-solidity/testament/Testament.sol\":104:6390  contract Testament is StructsToTestament {... */\n  mstore(0x40, 0x80)\n  callvalue\n  dup1\n  iszero\n  tag_1\n  jumpi\n  0x00\n  dup1\n  revert\ntag_1:\n  pop\n  dataSize(sub_0)\n  dup1\n  dataOffset(sub_0)\n  0x00\n  codecopy\n  0x00\n  return\nstop\n\nsub_0: assembly {\n        /* \".deps/studying-solidity/testament/Testament.sol\":104:6390  contract Testament is StructsToTestament {... */\n      mstore(0x40, 0x80)\n      jumpi(tag_1, lt(calldatasize, 0x04))\n      shr(0xe0, calldataload(0x00))\n      dup1\n      0x759a8a98\n      gt\n      tag_11\n      jumpi\n      dup1\n      0x759a8a98\n      eq\n      tag_6\n      jumpi\n      dup1\n      0x7618d0a7\n      eq\n      tag_7\n      jumpi\n      dup1\n      0xc6064610\n      eq\n      tag_8\n      jumpi\n      dup1\n      0xc80cc411\n      eq\n      tag_9\n      jumpi\n      dup1\n      0xca7252ea\n      eq\n      tag_10\n      jumpi\n      jump(tag_1)\n    tag_11:\n      dup1\n      0x1aba6da6\n      eq\n      tag_2\n      jumpi\n      dup1\n      0x242e1d9b\n      eq\n      tag_3\n      jumpi\n      dup1\n      0x3c9e9964\n      eq\n      tag_4\n      jumpi\n      dup1\n      0x5b084db9\n      eq\n      tag_5\n      jumpi\n    tag_1:\n      0x00\n      dup1\n      revert\n        /* \".deps/studying-solidity/testament/Testament.sol\":4223:4587  function cancelTestament() external {... */\n    tag_2:\n      callvalue\n      dup1\n      iszero\n      tag_12\n      jumpi\n      0x00\n      dup1\n      revert\n    tag_12:\n      pop\n      tag_13\n      tag_14\n      jump\t// in\n    tag_13:\n      stop\n        /* \".deps/studying-solidity/testament/Testament.sol\":3030:4217  function editInheritorsInMyTestament(... */\n    tag_3:\n      callvalue\n      dup1\n      iszero\n      tag_15\n      jumpi\n      0x00\n      dup1\n      revert\n    tag_15:\n      pop\n      tag_16\n      0x04\n      dup1\n      calldatasize\n      sub\n      dup2\n      add\n      swap1\n      tag_17\n      swap2\n      swap1\n      tag_18\n      jump\t// in\n    tag_17:\n      tag_19\n      jump\t// in\n    tag_16:\n      stop\n        /* \".deps/studying-solidity/testament/Testament.sol\":6115:6388  function inheritorCanWithdrawal(address testator)... */\n    tag_4:\n      callvalue\n      dup1\n      iszero\n      tag_20\n      jumpi\n      0x00\n      dup1\n      revert\n    tag_20:\n      pop\n      tag_21\n      0x04\n      dup1\n      calldatasize\n      sub\n      dup2\n      add\n      swap1\n      tag_22\n      swap2\n      swap1\n      tag_23\n      jump\t// in\n    tag_22:\n      tag_24\n      jump\t// in\n    tag_21:\n      mload(0x40)\n      tag_25\n      swap2\n      swap1\n      tag_26\n      jump\t// in\n    tag_25:\n      mload(0x40)\n      dup1\n      swap2\n      sub\n      swap1\n      return\n        /* \".deps/studying-solidity/testament/Testament.sol\":308:365  mapping(address => address[]) public inheritorToTestators */\n    tag_5:\n      callvalue\n      dup1\n      iszero\n      tag_27\n      jumpi\n      0x00\n      dup1\n      revert\n    tag_27:\n      pop\n      tag_28\n      0x04\n      dup1\n      calldatasize\n      sub\n      dup2\n      add\n      swap1\n      tag_29\n      swap2\n      swap1\n      tag_30\n      jump\t// in\n    tag_29:\n      tag_31\n      jump\t// in\n    tag_28:\n      mload(0x40)\n      tag_32\n      swap2\n      swap1\n      tag_33\n      jump\t// in\n    tag_32:\n      mload(0x40)\n      dup1\n      swap2\n      sub\n      swap1\n      return\n        /* \".deps/studying-solidity/testament/Testament.sol\":372:1770  function createInheritance(... */\n    tag_6:\n      tag_34\n      0x04\n      dup1\n      calldatasize\n      sub\n      dup2\n      add\n      swap1\n      tag_35\n      swap2\n      swap1\n      tag_36\n      jump\t// in\n    tag_35:\n      tag_37\n      jump\t// in\n    tag_34:\n      stop\n        /* \".deps/studying-solidity/testament/Testament.sol\":188:234  mapping(address => Testament) public testament */\n    tag_7:\n      callvalue\n      dup1\n      iszero\n      tag_38\n      jumpi\n      0x00\n      dup1\n      revert\n    tag_38:\n      pop\n      tag_39\n      0x04\n      dup1\n      calldatasize\n      sub\n      dup2\n      add\n      swap1\n      tag_40\n      swap2\n      swap1\n      tag_23\n      jump\t// in\n    tag_40:\n      tag_41\n      jump\t// in\n    tag_39:\n      mload(0x40)\n      tag_42\n      swap4\n      swap3\n      swap2\n      swap1\n      tag_43\n      jump\t// in\n    tag_42:\n      mload(0x40)\n      dup1\n      swap2\n      sub\n      swap1\n      return\n        /* \".deps/studying-solidity/testament/Testament.sol\":1776:2773  function getMyTestament(address testator)... */\n    tag_8:\n      callvalue\n      dup1\n      iszero\n      tag_44\n      jumpi\n      0x00\n      dup1\n      revert\n    tag_44:\n      pop\n      tag_45\n      0x04\n      dup1\n      calldatasize\n      sub\n      dup2\n      add\n      swap1\n      tag_46\n      swap2\n      swap1\n      tag_23\n      jump\t// in\n    tag_46:\n      tag_47\n      jump\t// in\n    tag_45:\n      mload(0x40)\n      tag_48\n      swap5\n      swap4\n      swap3\n      swap2\n      swap1\n      tag_49\n      jump\t// in\n    tag_48:\n      mload(0x40)\n      dup1\n      swap2\n      sub\n      swap1\n      return\n        /* \".deps/studying-solidity/testament/Testament.sol\":4593:4854  function updateProofOfLife() public {... */\n    tag_9:\n      callvalue\n      dup1\n      iszero\n      tag_50\n      jumpi\n      0x00\n      dup1\n      revert\n    tag_50:\n      pop\n      tag_51\n      tag_52\n      jump\t// in\n    tag_51:\n      stop\n        /* \".deps/studying-solidity/testament/Testament.sol\":2779:3024  function getMyTestators() external view returns (address[] memory) {... */\n    tag_10:\n      callvalue\n      dup1\n      iszero\n      tag_53\n      jumpi\n      0x00\n      dup1\n      revert\n    tag_53:\n      pop\n      tag_54\n      tag_55\n      jump\t// in\n    tag_54:\n      mload(0x40)\n      tag_56\n      swap2\n      swap1\n      tag_57\n      jump\t// in\n    tag_56:\n      mload(0x40)\n      dup1\n      swap2\n      sub\n      swap1\n      return\n        /* \".deps/studying-solidity/testament/Testament.sol\":4223:4587  function cancelTestament() external {... */\n    tag_14:\n        /* \".deps/studying-solidity/testament/Testament.sol\":4269:4290  address _ownTestament */\n      0x00\n        /* \".deps/studying-solidity/testament/Testament.sol\":4293:4303  msg.sender */\n      caller\n        /* \".deps/studying-solidity/testament/Testament.sol\":4269:4303  address _ownTestament = msg.sender */\n      swap1\n      pop\n        /* \".deps/studying-solidity/testament/Testament.sol\":4315:4327  bool success */\n      0x00\n        /* \".deps/studying-solidity/testament/Testament.sol\":4333:4343  msg.sender */\n      caller\n        /* \".deps/studying-solidity/testament/Testament.sol\":4333:4348  msg.sender.call */\n      0xffffffffffffffffffffffffffffffffffffffff\n      and\n        /* \".deps/studying-solidity/testament/Testament.sol\":4369:4378  testament */\n      0x00\n        /* \".deps/studying-solidity/testament/Testament.sol\":4369:4393  testament[_ownTestament] */\n      dup1\n        /* \".deps/studying-solidity/testament/Testament.sol\":4379:4392  _ownTestament */\n      dup5\n        /* \".deps/studying-solidity/testament/Testament.sol\":4369:4393  testament[_ownTestament] */\n      0xffffffffffffffffffffffffffffffffffffffff\n      and\n      0xffffffffffffffffffffffffffffffffffffffff\n      and\n      dup2\n      mstore\n      0x20\n      add\n      swap1\n      dup2\n      mstore\n      0x20\n      add\n      0x00\n      keccak256\n        /* \".deps/studying-solidity/testament/Testament.sol\":4369:4401  testament[_ownTestament].balance */\n      0x02\n      add\n      sload\n        /* \".deps/studying-solidity/testament/Testament.sol\":4333:4415  msg.sender.call{... */\n      mload(0x40)\n      tag_59\n      swap1\n      tag_60\n      jump\t// in\n    tag_59:\n      0x00\n      mload(0x40)\n      dup1\n      dup4\n      sub\n      dup2\n      dup6\n      dup8\n      gas\n      call\n      swap3\n      pop\n      pop\n      pop\n      returndatasize\n      dup1\n      0x00\n      dup2\n      eq\n      tag_63\n      jumpi\n      mload(0x40)\n      swap2\n      pop\n      and(add(returndatasize, 0x3f), not(0x1f))\n      dup3\n      add\n      0x40\n      mstore\n      returndatasize\n      dup3\n      mstore\n      returndatasize\n      0x00\n      0x20\n      dup5\n      add\n      returndatacopy\n      jump(tag_62)\n    tag_63:\n      0x60\n      swap2\n      pop\n    tag_62:\n      pop\n        /* \".deps/studying-solidity/testament/Testament.sol\":4314:4415  (bool success, ) = msg.sender.call{... */\n      pop\n      swap1\n      pop\n        /* \".deps/studying-solidity/testament/Testament.sol\":4433:4440  success */\n      dup1\n        /* \".deps/studying-solidity/testament/Testament.sol\":4425:4483  require(success, \"cancelTestament(), Falha ao enviar ETH\") */\n      tag_64\n      jumpi\n      mload(0x40)\n      0x08c379a000000000000000000000000000000000000000000000000000000000\n      dup2\n      mstore\n      0x04\n      add\n      tag_65\n      swap1\n      tag_66\n      jump\t// in\n    tag_65:\n      mload(0x40)\n      dup1\n      swap2\n      sub\n      swap1\n      revert\n    tag_64:\n        /* \".deps/studying-solidity/testament/Testament.sol\":4494:4538  clearOldInheritorsOfTestament(_ownTestament) */\n      tag_67\n        /* \".deps/studying-solidity/testament/Testament.sol\":4524:4537  _ownTestament */\n      dup3\n        /* \".deps/studying-solidity/testament/Testament.sol\":4494:4523  clearOldInheritorsOfTestament */\n      tag_68\n        /* \".deps/studying-solidity/testament/Testament.sol\":4494:4538  clearOldInheritorsOfTestament(_ownTestament) */\n      jump\t// in\n    tag_67:\n        /* \".deps/studying-solidity/testament/Testament.sol\":4556:4565  testament */\n      0x00\n        /* \".deps/studying-solidity/testament/Testament.sol\":4556:4580  testament[_ownTestament] */\n      dup1\n        /* \".deps/studying-solidity/testament/Testament.sol\":4566:4579  _ownTestament */\n      dup4\n        /* \".deps/studying-solidity/testament/Testament.sol\":4556:4580  testament[_ownTestament] */\n      0xffffffffffffffffffffffffffffffffffffffff\n      and\n      0xffffffffffffffffffffffffffffffffffffffff\n      and\n      dup2\n      mstore\n      0x20\n      add\n      swap1\n      dup2\n      mstore\n      0x20\n      add\n      0x00\n      keccak256\n      0x00\n        /* \".deps/studying-solidity/testament/Testament.sol\":4549:4580  delete testament[_ownTestament] */\n      dup1\n      dup3\n      add\n      0x00\n      tag_69\n      swap2\n      swap1\n      tag_70\n      jump\t// in\n    tag_69:\n      0x01\n      dup3\n      add\n      exp(0x0100, 0x00)\n      dup2\n      sload\n      swap1\n      0xff\n      mul\n      not\n      and\n      swap1\n      sstore\n      0x01\n      dup3\n      add\n      exp(0x0100, 0x01)\n      dup2\n      sload\n      swap1\n      0xffffffffffffffffffffffffffffffff\n      mul\n      not\n      and\n      swap1\n      sstore\n      0x02\n      dup3\n      add\n      0x00\n      swap1\n      sstore\n      pop\n      pop\n        /* \".deps/studying-solidity/testament/Testament.sol\":4259:4587  {... */\n      pop\n      pop\n        /* \".deps/studying-solidity/testament/Testament.sol\":4223:4587  function cancelTestament() external {... */\n      jump\t// out\n        /* \".deps/studying-solidity/testament/Testament.sol\":3030:4217  function editInheritorsInMyTestament(... */\n    tag_19:\n        /* \".deps/studying-solidity/testament/Testament.sol\":3179:3200  address _ownTestament */\n      0x00\n        /* \".deps/studying-solidity/testament/Testament.sol\":3203:3213  msg.sender */\n      caller\n        /* \".deps/studying-solidity/testament/Testament.sol\":3179:3213  address _ownTestament = msg.sender */\n      swap1\n      pop\n        /* \".deps/studying-solidity/testament/Testament.sol\":3274:3275  0 */\n      0x00\n        /* \".deps/studying-solidity/testament/Testament.sol\":3244:3263  inheritorsAddresses */\n      dup6\n      dup6\n        /* \".deps/studying-solidity/testament/Testament.sol\":3244:3270  inheritorsAddresses.length */\n      swap1\n      pop\n        /* \".deps/studying-solidity/testament/Testament.sol\":3244:3275  inheritorsAddresses.length != 0 */\n      sub\n        /* \".deps/studying-solidity/testament/Testament.sol\":3223:3343  require(... */\n      tag_72\n      jumpi\n      mload(0x40)\n      0x08c379a000000000000000000000000000000000000000000000000000000000\n      dup2\n      mstore\n      0x04\n      add\n      tag_73\n      swap1\n      tag_74\n      jump\t// in\n    tag_73:\n      mload(0x40)\n      dup1\n      swap2\n      sub\n      swap1\n      revert\n    tag_72:\n        /* \".deps/studying-solidity/testament/Testament.sol\":3404:3415  percentages */\n      dup3\n      dup3\n        /* \".deps/studying-solidity/testament/Testament.sol\":3404:3422  percentages.length */\n      swap1\n      pop\n        /* \".deps/studying-solidity/testament/Testament.sol\":3374:3393  inheritorsAddresses */\n      dup6\n      dup6\n        /* \".deps/studying-solidity/testament/Testament.sol\":3374:3400  inheritorsAddresses.length */\n      swap1\n      pop\n        /* \".deps/studying-solidity/testament/Testament.sol\":3374:3422  inheritorsAddresses.length == percentages.length */\n      eq\n        /* \".deps/studying-solidity/testament/Testament.sol\":3353:3518  require(... */\n      tag_75\n      jumpi\n      mload(0x40)\n      0x08c379a000000000000000000000000000000000000000000000000000000000\n      dup2\n      mstore\n      0x04\n      add\n      tag_76\n      swap1\n      tag_77\n      jump\t// in\n    tag_76:\n      mload(0x40)\n      dup1\n      swap2\n      sub\n      swap1\n      revert\n    tag_75:\n        /* \".deps/studying-solidity/testament/Testament.sol\":3529:3573  clearOldInheritorsOfTestament(_ownTestament) */\n      tag_78\n        /* \".deps/studying-solidity/testament/Testament.sol\":3559:3572  _ownTestament */\n      dup2\n        /* \".deps/studying-solidity/testament/Testament.sol\":3529:3558  clearOldInheritorsOfTestament */\n      tag_68\n        /* \".deps/studying-solidity/testament/Testament.sol\":3529:3573  clearOldInheritorsOfTestament(_ownTestament) */\n      jump\t// in\n    tag_78:\n        /* \".deps/studying-solidity/testament/Testament.sol\":3692:3701  testament */\n      0x00\n        /* \".deps/studying-solidity/testament/Testament.sol\":3692:3716  testament[_ownTestament] */\n      dup1\n        /* \".deps/studying-solidity/testament/Testament.sol\":3702:3715  _ownTestament */\n      dup3\n        /* \".deps/studying-solidity/testament/Testament.sol\":3692:3716  testament[_ownTestament] */\n      0xffffffffffffffffffffffffffffffffffffffff\n      and\n      0xffffffffffffffffffffffffffffffffffffffff\n      and\n      dup2\n      mstore\n      0x20\n      add\n      swap1\n      dup2\n      mstore\n      0x20\n      add\n      0x00\n      keccak256\n        /* \".deps/studying-solidity/testament/Testament.sol\":3692:3727  testament[_ownTestament].inheritors */\n      0x00\n      add\n      0x00\n        /* \".deps/studying-solidity/testament/Testament.sol\":3685:3727  delete testament[_ownTestament].inheritors */\n      tag_79\n      swap2\n      swap1\n      tag_70\n      jump\t// in\n    tag_79:\n        /* \".deps/studying-solidity/testament/Testament.sol\":3743:3752  uint256 i */\n      0x00\n        /* \".deps/studying-solidity/testament/Testament.sol\":3738:4211  for (uint256 i = 0; i < inheritorsAddresses.length; i++) {... */\n    tag_80:\n        /* \".deps/studying-solidity/testament/Testament.sol\":3762:3781  inheritorsAddresses */\n      dup6\n      dup6\n        /* \".deps/studying-solidity/testament/Testament.sol\":3762:3788  inheritorsAddresses.length */\n      swap1\n      pop\n        /* \".deps/studying-solidity/testament/Testament.sol\":3758:3759  i */\n      dup2\n        /* \".deps/studying-solidity/testament/Testament.sol\":3758:3788  i < inheritorsAddresses.length */\n      lt\n        /* \".deps/studying-solidity/testament/Testament.sol\":3738:4211  for (uint256 i = 0; i < inheritorsAddresses.length; i++) {... */\n      iszero\n      tag_81\n      jumpi\n        /* \".deps/studying-solidity/testament/Testament.sol\":3809:3836  Inheritor memory _inheritor */\n      0x00\n        /* \".deps/studying-solidity/testament/Testament.sol\":3839:3934  Inheritor(... */\n      mload(0x40)\n      dup1\n      0x40\n      add\n      0x40\n      mstore\n      dup1\n        /* \".deps/studying-solidity/testament/Testament.sol\":3866:3885  inheritorsAddresses */\n      dup9\n      dup9\n        /* \".deps/studying-solidity/testament/Testament.sol\":3886:3887  i */\n      dup6\n        /* \".deps/studying-solidity/testament/Testament.sol\":3866:3888  inheritorsAddresses[i] */\n      dup2\n      dup2\n      lt\n      tag_83\n      jumpi\n      tag_84\n      tag_85\n      jump\t// in\n    tag_84:\n    tag_83:\n      swap1\n      pop\n      0x20\n      mul\n      add\n      0x20\n      dup2\n      add\n      swap1\n      tag_86\n      swap2\n      swap1\n      tag_23\n      jump\t// in\n    tag_86:\n        /* \".deps/studying-solidity/testament/Testament.sol\":3839:3934  Inheritor(... */\n      0xffffffffffffffffffffffffffffffffffffffff\n      and\n      dup2\n      mstore\n      0x20\n      add\n        /* \".deps/studying-solidity/testament/Testament.sol\":3906:3917  percentages */\n      dup7\n      dup7\n        /* \".deps/studying-solidity/testament/Testament.sol\":3918:3919  i */\n      dup6\n        /* \".deps/studying-solidity/testament/Testament.sol\":3906:3920  percentages[i] */\n      dup2\n      dup2\n      lt\n      tag_87\n      jumpi\n      tag_88\n      tag_85\n      jump\t// in\n    tag_88:\n    tag_87:\n      swap1\n      pop\n      0x20\n      mul\n      add\n      0x20\n      dup2\n      add\n      swap1\n      tag_89\n      swap2\n      swap1\n      tag_90\n      jump\t// in\n    tag_89:\n        /* \".deps/studying-solidity/testament/Testament.sol\":3839:3934  Inheritor(... */\n      0xffffffffffffffff\n      and\n      dup2\n      mstore\n      pop\n        /* \".deps/studying-solidity/testament/Testament.sol\":3809:3934  Inheritor memory _inheritor = Inheritor(... */\n      swap1\n      pop\n        /* \".deps/studying-solidity/testament/Testament.sol\":4001:4010  testament */\n      0x00\n        /* \".deps/studying-solidity/testament/Testament.sol\":4001:4025  testament[_ownTestament] */\n      dup1\n        /* \".deps/studying-solidity/testament/Testament.sol\":4011:4024  _ownTestament */\n      dup5\n        /* \".deps/studying-solidity/testament/Testament.sol\":4001:4025  testament[_ownTestament] */\n      0xffffffffffffffffffffffffffffffffffffffff\n      and\n      0xffffffffffffffffffffffffffffffffffffffff\n      and\n      dup2\n      mstore\n      0x20\n      add\n      swap1\n      dup2\n      mstore\n      0x20\n      add\n      0x00\n      keccak256\n        /* \".deps/studying-solidity/testament/Testament.sol\":4001:4036  testament[_ownTestament].inheritors */\n      0x00\n      add\n        /* \".deps/studying-solidity/testament/Testament.sol\":4042:4052  _inheritor */\n      dup2\n        /* \".deps/studying-solidity/testament/Testament.sol\":4001:4053  testament[_ownTestament].inheritors.push(_inheritor) */\n      swap1\n      dup1\n      0x01\n      dup2\n      sload\n      add\n      dup1\n      dup3\n      sstore\n      dup1\n      swap2\n      pop\n      pop\n      0x01\n      swap1\n      sub\n      swap1\n      0x00\n      mstore\n      keccak256(0x00, 0x20)\n      add\n      0x00\n      swap1\n      swap2\n      swap1\n      swap2\n      swap1\n      swap2\n      pop\n      0x00\n      dup3\n      add\n      mload\n      dup2\n      0x00\n      add\n      exp(0x0100, 0x00)\n      dup2\n      sload\n      dup2\n      0xffffffffffffffffffffffffffffffffffffffff\n      mul\n      not\n      and\n      swap1\n      dup4\n      0xffffffffffffffffffffffffffffffffffffffff\n      and\n      mul\n      or\n      swap1\n      sstore\n      pop\n      0x20\n      dup3\n      add\n      mload\n      dup2\n      0x00\n      add\n      exp(0x0100, 0x14)\n      dup2\n      sload\n      dup2\n      0xffffffffffffffff\n      mul\n      not\n      and\n      swap1\n      dup4\n      0xffffffffffffffff\n      and\n      mul\n      or\n      swap1\n      sstore\n      pop\n      pop\n      pop\n        /* \".deps/studying-solidity/testament/Testament.sol\":4136:4156  inheritorToTestators */\n      0x01\n        /* \".deps/studying-solidity/testament/Testament.sol\":4136:4180  inheritorToTestators[inheritorsAddresses[i]] */\n      0x00\n        /* \".deps/studying-solidity/testament/Testament.sol\":4157:4176  inheritorsAddresses */\n      dup9\n      dup9\n        /* \".deps/studying-solidity/testament/Testament.sol\":4177:4178  i */\n      dup6\n        /* \".deps/studying-solidity/testament/Testament.sol\":4157:4179  inheritorsAddresses[i] */\n      dup2\n      dup2\n      lt\n      tag_92\n      jumpi\n      tag_93\n      tag_85\n      jump\t// in\n    tag_93:\n    tag_92:\n      swap1\n      pop\n      0x20\n      mul\n      add\n      0x20\n      dup2\n      add\n      swap1\n      tag_94\n      swap2\n      swap1\n      tag_23\n      jump\t// in\n    tag_94:\n        /* \".deps/studying-solidity/testament/Testament.sol\":4136:4180  inheritorToTestators[inheritorsAddresses[i]] */\n      0xffffffffffffffffffffffffffffffffffffffff\n      and\n      0xffffffffffffffffffffffffffffffffffffffff\n      and\n      dup2\n      mstore\n      0x20\n      add\n      swap1\n      dup2\n      mstore\n      0x20\n      add\n      0x00\n      keccak256\n        /* \".deps/studying-solidity/testament/Testament.sol\":4186:4199  _ownTestament */\n      dup4\n        /* \".deps/studying-solidity/testament/Testament.sol\":4136:4200  inheritorToTestators[inheritorsAddresses[i]].push(_ownTestament) */\n      swap1\n      dup1\n      0x01\n      dup2\n      sload\n      add\n      dup1\n      dup3\n      sstore\n      dup1\n      swap2\n      pop\n      pop\n      0x01\n      swap1\n      sub\n      swap1\n      0x00\n      mstore\n      keccak256(0x00, 0x20)\n      add\n      0x00\n      swap1\n      swap2\n      swap1\n      swap2\n      swap1\n      swap2\n      0x0100\n      exp\n      dup2\n      sload\n      dup2\n      0xffffffffffffffffffffffffffffffffffffffff\n      mul\n      not\n      and\n      swap1\n      dup4\n      0xffffffffffffffffffffffffffffffffffffffff\n      and\n      mul\n      or\n      swap1\n      sstore\n      pop\n        /* \".deps/studying-solidity/testament/Testament.sol\":3795:4211  {... */\n      pop\n        /* \".deps/studying-solidity/testament/Testament.sol\":3790:3793  i++ */\n      dup1\n      dup1\n      0x01\n      add\n      swap2\n      pop\n      pop\n        /* \".deps/studying-solidity/testament/Testament.sol\":3738:4211  for (uint256 i = 0; i < inheritorsAddresses.length; i++) {... */\n      jump(tag_80)\n    tag_81:\n      pop\n        /* \".deps/studying-solidity/testament/Testament.sol\":3169:4217  {... */\n      pop\n        /* \".deps/studying-solidity/testament/Testament.sol\":3030:4217  function editInheritorsInMyTestament(... */\n      pop\n      pop\n      pop\n      pop\n      jump\t// out\n        /* \".deps/studying-solidity/testament/Testament.sol\":6115:6388  function inheritorCanWithdrawal(address testator)... */\n    tag_24:\n        /* \".deps/studying-solidity/testament/Testament.sol\":6210:6214  bool */\n      0x00\n        /* \".deps/studying-solidity/testament/Testament.sol\":6230:6248  uint256 ninetyDays */\n      dup1\n        /* \".deps/studying-solidity/testament/Testament.sol\":6251:6261  30 * 86400 */\n      0x278d00\n        /* \".deps/studying-solidity/testament/Testament.sol\":6230:6261  uint256 ninetyDays = 30 * 86400 */\n      swap1\n      pop\n        /* \".deps/studying-solidity/testament/Testament.sol\":6371:6381  ninetyDays */\n      dup1\n        /* \".deps/studying-solidity/testament/Testament.sol\":6333:6342  testament */\n      0x00\n        /* \".deps/studying-solidity/testament/Testament.sol\":6333:6352  testament[testator] */\n      dup1\n        /* \".deps/studying-solidity/testament/Testament.sol\":6343:6351  testator */\n      dup6\n        /* \".deps/studying-solidity/testament/Testament.sol\":6333:6352  testament[testator] */\n      0xffffffffffffffffffffffffffffffffffffffff\n      and\n      0xffffffffffffffffffffffffffffffffffffffff\n      and\n      dup2\n      mstore\n      0x20\n      add\n      swap1\n      dup2\n      mstore\n      0x20\n      add\n      0x00\n      keccak256\n        /* \".deps/studying-solidity/testament/Testament.sol\":6333:6368  testament[testator].lastProofOfLife */\n      0x01\n      add\n      0x01\n      swap1\n      sload\n      swap1\n      0x0100\n      exp\n      swap1\n      div\n      0xffffffffffffffffffffffffffffffff\n      and\n        /* \".deps/studying-solidity/testament/Testament.sol\":6333:6381  testament[testator].lastProofOfLife + ninetyDays */\n      0xffffffffffffffffffffffffffffffff\n      and\n      tag_97\n      swap2\n      swap1\n      tag_98\n      jump\t// in\n    tag_97:\n        /* \".deps/studying-solidity/testament/Testament.sol\":6314:6329  block.timestamp */\n      timestamp\n        /* \".deps/studying-solidity/testament/Testament.sol\":6314:6381  block.timestamp >= testament[testator].lastProofOfLife + ninetyDays */\n      lt\n      iszero\n        /* \".deps/studying-solidity/testament/Testament.sol\":6295:6381  return... */\n      swap2\n      pop\n      pop\n        /* \".deps/studying-solidity/testament/Testament.sol\":6115:6388  function inheritorCanWithdrawal(address testator)... */\n      swap2\n      swap1\n      pop\n      jump\t// out\n        /* \".deps/studying-solidity/testament/Testament.sol\":308:365  mapping(address => address[]) public inheritorToTestators */\n    tag_31:\n      mstore(0x20, 0x01)\n      dup2\n      0x00\n      mstore\n      keccak256(0x00, 0x40)\n      dup2\n      dup2\n      sload\n      dup2\n      lt\n      tag_99\n      jumpi\n      0x00\n      dup1\n      revert\n    tag_99:\n      swap1\n      0x00\n      mstore\n      keccak256(0x00, 0x20)\n      add\n      0x00\n      swap2\n      pop\n      swap2\n      pop\n      swap1\n      sload\n      swap1\n      0x0100\n      exp\n      swap1\n      div\n      0xffffffffffffffffffffffffffffffffffffffff\n      and\n      dup2\n      jump\t// out\n        /* \".deps/studying-solidity/testament/Testament.sol\":372:1770  function createInheritance(... */\n    tag_37:\n        /* \".deps/studying-solidity/testament/Testament.sol\":574:575  0 */\n      0x00\n        /* \".deps/studying-solidity/testament/Testament.sol\":561:570  msg.value */\n      callvalue\n        /* \".deps/studying-solidity/testament/Testament.sol\":561:575  msg.value != 0 */\n      sub\n        /* \".deps/studying-solidity/testament/Testament.sol\":553:615  require(msg.value != 0, \"createInheritance(), valor invalido\") */\n      tag_102\n      jumpi\n      mload(0x40)\n      0x08c379a000000000000000000000000000000000000000000000000000000000\n      dup2\n      mstore\n      0x04\n      add\n      tag_103\n      swap1\n      tag_104\n      jump\t// in\n    tag_103:\n      mload(0x40)\n      dup1\n      swap2\n      sub\n      swap1\n      revert\n    tag_102:\n        /* \".deps/studying-solidity/testament/Testament.sol\":667:668  0 */\n      0x00\n        /* \".deps/studying-solidity/testament/Testament.sol\":646:656  _addresses */\n      dup3\n        /* \".deps/studying-solidity/testament/Testament.sol\":646:663  _addresses.length */\n      mload\n        /* \".deps/studying-solidity/testament/Testament.sol\":646:668  _addresses.length != 0 */\n      sub\n        /* \".deps/studying-solidity/testament/Testament.sol\":625:736  require(... */\n      tag_105\n      jumpi\n      mload(0x40)\n      0x08c379a000000000000000000000000000000000000000000000000000000000\n      dup2\n      mstore\n      0x04\n      add\n      tag_106\n      swap1\n      tag_74\n      jump\t// in\n    tag_106:\n      mload(0x40)\n      dup1\n      swap2\n      sub\n      swap1\n      revert\n    tag_105:\n        /* \".deps/studying-solidity/testament/Testament.sol\":788:801  _percentagens */\n      dup1\n        /* \".deps/studying-solidity/testament/Testament.sol\":788:808  _percentagens.length */\n      mload\n        /* \".deps/studying-solidity/testament/Testament.sol\":767:777  _addresses */\n      dup3\n        /* \".deps/studying-solidity/testament/Testament.sol\":767:784  _addresses.length */\n      mload\n        /* \".deps/studying-solidity/testament/Testament.sol\":767:808  _addresses.length == _percentagens.length */\n      eq\n        /* \".deps/studying-solidity/testament/Testament.sol\":746:904  require(... */\n      tag_107\n      jumpi\n      mload(0x40)\n      0x08c379a000000000000000000000000000000000000000000000000000000000\n      dup2\n      mstore\n      0x04\n      add\n      tag_108\n      swap1\n      tag_77\n      jump\t// in\n    tag_108:\n      mload(0x40)\n      dup1\n      swap2\n      sub\n      swap1\n      revert\n    tag_107:\n        /* \".deps/studying-solidity/testament/Testament.sol\":914:937  address _ownOfTestament */\n      0x00\n        /* \".deps/studying-solidity/testament/Testament.sol\":940:950  msg.sender */\n      caller\n        /* \".deps/studying-solidity/testament/Testament.sol\":914:950  address _ownOfTestament = msg.sender */\n      swap1\n      pop\n        /* \".deps/studying-solidity/testament/Testament.sol\":983:992  testament */\n      0x00\n        /* \".deps/studying-solidity/testament/Testament.sol\":983:1009  testament[_ownOfTestament] */\n      dup1\n        /* \".deps/studying-solidity/testament/Testament.sol\":993:1008  _ownOfTestament */\n      dup3\n        /* \".deps/studying-solidity/testament/Testament.sol\":983:1009  testament[_ownOfTestament] */\n      0xffffffffffffffffffffffffffffffffffffffff\n      and\n      0xffffffffffffffffffffffffffffffffffffffff\n      and\n      dup2\n      mstore\n      0x20\n      add\n      swap1\n      dup2\n      mstore\n      0x20\n      add\n      0x00\n      keccak256\n        /* \".deps/studying-solidity/testament/Testament.sol\":983:1015  testament[_ownOfTestament].exist */\n      0x01\n      add\n      0x00\n      swap1\n      sload\n      swap1\n      0x0100\n      exp\n      swap1\n      div\n      0xff\n      and\n        /* \".deps/studying-solidity/testament/Testament.sol\":982:1015  !testament[_ownOfTestament].exist */\n      iszero\n        /* \".deps/studying-solidity/testament/Testament.sol\":961:1105  require(... */\n      tag_109\n      jumpi\n      mload(0x40)\n      0x08c379a000000000000000000000000000000000000000000000000000000000\n      dup2\n      mstore\n      0x04\n      add\n      tag_110\n      swap1\n      tag_111\n      jump\t// in\n    tag_110:\n      mload(0x40)\n      dup1\n      swap2\n      sub\n      swap1\n      revert\n    tag_109:\n        /* \".deps/studying-solidity/testament/Testament.sol\":1182:1191  uint256 i */\n      0x00\n        /* \".deps/studying-solidity/testament/Testament.sol\":1177:1629  for (uint256 i = 0; i < _addresses.length; i++) {... */\n    tag_112:\n        /* \".deps/studying-solidity/testament/Testament.sol\":1201:1211  _addresses */\n      dup4\n        /* \".deps/studying-solidity/testament/Testament.sol\":1201:1218  _addresses.length */\n      mload\n        /* \".deps/studying-solidity/testament/Testament.sol\":1197:1198  i */\n      dup2\n        /* \".deps/studying-solidity/testament/Testament.sol\":1197:1218  i < _addresses.length */\n      lt\n        /* \".deps/studying-solidity/testament/Testament.sol\":1177:1629  for (uint256 i = 0; i < _addresses.length; i++) {... */\n      iszero\n      tag_113\n      jumpi\n        /* \".deps/studying-solidity/testament/Testament.sol\":1239:1266  Inheritor memory _inheritor */\n      0x00\n        /* \".deps/studying-solidity/testament/Testament.sol\":1269:1357  Inheritor(... */\n      mload(0x40)\n      dup1\n      0x40\n      add\n      0x40\n      mstore\n      dup1\n        /* \".deps/studying-solidity/testament/Testament.sol\":1296:1306  _addresses */\n      dup7\n        /* \".deps/studying-solidity/testament/Testament.sol\":1307:1308  i */\n      dup5\n        /* \".deps/studying-solidity/testament/Testament.sol\":1296:1309  _addresses[i] */\n      dup2\n      mload\n      dup2\n      lt\n      tag_115\n      jumpi\n      tag_116\n      tag_85\n      jump\t// in\n    tag_116:\n    tag_115:\n      0x20\n      mul\n      0x20\n      add\n      add\n      mload\n        /* \".deps/studying-solidity/testament/Testament.sol\":1269:1357  Inheritor(... */\n      0xffffffffffffffffffffffffffffffffffffffff\n      and\n      dup2\n      mstore\n      0x20\n      add\n        /* \".deps/studying-solidity/testament/Testament.sol\":1327:1340  _percentagens */\n      dup6\n        /* \".deps/studying-solidity/testament/Testament.sol\":1341:1342  i */\n      dup5\n        /* \".deps/studying-solidity/testament/Testament.sol\":1327:1343  _percentagens[i] */\n      dup2\n      mload\n      dup2\n      lt\n      tag_117\n      jumpi\n      tag_118\n      tag_85\n      jump\t// in\n    tag_118:\n    tag_117:\n      0x20\n      mul\n      0x20\n      add\n      add\n      mload\n        /* \".deps/studying-solidity/testament/Testament.sol\":1269:1357  Inheritor(... */\n      0xff\n      and\n      0xffffffffffffffff\n      and\n      dup2\n      mstore\n      pop\n        /* \".deps/studying-solidity/testament/Testament.sol\":1239:1357  Inheritor memory _inheritor = Inheritor(... */\n      swap1\n      pop\n        /* \".deps/studying-solidity/testament/Testament.sol\":1440:1460  inheritorToTestators */\n      0x01\n        /* \".deps/studying-solidity/testament/Testament.sol\":1440:1475  inheritorToTestators[_addresses[i]] */\n      0x00\n        /* \".deps/studying-solidity/testament/Testament.sol\":1461:1471  _addresses */\n      dup7\n        /* \".deps/studying-solidity/testament/Testament.sol\":1472:1473  i */\n      dup5\n        /* \".deps/studying-solidity/testament/Testament.sol\":1461:1474  _addresses[i] */\n      dup2\n      mload\n      dup2\n      lt\n      tag_119\n      jumpi\n      tag_120\n      tag_85\n      jump\t// in\n    tag_120:\n    tag_119:\n      0x20\n      mul\n      0x20\n      add\n      add\n      mload\n        /* \".deps/studying-solidity/testament/Testament.sol\":1440:1475  inheritorToTestators[_addresses[i]] */\n      0xffffffffffffffffffffffffffffffffffffffff\n      and\n      0xffffffffffffffffffffffffffffffffffffffff\n      and\n      dup2\n      mstore\n      0x20\n      add\n      swap1\n      dup2\n      mstore\n      0x20\n      add\n      0x00\n      keccak256\n        /* \".deps/studying-solidity/testament/Testament.sol\":1481:1496  _ownOfTestament */\n      dup4\n        /* \".deps/studying-solidity/testament/Testament.sol\":1440:1497  inheritorToTestators[_addresses[i]].push(_ownOfTestament) */\n      swap1\n      dup1\n      0x01\n      dup2\n      sload\n      add\n      dup1\n      dup3\n      sstore\n      dup1\n      swap2\n      pop\n      pop\n      0x01\n      swap1\n      sub\n      swap1\n      0x00\n      mstore\n      keccak256(0x00, 0x20)\n      add\n      0x00\n      swap1\n      swap2\n      swap1\n      swap2\n      swap1\n      swap2\n      0x0100\n      exp\n      dup2\n      sload\n      dup2\n      0xffffffffffffffffffffffffffffffffffffffff\n      mul\n      not\n      and\n      swap1\n      dup4\n      0xffffffffffffffffffffffffffffffffffffffff\n      and\n      mul\n      or\n      swap1\n      sstore\n      pop\n        /* \".deps/studying-solidity/testament/Testament.sol\":1564:1573  testament */\n      0x00\n        /* \".deps/studying-solidity/testament/Testament.sol\":1564:1590  testament[_ownOfTestament] */\n      dup1\n        /* \".deps/studying-solidity/testament/Testament.sol\":1574:1589  _ownOfTestament */\n      dup5\n        /* \".deps/studying-solidity/testament/Testament.sol\":1564:1590  testament[_ownOfTestament] */\n      0xffffffffffffffffffffffffffffffffffffffff\n      and\n      0xffffffffffffffffffffffffffffffffffffffff\n      and\n      dup2\n      mstore\n      0x20\n      add\n      swap1\n      dup2\n      mstore\n      0x20\n      add\n      0x00\n      keccak256\n        /* \".deps/studying-solidity/testament/Testament.sol\":1564:1601  testament[_ownOfTestament].inheritors */\n      0x00\n      add\n        /* \".deps/studying-solidity/testament/Testament.sol\":1607:1617  _inheritor */\n      dup2\n        /* \".deps/studying-solidity/testament/Testament.sol\":1564:1618  testament[_ownOfTestament].inheritors.push(_inheritor) */\n      swap1\n      dup1\n      0x01\n      dup2\n      sload\n      add\n      dup1\n      dup3\n      sstore\n      dup1\n      swap2\n      pop\n      pop\n      0x01\n      swap1\n      sub\n      swap1\n      0x00\n      mstore\n      keccak256(0x00, 0x20)\n      add\n      0x00\n      swap1\n      swap2\n      swap1\n      swap2\n      swap1\n      swap2\n      pop\n      0x00\n      dup3\n      add\n      mload\n      dup2\n      0x00\n      add\n      exp(0x0100, 0x00)\n      dup2\n      sload\n      dup2\n      0xffffffffffffffffffffffffffffffffffffffff\n      mul\n      not\n      and\n      swap1\n      dup4\n      0xffffffffffffffffffffffffffffffffffffffff\n      and\n      mul\n      or\n      swap1\n      sstore\n      pop\n      0x20\n      dup3\n      add\n      mload\n      dup2\n      0x00\n      add\n      exp(0x0100, 0x14)\n      dup2\n      sload\n      dup2\n      0xffffffffffffffff\n      mul\n      not\n      and\n      swap1\n      dup4\n      0xffffffffffffffff\n      and\n      mul\n      or\n      swap1\n      sstore\n      pop\n      pop\n      pop\n        /* \".deps/studying-solidity/testament/Testament.sol\":1225:1629  {... */\n      pop\n        /* \".deps/studying-solidity/testament/Testament.sol\":1220:1223  i++ */\n      dup1\n      dup1\n      0x01\n      add\n      swap2\n      pop\n      pop\n        /* \".deps/studying-solidity/testament/Testament.sol\":1177:1629  for (uint256 i = 0; i < _addresses.length; i++) {... */\n      jump(tag_112)\n    tag_113:\n      pop\n        /* \".deps/studying-solidity/testament/Testament.sol\":1674:1678  true */\n      0x01\n        /* \".deps/studying-solidity/testament/Testament.sol\":1639:1648  testament */\n      0x00\n        /* \".deps/studying-solidity/testament/Testament.sol\":1639:1665  testament[_ownOfTestament] */\n      dup1\n        /* \".deps/studying-solidity/testament/Testament.sol\":1649:1664  _ownOfTestament */\n      dup4\n        /* \".deps/studying-solidity/testament/Testament.sol\":1639:1665  testament[_ownOfTestament] */\n      0xffffffffffffffffffffffffffffffffffffffff\n      and\n      0xffffffffffffffffffffffffffffffffffffffff\n      and\n      dup2\n      mstore\n      0x20\n      add\n      swap1\n      dup2\n      mstore\n      0x20\n      add\n      0x00\n      keccak256\n        /* \".deps/studying-solidity/testament/Testament.sol\":1639:1671  testament[_ownOfTestament].exist */\n      0x01\n      add\n      0x00\n        /* \".deps/studying-solidity/testament/Testament.sol\":1639:1678  testament[_ownOfTestament].exist = true */\n      0x0100\n      exp\n      dup2\n      sload\n      dup2\n      0xff\n      mul\n      not\n      and\n      swap1\n      dup4\n      iszero\n      iszero\n      mul\n      or\n      swap1\n      sstore\n      pop\n        /* \".deps/studying-solidity/testament/Testament.sol\":1725:1734  msg.value */\n      callvalue\n        /* \".deps/studying-solidity/testament/Testament.sol\":1688:1697  testament */\n      0x00\n        /* \".deps/studying-solidity/testament/Testament.sol\":1688:1714  testament[_ownOfTestament] */\n      dup1\n        /* \".deps/studying-solidity/testament/Testament.sol\":1698:1713  _ownOfTestament */\n      dup4\n        /* \".deps/studying-solidity/testament/Testament.sol\":1688:1714  testament[_ownOfTestament] */\n      0xffffffffffffffffffffffffffffffffffffffff\n      and\n      0xffffffffffffffffffffffffffffffffffffffff\n      and\n      dup2\n      mstore\n      0x20\n      add\n      swap1\n      dup2\n      mstore\n      0x20\n      add\n      0x00\n      keccak256\n        /* \".deps/studying-solidity/testament/Testament.sol\":1688:1722  testament[_ownOfTestament].balance */\n      0x02\n      add\n        /* \".deps/studying-solidity/testament/Testament.sol\":1688:1734  testament[_ownOfTestament].balance = msg.value */\n      dup2\n      swap1\n      sstore\n      pop\n        /* \".deps/studying-solidity/testament/Testament.sol\":1744:1763  updateProofOfLife() */\n      tag_123\n        /* \".deps/studying-solidity/testament/Testament.sol\":1744:1761  updateProofOfLife */\n      tag_52\n        /* \".deps/studying-solidity/testament/Testament.sol\":1744:1763  updateProofOfLife() */\n      jump\t// in\n    tag_123:\n        /* \".deps/studying-solidity/testament/Testament.sol\":497:1770  {... */\n      pop\n        /* \".deps/studying-solidity/testament/Testament.sol\":372:1770  function createInheritance(... */\n      pop\n      pop\n      jump\t// out\n        /* \".deps/studying-solidity/testament/Testament.sol\":188:234  mapping(address => Testament) public testament */\n    tag_41:\n      mstore(0x20, 0x00)\n      dup1\n      0x00\n      mstore\n      keccak256(0x00, 0x40)\n      0x00\n      swap2\n      pop\n      swap1\n      pop\n      dup1\n      0x01\n      add\n      0x00\n      swap1\n      sload\n      swap1\n      0x0100\n      exp\n      swap1\n      div\n      0xff\n      and\n      swap1\n      dup1\n      0x01\n      add\n      0x01\n      swap1\n      sload\n      swap1\n      0x0100\n      exp\n      swap1\n      div\n      0xffffffffffffffffffffffffffffffff\n      and\n      swap1\n      dup1\n      0x02\n      add\n      sload\n      swap1\n      pop\n      dup4\n      jump\t// out\n        /* \".deps/studying-solidity/testament/Testament.sol\":1776:2773  function getMyTestament(address testator)... */\n    tag_47:\n        /* \".deps/studying-solidity/testament/Testament.sol\":1878:1894  address[] memory */\n      0x60\n        /* \".deps/studying-solidity/testament/Testament.sol\":1908:1923  uint64[] memory */\n      dup1\n        /* \".deps/studying-solidity/testament/Testament.sol\":1937:1944  uint128 */\n      0x00\n        /* \".deps/studying-solidity/testament/Testament.sol\":1958:1965  uint256 */\n      dup1\n        /* \".deps/studying-solidity/testament/Testament.sol\":1990:2016  Testament memory _testator */\n      0x00\n        /* \".deps/studying-solidity/testament/Testament.sol\":2019:2028  testament */\n      dup1\n        /* \".deps/studying-solidity/testament/Testament.sol\":2019:2038  testament[testator] */\n      0x00\n        /* \".deps/studying-solidity/testament/Testament.sol\":2029:2037  testator */\n      dup8\n        /* \".deps/studying-solidity/testament/Testament.sol\":2019:2038  testament[testator] */\n      0xffffffffffffffffffffffffffffffffffffffff\n      and\n      0xffffffffffffffffffffffffffffffffffffffff\n      and\n      dup2\n      mstore\n      0x20\n      add\n      swap1\n      dup2\n      mstore\n      0x20\n      add\n      0x00\n      keccak256\n        /* \".deps/studying-solidity/testament/Testament.sol\":1990:2038  Testament memory _testator = testament[testator] */\n      mload(0x40)\n      dup1\n      0x80\n      add\n      0x40\n      mstore\n      swap1\n      dup2\n      0x00\n      dup3\n      add\n      dup1\n      sload\n      dup1\n      0x20\n      mul\n      0x20\n      add\n      mload(0x40)\n      swap1\n      dup2\n      add\n      0x40\n      mstore\n      dup1\n      swap3\n      swap2\n      swap1\n      dup2\n      dup2\n      mstore\n      0x20\n      add\n      0x00\n      swap1\n    tag_125:\n      dup3\n      dup3\n      lt\n      iszero\n      tag_126\n      jumpi\n      dup4\n      dup3\n      swap1\n      0x00\n      mstore\n      keccak256(0x00, 0x20)\n      add\n      mload(0x40)\n      dup1\n      0x40\n      add\n      0x40\n      mstore\n      swap1\n      dup2\n      0x00\n      dup3\n      add\n      0x00\n      swap1\n      sload\n      swap1\n      0x0100\n      exp\n      swap1\n      div\n      0xffffffffffffffffffffffffffffffffffffffff\n      and\n      0xffffffffffffffffffffffffffffffffffffffff\n      and\n      0xffffffffffffffffffffffffffffffffffffffff\n      and\n      dup2\n      mstore\n      0x20\n      add\n      0x00\n      dup3\n      add\n      0x14\n      swap1\n      sload\n      swap1\n      0x0100\n      exp\n      swap1\n      div\n      0xffffffffffffffff\n      and\n      0xffffffffffffffff\n      and\n      0xffffffffffffffff\n      and\n      dup2\n      mstore\n      pop\n      pop\n      dup2\n      mstore\n      0x20\n      add\n      swap1\n      0x01\n      add\n      swap1\n      jump(tag_125)\n    tag_126:\n      pop\n      pop\n      pop\n      pop\n      dup2\n      mstore\n      0x20\n      add\n      0x01\n      dup3\n      add\n      0x00\n      swap1\n      sload\n      swap1\n      0x0100\n      exp\n      swap1\n      div\n      0xff\n      and\n      iszero\n      iszero\n      iszero\n      iszero\n      dup2\n      mstore\n      0x20\n      add\n      0x01\n      dup3\n      add\n      0x01\n      swap1\n      sload\n      swap1\n      0x0100\n      exp\n      swap1\n      div\n      0xffffffffffffffffffffffffffffffff\n      and\n      0xffffffffffffffffffffffffffffffff\n      and\n      0xffffffffffffffffffffffffffffffff\n      and\n      dup2\n      mstore\n      0x20\n      add\n      0x02\n      dup3\n      add\n      sload\n      dup2\n      mstore\n      pop\n      pop\n      swap1\n      pop\n        /* \".deps/studying-solidity/testament/Testament.sol\":2057:2066  _testator */\n      dup1\n        /* \".deps/studying-solidity/testament/Testament.sol\":2057:2072  _testator.exist */\n      0x20\n      add\n      mload\n        /* \".deps/studying-solidity/testament/Testament.sol\":2049:2100  require(_testator.exist, \"Testador nao encontrado\") */\n      tag_128\n      jumpi\n      mload(0x40)\n      0x08c379a000000000000000000000000000000000000000000000000000000000\n      dup2\n      mstore\n      0x04\n      add\n      tag_129\n      swap1\n      tag_130\n      jump\t// in\n    tag_129:\n      mload(0x40)\n      dup1\n      swap2\n      sub\n      swap1\n      revert\n    tag_128:\n        /* \".deps/studying-solidity/testament/Testament.sol\":2111:2147  address[] memory _inheritorAddresses */\n      0x00\n        /* \".deps/studying-solidity/testament/Testament.sol\":2177:2186  _testator */\n      dup2\n        /* \".deps/studying-solidity/testament/Testament.sol\":2177:2197  _testator.inheritors */\n      0x00\n      add\n      mload\n        /* \".deps/studying-solidity/testament/Testament.sol\":2177:2204  _testator.inheritors.length */\n      mload\n        /* \".deps/studying-solidity/testament/Testament.sol\":2150:2214  new address[](... */\n      0xffffffffffffffff\n      dup2\n      gt\n      iszero\n      tag_131\n      jumpi\n      tag_132\n      tag_133\n      jump\t// in\n    tag_132:\n    tag_131:\n      mload(0x40)\n      swap1\n      dup1\n      dup3\n      mstore\n      dup1\n      0x20\n      mul\n      0x20\n      add\n      dup3\n      add\n      0x40\n      mstore\n      dup1\n      iszero\n      tag_134\n      jumpi\n      dup2\n      0x20\n      add\n      0x20\n      dup3\n      mul\n      dup1\n      calldatasize\n      dup4\n      calldatacopy\n      dup1\n      dup3\n      add\n      swap2\n      pop\n      pop\n      swap1\n      pop\n    tag_134:\n      pop\n        /* \".deps/studying-solidity/testament/Testament.sol\":2111:2214  address[] memory _inheritorAddresses = new address[](... */\n      swap1\n      pop\n        /* \".deps/studying-solidity/testament/Testament.sol\":2225:2253  uint64[] memory _percentages */\n      0x00\n        /* \".deps/studying-solidity/testament/Testament.sol\":2282:2291  _testator */\n      dup3\n        /* \".deps/studying-solidity/testament/Testament.sol\":2282:2302  _testator.inheritors */\n      0x00\n      add\n      mload\n        /* \".deps/studying-solidity/testament/Testament.sol\":2282:2309  _testator.inheritors.length */\n      mload\n        /* \".deps/studying-solidity/testament/Testament.sol\":2256:2319  new uint64[](... */\n      0xffffffffffffffff\n      dup2\n      gt\n      iszero\n      tag_135\n      jumpi\n      tag_136\n      tag_133\n      jump\t// in\n    tag_136:\n    tag_135:\n      mload(0x40)\n      swap1\n      dup1\n      dup3\n      mstore\n      dup1\n      0x20\n      mul\n      0x20\n      add\n      dup3\n      add\n      0x40\n      mstore\n      dup1\n      iszero\n      tag_137\n      jumpi\n      dup2\n      0x20\n      add\n      0x20\n      dup3\n      mul\n      dup1\n      calldatasize\n      dup4\n      calldatacopy\n      dup1\n      dup3\n      add\n      swap2\n      pop\n      pop\n      swap1\n      pop\n    tag_137:\n      pop\n        /* \".deps/studying-solidity/testament/Testament.sol\":2225:2319  uint64[] memory _percentages = new uint64[](... */\n      swap1\n      pop\n        /* \".deps/studying-solidity/testament/Testament.sol\":2335:2343  uint64 i */\n      0x00\n        /* \".deps/studying-solidity/testament/Testament.sol\":2330:2610  for (uint64 i = 0; i < _testator.inheritors.length; i++) {... */\n    tag_138:\n        /* \".deps/studying-solidity/testament/Testament.sol\":2353:2362  _testator */\n      dup4\n        /* \".deps/studying-solidity/testament/Testament.sol\":2353:2373  _testator.inheritors */\n      0x00\n      add\n      mload\n        /* \".deps/studying-solidity/testament/Testament.sol\":2353:2380  _testator.inheritors.length */\n      mload\n        /* \".deps/studying-solidity/testament/Testament.sol\":2349:2350  i */\n      dup2\n        /* \".deps/studying-solidity/testament/Testament.sol\":2349:2380  i < _testator.inheritors.length */\n      0xffffffffffffffff\n      and\n      lt\n        /* \".deps/studying-solidity/testament/Testament.sol\":2330:2610  for (uint64 i = 0; i < _testator.inheritors.length; i++) {... */\n      iszero\n      tag_139\n      jumpi\n        /* \".deps/studying-solidity/testament/Testament.sol\":2401:2435  Inheritor memory _currentInheritor */\n      0x00\n        /* \".deps/studying-solidity/testament/Testament.sol\":2438:2447  _testator */\n      dup5\n        /* \".deps/studying-solidity/testament/Testament.sol\":2438:2458  _testator.inheritors */\n      0x00\n      add\n      mload\n        /* \".deps/studying-solidity/testament/Testament.sol\":2459:2460  i */\n      dup3\n        /* \".deps/studying-solidity/testament/Testament.sol\":2438:2461  _testator.inheritors[i] */\n      0xffffffffffffffff\n      and\n      dup2\n      mload\n      dup2\n      lt\n      tag_141\n      jumpi\n      tag_142\n      tag_85\n      jump\t// in\n    tag_142:\n    tag_141:\n      0x20\n      mul\n      0x20\n      add\n      add\n      mload\n        /* \".deps/studying-solidity/testament/Testament.sol\":2401:2461  Inheritor memory _currentInheritor = _testator.inheritors[i] */\n      swap1\n      pop\n        /* \".deps/studying-solidity/testament/Testament.sol\":2502:2519  _currentInheritor */\n      dup1\n        /* \".deps/studying-solidity/testament/Testament.sol\":2502:2536  _currentInheritor.inheritorAddress */\n      0x00\n      add\n      mload\n        /* \".deps/studying-solidity/testament/Testament.sol\":2476:2495  _inheritorAddresses */\n      dup5\n        /* \".deps/studying-solidity/testament/Testament.sol\":2496:2497  i */\n      dup4\n        /* \".deps/studying-solidity/testament/Testament.sol\":2476:2498  _inheritorAddresses[i] */\n      0xffffffffffffffff\n      and\n      dup2\n      mload\n      dup2\n      lt\n      tag_143\n      jumpi\n      tag_144\n      tag_85\n      jump\t// in\n    tag_144:\n    tag_143:\n      0x20\n      mul\n      0x20\n      add\n      add\n        /* \".deps/studying-solidity/testament/Testament.sol\":2476:2537  _inheritorAddresses[i] = (_currentInheritor.inheritorAddress) */\n      swap1\n      0xffffffffffffffffffffffffffffffffffffffff\n      and\n      swap1\n      dup2\n      0xffffffffffffffffffffffffffffffffffffffff\n      and\n      dup2\n      mstore\n      pop\n      pop\n        /* \".deps/studying-solidity/testament/Testament.sol\":2570:2587  _currentInheritor */\n      dup1\n        /* \".deps/studying-solidity/testament/Testament.sol\":2570:2598  _currentInheritor.percentage */\n      0x20\n      add\n      mload\n        /* \".deps/studying-solidity/testament/Testament.sol\":2551:2563  _percentages */\n      dup4\n        /* \".deps/studying-solidity/testament/Testament.sol\":2564:2565  i */\n      dup4\n        /* \".deps/studying-solidity/testament/Testament.sol\":2551:2566  _percentages[i] */\n      0xffffffffffffffff\n      and\n      dup2\n      mload\n      dup2\n      lt\n      tag_145\n      jumpi\n      tag_146\n      tag_85\n      jump\t// in\n    tag_146:\n    tag_145:\n      0x20\n      mul\n      0x20\n      add\n      add\n        /* \".deps/studying-solidity/testament/Testament.sol\":2551:2599  _percentages[i] = (_currentInheritor.percentage) */\n      swap1\n      0xffffffffffffffff\n      and\n      swap1\n      dup2\n      0xffffffffffffffff\n      and\n      dup2\n      mstore\n      pop\n      pop\n        /* \".deps/studying-solidity/testament/Testament.sol\":2387:2610  {... */\n      pop\n        /* \".deps/studying-solidity/testament/Testament.sol\":2382:2385  i++ */\n      dup1\n      dup1\n      tag_147\n      swap1\n      tag_148\n      jump\t// in\n    tag_147:\n      swap2\n      pop\n      pop\n        /* \".deps/studying-solidity/testament/Testament.sol\":2330:2610  for (uint64 i = 0; i < _testator.inheritors.length; i++) {... */\n      jump(tag_138)\n    tag_139:\n      pop\n        /* \".deps/studying-solidity/testament/Testament.sol\":2641:2660  _inheritorAddresses */\n      dup2\n        /* \".deps/studying-solidity/testament/Testament.sol\":2674:2686  _percentages */\n      dup2\n        /* \".deps/studying-solidity/testament/Testament.sol\":2700:2709  _testator */\n      dup5\n        /* \".deps/studying-solidity/testament/Testament.sol\":2700:2725  _testator.lastProofOfLife */\n      0x40\n      add\n      mload\n        /* \".deps/studying-solidity/testament/Testament.sol\":2739:2748  _testator */\n      dup6\n        /* \".deps/studying-solidity/testament/Testament.sol\":2739:2756  _testator.balance */\n      0x60\n      add\n      mload\n        /* \".deps/studying-solidity/testament/Testament.sol\":2620:2766  return (... */\n      swap7\n      pop\n      swap7\n      pop\n      swap7\n      pop\n      swap7\n      pop\n      pop\n      pop\n      pop\n        /* \".deps/studying-solidity/testament/Testament.sol\":1776:2773  function getMyTestament(address testator)... */\n      swap2\n      swap4\n      pop\n      swap2\n      swap4\n      jump\t// out\n        /* \".deps/studying-solidity/testament/Testament.sol\":4593:4854  function updateProofOfLife() public {... */\n    tag_52:\n        /* \".deps/studying-solidity/testament/Testament.sol\":4639:4650  address own */\n      0x00\n        /* \".deps/studying-solidity/testament/Testament.sol\":4653:4663  msg.sender */\n      caller\n        /* \".deps/studying-solidity/testament/Testament.sol\":4639:4663  address own = msg.sender */\n      swap1\n      pop\n        /* \".deps/studying-solidity/testament/Testament.sol\":4694:4703  testament */\n      0x00\n        /* \".deps/studying-solidity/testament/Testament.sol\":4694:4708  testament[own] */\n      dup1\n        /* \".deps/studying-solidity/testament/Testament.sol\":4704:4707  own */\n      dup3\n        /* \".deps/studying-solidity/testament/Testament.sol\":4694:4708  testament[own] */\n      0xffffffffffffffffffffffffffffffffffffffff\n      and\n      0xffffffffffffffffffffffffffffffffffffffff\n      and\n      dup2\n      mstore\n      0x20\n      add\n      swap1\n      dup2\n      mstore\n      0x20\n      add\n      0x00\n      keccak256\n        /* \".deps/studying-solidity/testament/Testament.sol\":4694:4714  testament[own].exist */\n      0x01\n      add\n      0x00\n      swap1\n      sload\n      swap1\n      0x0100\n      exp\n      swap1\n      div\n      0xff\n      and\n        /* \".deps/studying-solidity/testament/Testament.sol\":4673:4780  require(... */\n      tag_150\n      jumpi\n      mload(0x40)\n      0x08c379a000000000000000000000000000000000000000000000000000000000\n      dup2\n      mstore\n      0x04\n      add\n      tag_151\n      swap1\n      tag_152\n      jump\t// in\n    tag_151:\n      mload(0x40)\n      dup1\n      swap2\n      sub\n      swap1\n      revert\n    tag_150:\n        /* \".deps/studying-solidity/testament/Testament.sol\":4831:4846  block.timestamp */\n      timestamp\n        /* \".deps/studying-solidity/testament/Testament.sol\":4790:4799  testament */\n      0x00\n        /* \".deps/studying-solidity/testament/Testament.sol\":4790:4804  testament[own] */\n      dup1\n        /* \".deps/studying-solidity/testament/Testament.sol\":4800:4803  own */\n      dup4\n        /* \".deps/studying-solidity/testament/Testament.sol\":4790:4804  testament[own] */\n      0xffffffffffffffffffffffffffffffffffffffff\n      and\n      0xffffffffffffffffffffffffffffffffffffffff\n      and\n      dup2\n      mstore\n      0x20\n      add\n      swap1\n      dup2\n      mstore\n      0x20\n      add\n      0x00\n      keccak256\n        /* \".deps/studying-solidity/testament/Testament.sol\":4790:4820  testament[own].lastProofOfLife */\n      0x01\n      add\n      0x01\n        /* \".deps/studying-solidity/testament/Testament.sol\":4790:4847  testament[own].lastProofOfLife = uint128(block.timestamp) */\n      0x0100\n      exp\n      dup2\n      sload\n      dup2\n      0xffffffffffffffffffffffffffffffff\n      mul\n      not\n      and\n      swap1\n      dup4\n      0xffffffffffffffffffffffffffffffff\n      and\n      mul\n      or\n      swap1\n      sstore\n      pop\n        /* \".deps/studying-solidity/testament/Testament.sol\":4629:4854  {... */\n      pop\n        /* \".deps/studying-solidity/testament/Testament.sol\":4593:4854  function updateProofOfLife() public {... */\n      jump\t// out\n        /* \".deps/studying-solidity/testament/Testament.sol\":2779:3024  function getMyTestators() external view returns (address[] memory) {... */\n    tag_55:\n        /* \".deps/studying-solidity/testament/Testament.sol\":2828:2844  address[] memory */\n      0x60\n        /* \".deps/studying-solidity/testament/Testament.sol\":2856:2874  address _inheritor */\n      0x00\n        /* \".deps/studying-solidity/testament/Testament.sol\":2877:2887  msg.sender */\n      caller\n        /* \".deps/studying-solidity/testament/Testament.sol\":2856:2887  address _inheritor = msg.sender */\n      swap1\n      pop\n        /* \".deps/studying-solidity/testament/Testament.sol\":2985:3005  inheritorToTestators */\n      0x01\n        /* \".deps/studying-solidity/testament/Testament.sol\":2985:3017  inheritorToTestators[_inheritor] */\n      0x00\n        /* \".deps/studying-solidity/testament/Testament.sol\":3006:3016  _inheritor */\n      dup3\n        /* \".deps/studying-solidity/testament/Testament.sol\":2985:3017  inheritorToTestators[_inheritor] */\n      0xffffffffffffffffffffffffffffffffffffffff\n      and\n      0xffffffffffffffffffffffffffffffffffffffff\n      and\n      dup2\n      mstore\n      0x20\n      add\n      swap1\n      dup2\n      mstore\n      0x20\n      add\n      0x00\n      keccak256\n        /* \".deps/studying-solidity/testament/Testament.sol\":2978:3017  return inheritorToTestators[_inheritor] */\n      dup1\n      sload\n      dup1\n      0x20\n      mul\n      0x20\n      add\n      mload(0x40)\n      swap1\n      dup2\n      add\n      0x40\n      mstore\n      dup1\n      swap3\n      swap2\n      swap1\n      dup2\n      dup2\n      mstore\n      0x20\n      add\n      dup3\n      dup1\n      sload\n      dup1\n      iszero\n      tag_154\n      jumpi\n      0x20\n      mul\n      dup3\n      add\n      swap2\n      swap1\n      0x00\n      mstore\n      keccak256(0x00, 0x20)\n      swap1\n    tag_155:\n      dup2\n      0x00\n      swap1\n      sload\n      swap1\n      0x0100\n      exp\n      swap1\n      div\n      0xffffffffffffffffffffffffffffffffffffffff\n      and\n      0xffffffffffffffffffffffffffffffffffffffff\n      and\n      dup2\n      mstore\n      0x20\n      add\n      swap1\n      0x01\n      add\n      swap1\n      dup1\n      dup4\n      gt\n      tag_155\n      jumpi\n    tag_154:\n      pop\n      pop\n      pop\n      pop\n      pop\n      swap2\n      pop\n      pop\n        /* \".deps/studying-solidity/testament/Testament.sol\":2779:3024  function getMyTestators() external view returns (address[] memory) {... */\n      swap1\n      jump\t// out\n        /* \".deps/studying-solidity/testament/Testament.sol\":4860:6109  function clearOldInheritorsOfTestament(address _ownTestament) internal {... */\n    tag_68:\n        /* \".deps/studying-solidity/testament/Testament.sol\":5010:5042  Inheritor[] memory oldInheritors */\n      0x00\n        /* \".deps/studying-solidity/testament/Testament.sol\":5045:5054  testament */\n      dup1\n        /* \".deps/studying-solidity/testament/Testament.sol\":5045:5069  testament[_ownTestament] */\n      0x00\n        /* \".deps/studying-solidity/testament/Testament.sol\":5055:5068  _ownTestament */\n      dup4\n        /* \".deps/studying-solidity/testament/Testament.sol\":5045:5069  testament[_ownTestament] */\n      0xffffffffffffffffffffffffffffffffffffffff\n      and\n      0xffffffffffffffffffffffffffffffffffffffff\n      and\n      dup2\n      mstore\n      0x20\n      add\n      swap1\n      dup2\n      mstore\n      0x20\n      add\n      0x00\n      keccak256\n        /* \".deps/studying-solidity/testament/Testament.sol\":5045:5080  testament[_ownTestament].inheritors */\n      0x00\n      add\n        /* \".deps/studying-solidity/testament/Testament.sol\":5010:5080  Inheritor[] memory oldInheritors = testament[_ownTestament].inheritors */\n      dup1\n      sload\n      dup1\n      0x20\n      mul\n      0x20\n      add\n      mload(0x40)\n      swap1\n      dup2\n      add\n      0x40\n      mstore\n      dup1\n      swap3\n      swap2\n      swap1\n      dup2\n      dup2\n      mstore\n      0x20\n      add\n      0x00\n      swap1\n    tag_157:\n      dup3\n      dup3\n      lt\n      iszero\n      tag_158\n      jumpi\n      dup4\n      dup3\n      swap1\n      0x00\n      mstore\n      keccak256(0x00, 0x20)\n      add\n      mload(0x40)\n      dup1\n      0x40\n      add\n      0x40\n      mstore\n      swap1\n      dup2\n      0x00\n      dup3\n      add\n      0x00\n      swap1\n      sload\n      swap1\n      0x0100\n      exp\n      swap1\n      div\n      0xffffffffffffffffffffffffffffffffffffffff\n      and\n      0xffffffffffffffffffffffffffffffffffffffff\n      and\n      0xffffffffffffffffffffffffffffffffffffffff\n      and\n      dup2\n      mstore\n      0x20\n      add\n      0x00\n      dup3\n      add\n      0x14\n      swap1\n      sload\n      swap1\n      0x0100\n      exp\n      swap1\n      div\n      0xffffffffffffffff\n      and\n      0xffffffffffffffff\n      and\n      0xffffffffffffffff\n      and\n      dup2\n      mstore\n      pop\n      pop\n      dup2\n      mstore\n      0x20\n      add\n      swap1\n      0x01\n      add\n      swap1\n      jump(tag_157)\n    tag_158:\n      pop\n      pop\n      pop\n      pop\n      swap1\n      pop\n        /* \".deps/studying-solidity/testament/Testament.sol\":5141:5150  uint256 i */\n      0x00\n        /* \".deps/studying-solidity/testament/Testament.sol\":5136:6103  for (uint256 i = 0; i < oldInheritors.length; i++) {... */\n    tag_160:\n        /* \".deps/studying-solidity/testament/Testament.sol\":5160:5173  oldInheritors */\n      dup2\n        /* \".deps/studying-solidity/testament/Testament.sol\":5160:5180  oldInheritors.length */\n      mload\n        /* \".deps/studying-solidity/testament/Testament.sol\":5156:5157  i */\n      dup2\n        /* \".deps/studying-solidity/testament/Testament.sol\":5156:5180  i < oldInheritors.length */\n      lt\n        /* \".deps/studying-solidity/testament/Testament.sol\":5136:6103  for (uint256 i = 0; i < oldInheritors.length; i++) {... */\n      iszero\n      tag_161\n      jumpi\n        /* \".deps/studying-solidity/testament/Testament.sol\":5277:5317  address[] memory testatorsOfOldInheritor */\n      0x00\n        /* \".deps/studying-solidity/testament/Testament.sol\":5320:5340  inheritorToTestators */\n      0x01\n        /* \".deps/studying-solidity/testament/Testament.sol\":5320:5405  inheritorToTestators[... */\n      0x00\n        /* \".deps/studying-solidity/testament/Testament.sol\":5358:5371  oldInheritors */\n      dup5\n        /* \".deps/studying-solidity/testament/Testament.sol\":5372:5373  i */\n      dup5\n        /* \".deps/studying-solidity/testament/Testament.sol\":5358:5374  oldInheritors[i] */\n      dup2\n      mload\n      dup2\n      lt\n      tag_163\n      jumpi\n      tag_164\n      tag_85\n      jump\t// in\n    tag_164:\n    tag_163:\n      0x20\n      mul\n      0x20\n      add\n      add\n      mload\n        /* \".deps/studying-solidity/testament/Testament.sol\":5358:5391  oldInheritors[i].inheritorAddress */\n      0x00\n      add\n      mload\n        /* \".deps/studying-solidity/testament/Testament.sol\":5320:5405  inheritorToTestators[... */\n      0xffffffffffffffffffffffffffffffffffffffff\n      and\n      0xffffffffffffffffffffffffffffffffffffffff\n      and\n      dup2\n      mstore\n      0x20\n      add\n      swap1\n      dup2\n      mstore\n      0x20\n      add\n      0x00\n      keccak256\n        /* \".deps/studying-solidity/testament/Testament.sol\":5277:5405  address[] memory testatorsOfOldInheritor = inheritorToTestators[... */\n      dup1\n      sload\n      dup1\n      0x20\n      mul\n      0x20\n      add\n      mload(0x40)\n      swap1\n      dup2\n      add\n      0x40\n      mstore\n      dup1\n      swap3\n      swap2\n      swap1\n      dup2\n      dup2\n      mstore\n      0x20\n      add\n      dup3\n      dup1\n      sload\n      dup1\n      iszero\n      tag_165\n      jumpi\n      0x20\n      mul\n      dup3\n      add\n      swap2\n      swap1\n      0x00\n      mstore\n      keccak256(0x00, 0x20)\n      swap1\n    tag_166:\n      dup2\n      0x00\n      swap1\n      sload\n      swap1\n      0x0100\n      exp\n      swap1\n      div\n      0xffffffffffffffffffffffffffffffffffffffff\n      and\n      0xffffffffffffffffffffffffffffffffffffffff\n      and\n      dup2\n      mstore\n      0x20\n      add\n      swap1\n      0x01\n      add\n      swap1\n      dup1\n      dup4\n      gt\n      tag_166\n      jumpi\n    tag_165:\n      pop\n      pop\n      pop\n      pop\n      pop\n      swap1\n      pop\n        /* \".deps/studying-solidity/testament/Testament.sol\":5420:5434  uint256 length */\n      0x00\n        /* \".deps/studying-solidity/testament/Testament.sol\":5437:5460  testatorsOfOldInheritor */\n      dup2\n        /* \".deps/studying-solidity/testament/Testament.sol\":5437:5467  testatorsOfOldInheritor.length */\n      mload\n        /* \".deps/studying-solidity/testament/Testament.sol\":5420:5467  uint256 length = testatorsOfOldInheritor.length */\n      swap1\n      pop\n        /* \".deps/studying-solidity/testament/Testament.sol\":5610:5619  uint256 j */\n      0x00\n        /* \".deps/studying-solidity/testament/Testament.sol\":5605:6093  for (uint256 j = 0; j < length; j++) {... */\n    tag_167:\n        /* \".deps/studying-solidity/testament/Testament.sol\":5629:5635  length */\n      dup2\n        /* \".deps/studying-solidity/testament/Testament.sol\":5625:5626  j */\n      dup2\n        /* \".deps/studying-solidity/testament/Testament.sol\":5625:5635  j < length */\n      lt\n        /* \".deps/studying-solidity/testament/Testament.sol\":5605:6093  for (uint256 j = 0; j < length; j++) {... */\n      iszero\n      tag_168\n      jumpi\n        /* \".deps/studying-solidity/testament/Testament.sol\":5694:5707  _ownTestament */\n      dup6\n        /* \".deps/studying-solidity/testament/Testament.sol\":5664:5707  testatorsOfOldInheritor[j] == _ownTestament */\n      0xffffffffffffffffffffffffffffffffffffffff\n      and\n        /* \".deps/studying-solidity/testament/Testament.sol\":5664:5687  testatorsOfOldInheritor */\n      dup4\n        /* \".deps/studying-solidity/testament/Testament.sol\":5688:5689  j */\n      dup3\n        /* \".deps/studying-solidity/testament/Testament.sol\":5664:5690  testatorsOfOldInheritor[j] */\n      dup2\n      mload\n      dup2\n      lt\n      tag_170\n      jumpi\n      tag_171\n      tag_85\n      jump\t// in\n    tag_171:\n    tag_170:\n      0x20\n      mul\n      0x20\n      add\n      add\n      mload\n        /* \".deps/studying-solidity/testament/Testament.sol\":5664:5707  testatorsOfOldInheritor[j] == _ownTestament */\n      0xffffffffffffffffffffffffffffffffffffffff\n      and\n      sub\n        /* \".deps/studying-solidity/testament/Testament.sol\":5660:6079  if (testatorsOfOldInheritor[j] == _ownTestament) {... */\n      tag_172\n      jumpi\n        /* \".deps/studying-solidity/testament/Testament.sol\":5760:5783  testatorsOfOldInheritor */\n      dup3\n        /* \".deps/studying-solidity/testament/Testament.sol\":5818:5819  1 */\n      0x01\n        /* \".deps/studying-solidity/testament/Testament.sol\":5809:5815  length */\n      dup4\n        /* \".deps/studying-solidity/testament/Testament.sol\":5809:5819  length - 1 */\n      tag_173\n      swap2\n      swap1\n      tag_174\n      jump\t// in\n    tag_173:\n        /* \".deps/studying-solidity/testament/Testament.sol\":5760:5841  testatorsOfOldInheritor[... */\n      dup2\n      mload\n      dup2\n      lt\n      tag_175\n      jumpi\n      tag_176\n      tag_85\n      jump\t// in\n    tag_176:\n    tag_175:\n      0x20\n      mul\n      0x20\n      add\n      add\n      mload\n        /* \".deps/studying-solidity/testament/Testament.sol\":5731:5754  testatorsOfOldInheritor */\n      dup4\n        /* \".deps/studying-solidity/testament/Testament.sol\":5755:5756  j */\n      dup3\n        /* \".deps/studying-solidity/testament/Testament.sol\":5731:5757  testatorsOfOldInheritor[j] */\n      dup2\n      mload\n      dup2\n      lt\n      tag_177\n      jumpi\n      tag_178\n      tag_85\n      jump\t// in\n    tag_178:\n    tag_177:\n      0x20\n      mul\n      0x20\n      add\n      add\n        /* \".deps/studying-solidity/testament/Testament.sol\":5731:5841  testatorsOfOldInheritor[j] = testatorsOfOldInheritor[... */\n      swap1\n      0xffffffffffffffffffffffffffffffffffffffff\n      and\n      swap1\n      dup2\n      0xffffffffffffffffffffffffffffffffffffffff\n      and\n      dup2\n      mstore\n      pop\n      pop\n        /* \".deps/studying-solidity/testament/Testament.sol\":5889:5909  inheritorToTestators */\n      0x01\n        /* \".deps/studying-solidity/testament/Testament.sol\":5889:5944  inheritorToTestators[oldInheritors[i].inheritorAddress] */\n      0x00\n        /* \".deps/studying-solidity/testament/Testament.sol\":5910:5923  oldInheritors */\n      dup7\n        /* \".deps/studying-solidity/testament/Testament.sol\":5924:5925  i */\n      dup7\n        /* \".deps/studying-solidity/testament/Testament.sol\":5910:5926  oldInheritors[i] */\n      dup2\n      mload\n      dup2\n      lt\n      tag_179\n      jumpi\n      tag_180\n      tag_85\n      jump\t// in\n    tag_180:\n    tag_179:\n      0x20\n      mul\n      0x20\n      add\n      add\n      mload\n        /* \".deps/studying-solidity/testament/Testament.sol\":5910:5943  oldInheritors[i].inheritorAddress */\n      0x00\n      add\n      mload\n        /* \".deps/studying-solidity/testament/Testament.sol\":5889:5944  inheritorToTestators[oldInheritors[i].inheritorAddress] */\n      0xffffffffffffffffffffffffffffffffffffffff\n      and\n      0xffffffffffffffffffffffffffffffffffffffff\n      and\n      dup2\n      mstore\n      0x20\n      add\n      swap1\n      dup2\n      mstore\n      0x20\n      add\n      0x00\n      keccak256\n        /* \".deps/studying-solidity/testament/Testament.sol\":5889:5975  inheritorToTestators[oldInheritors[i].inheritorAddress]... */\n      dup1\n      sload\n      dup1\n      tag_181\n      jumpi\n      tag_182\n      tag_183\n      jump\t// in\n    tag_182:\n    tag_181:\n      0x01\n      swap1\n      sub\n      dup2\n      dup2\n      swap1\n      0x00\n      mstore\n      keccak256(0x00, 0x20)\n      add\n      exp(0x0100, 0x00)\n      dup2\n      sload\n      swap1\n      0xffffffffffffffffffffffffffffffffffffffff\n      mul\n      not\n      and\n      swap1\n      sstore\n      swap1\n      sstore\n        /* \".deps/studying-solidity/testament/Testament.sol\":6017:6022  break */\n      jump(tag_168)\n        /* \".deps/studying-solidity/testament/Testament.sol\":5660:6079  if (testatorsOfOldInheritor[j] == _ownTestament) {... */\n    tag_172:\n        /* \".deps/studying-solidity/testament/Testament.sol\":5637:5640  j++ */\n      dup1\n      dup1\n      0x01\n      add\n      swap2\n      pop\n      pop\n        /* \".deps/studying-solidity/testament/Testament.sol\":5605:6093  for (uint256 j = 0; j < length; j++) {... */\n      jump(tag_167)\n    tag_168:\n      pop\n        /* \".deps/studying-solidity/testament/Testament.sol\":5187:6103  {... */\n      pop\n      pop\n        /* \".deps/studying-solidity/testament/Testament.sol\":5182:5185  i++ */\n      dup1\n      dup1\n      0x01\n      add\n      swap2\n      pop\n      pop\n        /* \".deps/studying-solidity/testament/Testament.sol\":5136:6103  for (uint256 i = 0; i < oldInheritors.length; i++) {... */\n      jump(tag_160)\n    tag_161:\n      pop\n        /* \".deps/studying-solidity/testament/Testament.sol\":4931:6109  {... */\n      pop\n        /* \".deps/studying-solidity/testament/Testament.sol\":4860:6109  function clearOldInheritorsOfTestament(address _ownTestament) internal {... */\n      pop\n      jump\t// out\n    tag_70:\n      pop\n      dup1\n      sload\n      0x00\n      dup3\n      sstore\n      swap1\n      0x00\n      mstore\n      keccak256(0x00, 0x20)\n      swap1\n      dup2\n      add\n      swap1\n      tag_186\n      swap2\n      swap1\n      tag_187\n      jump\t// in\n    tag_186:\n      pop\n      jump\t// out\n    tag_187:\n    tag_188:\n      dup1\n      dup3\n      gt\n      iszero\n      tag_189\n      jumpi\n      0x00\n      dup1\n      dup3\n      add\n      exp(0x0100, 0x00)\n      dup2\n      sload\n      swap1\n      0xffffffffffffffffffffffffffffffffffffffff\n      mul\n      not\n      and\n      swap1\n      sstore\n      0x00\n      dup3\n      add\n      exp(0x0100, 0x14)\n      dup2\n      sload\n      swap1\n      0xffffffffffffffff\n      mul\n      not\n      and\n      swap1\n      sstore\n      pop\n      0x01\n      add\n      jump(tag_188)\n    tag_189:\n      pop\n      swap1\n      jump\t// out\n        /* \"#utility.yul\":7:82   */\n    tag_190:\n        /* \"#utility.yul\":40:46   */\n      0x00\n        /* \"#utility.yul\":73:75   */\n      0x40\n        /* \"#utility.yul\":67:76   */\n      mload\n        /* \"#utility.yul\":57:76   */\n      swap1\n      pop\n        /* \"#utility.yul\":7:82   */\n      swap1\n      jump\t// out\n        /* \"#utility.yul\":88:205   */\n    tag_191:\n        /* \"#utility.yul\":197:198   */\n      0x00\n        /* \"#utility.yul\":194:195   */\n      dup1\n        /* \"#utility.yul\":187:199   */\n      revert\n        /* \"#utility.yul\":211:328   */\n    tag_192:\n        /* \"#utility.yul\":320:321   */\n      0x00\n        /* \"#utility.yul\":317:318   */\n      dup1\n        /* \"#utility.yul\":310:322   */\n      revert\n        /* \"#utility.yul\":334:451   */\n    tag_193:\n        /* \"#utility.yul\":443:444   */\n      0x00\n        /* \"#utility.yul\":440:441   */\n      dup1\n        /* \"#utility.yul\":433:445   */\n      revert\n        /* \"#utility.yul\":457:574   */\n    tag_194:\n        /* \"#utility.yul\":566:567   */\n      0x00\n        /* \"#utility.yul\":563:564   */\n      dup1\n        /* \"#utility.yul\":556:568   */\n      revert\n        /* \"#utility.yul\":580:697   */\n    tag_195:\n        /* \"#utility.yul\":689:690   */\n      0x00\n        /* \"#utility.yul\":686:687   */\n      dup1\n        /* \"#utility.yul\":679:691   */\n      revert\n        /* \"#utility.yul\":720:1288   */\n    tag_196:\n        /* \"#utility.yul\":793:801   */\n      0x00\n        /* \"#utility.yul\":803:809   */\n      dup1\n        /* \"#utility.yul\":853:856   */\n      dup4\n        /* \"#utility.yul\":846:850   */\n      0x1f\n        /* \"#utility.yul\":838:844   */\n      dup5\n        /* \"#utility.yul\":834:851   */\n      add\n        /* \"#utility.yul\":830:857   */\n      slt\n        /* \"#utility.yul\":820:942   */\n      tag_267\n      jumpi\n        /* \"#utility.yul\":861:940   */\n      tag_268\n      tag_193\n      jump\t// in\n    tag_268:\n        /* \"#utility.yul\":820:942   */\n    tag_267:\n        /* \"#utility.yul\":974:980   */\n      dup3\n        /* \"#utility.yul\":961:981   */\n      calldataload\n        /* \"#utility.yul\":951:981   */\n      swap1\n      pop\n        /* \"#utility.yul\":1004:1022   */\n      0xffffffffffffffff\n        /* \"#utility.yul\":996:1002   */\n      dup2\n        /* \"#utility.yul\":993:1023   */\n      gt\n        /* \"#utility.yul\":990:1107   */\n      iszero\n      tag_269\n      jumpi\n        /* \"#utility.yul\":1026:1105   */\n      tag_270\n      tag_194\n      jump\t// in\n    tag_270:\n        /* \"#utility.yul\":990:1107   */\n    tag_269:\n        /* \"#utility.yul\":1140:1144   */\n      0x20\n        /* \"#utility.yul\":1132:1138   */\n      dup4\n        /* \"#utility.yul\":1128:1145   */\n      add\n        /* \"#utility.yul\":1116:1145   */\n      swap2\n      pop\n        /* \"#utility.yul\":1194:1197   */\n      dup4\n        /* \"#utility.yul\":1186:1190   */\n      0x20\n        /* \"#utility.yul\":1178:1184   */\n      dup3\n        /* \"#utility.yul\":1174:1191   */\n      mul\n        /* \"#utility.yul\":1164:1172   */\n      dup4\n        /* \"#utility.yul\":1160:1192   */\n      add\n        /* \"#utility.yul\":1157:1198   */\n      gt\n        /* \"#utility.yul\":1154:1282   */\n      iszero\n      tag_271\n      jumpi\n        /* \"#utility.yul\":1201:1280   */\n      tag_272\n      tag_195\n      jump\t// in\n    tag_272:\n        /* \"#utility.yul\":1154:1282   */\n    tag_271:\n        /* \"#utility.yul\":720:1288   */\n      swap3\n      pop\n      swap3\n      swap1\n      pop\n      jump\t// out\n        /* \"#utility.yul\":1310:1877   */\n    tag_197:\n        /* \"#utility.yul\":1382:1390   */\n      0x00\n        /* \"#utility.yul\":1392:1398   */\n      dup1\n        /* \"#utility.yul\":1442:1445   */\n      dup4\n        /* \"#utility.yul\":1435:1439   */\n      0x1f\n        /* \"#utility.yul\":1427:1433   */\n      dup5\n        /* \"#utility.yul\":1423:1440   */\n      add\n        /* \"#utility.yul\":1419:1446   */\n      slt\n        /* \"#utility.yul\":1409:1531   */\n      tag_274\n      jumpi\n        /* \"#utility.yul\":1450:1529   */\n      tag_275\n      tag_193\n      jump\t// in\n    tag_275:\n        /* \"#utility.yul\":1409:1531   */\n    tag_274:\n        /* \"#utility.yul\":1563:1569   */\n      dup3\n        /* \"#utility.yul\":1550:1570   */\n      calldataload\n        /* \"#utility.yul\":1540:1570   */\n      swap1\n      pop\n        /* \"#utility.yul\":1593:1611   */\n      0xffffffffffffffff\n        /* \"#utility.yul\":1585:1591   */\n      dup2\n        /* \"#utility.yul\":1582:1612   */\n      gt\n        /* \"#utility.yul\":1579:1696   */\n      iszero\n      tag_276\n      jumpi\n        /* \"#utility.yul\":1615:1694   */\n      tag_277\n      tag_194\n      jump\t// in\n    tag_277:\n        /* \"#utility.yul\":1579:1696   */\n    tag_276:\n        /* \"#utility.yul\":1729:1733   */\n      0x20\n        /* \"#utility.yul\":1721:1727   */\n      dup4\n        /* \"#utility.yul\":1717:1734   */\n      add\n        /* \"#utility.yul\":1705:1734   */\n      swap2\n      pop\n        /* \"#utility.yul\":1783:1786   */\n      dup4\n        /* \"#utility.yul\":1775:1779   */\n      0x20\n        /* \"#utility.yul\":1767:1773   */\n      dup3\n        /* \"#utility.yul\":1763:1780   */\n      mul\n        /* \"#utility.yul\":1753:1761   */\n      dup4\n        /* \"#utility.yul\":1749:1781   */\n      add\n        /* \"#utility.yul\":1746:1787   */\n      gt\n        /* \"#utility.yul\":1743:1871   */\n      iszero\n      tag_278\n      jumpi\n        /* \"#utility.yul\":1790:1869   */\n      tag_279\n      tag_195\n      jump\t// in\n    tag_279:\n        /* \"#utility.yul\":1743:1871   */\n    tag_278:\n        /* \"#utility.yul\":1310:1877   */\n      swap3\n      pop\n      swap3\n      swap1\n      pop\n      jump\t// out\n        /* \"#utility.yul\":1883:2815   */\n    tag_18:\n        /* \"#utility.yul\":2004:2010   */\n      0x00\n        /* \"#utility.yul\":2012:2018   */\n      dup1\n        /* \"#utility.yul\":2020:2026   */\n      0x00\n        /* \"#utility.yul\":2028:2034   */\n      dup1\n        /* \"#utility.yul\":2077:2079   */\n      0x40\n        /* \"#utility.yul\":2065:2074   */\n      dup6\n        /* \"#utility.yul\":2056:2063   */\n      dup8\n        /* \"#utility.yul\":2052:2075   */\n      sub\n        /* \"#utility.yul\":2048:2080   */\n      slt\n        /* \"#utility.yul\":2045:2164   */\n      iszero\n      tag_281\n      jumpi\n        /* \"#utility.yul\":2083:2162   */\n      tag_282\n      tag_191\n      jump\t// in\n    tag_282:\n        /* \"#utility.yul\":2045:2164   */\n    tag_281:\n        /* \"#utility.yul\":2231:2232   */\n      0x00\n        /* \"#utility.yul\":2220:2229   */\n      dup6\n        /* \"#utility.yul\":2216:2233   */\n      add\n        /* \"#utility.yul\":2203:2234   */\n      calldataload\n        /* \"#utility.yul\":2261:2279   */\n      0xffffffffffffffff\n        /* \"#utility.yul\":2253:2259   */\n      dup2\n        /* \"#utility.yul\":2250:2280   */\n      gt\n        /* \"#utility.yul\":2247:2364   */\n      iszero\n      tag_283\n      jumpi\n        /* \"#utility.yul\":2283:2362   */\n      tag_284\n      tag_192\n      jump\t// in\n    tag_284:\n        /* \"#utility.yul\":2247:2364   */\n    tag_283:\n        /* \"#utility.yul\":2396:2476   */\n      tag_285\n        /* \"#utility.yul\":2468:2475   */\n      dup8\n        /* \"#utility.yul\":2459:2465   */\n      dup3\n        /* \"#utility.yul\":2448:2457   */\n      dup9\n        /* \"#utility.yul\":2444:2466   */\n      add\n        /* \"#utility.yul\":2396:2476   */\n      tag_196\n      jump\t// in\n    tag_285:\n        /* \"#utility.yul\":2378:2476   */\n      swap5\n      pop\n      swap5\n      pop\n        /* \"#utility.yul\":2174:2486   */\n      pop\n        /* \"#utility.yul\":2553:2555   */\n      0x20\n        /* \"#utility.yul\":2542:2551   */\n      dup6\n        /* \"#utility.yul\":2538:2556   */\n      add\n        /* \"#utility.yul\":2525:2557   */\n      calldataload\n        /* \"#utility.yul\":2584:2602   */\n      0xffffffffffffffff\n        /* \"#utility.yul\":2576:2582   */\n      dup2\n        /* \"#utility.yul\":2573:2603   */\n      gt\n        /* \"#utility.yul\":2570:2687   */\n      iszero\n      tag_286\n      jumpi\n        /* \"#utility.yul\":2606:2685   */\n      tag_287\n      tag_192\n      jump\t// in\n    tag_287:\n        /* \"#utility.yul\":2570:2687   */\n    tag_286:\n        /* \"#utility.yul\":2719:2798   */\n      tag_288\n        /* \"#utility.yul\":2790:2797   */\n      dup8\n        /* \"#utility.yul\":2781:2787   */\n      dup3\n        /* \"#utility.yul\":2770:2779   */\n      dup9\n        /* \"#utility.yul\":2766:2788   */\n      add\n        /* \"#utility.yul\":2719:2798   */\n      tag_197\n      jump\t// in\n    tag_288:\n        /* \"#utility.yul\":2701:2798   */\n      swap3\n      pop\n      swap3\n      pop\n        /* \"#utility.yul\":2496:2808   */\n      pop\n        /* \"#utility.yul\":1883:2815   */\n      swap3\n      swap6\n      swap2\n      swap5\n      pop\n      swap3\n      pop\n      jump\t// out\n        /* \"#utility.yul\":2821:2947   */\n    tag_198:\n        /* \"#utility.yul\":2858:2865   */\n      0x00\n        /* \"#utility.yul\":2898:2940   */\n      0xffffffffffffffffffffffffffffffffffffffff\n        /* \"#utility.yul\":2891:2896   */\n      dup3\n        /* \"#utility.yul\":2887:2941   */\n      and\n        /* \"#utility.yul\":2876:2941   */\n      swap1\n      pop\n        /* \"#utility.yul\":2821:2947   */\n      swap2\n      swap1\n      pop\n      jump\t// out\n        /* \"#utility.yul\":2953:3049   */\n    tag_199:\n        /* \"#utility.yul\":2990:2997   */\n      0x00\n        /* \"#utility.yul\":3019:3043   */\n      tag_291\n        /* \"#utility.yul\":3037:3042   */\n      dup3\n        /* \"#utility.yul\":3019:3043   */\n      tag_198\n      jump\t// in\n    tag_291:\n        /* \"#utility.yul\":3008:3043   */\n      swap1\n      pop\n        /* \"#utility.yul\":2953:3049   */\n      swap2\n      swap1\n      pop\n      jump\t// out\n        /* \"#utility.yul\":3055:3177   */\n    tag_200:\n        /* \"#utility.yul\":3128:3152   */\n      tag_293\n        /* \"#utility.yul\":3146:3151   */\n      dup2\n        /* \"#utility.yul\":3128:3152   */\n      tag_199\n      jump\t// in\n    tag_293:\n        /* \"#utility.yul\":3121:3126   */\n      dup2\n        /* \"#utility.yul\":3118:3153   */\n      eq\n        /* \"#utility.yul\":3108:3171   */\n      tag_294\n      jumpi\n        /* \"#utility.yul\":3167:3168   */\n      0x00\n        /* \"#utility.yul\":3164:3165   */\n      dup1\n        /* \"#utility.yul\":3157:3169   */\n      revert\n        /* \"#utility.yul\":3108:3171   */\n    tag_294:\n        /* \"#utility.yul\":3055:3177   */\n      pop\n      jump\t// out\n        /* \"#utility.yul\":3183:3322   */\n    tag_201:\n        /* \"#utility.yul\":3229:3234   */\n      0x00\n        /* \"#utility.yul\":3267:3273   */\n      dup2\n        /* \"#utility.yul\":3254:3274   */\n      calldataload\n        /* \"#utility.yul\":3245:3274   */\n      swap1\n      pop\n        /* \"#utility.yul\":3283:3316   */\n      tag_296\n        /* \"#utility.yul\":3310:3315   */\n      dup2\n        /* \"#utility.yul\":3283:3316   */\n      tag_200\n      jump\t// in\n    tag_296:\n        /* \"#utility.yul\":3183:3322   */\n      swap3\n      swap2\n      pop\n      pop\n      jump\t// out\n        /* \"#utility.yul\":3328:3657   */\n    tag_23:\n        /* \"#utility.yul\":3387:3393   */\n      0x00\n        /* \"#utility.yul\":3436:3438   */\n      0x20\n        /* \"#utility.yul\":3424:3433   */\n      dup3\n        /* \"#utility.yul\":3415:3422   */\n      dup5\n        /* \"#utility.yul\":3411:3434   */\n      sub\n        /* \"#utility.yul\":3407:3439   */\n      slt\n        /* \"#utility.yul\":3404:3523   */\n      iszero\n      tag_298\n      jumpi\n        /* \"#utility.yul\":3442:3521   */\n      tag_299\n      tag_191\n      jump\t// in\n    tag_299:\n        /* \"#utility.yul\":3404:3523   */\n    tag_298:\n        /* \"#utility.yul\":3562:3563   */\n      0x00\n        /* \"#utility.yul\":3587:3640   */\n      tag_300\n        /* \"#utility.yul\":3632:3639   */\n      dup5\n        /* \"#utility.yul\":3623:3629   */\n      dup3\n        /* \"#utility.yul\":3612:3621   */\n      dup6\n        /* \"#utility.yul\":3608:3630   */\n      add\n        /* \"#utility.yul\":3587:3640   */\n      tag_201\n      jump\t// in\n    tag_300:\n        /* \"#utility.yul\":3577:3640   */\n      swap2\n      pop\n        /* \"#utility.yul\":3533:3650   */\n      pop\n        /* \"#utility.yul\":3328:3657   */\n      swap3\n      swap2\n      pop\n      pop\n      jump\t// out\n        /* \"#utility.yul\":3663:3753   */\n    tag_202:\n        /* \"#utility.yul\":3697:3704   */\n      0x00\n        /* \"#utility.yul\":3740:3745   */\n      dup2\n        /* \"#utility.yul\":3733:3746   */\n      iszero\n        /* \"#utility.yul\":3726:3747   */\n      iszero\n        /* \"#utility.yul\":3715:3747   */\n      swap1\n      pop\n        /* \"#utility.yul\":3663:3753   */\n      swap2\n      swap1\n      pop\n      jump\t// out\n        /* \"#utility.yul\":3759:3868   */\n    tag_203:\n        /* \"#utility.yul\":3840:3861   */\n      tag_303\n        /* \"#utility.yul\":3855:3860   */\n      dup2\n        /* \"#utility.yul\":3840:3861   */\n      tag_202\n      jump\t// in\n    tag_303:\n        /* \"#utility.yul\":3835:3838   */\n      dup3\n        /* \"#utility.yul\":3828:3862   */\n      mstore\n        /* \"#utility.yul\":3759:3868   */\n      pop\n      pop\n      jump\t// out\n        /* \"#utility.yul\":3874:4084   */\n    tag_26:\n        /* \"#utility.yul\":3961:3965   */\n      0x00\n        /* \"#utility.yul\":3999:4001   */\n      0x20\n        /* \"#utility.yul\":3988:3997   */\n      dup3\n        /* \"#utility.yul\":3984:4002   */\n      add\n        /* \"#utility.yul\":3976:4002   */\n      swap1\n      pop\n        /* \"#utility.yul\":4012:4077   */\n      tag_305\n        /* \"#utility.yul\":4074:4075   */\n      0x00\n        /* \"#utility.yul\":4063:4072   */\n      dup4\n        /* \"#utility.yul\":4059:4076   */\n      add\n        /* \"#utility.yul\":4050:4056   */\n      dup5\n        /* \"#utility.yul\":4012:4077   */\n      tag_203\n      jump\t// in\n    tag_305:\n        /* \"#utility.yul\":3874:4084   */\n      swap3\n      swap2\n      pop\n      pop\n      jump\t// out\n        /* \"#utility.yul\":4090:4167   */\n    tag_204:\n        /* \"#utility.yul\":4127:4134   */\n      0x00\n        /* \"#utility.yul\":4156:4161   */\n      dup2\n        /* \"#utility.yul\":4145:4161   */\n      swap1\n      pop\n        /* \"#utility.yul\":4090:4167   */\n      swap2\n      swap1\n      pop\n      jump\t// out\n        /* \"#utility.yul\":4173:4295   */\n    tag_205:\n        /* \"#utility.yul\":4246:4270   */\n      tag_308\n        /* \"#utility.yul\":4264:4269   */\n      dup2\n        /* \"#utility.yul\":4246:4270   */\n      tag_204\n      jump\t// in\n    tag_308:\n        /* \"#utility.yul\":4239:4244   */\n      dup2\n        /* \"#utility.yul\":4236:4271   */\n      eq\n        /* \"#utility.yul\":4226:4289   */\n      tag_309\n      jumpi\n        /* \"#utility.yul\":4285:4286   */\n      0x00\n        /* \"#utility.yul\":4282:4283   */\n      dup1\n        /* \"#utility.yul\":4275:4287   */\n      revert\n        /* \"#utility.yul\":4226:4289   */\n    tag_309:\n        /* \"#utility.yul\":4173:4295   */\n      pop\n      jump\t// out\n        /* \"#utility.yul\":4301:4440   */\n    tag_206:\n        /* \"#utility.yul\":4347:4352   */\n      0x00\n        /* \"#utility.yul\":4385:4391   */\n      dup2\n        /* \"#utility.yul\":4372:4392   */\n      calldataload\n        /* \"#utility.yul\":4363:4392   */\n      swap1\n      pop\n        /* \"#utility.yul\":4401:4434   */\n      tag_311\n        /* \"#utility.yul\":4428:4433   */\n      dup2\n        /* \"#utility.yul\":4401:4434   */\n      tag_205\n      jump\t// in\n    tag_311:\n        /* \"#utility.yul\":4301:4440   */\n      swap3\n      swap2\n      pop\n      pop\n      jump\t// out\n        /* \"#utility.yul\":4446:4920   */\n    tag_30:\n        /* \"#utility.yul\":4514:4520   */\n      0x00\n        /* \"#utility.yul\":4522:4528   */\n      dup1\n        /* \"#utility.yul\":4571:4573   */\n      0x40\n        /* \"#utility.yul\":4559:4568   */\n      dup4\n        /* \"#utility.yul\":4550:4557   */\n      dup6\n        /* \"#utility.yul\":4546:4569   */\n      sub\n        /* \"#utility.yul\":4542:4574   */\n      slt\n        /* \"#utility.yul\":4539:4658   */\n      iszero\n      tag_313\n      jumpi\n        /* \"#utility.yul\":4577:4656   */\n      tag_314\n      tag_191\n      jump\t// in\n    tag_314:\n        /* \"#utility.yul\":4539:4658   */\n    tag_313:\n        /* \"#utility.yul\":4697:4698   */\n      0x00\n        /* \"#utility.yul\":4722:4775   */\n      tag_315\n        /* \"#utility.yul\":4767:4774   */\n      dup6\n        /* \"#utility.yul\":4758:4764   */\n      dup3\n        /* \"#utility.yul\":4747:4756   */\n      dup7\n        /* \"#utility.yul\":4743:4765   */\n      add\n        /* \"#utility.yul\":4722:4775   */\n      tag_201\n      jump\t// in\n    tag_315:\n        /* \"#utility.yul\":4712:4775   */\n      swap3\n      pop\n        /* \"#utility.yul\":4668:4785   */\n      pop\n        /* \"#utility.yul\":4824:4826   */\n      0x20\n        /* \"#utility.yul\":4850:4903   */\n      tag_316\n        /* \"#utility.yul\":4895:4902   */\n      dup6\n        /* \"#utility.yul\":4886:4892   */\n      dup3\n        /* \"#utility.yul\":4875:4884   */\n      dup7\n        /* \"#utility.yul\":4871:4893   */\n      add\n        /* \"#utility.yul\":4850:4903   */\n      tag_206\n      jump\t// in\n    tag_316:\n        /* \"#utility.yul\":4840:4903   */\n      swap2\n      pop\n        /* \"#utility.yul\":4795:4913   */\n      pop\n        /* \"#utility.yul\":4446:4920   */\n      swap3\n      pop\n      swap3\n      swap1\n      pop\n      jump\t// out\n        /* \"#utility.yul\":4926:5044   */\n    tag_207:\n        /* \"#utility.yul\":5013:5037   */\n      tag_318\n        /* \"#utility.yul\":5031:5036   */\n      dup2\n        /* \"#utility.yul\":5013:5037   */\n      tag_199\n      jump\t// in\n    tag_318:\n        /* \"#utility.yul\":5008:5011   */\n      dup3\n        /* \"#utility.yul\":5001:5038   */\n      mstore\n        /* \"#utility.yul\":4926:5044   */\n      pop\n      pop\n      jump\t// out\n        /* \"#utility.yul\":5050:5272   */\n    tag_33:\n        /* \"#utility.yul\":5143:5147   */\n      0x00\n        /* \"#utility.yul\":5181:5183   */\n      0x20\n        /* \"#utility.yul\":5170:5179   */\n      dup3\n        /* \"#utility.yul\":5166:5184   */\n      add\n        /* \"#utility.yul\":5158:5184   */\n      swap1\n      pop\n        /* \"#utility.yul\":5194:5265   */\n      tag_320\n        /* \"#utility.yul\":5262:5263   */\n      0x00\n        /* \"#utility.yul\":5251:5260   */\n      dup4\n        /* \"#utility.yul\":5247:5264   */\n      add\n        /* \"#utility.yul\":5238:5244   */\n      dup5\n        /* \"#utility.yul\":5194:5265   */\n      tag_207\n      jump\t// in\n    tag_320:\n        /* \"#utility.yul\":5050:5272   */\n      swap3\n      swap2\n      pop\n      pop\n      jump\t// out\n        /* \"#utility.yul\":5278:5380   */\n    tag_208:\n        /* \"#utility.yul\":5319:5325   */\n      0x00\n        /* \"#utility.yul\":5370:5372   */\n      0x1f\n        /* \"#utility.yul\":5366:5373   */\n      not\n        /* \"#utility.yul\":5361:5363   */\n      0x1f\n        /* \"#utility.yul\":5354:5359   */\n      dup4\n        /* \"#utility.yul\":5350:5364   */\n      add\n        /* \"#utility.yul\":5346:5374   */\n      and\n        /* \"#utility.yul\":5336:5374   */\n      swap1\n      pop\n        /* \"#utility.yul\":5278:5380   */\n      swap2\n      swap1\n      pop\n      jump\t// out\n        /* \"#utility.yul\":5386:5566   */\n    tag_133:\n        /* \"#utility.yul\":5434:5511   */\n      0x4e487b7100000000000000000000000000000000000000000000000000000000\n        /* \"#utility.yul\":5431:5432   */\n      0x00\n        /* \"#utility.yul\":5424:5512   */\n      mstore\n        /* \"#utility.yul\":5531:5535   */\n      0x41\n        /* \"#utility.yul\":5528:5529   */\n      0x04\n        /* \"#utility.yul\":5521:5536   */\n      mstore\n        /* \"#utility.yul\":5555:5559   */\n      0x24\n        /* \"#utility.yul\":5552:5553   */\n      0x00\n        /* \"#utility.yul\":5545:5560   */\n      revert\n        /* \"#utility.yul\":5572:5853   */\n    tag_209:\n        /* \"#utility.yul\":5655:5682   */\n      tag_324\n        /* \"#utility.yul\":5677:5681   */\n      dup3\n        /* \"#utility.yul\":5655:5682   */\n      tag_208\n      jump\t// in\n    tag_324:\n        /* \"#utility.yul\":5647:5653   */\n      dup2\n        /* \"#utility.yul\":5643:5683   */\n      add\n        /* \"#utility.yul\":5785:5791   */\n      dup2\n        /* \"#utility.yul\":5773:5783   */\n      dup2\n        /* \"#utility.yul\":5770:5792   */\n      lt\n        /* \"#utility.yul\":5749:5767   */\n      0xffffffffffffffff\n        /* \"#utility.yul\":5737:5747   */\n      dup3\n        /* \"#utility.yul\":5734:5768   */\n      gt\n        /* \"#utility.yul\":5731:5793   */\n      or\n        /* \"#utility.yul\":5728:5816   */\n      iszero\n      tag_325\n      jumpi\n        /* \"#utility.yul\":5796:5814   */\n      tag_326\n      tag_133\n      jump\t// in\n    tag_326:\n        /* \"#utility.yul\":5728:5816   */\n    tag_325:\n        /* \"#utility.yul\":5836:5846   */\n      dup1\n        /* \"#utility.yul\":5832:5834   */\n      0x40\n        /* \"#utility.yul\":5825:5847   */\n      mstore\n        /* \"#utility.yul\":5615:5853   */\n      pop\n        /* \"#utility.yul\":5572:5853   */\n      pop\n      pop\n      jump\t// out\n        /* \"#utility.yul\":5859:5988   */\n    tag_210:\n        /* \"#utility.yul\":5893:5899   */\n      0x00\n        /* \"#utility.yul\":5920:5940   */\n      tag_328\n      tag_190\n      jump\t// in\n    tag_328:\n        /* \"#utility.yul\":5910:5940   */\n      swap1\n      pop\n        /* \"#utility.yul\":5949:5982   */\n      tag_329\n        /* \"#utility.yul\":5977:5981   */\n      dup3\n        /* \"#utility.yul\":5969:5975   */\n      dup3\n        /* \"#utility.yul\":5949:5982   */\n      tag_209\n      jump\t// in\n    tag_329:\n        /* \"#utility.yul\":5859:5988   */\n      swap2\n      swap1\n      pop\n      jump\t// out\n        /* \"#utility.yul\":5994:6305   */\n    tag_211:\n        /* \"#utility.yul\":6071:6075   */\n      0x00\n        /* \"#utility.yul\":6161:6179   */\n      0xffffffffffffffff\n        /* \"#utility.yul\":6153:6159   */\n      dup3\n        /* \"#utility.yul\":6150:6180   */\n      gt\n        /* \"#utility.yul\":6147:6203   */\n      iszero\n      tag_331\n      jumpi\n        /* \"#utility.yul\":6183:6201   */\n      tag_332\n      tag_133\n      jump\t// in\n    tag_332:\n        /* \"#utility.yul\":6147:6203   */\n    tag_331:\n        /* \"#utility.yul\":6233:6237   */\n      0x20\n        /* \"#utility.yul\":6225:6231   */\n      dup3\n        /* \"#utility.yul\":6221:6238   */\n      mul\n        /* \"#utility.yul\":6213:6238   */\n      swap1\n      pop\n        /* \"#utility.yul\":6293:6297   */\n      0x20\n        /* \"#utility.yul\":6287:6291   */\n      dup2\n        /* \"#utility.yul\":6283:6298   */\n      add\n        /* \"#utility.yul\":6275:6298   */\n      swap1\n      pop\n        /* \"#utility.yul\":5994:6305   */\n      swap2\n      swap1\n      pop\n      jump\t// out\n        /* \"#utility.yul\":6328:7038   */\n    tag_212:\n        /* \"#utility.yul\":6424:6429   */\n      0x00\n        /* \"#utility.yul\":6449:6530   */\n      tag_334\n        /* \"#utility.yul\":6465:6529   */\n      tag_335\n        /* \"#utility.yul\":6522:6528   */\n      dup5\n        /* \"#utility.yul\":6465:6529   */\n      tag_211\n      jump\t// in\n    tag_335:\n        /* \"#utility.yul\":6449:6530   */\n      tag_210\n      jump\t// in\n    tag_334:\n        /* \"#utility.yul\":6440:6530   */\n      swap1\n      pop\n        /* \"#utility.yul\":6550:6555   */\n      dup1\n        /* \"#utility.yul\":6579:6585   */\n      dup4\n        /* \"#utility.yul\":6572:6577   */\n      dup3\n        /* \"#utility.yul\":6565:6586   */\n      mstore\n        /* \"#utility.yul\":6613:6617   */\n      0x20\n        /* \"#utility.yul\":6606:6611   */\n      dup3\n        /* \"#utility.yul\":6602:6618   */\n      add\n        /* \"#utility.yul\":6595:6618   */\n      swap1\n      pop\n        /* \"#utility.yul\":6666:6670   */\n      0x20\n        /* \"#utility.yul\":6658:6664   */\n      dup5\n        /* \"#utility.yul\":6654:6671   */\n      mul\n        /* \"#utility.yul\":6646:6652   */\n      dup4\n        /* \"#utility.yul\":6642:6672   */\n      add\n        /* \"#utility.yul\":6695:6698   */\n      dup6\n        /* \"#utility.yul\":6687:6693   */\n      dup2\n        /* \"#utility.yul\":6684:6699   */\n      gt\n        /* \"#utility.yul\":6681:6803   */\n      iszero\n      tag_336\n      jumpi\n        /* \"#utility.yul\":6714:6793   */\n      tag_337\n      tag_195\n      jump\t// in\n    tag_337:\n        /* \"#utility.yul\":6681:6803   */\n    tag_336:\n        /* \"#utility.yul\":6829:6835   */\n      dup4\n        /* \"#utility.yul\":6812:7032   */\n    tag_338:\n        /* \"#utility.yul\":6846:6852   */\n      dup2\n        /* \"#utility.yul\":6841:6844   */\n      dup2\n        /* \"#utility.yul\":6838:6853   */\n      lt\n        /* \"#utility.yul\":6812:7032   */\n      iszero\n      tag_340\n      jumpi\n        /* \"#utility.yul\":6921:6924   */\n      dup1\n        /* \"#utility.yul\":6950:6987   */\n      tag_341\n        /* \"#utility.yul\":6983:6986   */\n      dup9\n        /* \"#utility.yul\":6971:6981   */\n      dup3\n        /* \"#utility.yul\":6950:6987   */\n      tag_201\n      jump\t// in\n    tag_341:\n        /* \"#utility.yul\":6945:6948   */\n      dup5\n        /* \"#utility.yul\":6938:6988   */\n      mstore\n        /* \"#utility.yul\":7017:7021   */\n      0x20\n        /* \"#utility.yul\":7012:7015   */\n      dup5\n        /* \"#utility.yul\":7008:7022   */\n      add\n        /* \"#utility.yul\":7001:7022   */\n      swap4\n      pop\n        /* \"#utility.yul\":6888:7032   */\n      pop\n        /* \"#utility.yul\":6872:6876   */\n      0x20\n        /* \"#utility.yul\":6867:6870   */\n      dup2\n        /* \"#utility.yul\":6863:6877   */\n      add\n        /* \"#utility.yul\":6856:6877   */\n      swap1\n      pop\n        /* \"#utility.yul\":6812:7032   */\n      jump(tag_338)\n    tag_340:\n        /* \"#utility.yul\":6816:6837   */\n      pop\n        /* \"#utility.yul\":6430:7038   */\n      pop\n      pop\n        /* \"#utility.yul\":6328:7038   */\n      swap4\n      swap3\n      pop\n      pop\n      pop\n      jump\t// out\n        /* \"#utility.yul\":7061:7431   */\n    tag_213:\n        /* \"#utility.yul\":7132:7137   */\n      0x00\n        /* \"#utility.yul\":7181:7184   */\n      dup3\n        /* \"#utility.yul\":7174:7178   */\n      0x1f\n        /* \"#utility.yul\":7166:7172   */\n      dup4\n        /* \"#utility.yul\":7162:7179   */\n      add\n        /* \"#utility.yul\":7158:7185   */\n      slt\n        /* \"#utility.yul\":7148:7270   */\n      tag_343\n      jumpi\n        /* \"#utility.yul\":7189:7268   */\n      tag_344\n      tag_193\n      jump\t// in\n    tag_344:\n        /* \"#utility.yul\":7148:7270   */\n    tag_343:\n        /* \"#utility.yul\":7306:7312   */\n      dup2\n        /* \"#utility.yul\":7293:7313   */\n      calldataload\n        /* \"#utility.yul\":7331:7425   */\n      tag_345\n        /* \"#utility.yul\":7421:7424   */\n      dup5\n        /* \"#utility.yul\":7413:7419   */\n      dup3\n        /* \"#utility.yul\":7406:7410   */\n      0x20\n        /* \"#utility.yul\":7398:7404   */\n      dup7\n        /* \"#utility.yul\":7394:7411   */\n      add\n        /* \"#utility.yul\":7331:7425   */\n      tag_212\n      jump\t// in\n    tag_345:\n        /* \"#utility.yul\":7322:7425   */\n      swap2\n      pop\n        /* \"#utility.yul\":7138:7431   */\n      pop\n        /* \"#utility.yul\":7061:7431   */\n      swap3\n      swap2\n      pop\n      pop\n      jump\t// out\n        /* \"#utility.yul\":7437:7746   */\n    tag_214:\n        /* \"#utility.yul\":7512:7516   */\n      0x00\n        /* \"#utility.yul\":7602:7620   */\n      0xffffffffffffffff\n        /* \"#utility.yul\":7594:7600   */\n      dup3\n        /* \"#utility.yul\":7591:7621   */\n      gt\n        /* \"#utility.yul\":7588:7644   */\n      iszero\n      tag_347\n      jumpi\n        /* \"#utility.yul\":7624:7642   */\n      tag_348\n      tag_133\n      jump\t// in\n    tag_348:\n        /* \"#utility.yul\":7588:7644   */\n    tag_347:\n        /* \"#utility.yul\":7674:7678   */\n      0x20\n        /* \"#utility.yul\":7666:7672   */\n      dup3\n        /* \"#utility.yul\":7662:7679   */\n      mul\n        /* \"#utility.yul\":7654:7679   */\n      swap1\n      pop\n        /* \"#utility.yul\":7734:7738   */\n      0x20\n        /* \"#utility.yul\":7728:7732   */\n      dup2\n        /* \"#utility.yul\":7724:7739   */\n      add\n        /* \"#utility.yul\":7716:7739   */\n      swap1\n      pop\n        /* \"#utility.yul\":7437:7746   */\n      swap2\n      swap1\n      pop\n      jump\t// out\n        /* \"#utility.yul\":7752:7838   */\n    tag_215:\n        /* \"#utility.yul\":7787:7794   */\n      0x00\n        /* \"#utility.yul\":7827:7831   */\n      0xff\n        /* \"#utility.yul\":7820:7825   */\n      dup3\n        /* \"#utility.yul\":7816:7832   */\n      and\n        /* \"#utility.yul\":7805:7832   */\n      swap1\n      pop\n        /* \"#utility.yul\":7752:7838   */\n      swap2\n      swap1\n      pop\n      jump\t// out\n        /* \"#utility.yul\":7844:7962   */\n    tag_216:\n        /* \"#utility.yul\":7915:7937   */\n      tag_351\n        /* \"#utility.yul\":7931:7936   */\n      dup2\n        /* \"#utility.yul\":7915:7937   */\n      tag_215\n      jump\t// in\n    tag_351:\n        /* \"#utility.yul\":7908:7913   */\n      dup2\n        /* \"#utility.yul\":7905:7938   */\n      eq\n        /* \"#utility.yul\":7895:7956   */\n      tag_352\n      jumpi\n        /* \"#utility.yul\":7952:7953   */\n      0x00\n        /* \"#utility.yul\":7949:7950   */\n      dup1\n        /* \"#utility.yul\":7942:7954   */\n      revert\n        /* \"#utility.yul\":7895:7956   */\n    tag_352:\n        /* \"#utility.yul\":7844:7962   */\n      pop\n      jump\t// out\n        /* \"#utility.yul\":7968:8103   */\n    tag_217:\n        /* \"#utility.yul\":8012:8017   */\n      0x00\n        /* \"#utility.yul\":8050:8056   */\n      dup2\n        /* \"#utility.yul\":8037:8057   */\n      calldataload\n        /* \"#utility.yul\":8028:8057   */\n      swap1\n      pop\n        /* \"#utility.yul\":8066:8097   */\n      tag_354\n        /* \"#utility.yul\":8091:8096   */\n      dup2\n        /* \"#utility.yul\":8066:8097   */\n      tag_216\n      jump\t// in\n    tag_354:\n        /* \"#utility.yul\":7968:8103   */\n      swap3\n      swap2\n      pop\n      pop\n      jump\t// out\n        /* \"#utility.yul\":8124:8828   */\n    tag_218:\n        /* \"#utility.yul\":8218:8223   */\n      0x00\n        /* \"#utility.yul\":8243:8322   */\n      tag_356\n        /* \"#utility.yul\":8259:8321   */\n      tag_357\n        /* \"#utility.yul\":8314:8320   */\n      dup5\n        /* \"#utility.yul\":8259:8321   */\n      tag_214\n      jump\t// in\n    tag_357:\n        /* \"#utility.yul\":8243:8322   */\n      tag_210\n      jump\t// in\n    tag_356:\n        /* \"#utility.yul\":8234:8322   */\n      swap1\n      pop\n        /* \"#utility.yul\":8342:8347   */\n      dup1\n        /* \"#utility.yul\":8371:8377   */\n      dup4\n        /* \"#utility.yul\":8364:8369   */\n      dup3\n        /* \"#utility.yul\":8357:8378   */\n      mstore\n        /* \"#utility.yul\":8405:8409   */\n      0x20\n        /* \"#utility.yul\":8398:8403   */\n      dup3\n        /* \"#utility.yul\":8394:8410   */\n      add\n        /* \"#utility.yul\":8387:8410   */\n      swap1\n      pop\n        /* \"#utility.yul\":8458:8462   */\n      0x20\n        /* \"#utility.yul\":8450:8456   */\n      dup5\n        /* \"#utility.yul\":8446:8463   */\n      mul\n        /* \"#utility.yul\":8438:8444   */\n      dup4\n        /* \"#utility.yul\":8434:8464   */\n      add\n        /* \"#utility.yul\":8487:8490   */\n      dup6\n        /* \"#utility.yul\":8479:8485   */\n      dup2\n        /* \"#utility.yul\":8476:8491   */\n      gt\n        /* \"#utility.yul\":8473:8595   */\n      iszero\n      tag_358\n      jumpi\n        /* \"#utility.yul\":8506:8585   */\n      tag_359\n      tag_195\n      jump\t// in\n    tag_359:\n        /* \"#utility.yul\":8473:8595   */\n    tag_358:\n        /* \"#utility.yul\":8621:8627   */\n      dup4\n        /* \"#utility.yul\":8604:8822   */\n    tag_360:\n        /* \"#utility.yul\":8638:8644   */\n      dup2\n        /* \"#utility.yul\":8633:8636   */\n      dup2\n        /* \"#utility.yul\":8630:8645   */\n      lt\n        /* \"#utility.yul\":8604:8822   */\n      iszero\n      tag_362\n      jumpi\n        /* \"#utility.yul\":8713:8716   */\n      dup1\n        /* \"#utility.yul\":8742:8777   */\n      tag_363\n        /* \"#utility.yul\":8773:8776   */\n      dup9\n        /* \"#utility.yul\":8761:8771   */\n      dup3\n        /* \"#utility.yul\":8742:8777   */\n      tag_217\n      jump\t// in\n    tag_363:\n        /* \"#utility.yul\":8737:8740   */\n      dup5\n        /* \"#utility.yul\":8730:8778   */\n      mstore\n        /* \"#utility.yul\":8807:8811   */\n      0x20\n        /* \"#utility.yul\":8802:8805   */\n      dup5\n        /* \"#utility.yul\":8798:8812   */\n      add\n        /* \"#utility.yul\":8791:8812   */\n      swap4\n      pop\n        /* \"#utility.yul\":8680:8822   */\n      pop\n        /* \"#utility.yul\":8664:8668   */\n      0x20\n        /* \"#utility.yul\":8659:8662   */\n      dup2\n        /* \"#utility.yul\":8655:8669   */\n      add\n        /* \"#utility.yul\":8648:8669   */\n      swap1\n      pop\n        /* \"#utility.yul\":8604:8822   */\n      jump(tag_360)\n    tag_362:\n        /* \"#utility.yul\":8608:8629   */\n      pop\n        /* \"#utility.yul\":8224:8828   */\n      pop\n      pop\n        /* \"#utility.yul\":8124:8828   */\n      swap4\n      swap3\n      pop\n      pop\n      pop\n      jump\t// out\n        /* \"#utility.yul\":8849:9215   */\n    tag_219:\n        /* \"#utility.yul\":8918:8923   */\n      0x00\n        /* \"#utility.yul\":8967:8970   */\n      dup3\n        /* \"#utility.yul\":8960:8964   */\n      0x1f\n        /* \"#utility.yul\":8952:8958   */\n      dup4\n        /* \"#utility.yul\":8948:8965   */\n      add\n        /* \"#utility.yul\":8944:8971   */\n      slt\n        /* \"#utility.yul\":8934:9056   */\n      tag_365\n      jumpi\n        /* \"#utility.yul\":8975:9054   */\n      tag_366\n      tag_193\n      jump\t// in\n    tag_366:\n        /* \"#utility.yul\":8934:9056   */\n    tag_365:\n        /* \"#utility.yul\":9092:9098   */\n      dup2\n        /* \"#utility.yul\":9079:9099   */\n      calldataload\n        /* \"#utility.yul\":9117:9209   */\n      tag_367\n        /* \"#utility.yul\":9205:9208   */\n      dup5\n        /* \"#utility.yul\":9197:9203   */\n      dup3\n        /* \"#utility.yul\":9190:9194   */\n      0x20\n        /* \"#utility.yul\":9182:9188   */\n      dup7\n        /* \"#utility.yul\":9178:9195   */\n      add\n        /* \"#utility.yul\":9117:9209   */\n      tag_218\n      jump\t// in\n    tag_367:\n        /* \"#utility.yul\":9108:9209   */\n      swap2\n      pop\n        /* \"#utility.yul\":8924:9215   */\n      pop\n        /* \"#utility.yul\":8849:9215   */\n      swap3\n      swap2\n      pop\n      pop\n      jump\t// out\n        /* \"#utility.yul\":9221:10111   */\n    tag_36:\n        /* \"#utility.yul\":9337:9343   */\n      0x00\n        /* \"#utility.yul\":9345:9351   */\n      dup1\n        /* \"#utility.yul\":9394:9396   */\n      0x40\n        /* \"#utility.yul\":9382:9391   */\n      dup4\n        /* \"#utility.yul\":9373:9380   */\n      dup6\n        /* \"#utility.yul\":9369:9392   */\n      sub\n        /* \"#utility.yul\":9365:9397   */\n      slt\n        /* \"#utility.yul\":9362:9481   */\n      iszero\n      tag_369\n      jumpi\n        /* \"#utility.yul\":9400:9479   */\n      tag_370\n      tag_191\n      jump\t// in\n    tag_370:\n        /* \"#utility.yul\":9362:9481   */\n    tag_369:\n        /* \"#utility.yul\":9548:9549   */\n      0x00\n        /* \"#utility.yul\":9537:9546   */\n      dup4\n        /* \"#utility.yul\":9533:9550   */\n      add\n        /* \"#utility.yul\":9520:9551   */\n      calldataload\n        /* \"#utility.yul\":9578:9596   */\n      0xffffffffffffffff\n        /* \"#utility.yul\":9570:9576   */\n      dup2\n        /* \"#utility.yul\":9567:9597   */\n      gt\n        /* \"#utility.yul\":9564:9681   */\n      iszero\n      tag_371\n      jumpi\n        /* \"#utility.yul\":9600:9679   */\n      tag_372\n      tag_192\n      jump\t// in\n    tag_372:\n        /* \"#utility.yul\":9564:9681   */\n    tag_371:\n        /* \"#utility.yul\":9705:9783   */\n      tag_373\n        /* \"#utility.yul\":9775:9782   */\n      dup6\n        /* \"#utility.yul\":9766:9772   */\n      dup3\n        /* \"#utility.yul\":9755:9764   */\n      dup7\n        /* \"#utility.yul\":9751:9773   */\n      add\n        /* \"#utility.yul\":9705:9783   */\n      tag_213\n      jump\t// in\n    tag_373:\n        /* \"#utility.yul\":9695:9783   */\n      swap3\n      pop\n        /* \"#utility.yul\":9491:9793   */\n      pop\n        /* \"#utility.yul\":9860:9862   */\n      0x20\n        /* \"#utility.yul\":9849:9858   */\n      dup4\n        /* \"#utility.yul\":9845:9863   */\n      add\n        /* \"#utility.yul\":9832:9864   */\n      calldataload\n        /* \"#utility.yul\":9891:9909   */\n      0xffffffffffffffff\n        /* \"#utility.yul\":9883:9889   */\n      dup2\n        /* \"#utility.yul\":9880:9910   */\n      gt\n        /* \"#utility.yul\":9877:9994   */\n      iszero\n      tag_374\n      jumpi\n        /* \"#utility.yul\":9913:9992   */\n      tag_375\n      tag_192\n      jump\t// in\n    tag_375:\n        /* \"#utility.yul\":9877:9994   */\n    tag_374:\n        /* \"#utility.yul\":10018:10094   */\n      tag_376\n        /* \"#utility.yul\":10086:10093   */\n      dup6\n        /* \"#utility.yul\":10077:10083   */\n      dup3\n        /* \"#utility.yul\":10066:10075   */\n      dup7\n        /* \"#utility.yul\":10062:10084   */\n      add\n        /* \"#utility.yul\":10018:10094   */\n      tag_219\n      jump\t// in\n    tag_376:\n        /* \"#utility.yul\":10008:10094   */\n      swap2\n      pop\n        /* \"#utility.yul\":9803:10104   */\n      pop\n        /* \"#utility.yul\":9221:10111   */\n      swap3\n      pop\n      swap3\n      swap1\n      pop\n      jump\t// out\n        /* \"#utility.yul\":10117:10235   */\n    tag_220:\n        /* \"#utility.yul\":10154:10161   */\n      0x00\n        /* \"#utility.yul\":10194:10228   */\n      0xffffffffffffffffffffffffffffffff\n        /* \"#utility.yul\":10187:10192   */\n      dup3\n        /* \"#utility.yul\":10183:10229   */\n      and\n        /* \"#utility.yul\":10172:10229   */\n      swap1\n      pop\n        /* \"#utility.yul\":10117:10235   */\n      swap2\n      swap1\n      pop\n      jump\t// out\n        /* \"#utility.yul\":10241:10359   */\n    tag_221:\n        /* \"#utility.yul\":10328:10352   */\n      tag_379\n        /* \"#utility.yul\":10346:10351   */\n      dup2\n        /* \"#utility.yul\":10328:10352   */\n      tag_220\n      jump\t// in\n    tag_379:\n        /* \"#utility.yul\":10323:10326   */\n      dup3\n        /* \"#utility.yul\":10316:10353   */\n      mstore\n        /* \"#utility.yul\":10241:10359   */\n      pop\n      pop\n      jump\t// out\n        /* \"#utility.yul\":10365:10483   */\n    tag_222:\n        /* \"#utility.yul\":10452:10476   */\n      tag_381\n        /* \"#utility.yul\":10470:10475   */\n      dup2\n        /* \"#utility.yul\":10452:10476   */\n      tag_204\n      jump\t// in\n    tag_381:\n        /* \"#utility.yul\":10447:10450   */\n      dup3\n        /* \"#utility.yul\":10440:10477   */\n      mstore\n        /* \"#utility.yul\":10365:10483   */\n      pop\n      pop\n      jump\t// out\n        /* \"#utility.yul\":10489:10919   */\n    tag_43:\n        /* \"#utility.yul\":10632:10636   */\n      0x00\n        /* \"#utility.yul\":10670:10672   */\n      0x60\n        /* \"#utility.yul\":10659:10668   */\n      dup3\n        /* \"#utility.yul\":10655:10673   */\n      add\n        /* \"#utility.yul\":10647:10673   */\n      swap1\n      pop\n        /* \"#utility.yul\":10683:10748   */\n      tag_383\n        /* \"#utility.yul\":10745:10746   */\n      0x00\n        /* \"#utility.yul\":10734:10743   */\n      dup4\n        /* \"#utility.yul\":10730:10747   */\n      add\n        /* \"#utility.yul\":10721:10727   */\n      dup7\n        /* \"#utility.yul\":10683:10748   */\n      tag_203\n      jump\t// in\n    tag_383:\n        /* \"#utility.yul\":10758:10830   */\n      tag_384\n        /* \"#utility.yul\":10826:10828   */\n      0x20\n        /* \"#utility.yul\":10815:10824   */\n      dup4\n        /* \"#utility.yul\":10811:10829   */\n      add\n        /* \"#utility.yul\":10802:10808   */\n      dup6\n        /* \"#utility.yul\":10758:10830   */\n      tag_221\n      jump\t// in\n    tag_384:\n        /* \"#utility.yul\":10840:10912   */\n      tag_385\n        /* \"#utility.yul\":10908:10910   */\n      0x40\n        /* \"#utility.yul\":10897:10906   */\n      dup4\n        /* \"#utility.yul\":10893:10911   */\n      add\n        /* \"#utility.yul\":10884:10890   */\n      dup5\n        /* \"#utility.yul\":10840:10912   */\n      tag_222\n      jump\t// in\n    tag_385:\n        /* \"#utility.yul\":10489:10919   */\n      swap5\n      swap4\n      pop\n      pop\n      pop\n      pop\n      jump\t// out\n        /* \"#utility.yul\":10925:11039   */\n    tag_223:\n        /* \"#utility.yul\":10992:10998   */\n      0x00\n        /* \"#utility.yul\":11026:11031   */\n      dup2\n        /* \"#utility.yul\":11020:11032   */\n      mload\n        /* \"#utility.yul\":11010:11032   */\n      swap1\n      pop\n        /* \"#utility.yul\":10925:11039   */\n      swap2\n      swap1\n      pop\n      jump\t// out\n        /* \"#utility.yul\":11045:11229   */\n    tag_224:\n        /* \"#utility.yul\":11144:11155   */\n      0x00\n        /* \"#utility.yul\":11178:11184   */\n      dup3\n        /* \"#utility.yul\":11173:11176   */\n      dup3\n        /* \"#utility.yul\":11166:11185   */\n      mstore\n        /* \"#utility.yul\":11218:11222   */\n      0x20\n        /* \"#utility.yul\":11213:11216   */\n      dup3\n        /* \"#utility.yul\":11209:11223   */\n      add\n        /* \"#utility.yul\":11194:11223   */\n      swap1\n      pop\n        /* \"#utility.yul\":11045:11229   */\n      swap3\n      swap2\n      pop\n      pop\n      jump\t// out\n        /* \"#utility.yul\":11235:11367   */\n    tag_225:\n        /* \"#utility.yul\":11302:11306   */\n      0x00\n        /* \"#utility.yul\":11325:11328   */\n      dup2\n        /* \"#utility.yul\":11317:11328   */\n      swap1\n      pop\n        /* \"#utility.yul\":11355:11359   */\n      0x20\n        /* \"#utility.yul\":11350:11353   */\n      dup3\n        /* \"#utility.yul\":11346:11360   */\n      add\n        /* \"#utility.yul\":11338:11360   */\n      swap1\n      pop\n        /* \"#utility.yul\":11235:11367   */\n      swap2\n      swap1\n      pop\n      jump\t// out\n        /* \"#utility.yul\":11373:11481   */\n    tag_226:\n        /* \"#utility.yul\":11450:11474   */\n      tag_390\n        /* \"#utility.yul\":11468:11473   */\n      dup2\n        /* \"#utility.yul\":11450:11474   */\n      tag_199\n      jump\t// in\n    tag_390:\n        /* \"#utility.yul\":11445:11448   */\n      dup3\n        /* \"#utility.yul\":11438:11475   */\n      mstore\n        /* \"#utility.yul\":11373:11481   */\n      pop\n      pop\n      jump\t// out\n        /* \"#utility.yul\":11487:11666   */\n    tag_227:\n        /* \"#utility.yul\":11556:11566   */\n      0x00\n        /* \"#utility.yul\":11577:11623   */\n      tag_392\n        /* \"#utility.yul\":11619:11622   */\n      dup4\n        /* \"#utility.yul\":11611:11617   */\n      dup4\n        /* \"#utility.yul\":11577:11623   */\n      tag_226\n      jump\t// in\n    tag_392:\n        /* \"#utility.yul\":11655:11659   */\n      0x20\n        /* \"#utility.yul\":11650:11653   */\n      dup4\n        /* \"#utility.yul\":11646:11660   */\n      add\n        /* \"#utility.yul\":11632:11660   */\n      swap1\n      pop\n        /* \"#utility.yul\":11487:11666   */\n      swap3\n      swap2\n      pop\n      pop\n      jump\t// out\n        /* \"#utility.yul\":11672:11785   */\n    tag_228:\n        /* \"#utility.yul\":11742:11746   */\n      0x00\n        /* \"#utility.yul\":11774:11778   */\n      0x20\n        /* \"#utility.yul\":11769:11772   */\n      dup3\n        /* \"#utility.yul\":11765:11779   */\n      add\n        /* \"#utility.yul\":11757:11779   */\n      swap1\n      pop\n        /* \"#utility.yul\":11672:11785   */\n      swap2\n      swap1\n      pop\n      jump\t// out\n        /* \"#utility.yul\":11821:12553   */\n    tag_229:\n        /* \"#utility.yul\":11940:11943   */\n      0x00\n        /* \"#utility.yul\":11969:12023   */\n      tag_395\n        /* \"#utility.yul\":12017:12022   */\n      dup3\n        /* \"#utility.yul\":11969:12023   */\n      tag_223\n      jump\t// in\n    tag_395:\n        /* \"#utility.yul\":12039:12125   */\n      tag_396\n        /* \"#utility.yul\":12118:12124   */\n      dup2\n        /* \"#utility.yul\":12113:12116   */\n      dup6\n        /* \"#utility.yul\":12039:12125   */\n      tag_224\n      jump\t// in\n    tag_396:\n        /* \"#utility.yul\":12032:12125   */\n      swap4\n      pop\n        /* \"#utility.yul\":12149:12205   */\n      tag_397\n        /* \"#utility.yul\":12199:12204   */\n      dup4\n        /* \"#utility.yul\":12149:12205   */\n      tag_225\n      jump\t// in\n    tag_397:\n        /* \"#utility.yul\":12228:12235   */\n      dup1\n        /* \"#utility.yul\":12259:12260   */\n      0x00\n        /* \"#utility.yul\":12244:12528   */\n    tag_398:\n        /* \"#utility.yul\":12269:12275   */\n      dup4\n        /* \"#utility.yul\":12266:12267   */\n      dup2\n        /* \"#utility.yul\":12263:12276   */\n      lt\n        /* \"#utility.yul\":12244:12528   */\n      iszero\n      tag_400\n      jumpi\n        /* \"#utility.yul\":12345:12351   */\n      dup2\n        /* \"#utility.yul\":12339:12352   */\n      mload\n        /* \"#utility.yul\":12372:12435   */\n      tag_401\n        /* \"#utility.yul\":12431:12434   */\n      dup9\n        /* \"#utility.yul\":12416:12429   */\n      dup3\n        /* \"#utility.yul\":12372:12435   */\n      tag_227\n      jump\t// in\n    tag_401:\n        /* \"#utility.yul\":12365:12435   */\n      swap8\n      pop\n        /* \"#utility.yul\":12458:12518   */\n      tag_402\n        /* \"#utility.yul\":12511:12517   */\n      dup4\n        /* \"#utility.yul\":12458:12518   */\n      tag_228\n      jump\t// in\n    tag_402:\n        /* \"#utility.yul\":12448:12518   */\n      swap3\n      pop\n        /* \"#utility.yul\":12304:12528   */\n      pop\n        /* \"#utility.yul\":12291:12292   */\n      0x01\n        /* \"#utility.yul\":12288:12289   */\n      dup2\n        /* \"#utility.yul\":12284:12293   */\n      add\n        /* \"#utility.yul\":12279:12293   */\n      swap1\n      pop\n        /* \"#utility.yul\":12244:12528   */\n      jump(tag_398)\n    tag_400:\n        /* \"#utility.yul\":12248:12262   */\n      pop\n        /* \"#utility.yul\":12544:12547   */\n      dup6\n        /* \"#utility.yul\":12537:12547   */\n      swap4\n      pop\n        /* \"#utility.yul\":11945:12553   */\n      pop\n      pop\n      pop\n        /* \"#utility.yul\":11821:12553   */\n      swap3\n      swap2\n      pop\n      pop\n      jump\t// out\n        /* \"#utility.yul\":12559:12672   */\n    tag_230:\n        /* \"#utility.yul\":12625:12631   */\n      0x00\n        /* \"#utility.yul\":12659:12664   */\n      dup2\n        /* \"#utility.yul\":12653:12665   */\n      mload\n        /* \"#utility.yul\":12643:12665   */\n      swap1\n      pop\n        /* \"#utility.yul\":12559:12672   */\n      swap2\n      swap1\n      pop\n      jump\t// out\n        /* \"#utility.yul\":12678:12861   */\n    tag_231:\n        /* \"#utility.yul\":12776:12787   */\n      0x00\n        /* \"#utility.yul\":12810:12816   */\n      dup3\n        /* \"#utility.yul\":12805:12808   */\n      dup3\n        /* \"#utility.yul\":12798:12817   */\n      mstore\n        /* \"#utility.yul\":12850:12854   */\n      0x20\n        /* \"#utility.yul\":12845:12848   */\n      dup3\n        /* \"#utility.yul\":12841:12855   */\n      add\n        /* \"#utility.yul\":12826:12855   */\n      swap1\n      pop\n        /* \"#utility.yul\":12678:12861   */\n      swap3\n      swap2\n      pop\n      pop\n      jump\t// out\n        /* \"#utility.yul\":12867:12998   */\n    tag_232:\n        /* \"#utility.yul\":12933:12937   */\n      0x00\n        /* \"#utility.yul\":12956:12959   */\n      dup2\n        /* \"#utility.yul\":12948:12959   */\n      swap1\n      pop\n        /* \"#utility.yul\":12986:12990   */\n      0x20\n        /* \"#utility.yul\":12981:12984   */\n      dup3\n        /* \"#utility.yul\":12977:12991   */\n      add\n        /* \"#utility.yul\":12969:12991   */\n      swap1\n      pop\n        /* \"#utility.yul\":12867:12998   */\n      swap2\n      swap1\n      pop\n      jump\t// out\n        /* \"#utility.yul\":13004:13105   */\n    tag_233:\n        /* \"#utility.yul\":13040:13047   */\n      0x00\n        /* \"#utility.yul\":13080:13098   */\n      0xffffffffffffffff\n        /* \"#utility.yul\":13073:13078   */\n      dup3\n        /* \"#utility.yul\":13069:13099   */\n      and\n        /* \"#utility.yul\":13058:13099   */\n      swap1\n      pop\n        /* \"#utility.yul\":13004:13105   */\n      swap2\n      swap1\n      pop\n      jump\t// out\n        /* \"#utility.yul\":13111:13216   */\n    tag_234:\n        /* \"#utility.yul\":13186:13209   */\n      tag_408\n        /* \"#utility.yul\":13203:13208   */\n      dup2\n        /* \"#utility.yul\":13186:13209   */\n      tag_233\n      jump\t// in\n    tag_408:\n        /* \"#utility.yul\":13181:13184   */\n      dup3\n        /* \"#utility.yul\":13174:13210   */\n      mstore\n        /* \"#utility.yul\":13111:13216   */\n      pop\n      pop\n      jump\t// out\n        /* \"#utility.yul\":13222:13397   */\n    tag_235:\n        /* \"#utility.yul\":13289:13299   */\n      0x00\n        /* \"#utility.yul\":13310:13354   */\n      tag_410\n        /* \"#utility.yul\":13350:13353   */\n      dup4\n        /* \"#utility.yul\":13342:13348   */\n      dup4\n        /* \"#utility.yul\":13310:13354   */\n      tag_234\n      jump\t// in\n    tag_410:\n        /* \"#utility.yul\":13386:13390   */\n      0x20\n        /* \"#utility.yul\":13381:13384   */\n      dup4\n        /* \"#utility.yul\":13377:13391   */\n      add\n        /* \"#utility.yul\":13363:13391   */\n      swap1\n      pop\n        /* \"#utility.yul\":13222:13397   */\n      swap3\n      swap2\n      pop\n      pop\n      jump\t// out\n        /* \"#utility.yul\":13403:13515   */\n    tag_236:\n        /* \"#utility.yul\":13472:13476   */\n      0x00\n        /* \"#utility.yul\":13504:13508   */\n      0x20\n        /* \"#utility.yul\":13499:13502   */\n      dup3\n        /* \"#utility.yul\":13495:13509   */\n      add\n        /* \"#utility.yul\":13487:13509   */\n      swap1\n      pop\n        /* \"#utility.yul\":13403:13515   */\n      swap2\n      swap1\n      pop\n      jump\t// out\n        /* \"#utility.yul\":13549:14273   */\n    tag_237:\n        /* \"#utility.yul\":13666:13669   */\n      0x00\n        /* \"#utility.yul\":13695:13748   */\n      tag_413\n        /* \"#utility.yul\":13742:13747   */\n      dup3\n        /* \"#utility.yul\":13695:13748   */\n      tag_230\n      jump\t// in\n    tag_413:\n        /* \"#utility.yul\":13764:13849   */\n      tag_414\n        /* \"#utility.yul\":13842:13848   */\n      dup2\n        /* \"#utility.yul\":13837:13840   */\n      dup6\n        /* \"#utility.yul\":13764:13849   */\n      tag_231\n      jump\t// in\n    tag_414:\n        /* \"#utility.yul\":13757:13849   */\n      swap4\n      pop\n        /* \"#utility.yul\":13873:13928   */\n      tag_415\n        /* \"#utility.yul\":13922:13927   */\n      dup4\n        /* \"#utility.yul\":13873:13928   */\n      tag_232\n      jump\t// in\n    tag_415:\n        /* \"#utility.yul\":13951:13958   */\n      dup1\n        /* \"#utility.yul\":13982:13983   */\n      0x00\n        /* \"#utility.yul\":13967:14248   */\n    tag_416:\n        /* \"#utility.yul\":13992:13998   */\n      dup4\n        /* \"#utility.yul\":13989:13990   */\n      dup2\n        /* \"#utility.yul\":13986:13999   */\n      lt\n        /* \"#utility.yul\":13967:14248   */\n      iszero\n      tag_418\n      jumpi\n        /* \"#utility.yul\":14068:14074   */\n      dup2\n        /* \"#utility.yul\":14062:14075   */\n      mload\n        /* \"#utility.yul\":14095:14156   */\n      tag_419\n        /* \"#utility.yul\":14152:14155   */\n      dup9\n        /* \"#utility.yul\":14137:14150   */\n      dup3\n        /* \"#utility.yul\":14095:14156   */\n      tag_235\n      jump\t// in\n    tag_419:\n        /* \"#utility.yul\":14088:14156   */\n      swap8\n      pop\n        /* \"#utility.yul\":14179:14238   */\n      tag_420\n        /* \"#utility.yul\":14231:14237   */\n      dup4\n        /* \"#utility.yul\":14179:14238   */\n      tag_236\n      jump\t// in\n    tag_420:\n        /* \"#utility.yul\":14169:14238   */\n      swap3\n      pop\n        /* \"#utility.yul\":14027:14248   */\n      pop\n        /* \"#utility.yul\":14014:14015   */\n      0x01\n        /* \"#utility.yul\":14011:14012   */\n      dup2\n        /* \"#utility.yul\":14007:14016   */\n      add\n        /* \"#utility.yul\":14002:14016   */\n      swap1\n      pop\n        /* \"#utility.yul\":13967:14248   */\n      jump(tag_416)\n    tag_418:\n        /* \"#utility.yul\":13971:13985   */\n      pop\n        /* \"#utility.yul\":14264:14267   */\n      dup6\n        /* \"#utility.yul\":14257:14267   */\n      swap4\n      pop\n        /* \"#utility.yul\":13671:14273   */\n      pop\n      pop\n      pop\n        /* \"#utility.yul\":13549:14273   */\n      swap3\n      swap2\n      pop\n      pop\n      jump\t// out\n        /* \"#utility.yul\":14279:15130   */\n    tag_49:\n        /* \"#utility.yul\":14554:14558   */\n      0x00\n        /* \"#utility.yul\":14592:14595   */\n      0x80\n        /* \"#utility.yul\":14581:14590   */\n      dup3\n        /* \"#utility.yul\":14577:14596   */\n      add\n        /* \"#utility.yul\":14569:14596   */\n      swap1\n      pop\n        /* \"#utility.yul\":14642:14651   */\n      dup2\n        /* \"#utility.yul\":14636:14640   */\n      dup2\n        /* \"#utility.yul\":14632:14652   */\n      sub\n        /* \"#utility.yul\":14628:14629   */\n      0x00\n        /* \"#utility.yul\":14617:14626   */\n      dup4\n        /* \"#utility.yul\":14613:14630   */\n      add\n        /* \"#utility.yul\":14606:14653   */\n      mstore\n        /* \"#utility.yul\":14670:14778   */\n      tag_422\n        /* \"#utility.yul\":14773:14777   */\n      dup2\n        /* \"#utility.yul\":14764:14770   */\n      dup8\n        /* \"#utility.yul\":14670:14778   */\n      tag_229\n      jump\t// in\n    tag_422:\n        /* \"#utility.yul\":14662:14778   */\n      swap1\n      pop\n        /* \"#utility.yul\":14825:14834   */\n      dup2\n        /* \"#utility.yul\":14819:14823   */\n      dup2\n        /* \"#utility.yul\":14815:14835   */\n      sub\n        /* \"#utility.yul\":14810:14812   */\n      0x20\n        /* \"#utility.yul\":14799:14808   */\n      dup4\n        /* \"#utility.yul\":14795:14813   */\n      add\n        /* \"#utility.yul\":14788:14836   */\n      mstore\n        /* \"#utility.yul\":14853:14959   */\n      tag_423\n        /* \"#utility.yul\":14954:14958   */\n      dup2\n        /* \"#utility.yul\":14945:14951   */\n      dup7\n        /* \"#utility.yul\":14853:14959   */\n      tag_237\n      jump\t// in\n    tag_423:\n        /* \"#utility.yul\":14845:14959   */\n      swap1\n      pop\n        /* \"#utility.yul\":14969:15041   */\n      tag_424\n        /* \"#utility.yul\":15037:15039   */\n      0x40\n        /* \"#utility.yul\":15026:15035   */\n      dup4\n        /* \"#utility.yul\":15022:15040   */\n      add\n        /* \"#utility.yul\":15013:15019   */\n      dup6\n        /* \"#utility.yul\":14969:15041   */\n      tag_221\n      jump\t// in\n    tag_424:\n        /* \"#utility.yul\":15051:15123   */\n      tag_425\n        /* \"#utility.yul\":15119:15121   */\n      0x60\n        /* \"#utility.yul\":15108:15117   */\n      dup4\n        /* \"#utility.yul\":15104:15122   */\n      add\n        /* \"#utility.yul\":15095:15101   */\n      dup5\n        /* \"#utility.yul\":15051:15123   */\n      tag_222\n      jump\t// in\n    tag_425:\n        /* \"#utility.yul\":14279:15130   */\n      swap6\n      swap5\n      pop\n      pop\n      pop\n      pop\n      pop\n      jump\t// out\n        /* \"#utility.yul\":15136:15509   */\n    tag_57:\n        /* \"#utility.yul\":15279:15283   */\n      0x00\n        /* \"#utility.yul\":15317:15319   */\n      0x20\n        /* \"#utility.yul\":15306:15315   */\n      dup3\n        /* \"#utility.yul\":15302:15320   */\n      add\n        /* \"#utility.yul\":15294:15320   */\n      swap1\n      pop\n        /* \"#utility.yul\":15366:15375   */\n      dup2\n        /* \"#utility.yul\":15360:15364   */\n      dup2\n        /* \"#utility.yul\":15356:15376   */\n      sub\n        /* \"#utility.yul\":15352:15353   */\n      0x00\n        /* \"#utility.yul\":15341:15350   */\n      dup4\n        /* \"#utility.yul\":15337:15354   */\n      add\n        /* \"#utility.yul\":15330:15377   */\n      mstore\n        /* \"#utility.yul\":15394:15502   */\n      tag_427\n        /* \"#utility.yul\":15497:15501   */\n      dup2\n        /* \"#utility.yul\":15488:15494   */\n      dup5\n        /* \"#utility.yul\":15394:15502   */\n      tag_229\n      jump\t// in\n    tag_427:\n        /* \"#utility.yul\":15386:15502   */\n      swap1\n      pop\n        /* \"#utility.yul\":15136:15509   */\n      swap3\n      swap2\n      pop\n      pop\n      jump\t// out\n        /* \"#utility.yul\":15515:15662   */\n    tag_238:\n        /* \"#utility.yul\":15616:15627   */\n      0x00\n        /* \"#utility.yul\":15653:15656   */\n      dup2\n        /* \"#utility.yul\":15638:15656   */\n      swap1\n      pop\n        /* \"#utility.yul\":15515:15662   */\n      swap3\n      swap2\n      pop\n      pop\n      jump\t// out\n        /* \"#utility.yul\":15668:15782   */\n    tag_239:\n      pop\n      jump\t// out\n        /* \"#utility.yul\":15788:16186   */\n    tag_240:\n        /* \"#utility.yul\":15947:15950   */\n      0x00\n        /* \"#utility.yul\":15968:16051   */\n      tag_431\n        /* \"#utility.yul\":16049:16050   */\n      0x00\n        /* \"#utility.yul\":16044:16047   */\n      dup4\n        /* \"#utility.yul\":15968:16051   */\n      tag_238\n      jump\t// in\n    tag_431:\n        /* \"#utility.yul\":15961:16051   */\n      swap2\n      pop\n        /* \"#utility.yul\":16060:16153   */\n      tag_432\n        /* \"#utility.yul\":16149:16152   */\n      dup3\n        /* \"#utility.yul\":16060:16153   */\n      tag_239\n      jump\t// in\n    tag_432:\n        /* \"#utility.yul\":16178:16179   */\n      0x00\n        /* \"#utility.yul\":16173:16176   */\n      dup3\n        /* \"#utility.yul\":16169:16180   */\n      add\n        /* \"#utility.yul\":16162:16180   */\n      swap1\n      pop\n        /* \"#utility.yul\":15788:16186   */\n      swap2\n      swap1\n      pop\n      jump\t// out\n        /* \"#utility.yul\":16192:16571   */\n    tag_60:\n        /* \"#utility.yul\":16376:16379   */\n      0x00\n        /* \"#utility.yul\":16398:16545   */\n      tag_434\n        /* \"#utility.yul\":16541:16544   */\n      dup3\n        /* \"#utility.yul\":16398:16545   */\n      tag_240\n      jump\t// in\n    tag_434:\n        /* \"#utility.yul\":16391:16545   */\n      swap2\n      pop\n        /* \"#utility.yul\":16562:16565   */\n      dup2\n        /* \"#utility.yul\":16555:16565   */\n      swap1\n      pop\n        /* \"#utility.yul\":16192:16571   */\n      swap2\n      swap1\n      pop\n      jump\t// out\n        /* \"#utility.yul\":16577:16746   */\n    tag_241:\n        /* \"#utility.yul\":16661:16672   */\n      0x00\n        /* \"#utility.yul\":16695:16701   */\n      dup3\n        /* \"#utility.yul\":16690:16693   */\n      dup3\n        /* \"#utility.yul\":16683:16702   */\n      mstore\n        /* \"#utility.yul\":16735:16739   */\n      0x20\n        /* \"#utility.yul\":16730:16733   */\n      dup3\n        /* \"#utility.yul\":16726:16740   */\n      add\n        /* \"#utility.yul\":16711:16740   */\n      swap1\n      pop\n        /* \"#utility.yul\":16577:16746   */\n      swap3\n      swap2\n      pop\n      pop\n      jump\t// out\n        /* \"#utility.yul\":16752:16977   */\n    tag_242:\n        /* \"#utility.yul\":16892:16926   */\n      0x63616e63656c54657374616d656e7428292c2046616c686120616f20656e7669\n        /* \"#utility.yul\":16888:16889   */\n      0x00\n        /* \"#utility.yul\":16880:16886   */\n      dup3\n        /* \"#utility.yul\":16876:16890   */\n      add\n        /* \"#utility.yul\":16869:16927   */\n      mstore\n        /* \"#utility.yul\":16961:16969   */\n      0x6172204554480000000000000000000000000000000000000000000000000000\n        /* \"#utility.yul\":16956:16958   */\n      0x20\n        /* \"#utility.yul\":16948:16954   */\n      dup3\n        /* \"#utility.yul\":16944:16959   */\n      add\n        /* \"#utility.yul\":16937:16970   */\n      mstore\n        /* \"#utility.yul\":16752:16977   */\n      pop\n      jump\t// out\n        /* \"#utility.yul\":16983:17349   */\n    tag_243:\n        /* \"#utility.yul\":17125:17128   */\n      0x00\n        /* \"#utility.yul\":17146:17213   */\n      tag_438\n        /* \"#utility.yul\":17210:17212   */\n      0x26\n        /* \"#utility.yul\":17205:17208   */\n      dup4\n        /* \"#utility.yul\":17146:17213   */\n      tag_241\n      jump\t// in\n    tag_438:\n        /* \"#utility.yul\":17139:17213   */\n      swap2\n      pop\n        /* \"#utility.yul\":17222:17315   */\n      tag_439\n        /* \"#utility.yul\":17311:17314   */\n      dup3\n        /* \"#utility.yul\":17222:17315   */\n      tag_242\n      jump\t// in\n    tag_439:\n        /* \"#utility.yul\":17340:17342   */\n      0x40\n        /* \"#utility.yul\":17335:17338   */\n      dup3\n        /* \"#utility.yul\":17331:17343   */\n      add\n        /* \"#utility.yul\":17324:17343   */\n      swap1\n      pop\n        /* \"#utility.yul\":16983:17349   */\n      swap2\n      swap1\n      pop\n      jump\t// out\n        /* \"#utility.yul\":17355:17774   */\n    tag_66:\n        /* \"#utility.yul\":17521:17525   */\n      0x00\n        /* \"#utility.yul\":17559:17561   */\n      0x20\n        /* \"#utility.yul\":17548:17557   */\n      dup3\n        /* \"#utility.yul\":17544:17562   */\n      add\n        /* \"#utility.yul\":17536:17562   */\n      swap1\n      pop\n        /* \"#utility.yul\":17608:17617   */\n      dup2\n        /* \"#utility.yul\":17602:17606   */\n      dup2\n        /* \"#utility.yul\":17598:17618   */\n      sub\n        /* \"#utility.yul\":17594:17595   */\n      0x00\n        /* \"#utility.yul\":17583:17592   */\n      dup4\n        /* \"#utility.yul\":17579:17596   */\n      add\n        /* \"#utility.yul\":17572:17619   */\n      mstore\n        /* \"#utility.yul\":17636:17767   */\n      tag_441\n        /* \"#utility.yul\":17762:17766   */\n      dup2\n        /* \"#utility.yul\":17636:17767   */\n      tag_243\n      jump\t// in\n    tag_441:\n        /* \"#utility.yul\":17628:17767   */\n      swap1\n      pop\n        /* \"#utility.yul\":17355:17774   */\n      swap2\n      swap1\n      pop\n      jump\t// out\n        /* \"#utility.yul\":17780:18009   */\n    tag_244:\n        /* \"#utility.yul\":17920:17954   */\n      0x637265617465496e6865726974616e636528292c2061646963696f6e65206f73\n        /* \"#utility.yul\":17916:17917   */\n      0x00\n        /* \"#utility.yul\":17908:17914   */\n      dup3\n        /* \"#utility.yul\":17904:17918   */\n      add\n        /* \"#utility.yul\":17897:17955   */\n      mstore\n        /* \"#utility.yul\":17989:18001   */\n      0x20686572646569726f7300000000000000000000000000000000000000000000\n        /* \"#utility.yul\":17984:17986   */\n      0x20\n        /* \"#utility.yul\":17976:17982   */\n      dup3\n        /* \"#utility.yul\":17972:17987   */\n      add\n        /* \"#utility.yul\":17965:18002   */\n      mstore\n        /* \"#utility.yul\":17780:18009   */\n      pop\n      jump\t// out\n        /* \"#utility.yul\":18015:18381   */\n    tag_245:\n        /* \"#utility.yul\":18157:18160   */\n      0x00\n        /* \"#utility.yul\":18178:18245   */\n      tag_444\n        /* \"#utility.yul\":18242:18244   */\n      0x2a\n        /* \"#utility.yul\":18237:18240   */\n      dup4\n        /* \"#utility.yul\":18178:18245   */\n      tag_241\n      jump\t// in\n    tag_444:\n        /* \"#utility.yul\":18171:18245   */\n      swap2\n      pop\n        /* \"#utility.yul\":18254:18347   */\n      tag_445\n        /* \"#utility.yul\":18343:18346   */\n      dup3\n        /* \"#utility.yul\":18254:18347   */\n      tag_244\n      jump\t// in\n    tag_445:\n        /* \"#utility.yul\":18372:18374   */\n      0x40\n        /* \"#utility.yul\":18367:18370   */\n      dup3\n        /* \"#utility.yul\":18363:18375   */\n      add\n        /* \"#utility.yul\":18356:18375   */\n      swap1\n      pop\n        /* \"#utility.yul\":18015:18381   */\n      swap2\n      swap1\n      pop\n      jump\t// out\n        /* \"#utility.yul\":18387:18806   */\n    tag_74:\n        /* \"#utility.yul\":18553:18557   */\n      0x00\n        /* \"#utility.yul\":18591:18593   */\n      0x20\n        /* \"#utility.yul\":18580:18589   */\n      dup3\n        /* \"#utility.yul\":18576:18594   */\n      add\n        /* \"#utility.yul\":18568:18594   */\n      swap1\n      pop\n        /* \"#utility.yul\":18640:18649   */\n      dup2\n        /* \"#utility.yul\":18634:18638   */\n      dup2\n        /* \"#utility.yul\":18630:18650   */\n      sub\n        /* \"#utility.yul\":18626:18627   */\n      0x00\n        /* \"#utility.yul\":18615:18624   */\n      dup4\n        /* \"#utility.yul\":18611:18628   */\n      add\n        /* \"#utility.yul\":18604:18651   */\n      mstore\n        /* \"#utility.yul\":18668:18799   */\n      tag_447\n        /* \"#utility.yul\":18794:18798   */\n      dup2\n        /* \"#utility.yul\":18668:18799   */\n      tag_245\n      jump\t// in\n    tag_447:\n        /* \"#utility.yul\":18660:18799   */\n      swap1\n      pop\n        /* \"#utility.yul\":18387:18806   */\n      swap2\n      swap1\n      pop\n      jump\t// out\n        /* \"#utility.yul\":18812:19106   */\n    tag_246:\n        /* \"#utility.yul\":18952:18986   */\n      0x637265617465496e6865726974616e636528292c207175616e74696461646520\n        /* \"#utility.yul\":18948:18949   */\n      0x00\n        /* \"#utility.yul\":18940:18946   */\n      dup3\n        /* \"#utility.yul\":18936:18950   */\n      add\n        /* \"#utility.yul\":18929:18987   */\n      mstore\n        /* \"#utility.yul\":19021:19055   */\n      0x646520656e64657265636f73206520706f7263656e746167656e732064696665\n        /* \"#utility.yul\":19016:19018   */\n      0x20\n        /* \"#utility.yul\":19008:19014   */\n      dup3\n        /* \"#utility.yul\":19004:19019   */\n      add\n        /* \"#utility.yul\":18997:19056   */\n      mstore\n        /* \"#utility.yul\":19090:19098   */\n      0x72656e7465730000000000000000000000000000000000000000000000000000\n        /* \"#utility.yul\":19085:19087   */\n      0x40\n        /* \"#utility.yul\":19077:19083   */\n      dup3\n        /* \"#utility.yul\":19073:19088   */\n      add\n        /* \"#utility.yul\":19066:19099   */\n      mstore\n        /* \"#utility.yul\":18812:19106   */\n      pop\n      jump\t// out\n        /* \"#utility.yul\":19112:19478   */\n    tag_247:\n        /* \"#utility.yul\":19254:19257   */\n      0x00\n        /* \"#utility.yul\":19275:19342   */\n      tag_450\n        /* \"#utility.yul\":19339:19341   */\n      0x46\n        /* \"#utility.yul\":19334:19337   */\n      dup4\n        /* \"#utility.yul\":19275:19342   */\n      tag_241\n      jump\t// in\n    tag_450:\n        /* \"#utility.yul\":19268:19342   */\n      swap2\n      pop\n        /* \"#utility.yul\":19351:19444   */\n      tag_451\n        /* \"#utility.yul\":19440:19443   */\n      dup3\n        /* \"#utility.yul\":19351:19444   */\n      tag_246\n      jump\t// in\n    tag_451:\n        /* \"#utility.yul\":19469:19471   */\n      0x60\n        /* \"#utility.yul\":19464:19467   */\n      dup3\n        /* \"#utility.yul\":19460:19472   */\n      add\n        /* \"#utility.yul\":19453:19472   */\n      swap1\n      pop\n        /* \"#utility.yul\":19112:19478   */\n      swap2\n      swap1\n      pop\n      jump\t// out\n        /* \"#utility.yul\":19484:19903   */\n    tag_77:\n        /* \"#utility.yul\":19650:19654   */\n      0x00\n        /* \"#utility.yul\":19688:19690   */\n      0x20\n        /* \"#utility.yul\":19677:19686   */\n      dup3\n        /* \"#utility.yul\":19673:19691   */\n      add\n        /* \"#utility.yul\":19665:19691   */\n      swap1\n      pop\n        /* \"#utility.yul\":19737:19746   */\n      dup2\n        /* \"#utility.yul\":19731:19735   */\n      dup2\n        /* \"#utility.yul\":19727:19747   */\n      sub\n        /* \"#utility.yul\":19723:19724   */\n      0x00\n        /* \"#utility.yul\":19712:19721   */\n      dup4\n        /* \"#utility.yul\":19708:19725   */\n      add\n        /* \"#utility.yul\":19701:19748   */\n      mstore\n        /* \"#utility.yul\":19765:19896   */\n      tag_453\n        /* \"#utility.yul\":19891:19895   */\n      dup2\n        /* \"#utility.yul\":19765:19896   */\n      tag_247\n      jump\t// in\n    tag_453:\n        /* \"#utility.yul\":19757:19896   */\n      swap1\n      pop\n        /* \"#utility.yul\":19484:19903   */\n      swap2\n      swap1\n      pop\n      jump\t// out\n        /* \"#utility.yul\":19909:20089   */\n    tag_85:\n        /* \"#utility.yul\":19957:20034   */\n      0x4e487b7100000000000000000000000000000000000000000000000000000000\n        /* \"#utility.yul\":19954:19955   */\n      0x00\n        /* \"#utility.yul\":19947:20035   */\n      mstore\n        /* \"#utility.yul\":20054:20058   */\n      0x32\n        /* \"#utility.yul\":20051:20052   */\n      0x04\n        /* \"#utility.yul\":20044:20059   */\n      mstore\n        /* \"#utility.yul\":20078:20082   */\n      0x24\n        /* \"#utility.yul\":20075:20076   */\n      0x00\n        /* \"#utility.yul\":20068:20083   */\n      revert\n        /* \"#utility.yul\":20095:20215   */\n    tag_248:\n        /* \"#utility.yul\":20167:20190   */\n      tag_456\n        /* \"#utility.yul\":20184:20189   */\n      dup2\n        /* \"#utility.yul\":20167:20190   */\n      tag_233\n      jump\t// in\n    tag_456:\n        /* \"#utility.yul\":20160:20165   */\n      dup2\n        /* \"#utility.yul\":20157:20191   */\n      eq\n        /* \"#utility.yul\":20147:20209   */\n      tag_457\n      jumpi\n        /* \"#utility.yul\":20205:20206   */\n      0x00\n        /* \"#utility.yul\":20202:20203   */\n      dup1\n        /* \"#utility.yul\":20195:20207   */\n      revert\n        /* \"#utility.yul\":20147:20209   */\n    tag_457:\n        /* \"#utility.yul\":20095:20215   */\n      pop\n      jump\t// out\n        /* \"#utility.yul\":20221:20358   */\n    tag_249:\n        /* \"#utility.yul\":20266:20271   */\n      0x00\n        /* \"#utility.yul\":20304:20310   */\n      dup2\n        /* \"#utility.yul\":20291:20311   */\n      calldataload\n        /* \"#utility.yul\":20282:20311   */\n      swap1\n      pop\n        /* \"#utility.yul\":20320:20352   */\n      tag_459\n        /* \"#utility.yul\":20346:20351   */\n      dup2\n        /* \"#utility.yul\":20320:20352   */\n      tag_248\n      jump\t// in\n    tag_459:\n        /* \"#utility.yul\":20221:20358   */\n      swap3\n      swap2\n      pop\n      pop\n      jump\t// out\n        /* \"#utility.yul\":20364:20691   */\n    tag_90:\n        /* \"#utility.yul\":20422:20428   */\n      0x00\n        /* \"#utility.yul\":20471:20473   */\n      0x20\n        /* \"#utility.yul\":20459:20468   */\n      dup3\n        /* \"#utility.yul\":20450:20457   */\n      dup5\n        /* \"#utility.yul\":20446:20469   */\n      sub\n        /* \"#utility.yul\":20442:20474   */\n      slt\n        /* \"#utility.yul\":20439:20558   */\n      iszero\n      tag_461\n      jumpi\n        /* \"#utility.yul\":20477:20556   */\n      tag_462\n      tag_191\n      jump\t// in\n    tag_462:\n        /* \"#utility.yul\":20439:20558   */\n    tag_461:\n        /* \"#utility.yul\":20597:20598   */\n      0x00\n        /* \"#utility.yul\":20622:20674   */\n      tag_463\n        /* \"#utility.yul\":20666:20673   */\n      dup5\n        /* \"#utility.yul\":20657:20663   */\n      dup3\n        /* \"#utility.yul\":20646:20655   */\n      dup6\n        /* \"#utility.yul\":20642:20664   */\n      add\n        /* \"#utility.yul\":20622:20674   */\n      tag_249\n      jump\t// in\n    tag_463:\n        /* \"#utility.yul\":20612:20674   */\n      swap2\n      pop\n        /* \"#utility.yul\":20568:20684   */\n      pop\n        /* \"#utility.yul\":20364:20691   */\n      swap3\n      swap2\n      pop\n      pop\n      jump\t// out\n        /* \"#utility.yul\":20697:20877   */\n    tag_250:\n        /* \"#utility.yul\":20745:20822   */\n      0x4e487b7100000000000000000000000000000000000000000000000000000000\n        /* \"#utility.yul\":20742:20743   */\n      0x00\n        /* \"#utility.yul\":20735:20823   */\n      mstore\n        /* \"#utility.yul\":20842:20846   */\n      0x11\n        /* \"#utility.yul\":20839:20840   */\n      0x04\n        /* \"#utility.yul\":20832:20847   */\n      mstore\n        /* \"#utility.yul\":20866:20870   */\n      0x24\n        /* \"#utility.yul\":20863:20864   */\n      0x00\n        /* \"#utility.yul\":20856:20871   */\n      revert\n        /* \"#utility.yul\":20883:21074   */\n    tag_98:\n        /* \"#utility.yul\":20923:20926   */\n      0x00\n        /* \"#utility.yul\":20942:20962   */\n      tag_466\n        /* \"#utility.yul\":20960:20961   */\n      dup3\n        /* \"#utility.yul\":20942:20962   */\n      tag_204\n      jump\t// in\n    tag_466:\n        /* \"#utility.yul\":20937:20962   */\n      swap2\n      pop\n        /* \"#utility.yul\":20976:20996   */\n      tag_467\n        /* \"#utility.yul\":20994:20995   */\n      dup4\n        /* \"#utility.yul\":20976:20996   */\n      tag_204\n      jump\t// in\n    tag_467:\n        /* \"#utility.yul\":20971:20996   */\n      swap3\n      pop\n        /* \"#utility.yul\":21019:21020   */\n      dup3\n        /* \"#utility.yul\":21016:21017   */\n      dup3\n        /* \"#utility.yul\":21012:21021   */\n      add\n        /* \"#utility.yul\":21005:21021   */\n      swap1\n      pop\n        /* \"#utility.yul\":21040:21043   */\n      dup1\n        /* \"#utility.yul\":21037:21038   */\n      dup3\n        /* \"#utility.yul\":21034:21044   */\n      gt\n        /* \"#utility.yul\":21031:21067   */\n      iszero\n      tag_468\n      jumpi\n        /* \"#utility.yul\":21047:21065   */\n      tag_469\n      tag_250\n      jump\t// in\n    tag_469:\n        /* \"#utility.yul\":21031:21067   */\n    tag_468:\n        /* \"#utility.yul\":20883:21074   */\n      swap3\n      swap2\n      pop\n      pop\n      jump\t// out\n        /* \"#utility.yul\":21080:21302   */\n    tag_251:\n        /* \"#utility.yul\":21220:21254   */\n      0x637265617465496e6865726974616e636528292c2076616c6f7220696e76616c\n        /* \"#utility.yul\":21216:21217   */\n      0x00\n        /* \"#utility.yul\":21208:21214   */\n      dup3\n        /* \"#utility.yul\":21204:21218   */\n      add\n        /* \"#utility.yul\":21197:21255   */\n      mstore\n        /* \"#utility.yul\":21289:21294   */\n      0x69646f0000000000000000000000000000000000000000000000000000000000\n        /* \"#utility.yul\":21284:21286   */\n      0x20\n        /* \"#utility.yul\":21276:21282   */\n      dup3\n        /* \"#utility.yul\":21272:21287   */\n      add\n        /* \"#utility.yul\":21265:21295   */\n      mstore\n        /* \"#utility.yul\":21080:21302   */\n      pop\n      jump\t// out\n        /* \"#utility.yul\":21308:21674   */\n    tag_252:\n        /* \"#utility.yul\":21450:21453   */\n      0x00\n        /* \"#utility.yul\":21471:21538   */\n      tag_472\n        /* \"#utility.yul\":21535:21537   */\n      0x23\n        /* \"#utility.yul\":21530:21533   */\n      dup4\n        /* \"#utility.yul\":21471:21538   */\n      tag_241\n      jump\t// in\n    tag_472:\n        /* \"#utility.yul\":21464:21538   */\n      swap2\n      pop\n        /* \"#utility.yul\":21547:21640   */\n      tag_473\n        /* \"#utility.yul\":21636:21639   */\n      dup3\n        /* \"#utility.yul\":21547:21640   */\n      tag_251\n      jump\t// in\n    tag_473:\n        /* \"#utility.yul\":21665:21667   */\n      0x40\n        /* \"#utility.yul\":21660:21663   */\n      dup3\n        /* \"#utility.yul\":21656:21668   */\n      add\n        /* \"#utility.yul\":21649:21668   */\n      swap1\n      pop\n        /* \"#utility.yul\":21308:21674   */\n      swap2\n      swap1\n      pop\n      jump\t// out\n        /* \"#utility.yul\":21680:22099   */\n    tag_104:\n        /* \"#utility.yul\":21846:21850   */\n      0x00\n        /* \"#utility.yul\":21884:21886   */\n      0x20\n        /* \"#utility.yul\":21873:21882   */\n      dup3\n        /* \"#utility.yul\":21869:21887   */\n      add\n        /* \"#utility.yul\":21861:21887   */\n      swap1\n      pop\n        /* \"#utility.yul\":21933:21942   */\n      dup2\n        /* \"#utility.yul\":21927:21931   */\n      dup2\n        /* \"#utility.yul\":21923:21943   */\n      sub\n        /* \"#utility.yul\":21919:21920   */\n      0x00\n        /* \"#utility.yul\":21908:21917   */\n      dup4\n        /* \"#utility.yul\":21904:21921   */\n      add\n        /* \"#utility.yul\":21897:21944   */\n      mstore\n        /* \"#utility.yul\":21961:22092   */\n      tag_475\n        /* \"#utility.yul\":22087:22091   */\n      dup2\n        /* \"#utility.yul\":21961:22092   */\n      tag_252\n      jump\t// in\n    tag_475:\n        /* \"#utility.yul\":21953:22092   */\n      swap1\n      pop\n        /* \"#utility.yul\":21680:22099   */\n      swap2\n      swap1\n      pop\n      jump\t// out\n        /* \"#utility.yul\":22105:22356   */\n    tag_253:\n        /* \"#utility.yul\":22245:22279   */\n      0x637265617465496e6865726974616e636528292c20766f6365206a612074656d\n        /* \"#utility.yul\":22241:22242   */\n      0x00\n        /* \"#utility.yul\":22233:22239   */\n      dup3\n        /* \"#utility.yul\":22229:22243   */\n      add\n        /* \"#utility.yul\":22222:22280   */\n      mstore\n        /* \"#utility.yul\":22314:22348   */\n      0x20756d2074657374616d656e746f2063726961646f2c20656469746520656c65\n        /* \"#utility.yul\":22309:22311   */\n      0x20\n        /* \"#utility.yul\":22301:22307   */\n      dup3\n        /* \"#utility.yul\":22297:22312   */\n      add\n        /* \"#utility.yul\":22290:22349   */\n      mstore\n        /* \"#utility.yul\":22105:22356   */\n      pop\n      jump\t// out\n        /* \"#utility.yul\":22362:22728   */\n    tag_254:\n        /* \"#utility.yul\":22504:22507   */\n      0x00\n        /* \"#utility.yul\":22525:22592   */\n      tag_478\n        /* \"#utility.yul\":22589:22591   */\n      0x40\n        /* \"#utility.yul\":22584:22587   */\n      dup4\n        /* \"#utility.yul\":22525:22592   */\n      tag_241\n      jump\t// in\n    tag_478:\n        /* \"#utility.yul\":22518:22592   */\n      swap2\n      pop\n        /* \"#utility.yul\":22601:22694   */\n      tag_479\n        /* \"#utility.yul\":22690:22693   */\n      dup3\n        /* \"#utility.yul\":22601:22694   */\n      tag_253\n      jump\t// in\n    tag_479:\n        /* \"#utility.yul\":22719:22721   */\n      0x40\n        /* \"#utility.yul\":22714:22717   */\n      dup3\n        /* \"#utility.yul\":22710:22722   */\n      add\n        /* \"#utility.yul\":22703:22722   */\n      swap1\n      pop\n        /* \"#utility.yul\":22362:22728   */\n      swap2\n      swap1\n      pop\n      jump\t// out\n        /* \"#utility.yul\":22734:23153   */\n    tag_111:\n        /* \"#utility.yul\":22900:22904   */\n      0x00\n        /* \"#utility.yul\":22938:22940   */\n      0x20\n        /* \"#utility.yul\":22927:22936   */\n      dup3\n        /* \"#utility.yul\":22923:22941   */\n      add\n        /* \"#utility.yul\":22915:22941   */\n      swap1\n      pop\n        /* \"#utility.yul\":22987:22996   */\n      dup2\n        /* \"#utility.yul\":22981:22985   */\n      dup2\n        /* \"#utility.yul\":22977:22997   */\n      sub\n        /* \"#utility.yul\":22973:22974   */\n      0x00\n        /* \"#utility.yul\":22962:22971   */\n      dup4\n        /* \"#utility.yul\":22958:22975   */\n      add\n        /* \"#utility.yul\":22951:22998   */\n      mstore\n        /* \"#utility.yul\":23015:23146   */\n      tag_481\n        /* \"#utility.yul\":23141:23145   */\n      dup2\n        /* \"#utility.yul\":23015:23146   */\n      tag_254\n      jump\t// in\n    tag_481:\n        /* \"#utility.yul\":23007:23146   */\n      swap1\n      pop\n        /* \"#utility.yul\":22734:23153   */\n      swap2\n      swap1\n      pop\n      jump\t// out\n        /* \"#utility.yul\":23159:23332   */\n    tag_255:\n        /* \"#utility.yul\":23299:23324   */\n      0x5465737461646f72206e616f20656e636f6e747261646f000000000000000000\n        /* \"#utility.yul\":23295:23296   */\n      0x00\n        /* \"#utility.yul\":23287:23293   */\n      dup3\n        /* \"#utility.yul\":23283:23297   */\n      add\n        /* \"#utility.yul\":23276:23325   */\n      mstore\n        /* \"#utility.yul\":23159:23332   */\n      pop\n      jump\t// out\n        /* \"#utility.yul\":23338:23704   */\n    tag_256:\n        /* \"#utility.yul\":23480:23483   */\n      0x00\n        /* \"#utility.yul\":23501:23568   */\n      tag_484\n        /* \"#utility.yul\":23565:23567   */\n      0x17\n        /* \"#utility.yul\":23560:23563   */\n      dup4\n        /* \"#utility.yul\":23501:23568   */\n      tag_241\n      jump\t// in\n    tag_484:\n        /* \"#utility.yul\":23494:23568   */\n      swap2\n      pop\n        /* \"#utility.yul\":23577:23670   */\n      tag_485\n        /* \"#utility.yul\":23666:23669   */\n      dup3\n        /* \"#utility.yul\":23577:23670   */\n      tag_255\n      jump\t// in\n    tag_485:\n        /* \"#utility.yul\":23695:23697   */\n      0x20\n        /* \"#utility.yul\":23690:23693   */\n      dup3\n        /* \"#utility.yul\":23686:23698   */\n      add\n        /* \"#utility.yul\":23679:23698   */\n      swap1\n      pop\n        /* \"#utility.yul\":23338:23704   */\n      swap2\n      swap1\n      pop\n      jump\t// out\n        /* \"#utility.yul\":23710:24129   */\n    tag_130:\n        /* \"#utility.yul\":23876:23880   */\n      0x00\n        /* \"#utility.yul\":23914:23916   */\n      0x20\n        /* \"#utility.yul\":23903:23912   */\n      dup3\n        /* \"#utility.yul\":23899:23917   */\n      add\n        /* \"#utility.yul\":23891:23917   */\n      swap1\n      pop\n        /* \"#utility.yul\":23963:23972   */\n      dup2\n        /* \"#utility.yul\":23957:23961   */\n      dup2\n        /* \"#utility.yul\":23953:23973   */\n      sub\n        /* \"#utility.yul\":23949:23950   */\n      0x00\n        /* \"#utility.yul\":23938:23947   */\n      dup4\n        /* \"#utility.yul\":23934:23951   */\n      add\n        /* \"#utility.yul\":23927:23974   */\n      mstore\n        /* \"#utility.yul\":23991:24122   */\n      tag_487\n        /* \"#utility.yul\":24117:24121   */\n      dup2\n        /* \"#utility.yul\":23991:24122   */\n      tag_256\n      jump\t// in\n    tag_487:\n        /* \"#utility.yul\":23983:24122   */\n      swap1\n      pop\n        /* \"#utility.yul\":23710:24129   */\n      swap2\n      swap1\n      pop\n      jump\t// out\n        /* \"#utility.yul\":24135:24318   */\n    tag_148:\n        /* \"#utility.yul\":24173:24176   */\n      0x00\n        /* \"#utility.yul\":24196:24219   */\n      tag_489\n        /* \"#utility.yul\":24213:24218   */\n      dup3\n        /* \"#utility.yul\":24196:24219   */\n      tag_233\n      jump\t// in\n    tag_489:\n        /* \"#utility.yul\":24187:24219   */\n      swap2\n      pop\n        /* \"#utility.yul\":24241:24259   */\n      0xffffffffffffffff\n        /* \"#utility.yul\":24234:24239   */\n      dup3\n        /* \"#utility.yul\":24231:24260   */\n      sub\n        /* \"#utility.yul\":24228:24283   */\n      tag_490\n      jumpi\n        /* \"#utility.yul\":24263:24281   */\n      tag_491\n      tag_250\n      jump\t// in\n    tag_491:\n        /* \"#utility.yul\":24228:24283   */\n    tag_490:\n        /* \"#utility.yul\":24310:24311   */\n      0x01\n        /* \"#utility.yul\":24303:24308   */\n      dup3\n        /* \"#utility.yul\":24299:24312   */\n      add\n        /* \"#utility.yul\":24292:24312   */\n      swap1\n      pop\n        /* \"#utility.yul\":24135:24318   */\n      swap2\n      swap1\n      pop\n      jump\t// out\n        /* \"#utility.yul\":24324:24551   */\n    tag_257:\n        /* \"#utility.yul\":24464:24498   */\n      0x566f6365206e616f20706f73737569206e656e68756d2074657374616d656e74\n        /* \"#utility.yul\":24460:24461   */\n      0x00\n        /* \"#utility.yul\":24452:24458   */\n      dup3\n        /* \"#utility.yul\":24448:24462   */\n      add\n        /* \"#utility.yul\":24441:24499   */\n      mstore\n        /* \"#utility.yul\":24533:24543   */\n      0x6f2063726961646f000000000000000000000000000000000000000000000000\n        /* \"#utility.yul\":24528:24530   */\n      0x20\n        /* \"#utility.yul\":24520:24526   */\n      dup3\n        /* \"#utility.yul\":24516:24531   */\n      add\n        /* \"#utility.yul\":24509:24544   */\n      mstore\n        /* \"#utility.yul\":24324:24551   */\n      pop\n      jump\t// out\n        /* \"#utility.yul\":24557:24923   */\n    tag_258:\n        /* \"#utility.yul\":24699:24702   */\n      0x00\n        /* \"#utility.yul\":24720:24787   */\n      tag_494\n        /* \"#utility.yul\":24784:24786   */\n      0x28\n        /* \"#utility.yul\":24779:24782   */\n      dup4\n        /* \"#utility.yul\":24720:24787   */\n      tag_241\n      jump\t// in\n    tag_494:\n        /* \"#utility.yul\":24713:24787   */\n      swap2\n      pop\n        /* \"#utility.yul\":24796:24889   */\n      tag_495\n        /* \"#utility.yul\":24885:24888   */\n      dup3\n        /* \"#utility.yul\":24796:24889   */\n      tag_257\n      jump\t// in\n    tag_495:\n        /* \"#utility.yul\":24914:24916   */\n      0x40\n        /* \"#utility.yul\":24909:24912   */\n      dup3\n        /* \"#utility.yul\":24905:24917   */\n      add\n        /* \"#utility.yul\":24898:24917   */\n      swap1\n      pop\n        /* \"#utility.yul\":24557:24923   */\n      swap2\n      swap1\n      pop\n      jump\t// out\n        /* \"#utility.yul\":24929:25348   */\n    tag_152:\n        /* \"#utility.yul\":25095:25099   */\n      0x00\n        /* \"#utility.yul\":25133:25135   */\n      0x20\n        /* \"#utility.yul\":25122:25131   */\n      dup3\n        /* \"#utility.yul\":25118:25136   */\n      add\n        /* \"#utility.yul\":25110:25136   */\n      swap1\n      pop\n        /* \"#utility.yul\":25182:25191   */\n      dup2\n        /* \"#utility.yul\":25176:25180   */\n      dup2\n        /* \"#utility.yul\":25172:25192   */\n      sub\n        /* \"#utility.yul\":25168:25169   */\n      0x00\n        /* \"#utility.yul\":25157:25166   */\n      dup4\n        /* \"#utility.yul\":25153:25170   */\n      add\n        /* \"#utility.yul\":25146:25193   */\n      mstore\n        /* \"#utility.yul\":25210:25341   */\n      tag_497\n        /* \"#utility.yul\":25336:25340   */\n      dup2\n        /* \"#utility.yul\":25210:25341   */\n      tag_258\n      jump\t// in\n    tag_497:\n        /* \"#utility.yul\":25202:25341   */\n      swap1\n      pop\n        /* \"#utility.yul\":24929:25348   */\n      swap2\n      swap1\n      pop\n      jump\t// out\n        /* \"#utility.yul\":25354:25548   */\n    tag_174:\n        /* \"#utility.yul\":25394:25398   */\n      0x00\n        /* \"#utility.yul\":25414:25434   */\n      tag_499\n        /* \"#utility.yul\":25432:25433   */\n      dup3\n        /* \"#utility.yul\":25414:25434   */\n      tag_204\n      jump\t// in\n    tag_499:\n        /* \"#utility.yul\":25409:25434   */\n      swap2\n      pop\n        /* \"#utility.yul\":25448:25468   */\n      tag_500\n        /* \"#utility.yul\":25466:25467   */\n      dup4\n        /* \"#utility.yul\":25448:25468   */\n      tag_204\n      jump\t// in\n    tag_500:\n        /* \"#utility.yul\":25443:25468   */\n      swap3\n      pop\n        /* \"#utility.yul\":25492:25493   */\n      dup3\n        /* \"#utility.yul\":25489:25490   */\n      dup3\n        /* \"#utility.yul\":25485:25494   */\n      sub\n        /* \"#utility.yul\":25477:25494   */\n      swap1\n      pop\n        /* \"#utility.yul\":25516:25517   */\n      dup2\n        /* \"#utility.yul\":25510:25514   */\n      dup2\n        /* \"#utility.yul\":25507:25518   */\n      gt\n        /* \"#utility.yul\":25504:25541   */\n      iszero\n      tag_501\n      jumpi\n        /* \"#utility.yul\":25521:25539   */\n      tag_502\n      tag_250\n      jump\t// in\n    tag_502:\n        /* \"#utility.yul\":25504:25541   */\n    tag_501:\n        /* \"#utility.yul\":25354:25548   */\n      swap3\n      swap2\n      pop\n      pop\n      jump\t// out\n        /* \"#utility.yul\":25554:25734   */\n    tag_183:\n        /* \"#utility.yul\":25602:25679   */\n      0x4e487b7100000000000000000000000000000000000000000000000000000000\n        /* \"#utility.yul\":25599:25600   */\n      0x00\n        /* \"#utility.yul\":25592:25680   */\n      mstore\n        /* \"#utility.yul\":25699:25703   */\n      0x31\n        /* \"#utility.yul\":25696:25697   */\n      0x04\n        /* \"#utility.yul\":25689:25704   */\n      mstore\n        /* \"#utility.yul\":25723:25727   */\n      0x24\n        /* \"#utility.yul\":25720:25721   */\n      0x00\n        /* \"#utility.yul\":25713:25728   */\n      revert\n\n    auxdata: 0xa2646970667358221220026466a53a1fa5cf698a3c70ba22cbd9924d55e2579f86afbc4f4b29ea947b9964736f6c634300081a0033\n}\n",
				"bytecode": {
					"linkReferences": {},
					"object": "6080604052348015600e575f80fd5b506122e28061001c5f395ff3fe608060405260043610610085575f3560e01c8063759a8a9811610058578063759a8a981461013f5780637618d0a71461015b578063c606461014610199578063c80cc411146101d8578063ca7252ea146101ee57610085565b80631aba6da614610089578063242e1d9b1461009f5780633c9e9964146100c75780635b084db914610103575b5f80fd5b348015610094575f80fd5b5061009d610218565b005b3480156100aa575f80fd5b506100c560048036038101906100c09190611625565b61039a565b005b3480156100d2575f80fd5b506100ed60048036038101906100e891906116fd565b6106bd565b6040516100fa9190611742565b60405180910390f35b34801561010e575f80fd5b506101296004803603810190610124919061178e565b610749565b60405161013691906117db565b60405180910390f35b61015960048036038101906101549190611a32565b610791565b005b348015610166575f80fd5b50610181600480360381019061017c91906116fd565b610ba5565b60405161019093929190611ae1565b60405180910390f35b3480156101a4575f80fd5b506101bf60048036038101906101ba91906116fd565b610bf3565b6040516101cf9493929190611c97565b60405180910390f35b3480156101e3575f80fd5b506101ec610f85565b005b3480156101f9575f80fd5b5061020261108d565b60405161020f9190611ce8565b60405180910390f35b5f3390505f3373ffffffffffffffffffffffffffffffffffffffff165f808473ffffffffffffffffffffffffffffffffffffffff1673ffffffffffffffffffffffffffffffffffffffff1681526020019081526020015f206002015460405161028090611d35565b5f6040518083038185875af1925050503d805f81146102ba576040519150601f19603f3d011682016040523d82523d5f602084013e6102bf565b606091505b5050905080610303576040517f08c379a00000000000000000000000000000000000000000000000000000000081526004016102fa90611dc9565b60405180910390fd5b61030c82611158565b5f808373ffffffffffffffffffffffffffffffffffffffff1673ffffffffffffffffffffffffffffffffffffffff1681526020019081526020015f205f8082015f61035791906114ea565b600182015f6101000a81549060ff02191690556001820160016101000a8154906fffffffffffffffffffffffffffffffff0219169055600282015f905550505050565b5f3390505f85859050036103e3576040517f08c379a00000000000000000000000000000000000000000000000000000000081526004016103da90611e57565b60405180910390fd5b82829050858590501461042b576040517f08c379a000000000000000000000000000000000000000000000000000000000815260040161042290611f0b565b60405180910390fd5b61043481611158565b5f808273ffffffffffffffffffffffffffffffffffffffff1673ffffffffffffffffffffffffffffffffffffffff1681526020019081526020015f205f015f61047d91906114ea565b5f5b858590508110156106b5575f60405180604001604052808888858181106104a9576104a8611f29565b5b90506020020160208101906104be91906116fd565b73ffffffffffffffffffffffffffffffffffffffff1681526020018686858181106104ec576104eb611f29565b5b90506020020160208101906105019190611f80565b67ffffffffffffffff1681525090505f808473ffffffffffffffffffffffffffffffffffffffff1673ffffffffffffffffffffffffffffffffffffffff1681526020019081526020015f205f0181908060018154018082558091505060019003905f5260205f20015f909190919091505f820151815f015f6101000a81548173ffffffffffffffffffffffffffffffffffffffff021916908373ffffffffffffffffffffffffffffffffffffffff1602179055506020820151815f0160146101000a81548167ffffffffffffffff021916908367ffffffffffffffff160217905550505060015f8888858181106105fb576105fa611f29565b5b905060200201602081019061061091906116fd565b73ffffffffffffffffffffffffffffffffffffffff1673ffffffffffffffffffffffffffffffffffffffff1681526020019081526020015f2083908060018154018082558091505060019003905f5260205f20015f9091909190916101000a81548173ffffffffffffffffffffffffffffffffffffffff021916908373ffffffffffffffffffffffffffffffffffffffff16021790555050808060010191505061047f565b505050505050565b5f8062278d009050805f808573ffffffffffffffffffffffffffffffffffffffff1673ffffffffffffffffffffffffffffffffffffffff1681526020019081526020015f2060010160019054906101000a90046fffffffffffffffffffffffffffffffff166fffffffffffffffffffffffffffffffff1661073e9190611fd8565b421015915050919050565b6001602052815f5260405f208181548110610762575f80fd5b905f5260205f20015f915091509054906101000a900473ffffffffffffffffffffffffffffffffffffffff1681565b5f34036107d3576040517f08c379a00000000000000000000000000000000000000000000000000000000081526004016107ca9061207b565b60405180910390fd5b5f825103610816576040517f08c379a000000000000000000000000000000000000000000000000000000000815260040161080d90611e57565b60405180910390fd5b805182511461085a576040517f08c379a000000000000000000000000000000000000000000000000000000000815260040161085190611f0b565b60405180910390fd5b5f3390505f808273ffffffffffffffffffffffffffffffffffffffff1673ffffffffffffffffffffffffffffffffffffffff1681526020019081526020015f206001015f9054906101000a900460ff16156108ea576040517f08c379a00000000000000000000000000000000000000000000000000000000081526004016108e190612109565b60405180910390fd5b5f5b8351811015610afc575f604051806040016040528086848151811061091457610913611f29565b5b602002602001015173ffffffffffffffffffffffffffffffffffffffff16815260200185848151811061094a57610949611f29565b5b602002602001015160ff1667ffffffffffffffff16815250905060015f86848151811061097a57610979611f29565b5b602002602001015173ffffffffffffffffffffffffffffffffffffffff1673ffffffffffffffffffffffffffffffffffffffff1681526020019081526020015f2083908060018154018082558091505060019003905f5260205f20015f9091909190916101000a81548173ffffffffffffffffffffffffffffffffffffffff021916908373ffffffffffffffffffffffffffffffffffffffff1602179055505f808473ffffffffffffffffffffffffffffffffffffffff1673ffffffffffffffffffffffffffffffffffffffff1681526020019081526020015f205f0181908060018154018082558091505060019003905f5260205f20015f909190919091505f820151815f015f6101000a81548173ffffffffffffffffffffffffffffffffffffffff021916908373ffffffffffffffffffffffffffffffffffffffff1602179055506020820151815f0160146101000a81548167ffffffffffffffff021916908367ffffffffffffffff16021790555050505080806001019150506108ec565b5060015f808373ffffffffffffffffffffffffffffffffffffffff1673ffffffffffffffffffffffffffffffffffffffff1681526020019081526020015f206001015f6101000a81548160ff021916908315150217905550345f808373ffffffffffffffffffffffffffffffffffffffff1673ffffffffffffffffffffffffffffffffffffffff1681526020019081526020015f2060020181905550610ba0610f85565b505050565b5f602052805f5260405f205f91509050806001015f9054906101000a900460ff16908060010160019054906101000a90046fffffffffffffffffffffffffffffffff16908060020154905083565b6060805f805f805f8773ffffffffffffffffffffffffffffffffffffffff1673ffffffffffffffffffffffffffffffffffffffff1681526020019081526020015f206040518060800160405290815f8201805480602002602001604051908101604052809291908181526020015f905b82821015610d14578382905f5260205f20016040518060400160405290815f82015f9054906101000a900473ffffffffffffffffffffffffffffffffffffffff1673ffffffffffffffffffffffffffffffffffffffff1673ffffffffffffffffffffffffffffffffffffffff1681526020015f820160149054906101000a900467ffffffffffffffff1667ffffffffffffffff1667ffffffffffffffff168152505081526020019060010190610c63565b505050508152602001600182015f9054906101000a900460ff161515151581526020016001820160019054906101000a90046fffffffffffffffffffffffffffffffff166fffffffffffffffffffffffffffffffff166fffffffffffffffffffffffffffffffff16815260200160028201548152505090508060200151610dd0576040517f08c379a0000000000000000000000000000000000000000000000000000000008152600401610dc790612171565b60405180910390fd5b5f815f01515167ffffffffffffffff811115610def57610dee611804565b5b604051908082528060200260200182016040528015610e1d5781602001602082028036833780820191505090505b5090505f825f01515167ffffffffffffffff811115610e3f57610e3e611804565b5b604051908082528060200260200182016040528015610e6d5781602001602082028036833780820191505090505b5090505f5b835f0151518167ffffffffffffffff161015610f66575f845f01518267ffffffffffffffff1681518110610ea957610ea8611f29565b5b60200260200101519050805f0151848367ffffffffffffffff1681518110610ed457610ed3611f29565b5b602002602001019073ffffffffffffffffffffffffffffffffffffffff16908173ffffffffffffffffffffffffffffffffffffffff16815250508060200151838367ffffffffffffffff1681518110610f3057610f2f611f29565b5b602002602001019067ffffffffffffffff16908167ffffffffffffffff1681525050508080610f5e9061218f565b915050610e72565b5081818460400151856060015196509650965096505050509193509193565b5f3390505f808273ffffffffffffffffffffffffffffffffffffffff1673ffffffffffffffffffffffffffffffffffffffff1681526020019081526020015f206001015f9054906101000a900460ff16611014576040517f08c379a000000000000000000000000000000000000000000000000000000000815260040161100b9061222e565b60405180910390fd5b425f808373ffffffffffffffffffffffffffffffffffffffff1673ffffffffffffffffffffffffffffffffffffffff1681526020019081526020015f2060010160016101000a8154816fffffffffffffffffffffffffffffffff02191690836fffffffffffffffffffffffffffffffff16021790555050565b60605f33905060015f8273ffffffffffffffffffffffffffffffffffffffff1673ffffffffffffffffffffffffffffffffffffffff1681526020019081526020015f2080548060200260200160405190810160405280929190818152602001828054801561114d57602002820191905f5260205f20905b815f9054906101000a900473ffffffffffffffffffffffffffffffffffffffff1673ffffffffffffffffffffffffffffffffffffffff1681526020019060010190808311611104575b505050505091505090565b5f805f8373ffffffffffffffffffffffffffffffffffffffff1673ffffffffffffffffffffffffffffffffffffffff1681526020019081526020015f205f01805480602002602001604051908101604052809291908181526020015f905b82821015611267578382905f5260205f20016040518060400160405290815f82015f9054906101000a900473ffffffffffffffffffffffffffffffffffffffff1673ffffffffffffffffffffffffffffffffffffffff1673ffffffffffffffffffffffffffffffffffffffff1681526020015f820160149054906101000a900467ffffffffffffffff1667ffffffffffffffff1667ffffffffffffffff1681525050815260200190600101906111b6565b5050505090505f5b81518110156114e5575f60015f84848151811061128f5761128e611f29565b5b60200260200101515f015173ffffffffffffffffffffffffffffffffffffffff1673ffffffffffffffffffffffffffffffffffffffff1681526020019081526020015f2080548060200260200160405190810160405280929190818152602001828054801561135057602002820191905f5260205f20905b815f9054906101000a900473ffffffffffffffffffffffffffffffffffffffff1673ffffffffffffffffffffffffffffffffffffffff1681526020019060010190808311611307575b505050505090505f815190505f5b818110156114d5578573ffffffffffffffffffffffffffffffffffffffff168382815181106113905761138f611f29565b5b602002602001015173ffffffffffffffffffffffffffffffffffffffff16036114c857826001836113c1919061224c565b815181106113d2576113d1611f29565b5b60200260200101518382815181106113ed576113ec611f29565b5b602002602001019073ffffffffffffffffffffffffffffffffffffffff16908173ffffffffffffffffffffffffffffffffffffffff168152505060015f86868151811061143d5761143c611f29565b5b60200260200101515f015173ffffffffffffffffffffffffffffffffffffffff1673ffffffffffffffffffffffffffffffffffffffff1681526020019081526020015f208054806114915761149061227f565b5b600190038181905f5260205f20015f6101000a81549073ffffffffffffffffffffffffffffffffffffffff021916905590556114d5565b808060010191505061135e565b505050808060010191505061126f565b505050565b5080545f8255905f5260205f20908101906115059190611508565b50565b5b8082111561155a575f8082015f6101000a81549073ffffffffffffffffffffffffffffffffffffffff02191690555f820160146101000a81549067ffffffffffffffff021916905550600101611509565b5090565b5f604051905090565b5f80fd5b5f80fd5b5f80fd5b5f80fd5b5f80fd5b5f8083601f8401126115905761158f61156f565b5b8235905067ffffffffffffffff8111156115ad576115ac611573565b5b6020830191508360208202830111156115c9576115c8611577565b5b9250929050565b5f8083601f8401126115e5576115e461156f565b5b8235905067ffffffffffffffff81111561160257611601611573565b5b60208301915083602082028301111561161e5761161d611577565b5b9250929050565b5f805f806040858703121561163d5761163c611567565b5b5f85013567ffffffffffffffff81111561165a5761165961156b565b5b6116668782880161157b565b9450945050602085013567ffffffffffffffff8111156116895761168861156b565b5b611695878288016115d0565b925092505092959194509250565b5f73ffffffffffffffffffffffffffffffffffffffff82169050919050565b5f6116cc826116a3565b9050919050565b6116dc816116c2565b81146116e6575f80fd5b50565b5f813590506116f7816116d3565b92915050565b5f6020828403121561171257611711611567565b5b5f61171f848285016116e9565b91505092915050565b5f8115159050919050565b61173c81611728565b82525050565b5f6020820190506117555f830184611733565b92915050565b5f819050919050565b61176d8161175b565b8114611777575f80fd5b50565b5f8135905061178881611764565b92915050565b5f80604083850312156117a4576117a3611567565b5b5f6117b1858286016116e9565b92505060206117c28582860161177a565b9150509250929050565b6117d5816116c2565b82525050565b5f6020820190506117ee5f8301846117cc565b92915050565b5f601f19601f8301169050919050565b7f4e487b71000000000000000000000000000000000000000000000000000000005f52604160045260245ffd5b61183a826117f4565b810181811067ffffffffffffffff8211171561185957611858611804565b5b80604052505050565b5f61186b61155e565b90506118778282611831565b919050565b5f67ffffffffffffffff82111561189657611895611804565b5b602082029050602081019050919050565b5f6118b96118b48461187c565b611862565b905080838252602082019050602084028301858111156118dc576118db611577565b5b835b8181101561190557806118f188826116e9565b8452602084019350506020810190506118de565b5050509392505050565b5f82601f8301126119235761192261156f565b5b81356119338482602086016118a7565b91505092915050565b5f67ffffffffffffffff82111561195657611955611804565b5b602082029050602081019050919050565b5f60ff82169050919050565b61197c81611967565b8114611986575f80fd5b50565b5f8135905061199781611973565b92915050565b5f6119af6119aa8461193c565b611862565b905080838252602082019050602084028301858111156119d2576119d1611577565b5b835b818110156119fb57806119e78882611989565b8452602084019350506020810190506119d4565b5050509392505050565b5f82601f830112611a1957611a1861156f565b5b8135611a2984826020860161199d565b91505092915050565b5f8060408385031215611a4857611a47611567565b5b5f83013567ffffffffffffffff811115611a6557611a6461156b565b5b611a718582860161190f565b925050602083013567ffffffffffffffff811115611a9257611a9161156b565b5b611a9e85828601611a05565b9150509250929050565b5f6fffffffffffffffffffffffffffffffff82169050919050565b611acc81611aa8565b82525050565b611adb8161175b565b82525050565b5f606082019050611af45f830186611733565b611b016020830185611ac3565b611b0e6040830184611ad2565b949350505050565b5f81519050919050565b5f82825260208201905092915050565b5f819050602082019050919050565b611b48816116c2565b82525050565b5f611b598383611b3f565b60208301905092915050565b5f602082019050919050565b5f611b7b82611b16565b611b858185611b20565b9350611b9083611b30565b805f5b83811015611bc0578151611ba78882611b4e565b9750611bb283611b65565b925050600181019050611b93565b5085935050505092915050565b5f81519050919050565b5f82825260208201905092915050565b5f819050602082019050919050565b5f67ffffffffffffffff82169050919050565b611c1281611bf6565b82525050565b5f611c238383611c09565b60208301905092915050565b5f602082019050919050565b5f611c4582611bcd565b611c4f8185611bd7565b9350611c5a83611be7565b805f5b83811015611c8a578151611c718882611c18565b9750611c7c83611c2f565b925050600181019050611c5d565b5085935050505092915050565b5f6080820190508181035f830152611caf8187611b71565b90508181036020830152611cc38186611c3b565b9050611cd26040830185611ac3565b611cdf6060830184611ad2565b95945050505050565b5f6020820190508181035f830152611d008184611b71565b905092915050565b5f81905092915050565b50565b5f611d205f83611d08565b9150611d2b82611d12565b5f82019050919050565b5f611d3f82611d15565b9150819050919050565b5f82825260208201905092915050565b7f63616e63656c54657374616d656e7428292c2046616c686120616f20656e76695f8201527f6172204554480000000000000000000000000000000000000000000000000000602082015250565b5f611db3602683611d49565b9150611dbe82611d59565b604082019050919050565b5f6020820190508181035f830152611de081611da7565b9050919050565b7f637265617465496e6865726974616e636528292c2061646963696f6e65206f735f8201527f20686572646569726f7300000000000000000000000000000000000000000000602082015250565b5f611e41602a83611d49565b9150611e4c82611de7565b604082019050919050565b5f6020820190508181035f830152611e6e81611e35565b9050919050565b7f637265617465496e6865726974616e636528292c207175616e746964616465205f8201527f646520656e64657265636f73206520706f7263656e746167656e73206469666560208201527f72656e7465730000000000000000000000000000000000000000000000000000604082015250565b5f611ef5604683611d49565b9150611f0082611e75565b606082019050919050565b5f6020820190508181035f830152611f2281611ee9565b9050919050565b7f4e487b71000000000000000000000000000000000000000000000000000000005f52603260045260245ffd5b611f5f81611bf6565b8114611f69575f80fd5b50565b5f81359050611f7a81611f56565b92915050565b5f60208284031215611f9557611f94611567565b5b5f611fa284828501611f6c565b91505092915050565b7f4e487b71000000000000000000000000000000000000000000000000000000005f52601160045260245ffd5b5f611fe28261175b565b9150611fed8361175b565b925082820190508082111561200557612004611fab565b5b92915050565b7f637265617465496e6865726974616e636528292c2076616c6f7220696e76616c5f8201527f69646f0000000000000000000000000000000000000000000000000000000000602082015250565b5f612065602383611d49565b91506120708261200b565b604082019050919050565b5f6020820190508181035f83015261209281612059565b9050919050565b7f637265617465496e6865726974616e636528292c20766f6365206a612074656d5f8201527f20756d2074657374616d656e746f2063726961646f2c20656469746520656c65602082015250565b5f6120f3604083611d49565b91506120fe82612099565b604082019050919050565b5f6020820190508181035f830152612120816120e7565b9050919050565b7f5465737461646f72206e616f20656e636f6e747261646f0000000000000000005f82015250565b5f61215b601783611d49565b915061216682612127565b602082019050919050565b5f6020820190508181035f8301526121888161214f565b9050919050565b5f61219982611bf6565b915067ffffffffffffffff82036121b3576121b2611fab565b5b600182019050919050565b7f566f6365206e616f20706f73737569206e656e68756d2074657374616d656e745f8201527f6f2063726961646f000000000000000000000000000000000000000000000000602082015250565b5f612218602883611d49565b9150612223826121be565b604082019050919050565b5f6020820190508181035f8301526122458161220c565b9050919050565b5f6122568261175b565b91506122618361175b565b925082820390508181111561227957612278611fab565b5b92915050565b7f4e487b71000000000000000000000000000000000000000000000000000000005f52603160045260245ffdfea2646970667358221220026466a53a1fa5cf698a3c70ba22cbd9924d55e2579f86afbc4f4b29ea947b9964736f6c634300081a0033",
					"opcodes": "PUSH1 0x80 PUSH1 0x40 MSTORE CALLVALUE DUP1 ISZERO PUSH1 0xE JUMPI PUSH0 DUP1 REVERT JUMPDEST POP PUSH2 0x22E2 DUP1 PUSH2 0x1C PUSH0 CODECOPY PUSH0 RETURN INVALID PUSH1 0x80 PUSH1 0x40 MSTORE PUSH1 0x4 CALLDATASIZE LT PUSH2 0x85 JUMPI PUSH0 CALLDATALOAD PUSH1 0xE0 SHR DUP1 PUSH4 0x759A8A98 GT PUSH2 0x58 JUMPI DUP1 PUSH4 0x759A8A98 EQ PUSH2 0x13F JUMPI DUP1 PUSH4 0x7618D0A7 EQ PUSH2 0x15B JUMPI DUP1 PUSH4 0xC6064610 EQ PUSH2 0x199 JUMPI DUP1 PUSH4 0xC80CC411 EQ PUSH2 0x1D8 JUMPI DUP1 PUSH4 0xCA7252EA EQ PUSH2 0x1EE JUMPI PUSH2 0x85 JUMP JUMPDEST DUP1 PUSH4 0x1ABA6DA6 EQ PUSH2 0x89 JUMPI DUP1 PUSH4 0x242E1D9B EQ PUSH2 0x9F JUMPI DUP1 PUSH4 0x3C9E9964 EQ PUSH2 0xC7 JUMPI DUP1 PUSH4 0x5B084DB9 EQ PUSH2 0x103 JUMPI JUMPDEST PUSH0 DUP1 REVERT JUMPDEST CALLVALUE DUP1 ISZERO PUSH2 0x94 JUMPI PUSH0 DUP1 REVERT JUMPDEST POP PUSH2 0x9D PUSH2 0x218 JUMP JUMPDEST STOP JUMPDEST CALLVALUE DUP1 ISZERO PUSH2 0xAA JUMPI PUSH0 DUP1 REVERT JUMPDEST POP PUSH2 0xC5 PUSH1 0x4 DUP1 CALLDATASIZE SUB DUP2 ADD SWAP1 PUSH2 0xC0 SWAP2 SWAP1 PUSH2 0x1625 JUMP JUMPDEST PUSH2 0x39A JUMP JUMPDEST STOP JUMPDEST CALLVALUE DUP1 ISZERO PUSH2 0xD2 JUMPI PUSH0 DUP1 REVERT JUMPDEST POP PUSH2 0xED PUSH1 0x4 DUP1 CALLDATASIZE SUB DUP2 ADD SWAP1 PUSH2 0xE8 SWAP2 SWAP1 PUSH2 0x16FD JUMP JUMPDEST PUSH2 0x6BD JUMP JUMPDEST PUSH1 0x40 MLOAD PUSH2 0xFA SWAP2 SWAP1 PUSH2 0x1742 JUMP JUMPDEST PUSH1 0x40 MLOAD DUP1 SWAP2 SUB SWAP1 RETURN JUMPDEST CALLVALUE DUP1 ISZERO PUSH2 0x10E JUMPI PUSH0 DUP1 REVERT JUMPDEST POP PUSH2 0x129 PUSH1 0x4 DUP1 CALLDATASIZE SUB DUP2 ADD SWAP1 PUSH2 0x124 SWAP2 SWAP1 PUSH2 0x178E JUMP JUMPDEST PUSH2 0x749 JUMP JUMPDEST PUSH1 0x40 MLOAD PUSH2 0x136 SWAP2 SWAP1 PUSH2 0x17DB JUMP JUMPDEST PUSH1 0x40 MLOAD DUP1 SWAP2 SUB SWAP1 RETURN JUMPDEST PUSH2 0x159 PUSH1 0x4 DUP1 CALLDATASIZE SUB DUP2 ADD SWAP1 PUSH2 0x154 SWAP2 SWAP1 PUSH2 0x1A32 JUMP JUMPDEST PUSH2 0x791 JUMP JUMPDEST STOP JUMPDEST CALLVALUE DUP1 ISZERO PUSH2 0x166 JUMPI PUSH0 DUP1 REVERT JUMPDEST POP PUSH2 0x181 PUSH1 0x4 DUP1 CALLDATASIZE SUB DUP2 ADD SWAP1 PUSH2 0x17C SWAP2 SWAP1 PUSH2 0x16FD JUMP JUMPDEST PUSH2 0xBA5 JUMP JUMPDEST PUSH1 0x40 MLOAD PUSH2 0x190 SWAP4 SWAP3 SWAP2 SWAP1 PUSH2 0x1AE1 JUMP JUMPDEST PUSH1 0x40 MLOAD DUP1 SWAP2 SUB SWAP1 RETURN JUMPDEST CALLVALUE DUP1 ISZERO PUSH2 0x1A4 JUMPI PUSH0 DUP1 REVERT JUMPDEST POP PUSH2 0x1BF PUSH1 0x4 DUP1 CALLDATASIZE SUB DUP2 ADD SWAP1 PUSH2 0x1BA SWAP2 SWAP1 PUSH2 0x16FD JUMP JUMPDEST PUSH2 0xBF3 JUMP JUMPDEST PUSH1 0x40 MLOAD PUSH2 0x1CF SWAP5 SWAP4 SWAP3 SWAP2 SWAP1 PUSH2 0x1C97 JUMP JUMPDEST PUSH1 0x40 MLOAD DUP1 SWAP2 SUB SWAP1 RETURN JUMPDEST CALLVALUE DUP1 ISZERO PUSH2 0x1E3 JUMPI PUSH0 DUP1 REVERT JUMPDEST POP PUSH2 0x1EC PUSH2 0xF85 JUMP JUMPDEST STOP JUMPDEST CALLVALUE DUP1 ISZERO PUSH2 0x1F9 JUMPI PUSH0 DUP1 REVERT JUMPDEST POP PUSH2 0x202 PUSH2 0x108D JUMP JUMPDEST PUSH1 0x40 MLOAD PUSH2 0x20F SWAP2 SWAP1 PUSH2 0x1CE8 JUMP JUMPDEST PUSH1 0x40 MLOAD DUP1 SWAP2 SUB SWAP1 RETURN JUMPDEST PUSH0 CALLER SWAP1 POP PUSH0 CALLER PUSH20 0xFFFFFFFFFFFFFFFFFFFFFFFFFFFFFFFFFFFFFFFF AND PUSH0 DUP1 DUP5 PUSH20 0xFFFFFFFFFFFFFFFFFFFFFFFFFFFFFFFFFFFFFFFF AND PUSH20 0xFFFFFFFFFFFFFFFFFFFFFFFFFFFFFFFFFFFFFFFF AND DUP2 MSTORE PUSH1 0x20 ADD SWAP1 DUP2 MSTORE PUSH1 0x20 ADD PUSH0 KECCAK256 PUSH1 0x2 ADD SLOAD PUSH1 0x40 MLOAD PUSH2 0x280 SWAP1 PUSH2 0x1D35 JUMP JUMPDEST PUSH0 PUSH1 0x40 MLOAD DUP1 DUP4 SUB DUP2 DUP6 DUP8 GAS CALL SWAP3 POP POP POP RETURNDATASIZE DUP1 PUSH0 DUP2 EQ PUSH2 0x2BA JUMPI PUSH1 0x40 MLOAD SWAP2 POP PUSH1 0x1F NOT PUSH1 0x3F RETURNDATASIZE ADD AND DUP3 ADD PUSH1 0x40 MSTORE RETURNDATASIZE DUP3 MSTORE RETURNDATASIZE PUSH0 PUSH1 0x20 DUP5 ADD RETURNDATACOPY PUSH2 0x2BF JUMP JUMPDEST PUSH1 0x60 SWAP2 POP JUMPDEST POP POP SWAP1 POP DUP1 PUSH2 0x303 JUMPI PUSH1 0x40 MLOAD PUSH32 0x8C379A000000000000000000000000000000000000000000000000000000000 DUP2 MSTORE PUSH1 0x4 ADD PUSH2 0x2FA SWAP1 PUSH2 0x1DC9 JUMP JUMPDEST PUSH1 0x40 MLOAD DUP1 SWAP2 SUB SWAP1 REVERT JUMPDEST PUSH2 0x30C DUP3 PUSH2 0x1158 JUMP JUMPDEST PUSH0 DUP1 DUP4 PUSH20 0xFFFFFFFFFFFFFFFFFFFFFFFFFFFFFFFFFFFFFFFF AND PUSH20 0xFFFFFFFFFFFFFFFFFFFFFFFFFFFFFFFFFFFFFFFF AND DUP2 MSTORE PUSH1 0x20 ADD SWAP1 DUP2 MSTORE PUSH1 0x20 ADD PUSH0 KECCAK256 PUSH0 DUP1 DUP3 ADD PUSH0 PUSH2 0x357 SWAP2 SWAP1 PUSH2 0x14EA JUMP JUMPDEST PUSH1 0x1 DUP3 ADD PUSH0 PUSH2 0x100 EXP DUP2 SLOAD SWAP1 PUSH1 0xFF MUL NOT AND SWAP1 SSTORE PUSH1 0x1 DUP3 ADD PUSH1 0x1 PUSH2 0x100 EXP DUP2 SLOAD SWAP1 PUSH16 0xFFFFFFFFFFFFFFFFFFFFFFFFFFFFFFFF MUL NOT AND SWAP1 SSTORE PUSH1 0x2 DUP3 ADD PUSH0 SWAP1 SSTORE POP POP POP POP JUMP JUMPDEST PUSH0 CALLER SWAP1 POP PUSH0 DUP6 DUP6 SWAP1 POP SUB PUSH2 0x3E3 JUMPI PUSH1 0x40 MLOAD PUSH32 0x8C379A000000000000000000000000000000000000000000000000000000000 DUP2 MSTORE PUSH1 0x4 ADD PUSH2 0x3DA SWAP1 PUSH2 0x1E57 JUMP JUMPDEST PUSH1 0x40 MLOAD DUP1 SWAP2 SUB SWAP1 REVERT JUMPDEST DUP3 DUP3 SWAP1 POP DUP6 DUP6 SWAP1 POP EQ PUSH2 0x42B JUMPI PUSH1 0x40 MLOAD PUSH32 0x8C379A000000000000000000000000000000000000000000000000000000000 DUP2 MSTORE PUSH1 0x4 ADD PUSH2 0x422 SWAP1 PUSH2 0x1F0B JUMP JUMPDEST PUSH1 0x40 MLOAD DUP1 SWAP2 SUB SWAP1 REVERT JUMPDEST PUSH2 0x434 DUP2 PUSH2 0x1158 JUMP JUMPDEST PUSH0 DUP1 DUP3 PUSH20 0xFFFFFFFFFFFFFFFFFFFFFFFFFFFFFFFFFFFFFFFF AND PUSH20 0xFFFFFFFFFFFFFFFFFFFFFFFFFFFFFFFFFFFFFFFF AND DUP2 MSTORE PUSH1 0x20 ADD SWAP1 DUP2 MSTORE PUSH1 0x20 ADD PUSH0 KECCAK256 PUSH0 ADD PUSH0 PUSH2 0x47D SWAP2 SWAP1 PUSH2 0x14EA JUMP JUMPDEST PUSH0 JUMPDEST DUP6 DUP6 SWAP1 POP DUP2 LT ISZERO PUSH2 0x6B5 JUMPI PUSH0 PUSH1 0x40 MLOAD DUP1 PUSH1 0x40 ADD PUSH1 0x40 MSTORE DUP1 DUP9 DUP9 DUP6 DUP2 DUP2 LT PUSH2 0x4A9 JUMPI PUSH2 0x4A8 PUSH2 0x1F29 JUMP JUMPDEST JUMPDEST SWAP1 POP PUSH1 0x20 MUL ADD PUSH1 0x20 DUP2 ADD SWAP1 PUSH2 0x4BE SWAP2 SWAP1 PUSH2 0x16FD JUMP JUMPDEST PUSH20 0xFFFFFFFFFFFFFFFFFFFFFFFFFFFFFFFFFFFFFFFF AND DUP2 MSTORE PUSH1 0x20 ADD DUP7 DUP7 DUP6 DUP2 DUP2 LT PUSH2 0x4EC JUMPI PUSH2 0x4EB PUSH2 0x1F29 JUMP JUMPDEST JUMPDEST SWAP1 POP PUSH1 0x20 MUL ADD PUSH1 0x20 DUP2 ADD SWAP1 PUSH2 0x501 SWAP2 SWAP1 PUSH2 0x1F80 JUMP JUMPDEST PUSH8 0xFFFFFFFFFFFFFFFF AND DUP2 MSTORE POP SWAP1 POP PUSH0 DUP1 DUP5 PUSH20 0xFFFFFFFFFFFFFFFFFFFFFFFFFFFFFFFFFFFFFFFF AND PUSH20 0xFFFFFFFFFFFFFFFFFFFFFFFFFFFFFFFFFFFFFFFF AND DUP2 MSTORE PUSH1 0x20 ADD SWAP1 DUP2 MSTORE PUSH1 0x20 ADD PUSH0 KECCAK256 PUSH0 ADD DUP2 SWAP1 DUP1 PUSH1 0x1 DUP2 SLOAD ADD DUP1 DUP3 SSTORE DUP1 SWAP2 POP POP PUSH1 0x1 SWAP1 SUB SWAP1 PUSH0 MSTORE PUSH1 0x20 PUSH0 KECCAK256 ADD PUSH0 SWAP1 SWAP2 SWAP1 SWAP2 SWAP1 SWAP2 POP PUSH0 DUP3 ADD MLOAD DUP2 PUSH0 ADD PUSH0 PUSH2 0x100 EXP DUP2 SLOAD DUP2 PUSH20 0xFFFFFFFFFFFFFFFFFFFFFFFFFFFFFFFFFFFFFFFF MUL NOT AND SWAP1 DUP4 PUSH20 0xFFFFFFFFFFFFFFFFFFFFFFFFFFFFFFFFFFFFFFFF AND MUL OR SWAP1 SSTORE POP PUSH1 0x20 DUP3 ADD MLOAD DUP2 PUSH0 ADD PUSH1 0x14 PUSH2 0x100 EXP DUP2 SLOAD DUP2 PUSH8 0xFFFFFFFFFFFFFFFF MUL NOT AND SWAP1 DUP4 PUSH8 0xFFFFFFFFFFFFFFFF AND MUL OR SWAP1 SSTORE POP POP POP PUSH1 0x1 PUSH0 DUP9 DUP9 DUP6 DUP2 DUP2 LT PUSH2 0x5FB JUMPI PUSH2 0x5FA PUSH2 0x1F29 JUMP JUMPDEST JUMPDEST SWAP1 POP PUSH1 0x20 MUL ADD PUSH1 0x20 DUP2 ADD SWAP1 PUSH2 0x610 SWAP2 SWAP1 PUSH2 0x16FD JUMP JUMPDEST PUSH20 0xFFFFFFFFFFFFFFFFFFFFFFFFFFFFFFFFFFFFFFFF AND PUSH20 0xFFFFFFFFFFFFFFFFFFFFFFFFFFFFFFFFFFFFFFFF AND DUP2 MSTORE PUSH1 0x20 ADD SWAP1 DUP2 MSTORE PUSH1 0x20 ADD PUSH0 KECCAK256 DUP4 SWAP1 DUP1 PUSH1 0x1 DUP2 SLOAD ADD DUP1 DUP3 SSTORE DUP1 SWAP2 POP POP PUSH1 0x1 SWAP1 SUB SWAP1 PUSH0 MSTORE PUSH1 0x20 PUSH0 KECCAK256 ADD PUSH0 SWAP1 SWAP2 SWAP1 SWAP2 SWAP1 SWAP2 PUSH2 0x100 EXP DUP2 SLOAD DUP2 PUSH20 0xFFFFFFFFFFFFFFFFFFFFFFFFFFFFFFFFFFFFFFFF MUL NOT AND SWAP1 DUP4 PUSH20 0xFFFFFFFFFFFFFFFFFFFFFFFFFFFFFFFFFFFFFFFF AND MUL OR SWAP1 SSTORE POP POP DUP1 DUP1 PUSH1 0x1 ADD SWAP2 POP POP PUSH2 0x47F JUMP JUMPDEST POP POP POP POP POP POP JUMP JUMPDEST PUSH0 DUP1 PUSH3 0x278D00 SWAP1 POP DUP1 PUSH0 DUP1 DUP6 PUSH20 0xFFFFFFFFFFFFFFFFFFFFFFFFFFFFFFFFFFFFFFFF AND PUSH20 0xFFFFFFFFFFFFFFFFFFFFFFFFFFFFFFFFFFFFFFFF AND DUP2 MSTORE PUSH1 0x20 ADD SWAP1 DUP2 MSTORE PUSH1 0x20 ADD PUSH0 KECCAK256 PUSH1 0x1 ADD PUSH1 0x1 SWAP1 SLOAD SWAP1 PUSH2 0x100 EXP SWAP1 DIV PUSH16 0xFFFFFFFFFFFFFFFFFFFFFFFFFFFFFFFF AND PUSH16 0xFFFFFFFFFFFFFFFFFFFFFFFFFFFFFFFF AND PUSH2 0x73E SWAP2 SWAP1 PUSH2 0x1FD8 JUMP JUMPDEST TIMESTAMP LT ISZERO SWAP2 POP POP SWAP2 SWAP1 POP JUMP JUMPDEST PUSH1 0x1 PUSH1 0x20 MSTORE DUP2 PUSH0 MSTORE PUSH1 0x40 PUSH0 KECCAK256 DUP2 DUP2 SLOAD DUP2 LT PUSH2 0x762 JUMPI PUSH0 DUP1 REVERT JUMPDEST SWAP1 PUSH0 MSTORE PUSH1 0x20 PUSH0 KECCAK256 ADD PUSH0 SWAP2 POP SWAP2 POP SWAP1 SLOAD SWAP1 PUSH2 0x100 EXP SWAP1 DIV PUSH20 0xFFFFFFFFFFFFFFFFFFFFFFFFFFFFFFFFFFFFFFFF AND DUP2 JUMP JUMPDEST PUSH0 CALLVALUE SUB PUSH2 0x7D3 JUMPI PUSH1 0x40 MLOAD PUSH32 0x8C379A000000000000000000000000000000000000000000000000000000000 DUP2 MSTORE PUSH1 0x4 ADD PUSH2 0x7CA SWAP1 PUSH2 0x207B JUMP JUMPDEST PUSH1 0x40 MLOAD DUP1 SWAP2 SUB SWAP1 REVERT JUMPDEST PUSH0 DUP3 MLOAD SUB PUSH2 0x816 JUMPI PUSH1 0x40 MLOAD PUSH32 0x8C379A000000000000000000000000000000000000000000000000000000000 DUP2 MSTORE PUSH1 0x4 ADD PUSH2 0x80D SWAP1 PUSH2 0x1E57 JUMP JUMPDEST PUSH1 0x40 MLOAD DUP1 SWAP2 SUB SWAP1 REVERT JUMPDEST DUP1 MLOAD DUP3 MLOAD EQ PUSH2 0x85A JUMPI PUSH1 0x40 MLOAD PUSH32 0x8C379A000000000000000000000000000000000000000000000000000000000 DUP2 MSTORE PUSH1 0x4 ADD PUSH2 0x851 SWAP1 PUSH2 0x1F0B JUMP JUMPDEST PUSH1 0x40 MLOAD DUP1 SWAP2 SUB SWAP1 REVERT JUMPDEST PUSH0 CALLER SWAP1 POP PUSH0 DUP1 DUP3 PUSH20 0xFFFFFFFFFFFFFFFFFFFFFFFFFFFFFFFFFFFFFFFF AND PUSH20 0xFFFFFFFFFFFFFFFFFFFFFFFFFFFFFFFFFFFFFFFF AND DUP2 MSTORE PUSH1 0x20 ADD SWAP1 DUP2 MSTORE PUSH1 0x20 ADD PUSH0 KECCAK256 PUSH1 0x1 ADD PUSH0 SWAP1 SLOAD SWAP1 PUSH2 0x100 EXP SWAP1 DIV PUSH1 0xFF AND ISZERO PUSH2 0x8EA JUMPI PUSH1 0x40 MLOAD PUSH32 0x8C379A000000000000000000000000000000000000000000000000000000000 DUP2 MSTORE PUSH1 0x4 ADD PUSH2 0x8E1 SWAP1 PUSH2 0x2109 JUMP JUMPDEST PUSH1 0x40 MLOAD DUP1 SWAP2 SUB SWAP1 REVERT JUMPDEST PUSH0 JUMPDEST DUP4 MLOAD DUP2 LT ISZERO PUSH2 0xAFC JUMPI PUSH0 PUSH1 0x40 MLOAD DUP1 PUSH1 0x40 ADD PUSH1 0x40 MSTORE DUP1 DUP7 DUP5 DUP2 MLOAD DUP2 LT PUSH2 0x914 JUMPI PUSH2 0x913 PUSH2 0x1F29 JUMP JUMPDEST JUMPDEST PUSH1 0x20 MUL PUSH1 0x20 ADD ADD MLOAD PUSH20 0xFFFFFFFFFFFFFFFFFFFFFFFFFFFFFFFFFFFFFFFF AND DUP2 MSTORE PUSH1 0x20 ADD DUP6 DUP5 DUP2 MLOAD DUP2 LT PUSH2 0x94A JUMPI PUSH2 0x949 PUSH2 0x1F29 JUMP JUMPDEST JUMPDEST PUSH1 0x20 MUL PUSH1 0x20 ADD ADD MLOAD PUSH1 0xFF AND PUSH8 0xFFFFFFFFFFFFFFFF AND DUP2 MSTORE POP SWAP1 POP PUSH1 0x1 PUSH0 DUP7 DUP5 DUP2 MLOAD DUP2 LT PUSH2 0x97A JUMPI PUSH2 0x979 PUSH2 0x1F29 JUMP JUMPDEST JUMPDEST PUSH1 0x20 MUL PUSH1 0x20 ADD ADD MLOAD PUSH20 0xFFFFFFFFFFFFFFFFFFFFFFFFFFFFFFFFFFFFFFFF AND PUSH20 0xFFFFFFFFFFFFFFFFFFFFFFFFFFFFFFFFFFFFFFFF AND DUP2 MSTORE PUSH1 0x20 ADD SWAP1 DUP2 MSTORE PUSH1 0x20 ADD PUSH0 KECCAK256 DUP4 SWAP1 DUP1 PUSH1 0x1 DUP2 SLOAD ADD DUP1 DUP3 SSTORE DUP1 SWAP2 POP POP PUSH1 0x1 SWAP1 SUB SWAP1 PUSH0 MSTORE PUSH1 0x20 PUSH0 KECCAK256 ADD PUSH0 SWAP1 SWAP2 SWAP1 SWAP2 SWAP1 SWAP2 PUSH2 0x100 EXP DUP2 SLOAD DUP2 PUSH20 0xFFFFFFFFFFFFFFFFFFFFFFFFFFFFFFFFFFFFFFFF MUL NOT AND SWAP1 DUP4 PUSH20 0xFFFFFFFFFFFFFFFFFFFFFFFFFFFFFFFFFFFFFFFF AND MUL OR SWAP1 SSTORE POP PUSH0 DUP1 DUP5 PUSH20 0xFFFFFFFFFFFFFFFFFFFFFFFFFFFFFFFFFFFFFFFF AND PUSH20 0xFFFFFFFFFFFFFFFFFFFFFFFFFFFFFFFFFFFFFFFF AND DUP2 MSTORE PUSH1 0x20 ADD SWAP1 DUP2 MSTORE PUSH1 0x20 ADD PUSH0 KECCAK256 PUSH0 ADD DUP2 SWAP1 DUP1 PUSH1 0x1 DUP2 SLOAD ADD DUP1 DUP3 SSTORE DUP1 SWAP2 POP POP PUSH1 0x1 SWAP1 SUB SWAP1 PUSH0 MSTORE PUSH1 0x20 PUSH0 KECCAK256 ADD PUSH0 SWAP1 SWAP2 SWAP1 SWAP2 SWAP1 SWAP2 POP PUSH0 DUP3 ADD MLOAD DUP2 PUSH0 ADD PUSH0 PUSH2 0x100 EXP DUP2 SLOAD DUP2 PUSH20 0xFFFFFFFFFFFFFFFFFFFFFFFFFFFFFFFFFFFFFFFF MUL NOT AND SWAP1 DUP4 PUSH20 0xFFFFFFFFFFFFFFFFFFFFFFFFFFFFFFFFFFFFFFFF AND MUL OR SWAP1 SSTORE POP PUSH1 0x20 DUP3 ADD MLOAD DUP2 PUSH0 ADD PUSH1 0x14 PUSH2 0x100 EXP DUP2 SLOAD DUP2 PUSH8 0xFFFFFFFFFFFFFFFF MUL NOT AND SWAP1 DUP4 PUSH8 0xFFFFFFFFFFFFFFFF AND MUL OR SWAP1 SSTORE POP POP POP POP DUP1 DUP1 PUSH1 0x1 ADD SWAP2 POP POP PUSH2 0x8EC JUMP JUMPDEST POP PUSH1 0x1 PUSH0 DUP1 DUP4 PUSH20 0xFFFFFFFFFFFFFFFFFFFFFFFFFFFFFFFFFFFFFFFF AND PUSH20 0xFFFFFFFFFFFFFFFFFFFFFFFFFFFFFFFFFFFFFFFF AND DUP2 MSTORE PUSH1 0x20 ADD SWAP1 DUP2 MSTORE PUSH1 0x20 ADD PUSH0 KECCAK256 PUSH1 0x1 ADD PUSH0 PUSH2 0x100 EXP DUP2 SLOAD DUP2 PUSH1 0xFF MUL NOT AND SWAP1 DUP4 ISZERO ISZERO MUL OR SWAP1 SSTORE POP CALLVALUE PUSH0 DUP1 DUP4 PUSH20 0xFFFFFFFFFFFFFFFFFFFFFFFFFFFFFFFFFFFFFFFF AND PUSH20 0xFFFFFFFFFFFFFFFFFFFFFFFFFFFFFFFFFFFFFFFF AND DUP2 MSTORE PUSH1 0x20 ADD SWAP1 DUP2 MSTORE PUSH1 0x20 ADD PUSH0 KECCAK256 PUSH1 0x2 ADD DUP2 SWAP1 SSTORE POP PUSH2 0xBA0 PUSH2 0xF85 JUMP JUMPDEST POP POP POP JUMP JUMPDEST PUSH0 PUSH1 0x20 MSTORE DUP1 PUSH0 MSTORE PUSH1 0x40 PUSH0 KECCAK256 PUSH0 SWAP2 POP SWAP1 POP DUP1 PUSH1 0x1 ADD PUSH0 SWAP1 SLOAD SWAP1 PUSH2 0x100 EXP SWAP1 DIV PUSH1 0xFF AND SWAP1 DUP1 PUSH1 0x1 ADD PUSH1 0x1 SWAP1 SLOAD SWAP1 PUSH2 0x100 EXP SWAP1 DIV PUSH16 0xFFFFFFFFFFFFFFFFFFFFFFFFFFFFFFFF AND SWAP1 DUP1 PUSH1 0x2 ADD SLOAD SWAP1 POP DUP4 JUMP JUMPDEST PUSH1 0x60 DUP1 PUSH0 DUP1 PUSH0 DUP1 PUSH0 DUP8 PUSH20 0xFFFFFFFFFFFFFFFFFFFFFFFFFFFFFFFFFFFFFFFF AND PUSH20 0xFFFFFFFFFFFFFFFFFFFFFFFFFFFFFFFFFFFFFFFF AND DUP2 MSTORE PUSH1 0x20 ADD SWAP1 DUP2 MSTORE PUSH1 0x20 ADD PUSH0 KECCAK256 PUSH1 0x40 MLOAD DUP1 PUSH1 0x80 ADD PUSH1 0x40 MSTORE SWAP1 DUP2 PUSH0 DUP3 ADD DUP1 SLOAD DUP1 PUSH1 0x20 MUL PUSH1 0x20 ADD PUSH1 0x40 MLOAD SWAP1 DUP2 ADD PUSH1 0x40 MSTORE DUP1 SWAP3 SWAP2 SWAP1 DUP2 DUP2 MSTORE PUSH1 0x20 ADD PUSH0 SWAP1 JUMPDEST DUP3 DUP3 LT ISZERO PUSH2 0xD14 JUMPI DUP4 DUP3 SWAP1 PUSH0 MSTORE PUSH1 0x20 PUSH0 KECCAK256 ADD PUSH1 0x40 MLOAD DUP1 PUSH1 0x40 ADD PUSH1 0x40 MSTORE SWAP1 DUP2 PUSH0 DUP3 ADD PUSH0 SWAP1 SLOAD SWAP1 PUSH2 0x100 EXP SWAP1 DIV PUSH20 0xFFFFFFFFFFFFFFFFFFFFFFFFFFFFFFFFFFFFFFFF AND PUSH20 0xFFFFFFFFFFFFFFFFFFFFFFFFFFFFFFFFFFFFFFFF AND PUSH20 0xFFFFFFFFFFFFFFFFFFFFFFFFFFFFFFFFFFFFFFFF AND DUP2 MSTORE PUSH1 0x20 ADD PUSH0 DUP3 ADD PUSH1 0x14 SWAP1 SLOAD SWAP1 PUSH2 0x100 EXP SWAP1 DIV PUSH8 0xFFFFFFFFFFFFFFFF AND PUSH8 0xFFFFFFFFFFFFFFFF AND PUSH8 0xFFFFFFFFFFFFFFFF AND DUP2 MSTORE POP POP DUP2 MSTORE PUSH1 0x20 ADD SWAP1 PUSH1 0x1 ADD SWAP1 PUSH2 0xC63 JUMP JUMPDEST POP POP POP POP DUP2 MSTORE PUSH1 0x20 ADD PUSH1 0x1 DUP3 ADD PUSH0 SWAP1 SLOAD SWAP1 PUSH2 0x100 EXP SWAP1 DIV PUSH1 0xFF AND ISZERO ISZERO ISZERO ISZERO DUP2 MSTORE PUSH1 0x20 ADD PUSH1 0x1 DUP3 ADD PUSH1 0x1 SWAP1 SLOAD SWAP1 PUSH2 0x100 EXP SWAP1 DIV PUSH16 0xFFFFFFFFFFFFFFFFFFFFFFFFFFFFFFFF AND PUSH16 0xFFFFFFFFFFFFFFFFFFFFFFFFFFFFFFFF AND PUSH16 0xFFFFFFFFFFFFFFFFFFFFFFFFFFFFFFFF AND DUP2 MSTORE PUSH1 0x20 ADD PUSH1 0x2 DUP3 ADD SLOAD DUP2 MSTORE POP POP SWAP1 POP DUP1 PUSH1 0x20 ADD MLOAD PUSH2 0xDD0 JUMPI PUSH1 0x40 MLOAD PUSH32 0x8C379A000000000000000000000000000000000000000000000000000000000 DUP2 MSTORE PUSH1 0x4 ADD PUSH2 0xDC7 SWAP1 PUSH2 0x2171 JUMP JUMPDEST PUSH1 0x40 MLOAD DUP1 SWAP2 SUB SWAP1 REVERT JUMPDEST PUSH0 DUP2 PUSH0 ADD MLOAD MLOAD PUSH8 0xFFFFFFFFFFFFFFFF DUP2 GT ISZERO PUSH2 0xDEF JUMPI PUSH2 0xDEE PUSH2 0x1804 JUMP JUMPDEST JUMPDEST PUSH1 0x40 MLOAD SWAP1 DUP1 DUP3 MSTORE DUP1 PUSH1 0x20 MUL PUSH1 0x20 ADD DUP3 ADD PUSH1 0x40 MSTORE DUP1 ISZERO PUSH2 0xE1D JUMPI DUP2 PUSH1 0x20 ADD PUSH1 0x20 DUP3 MUL DUP1 CALLDATASIZE DUP4 CALLDATACOPY DUP1 DUP3 ADD SWAP2 POP POP SWAP1 POP JUMPDEST POP SWAP1 POP PUSH0 DUP3 PUSH0 ADD MLOAD MLOAD PUSH8 0xFFFFFFFFFFFFFFFF DUP2 GT ISZERO PUSH2 0xE3F JUMPI PUSH2 0xE3E PUSH2 0x1804 JUMP JUMPDEST JUMPDEST PUSH1 0x40 MLOAD SWAP1 DUP1 DUP3 MSTORE DUP1 PUSH1 0x20 MUL PUSH1 0x20 ADD DUP3 ADD PUSH1 0x40 MSTORE DUP1 ISZERO PUSH2 0xE6D JUMPI DUP2 PUSH1 0x20 ADD PUSH1 0x20 DUP3 MUL DUP1 CALLDATASIZE DUP4 CALLDATACOPY DUP1 DUP3 ADD SWAP2 POP POP SWAP1 POP JUMPDEST POP SWAP1 POP PUSH0 JUMPDEST DUP4 PUSH0 ADD MLOAD MLOAD DUP2 PUSH8 0xFFFFFFFFFFFFFFFF AND LT ISZERO PUSH2 0xF66 JUMPI PUSH0 DUP5 PUSH0 ADD MLOAD DUP3 PUSH8 0xFFFFFFFFFFFFFFFF AND DUP2 MLOAD DUP2 LT PUSH2 0xEA9 JUMPI PUSH2 0xEA8 PUSH2 0x1F29 JUMP JUMPDEST JUMPDEST PUSH1 0x20 MUL PUSH1 0x20 ADD ADD MLOAD SWAP1 POP DUP1 PUSH0 ADD MLOAD DUP5 DUP4 PUSH8 0xFFFFFFFFFFFFFFFF AND DUP2 MLOAD DUP2 LT PUSH2 0xED4 JUMPI PUSH2 0xED3 PUSH2 0x1F29 JUMP JUMPDEST JUMPDEST PUSH1 0x20 MUL PUSH1 0x20 ADD ADD SWAP1 PUSH20 0xFFFFFFFFFFFFFFFFFFFFFFFFFFFFFFFFFFFFFFFF AND SWAP1 DUP2 PUSH20 0xFFFFFFFFFFFFFFFFFFFFFFFFFFFFFFFFFFFFFFFF AND DUP2 MSTORE POP POP DUP1 PUSH1 0x20 ADD MLOAD DUP4 DUP4 PUSH8 0xFFFFFFFFFFFFFFFF AND DUP2 MLOAD DUP2 LT PUSH2 0xF30 JUMPI PUSH2 0xF2F PUSH2 0x1F29 JUMP JUMPDEST JUMPDEST PUSH1 0x20 MUL PUSH1 0x20 ADD ADD SWAP1 PUSH8 0xFFFFFFFFFFFFFFFF AND SWAP1 DUP2 PUSH8 0xFFFFFFFFFFFFFFFF AND DUP2 MSTORE POP POP POP DUP1 DUP1 PUSH2 0xF5E SWAP1 PUSH2 0x218F JUMP JUMPDEST SWAP2 POP POP PUSH2 0xE72 JUMP JUMPDEST POP DUP2 DUP2 DUP5 PUSH1 0x40 ADD MLOAD DUP6 PUSH1 0x60 ADD MLOAD SWAP7 POP SWAP7 POP SWAP7 POP SWAP7 POP POP POP POP SWAP2 SWAP4 POP SWAP2 SWAP4 JUMP JUMPDEST PUSH0 CALLER SWAP1 POP PUSH0 DUP1 DUP3 PUSH20 0xFFFFFFFFFFFFFFFFFFFFFFFFFFFFFFFFFFFFFFFF AND PUSH20 0xFFFFFFFFFFFFFFFFFFFFFFFFFFFFFFFFFFFFFFFF AND DUP2 MSTORE PUSH1 0x20 ADD SWAP1 DUP2 MSTORE PUSH1 0x20 ADD PUSH0 KECCAK256 PUSH1 0x1 ADD PUSH0 SWAP1 SLOAD SWAP1 PUSH2 0x100 EXP SWAP1 DIV PUSH1 0xFF AND PUSH2 0x1014 JUMPI PUSH1 0x40 MLOAD PUSH32 0x8C379A000000000000000000000000000000000000000000000000000000000 DUP2 MSTORE PUSH1 0x4 ADD PUSH2 0x100B SWAP1 PUSH2 0x222E JUMP JUMPDEST PUSH1 0x40 MLOAD DUP1 SWAP2 SUB SWAP1 REVERT JUMPDEST TIMESTAMP PUSH0 DUP1 DUP4 PUSH20 0xFFFFFFFFFFFFFFFFFFFFFFFFFFFFFFFFFFFFFFFF AND PUSH20 0xFFFFFFFFFFFFFFFFFFFFFFFFFFFFFFFFFFFFFFFF AND DUP2 MSTORE PUSH1 0x20 ADD SWAP1 DUP2 MSTORE PUSH1 0x20 ADD PUSH0 KECCAK256 PUSH1 0x1 ADD PUSH1 0x1 PUSH2 0x100 EXP DUP2 SLOAD DUP2 PUSH16 0xFFFFFFFFFFFFFFFFFFFFFFFFFFFFFFFF MUL NOT AND SWAP1 DUP4 PUSH16 0xFFFFFFFFFFFFFFFFFFFFFFFFFFFFFFFF AND MUL OR SWAP1 SSTORE POP POP JUMP JUMPDEST PUSH1 0x60 PUSH0 CALLER SWAP1 POP PUSH1 0x1 PUSH0 DUP3 PUSH20 0xFFFFFFFFFFFFFFFFFFFFFFFFFFFFFFFFFFFFFFFF AND PUSH20 0xFFFFFFFFFFFFFFFFFFFFFFFFFFFFFFFFFFFFFFFF AND DUP2 MSTORE PUSH1 0x20 ADD SWAP1 DUP2 MSTORE PUSH1 0x20 ADD PUSH0 KECCAK256 DUP1 SLOAD DUP1 PUSH1 0x20 MUL PUSH1 0x20 ADD PUSH1 0x40 MLOAD SWAP1 DUP2 ADD PUSH1 0x40 MSTORE DUP1 SWAP3 SWAP2 SWAP1 DUP2 DUP2 MSTORE PUSH1 0x20 ADD DUP3 DUP1 SLOAD DUP1 ISZERO PUSH2 0x114D JUMPI PUSH1 0x20 MUL DUP3 ADD SWAP2 SWAP1 PUSH0 MSTORE PUSH1 0x20 PUSH0 KECCAK256 SWAP1 JUMPDEST DUP2 PUSH0 SWAP1 SLOAD SWAP1 PUSH2 0x100 EXP SWAP1 DIV PUSH20 0xFFFFFFFFFFFFFFFFFFFFFFFFFFFFFFFFFFFFFFFF AND PUSH20 0xFFFFFFFFFFFFFFFFFFFFFFFFFFFFFFFFFFFFFFFF AND DUP2 MSTORE PUSH1 0x20 ADD SWAP1 PUSH1 0x1 ADD SWAP1 DUP1 DUP4 GT PUSH2 0x1104 JUMPI JUMPDEST POP POP POP POP POP SWAP2 POP POP SWAP1 JUMP JUMPDEST PUSH0 DUP1 PUSH0 DUP4 PUSH20 0xFFFFFFFFFFFFFFFFFFFFFFFFFFFFFFFFFFFFFFFF AND PUSH20 0xFFFFFFFFFFFFFFFFFFFFFFFFFFFFFFFFFFFFFFFF AND DUP2 MSTORE PUSH1 0x20 ADD SWAP1 DUP2 MSTORE PUSH1 0x20 ADD PUSH0 KECCAK256 PUSH0 ADD DUP1 SLOAD DUP1 PUSH1 0x20 MUL PUSH1 0x20 ADD PUSH1 0x40 MLOAD SWAP1 DUP2 ADD PUSH1 0x40 MSTORE DUP1 SWAP3 SWAP2 SWAP1 DUP2 DUP2 MSTORE PUSH1 0x20 ADD PUSH0 SWAP1 JUMPDEST DUP3 DUP3 LT ISZERO PUSH2 0x1267 JUMPI DUP4 DUP3 SWAP1 PUSH0 MSTORE PUSH1 0x20 PUSH0 KECCAK256 ADD PUSH1 0x40 MLOAD DUP1 PUSH1 0x40 ADD PUSH1 0x40 MSTORE SWAP1 DUP2 PUSH0 DUP3 ADD PUSH0 SWAP1 SLOAD SWAP1 PUSH2 0x100 EXP SWAP1 DIV PUSH20 0xFFFFFFFFFFFFFFFFFFFFFFFFFFFFFFFFFFFFFFFF AND PUSH20 0xFFFFFFFFFFFFFFFFFFFFFFFFFFFFFFFFFFFFFFFF AND PUSH20 0xFFFFFFFFFFFFFFFFFFFFFFFFFFFFFFFFFFFFFFFF AND DUP2 MSTORE PUSH1 0x20 ADD PUSH0 DUP3 ADD PUSH1 0x14 SWAP1 SLOAD SWAP1 PUSH2 0x100 EXP SWAP1 DIV PUSH8 0xFFFFFFFFFFFFFFFF AND PUSH8 0xFFFFFFFFFFFFFFFF AND PUSH8 0xFFFFFFFFFFFFFFFF AND DUP2 MSTORE POP POP DUP2 MSTORE PUSH1 0x20 ADD SWAP1 PUSH1 0x1 ADD SWAP1 PUSH2 0x11B6 JUMP JUMPDEST POP POP POP POP SWAP1 POP PUSH0 JUMPDEST DUP2 MLOAD DUP2 LT ISZERO PUSH2 0x14E5 JUMPI PUSH0 PUSH1 0x1 PUSH0 DUP5 DUP5 DUP2 MLOAD DUP2 LT PUSH2 0x128F JUMPI PUSH2 0x128E PUSH2 0x1F29 JUMP JUMPDEST JUMPDEST PUSH1 0x20 MUL PUSH1 0x20 ADD ADD MLOAD PUSH0 ADD MLOAD PUSH20 0xFFFFFFFFFFFFFFFFFFFFFFFFFFFFFFFFFFFFFFFF AND PUSH20 0xFFFFFFFFFFFFFFFFFFFFFFFFFFFFFFFFFFFFFFFF AND DUP2 MSTORE PUSH1 0x20 ADD SWAP1 DUP2 MSTORE PUSH1 0x20 ADD PUSH0 KECCAK256 DUP1 SLOAD DUP1 PUSH1 0x20 MUL PUSH1 0x20 ADD PUSH1 0x40 MLOAD SWAP1 DUP2 ADD PUSH1 0x40 MSTORE DUP1 SWAP3 SWAP2 SWAP1 DUP2 DUP2 MSTORE PUSH1 0x20 ADD DUP3 DUP1 SLOAD DUP1 ISZERO PUSH2 0x1350 JUMPI PUSH1 0x20 MUL DUP3 ADD SWAP2 SWAP1 PUSH0 MSTORE PUSH1 0x20 PUSH0 KECCAK256 SWAP1 JUMPDEST DUP2 PUSH0 SWAP1 SLOAD SWAP1 PUSH2 0x100 EXP SWAP1 DIV PUSH20 0xFFFFFFFFFFFFFFFFFFFFFFFFFFFFFFFFFFFFFFFF AND PUSH20 0xFFFFFFFFFFFFFFFFFFFFFFFFFFFFFFFFFFFFFFFF AND DUP2 MSTORE PUSH1 0x20 ADD SWAP1 PUSH1 0x1 ADD SWAP1 DUP1 DUP4 GT PUSH2 0x1307 JUMPI JUMPDEST POP POP POP POP POP SWAP1 POP PUSH0 DUP2 MLOAD SWAP1 POP PUSH0 JUMPDEST DUP2 DUP2 LT ISZERO PUSH2 0x14D5 JUMPI DUP6 PUSH20 0xFFFFFFFFFFFFFFFFFFFFFFFFFFFFFFFFFFFFFFFF AND DUP4 DUP3 DUP2 MLOAD DUP2 LT PUSH2 0x1390 JUMPI PUSH2 0x138F PUSH2 0x1F29 JUMP JUMPDEST JUMPDEST PUSH1 0x20 MUL PUSH1 0x20 ADD ADD MLOAD PUSH20 0xFFFFFFFFFFFFFFFFFFFFFFFFFFFFFFFFFFFFFFFF AND SUB PUSH2 0x14C8 JUMPI DUP3 PUSH1 0x1 DUP4 PUSH2 0x13C1 SWAP2 SWAP1 PUSH2 0x224C JUMP JUMPDEST DUP2 MLOAD DUP2 LT PUSH2 0x13D2 JUMPI PUSH2 0x13D1 PUSH2 0x1F29 JUMP JUMPDEST JUMPDEST PUSH1 0x20 MUL PUSH1 0x20 ADD ADD MLOAD DUP4 DUP3 DUP2 MLOAD DUP2 LT PUSH2 0x13ED JUMPI PUSH2 0x13EC PUSH2 0x1F29 JUMP JUMPDEST JUMPDEST PUSH1 0x20 MUL PUSH1 0x20 ADD ADD SWAP1 PUSH20 0xFFFFFFFFFFFFFFFFFFFFFFFFFFFFFFFFFFFFFFFF AND SWAP1 DUP2 PUSH20 0xFFFFFFFFFFFFFFFFFFFFFFFFFFFFFFFFFFFFFFFF AND DUP2 MSTORE POP POP PUSH1 0x1 PUSH0 DUP7 DUP7 DUP2 MLOAD DUP2 LT PUSH2 0x143D JUMPI PUSH2 0x143C PUSH2 0x1F29 JUMP JUMPDEST JUMPDEST PUSH1 0x20 MUL PUSH1 0x20 ADD ADD MLOAD PUSH0 ADD MLOAD PUSH20 0xFFFFFFFFFFFFFFFFFFFFFFFFFFFFFFFFFFFFFFFF AND PUSH20 0xFFFFFFFFFFFFFFFFFFFFFFFFFFFFFFFFFFFFFFFF AND DUP2 MSTORE PUSH1 0x20 ADD SWAP1 DUP2 MSTORE PUSH1 0x20 ADD PUSH0 KECCAK256 DUP1 SLOAD DUP1 PUSH2 0x1491 JUMPI PUSH2 0x1490 PUSH2 0x227F JUMP JUMPDEST JUMPDEST PUSH1 0x1 SWAP1 SUB DUP2 DUP2 SWAP1 PUSH0 MSTORE PUSH1 0x20 PUSH0 KECCAK256 ADD PUSH0 PUSH2 0x100 EXP DUP2 SLOAD SWAP1 PUSH20 0xFFFFFFFFFFFFFFFFFFFFFFFFFFFFFFFFFFFFFFFF MUL NOT AND SWAP1 SSTORE SWAP1 SSTORE PUSH2 0x14D5 JUMP JUMPDEST DUP1 DUP1 PUSH1 0x1 ADD SWAP2 POP POP PUSH2 0x135E JUMP JUMPDEST POP POP POP DUP1 DUP1 PUSH1 0x1 ADD SWAP2 POP POP PUSH2 0x126F JUMP JUMPDEST POP POP POP JUMP JUMPDEST POP DUP1 SLOAD PUSH0 DUP3 SSTORE SWAP1 PUSH0 MSTORE PUSH1 0x20 PUSH0 KECCAK256 SWAP1 DUP2 ADD SWAP1 PUSH2 0x1505 SWAP2 SWAP1 PUSH2 0x1508 JUMP JUMPDEST POP JUMP JUMPDEST JUMPDEST DUP1 DUP3 GT ISZERO PUSH2 0x155A JUMPI PUSH0 DUP1 DUP3 ADD PUSH0 PUSH2 0x100 EXP DUP2 SLOAD SWAP1 PUSH20 0xFFFFFFFFFFFFFFFFFFFFFFFFFFFFFFFFFFFFFFFF MUL NOT AND SWAP1 SSTORE PUSH0 DUP3 ADD PUSH1 0x14 PUSH2 0x100 EXP DUP2 SLOAD SWAP1 PUSH8 0xFFFFFFFFFFFFFFFF MUL NOT AND SWAP1 SSTORE POP PUSH1 0x1 ADD PUSH2 0x1509 JUMP JUMPDEST POP SWAP1 JUMP JUMPDEST PUSH0 PUSH1 0x40 MLOAD SWAP1 POP SWAP1 JUMP JUMPDEST PUSH0 DUP1 REVERT JUMPDEST PUSH0 DUP1 REVERT JUMPDEST PUSH0 DUP1 REVERT JUMPDEST PUSH0 DUP1 REVERT JUMPDEST PUSH0 DUP1 REVERT JUMPDEST PUSH0 DUP1 DUP4 PUSH1 0x1F DUP5 ADD SLT PUSH2 0x1590 JUMPI PUSH2 0x158F PUSH2 0x156F JUMP JUMPDEST JUMPDEST DUP3 CALLDATALOAD SWAP1 POP PUSH8 0xFFFFFFFFFFFFFFFF DUP2 GT ISZERO PUSH2 0x15AD JUMPI PUSH2 0x15AC PUSH2 0x1573 JUMP JUMPDEST JUMPDEST PUSH1 0x20 DUP4 ADD SWAP2 POP DUP4 PUSH1 0x20 DUP3 MUL DUP4 ADD GT ISZERO PUSH2 0x15C9 JUMPI PUSH2 0x15C8 PUSH2 0x1577 JUMP JUMPDEST JUMPDEST SWAP3 POP SWAP3 SWAP1 POP JUMP JUMPDEST PUSH0 DUP1 DUP4 PUSH1 0x1F DUP5 ADD SLT PUSH2 0x15E5 JUMPI PUSH2 0x15E4 PUSH2 0x156F JUMP JUMPDEST JUMPDEST DUP3 CALLDATALOAD SWAP1 POP PUSH8 0xFFFFFFFFFFFFFFFF DUP2 GT ISZERO PUSH2 0x1602 JUMPI PUSH2 0x1601 PUSH2 0x1573 JUMP JUMPDEST JUMPDEST PUSH1 0x20 DUP4 ADD SWAP2 POP DUP4 PUSH1 0x20 DUP3 MUL DUP4 ADD GT ISZERO PUSH2 0x161E JUMPI PUSH2 0x161D PUSH2 0x1577 JUMP JUMPDEST JUMPDEST SWAP3 POP SWAP3 SWAP1 POP JUMP JUMPDEST PUSH0 DUP1 PUSH0 DUP1 PUSH1 0x40 DUP6 DUP8 SUB SLT ISZERO PUSH2 0x163D JUMPI PUSH2 0x163C PUSH2 0x1567 JUMP JUMPDEST JUMPDEST PUSH0 DUP6 ADD CALLDATALOAD PUSH8 0xFFFFFFFFFFFFFFFF DUP2 GT ISZERO PUSH2 0x165A JUMPI PUSH2 0x1659 PUSH2 0x156B JUMP JUMPDEST JUMPDEST PUSH2 0x1666 DUP8 DUP3 DUP9 ADD PUSH2 0x157B JUMP JUMPDEST SWAP5 POP SWAP5 POP POP PUSH1 0x20 DUP6 ADD CALLDATALOAD PUSH8 0xFFFFFFFFFFFFFFFF DUP2 GT ISZERO PUSH2 0x1689 JUMPI PUSH2 0x1688 PUSH2 0x156B JUMP JUMPDEST JUMPDEST PUSH2 0x1695 DUP8 DUP3 DUP9 ADD PUSH2 0x15D0 JUMP JUMPDEST SWAP3 POP SWAP3 POP POP SWAP3 SWAP6 SWAP2 SWAP5 POP SWAP3 POP JUMP JUMPDEST PUSH0 PUSH20 0xFFFFFFFFFFFFFFFFFFFFFFFFFFFFFFFFFFFFFFFF DUP3 AND SWAP1 POP SWAP2 SWAP1 POP JUMP JUMPDEST PUSH0 PUSH2 0x16CC DUP3 PUSH2 0x16A3 JUMP JUMPDEST SWAP1 POP SWAP2 SWAP1 POP JUMP JUMPDEST PUSH2 0x16DC DUP2 PUSH2 0x16C2 JUMP JUMPDEST DUP2 EQ PUSH2 0x16E6 JUMPI PUSH0 DUP1 REVERT JUMPDEST POP JUMP JUMPDEST PUSH0 DUP2 CALLDATALOAD SWAP1 POP PUSH2 0x16F7 DUP2 PUSH2 0x16D3 JUMP JUMPDEST SWAP3 SWAP2 POP POP JUMP JUMPDEST PUSH0 PUSH1 0x20 DUP3 DUP5 SUB SLT ISZERO PUSH2 0x1712 JUMPI PUSH2 0x1711 PUSH2 0x1567 JUMP JUMPDEST JUMPDEST PUSH0 PUSH2 0x171F DUP5 DUP3 DUP6 ADD PUSH2 0x16E9 JUMP JUMPDEST SWAP2 POP POP SWAP3 SWAP2 POP POP JUMP JUMPDEST PUSH0 DUP2 ISZERO ISZERO SWAP1 POP SWAP2 SWAP1 POP JUMP JUMPDEST PUSH2 0x173C DUP2 PUSH2 0x1728 JUMP JUMPDEST DUP3 MSTORE POP POP JUMP JUMPDEST PUSH0 PUSH1 0x20 DUP3 ADD SWAP1 POP PUSH2 0x1755 PUSH0 DUP4 ADD DUP5 PUSH2 0x1733 JUMP JUMPDEST SWAP3 SWAP2 POP POP JUMP JUMPDEST PUSH0 DUP2 SWAP1 POP SWAP2 SWAP1 POP JUMP JUMPDEST PUSH2 0x176D DUP2 PUSH2 0x175B JUMP JUMPDEST DUP2 EQ PUSH2 0x1777 JUMPI PUSH0 DUP1 REVERT JUMPDEST POP JUMP JUMPDEST PUSH0 DUP2 CALLDATALOAD SWAP1 POP PUSH2 0x1788 DUP2 PUSH2 0x1764 JUMP JUMPDEST SWAP3 SWAP2 POP POP JUMP JUMPDEST PUSH0 DUP1 PUSH1 0x40 DUP4 DUP6 SUB SLT ISZERO PUSH2 0x17A4 JUMPI PUSH2 0x17A3 PUSH2 0x1567 JUMP JUMPDEST JUMPDEST PUSH0 PUSH2 0x17B1 DUP6 DUP3 DUP7 ADD PUSH2 0x16E9 JUMP JUMPDEST SWAP3 POP POP PUSH1 0x20 PUSH2 0x17C2 DUP6 DUP3 DUP7 ADD PUSH2 0x177A JUMP JUMPDEST SWAP2 POP POP SWAP3 POP SWAP3 SWAP1 POP JUMP JUMPDEST PUSH2 0x17D5 DUP2 PUSH2 0x16C2 JUMP JUMPDEST DUP3 MSTORE POP POP JUMP JUMPDEST PUSH0 PUSH1 0x20 DUP3 ADD SWAP1 POP PUSH2 0x17EE PUSH0 DUP4 ADD DUP5 PUSH2 0x17CC JUMP JUMPDEST SWAP3 SWAP2 POP POP JUMP JUMPDEST PUSH0 PUSH1 0x1F NOT PUSH1 0x1F DUP4 ADD AND SWAP1 POP SWAP2 SWAP1 POP JUMP JUMPDEST PUSH32 0x4E487B7100000000000000000000000000000000000000000000000000000000 PUSH0 MSTORE PUSH1 0x41 PUSH1 0x4 MSTORE PUSH1 0x24 PUSH0 REVERT JUMPDEST PUSH2 0x183A DUP3 PUSH2 0x17F4 JUMP JUMPDEST DUP2 ADD DUP2 DUP2 LT PUSH8 0xFFFFFFFFFFFFFFFF DUP3 GT OR ISZERO PUSH2 0x1859 JUMPI PUSH2 0x1858 PUSH2 0x1804 JUMP JUMPDEST JUMPDEST DUP1 PUSH1 0x40 MSTORE POP POP POP JUMP JUMPDEST PUSH0 PUSH2 0x186B PUSH2 0x155E JUMP JUMPDEST SWAP1 POP PUSH2 0x1877 DUP3 DUP3 PUSH2 0x1831 JUMP JUMPDEST SWAP2 SWAP1 POP JUMP JUMPDEST PUSH0 PUSH8 0xFFFFFFFFFFFFFFFF DUP3 GT ISZERO PUSH2 0x1896 JUMPI PUSH2 0x1895 PUSH2 0x1804 JUMP JUMPDEST JUMPDEST PUSH1 0x20 DUP3 MUL SWAP1 POP PUSH1 0x20 DUP2 ADD SWAP1 POP SWAP2 SWAP1 POP JUMP JUMPDEST PUSH0 PUSH2 0x18B9 PUSH2 0x18B4 DUP5 PUSH2 0x187C JUMP JUMPDEST PUSH2 0x1862 JUMP JUMPDEST SWAP1 POP DUP1 DUP4 DUP3 MSTORE PUSH1 0x20 DUP3 ADD SWAP1 POP PUSH1 0x20 DUP5 MUL DUP4 ADD DUP6 DUP2 GT ISZERO PUSH2 0x18DC JUMPI PUSH2 0x18DB PUSH2 0x1577 JUMP JUMPDEST JUMPDEST DUP4 JUMPDEST DUP2 DUP2 LT ISZERO PUSH2 0x1905 JUMPI DUP1 PUSH2 0x18F1 DUP9 DUP3 PUSH2 0x16E9 JUMP JUMPDEST DUP5 MSTORE PUSH1 0x20 DUP5 ADD SWAP4 POP POP PUSH1 0x20 DUP2 ADD SWAP1 POP PUSH2 0x18DE JUMP JUMPDEST POP POP POP SWAP4 SWAP3 POP POP POP JUMP JUMPDEST PUSH0 DUP3 PUSH1 0x1F DUP4 ADD SLT PUSH2 0x1923 JUMPI PUSH2 0x1922 PUSH2 0x156F JUMP JUMPDEST JUMPDEST DUP2 CALLDATALOAD PUSH2 0x1933 DUP5 DUP3 PUSH1 0x20 DUP7 ADD PUSH2 0x18A7 JUMP JUMPDEST SWAP2 POP POP SWAP3 SWAP2 POP POP JUMP JUMPDEST PUSH0 PUSH8 0xFFFFFFFFFFFFFFFF DUP3 GT ISZERO PUSH2 0x1956 JUMPI PUSH2 0x1955 PUSH2 0x1804 JUMP JUMPDEST JUMPDEST PUSH1 0x20 DUP3 MUL SWAP1 POP PUSH1 0x20 DUP2 ADD SWAP1 POP SWAP2 SWAP1 POP JUMP JUMPDEST PUSH0 PUSH1 0xFF DUP3 AND SWAP1 POP SWAP2 SWAP1 POP JUMP JUMPDEST PUSH2 0x197C DUP2 PUSH2 0x1967 JUMP JUMPDEST DUP2 EQ PUSH2 0x1986 JUMPI PUSH0 DUP1 REVERT JUMPDEST POP JUMP JUMPDEST PUSH0 DUP2 CALLDATALOAD SWAP1 POP PUSH2 0x1997 DUP2 PUSH2 0x1973 JUMP JUMPDEST SWAP3 SWAP2 POP POP JUMP JUMPDEST PUSH0 PUSH2 0x19AF PUSH2 0x19AA DUP5 PUSH2 0x193C JUMP JUMPDEST PUSH2 0x1862 JUMP JUMPDEST SWAP1 POP DUP1 DUP4 DUP3 MSTORE PUSH1 0x20 DUP3 ADD SWAP1 POP PUSH1 0x20 DUP5 MUL DUP4 ADD DUP6 DUP2 GT ISZERO PUSH2 0x19D2 JUMPI PUSH2 0x19D1 PUSH2 0x1577 JUMP JUMPDEST JUMPDEST DUP4 JUMPDEST DUP2 DUP2 LT ISZERO PUSH2 0x19FB JUMPI DUP1 PUSH2 0x19E7 DUP9 DUP3 PUSH2 0x1989 JUMP JUMPDEST DUP5 MSTORE PUSH1 0x20 DUP5 ADD SWAP4 POP POP PUSH1 0x20 DUP2 ADD SWAP1 POP PUSH2 0x19D4 JUMP JUMPDEST POP POP POP SWAP4 SWAP3 POP POP POP JUMP JUMPDEST PUSH0 DUP3 PUSH1 0x1F DUP4 ADD SLT PUSH2 0x1A19 JUMPI PUSH2 0x1A18 PUSH2 0x156F JUMP JUMPDEST JUMPDEST DUP2 CALLDATALOAD PUSH2 0x1A29 DUP5 DUP3 PUSH1 0x20 DUP7 ADD PUSH2 0x199D JUMP JUMPDEST SWAP2 POP POP SWAP3 SWAP2 POP POP JUMP JUMPDEST PUSH0 DUP1 PUSH1 0x40 DUP4 DUP6 SUB SLT ISZERO PUSH2 0x1A48 JUMPI PUSH2 0x1A47 PUSH2 0x1567 JUMP JUMPDEST JUMPDEST PUSH0 DUP4 ADD CALLDATALOAD PUSH8 0xFFFFFFFFFFFFFFFF DUP2 GT ISZERO PUSH2 0x1A65 JUMPI PUSH2 0x1A64 PUSH2 0x156B JUMP JUMPDEST JUMPDEST PUSH2 0x1A71 DUP6 DUP3 DUP7 ADD PUSH2 0x190F JUMP JUMPDEST SWAP3 POP POP PUSH1 0x20 DUP4 ADD CALLDATALOAD PUSH8 0xFFFFFFFFFFFFFFFF DUP2 GT ISZERO PUSH2 0x1A92 JUMPI PUSH2 0x1A91 PUSH2 0x156B JUMP JUMPDEST JUMPDEST PUSH2 0x1A9E DUP6 DUP3 DUP7 ADD PUSH2 0x1A05 JUMP JUMPDEST SWAP2 POP POP SWAP3 POP SWAP3 SWAP1 POP JUMP JUMPDEST PUSH0 PUSH16 0xFFFFFFFFFFFFFFFFFFFFFFFFFFFFFFFF DUP3 AND SWAP1 POP SWAP2 SWAP1 POP JUMP JUMPDEST PUSH2 0x1ACC DUP2 PUSH2 0x1AA8 JUMP JUMPDEST DUP3 MSTORE POP POP JUMP JUMPDEST PUSH2 0x1ADB DUP2 PUSH2 0x175B JUMP JUMPDEST DUP3 MSTORE POP POP JUMP JUMPDEST PUSH0 PUSH1 0x60 DUP3 ADD SWAP1 POP PUSH2 0x1AF4 PUSH0 DUP4 ADD DUP7 PUSH2 0x1733 JUMP JUMPDEST PUSH2 0x1B01 PUSH1 0x20 DUP4 ADD DUP6 PUSH2 0x1AC3 JUMP JUMPDEST PUSH2 0x1B0E PUSH1 0x40 DUP4 ADD DUP5 PUSH2 0x1AD2 JUMP JUMPDEST SWAP5 SWAP4 POP POP POP POP JUMP JUMPDEST PUSH0 DUP2 MLOAD SWAP1 POP SWAP2 SWAP1 POP JUMP JUMPDEST PUSH0 DUP3 DUP3 MSTORE PUSH1 0x20 DUP3 ADD SWAP1 POP SWAP3 SWAP2 POP POP JUMP JUMPDEST PUSH0 DUP2 SWAP1 POP PUSH1 0x20 DUP3 ADD SWAP1 POP SWAP2 SWAP1 POP JUMP JUMPDEST PUSH2 0x1B48 DUP2 PUSH2 0x16C2 JUMP JUMPDEST DUP3 MSTORE POP POP JUMP JUMPDEST PUSH0 PUSH2 0x1B59 DUP4 DUP4 PUSH2 0x1B3F JUMP JUMPDEST PUSH1 0x20 DUP4 ADD SWAP1 POP SWAP3 SWAP2 POP POP JUMP JUMPDEST PUSH0 PUSH1 0x20 DUP3 ADD SWAP1 POP SWAP2 SWAP1 POP JUMP JUMPDEST PUSH0 PUSH2 0x1B7B DUP3 PUSH2 0x1B16 JUMP JUMPDEST PUSH2 0x1B85 DUP2 DUP6 PUSH2 0x1B20 JUMP JUMPDEST SWAP4 POP PUSH2 0x1B90 DUP4 PUSH2 0x1B30 JUMP JUMPDEST DUP1 PUSH0 JUMPDEST DUP4 DUP2 LT ISZERO PUSH2 0x1BC0 JUMPI DUP2 MLOAD PUSH2 0x1BA7 DUP9 DUP3 PUSH2 0x1B4E JUMP JUMPDEST SWAP8 POP PUSH2 0x1BB2 DUP4 PUSH2 0x1B65 JUMP JUMPDEST SWAP3 POP POP PUSH1 0x1 DUP2 ADD SWAP1 POP PUSH2 0x1B93 JUMP JUMPDEST POP DUP6 SWAP4 POP POP POP POP SWAP3 SWAP2 POP POP JUMP JUMPDEST PUSH0 DUP2 MLOAD SWAP1 POP SWAP2 SWAP1 POP JUMP JUMPDEST PUSH0 DUP3 DUP3 MSTORE PUSH1 0x20 DUP3 ADD SWAP1 POP SWAP3 SWAP2 POP POP JUMP JUMPDEST PUSH0 DUP2 SWAP1 POP PUSH1 0x20 DUP3 ADD SWAP1 POP SWAP2 SWAP1 POP JUMP JUMPDEST PUSH0 PUSH8 0xFFFFFFFFFFFFFFFF DUP3 AND SWAP1 POP SWAP2 SWAP1 POP JUMP JUMPDEST PUSH2 0x1C12 DUP2 PUSH2 0x1BF6 JUMP JUMPDEST DUP3 MSTORE POP POP JUMP JUMPDEST PUSH0 PUSH2 0x1C23 DUP4 DUP4 PUSH2 0x1C09 JUMP JUMPDEST PUSH1 0x20 DUP4 ADD SWAP1 POP SWAP3 SWAP2 POP POP JUMP JUMPDEST PUSH0 PUSH1 0x20 DUP3 ADD SWAP1 POP SWAP2 SWAP1 POP JUMP JUMPDEST PUSH0 PUSH2 0x1C45 DUP3 PUSH2 0x1BCD JUMP JUMPDEST PUSH2 0x1C4F DUP2 DUP6 PUSH2 0x1BD7 JUMP JUMPDEST SWAP4 POP PUSH2 0x1C5A DUP4 PUSH2 0x1BE7 JUMP JUMPDEST DUP1 PUSH0 JUMPDEST DUP4 DUP2 LT ISZERO PUSH2 0x1C8A JUMPI DUP2 MLOAD PUSH2 0x1C71 DUP9 DUP3 PUSH2 0x1C18 JUMP JUMPDEST SWAP8 POP PUSH2 0x1C7C DUP4 PUSH2 0x1C2F JUMP JUMPDEST SWAP3 POP POP PUSH1 0x1 DUP2 ADD SWAP1 POP PUSH2 0x1C5D JUMP JUMPDEST POP DUP6 SWAP4 POP POP POP POP SWAP3 SWAP2 POP POP JUMP JUMPDEST PUSH0 PUSH1 0x80 DUP3 ADD SWAP1 POP DUP2 DUP2 SUB PUSH0 DUP4 ADD MSTORE PUSH2 0x1CAF DUP2 DUP8 PUSH2 0x1B71 JUMP JUMPDEST SWAP1 POP DUP2 DUP2 SUB PUSH1 0x20 DUP4 ADD MSTORE PUSH2 0x1CC3 DUP2 DUP7 PUSH2 0x1C3B JUMP JUMPDEST SWAP1 POP PUSH2 0x1CD2 PUSH1 0x40 DUP4 ADD DUP6 PUSH2 0x1AC3 JUMP JUMPDEST PUSH2 0x1CDF PUSH1 0x60 DUP4 ADD DUP5 PUSH2 0x1AD2 JUMP JUMPDEST SWAP6 SWAP5 POP POP POP POP POP JUMP JUMPDEST PUSH0 PUSH1 0x20 DUP3 ADD SWAP1 POP DUP2 DUP2 SUB PUSH0 DUP4 ADD MSTORE PUSH2 0x1D00 DUP2 DUP5 PUSH2 0x1B71 JUMP JUMPDEST SWAP1 POP SWAP3 SWAP2 POP POP JUMP JUMPDEST PUSH0 DUP2 SWAP1 POP SWAP3 SWAP2 POP POP JUMP JUMPDEST POP JUMP JUMPDEST PUSH0 PUSH2 0x1D20 PUSH0 DUP4 PUSH2 0x1D08 JUMP JUMPDEST SWAP2 POP PUSH2 0x1D2B DUP3 PUSH2 0x1D12 JUMP JUMPDEST PUSH0 DUP3 ADD SWAP1 POP SWAP2 SWAP1 POP JUMP JUMPDEST PUSH0 PUSH2 0x1D3F DUP3 PUSH2 0x1D15 JUMP JUMPDEST SWAP2 POP DUP2 SWAP1 POP SWAP2 SWAP1 POP JUMP JUMPDEST PUSH0 DUP3 DUP3 MSTORE PUSH1 0x20 DUP3 ADD SWAP1 POP SWAP3 SWAP2 POP POP JUMP JUMPDEST PUSH32 0x63616E63656C54657374616D656E7428292C2046616C686120616F20656E7669 PUSH0 DUP3 ADD MSTORE PUSH32 0x6172204554480000000000000000000000000000000000000000000000000000 PUSH1 0x20 DUP3 ADD MSTORE POP JUMP JUMPDEST PUSH0 PUSH2 0x1DB3 PUSH1 0x26 DUP4 PUSH2 0x1D49 JUMP JUMPDEST SWAP2 POP PUSH2 0x1DBE DUP3 PUSH2 0x1D59 JUMP JUMPDEST PUSH1 0x40 DUP3 ADD SWAP1 POP SWAP2 SWAP1 POP JUMP JUMPDEST PUSH0 PUSH1 0x20 DUP3 ADD SWAP1 POP DUP2 DUP2 SUB PUSH0 DUP4 ADD MSTORE PUSH2 0x1DE0 DUP2 PUSH2 0x1DA7 JUMP JUMPDEST SWAP1 POP SWAP2 SWAP1 POP JUMP JUMPDEST PUSH32 0x637265617465496E6865726974616E636528292C2061646963696F6E65206F73 PUSH0 DUP3 ADD MSTORE PUSH32 0x20686572646569726F7300000000000000000000000000000000000000000000 PUSH1 0x20 DUP3 ADD MSTORE POP JUMP JUMPDEST PUSH0 PUSH2 0x1E41 PUSH1 0x2A DUP4 PUSH2 0x1D49 JUMP JUMPDEST SWAP2 POP PUSH2 0x1E4C DUP3 PUSH2 0x1DE7 JUMP JUMPDEST PUSH1 0x40 DUP3 ADD SWAP1 POP SWAP2 SWAP1 POP JUMP JUMPDEST PUSH0 PUSH1 0x20 DUP3 ADD SWAP1 POP DUP2 DUP2 SUB PUSH0 DUP4 ADD MSTORE PUSH2 0x1E6E DUP2 PUSH2 0x1E35 JUMP JUMPDEST SWAP1 POP SWAP2 SWAP1 POP JUMP JUMPDEST PUSH32 0x637265617465496E6865726974616E636528292C207175616E74696461646520 PUSH0 DUP3 ADD MSTORE PUSH32 0x646520656E64657265636F73206520706F7263656E746167656E732064696665 PUSH1 0x20 DUP3 ADD MSTORE PUSH32 0x72656E7465730000000000000000000000000000000000000000000000000000 PUSH1 0x40 DUP3 ADD MSTORE POP JUMP JUMPDEST PUSH0 PUSH2 0x1EF5 PUSH1 0x46 DUP4 PUSH2 0x1D49 JUMP JUMPDEST SWAP2 POP PUSH2 0x1F00 DUP3 PUSH2 0x1E75 JUMP JUMPDEST PUSH1 0x60 DUP3 ADD SWAP1 POP SWAP2 SWAP1 POP JUMP JUMPDEST PUSH0 PUSH1 0x20 DUP3 ADD SWAP1 POP DUP2 DUP2 SUB PUSH0 DUP4 ADD MSTORE PUSH2 0x1F22 DUP2 PUSH2 0x1EE9 JUMP JUMPDEST SWAP1 POP SWAP2 SWAP1 POP JUMP JUMPDEST PUSH32 0x4E487B7100000000000000000000000000000000000000000000000000000000 PUSH0 MSTORE PUSH1 0x32 PUSH1 0x4 MSTORE PUSH1 0x24 PUSH0 REVERT JUMPDEST PUSH2 0x1F5F DUP2 PUSH2 0x1BF6 JUMP JUMPDEST DUP2 EQ PUSH2 0x1F69 JUMPI PUSH0 DUP1 REVERT JUMPDEST POP JUMP JUMPDEST PUSH0 DUP2 CALLDATALOAD SWAP1 POP PUSH2 0x1F7A DUP2 PUSH2 0x1F56 JUMP JUMPDEST SWAP3 SWAP2 POP POP JUMP JUMPDEST PUSH0 PUSH1 0x20 DUP3 DUP5 SUB SLT ISZERO PUSH2 0x1F95 JUMPI PUSH2 0x1F94 PUSH2 0x1567 JUMP JUMPDEST JUMPDEST PUSH0 PUSH2 0x1FA2 DUP5 DUP3 DUP6 ADD PUSH2 0x1F6C JUMP JUMPDEST SWAP2 POP POP SWAP3 SWAP2 POP POP JUMP JUMPDEST PUSH32 0x4E487B7100000000000000000000000000000000000000000000000000000000 PUSH0 MSTORE PUSH1 0x11 PUSH1 0x4 MSTORE PUSH1 0x24 PUSH0 REVERT JUMPDEST PUSH0 PUSH2 0x1FE2 DUP3 PUSH2 0x175B JUMP JUMPDEST SWAP2 POP PUSH2 0x1FED DUP4 PUSH2 0x175B JUMP JUMPDEST SWAP3 POP DUP3 DUP3 ADD SWAP1 POP DUP1 DUP3 GT ISZERO PUSH2 0x2005 JUMPI PUSH2 0x2004 PUSH2 0x1FAB JUMP JUMPDEST JUMPDEST SWAP3 SWAP2 POP POP JUMP JUMPDEST PUSH32 0x637265617465496E6865726974616E636528292C2076616C6F7220696E76616C PUSH0 DUP3 ADD MSTORE PUSH32 0x69646F0000000000000000000000000000000000000000000000000000000000 PUSH1 0x20 DUP3 ADD MSTORE POP JUMP JUMPDEST PUSH0 PUSH2 0x2065 PUSH1 0x23 DUP4 PUSH2 0x1D49 JUMP JUMPDEST SWAP2 POP PUSH2 0x2070 DUP3 PUSH2 0x200B JUMP JUMPDEST PUSH1 0x40 DUP3 ADD SWAP1 POP SWAP2 SWAP1 POP JUMP JUMPDEST PUSH0 PUSH1 0x20 DUP3 ADD SWAP1 POP DUP2 DUP2 SUB PUSH0 DUP4 ADD MSTORE PUSH2 0x2092 DUP2 PUSH2 0x2059 JUMP JUMPDEST SWAP1 POP SWAP2 SWAP1 POP JUMP JUMPDEST PUSH32 0x637265617465496E6865726974616E636528292C20766F6365206A612074656D PUSH0 DUP3 ADD MSTORE PUSH32 0x20756D2074657374616D656E746F2063726961646F2C20656469746520656C65 PUSH1 0x20 DUP3 ADD MSTORE POP JUMP JUMPDEST PUSH0 PUSH2 0x20F3 PUSH1 0x40 DUP4 PUSH2 0x1D49 JUMP JUMPDEST SWAP2 POP PUSH2 0x20FE DUP3 PUSH2 0x2099 JUMP JUMPDEST PUSH1 0x40 DUP3 ADD SWAP1 POP SWAP2 SWAP1 POP JUMP JUMPDEST PUSH0 PUSH1 0x20 DUP3 ADD SWAP1 POP DUP2 DUP2 SUB PUSH0 DUP4 ADD MSTORE PUSH2 0x2120 DUP2 PUSH2 0x20E7 JUMP JUMPDEST SWAP1 POP SWAP2 SWAP1 POP JUMP JUMPDEST PUSH32 0x5465737461646F72206E616F20656E636F6E747261646F000000000000000000 PUSH0 DUP3 ADD MSTORE POP JUMP JUMPDEST PUSH0 PUSH2 0x215B PUSH1 0x17 DUP4 PUSH2 0x1D49 JUMP JUMPDEST SWAP2 POP PUSH2 0x2166 DUP3 PUSH2 0x2127 JUMP JUMPDEST PUSH1 0x20 DUP3 ADD SWAP1 POP SWAP2 SWAP1 POP JUMP JUMPDEST PUSH0 PUSH1 0x20 DUP3 ADD SWAP1 POP DUP2 DUP2 SUB PUSH0 DUP4 ADD MSTORE PUSH2 0x2188 DUP2 PUSH2 0x214F JUMP JUMPDEST SWAP1 POP SWAP2 SWAP1 POP JUMP JUMPDEST PUSH0 PUSH2 0x2199 DUP3 PUSH2 0x1BF6 JUMP JUMPDEST SWAP2 POP PUSH8 0xFFFFFFFFFFFFFFFF DUP3 SUB PUSH2 0x21B3 JUMPI PUSH2 0x21B2 PUSH2 0x1FAB JUMP JUMPDEST JUMPDEST PUSH1 0x1 DUP3 ADD SWAP1 POP SWAP2 SWAP1 POP JUMP JUMPDEST PUSH32 0x566F6365206E616F20706F73737569206E656E68756D2074657374616D656E74 PUSH0 DUP3 ADD MSTORE PUSH32 0x6F2063726961646F000000000000000000000000000000000000000000000000 PUSH1 0x20 DUP3 ADD MSTORE POP JUMP JUMPDEST PUSH0 PUSH2 0x2218 PUSH1 0x28 DUP4 PUSH2 0x1D49 JUMP JUMPDEST SWAP2 POP PUSH2 0x2223 DUP3 PUSH2 0x21BE JUMP JUMPDEST PUSH1 0x40 DUP3 ADD SWAP1 POP SWAP2 SWAP1 POP JUMP JUMPDEST PUSH0 PUSH1 0x20 DUP3 ADD SWAP1 POP DUP2 DUP2 SUB PUSH0 DUP4 ADD MSTORE PUSH2 0x2245 DUP2 PUSH2 0x220C JUMP JUMPDEST SWAP1 POP SWAP2 SWAP1 POP JUMP JUMPDEST PUSH0 PUSH2 0x2256 DUP3 PUSH2 0x175B JUMP JUMPDEST SWAP2 POP PUSH2 0x2261 DUP4 PUSH2 0x175B JUMP JUMPDEST SWAP3 POP DUP3 DUP3 SUB SWAP1 POP DUP2 DUP2 GT ISZERO PUSH2 0x2279 JUMPI PUSH2 0x2278 PUSH2 0x1FAB JUMP JUMPDEST JUMPDEST SWAP3 SWAP2 POP POP JUMP JUMPDEST PUSH32 0x4E487B7100000000000000000000000000000000000000000000000000000000 PUSH0 MSTORE PUSH1 0x31 PUSH1 0x4 MSTORE PUSH1 0x24 PUSH0 REVERT INVALID LOG2 PUSH5 0x6970667358 0x22 SLT KECCAK256 MUL PUSH5 0x66A53A1FA5 0xCF PUSH10 0x8A3C70BA22CBD9924D55 0xE2 JUMPI SWAP16 DUP7 0xAF 0xBC 0x4F 0x4B 0x29 0xEA SWAP5 PUSH28 0x9964736F6C634300081A003300000000000000000000000000000000 "
				},
				"gasEstimates": {
					"creation": {
						"codeDepositCost": "1786000",
						"executionCost": "1882",
						"totalCost": "1787882"
					},
					"external": {
						"cancelTestament()": "infinite",
						"createInheritance(address[],uint8[])": "infinite",
						"editInheritorsInMyTestament(address[],uint64[])": "infinite",
						"getMyTestament(address)": "infinite",
						"getMyTestators()": "infinite",
						"inheritorCanWithdrawal(address)": "infinite",
						"inheritorToTestators(address,uint256)": "infinite",
						"testament(address)": "7392",
						"updateProofOfLife()": "26876"
					},
					"internal": {
						"clearOldInheritorsOfTestament(address)": "infinite"
					}
				},
				"methodIdentifiers": {
					"cancelTestament()": "1aba6da6",
					"createInheritance(address[],uint8[])": "759a8a98",
					"editInheritorsInMyTestament(address[],uint64[])": "242e1d9b",
					"getMyTestament(address)": "c6064610",
					"getMyTestators()": "ca7252ea",
					"inheritorCanWithdrawal(address)": "3c9e9964",
					"inheritorToTestators(address,uint256)": "5b084db9",
					"testament(address)": "7618d0a7",
					"updateProofOfLife()": "c80cc411"
				}
			},
			"storageLayout": {
				"storage": [
					{
						"astId": 28,
						"contract": ".deps/studying-solidity/testament/Testament.sol:Testament",
						"label": "testament",
						"offset": 0,
						"slot": "0",
						"type": "t_mapping(t_address,t_struct(Testament)17_storage)"
					},
					{
						"astId": 33,
						"contract": ".deps/studying-solidity/testament/Testament.sol:Testament",
						"label": "inheritorToTestators",
						"offset": 0,
						"slot": "1",
						"type": "t_mapping(t_address,t_array(t_address)dyn_storage)"
					}
				],
				"types": {
					"t_address": {
						"encoding": "inplace",
						"label": "address",
						"numberOfBytes": "20"
					},
					"t_array(t_address)dyn_storage": {
						"base": "t_address",
						"encoding": "dynamic_array",
						"label": "address[]",
						"numberOfBytes": "32"
					},
					"t_array(t_struct(Inheritor)6_storage)dyn_storage": {
						"base": "t_struct(Inheritor)6_storage",
						"encoding": "dynamic_array",
						"label": "struct StructsToTestament.Inheritor[]",
						"numberOfBytes": "32"
					},
					"t_bool": {
						"encoding": "inplace",
						"label": "bool",
						"numberOfBytes": "1"
					},
					"t_mapping(t_address,t_array(t_address)dyn_storage)": {
						"encoding": "mapping",
						"key": "t_address",
						"label": "mapping(address => address[])",
						"numberOfBytes": "32",
						"value": "t_array(t_address)dyn_storage"
					},
					"t_mapping(t_address,t_struct(Testament)17_storage)": {
						"encoding": "mapping",
						"key": "t_address",
						"label": "mapping(address => struct StructsToTestament.Testament)",
						"numberOfBytes": "32",
						"value": "t_struct(Testament)17_storage"
					},
					"t_struct(Inheritor)6_storage": {
						"encoding": "inplace",
						"label": "struct StructsToTestament.Inheritor",
						"members": [
							{
								"astId": 3,
								"contract": ".deps/studying-solidity/testament/Testament.sol:Testament",
								"label": "inheritorAddress",
								"offset": 0,
								"slot": "0",
								"type": "t_address"
							},
							{
								"astId": 5,
								"contract": ".deps/studying-solidity/testament/Testament.sol:Testament",
								"label": "percentage",
								"offset": 20,
								"slot": "0",
								"type": "t_uint64"
							}
						],
						"numberOfBytes": "32"
					},
					"t_struct(Testament)17_storage": {
						"encoding": "inplace",
						"label": "struct StructsToTestament.Testament",
						"members": [
							{
								"astId": 10,
								"contract": ".deps/studying-solidity/testament/Testament.sol:Testament",
								"label": "inheritors",
								"offset": 0,
								"slot": "0",
								"type": "t_array(t_struct(Inheritor)6_storage)dyn_storage"
							},
							{
								"astId": 12,
								"contract": ".deps/studying-solidity/testament/Testament.sol:Testament",
								"label": "exist",
								"offset": 0,
								"slot": "1",
								"type": "t_bool"
							},
							{
								"astId": 14,
								"contract": ".deps/studying-solidity/testament/Testament.sol:Testament",
								"label": "lastProofOfLife",
								"offset": 1,
								"slot": "1",
								"type": "t_uint128"
							},
							{
								"astId": 16,
								"contract": ".deps/studying-solidity/testament/Testament.sol:Testament",
								"label": "balance",
								"offset": 0,
								"slot": "2",
								"type": "t_uint256"
							}
						],
						"numberOfBytes": "96"
					},
					"t_uint128": {
						"encoding": "inplace",
						"label": "uint128",
						"numberOfBytes": "16"
					},
					"t_uint256": {
						"encoding": "inplace",
						"label": "uint256",
						"numberOfBytes": "32"
					},
					"t_uint64": {
						"encoding": "inplace",
						"label": "uint64",
						"numberOfBytes": "8"
					}
				}
			},
			"userdoc": {
				"kind": "user",
				"methods": {},
				"version": 1
			}
		}
	}
}