{
	".deps/studying-solidity/testament/Testament.sol": {
		"Testament": {
			"abi": [
				{
					"inputs": [],
					"name": "addAssetsInTestament",
					"outputs": [],
					"stateMutability": "payable",
					"type": "function"
				},
				{
					"inputs": [],
					"name": "cancelTestament",
					"outputs": [],
					"stateMutability": "nonpayable",
					"type": "function"
				},
				{
					"inputs": [
						{
							"internalType": "address[]",
							"name": "_addresses",
							"type": "address[]"
						},
						{
							"internalType": "uint16[]",
							"name": "_percentagens",
							"type": "uint16[]"
						}
					],
					"name": "createInheritance",
					"outputs": [],
					"stateMutability": "payable",
					"type": "function"
				},
				{
					"inputs": [
						{
							"internalType": "address[]",
							"name": "inheritorsAddresses",
							"type": "address[]"
						},
						{
							"internalType": "uint16[]",
							"name": "percentages",
							"type": "uint16[]"
						}
					],
					"name": "editInheritorsInMyTestament",
					"outputs": [],
					"stateMutability": "nonpayable",
					"type": "function"
				},
				{
					"inputs": [
						{
							"internalType": "address",
							"name": "testator",
							"type": "address"
						}
					],
					"name": "getMyTestament",
					"outputs": [
						{
							"internalType": "address[]",
							"name": "",
							"type": "address[]"
						},
						{
							"internalType": "uint16[]",
							"name": "",
							"type": "uint16[]"
						},
						{
							"internalType": "bool[]",
							"name": "",
							"type": "bool[]"
						},
						{
							"internalType": "uint128",
							"name": "",
							"type": "uint128"
						},
						{
							"internalType": "uint256",
							"name": "",
							"type": "uint256"
						}
					],
					"stateMutability": "view",
					"type": "function"
				},
				{
					"inputs": [],
					"name": "getMyTestators",
					"outputs": [
						{
							"internalType": "address[]",
							"name": "",
							"type": "address[]"
						}
					],
					"stateMutability": "view",
					"type": "function"
				},
				{
					"inputs": [
						{
							"internalType": "address",
							"name": "",
							"type": "address"
						},
						{
							"internalType": "uint256",
							"name": "",
							"type": "uint256"
						}
					],
					"name": "inheritorToTestators",
					"outputs": [
						{
							"internalType": "address",
							"name": "",
							"type": "address"
						}
					],
					"stateMutability": "view",
					"type": "function"
				},
				{
					"inputs": [
						{
							"internalType": "address",
							"name": "testator",
							"type": "address"
						}
					],
					"name": "inheritorsCanWithdraw",
					"outputs": [
						{
							"internalType": "bool",
							"name": "",
							"type": "bool"
						}
					],
					"stateMutability": "view",
					"type": "function"
				},
				{
					"inputs": [
						{
							"internalType": "uint256",
							"name": "value",
							"type": "uint256"
						}
					],
					"name": "removeAssetsInTestament",
					"outputs": [],
					"stateMutability": "nonpayable",
					"type": "function"
				},
				{
					"inputs": [
						{
							"internalType": "address",
							"name": "",
							"type": "address"
						}
					],
					"name": "testament",
					"outputs": [
						{
							"internalType": "bool",
							"name": "exist",
							"type": "bool"
						},
						{
							"internalType": "uint128",
							"name": "lastProofOfLife",
							"type": "uint128"
						},
						{
							"internalType": "uint256",
							"name": "inheritanceValue",
							"type": "uint256"
						}
					],
					"stateMutability": "view",
					"type": "function"
				},
				{
					"inputs": [],
					"name": "updateProofOfLife",
					"outputs": [],
					"stateMutability": "nonpayable",
					"type": "function"
				},
				{
					"inputs": [
						{
							"internalType": "address",
							"name": "testator",
							"type": "address"
						}
					],
					"name": "withdraw",
					"outputs": [],
					"stateMutability": "nonpayable",
					"type": "function"
				}
			],
			"devdoc": {
				"kind": "dev",
				"methods": {},
				"version": 1
			},
			"evm": {
				"assembly": "    /* \".deps/studying-solidity/testament/Testament.sol\":104:9271  contract Testament is StructsToTestament {... */\n  mstore(0x40, 0x80)\n  callvalue\n  dup1\n  iszero\n  tag_1\n  jumpi\n  0x00\n  dup1\n  revert\ntag_1:\n  pop\n  dataSize(sub_0)\n  dup1\n  dataOffset(sub_0)\n  0x00\n  codecopy\n  0x00\n  return\nstop\n\nsub_0: assembly {\n        /* \".deps/studying-solidity/testament/Testament.sol\":104:9271  contract Testament is StructsToTestament {... */\n      mstore(0x40, 0x80)\n      jumpi(tag_1, lt(calldatasize, 0x04))\n      shr(0xe0, calldataload(0x00))\n      dup1\n      0x7618d0a7\n      gt\n      tag_14\n      jumpi\n      dup1\n      0x7618d0a7\n      eq\n      tag_8\n      jumpi\n      dup1\n      0xc6064610\n      eq\n      tag_9\n      jumpi\n      dup1\n      0xc80cc411\n      eq\n      tag_10\n      jumpi\n      dup1\n      0xca7252ea\n      eq\n      tag_11\n      jumpi\n      dup1\n      0xe7a84bc3\n      eq\n      tag_12\n      jumpi\n      dup1\n      0xf3550b9b\n      eq\n      tag_13\n      jumpi\n      jump(tag_1)\n    tag_14:\n      dup1\n      0x0bbd5839\n      eq\n      tag_2\n      jumpi\n      dup1\n      0x0d78946e\n      eq\n      tag_3\n      jumpi\n      dup1\n      0x1aba6da6\n      eq\n      tag_4\n      jumpi\n      dup1\n      0x51cff8d9\n      eq\n      tag_5\n      jumpi\n      dup1\n      0x5b084db9\n      eq\n      tag_6\n      jumpi\n      dup1\n      0x5bd36e29\n      eq\n      tag_7\n      jumpi\n    tag_1:\n      0x00\n      dup1\n      revert\n        /* \".deps/studying-solidity/testament/Testament.sol\":3270:4479  function editInheritorsInMyTestament(... */\n    tag_2:\n      callvalue\n      dup1\n      iszero\n      tag_15\n      jumpi\n      0x00\n      dup1\n      revert\n    tag_15:\n      pop\n      tag_16\n      0x04\n      dup1\n      calldatasize\n      sub\n      dup2\n      add\n      swap1\n      tag_17\n      swap2\n      swap1\n      tag_18\n      jump\t// in\n    tag_17:\n      tag_19\n      jump\t// in\n    tag_16:\n      stop\n        /* \".deps/studying-solidity/testament/Testament.sol\":6829:7122  function addAssetsInTestament() external payable {... */\n    tag_3:\n      tag_20\n      tag_21\n      jump\t// in\n    tag_20:\n      stop\n        /* \".deps/studying-solidity/testament/Testament.sol\":4485:4937  function cancelTestament() external {... */\n    tag_4:\n      callvalue\n      dup1\n      iszero\n      tag_22\n      jumpi\n      0x00\n      dup1\n      revert\n    tag_22:\n      pop\n      tag_23\n      tag_24\n      jump\t// in\n    tag_23:\n      stop\n        /* \".deps/studying-solidity/testament/Testament.sol\":7648:9269  function withdraw(address testator) external {... */\n    tag_5:\n      callvalue\n      dup1\n      iszero\n      tag_25\n      jumpi\n      0x00\n      dup1\n      revert\n    tag_25:\n      pop\n      tag_26\n      0x04\n      dup1\n      calldatasize\n      sub\n      dup2\n      add\n      swap1\n      tag_27\n      swap2\n      swap1\n      tag_28\n      jump\t// in\n    tag_27:\n      tag_29\n      jump\t// in\n    tag_26:\n      stop\n        /* \".deps/studying-solidity/testament/Testament.sol\":308:365  mapping(address => address[]) public inheritorToTestators */\n    tag_6:\n      callvalue\n      dup1\n      iszero\n      tag_30\n      jumpi\n      0x00\n      dup1\n      revert\n    tag_30:\n      pop\n      tag_31\n      0x04\n      dup1\n      calldatasize\n      sub\n      dup2\n      add\n      swap1\n      tag_32\n      swap2\n      swap1\n      tag_33\n      jump\t// in\n    tag_32:\n      tag_34\n      jump\t// in\n    tag_31:\n      mload(0x40)\n      tag_35\n      swap2\n      swap1\n      tag_36\n      jump\t// in\n    tag_35:\n      mload(0x40)\n      dup1\n      swap2\n      sub\n      swap1\n      return\n        /* \".deps/studying-solidity/testament/Testament.sol\":7128:7615  function removeAssetsInTestament(uint256 value) external {... */\n    tag_7:\n      callvalue\n      dup1\n      iszero\n      tag_37\n      jumpi\n      0x00\n      dup1\n      revert\n    tag_37:\n      pop\n      tag_38\n      0x04\n      dup1\n      calldatasize\n      sub\n      dup2\n      add\n      swap1\n      tag_39\n      swap2\n      swap1\n      tag_40\n      jump\t// in\n    tag_39:\n      tag_41\n      jump\t// in\n    tag_38:\n      stop\n        /* \".deps/studying-solidity/testament/Testament.sol\":188:234  mapping(address => Testament) public testament */\n    tag_8:\n      callvalue\n      dup1\n      iszero\n      tag_42\n      jumpi\n      0x00\n      dup1\n      revert\n    tag_42:\n      pop\n      tag_43\n      0x04\n      dup1\n      calldatasize\n      sub\n      dup2\n      add\n      swap1\n      tag_44\n      swap2\n      swap1\n      tag_28\n      jump\t// in\n    tag_44:\n      tag_45\n      jump\t// in\n    tag_43:\n      mload(0x40)\n      tag_46\n      swap4\n      swap3\n      swap2\n      swap1\n      tag_47\n      jump\t// in\n    tag_46:\n      mload(0x40)\n      dup1\n      swap2\n      sub\n      swap1\n      return\n        /* \".deps/studying-solidity/testament/Testament.sol\":1808:3013  function getMyTestament(address testator)... */\n    tag_9:\n      callvalue\n      dup1\n      iszero\n      tag_48\n      jumpi\n      0x00\n      dup1\n      revert\n    tag_48:\n      pop\n      tag_49\n      0x04\n      dup1\n      calldatasize\n      sub\n      dup2\n      add\n      swap1\n      tag_50\n      swap2\n      swap1\n      tag_28\n      jump\t// in\n    tag_50:\n      tag_51\n      jump\t// in\n    tag_49:\n      mload(0x40)\n      tag_52\n      swap6\n      swap5\n      swap4\n      swap3\n      swap2\n      swap1\n      tag_53\n      jump\t// in\n    tag_52:\n      mload(0x40)\n      dup1\n      swap2\n      sub\n      swap1\n      return\n        /* \".deps/studying-solidity/testament/Testament.sol\":4943:5204  function updateProofOfLife() public {... */\n    tag_10:\n      callvalue\n      dup1\n      iszero\n      tag_54\n      jumpi\n      0x00\n      dup1\n      revert\n    tag_54:\n      pop\n      tag_55\n      tag_56\n      jump\t// in\n    tag_55:\n      stop\n        /* \".deps/studying-solidity/testament/Testament.sol\":3019:3264  function getMyTestators() external view returns (address[] memory) {... */\n    tag_11:\n      callvalue\n      dup1\n      iszero\n      tag_57\n      jumpi\n      0x00\n      dup1\n      revert\n    tag_57:\n      pop\n      tag_58\n      tag_59\n      jump\t// in\n    tag_58:\n      mload(0x40)\n      tag_60\n      swap2\n      swap1\n      tag_61\n      jump\t// in\n    tag_60:\n      mload(0x40)\n      dup1\n      swap2\n      sub\n      swap1\n      return\n        /* \".deps/studying-solidity/testament/Testament.sol\":372:1802  function createInheritance(... */\n    tag_12:\n      tag_62\n      0x04\n      dup1\n      calldatasize\n      sub\n      dup2\n      add\n      swap1\n      tag_63\n      swap2\n      swap1\n      tag_64\n      jump\t// in\n    tag_63:\n      tag_65\n      jump\t// in\n    tag_62:\n      stop\n        /* \".deps/studying-solidity/testament/Testament.sol\":6465:6823  function inheritorsCanWithdraw(address testator)... */\n    tag_13:\n      callvalue\n      dup1\n      iszero\n      tag_66\n      jumpi\n      0x00\n      dup1\n      revert\n    tag_66:\n      pop\n      tag_67\n      0x04\n      dup1\n      calldatasize\n      sub\n      dup2\n      add\n      swap1\n      tag_68\n      swap2\n      swap1\n      tag_28\n      jump\t// in\n    tag_68:\n      tag_69\n      jump\t// in\n    tag_67:\n      mload(0x40)\n      tag_70\n      swap2\n      swap1\n      tag_71\n      jump\t// in\n    tag_70:\n      mload(0x40)\n      dup1\n      swap2\n      sub\n      swap1\n      return\n        /* \".deps/studying-solidity/testament/Testament.sol\":3270:4479  function editInheritorsInMyTestament(... */\n    tag_19:\n        /* \".deps/studying-solidity/testament/Testament.sol\":3419:3440  address _ownTestament */\n      0x00\n        /* \".deps/studying-solidity/testament/Testament.sol\":3443:3453  msg.sender */\n      caller\n        /* \".deps/studying-solidity/testament/Testament.sol\":3419:3453  address _ownTestament = msg.sender */\n      swap1\n      pop\n        /* \".deps/studying-solidity/testament/Testament.sol\":3514:3515  0 */\n      0x00\n        /* \".deps/studying-solidity/testament/Testament.sol\":3484:3503  inheritorsAddresses */\n      dup6\n      dup6\n        /* \".deps/studying-solidity/testament/Testament.sol\":3484:3510  inheritorsAddresses.length */\n      swap1\n      pop\n        /* \".deps/studying-solidity/testament/Testament.sol\":3484:3515  inheritorsAddresses.length != 0 */\n      sub\n        /* \".deps/studying-solidity/testament/Testament.sol\":3463:3583  require(... */\n      tag_73\n      jumpi\n      mload(0x40)\n      0x08c379a000000000000000000000000000000000000000000000000000000000\n      dup2\n      mstore\n      0x04\n      add\n      tag_74\n      swap1\n      tag_75\n      jump\t// in\n    tag_74:\n      mload(0x40)\n      dup1\n      swap2\n      sub\n      swap1\n      revert\n    tag_73:\n        /* \".deps/studying-solidity/testament/Testament.sol\":3644:3655  percentages */\n      dup3\n      dup3\n        /* \".deps/studying-solidity/testament/Testament.sol\":3644:3662  percentages.length */\n      swap1\n      pop\n        /* \".deps/studying-solidity/testament/Testament.sol\":3614:3633  inheritorsAddresses */\n      dup6\n      dup6\n        /* \".deps/studying-solidity/testament/Testament.sol\":3614:3640  inheritorsAddresses.length */\n      swap1\n      pop\n        /* \".deps/studying-solidity/testament/Testament.sol\":3614:3662  inheritorsAddresses.length == percentages.length */\n      eq\n        /* \".deps/studying-solidity/testament/Testament.sol\":3593:3758  require(... */\n      tag_76\n      jumpi\n      mload(0x40)\n      0x08c379a000000000000000000000000000000000000000000000000000000000\n      dup2\n      mstore\n      0x04\n      add\n      tag_77\n      swap1\n      tag_78\n      jump\t// in\n    tag_77:\n      mload(0x40)\n      dup1\n      swap2\n      sub\n      swap1\n      revert\n    tag_76:\n        /* \".deps/studying-solidity/testament/Testament.sol\":3769:3813  clearOldInheritorsOfTestament(_ownTestament) */\n      tag_79\n        /* \".deps/studying-solidity/testament/Testament.sol\":3799:3812  _ownTestament */\n      dup2\n        /* \".deps/studying-solidity/testament/Testament.sol\":3769:3798  clearOldInheritorsOfTestament */\n      tag_80\n        /* \".deps/studying-solidity/testament/Testament.sol\":3769:3813  clearOldInheritorsOfTestament(_ownTestament) */\n      jump\t// in\n    tag_79:\n        /* \".deps/studying-solidity/testament/Testament.sol\":3932:3941  testament */\n      0x00\n        /* \".deps/studying-solidity/testament/Testament.sol\":3932:3956  testament[_ownTestament] */\n      dup1\n        /* \".deps/studying-solidity/testament/Testament.sol\":3942:3955  _ownTestament */\n      dup3\n        /* \".deps/studying-solidity/testament/Testament.sol\":3932:3956  testament[_ownTestament] */\n      0xffffffffffffffffffffffffffffffffffffffff\n      and\n      0xffffffffffffffffffffffffffffffffffffffff\n      and\n      dup2\n      mstore\n      0x20\n      add\n      swap1\n      dup2\n      mstore\n      0x20\n      add\n      0x00\n      keccak256\n        /* \".deps/studying-solidity/testament/Testament.sol\":3932:3967  testament[_ownTestament].inheritors */\n      0x00\n      add\n      0x00\n        /* \".deps/studying-solidity/testament/Testament.sol\":3925:3967  delete testament[_ownTestament].inheritors */\n      tag_81\n      swap2\n      swap1\n      tag_82\n      jump\t// in\n    tag_81:\n        /* \".deps/studying-solidity/testament/Testament.sol\":3983:3992  uint256 i */\n      0x00\n        /* \".deps/studying-solidity/testament/Testament.sol\":3978:4473  for (uint256 i = 0; i < inheritorsAddresses.length; i++) {... */\n    tag_83:\n        /* \".deps/studying-solidity/testament/Testament.sol\":4002:4021  inheritorsAddresses */\n      dup6\n      dup6\n        /* \".deps/studying-solidity/testament/Testament.sol\":4002:4028  inheritorsAddresses.length */\n      swap1\n      pop\n        /* \".deps/studying-solidity/testament/Testament.sol\":3998:3999  i */\n      dup2\n        /* \".deps/studying-solidity/testament/Testament.sol\":3998:4028  i < inheritorsAddresses.length */\n      lt\n        /* \".deps/studying-solidity/testament/Testament.sol\":3978:4473  for (uint256 i = 0; i < inheritorsAddresses.length; i++) {... */\n      iszero\n      tag_84\n      jumpi\n        /* \".deps/studying-solidity/testament/Testament.sol\":4049:4076  Inheritor memory _inheritor */\n      0x00\n        /* \".deps/studying-solidity/testament/Testament.sol\":4079:4196  Inheritor(... */\n      mload(0x40)\n      dup1\n      0x60\n      add\n      0x40\n      mstore\n      dup1\n        /* \".deps/studying-solidity/testament/Testament.sol\":4106:4125  inheritorsAddresses */\n      dup9\n      dup9\n        /* \".deps/studying-solidity/testament/Testament.sol\":4126:4127  i */\n      dup6\n        /* \".deps/studying-solidity/testament/Testament.sol\":4106:4128  inheritorsAddresses[i] */\n      dup2\n      dup2\n      lt\n      tag_86\n      jumpi\n      tag_87\n      tag_88\n      jump\t// in\n    tag_87:\n    tag_86:\n      swap1\n      pop\n      0x20\n      mul\n      add\n      0x20\n      dup2\n      add\n      swap1\n      tag_89\n      swap2\n      swap1\n      tag_28\n      jump\t// in\n    tag_89:\n        /* \".deps/studying-solidity/testament/Testament.sol\":4079:4196  Inheritor(... */\n      0xffffffffffffffffffffffffffffffffffffffff\n      and\n      dup2\n      mstore\n      0x20\n      add\n        /* \".deps/studying-solidity/testament/Testament.sol\":4146:4157  percentages */\n      dup7\n      dup7\n        /* \".deps/studying-solidity/testament/Testament.sol\":4158:4159  i */\n      dup6\n        /* \".deps/studying-solidity/testament/Testament.sol\":4146:4160  percentages[i] */\n      dup2\n      dup2\n      lt\n      tag_90\n      jumpi\n      tag_91\n      tag_88\n      jump\t// in\n    tag_91:\n    tag_90:\n      swap1\n      pop\n      0x20\n      mul\n      add\n      0x20\n      dup2\n      add\n      swap1\n      tag_92\n      swap2\n      swap1\n      tag_93\n      jump\t// in\n    tag_92:\n        /* \".deps/studying-solidity/testament/Testament.sol\":4079:4196  Inheritor(... */\n      0xffff\n      and\n      dup2\n      mstore\n      0x20\n      add\n        /* \".deps/studying-solidity/testament/Testament.sol\":4178:4182  true */\n      0x01\n        /* \".deps/studying-solidity/testament/Testament.sol\":4079:4196  Inheritor(... */\n      iszero\n      iszero\n      dup2\n      mstore\n      pop\n        /* \".deps/studying-solidity/testament/Testament.sol\":4049:4196  Inheritor memory _inheritor = Inheritor(... */\n      swap1\n      pop\n        /* \".deps/studying-solidity/testament/Testament.sol\":4263:4272  testament */\n      0x00\n        /* \".deps/studying-solidity/testament/Testament.sol\":4263:4287  testament[_ownTestament] */\n      dup1\n        /* \".deps/studying-solidity/testament/Testament.sol\":4273:4286  _ownTestament */\n      dup5\n        /* \".deps/studying-solidity/testament/Testament.sol\":4263:4287  testament[_ownTestament] */\n      0xffffffffffffffffffffffffffffffffffffffff\n      and\n      0xffffffffffffffffffffffffffffffffffffffff\n      and\n      dup2\n      mstore\n      0x20\n      add\n      swap1\n      dup2\n      mstore\n      0x20\n      add\n      0x00\n      keccak256\n        /* \".deps/studying-solidity/testament/Testament.sol\":4263:4298  testament[_ownTestament].inheritors */\n      0x00\n      add\n        /* \".deps/studying-solidity/testament/Testament.sol\":4304:4314  _inheritor */\n      dup2\n        /* \".deps/studying-solidity/testament/Testament.sol\":4263:4315  testament[_ownTestament].inheritors.push(_inheritor) */\n      swap1\n      dup1\n      0x01\n      dup2\n      sload\n      add\n      dup1\n      dup3\n      sstore\n      dup1\n      swap2\n      pop\n      pop\n      0x01\n      swap1\n      sub\n      swap1\n      0x00\n      mstore\n      keccak256(0x00, 0x20)\n      add\n      0x00\n      swap1\n      swap2\n      swap1\n      swap2\n      swap1\n      swap2\n      pop\n      0x00\n      dup3\n      add\n      mload\n      dup2\n      0x00\n      add\n      exp(0x0100, 0x00)\n      dup2\n      sload\n      dup2\n      0xffffffffffffffffffffffffffffffffffffffff\n      mul\n      not\n      and\n      swap1\n      dup4\n      0xffffffffffffffffffffffffffffffffffffffff\n      and\n      mul\n      or\n      swap1\n      sstore\n      pop\n      0x20\n      dup3\n      add\n      mload\n      dup2\n      0x00\n      add\n      exp(0x0100, 0x14)\n      dup2\n      sload\n      dup2\n      0xffff\n      mul\n      not\n      and\n      swap1\n      dup4\n      0xffff\n      and\n      mul\n      or\n      swap1\n      sstore\n      pop\n      0x40\n      dup3\n      add\n      mload\n      dup2\n      0x00\n      add\n      exp(0x0100, 0x16)\n      dup2\n      sload\n      dup2\n      0xff\n      mul\n      not\n      and\n      swap1\n      dup4\n      iszero\n      iszero\n      mul\n      or\n      swap1\n      sstore\n      pop\n      pop\n      pop\n        /* \".deps/studying-solidity/testament/Testament.sol\":4398:4418  inheritorToTestators */\n      0x01\n        /* \".deps/studying-solidity/testament/Testament.sol\":4398:4442  inheritorToTestators[inheritorsAddresses[i]] */\n      0x00\n        /* \".deps/studying-solidity/testament/Testament.sol\":4419:4438  inheritorsAddresses */\n      dup9\n      dup9\n        /* \".deps/studying-solidity/testament/Testament.sol\":4439:4440  i */\n      dup6\n        /* \".deps/studying-solidity/testament/Testament.sol\":4419:4441  inheritorsAddresses[i] */\n      dup2\n      dup2\n      lt\n      tag_95\n      jumpi\n      tag_96\n      tag_88\n      jump\t// in\n    tag_96:\n    tag_95:\n      swap1\n      pop\n      0x20\n      mul\n      add\n      0x20\n      dup2\n      add\n      swap1\n      tag_97\n      swap2\n      swap1\n      tag_28\n      jump\t// in\n    tag_97:\n        /* \".deps/studying-solidity/testament/Testament.sol\":4398:4442  inheritorToTestators[inheritorsAddresses[i]] */\n      0xffffffffffffffffffffffffffffffffffffffff\n      and\n      0xffffffffffffffffffffffffffffffffffffffff\n      and\n      dup2\n      mstore\n      0x20\n      add\n      swap1\n      dup2\n      mstore\n      0x20\n      add\n      0x00\n      keccak256\n        /* \".deps/studying-solidity/testament/Testament.sol\":4448:4461  _ownTestament */\n      dup4\n        /* \".deps/studying-solidity/testament/Testament.sol\":4398:4462  inheritorToTestators[inheritorsAddresses[i]].push(_ownTestament) */\n      swap1\n      dup1\n      0x01\n      dup2\n      sload\n      add\n      dup1\n      dup3\n      sstore\n      dup1\n      swap2\n      pop\n      pop\n      0x01\n      swap1\n      sub\n      swap1\n      0x00\n      mstore\n      keccak256(0x00, 0x20)\n      add\n      0x00\n      swap1\n      swap2\n      swap1\n      swap2\n      swap1\n      swap2\n      0x0100\n      exp\n      dup2\n      sload\n      dup2\n      0xffffffffffffffffffffffffffffffffffffffff\n      mul\n      not\n      and\n      swap1\n      dup4\n      0xffffffffffffffffffffffffffffffffffffffff\n      and\n      mul\n      or\n      swap1\n      sstore\n      pop\n        /* \".deps/studying-solidity/testament/Testament.sol\":4035:4473  {... */\n      pop\n        /* \".deps/studying-solidity/testament/Testament.sol\":4030:4033  i++ */\n      dup1\n      dup1\n      0x01\n      add\n      swap2\n      pop\n      pop\n        /* \".deps/studying-solidity/testament/Testament.sol\":3978:4473  for (uint256 i = 0; i < inheritorsAddresses.length; i++) {... */\n      jump(tag_83)\n    tag_84:\n      pop\n        /* \".deps/studying-solidity/testament/Testament.sol\":3409:4479  {... */\n      pop\n        /* \".deps/studying-solidity/testament/Testament.sol\":3270:4479  function editInheritorsInMyTestament(... */\n      pop\n      pop\n      pop\n      pop\n      jump\t// out\n        /* \".deps/studying-solidity/testament/Testament.sol\":6829:7122  function addAssetsInTestament() external payable {... */\n    tag_21:\n        /* \".deps/studying-solidity/testament/Testament.sol\":6940:6944  true */\n      0x01\n        /* \".deps/studying-solidity/testament/Testament.sol\":6909:6944  testament[msg.sender].exist == true */\n      iszero\n      iszero\n        /* \".deps/studying-solidity/testament/Testament.sol\":6909:6918  testament */\n      0x00\n        /* \".deps/studying-solidity/testament/Testament.sol\":6909:6930  testament[msg.sender] */\n      dup1\n        /* \".deps/studying-solidity/testament/Testament.sol\":6919:6929  msg.sender */\n      caller\n        /* \".deps/studying-solidity/testament/Testament.sol\":6909:6930  testament[msg.sender] */\n      0xffffffffffffffffffffffffffffffffffffffff\n      and\n      0xffffffffffffffffffffffffffffffffffffffff\n      and\n      dup2\n      mstore\n      0x20\n      add\n      swap1\n      dup2\n      mstore\n      0x20\n      add\n      0x00\n      keccak256\n        /* \".deps/studying-solidity/testament/Testament.sol\":6909:6936  testament[msg.sender].exist */\n      0x01\n      add\n      0x00\n      swap1\n      sload\n      swap1\n      0x0100\n      exp\n      swap1\n      div\n      0xff\n      and\n        /* \".deps/studying-solidity/testament/Testament.sol\":6909:6944  testament[msg.sender].exist == true */\n      iszero\n      iszero\n      eq\n        /* \".deps/studying-solidity/testament/Testament.sol\":6888:7003  require(... */\n      tag_100\n      jumpi\n      mload(0x40)\n      0x08c379a000000000000000000000000000000000000000000000000000000000\n      dup2\n      mstore\n      0x04\n      add\n      tag_101\n      swap1\n      tag_102\n      jump\t// in\n    tag_101:\n      mload(0x40)\n      dup1\n      swap2\n      sub\n      swap1\n      revert\n    tag_100:\n        /* \".deps/studying-solidity/testament/Testament.sol\":7033:7034  0 */\n      0x00\n        /* \".deps/studying-solidity/testament/Testament.sol\":7021:7030  msg.value */\n      callvalue\n        /* \".deps/studying-solidity/testament/Testament.sol\":7021:7034  msg.value > 0 */\n      gt\n        /* \".deps/studying-solidity/testament/Testament.sol\":7013:7054  require(msg.value > 0, \"insira um valor\") */\n      tag_103\n      jumpi\n      mload(0x40)\n      0x08c379a000000000000000000000000000000000000000000000000000000000\n      dup2\n      mstore\n      0x04\n      add\n      tag_104\n      swap1\n      tag_105\n      jump\t// in\n    tag_104:\n      mload(0x40)\n      dup1\n      swap2\n      sub\n      swap1\n      revert\n    tag_103:\n        /* \".deps/studying-solidity/testament/Testament.sol\":7106:7115  msg.value */\n      callvalue\n        /* \".deps/studying-solidity/testament/Testament.sol\":7064:7073  testament */\n      0x00\n        /* \".deps/studying-solidity/testament/Testament.sol\":7064:7085  testament[msg.sender] */\n      dup1\n        /* \".deps/studying-solidity/testament/Testament.sol\":7074:7084  msg.sender */\n      caller\n        /* \".deps/studying-solidity/testament/Testament.sol\":7064:7085  testament[msg.sender] */\n      0xffffffffffffffffffffffffffffffffffffffff\n      and\n      0xffffffffffffffffffffffffffffffffffffffff\n      and\n      dup2\n      mstore\n      0x20\n      add\n      swap1\n      dup2\n      mstore\n      0x20\n      add\n      0x00\n      keccak256\n        /* \".deps/studying-solidity/testament/Testament.sol\":7064:7102  testament[msg.sender].inheritanceValue */\n      0x02\n      add\n      0x00\n        /* \".deps/studying-solidity/testament/Testament.sol\":7064:7115  testament[msg.sender].inheritanceValue += msg.value */\n      dup3\n      dup3\n      sload\n      tag_106\n      swap2\n      swap1\n      tag_107\n      jump\t// in\n    tag_106:\n      swap3\n      pop\n      pop\n      dup2\n      swap1\n      sstore\n      pop\n        /* \".deps/studying-solidity/testament/Testament.sol\":6829:7122  function addAssetsInTestament() external payable {... */\n      jump\t// out\n        /* \".deps/studying-solidity/testament/Testament.sol\":4485:4937  function cancelTestament() external {... */\n    tag_24:\n        /* \".deps/studying-solidity/testament/Testament.sol\":4531:4552  address _ownTestament */\n      0x00\n        /* \".deps/studying-solidity/testament/Testament.sol\":4555:4565  msg.sender */\n      caller\n        /* \".deps/studying-solidity/testament/Testament.sol\":4531:4565  address _ownTestament = msg.sender */\n      swap1\n      pop\n        /* \".deps/studying-solidity/testament/Testament.sol\":4584:4593  testament */\n      0x00\n        /* \".deps/studying-solidity/testament/Testament.sol\":4584:4608  testament[_ownTestament] */\n      dup1\n        /* \".deps/studying-solidity/testament/Testament.sol\":4594:4607  _ownTestament */\n      dup3\n        /* \".deps/studying-solidity/testament/Testament.sol\":4584:4608  testament[_ownTestament] */\n      0xffffffffffffffffffffffffffffffffffffffff\n      and\n      0xffffffffffffffffffffffffffffffffffffffff\n      and\n      dup2\n      mstore\n      0x20\n      add\n      swap1\n      dup2\n      mstore\n      0x20\n      add\n      0x00\n      keccak256\n        /* \".deps/studying-solidity/testament/Testament.sol\":4584:4614  testament[_ownTestament].exist */\n      0x01\n      add\n      0x00\n      swap1\n      sload\n      swap1\n      0x0100\n      exp\n      swap1\n      div\n      0xff\n      and\n        /* \".deps/studying-solidity/testament/Testament.sol\":4576:4645  require(testament[_ownTestament].exist, \"voce nao possui testamento\") */\n      tag_109\n      jumpi\n      mload(0x40)\n      0x08c379a000000000000000000000000000000000000000000000000000000000\n      dup2\n      mstore\n      0x04\n      add\n      tag_110\n      swap1\n      tag_111\n      jump\t// in\n    tag_110:\n      mload(0x40)\n      dup1\n      swap2\n      sub\n      swap1\n      revert\n    tag_109:\n        /* \".deps/studying-solidity/testament/Testament.sol\":4656:4668  bool success */\n      0x00\n        /* \".deps/studying-solidity/testament/Testament.sol\":4674:4684  msg.sender */\n      caller\n        /* \".deps/studying-solidity/testament/Testament.sol\":4674:4689  msg.sender.call */\n      0xffffffffffffffffffffffffffffffffffffffff\n      and\n        /* \".deps/studying-solidity/testament/Testament.sol\":4710:4719  testament */\n      0x00\n        /* \".deps/studying-solidity/testament/Testament.sol\":4710:4734  testament[_ownTestament] */\n      dup1\n        /* \".deps/studying-solidity/testament/Testament.sol\":4720:4733  _ownTestament */\n      dup5\n        /* \".deps/studying-solidity/testament/Testament.sol\":4710:4734  testament[_ownTestament] */\n      0xffffffffffffffffffffffffffffffffffffffff\n      and\n      0xffffffffffffffffffffffffffffffffffffffff\n      and\n      dup2\n      mstore\n      0x20\n      add\n      swap1\n      dup2\n      mstore\n      0x20\n      add\n      0x00\n      keccak256\n        /* \".deps/studying-solidity/testament/Testament.sol\":4710:4751  testament[_ownTestament].inheritanceValue */\n      0x02\n      add\n      sload\n        /* \".deps/studying-solidity/testament/Testament.sol\":4674:4765  msg.sender.call{... */\n      mload(0x40)\n      tag_112\n      swap1\n      tag_113\n      jump\t// in\n    tag_112:\n      0x00\n      mload(0x40)\n      dup1\n      dup4\n      sub\n      dup2\n      dup6\n      dup8\n      gas\n      call\n      swap3\n      pop\n      pop\n      pop\n      returndatasize\n      dup1\n      0x00\n      dup2\n      eq\n      tag_116\n      jumpi\n      mload(0x40)\n      swap2\n      pop\n      and(add(returndatasize, 0x3f), not(0x1f))\n      dup3\n      add\n      0x40\n      mstore\n      returndatasize\n      dup3\n      mstore\n      returndatasize\n      0x00\n      0x20\n      dup5\n      add\n      returndatacopy\n      jump(tag_115)\n    tag_116:\n      0x60\n      swap2\n      pop\n    tag_115:\n      pop\n        /* \".deps/studying-solidity/testament/Testament.sol\":4655:4765  (bool success, ) = msg.sender.call{... */\n      pop\n      swap1\n      pop\n        /* \".deps/studying-solidity/testament/Testament.sol\":4783:4790  success */\n      dup1\n        /* \".deps/studying-solidity/testament/Testament.sol\":4775:4833  require(success, \"cancelTestament(), Falha ao enviar ETH\") */\n      tag_117\n      jumpi\n      mload(0x40)\n      0x08c379a000000000000000000000000000000000000000000000000000000000\n      dup2\n      mstore\n      0x04\n      add\n      tag_118\n      swap1\n      tag_119\n      jump\t// in\n    tag_118:\n      mload(0x40)\n      dup1\n      swap2\n      sub\n      swap1\n      revert\n    tag_117:\n        /* \".deps/studying-solidity/testament/Testament.sol\":4844:4888  clearOldInheritorsOfTestament(_ownTestament) */\n      tag_120\n        /* \".deps/studying-solidity/testament/Testament.sol\":4874:4887  _ownTestament */\n      dup3\n        /* \".deps/studying-solidity/testament/Testament.sol\":4844:4873  clearOldInheritorsOfTestament */\n      tag_80\n        /* \".deps/studying-solidity/testament/Testament.sol\":4844:4888  clearOldInheritorsOfTestament(_ownTestament) */\n      jump\t// in\n    tag_120:\n        /* \".deps/studying-solidity/testament/Testament.sol\":4906:4915  testament */\n      0x00\n        /* \".deps/studying-solidity/testament/Testament.sol\":4906:4930  testament[_ownTestament] */\n      dup1\n        /* \".deps/studying-solidity/testament/Testament.sol\":4916:4929  _ownTestament */\n      dup4\n        /* \".deps/studying-solidity/testament/Testament.sol\":4906:4930  testament[_ownTestament] */\n      0xffffffffffffffffffffffffffffffffffffffff\n      and\n      0xffffffffffffffffffffffffffffffffffffffff\n      and\n      dup2\n      mstore\n      0x20\n      add\n      swap1\n      dup2\n      mstore\n      0x20\n      add\n      0x00\n      keccak256\n      0x00\n        /* \".deps/studying-solidity/testament/Testament.sol\":4899:4930  delete testament[_ownTestament] */\n      dup1\n      dup3\n      add\n      0x00\n      tag_121\n      swap2\n      swap1\n      tag_82\n      jump\t// in\n    tag_121:\n      0x01\n      dup3\n      add\n      exp(0x0100, 0x00)\n      dup2\n      sload\n      swap1\n      0xff\n      mul\n      not\n      and\n      swap1\n      sstore\n      0x01\n      dup3\n      add\n      exp(0x0100, 0x01)\n      dup2\n      sload\n      swap1\n      0xffffffffffffffffffffffffffffffff\n      mul\n      not\n      and\n      swap1\n      sstore\n      0x02\n      dup3\n      add\n      0x00\n      swap1\n      sstore\n      pop\n      pop\n        /* \".deps/studying-solidity/testament/Testament.sol\":4521:4937  {... */\n      pop\n      pop\n        /* \".deps/studying-solidity/testament/Testament.sol\":4485:4937  function cancelTestament() external {... */\n      jump\t// out\n        /* \".deps/studying-solidity/testament/Testament.sol\":7648:9269  function withdraw(address testator) external {... */\n    tag_29:\n        /* \".deps/studying-solidity/testament/Testament.sol\":7703:7721  address _inheritor */\n      0x00\n        /* \".deps/studying-solidity/testament/Testament.sol\":7724:7734  msg.sender */\n      caller\n        /* \".deps/studying-solidity/testament/Testament.sol\":7703:7734  address _inheritor = msg.sender */\n      swap1\n      pop\n        /* \".deps/studying-solidity/testament/Testament.sol\":7807:7838  inheritorsCanWithdraw(testator) */\n      tag_123\n        /* \".deps/studying-solidity/testament/Testament.sol\":7829:7837  testator */\n      dup3\n        /* \".deps/studying-solidity/testament/Testament.sol\":7807:7828  inheritorsCanWithdraw */\n      tag_69\n        /* \".deps/studying-solidity/testament/Testament.sol\":7807:7838  inheritorsCanWithdraw(testator) */\n      jump\t// in\n    tag_123:\n        /* \".deps/studying-solidity/testament/Testament.sol\":7786:7897  require(... */\n      tag_124\n      jumpi\n      mload(0x40)\n      0x08c379a000000000000000000000000000000000000000000000000000000000\n      dup2\n      mstore\n      0x04\n      add\n      tag_125\n      swap1\n      tag_126\n      jump\t// in\n    tag_125:\n      mload(0x40)\n      dup1\n      swap2\n      sub\n      swap1\n      revert\n    tag_124:\n        /* \".deps/studying-solidity/testament/Testament.sol\":7956:7957  0 */\n      0x00\n        /* \".deps/studying-solidity/testament/Testament.sol\":7916:7925  testament */\n      dup1\n        /* \".deps/studying-solidity/testament/Testament.sol\":7916:7935  testament[testator] */\n      0x00\n        /* \".deps/studying-solidity/testament/Testament.sol\":7926:7934  testator */\n      dup5\n        /* \".deps/studying-solidity/testament/Testament.sol\":7916:7935  testament[testator] */\n      0xffffffffffffffffffffffffffffffffffffffff\n      and\n      0xffffffffffffffffffffffffffffffffffffffff\n      and\n      dup2\n      mstore\n      0x20\n      add\n      swap1\n      dup2\n      mstore\n      0x20\n      add\n      0x00\n      keccak256\n        /* \".deps/studying-solidity/testament/Testament.sol\":7916:7946  testament[testator].inheritors */\n      0x00\n      add\n        /* \".deps/studying-solidity/testament/Testament.sol\":7916:7953  testament[testator].inheritors.length */\n      dup1\n      sload\n      swap1\n      pop\n        /* \".deps/studying-solidity/testament/Testament.sol\":7916:7957  testament[testator].inheritors.length > 0 */\n      gt\n        /* \".deps/studying-solidity/testament/Testament.sol\":7908:7979  require(testament[testator].inheritors.length > 0, \"nao tem herdeiros\") */\n      tag_127\n      jumpi\n      mload(0x40)\n      0x08c379a000000000000000000000000000000000000000000000000000000000\n      dup2\n      mstore\n      0x04\n      add\n      tag_128\n      swap1\n      tag_129\n      jump\t// in\n    tag_128:\n      mload(0x40)\n      dup1\n      swap2\n      sub\n      swap1\n      revert\n    tag_127:\n        /* \".deps/studying-solidity/testament/Testament.sol\":7995:8004  uint256 i */\n      0x00\n        /* \".deps/studying-solidity/testament/Testament.sol\":7990:9263  for (uint256 i = 0; i < testament[testator].inheritors.length; i++) {... */\n    tag_130:\n        /* \".deps/studying-solidity/testament/Testament.sol\":8014:8023  testament */\n      0x00\n        /* \".deps/studying-solidity/testament/Testament.sol\":8014:8033  testament[testator] */\n      dup1\n        /* \".deps/studying-solidity/testament/Testament.sol\":8024:8032  testator */\n      dup5\n        /* \".deps/studying-solidity/testament/Testament.sol\":8014:8033  testament[testator] */\n      0xffffffffffffffffffffffffffffffffffffffff\n      and\n      0xffffffffffffffffffffffffffffffffffffffff\n      and\n      dup2\n      mstore\n      0x20\n      add\n      swap1\n      dup2\n      mstore\n      0x20\n      add\n      0x00\n      keccak256\n        /* \".deps/studying-solidity/testament/Testament.sol\":8014:8044  testament[testator].inheritors */\n      0x00\n      add\n        /* \".deps/studying-solidity/testament/Testament.sol\":8014:8051  testament[testator].inheritors.length */\n      dup1\n      sload\n      swap1\n      pop\n        /* \".deps/studying-solidity/testament/Testament.sol\":8010:8011  i */\n      dup2\n        /* \".deps/studying-solidity/testament/Testament.sol\":8010:8051  i < testament[testator].inheritors.length */\n      lt\n        /* \".deps/studying-solidity/testament/Testament.sol\":7990:9263  for (uint256 i = 0; i < testament[testator].inheritors.length; i++) {... */\n      iszero\n      tag_131\n      jumpi\n        /* \".deps/studying-solidity/testament/Testament.sol\":8072:8109  Inheritor memory inheritorOfTestament */\n      0x00\n        /* \".deps/studying-solidity/testament/Testament.sol\":8112:8121  testament */\n      dup1\n        /* \".deps/studying-solidity/testament/Testament.sol\":8112:8131  testament[testator] */\n      0x00\n        /* \".deps/studying-solidity/testament/Testament.sol\":8122:8130  testator */\n      dup6\n        /* \".deps/studying-solidity/testament/Testament.sol\":8112:8131  testament[testator] */\n      0xffffffffffffffffffffffffffffffffffffffff\n      and\n      0xffffffffffffffffffffffffffffffffffffffff\n      and\n      dup2\n      mstore\n      0x20\n      add\n      swap1\n      dup2\n      mstore\n      0x20\n      add\n      0x00\n      keccak256\n        /* \".deps/studying-solidity/testament/Testament.sol\":8112:8159  testament[testator]... */\n      0x00\n      add\n        /* \".deps/studying-solidity/testament/Testament.sol\":8160:8161  i */\n      dup3\n        /* \".deps/studying-solidity/testament/Testament.sol\":8112:8162  testament[testator]... */\n      dup2\n      sload\n      dup2\n      lt\n      tag_133\n      jumpi\n      tag_134\n      tag_88\n      jump\t// in\n    tag_134:\n    tag_133:\n      swap1\n      0x00\n      mstore\n      keccak256(0x00, 0x20)\n      add\n        /* \".deps/studying-solidity/testament/Testament.sol\":8072:8162  Inheritor memory inheritorOfTestament = testament[testator]... */\n      mload(0x40)\n      dup1\n      0x60\n      add\n      0x40\n      mstore\n      swap1\n      dup2\n      0x00\n      dup3\n      add\n      0x00\n      swap1\n      sload\n      swap1\n      0x0100\n      exp\n      swap1\n      div\n      0xffffffffffffffffffffffffffffffffffffffff\n      and\n      0xffffffffffffffffffffffffffffffffffffffff\n      and\n      0xffffffffffffffffffffffffffffffffffffffff\n      and\n      dup2\n      mstore\n      0x20\n      add\n      0x00\n      dup3\n      add\n      0x14\n      swap1\n      sload\n      swap1\n      0x0100\n      exp\n      swap1\n      div\n      0xffff\n      and\n      0xffff\n      and\n      0xffff\n      and\n      dup2\n      mstore\n      0x20\n      add\n      0x00\n      dup3\n      add\n      0x16\n      swap1\n      sload\n      swap1\n      0x0100\n      exp\n      swap1\n      div\n      0xff\n      and\n      iszero\n      iszero\n      iszero\n      iszero\n      dup2\n      mstore\n      pop\n      pop\n      swap1\n      pop\n        /* \".deps/studying-solidity/testament/Testament.sol\":8243:8253  _inheritor */\n      dup3\n        /* \".deps/studying-solidity/testament/Testament.sol\":8202:8253  inheritorOfTestament.inheritorAddress == _inheritor */\n      0xffffffffffffffffffffffffffffffffffffffff\n      and\n        /* \".deps/studying-solidity/testament/Testament.sol\":8202:8222  inheritorOfTestament */\n      dup2\n        /* \".deps/studying-solidity/testament/Testament.sol\":8202:8239  inheritorOfTestament.inheritorAddress */\n      0x00\n      add\n      mload\n        /* \".deps/studying-solidity/testament/Testament.sol\":8202:8253  inheritorOfTestament.inheritorAddress == _inheritor */\n      0xffffffffffffffffffffffffffffffffffffffff\n      and\n      eq\n        /* \".deps/studying-solidity/testament/Testament.sol\":8177:8348  require(... */\n      tag_136\n      jumpi\n      mload(0x40)\n      0x08c379a000000000000000000000000000000000000000000000000000000000\n      dup2\n      mstore\n      0x04\n      add\n      tag_137\n      swap1\n      tag_138\n      jump\t// in\n    tag_137:\n      mload(0x40)\n      dup1\n      swap2\n      sub\n      swap1\n      revert\n    tag_136:\n        /* \".deps/studying-solidity/testament/Testament.sol\":8370:8390  inheritorOfTestament */\n      dup1\n        /* \".deps/studying-solidity/testament/Testament.sol\":8370:8402  inheritorOfTestament.canWithdraw */\n      0x40\n      add\n      mload\n        /* \".deps/studying-solidity/testament/Testament.sol\":8362:8421  require(inheritorOfTestament.canWithdraw, \"nao pode sacar\") */\n      tag_139\n      jumpi\n      mload(0x40)\n      0x08c379a000000000000000000000000000000000000000000000000000000000\n      dup2\n      mstore\n      0x04\n      add\n      tag_140\n      swap1\n      tag_141\n      jump\t// in\n    tag_140:\n      mload(0x40)\n      dup1\n      swap2\n      sub\n      swap1\n      revert\n    tag_139:\n        /* \".deps/studying-solidity/testament/Testament.sol\":8794:8806  bool success */\n      0x00\n        /* \".deps/studying-solidity/testament/Testament.sol\":8841:8861  inheritorOfTestament */\n      dup2\n        /* \".deps/studying-solidity/testament/Testament.sol\":8841:8878  inheritorOfTestament.inheritorAddress */\n      0x00\n      add\n      mload\n        /* \".deps/studying-solidity/testament/Testament.sol\":8812:8901  payable(... */\n      0xffffffffffffffffffffffffffffffffffffffff\n      and\n        /* \".deps/studying-solidity/testament/Testament.sol\":8958:8967  testament */\n      0x00\n        /* \".deps/studying-solidity/testament/Testament.sol\":8958:8979  testament[_inheritor] */\n      dup1\n        /* \".deps/studying-solidity/testament/Testament.sol\":8968:8978  _inheritor */\n      dup7\n        /* \".deps/studying-solidity/testament/Testament.sol\":8958:8979  testament[_inheritor] */\n      0xffffffffffffffffffffffffffffffffffffffff\n      and\n      0xffffffffffffffffffffffffffffffffffffffff\n      and\n      dup2\n      mstore\n      0x20\n      add\n      swap1\n      dup2\n      mstore\n      0x20\n      add\n      0x00\n      keccak256\n        /* \".deps/studying-solidity/testament/Testament.sol\":8958:9017  testament[_inheritor]... */\n      0x02\n      add\n      sload\n        /* \".deps/studying-solidity/testament/Testament.sol\":8812:9087  payable(... */\n      mload(0x40)\n      tag_142\n      swap1\n      tag_113\n      jump\t// in\n    tag_142:\n      0x00\n      mload(0x40)\n      dup1\n      dup4\n      sub\n      dup2\n      dup6\n      dup8\n      gas\n      call\n      swap3\n      pop\n      pop\n      pop\n      returndatasize\n      dup1\n      0x00\n      dup2\n      eq\n      tag_145\n      jumpi\n      mload(0x40)\n      swap2\n      pop\n      and(add(returndatasize, 0x3f), not(0x1f))\n      dup3\n      add\n      0x40\n      mstore\n      returndatasize\n      dup3\n      mstore\n      returndatasize\n      0x00\n      0x20\n      dup5\n      add\n      returndatacopy\n      jump(tag_144)\n    tag_145:\n      0x60\n      swap2\n      pop\n    tag_144:\n      pop\n        /* \".deps/studying-solidity/testament/Testament.sol\":8793:9087  (bool success, ) = payable(... */\n      pop\n      swap1\n      pop\n        /* \".deps/studying-solidity/testament/Testament.sol\":9126:9133  success */\n      dup1\n        /* \".deps/studying-solidity/testament/Testament.sol\":9118:9157  require(success, \"Falha ao enviar ETH\") */\n      tag_146\n      jumpi\n      mload(0x40)\n      0x08c379a000000000000000000000000000000000000000000000000000000000\n      dup2\n      mstore\n      0x04\n      add\n      tag_147\n      swap1\n      tag_148\n      jump\t// in\n    tag_147:\n      mload(0x40)\n      dup1\n      swap2\n      sub\n      swap1\n      revert\n    tag_146:\n        /* \".deps/studying-solidity/testament/Testament.sol\":9210:9215  false */\n      0x00\n        /* \".deps/studying-solidity/testament/Testament.sol\":9175:9195  inheritorOfTestament */\n      dup3\n        /* \".deps/studying-solidity/testament/Testament.sol\":9175:9207  inheritorOfTestament.canWithdraw */\n      0x40\n      add\n        /* \".deps/studying-solidity/testament/Testament.sol\":9175:9215  inheritorOfTestament.canWithdraw = false */\n      swap1\n      iszero\n      iszero\n      swap1\n      dup2\n      iszero\n      iszero\n      dup2\n      mstore\n      pop\n      pop\n        /* \".deps/studying-solidity/testament/Testament.sol\":8058:9263  {... */\n      pop\n      pop\n        /* \".deps/studying-solidity/testament/Testament.sol\":8053:8056  i++ */\n      dup1\n      dup1\n      0x01\n      add\n      swap2\n      pop\n      pop\n        /* \".deps/studying-solidity/testament/Testament.sol\":7990:9263  for (uint256 i = 0; i < testament[testator].inheritors.length; i++) {... */\n      jump(tag_130)\n    tag_131:\n      pop\n        /* \".deps/studying-solidity/testament/Testament.sol\":7693:9269  {... */\n      pop\n        /* \".deps/studying-solidity/testament/Testament.sol\":7648:9269  function withdraw(address testator) external {... */\n      pop\n      jump\t// out\n        /* \".deps/studying-solidity/testament/Testament.sol\":308:365  mapping(address => address[]) public inheritorToTestators */\n    tag_34:\n      mstore(0x20, 0x01)\n      dup2\n      0x00\n      mstore\n      keccak256(0x00, 0x40)\n      dup2\n      dup2\n      sload\n      dup2\n      lt\n      tag_149\n      jumpi\n      0x00\n      dup1\n      revert\n    tag_149:\n      swap1\n      0x00\n      mstore\n      keccak256(0x00, 0x20)\n      add\n      0x00\n      swap2\n      pop\n      swap2\n      pop\n      swap1\n      sload\n      swap1\n      0x0100\n      exp\n      swap1\n      div\n      0xffffffffffffffffffffffffffffffffffffffff\n      and\n      dup2\n      jump\t// out\n        /* \".deps/studying-solidity/testament/Testament.sol\":7128:7615  function removeAssetsInTestament(uint256 value) external {... */\n    tag_41:\n        /* \".deps/studying-solidity/testament/Testament.sol\":7247:7251  true */\n      0x01\n        /* \".deps/studying-solidity/testament/Testament.sol\":7216:7251  testament[msg.sender].exist == true */\n      iszero\n      iszero\n        /* \".deps/studying-solidity/testament/Testament.sol\":7216:7225  testament */\n      0x00\n        /* \".deps/studying-solidity/testament/Testament.sol\":7216:7237  testament[msg.sender] */\n      dup1\n        /* \".deps/studying-solidity/testament/Testament.sol\":7226:7236  msg.sender */\n      caller\n        /* \".deps/studying-solidity/testament/Testament.sol\":7216:7237  testament[msg.sender] */\n      0xffffffffffffffffffffffffffffffffffffffff\n      and\n      0xffffffffffffffffffffffffffffffffffffffff\n      and\n      dup2\n      mstore\n      0x20\n      add\n      swap1\n      dup2\n      mstore\n      0x20\n      add\n      0x00\n      keccak256\n        /* \".deps/studying-solidity/testament/Testament.sol\":7216:7243  testament[msg.sender].exist */\n      0x01\n      add\n      0x00\n      swap1\n      sload\n      swap1\n      0x0100\n      exp\n      swap1\n      div\n      0xff\n      and\n        /* \".deps/studying-solidity/testament/Testament.sol\":7216:7251  testament[msg.sender].exist == true */\n      iszero\n      iszero\n      eq\n        /* \".deps/studying-solidity/testament/Testament.sol\":7195:7310  require(... */\n      tag_152\n      jumpi\n      mload(0x40)\n      0x08c379a000000000000000000000000000000000000000000000000000000000\n      dup2\n      mstore\n      0x04\n      add\n      tag_153\n      swap1\n      tag_102\n      jump\t// in\n    tag_153:\n      mload(0x40)\n      dup1\n      swap2\n      sub\n      swap1\n      revert\n    tag_152:\n        /* \".deps/studying-solidity/testament/Testament.sol\":7350:7359  testament */\n      0x00\n        /* \".deps/studying-solidity/testament/Testament.sol\":7350:7371  testament[msg.sender] */\n      dup1\n        /* \".deps/studying-solidity/testament/Testament.sol\":7360:7370  msg.sender */\n      caller\n        /* \".deps/studying-solidity/testament/Testament.sol\":7350:7371  testament[msg.sender] */\n      0xffffffffffffffffffffffffffffffffffffffff\n      and\n      0xffffffffffffffffffffffffffffffffffffffff\n      and\n      dup2\n      mstore\n      0x20\n      add\n      swap1\n      dup2\n      mstore\n      0x20\n      add\n      0x00\n      keccak256\n        /* \".deps/studying-solidity/testament/Testament.sol\":7350:7388  testament[msg.sender].inheritanceValue */\n      0x02\n      add\n      sload\n        /* \".deps/studying-solidity/testament/Testament.sol\":7341:7346  value */\n      dup2\n        /* \".deps/studying-solidity/testament/Testament.sol\":7341:7388  value <= testament[msg.sender].inheritanceValue */\n      gt\n      iszero\n        /* \".deps/studying-solidity/testament/Testament.sol\":7320:7439  require(... */\n      tag_154\n      jumpi\n      mload(0x40)\n      0x08c379a000000000000000000000000000000000000000000000000000000000\n      dup2\n      mstore\n      0x04\n      add\n      tag_155\n      swap1\n      tag_156\n      jump\t// in\n    tag_155:\n      mload(0x40)\n      dup1\n      swap2\n      sub\n      swap1\n      revert\n    tag_154:\n        /* \".deps/studying-solidity/testament/Testament.sol\":7451:7463  bool success */\n      0x00\n        /* \".deps/studying-solidity/testament/Testament.sol\":7477:7487  msg.sender */\n      caller\n        /* \".deps/studying-solidity/testament/Testament.sol\":7469:7493  payable(msg.sender).call */\n      0xffffffffffffffffffffffffffffffffffffffff\n      and\n        /* \".deps/studying-solidity/testament/Testament.sol\":7501:7506  value */\n      dup3\n        /* \".deps/studying-solidity/testament/Testament.sol\":7469:7511  payable(msg.sender).call{value: value}(\"\") */\n      mload(0x40)\n      tag_157\n      swap1\n      tag_113\n      jump\t// in\n    tag_157:\n      0x00\n      mload(0x40)\n      dup1\n      dup4\n      sub\n      dup2\n      dup6\n      dup8\n      gas\n      call\n      swap3\n      pop\n      pop\n      pop\n      returndatasize\n      dup1\n      0x00\n      dup2\n      eq\n      tag_160\n      jumpi\n      mload(0x40)\n      swap2\n      pop\n      and(add(returndatasize, 0x3f), not(0x1f))\n      dup3\n      add\n      0x40\n      mstore\n      returndatasize\n      dup3\n      mstore\n      returndatasize\n      0x00\n      0x20\n      dup5\n      add\n      returndatacopy\n      jump(tag_159)\n    tag_160:\n      0x60\n      swap2\n      pop\n    tag_159:\n      pop\n        /* \".deps/studying-solidity/testament/Testament.sol\":7450:7511  (bool success, ) = payable(msg.sender).call{value: value}(\"\") */\n      pop\n      swap1\n      pop\n        /* \".deps/studying-solidity/testament/Testament.sol\":7530:7537  success */\n      dup1\n        /* \".deps/studying-solidity/testament/Testament.sol\":7522:7551  require(success, \"nao tirou\") */\n      tag_161\n      jumpi\n      mload(0x40)\n      0x08c379a000000000000000000000000000000000000000000000000000000000\n      dup2\n      mstore\n      0x04\n      add\n      tag_162\n      swap1\n      tag_163\n      jump\t// in\n    tag_162:\n      mload(0x40)\n      dup1\n      swap2\n      sub\n      swap1\n      revert\n    tag_161:\n        /* \".deps/studying-solidity/testament/Testament.sol\":7603:7608  value */\n      dup2\n        /* \".deps/studying-solidity/testament/Testament.sol\":7561:7570  testament */\n      0x00\n        /* \".deps/studying-solidity/testament/Testament.sol\":7561:7582  testament[msg.sender] */\n      dup1\n        /* \".deps/studying-solidity/testament/Testament.sol\":7571:7581  msg.sender */\n      caller\n        /* \".deps/studying-solidity/testament/Testament.sol\":7561:7582  testament[msg.sender] */\n      0xffffffffffffffffffffffffffffffffffffffff\n      and\n      0xffffffffffffffffffffffffffffffffffffffff\n      and\n      dup2\n      mstore\n      0x20\n      add\n      swap1\n      dup2\n      mstore\n      0x20\n      add\n      0x00\n      keccak256\n        /* \".deps/studying-solidity/testament/Testament.sol\":7561:7599  testament[msg.sender].inheritanceValue */\n      0x02\n      add\n      0x00\n        /* \".deps/studying-solidity/testament/Testament.sol\":7561:7608  testament[msg.sender].inheritanceValue -= value */\n      dup3\n      dup3\n      sload\n      tag_164\n      swap2\n      swap1\n      tag_165\n      jump\t// in\n    tag_164:\n      swap3\n      pop\n      pop\n      dup2\n      swap1\n      sstore\n      pop\n        /* \".deps/studying-solidity/testament/Testament.sol\":7185:7615  {... */\n      pop\n        /* \".deps/studying-solidity/testament/Testament.sol\":7128:7615  function removeAssetsInTestament(uint256 value) external {... */\n      pop\n      jump\t// out\n        /* \".deps/studying-solidity/testament/Testament.sol\":188:234  mapping(address => Testament) public testament */\n    tag_45:\n      mstore(0x20, 0x00)\n      dup1\n      0x00\n      mstore\n      keccak256(0x00, 0x40)\n      0x00\n      swap2\n      pop\n      swap1\n      pop\n      dup1\n      0x01\n      add\n      0x00\n      swap1\n      sload\n      swap1\n      0x0100\n      exp\n      swap1\n      div\n      0xff\n      and\n      swap1\n      dup1\n      0x01\n      add\n      0x01\n      swap1\n      sload\n      swap1\n      0x0100\n      exp\n      swap1\n      div\n      0xffffffffffffffffffffffffffffffff\n      and\n      swap1\n      dup1\n      0x02\n      add\n      sload\n      swap1\n      pop\n      dup4\n      jump\t// out\n        /* \".deps/studying-solidity/testament/Testament.sol\":1808:3013  function getMyTestament(address testator)... */\n    tag_51:\n        /* \".deps/studying-solidity/testament/Testament.sol\":1910:1926  address[] memory */\n      0x60\n        /* \".deps/studying-solidity/testament/Testament.sol\":1940:1955  uint16[] memory */\n      dup1\n        /* \".deps/studying-solidity/testament/Testament.sol\":1969:1982  bool[] memory */\n      0x60\n        /* \".deps/studying-solidity/testament/Testament.sol\":1996:2003  uint128 */\n      0x00\n        /* \".deps/studying-solidity/testament/Testament.sol\":2017:2024  uint256 */\n      dup1\n        /* \".deps/studying-solidity/testament/Testament.sol\":2049:2075  Testament memory _testator */\n      0x00\n        /* \".deps/studying-solidity/testament/Testament.sol\":2078:2087  testament */\n      dup1\n        /* \".deps/studying-solidity/testament/Testament.sol\":2078:2097  testament[testator] */\n      0x00\n        /* \".deps/studying-solidity/testament/Testament.sol\":2088:2096  testator */\n      dup9\n        /* \".deps/studying-solidity/testament/Testament.sol\":2078:2097  testament[testator] */\n      0xffffffffffffffffffffffffffffffffffffffff\n      and\n      0xffffffffffffffffffffffffffffffffffffffff\n      and\n      dup2\n      mstore\n      0x20\n      add\n      swap1\n      dup2\n      mstore\n      0x20\n      add\n      0x00\n      keccak256\n        /* \".deps/studying-solidity/testament/Testament.sol\":2049:2097  Testament memory _testator = testament[testator] */\n      mload(0x40)\n      dup1\n      0x80\n      add\n      0x40\n      mstore\n      swap1\n      dup2\n      0x00\n      dup3\n      add\n      dup1\n      sload\n      dup1\n      0x20\n      mul\n      0x20\n      add\n      mload(0x40)\n      swap1\n      dup2\n      add\n      0x40\n      mstore\n      dup1\n      swap3\n      swap2\n      swap1\n      dup2\n      dup2\n      mstore\n      0x20\n      add\n      0x00\n      swap1\n    tag_167:\n      dup3\n      dup3\n      lt\n      iszero\n      tag_168\n      jumpi\n      dup4\n      dup3\n      swap1\n      0x00\n      mstore\n      keccak256(0x00, 0x20)\n      add\n      mload(0x40)\n      dup1\n      0x60\n      add\n      0x40\n      mstore\n      swap1\n      dup2\n      0x00\n      dup3\n      add\n      0x00\n      swap1\n      sload\n      swap1\n      0x0100\n      exp\n      swap1\n      div\n      0xffffffffffffffffffffffffffffffffffffffff\n      and\n      0xffffffffffffffffffffffffffffffffffffffff\n      and\n      0xffffffffffffffffffffffffffffffffffffffff\n      and\n      dup2\n      mstore\n      0x20\n      add\n      0x00\n      dup3\n      add\n      0x14\n      swap1\n      sload\n      swap1\n      0x0100\n      exp\n      swap1\n      div\n      0xffff\n      and\n      0xffff\n      and\n      0xffff\n      and\n      dup2\n      mstore\n      0x20\n      add\n      0x00\n      dup3\n      add\n      0x16\n      swap1\n      sload\n      swap1\n      0x0100\n      exp\n      swap1\n      div\n      0xff\n      and\n      iszero\n      iszero\n      iszero\n      iszero\n      dup2\n      mstore\n      pop\n      pop\n      dup2\n      mstore\n      0x20\n      add\n      swap1\n      0x01\n      add\n      swap1\n      jump(tag_167)\n    tag_168:\n      pop\n      pop\n      pop\n      pop\n      dup2\n      mstore\n      0x20\n      add\n      0x01\n      dup3\n      add\n      0x00\n      swap1\n      sload\n      swap1\n      0x0100\n      exp\n      swap1\n      div\n      0xff\n      and\n      iszero\n      iszero\n      iszero\n      iszero\n      dup2\n      mstore\n      0x20\n      add\n      0x01\n      dup3\n      add\n      0x01\n      swap1\n      sload\n      swap1\n      0x0100\n      exp\n      swap1\n      div\n      0xffffffffffffffffffffffffffffffff\n      and\n      0xffffffffffffffffffffffffffffffff\n      and\n      0xffffffffffffffffffffffffffffffff\n      and\n      dup2\n      mstore\n      0x20\n      add\n      0x02\n      dup3\n      add\n      sload\n      dup2\n      mstore\n      pop\n      pop\n      swap1\n      pop\n        /* \".deps/studying-solidity/testament/Testament.sol\":2116:2125  _testator */\n      dup1\n        /* \".deps/studying-solidity/testament/Testament.sol\":2116:2131  _testator.exist */\n      0x20\n      add\n      mload\n        /* \".deps/studying-solidity/testament/Testament.sol\":2108:2159  require(_testator.exist, \"Testador nao encontrado\") */\n      tag_170\n      jumpi\n      mload(0x40)\n      0x08c379a000000000000000000000000000000000000000000000000000000000\n      dup2\n      mstore\n      0x04\n      add\n      tag_171\n      swap1\n      tag_172\n      jump\t// in\n    tag_171:\n      mload(0x40)\n      dup1\n      swap2\n      sub\n      swap1\n      revert\n    tag_170:\n        /* \".deps/studying-solidity/testament/Testament.sol\":2170:2206  address[] memory _inheritorAddresses */\n      0x00\n        /* \".deps/studying-solidity/testament/Testament.sol\":2236:2245  _testator */\n      dup2\n        /* \".deps/studying-solidity/testament/Testament.sol\":2236:2256  _testator.inheritors */\n      0x00\n      add\n      mload\n        /* \".deps/studying-solidity/testament/Testament.sol\":2236:2263  _testator.inheritors.length */\n      mload\n        /* \".deps/studying-solidity/testament/Testament.sol\":2209:2273  new address[](... */\n      0xffffffffffffffff\n      dup2\n      gt\n      iszero\n      tag_173\n      jumpi\n      tag_174\n      tag_175\n      jump\t// in\n    tag_174:\n    tag_173:\n      mload(0x40)\n      swap1\n      dup1\n      dup3\n      mstore\n      dup1\n      0x20\n      mul\n      0x20\n      add\n      dup3\n      add\n      0x40\n      mstore\n      dup1\n      iszero\n      tag_176\n      jumpi\n      dup2\n      0x20\n      add\n      0x20\n      dup3\n      mul\n      dup1\n      calldatasize\n      dup4\n      calldatacopy\n      dup1\n      dup3\n      add\n      swap2\n      pop\n      pop\n      swap1\n      pop\n    tag_176:\n      pop\n        /* \".deps/studying-solidity/testament/Testament.sol\":2170:2273  address[] memory _inheritorAddresses = new address[](... */\n      swap1\n      pop\n        /* \".deps/studying-solidity/testament/Testament.sol\":2284:2312  uint16[] memory _percentages */\n      0x00\n        /* \".deps/studying-solidity/testament/Testament.sol\":2341:2350  _testator */\n      dup3\n        /* \".deps/studying-solidity/testament/Testament.sol\":2341:2361  _testator.inheritors */\n      0x00\n      add\n      mload\n        /* \".deps/studying-solidity/testament/Testament.sol\":2341:2368  _testator.inheritors.length */\n      mload\n        /* \".deps/studying-solidity/testament/Testament.sol\":2315:2378  new uint16[](... */\n      0xffffffffffffffff\n      dup2\n      gt\n      iszero\n      tag_177\n      jumpi\n      tag_178\n      tag_175\n      jump\t// in\n    tag_178:\n    tag_177:\n      mload(0x40)\n      swap1\n      dup1\n      dup3\n      mstore\n      dup1\n      0x20\n      mul\n      0x20\n      add\n      dup3\n      add\n      0x40\n      mstore\n      dup1\n      iszero\n      tag_179\n      jumpi\n      dup2\n      0x20\n      add\n      0x20\n      dup3\n      mul\n      dup1\n      calldatasize\n      dup4\n      calldatacopy\n      dup1\n      dup3\n      add\n      swap2\n      pop\n      pop\n      swap1\n      pop\n    tag_179:\n      pop\n        /* \".deps/studying-solidity/testament/Testament.sol\":2284:2378  uint16[] memory _percentages = new uint16[](... */\n      swap1\n      pop\n        /* \".deps/studying-solidity/testament/Testament.sol\":2389:2417  bool[] memory _canWithdrawal */\n      0x00\n        /* \".deps/studying-solidity/testament/Testament.sol\":2431:2440  _testator */\n      dup4\n        /* \".deps/studying-solidity/testament/Testament.sol\":2431:2451  _testator.inheritors */\n      0x00\n      add\n      mload\n        /* \".deps/studying-solidity/testament/Testament.sol\":2431:2458  _testator.inheritors.length */\n      mload\n        /* \".deps/studying-solidity/testament/Testament.sol\":2420:2459  new bool[](_testator.inheritors.length) */\n      0xffffffffffffffff\n      dup2\n      gt\n      iszero\n      tag_180\n      jumpi\n      tag_181\n      tag_175\n      jump\t// in\n    tag_181:\n    tag_180:\n      mload(0x40)\n      swap1\n      dup1\n      dup3\n      mstore\n      dup1\n      0x20\n      mul\n      0x20\n      add\n      dup3\n      add\n      0x40\n      mstore\n      dup1\n      iszero\n      tag_182\n      jumpi\n      dup2\n      0x20\n      add\n      0x20\n      dup3\n      mul\n      dup1\n      calldatasize\n      dup4\n      calldatacopy\n      dup1\n      dup3\n      add\n      swap2\n      pop\n      pop\n      swap1\n      pop\n    tag_182:\n      pop\n        /* \".deps/studying-solidity/testament/Testament.sol\":2389:2459  bool[] memory _canWithdrawal = new bool[](_testator.inheritors.length) */\n      swap1\n      pop\n        /* \".deps/studying-solidity/testament/Testament.sol\":2475:2483  uint64 i */\n      0x00\n        /* \".deps/studying-solidity/testament/Testament.sol\":2470:2813  for (uint64 i = 0; i < _testator.inheritors.length; i++) {... */\n    tag_183:\n        /* \".deps/studying-solidity/testament/Testament.sol\":2493:2502  _testator */\n      dup5\n        /* \".deps/studying-solidity/testament/Testament.sol\":2493:2513  _testator.inheritors */\n      0x00\n      add\n      mload\n        /* \".deps/studying-solidity/testament/Testament.sol\":2493:2520  _testator.inheritors.length */\n      mload\n        /* \".deps/studying-solidity/testament/Testament.sol\":2489:2490  i */\n      dup2\n        /* \".deps/studying-solidity/testament/Testament.sol\":2489:2520  i < _testator.inheritors.length */\n      0xffffffffffffffff\n      and\n      lt\n        /* \".deps/studying-solidity/testament/Testament.sol\":2470:2813  for (uint64 i = 0; i < _testator.inheritors.length; i++) {... */\n      iszero\n      tag_184\n      jumpi\n        /* \".deps/studying-solidity/testament/Testament.sol\":2541:2575  Inheritor memory _currentInheritor */\n      0x00\n        /* \".deps/studying-solidity/testament/Testament.sol\":2578:2587  _testator */\n      dup6\n        /* \".deps/studying-solidity/testament/Testament.sol\":2578:2598  _testator.inheritors */\n      0x00\n      add\n      mload\n        /* \".deps/studying-solidity/testament/Testament.sol\":2599:2600  i */\n      dup3\n        /* \".deps/studying-solidity/testament/Testament.sol\":2578:2601  _testator.inheritors[i] */\n      0xffffffffffffffff\n      and\n      dup2\n      mload\n      dup2\n      lt\n      tag_186\n      jumpi\n      tag_187\n      tag_88\n      jump\t// in\n    tag_187:\n    tag_186:\n      0x20\n      mul\n      0x20\n      add\n      add\n      mload\n        /* \".deps/studying-solidity/testament/Testament.sol\":2541:2601  Inheritor memory _currentInheritor = _testator.inheritors[i] */\n      swap1\n      pop\n        /* \".deps/studying-solidity/testament/Testament.sol\":2642:2659  _currentInheritor */\n      dup1\n        /* \".deps/studying-solidity/testament/Testament.sol\":2642:2676  _currentInheritor.inheritorAddress */\n      0x00\n      add\n      mload\n        /* \".deps/studying-solidity/testament/Testament.sol\":2616:2635  _inheritorAddresses */\n      dup6\n        /* \".deps/studying-solidity/testament/Testament.sol\":2636:2637  i */\n      dup4\n        /* \".deps/studying-solidity/testament/Testament.sol\":2616:2638  _inheritorAddresses[i] */\n      0xffffffffffffffff\n      and\n      dup2\n      mload\n      dup2\n      lt\n      tag_188\n      jumpi\n      tag_189\n      tag_88\n      jump\t// in\n    tag_189:\n    tag_188:\n      0x20\n      mul\n      0x20\n      add\n      add\n        /* \".deps/studying-solidity/testament/Testament.sol\":2616:2677  _inheritorAddresses[i] = (_currentInheritor.inheritorAddress) */\n      swap1\n      0xffffffffffffffffffffffffffffffffffffffff\n      and\n      swap1\n      dup2\n      0xffffffffffffffffffffffffffffffffffffffff\n      and\n      dup2\n      mstore\n      pop\n      pop\n        /* \".deps/studying-solidity/testament/Testament.sol\":2710:2727  _currentInheritor */\n      dup1\n        /* \".deps/studying-solidity/testament/Testament.sol\":2710:2738  _currentInheritor.percentage */\n      0x20\n      add\n      mload\n        /* \".deps/studying-solidity/testament/Testament.sol\":2691:2703  _percentages */\n      dup5\n        /* \".deps/studying-solidity/testament/Testament.sol\":2704:2705  i */\n      dup4\n        /* \".deps/studying-solidity/testament/Testament.sol\":2691:2706  _percentages[i] */\n      0xffffffffffffffff\n      and\n      dup2\n      mload\n      dup2\n      lt\n      tag_190\n      jumpi\n      tag_191\n      tag_88\n      jump\t// in\n    tag_191:\n    tag_190:\n      0x20\n      mul\n      0x20\n      add\n      add\n        /* \".deps/studying-solidity/testament/Testament.sol\":2691:2739  _percentages[i] = (_currentInheritor.percentage) */\n      swap1\n      0xffff\n      and\n      swap1\n      dup2\n      0xffff\n      and\n      dup2\n      mstore\n      pop\n      pop\n        /* \".deps/studying-solidity/testament/Testament.sol\":2773:2790  _currentInheritor */\n      dup1\n        /* \".deps/studying-solidity/testament/Testament.sol\":2773:2802  _currentInheritor.canWithdraw */\n      0x40\n      add\n      mload\n        /* \".deps/studying-solidity/testament/Testament.sol\":2753:2767  _canWithdrawal */\n      dup4\n        /* \".deps/studying-solidity/testament/Testament.sol\":2768:2769  i */\n      dup4\n        /* \".deps/studying-solidity/testament/Testament.sol\":2753:2770  _canWithdrawal[i] */\n      0xffffffffffffffff\n      and\n      dup2\n      mload\n      dup2\n      lt\n      tag_192\n      jumpi\n      tag_193\n      tag_88\n      jump\t// in\n    tag_193:\n    tag_192:\n      0x20\n      mul\n      0x20\n      add\n      add\n        /* \".deps/studying-solidity/testament/Testament.sol\":2753:2802  _canWithdrawal[i] = _currentInheritor.canWithdraw */\n      swap1\n      iszero\n      iszero\n      swap1\n      dup2\n      iszero\n      iszero\n      dup2\n      mstore\n      pop\n      pop\n        /* \".deps/studying-solidity/testament/Testament.sol\":2527:2813  {... */\n      pop\n        /* \".deps/studying-solidity/testament/Testament.sol\":2522:2525  i++ */\n      dup1\n      dup1\n      tag_194\n      swap1\n      tag_195\n      jump\t// in\n    tag_194:\n      swap2\n      pop\n      pop\n        /* \".deps/studying-solidity/testament/Testament.sol\":2470:2813  for (uint64 i = 0; i < _testator.inheritors.length; i++) {... */\n      jump(tag_183)\n    tag_184:\n      pop\n        /* \".deps/studying-solidity/testament/Testament.sol\":2844:2863  _inheritorAddresses */\n      dup3\n        /* \".deps/studying-solidity/testament/Testament.sol\":2877:2889  _percentages */\n      dup3\n        /* \".deps/studying-solidity/testament/Testament.sol\":2903:2917  _canWithdrawal */\n      dup3\n        /* \".deps/studying-solidity/testament/Testament.sol\":2931:2940  _testator */\n      dup7\n        /* \".deps/studying-solidity/testament/Testament.sol\":2931:2956  _testator.lastProofOfLife */\n      0x40\n      add\n      mload\n        /* \".deps/studying-solidity/testament/Testament.sol\":2970:2979  _testator */\n      dup8\n        /* \".deps/studying-solidity/testament/Testament.sol\":2970:2996  _testator.inheritanceValue */\n      0x60\n      add\n      mload\n        /* \".deps/studying-solidity/testament/Testament.sol\":2823:3006  return (... */\n      swap9\n      pop\n      swap9\n      pop\n      swap9\n      pop\n      swap9\n      pop\n      swap9\n      pop\n      pop\n      pop\n      pop\n      pop\n        /* \".deps/studying-solidity/testament/Testament.sol\":1808:3013  function getMyTestament(address testator)... */\n      swap2\n      swap4\n      swap6\n      swap1\n      swap3\n      swap5\n      pop\n      jump\t// out\n        /* \".deps/studying-solidity/testament/Testament.sol\":4943:5204  function updateProofOfLife() public {... */\n    tag_56:\n        /* \".deps/studying-solidity/testament/Testament.sol\":4989:5000  address own */\n      0x00\n        /* \".deps/studying-solidity/testament/Testament.sol\":5003:5013  msg.sender */\n      caller\n        /* \".deps/studying-solidity/testament/Testament.sol\":4989:5013  address own = msg.sender */\n      swap1\n      pop\n        /* \".deps/studying-solidity/testament/Testament.sol\":5044:5053  testament */\n      0x00\n        /* \".deps/studying-solidity/testament/Testament.sol\":5044:5058  testament[own] */\n      dup1\n        /* \".deps/studying-solidity/testament/Testament.sol\":5054:5057  own */\n      dup3\n        /* \".deps/studying-solidity/testament/Testament.sol\":5044:5058  testament[own] */\n      0xffffffffffffffffffffffffffffffffffffffff\n      and\n      0xffffffffffffffffffffffffffffffffffffffff\n      and\n      dup2\n      mstore\n      0x20\n      add\n      swap1\n      dup2\n      mstore\n      0x20\n      add\n      0x00\n      keccak256\n        /* \".deps/studying-solidity/testament/Testament.sol\":5044:5064  testament[own].exist */\n      0x01\n      add\n      0x00\n      swap1\n      sload\n      swap1\n      0x0100\n      exp\n      swap1\n      div\n      0xff\n      and\n        /* \".deps/studying-solidity/testament/Testament.sol\":5023:5130  require(... */\n      tag_197\n      jumpi\n      mload(0x40)\n      0x08c379a000000000000000000000000000000000000000000000000000000000\n      dup2\n      mstore\n      0x04\n      add\n      tag_198\n      swap1\n      tag_199\n      jump\t// in\n    tag_198:\n      mload(0x40)\n      dup1\n      swap2\n      sub\n      swap1\n      revert\n    tag_197:\n        /* \".deps/studying-solidity/testament/Testament.sol\":5181:5196  block.timestamp */\n      timestamp\n        /* \".deps/studying-solidity/testament/Testament.sol\":5140:5149  testament */\n      0x00\n        /* \".deps/studying-solidity/testament/Testament.sol\":5140:5154  testament[own] */\n      dup1\n        /* \".deps/studying-solidity/testament/Testament.sol\":5150:5153  own */\n      dup4\n        /* \".deps/studying-solidity/testament/Testament.sol\":5140:5154  testament[own] */\n      0xffffffffffffffffffffffffffffffffffffffff\n      and\n      0xffffffffffffffffffffffffffffffffffffffff\n      and\n      dup2\n      mstore\n      0x20\n      add\n      swap1\n      dup2\n      mstore\n      0x20\n      add\n      0x00\n      keccak256\n        /* \".deps/studying-solidity/testament/Testament.sol\":5140:5170  testament[own].lastProofOfLife */\n      0x01\n      add\n      0x01\n        /* \".deps/studying-solidity/testament/Testament.sol\":5140:5197  testament[own].lastProofOfLife = uint128(block.timestamp) */\n      0x0100\n      exp\n      dup2\n      sload\n      dup2\n      0xffffffffffffffffffffffffffffffff\n      mul\n      not\n      and\n      swap1\n      dup4\n      0xffffffffffffffffffffffffffffffff\n      and\n      mul\n      or\n      swap1\n      sstore\n      pop\n        /* \".deps/studying-solidity/testament/Testament.sol\":4979:5204  {... */\n      pop\n        /* \".deps/studying-solidity/testament/Testament.sol\":4943:5204  function updateProofOfLife() public {... */\n      jump\t// out\n        /* \".deps/studying-solidity/testament/Testament.sol\":3019:3264  function getMyTestators() external view returns (address[] memory) {... */\n    tag_59:\n        /* \".deps/studying-solidity/testament/Testament.sol\":3068:3084  address[] memory */\n      0x60\n        /* \".deps/studying-solidity/testament/Testament.sol\":3096:3114  address _inheritor */\n      0x00\n        /* \".deps/studying-solidity/testament/Testament.sol\":3117:3127  msg.sender */\n      caller\n        /* \".deps/studying-solidity/testament/Testament.sol\":3096:3127  address _inheritor = msg.sender */\n      swap1\n      pop\n        /* \".deps/studying-solidity/testament/Testament.sol\":3225:3245  inheritorToTestators */\n      0x01\n        /* \".deps/studying-solidity/testament/Testament.sol\":3225:3257  inheritorToTestators[_inheritor] */\n      0x00\n        /* \".deps/studying-solidity/testament/Testament.sol\":3246:3256  _inheritor */\n      dup3\n        /* \".deps/studying-solidity/testament/Testament.sol\":3225:3257  inheritorToTestators[_inheritor] */\n      0xffffffffffffffffffffffffffffffffffffffff\n      and\n      0xffffffffffffffffffffffffffffffffffffffff\n      and\n      dup2\n      mstore\n      0x20\n      add\n      swap1\n      dup2\n      mstore\n      0x20\n      add\n      0x00\n      keccak256\n        /* \".deps/studying-solidity/testament/Testament.sol\":3218:3257  return inheritorToTestators[_inheritor] */\n      dup1\n      sload\n      dup1\n      0x20\n      mul\n      0x20\n      add\n      mload(0x40)\n      swap1\n      dup2\n      add\n      0x40\n      mstore\n      dup1\n      swap3\n      swap2\n      swap1\n      dup2\n      dup2\n      mstore\n      0x20\n      add\n      dup3\n      dup1\n      sload\n      dup1\n      iszero\n      tag_201\n      jumpi\n      0x20\n      mul\n      dup3\n      add\n      swap2\n      swap1\n      0x00\n      mstore\n      keccak256(0x00, 0x20)\n      swap1\n    tag_202:\n      dup2\n      0x00\n      swap1\n      sload\n      swap1\n      0x0100\n      exp\n      swap1\n      div\n      0xffffffffffffffffffffffffffffffffffffffff\n      and\n      0xffffffffffffffffffffffffffffffffffffffff\n      and\n      dup2\n      mstore\n      0x20\n      add\n      swap1\n      0x01\n      add\n      swap1\n      dup1\n      dup4\n      gt\n      tag_202\n      jumpi\n    tag_201:\n      pop\n      pop\n      pop\n      pop\n      pop\n      swap2\n      pop\n      pop\n        /* \".deps/studying-solidity/testament/Testament.sol\":3019:3264  function getMyTestators() external view returns (address[] memory) {... */\n      swap1\n      jump\t// out\n        /* \".deps/studying-solidity/testament/Testament.sol\":372:1802  function createInheritance(... */\n    tag_65:\n        /* \".deps/studying-solidity/testament/Testament.sol\":575:576  0 */\n      0x00\n        /* \".deps/studying-solidity/testament/Testament.sol\":562:571  msg.value */\n      callvalue\n        /* \".deps/studying-solidity/testament/Testament.sol\":562:576  msg.value != 0 */\n      sub\n        /* \".deps/studying-solidity/testament/Testament.sol\":554:616  require(msg.value != 0, \"createInheritance(), valor invalido\") */\n      tag_204\n      jumpi\n      mload(0x40)\n      0x08c379a000000000000000000000000000000000000000000000000000000000\n      dup2\n      mstore\n      0x04\n      add\n      tag_205\n      swap1\n      tag_206\n      jump\t// in\n    tag_205:\n      mload(0x40)\n      dup1\n      swap2\n      sub\n      swap1\n      revert\n    tag_204:\n        /* \".deps/studying-solidity/testament/Testament.sol\":668:669  0 */\n      0x00\n        /* \".deps/studying-solidity/testament/Testament.sol\":647:657  _addresses */\n      dup3\n        /* \".deps/studying-solidity/testament/Testament.sol\":647:664  _addresses.length */\n      mload\n        /* \".deps/studying-solidity/testament/Testament.sol\":647:669  _addresses.length != 0 */\n      sub\n        /* \".deps/studying-solidity/testament/Testament.sol\":626:737  require(... */\n      tag_207\n      jumpi\n      mload(0x40)\n      0x08c379a000000000000000000000000000000000000000000000000000000000\n      dup2\n      mstore\n      0x04\n      add\n      tag_208\n      swap1\n      tag_75\n      jump\t// in\n    tag_208:\n      mload(0x40)\n      dup1\n      swap2\n      sub\n      swap1\n      revert\n    tag_207:\n        /* \".deps/studying-solidity/testament/Testament.sol\":789:802  _percentagens */\n      dup1\n        /* \".deps/studying-solidity/testament/Testament.sol\":789:809  _percentagens.length */\n      mload\n        /* \".deps/studying-solidity/testament/Testament.sol\":768:778  _addresses */\n      dup3\n        /* \".deps/studying-solidity/testament/Testament.sol\":768:785  _addresses.length */\n      mload\n        /* \".deps/studying-solidity/testament/Testament.sol\":768:809  _addresses.length == _percentagens.length */\n      eq\n        /* \".deps/studying-solidity/testament/Testament.sol\":747:905  require(... */\n      tag_209\n      jumpi\n      mload(0x40)\n      0x08c379a000000000000000000000000000000000000000000000000000000000\n      dup2\n      mstore\n      0x04\n      add\n      tag_210\n      swap1\n      tag_78\n      jump\t// in\n    tag_210:\n      mload(0x40)\n      dup1\n      swap2\n      sub\n      swap1\n      revert\n    tag_209:\n        /* \".deps/studying-solidity/testament/Testament.sol\":915:938  address _ownOfTestament */\n      0x00\n        /* \".deps/studying-solidity/testament/Testament.sol\":941:951  msg.sender */\n      caller\n        /* \".deps/studying-solidity/testament/Testament.sol\":915:951  address _ownOfTestament = msg.sender */\n      swap1\n      pop\n        /* \".deps/studying-solidity/testament/Testament.sol\":984:993  testament */\n      0x00\n        /* \".deps/studying-solidity/testament/Testament.sol\":984:1010  testament[_ownOfTestament] */\n      dup1\n        /* \".deps/studying-solidity/testament/Testament.sol\":994:1009  _ownOfTestament */\n      dup3\n        /* \".deps/studying-solidity/testament/Testament.sol\":984:1010  testament[_ownOfTestament] */\n      0xffffffffffffffffffffffffffffffffffffffff\n      and\n      0xffffffffffffffffffffffffffffffffffffffff\n      and\n      dup2\n      mstore\n      0x20\n      add\n      swap1\n      dup2\n      mstore\n      0x20\n      add\n      0x00\n      keccak256\n        /* \".deps/studying-solidity/testament/Testament.sol\":984:1016  testament[_ownOfTestament].exist */\n      0x01\n      add\n      0x00\n      swap1\n      sload\n      swap1\n      0x0100\n      exp\n      swap1\n      div\n      0xff\n      and\n        /* \".deps/studying-solidity/testament/Testament.sol\":983:1016  !testament[_ownOfTestament].exist */\n      iszero\n        /* \".deps/studying-solidity/testament/Testament.sol\":962:1106  require(... */\n      tag_211\n      jumpi\n      mload(0x40)\n      0x08c379a000000000000000000000000000000000000000000000000000000000\n      dup2\n      mstore\n      0x04\n      add\n      tag_212\n      swap1\n      tag_213\n      jump\t// in\n    tag_212:\n      mload(0x40)\n      dup1\n      swap2\n      sub\n      swap1\n      revert\n    tag_211:\n        /* \".deps/studying-solidity/testament/Testament.sol\":1183:1192  uint256 i */\n      0x00\n        /* \".deps/studying-solidity/testament/Testament.sol\":1178:1652  for (uint256 i = 0; i < _addresses.length; i++) {... */\n    tag_214:\n        /* \".deps/studying-solidity/testament/Testament.sol\":1202:1212  _addresses */\n      dup4\n        /* \".deps/studying-solidity/testament/Testament.sol\":1202:1219  _addresses.length */\n      mload\n        /* \".deps/studying-solidity/testament/Testament.sol\":1198:1199  i */\n      dup2\n        /* \".deps/studying-solidity/testament/Testament.sol\":1198:1219  i < _addresses.length */\n      lt\n        /* \".deps/studying-solidity/testament/Testament.sol\":1178:1652  for (uint256 i = 0; i < _addresses.length; i++) {... */\n      iszero\n      tag_215\n      jumpi\n        /* \".deps/studying-solidity/testament/Testament.sol\":1240:1267  Inheritor memory _inheritor */\n      0x00\n        /* \".deps/studying-solidity/testament/Testament.sol\":1270:1380  Inheritor(... */\n      mload(0x40)\n      dup1\n      0x60\n      add\n      0x40\n      mstore\n      dup1\n        /* \".deps/studying-solidity/testament/Testament.sol\":1297:1307  _addresses */\n      dup7\n        /* \".deps/studying-solidity/testament/Testament.sol\":1308:1309  i */\n      dup5\n        /* \".deps/studying-solidity/testament/Testament.sol\":1297:1310  _addresses[i] */\n      dup2\n      mload\n      dup2\n      lt\n      tag_217\n      jumpi\n      tag_218\n      tag_88\n      jump\t// in\n    tag_218:\n    tag_217:\n      0x20\n      mul\n      0x20\n      add\n      add\n      mload\n        /* \".deps/studying-solidity/testament/Testament.sol\":1270:1380  Inheritor(... */\n      0xffffffffffffffffffffffffffffffffffffffff\n      and\n      dup2\n      mstore\n      0x20\n      add\n        /* \".deps/studying-solidity/testament/Testament.sol\":1328:1341  _percentagens */\n      dup6\n        /* \".deps/studying-solidity/testament/Testament.sol\":1342:1343  i */\n      dup5\n        /* \".deps/studying-solidity/testament/Testament.sol\":1328:1344  _percentagens[i] */\n      dup2\n      mload\n      dup2\n      lt\n      tag_219\n      jumpi\n      tag_220\n      tag_88\n      jump\t// in\n    tag_220:\n    tag_219:\n      0x20\n      mul\n      0x20\n      add\n      add\n      mload\n        /* \".deps/studying-solidity/testament/Testament.sol\":1270:1380  Inheritor(... */\n      0xffff\n      and\n      dup2\n      mstore\n      0x20\n      add\n        /* \".deps/studying-solidity/testament/Testament.sol\":1362:1366  true */\n      0x01\n        /* \".deps/studying-solidity/testament/Testament.sol\":1270:1380  Inheritor(... */\n      iszero\n      iszero\n      dup2\n      mstore\n      pop\n        /* \".deps/studying-solidity/testament/Testament.sol\":1240:1380  Inheritor memory _inheritor = Inheritor(... */\n      swap1\n      pop\n        /* \".deps/studying-solidity/testament/Testament.sol\":1463:1483  inheritorToTestators */\n      0x01\n        /* \".deps/studying-solidity/testament/Testament.sol\":1463:1498  inheritorToTestators[_addresses[i]] */\n      0x00\n        /* \".deps/studying-solidity/testament/Testament.sol\":1484:1494  _addresses */\n      dup7\n        /* \".deps/studying-solidity/testament/Testament.sol\":1495:1496  i */\n      dup5\n        /* \".deps/studying-solidity/testament/Testament.sol\":1484:1497  _addresses[i] */\n      dup2\n      mload\n      dup2\n      lt\n      tag_221\n      jumpi\n      tag_222\n      tag_88\n      jump\t// in\n    tag_222:\n    tag_221:\n      0x20\n      mul\n      0x20\n      add\n      add\n      mload\n        /* \".deps/studying-solidity/testament/Testament.sol\":1463:1498  inheritorToTestators[_addresses[i]] */\n      0xffffffffffffffffffffffffffffffffffffffff\n      and\n      0xffffffffffffffffffffffffffffffffffffffff\n      and\n      dup2\n      mstore\n      0x20\n      add\n      swap1\n      dup2\n      mstore\n      0x20\n      add\n      0x00\n      keccak256\n        /* \".deps/studying-solidity/testament/Testament.sol\":1504:1519  _ownOfTestament */\n      dup4\n        /* \".deps/studying-solidity/testament/Testament.sol\":1463:1520  inheritorToTestators[_addresses[i]].push(_ownOfTestament) */\n      swap1\n      dup1\n      0x01\n      dup2\n      sload\n      add\n      dup1\n      dup3\n      sstore\n      dup1\n      swap2\n      pop\n      pop\n      0x01\n      swap1\n      sub\n      swap1\n      0x00\n      mstore\n      keccak256(0x00, 0x20)\n      add\n      0x00\n      swap1\n      swap2\n      swap1\n      swap2\n      swap1\n      swap2\n      0x0100\n      exp\n      dup2\n      sload\n      dup2\n      0xffffffffffffffffffffffffffffffffffffffff\n      mul\n      not\n      and\n      swap1\n      dup4\n      0xffffffffffffffffffffffffffffffffffffffff\n      and\n      mul\n      or\n      swap1\n      sstore\n      pop\n        /* \".deps/studying-solidity/testament/Testament.sol\":1587:1596  testament */\n      0x00\n        /* \".deps/studying-solidity/testament/Testament.sol\":1587:1613  testament[_ownOfTestament] */\n      dup1\n        /* \".deps/studying-solidity/testament/Testament.sol\":1597:1612  _ownOfTestament */\n      dup5\n        /* \".deps/studying-solidity/testament/Testament.sol\":1587:1613  testament[_ownOfTestament] */\n      0xffffffffffffffffffffffffffffffffffffffff\n      and\n      0xffffffffffffffffffffffffffffffffffffffff\n      and\n      dup2\n      mstore\n      0x20\n      add\n      swap1\n      dup2\n      mstore\n      0x20\n      add\n      0x00\n      keccak256\n        /* \".deps/studying-solidity/testament/Testament.sol\":1587:1624  testament[_ownOfTestament].inheritors */\n      0x00\n      add\n        /* \".deps/studying-solidity/testament/Testament.sol\":1630:1640  _inheritor */\n      dup2\n        /* \".deps/studying-solidity/testament/Testament.sol\":1587:1641  testament[_ownOfTestament].inheritors.push(_inheritor) */\n      swap1\n      dup1\n      0x01\n      dup2\n      sload\n      add\n      dup1\n      dup3\n      sstore\n      dup1\n      swap2\n      pop\n      pop\n      0x01\n      swap1\n      sub\n      swap1\n      0x00\n      mstore\n      keccak256(0x00, 0x20)\n      add\n      0x00\n      swap1\n      swap2\n      swap1\n      swap2\n      swap1\n      swap2\n      pop\n      0x00\n      dup3\n      add\n      mload\n      dup2\n      0x00\n      add\n      exp(0x0100, 0x00)\n      dup2\n      sload\n      dup2\n      0xffffffffffffffffffffffffffffffffffffffff\n      mul\n      not\n      and\n      swap1\n      dup4\n      0xffffffffffffffffffffffffffffffffffffffff\n      and\n      mul\n      or\n      swap1\n      sstore\n      pop\n      0x20\n      dup3\n      add\n      mload\n      dup2\n      0x00\n      add\n      exp(0x0100, 0x14)\n      dup2\n      sload\n      dup2\n      0xffff\n      mul\n      not\n      and\n      swap1\n      dup4\n      0xffff\n      and\n      mul\n      or\n      swap1\n      sstore\n      pop\n      0x40\n      dup3\n      add\n      mload\n      dup2\n      0x00\n      add\n      exp(0x0100, 0x16)\n      dup2\n      sload\n      dup2\n      0xff\n      mul\n      not\n      and\n      swap1\n      dup4\n      iszero\n      iszero\n      mul\n      or\n      swap1\n      sstore\n      pop\n      pop\n      pop\n        /* \".deps/studying-solidity/testament/Testament.sol\":1226:1652  {... */\n      pop\n        /* \".deps/studying-solidity/testament/Testament.sol\":1221:1224  i++ */\n      dup1\n      dup1\n      0x01\n      add\n      swap2\n      pop\n      pop\n        /* \".deps/studying-solidity/testament/Testament.sol\":1178:1652  for (uint256 i = 0; i < _addresses.length; i++) {... */\n      jump(tag_214)\n    tag_215:\n      pop\n        /* \".deps/studying-solidity/testament/Testament.sol\":1697:1701  true */\n      0x01\n        /* \".deps/studying-solidity/testament/Testament.sol\":1662:1671  testament */\n      0x00\n        /* \".deps/studying-solidity/testament/Testament.sol\":1662:1688  testament[_ownOfTestament] */\n      dup1\n        /* \".deps/studying-solidity/testament/Testament.sol\":1672:1687  _ownOfTestament */\n      dup4\n        /* \".deps/studying-solidity/testament/Testament.sol\":1662:1688  testament[_ownOfTestament] */\n      0xffffffffffffffffffffffffffffffffffffffff\n      and\n      0xffffffffffffffffffffffffffffffffffffffff\n      and\n      dup2\n      mstore\n      0x20\n      add\n      swap1\n      dup2\n      mstore\n      0x20\n      add\n      0x00\n      keccak256\n        /* \".deps/studying-solidity/testament/Testament.sol\":1662:1694  testament[_ownOfTestament].exist */\n      0x01\n      add\n      0x00\n        /* \".deps/studying-solidity/testament/Testament.sol\":1662:1701  testament[_ownOfTestament].exist = true */\n      0x0100\n      exp\n      dup2\n      sload\n      dup2\n      0xff\n      mul\n      not\n      and\n      swap1\n      dup4\n      iszero\n      iszero\n      mul\n      or\n      swap1\n      sstore\n      pop\n        /* \".deps/studying-solidity/testament/Testament.sol\":1757:1766  msg.value */\n      callvalue\n        /* \".deps/studying-solidity/testament/Testament.sol\":1711:1720  testament */\n      0x00\n        /* \".deps/studying-solidity/testament/Testament.sol\":1711:1737  testament[_ownOfTestament] */\n      dup1\n        /* \".deps/studying-solidity/testament/Testament.sol\":1721:1736  _ownOfTestament */\n      dup4\n        /* \".deps/studying-solidity/testament/Testament.sol\":1711:1737  testament[_ownOfTestament] */\n      0xffffffffffffffffffffffffffffffffffffffff\n      and\n      0xffffffffffffffffffffffffffffffffffffffff\n      and\n      dup2\n      mstore\n      0x20\n      add\n      swap1\n      dup2\n      mstore\n      0x20\n      add\n      0x00\n      keccak256\n        /* \".deps/studying-solidity/testament/Testament.sol\":1711:1754  testament[_ownOfTestament].inheritanceValue */\n      0x02\n      add\n        /* \".deps/studying-solidity/testament/Testament.sol\":1711:1766  testament[_ownOfTestament].inheritanceValue = msg.value */\n      dup2\n      swap1\n      sstore\n      pop\n        /* \".deps/studying-solidity/testament/Testament.sol\":1776:1795  updateProofOfLife() */\n      tag_225\n        /* \".deps/studying-solidity/testament/Testament.sol\":1776:1793  updateProofOfLife */\n      tag_56\n        /* \".deps/studying-solidity/testament/Testament.sol\":1776:1795  updateProofOfLife() */\n      jump\t// in\n    tag_225:\n        /* \".deps/studying-solidity/testament/Testament.sol\":498:1802  {... */\n      pop\n        /* \".deps/studying-solidity/testament/Testament.sol\":372:1802  function createInheritance(... */\n      pop\n      pop\n      jump\t// out\n        /* \".deps/studying-solidity/testament/Testament.sol\":6465:6823  function inheritorsCanWithdraw(address testator)... */\n    tag_69:\n        /* \".deps/studying-solidity/testament/Testament.sol\":6559:6563  bool */\n      0x00\n        /* \".deps/studying-solidity/testament/Testament.sol\":6587:6596  testament */\n      dup1\n        /* \".deps/studying-solidity/testament/Testament.sol\":6587:6606  testament[testator] */\n      0x00\n        /* \".deps/studying-solidity/testament/Testament.sol\":6597:6605  testator */\n      dup4\n        /* \".deps/studying-solidity/testament/Testament.sol\":6587:6606  testament[testator] */\n      0xffffffffffffffffffffffffffffffffffffffff\n      and\n      0xffffffffffffffffffffffffffffffffffffffff\n      and\n      dup2\n      mstore\n      0x20\n      add\n      swap1\n      dup2\n      mstore\n      0x20\n      add\n      0x00\n      keccak256\n        /* \".deps/studying-solidity/testament/Testament.sol\":6587:6612  testament[testator].exist */\n      0x01\n      add\n      0x00\n      swap1\n      sload\n      swap1\n      0x0100\n      exp\n      swap1\n      div\n      0xff\n      and\n        /* \".deps/studying-solidity/testament/Testament.sol\":6579:6642  require(testament[testator].exist, \"Testamento nao encontrado\") */\n      tag_227\n      jumpi\n      mload(0x40)\n      0x08c379a000000000000000000000000000000000000000000000000000000000\n      dup2\n      mstore\n      0x04\n      add\n      tag_228\n      swap1\n      tag_229\n      jump\t// in\n    tag_228:\n      mload(0x40)\n      dup1\n      swap2\n      sub\n      swap1\n      revert\n    tag_227:\n        /* \".deps/studying-solidity/testament/Testament.sol\":6652:6670  uint256 ninetyDays */\n      0x00\n        /* \".deps/studying-solidity/testament/Testament.sol\":6673:6674  1 */\n      0x01\n        /* \".deps/studying-solidity/testament/Testament.sol\":6652:6674  uint256 ninetyDays = 1 */\n      swap1\n      pop\n        /* \".deps/studying-solidity/testament/Testament.sol\":6806:6816  ninetyDays */\n      dup1\n        /* \".deps/studying-solidity/testament/Testament.sol\":6768:6777  testament */\n      0x00\n        /* \".deps/studying-solidity/testament/Testament.sol\":6768:6787  testament[testator] */\n      dup1\n        /* \".deps/studying-solidity/testament/Testament.sol\":6778:6786  testator */\n      dup6\n        /* \".deps/studying-solidity/testament/Testament.sol\":6768:6787  testament[testator] */\n      0xffffffffffffffffffffffffffffffffffffffff\n      and\n      0xffffffffffffffffffffffffffffffffffffffff\n      and\n      dup2\n      mstore\n      0x20\n      add\n      swap1\n      dup2\n      mstore\n      0x20\n      add\n      0x00\n      keccak256\n        /* \".deps/studying-solidity/testament/Testament.sol\":6768:6803  testament[testator].lastProofOfLife */\n      0x01\n      add\n      0x01\n      swap1\n      sload\n      swap1\n      0x0100\n      exp\n      swap1\n      div\n      0xffffffffffffffffffffffffffffffff\n      and\n        /* \".deps/studying-solidity/testament/Testament.sol\":6768:6816  testament[testator].lastProofOfLife + ninetyDays */\n      0xffffffffffffffffffffffffffffffff\n      and\n      tag_230\n      swap2\n      swap1\n      tag_107\n      jump\t// in\n    tag_230:\n        /* \".deps/studying-solidity/testament/Testament.sol\":6749:6764  block.timestamp */\n      timestamp\n        /* \".deps/studying-solidity/testament/Testament.sol\":6749:6816  block.timestamp >= testament[testator].lastProofOfLife + ninetyDays */\n      lt\n      iszero\n        /* \".deps/studying-solidity/testament/Testament.sol\":6730:6816  return... */\n      swap2\n      pop\n      pop\n        /* \".deps/studying-solidity/testament/Testament.sol\":6465:6823  function inheritorsCanWithdraw(address testator)... */\n      swap2\n      swap1\n      pop\n      jump\t// out\n        /* \".deps/studying-solidity/testament/Testament.sol\":5210:6459  function clearOldInheritorsOfTestament(address _ownTestament) internal {... */\n    tag_80:\n        /* \".deps/studying-solidity/testament/Testament.sol\":5360:5392  Inheritor[] memory oldInheritors */\n      0x00\n        /* \".deps/studying-solidity/testament/Testament.sol\":5395:5404  testament */\n      dup1\n        /* \".deps/studying-solidity/testament/Testament.sol\":5395:5419  testament[_ownTestament] */\n      0x00\n        /* \".deps/studying-solidity/testament/Testament.sol\":5405:5418  _ownTestament */\n      dup4\n        /* \".deps/studying-solidity/testament/Testament.sol\":5395:5419  testament[_ownTestament] */\n      0xffffffffffffffffffffffffffffffffffffffff\n      and\n      0xffffffffffffffffffffffffffffffffffffffff\n      and\n      dup2\n      mstore\n      0x20\n      add\n      swap1\n      dup2\n      mstore\n      0x20\n      add\n      0x00\n      keccak256\n        /* \".deps/studying-solidity/testament/Testament.sol\":5395:5430  testament[_ownTestament].inheritors */\n      0x00\n      add\n        /* \".deps/studying-solidity/testament/Testament.sol\":5360:5430  Inheritor[] memory oldInheritors = testament[_ownTestament].inheritors */\n      dup1\n      sload\n      dup1\n      0x20\n      mul\n      0x20\n      add\n      mload(0x40)\n      swap1\n      dup2\n      add\n      0x40\n      mstore\n      dup1\n      swap3\n      swap2\n      swap1\n      dup2\n      dup2\n      mstore\n      0x20\n      add\n      0x00\n      swap1\n    tag_232:\n      dup3\n      dup3\n      lt\n      iszero\n      tag_233\n      jumpi\n      dup4\n      dup3\n      swap1\n      0x00\n      mstore\n      keccak256(0x00, 0x20)\n      add\n      mload(0x40)\n      dup1\n      0x60\n      add\n      0x40\n      mstore\n      swap1\n      dup2\n      0x00\n      dup3\n      add\n      0x00\n      swap1\n      sload\n      swap1\n      0x0100\n      exp\n      swap1\n      div\n      0xffffffffffffffffffffffffffffffffffffffff\n      and\n      0xffffffffffffffffffffffffffffffffffffffff\n      and\n      0xffffffffffffffffffffffffffffffffffffffff\n      and\n      dup2\n      mstore\n      0x20\n      add\n      0x00\n      dup3\n      add\n      0x14\n      swap1\n      sload\n      swap1\n      0x0100\n      exp\n      swap1\n      div\n      0xffff\n      and\n      0xffff\n      and\n      0xffff\n      and\n      dup2\n      mstore\n      0x20\n      add\n      0x00\n      dup3\n      add\n      0x16\n      swap1\n      sload\n      swap1\n      0x0100\n      exp\n      swap1\n      div\n      0xff\n      and\n      iszero\n      iszero\n      iszero\n      iszero\n      dup2\n      mstore\n      pop\n      pop\n      dup2\n      mstore\n      0x20\n      add\n      swap1\n      0x01\n      add\n      swap1\n      jump(tag_232)\n    tag_233:\n      pop\n      pop\n      pop\n      pop\n      swap1\n      pop\n        /* \".deps/studying-solidity/testament/Testament.sol\":5491:5500  uint256 i */\n      0x00\n        /* \".deps/studying-solidity/testament/Testament.sol\":5486:6453  for (uint256 i = 0; i < oldInheritors.length; i++) {... */\n    tag_235:\n        /* \".deps/studying-solidity/testament/Testament.sol\":5510:5523  oldInheritors */\n      dup2\n        /* \".deps/studying-solidity/testament/Testament.sol\":5510:5530  oldInheritors.length */\n      mload\n        /* \".deps/studying-solidity/testament/Testament.sol\":5506:5507  i */\n      dup2\n        /* \".deps/studying-solidity/testament/Testament.sol\":5506:5530  i < oldInheritors.length */\n      lt\n        /* \".deps/studying-solidity/testament/Testament.sol\":5486:6453  for (uint256 i = 0; i < oldInheritors.length; i++) {... */\n      iszero\n      tag_236\n      jumpi\n        /* \".deps/studying-solidity/testament/Testament.sol\":5627:5667  address[] memory testatorsOfOldInheritor */\n      0x00\n        /* \".deps/studying-solidity/testament/Testament.sol\":5670:5690  inheritorToTestators */\n      0x01\n        /* \".deps/studying-solidity/testament/Testament.sol\":5670:5755  inheritorToTestators[... */\n      0x00\n        /* \".deps/studying-solidity/testament/Testament.sol\":5708:5721  oldInheritors */\n      dup5\n        /* \".deps/studying-solidity/testament/Testament.sol\":5722:5723  i */\n      dup5\n        /* \".deps/studying-solidity/testament/Testament.sol\":5708:5724  oldInheritors[i] */\n      dup2\n      mload\n      dup2\n      lt\n      tag_238\n      jumpi\n      tag_239\n      tag_88\n      jump\t// in\n    tag_239:\n    tag_238:\n      0x20\n      mul\n      0x20\n      add\n      add\n      mload\n        /* \".deps/studying-solidity/testament/Testament.sol\":5708:5741  oldInheritors[i].inheritorAddress */\n      0x00\n      add\n      mload\n        /* \".deps/studying-solidity/testament/Testament.sol\":5670:5755  inheritorToTestators[... */\n      0xffffffffffffffffffffffffffffffffffffffff\n      and\n      0xffffffffffffffffffffffffffffffffffffffff\n      and\n      dup2\n      mstore\n      0x20\n      add\n      swap1\n      dup2\n      mstore\n      0x20\n      add\n      0x00\n      keccak256\n        /* \".deps/studying-solidity/testament/Testament.sol\":5627:5755  address[] memory testatorsOfOldInheritor = inheritorToTestators[... */\n      dup1\n      sload\n      dup1\n      0x20\n      mul\n      0x20\n      add\n      mload(0x40)\n      swap1\n      dup2\n      add\n      0x40\n      mstore\n      dup1\n      swap3\n      swap2\n      swap1\n      dup2\n      dup2\n      mstore\n      0x20\n      add\n      dup3\n      dup1\n      sload\n      dup1\n      iszero\n      tag_240\n      jumpi\n      0x20\n      mul\n      dup3\n      add\n      swap2\n      swap1\n      0x00\n      mstore\n      keccak256(0x00, 0x20)\n      swap1\n    tag_241:\n      dup2\n      0x00\n      swap1\n      sload\n      swap1\n      0x0100\n      exp\n      swap1\n      div\n      0xffffffffffffffffffffffffffffffffffffffff\n      and\n      0xffffffffffffffffffffffffffffffffffffffff\n      and\n      dup2\n      mstore\n      0x20\n      add\n      swap1\n      0x01\n      add\n      swap1\n      dup1\n      dup4\n      gt\n      tag_241\n      jumpi\n    tag_240:\n      pop\n      pop\n      pop\n      pop\n      pop\n      swap1\n      pop\n        /* \".deps/studying-solidity/testament/Testament.sol\":5770:5784  uint256 length */\n      0x00\n        /* \".deps/studying-solidity/testament/Testament.sol\":5787:5810  testatorsOfOldInheritor */\n      dup2\n        /* \".deps/studying-solidity/testament/Testament.sol\":5787:5817  testatorsOfOldInheritor.length */\n      mload\n        /* \".deps/studying-solidity/testament/Testament.sol\":5770:5817  uint256 length = testatorsOfOldInheritor.length */\n      swap1\n      pop\n        /* \".deps/studying-solidity/testament/Testament.sol\":5960:5969  uint256 j */\n      0x00\n        /* \".deps/studying-solidity/testament/Testament.sol\":5955:6443  for (uint256 j = 0; j < length; j++) {... */\n    tag_242:\n        /* \".deps/studying-solidity/testament/Testament.sol\":5979:5985  length */\n      dup2\n        /* \".deps/studying-solidity/testament/Testament.sol\":5975:5976  j */\n      dup2\n        /* \".deps/studying-solidity/testament/Testament.sol\":5975:5985  j < length */\n      lt\n        /* \".deps/studying-solidity/testament/Testament.sol\":5955:6443  for (uint256 j = 0; j < length; j++) {... */\n      iszero\n      tag_243\n      jumpi\n        /* \".deps/studying-solidity/testament/Testament.sol\":6044:6057  _ownTestament */\n      dup6\n        /* \".deps/studying-solidity/testament/Testament.sol\":6014:6057  testatorsOfOldInheritor[j] == _ownTestament */\n      0xffffffffffffffffffffffffffffffffffffffff\n      and\n        /* \".deps/studying-solidity/testament/Testament.sol\":6014:6037  testatorsOfOldInheritor */\n      dup4\n        /* \".deps/studying-solidity/testament/Testament.sol\":6038:6039  j */\n      dup3\n        /* \".deps/studying-solidity/testament/Testament.sol\":6014:6040  testatorsOfOldInheritor[j] */\n      dup2\n      mload\n      dup2\n      lt\n      tag_245\n      jumpi\n      tag_246\n      tag_88\n      jump\t// in\n    tag_246:\n    tag_245:\n      0x20\n      mul\n      0x20\n      add\n      add\n      mload\n        /* \".deps/studying-solidity/testament/Testament.sol\":6014:6057  testatorsOfOldInheritor[j] == _ownTestament */\n      0xffffffffffffffffffffffffffffffffffffffff\n      and\n      sub\n        /* \".deps/studying-solidity/testament/Testament.sol\":6010:6429  if (testatorsOfOldInheritor[j] == _ownTestament) {... */\n      tag_247\n      jumpi\n        /* \".deps/studying-solidity/testament/Testament.sol\":6110:6133  testatorsOfOldInheritor */\n      dup3\n        /* \".deps/studying-solidity/testament/Testament.sol\":6168:6169  1 */\n      0x01\n        /* \".deps/studying-solidity/testament/Testament.sol\":6159:6165  length */\n      dup4\n        /* \".deps/studying-solidity/testament/Testament.sol\":6159:6169  length - 1 */\n      tag_248\n      swap2\n      swap1\n      tag_165\n      jump\t// in\n    tag_248:\n        /* \".deps/studying-solidity/testament/Testament.sol\":6110:6191  testatorsOfOldInheritor[... */\n      dup2\n      mload\n      dup2\n      lt\n      tag_249\n      jumpi\n      tag_250\n      tag_88\n      jump\t// in\n    tag_250:\n    tag_249:\n      0x20\n      mul\n      0x20\n      add\n      add\n      mload\n        /* \".deps/studying-solidity/testament/Testament.sol\":6081:6104  testatorsOfOldInheritor */\n      dup4\n        /* \".deps/studying-solidity/testament/Testament.sol\":6105:6106  j */\n      dup3\n        /* \".deps/studying-solidity/testament/Testament.sol\":6081:6107  testatorsOfOldInheritor[j] */\n      dup2\n      mload\n      dup2\n      lt\n      tag_251\n      jumpi\n      tag_252\n      tag_88\n      jump\t// in\n    tag_252:\n    tag_251:\n      0x20\n      mul\n      0x20\n      add\n      add\n        /* \".deps/studying-solidity/testament/Testament.sol\":6081:6191  testatorsOfOldInheritor[j] = testatorsOfOldInheritor[... */\n      swap1\n      0xffffffffffffffffffffffffffffffffffffffff\n      and\n      swap1\n      dup2\n      0xffffffffffffffffffffffffffffffffffffffff\n      and\n      dup2\n      mstore\n      pop\n      pop\n        /* \".deps/studying-solidity/testament/Testament.sol\":6239:6259  inheritorToTestators */\n      0x01\n        /* \".deps/studying-solidity/testament/Testament.sol\":6239:6294  inheritorToTestators[oldInheritors[i].inheritorAddress] */\n      0x00\n        /* \".deps/studying-solidity/testament/Testament.sol\":6260:6273  oldInheritors */\n      dup7\n        /* \".deps/studying-solidity/testament/Testament.sol\":6274:6275  i */\n      dup7\n        /* \".deps/studying-solidity/testament/Testament.sol\":6260:6276  oldInheritors[i] */\n      dup2\n      mload\n      dup2\n      lt\n      tag_253\n      jumpi\n      tag_254\n      tag_88\n      jump\t// in\n    tag_254:\n    tag_253:\n      0x20\n      mul\n      0x20\n      add\n      add\n      mload\n        /* \".deps/studying-solidity/testament/Testament.sol\":6260:6293  oldInheritors[i].inheritorAddress */\n      0x00\n      add\n      mload\n        /* \".deps/studying-solidity/testament/Testament.sol\":6239:6294  inheritorToTestators[oldInheritors[i].inheritorAddress] */\n      0xffffffffffffffffffffffffffffffffffffffff\n      and\n      0xffffffffffffffffffffffffffffffffffffffff\n      and\n      dup2\n      mstore\n      0x20\n      add\n      swap1\n      dup2\n      mstore\n      0x20\n      add\n      0x00\n      keccak256\n        /* \".deps/studying-solidity/testament/Testament.sol\":6239:6325  inheritorToTestators[oldInheritors[i].inheritorAddress]... */\n      dup1\n      sload\n      dup1\n      tag_255\n      jumpi\n      tag_256\n      tag_257\n      jump\t// in\n    tag_256:\n    tag_255:\n      0x01\n      swap1\n      sub\n      dup2\n      dup2\n      swap1\n      0x00\n      mstore\n      keccak256(0x00, 0x20)\n      add\n      exp(0x0100, 0x00)\n      dup2\n      sload\n      swap1\n      0xffffffffffffffffffffffffffffffffffffffff\n      mul\n      not\n      and\n      swap1\n      sstore\n      swap1\n      sstore\n        /* \".deps/studying-solidity/testament/Testament.sol\":6367:6372  break */\n      jump(tag_243)\n        /* \".deps/studying-solidity/testament/Testament.sol\":6010:6429  if (testatorsOfOldInheritor[j] == _ownTestament) {... */\n    tag_247:\n        /* \".deps/studying-solidity/testament/Testament.sol\":5987:5990  j++ */\n      dup1\n      dup1\n      0x01\n      add\n      swap2\n      pop\n      pop\n        /* \".deps/studying-solidity/testament/Testament.sol\":5955:6443  for (uint256 j = 0; j < length; j++) {... */\n      jump(tag_242)\n    tag_243:\n      pop\n        /* \".deps/studying-solidity/testament/Testament.sol\":5537:6453  {... */\n      pop\n      pop\n        /* \".deps/studying-solidity/testament/Testament.sol\":5532:5535  i++ */\n      dup1\n      dup1\n      0x01\n      add\n      swap2\n      pop\n      pop\n        /* \".deps/studying-solidity/testament/Testament.sol\":5486:6453  for (uint256 i = 0; i < oldInheritors.length; i++) {... */\n      jump(tag_235)\n    tag_236:\n      pop\n        /* \".deps/studying-solidity/testament/Testament.sol\":5281:6459  {... */\n      pop\n        /* \".deps/studying-solidity/testament/Testament.sol\":5210:6459  function clearOldInheritorsOfTestament(address _ownTestament) internal {... */\n      pop\n      jump\t// out\n    tag_82:\n      pop\n      dup1\n      sload\n      0x00\n      dup3\n      sstore\n      swap1\n      0x00\n      mstore\n      keccak256(0x00, 0x20)\n      swap1\n      dup2\n      add\n      swap1\n      tag_260\n      swap2\n      swap1\n      tag_261\n      jump\t// in\n    tag_260:\n      pop\n      jump\t// out\n    tag_261:\n    tag_262:\n      dup1\n      dup3\n      gt\n      iszero\n      tag_263\n      jumpi\n      0x00\n      dup1\n      dup3\n      add\n      exp(0x0100, 0x00)\n      dup2\n      sload\n      swap1\n      0xffffffffffffffffffffffffffffffffffffffff\n      mul\n      not\n      and\n      swap1\n      sstore\n      0x00\n      dup3\n      add\n      exp(0x0100, 0x14)\n      dup2\n      sload\n      swap1\n      0xffff\n      mul\n      not\n      and\n      swap1\n      sstore\n      0x00\n      dup3\n      add\n      exp(0x0100, 0x16)\n      dup2\n      sload\n      swap1\n      0xff\n      mul\n      not\n      and\n      swap1\n      sstore\n      pop\n      0x01\n      add\n      jump(tag_262)\n    tag_263:\n      pop\n      swap1\n      jump\t// out\n        /* \"#utility.yul\":7:82   */\n    tag_264:\n        /* \"#utility.yul\":40:46   */\n      0x00\n        /* \"#utility.yul\":73:75   */\n      0x40\n        /* \"#utility.yul\":67:76   */\n      mload\n        /* \"#utility.yul\":57:76   */\n      swap1\n      pop\n        /* \"#utility.yul\":7:82   */\n      swap1\n      jump\t// out\n        /* \"#utility.yul\":88:205   */\n    tag_265:\n        /* \"#utility.yul\":197:198   */\n      0x00\n        /* \"#utility.yul\":194:195   */\n      dup1\n        /* \"#utility.yul\":187:199   */\n      revert\n        /* \"#utility.yul\":211:328   */\n    tag_266:\n        /* \"#utility.yul\":320:321   */\n      0x00\n        /* \"#utility.yul\":317:318   */\n      dup1\n        /* \"#utility.yul\":310:322   */\n      revert\n        /* \"#utility.yul\":334:451   */\n    tag_267:\n        /* \"#utility.yul\":443:444   */\n      0x00\n        /* \"#utility.yul\":440:441   */\n      dup1\n        /* \"#utility.yul\":433:445   */\n      revert\n        /* \"#utility.yul\":457:574   */\n    tag_268:\n        /* \"#utility.yul\":566:567   */\n      0x00\n        /* \"#utility.yul\":563:564   */\n      dup1\n        /* \"#utility.yul\":556:568   */\n      revert\n        /* \"#utility.yul\":580:697   */\n    tag_269:\n        /* \"#utility.yul\":689:690   */\n      0x00\n        /* \"#utility.yul\":686:687   */\n      dup1\n        /* \"#utility.yul\":679:691   */\n      revert\n        /* \"#utility.yul\":720:1288   */\n    tag_270:\n        /* \"#utility.yul\":793:801   */\n      0x00\n        /* \"#utility.yul\":803:809   */\n      dup1\n        /* \"#utility.yul\":853:856   */\n      dup4\n        /* \"#utility.yul\":846:850   */\n      0x1f\n        /* \"#utility.yul\":838:844   */\n      dup5\n        /* \"#utility.yul\":834:851   */\n      add\n        /* \"#utility.yul\":830:857   */\n      slt\n        /* \"#utility.yul\":820:942   */\n      tag_368\n      jumpi\n        /* \"#utility.yul\":861:940   */\n      tag_369\n      tag_267\n      jump\t// in\n    tag_369:\n        /* \"#utility.yul\":820:942   */\n    tag_368:\n        /* \"#utility.yul\":974:980   */\n      dup3\n        /* \"#utility.yul\":961:981   */\n      calldataload\n        /* \"#utility.yul\":951:981   */\n      swap1\n      pop\n        /* \"#utility.yul\":1004:1022   */\n      0xffffffffffffffff\n        /* \"#utility.yul\":996:1002   */\n      dup2\n        /* \"#utility.yul\":993:1023   */\n      gt\n        /* \"#utility.yul\":990:1107   */\n      iszero\n      tag_370\n      jumpi\n        /* \"#utility.yul\":1026:1105   */\n      tag_371\n      tag_268\n      jump\t// in\n    tag_371:\n        /* \"#utility.yul\":990:1107   */\n    tag_370:\n        /* \"#utility.yul\":1140:1144   */\n      0x20\n        /* \"#utility.yul\":1132:1138   */\n      dup4\n        /* \"#utility.yul\":1128:1145   */\n      add\n        /* \"#utility.yul\":1116:1145   */\n      swap2\n      pop\n        /* \"#utility.yul\":1194:1197   */\n      dup4\n        /* \"#utility.yul\":1186:1190   */\n      0x20\n        /* \"#utility.yul\":1178:1184   */\n      dup3\n        /* \"#utility.yul\":1174:1191   */\n      mul\n        /* \"#utility.yul\":1164:1172   */\n      dup4\n        /* \"#utility.yul\":1160:1192   */\n      add\n        /* \"#utility.yul\":1157:1198   */\n      gt\n        /* \"#utility.yul\":1154:1282   */\n      iszero\n      tag_372\n      jumpi\n        /* \"#utility.yul\":1201:1280   */\n      tag_373\n      tag_269\n      jump\t// in\n    tag_373:\n        /* \"#utility.yul\":1154:1282   */\n    tag_372:\n        /* \"#utility.yul\":720:1288   */\n      swap3\n      pop\n      swap3\n      swap1\n      pop\n      jump\t// out\n        /* \"#utility.yul\":1310:1877   */\n    tag_271:\n        /* \"#utility.yul\":1382:1390   */\n      0x00\n        /* \"#utility.yul\":1392:1398   */\n      dup1\n        /* \"#utility.yul\":1442:1445   */\n      dup4\n        /* \"#utility.yul\":1435:1439   */\n      0x1f\n        /* \"#utility.yul\":1427:1433   */\n      dup5\n        /* \"#utility.yul\":1423:1440   */\n      add\n        /* \"#utility.yul\":1419:1446   */\n      slt\n        /* \"#utility.yul\":1409:1531   */\n      tag_375\n      jumpi\n        /* \"#utility.yul\":1450:1529   */\n      tag_376\n      tag_267\n      jump\t// in\n    tag_376:\n        /* \"#utility.yul\":1409:1531   */\n    tag_375:\n        /* \"#utility.yul\":1563:1569   */\n      dup3\n        /* \"#utility.yul\":1550:1570   */\n      calldataload\n        /* \"#utility.yul\":1540:1570   */\n      swap1\n      pop\n        /* \"#utility.yul\":1593:1611   */\n      0xffffffffffffffff\n        /* \"#utility.yul\":1585:1591   */\n      dup2\n        /* \"#utility.yul\":1582:1612   */\n      gt\n        /* \"#utility.yul\":1579:1696   */\n      iszero\n      tag_377\n      jumpi\n        /* \"#utility.yul\":1615:1694   */\n      tag_378\n      tag_268\n      jump\t// in\n    tag_378:\n        /* \"#utility.yul\":1579:1696   */\n    tag_377:\n        /* \"#utility.yul\":1729:1733   */\n      0x20\n        /* \"#utility.yul\":1721:1727   */\n      dup4\n        /* \"#utility.yul\":1717:1734   */\n      add\n        /* \"#utility.yul\":1705:1734   */\n      swap2\n      pop\n        /* \"#utility.yul\":1783:1786   */\n      dup4\n        /* \"#utility.yul\":1775:1779   */\n      0x20\n        /* \"#utility.yul\":1767:1773   */\n      dup3\n        /* \"#utility.yul\":1763:1780   */\n      mul\n        /* \"#utility.yul\":1753:1761   */\n      dup4\n        /* \"#utility.yul\":1749:1781   */\n      add\n        /* \"#utility.yul\":1746:1787   */\n      gt\n        /* \"#utility.yul\":1743:1871   */\n      iszero\n      tag_379\n      jumpi\n        /* \"#utility.yul\":1790:1869   */\n      tag_380\n      tag_269\n      jump\t// in\n    tag_380:\n        /* \"#utility.yul\":1743:1871   */\n    tag_379:\n        /* \"#utility.yul\":1310:1877   */\n      swap3\n      pop\n      swap3\n      swap1\n      pop\n      jump\t// out\n        /* \"#utility.yul\":1883:2815   */\n    tag_18:\n        /* \"#utility.yul\":2004:2010   */\n      0x00\n        /* \"#utility.yul\":2012:2018   */\n      dup1\n        /* \"#utility.yul\":2020:2026   */\n      0x00\n        /* \"#utility.yul\":2028:2034   */\n      dup1\n        /* \"#utility.yul\":2077:2079   */\n      0x40\n        /* \"#utility.yul\":2065:2074   */\n      dup6\n        /* \"#utility.yul\":2056:2063   */\n      dup8\n        /* \"#utility.yul\":2052:2075   */\n      sub\n        /* \"#utility.yul\":2048:2080   */\n      slt\n        /* \"#utility.yul\":2045:2164   */\n      iszero\n      tag_382\n      jumpi\n        /* \"#utility.yul\":2083:2162   */\n      tag_383\n      tag_265\n      jump\t// in\n    tag_383:\n        /* \"#utility.yul\":2045:2164   */\n    tag_382:\n        /* \"#utility.yul\":2231:2232   */\n      0x00\n        /* \"#utility.yul\":2220:2229   */\n      dup6\n        /* \"#utility.yul\":2216:2233   */\n      add\n        /* \"#utility.yul\":2203:2234   */\n      calldataload\n        /* \"#utility.yul\":2261:2279   */\n      0xffffffffffffffff\n        /* \"#utility.yul\":2253:2259   */\n      dup2\n        /* \"#utility.yul\":2250:2280   */\n      gt\n        /* \"#utility.yul\":2247:2364   */\n      iszero\n      tag_384\n      jumpi\n        /* \"#utility.yul\":2283:2362   */\n      tag_385\n      tag_266\n      jump\t// in\n    tag_385:\n        /* \"#utility.yul\":2247:2364   */\n    tag_384:\n        /* \"#utility.yul\":2396:2476   */\n      tag_386\n        /* \"#utility.yul\":2468:2475   */\n      dup8\n        /* \"#utility.yul\":2459:2465   */\n      dup3\n        /* \"#utility.yul\":2448:2457   */\n      dup9\n        /* \"#utility.yul\":2444:2466   */\n      add\n        /* \"#utility.yul\":2396:2476   */\n      tag_270\n      jump\t// in\n    tag_386:\n        /* \"#utility.yul\":2378:2476   */\n      swap5\n      pop\n      swap5\n      pop\n        /* \"#utility.yul\":2174:2486   */\n      pop\n        /* \"#utility.yul\":2553:2555   */\n      0x20\n        /* \"#utility.yul\":2542:2551   */\n      dup6\n        /* \"#utility.yul\":2538:2556   */\n      add\n        /* \"#utility.yul\":2525:2557   */\n      calldataload\n        /* \"#utility.yul\":2584:2602   */\n      0xffffffffffffffff\n        /* \"#utility.yul\":2576:2582   */\n      dup2\n        /* \"#utility.yul\":2573:2603   */\n      gt\n        /* \"#utility.yul\":2570:2687   */\n      iszero\n      tag_387\n      jumpi\n        /* \"#utility.yul\":2606:2685   */\n      tag_388\n      tag_266\n      jump\t// in\n    tag_388:\n        /* \"#utility.yul\":2570:2687   */\n    tag_387:\n        /* \"#utility.yul\":2719:2798   */\n      tag_389\n        /* \"#utility.yul\":2790:2797   */\n      dup8\n        /* \"#utility.yul\":2781:2787   */\n      dup3\n        /* \"#utility.yul\":2770:2779   */\n      dup9\n        /* \"#utility.yul\":2766:2788   */\n      add\n        /* \"#utility.yul\":2719:2798   */\n      tag_271\n      jump\t// in\n    tag_389:\n        /* \"#utility.yul\":2701:2798   */\n      swap3\n      pop\n      swap3\n      pop\n        /* \"#utility.yul\":2496:2808   */\n      pop\n        /* \"#utility.yul\":1883:2815   */\n      swap3\n      swap6\n      swap2\n      swap5\n      pop\n      swap3\n      pop\n      jump\t// out\n        /* \"#utility.yul\":2821:2947   */\n    tag_272:\n        /* \"#utility.yul\":2858:2865   */\n      0x00\n        /* \"#utility.yul\":2898:2940   */\n      0xffffffffffffffffffffffffffffffffffffffff\n        /* \"#utility.yul\":2891:2896   */\n      dup3\n        /* \"#utility.yul\":2887:2941   */\n      and\n        /* \"#utility.yul\":2876:2941   */\n      swap1\n      pop\n        /* \"#utility.yul\":2821:2947   */\n      swap2\n      swap1\n      pop\n      jump\t// out\n        /* \"#utility.yul\":2953:3049   */\n    tag_273:\n        /* \"#utility.yul\":2990:2997   */\n      0x00\n        /* \"#utility.yul\":3019:3043   */\n      tag_392\n        /* \"#utility.yul\":3037:3042   */\n      dup3\n        /* \"#utility.yul\":3019:3043   */\n      tag_272\n      jump\t// in\n    tag_392:\n        /* \"#utility.yul\":3008:3043   */\n      swap1\n      pop\n        /* \"#utility.yul\":2953:3049   */\n      swap2\n      swap1\n      pop\n      jump\t// out\n        /* \"#utility.yul\":3055:3177   */\n    tag_274:\n        /* \"#utility.yul\":3128:3152   */\n      tag_394\n        /* \"#utility.yul\":3146:3151   */\n      dup2\n        /* \"#utility.yul\":3128:3152   */\n      tag_273\n      jump\t// in\n    tag_394:\n        /* \"#utility.yul\":3121:3126   */\n      dup2\n        /* \"#utility.yul\":3118:3153   */\n      eq\n        /* \"#utility.yul\":3108:3171   */\n      tag_395\n      jumpi\n        /* \"#utility.yul\":3167:3168   */\n      0x00\n        /* \"#utility.yul\":3164:3165   */\n      dup1\n        /* \"#utility.yul\":3157:3169   */\n      revert\n        /* \"#utility.yul\":3108:3171   */\n    tag_395:\n        /* \"#utility.yul\":3055:3177   */\n      pop\n      jump\t// out\n        /* \"#utility.yul\":3183:3322   */\n    tag_275:\n        /* \"#utility.yul\":3229:3234   */\n      0x00\n        /* \"#utility.yul\":3267:3273   */\n      dup2\n        /* \"#utility.yul\":3254:3274   */\n      calldataload\n        /* \"#utility.yul\":3245:3274   */\n      swap1\n      pop\n        /* \"#utility.yul\":3283:3316   */\n      tag_397\n        /* \"#utility.yul\":3310:3315   */\n      dup2\n        /* \"#utility.yul\":3283:3316   */\n      tag_274\n      jump\t// in\n    tag_397:\n        /* \"#utility.yul\":3183:3322   */\n      swap3\n      swap2\n      pop\n      pop\n      jump\t// out\n        /* \"#utility.yul\":3328:3657   */\n    tag_28:\n        /* \"#utility.yul\":3387:3393   */\n      0x00\n        /* \"#utility.yul\":3436:3438   */\n      0x20\n        /* \"#utility.yul\":3424:3433   */\n      dup3\n        /* \"#utility.yul\":3415:3422   */\n      dup5\n        /* \"#utility.yul\":3411:3434   */\n      sub\n        /* \"#utility.yul\":3407:3439   */\n      slt\n        /* \"#utility.yul\":3404:3523   */\n      iszero\n      tag_399\n      jumpi\n        /* \"#utility.yul\":3442:3521   */\n      tag_400\n      tag_265\n      jump\t// in\n    tag_400:\n        /* \"#utility.yul\":3404:3523   */\n    tag_399:\n        /* \"#utility.yul\":3562:3563   */\n      0x00\n        /* \"#utility.yul\":3587:3640   */\n      tag_401\n        /* \"#utility.yul\":3632:3639   */\n      dup5\n        /* \"#utility.yul\":3623:3629   */\n      dup3\n        /* \"#utility.yul\":3612:3621   */\n      dup6\n        /* \"#utility.yul\":3608:3630   */\n      add\n        /* \"#utility.yul\":3587:3640   */\n      tag_275\n      jump\t// in\n    tag_401:\n        /* \"#utility.yul\":3577:3640   */\n      swap2\n      pop\n        /* \"#utility.yul\":3533:3650   */\n      pop\n        /* \"#utility.yul\":3328:3657   */\n      swap3\n      swap2\n      pop\n      pop\n      jump\t// out\n        /* \"#utility.yul\":3663:3740   */\n    tag_276:\n        /* \"#utility.yul\":3700:3707   */\n      0x00\n        /* \"#utility.yul\":3729:3734   */\n      dup2\n        /* \"#utility.yul\":3718:3734   */\n      swap1\n      pop\n        /* \"#utility.yul\":3663:3740   */\n      swap2\n      swap1\n      pop\n      jump\t// out\n        /* \"#utility.yul\":3746:3868   */\n    tag_277:\n        /* \"#utility.yul\":3819:3843   */\n      tag_404\n        /* \"#utility.yul\":3837:3842   */\n      dup2\n        /* \"#utility.yul\":3819:3843   */\n      tag_276\n      jump\t// in\n    tag_404:\n        /* \"#utility.yul\":3812:3817   */\n      dup2\n        /* \"#utility.yul\":3809:3844   */\n      eq\n        /* \"#utility.yul\":3799:3862   */\n      tag_405\n      jumpi\n        /* \"#utility.yul\":3858:3859   */\n      0x00\n        /* \"#utility.yul\":3855:3856   */\n      dup1\n        /* \"#utility.yul\":3848:3860   */\n      revert\n        /* \"#utility.yul\":3799:3862   */\n    tag_405:\n        /* \"#utility.yul\":3746:3868   */\n      pop\n      jump\t// out\n        /* \"#utility.yul\":3874:4013   */\n    tag_278:\n        /* \"#utility.yul\":3920:3925   */\n      0x00\n        /* \"#utility.yul\":3958:3964   */\n      dup2\n        /* \"#utility.yul\":3945:3965   */\n      calldataload\n        /* \"#utility.yul\":3936:3965   */\n      swap1\n      pop\n        /* \"#utility.yul\":3974:4007   */\n      tag_407\n        /* \"#utility.yul\":4001:4006   */\n      dup2\n        /* \"#utility.yul\":3974:4007   */\n      tag_277\n      jump\t// in\n    tag_407:\n        /* \"#utility.yul\":3874:4013   */\n      swap3\n      swap2\n      pop\n      pop\n      jump\t// out\n        /* \"#utility.yul\":4019:4493   */\n    tag_33:\n        /* \"#utility.yul\":4087:4093   */\n      0x00\n        /* \"#utility.yul\":4095:4101   */\n      dup1\n        /* \"#utility.yul\":4144:4146   */\n      0x40\n        /* \"#utility.yul\":4132:4141   */\n      dup4\n        /* \"#utility.yul\":4123:4130   */\n      dup6\n        /* \"#utility.yul\":4119:4142   */\n      sub\n        /* \"#utility.yul\":4115:4147   */\n      slt\n        /* \"#utility.yul\":4112:4231   */\n      iszero\n      tag_409\n      jumpi\n        /* \"#utility.yul\":4150:4229   */\n      tag_410\n      tag_265\n      jump\t// in\n    tag_410:\n        /* \"#utility.yul\":4112:4231   */\n    tag_409:\n        /* \"#utility.yul\":4270:4271   */\n      0x00\n        /* \"#utility.yul\":4295:4348   */\n      tag_411\n        /* \"#utility.yul\":4340:4347   */\n      dup6\n        /* \"#utility.yul\":4331:4337   */\n      dup3\n        /* \"#utility.yul\":4320:4329   */\n      dup7\n        /* \"#utility.yul\":4316:4338   */\n      add\n        /* \"#utility.yul\":4295:4348   */\n      tag_275\n      jump\t// in\n    tag_411:\n        /* \"#utility.yul\":4285:4348   */\n      swap3\n      pop\n        /* \"#utility.yul\":4241:4358   */\n      pop\n        /* \"#utility.yul\":4397:4399   */\n      0x20\n        /* \"#utility.yul\":4423:4476   */\n      tag_412\n        /* \"#utility.yul\":4468:4475   */\n      dup6\n        /* \"#utility.yul\":4459:4465   */\n      dup3\n        /* \"#utility.yul\":4448:4457   */\n      dup7\n        /* \"#utility.yul\":4444:4466   */\n      add\n        /* \"#utility.yul\":4423:4476   */\n      tag_278\n      jump\t// in\n    tag_412:\n        /* \"#utility.yul\":4413:4476   */\n      swap2\n      pop\n        /* \"#utility.yul\":4368:4486   */\n      pop\n        /* \"#utility.yul\":4019:4493   */\n      swap3\n      pop\n      swap3\n      swap1\n      pop\n      jump\t// out\n        /* \"#utility.yul\":4499:4617   */\n    tag_279:\n        /* \"#utility.yul\":4586:4610   */\n      tag_414\n        /* \"#utility.yul\":4604:4609   */\n      dup2\n        /* \"#utility.yul\":4586:4610   */\n      tag_273\n      jump\t// in\n    tag_414:\n        /* \"#utility.yul\":4581:4584   */\n      dup3\n        /* \"#utility.yul\":4574:4611   */\n      mstore\n        /* \"#utility.yul\":4499:4617   */\n      pop\n      pop\n      jump\t// out\n        /* \"#utility.yul\":4623:4845   */\n    tag_36:\n        /* \"#utility.yul\":4716:4720   */\n      0x00\n        /* \"#utility.yul\":4754:4756   */\n      0x20\n        /* \"#utility.yul\":4743:4752   */\n      dup3\n        /* \"#utility.yul\":4739:4757   */\n      add\n        /* \"#utility.yul\":4731:4757   */\n      swap1\n      pop\n        /* \"#utility.yul\":4767:4838   */\n      tag_416\n        /* \"#utility.yul\":4835:4836   */\n      0x00\n        /* \"#utility.yul\":4824:4833   */\n      dup4\n        /* \"#utility.yul\":4820:4837   */\n      add\n        /* \"#utility.yul\":4811:4817   */\n      dup5\n        /* \"#utility.yul\":4767:4838   */\n      tag_279\n      jump\t// in\n    tag_416:\n        /* \"#utility.yul\":4623:4845   */\n      swap3\n      swap2\n      pop\n      pop\n      jump\t// out\n        /* \"#utility.yul\":4851:5180   */\n    tag_40:\n        /* \"#utility.yul\":4910:4916   */\n      0x00\n        /* \"#utility.yul\":4959:4961   */\n      0x20\n        /* \"#utility.yul\":4947:4956   */\n      dup3\n        /* \"#utility.yul\":4938:4945   */\n      dup5\n        /* \"#utility.yul\":4934:4957   */\n      sub\n        /* \"#utility.yul\":4930:4962   */\n      slt\n        /* \"#utility.yul\":4927:5046   */\n      iszero\n      tag_418\n      jumpi\n        /* \"#utility.yul\":4965:5044   */\n      tag_419\n      tag_265\n      jump\t// in\n    tag_419:\n        /* \"#utility.yul\":4927:5046   */\n    tag_418:\n        /* \"#utility.yul\":5085:5086   */\n      0x00\n        /* \"#utility.yul\":5110:5163   */\n      tag_420\n        /* \"#utility.yul\":5155:5162   */\n      dup5\n        /* \"#utility.yul\":5146:5152   */\n      dup3\n        /* \"#utility.yul\":5135:5144   */\n      dup6\n        /* \"#utility.yul\":5131:5153   */\n      add\n        /* \"#utility.yul\":5110:5163   */\n      tag_278\n      jump\t// in\n    tag_420:\n        /* \"#utility.yul\":5100:5163   */\n      swap2\n      pop\n        /* \"#utility.yul\":5056:5173   */\n      pop\n        /* \"#utility.yul\":4851:5180   */\n      swap3\n      swap2\n      pop\n      pop\n      jump\t// out\n        /* \"#utility.yul\":5186:5276   */\n    tag_280:\n        /* \"#utility.yul\":5220:5227   */\n      0x00\n        /* \"#utility.yul\":5263:5268   */\n      dup2\n        /* \"#utility.yul\":5256:5269   */\n      iszero\n        /* \"#utility.yul\":5249:5270   */\n      iszero\n        /* \"#utility.yul\":5238:5270   */\n      swap1\n      pop\n        /* \"#utility.yul\":5186:5276   */\n      swap2\n      swap1\n      pop\n      jump\t// out\n        /* \"#utility.yul\":5282:5391   */\n    tag_281:\n        /* \"#utility.yul\":5363:5384   */\n      tag_423\n        /* \"#utility.yul\":5378:5383   */\n      dup2\n        /* \"#utility.yul\":5363:5384   */\n      tag_280\n      jump\t// in\n    tag_423:\n        /* \"#utility.yul\":5358:5361   */\n      dup3\n        /* \"#utility.yul\":5351:5385   */\n      mstore\n        /* \"#utility.yul\":5282:5391   */\n      pop\n      pop\n      jump\t// out\n        /* \"#utility.yul\":5397:5515   */\n    tag_282:\n        /* \"#utility.yul\":5434:5441   */\n      0x00\n        /* \"#utility.yul\":5474:5508   */\n      0xffffffffffffffffffffffffffffffff\n        /* \"#utility.yul\":5467:5472   */\n      dup3\n        /* \"#utility.yul\":5463:5509   */\n      and\n        /* \"#utility.yul\":5452:5509   */\n      swap1\n      pop\n        /* \"#utility.yul\":5397:5515   */\n      swap2\n      swap1\n      pop\n      jump\t// out\n        /* \"#utility.yul\":5521:5639   */\n    tag_283:\n        /* \"#utility.yul\":5608:5632   */\n      tag_426\n        /* \"#utility.yul\":5626:5631   */\n      dup2\n        /* \"#utility.yul\":5608:5632   */\n      tag_282\n      jump\t// in\n    tag_426:\n        /* \"#utility.yul\":5603:5606   */\n      dup3\n        /* \"#utility.yul\":5596:5633   */\n      mstore\n        /* \"#utility.yul\":5521:5639   */\n      pop\n      pop\n      jump\t// out\n        /* \"#utility.yul\":5645:5763   */\n    tag_284:\n        /* \"#utility.yul\":5732:5756   */\n      tag_428\n        /* \"#utility.yul\":5750:5755   */\n      dup2\n        /* \"#utility.yul\":5732:5756   */\n      tag_276\n      jump\t// in\n    tag_428:\n        /* \"#utility.yul\":5727:5730   */\n      dup3\n        /* \"#utility.yul\":5720:5757   */\n      mstore\n        /* \"#utility.yul\":5645:5763   */\n      pop\n      pop\n      jump\t// out\n        /* \"#utility.yul\":5769:6199   */\n    tag_47:\n        /* \"#utility.yul\":5912:5916   */\n      0x00\n        /* \"#utility.yul\":5950:5952   */\n      0x60\n        /* \"#utility.yul\":5939:5948   */\n      dup3\n        /* \"#utility.yul\":5935:5953   */\n      add\n        /* \"#utility.yul\":5927:5953   */\n      swap1\n      pop\n        /* \"#utility.yul\":5963:6028   */\n      tag_430\n        /* \"#utility.yul\":6025:6026   */\n      0x00\n        /* \"#utility.yul\":6014:6023   */\n      dup4\n        /* \"#utility.yul\":6010:6027   */\n      add\n        /* \"#utility.yul\":6001:6007   */\n      dup7\n        /* \"#utility.yul\":5963:6028   */\n      tag_281\n      jump\t// in\n    tag_430:\n        /* \"#utility.yul\":6038:6110   */\n      tag_431\n        /* \"#utility.yul\":6106:6108   */\n      0x20\n        /* \"#utility.yul\":6095:6104   */\n      dup4\n        /* \"#utility.yul\":6091:6109   */\n      add\n        /* \"#utility.yul\":6082:6088   */\n      dup6\n        /* \"#utility.yul\":6038:6110   */\n      tag_283\n      jump\t// in\n    tag_431:\n        /* \"#utility.yul\":6120:6192   */\n      tag_432\n        /* \"#utility.yul\":6188:6190   */\n      0x40\n        /* \"#utility.yul\":6177:6186   */\n      dup4\n        /* \"#utility.yul\":6173:6191   */\n      add\n        /* \"#utility.yul\":6164:6170   */\n      dup5\n        /* \"#utility.yul\":6120:6192   */\n      tag_284\n      jump\t// in\n    tag_432:\n        /* \"#utility.yul\":5769:6199   */\n      swap5\n      swap4\n      pop\n      pop\n      pop\n      pop\n      jump\t// out\n        /* \"#utility.yul\":6205:6319   */\n    tag_285:\n        /* \"#utility.yul\":6272:6278   */\n      0x00\n        /* \"#utility.yul\":6306:6311   */\n      dup2\n        /* \"#utility.yul\":6300:6312   */\n      mload\n        /* \"#utility.yul\":6290:6312   */\n      swap1\n      pop\n        /* \"#utility.yul\":6205:6319   */\n      swap2\n      swap1\n      pop\n      jump\t// out\n        /* \"#utility.yul\":6325:6509   */\n    tag_286:\n        /* \"#utility.yul\":6424:6435   */\n      0x00\n        /* \"#utility.yul\":6458:6464   */\n      dup3\n        /* \"#utility.yul\":6453:6456   */\n      dup3\n        /* \"#utility.yul\":6446:6465   */\n      mstore\n        /* \"#utility.yul\":6498:6502   */\n      0x20\n        /* \"#utility.yul\":6493:6496   */\n      dup3\n        /* \"#utility.yul\":6489:6503   */\n      add\n        /* \"#utility.yul\":6474:6503   */\n      swap1\n      pop\n        /* \"#utility.yul\":6325:6509   */\n      swap3\n      swap2\n      pop\n      pop\n      jump\t// out\n        /* \"#utility.yul\":6515:6647   */\n    tag_287:\n        /* \"#utility.yul\":6582:6586   */\n      0x00\n        /* \"#utility.yul\":6605:6608   */\n      dup2\n        /* \"#utility.yul\":6597:6608   */\n      swap1\n      pop\n        /* \"#utility.yul\":6635:6639   */\n      0x20\n        /* \"#utility.yul\":6630:6633   */\n      dup3\n        /* \"#utility.yul\":6626:6640   */\n      add\n        /* \"#utility.yul\":6618:6640   */\n      swap1\n      pop\n        /* \"#utility.yul\":6515:6647   */\n      swap2\n      swap1\n      pop\n      jump\t// out\n        /* \"#utility.yul\":6653:6761   */\n    tag_288:\n        /* \"#utility.yul\":6730:6754   */\n      tag_437\n        /* \"#utility.yul\":6748:6753   */\n      dup2\n        /* \"#utility.yul\":6730:6754   */\n      tag_273\n      jump\t// in\n    tag_437:\n        /* \"#utility.yul\":6725:6728   */\n      dup3\n        /* \"#utility.yul\":6718:6755   */\n      mstore\n        /* \"#utility.yul\":6653:6761   */\n      pop\n      pop\n      jump\t// out\n        /* \"#utility.yul\":6767:6946   */\n    tag_289:\n        /* \"#utility.yul\":6836:6846   */\n      0x00\n        /* \"#utility.yul\":6857:6903   */\n      tag_439\n        /* \"#utility.yul\":6899:6902   */\n      dup4\n        /* \"#utility.yul\":6891:6897   */\n      dup4\n        /* \"#utility.yul\":6857:6903   */\n      tag_288\n      jump\t// in\n    tag_439:\n        /* \"#utility.yul\":6935:6939   */\n      0x20\n        /* \"#utility.yul\":6930:6933   */\n      dup4\n        /* \"#utility.yul\":6926:6940   */\n      add\n        /* \"#utility.yul\":6912:6940   */\n      swap1\n      pop\n        /* \"#utility.yul\":6767:6946   */\n      swap3\n      swap2\n      pop\n      pop\n      jump\t// out\n        /* \"#utility.yul\":6952:7065   */\n    tag_290:\n        /* \"#utility.yul\":7022:7026   */\n      0x00\n        /* \"#utility.yul\":7054:7058   */\n      0x20\n        /* \"#utility.yul\":7049:7052   */\n      dup3\n        /* \"#utility.yul\":7045:7059   */\n      add\n        /* \"#utility.yul\":7037:7059   */\n      swap1\n      pop\n        /* \"#utility.yul\":6952:7065   */\n      swap2\n      swap1\n      pop\n      jump\t// out\n        /* \"#utility.yul\":7101:7833   */\n    tag_291:\n        /* \"#utility.yul\":7220:7223   */\n      0x00\n        /* \"#utility.yul\":7249:7303   */\n      tag_442\n        /* \"#utility.yul\":7297:7302   */\n      dup3\n        /* \"#utility.yul\":7249:7303   */\n      tag_285\n      jump\t// in\n    tag_442:\n        /* \"#utility.yul\":7319:7405   */\n      tag_443\n        /* \"#utility.yul\":7398:7404   */\n      dup2\n        /* \"#utility.yul\":7393:7396   */\n      dup6\n        /* \"#utility.yul\":7319:7405   */\n      tag_286\n      jump\t// in\n    tag_443:\n        /* \"#utility.yul\":7312:7405   */\n      swap4\n      pop\n        /* \"#utility.yul\":7429:7485   */\n      tag_444\n        /* \"#utility.yul\":7479:7484   */\n      dup4\n        /* \"#utility.yul\":7429:7485   */\n      tag_287\n      jump\t// in\n    tag_444:\n        /* \"#utility.yul\":7508:7515   */\n      dup1\n        /* \"#utility.yul\":7539:7540   */\n      0x00\n        /* \"#utility.yul\":7524:7808   */\n    tag_445:\n        /* \"#utility.yul\":7549:7555   */\n      dup4\n        /* \"#utility.yul\":7546:7547   */\n      dup2\n        /* \"#utility.yul\":7543:7556   */\n      lt\n        /* \"#utility.yul\":7524:7808   */\n      iszero\n      tag_447\n      jumpi\n        /* \"#utility.yul\":7625:7631   */\n      dup2\n        /* \"#utility.yul\":7619:7632   */\n      mload\n        /* \"#utility.yul\":7652:7715   */\n      tag_448\n        /* \"#utility.yul\":7711:7714   */\n      dup9\n        /* \"#utility.yul\":7696:7709   */\n      dup3\n        /* \"#utility.yul\":7652:7715   */\n      tag_289\n      jump\t// in\n    tag_448:\n        /* \"#utility.yul\":7645:7715   */\n      swap8\n      pop\n        /* \"#utility.yul\":7738:7798   */\n      tag_449\n        /* \"#utility.yul\":7791:7797   */\n      dup4\n        /* \"#utility.yul\":7738:7798   */\n      tag_290\n      jump\t// in\n    tag_449:\n        /* \"#utility.yul\":7728:7798   */\n      swap3\n      pop\n        /* \"#utility.yul\":7584:7808   */\n      pop\n        /* \"#utility.yul\":7571:7572   */\n      0x01\n        /* \"#utility.yul\":7568:7569   */\n      dup2\n        /* \"#utility.yul\":7564:7573   */\n      add\n        /* \"#utility.yul\":7559:7573   */\n      swap1\n      pop\n        /* \"#utility.yul\":7524:7808   */\n      jump(tag_445)\n    tag_447:\n        /* \"#utility.yul\":7528:7542   */\n      pop\n        /* \"#utility.yul\":7824:7827   */\n      dup6\n        /* \"#utility.yul\":7817:7827   */\n      swap4\n      pop\n        /* \"#utility.yul\":7225:7833   */\n      pop\n      pop\n      pop\n        /* \"#utility.yul\":7101:7833   */\n      swap3\n      swap2\n      pop\n      pop\n      jump\t// out\n        /* \"#utility.yul\":7839:7952   */\n    tag_292:\n        /* \"#utility.yul\":7905:7911   */\n      0x00\n        /* \"#utility.yul\":7939:7944   */\n      dup2\n        /* \"#utility.yul\":7933:7945   */\n      mload\n        /* \"#utility.yul\":7923:7945   */\n      swap1\n      pop\n        /* \"#utility.yul\":7839:7952   */\n      swap2\n      swap1\n      pop\n      jump\t// out\n        /* \"#utility.yul\":7958:8141   */\n    tag_293:\n        /* \"#utility.yul\":8056:8067   */\n      0x00\n        /* \"#utility.yul\":8090:8096   */\n      dup3\n        /* \"#utility.yul\":8085:8088   */\n      dup3\n        /* \"#utility.yul\":8078:8097   */\n      mstore\n        /* \"#utility.yul\":8130:8134   */\n      0x20\n        /* \"#utility.yul\":8125:8128   */\n      dup3\n        /* \"#utility.yul\":8121:8135   */\n      add\n        /* \"#utility.yul\":8106:8135   */\n      swap1\n      pop\n        /* \"#utility.yul\":7958:8141   */\n      swap3\n      swap2\n      pop\n      pop\n      jump\t// out\n        /* \"#utility.yul\":8147:8278   */\n    tag_294:\n        /* \"#utility.yul\":8213:8217   */\n      0x00\n        /* \"#utility.yul\":8236:8239   */\n      dup2\n        /* \"#utility.yul\":8228:8239   */\n      swap1\n      pop\n        /* \"#utility.yul\":8266:8270   */\n      0x20\n        /* \"#utility.yul\":8261:8264   */\n      dup3\n        /* \"#utility.yul\":8257:8271   */\n      add\n        /* \"#utility.yul\":8249:8271   */\n      swap1\n      pop\n        /* \"#utility.yul\":8147:8278   */\n      swap2\n      swap1\n      pop\n      jump\t// out\n        /* \"#utility.yul\":8284:8373   */\n    tag_295:\n        /* \"#utility.yul\":8320:8327   */\n      0x00\n        /* \"#utility.yul\":8360:8366   */\n      0xffff\n        /* \"#utility.yul\":8353:8358   */\n      dup3\n        /* \"#utility.yul\":8349:8367   */\n      and\n        /* \"#utility.yul\":8338:8367   */\n      swap1\n      pop\n        /* \"#utility.yul\":8284:8373   */\n      swap2\n      swap1\n      pop\n      jump\t// out\n        /* \"#utility.yul\":8379:8484   */\n    tag_296:\n        /* \"#utility.yul\":8454:8477   */\n      tag_455\n        /* \"#utility.yul\":8471:8476   */\n      dup2\n        /* \"#utility.yul\":8454:8477   */\n      tag_295\n      jump\t// in\n    tag_455:\n        /* \"#utility.yul\":8449:8452   */\n      dup3\n        /* \"#utility.yul\":8442:8478   */\n      mstore\n        /* \"#utility.yul\":8379:8484   */\n      pop\n      pop\n      jump\t// out\n        /* \"#utility.yul\":8490:8665   */\n    tag_297:\n        /* \"#utility.yul\":8557:8567   */\n      0x00\n        /* \"#utility.yul\":8578:8622   */\n      tag_457\n        /* \"#utility.yul\":8618:8621   */\n      dup4\n        /* \"#utility.yul\":8610:8616   */\n      dup4\n        /* \"#utility.yul\":8578:8622   */\n      tag_296\n      jump\t// in\n    tag_457:\n        /* \"#utility.yul\":8654:8658   */\n      0x20\n        /* \"#utility.yul\":8649:8652   */\n      dup4\n        /* \"#utility.yul\":8645:8659   */\n      add\n        /* \"#utility.yul\":8631:8659   */\n      swap1\n      pop\n        /* \"#utility.yul\":8490:8665   */\n      swap3\n      swap2\n      pop\n      pop\n      jump\t// out\n        /* \"#utility.yul\":8671:8783   */\n    tag_298:\n        /* \"#utility.yul\":8740:8744   */\n      0x00\n        /* \"#utility.yul\":8772:8776   */\n      0x20\n        /* \"#utility.yul\":8767:8770   */\n      dup3\n        /* \"#utility.yul\":8763:8777   */\n      add\n        /* \"#utility.yul\":8755:8777   */\n      swap1\n      pop\n        /* \"#utility.yul\":8671:8783   */\n      swap2\n      swap1\n      pop\n      jump\t// out\n        /* \"#utility.yul\":8817:9541   */\n    tag_299:\n        /* \"#utility.yul\":8934:8937   */\n      0x00\n        /* \"#utility.yul\":8963:9016   */\n      tag_460\n        /* \"#utility.yul\":9010:9015   */\n      dup3\n        /* \"#utility.yul\":8963:9016   */\n      tag_292\n      jump\t// in\n    tag_460:\n        /* \"#utility.yul\":9032:9117   */\n      tag_461\n        /* \"#utility.yul\":9110:9116   */\n      dup2\n        /* \"#utility.yul\":9105:9108   */\n      dup6\n        /* \"#utility.yul\":9032:9117   */\n      tag_293\n      jump\t// in\n    tag_461:\n        /* \"#utility.yul\":9025:9117   */\n      swap4\n      pop\n        /* \"#utility.yul\":9141:9196   */\n      tag_462\n        /* \"#utility.yul\":9190:9195   */\n      dup4\n        /* \"#utility.yul\":9141:9196   */\n      tag_294\n      jump\t// in\n    tag_462:\n        /* \"#utility.yul\":9219:9226   */\n      dup1\n        /* \"#utility.yul\":9250:9251   */\n      0x00\n        /* \"#utility.yul\":9235:9516   */\n    tag_463:\n        /* \"#utility.yul\":9260:9266   */\n      dup4\n        /* \"#utility.yul\":9257:9258   */\n      dup2\n        /* \"#utility.yul\":9254:9267   */\n      lt\n        /* \"#utility.yul\":9235:9516   */\n      iszero\n      tag_465\n      jumpi\n        /* \"#utility.yul\":9336:9342   */\n      dup2\n        /* \"#utility.yul\":9330:9343   */\n      mload\n        /* \"#utility.yul\":9363:9424   */\n      tag_466\n        /* \"#utility.yul\":9420:9423   */\n      dup9\n        /* \"#utility.yul\":9405:9418   */\n      dup3\n        /* \"#utility.yul\":9363:9424   */\n      tag_297\n      jump\t// in\n    tag_466:\n        /* \"#utility.yul\":9356:9424   */\n      swap8\n      pop\n        /* \"#utility.yul\":9447:9506   */\n      tag_467\n        /* \"#utility.yul\":9499:9505   */\n      dup4\n        /* \"#utility.yul\":9447:9506   */\n      tag_298\n      jump\t// in\n    tag_467:\n        /* \"#utility.yul\":9437:9506   */\n      swap3\n      pop\n        /* \"#utility.yul\":9295:9516   */\n      pop\n        /* \"#utility.yul\":9282:9283   */\n      0x01\n        /* \"#utility.yul\":9279:9280   */\n      dup2\n        /* \"#utility.yul\":9275:9284   */\n      add\n        /* \"#utility.yul\":9270:9284   */\n      swap1\n      pop\n        /* \"#utility.yul\":9235:9516   */\n      jump(tag_463)\n    tag_465:\n        /* \"#utility.yul\":9239:9253   */\n      pop\n        /* \"#utility.yul\":9532:9535   */\n      dup6\n        /* \"#utility.yul\":9525:9535   */\n      swap4\n      pop\n        /* \"#utility.yul\":8939:9541   */\n      pop\n      pop\n      pop\n        /* \"#utility.yul\":8817:9541   */\n      swap3\n      swap2\n      pop\n      pop\n      jump\t// out\n        /* \"#utility.yul\":9547:9658   */\n    tag_300:\n        /* \"#utility.yul\":9611:9617   */\n      0x00\n        /* \"#utility.yul\":9645:9650   */\n      dup2\n        /* \"#utility.yul\":9639:9651   */\n      mload\n        /* \"#utility.yul\":9629:9651   */\n      swap1\n      pop\n        /* \"#utility.yul\":9547:9658   */\n      swap2\n      swap1\n      pop\n      jump\t// out\n        /* \"#utility.yul\":9664:9845   */\n    tag_301:\n        /* \"#utility.yul\":9760:9771   */\n      0x00\n        /* \"#utility.yul\":9794:9800   */\n      dup3\n        /* \"#utility.yul\":9789:9792   */\n      dup3\n        /* \"#utility.yul\":9782:9801   */\n      mstore\n        /* \"#utility.yul\":9834:9838   */\n      0x20\n        /* \"#utility.yul\":9829:9832   */\n      dup3\n        /* \"#utility.yul\":9825:9839   */\n      add\n        /* \"#utility.yul\":9810:9839   */\n      swap1\n      pop\n        /* \"#utility.yul\":9664:9845   */\n      swap3\n      swap2\n      pop\n      pop\n      jump\t// out\n        /* \"#utility.yul\":9851:9980   */\n    tag_302:\n        /* \"#utility.yul\":9915:9919   */\n      0x00\n        /* \"#utility.yul\":9938:9941   */\n      dup2\n        /* \"#utility.yul\":9930:9941   */\n      swap1\n      pop\n        /* \"#utility.yul\":9968:9972   */\n      0x20\n        /* \"#utility.yul\":9963:9966   */\n      dup3\n        /* \"#utility.yul\":9959:9973   */\n      add\n        /* \"#utility.yul\":9951:9973   */\n      swap1\n      pop\n        /* \"#utility.yul\":9851:9980   */\n      swap2\n      swap1\n      pop\n      jump\t// out\n        /* \"#utility.yul\":9986:10085   */\n    tag_303:\n        /* \"#utility.yul\":10057:10078   */\n      tag_472\n        /* \"#utility.yul\":10072:10077   */\n      dup2\n        /* \"#utility.yul\":10057:10078   */\n      tag_280\n      jump\t// in\n    tag_472:\n        /* \"#utility.yul\":10052:10055   */\n      dup3\n        /* \"#utility.yul\":10045:10079   */\n      mstore\n        /* \"#utility.yul\":9986:10085   */\n      pop\n      pop\n      jump\t// out\n        /* \"#utility.yul\":10091:10258   */\n    tag_304:\n        /* \"#utility.yul\":10154:10164   */\n      0x00\n        /* \"#utility.yul\":10175:10215   */\n      tag_474\n        /* \"#utility.yul\":10211:10214   */\n      dup4\n        /* \"#utility.yul\":10203:10209   */\n      dup4\n        /* \"#utility.yul\":10175:10215   */\n      tag_303\n      jump\t// in\n    tag_474:\n        /* \"#utility.yul\":10247:10251   */\n      0x20\n        /* \"#utility.yul\":10242:10245   */\n      dup4\n        /* \"#utility.yul\":10238:10252   */\n      add\n        /* \"#utility.yul\":10224:10252   */\n      swap1\n      pop\n        /* \"#utility.yul\":10091:10258   */\n      swap3\n      swap2\n      pop\n      pop\n      jump\t// out\n        /* \"#utility.yul\":10264:10374   */\n    tag_305:\n        /* \"#utility.yul\":10331:10335   */\n      0x00\n        /* \"#utility.yul\":10363:10367   */\n      0x20\n        /* \"#utility.yul\":10358:10361   */\n      dup3\n        /* \"#utility.yul\":10354:10368   */\n      add\n        /* \"#utility.yul\":10346:10368   */\n      swap1\n      pop\n        /* \"#utility.yul\":10264:10374   */\n      swap2\n      swap1\n      pop\n      jump\t// out\n        /* \"#utility.yul\":10404:11112   */\n    tag_306:\n        /* \"#utility.yul\":10517:10520   */\n      0x00\n        /* \"#utility.yul\":10546:10597   */\n      tag_477\n        /* \"#utility.yul\":10591:10596   */\n      dup3\n        /* \"#utility.yul\":10546:10597   */\n      tag_300\n      jump\t// in\n    tag_477:\n        /* \"#utility.yul\":10613:10696   */\n      tag_478\n        /* \"#utility.yul\":10689:10695   */\n      dup2\n        /* \"#utility.yul\":10684:10687   */\n      dup6\n        /* \"#utility.yul\":10613:10696   */\n      tag_301\n      jump\t// in\n    tag_478:\n        /* \"#utility.yul\":10606:10696   */\n      swap4\n      pop\n        /* \"#utility.yul\":10720:10773   */\n      tag_479\n        /* \"#utility.yul\":10767:10772   */\n      dup4\n        /* \"#utility.yul\":10720:10773   */\n      tag_302\n      jump\t// in\n    tag_479:\n        /* \"#utility.yul\":10796:10803   */\n      dup1\n        /* \"#utility.yul\":10827:10828   */\n      0x00\n        /* \"#utility.yul\":10812:11087   */\n    tag_480:\n        /* \"#utility.yul\":10837:10843   */\n      dup4\n        /* \"#utility.yul\":10834:10835   */\n      dup2\n        /* \"#utility.yul\":10831:10844   */\n      lt\n        /* \"#utility.yul\":10812:11087   */\n      iszero\n      tag_482\n      jumpi\n        /* \"#utility.yul\":10913:10919   */\n      dup2\n        /* \"#utility.yul\":10907:10920   */\n      mload\n        /* \"#utility.yul\":10940:10997   */\n      tag_483\n        /* \"#utility.yul\":10993:10996   */\n      dup9\n        /* \"#utility.yul\":10978:10991   */\n      dup3\n        /* \"#utility.yul\":10940:10997   */\n      tag_304\n      jump\t// in\n    tag_483:\n        /* \"#utility.yul\":10933:10997   */\n      swap8\n      pop\n        /* \"#utility.yul\":11020:11077   */\n      tag_484\n        /* \"#utility.yul\":11070:11076   */\n      dup4\n        /* \"#utility.yul\":11020:11077   */\n      tag_305\n      jump\t// in\n    tag_484:\n        /* \"#utility.yul\":11010:11077   */\n      swap3\n      pop\n        /* \"#utility.yul\":10872:11087   */\n      pop\n        /* \"#utility.yul\":10859:10860   */\n      0x01\n        /* \"#utility.yul\":10856:10857   */\n      dup2\n        /* \"#utility.yul\":10852:10861   */\n      add\n        /* \"#utility.yul\":10847:10861   */\n      swap1\n      pop\n        /* \"#utility.yul\":10812:11087   */\n      jump(tag_480)\n    tag_482:\n        /* \"#utility.yul\":10816:10830   */\n      pop\n        /* \"#utility.yul\":11103:11106   */\n      dup6\n        /* \"#utility.yul\":11096:11106   */\n      swap4\n      pop\n        /* \"#utility.yul\":10522:11112   */\n      pop\n      pop\n      pop\n        /* \"#utility.yul\":10404:11112   */\n      swap3\n      swap2\n      pop\n      pop\n      jump\t// out\n        /* \"#utility.yul\":11118:12219   */\n    tag_53:\n        /* \"#utility.yul\":11465:11469   */\n      0x00\n        /* \"#utility.yul\":11503:11506   */\n      0xa0\n        /* \"#utility.yul\":11492:11501   */\n      dup3\n        /* \"#utility.yul\":11488:11507   */\n      add\n        /* \"#utility.yul\":11480:11507   */\n      swap1\n      pop\n        /* \"#utility.yul\":11553:11562   */\n      dup2\n        /* \"#utility.yul\":11547:11551   */\n      dup2\n        /* \"#utility.yul\":11543:11563   */\n      sub\n        /* \"#utility.yul\":11539:11540   */\n      0x00\n        /* \"#utility.yul\":11528:11537   */\n      dup4\n        /* \"#utility.yul\":11524:11541   */\n      add\n        /* \"#utility.yul\":11517:11564   */\n      mstore\n        /* \"#utility.yul\":11581:11689   */\n      tag_486\n        /* \"#utility.yul\":11684:11688   */\n      dup2\n        /* \"#utility.yul\":11675:11681   */\n      dup9\n        /* \"#utility.yul\":11581:11689   */\n      tag_291\n      jump\t// in\n    tag_486:\n        /* \"#utility.yul\":11573:11689   */\n      swap1\n      pop\n        /* \"#utility.yul\":11736:11745   */\n      dup2\n        /* \"#utility.yul\":11730:11734   */\n      dup2\n        /* \"#utility.yul\":11726:11746   */\n      sub\n        /* \"#utility.yul\":11721:11723   */\n      0x20\n        /* \"#utility.yul\":11710:11719   */\n      dup4\n        /* \"#utility.yul\":11706:11724   */\n      add\n        /* \"#utility.yul\":11699:11747   */\n      mstore\n        /* \"#utility.yul\":11764:11870   */\n      tag_487\n        /* \"#utility.yul\":11865:11869   */\n      dup2\n        /* \"#utility.yul\":11856:11862   */\n      dup8\n        /* \"#utility.yul\":11764:11870   */\n      tag_299\n      jump\t// in\n    tag_487:\n        /* \"#utility.yul\":11756:11870   */\n      swap1\n      pop\n        /* \"#utility.yul\":11917:11926   */\n      dup2\n        /* \"#utility.yul\":11911:11915   */\n      dup2\n        /* \"#utility.yul\":11907:11927   */\n      sub\n        /* \"#utility.yul\":11902:11904   */\n      0x40\n        /* \"#utility.yul\":11891:11900   */\n      dup4\n        /* \"#utility.yul\":11887:11905   */\n      add\n        /* \"#utility.yul\":11880:11928   */\n      mstore\n        /* \"#utility.yul\":11945:12047   */\n      tag_488\n        /* \"#utility.yul\":12042:12046   */\n      dup2\n        /* \"#utility.yul\":12033:12039   */\n      dup7\n        /* \"#utility.yul\":11945:12047   */\n      tag_306\n      jump\t// in\n    tag_488:\n        /* \"#utility.yul\":11937:12047   */\n      swap1\n      pop\n        /* \"#utility.yul\":12057:12129   */\n      tag_489\n        /* \"#utility.yul\":12125:12127   */\n      0x60\n        /* \"#utility.yul\":12114:12123   */\n      dup4\n        /* \"#utility.yul\":12110:12128   */\n      add\n        /* \"#utility.yul\":12101:12107   */\n      dup6\n        /* \"#utility.yul\":12057:12129   */\n      tag_283\n      jump\t// in\n    tag_489:\n        /* \"#utility.yul\":12139:12212   */\n      tag_490\n        /* \"#utility.yul\":12207:12210   */\n      0x80\n        /* \"#utility.yul\":12196:12205   */\n      dup4\n        /* \"#utility.yul\":12192:12211   */\n      add\n        /* \"#utility.yul\":12183:12189   */\n      dup5\n        /* \"#utility.yul\":12139:12212   */\n      tag_284\n      jump\t// in\n    tag_490:\n        /* \"#utility.yul\":11118:12219   */\n      swap7\n      swap6\n      pop\n      pop\n      pop\n      pop\n      pop\n      pop\n      jump\t// out\n        /* \"#utility.yul\":12225:12598   */\n    tag_61:\n        /* \"#utility.yul\":12368:12372   */\n      0x00\n        /* \"#utility.yul\":12406:12408   */\n      0x20\n        /* \"#utility.yul\":12395:12404   */\n      dup3\n        /* \"#utility.yul\":12391:12409   */\n      add\n        /* \"#utility.yul\":12383:12409   */\n      swap1\n      pop\n        /* \"#utility.yul\":12455:12464   */\n      dup2\n        /* \"#utility.yul\":12449:12453   */\n      dup2\n        /* \"#utility.yul\":12445:12465   */\n      sub\n        /* \"#utility.yul\":12441:12442   */\n      0x00\n        /* \"#utility.yul\":12430:12439   */\n      dup4\n        /* \"#utility.yul\":12426:12443   */\n      add\n        /* \"#utility.yul\":12419:12466   */\n      mstore\n        /* \"#utility.yul\":12483:12591   */\n      tag_492\n        /* \"#utility.yul\":12586:12590   */\n      dup2\n        /* \"#utility.yul\":12577:12583   */\n      dup5\n        /* \"#utility.yul\":12483:12591   */\n      tag_291\n      jump\t// in\n    tag_492:\n        /* \"#utility.yul\":12475:12591   */\n      swap1\n      pop\n        /* \"#utility.yul\":12225:12598   */\n      swap3\n      swap2\n      pop\n      pop\n      jump\t// out\n        /* \"#utility.yul\":12604:12706   */\n    tag_307:\n        /* \"#utility.yul\":12645:12651   */\n      0x00\n        /* \"#utility.yul\":12696:12698   */\n      0x1f\n        /* \"#utility.yul\":12692:12699   */\n      not\n        /* \"#utility.yul\":12687:12689   */\n      0x1f\n        /* \"#utility.yul\":12680:12685   */\n      dup4\n        /* \"#utility.yul\":12676:12690   */\n      add\n        /* \"#utility.yul\":12672:12700   */\n      and\n        /* \"#utility.yul\":12662:12700   */\n      swap1\n      pop\n        /* \"#utility.yul\":12604:12706   */\n      swap2\n      swap1\n      pop\n      jump\t// out\n        /* \"#utility.yul\":12712:12892   */\n    tag_175:\n        /* \"#utility.yul\":12760:12837   */\n      0x4e487b7100000000000000000000000000000000000000000000000000000000\n        /* \"#utility.yul\":12757:12758   */\n      0x00\n        /* \"#utility.yul\":12750:12838   */\n      mstore\n        /* \"#utility.yul\":12857:12861   */\n      0x41\n        /* \"#utility.yul\":12854:12855   */\n      0x04\n        /* \"#utility.yul\":12847:12862   */\n      mstore\n        /* \"#utility.yul\":12881:12885   */\n      0x24\n        /* \"#utility.yul\":12878:12879   */\n      0x00\n        /* \"#utility.yul\":12871:12886   */\n      revert\n        /* \"#utility.yul\":12898:13179   */\n    tag_308:\n        /* \"#utility.yul\":12981:13008   */\n      tag_496\n        /* \"#utility.yul\":13003:13007   */\n      dup3\n        /* \"#utility.yul\":12981:13008   */\n      tag_307\n      jump\t// in\n    tag_496:\n        /* \"#utility.yul\":12973:12979   */\n      dup2\n        /* \"#utility.yul\":12969:13009   */\n      add\n        /* \"#utility.yul\":13111:13117   */\n      dup2\n        /* \"#utility.yul\":13099:13109   */\n      dup2\n        /* \"#utility.yul\":13096:13118   */\n      lt\n        /* \"#utility.yul\":13075:13093   */\n      0xffffffffffffffff\n        /* \"#utility.yul\":13063:13073   */\n      dup3\n        /* \"#utility.yul\":13060:13094   */\n      gt\n        /* \"#utility.yul\":13057:13119   */\n      or\n        /* \"#utility.yul\":13054:13142   */\n      iszero\n      tag_497\n      jumpi\n        /* \"#utility.yul\":13122:13140   */\n      tag_498\n      tag_175\n      jump\t// in\n    tag_498:\n        /* \"#utility.yul\":13054:13142   */\n    tag_497:\n        /* \"#utility.yul\":13162:13172   */\n      dup1\n        /* \"#utility.yul\":13158:13160   */\n      0x40\n        /* \"#utility.yul\":13151:13173   */\n      mstore\n        /* \"#utility.yul\":12941:13179   */\n      pop\n        /* \"#utility.yul\":12898:13179   */\n      pop\n      pop\n      jump\t// out\n        /* \"#utility.yul\":13185:13314   */\n    tag_309:\n        /* \"#utility.yul\":13219:13225   */\n      0x00\n        /* \"#utility.yul\":13246:13266   */\n      tag_500\n      tag_264\n      jump\t// in\n    tag_500:\n        /* \"#utility.yul\":13236:13266   */\n      swap1\n      pop\n        /* \"#utility.yul\":13275:13308   */\n      tag_501\n        /* \"#utility.yul\":13303:13307   */\n      dup3\n        /* \"#utility.yul\":13295:13301   */\n      dup3\n        /* \"#utility.yul\":13275:13308   */\n      tag_308\n      jump\t// in\n    tag_501:\n        /* \"#utility.yul\":13185:13314   */\n      swap2\n      swap1\n      pop\n      jump\t// out\n        /* \"#utility.yul\":13320:13631   */\n    tag_310:\n        /* \"#utility.yul\":13397:13401   */\n      0x00\n        /* \"#utility.yul\":13487:13505   */\n      0xffffffffffffffff\n        /* \"#utility.yul\":13479:13485   */\n      dup3\n        /* \"#utility.yul\":13476:13506   */\n      gt\n        /* \"#utility.yul\":13473:13529   */\n      iszero\n      tag_503\n      jumpi\n        /* \"#utility.yul\":13509:13527   */\n      tag_504\n      tag_175\n      jump\t// in\n    tag_504:\n        /* \"#utility.yul\":13473:13529   */\n    tag_503:\n        /* \"#utility.yul\":13559:13563   */\n      0x20\n        /* \"#utility.yul\":13551:13557   */\n      dup3\n        /* \"#utility.yul\":13547:13564   */\n      mul\n        /* \"#utility.yul\":13539:13564   */\n      swap1\n      pop\n        /* \"#utility.yul\":13619:13623   */\n      0x20\n        /* \"#utility.yul\":13613:13617   */\n      dup2\n        /* \"#utility.yul\":13609:13624   */\n      add\n        /* \"#utility.yul\":13601:13624   */\n      swap1\n      pop\n        /* \"#utility.yul\":13320:13631   */\n      swap2\n      swap1\n      pop\n      jump\t// out\n        /* \"#utility.yul\":13654:14364   */\n    tag_311:\n        /* \"#utility.yul\":13750:13755   */\n      0x00\n        /* \"#utility.yul\":13775:13856   */\n      tag_506\n        /* \"#utility.yul\":13791:13855   */\n      tag_507\n        /* \"#utility.yul\":13848:13854   */\n      dup5\n        /* \"#utility.yul\":13791:13855   */\n      tag_310\n      jump\t// in\n    tag_507:\n        /* \"#utility.yul\":13775:13856   */\n      tag_309\n      jump\t// in\n    tag_506:\n        /* \"#utility.yul\":13766:13856   */\n      swap1\n      pop\n        /* \"#utility.yul\":13876:13881   */\n      dup1\n        /* \"#utility.yul\":13905:13911   */\n      dup4\n        /* \"#utility.yul\":13898:13903   */\n      dup3\n        /* \"#utility.yul\":13891:13912   */\n      mstore\n        /* \"#utility.yul\":13939:13943   */\n      0x20\n        /* \"#utility.yul\":13932:13937   */\n      dup3\n        /* \"#utility.yul\":13928:13944   */\n      add\n        /* \"#utility.yul\":13921:13944   */\n      swap1\n      pop\n        /* \"#utility.yul\":13992:13996   */\n      0x20\n        /* \"#utility.yul\":13984:13990   */\n      dup5\n        /* \"#utility.yul\":13980:13997   */\n      mul\n        /* \"#utility.yul\":13972:13978   */\n      dup4\n        /* \"#utility.yul\":13968:13998   */\n      add\n        /* \"#utility.yul\":14021:14024   */\n      dup6\n        /* \"#utility.yul\":14013:14019   */\n      dup2\n        /* \"#utility.yul\":14010:14025   */\n      gt\n        /* \"#utility.yul\":14007:14129   */\n      iszero\n      tag_508\n      jumpi\n        /* \"#utility.yul\":14040:14119   */\n      tag_509\n      tag_269\n      jump\t// in\n    tag_509:\n        /* \"#utility.yul\":14007:14129   */\n    tag_508:\n        /* \"#utility.yul\":14155:14161   */\n      dup4\n        /* \"#utility.yul\":14138:14358   */\n    tag_510:\n        /* \"#utility.yul\":14172:14178   */\n      dup2\n        /* \"#utility.yul\":14167:14170   */\n      dup2\n        /* \"#utility.yul\":14164:14179   */\n      lt\n        /* \"#utility.yul\":14138:14358   */\n      iszero\n      tag_512\n      jumpi\n        /* \"#utility.yul\":14247:14250   */\n      dup1\n        /* \"#utility.yul\":14276:14313   */\n      tag_513\n        /* \"#utility.yul\":14309:14312   */\n      dup9\n        /* \"#utility.yul\":14297:14307   */\n      dup3\n        /* \"#utility.yul\":14276:14313   */\n      tag_275\n      jump\t// in\n    tag_513:\n        /* \"#utility.yul\":14271:14274   */\n      dup5\n        /* \"#utility.yul\":14264:14314   */\n      mstore\n        /* \"#utility.yul\":14343:14347   */\n      0x20\n        /* \"#utility.yul\":14338:14341   */\n      dup5\n        /* \"#utility.yul\":14334:14348   */\n      add\n        /* \"#utility.yul\":14327:14348   */\n      swap4\n      pop\n        /* \"#utility.yul\":14214:14358   */\n      pop\n        /* \"#utility.yul\":14198:14202   */\n      0x20\n        /* \"#utility.yul\":14193:14196   */\n      dup2\n        /* \"#utility.yul\":14189:14203   */\n      add\n        /* \"#utility.yul\":14182:14203   */\n      swap1\n      pop\n        /* \"#utility.yul\":14138:14358   */\n      jump(tag_510)\n    tag_512:\n        /* \"#utility.yul\":14142:14163   */\n      pop\n        /* \"#utility.yul\":13756:14364   */\n      pop\n      pop\n        /* \"#utility.yul\":13654:14364   */\n      swap4\n      swap3\n      pop\n      pop\n      pop\n      jump\t// out\n        /* \"#utility.yul\":14387:14757   */\n    tag_312:\n        /* \"#utility.yul\":14458:14463   */\n      0x00\n        /* \"#utility.yul\":14507:14510   */\n      dup3\n        /* \"#utility.yul\":14500:14504   */\n      0x1f\n        /* \"#utility.yul\":14492:14498   */\n      dup4\n        /* \"#utility.yul\":14488:14505   */\n      add\n        /* \"#utility.yul\":14484:14511   */\n      slt\n        /* \"#utility.yul\":14474:14596   */\n      tag_515\n      jumpi\n        /* \"#utility.yul\":14515:14594   */\n      tag_516\n      tag_267\n      jump\t// in\n    tag_516:\n        /* \"#utility.yul\":14474:14596   */\n    tag_515:\n        /* \"#utility.yul\":14632:14638   */\n      dup2\n        /* \"#utility.yul\":14619:14639   */\n      calldataload\n        /* \"#utility.yul\":14657:14751   */\n      tag_517\n        /* \"#utility.yul\":14747:14750   */\n      dup5\n        /* \"#utility.yul\":14739:14745   */\n      dup3\n        /* \"#utility.yul\":14732:14736   */\n      0x20\n        /* \"#utility.yul\":14724:14730   */\n      dup7\n        /* \"#utility.yul\":14720:14737   */\n      add\n        /* \"#utility.yul\":14657:14751   */\n      tag_311\n      jump\t// in\n    tag_517:\n        /* \"#utility.yul\":14648:14751   */\n      swap2\n      pop\n        /* \"#utility.yul\":14464:14757   */\n      pop\n        /* \"#utility.yul\":14387:14757   */\n      swap3\n      swap2\n      pop\n      pop\n      jump\t// out\n        /* \"#utility.yul\":14763:15073   */\n    tag_313:\n        /* \"#utility.yul\":14839:14843   */\n      0x00\n        /* \"#utility.yul\":14929:14947   */\n      0xffffffffffffffff\n        /* \"#utility.yul\":14921:14927   */\n      dup3\n        /* \"#utility.yul\":14918:14948   */\n      gt\n        /* \"#utility.yul\":14915:14971   */\n      iszero\n      tag_519\n      jumpi\n        /* \"#utility.yul\":14951:14969   */\n      tag_520\n      tag_175\n      jump\t// in\n    tag_520:\n        /* \"#utility.yul\":14915:14971   */\n    tag_519:\n        /* \"#utility.yul\":15001:15005   */\n      0x20\n        /* \"#utility.yul\":14993:14999   */\n      dup3\n        /* \"#utility.yul\":14989:15006   */\n      mul\n        /* \"#utility.yul\":14981:15006   */\n      swap1\n      pop\n        /* \"#utility.yul\":15061:15065   */\n      0x20\n        /* \"#utility.yul\":15055:15059   */\n      dup2\n        /* \"#utility.yul\":15051:15066   */\n      add\n        /* \"#utility.yul\":15043:15066   */\n      swap1\n      pop\n        /* \"#utility.yul\":14763:15073   */\n      swap2\n      swap1\n      pop\n      jump\t// out\n        /* \"#utility.yul\":15079:15199   */\n    tag_314:\n        /* \"#utility.yul\":15151:15174   */\n      tag_522\n        /* \"#utility.yul\":15168:15173   */\n      dup2\n        /* \"#utility.yul\":15151:15174   */\n      tag_295\n      jump\t// in\n    tag_522:\n        /* \"#utility.yul\":15144:15149   */\n      dup2\n        /* \"#utility.yul\":15141:15175   */\n      eq\n        /* \"#utility.yul\":15131:15193   */\n      tag_523\n      jumpi\n        /* \"#utility.yul\":15189:15190   */\n      0x00\n        /* \"#utility.yul\":15186:15187   */\n      dup1\n        /* \"#utility.yul\":15179:15191   */\n      revert\n        /* \"#utility.yul\":15131:15193   */\n    tag_523:\n        /* \"#utility.yul\":15079:15199   */\n      pop\n      jump\t// out\n        /* \"#utility.yul\":15205:15342   */\n    tag_315:\n        /* \"#utility.yul\":15250:15255   */\n      0x00\n        /* \"#utility.yul\":15288:15294   */\n      dup2\n        /* \"#utility.yul\":15275:15295   */\n      calldataload\n        /* \"#utility.yul\":15266:15295   */\n      swap1\n      pop\n        /* \"#utility.yul\":15304:15336   */\n      tag_525\n        /* \"#utility.yul\":15330:15335   */\n      dup2\n        /* \"#utility.yul\":15304:15336   */\n      tag_314\n      jump\t// in\n    tag_525:\n        /* \"#utility.yul\":15205:15342   */\n      swap3\n      swap2\n      pop\n      pop\n      jump\t// out\n        /* \"#utility.yul\":15364:16071   */\n    tag_316:\n        /* \"#utility.yul\":15459:15464   */\n      0x00\n        /* \"#utility.yul\":15484:15564   */\n      tag_527\n        /* \"#utility.yul\":15500:15563   */\n      tag_528\n        /* \"#utility.yul\":15556:15562   */\n      dup5\n        /* \"#utility.yul\":15500:15563   */\n      tag_313\n      jump\t// in\n    tag_528:\n        /* \"#utility.yul\":15484:15564   */\n      tag_309\n      jump\t// in\n    tag_527:\n        /* \"#utility.yul\":15475:15564   */\n      swap1\n      pop\n        /* \"#utility.yul\":15584:15589   */\n      dup1\n        /* \"#utility.yul\":15613:15619   */\n      dup4\n        /* \"#utility.yul\":15606:15611   */\n      dup3\n        /* \"#utility.yul\":15599:15620   */\n      mstore\n        /* \"#utility.yul\":15647:15651   */\n      0x20\n        /* \"#utility.yul\":15640:15645   */\n      dup3\n        /* \"#utility.yul\":15636:15652   */\n      add\n        /* \"#utility.yul\":15629:15652   */\n      swap1\n      pop\n        /* \"#utility.yul\":15700:15704   */\n      0x20\n        /* \"#utility.yul\":15692:15698   */\n      dup5\n        /* \"#utility.yul\":15688:15705   */\n      mul\n        /* \"#utility.yul\":15680:15686   */\n      dup4\n        /* \"#utility.yul\":15676:15706   */\n      add\n        /* \"#utility.yul\":15729:15732   */\n      dup6\n        /* \"#utility.yul\":15721:15727   */\n      dup2\n        /* \"#utility.yul\":15718:15733   */\n      gt\n        /* \"#utility.yul\":15715:15837   */\n      iszero\n      tag_529\n      jumpi\n        /* \"#utility.yul\":15748:15827   */\n      tag_530\n      tag_269\n      jump\t// in\n    tag_530:\n        /* \"#utility.yul\":15715:15837   */\n    tag_529:\n        /* \"#utility.yul\":15863:15869   */\n      dup4\n        /* \"#utility.yul\":15846:16065   */\n    tag_531:\n        /* \"#utility.yul\":15880:15886   */\n      dup2\n        /* \"#utility.yul\":15875:15878   */\n      dup2\n        /* \"#utility.yul\":15872:15887   */\n      lt\n        /* \"#utility.yul\":15846:16065   */\n      iszero\n      tag_533\n      jumpi\n        /* \"#utility.yul\":15955:15958   */\n      dup1\n        /* \"#utility.yul\":15984:16020   */\n      tag_534\n        /* \"#utility.yul\":16016:16019   */\n      dup9\n        /* \"#utility.yul\":16004:16014   */\n      dup3\n        /* \"#utility.yul\":15984:16020   */\n      tag_315\n      jump\t// in\n    tag_534:\n        /* \"#utility.yul\":15979:15982   */\n      dup5\n        /* \"#utility.yul\":15972:16021   */\n      mstore\n        /* \"#utility.yul\":16050:16054   */\n      0x20\n        /* \"#utility.yul\":16045:16048   */\n      dup5\n        /* \"#utility.yul\":16041:16055   */\n      add\n        /* \"#utility.yul\":16034:16055   */\n      swap4\n      pop\n        /* \"#utility.yul\":15922:16065   */\n      pop\n        /* \"#utility.yul\":15906:15910   */\n      0x20\n        /* \"#utility.yul\":15901:15904   */\n      dup2\n        /* \"#utility.yul\":15897:15911   */\n      add\n        /* \"#utility.yul\":15890:15911   */\n      swap1\n      pop\n        /* \"#utility.yul\":15846:16065   */\n      jump(tag_531)\n    tag_533:\n        /* \"#utility.yul\":15850:15871   */\n      pop\n        /* \"#utility.yul\":15465:16071   */\n      pop\n      pop\n        /* \"#utility.yul\":15364:16071   */\n      swap4\n      swap3\n      pop\n      pop\n      pop\n      jump\t// out\n        /* \"#utility.yul\":16093:16461   */\n    tag_317:\n        /* \"#utility.yul\":16163:16168   */\n      0x00\n        /* \"#utility.yul\":16212:16215   */\n      dup3\n        /* \"#utility.yul\":16205:16209   */\n      0x1f\n        /* \"#utility.yul\":16197:16203   */\n      dup4\n        /* \"#utility.yul\":16193:16210   */\n      add\n        /* \"#utility.yul\":16189:16216   */\n      slt\n        /* \"#utility.yul\":16179:16301   */\n      tag_536\n      jumpi\n        /* \"#utility.yul\":16220:16299   */\n      tag_537\n      tag_267\n      jump\t// in\n    tag_537:\n        /* \"#utility.yul\":16179:16301   */\n    tag_536:\n        /* \"#utility.yul\":16337:16343   */\n      dup2\n        /* \"#utility.yul\":16324:16344   */\n      calldataload\n        /* \"#utility.yul\":16362:16455   */\n      tag_538\n        /* \"#utility.yul\":16451:16454   */\n      dup5\n        /* \"#utility.yul\":16443:16449   */\n      dup3\n        /* \"#utility.yul\":16436:16440   */\n      0x20\n        /* \"#utility.yul\":16428:16434   */\n      dup7\n        /* \"#utility.yul\":16424:16441   */\n      add\n        /* \"#utility.yul\":16362:16455   */\n      tag_316\n      jump\t// in\n    tag_538:\n        /* \"#utility.yul\":16353:16455   */\n      swap2\n      pop\n        /* \"#utility.yul\":16169:16461   */\n      pop\n        /* \"#utility.yul\":16093:16461   */\n      swap3\n      swap2\n      pop\n      pop\n      jump\t// out\n        /* \"#utility.yul\":16467:17359   */\n    tag_64:\n        /* \"#utility.yul\":16584:16590   */\n      0x00\n        /* \"#utility.yul\":16592:16598   */\n      dup1\n        /* \"#utility.yul\":16641:16643   */\n      0x40\n        /* \"#utility.yul\":16629:16638   */\n      dup4\n        /* \"#utility.yul\":16620:16627   */\n      dup6\n        /* \"#utility.yul\":16616:16639   */\n      sub\n        /* \"#utility.yul\":16612:16644   */\n      slt\n        /* \"#utility.yul\":16609:16728   */\n      iszero\n      tag_540\n      jumpi\n        /* \"#utility.yul\":16647:16726   */\n      tag_541\n      tag_265\n      jump\t// in\n    tag_541:\n        /* \"#utility.yul\":16609:16728   */\n    tag_540:\n        /* \"#utility.yul\":16795:16796   */\n      0x00\n        /* \"#utility.yul\":16784:16793   */\n      dup4\n        /* \"#utility.yul\":16780:16797   */\n      add\n        /* \"#utility.yul\":16767:16798   */\n      calldataload\n        /* \"#utility.yul\":16825:16843   */\n      0xffffffffffffffff\n        /* \"#utility.yul\":16817:16823   */\n      dup2\n        /* \"#utility.yul\":16814:16844   */\n      gt\n        /* \"#utility.yul\":16811:16928   */\n      iszero\n      tag_542\n      jumpi\n        /* \"#utility.yul\":16847:16926   */\n      tag_543\n      tag_266\n      jump\t// in\n    tag_543:\n        /* \"#utility.yul\":16811:16928   */\n    tag_542:\n        /* \"#utility.yul\":16952:17030   */\n      tag_544\n        /* \"#utility.yul\":17022:17029   */\n      dup6\n        /* \"#utility.yul\":17013:17019   */\n      dup3\n        /* \"#utility.yul\":17002:17011   */\n      dup7\n        /* \"#utility.yul\":16998:17020   */\n      add\n        /* \"#utility.yul\":16952:17030   */\n      tag_312\n      jump\t// in\n    tag_544:\n        /* \"#utility.yul\":16942:17030   */\n      swap3\n      pop\n        /* \"#utility.yul\":16738:17040   */\n      pop\n        /* \"#utility.yul\":17107:17109   */\n      0x20\n        /* \"#utility.yul\":17096:17105   */\n      dup4\n        /* \"#utility.yul\":17092:17110   */\n      add\n        /* \"#utility.yul\":17079:17111   */\n      calldataload\n        /* \"#utility.yul\":17138:17156   */\n      0xffffffffffffffff\n        /* \"#utility.yul\":17130:17136   */\n      dup2\n        /* \"#utility.yul\":17127:17157   */\n      gt\n        /* \"#utility.yul\":17124:17241   */\n      iszero\n      tag_545\n      jumpi\n        /* \"#utility.yul\":17160:17239   */\n      tag_546\n      tag_266\n      jump\t// in\n    tag_546:\n        /* \"#utility.yul\":17124:17241   */\n    tag_545:\n        /* \"#utility.yul\":17265:17342   */\n      tag_547\n        /* \"#utility.yul\":17334:17341   */\n      dup6\n        /* \"#utility.yul\":17325:17331   */\n      dup3\n        /* \"#utility.yul\":17314:17323   */\n      dup7\n        /* \"#utility.yul\":17310:17332   */\n      add\n        /* \"#utility.yul\":17265:17342   */\n      tag_317\n      jump\t// in\n    tag_547:\n        /* \"#utility.yul\":17255:17342   */\n      swap2\n      pop\n        /* \"#utility.yul\":17050:17352   */\n      pop\n        /* \"#utility.yul\":16467:17359   */\n      swap3\n      pop\n      swap3\n      swap1\n      pop\n      jump\t// out\n        /* \"#utility.yul\":17365:17575   */\n    tag_71:\n        /* \"#utility.yul\":17452:17456   */\n      0x00\n        /* \"#utility.yul\":17490:17492   */\n      0x20\n        /* \"#utility.yul\":17479:17488   */\n      dup3\n        /* \"#utility.yul\":17475:17493   */\n      add\n        /* \"#utility.yul\":17467:17493   */\n      swap1\n      pop\n        /* \"#utility.yul\":17503:17568   */\n      tag_549\n        /* \"#utility.yul\":17565:17566   */\n      0x00\n        /* \"#utility.yul\":17554:17563   */\n      dup4\n        /* \"#utility.yul\":17550:17567   */\n      add\n        /* \"#utility.yul\":17541:17547   */\n      dup5\n        /* \"#utility.yul\":17503:17568   */\n      tag_281\n      jump\t// in\n    tag_549:\n        /* \"#utility.yul\":17365:17575   */\n      swap3\n      swap2\n      pop\n      pop\n      jump\t// out\n        /* \"#utility.yul\":17581:17750   */\n    tag_318:\n        /* \"#utility.yul\":17665:17676   */\n      0x00\n        /* \"#utility.yul\":17699:17705   */\n      dup3\n        /* \"#utility.yul\":17694:17697   */\n      dup3\n        /* \"#utility.yul\":17687:17706   */\n      mstore\n        /* \"#utility.yul\":17739:17743   */\n      0x20\n        /* \"#utility.yul\":17734:17737   */\n      dup3\n        /* \"#utility.yul\":17730:17744   */\n      add\n        /* \"#utility.yul\":17715:17744   */\n      swap1\n      pop\n        /* \"#utility.yul\":17581:17750   */\n      swap3\n      swap2\n      pop\n      pop\n      jump\t// out\n        /* \"#utility.yul\":17756:17985   */\n    tag_319:\n        /* \"#utility.yul\":17896:17930   */\n      0x637265617465496e6865726974616e636528292c2061646963696f6e65206f73\n        /* \"#utility.yul\":17892:17893   */\n      0x00\n        /* \"#utility.yul\":17884:17890   */\n      dup3\n        /* \"#utility.yul\":17880:17894   */\n      add\n        /* \"#utility.yul\":17873:17931   */\n      mstore\n        /* \"#utility.yul\":17965:17977   */\n      0x20686572646569726f7300000000000000000000000000000000000000000000\n        /* \"#utility.yul\":17960:17962   */\n      0x20\n        /* \"#utility.yul\":17952:17958   */\n      dup3\n        /* \"#utility.yul\":17948:17963   */\n      add\n        /* \"#utility.yul\":17941:17978   */\n      mstore\n        /* \"#utility.yul\":17756:17985   */\n      pop\n      jump\t// out\n        /* \"#utility.yul\":17991:18357   */\n    tag_320:\n        /* \"#utility.yul\":18133:18136   */\n      0x00\n        /* \"#utility.yul\":18154:18221   */\n      tag_553\n        /* \"#utility.yul\":18218:18220   */\n      0x2a\n        /* \"#utility.yul\":18213:18216   */\n      dup4\n        /* \"#utility.yul\":18154:18221   */\n      tag_318\n      jump\t// in\n    tag_553:\n        /* \"#utility.yul\":18147:18221   */\n      swap2\n      pop\n        /* \"#utility.yul\":18230:18323   */\n      tag_554\n        /* \"#utility.yul\":18319:18322   */\n      dup3\n        /* \"#utility.yul\":18230:18323   */\n      tag_319\n      jump\t// in\n    tag_554:\n        /* \"#utility.yul\":18348:18350   */\n      0x40\n        /* \"#utility.yul\":18343:18346   */\n      dup3\n        /* \"#utility.yul\":18339:18351   */\n      add\n        /* \"#utility.yul\":18332:18351   */\n      swap1\n      pop\n        /* \"#utility.yul\":17991:18357   */\n      swap2\n      swap1\n      pop\n      jump\t// out\n        /* \"#utility.yul\":18363:18782   */\n    tag_75:\n        /* \"#utility.yul\":18529:18533   */\n      0x00\n        /* \"#utility.yul\":18567:18569   */\n      0x20\n        /* \"#utility.yul\":18556:18565   */\n      dup3\n        /* \"#utility.yul\":18552:18570   */\n      add\n        /* \"#utility.yul\":18544:18570   */\n      swap1\n      pop\n        /* \"#utility.yul\":18616:18625   */\n      dup2\n        /* \"#utility.yul\":18610:18614   */\n      dup2\n        /* \"#utility.yul\":18606:18626   */\n      sub\n        /* \"#utility.yul\":18602:18603   */\n      0x00\n        /* \"#utility.yul\":18591:18600   */\n      dup4\n        /* \"#utility.yul\":18587:18604   */\n      add\n        /* \"#utility.yul\":18580:18627   */\n      mstore\n        /* \"#utility.yul\":18644:18775   */\n      tag_556\n        /* \"#utility.yul\":18770:18774   */\n      dup2\n        /* \"#utility.yul\":18644:18775   */\n      tag_320\n      jump\t// in\n    tag_556:\n        /* \"#utility.yul\":18636:18775   */\n      swap1\n      pop\n        /* \"#utility.yul\":18363:18782   */\n      swap2\n      swap1\n      pop\n      jump\t// out\n        /* \"#utility.yul\":18788:19082   */\n    tag_321:\n        /* \"#utility.yul\":18928:18962   */\n      0x637265617465496e6865726974616e636528292c207175616e74696461646520\n        /* \"#utility.yul\":18924:18925   */\n      0x00\n        /* \"#utility.yul\":18916:18922   */\n      dup3\n        /* \"#utility.yul\":18912:18926   */\n      add\n        /* \"#utility.yul\":18905:18963   */\n      mstore\n        /* \"#utility.yul\":18997:19031   */\n      0x646520656e64657265636f73206520706f7263656e746167656e732064696665\n        /* \"#utility.yul\":18992:18994   */\n      0x20\n        /* \"#utility.yul\":18984:18990   */\n      dup3\n        /* \"#utility.yul\":18980:18995   */\n      add\n        /* \"#utility.yul\":18973:19032   */\n      mstore\n        /* \"#utility.yul\":19066:19074   */\n      0x72656e7465730000000000000000000000000000000000000000000000000000\n        /* \"#utility.yul\":19061:19063   */\n      0x40\n        /* \"#utility.yul\":19053:19059   */\n      dup3\n        /* \"#utility.yul\":19049:19064   */\n      add\n        /* \"#utility.yul\":19042:19075   */\n      mstore\n        /* \"#utility.yul\":18788:19082   */\n      pop\n      jump\t// out\n        /* \"#utility.yul\":19088:19454   */\n    tag_322:\n        /* \"#utility.yul\":19230:19233   */\n      0x00\n        /* \"#utility.yul\":19251:19318   */\n      tag_559\n        /* \"#utility.yul\":19315:19317   */\n      0x46\n        /* \"#utility.yul\":19310:19313   */\n      dup4\n        /* \"#utility.yul\":19251:19318   */\n      tag_318\n      jump\t// in\n    tag_559:\n        /* \"#utility.yul\":19244:19318   */\n      swap2\n      pop\n        /* \"#utility.yul\":19327:19420   */\n      tag_560\n        /* \"#utility.yul\":19416:19419   */\n      dup3\n        /* \"#utility.yul\":19327:19420   */\n      tag_321\n      jump\t// in\n    tag_560:\n        /* \"#utility.yul\":19445:19447   */\n      0x60\n        /* \"#utility.yul\":19440:19443   */\n      dup3\n        /* \"#utility.yul\":19436:19448   */\n      add\n        /* \"#utility.yul\":19429:19448   */\n      swap1\n      pop\n        /* \"#utility.yul\":19088:19454   */\n      swap2\n      swap1\n      pop\n      jump\t// out\n        /* \"#utility.yul\":19460:19879   */\n    tag_78:\n        /* \"#utility.yul\":19626:19630   */\n      0x00\n        /* \"#utility.yul\":19664:19666   */\n      0x20\n        /* \"#utility.yul\":19653:19662   */\n      dup3\n        /* \"#utility.yul\":19649:19667   */\n      add\n        /* \"#utility.yul\":19641:19667   */\n      swap1\n      pop\n        /* \"#utility.yul\":19713:19722   */\n      dup2\n        /* \"#utility.yul\":19707:19711   */\n      dup2\n        /* \"#utility.yul\":19703:19723   */\n      sub\n        /* \"#utility.yul\":19699:19700   */\n      0x00\n        /* \"#utility.yul\":19688:19697   */\n      dup4\n        /* \"#utility.yul\":19684:19701   */\n      add\n        /* \"#utility.yul\":19677:19724   */\n      mstore\n        /* \"#utility.yul\":19741:19872   */\n      tag_562\n        /* \"#utility.yul\":19867:19871   */\n      dup2\n        /* \"#utility.yul\":19741:19872   */\n      tag_322\n      jump\t// in\n    tag_562:\n        /* \"#utility.yul\":19733:19872   */\n      swap1\n      pop\n        /* \"#utility.yul\":19460:19879   */\n      swap2\n      swap1\n      pop\n      jump\t// out\n        /* \"#utility.yul\":19885:20065   */\n    tag_88:\n        /* \"#utility.yul\":19933:20010   */\n      0x4e487b7100000000000000000000000000000000000000000000000000000000\n        /* \"#utility.yul\":19930:19931   */\n      0x00\n        /* \"#utility.yul\":19923:20011   */\n      mstore\n        /* \"#utility.yul\":20030:20034   */\n      0x32\n        /* \"#utility.yul\":20027:20028   */\n      0x04\n        /* \"#utility.yul\":20020:20035   */\n      mstore\n        /* \"#utility.yul\":20054:20058   */\n      0x24\n        /* \"#utility.yul\":20051:20052   */\n      0x00\n        /* \"#utility.yul\":20044:20059   */\n      revert\n        /* \"#utility.yul\":20071:20398   */\n    tag_93:\n        /* \"#utility.yul\":20129:20135   */\n      0x00\n        /* \"#utility.yul\":20178:20180   */\n      0x20\n        /* \"#utility.yul\":20166:20175   */\n      dup3\n        /* \"#utility.yul\":20157:20164   */\n      dup5\n        /* \"#utility.yul\":20153:20176   */\n      sub\n        /* \"#utility.yul\":20149:20181   */\n      slt\n        /* \"#utility.yul\":20146:20265   */\n      iszero\n      tag_565\n      jumpi\n        /* \"#utility.yul\":20184:20263   */\n      tag_566\n      tag_265\n      jump\t// in\n    tag_566:\n        /* \"#utility.yul\":20146:20265   */\n    tag_565:\n        /* \"#utility.yul\":20304:20305   */\n      0x00\n        /* \"#utility.yul\":20329:20381   */\n      tag_567\n        /* \"#utility.yul\":20373:20380   */\n      dup5\n        /* \"#utility.yul\":20364:20370   */\n      dup3\n        /* \"#utility.yul\":20353:20362   */\n      dup6\n        /* \"#utility.yul\":20349:20371   */\n      add\n        /* \"#utility.yul\":20329:20381   */\n      tag_315\n      jump\t// in\n    tag_567:\n        /* \"#utility.yul\":20319:20381   */\n      swap2\n      pop\n        /* \"#utility.yul\":20275:20391   */\n      pop\n        /* \"#utility.yul\":20071:20398   */\n      swap3\n      swap2\n      pop\n      pop\n      jump\t// out\n        /* \"#utility.yul\":20404:20624   */\n    tag_323:\n        /* \"#utility.yul\":20544:20578   */\n      0x766f6365206e616f20706f737375692074657374616d656e746f206372696164\n        /* \"#utility.yul\":20540:20541   */\n      0x00\n        /* \"#utility.yul\":20532:20538   */\n      dup3\n        /* \"#utility.yul\":20528:20542   */\n      add\n        /* \"#utility.yul\":20521:20579   */\n      mstore\n        /* \"#utility.yul\":20613:20616   */\n      0x6f00000000000000000000000000000000000000000000000000000000000000\n        /* \"#utility.yul\":20608:20610   */\n      0x20\n        /* \"#utility.yul\":20600:20606   */\n      dup3\n        /* \"#utility.yul\":20596:20611   */\n      add\n        /* \"#utility.yul\":20589:20617   */\n      mstore\n        /* \"#utility.yul\":20404:20624   */\n      pop\n      jump\t// out\n        /* \"#utility.yul\":20630:20996   */\n    tag_324:\n        /* \"#utility.yul\":20772:20775   */\n      0x00\n        /* \"#utility.yul\":20793:20860   */\n      tag_570\n        /* \"#utility.yul\":20857:20859   */\n      0x21\n        /* \"#utility.yul\":20852:20855   */\n      dup4\n        /* \"#utility.yul\":20793:20860   */\n      tag_318\n      jump\t// in\n    tag_570:\n        /* \"#utility.yul\":20786:20860   */\n      swap2\n      pop\n        /* \"#utility.yul\":20869:20962   */\n      tag_571\n        /* \"#utility.yul\":20958:20961   */\n      dup3\n        /* \"#utility.yul\":20869:20962   */\n      tag_323\n      jump\t// in\n    tag_571:\n        /* \"#utility.yul\":20987:20989   */\n      0x40\n        /* \"#utility.yul\":20982:20985   */\n      dup3\n        /* \"#utility.yul\":20978:20990   */\n      add\n        /* \"#utility.yul\":20971:20990   */\n      swap1\n      pop\n        /* \"#utility.yul\":20630:20996   */\n      swap2\n      swap1\n      pop\n      jump\t// out\n        /* \"#utility.yul\":21002:21421   */\n    tag_102:\n        /* \"#utility.yul\":21168:21172   */\n      0x00\n        /* \"#utility.yul\":21206:21208   */\n      0x20\n        /* \"#utility.yul\":21195:21204   */\n      dup3\n        /* \"#utility.yul\":21191:21209   */\n      add\n        /* \"#utility.yul\":21183:21209   */\n      swap1\n      pop\n        /* \"#utility.yul\":21255:21264   */\n      dup2\n        /* \"#utility.yul\":21249:21253   */\n      dup2\n        /* \"#utility.yul\":21245:21265   */\n      sub\n        /* \"#utility.yul\":21241:21242   */\n      0x00\n        /* \"#utility.yul\":21230:21239   */\n      dup4\n        /* \"#utility.yul\":21226:21243   */\n      add\n        /* \"#utility.yul\":21219:21266   */\n      mstore\n        /* \"#utility.yul\":21283:21414   */\n      tag_573\n        /* \"#utility.yul\":21409:21413   */\n      dup2\n        /* \"#utility.yul\":21283:21414   */\n      tag_324\n      jump\t// in\n    tag_573:\n        /* \"#utility.yul\":21275:21414   */\n      swap1\n      pop\n        /* \"#utility.yul\":21002:21421   */\n      swap2\n      swap1\n      pop\n      jump\t// out\n        /* \"#utility.yul\":21427:21592   */\n    tag_325:\n        /* \"#utility.yul\":21567:21584   */\n      0x696e7369726120756d2076616c6f720000000000000000000000000000000000\n        /* \"#utility.yul\":21563:21564   */\n      0x00\n        /* \"#utility.yul\":21555:21561   */\n      dup3\n        /* \"#utility.yul\":21551:21565   */\n      add\n        /* \"#utility.yul\":21544:21585   */\n      mstore\n        /* \"#utility.yul\":21427:21592   */\n      pop\n      jump\t// out\n        /* \"#utility.yul\":21598:21964   */\n    tag_326:\n        /* \"#utility.yul\":21740:21743   */\n      0x00\n        /* \"#utility.yul\":21761:21828   */\n      tag_576\n        /* \"#utility.yul\":21825:21827   */\n      0x0f\n        /* \"#utility.yul\":21820:21823   */\n      dup4\n        /* \"#utility.yul\":21761:21828   */\n      tag_318\n      jump\t// in\n    tag_576:\n        /* \"#utility.yul\":21754:21828   */\n      swap2\n      pop\n        /* \"#utility.yul\":21837:21930   */\n      tag_577\n        /* \"#utility.yul\":21926:21929   */\n      dup3\n        /* \"#utility.yul\":21837:21930   */\n      tag_325\n      jump\t// in\n    tag_577:\n        /* \"#utility.yul\":21955:21957   */\n      0x20\n        /* \"#utility.yul\":21950:21953   */\n      dup3\n        /* \"#utility.yul\":21946:21958   */\n      add\n        /* \"#utility.yul\":21939:21958   */\n      swap1\n      pop\n        /* \"#utility.yul\":21598:21964   */\n      swap2\n      swap1\n      pop\n      jump\t// out\n        /* \"#utility.yul\":21970:22389   */\n    tag_105:\n        /* \"#utility.yul\":22136:22140   */\n      0x00\n        /* \"#utility.yul\":22174:22176   */\n      0x20\n        /* \"#utility.yul\":22163:22172   */\n      dup3\n        /* \"#utility.yul\":22159:22177   */\n      add\n        /* \"#utility.yul\":22151:22177   */\n      swap1\n      pop\n        /* \"#utility.yul\":22223:22232   */\n      dup2\n        /* \"#utility.yul\":22217:22221   */\n      dup2\n        /* \"#utility.yul\":22213:22233   */\n      sub\n        /* \"#utility.yul\":22209:22210   */\n      0x00\n        /* \"#utility.yul\":22198:22207   */\n      dup4\n        /* \"#utility.yul\":22194:22211   */\n      add\n        /* \"#utility.yul\":22187:22234   */\n      mstore\n        /* \"#utility.yul\":22251:22382   */\n      tag_579\n        /* \"#utility.yul\":22377:22381   */\n      dup2\n        /* \"#utility.yul\":22251:22382   */\n      tag_326\n      jump\t// in\n    tag_579:\n        /* \"#utility.yul\":22243:22382   */\n      swap1\n      pop\n        /* \"#utility.yul\":21970:22389   */\n      swap2\n      swap1\n      pop\n      jump\t// out\n        /* \"#utility.yul\":22395:22575   */\n    tag_327:\n        /* \"#utility.yul\":22443:22520   */\n      0x4e487b7100000000000000000000000000000000000000000000000000000000\n        /* \"#utility.yul\":22440:22441   */\n      0x00\n        /* \"#utility.yul\":22433:22521   */\n      mstore\n        /* \"#utility.yul\":22540:22544   */\n      0x11\n        /* \"#utility.yul\":22537:22538   */\n      0x04\n        /* \"#utility.yul\":22530:22545   */\n      mstore\n        /* \"#utility.yul\":22564:22568   */\n      0x24\n        /* \"#utility.yul\":22561:22562   */\n      0x00\n        /* \"#utility.yul\":22554:22569   */\n      revert\n        /* \"#utility.yul\":22581:22772   */\n    tag_107:\n        /* \"#utility.yul\":22621:22624   */\n      0x00\n        /* \"#utility.yul\":22640:22660   */\n      tag_582\n        /* \"#utility.yul\":22658:22659   */\n      dup3\n        /* \"#utility.yul\":22640:22660   */\n      tag_276\n      jump\t// in\n    tag_582:\n        /* \"#utility.yul\":22635:22660   */\n      swap2\n      pop\n        /* \"#utility.yul\":22674:22694   */\n      tag_583\n        /* \"#utility.yul\":22692:22693   */\n      dup4\n        /* \"#utility.yul\":22674:22694   */\n      tag_276\n      jump\t// in\n    tag_583:\n        /* \"#utility.yul\":22669:22694   */\n      swap3\n      pop\n        /* \"#utility.yul\":22717:22718   */\n      dup3\n        /* \"#utility.yul\":22714:22715   */\n      dup3\n        /* \"#utility.yul\":22710:22719   */\n      add\n        /* \"#utility.yul\":22703:22719   */\n      swap1\n      pop\n        /* \"#utility.yul\":22738:22741   */\n      dup1\n        /* \"#utility.yul\":22735:22736   */\n      dup3\n        /* \"#utility.yul\":22732:22742   */\n      gt\n        /* \"#utility.yul\":22729:22765   */\n      iszero\n      tag_584\n      jumpi\n        /* \"#utility.yul\":22745:22763   */\n      tag_585\n      tag_327\n      jump\t// in\n    tag_585:\n        /* \"#utility.yul\":22729:22765   */\n    tag_584:\n        /* \"#utility.yul\":22581:22772   */\n      swap3\n      swap2\n      pop\n      pop\n      jump\t// out\n        /* \"#utility.yul\":22778:22954   */\n    tag_328:\n        /* \"#utility.yul\":22918:22946   */\n      0x766f6365206e616f20706f737375692074657374616d656e746f000000000000\n        /* \"#utility.yul\":22914:22915   */\n      0x00\n        /* \"#utility.yul\":22906:22912   */\n      dup3\n        /* \"#utility.yul\":22902:22916   */\n      add\n        /* \"#utility.yul\":22895:22947   */\n      mstore\n        /* \"#utility.yul\":22778:22954   */\n      pop\n      jump\t// out\n        /* \"#utility.yul\":22960:23326   */\n    tag_329:\n        /* \"#utility.yul\":23102:23105   */\n      0x00\n        /* \"#utility.yul\":23123:23190   */\n      tag_588\n        /* \"#utility.yul\":23187:23189   */\n      0x1a\n        /* \"#utility.yul\":23182:23185   */\n      dup4\n        /* \"#utility.yul\":23123:23190   */\n      tag_318\n      jump\t// in\n    tag_588:\n        /* \"#utility.yul\":23116:23190   */\n      swap2\n      pop\n        /* \"#utility.yul\":23199:23292   */\n      tag_589\n        /* \"#utility.yul\":23288:23291   */\n      dup3\n        /* \"#utility.yul\":23199:23292   */\n      tag_328\n      jump\t// in\n    tag_589:\n        /* \"#utility.yul\":23317:23319   */\n      0x20\n        /* \"#utility.yul\":23312:23315   */\n      dup3\n        /* \"#utility.yul\":23308:23320   */\n      add\n        /* \"#utility.yul\":23301:23320   */\n      swap1\n      pop\n        /* \"#utility.yul\":22960:23326   */\n      swap2\n      swap1\n      pop\n      jump\t// out\n        /* \"#utility.yul\":23332:23751   */\n    tag_111:\n        /* \"#utility.yul\":23498:23502   */\n      0x00\n        /* \"#utility.yul\":23536:23538   */\n      0x20\n        /* \"#utility.yul\":23525:23534   */\n      dup3\n        /* \"#utility.yul\":23521:23539   */\n      add\n        /* \"#utility.yul\":23513:23539   */\n      swap1\n      pop\n        /* \"#utility.yul\":23585:23594   */\n      dup2\n        /* \"#utility.yul\":23579:23583   */\n      dup2\n        /* \"#utility.yul\":23575:23595   */\n      sub\n        /* \"#utility.yul\":23571:23572   */\n      0x00\n        /* \"#utility.yul\":23560:23569   */\n      dup4\n        /* \"#utility.yul\":23556:23573   */\n      add\n        /* \"#utility.yul\":23549:23596   */\n      mstore\n        /* \"#utility.yul\":23613:23744   */\n      tag_591\n        /* \"#utility.yul\":23739:23743   */\n      dup2\n        /* \"#utility.yul\":23613:23744   */\n      tag_329\n      jump\t// in\n    tag_591:\n        /* \"#utility.yul\":23605:23744   */\n      swap1\n      pop\n        /* \"#utility.yul\":23332:23751   */\n      swap2\n      swap1\n      pop\n      jump\t// out\n        /* \"#utility.yul\":23757:23904   */\n    tag_330:\n        /* \"#utility.yul\":23858:23869   */\n      0x00\n        /* \"#utility.yul\":23895:23898   */\n      dup2\n        /* \"#utility.yul\":23880:23898   */\n      swap1\n      pop\n        /* \"#utility.yul\":23757:23904   */\n      swap3\n      swap2\n      pop\n      pop\n      jump\t// out\n        /* \"#utility.yul\":23910:24024   */\n    tag_331:\n      pop\n      jump\t// out\n        /* \"#utility.yul\":24030:24428   */\n    tag_332:\n        /* \"#utility.yul\":24189:24192   */\n      0x00\n        /* \"#utility.yul\":24210:24293   */\n      tag_595\n        /* \"#utility.yul\":24291:24292   */\n      0x00\n        /* \"#utility.yul\":24286:24289   */\n      dup4\n        /* \"#utility.yul\":24210:24293   */\n      tag_330\n      jump\t// in\n    tag_595:\n        /* \"#utility.yul\":24203:24293   */\n      swap2\n      pop\n        /* \"#utility.yul\":24302:24395   */\n      tag_596\n        /* \"#utility.yul\":24391:24394   */\n      dup3\n        /* \"#utility.yul\":24302:24395   */\n      tag_331\n      jump\t// in\n    tag_596:\n        /* \"#utility.yul\":24420:24421   */\n      0x00\n        /* \"#utility.yul\":24415:24418   */\n      dup3\n        /* \"#utility.yul\":24411:24422   */\n      add\n        /* \"#utility.yul\":24404:24422   */\n      swap1\n      pop\n        /* \"#utility.yul\":24030:24428   */\n      swap2\n      swap1\n      pop\n      jump\t// out\n        /* \"#utility.yul\":24434:24813   */\n    tag_113:\n        /* \"#utility.yul\":24618:24621   */\n      0x00\n        /* \"#utility.yul\":24640:24787   */\n      tag_598\n        /* \"#utility.yul\":24783:24786   */\n      dup3\n        /* \"#utility.yul\":24640:24787   */\n      tag_332\n      jump\t// in\n    tag_598:\n        /* \"#utility.yul\":24633:24787   */\n      swap2\n      pop\n        /* \"#utility.yul\":24804:24807   */\n      dup2\n        /* \"#utility.yul\":24797:24807   */\n      swap1\n      pop\n        /* \"#utility.yul\":24434:24813   */\n      swap2\n      swap1\n      pop\n      jump\t// out\n        /* \"#utility.yul\":24819:25044   */\n    tag_333:\n        /* \"#utility.yul\":24959:24993   */\n      0x63616e63656c54657374616d656e7428292c2046616c686120616f20656e7669\n        /* \"#utility.yul\":24955:24956   */\n      0x00\n        /* \"#utility.yul\":24947:24953   */\n      dup3\n        /* \"#utility.yul\":24943:24957   */\n      add\n        /* \"#utility.yul\":24936:24994   */\n      mstore\n        /* \"#utility.yul\":25028:25036   */\n      0x6172204554480000000000000000000000000000000000000000000000000000\n        /* \"#utility.yul\":25023:25025   */\n      0x20\n        /* \"#utility.yul\":25015:25021   */\n      dup3\n        /* \"#utility.yul\":25011:25026   */\n      add\n        /* \"#utility.yul\":25004:25037   */\n      mstore\n        /* \"#utility.yul\":24819:25044   */\n      pop\n      jump\t// out\n        /* \"#utility.yul\":25050:25416   */\n    tag_334:\n        /* \"#utility.yul\":25192:25195   */\n      0x00\n        /* \"#utility.yul\":25213:25280   */\n      tag_601\n        /* \"#utility.yul\":25277:25279   */\n      0x26\n        /* \"#utility.yul\":25272:25275   */\n      dup4\n        /* \"#utility.yul\":25213:25280   */\n      tag_318\n      jump\t// in\n    tag_601:\n        /* \"#utility.yul\":25206:25280   */\n      swap2\n      pop\n        /* \"#utility.yul\":25289:25382   */\n      tag_602\n        /* \"#utility.yul\":25378:25381   */\n      dup3\n        /* \"#utility.yul\":25289:25382   */\n      tag_333\n      jump\t// in\n    tag_602:\n        /* \"#utility.yul\":25407:25409   */\n      0x40\n        /* \"#utility.yul\":25402:25405   */\n      dup3\n        /* \"#utility.yul\":25398:25410   */\n      add\n        /* \"#utility.yul\":25391:25410   */\n      swap1\n      pop\n        /* \"#utility.yul\":25050:25416   */\n      swap2\n      swap1\n      pop\n      jump\t// out\n        /* \"#utility.yul\":25422:25841   */\n    tag_119:\n        /* \"#utility.yul\":25588:25592   */\n      0x00\n        /* \"#utility.yul\":25626:25628   */\n      0x20\n        /* \"#utility.yul\":25615:25624   */\n      dup3\n        /* \"#utility.yul\":25611:25629   */\n      add\n        /* \"#utility.yul\":25603:25629   */\n      swap1\n      pop\n        /* \"#utility.yul\":25675:25684   */\n      dup2\n        /* \"#utility.yul\":25669:25673   */\n      dup2\n        /* \"#utility.yul\":25665:25685   */\n      sub\n        /* \"#utility.yul\":25661:25662   */\n      0x00\n        /* \"#utility.yul\":25650:25659   */\n      dup4\n        /* \"#utility.yul\":25646:25663   */\n      add\n        /* \"#utility.yul\":25639:25686   */\n      mstore\n        /* \"#utility.yul\":25703:25834   */\n      tag_604\n        /* \"#utility.yul\":25829:25833   */\n      dup2\n        /* \"#utility.yul\":25703:25834   */\n      tag_334\n      jump\t// in\n    tag_604:\n        /* \"#utility.yul\":25695:25834   */\n      swap1\n      pop\n        /* \"#utility.yul\":25422:25841   */\n      swap2\n      swap1\n      pop\n      jump\t// out\n        /* \"#utility.yul\":25847:26067   */\n    tag_335:\n        /* \"#utility.yul\":25987:26021   */\n      0x41207265746972616461206e616f20706f646520736572207265616c697a6164\n        /* \"#utility.yul\":25983:25984   */\n      0x00\n        /* \"#utility.yul\":25975:25981   */\n      dup3\n        /* \"#utility.yul\":25971:25985   */\n      add\n        /* \"#utility.yul\":25964:26022   */\n      mstore\n        /* \"#utility.yul\":26056:26059   */\n      0x6100000000000000000000000000000000000000000000000000000000000000\n        /* \"#utility.yul\":26051:26053   */\n      0x20\n        /* \"#utility.yul\":26043:26049   */\n      dup3\n        /* \"#utility.yul\":26039:26054   */\n      add\n        /* \"#utility.yul\":26032:26060   */\n      mstore\n        /* \"#utility.yul\":25847:26067   */\n      pop\n      jump\t// out\n        /* \"#utility.yul\":26073:26439   */\n    tag_336:\n        /* \"#utility.yul\":26215:26218   */\n      0x00\n        /* \"#utility.yul\":26236:26303   */\n      tag_607\n        /* \"#utility.yul\":26300:26302   */\n      0x21\n        /* \"#utility.yul\":26295:26298   */\n      dup4\n        /* \"#utility.yul\":26236:26303   */\n      tag_318\n      jump\t// in\n    tag_607:\n        /* \"#utility.yul\":26229:26303   */\n      swap2\n      pop\n        /* \"#utility.yul\":26312:26405   */\n      tag_608\n        /* \"#utility.yul\":26401:26404   */\n      dup3\n        /* \"#utility.yul\":26312:26405   */\n      tag_335\n      jump\t// in\n    tag_608:\n        /* \"#utility.yul\":26430:26432   */\n      0x40\n        /* \"#utility.yul\":26425:26428   */\n      dup3\n        /* \"#utility.yul\":26421:26433   */\n      add\n        /* \"#utility.yul\":26414:26433   */\n      swap1\n      pop\n        /* \"#utility.yul\":26073:26439   */\n      swap2\n      swap1\n      pop\n      jump\t// out\n        /* \"#utility.yul\":26445:26864   */\n    tag_126:\n        /* \"#utility.yul\":26611:26615   */\n      0x00\n        /* \"#utility.yul\":26649:26651   */\n      0x20\n        /* \"#utility.yul\":26638:26647   */\n      dup3\n        /* \"#utility.yul\":26634:26652   */\n      add\n        /* \"#utility.yul\":26626:26652   */\n      swap1\n      pop\n        /* \"#utility.yul\":26698:26707   */\n      dup2\n        /* \"#utility.yul\":26692:26696   */\n      dup2\n        /* \"#utility.yul\":26688:26708   */\n      sub\n        /* \"#utility.yul\":26684:26685   */\n      0x00\n        /* \"#utility.yul\":26673:26682   */\n      dup4\n        /* \"#utility.yul\":26669:26686   */\n      add\n        /* \"#utility.yul\":26662:26709   */\n      mstore\n        /* \"#utility.yul\":26726:26857   */\n      tag_610\n        /* \"#utility.yul\":26852:26856   */\n      dup2\n        /* \"#utility.yul\":26726:26857   */\n      tag_336\n      jump\t// in\n    tag_610:\n        /* \"#utility.yul\":26718:26857   */\n      swap1\n      pop\n        /* \"#utility.yul\":26445:26864   */\n      swap2\n      swap1\n      pop\n      jump\t// out\n        /* \"#utility.yul\":26870:27037   */\n    tag_337:\n        /* \"#utility.yul\":27010:27029   */\n      0x6e616f2074656d20686572646569726f73000000000000000000000000000000\n        /* \"#utility.yul\":27006:27007   */\n      0x00\n        /* \"#utility.yul\":26998:27004   */\n      dup3\n        /* \"#utility.yul\":26994:27008   */\n      add\n        /* \"#utility.yul\":26987:27030   */\n      mstore\n        /* \"#utility.yul\":26870:27037   */\n      pop\n      jump\t// out\n        /* \"#utility.yul\":27043:27409   */\n    tag_338:\n        /* \"#utility.yul\":27185:27188   */\n      0x00\n        /* \"#utility.yul\":27206:27273   */\n      tag_613\n        /* \"#utility.yul\":27270:27272   */\n      0x11\n        /* \"#utility.yul\":27265:27268   */\n      dup4\n        /* \"#utility.yul\":27206:27273   */\n      tag_318\n      jump\t// in\n    tag_613:\n        /* \"#utility.yul\":27199:27273   */\n      swap2\n      pop\n        /* \"#utility.yul\":27282:27375   */\n      tag_614\n        /* \"#utility.yul\":27371:27374   */\n      dup3\n        /* \"#utility.yul\":27282:27375   */\n      tag_337\n      jump\t// in\n    tag_614:\n        /* \"#utility.yul\":27400:27402   */\n      0x20\n        /* \"#utility.yul\":27395:27398   */\n      dup3\n        /* \"#utility.yul\":27391:27403   */\n      add\n        /* \"#utility.yul\":27384:27403   */\n      swap1\n      pop\n        /* \"#utility.yul\":27043:27409   */\n      swap2\n      swap1\n      pop\n      jump\t// out\n        /* \"#utility.yul\":27415:27834   */\n    tag_129:\n        /* \"#utility.yul\":27581:27585   */\n      0x00\n        /* \"#utility.yul\":27619:27621   */\n      0x20\n        /* \"#utility.yul\":27608:27617   */\n      dup3\n        /* \"#utility.yul\":27604:27622   */\n      add\n        /* \"#utility.yul\":27596:27622   */\n      swap1\n      pop\n        /* \"#utility.yul\":27668:27677   */\n      dup2\n        /* \"#utility.yul\":27662:27666   */\n      dup2\n        /* \"#utility.yul\":27658:27678   */\n      sub\n        /* \"#utility.yul\":27654:27655   */\n      0x00\n        /* \"#utility.yul\":27643:27652   */\n      dup4\n        /* \"#utility.yul\":27639:27656   */\n      add\n        /* \"#utility.yul\":27632:27679   */\n      mstore\n        /* \"#utility.yul\":27696:27827   */\n      tag_616\n        /* \"#utility.yul\":27822:27826   */\n      dup2\n        /* \"#utility.yul\":27696:27827   */\n      tag_338\n      jump\t// in\n    tag_616:\n        /* \"#utility.yul\":27688:27827   */\n      swap1\n      pop\n        /* \"#utility.yul\":27415:27834   */\n      swap2\n      swap1\n      pop\n      jump\t// out\n        /* \"#utility.yul\":27840:28088   */\n    tag_339:\n        /* \"#utility.yul\":27980:28014   */\n      0x74657374616d656e746f2065207175656d20746120726f64616e646f20612066\n        /* \"#utility.yul\":27976:27977   */\n      0x00\n        /* \"#utility.yul\":27968:27974   */\n      dup3\n        /* \"#utility.yul\":27964:27978   */\n      add\n        /* \"#utility.yul\":27957:28015   */\n      mstore\n        /* \"#utility.yul\":28049:28080   */\n      0x756e63616f2064652073617175652073616f206469666572656e746573000000\n        /* \"#utility.yul\":28044:28046   */\n      0x20\n        /* \"#utility.yul\":28036:28042   */\n      dup3\n        /* \"#utility.yul\":28032:28047   */\n      add\n        /* \"#utility.yul\":28025:28081   */\n      mstore\n        /* \"#utility.yul\":27840:28088   */\n      pop\n      jump\t// out\n        /* \"#utility.yul\":28094:28460   */\n    tag_340:\n        /* \"#utility.yul\":28236:28239   */\n      0x00\n        /* \"#utility.yul\":28257:28324   */\n      tag_619\n        /* \"#utility.yul\":28321:28323   */\n      0x3d\n        /* \"#utility.yul\":28316:28319   */\n      dup4\n        /* \"#utility.yul\":28257:28324   */\n      tag_318\n      jump\t// in\n    tag_619:\n        /* \"#utility.yul\":28250:28324   */\n      swap2\n      pop\n        /* \"#utility.yul\":28333:28426   */\n      tag_620\n        /* \"#utility.yul\":28422:28425   */\n      dup3\n        /* \"#utility.yul\":28333:28426   */\n      tag_339\n      jump\t// in\n    tag_620:\n        /* \"#utility.yul\":28451:28453   */\n      0x40\n        /* \"#utility.yul\":28446:28449   */\n      dup3\n        /* \"#utility.yul\":28442:28454   */\n      add\n        /* \"#utility.yul\":28435:28454   */\n      swap1\n      pop\n        /* \"#utility.yul\":28094:28460   */\n      swap2\n      swap1\n      pop\n      jump\t// out\n        /* \"#utility.yul\":28466:28885   */\n    tag_138:\n        /* \"#utility.yul\":28632:28636   */\n      0x00\n        /* \"#utility.yul\":28670:28672   */\n      0x20\n        /* \"#utility.yul\":28659:28668   */\n      dup3\n        /* \"#utility.yul\":28655:28673   */\n      add\n        /* \"#utility.yul\":28647:28673   */\n      swap1\n      pop\n        /* \"#utility.yul\":28719:28728   */\n      dup2\n        /* \"#utility.yul\":28713:28717   */\n      dup2\n        /* \"#utility.yul\":28709:28729   */\n      sub\n        /* \"#utility.yul\":28705:28706   */\n      0x00\n        /* \"#utility.yul\":28694:28703   */\n      dup4\n        /* \"#utility.yul\":28690:28707   */\n      add\n        /* \"#utility.yul\":28683:28730   */\n      mstore\n        /* \"#utility.yul\":28747:28878   */\n      tag_622\n        /* \"#utility.yul\":28873:28877   */\n      dup2\n        /* \"#utility.yul\":28747:28878   */\n      tag_340\n      jump\t// in\n    tag_622:\n        /* \"#utility.yul\":28739:28878   */\n      swap1\n      pop\n        /* \"#utility.yul\":28466:28885   */\n      swap2\n      swap1\n      pop\n      jump\t// out\n        /* \"#utility.yul\":28891:29055   */\n    tag_341:\n        /* \"#utility.yul\":29031:29047   */\n      0x6e616f20706f6465207361636172000000000000000000000000000000000000\n        /* \"#utility.yul\":29027:29028   */\n      0x00\n        /* \"#utility.yul\":29019:29025   */\n      dup3\n        /* \"#utility.yul\":29015:29029   */\n      add\n        /* \"#utility.yul\":29008:29048   */\n      mstore\n        /* \"#utility.yul\":28891:29055   */\n      pop\n      jump\t// out\n        /* \"#utility.yul\":29061:29427   */\n    tag_342:\n        /* \"#utility.yul\":29203:29206   */\n      0x00\n        /* \"#utility.yul\":29224:29291   */\n      tag_625\n        /* \"#utility.yul\":29288:29290   */\n      0x0e\n        /* \"#utility.yul\":29283:29286   */\n      dup4\n        /* \"#utility.yul\":29224:29291   */\n      tag_318\n      jump\t// in\n    tag_625:\n        /* \"#utility.yul\":29217:29291   */\n      swap2\n      pop\n        /* \"#utility.yul\":29300:29393   */\n      tag_626\n        /* \"#utility.yul\":29389:29392   */\n      dup3\n        /* \"#utility.yul\":29300:29393   */\n      tag_341\n      jump\t// in\n    tag_626:\n        /* \"#utility.yul\":29418:29420   */\n      0x20\n        /* \"#utility.yul\":29413:29416   */\n      dup3\n        /* \"#utility.yul\":29409:29421   */\n      add\n        /* \"#utility.yul\":29402:29421   */\n      swap1\n      pop\n        /* \"#utility.yul\":29061:29427   */\n      swap2\n      swap1\n      pop\n      jump\t// out\n        /* \"#utility.yul\":29433:29852   */\n    tag_141:\n        /* \"#utility.yul\":29599:29603   */\n      0x00\n        /* \"#utility.yul\":29637:29639   */\n      0x20\n        /* \"#utility.yul\":29626:29635   */\n      dup3\n        /* \"#utility.yul\":29622:29640   */\n      add\n        /* \"#utility.yul\":29614:29640   */\n      swap1\n      pop\n        /* \"#utility.yul\":29686:29695   */\n      dup2\n        /* \"#utility.yul\":29680:29684   */\n      dup2\n        /* \"#utility.yul\":29676:29696   */\n      sub\n        /* \"#utility.yul\":29672:29673   */\n      0x00\n        /* \"#utility.yul\":29661:29670   */\n      dup4\n        /* \"#utility.yul\":29657:29674   */\n      add\n        /* \"#utility.yul\":29650:29697   */\n      mstore\n        /* \"#utility.yul\":29714:29845   */\n      tag_628\n        /* \"#utility.yul\":29840:29844   */\n      dup2\n        /* \"#utility.yul\":29714:29845   */\n      tag_342\n      jump\t// in\n    tag_628:\n        /* \"#utility.yul\":29706:29845   */\n      swap1\n      pop\n        /* \"#utility.yul\":29433:29852   */\n      swap2\n      swap1\n      pop\n      jump\t// out\n        /* \"#utility.yul\":29858:30027   */\n    tag_343:\n        /* \"#utility.yul\":29998:30019   */\n      0x46616c686120616f20656e766961722045544800000000000000000000000000\n        /* \"#utility.yul\":29994:29995   */\n      0x00\n        /* \"#utility.yul\":29986:29992   */\n      dup3\n        /* \"#utility.yul\":29982:29996   */\n      add\n        /* \"#utility.yul\":29975:30020   */\n      mstore\n        /* \"#utility.yul\":29858:30027   */\n      pop\n      jump\t// out\n        /* \"#utility.yul\":30033:30399   */\n    tag_344:\n        /* \"#utility.yul\":30175:30178   */\n      0x00\n        /* \"#utility.yul\":30196:30263   */\n      tag_631\n        /* \"#utility.yul\":30260:30262   */\n      0x13\n        /* \"#utility.yul\":30255:30258   */\n      dup4\n        /* \"#utility.yul\":30196:30263   */\n      tag_318\n      jump\t// in\n    tag_631:\n        /* \"#utility.yul\":30189:30263   */\n      swap2\n      pop\n        /* \"#utility.yul\":30272:30365   */\n      tag_632\n        /* \"#utility.yul\":30361:30364   */\n      dup3\n        /* \"#utility.yul\":30272:30365   */\n      tag_343\n      jump\t// in\n    tag_632:\n        /* \"#utility.yul\":30390:30392   */\n      0x20\n        /* \"#utility.yul\":30385:30388   */\n      dup3\n        /* \"#utility.yul\":30381:30393   */\n      add\n        /* \"#utility.yul\":30374:30393   */\n      swap1\n      pop\n        /* \"#utility.yul\":30033:30399   */\n      swap2\n      swap1\n      pop\n      jump\t// out\n        /* \"#utility.yul\":30405:30824   */\n    tag_148:\n        /* \"#utility.yul\":30571:30575   */\n      0x00\n        /* \"#utility.yul\":30609:30611   */\n      0x20\n        /* \"#utility.yul\":30598:30607   */\n      dup3\n        /* \"#utility.yul\":30594:30612   */\n      add\n        /* \"#utility.yul\":30586:30612   */\n      swap1\n      pop\n        /* \"#utility.yul\":30658:30667   */\n      dup2\n        /* \"#utility.yul\":30652:30656   */\n      dup2\n        /* \"#utility.yul\":30648:30668   */\n      sub\n        /* \"#utility.yul\":30644:30645   */\n      0x00\n        /* \"#utility.yul\":30633:30642   */\n      dup4\n        /* \"#utility.yul\":30629:30646   */\n      add\n        /* \"#utility.yul\":30622:30669   */\n      mstore\n        /* \"#utility.yul\":30686:30817   */\n      tag_634\n        /* \"#utility.yul\":30812:30816   */\n      dup2\n        /* \"#utility.yul\":30686:30817   */\n      tag_344\n      jump\t// in\n    tag_634:\n        /* \"#utility.yul\":30678:30817   */\n      swap1\n      pop\n        /* \"#utility.yul\":30405:30824   */\n      swap2\n      swap1\n      pop\n      jump\t// out\n        /* \"#utility.yul\":30830:31005   */\n    tag_345:\n        /* \"#utility.yul\":30970:30997   */\n      0x766f6365206e616f2074656d206973736f207475646f20616900000000000000\n        /* \"#utility.yul\":30966:30967   */\n      0x00\n        /* \"#utility.yul\":30958:30964   */\n      dup3\n        /* \"#utility.yul\":30954:30968   */\n      add\n        /* \"#utility.yul\":30947:30998   */\n      mstore\n        /* \"#utility.yul\":30830:31005   */\n      pop\n      jump\t// out\n        /* \"#utility.yul\":31011:31377   */\n    tag_346:\n        /* \"#utility.yul\":31153:31156   */\n      0x00\n        /* \"#utility.yul\":31174:31241   */\n      tag_637\n        /* \"#utility.yul\":31238:31240   */\n      0x19\n        /* \"#utility.yul\":31233:31236   */\n      dup4\n        /* \"#utility.yul\":31174:31241   */\n      tag_318\n      jump\t// in\n    tag_637:\n        /* \"#utility.yul\":31167:31241   */\n      swap2\n      pop\n        /* \"#utility.yul\":31250:31343   */\n      tag_638\n        /* \"#utility.yul\":31339:31342   */\n      dup3\n        /* \"#utility.yul\":31250:31343   */\n      tag_345\n      jump\t// in\n    tag_638:\n        /* \"#utility.yul\":31368:31370   */\n      0x20\n        /* \"#utility.yul\":31363:31366   */\n      dup3\n        /* \"#utility.yul\":31359:31371   */\n      add\n        /* \"#utility.yul\":31352:31371   */\n      swap1\n      pop\n        /* \"#utility.yul\":31011:31377   */\n      swap2\n      swap1\n      pop\n      jump\t// out\n        /* \"#utility.yul\":31383:31802   */\n    tag_156:\n        /* \"#utility.yul\":31549:31553   */\n      0x00\n        /* \"#utility.yul\":31587:31589   */\n      0x20\n        /* \"#utility.yul\":31576:31585   */\n      dup3\n        /* \"#utility.yul\":31572:31590   */\n      add\n        /* \"#utility.yul\":31564:31590   */\n      swap1\n      pop\n        /* \"#utility.yul\":31636:31645   */\n      dup2\n        /* \"#utility.yul\":31630:31634   */\n      dup2\n        /* \"#utility.yul\":31626:31646   */\n      sub\n        /* \"#utility.yul\":31622:31623   */\n      0x00\n        /* \"#utility.yul\":31611:31620   */\n      dup4\n        /* \"#utility.yul\":31607:31624   */\n      add\n        /* \"#utility.yul\":31600:31647   */\n      mstore\n        /* \"#utility.yul\":31664:31795   */\n      tag_640\n        /* \"#utility.yul\":31790:31794   */\n      dup2\n        /* \"#utility.yul\":31664:31795   */\n      tag_346\n      jump\t// in\n    tag_640:\n        /* \"#utility.yul\":31656:31795   */\n      swap1\n      pop\n        /* \"#utility.yul\":31383:31802   */\n      swap2\n      swap1\n      pop\n      jump\t// out\n        /* \"#utility.yul\":31808:31967   */\n    tag_347:\n        /* \"#utility.yul\":31948:31959   */\n      0x6e616f207469726f750000000000000000000000000000000000000000000000\n        /* \"#utility.yul\":31944:31945   */\n      0x00\n        /* \"#utility.yul\":31936:31942   */\n      dup3\n        /* \"#utility.yul\":31932:31946   */\n      add\n        /* \"#utility.yul\":31925:31960   */\n      mstore\n        /* \"#utility.yul\":31808:31967   */\n      pop\n      jump\t// out\n        /* \"#utility.yul\":31973:32338   */\n    tag_348:\n        /* \"#utility.yul\":32115:32118   */\n      0x00\n        /* \"#utility.yul\":32136:32202   */\n      tag_643\n        /* \"#utility.yul\":32200:32201   */\n      0x09\n        /* \"#utility.yul\":32195:32198   */\n      dup4\n        /* \"#utility.yul\":32136:32202   */\n      tag_318\n      jump\t// in\n    tag_643:\n        /* \"#utility.yul\":32129:32202   */\n      swap2\n      pop\n        /* \"#utility.yul\":32211:32304   */\n      tag_644\n        /* \"#utility.yul\":32300:32303   */\n      dup3\n        /* \"#utility.yul\":32211:32304   */\n      tag_347\n      jump\t// in\n    tag_644:\n        /* \"#utility.yul\":32329:32331   */\n      0x20\n        /* \"#utility.yul\":32324:32327   */\n      dup3\n        /* \"#utility.yul\":32320:32332   */\n      add\n        /* \"#utility.yul\":32313:32332   */\n      swap1\n      pop\n        /* \"#utility.yul\":31973:32338   */\n      swap2\n      swap1\n      pop\n      jump\t// out\n        /* \"#utility.yul\":32344:32763   */\n    tag_163:\n        /* \"#utility.yul\":32510:32514   */\n      0x00\n        /* \"#utility.yul\":32548:32550   */\n      0x20\n        /* \"#utility.yul\":32537:32546   */\n      dup3\n        /* \"#utility.yul\":32533:32551   */\n      add\n        /* \"#utility.yul\":32525:32551   */\n      swap1\n      pop\n        /* \"#utility.yul\":32597:32606   */\n      dup2\n        /* \"#utility.yul\":32591:32595   */\n      dup2\n        /* \"#utility.yul\":32587:32607   */\n      sub\n        /* \"#utility.yul\":32583:32584   */\n      0x00\n        /* \"#utility.yul\":32572:32581   */\n      dup4\n        /* \"#utility.yul\":32568:32585   */\n      add\n        /* \"#utility.yul\":32561:32608   */\n      mstore\n        /* \"#utility.yul\":32625:32756   */\n      tag_646\n        /* \"#utility.yul\":32751:32755   */\n      dup2\n        /* \"#utility.yul\":32625:32756   */\n      tag_348\n      jump\t// in\n    tag_646:\n        /* \"#utility.yul\":32617:32756   */\n      swap1\n      pop\n        /* \"#utility.yul\":32344:32763   */\n      swap2\n      swap1\n      pop\n      jump\t// out\n        /* \"#utility.yul\":32769:32963   */\n    tag_165:\n        /* \"#utility.yul\":32809:32813   */\n      0x00\n        /* \"#utility.yul\":32829:32849   */\n      tag_648\n        /* \"#utility.yul\":32847:32848   */\n      dup3\n        /* \"#utility.yul\":32829:32849   */\n      tag_276\n      jump\t// in\n    tag_648:\n        /* \"#utility.yul\":32824:32849   */\n      swap2\n      pop\n        /* \"#utility.yul\":32863:32883   */\n      tag_649\n        /* \"#utility.yul\":32881:32882   */\n      dup4\n        /* \"#utility.yul\":32863:32883   */\n      tag_276\n      jump\t// in\n    tag_649:\n        /* \"#utility.yul\":32858:32883   */\n      swap3\n      pop\n        /* \"#utility.yul\":32907:32908   */\n      dup3\n        /* \"#utility.yul\":32904:32905   */\n      dup3\n        /* \"#utility.yul\":32900:32909   */\n      sub\n        /* \"#utility.yul\":32892:32909   */\n      swap1\n      pop\n        /* \"#utility.yul\":32931:32932   */\n      dup2\n        /* \"#utility.yul\":32925:32929   */\n      dup2\n        /* \"#utility.yul\":32922:32933   */\n      gt\n        /* \"#utility.yul\":32919:32956   */\n      iszero\n      tag_650\n      jumpi\n        /* \"#utility.yul\":32936:32954   */\n      tag_651\n      tag_327\n      jump\t// in\n    tag_651:\n        /* \"#utility.yul\":32919:32956   */\n    tag_650:\n        /* \"#utility.yul\":32769:32963   */\n      swap3\n      swap2\n      pop\n      pop\n      jump\t// out\n        /* \"#utility.yul\":32969:33142   */\n    tag_349:\n        /* \"#utility.yul\":33109:33134   */\n      0x5465737461646f72206e616f20656e636f6e747261646f000000000000000000\n        /* \"#utility.yul\":33105:33106   */\n      0x00\n        /* \"#utility.yul\":33097:33103   */\n      dup3\n        /* \"#utility.yul\":33093:33107   */\n      add\n        /* \"#utility.yul\":33086:33135   */\n      mstore\n        /* \"#utility.yul\":32969:33142   */\n      pop\n      jump\t// out\n        /* \"#utility.yul\":33148:33514   */\n    tag_350:\n        /* \"#utility.yul\":33290:33293   */\n      0x00\n        /* \"#utility.yul\":33311:33378   */\n      tag_654\n        /* \"#utility.yul\":33375:33377   */\n      0x17\n        /* \"#utility.yul\":33370:33373   */\n      dup4\n        /* \"#utility.yul\":33311:33378   */\n      tag_318\n      jump\t// in\n    tag_654:\n        /* \"#utility.yul\":33304:33378   */\n      swap2\n      pop\n        /* \"#utility.yul\":33387:33480   */\n      tag_655\n        /* \"#utility.yul\":33476:33479   */\n      dup3\n        /* \"#utility.yul\":33387:33480   */\n      tag_349\n      jump\t// in\n    tag_655:\n        /* \"#utility.yul\":33505:33507   */\n      0x20\n        /* \"#utility.yul\":33500:33503   */\n      dup3\n        /* \"#utility.yul\":33496:33508   */\n      add\n        /* \"#utility.yul\":33489:33508   */\n      swap1\n      pop\n        /* \"#utility.yul\":33148:33514   */\n      swap2\n      swap1\n      pop\n      jump\t// out\n        /* \"#utility.yul\":33520:33939   */\n    tag_172:\n        /* \"#utility.yul\":33686:33690   */\n      0x00\n        /* \"#utility.yul\":33724:33726   */\n      0x20\n        /* \"#utility.yul\":33713:33722   */\n      dup3\n        /* \"#utility.yul\":33709:33727   */\n      add\n        /* \"#utility.yul\":33701:33727   */\n      swap1\n      pop\n        /* \"#utility.yul\":33773:33782   */\n      dup2\n        /* \"#utility.yul\":33767:33771   */\n      dup2\n        /* \"#utility.yul\":33763:33783   */\n      sub\n        /* \"#utility.yul\":33759:33760   */\n      0x00\n        /* \"#utility.yul\":33748:33757   */\n      dup4\n        /* \"#utility.yul\":33744:33761   */\n      add\n        /* \"#utility.yul\":33737:33784   */\n      mstore\n        /* \"#utility.yul\":33801:33932   */\n      tag_657\n        /* \"#utility.yul\":33927:33931   */\n      dup2\n        /* \"#utility.yul\":33801:33932   */\n      tag_350\n      jump\t// in\n    tag_657:\n        /* \"#utility.yul\":33793:33932   */\n      swap1\n      pop\n        /* \"#utility.yul\":33520:33939   */\n      swap2\n      swap1\n      pop\n      jump\t// out\n        /* \"#utility.yul\":33945:34046   */\n    tag_351:\n        /* \"#utility.yul\":33981:33988   */\n      0x00\n        /* \"#utility.yul\":34021:34039   */\n      0xffffffffffffffff\n        /* \"#utility.yul\":34014:34019   */\n      dup3\n        /* \"#utility.yul\":34010:34040   */\n      and\n        /* \"#utility.yul\":33999:34040   */\n      swap1\n      pop\n        /* \"#utility.yul\":33945:34046   */\n      swap2\n      swap1\n      pop\n      jump\t// out\n        /* \"#utility.yul\":34052:34235   */\n    tag_195:\n        /* \"#utility.yul\":34090:34093   */\n      0x00\n        /* \"#utility.yul\":34113:34136   */\n      tag_660\n        /* \"#utility.yul\":34130:34135   */\n      dup3\n        /* \"#utility.yul\":34113:34136   */\n      tag_351\n      jump\t// in\n    tag_660:\n        /* \"#utility.yul\":34104:34136   */\n      swap2\n      pop\n        /* \"#utility.yul\":34158:34176   */\n      0xffffffffffffffff\n        /* \"#utility.yul\":34151:34156   */\n      dup3\n        /* \"#utility.yul\":34148:34177   */\n      sub\n        /* \"#utility.yul\":34145:34200   */\n      tag_661\n      jumpi\n        /* \"#utility.yul\":34180:34198   */\n      tag_662\n      tag_327\n      jump\t// in\n    tag_662:\n        /* \"#utility.yul\":34145:34200   */\n    tag_661:\n        /* \"#utility.yul\":34227:34228   */\n      0x01\n        /* \"#utility.yul\":34220:34225   */\n      dup3\n        /* \"#utility.yul\":34216:34229   */\n      add\n        /* \"#utility.yul\":34209:34229   */\n      swap1\n      pop\n        /* \"#utility.yul\":34052:34235   */\n      swap2\n      swap1\n      pop\n      jump\t// out\n        /* \"#utility.yul\":34241:34468   */\n    tag_352:\n        /* \"#utility.yul\":34381:34415   */\n      0x566f6365206e616f20706f73737569206e656e68756d2074657374616d656e74\n        /* \"#utility.yul\":34377:34378   */\n      0x00\n        /* \"#utility.yul\":34369:34375   */\n      dup3\n        /* \"#utility.yul\":34365:34379   */\n      add\n        /* \"#utility.yul\":34358:34416   */\n      mstore\n        /* \"#utility.yul\":34450:34460   */\n      0x6f2063726961646f000000000000000000000000000000000000000000000000\n        /* \"#utility.yul\":34445:34447   */\n      0x20\n        /* \"#utility.yul\":34437:34443   */\n      dup3\n        /* \"#utility.yul\":34433:34448   */\n      add\n        /* \"#utility.yul\":34426:34461   */\n      mstore\n        /* \"#utility.yul\":34241:34468   */\n      pop\n      jump\t// out\n        /* \"#utility.yul\":34474:34840   */\n    tag_353:\n        /* \"#utility.yul\":34616:34619   */\n      0x00\n        /* \"#utility.yul\":34637:34704   */\n      tag_665\n        /* \"#utility.yul\":34701:34703   */\n      0x28\n        /* \"#utility.yul\":34696:34699   */\n      dup4\n        /* \"#utility.yul\":34637:34704   */\n      tag_318\n      jump\t// in\n    tag_665:\n        /* \"#utility.yul\":34630:34704   */\n      swap2\n      pop\n        /* \"#utility.yul\":34713:34806   */\n      tag_666\n        /* \"#utility.yul\":34802:34805   */\n      dup3\n        /* \"#utility.yul\":34713:34806   */\n      tag_352\n      jump\t// in\n    tag_666:\n        /* \"#utility.yul\":34831:34833   */\n      0x40\n        /* \"#utility.yul\":34826:34829   */\n      dup3\n        /* \"#utility.yul\":34822:34834   */\n      add\n        /* \"#utility.yul\":34815:34834   */\n      swap1\n      pop\n        /* \"#utility.yul\":34474:34840   */\n      swap2\n      swap1\n      pop\n      jump\t// out\n        /* \"#utility.yul\":34846:35265   */\n    tag_199:\n        /* \"#utility.yul\":35012:35016   */\n      0x00\n        /* \"#utility.yul\":35050:35052   */\n      0x20\n        /* \"#utility.yul\":35039:35048   */\n      dup3\n        /* \"#utility.yul\":35035:35053   */\n      add\n        /* \"#utility.yul\":35027:35053   */\n      swap1\n      pop\n        /* \"#utility.yul\":35099:35108   */\n      dup2\n        /* \"#utility.yul\":35093:35097   */\n      dup2\n        /* \"#utility.yul\":35089:35109   */\n      sub\n        /* \"#utility.yul\":35085:35086   */\n      0x00\n        /* \"#utility.yul\":35074:35083   */\n      dup4\n        /* \"#utility.yul\":35070:35087   */\n      add\n        /* \"#utility.yul\":35063:35110   */\n      mstore\n        /* \"#utility.yul\":35127:35258   */\n      tag_668\n        /* \"#utility.yul\":35253:35257   */\n      dup2\n        /* \"#utility.yul\":35127:35258   */\n      tag_353\n      jump\t// in\n    tag_668:\n        /* \"#utility.yul\":35119:35258   */\n      swap1\n      pop\n        /* \"#utility.yul\":34846:35265   */\n      swap2\n      swap1\n      pop\n      jump\t// out\n        /* \"#utility.yul\":35271:35493   */\n    tag_354:\n        /* \"#utility.yul\":35411:35445   */\n      0x637265617465496e6865726974616e636528292c2076616c6f7220696e76616c\n        /* \"#utility.yul\":35407:35408   */\n      0x00\n        /* \"#utility.yul\":35399:35405   */\n      dup3\n        /* \"#utility.yul\":35395:35409   */\n      add\n        /* \"#utility.yul\":35388:35446   */\n      mstore\n        /* \"#utility.yul\":35480:35485   */\n      0x69646f0000000000000000000000000000000000000000000000000000000000\n        /* \"#utility.yul\":35475:35477   */\n      0x20\n        /* \"#utility.yul\":35467:35473   */\n      dup3\n        /* \"#utility.yul\":35463:35478   */\n      add\n        /* \"#utility.yul\":35456:35486   */\n      mstore\n        /* \"#utility.yul\":35271:35493   */\n      pop\n      jump\t// out\n        /* \"#utility.yul\":35499:35865   */\n    tag_355:\n        /* \"#utility.yul\":35641:35644   */\n      0x00\n        /* \"#utility.yul\":35662:35729   */\n      tag_671\n        /* \"#utility.yul\":35726:35728   */\n      0x23\n        /* \"#utility.yul\":35721:35724   */\n      dup4\n        /* \"#utility.yul\":35662:35729   */\n      tag_318\n      jump\t// in\n    tag_671:\n        /* \"#utility.yul\":35655:35729   */\n      swap2\n      pop\n        /* \"#utility.yul\":35738:35831   */\n      tag_672\n        /* \"#utility.yul\":35827:35830   */\n      dup3\n        /* \"#utility.yul\":35738:35831   */\n      tag_354\n      jump\t// in\n    tag_672:\n        /* \"#utility.yul\":35856:35858   */\n      0x40\n        /* \"#utility.yul\":35851:35854   */\n      dup3\n        /* \"#utility.yul\":35847:35859   */\n      add\n        /* \"#utility.yul\":35840:35859   */\n      swap1\n      pop\n        /* \"#utility.yul\":35499:35865   */\n      swap2\n      swap1\n      pop\n      jump\t// out\n        /* \"#utility.yul\":35871:36290   */\n    tag_206:\n        /* \"#utility.yul\":36037:36041   */\n      0x00\n        /* \"#utility.yul\":36075:36077   */\n      0x20\n        /* \"#utility.yul\":36064:36073   */\n      dup3\n        /* \"#utility.yul\":36060:36078   */\n      add\n        /* \"#utility.yul\":36052:36078   */\n      swap1\n      pop\n        /* \"#utility.yul\":36124:36133   */\n      dup2\n        /* \"#utility.yul\":36118:36122   */\n      dup2\n        /* \"#utility.yul\":36114:36134   */\n      sub\n        /* \"#utility.yul\":36110:36111   */\n      0x00\n        /* \"#utility.yul\":36099:36108   */\n      dup4\n        /* \"#utility.yul\":36095:36112   */\n      add\n        /* \"#utility.yul\":36088:36135   */\n      mstore\n        /* \"#utility.yul\":36152:36283   */\n      tag_674\n        /* \"#utility.yul\":36278:36282   */\n      dup2\n        /* \"#utility.yul\":36152:36283   */\n      tag_355\n      jump\t// in\n    tag_674:\n        /* \"#utility.yul\":36144:36283   */\n      swap1\n      pop\n        /* \"#utility.yul\":35871:36290   */\n      swap2\n      swap1\n      pop\n      jump\t// out\n        /* \"#utility.yul\":36296:36547   */\n    tag_356:\n        /* \"#utility.yul\":36436:36470   */\n      0x637265617465496e6865726974616e636528292c20766f6365206a612074656d\n        /* \"#utility.yul\":36432:36433   */\n      0x00\n        /* \"#utility.yul\":36424:36430   */\n      dup3\n        /* \"#utility.yul\":36420:36434   */\n      add\n        /* \"#utility.yul\":36413:36471   */\n      mstore\n        /* \"#utility.yul\":36505:36539   */\n      0x20756d2074657374616d656e746f2063726961646f2c20656469746520656c65\n        /* \"#utility.yul\":36500:36502   */\n      0x20\n        /* \"#utility.yul\":36492:36498   */\n      dup3\n        /* \"#utility.yul\":36488:36503   */\n      add\n        /* \"#utility.yul\":36481:36540   */\n      mstore\n        /* \"#utility.yul\":36296:36547   */\n      pop\n      jump\t// out\n        /* \"#utility.yul\":36553:36919   */\n    tag_357:\n        /* \"#utility.yul\":36695:36698   */\n      0x00\n        /* \"#utility.yul\":36716:36783   */\n      tag_677\n        /* \"#utility.yul\":36780:36782   */\n      0x40\n        /* \"#utility.yul\":36775:36778   */\n      dup4\n        /* \"#utility.yul\":36716:36783   */\n      tag_318\n      jump\t// in\n    tag_677:\n        /* \"#utility.yul\":36709:36783   */\n      swap2\n      pop\n        /* \"#utility.yul\":36792:36885   */\n      tag_678\n        /* \"#utility.yul\":36881:36884   */\n      dup3\n        /* \"#utility.yul\":36792:36885   */\n      tag_356\n      jump\t// in\n    tag_678:\n        /* \"#utility.yul\":36910:36912   */\n      0x40\n        /* \"#utility.yul\":36905:36908   */\n      dup3\n        /* \"#utility.yul\":36901:36913   */\n      add\n        /* \"#utility.yul\":36894:36913   */\n      swap1\n      pop\n        /* \"#utility.yul\":36553:36919   */\n      swap2\n      swap1\n      pop\n      jump\t// out\n        /* \"#utility.yul\":36925:37344   */\n    tag_213:\n        /* \"#utility.yul\":37091:37095   */\n      0x00\n        /* \"#utility.yul\":37129:37131   */\n      0x20\n        /* \"#utility.yul\":37118:37127   */\n      dup3\n        /* \"#utility.yul\":37114:37132   */\n      add\n        /* \"#utility.yul\":37106:37132   */\n      swap1\n      pop\n        /* \"#utility.yul\":37178:37187   */\n      dup2\n        /* \"#utility.yul\":37172:37176   */\n      dup2\n        /* \"#utility.yul\":37168:37188   */\n      sub\n        /* \"#utility.yul\":37164:37165   */\n      0x00\n        /* \"#utility.yul\":37153:37162   */\n      dup4\n        /* \"#utility.yul\":37149:37166   */\n      add\n        /* \"#utility.yul\":37142:37189   */\n      mstore\n        /* \"#utility.yul\":37206:37337   */\n      tag_680\n        /* \"#utility.yul\":37332:37336   */\n      dup2\n        /* \"#utility.yul\":37206:37337   */\n      tag_357\n      jump\t// in\n    tag_680:\n        /* \"#utility.yul\":37198:37337   */\n      swap1\n      pop\n        /* \"#utility.yul\":36925:37344   */\n      swap2\n      swap1\n      pop\n      jump\t// out\n        /* \"#utility.yul\":37350:37525   */\n    tag_358:\n        /* \"#utility.yul\":37490:37517   */\n      0x54657374616d656e746f206e616f20656e636f6e747261646f00000000000000\n        /* \"#utility.yul\":37486:37487   */\n      0x00\n        /* \"#utility.yul\":37478:37484   */\n      dup3\n        /* \"#utility.yul\":37474:37488   */\n      add\n        /* \"#utility.yul\":37467:37518   */\n      mstore\n        /* \"#utility.yul\":37350:37525   */\n      pop\n      jump\t// out\n        /* \"#utility.yul\":37531:37897   */\n    tag_359:\n        /* \"#utility.yul\":37673:37676   */\n      0x00\n        /* \"#utility.yul\":37694:37761   */\n      tag_683\n        /* \"#utility.yul\":37758:37760   */\n      0x19\n        /* \"#utility.yul\":37753:37756   */\n      dup4\n        /* \"#utility.yul\":37694:37761   */\n      tag_318\n      jump\t// in\n    tag_683:\n        /* \"#utility.yul\":37687:37761   */\n      swap2\n      pop\n        /* \"#utility.yul\":37770:37863   */\n      tag_684\n        /* \"#utility.yul\":37859:37862   */\n      dup3\n        /* \"#utility.yul\":37770:37863   */\n      tag_358\n      jump\t// in\n    tag_684:\n        /* \"#utility.yul\":37888:37890   */\n      0x20\n        /* \"#utility.yul\":37883:37886   */\n      dup3\n        /* \"#utility.yul\":37879:37891   */\n      add\n        /* \"#utility.yul\":37872:37891   */\n      swap1\n      pop\n        /* \"#utility.yul\":37531:37897   */\n      swap2\n      swap1\n      pop\n      jump\t// out\n        /* \"#utility.yul\":37903:38322   */\n    tag_229:\n        /* \"#utility.yul\":38069:38073   */\n      0x00\n        /* \"#utility.yul\":38107:38109   */\n      0x20\n        /* \"#utility.yul\":38096:38105   */\n      dup3\n        /* \"#utility.yul\":38092:38110   */\n      add\n        /* \"#utility.yul\":38084:38110   */\n      swap1\n      pop\n        /* \"#utility.yul\":38156:38165   */\n      dup2\n        /* \"#utility.yul\":38150:38154   */\n      dup2\n        /* \"#utility.yul\":38146:38166   */\n      sub\n        /* \"#utility.yul\":38142:38143   */\n      0x00\n        /* \"#utility.yul\":38131:38140   */\n      dup4\n        /* \"#utility.yul\":38127:38144   */\n      add\n        /* \"#utility.yul\":38120:38167   */\n      mstore\n        /* \"#utility.yul\":38184:38315   */\n      tag_686\n        /* \"#utility.yul\":38310:38314   */\n      dup2\n        /* \"#utility.yul\":38184:38315   */\n      tag_359\n      jump\t// in\n    tag_686:\n        /* \"#utility.yul\":38176:38315   */\n      swap1\n      pop\n        /* \"#utility.yul\":37903:38322   */\n      swap2\n      swap1\n      pop\n      jump\t// out\n        /* \"#utility.yul\":38328:38508   */\n    tag_257:\n        /* \"#utility.yul\":38376:38453   */\n      0x4e487b7100000000000000000000000000000000000000000000000000000000\n        /* \"#utility.yul\":38373:38374   */\n      0x00\n        /* \"#utility.yul\":38366:38454   */\n      mstore\n        /* \"#utility.yul\":38473:38477   */\n      0x31\n        /* \"#utility.yul\":38470:38471   */\n      0x04\n        /* \"#utility.yul\":38463:38478   */\n      mstore\n        /* \"#utility.yul\":38497:38501   */\n      0x24\n        /* \"#utility.yul\":38494:38495   */\n      0x00\n        /* \"#utility.yul\":38487:38502   */\n      revert\n\n    auxdata: 0xa2646970667358221220b3a84ad9166ea6d3e01d31732c86acfa827eb3d2532b2d53a5a7c2edc0edc36464736f6c634300081a0033\n}\n",
				"bytecode": {
					"linkReferences": {},
					"object": "6080604052348015600e575f80fd5b506132008061001c5f395ff3fe6080604052600436106100a6575f3560e01c80637618d0a7116100635780637618d0a71461017e578063c6064610146101bc578063c80cc411146101fc578063ca7252ea14610212578063e7a84bc31461023c578063f3550b9b14610258576100a6565b80630bbd5839146100aa5780630d78946e146100d25780631aba6da6146100dc57806351cff8d9146100f25780635b084db91461011a5780635bd36e2914610156575b5f80fd5b3480156100b5575f80fd5b506100d060048036038101906100cb9190611f8b565b610294565b005b6100da6105cd565b005b3480156100e7575f80fd5b506100f06106f8565b005b3480156100fd575f80fd5b5061011860048036038101906101139190612063565b610905565b005b348015610125575f80fd5b50610140600480360381019061013b91906120c1565b610cd5565b60405161014d919061210e565b60405180910390f35b348015610161575f80fd5b5061017c60048036038101906101779190612127565b610d1d565b005b348015610189575f80fd5b506101a4600480360381019061019f9190612063565b610f32565b6040516101b3939291906121a5565b60405180910390f35b3480156101c7575f80fd5b506101e260048036038101906101dd9190612063565b610f80565b6040516101f395949392919061240c565b60405180910390f35b348015610207575f80fd5b5061021061139a565b005b34801561021d575f80fd5b506102266114a2565b6040516102339190612472565b60405180910390f35b610256600480360381019061025191906126c4565b61156d565b005b348015610263575f80fd5b5061027e60048036038101906102799190612063565b611994565b60405161028b919061273a565b60405180910390f35b5f3390505f85859050036102dd576040517f08c379a00000000000000000000000000000000000000000000000000000000081526004016102d4906127d3565b60405180910390fd5b828290508585905014610325576040517f08c379a000000000000000000000000000000000000000000000000000000000815260040161031c90612887565b60405180910390fd5b61032e81611aa9565b5f808273ffffffffffffffffffffffffffffffffffffffff1673ffffffffffffffffffffffffffffffffffffffff1681526020019081526020015f205f015f6103779190611e43565b5f5b858590508110156105c5575f60405180606001604052808888858181106103a3576103a26128a5565b5b90506020020160208101906103b89190612063565b73ffffffffffffffffffffffffffffffffffffffff1681526020018686858181106103e6576103e56128a5565b5b90506020020160208101906103fb91906128d2565b61ffff1681526020016001151581525090505f808473ffffffffffffffffffffffffffffffffffffffff1673ffffffffffffffffffffffffffffffffffffffff1681526020019081526020015f205f0181908060018154018082558091505060019003905f5260205f20015f909190919091505f820151815f015f6101000a81548173ffffffffffffffffffffffffffffffffffffffff021916908373ffffffffffffffffffffffffffffffffffffffff1602179055506020820151815f0160146101000a81548161ffff021916908361ffff1602179055506040820151815f0160166101000a81548160ff021916908315150217905550505060015f88888581811061050b5761050a6128a5565b5b90506020020160208101906105209190612063565b73ffffffffffffffffffffffffffffffffffffffff1673ffffffffffffffffffffffffffffffffffffffff1681526020019081526020015f2083908060018154018082558091505060019003905f5260205f20015f9091909190916101000a81548173ffffffffffffffffffffffffffffffffffffffff021916908373ffffffffffffffffffffffffffffffffffffffff160217905550508080600101915050610379565b505050505050565b600115155f803373ffffffffffffffffffffffffffffffffffffffff1673ffffffffffffffffffffffffffffffffffffffff1681526020019081526020015f206001015f9054906101000a900460ff1615151461065f576040517f08c379a00000000000000000000000000000000000000000000000000000000081526004016106569061296d565b60405180910390fd5b5f34116106a1576040517f08c379a0000000000000000000000000000000000000000000000000000000008152600401610698906129d5565b60405180910390fd5b345f803373ffffffffffffffffffffffffffffffffffffffff1673ffffffffffffffffffffffffffffffffffffffff1681526020019081526020015f206002015f8282546106ef9190612a20565b92505081905550565b5f3390505f808273ffffffffffffffffffffffffffffffffffffffff1673ffffffffffffffffffffffffffffffffffffffff1681526020019081526020015f206001015f9054906101000a900460ff16610787576040517f08c379a000000000000000000000000000000000000000000000000000000000815260040161077e90612a9d565b60405180910390fd5b5f3373ffffffffffffffffffffffffffffffffffffffff165f808473ffffffffffffffffffffffffffffffffffffffff1673ffffffffffffffffffffffffffffffffffffffff1681526020019081526020015f20600201546040516107eb90612ae8565b5f6040518083038185875af1925050503d805f8114610825576040519150601f19603f3d011682016040523d82523d5f602084013e61082a565b606091505b505090508061086e576040517f08c379a000000000000000000000000000000000000000000000000000000000815260040161086590612b6c565b60405180910390fd5b61087782611aa9565b5f808373ffffffffffffffffffffffffffffffffffffffff1673ffffffffffffffffffffffffffffffffffffffff1681526020019081526020015f205f8082015f6108c29190611e43565b600182015f6101000a81549060ff02191690556001820160016101000a8154906fffffffffffffffffffffffffffffffff0219169055600282015f905550505050565b5f33905061091282611994565b610951576040517f08c379a000000000000000000000000000000000000000000000000000000000815260040161094890612bfa565b60405180910390fd5b5f805f8473ffffffffffffffffffffffffffffffffffffffff1673ffffffffffffffffffffffffffffffffffffffff1681526020019081526020015f205f0180549050116109d4576040517f08c379a00000000000000000000000000000000000000000000000000000000081526004016109cb90612c62565b60405180910390fd5b5f5b5f808473ffffffffffffffffffffffffffffffffffffffff1673ffffffffffffffffffffffffffffffffffffffff1681526020019081526020015f205f0180549050811015610cd0575f805f8573ffffffffffffffffffffffffffffffffffffffff1673ffffffffffffffffffffffffffffffffffffffff1681526020019081526020015f205f018281548110610a7057610a6f6128a5565b5b905f5260205f20016040518060600160405290815f82015f9054906101000a900473ffffffffffffffffffffffffffffffffffffffff1673ffffffffffffffffffffffffffffffffffffffff1673ffffffffffffffffffffffffffffffffffffffff1681526020015f820160149054906101000a900461ffff1661ffff1661ffff1681526020015f820160169054906101000a900460ff16151515158152505090508273ffffffffffffffffffffffffffffffffffffffff16815f015173ffffffffffffffffffffffffffffffffffffffff1614610b83576040517f08c379a0000000000000000000000000000000000000000000000000000000008152600401610b7a90612cf0565b60405180910390fd5b8060400151610bc7576040517f08c379a0000000000000000000000000000000000000000000000000000000008152600401610bbe90612d58565b60405180910390fd5b5f815f015173ffffffffffffffffffffffffffffffffffffffff165f808673ffffffffffffffffffffffffffffffffffffffff1673ffffffffffffffffffffffffffffffffffffffff1681526020019081526020015f2060020154604051610c2e90612ae8565b5f6040518083038185875af1925050503d805f8114610c68576040519150601f19603f3d011682016040523d82523d5f602084013e610c6d565b606091505b5050905080610cb1576040517f08c379a0000000000000000000000000000000000000000000000000000000008152600401610ca890612dc0565b60405180910390fd5b5f826040019015159081151581525050505080806001019150506109d6565b505050565b6001602052815f5260405f208181548110610cee575f80fd5b905f5260205f20015f915091509054906101000a900473ffffffffffffffffffffffffffffffffffffffff1681565b600115155f803373ffffffffffffffffffffffffffffffffffffffff1673ffffffffffffffffffffffffffffffffffffffff1681526020019081526020015f206001015f9054906101000a900460ff16151514610daf576040517f08c379a0000000000000000000000000000000000000000000000000000000008152600401610da69061296d565b60405180910390fd5b5f803373ffffffffffffffffffffffffffffffffffffffff1673ffffffffffffffffffffffffffffffffffffffff1681526020019081526020015f2060020154811115610e31576040517f08c379a0000000000000000000000000000000000000000000000000000000008152600401610e2890612e28565b60405180910390fd5b5f3373ffffffffffffffffffffffffffffffffffffffff1682604051610e5690612ae8565b5f6040518083038185875af1925050503d805f8114610e90576040519150601f19603f3d011682016040523d82523d5f602084013e610e95565b606091505b5050905080610ed9576040517f08c379a0000000000000000000000000000000000000000000000000000000008152600401610ed090612e90565b60405180910390fd5b815f803373ffffffffffffffffffffffffffffffffffffffff1673ffffffffffffffffffffffffffffffffffffffff1681526020019081526020015f206002015f828254610f279190612eae565b925050819055505050565b5f602052805f5260405f205f91509050806001015f9054906101000a900460ff16908060010160019054906101000a90046fffffffffffffffffffffffffffffffff16908060020154905083565b60608060605f805f805f8873ffffffffffffffffffffffffffffffffffffffff1673ffffffffffffffffffffffffffffffffffffffff1681526020019081526020015f206040518060800160405290815f8201805480602002602001604051908101604052809291908181526020015f905b828210156110ab578382905f5260205f20016040518060600160405290815f82015f9054906101000a900473ffffffffffffffffffffffffffffffffffffffff1673ffffffffffffffffffffffffffffffffffffffff1673ffffffffffffffffffffffffffffffffffffffff1681526020015f820160149054906101000a900461ffff1661ffff1661ffff1681526020015f820160169054906101000a900460ff16151515158152505081526020019060010190610ff2565b505050508152602001600182015f9054906101000a900460ff161515151581526020016001820160019054906101000a90046fffffffffffffffffffffffffffffffff166fffffffffffffffffffffffffffffffff166fffffffffffffffffffffffffffffffff16815260200160028201548152505090508060200151611167576040517f08c379a000000000000000000000000000000000000000000000000000000000815260040161115e90612f2b565b60405180910390fd5b5f815f01515167ffffffffffffffff811115611186576111856124a2565b5b6040519080825280602002602001820160405280156111b45781602001602082028036833780820191505090505b5090505f825f01515167ffffffffffffffff8111156111d6576111d56124a2565b5b6040519080825280602002602001820160405280156112045781602001602082028036833780820191505090505b5090505f835f01515167ffffffffffffffff811115611226576112256124a2565b5b6040519080825280602002602001820160405280156112545781602001602082028036833780820191505090505b5090505f5b845f0151518167ffffffffffffffff161015611375575f855f01518267ffffffffffffffff16815181106112905761128f6128a5565b5b60200260200101519050805f0151858367ffffffffffffffff16815181106112bb576112ba6128a5565b5b602002602001019073ffffffffffffffffffffffffffffffffffffffff16908173ffffffffffffffffffffffffffffffffffffffff16815250508060200151848367ffffffffffffffff1681518110611317576113166128a5565b5b602002602001019061ffff16908161ffff16815250508060400151838367ffffffffffffffff168151811061134f5761134e6128a5565b5b60200260200101901515908115158152505050808061136d90612f5c565b915050611259565b5082828286604001518760600151985098509850985098505050505091939590929450565b5f3390505f808273ffffffffffffffffffffffffffffffffffffffff1673ffffffffffffffffffffffffffffffffffffffff1681526020019081526020015f206001015f9054906101000a900460ff16611429576040517f08c379a000000000000000000000000000000000000000000000000000000000815260040161142090612ffb565b60405180910390fd5b425f808373ffffffffffffffffffffffffffffffffffffffff1673ffffffffffffffffffffffffffffffffffffffff1681526020019081526020015f2060010160016101000a8154816fffffffffffffffffffffffffffffffff02191690836fffffffffffffffffffffffffffffffff16021790555050565b60605f33905060015f8273ffffffffffffffffffffffffffffffffffffffff1673ffffffffffffffffffffffffffffffffffffffff1681526020019081526020015f2080548060200260200160405190810160405280929190818152602001828054801561156257602002820191905f5260205f20905b815f9054906101000a900473ffffffffffffffffffffffffffffffffffffffff1673ffffffffffffffffffffffffffffffffffffffff1681526020019060010190808311611519575b505050505091505090565b5f34036115af576040517f08c379a00000000000000000000000000000000000000000000000000000000081526004016115a690613089565b60405180910390fd5b5f8251036115f2576040517f08c379a00000000000000000000000000000000000000000000000000000000081526004016115e9906127d3565b60405180910390fd5b8051825114611636576040517f08c379a000000000000000000000000000000000000000000000000000000000815260040161162d90612887565b60405180910390fd5b5f3390505f808273ffffffffffffffffffffffffffffffffffffffff1673ffffffffffffffffffffffffffffffffffffffff1681526020019081526020015f206001015f9054906101000a900460ff16156116c6576040517f08c379a00000000000000000000000000000000000000000000000000000000081526004016116bd90613117565b60405180910390fd5b5f5b83518110156118eb575f60405180606001604052808684815181106116f0576116ef6128a5565b5b602002602001015173ffffffffffffffffffffffffffffffffffffffff168152602001858481518110611726576117256128a5565b5b602002602001015161ffff16815260200160011515815250905060015f868481518110611756576117556128a5565b5b602002602001015173ffffffffffffffffffffffffffffffffffffffff1673ffffffffffffffffffffffffffffffffffffffff1681526020019081526020015f2083908060018154018082558091505060019003905f5260205f20015f9091909190916101000a81548173ffffffffffffffffffffffffffffffffffffffff021916908373ffffffffffffffffffffffffffffffffffffffff1602179055505f808473ffffffffffffffffffffffffffffffffffffffff1673ffffffffffffffffffffffffffffffffffffffff1681526020019081526020015f205f0181908060018154018082558091505060019003905f5260205f20015f909190919091505f820151815f015f6101000a81548173ffffffffffffffffffffffffffffffffffffffff021916908373ffffffffffffffffffffffffffffffffffffffff1602179055506020820151815f0160146101000a81548161ffff021916908361ffff1602179055506040820151815f0160166101000a81548160ff02191690831515021790555050505080806001019150506116c8565b5060015f808373ffffffffffffffffffffffffffffffffffffffff1673ffffffffffffffffffffffffffffffffffffffff1681526020019081526020015f206001015f6101000a81548160ff021916908315150217905550345f808373ffffffffffffffffffffffffffffffffffffffff1673ffffffffffffffffffffffffffffffffffffffff1681526020019081526020015f206002018190555061198f61139a565b505050565b5f805f8373ffffffffffffffffffffffffffffffffffffffff1673ffffffffffffffffffffffffffffffffffffffff1681526020019081526020015f206001015f9054906101000a900460ff16611a20576040517f08c379a0000000000000000000000000000000000000000000000000000000008152600401611a179061317f565b60405180910390fd5b5f60019050805f808573ffffffffffffffffffffffffffffffffffffffff1673ffffffffffffffffffffffffffffffffffffffff1681526020019081526020015f2060010160019054906101000a90046fffffffffffffffffffffffffffffffff166fffffffffffffffffffffffffffffffff16611a9e9190612a20565b421015915050919050565b5f805f8373ffffffffffffffffffffffffffffffffffffffff1673ffffffffffffffffffffffffffffffffffffffff1681526020019081526020015f205f01805480602002602001604051908101604052809291908181526020015f905b82821015611bc0578382905f5260205f20016040518060600160405290815f82015f9054906101000a900473ffffffffffffffffffffffffffffffffffffffff1673ffffffffffffffffffffffffffffffffffffffff1673ffffffffffffffffffffffffffffffffffffffff1681526020015f820160149054906101000a900461ffff1661ffff1661ffff1681526020015f820160169054906101000a900460ff16151515158152505081526020019060010190611b07565b5050505090505f5b8151811015611e3e575f60015f848481518110611be857611be76128a5565b5b60200260200101515f015173ffffffffffffffffffffffffffffffffffffffff1673ffffffffffffffffffffffffffffffffffffffff1681526020019081526020015f20805480602002602001604051908101604052809291908181526020018280548015611ca957602002820191905f5260205f20905b815f9054906101000a900473ffffffffffffffffffffffffffffffffffffffff1673ffffffffffffffffffffffffffffffffffffffff1681526020019060010190808311611c60575b505050505090505f815190505f5b81811015611e2e578573ffffffffffffffffffffffffffffffffffffffff16838281518110611ce957611ce86128a5565b5b602002602001015173ffffffffffffffffffffffffffffffffffffffff1603611e215782600183611d1a9190612eae565b81518110611d2b57611d2a6128a5565b5b6020026020010151838281518110611d4657611d456128a5565b5b602002602001019073ffffffffffffffffffffffffffffffffffffffff16908173ffffffffffffffffffffffffffffffffffffffff168152505060015f868681518110611d9657611d956128a5565b5b60200260200101515f015173ffffffffffffffffffffffffffffffffffffffff1673ffffffffffffffffffffffffffffffffffffffff1681526020019081526020015f20805480611dea57611de961319d565b5b600190038181905f5260205f20015f6101000a81549073ffffffffffffffffffffffffffffffffffffffff02191690559055611e2e565b8080600101915050611cb7565b5050508080600101915050611bc8565b505050565b5080545f8255905f5260205f2090810190611e5e9190611e61565b50565b5b80821115611ec0575f8082015f6101000a81549073ffffffffffffffffffffffffffffffffffffffff02191690555f820160146101000a81549061ffff02191690555f820160166101000a81549060ff021916905550600101611e62565b5090565b5f604051905090565b5f80fd5b5f80fd5b5f80fd5b5f80fd5b5f80fd5b5f8083601f840112611ef657611ef5611ed5565b5b8235905067ffffffffffffffff811115611f1357611f12611ed9565b5b602083019150836020820283011115611f2f57611f2e611edd565b5b9250929050565b5f8083601f840112611f4b57611f4a611ed5565b5b8235905067ffffffffffffffff811115611f6857611f67611ed9565b5b602083019150836020820283011115611f8457611f83611edd565b5b9250929050565b5f805f8060408587031215611fa357611fa2611ecd565b5b5f85013567ffffffffffffffff811115611fc057611fbf611ed1565b5b611fcc87828801611ee1565b9450945050602085013567ffffffffffffffff811115611fef57611fee611ed1565b5b611ffb87828801611f36565b925092505092959194509250565b5f73ffffffffffffffffffffffffffffffffffffffff82169050919050565b5f61203282612009565b9050919050565b61204281612028565b811461204c575f80fd5b50565b5f8135905061205d81612039565b92915050565b5f6020828403121561207857612077611ecd565b5b5f6120858482850161204f565b91505092915050565b5f819050919050565b6120a08161208e565b81146120aa575f80fd5b50565b5f813590506120bb81612097565b92915050565b5f80604083850312156120d7576120d6611ecd565b5b5f6120e48582860161204f565b92505060206120f5858286016120ad565b9150509250929050565b61210881612028565b82525050565b5f6020820190506121215f8301846120ff565b92915050565b5f6020828403121561213c5761213b611ecd565b5b5f612149848285016120ad565b91505092915050565b5f8115159050919050565b61216681612152565b82525050565b5f6fffffffffffffffffffffffffffffffff82169050919050565b6121908161216c565b82525050565b61219f8161208e565b82525050565b5f6060820190506121b85f83018661215d565b6121c56020830185612187565b6121d26040830184612196565b949350505050565b5f81519050919050565b5f82825260208201905092915050565b5f819050602082019050919050565b61220c81612028565b82525050565b5f61221d8383612203565b60208301905092915050565b5f602082019050919050565b5f61223f826121da565b61224981856121e4565b9350612254836121f4565b805f5b8381101561228457815161226b8882612212565b975061227683612229565b925050600181019050612257565b5085935050505092915050565b5f81519050919050565b5f82825260208201905092915050565b5f819050602082019050919050565b5f61ffff82169050919050565b6122d0816122ba565b82525050565b5f6122e183836122c7565b60208301905092915050565b5f602082019050919050565b5f61230382612291565b61230d818561229b565b9350612318836122ab565b805f5b8381101561234857815161232f88826122d6565b975061233a836122ed565b92505060018101905061231b565b5085935050505092915050565b5f81519050919050565b5f82825260208201905092915050565b5f819050602082019050919050565b61238781612152565b82525050565b5f612398838361237e565b60208301905092915050565b5f602082019050919050565b5f6123ba82612355565b6123c4818561235f565b93506123cf8361236f565b805f5b838110156123ff5781516123e6888261238d565b97506123f1836123a4565b9250506001810190506123d2565b5085935050505092915050565b5f60a0820190508181035f8301526124248188612235565b9050818103602083015261243881876122f9565b9050818103604083015261244c81866123b0565b905061245b6060830185612187565b6124686080830184612196565b9695505050505050565b5f6020820190508181035f83015261248a8184612235565b905092915050565b5f601f19601f8301169050919050565b7f4e487b71000000000000000000000000000000000000000000000000000000005f52604160045260245ffd5b6124d882612492565b810181811067ffffffffffffffff821117156124f7576124f66124a2565b5b80604052505050565b5f612509611ec4565b905061251582826124cf565b919050565b5f67ffffffffffffffff821115612534576125336124a2565b5b602082029050602081019050919050565b5f6125576125528461251a565b612500565b9050808382526020820190506020840283018581111561257a57612579611edd565b5b835b818110156125a3578061258f888261204f565b84526020840193505060208101905061257c565b5050509392505050565b5f82601f8301126125c1576125c0611ed5565b5b81356125d1848260208601612545565b91505092915050565b5f67ffffffffffffffff8211156125f4576125f36124a2565b5b602082029050602081019050919050565b61260e816122ba565b8114612618575f80fd5b50565b5f8135905061262981612605565b92915050565b5f61264161263c846125da565b612500565b9050808382526020820190506020840283018581111561266457612663611edd565b5b835b8181101561268d5780612679888261261b565b845260208401935050602081019050612666565b5050509392505050565b5f82601f8301126126ab576126aa611ed5565b5b81356126bb84826020860161262f565b91505092915050565b5f80604083850312156126da576126d9611ecd565b5b5f83013567ffffffffffffffff8111156126f7576126f6611ed1565b5b612703858286016125ad565b925050602083013567ffffffffffffffff81111561272457612723611ed1565b5b61273085828601612697565b9150509250929050565b5f60208201905061274d5f83018461215d565b92915050565b5f82825260208201905092915050565b7f637265617465496e6865726974616e636528292c2061646963696f6e65206f735f8201527f20686572646569726f7300000000000000000000000000000000000000000000602082015250565b5f6127bd602a83612753565b91506127c882612763565b604082019050919050565b5f6020820190508181035f8301526127ea816127b1565b9050919050565b7f637265617465496e6865726974616e636528292c207175616e746964616465205f8201527f646520656e64657265636f73206520706f7263656e746167656e73206469666560208201527f72656e7465730000000000000000000000000000000000000000000000000000604082015250565b5f612871604683612753565b915061287c826127f1565b606082019050919050565b5f6020820190508181035f83015261289e81612865565b9050919050565b7f4e487b71000000000000000000000000000000000000000000000000000000005f52603260045260245ffd5b5f602082840312156128e7576128e6611ecd565b5b5f6128f48482850161261b565b91505092915050565b7f766f6365206e616f20706f737375692074657374616d656e746f2063726961645f8201527f6f00000000000000000000000000000000000000000000000000000000000000602082015250565b5f612957602183612753565b9150612962826128fd565b604082019050919050565b5f6020820190508181035f8301526129848161294b565b9050919050565b7f696e7369726120756d2076616c6f7200000000000000000000000000000000005f82015250565b5f6129bf600f83612753565b91506129ca8261298b565b602082019050919050565b5f6020820190508181035f8301526129ec816129b3565b9050919050565b7f4e487b71000000000000000000000000000000000000000000000000000000005f52601160045260245ffd5b5f612a2a8261208e565b9150612a358361208e565b9250828201905080821115612a4d57612a4c6129f3565b5b92915050565b7f766f6365206e616f20706f737375692074657374616d656e746f0000000000005f82015250565b5f612a87601a83612753565b9150612a9282612a53565b602082019050919050565b5f6020820190508181035f830152612ab481612a7b565b9050919050565b5f81905092915050565b50565b5f612ad35f83612abb565b9150612ade82612ac5565b5f82019050919050565b5f612af282612ac8565b9150819050919050565b7f63616e63656c54657374616d656e7428292c2046616c686120616f20656e76695f8201527f6172204554480000000000000000000000000000000000000000000000000000602082015250565b5f612b56602683612753565b9150612b6182612afc565b604082019050919050565b5f6020820190508181035f830152612b8381612b4a565b9050919050565b7f41207265746972616461206e616f20706f646520736572207265616c697a61645f8201527f6100000000000000000000000000000000000000000000000000000000000000602082015250565b5f612be4602183612753565b9150612bef82612b8a565b604082019050919050565b5f6020820190508181035f830152612c1181612bd8565b9050919050565b7f6e616f2074656d20686572646569726f730000000000000000000000000000005f82015250565b5f612c4c601183612753565b9150612c5782612c18565b602082019050919050565b5f6020820190508181035f830152612c7981612c40565b9050919050565b7f74657374616d656e746f2065207175656d20746120726f64616e646f206120665f8201527f756e63616f2064652073617175652073616f206469666572656e746573000000602082015250565b5f612cda603d83612753565b9150612ce582612c80565b604082019050919050565b5f6020820190508181035f830152612d0781612cce565b9050919050565b7f6e616f20706f64652073616361720000000000000000000000000000000000005f82015250565b5f612d42600e83612753565b9150612d4d82612d0e565b602082019050919050565b5f6020820190508181035f830152612d6f81612d36565b9050919050565b7f46616c686120616f20656e7669617220455448000000000000000000000000005f82015250565b5f612daa601383612753565b9150612db582612d76565b602082019050919050565b5f6020820190508181035f830152612dd781612d9e565b9050919050565b7f766f6365206e616f2074656d206973736f207475646f206169000000000000005f82015250565b5f612e12601983612753565b9150612e1d82612dde565b602082019050919050565b5f6020820190508181035f830152612e3f81612e06565b9050919050565b7f6e616f207469726f7500000000000000000000000000000000000000000000005f82015250565b5f612e7a600983612753565b9150612e8582612e46565b602082019050919050565b5f6020820190508181035f830152612ea781612e6e565b9050919050565b5f612eb88261208e565b9150612ec38361208e565b9250828203905081811115612edb57612eda6129f3565b5b92915050565b7f5465737461646f72206e616f20656e636f6e747261646f0000000000000000005f82015250565b5f612f15601783612753565b9150612f2082612ee1565b602082019050919050565b5f6020820190508181035f830152612f4281612f09565b9050919050565b5f67ffffffffffffffff82169050919050565b5f612f6682612f49565b915067ffffffffffffffff8203612f8057612f7f6129f3565b5b600182019050919050565b7f566f6365206e616f20706f73737569206e656e68756d2074657374616d656e745f8201527f6f2063726961646f000000000000000000000000000000000000000000000000602082015250565b5f612fe5602883612753565b9150612ff082612f8b565b604082019050919050565b5f6020820190508181035f83015261301281612fd9565b9050919050565b7f637265617465496e6865726974616e636528292c2076616c6f7220696e76616c5f8201527f69646f0000000000000000000000000000000000000000000000000000000000602082015250565b5f613073602383612753565b915061307e82613019565b604082019050919050565b5f6020820190508181035f8301526130a081613067565b9050919050565b7f637265617465496e6865726974616e636528292c20766f6365206a612074656d5f8201527f20756d2074657374616d656e746f2063726961646f2c20656469746520656c65602082015250565b5f613101604083612753565b915061310c826130a7565b604082019050919050565b5f6020820190508181035f83015261312e816130f5565b9050919050565b7f54657374616d656e746f206e616f20656e636f6e747261646f000000000000005f82015250565b5f613169601983612753565b915061317482613135565b602082019050919050565b5f6020820190508181035f8301526131968161315d565b9050919050565b7f4e487b71000000000000000000000000000000000000000000000000000000005f52603160045260245ffdfea2646970667358221220b3a84ad9166ea6d3e01d31732c86acfa827eb3d2532b2d53a5a7c2edc0edc36464736f6c634300081a0033",
					"opcodes": "PUSH1 0x80 PUSH1 0x40 MSTORE CALLVALUE DUP1 ISZERO PUSH1 0xE JUMPI PUSH0 DUP1 REVERT JUMPDEST POP PUSH2 0x3200 DUP1 PUSH2 0x1C PUSH0 CODECOPY PUSH0 RETURN INVALID PUSH1 0x80 PUSH1 0x40 MSTORE PUSH1 0x4 CALLDATASIZE LT PUSH2 0xA6 JUMPI PUSH0 CALLDATALOAD PUSH1 0xE0 SHR DUP1 PUSH4 0x7618D0A7 GT PUSH2 0x63 JUMPI DUP1 PUSH4 0x7618D0A7 EQ PUSH2 0x17E JUMPI DUP1 PUSH4 0xC6064610 EQ PUSH2 0x1BC JUMPI DUP1 PUSH4 0xC80CC411 EQ PUSH2 0x1FC JUMPI DUP1 PUSH4 0xCA7252EA EQ PUSH2 0x212 JUMPI DUP1 PUSH4 0xE7A84BC3 EQ PUSH2 0x23C JUMPI DUP1 PUSH4 0xF3550B9B EQ PUSH2 0x258 JUMPI PUSH2 0xA6 JUMP JUMPDEST DUP1 PUSH4 0xBBD5839 EQ PUSH2 0xAA JUMPI DUP1 PUSH4 0xD78946E EQ PUSH2 0xD2 JUMPI DUP1 PUSH4 0x1ABA6DA6 EQ PUSH2 0xDC JUMPI DUP1 PUSH4 0x51CFF8D9 EQ PUSH2 0xF2 JUMPI DUP1 PUSH4 0x5B084DB9 EQ PUSH2 0x11A JUMPI DUP1 PUSH4 0x5BD36E29 EQ PUSH2 0x156 JUMPI JUMPDEST PUSH0 DUP1 REVERT JUMPDEST CALLVALUE DUP1 ISZERO PUSH2 0xB5 JUMPI PUSH0 DUP1 REVERT JUMPDEST POP PUSH2 0xD0 PUSH1 0x4 DUP1 CALLDATASIZE SUB DUP2 ADD SWAP1 PUSH2 0xCB SWAP2 SWAP1 PUSH2 0x1F8B JUMP JUMPDEST PUSH2 0x294 JUMP JUMPDEST STOP JUMPDEST PUSH2 0xDA PUSH2 0x5CD JUMP JUMPDEST STOP JUMPDEST CALLVALUE DUP1 ISZERO PUSH2 0xE7 JUMPI PUSH0 DUP1 REVERT JUMPDEST POP PUSH2 0xF0 PUSH2 0x6F8 JUMP JUMPDEST STOP JUMPDEST CALLVALUE DUP1 ISZERO PUSH2 0xFD JUMPI PUSH0 DUP1 REVERT JUMPDEST POP PUSH2 0x118 PUSH1 0x4 DUP1 CALLDATASIZE SUB DUP2 ADD SWAP1 PUSH2 0x113 SWAP2 SWAP1 PUSH2 0x2063 JUMP JUMPDEST PUSH2 0x905 JUMP JUMPDEST STOP JUMPDEST CALLVALUE DUP1 ISZERO PUSH2 0x125 JUMPI PUSH0 DUP1 REVERT JUMPDEST POP PUSH2 0x140 PUSH1 0x4 DUP1 CALLDATASIZE SUB DUP2 ADD SWAP1 PUSH2 0x13B SWAP2 SWAP1 PUSH2 0x20C1 JUMP JUMPDEST PUSH2 0xCD5 JUMP JUMPDEST PUSH1 0x40 MLOAD PUSH2 0x14D SWAP2 SWAP1 PUSH2 0x210E JUMP JUMPDEST PUSH1 0x40 MLOAD DUP1 SWAP2 SUB SWAP1 RETURN JUMPDEST CALLVALUE DUP1 ISZERO PUSH2 0x161 JUMPI PUSH0 DUP1 REVERT JUMPDEST POP PUSH2 0x17C PUSH1 0x4 DUP1 CALLDATASIZE SUB DUP2 ADD SWAP1 PUSH2 0x177 SWAP2 SWAP1 PUSH2 0x2127 JUMP JUMPDEST PUSH2 0xD1D JUMP JUMPDEST STOP JUMPDEST CALLVALUE DUP1 ISZERO PUSH2 0x189 JUMPI PUSH0 DUP1 REVERT JUMPDEST POP PUSH2 0x1A4 PUSH1 0x4 DUP1 CALLDATASIZE SUB DUP2 ADD SWAP1 PUSH2 0x19F SWAP2 SWAP1 PUSH2 0x2063 JUMP JUMPDEST PUSH2 0xF32 JUMP JUMPDEST PUSH1 0x40 MLOAD PUSH2 0x1B3 SWAP4 SWAP3 SWAP2 SWAP1 PUSH2 0x21A5 JUMP JUMPDEST PUSH1 0x40 MLOAD DUP1 SWAP2 SUB SWAP1 RETURN JUMPDEST CALLVALUE DUP1 ISZERO PUSH2 0x1C7 JUMPI PUSH0 DUP1 REVERT JUMPDEST POP PUSH2 0x1E2 PUSH1 0x4 DUP1 CALLDATASIZE SUB DUP2 ADD SWAP1 PUSH2 0x1DD SWAP2 SWAP1 PUSH2 0x2063 JUMP JUMPDEST PUSH2 0xF80 JUMP JUMPDEST PUSH1 0x40 MLOAD PUSH2 0x1F3 SWAP6 SWAP5 SWAP4 SWAP3 SWAP2 SWAP1 PUSH2 0x240C JUMP JUMPDEST PUSH1 0x40 MLOAD DUP1 SWAP2 SUB SWAP1 RETURN JUMPDEST CALLVALUE DUP1 ISZERO PUSH2 0x207 JUMPI PUSH0 DUP1 REVERT JUMPDEST POP PUSH2 0x210 PUSH2 0x139A JUMP JUMPDEST STOP JUMPDEST CALLVALUE DUP1 ISZERO PUSH2 0x21D JUMPI PUSH0 DUP1 REVERT JUMPDEST POP PUSH2 0x226 PUSH2 0x14A2 JUMP JUMPDEST PUSH1 0x40 MLOAD PUSH2 0x233 SWAP2 SWAP1 PUSH2 0x2472 JUMP JUMPDEST PUSH1 0x40 MLOAD DUP1 SWAP2 SUB SWAP1 RETURN JUMPDEST PUSH2 0x256 PUSH1 0x4 DUP1 CALLDATASIZE SUB DUP2 ADD SWAP1 PUSH2 0x251 SWAP2 SWAP1 PUSH2 0x26C4 JUMP JUMPDEST PUSH2 0x156D JUMP JUMPDEST STOP JUMPDEST CALLVALUE DUP1 ISZERO PUSH2 0x263 JUMPI PUSH0 DUP1 REVERT JUMPDEST POP PUSH2 0x27E PUSH1 0x4 DUP1 CALLDATASIZE SUB DUP2 ADD SWAP1 PUSH2 0x279 SWAP2 SWAP1 PUSH2 0x2063 JUMP JUMPDEST PUSH2 0x1994 JUMP JUMPDEST PUSH1 0x40 MLOAD PUSH2 0x28B SWAP2 SWAP1 PUSH2 0x273A JUMP JUMPDEST PUSH1 0x40 MLOAD DUP1 SWAP2 SUB SWAP1 RETURN JUMPDEST PUSH0 CALLER SWAP1 POP PUSH0 DUP6 DUP6 SWAP1 POP SUB PUSH2 0x2DD JUMPI PUSH1 0x40 MLOAD PUSH32 0x8C379A000000000000000000000000000000000000000000000000000000000 DUP2 MSTORE PUSH1 0x4 ADD PUSH2 0x2D4 SWAP1 PUSH2 0x27D3 JUMP JUMPDEST PUSH1 0x40 MLOAD DUP1 SWAP2 SUB SWAP1 REVERT JUMPDEST DUP3 DUP3 SWAP1 POP DUP6 DUP6 SWAP1 POP EQ PUSH2 0x325 JUMPI PUSH1 0x40 MLOAD PUSH32 0x8C379A000000000000000000000000000000000000000000000000000000000 DUP2 MSTORE PUSH1 0x4 ADD PUSH2 0x31C SWAP1 PUSH2 0x2887 JUMP JUMPDEST PUSH1 0x40 MLOAD DUP1 SWAP2 SUB SWAP1 REVERT JUMPDEST PUSH2 0x32E DUP2 PUSH2 0x1AA9 JUMP JUMPDEST PUSH0 DUP1 DUP3 PUSH20 0xFFFFFFFFFFFFFFFFFFFFFFFFFFFFFFFFFFFFFFFF AND PUSH20 0xFFFFFFFFFFFFFFFFFFFFFFFFFFFFFFFFFFFFFFFF AND DUP2 MSTORE PUSH1 0x20 ADD SWAP1 DUP2 MSTORE PUSH1 0x20 ADD PUSH0 KECCAK256 PUSH0 ADD PUSH0 PUSH2 0x377 SWAP2 SWAP1 PUSH2 0x1E43 JUMP JUMPDEST PUSH0 JUMPDEST DUP6 DUP6 SWAP1 POP DUP2 LT ISZERO PUSH2 0x5C5 JUMPI PUSH0 PUSH1 0x40 MLOAD DUP1 PUSH1 0x60 ADD PUSH1 0x40 MSTORE DUP1 DUP9 DUP9 DUP6 DUP2 DUP2 LT PUSH2 0x3A3 JUMPI PUSH2 0x3A2 PUSH2 0x28A5 JUMP JUMPDEST JUMPDEST SWAP1 POP PUSH1 0x20 MUL ADD PUSH1 0x20 DUP2 ADD SWAP1 PUSH2 0x3B8 SWAP2 SWAP1 PUSH2 0x2063 JUMP JUMPDEST PUSH20 0xFFFFFFFFFFFFFFFFFFFFFFFFFFFFFFFFFFFFFFFF AND DUP2 MSTORE PUSH1 0x20 ADD DUP7 DUP7 DUP6 DUP2 DUP2 LT PUSH2 0x3E6 JUMPI PUSH2 0x3E5 PUSH2 0x28A5 JUMP JUMPDEST JUMPDEST SWAP1 POP PUSH1 0x20 MUL ADD PUSH1 0x20 DUP2 ADD SWAP1 PUSH2 0x3FB SWAP2 SWAP1 PUSH2 0x28D2 JUMP JUMPDEST PUSH2 0xFFFF AND DUP2 MSTORE PUSH1 0x20 ADD PUSH1 0x1 ISZERO ISZERO DUP2 MSTORE POP SWAP1 POP PUSH0 DUP1 DUP5 PUSH20 0xFFFFFFFFFFFFFFFFFFFFFFFFFFFFFFFFFFFFFFFF AND PUSH20 0xFFFFFFFFFFFFFFFFFFFFFFFFFFFFFFFFFFFFFFFF AND DUP2 MSTORE PUSH1 0x20 ADD SWAP1 DUP2 MSTORE PUSH1 0x20 ADD PUSH0 KECCAK256 PUSH0 ADD DUP2 SWAP1 DUP1 PUSH1 0x1 DUP2 SLOAD ADD DUP1 DUP3 SSTORE DUP1 SWAP2 POP POP PUSH1 0x1 SWAP1 SUB SWAP1 PUSH0 MSTORE PUSH1 0x20 PUSH0 KECCAK256 ADD PUSH0 SWAP1 SWAP2 SWAP1 SWAP2 SWAP1 SWAP2 POP PUSH0 DUP3 ADD MLOAD DUP2 PUSH0 ADD PUSH0 PUSH2 0x100 EXP DUP2 SLOAD DUP2 PUSH20 0xFFFFFFFFFFFFFFFFFFFFFFFFFFFFFFFFFFFFFFFF MUL NOT AND SWAP1 DUP4 PUSH20 0xFFFFFFFFFFFFFFFFFFFFFFFFFFFFFFFFFFFFFFFF AND MUL OR SWAP1 SSTORE POP PUSH1 0x20 DUP3 ADD MLOAD DUP2 PUSH0 ADD PUSH1 0x14 PUSH2 0x100 EXP DUP2 SLOAD DUP2 PUSH2 0xFFFF MUL NOT AND SWAP1 DUP4 PUSH2 0xFFFF AND MUL OR SWAP1 SSTORE POP PUSH1 0x40 DUP3 ADD MLOAD DUP2 PUSH0 ADD PUSH1 0x16 PUSH2 0x100 EXP DUP2 SLOAD DUP2 PUSH1 0xFF MUL NOT AND SWAP1 DUP4 ISZERO ISZERO MUL OR SWAP1 SSTORE POP POP POP PUSH1 0x1 PUSH0 DUP9 DUP9 DUP6 DUP2 DUP2 LT PUSH2 0x50B JUMPI PUSH2 0x50A PUSH2 0x28A5 JUMP JUMPDEST JUMPDEST SWAP1 POP PUSH1 0x20 MUL ADD PUSH1 0x20 DUP2 ADD SWAP1 PUSH2 0x520 SWAP2 SWAP1 PUSH2 0x2063 JUMP JUMPDEST PUSH20 0xFFFFFFFFFFFFFFFFFFFFFFFFFFFFFFFFFFFFFFFF AND PUSH20 0xFFFFFFFFFFFFFFFFFFFFFFFFFFFFFFFFFFFFFFFF AND DUP2 MSTORE PUSH1 0x20 ADD SWAP1 DUP2 MSTORE PUSH1 0x20 ADD PUSH0 KECCAK256 DUP4 SWAP1 DUP1 PUSH1 0x1 DUP2 SLOAD ADD DUP1 DUP3 SSTORE DUP1 SWAP2 POP POP PUSH1 0x1 SWAP1 SUB SWAP1 PUSH0 MSTORE PUSH1 0x20 PUSH0 KECCAK256 ADD PUSH0 SWAP1 SWAP2 SWAP1 SWAP2 SWAP1 SWAP2 PUSH2 0x100 EXP DUP2 SLOAD DUP2 PUSH20 0xFFFFFFFFFFFFFFFFFFFFFFFFFFFFFFFFFFFFFFFF MUL NOT AND SWAP1 DUP4 PUSH20 0xFFFFFFFFFFFFFFFFFFFFFFFFFFFFFFFFFFFFFFFF AND MUL OR SWAP1 SSTORE POP POP DUP1 DUP1 PUSH1 0x1 ADD SWAP2 POP POP PUSH2 0x379 JUMP JUMPDEST POP POP POP POP POP POP JUMP JUMPDEST PUSH1 0x1 ISZERO ISZERO PUSH0 DUP1 CALLER PUSH20 0xFFFFFFFFFFFFFFFFFFFFFFFFFFFFFFFFFFFFFFFF AND PUSH20 0xFFFFFFFFFFFFFFFFFFFFFFFFFFFFFFFFFFFFFFFF AND DUP2 MSTORE PUSH1 0x20 ADD SWAP1 DUP2 MSTORE PUSH1 0x20 ADD PUSH0 KECCAK256 PUSH1 0x1 ADD PUSH0 SWAP1 SLOAD SWAP1 PUSH2 0x100 EXP SWAP1 DIV PUSH1 0xFF AND ISZERO ISZERO EQ PUSH2 0x65F JUMPI PUSH1 0x40 MLOAD PUSH32 0x8C379A000000000000000000000000000000000000000000000000000000000 DUP2 MSTORE PUSH1 0x4 ADD PUSH2 0x656 SWAP1 PUSH2 0x296D JUMP JUMPDEST PUSH1 0x40 MLOAD DUP1 SWAP2 SUB SWAP1 REVERT JUMPDEST PUSH0 CALLVALUE GT PUSH2 0x6A1 JUMPI PUSH1 0x40 MLOAD PUSH32 0x8C379A000000000000000000000000000000000000000000000000000000000 DUP2 MSTORE PUSH1 0x4 ADD PUSH2 0x698 SWAP1 PUSH2 0x29D5 JUMP JUMPDEST PUSH1 0x40 MLOAD DUP1 SWAP2 SUB SWAP1 REVERT JUMPDEST CALLVALUE PUSH0 DUP1 CALLER PUSH20 0xFFFFFFFFFFFFFFFFFFFFFFFFFFFFFFFFFFFFFFFF AND PUSH20 0xFFFFFFFFFFFFFFFFFFFFFFFFFFFFFFFFFFFFFFFF AND DUP2 MSTORE PUSH1 0x20 ADD SWAP1 DUP2 MSTORE PUSH1 0x20 ADD PUSH0 KECCAK256 PUSH1 0x2 ADD PUSH0 DUP3 DUP3 SLOAD PUSH2 0x6EF SWAP2 SWAP1 PUSH2 0x2A20 JUMP JUMPDEST SWAP3 POP POP DUP2 SWAP1 SSTORE POP JUMP JUMPDEST PUSH0 CALLER SWAP1 POP PUSH0 DUP1 DUP3 PUSH20 0xFFFFFFFFFFFFFFFFFFFFFFFFFFFFFFFFFFFFFFFF AND PUSH20 0xFFFFFFFFFFFFFFFFFFFFFFFFFFFFFFFFFFFFFFFF AND DUP2 MSTORE PUSH1 0x20 ADD SWAP1 DUP2 MSTORE PUSH1 0x20 ADD PUSH0 KECCAK256 PUSH1 0x1 ADD PUSH0 SWAP1 SLOAD SWAP1 PUSH2 0x100 EXP SWAP1 DIV PUSH1 0xFF AND PUSH2 0x787 JUMPI PUSH1 0x40 MLOAD PUSH32 0x8C379A000000000000000000000000000000000000000000000000000000000 DUP2 MSTORE PUSH1 0x4 ADD PUSH2 0x77E SWAP1 PUSH2 0x2A9D JUMP JUMPDEST PUSH1 0x40 MLOAD DUP1 SWAP2 SUB SWAP1 REVERT JUMPDEST PUSH0 CALLER PUSH20 0xFFFFFFFFFFFFFFFFFFFFFFFFFFFFFFFFFFFFFFFF AND PUSH0 DUP1 DUP5 PUSH20 0xFFFFFFFFFFFFFFFFFFFFFFFFFFFFFFFFFFFFFFFF AND PUSH20 0xFFFFFFFFFFFFFFFFFFFFFFFFFFFFFFFFFFFFFFFF AND DUP2 MSTORE PUSH1 0x20 ADD SWAP1 DUP2 MSTORE PUSH1 0x20 ADD PUSH0 KECCAK256 PUSH1 0x2 ADD SLOAD PUSH1 0x40 MLOAD PUSH2 0x7EB SWAP1 PUSH2 0x2AE8 JUMP JUMPDEST PUSH0 PUSH1 0x40 MLOAD DUP1 DUP4 SUB DUP2 DUP6 DUP8 GAS CALL SWAP3 POP POP POP RETURNDATASIZE DUP1 PUSH0 DUP2 EQ PUSH2 0x825 JUMPI PUSH1 0x40 MLOAD SWAP2 POP PUSH1 0x1F NOT PUSH1 0x3F RETURNDATASIZE ADD AND DUP3 ADD PUSH1 0x40 MSTORE RETURNDATASIZE DUP3 MSTORE RETURNDATASIZE PUSH0 PUSH1 0x20 DUP5 ADD RETURNDATACOPY PUSH2 0x82A JUMP JUMPDEST PUSH1 0x60 SWAP2 POP JUMPDEST POP POP SWAP1 POP DUP1 PUSH2 0x86E JUMPI PUSH1 0x40 MLOAD PUSH32 0x8C379A000000000000000000000000000000000000000000000000000000000 DUP2 MSTORE PUSH1 0x4 ADD PUSH2 0x865 SWAP1 PUSH2 0x2B6C JUMP JUMPDEST PUSH1 0x40 MLOAD DUP1 SWAP2 SUB SWAP1 REVERT JUMPDEST PUSH2 0x877 DUP3 PUSH2 0x1AA9 JUMP JUMPDEST PUSH0 DUP1 DUP4 PUSH20 0xFFFFFFFFFFFFFFFFFFFFFFFFFFFFFFFFFFFFFFFF AND PUSH20 0xFFFFFFFFFFFFFFFFFFFFFFFFFFFFFFFFFFFFFFFF AND DUP2 MSTORE PUSH1 0x20 ADD SWAP1 DUP2 MSTORE PUSH1 0x20 ADD PUSH0 KECCAK256 PUSH0 DUP1 DUP3 ADD PUSH0 PUSH2 0x8C2 SWAP2 SWAP1 PUSH2 0x1E43 JUMP JUMPDEST PUSH1 0x1 DUP3 ADD PUSH0 PUSH2 0x100 EXP DUP2 SLOAD SWAP1 PUSH1 0xFF MUL NOT AND SWAP1 SSTORE PUSH1 0x1 DUP3 ADD PUSH1 0x1 PUSH2 0x100 EXP DUP2 SLOAD SWAP1 PUSH16 0xFFFFFFFFFFFFFFFFFFFFFFFFFFFFFFFF MUL NOT AND SWAP1 SSTORE PUSH1 0x2 DUP3 ADD PUSH0 SWAP1 SSTORE POP POP POP POP JUMP JUMPDEST PUSH0 CALLER SWAP1 POP PUSH2 0x912 DUP3 PUSH2 0x1994 JUMP JUMPDEST PUSH2 0x951 JUMPI PUSH1 0x40 MLOAD PUSH32 0x8C379A000000000000000000000000000000000000000000000000000000000 DUP2 MSTORE PUSH1 0x4 ADD PUSH2 0x948 SWAP1 PUSH2 0x2BFA JUMP JUMPDEST PUSH1 0x40 MLOAD DUP1 SWAP2 SUB SWAP1 REVERT JUMPDEST PUSH0 DUP1 PUSH0 DUP5 PUSH20 0xFFFFFFFFFFFFFFFFFFFFFFFFFFFFFFFFFFFFFFFF AND PUSH20 0xFFFFFFFFFFFFFFFFFFFFFFFFFFFFFFFFFFFFFFFF AND DUP2 MSTORE PUSH1 0x20 ADD SWAP1 DUP2 MSTORE PUSH1 0x20 ADD PUSH0 KECCAK256 PUSH0 ADD DUP1 SLOAD SWAP1 POP GT PUSH2 0x9D4 JUMPI PUSH1 0x40 MLOAD PUSH32 0x8C379A000000000000000000000000000000000000000000000000000000000 DUP2 MSTORE PUSH1 0x4 ADD PUSH2 0x9CB SWAP1 PUSH2 0x2C62 JUMP JUMPDEST PUSH1 0x40 MLOAD DUP1 SWAP2 SUB SWAP1 REVERT JUMPDEST PUSH0 JUMPDEST PUSH0 DUP1 DUP5 PUSH20 0xFFFFFFFFFFFFFFFFFFFFFFFFFFFFFFFFFFFFFFFF AND PUSH20 0xFFFFFFFFFFFFFFFFFFFFFFFFFFFFFFFFFFFFFFFF AND DUP2 MSTORE PUSH1 0x20 ADD SWAP1 DUP2 MSTORE PUSH1 0x20 ADD PUSH0 KECCAK256 PUSH0 ADD DUP1 SLOAD SWAP1 POP DUP2 LT ISZERO PUSH2 0xCD0 JUMPI PUSH0 DUP1 PUSH0 DUP6 PUSH20 0xFFFFFFFFFFFFFFFFFFFFFFFFFFFFFFFFFFFFFFFF AND PUSH20 0xFFFFFFFFFFFFFFFFFFFFFFFFFFFFFFFFFFFFFFFF AND DUP2 MSTORE PUSH1 0x20 ADD SWAP1 DUP2 MSTORE PUSH1 0x20 ADD PUSH0 KECCAK256 PUSH0 ADD DUP3 DUP2 SLOAD DUP2 LT PUSH2 0xA70 JUMPI PUSH2 0xA6F PUSH2 0x28A5 JUMP JUMPDEST JUMPDEST SWAP1 PUSH0 MSTORE PUSH1 0x20 PUSH0 KECCAK256 ADD PUSH1 0x40 MLOAD DUP1 PUSH1 0x60 ADD PUSH1 0x40 MSTORE SWAP1 DUP2 PUSH0 DUP3 ADD PUSH0 SWAP1 SLOAD SWAP1 PUSH2 0x100 EXP SWAP1 DIV PUSH20 0xFFFFFFFFFFFFFFFFFFFFFFFFFFFFFFFFFFFFFFFF AND PUSH20 0xFFFFFFFFFFFFFFFFFFFFFFFFFFFFFFFFFFFFFFFF AND PUSH20 0xFFFFFFFFFFFFFFFFFFFFFFFFFFFFFFFFFFFFFFFF AND DUP2 MSTORE PUSH1 0x20 ADD PUSH0 DUP3 ADD PUSH1 0x14 SWAP1 SLOAD SWAP1 PUSH2 0x100 EXP SWAP1 DIV PUSH2 0xFFFF AND PUSH2 0xFFFF AND PUSH2 0xFFFF AND DUP2 MSTORE PUSH1 0x20 ADD PUSH0 DUP3 ADD PUSH1 0x16 SWAP1 SLOAD SWAP1 PUSH2 0x100 EXP SWAP1 DIV PUSH1 0xFF AND ISZERO ISZERO ISZERO ISZERO DUP2 MSTORE POP POP SWAP1 POP DUP3 PUSH20 0xFFFFFFFFFFFFFFFFFFFFFFFFFFFFFFFFFFFFFFFF AND DUP2 PUSH0 ADD MLOAD PUSH20 0xFFFFFFFFFFFFFFFFFFFFFFFFFFFFFFFFFFFFFFFF AND EQ PUSH2 0xB83 JUMPI PUSH1 0x40 MLOAD PUSH32 0x8C379A000000000000000000000000000000000000000000000000000000000 DUP2 MSTORE PUSH1 0x4 ADD PUSH2 0xB7A SWAP1 PUSH2 0x2CF0 JUMP JUMPDEST PUSH1 0x40 MLOAD DUP1 SWAP2 SUB SWAP1 REVERT JUMPDEST DUP1 PUSH1 0x40 ADD MLOAD PUSH2 0xBC7 JUMPI PUSH1 0x40 MLOAD PUSH32 0x8C379A000000000000000000000000000000000000000000000000000000000 DUP2 MSTORE PUSH1 0x4 ADD PUSH2 0xBBE SWAP1 PUSH2 0x2D58 JUMP JUMPDEST PUSH1 0x40 MLOAD DUP1 SWAP2 SUB SWAP1 REVERT JUMPDEST PUSH0 DUP2 PUSH0 ADD MLOAD PUSH20 0xFFFFFFFFFFFFFFFFFFFFFFFFFFFFFFFFFFFFFFFF AND PUSH0 DUP1 DUP7 PUSH20 0xFFFFFFFFFFFFFFFFFFFFFFFFFFFFFFFFFFFFFFFF AND PUSH20 0xFFFFFFFFFFFFFFFFFFFFFFFFFFFFFFFFFFFFFFFF AND DUP2 MSTORE PUSH1 0x20 ADD SWAP1 DUP2 MSTORE PUSH1 0x20 ADD PUSH0 KECCAK256 PUSH1 0x2 ADD SLOAD PUSH1 0x40 MLOAD PUSH2 0xC2E SWAP1 PUSH2 0x2AE8 JUMP JUMPDEST PUSH0 PUSH1 0x40 MLOAD DUP1 DUP4 SUB DUP2 DUP6 DUP8 GAS CALL SWAP3 POP POP POP RETURNDATASIZE DUP1 PUSH0 DUP2 EQ PUSH2 0xC68 JUMPI PUSH1 0x40 MLOAD SWAP2 POP PUSH1 0x1F NOT PUSH1 0x3F RETURNDATASIZE ADD AND DUP3 ADD PUSH1 0x40 MSTORE RETURNDATASIZE DUP3 MSTORE RETURNDATASIZE PUSH0 PUSH1 0x20 DUP5 ADD RETURNDATACOPY PUSH2 0xC6D JUMP JUMPDEST PUSH1 0x60 SWAP2 POP JUMPDEST POP POP SWAP1 POP DUP1 PUSH2 0xCB1 JUMPI PUSH1 0x40 MLOAD PUSH32 0x8C379A000000000000000000000000000000000000000000000000000000000 DUP2 MSTORE PUSH1 0x4 ADD PUSH2 0xCA8 SWAP1 PUSH2 0x2DC0 JUMP JUMPDEST PUSH1 0x40 MLOAD DUP1 SWAP2 SUB SWAP1 REVERT JUMPDEST PUSH0 DUP3 PUSH1 0x40 ADD SWAP1 ISZERO ISZERO SWAP1 DUP2 ISZERO ISZERO DUP2 MSTORE POP POP POP POP DUP1 DUP1 PUSH1 0x1 ADD SWAP2 POP POP PUSH2 0x9D6 JUMP JUMPDEST POP POP POP JUMP JUMPDEST PUSH1 0x1 PUSH1 0x20 MSTORE DUP2 PUSH0 MSTORE PUSH1 0x40 PUSH0 KECCAK256 DUP2 DUP2 SLOAD DUP2 LT PUSH2 0xCEE JUMPI PUSH0 DUP1 REVERT JUMPDEST SWAP1 PUSH0 MSTORE PUSH1 0x20 PUSH0 KECCAK256 ADD PUSH0 SWAP2 POP SWAP2 POP SWAP1 SLOAD SWAP1 PUSH2 0x100 EXP SWAP1 DIV PUSH20 0xFFFFFFFFFFFFFFFFFFFFFFFFFFFFFFFFFFFFFFFF AND DUP2 JUMP JUMPDEST PUSH1 0x1 ISZERO ISZERO PUSH0 DUP1 CALLER PUSH20 0xFFFFFFFFFFFFFFFFFFFFFFFFFFFFFFFFFFFFFFFF AND PUSH20 0xFFFFFFFFFFFFFFFFFFFFFFFFFFFFFFFFFFFFFFFF AND DUP2 MSTORE PUSH1 0x20 ADD SWAP1 DUP2 MSTORE PUSH1 0x20 ADD PUSH0 KECCAK256 PUSH1 0x1 ADD PUSH0 SWAP1 SLOAD SWAP1 PUSH2 0x100 EXP SWAP1 DIV PUSH1 0xFF AND ISZERO ISZERO EQ PUSH2 0xDAF JUMPI PUSH1 0x40 MLOAD PUSH32 0x8C379A000000000000000000000000000000000000000000000000000000000 DUP2 MSTORE PUSH1 0x4 ADD PUSH2 0xDA6 SWAP1 PUSH2 0x296D JUMP JUMPDEST PUSH1 0x40 MLOAD DUP1 SWAP2 SUB SWAP1 REVERT JUMPDEST PUSH0 DUP1 CALLER PUSH20 0xFFFFFFFFFFFFFFFFFFFFFFFFFFFFFFFFFFFFFFFF AND PUSH20 0xFFFFFFFFFFFFFFFFFFFFFFFFFFFFFFFFFFFFFFFF AND DUP2 MSTORE PUSH1 0x20 ADD SWAP1 DUP2 MSTORE PUSH1 0x20 ADD PUSH0 KECCAK256 PUSH1 0x2 ADD SLOAD DUP2 GT ISZERO PUSH2 0xE31 JUMPI PUSH1 0x40 MLOAD PUSH32 0x8C379A000000000000000000000000000000000000000000000000000000000 DUP2 MSTORE PUSH1 0x4 ADD PUSH2 0xE28 SWAP1 PUSH2 0x2E28 JUMP JUMPDEST PUSH1 0x40 MLOAD DUP1 SWAP2 SUB SWAP1 REVERT JUMPDEST PUSH0 CALLER PUSH20 0xFFFFFFFFFFFFFFFFFFFFFFFFFFFFFFFFFFFFFFFF AND DUP3 PUSH1 0x40 MLOAD PUSH2 0xE56 SWAP1 PUSH2 0x2AE8 JUMP JUMPDEST PUSH0 PUSH1 0x40 MLOAD DUP1 DUP4 SUB DUP2 DUP6 DUP8 GAS CALL SWAP3 POP POP POP RETURNDATASIZE DUP1 PUSH0 DUP2 EQ PUSH2 0xE90 JUMPI PUSH1 0x40 MLOAD SWAP2 POP PUSH1 0x1F NOT PUSH1 0x3F RETURNDATASIZE ADD AND DUP3 ADD PUSH1 0x40 MSTORE RETURNDATASIZE DUP3 MSTORE RETURNDATASIZE PUSH0 PUSH1 0x20 DUP5 ADD RETURNDATACOPY PUSH2 0xE95 JUMP JUMPDEST PUSH1 0x60 SWAP2 POP JUMPDEST POP POP SWAP1 POP DUP1 PUSH2 0xED9 JUMPI PUSH1 0x40 MLOAD PUSH32 0x8C379A000000000000000000000000000000000000000000000000000000000 DUP2 MSTORE PUSH1 0x4 ADD PUSH2 0xED0 SWAP1 PUSH2 0x2E90 JUMP JUMPDEST PUSH1 0x40 MLOAD DUP1 SWAP2 SUB SWAP1 REVERT JUMPDEST DUP2 PUSH0 DUP1 CALLER PUSH20 0xFFFFFFFFFFFFFFFFFFFFFFFFFFFFFFFFFFFFFFFF AND PUSH20 0xFFFFFFFFFFFFFFFFFFFFFFFFFFFFFFFFFFFFFFFF AND DUP2 MSTORE PUSH1 0x20 ADD SWAP1 DUP2 MSTORE PUSH1 0x20 ADD PUSH0 KECCAK256 PUSH1 0x2 ADD PUSH0 DUP3 DUP3 SLOAD PUSH2 0xF27 SWAP2 SWAP1 PUSH2 0x2EAE JUMP JUMPDEST SWAP3 POP POP DUP2 SWAP1 SSTORE POP POP POP JUMP JUMPDEST PUSH0 PUSH1 0x20 MSTORE DUP1 PUSH0 MSTORE PUSH1 0x40 PUSH0 KECCAK256 PUSH0 SWAP2 POP SWAP1 POP DUP1 PUSH1 0x1 ADD PUSH0 SWAP1 SLOAD SWAP1 PUSH2 0x100 EXP SWAP1 DIV PUSH1 0xFF AND SWAP1 DUP1 PUSH1 0x1 ADD PUSH1 0x1 SWAP1 SLOAD SWAP1 PUSH2 0x100 EXP SWAP1 DIV PUSH16 0xFFFFFFFFFFFFFFFFFFFFFFFFFFFFFFFF AND SWAP1 DUP1 PUSH1 0x2 ADD SLOAD SWAP1 POP DUP4 JUMP JUMPDEST PUSH1 0x60 DUP1 PUSH1 0x60 PUSH0 DUP1 PUSH0 DUP1 PUSH0 DUP9 PUSH20 0xFFFFFFFFFFFFFFFFFFFFFFFFFFFFFFFFFFFFFFFF AND PUSH20 0xFFFFFFFFFFFFFFFFFFFFFFFFFFFFFFFFFFFFFFFF AND DUP2 MSTORE PUSH1 0x20 ADD SWAP1 DUP2 MSTORE PUSH1 0x20 ADD PUSH0 KECCAK256 PUSH1 0x40 MLOAD DUP1 PUSH1 0x80 ADD PUSH1 0x40 MSTORE SWAP1 DUP2 PUSH0 DUP3 ADD DUP1 SLOAD DUP1 PUSH1 0x20 MUL PUSH1 0x20 ADD PUSH1 0x40 MLOAD SWAP1 DUP2 ADD PUSH1 0x40 MSTORE DUP1 SWAP3 SWAP2 SWAP1 DUP2 DUP2 MSTORE PUSH1 0x20 ADD PUSH0 SWAP1 JUMPDEST DUP3 DUP3 LT ISZERO PUSH2 0x10AB JUMPI DUP4 DUP3 SWAP1 PUSH0 MSTORE PUSH1 0x20 PUSH0 KECCAK256 ADD PUSH1 0x40 MLOAD DUP1 PUSH1 0x60 ADD PUSH1 0x40 MSTORE SWAP1 DUP2 PUSH0 DUP3 ADD PUSH0 SWAP1 SLOAD SWAP1 PUSH2 0x100 EXP SWAP1 DIV PUSH20 0xFFFFFFFFFFFFFFFFFFFFFFFFFFFFFFFFFFFFFFFF AND PUSH20 0xFFFFFFFFFFFFFFFFFFFFFFFFFFFFFFFFFFFFFFFF AND PUSH20 0xFFFFFFFFFFFFFFFFFFFFFFFFFFFFFFFFFFFFFFFF AND DUP2 MSTORE PUSH1 0x20 ADD PUSH0 DUP3 ADD PUSH1 0x14 SWAP1 SLOAD SWAP1 PUSH2 0x100 EXP SWAP1 DIV PUSH2 0xFFFF AND PUSH2 0xFFFF AND PUSH2 0xFFFF AND DUP2 MSTORE PUSH1 0x20 ADD PUSH0 DUP3 ADD PUSH1 0x16 SWAP1 SLOAD SWAP1 PUSH2 0x100 EXP SWAP1 DIV PUSH1 0xFF AND ISZERO ISZERO ISZERO ISZERO DUP2 MSTORE POP POP DUP2 MSTORE PUSH1 0x20 ADD SWAP1 PUSH1 0x1 ADD SWAP1 PUSH2 0xFF2 JUMP JUMPDEST POP POP POP POP DUP2 MSTORE PUSH1 0x20 ADD PUSH1 0x1 DUP3 ADD PUSH0 SWAP1 SLOAD SWAP1 PUSH2 0x100 EXP SWAP1 DIV PUSH1 0xFF AND ISZERO ISZERO ISZERO ISZERO DUP2 MSTORE PUSH1 0x20 ADD PUSH1 0x1 DUP3 ADD PUSH1 0x1 SWAP1 SLOAD SWAP1 PUSH2 0x100 EXP SWAP1 DIV PUSH16 0xFFFFFFFFFFFFFFFFFFFFFFFFFFFFFFFF AND PUSH16 0xFFFFFFFFFFFFFFFFFFFFFFFFFFFFFFFF AND PUSH16 0xFFFFFFFFFFFFFFFFFFFFFFFFFFFFFFFF AND DUP2 MSTORE PUSH1 0x20 ADD PUSH1 0x2 DUP3 ADD SLOAD DUP2 MSTORE POP POP SWAP1 POP DUP1 PUSH1 0x20 ADD MLOAD PUSH2 0x1167 JUMPI PUSH1 0x40 MLOAD PUSH32 0x8C379A000000000000000000000000000000000000000000000000000000000 DUP2 MSTORE PUSH1 0x4 ADD PUSH2 0x115E SWAP1 PUSH2 0x2F2B JUMP JUMPDEST PUSH1 0x40 MLOAD DUP1 SWAP2 SUB SWAP1 REVERT JUMPDEST PUSH0 DUP2 PUSH0 ADD MLOAD MLOAD PUSH8 0xFFFFFFFFFFFFFFFF DUP2 GT ISZERO PUSH2 0x1186 JUMPI PUSH2 0x1185 PUSH2 0x24A2 JUMP JUMPDEST JUMPDEST PUSH1 0x40 MLOAD SWAP1 DUP1 DUP3 MSTORE DUP1 PUSH1 0x20 MUL PUSH1 0x20 ADD DUP3 ADD PUSH1 0x40 MSTORE DUP1 ISZERO PUSH2 0x11B4 JUMPI DUP2 PUSH1 0x20 ADD PUSH1 0x20 DUP3 MUL DUP1 CALLDATASIZE DUP4 CALLDATACOPY DUP1 DUP3 ADD SWAP2 POP POP SWAP1 POP JUMPDEST POP SWAP1 POP PUSH0 DUP3 PUSH0 ADD MLOAD MLOAD PUSH8 0xFFFFFFFFFFFFFFFF DUP2 GT ISZERO PUSH2 0x11D6 JUMPI PUSH2 0x11D5 PUSH2 0x24A2 JUMP JUMPDEST JUMPDEST PUSH1 0x40 MLOAD SWAP1 DUP1 DUP3 MSTORE DUP1 PUSH1 0x20 MUL PUSH1 0x20 ADD DUP3 ADD PUSH1 0x40 MSTORE DUP1 ISZERO PUSH2 0x1204 JUMPI DUP2 PUSH1 0x20 ADD PUSH1 0x20 DUP3 MUL DUP1 CALLDATASIZE DUP4 CALLDATACOPY DUP1 DUP3 ADD SWAP2 POP POP SWAP1 POP JUMPDEST POP SWAP1 POP PUSH0 DUP4 PUSH0 ADD MLOAD MLOAD PUSH8 0xFFFFFFFFFFFFFFFF DUP2 GT ISZERO PUSH2 0x1226 JUMPI PUSH2 0x1225 PUSH2 0x24A2 JUMP JUMPDEST JUMPDEST PUSH1 0x40 MLOAD SWAP1 DUP1 DUP3 MSTORE DUP1 PUSH1 0x20 MUL PUSH1 0x20 ADD DUP3 ADD PUSH1 0x40 MSTORE DUP1 ISZERO PUSH2 0x1254 JUMPI DUP2 PUSH1 0x20 ADD PUSH1 0x20 DUP3 MUL DUP1 CALLDATASIZE DUP4 CALLDATACOPY DUP1 DUP3 ADD SWAP2 POP POP SWAP1 POP JUMPDEST POP SWAP1 POP PUSH0 JUMPDEST DUP5 PUSH0 ADD MLOAD MLOAD DUP2 PUSH8 0xFFFFFFFFFFFFFFFF AND LT ISZERO PUSH2 0x1375 JUMPI PUSH0 DUP6 PUSH0 ADD MLOAD DUP3 PUSH8 0xFFFFFFFFFFFFFFFF AND DUP2 MLOAD DUP2 LT PUSH2 0x1290 JUMPI PUSH2 0x128F PUSH2 0x28A5 JUMP JUMPDEST JUMPDEST PUSH1 0x20 MUL PUSH1 0x20 ADD ADD MLOAD SWAP1 POP DUP1 PUSH0 ADD MLOAD DUP6 DUP4 PUSH8 0xFFFFFFFFFFFFFFFF AND DUP2 MLOAD DUP2 LT PUSH2 0x12BB JUMPI PUSH2 0x12BA PUSH2 0x28A5 JUMP JUMPDEST JUMPDEST PUSH1 0x20 MUL PUSH1 0x20 ADD ADD SWAP1 PUSH20 0xFFFFFFFFFFFFFFFFFFFFFFFFFFFFFFFFFFFFFFFF AND SWAP1 DUP2 PUSH20 0xFFFFFFFFFFFFFFFFFFFFFFFFFFFFFFFFFFFFFFFF AND DUP2 MSTORE POP POP DUP1 PUSH1 0x20 ADD MLOAD DUP5 DUP4 PUSH8 0xFFFFFFFFFFFFFFFF AND DUP2 MLOAD DUP2 LT PUSH2 0x1317 JUMPI PUSH2 0x1316 PUSH2 0x28A5 JUMP JUMPDEST JUMPDEST PUSH1 0x20 MUL PUSH1 0x20 ADD ADD SWAP1 PUSH2 0xFFFF AND SWAP1 DUP2 PUSH2 0xFFFF AND DUP2 MSTORE POP POP DUP1 PUSH1 0x40 ADD MLOAD DUP4 DUP4 PUSH8 0xFFFFFFFFFFFFFFFF AND DUP2 MLOAD DUP2 LT PUSH2 0x134F JUMPI PUSH2 0x134E PUSH2 0x28A5 JUMP JUMPDEST JUMPDEST PUSH1 0x20 MUL PUSH1 0x20 ADD ADD SWAP1 ISZERO ISZERO SWAP1 DUP2 ISZERO ISZERO DUP2 MSTORE POP POP POP DUP1 DUP1 PUSH2 0x136D SWAP1 PUSH2 0x2F5C JUMP JUMPDEST SWAP2 POP POP PUSH2 0x1259 JUMP JUMPDEST POP DUP3 DUP3 DUP3 DUP7 PUSH1 0x40 ADD MLOAD DUP8 PUSH1 0x60 ADD MLOAD SWAP9 POP SWAP9 POP SWAP9 POP SWAP9 POP SWAP9 POP POP POP POP POP SWAP2 SWAP4 SWAP6 SWAP1 SWAP3 SWAP5 POP JUMP JUMPDEST PUSH0 CALLER SWAP1 POP PUSH0 DUP1 DUP3 PUSH20 0xFFFFFFFFFFFFFFFFFFFFFFFFFFFFFFFFFFFFFFFF AND PUSH20 0xFFFFFFFFFFFFFFFFFFFFFFFFFFFFFFFFFFFFFFFF AND DUP2 MSTORE PUSH1 0x20 ADD SWAP1 DUP2 MSTORE PUSH1 0x20 ADD PUSH0 KECCAK256 PUSH1 0x1 ADD PUSH0 SWAP1 SLOAD SWAP1 PUSH2 0x100 EXP SWAP1 DIV PUSH1 0xFF AND PUSH2 0x1429 JUMPI PUSH1 0x40 MLOAD PUSH32 0x8C379A000000000000000000000000000000000000000000000000000000000 DUP2 MSTORE PUSH1 0x4 ADD PUSH2 0x1420 SWAP1 PUSH2 0x2FFB JUMP JUMPDEST PUSH1 0x40 MLOAD DUP1 SWAP2 SUB SWAP1 REVERT JUMPDEST TIMESTAMP PUSH0 DUP1 DUP4 PUSH20 0xFFFFFFFFFFFFFFFFFFFFFFFFFFFFFFFFFFFFFFFF AND PUSH20 0xFFFFFFFFFFFFFFFFFFFFFFFFFFFFFFFFFFFFFFFF AND DUP2 MSTORE PUSH1 0x20 ADD SWAP1 DUP2 MSTORE PUSH1 0x20 ADD PUSH0 KECCAK256 PUSH1 0x1 ADD PUSH1 0x1 PUSH2 0x100 EXP DUP2 SLOAD DUP2 PUSH16 0xFFFFFFFFFFFFFFFFFFFFFFFFFFFFFFFF MUL NOT AND SWAP1 DUP4 PUSH16 0xFFFFFFFFFFFFFFFFFFFFFFFFFFFFFFFF AND MUL OR SWAP1 SSTORE POP POP JUMP JUMPDEST PUSH1 0x60 PUSH0 CALLER SWAP1 POP PUSH1 0x1 PUSH0 DUP3 PUSH20 0xFFFFFFFFFFFFFFFFFFFFFFFFFFFFFFFFFFFFFFFF AND PUSH20 0xFFFFFFFFFFFFFFFFFFFFFFFFFFFFFFFFFFFFFFFF AND DUP2 MSTORE PUSH1 0x20 ADD SWAP1 DUP2 MSTORE PUSH1 0x20 ADD PUSH0 KECCAK256 DUP1 SLOAD DUP1 PUSH1 0x20 MUL PUSH1 0x20 ADD PUSH1 0x40 MLOAD SWAP1 DUP2 ADD PUSH1 0x40 MSTORE DUP1 SWAP3 SWAP2 SWAP1 DUP2 DUP2 MSTORE PUSH1 0x20 ADD DUP3 DUP1 SLOAD DUP1 ISZERO PUSH2 0x1562 JUMPI PUSH1 0x20 MUL DUP3 ADD SWAP2 SWAP1 PUSH0 MSTORE PUSH1 0x20 PUSH0 KECCAK256 SWAP1 JUMPDEST DUP2 PUSH0 SWAP1 SLOAD SWAP1 PUSH2 0x100 EXP SWAP1 DIV PUSH20 0xFFFFFFFFFFFFFFFFFFFFFFFFFFFFFFFFFFFFFFFF AND PUSH20 0xFFFFFFFFFFFFFFFFFFFFFFFFFFFFFFFFFFFFFFFF AND DUP2 MSTORE PUSH1 0x20 ADD SWAP1 PUSH1 0x1 ADD SWAP1 DUP1 DUP4 GT PUSH2 0x1519 JUMPI JUMPDEST POP POP POP POP POP SWAP2 POP POP SWAP1 JUMP JUMPDEST PUSH0 CALLVALUE SUB PUSH2 0x15AF JUMPI PUSH1 0x40 MLOAD PUSH32 0x8C379A000000000000000000000000000000000000000000000000000000000 DUP2 MSTORE PUSH1 0x4 ADD PUSH2 0x15A6 SWAP1 PUSH2 0x3089 JUMP JUMPDEST PUSH1 0x40 MLOAD DUP1 SWAP2 SUB SWAP1 REVERT JUMPDEST PUSH0 DUP3 MLOAD SUB PUSH2 0x15F2 JUMPI PUSH1 0x40 MLOAD PUSH32 0x8C379A000000000000000000000000000000000000000000000000000000000 DUP2 MSTORE PUSH1 0x4 ADD PUSH2 0x15E9 SWAP1 PUSH2 0x27D3 JUMP JUMPDEST PUSH1 0x40 MLOAD DUP1 SWAP2 SUB SWAP1 REVERT JUMPDEST DUP1 MLOAD DUP3 MLOAD EQ PUSH2 0x1636 JUMPI PUSH1 0x40 MLOAD PUSH32 0x8C379A000000000000000000000000000000000000000000000000000000000 DUP2 MSTORE PUSH1 0x4 ADD PUSH2 0x162D SWAP1 PUSH2 0x2887 JUMP JUMPDEST PUSH1 0x40 MLOAD DUP1 SWAP2 SUB SWAP1 REVERT JUMPDEST PUSH0 CALLER SWAP1 POP PUSH0 DUP1 DUP3 PUSH20 0xFFFFFFFFFFFFFFFFFFFFFFFFFFFFFFFFFFFFFFFF AND PUSH20 0xFFFFFFFFFFFFFFFFFFFFFFFFFFFFFFFFFFFFFFFF AND DUP2 MSTORE PUSH1 0x20 ADD SWAP1 DUP2 MSTORE PUSH1 0x20 ADD PUSH0 KECCAK256 PUSH1 0x1 ADD PUSH0 SWAP1 SLOAD SWAP1 PUSH2 0x100 EXP SWAP1 DIV PUSH1 0xFF AND ISZERO PUSH2 0x16C6 JUMPI PUSH1 0x40 MLOAD PUSH32 0x8C379A000000000000000000000000000000000000000000000000000000000 DUP2 MSTORE PUSH1 0x4 ADD PUSH2 0x16BD SWAP1 PUSH2 0x3117 JUMP JUMPDEST PUSH1 0x40 MLOAD DUP1 SWAP2 SUB SWAP1 REVERT JUMPDEST PUSH0 JUMPDEST DUP4 MLOAD DUP2 LT ISZERO PUSH2 0x18EB JUMPI PUSH0 PUSH1 0x40 MLOAD DUP1 PUSH1 0x60 ADD PUSH1 0x40 MSTORE DUP1 DUP7 DUP5 DUP2 MLOAD DUP2 LT PUSH2 0x16F0 JUMPI PUSH2 0x16EF PUSH2 0x28A5 JUMP JUMPDEST JUMPDEST PUSH1 0x20 MUL PUSH1 0x20 ADD ADD MLOAD PUSH20 0xFFFFFFFFFFFFFFFFFFFFFFFFFFFFFFFFFFFFFFFF AND DUP2 MSTORE PUSH1 0x20 ADD DUP6 DUP5 DUP2 MLOAD DUP2 LT PUSH2 0x1726 JUMPI PUSH2 0x1725 PUSH2 0x28A5 JUMP JUMPDEST JUMPDEST PUSH1 0x20 MUL PUSH1 0x20 ADD ADD MLOAD PUSH2 0xFFFF AND DUP2 MSTORE PUSH1 0x20 ADD PUSH1 0x1 ISZERO ISZERO DUP2 MSTORE POP SWAP1 POP PUSH1 0x1 PUSH0 DUP7 DUP5 DUP2 MLOAD DUP2 LT PUSH2 0x1756 JUMPI PUSH2 0x1755 PUSH2 0x28A5 JUMP JUMPDEST JUMPDEST PUSH1 0x20 MUL PUSH1 0x20 ADD ADD MLOAD PUSH20 0xFFFFFFFFFFFFFFFFFFFFFFFFFFFFFFFFFFFFFFFF AND PUSH20 0xFFFFFFFFFFFFFFFFFFFFFFFFFFFFFFFFFFFFFFFF AND DUP2 MSTORE PUSH1 0x20 ADD SWAP1 DUP2 MSTORE PUSH1 0x20 ADD PUSH0 KECCAK256 DUP4 SWAP1 DUP1 PUSH1 0x1 DUP2 SLOAD ADD DUP1 DUP3 SSTORE DUP1 SWAP2 POP POP PUSH1 0x1 SWAP1 SUB SWAP1 PUSH0 MSTORE PUSH1 0x20 PUSH0 KECCAK256 ADD PUSH0 SWAP1 SWAP2 SWAP1 SWAP2 SWAP1 SWAP2 PUSH2 0x100 EXP DUP2 SLOAD DUP2 PUSH20 0xFFFFFFFFFFFFFFFFFFFFFFFFFFFFFFFFFFFFFFFF MUL NOT AND SWAP1 DUP4 PUSH20 0xFFFFFFFFFFFFFFFFFFFFFFFFFFFFFFFFFFFFFFFF AND MUL OR SWAP1 SSTORE POP PUSH0 DUP1 DUP5 PUSH20 0xFFFFFFFFFFFFFFFFFFFFFFFFFFFFFFFFFFFFFFFF AND PUSH20 0xFFFFFFFFFFFFFFFFFFFFFFFFFFFFFFFFFFFFFFFF AND DUP2 MSTORE PUSH1 0x20 ADD SWAP1 DUP2 MSTORE PUSH1 0x20 ADD PUSH0 KECCAK256 PUSH0 ADD DUP2 SWAP1 DUP1 PUSH1 0x1 DUP2 SLOAD ADD DUP1 DUP3 SSTORE DUP1 SWAP2 POP POP PUSH1 0x1 SWAP1 SUB SWAP1 PUSH0 MSTORE PUSH1 0x20 PUSH0 KECCAK256 ADD PUSH0 SWAP1 SWAP2 SWAP1 SWAP2 SWAP1 SWAP2 POP PUSH0 DUP3 ADD MLOAD DUP2 PUSH0 ADD PUSH0 PUSH2 0x100 EXP DUP2 SLOAD DUP2 PUSH20 0xFFFFFFFFFFFFFFFFFFFFFFFFFFFFFFFFFFFFFFFF MUL NOT AND SWAP1 DUP4 PUSH20 0xFFFFFFFFFFFFFFFFFFFFFFFFFFFFFFFFFFFFFFFF AND MUL OR SWAP1 SSTORE POP PUSH1 0x20 DUP3 ADD MLOAD DUP2 PUSH0 ADD PUSH1 0x14 PUSH2 0x100 EXP DUP2 SLOAD DUP2 PUSH2 0xFFFF MUL NOT AND SWAP1 DUP4 PUSH2 0xFFFF AND MUL OR SWAP1 SSTORE POP PUSH1 0x40 DUP3 ADD MLOAD DUP2 PUSH0 ADD PUSH1 0x16 PUSH2 0x100 EXP DUP2 SLOAD DUP2 PUSH1 0xFF MUL NOT AND SWAP1 DUP4 ISZERO ISZERO MUL OR SWAP1 SSTORE POP POP POP POP DUP1 DUP1 PUSH1 0x1 ADD SWAP2 POP POP PUSH2 0x16C8 JUMP JUMPDEST POP PUSH1 0x1 PUSH0 DUP1 DUP4 PUSH20 0xFFFFFFFFFFFFFFFFFFFFFFFFFFFFFFFFFFFFFFFF AND PUSH20 0xFFFFFFFFFFFFFFFFFFFFFFFFFFFFFFFFFFFFFFFF AND DUP2 MSTORE PUSH1 0x20 ADD SWAP1 DUP2 MSTORE PUSH1 0x20 ADD PUSH0 KECCAK256 PUSH1 0x1 ADD PUSH0 PUSH2 0x100 EXP DUP2 SLOAD DUP2 PUSH1 0xFF MUL NOT AND SWAP1 DUP4 ISZERO ISZERO MUL OR SWAP1 SSTORE POP CALLVALUE PUSH0 DUP1 DUP4 PUSH20 0xFFFFFFFFFFFFFFFFFFFFFFFFFFFFFFFFFFFFFFFF AND PUSH20 0xFFFFFFFFFFFFFFFFFFFFFFFFFFFFFFFFFFFFFFFF AND DUP2 MSTORE PUSH1 0x20 ADD SWAP1 DUP2 MSTORE PUSH1 0x20 ADD PUSH0 KECCAK256 PUSH1 0x2 ADD DUP2 SWAP1 SSTORE POP PUSH2 0x198F PUSH2 0x139A JUMP JUMPDEST POP POP POP JUMP JUMPDEST PUSH0 DUP1 PUSH0 DUP4 PUSH20 0xFFFFFFFFFFFFFFFFFFFFFFFFFFFFFFFFFFFFFFFF AND PUSH20 0xFFFFFFFFFFFFFFFFFFFFFFFFFFFFFFFFFFFFFFFF AND DUP2 MSTORE PUSH1 0x20 ADD SWAP1 DUP2 MSTORE PUSH1 0x20 ADD PUSH0 KECCAK256 PUSH1 0x1 ADD PUSH0 SWAP1 SLOAD SWAP1 PUSH2 0x100 EXP SWAP1 DIV PUSH1 0xFF AND PUSH2 0x1A20 JUMPI PUSH1 0x40 MLOAD PUSH32 0x8C379A000000000000000000000000000000000000000000000000000000000 DUP2 MSTORE PUSH1 0x4 ADD PUSH2 0x1A17 SWAP1 PUSH2 0x317F JUMP JUMPDEST PUSH1 0x40 MLOAD DUP1 SWAP2 SUB SWAP1 REVERT JUMPDEST PUSH0 PUSH1 0x1 SWAP1 POP DUP1 PUSH0 DUP1 DUP6 PUSH20 0xFFFFFFFFFFFFFFFFFFFFFFFFFFFFFFFFFFFFFFFF AND PUSH20 0xFFFFFFFFFFFFFFFFFFFFFFFFFFFFFFFFFFFFFFFF AND DUP2 MSTORE PUSH1 0x20 ADD SWAP1 DUP2 MSTORE PUSH1 0x20 ADD PUSH0 KECCAK256 PUSH1 0x1 ADD PUSH1 0x1 SWAP1 SLOAD SWAP1 PUSH2 0x100 EXP SWAP1 DIV PUSH16 0xFFFFFFFFFFFFFFFFFFFFFFFFFFFFFFFF AND PUSH16 0xFFFFFFFFFFFFFFFFFFFFFFFFFFFFFFFF AND PUSH2 0x1A9E SWAP2 SWAP1 PUSH2 0x2A20 JUMP JUMPDEST TIMESTAMP LT ISZERO SWAP2 POP POP SWAP2 SWAP1 POP JUMP JUMPDEST PUSH0 DUP1 PUSH0 DUP4 PUSH20 0xFFFFFFFFFFFFFFFFFFFFFFFFFFFFFFFFFFFFFFFF AND PUSH20 0xFFFFFFFFFFFFFFFFFFFFFFFFFFFFFFFFFFFFFFFF AND DUP2 MSTORE PUSH1 0x20 ADD SWAP1 DUP2 MSTORE PUSH1 0x20 ADD PUSH0 KECCAK256 PUSH0 ADD DUP1 SLOAD DUP1 PUSH1 0x20 MUL PUSH1 0x20 ADD PUSH1 0x40 MLOAD SWAP1 DUP2 ADD PUSH1 0x40 MSTORE DUP1 SWAP3 SWAP2 SWAP1 DUP2 DUP2 MSTORE PUSH1 0x20 ADD PUSH0 SWAP1 JUMPDEST DUP3 DUP3 LT ISZERO PUSH2 0x1BC0 JUMPI DUP4 DUP3 SWAP1 PUSH0 MSTORE PUSH1 0x20 PUSH0 KECCAK256 ADD PUSH1 0x40 MLOAD DUP1 PUSH1 0x60 ADD PUSH1 0x40 MSTORE SWAP1 DUP2 PUSH0 DUP3 ADD PUSH0 SWAP1 SLOAD SWAP1 PUSH2 0x100 EXP SWAP1 DIV PUSH20 0xFFFFFFFFFFFFFFFFFFFFFFFFFFFFFFFFFFFFFFFF AND PUSH20 0xFFFFFFFFFFFFFFFFFFFFFFFFFFFFFFFFFFFFFFFF AND PUSH20 0xFFFFFFFFFFFFFFFFFFFFFFFFFFFFFFFFFFFFFFFF AND DUP2 MSTORE PUSH1 0x20 ADD PUSH0 DUP3 ADD PUSH1 0x14 SWAP1 SLOAD SWAP1 PUSH2 0x100 EXP SWAP1 DIV PUSH2 0xFFFF AND PUSH2 0xFFFF AND PUSH2 0xFFFF AND DUP2 MSTORE PUSH1 0x20 ADD PUSH0 DUP3 ADD PUSH1 0x16 SWAP1 SLOAD SWAP1 PUSH2 0x100 EXP SWAP1 DIV PUSH1 0xFF AND ISZERO ISZERO ISZERO ISZERO DUP2 MSTORE POP POP DUP2 MSTORE PUSH1 0x20 ADD SWAP1 PUSH1 0x1 ADD SWAP1 PUSH2 0x1B07 JUMP JUMPDEST POP POP POP POP SWAP1 POP PUSH0 JUMPDEST DUP2 MLOAD DUP2 LT ISZERO PUSH2 0x1E3E JUMPI PUSH0 PUSH1 0x1 PUSH0 DUP5 DUP5 DUP2 MLOAD DUP2 LT PUSH2 0x1BE8 JUMPI PUSH2 0x1BE7 PUSH2 0x28A5 JUMP JUMPDEST JUMPDEST PUSH1 0x20 MUL PUSH1 0x20 ADD ADD MLOAD PUSH0 ADD MLOAD PUSH20 0xFFFFFFFFFFFFFFFFFFFFFFFFFFFFFFFFFFFFFFFF AND PUSH20 0xFFFFFFFFFFFFFFFFFFFFFFFFFFFFFFFFFFFFFFFF AND DUP2 MSTORE PUSH1 0x20 ADD SWAP1 DUP2 MSTORE PUSH1 0x20 ADD PUSH0 KECCAK256 DUP1 SLOAD DUP1 PUSH1 0x20 MUL PUSH1 0x20 ADD PUSH1 0x40 MLOAD SWAP1 DUP2 ADD PUSH1 0x40 MSTORE DUP1 SWAP3 SWAP2 SWAP1 DUP2 DUP2 MSTORE PUSH1 0x20 ADD DUP3 DUP1 SLOAD DUP1 ISZERO PUSH2 0x1CA9 JUMPI PUSH1 0x20 MUL DUP3 ADD SWAP2 SWAP1 PUSH0 MSTORE PUSH1 0x20 PUSH0 KECCAK256 SWAP1 JUMPDEST DUP2 PUSH0 SWAP1 SLOAD SWAP1 PUSH2 0x100 EXP SWAP1 DIV PUSH20 0xFFFFFFFFFFFFFFFFFFFFFFFFFFFFFFFFFFFFFFFF AND PUSH20 0xFFFFFFFFFFFFFFFFFFFFFFFFFFFFFFFFFFFFFFFF AND DUP2 MSTORE PUSH1 0x20 ADD SWAP1 PUSH1 0x1 ADD SWAP1 DUP1 DUP4 GT PUSH2 0x1C60 JUMPI JUMPDEST POP POP POP POP POP SWAP1 POP PUSH0 DUP2 MLOAD SWAP1 POP PUSH0 JUMPDEST DUP2 DUP2 LT ISZERO PUSH2 0x1E2E JUMPI DUP6 PUSH20 0xFFFFFFFFFFFFFFFFFFFFFFFFFFFFFFFFFFFFFFFF AND DUP4 DUP3 DUP2 MLOAD DUP2 LT PUSH2 0x1CE9 JUMPI PUSH2 0x1CE8 PUSH2 0x28A5 JUMP JUMPDEST JUMPDEST PUSH1 0x20 MUL PUSH1 0x20 ADD ADD MLOAD PUSH20 0xFFFFFFFFFFFFFFFFFFFFFFFFFFFFFFFFFFFFFFFF AND SUB PUSH2 0x1E21 JUMPI DUP3 PUSH1 0x1 DUP4 PUSH2 0x1D1A SWAP2 SWAP1 PUSH2 0x2EAE JUMP JUMPDEST DUP2 MLOAD DUP2 LT PUSH2 0x1D2B JUMPI PUSH2 0x1D2A PUSH2 0x28A5 JUMP JUMPDEST JUMPDEST PUSH1 0x20 MUL PUSH1 0x20 ADD ADD MLOAD DUP4 DUP3 DUP2 MLOAD DUP2 LT PUSH2 0x1D46 JUMPI PUSH2 0x1D45 PUSH2 0x28A5 JUMP JUMPDEST JUMPDEST PUSH1 0x20 MUL PUSH1 0x20 ADD ADD SWAP1 PUSH20 0xFFFFFFFFFFFFFFFFFFFFFFFFFFFFFFFFFFFFFFFF AND SWAP1 DUP2 PUSH20 0xFFFFFFFFFFFFFFFFFFFFFFFFFFFFFFFFFFFFFFFF AND DUP2 MSTORE POP POP PUSH1 0x1 PUSH0 DUP7 DUP7 DUP2 MLOAD DUP2 LT PUSH2 0x1D96 JUMPI PUSH2 0x1D95 PUSH2 0x28A5 JUMP JUMPDEST JUMPDEST PUSH1 0x20 MUL PUSH1 0x20 ADD ADD MLOAD PUSH0 ADD MLOAD PUSH20 0xFFFFFFFFFFFFFFFFFFFFFFFFFFFFFFFFFFFFFFFF AND PUSH20 0xFFFFFFFFFFFFFFFFFFFFFFFFFFFFFFFFFFFFFFFF AND DUP2 MSTORE PUSH1 0x20 ADD SWAP1 DUP2 MSTORE PUSH1 0x20 ADD PUSH0 KECCAK256 DUP1 SLOAD DUP1 PUSH2 0x1DEA JUMPI PUSH2 0x1DE9 PUSH2 0x319D JUMP JUMPDEST JUMPDEST PUSH1 0x1 SWAP1 SUB DUP2 DUP2 SWAP1 PUSH0 MSTORE PUSH1 0x20 PUSH0 KECCAK256 ADD PUSH0 PUSH2 0x100 EXP DUP2 SLOAD SWAP1 PUSH20 0xFFFFFFFFFFFFFFFFFFFFFFFFFFFFFFFFFFFFFFFF MUL NOT AND SWAP1 SSTORE SWAP1 SSTORE PUSH2 0x1E2E JUMP JUMPDEST DUP1 DUP1 PUSH1 0x1 ADD SWAP2 POP POP PUSH2 0x1CB7 JUMP JUMPDEST POP POP POP DUP1 DUP1 PUSH1 0x1 ADD SWAP2 POP POP PUSH2 0x1BC8 JUMP JUMPDEST POP POP POP JUMP JUMPDEST POP DUP1 SLOAD PUSH0 DUP3 SSTORE SWAP1 PUSH0 MSTORE PUSH1 0x20 PUSH0 KECCAK256 SWAP1 DUP2 ADD SWAP1 PUSH2 0x1E5E SWAP2 SWAP1 PUSH2 0x1E61 JUMP JUMPDEST POP JUMP JUMPDEST JUMPDEST DUP1 DUP3 GT ISZERO PUSH2 0x1EC0 JUMPI PUSH0 DUP1 DUP3 ADD PUSH0 PUSH2 0x100 EXP DUP2 SLOAD SWAP1 PUSH20 0xFFFFFFFFFFFFFFFFFFFFFFFFFFFFFFFFFFFFFFFF MUL NOT AND SWAP1 SSTORE PUSH0 DUP3 ADD PUSH1 0x14 PUSH2 0x100 EXP DUP2 SLOAD SWAP1 PUSH2 0xFFFF MUL NOT AND SWAP1 SSTORE PUSH0 DUP3 ADD PUSH1 0x16 PUSH2 0x100 EXP DUP2 SLOAD SWAP1 PUSH1 0xFF MUL NOT AND SWAP1 SSTORE POP PUSH1 0x1 ADD PUSH2 0x1E62 JUMP JUMPDEST POP SWAP1 JUMP JUMPDEST PUSH0 PUSH1 0x40 MLOAD SWAP1 POP SWAP1 JUMP JUMPDEST PUSH0 DUP1 REVERT JUMPDEST PUSH0 DUP1 REVERT JUMPDEST PUSH0 DUP1 REVERT JUMPDEST PUSH0 DUP1 REVERT JUMPDEST PUSH0 DUP1 REVERT JUMPDEST PUSH0 DUP1 DUP4 PUSH1 0x1F DUP5 ADD SLT PUSH2 0x1EF6 JUMPI PUSH2 0x1EF5 PUSH2 0x1ED5 JUMP JUMPDEST JUMPDEST DUP3 CALLDATALOAD SWAP1 POP PUSH8 0xFFFFFFFFFFFFFFFF DUP2 GT ISZERO PUSH2 0x1F13 JUMPI PUSH2 0x1F12 PUSH2 0x1ED9 JUMP JUMPDEST JUMPDEST PUSH1 0x20 DUP4 ADD SWAP2 POP DUP4 PUSH1 0x20 DUP3 MUL DUP4 ADD GT ISZERO PUSH2 0x1F2F JUMPI PUSH2 0x1F2E PUSH2 0x1EDD JUMP JUMPDEST JUMPDEST SWAP3 POP SWAP3 SWAP1 POP JUMP JUMPDEST PUSH0 DUP1 DUP4 PUSH1 0x1F DUP5 ADD SLT PUSH2 0x1F4B JUMPI PUSH2 0x1F4A PUSH2 0x1ED5 JUMP JUMPDEST JUMPDEST DUP3 CALLDATALOAD SWAP1 POP PUSH8 0xFFFFFFFFFFFFFFFF DUP2 GT ISZERO PUSH2 0x1F68 JUMPI PUSH2 0x1F67 PUSH2 0x1ED9 JUMP JUMPDEST JUMPDEST PUSH1 0x20 DUP4 ADD SWAP2 POP DUP4 PUSH1 0x20 DUP3 MUL DUP4 ADD GT ISZERO PUSH2 0x1F84 JUMPI PUSH2 0x1F83 PUSH2 0x1EDD JUMP JUMPDEST JUMPDEST SWAP3 POP SWAP3 SWAP1 POP JUMP JUMPDEST PUSH0 DUP1 PUSH0 DUP1 PUSH1 0x40 DUP6 DUP8 SUB SLT ISZERO PUSH2 0x1FA3 JUMPI PUSH2 0x1FA2 PUSH2 0x1ECD JUMP JUMPDEST JUMPDEST PUSH0 DUP6 ADD CALLDATALOAD PUSH8 0xFFFFFFFFFFFFFFFF DUP2 GT ISZERO PUSH2 0x1FC0 JUMPI PUSH2 0x1FBF PUSH2 0x1ED1 JUMP JUMPDEST JUMPDEST PUSH2 0x1FCC DUP8 DUP3 DUP9 ADD PUSH2 0x1EE1 JUMP JUMPDEST SWAP5 POP SWAP5 POP POP PUSH1 0x20 DUP6 ADD CALLDATALOAD PUSH8 0xFFFFFFFFFFFFFFFF DUP2 GT ISZERO PUSH2 0x1FEF JUMPI PUSH2 0x1FEE PUSH2 0x1ED1 JUMP JUMPDEST JUMPDEST PUSH2 0x1FFB DUP8 DUP3 DUP9 ADD PUSH2 0x1F36 JUMP JUMPDEST SWAP3 POP SWAP3 POP POP SWAP3 SWAP6 SWAP2 SWAP5 POP SWAP3 POP JUMP JUMPDEST PUSH0 PUSH20 0xFFFFFFFFFFFFFFFFFFFFFFFFFFFFFFFFFFFFFFFF DUP3 AND SWAP1 POP SWAP2 SWAP1 POP JUMP JUMPDEST PUSH0 PUSH2 0x2032 DUP3 PUSH2 0x2009 JUMP JUMPDEST SWAP1 POP SWAP2 SWAP1 POP JUMP JUMPDEST PUSH2 0x2042 DUP2 PUSH2 0x2028 JUMP JUMPDEST DUP2 EQ PUSH2 0x204C JUMPI PUSH0 DUP1 REVERT JUMPDEST POP JUMP JUMPDEST PUSH0 DUP2 CALLDATALOAD SWAP1 POP PUSH2 0x205D DUP2 PUSH2 0x2039 JUMP JUMPDEST SWAP3 SWAP2 POP POP JUMP JUMPDEST PUSH0 PUSH1 0x20 DUP3 DUP5 SUB SLT ISZERO PUSH2 0x2078 JUMPI PUSH2 0x2077 PUSH2 0x1ECD JUMP JUMPDEST JUMPDEST PUSH0 PUSH2 0x2085 DUP5 DUP3 DUP6 ADD PUSH2 0x204F JUMP JUMPDEST SWAP2 POP POP SWAP3 SWAP2 POP POP JUMP JUMPDEST PUSH0 DUP2 SWAP1 POP SWAP2 SWAP1 POP JUMP JUMPDEST PUSH2 0x20A0 DUP2 PUSH2 0x208E JUMP JUMPDEST DUP2 EQ PUSH2 0x20AA JUMPI PUSH0 DUP1 REVERT JUMPDEST POP JUMP JUMPDEST PUSH0 DUP2 CALLDATALOAD SWAP1 POP PUSH2 0x20BB DUP2 PUSH2 0x2097 JUMP JUMPDEST SWAP3 SWAP2 POP POP JUMP JUMPDEST PUSH0 DUP1 PUSH1 0x40 DUP4 DUP6 SUB SLT ISZERO PUSH2 0x20D7 JUMPI PUSH2 0x20D6 PUSH2 0x1ECD JUMP JUMPDEST JUMPDEST PUSH0 PUSH2 0x20E4 DUP6 DUP3 DUP7 ADD PUSH2 0x204F JUMP JUMPDEST SWAP3 POP POP PUSH1 0x20 PUSH2 0x20F5 DUP6 DUP3 DUP7 ADD PUSH2 0x20AD JUMP JUMPDEST SWAP2 POP POP SWAP3 POP SWAP3 SWAP1 POP JUMP JUMPDEST PUSH2 0x2108 DUP2 PUSH2 0x2028 JUMP JUMPDEST DUP3 MSTORE POP POP JUMP JUMPDEST PUSH0 PUSH1 0x20 DUP3 ADD SWAP1 POP PUSH2 0x2121 PUSH0 DUP4 ADD DUP5 PUSH2 0x20FF JUMP JUMPDEST SWAP3 SWAP2 POP POP JUMP JUMPDEST PUSH0 PUSH1 0x20 DUP3 DUP5 SUB SLT ISZERO PUSH2 0x213C JUMPI PUSH2 0x213B PUSH2 0x1ECD JUMP JUMPDEST JUMPDEST PUSH0 PUSH2 0x2149 DUP5 DUP3 DUP6 ADD PUSH2 0x20AD JUMP JUMPDEST SWAP2 POP POP SWAP3 SWAP2 POP POP JUMP JUMPDEST PUSH0 DUP2 ISZERO ISZERO SWAP1 POP SWAP2 SWAP1 POP JUMP JUMPDEST PUSH2 0x2166 DUP2 PUSH2 0x2152 JUMP JUMPDEST DUP3 MSTORE POP POP JUMP JUMPDEST PUSH0 PUSH16 0xFFFFFFFFFFFFFFFFFFFFFFFFFFFFFFFF DUP3 AND SWAP1 POP SWAP2 SWAP1 POP JUMP JUMPDEST PUSH2 0x2190 DUP2 PUSH2 0x216C JUMP JUMPDEST DUP3 MSTORE POP POP JUMP JUMPDEST PUSH2 0x219F DUP2 PUSH2 0x208E JUMP JUMPDEST DUP3 MSTORE POP POP JUMP JUMPDEST PUSH0 PUSH1 0x60 DUP3 ADD SWAP1 POP PUSH2 0x21B8 PUSH0 DUP4 ADD DUP7 PUSH2 0x215D JUMP JUMPDEST PUSH2 0x21C5 PUSH1 0x20 DUP4 ADD DUP6 PUSH2 0x2187 JUMP JUMPDEST PUSH2 0x21D2 PUSH1 0x40 DUP4 ADD DUP5 PUSH2 0x2196 JUMP JUMPDEST SWAP5 SWAP4 POP POP POP POP JUMP JUMPDEST PUSH0 DUP2 MLOAD SWAP1 POP SWAP2 SWAP1 POP JUMP JUMPDEST PUSH0 DUP3 DUP3 MSTORE PUSH1 0x20 DUP3 ADD SWAP1 POP SWAP3 SWAP2 POP POP JUMP JUMPDEST PUSH0 DUP2 SWAP1 POP PUSH1 0x20 DUP3 ADD SWAP1 POP SWAP2 SWAP1 POP JUMP JUMPDEST PUSH2 0x220C DUP2 PUSH2 0x2028 JUMP JUMPDEST DUP3 MSTORE POP POP JUMP JUMPDEST PUSH0 PUSH2 0x221D DUP4 DUP4 PUSH2 0x2203 JUMP JUMPDEST PUSH1 0x20 DUP4 ADD SWAP1 POP SWAP3 SWAP2 POP POP JUMP JUMPDEST PUSH0 PUSH1 0x20 DUP3 ADD SWAP1 POP SWAP2 SWAP1 POP JUMP JUMPDEST PUSH0 PUSH2 0x223F DUP3 PUSH2 0x21DA JUMP JUMPDEST PUSH2 0x2249 DUP2 DUP6 PUSH2 0x21E4 JUMP JUMPDEST SWAP4 POP PUSH2 0x2254 DUP4 PUSH2 0x21F4 JUMP JUMPDEST DUP1 PUSH0 JUMPDEST DUP4 DUP2 LT ISZERO PUSH2 0x2284 JUMPI DUP2 MLOAD PUSH2 0x226B DUP9 DUP3 PUSH2 0x2212 JUMP JUMPDEST SWAP8 POP PUSH2 0x2276 DUP4 PUSH2 0x2229 JUMP JUMPDEST SWAP3 POP POP PUSH1 0x1 DUP2 ADD SWAP1 POP PUSH2 0x2257 JUMP JUMPDEST POP DUP6 SWAP4 POP POP POP POP SWAP3 SWAP2 POP POP JUMP JUMPDEST PUSH0 DUP2 MLOAD SWAP1 POP SWAP2 SWAP1 POP JUMP JUMPDEST PUSH0 DUP3 DUP3 MSTORE PUSH1 0x20 DUP3 ADD SWAP1 POP SWAP3 SWAP2 POP POP JUMP JUMPDEST PUSH0 DUP2 SWAP1 POP PUSH1 0x20 DUP3 ADD SWAP1 POP SWAP2 SWAP1 POP JUMP JUMPDEST PUSH0 PUSH2 0xFFFF DUP3 AND SWAP1 POP SWAP2 SWAP1 POP JUMP JUMPDEST PUSH2 0x22D0 DUP2 PUSH2 0x22BA JUMP JUMPDEST DUP3 MSTORE POP POP JUMP JUMPDEST PUSH0 PUSH2 0x22E1 DUP4 DUP4 PUSH2 0x22C7 JUMP JUMPDEST PUSH1 0x20 DUP4 ADD SWAP1 POP SWAP3 SWAP2 POP POP JUMP JUMPDEST PUSH0 PUSH1 0x20 DUP3 ADD SWAP1 POP SWAP2 SWAP1 POP JUMP JUMPDEST PUSH0 PUSH2 0x2303 DUP3 PUSH2 0x2291 JUMP JUMPDEST PUSH2 0x230D DUP2 DUP6 PUSH2 0x229B JUMP JUMPDEST SWAP4 POP PUSH2 0x2318 DUP4 PUSH2 0x22AB JUMP JUMPDEST DUP1 PUSH0 JUMPDEST DUP4 DUP2 LT ISZERO PUSH2 0x2348 JUMPI DUP2 MLOAD PUSH2 0x232F DUP9 DUP3 PUSH2 0x22D6 JUMP JUMPDEST SWAP8 POP PUSH2 0x233A DUP4 PUSH2 0x22ED JUMP JUMPDEST SWAP3 POP POP PUSH1 0x1 DUP2 ADD SWAP1 POP PUSH2 0x231B JUMP JUMPDEST POP DUP6 SWAP4 POP POP POP POP SWAP3 SWAP2 POP POP JUMP JUMPDEST PUSH0 DUP2 MLOAD SWAP1 POP SWAP2 SWAP1 POP JUMP JUMPDEST PUSH0 DUP3 DUP3 MSTORE PUSH1 0x20 DUP3 ADD SWAP1 POP SWAP3 SWAP2 POP POP JUMP JUMPDEST PUSH0 DUP2 SWAP1 POP PUSH1 0x20 DUP3 ADD SWAP1 POP SWAP2 SWAP1 POP JUMP JUMPDEST PUSH2 0x2387 DUP2 PUSH2 0x2152 JUMP JUMPDEST DUP3 MSTORE POP POP JUMP JUMPDEST PUSH0 PUSH2 0x2398 DUP4 DUP4 PUSH2 0x237E JUMP JUMPDEST PUSH1 0x20 DUP4 ADD SWAP1 POP SWAP3 SWAP2 POP POP JUMP JUMPDEST PUSH0 PUSH1 0x20 DUP3 ADD SWAP1 POP SWAP2 SWAP1 POP JUMP JUMPDEST PUSH0 PUSH2 0x23BA DUP3 PUSH2 0x2355 JUMP JUMPDEST PUSH2 0x23C4 DUP2 DUP6 PUSH2 0x235F JUMP JUMPDEST SWAP4 POP PUSH2 0x23CF DUP4 PUSH2 0x236F JUMP JUMPDEST DUP1 PUSH0 JUMPDEST DUP4 DUP2 LT ISZERO PUSH2 0x23FF JUMPI DUP2 MLOAD PUSH2 0x23E6 DUP9 DUP3 PUSH2 0x238D JUMP JUMPDEST SWAP8 POP PUSH2 0x23F1 DUP4 PUSH2 0x23A4 JUMP JUMPDEST SWAP3 POP POP PUSH1 0x1 DUP2 ADD SWAP1 POP PUSH2 0x23D2 JUMP JUMPDEST POP DUP6 SWAP4 POP POP POP POP SWAP3 SWAP2 POP POP JUMP JUMPDEST PUSH0 PUSH1 0xA0 DUP3 ADD SWAP1 POP DUP2 DUP2 SUB PUSH0 DUP4 ADD MSTORE PUSH2 0x2424 DUP2 DUP9 PUSH2 0x2235 JUMP JUMPDEST SWAP1 POP DUP2 DUP2 SUB PUSH1 0x20 DUP4 ADD MSTORE PUSH2 0x2438 DUP2 DUP8 PUSH2 0x22F9 JUMP JUMPDEST SWAP1 POP DUP2 DUP2 SUB PUSH1 0x40 DUP4 ADD MSTORE PUSH2 0x244C DUP2 DUP7 PUSH2 0x23B0 JUMP JUMPDEST SWAP1 POP PUSH2 0x245B PUSH1 0x60 DUP4 ADD DUP6 PUSH2 0x2187 JUMP JUMPDEST PUSH2 0x2468 PUSH1 0x80 DUP4 ADD DUP5 PUSH2 0x2196 JUMP JUMPDEST SWAP7 SWAP6 POP POP POP POP POP POP JUMP JUMPDEST PUSH0 PUSH1 0x20 DUP3 ADD SWAP1 POP DUP2 DUP2 SUB PUSH0 DUP4 ADD MSTORE PUSH2 0x248A DUP2 DUP5 PUSH2 0x2235 JUMP JUMPDEST SWAP1 POP SWAP3 SWAP2 POP POP JUMP JUMPDEST PUSH0 PUSH1 0x1F NOT PUSH1 0x1F DUP4 ADD AND SWAP1 POP SWAP2 SWAP1 POP JUMP JUMPDEST PUSH32 0x4E487B7100000000000000000000000000000000000000000000000000000000 PUSH0 MSTORE PUSH1 0x41 PUSH1 0x4 MSTORE PUSH1 0x24 PUSH0 REVERT JUMPDEST PUSH2 0x24D8 DUP3 PUSH2 0x2492 JUMP JUMPDEST DUP2 ADD DUP2 DUP2 LT PUSH8 0xFFFFFFFFFFFFFFFF DUP3 GT OR ISZERO PUSH2 0x24F7 JUMPI PUSH2 0x24F6 PUSH2 0x24A2 JUMP JUMPDEST JUMPDEST DUP1 PUSH1 0x40 MSTORE POP POP POP JUMP JUMPDEST PUSH0 PUSH2 0x2509 PUSH2 0x1EC4 JUMP JUMPDEST SWAP1 POP PUSH2 0x2515 DUP3 DUP3 PUSH2 0x24CF JUMP JUMPDEST SWAP2 SWAP1 POP JUMP JUMPDEST PUSH0 PUSH8 0xFFFFFFFFFFFFFFFF DUP3 GT ISZERO PUSH2 0x2534 JUMPI PUSH2 0x2533 PUSH2 0x24A2 JUMP JUMPDEST JUMPDEST PUSH1 0x20 DUP3 MUL SWAP1 POP PUSH1 0x20 DUP2 ADD SWAP1 POP SWAP2 SWAP1 POP JUMP JUMPDEST PUSH0 PUSH2 0x2557 PUSH2 0x2552 DUP5 PUSH2 0x251A JUMP JUMPDEST PUSH2 0x2500 JUMP JUMPDEST SWAP1 POP DUP1 DUP4 DUP3 MSTORE PUSH1 0x20 DUP3 ADD SWAP1 POP PUSH1 0x20 DUP5 MUL DUP4 ADD DUP6 DUP2 GT ISZERO PUSH2 0x257A JUMPI PUSH2 0x2579 PUSH2 0x1EDD JUMP JUMPDEST JUMPDEST DUP4 JUMPDEST DUP2 DUP2 LT ISZERO PUSH2 0x25A3 JUMPI DUP1 PUSH2 0x258F DUP9 DUP3 PUSH2 0x204F JUMP JUMPDEST DUP5 MSTORE PUSH1 0x20 DUP5 ADD SWAP4 POP POP PUSH1 0x20 DUP2 ADD SWAP1 POP PUSH2 0x257C JUMP JUMPDEST POP POP POP SWAP4 SWAP3 POP POP POP JUMP JUMPDEST PUSH0 DUP3 PUSH1 0x1F DUP4 ADD SLT PUSH2 0x25C1 JUMPI PUSH2 0x25C0 PUSH2 0x1ED5 JUMP JUMPDEST JUMPDEST DUP2 CALLDATALOAD PUSH2 0x25D1 DUP5 DUP3 PUSH1 0x20 DUP7 ADD PUSH2 0x2545 JUMP JUMPDEST SWAP2 POP POP SWAP3 SWAP2 POP POP JUMP JUMPDEST PUSH0 PUSH8 0xFFFFFFFFFFFFFFFF DUP3 GT ISZERO PUSH2 0x25F4 JUMPI PUSH2 0x25F3 PUSH2 0x24A2 JUMP JUMPDEST JUMPDEST PUSH1 0x20 DUP3 MUL SWAP1 POP PUSH1 0x20 DUP2 ADD SWAP1 POP SWAP2 SWAP1 POP JUMP JUMPDEST PUSH2 0x260E DUP2 PUSH2 0x22BA JUMP JUMPDEST DUP2 EQ PUSH2 0x2618 JUMPI PUSH0 DUP1 REVERT JUMPDEST POP JUMP JUMPDEST PUSH0 DUP2 CALLDATALOAD SWAP1 POP PUSH2 0x2629 DUP2 PUSH2 0x2605 JUMP JUMPDEST SWAP3 SWAP2 POP POP JUMP JUMPDEST PUSH0 PUSH2 0x2641 PUSH2 0x263C DUP5 PUSH2 0x25DA JUMP JUMPDEST PUSH2 0x2500 JUMP JUMPDEST SWAP1 POP DUP1 DUP4 DUP3 MSTORE PUSH1 0x20 DUP3 ADD SWAP1 POP PUSH1 0x20 DUP5 MUL DUP4 ADD DUP6 DUP2 GT ISZERO PUSH2 0x2664 JUMPI PUSH2 0x2663 PUSH2 0x1EDD JUMP JUMPDEST JUMPDEST DUP4 JUMPDEST DUP2 DUP2 LT ISZERO PUSH2 0x268D JUMPI DUP1 PUSH2 0x2679 DUP9 DUP3 PUSH2 0x261B JUMP JUMPDEST DUP5 MSTORE PUSH1 0x20 DUP5 ADD SWAP4 POP POP PUSH1 0x20 DUP2 ADD SWAP1 POP PUSH2 0x2666 JUMP JUMPDEST POP POP POP SWAP4 SWAP3 POP POP POP JUMP JUMPDEST PUSH0 DUP3 PUSH1 0x1F DUP4 ADD SLT PUSH2 0x26AB JUMPI PUSH2 0x26AA PUSH2 0x1ED5 JUMP JUMPDEST JUMPDEST DUP2 CALLDATALOAD PUSH2 0x26BB DUP5 DUP3 PUSH1 0x20 DUP7 ADD PUSH2 0x262F JUMP JUMPDEST SWAP2 POP POP SWAP3 SWAP2 POP POP JUMP JUMPDEST PUSH0 DUP1 PUSH1 0x40 DUP4 DUP6 SUB SLT ISZERO PUSH2 0x26DA JUMPI PUSH2 0x26D9 PUSH2 0x1ECD JUMP JUMPDEST JUMPDEST PUSH0 DUP4 ADD CALLDATALOAD PUSH8 0xFFFFFFFFFFFFFFFF DUP2 GT ISZERO PUSH2 0x26F7 JUMPI PUSH2 0x26F6 PUSH2 0x1ED1 JUMP JUMPDEST JUMPDEST PUSH2 0x2703 DUP6 DUP3 DUP7 ADD PUSH2 0x25AD JUMP JUMPDEST SWAP3 POP POP PUSH1 0x20 DUP4 ADD CALLDATALOAD PUSH8 0xFFFFFFFFFFFFFFFF DUP2 GT ISZERO PUSH2 0x2724 JUMPI PUSH2 0x2723 PUSH2 0x1ED1 JUMP JUMPDEST JUMPDEST PUSH2 0x2730 DUP6 DUP3 DUP7 ADD PUSH2 0x2697 JUMP JUMPDEST SWAP2 POP POP SWAP3 POP SWAP3 SWAP1 POP JUMP JUMPDEST PUSH0 PUSH1 0x20 DUP3 ADD SWAP1 POP PUSH2 0x274D PUSH0 DUP4 ADD DUP5 PUSH2 0x215D JUMP JUMPDEST SWAP3 SWAP2 POP POP JUMP JUMPDEST PUSH0 DUP3 DUP3 MSTORE PUSH1 0x20 DUP3 ADD SWAP1 POP SWAP3 SWAP2 POP POP JUMP JUMPDEST PUSH32 0x637265617465496E6865726974616E636528292C2061646963696F6E65206F73 PUSH0 DUP3 ADD MSTORE PUSH32 0x20686572646569726F7300000000000000000000000000000000000000000000 PUSH1 0x20 DUP3 ADD MSTORE POP JUMP JUMPDEST PUSH0 PUSH2 0x27BD PUSH1 0x2A DUP4 PUSH2 0x2753 JUMP JUMPDEST SWAP2 POP PUSH2 0x27C8 DUP3 PUSH2 0x2763 JUMP JUMPDEST PUSH1 0x40 DUP3 ADD SWAP1 POP SWAP2 SWAP1 POP JUMP JUMPDEST PUSH0 PUSH1 0x20 DUP3 ADD SWAP1 POP DUP2 DUP2 SUB PUSH0 DUP4 ADD MSTORE PUSH2 0x27EA DUP2 PUSH2 0x27B1 JUMP JUMPDEST SWAP1 POP SWAP2 SWAP1 POP JUMP JUMPDEST PUSH32 0x637265617465496E6865726974616E636528292C207175616E74696461646520 PUSH0 DUP3 ADD MSTORE PUSH32 0x646520656E64657265636F73206520706F7263656E746167656E732064696665 PUSH1 0x20 DUP3 ADD MSTORE PUSH32 0x72656E7465730000000000000000000000000000000000000000000000000000 PUSH1 0x40 DUP3 ADD MSTORE POP JUMP JUMPDEST PUSH0 PUSH2 0x2871 PUSH1 0x46 DUP4 PUSH2 0x2753 JUMP JUMPDEST SWAP2 POP PUSH2 0x287C DUP3 PUSH2 0x27F1 JUMP JUMPDEST PUSH1 0x60 DUP3 ADD SWAP1 POP SWAP2 SWAP1 POP JUMP JUMPDEST PUSH0 PUSH1 0x20 DUP3 ADD SWAP1 POP DUP2 DUP2 SUB PUSH0 DUP4 ADD MSTORE PUSH2 0x289E DUP2 PUSH2 0x2865 JUMP JUMPDEST SWAP1 POP SWAP2 SWAP1 POP JUMP JUMPDEST PUSH32 0x4E487B7100000000000000000000000000000000000000000000000000000000 PUSH0 MSTORE PUSH1 0x32 PUSH1 0x4 MSTORE PUSH1 0x24 PUSH0 REVERT JUMPDEST PUSH0 PUSH1 0x20 DUP3 DUP5 SUB SLT ISZERO PUSH2 0x28E7 JUMPI PUSH2 0x28E6 PUSH2 0x1ECD JUMP JUMPDEST JUMPDEST PUSH0 PUSH2 0x28F4 DUP5 DUP3 DUP6 ADD PUSH2 0x261B JUMP JUMPDEST SWAP2 POP POP SWAP3 SWAP2 POP POP JUMP JUMPDEST PUSH32 0x766F6365206E616F20706F737375692074657374616D656E746F206372696164 PUSH0 DUP3 ADD MSTORE PUSH32 0x6F00000000000000000000000000000000000000000000000000000000000000 PUSH1 0x20 DUP3 ADD MSTORE POP JUMP JUMPDEST PUSH0 PUSH2 0x2957 PUSH1 0x21 DUP4 PUSH2 0x2753 JUMP JUMPDEST SWAP2 POP PUSH2 0x2962 DUP3 PUSH2 0x28FD JUMP JUMPDEST PUSH1 0x40 DUP3 ADD SWAP1 POP SWAP2 SWAP1 POP JUMP JUMPDEST PUSH0 PUSH1 0x20 DUP3 ADD SWAP1 POP DUP2 DUP2 SUB PUSH0 DUP4 ADD MSTORE PUSH2 0x2984 DUP2 PUSH2 0x294B JUMP JUMPDEST SWAP1 POP SWAP2 SWAP1 POP JUMP JUMPDEST PUSH32 0x696E7369726120756D2076616C6F720000000000000000000000000000000000 PUSH0 DUP3 ADD MSTORE POP JUMP JUMPDEST PUSH0 PUSH2 0x29BF PUSH1 0xF DUP4 PUSH2 0x2753 JUMP JUMPDEST SWAP2 POP PUSH2 0x29CA DUP3 PUSH2 0x298B JUMP JUMPDEST PUSH1 0x20 DUP3 ADD SWAP1 POP SWAP2 SWAP1 POP JUMP JUMPDEST PUSH0 PUSH1 0x20 DUP3 ADD SWAP1 POP DUP2 DUP2 SUB PUSH0 DUP4 ADD MSTORE PUSH2 0x29EC DUP2 PUSH2 0x29B3 JUMP JUMPDEST SWAP1 POP SWAP2 SWAP1 POP JUMP JUMPDEST PUSH32 0x4E487B7100000000000000000000000000000000000000000000000000000000 PUSH0 MSTORE PUSH1 0x11 PUSH1 0x4 MSTORE PUSH1 0x24 PUSH0 REVERT JUMPDEST PUSH0 PUSH2 0x2A2A DUP3 PUSH2 0x208E JUMP JUMPDEST SWAP2 POP PUSH2 0x2A35 DUP4 PUSH2 0x208E JUMP JUMPDEST SWAP3 POP DUP3 DUP3 ADD SWAP1 POP DUP1 DUP3 GT ISZERO PUSH2 0x2A4D JUMPI PUSH2 0x2A4C PUSH2 0x29F3 JUMP JUMPDEST JUMPDEST SWAP3 SWAP2 POP POP JUMP JUMPDEST PUSH32 0x766F6365206E616F20706F737375692074657374616D656E746F000000000000 PUSH0 DUP3 ADD MSTORE POP JUMP JUMPDEST PUSH0 PUSH2 0x2A87 PUSH1 0x1A DUP4 PUSH2 0x2753 JUMP JUMPDEST SWAP2 POP PUSH2 0x2A92 DUP3 PUSH2 0x2A53 JUMP JUMPDEST PUSH1 0x20 DUP3 ADD SWAP1 POP SWAP2 SWAP1 POP JUMP JUMPDEST PUSH0 PUSH1 0x20 DUP3 ADD SWAP1 POP DUP2 DUP2 SUB PUSH0 DUP4 ADD MSTORE PUSH2 0x2AB4 DUP2 PUSH2 0x2A7B JUMP JUMPDEST SWAP1 POP SWAP2 SWAP1 POP JUMP JUMPDEST PUSH0 DUP2 SWAP1 POP SWAP3 SWAP2 POP POP JUMP JUMPDEST POP JUMP JUMPDEST PUSH0 PUSH2 0x2AD3 PUSH0 DUP4 PUSH2 0x2ABB JUMP JUMPDEST SWAP2 POP PUSH2 0x2ADE DUP3 PUSH2 0x2AC5 JUMP JUMPDEST PUSH0 DUP3 ADD SWAP1 POP SWAP2 SWAP1 POP JUMP JUMPDEST PUSH0 PUSH2 0x2AF2 DUP3 PUSH2 0x2AC8 JUMP JUMPDEST SWAP2 POP DUP2 SWAP1 POP SWAP2 SWAP1 POP JUMP JUMPDEST PUSH32 0x63616E63656C54657374616D656E7428292C2046616C686120616F20656E7669 PUSH0 DUP3 ADD MSTORE PUSH32 0x6172204554480000000000000000000000000000000000000000000000000000 PUSH1 0x20 DUP3 ADD MSTORE POP JUMP JUMPDEST PUSH0 PUSH2 0x2B56 PUSH1 0x26 DUP4 PUSH2 0x2753 JUMP JUMPDEST SWAP2 POP PUSH2 0x2B61 DUP3 PUSH2 0x2AFC JUMP JUMPDEST PUSH1 0x40 DUP3 ADD SWAP1 POP SWAP2 SWAP1 POP JUMP JUMPDEST PUSH0 PUSH1 0x20 DUP3 ADD SWAP1 POP DUP2 DUP2 SUB PUSH0 DUP4 ADD MSTORE PUSH2 0x2B83 DUP2 PUSH2 0x2B4A JUMP JUMPDEST SWAP1 POP SWAP2 SWAP1 POP JUMP JUMPDEST PUSH32 0x41207265746972616461206E616F20706F646520736572207265616C697A6164 PUSH0 DUP3 ADD MSTORE PUSH32 0x6100000000000000000000000000000000000000000000000000000000000000 PUSH1 0x20 DUP3 ADD MSTORE POP JUMP JUMPDEST PUSH0 PUSH2 0x2BE4 PUSH1 0x21 DUP4 PUSH2 0x2753 JUMP JUMPDEST SWAP2 POP PUSH2 0x2BEF DUP3 PUSH2 0x2B8A JUMP JUMPDEST PUSH1 0x40 DUP3 ADD SWAP1 POP SWAP2 SWAP1 POP JUMP JUMPDEST PUSH0 PUSH1 0x20 DUP3 ADD SWAP1 POP DUP2 DUP2 SUB PUSH0 DUP4 ADD MSTORE PUSH2 0x2C11 DUP2 PUSH2 0x2BD8 JUMP JUMPDEST SWAP1 POP SWAP2 SWAP1 POP JUMP JUMPDEST PUSH32 0x6E616F2074656D20686572646569726F73000000000000000000000000000000 PUSH0 DUP3 ADD MSTORE POP JUMP JUMPDEST PUSH0 PUSH2 0x2C4C PUSH1 0x11 DUP4 PUSH2 0x2753 JUMP JUMPDEST SWAP2 POP PUSH2 0x2C57 DUP3 PUSH2 0x2C18 JUMP JUMPDEST PUSH1 0x20 DUP3 ADD SWAP1 POP SWAP2 SWAP1 POP JUMP JUMPDEST PUSH0 PUSH1 0x20 DUP3 ADD SWAP1 POP DUP2 DUP2 SUB PUSH0 DUP4 ADD MSTORE PUSH2 0x2C79 DUP2 PUSH2 0x2C40 JUMP JUMPDEST SWAP1 POP SWAP2 SWAP1 POP JUMP JUMPDEST PUSH32 0x74657374616D656E746F2065207175656D20746120726F64616E646F20612066 PUSH0 DUP3 ADD MSTORE PUSH32 0x756E63616F2064652073617175652073616F206469666572656E746573000000 PUSH1 0x20 DUP3 ADD MSTORE POP JUMP JUMPDEST PUSH0 PUSH2 0x2CDA PUSH1 0x3D DUP4 PUSH2 0x2753 JUMP JUMPDEST SWAP2 POP PUSH2 0x2CE5 DUP3 PUSH2 0x2C80 JUMP JUMPDEST PUSH1 0x40 DUP3 ADD SWAP1 POP SWAP2 SWAP1 POP JUMP JUMPDEST PUSH0 PUSH1 0x20 DUP3 ADD SWAP1 POP DUP2 DUP2 SUB PUSH0 DUP4 ADD MSTORE PUSH2 0x2D07 DUP2 PUSH2 0x2CCE JUMP JUMPDEST SWAP1 POP SWAP2 SWAP1 POP JUMP JUMPDEST PUSH32 0x6E616F20706F6465207361636172000000000000000000000000000000000000 PUSH0 DUP3 ADD MSTORE POP JUMP JUMPDEST PUSH0 PUSH2 0x2D42 PUSH1 0xE DUP4 PUSH2 0x2753 JUMP JUMPDEST SWAP2 POP PUSH2 0x2D4D DUP3 PUSH2 0x2D0E JUMP JUMPDEST PUSH1 0x20 DUP3 ADD SWAP1 POP SWAP2 SWAP1 POP JUMP JUMPDEST PUSH0 PUSH1 0x20 DUP3 ADD SWAP1 POP DUP2 DUP2 SUB PUSH0 DUP4 ADD MSTORE PUSH2 0x2D6F DUP2 PUSH2 0x2D36 JUMP JUMPDEST SWAP1 POP SWAP2 SWAP1 POP JUMP JUMPDEST PUSH32 0x46616C686120616F20656E766961722045544800000000000000000000000000 PUSH0 DUP3 ADD MSTORE POP JUMP JUMPDEST PUSH0 PUSH2 0x2DAA PUSH1 0x13 DUP4 PUSH2 0x2753 JUMP JUMPDEST SWAP2 POP PUSH2 0x2DB5 DUP3 PUSH2 0x2D76 JUMP JUMPDEST PUSH1 0x20 DUP3 ADD SWAP1 POP SWAP2 SWAP1 POP JUMP JUMPDEST PUSH0 PUSH1 0x20 DUP3 ADD SWAP1 POP DUP2 DUP2 SUB PUSH0 DUP4 ADD MSTORE PUSH2 0x2DD7 DUP2 PUSH2 0x2D9E JUMP JUMPDEST SWAP1 POP SWAP2 SWAP1 POP JUMP JUMPDEST PUSH32 0x766F6365206E616F2074656D206973736F207475646F20616900000000000000 PUSH0 DUP3 ADD MSTORE POP JUMP JUMPDEST PUSH0 PUSH2 0x2E12 PUSH1 0x19 DUP4 PUSH2 0x2753 JUMP JUMPDEST SWAP2 POP PUSH2 0x2E1D DUP3 PUSH2 0x2DDE JUMP JUMPDEST PUSH1 0x20 DUP3 ADD SWAP1 POP SWAP2 SWAP1 POP JUMP JUMPDEST PUSH0 PUSH1 0x20 DUP3 ADD SWAP1 POP DUP2 DUP2 SUB PUSH0 DUP4 ADD MSTORE PUSH2 0x2E3F DUP2 PUSH2 0x2E06 JUMP JUMPDEST SWAP1 POP SWAP2 SWAP1 POP JUMP JUMPDEST PUSH32 0x6E616F207469726F750000000000000000000000000000000000000000000000 PUSH0 DUP3 ADD MSTORE POP JUMP JUMPDEST PUSH0 PUSH2 0x2E7A PUSH1 0x9 DUP4 PUSH2 0x2753 JUMP JUMPDEST SWAP2 POP PUSH2 0x2E85 DUP3 PUSH2 0x2E46 JUMP JUMPDEST PUSH1 0x20 DUP3 ADD SWAP1 POP SWAP2 SWAP1 POP JUMP JUMPDEST PUSH0 PUSH1 0x20 DUP3 ADD SWAP1 POP DUP2 DUP2 SUB PUSH0 DUP4 ADD MSTORE PUSH2 0x2EA7 DUP2 PUSH2 0x2E6E JUMP JUMPDEST SWAP1 POP SWAP2 SWAP1 POP JUMP JUMPDEST PUSH0 PUSH2 0x2EB8 DUP3 PUSH2 0x208E JUMP JUMPDEST SWAP2 POP PUSH2 0x2EC3 DUP4 PUSH2 0x208E JUMP JUMPDEST SWAP3 POP DUP3 DUP3 SUB SWAP1 POP DUP2 DUP2 GT ISZERO PUSH2 0x2EDB JUMPI PUSH2 0x2EDA PUSH2 0x29F3 JUMP JUMPDEST JUMPDEST SWAP3 SWAP2 POP POP JUMP JUMPDEST PUSH32 0x5465737461646F72206E616F20656E636F6E747261646F000000000000000000 PUSH0 DUP3 ADD MSTORE POP JUMP JUMPDEST PUSH0 PUSH2 0x2F15 PUSH1 0x17 DUP4 PUSH2 0x2753 JUMP JUMPDEST SWAP2 POP PUSH2 0x2F20 DUP3 PUSH2 0x2EE1 JUMP JUMPDEST PUSH1 0x20 DUP3 ADD SWAP1 POP SWAP2 SWAP1 POP JUMP JUMPDEST PUSH0 PUSH1 0x20 DUP3 ADD SWAP1 POP DUP2 DUP2 SUB PUSH0 DUP4 ADD MSTORE PUSH2 0x2F42 DUP2 PUSH2 0x2F09 JUMP JUMPDEST SWAP1 POP SWAP2 SWAP1 POP JUMP JUMPDEST PUSH0 PUSH8 0xFFFFFFFFFFFFFFFF DUP3 AND SWAP1 POP SWAP2 SWAP1 POP JUMP JUMPDEST PUSH0 PUSH2 0x2F66 DUP3 PUSH2 0x2F49 JUMP JUMPDEST SWAP2 POP PUSH8 0xFFFFFFFFFFFFFFFF DUP3 SUB PUSH2 0x2F80 JUMPI PUSH2 0x2F7F PUSH2 0x29F3 JUMP JUMPDEST JUMPDEST PUSH1 0x1 DUP3 ADD SWAP1 POP SWAP2 SWAP1 POP JUMP JUMPDEST PUSH32 0x566F6365206E616F20706F73737569206E656E68756D2074657374616D656E74 PUSH0 DUP3 ADD MSTORE PUSH32 0x6F2063726961646F000000000000000000000000000000000000000000000000 PUSH1 0x20 DUP3 ADD MSTORE POP JUMP JUMPDEST PUSH0 PUSH2 0x2FE5 PUSH1 0x28 DUP4 PUSH2 0x2753 JUMP JUMPDEST SWAP2 POP PUSH2 0x2FF0 DUP3 PUSH2 0x2F8B JUMP JUMPDEST PUSH1 0x40 DUP3 ADD SWAP1 POP SWAP2 SWAP1 POP JUMP JUMPDEST PUSH0 PUSH1 0x20 DUP3 ADD SWAP1 POP DUP2 DUP2 SUB PUSH0 DUP4 ADD MSTORE PUSH2 0x3012 DUP2 PUSH2 0x2FD9 JUMP JUMPDEST SWAP1 POP SWAP2 SWAP1 POP JUMP JUMPDEST PUSH32 0x637265617465496E6865726974616E636528292C2076616C6F7220696E76616C PUSH0 DUP3 ADD MSTORE PUSH32 0x69646F0000000000000000000000000000000000000000000000000000000000 PUSH1 0x20 DUP3 ADD MSTORE POP JUMP JUMPDEST PUSH0 PUSH2 0x3073 PUSH1 0x23 DUP4 PUSH2 0x2753 JUMP JUMPDEST SWAP2 POP PUSH2 0x307E DUP3 PUSH2 0x3019 JUMP JUMPDEST PUSH1 0x40 DUP3 ADD SWAP1 POP SWAP2 SWAP1 POP JUMP JUMPDEST PUSH0 PUSH1 0x20 DUP3 ADD SWAP1 POP DUP2 DUP2 SUB PUSH0 DUP4 ADD MSTORE PUSH2 0x30A0 DUP2 PUSH2 0x3067 JUMP JUMPDEST SWAP1 POP SWAP2 SWAP1 POP JUMP JUMPDEST PUSH32 0x637265617465496E6865726974616E636528292C20766F6365206A612074656D PUSH0 DUP3 ADD MSTORE PUSH32 0x20756D2074657374616D656E746F2063726961646F2C20656469746520656C65 PUSH1 0x20 DUP3 ADD MSTORE POP JUMP JUMPDEST PUSH0 PUSH2 0x3101 PUSH1 0x40 DUP4 PUSH2 0x2753 JUMP JUMPDEST SWAP2 POP PUSH2 0x310C DUP3 PUSH2 0x30A7 JUMP JUMPDEST PUSH1 0x40 DUP3 ADD SWAP1 POP SWAP2 SWAP1 POP JUMP JUMPDEST PUSH0 PUSH1 0x20 DUP3 ADD SWAP1 POP DUP2 DUP2 SUB PUSH0 DUP4 ADD MSTORE PUSH2 0x312E DUP2 PUSH2 0x30F5 JUMP JUMPDEST SWAP1 POP SWAP2 SWAP1 POP JUMP JUMPDEST PUSH32 0x54657374616D656E746F206E616F20656E636F6E747261646F00000000000000 PUSH0 DUP3 ADD MSTORE POP JUMP JUMPDEST PUSH0 PUSH2 0x3169 PUSH1 0x19 DUP4 PUSH2 0x2753 JUMP JUMPDEST SWAP2 POP PUSH2 0x3174 DUP3 PUSH2 0x3135 JUMP JUMPDEST PUSH1 0x20 DUP3 ADD SWAP1 POP SWAP2 SWAP1 POP JUMP JUMPDEST PUSH0 PUSH1 0x20 DUP3 ADD SWAP1 POP DUP2 DUP2 SUB PUSH0 DUP4 ADD MSTORE PUSH2 0x3196 DUP2 PUSH2 0x315D JUMP JUMPDEST SWAP1 POP SWAP2 SWAP1 POP JUMP JUMPDEST PUSH32 0x4E487B7100000000000000000000000000000000000000000000000000000000 PUSH0 MSTORE PUSH1 0x31 PUSH1 0x4 MSTORE PUSH1 0x24 PUSH0 REVERT INVALID LOG2 PUSH5 0x6970667358 0x22 SLT KECCAK256 0xB3 0xA8 BLOBBASEFEE 0xD9 AND PUSH15 0xA6D3E01D31732C86ACFA827EB3D253 0x2B 0x2D MSTORE8 0xA5 0xA7 0xC2 0xED 0xC0 0xED 0xC3 PUSH5 0x64736F6C63 NUMBER STOP ADDMOD BYTE STOP CALLER "
				},
				"gasEstimates": {
					"creation": {
						"codeDepositCost": "2560000",
						"executionCost": "2761",
						"totalCost": "2562761"
					},
					"external": {
						"addAssetsInTestament()": "infinite",
						"cancelTestament()": "infinite",
						"createInheritance(address[],uint16[])": "infinite",
						"editInheritorsInMyTestament(address[],uint16[])": "infinite",
						"getMyTestament(address)": "infinite",
						"getMyTestators()": "infinite",
						"inheritorToTestators(address,uint256)": "infinite",
						"inheritorsCanWithdraw(address)": "infinite",
						"removeAssetsInTestament(uint256)": "infinite",
						"testament(address)": "7370",
						"updateProofOfLife()": "26854",
						"withdraw(address)": "infinite"
					},
					"internal": {
						"clearOldInheritorsOfTestament(address)": "infinite"
					}
				},
				"methodIdentifiers": {
					"addAssetsInTestament()": "0d78946e",
					"cancelTestament()": "1aba6da6",
					"createInheritance(address[],uint16[])": "e7a84bc3",
					"editInheritorsInMyTestament(address[],uint16[])": "0bbd5839",
					"getMyTestament(address)": "c6064610",
					"getMyTestators()": "ca7252ea",
					"inheritorToTestators(address,uint256)": "5b084db9",
					"inheritorsCanWithdraw(address)": "f3550b9b",
					"removeAssetsInTestament(uint256)": "5bd36e29",
					"testament(address)": "7618d0a7",
					"updateProofOfLife()": "c80cc411",
					"withdraw(address)": "51cff8d9"
				}
			},
			"storageLayout": {
				"storage": [
					{
						"astId": 30,
						"contract": ".deps/studying-solidity/testament/Testament.sol:Testament",
						"label": "testament",
						"offset": 0,
						"slot": "0",
						"type": "t_mapping(t_address,t_struct(Testament)19_storage)"
					},
					{
						"astId": 35,
						"contract": ".deps/studying-solidity/testament/Testament.sol:Testament",
						"label": "inheritorToTestators",
						"offset": 0,
						"slot": "1",
						"type": "t_mapping(t_address,t_array(t_address)dyn_storage)"
					}
				],
				"types": {
					"t_address": {
						"encoding": "inplace",
						"label": "address",
						"numberOfBytes": "20"
					},
					"t_array(t_address)dyn_storage": {
						"base": "t_address",
						"encoding": "dynamic_array",
						"label": "address[]",
						"numberOfBytes": "32"
					},
					"t_array(t_struct(Inheritor)8_storage)dyn_storage": {
						"base": "t_struct(Inheritor)8_storage",
						"encoding": "dynamic_array",
						"label": "struct StructsToTestament.Inheritor[]",
						"numberOfBytes": "32"
					},
					"t_bool": {
						"encoding": "inplace",
						"label": "bool",
						"numberOfBytes": "1"
					},
					"t_mapping(t_address,t_array(t_address)dyn_storage)": {
						"encoding": "mapping",
						"key": "t_address",
						"label": "mapping(address => address[])",
						"numberOfBytes": "32",
						"value": "t_array(t_address)dyn_storage"
					},
					"t_mapping(t_address,t_struct(Testament)19_storage)": {
						"encoding": "mapping",
						"key": "t_address",
						"label": "mapping(address => struct StructsToTestament.Testament)",
						"numberOfBytes": "32",
						"value": "t_struct(Testament)19_storage"
					},
					"t_struct(Inheritor)8_storage": {
						"encoding": "inplace",
						"label": "struct StructsToTestament.Inheritor",
						"members": [
							{
								"astId": 3,
								"contract": ".deps/studying-solidity/testament/Testament.sol:Testament",
								"label": "inheritorAddress",
								"offset": 0,
								"slot": "0",
								"type": "t_address"
							},
							{
								"astId": 5,
								"contract": ".deps/studying-solidity/testament/Testament.sol:Testament",
								"label": "percentage",
								"offset": 20,
								"slot": "0",
								"type": "t_uint16"
							},
							{
								"astId": 7,
								"contract": ".deps/studying-solidity/testament/Testament.sol:Testament",
								"label": "canWithdraw",
								"offset": 22,
								"slot": "0",
								"type": "t_bool"
							}
						],
						"numberOfBytes": "32"
					},
					"t_struct(Testament)19_storage": {
						"encoding": "inplace",
						"label": "struct StructsToTestament.Testament",
						"members": [
							{
								"astId": 12,
								"contract": ".deps/studying-solidity/testament/Testament.sol:Testament",
								"label": "inheritors",
								"offset": 0,
								"slot": "0",
								"type": "t_array(t_struct(Inheritor)8_storage)dyn_storage"
							},
							{
								"astId": 14,
								"contract": ".deps/studying-solidity/testament/Testament.sol:Testament",
								"label": "exist",
								"offset": 0,
								"slot": "1",
								"type": "t_bool"
							},
							{
								"astId": 16,
								"contract": ".deps/studying-solidity/testament/Testament.sol:Testament",
								"label": "lastProofOfLife",
								"offset": 1,
								"slot": "1",
								"type": "t_uint128"
							},
							{
								"astId": 18,
								"contract": ".deps/studying-solidity/testament/Testament.sol:Testament",
								"label": "inheritanceValue",
								"offset": 0,
								"slot": "2",
								"type": "t_uint256"
							}
						],
						"numberOfBytes": "96"
					},
					"t_uint128": {
						"encoding": "inplace",
						"label": "uint128",
						"numberOfBytes": "16"
					},
					"t_uint16": {
						"encoding": "inplace",
						"label": "uint16",
						"numberOfBytes": "2"
					},
					"t_uint256": {
						"encoding": "inplace",
						"label": "uint256",
						"numberOfBytes": "32"
					}
				}
			},
			"userdoc": {
				"kind": "user",
				"methods": {},
				"version": 1
			}
		}
	}
}