{
	".deps/studying-solidity/testament/Testament.sol": {
		"Testament": {
			"abi": [
				{
					"inputs": [],
					"name": "addAssetsInTestament",
					"outputs": [],
					"stateMutability": "payable",
					"type": "function"
				},
				{
					"inputs": [],
					"name": "cancelTestament",
					"outputs": [],
					"stateMutability": "nonpayable",
					"type": "function"
				},
				{
					"inputs": [
						{
							"internalType": "address[]",
							"name": "_addresses",
							"type": "address[]"
						},
						{
							"internalType": "uint16[]",
							"name": "_percentagens",
							"type": "uint16[]"
						}
					],
					"name": "createInheritance",
					"outputs": [],
					"stateMutability": "payable",
					"type": "function"
				},
				{
					"inputs": [
						{
							"internalType": "address[]",
							"name": "inheritorsAddresses",
							"type": "address[]"
						},
						{
							"internalType": "uint16[]",
							"name": "percentages",
							"type": "uint16[]"
						}
					],
					"name": "editInheritorsInMyTestament",
					"outputs": [],
					"stateMutability": "nonpayable",
					"type": "function"
				},
				{
					"inputs": [
						{
							"internalType": "address",
							"name": "testator",
							"type": "address"
						}
					],
					"name": "getMyTestament",
					"outputs": [
						{
							"internalType": "address[]",
							"name": "",
							"type": "address[]"
						},
						{
							"internalType": "uint16[]",
							"name": "",
							"type": "uint16[]"
						},
						{
							"internalType": "bool[]",
							"name": "",
							"type": "bool[]"
						},
						{
							"internalType": "uint128",
							"name": "",
							"type": "uint128"
						},
						{
							"internalType": "uint256",
							"name": "",
							"type": "uint256"
						}
					],
					"stateMutability": "view",
					"type": "function"
				},
				{
					"inputs": [],
					"name": "getMyTestators",
					"outputs": [
						{
							"internalType": "address[]",
							"name": "",
							"type": "address[]"
						}
					],
					"stateMutability": "view",
					"type": "function"
				},
				{
					"inputs": [
						{
							"internalType": "address",
							"name": "",
							"type": "address"
						},
						{
							"internalType": "uint256",
							"name": "",
							"type": "uint256"
						}
					],
					"name": "inheritorToTestators",
					"outputs": [
						{
							"internalType": "address",
							"name": "",
							"type": "address"
						}
					],
					"stateMutability": "view",
					"type": "function"
				},
				{
					"inputs": [
						{
							"internalType": "address",
							"name": "testator",
							"type": "address"
						}
					],
					"name": "inheritorsCanWithdrawal",
					"outputs": [
						{
							"internalType": "bool",
							"name": "",
							"type": "bool"
						}
					],
					"stateMutability": "view",
					"type": "function"
				},
				{
					"inputs": [
						{
							"internalType": "uint256",
							"name": "value",
							"type": "uint256"
						}
					],
					"name": "removeAssetsInTestament",
					"outputs": [],
					"stateMutability": "nonpayable",
					"type": "function"
				},
				{
					"inputs": [
						{
							"internalType": "address",
							"name": "",
							"type": "address"
						}
					],
					"name": "testament",
					"outputs": [
						{
							"internalType": "bool",
							"name": "exist",
							"type": "bool"
						},
						{
							"internalType": "uint128",
							"name": "lastProofOfLife",
							"type": "uint128"
						},
						{
							"internalType": "uint256",
							"name": "inheritanceValue",
							"type": "uint256"
						}
					],
					"stateMutability": "view",
					"type": "function"
				},
				{
					"inputs": [],
					"name": "updateProofOfLife",
					"outputs": [],
					"stateMutability": "nonpayable",
					"type": "function"
				},
				{
					"inputs": [
						{
							"internalType": "address",
							"name": "testator",
							"type": "address"
						}
					],
					"name": "withdraw",
					"outputs": [],
					"stateMutability": "nonpayable",
					"type": "function"
				}
			],
			"devdoc": {
				"kind": "dev",
				"methods": {},
				"version": 1
			},
			"evm": {
				"assembly": "    /* \".deps/studying-solidity/testament/Testament.sol\":104:9202  contract Testament is StructsToTestament {... */\n  mstore(0x40, 0x80)\n  callvalue\n  dup1\n  iszero\n  tag_1\n  jumpi\n  0x00\n  dup1\n  revert\ntag_1:\n  pop\n  dataSize(sub_0)\n  dup1\n  dataOffset(sub_0)\n  0x00\n  codecopy\n  0x00\n  return\nstop\n\nsub_0: assembly {\n        /* \".deps/studying-solidity/testament/Testament.sol\":104:9202  contract Testament is StructsToTestament {... */\n      mstore(0x40, 0x80)\n      jumpi(tag_1, lt(calldatasize, 0x04))\n      shr(0xe0, calldataload(0x00))\n      dup1\n      0x5df11fb7\n      gt\n      tag_14\n      jumpi\n      dup1\n      0x5df11fb7\n      eq\n      tag_8\n      jumpi\n      dup1\n      0x7618d0a7\n      eq\n      tag_9\n      jumpi\n      dup1\n      0xc6064610\n      eq\n      tag_10\n      jumpi\n      dup1\n      0xc80cc411\n      eq\n      tag_11\n      jumpi\n      dup1\n      0xca7252ea\n      eq\n      tag_12\n      jumpi\n      dup1\n      0xe7a84bc3\n      eq\n      tag_13\n      jumpi\n      jump(tag_1)\n    tag_14:\n      dup1\n      0x0bbd5839\n      eq\n      tag_2\n      jumpi\n      dup1\n      0x0d78946e\n      eq\n      tag_3\n      jumpi\n      dup1\n      0x1aba6da6\n      eq\n      tag_4\n      jumpi\n      dup1\n      0x51cff8d9\n      eq\n      tag_5\n      jumpi\n      dup1\n      0x5b084db9\n      eq\n      tag_6\n      jumpi\n      dup1\n      0x5bd36e29\n      eq\n      tag_7\n      jumpi\n    tag_1:\n      0x00\n      dup1\n      revert\n        /* \".deps/studying-solidity/testament/Testament.sol\":3270:4479  function editInheritorsInMyTestament(... */\n    tag_2:\n      callvalue\n      dup1\n      iszero\n      tag_15\n      jumpi\n      0x00\n      dup1\n      revert\n    tag_15:\n      pop\n      tag_16\n      0x04\n      dup1\n      calldatasize\n      sub\n      dup2\n      add\n      swap1\n      tag_17\n      swap2\n      swap1\n      tag_18\n      jump\t// in\n    tag_17:\n      tag_19\n      jump\t// in\n    tag_16:\n      stop\n        /* \".deps/studying-solidity/testament/Testament.sol\":6758:7051  function addAssetsInTestament() external payable {... */\n    tag_3:\n      tag_20\n      tag_21\n      jump\t// in\n    tag_20:\n      stop\n        /* \".deps/studying-solidity/testament/Testament.sol\":4485:4937  function cancelTestament() external {... */\n    tag_4:\n      callvalue\n      dup1\n      iszero\n      tag_22\n      jumpi\n      0x00\n      dup1\n      revert\n    tag_22:\n      pop\n      tag_23\n      tag_24\n      jump\t// in\n    tag_23:\n      stop\n        /* \".deps/studying-solidity/testament/Testament.sol\":7577:9200  function withdraw(address testator) external {... */\n    tag_5:\n      callvalue\n      dup1\n      iszero\n      tag_25\n      jumpi\n      0x00\n      dup1\n      revert\n    tag_25:\n      pop\n      tag_26\n      0x04\n      dup1\n      calldatasize\n      sub\n      dup2\n      add\n      swap1\n      tag_27\n      swap2\n      swap1\n      tag_28\n      jump\t// in\n    tag_27:\n      tag_29\n      jump\t// in\n    tag_26:\n      stop\n        /* \".deps/studying-solidity/testament/Testament.sol\":308:365  mapping(address => address[]) public inheritorToTestators */\n    tag_6:\n      callvalue\n      dup1\n      iszero\n      tag_30\n      jumpi\n      0x00\n      dup1\n      revert\n    tag_30:\n      pop\n      tag_31\n      0x04\n      dup1\n      calldatasize\n      sub\n      dup2\n      add\n      swap1\n      tag_32\n      swap2\n      swap1\n      tag_33\n      jump\t// in\n    tag_32:\n      tag_34\n      jump\t// in\n    tag_31:\n      mload(0x40)\n      tag_35\n      swap2\n      swap1\n      tag_36\n      jump\t// in\n    tag_35:\n      mload(0x40)\n      dup1\n      swap2\n      sub\n      swap1\n      return\n        /* \".deps/studying-solidity/testament/Testament.sol\":7057:7544  function removeAssetsInTestament(uint256 value) external {... */\n    tag_7:\n      callvalue\n      dup1\n      iszero\n      tag_37\n      jumpi\n      0x00\n      dup1\n      revert\n    tag_37:\n      pop\n      tag_38\n      0x04\n      dup1\n      calldatasize\n      sub\n      dup2\n      add\n      swap1\n      tag_39\n      swap2\n      swap1\n      tag_40\n      jump\t// in\n    tag_39:\n      tag_41\n      jump\t// in\n    tag_38:\n      stop\n        /* \".deps/studying-solidity/testament/Testament.sol\":6465:6752  function inheritorsCanWithdrawal(address testator)... */\n    tag_8:\n      callvalue\n      dup1\n      iszero\n      tag_42\n      jumpi\n      0x00\n      dup1\n      revert\n    tag_42:\n      pop\n      tag_43\n      0x04\n      dup1\n      calldatasize\n      sub\n      dup2\n      add\n      swap1\n      tag_44\n      swap2\n      swap1\n      tag_28\n      jump\t// in\n    tag_44:\n      tag_45\n      jump\t// in\n    tag_43:\n      mload(0x40)\n      tag_46\n      swap2\n      swap1\n      tag_47\n      jump\t// in\n    tag_46:\n      mload(0x40)\n      dup1\n      swap2\n      sub\n      swap1\n      return\n        /* \".deps/studying-solidity/testament/Testament.sol\":188:234  mapping(address => Testament) public testament */\n    tag_9:\n      callvalue\n      dup1\n      iszero\n      tag_48\n      jumpi\n      0x00\n      dup1\n      revert\n    tag_48:\n      pop\n      tag_49\n      0x04\n      dup1\n      calldatasize\n      sub\n      dup2\n      add\n      swap1\n      tag_50\n      swap2\n      swap1\n      tag_28\n      jump\t// in\n    tag_50:\n      tag_51\n      jump\t// in\n    tag_49:\n      mload(0x40)\n      tag_52\n      swap4\n      swap3\n      swap2\n      swap1\n      tag_53\n      jump\t// in\n    tag_52:\n      mload(0x40)\n      dup1\n      swap2\n      sub\n      swap1\n      return\n        /* \".deps/studying-solidity/testament/Testament.sol\":1808:3013  function getMyTestament(address testator)... */\n    tag_10:\n      callvalue\n      dup1\n      iszero\n      tag_54\n      jumpi\n      0x00\n      dup1\n      revert\n    tag_54:\n      pop\n      tag_55\n      0x04\n      dup1\n      calldatasize\n      sub\n      dup2\n      add\n      swap1\n      tag_56\n      swap2\n      swap1\n      tag_28\n      jump\t// in\n    tag_56:\n      tag_57\n      jump\t// in\n    tag_55:\n      mload(0x40)\n      tag_58\n      swap6\n      swap5\n      swap4\n      swap3\n      swap2\n      swap1\n      tag_59\n      jump\t// in\n    tag_58:\n      mload(0x40)\n      dup1\n      swap2\n      sub\n      swap1\n      return\n        /* \".deps/studying-solidity/testament/Testament.sol\":4943:5204  function updateProofOfLife() public {... */\n    tag_11:\n      callvalue\n      dup1\n      iszero\n      tag_60\n      jumpi\n      0x00\n      dup1\n      revert\n    tag_60:\n      pop\n      tag_61\n      tag_62\n      jump\t// in\n    tag_61:\n      stop\n        /* \".deps/studying-solidity/testament/Testament.sol\":3019:3264  function getMyTestators() external view returns (address[] memory) {... */\n    tag_12:\n      callvalue\n      dup1\n      iszero\n      tag_63\n      jumpi\n      0x00\n      dup1\n      revert\n    tag_63:\n      pop\n      tag_64\n      tag_65\n      jump\t// in\n    tag_64:\n      mload(0x40)\n      tag_66\n      swap2\n      swap1\n      tag_67\n      jump\t// in\n    tag_66:\n      mload(0x40)\n      dup1\n      swap2\n      sub\n      swap1\n      return\n        /* \".deps/studying-solidity/testament/Testament.sol\":372:1802  function createInheritance(... */\n    tag_13:\n      tag_68\n      0x04\n      dup1\n      calldatasize\n      sub\n      dup2\n      add\n      swap1\n      tag_69\n      swap2\n      swap1\n      tag_70\n      jump\t// in\n    tag_69:\n      tag_71\n      jump\t// in\n    tag_68:\n      stop\n        /* \".deps/studying-solidity/testament/Testament.sol\":3270:4479  function editInheritorsInMyTestament(... */\n    tag_19:\n        /* \".deps/studying-solidity/testament/Testament.sol\":3419:3440  address _ownTestament */\n      0x00\n        /* \".deps/studying-solidity/testament/Testament.sol\":3443:3453  msg.sender */\n      caller\n        /* \".deps/studying-solidity/testament/Testament.sol\":3419:3453  address _ownTestament = msg.sender */\n      swap1\n      pop\n        /* \".deps/studying-solidity/testament/Testament.sol\":3514:3515  0 */\n      0x00\n        /* \".deps/studying-solidity/testament/Testament.sol\":3484:3503  inheritorsAddresses */\n      dup6\n      dup6\n        /* \".deps/studying-solidity/testament/Testament.sol\":3484:3510  inheritorsAddresses.length */\n      swap1\n      pop\n        /* \".deps/studying-solidity/testament/Testament.sol\":3484:3515  inheritorsAddresses.length != 0 */\n      sub\n        /* \".deps/studying-solidity/testament/Testament.sol\":3463:3583  require(... */\n      tag_73\n      jumpi\n      mload(0x40)\n      0x08c379a000000000000000000000000000000000000000000000000000000000\n      dup2\n      mstore\n      0x04\n      add\n      tag_74\n      swap1\n      tag_75\n      jump\t// in\n    tag_74:\n      mload(0x40)\n      dup1\n      swap2\n      sub\n      swap1\n      revert\n    tag_73:\n        /* \".deps/studying-solidity/testament/Testament.sol\":3644:3655  percentages */\n      dup3\n      dup3\n        /* \".deps/studying-solidity/testament/Testament.sol\":3644:3662  percentages.length */\n      swap1\n      pop\n        /* \".deps/studying-solidity/testament/Testament.sol\":3614:3633  inheritorsAddresses */\n      dup6\n      dup6\n        /* \".deps/studying-solidity/testament/Testament.sol\":3614:3640  inheritorsAddresses.length */\n      swap1\n      pop\n        /* \".deps/studying-solidity/testament/Testament.sol\":3614:3662  inheritorsAddresses.length == percentages.length */\n      eq\n        /* \".deps/studying-solidity/testament/Testament.sol\":3593:3758  require(... */\n      tag_76\n      jumpi\n      mload(0x40)\n      0x08c379a000000000000000000000000000000000000000000000000000000000\n      dup2\n      mstore\n      0x04\n      add\n      tag_77\n      swap1\n      tag_78\n      jump\t// in\n    tag_77:\n      mload(0x40)\n      dup1\n      swap2\n      sub\n      swap1\n      revert\n    tag_76:\n        /* \".deps/studying-solidity/testament/Testament.sol\":3769:3813  clearOldInheritorsOfTestament(_ownTestament) */\n      tag_79\n        /* \".deps/studying-solidity/testament/Testament.sol\":3799:3812  _ownTestament */\n      dup2\n        /* \".deps/studying-solidity/testament/Testament.sol\":3769:3798  clearOldInheritorsOfTestament */\n      tag_80\n        /* \".deps/studying-solidity/testament/Testament.sol\":3769:3813  clearOldInheritorsOfTestament(_ownTestament) */\n      jump\t// in\n    tag_79:\n        /* \".deps/studying-solidity/testament/Testament.sol\":3932:3941  testament */\n      0x00\n        /* \".deps/studying-solidity/testament/Testament.sol\":3932:3956  testament[_ownTestament] */\n      dup1\n        /* \".deps/studying-solidity/testament/Testament.sol\":3942:3955  _ownTestament */\n      dup3\n        /* \".deps/studying-solidity/testament/Testament.sol\":3932:3956  testament[_ownTestament] */\n      0xffffffffffffffffffffffffffffffffffffffff\n      and\n      0xffffffffffffffffffffffffffffffffffffffff\n      and\n      dup2\n      mstore\n      0x20\n      add\n      swap1\n      dup2\n      mstore\n      0x20\n      add\n      0x00\n      keccak256\n        /* \".deps/studying-solidity/testament/Testament.sol\":3932:3967  testament[_ownTestament].inheritors */\n      0x00\n      add\n      0x00\n        /* \".deps/studying-solidity/testament/Testament.sol\":3925:3967  delete testament[_ownTestament].inheritors */\n      tag_81\n      swap2\n      swap1\n      tag_82\n      jump\t// in\n    tag_81:\n        /* \".deps/studying-solidity/testament/Testament.sol\":3983:3992  uint256 i */\n      0x00\n        /* \".deps/studying-solidity/testament/Testament.sol\":3978:4473  for (uint256 i = 0; i < inheritorsAddresses.length; i++) {... */\n    tag_83:\n        /* \".deps/studying-solidity/testament/Testament.sol\":4002:4021  inheritorsAddresses */\n      dup6\n      dup6\n        /* \".deps/studying-solidity/testament/Testament.sol\":4002:4028  inheritorsAddresses.length */\n      swap1\n      pop\n        /* \".deps/studying-solidity/testament/Testament.sol\":3998:3999  i */\n      dup2\n        /* \".deps/studying-solidity/testament/Testament.sol\":3998:4028  i < inheritorsAddresses.length */\n      lt\n        /* \".deps/studying-solidity/testament/Testament.sol\":3978:4473  for (uint256 i = 0; i < inheritorsAddresses.length; i++) {... */\n      iszero\n      tag_84\n      jumpi\n        /* \".deps/studying-solidity/testament/Testament.sol\":4049:4076  Inheritor memory _inheritor */\n      0x00\n        /* \".deps/studying-solidity/testament/Testament.sol\":4079:4196  Inheritor(... */\n      mload(0x40)\n      dup1\n      0x60\n      add\n      0x40\n      mstore\n      dup1\n        /* \".deps/studying-solidity/testament/Testament.sol\":4106:4125  inheritorsAddresses */\n      dup9\n      dup9\n        /* \".deps/studying-solidity/testament/Testament.sol\":4126:4127  i */\n      dup6\n        /* \".deps/studying-solidity/testament/Testament.sol\":4106:4128  inheritorsAddresses[i] */\n      dup2\n      dup2\n      lt\n      tag_86\n      jumpi\n      tag_87\n      tag_88\n      jump\t// in\n    tag_87:\n    tag_86:\n      swap1\n      pop\n      0x20\n      mul\n      add\n      0x20\n      dup2\n      add\n      swap1\n      tag_89\n      swap2\n      swap1\n      tag_28\n      jump\t// in\n    tag_89:\n        /* \".deps/studying-solidity/testament/Testament.sol\":4079:4196  Inheritor(... */\n      0xffffffffffffffffffffffffffffffffffffffff\n      and\n      dup2\n      mstore\n      0x20\n      add\n        /* \".deps/studying-solidity/testament/Testament.sol\":4146:4157  percentages */\n      dup7\n      dup7\n        /* \".deps/studying-solidity/testament/Testament.sol\":4158:4159  i */\n      dup6\n        /* \".deps/studying-solidity/testament/Testament.sol\":4146:4160  percentages[i] */\n      dup2\n      dup2\n      lt\n      tag_90\n      jumpi\n      tag_91\n      tag_88\n      jump\t// in\n    tag_91:\n    tag_90:\n      swap1\n      pop\n      0x20\n      mul\n      add\n      0x20\n      dup2\n      add\n      swap1\n      tag_92\n      swap2\n      swap1\n      tag_93\n      jump\t// in\n    tag_92:\n        /* \".deps/studying-solidity/testament/Testament.sol\":4079:4196  Inheritor(... */\n      0xffff\n      and\n      dup2\n      mstore\n      0x20\n      add\n        /* \".deps/studying-solidity/testament/Testament.sol\":4178:4182  true */\n      0x01\n        /* \".deps/studying-solidity/testament/Testament.sol\":4079:4196  Inheritor(... */\n      iszero\n      iszero\n      dup2\n      mstore\n      pop\n        /* \".deps/studying-solidity/testament/Testament.sol\":4049:4196  Inheritor memory _inheritor = Inheritor(... */\n      swap1\n      pop\n        /* \".deps/studying-solidity/testament/Testament.sol\":4263:4272  testament */\n      0x00\n        /* \".deps/studying-solidity/testament/Testament.sol\":4263:4287  testament[_ownTestament] */\n      dup1\n        /* \".deps/studying-solidity/testament/Testament.sol\":4273:4286  _ownTestament */\n      dup5\n        /* \".deps/studying-solidity/testament/Testament.sol\":4263:4287  testament[_ownTestament] */\n      0xffffffffffffffffffffffffffffffffffffffff\n      and\n      0xffffffffffffffffffffffffffffffffffffffff\n      and\n      dup2\n      mstore\n      0x20\n      add\n      swap1\n      dup2\n      mstore\n      0x20\n      add\n      0x00\n      keccak256\n        /* \".deps/studying-solidity/testament/Testament.sol\":4263:4298  testament[_ownTestament].inheritors */\n      0x00\n      add\n        /* \".deps/studying-solidity/testament/Testament.sol\":4304:4314  _inheritor */\n      dup2\n        /* \".deps/studying-solidity/testament/Testament.sol\":4263:4315  testament[_ownTestament].inheritors.push(_inheritor) */\n      swap1\n      dup1\n      0x01\n      dup2\n      sload\n      add\n      dup1\n      dup3\n      sstore\n      dup1\n      swap2\n      pop\n      pop\n      0x01\n      swap1\n      sub\n      swap1\n      0x00\n      mstore\n      keccak256(0x00, 0x20)\n      add\n      0x00\n      swap1\n      swap2\n      swap1\n      swap2\n      swap1\n      swap2\n      pop\n      0x00\n      dup3\n      add\n      mload\n      dup2\n      0x00\n      add\n      exp(0x0100, 0x00)\n      dup2\n      sload\n      dup2\n      0xffffffffffffffffffffffffffffffffffffffff\n      mul\n      not\n      and\n      swap1\n      dup4\n      0xffffffffffffffffffffffffffffffffffffffff\n      and\n      mul\n      or\n      swap1\n      sstore\n      pop\n      0x20\n      dup3\n      add\n      mload\n      dup2\n      0x00\n      add\n      exp(0x0100, 0x14)\n      dup2\n      sload\n      dup2\n      0xffff\n      mul\n      not\n      and\n      swap1\n      dup4\n      0xffff\n      and\n      mul\n      or\n      swap1\n      sstore\n      pop\n      0x40\n      dup3\n      add\n      mload\n      dup2\n      0x00\n      add\n      exp(0x0100, 0x16)\n      dup2\n      sload\n      dup2\n      0xff\n      mul\n      not\n      and\n      swap1\n      dup4\n      iszero\n      iszero\n      mul\n      or\n      swap1\n      sstore\n      pop\n      pop\n      pop\n        /* \".deps/studying-solidity/testament/Testament.sol\":4398:4418  inheritorToTestators */\n      0x01\n        /* \".deps/studying-solidity/testament/Testament.sol\":4398:4442  inheritorToTestators[inheritorsAddresses[i]] */\n      0x00\n        /* \".deps/studying-solidity/testament/Testament.sol\":4419:4438  inheritorsAddresses */\n      dup9\n      dup9\n        /* \".deps/studying-solidity/testament/Testament.sol\":4439:4440  i */\n      dup6\n        /* \".deps/studying-solidity/testament/Testament.sol\":4419:4441  inheritorsAddresses[i] */\n      dup2\n      dup2\n      lt\n      tag_95\n      jumpi\n      tag_96\n      tag_88\n      jump\t// in\n    tag_96:\n    tag_95:\n      swap1\n      pop\n      0x20\n      mul\n      add\n      0x20\n      dup2\n      add\n      swap1\n      tag_97\n      swap2\n      swap1\n      tag_28\n      jump\t// in\n    tag_97:\n        /* \".deps/studying-solidity/testament/Testament.sol\":4398:4442  inheritorToTestators[inheritorsAddresses[i]] */\n      0xffffffffffffffffffffffffffffffffffffffff\n      and\n      0xffffffffffffffffffffffffffffffffffffffff\n      and\n      dup2\n      mstore\n      0x20\n      add\n      swap1\n      dup2\n      mstore\n      0x20\n      add\n      0x00\n      keccak256\n        /* \".deps/studying-solidity/testament/Testament.sol\":4448:4461  _ownTestament */\n      dup4\n        /* \".deps/studying-solidity/testament/Testament.sol\":4398:4462  inheritorToTestators[inheritorsAddresses[i]].push(_ownTestament) */\n      swap1\n      dup1\n      0x01\n      dup2\n      sload\n      add\n      dup1\n      dup3\n      sstore\n      dup1\n      swap2\n      pop\n      pop\n      0x01\n      swap1\n      sub\n      swap1\n      0x00\n      mstore\n      keccak256(0x00, 0x20)\n      add\n      0x00\n      swap1\n      swap2\n      swap1\n      swap2\n      swap1\n      swap2\n      0x0100\n      exp\n      dup2\n      sload\n      dup2\n      0xffffffffffffffffffffffffffffffffffffffff\n      mul\n      not\n      and\n      swap1\n      dup4\n      0xffffffffffffffffffffffffffffffffffffffff\n      and\n      mul\n      or\n      swap1\n      sstore\n      pop\n        /* \".deps/studying-solidity/testament/Testament.sol\":4035:4473  {... */\n      pop\n        /* \".deps/studying-solidity/testament/Testament.sol\":4030:4033  i++ */\n      dup1\n      dup1\n      0x01\n      add\n      swap2\n      pop\n      pop\n        /* \".deps/studying-solidity/testament/Testament.sol\":3978:4473  for (uint256 i = 0; i < inheritorsAddresses.length; i++) {... */\n      jump(tag_83)\n    tag_84:\n      pop\n        /* \".deps/studying-solidity/testament/Testament.sol\":3409:4479  {... */\n      pop\n        /* \".deps/studying-solidity/testament/Testament.sol\":3270:4479  function editInheritorsInMyTestament(... */\n      pop\n      pop\n      pop\n      pop\n      jump\t// out\n        /* \".deps/studying-solidity/testament/Testament.sol\":6758:7051  function addAssetsInTestament() external payable {... */\n    tag_21:\n        /* \".deps/studying-solidity/testament/Testament.sol\":6869:6873  true */\n      0x01\n        /* \".deps/studying-solidity/testament/Testament.sol\":6838:6873  testament[msg.sender].exist == true */\n      iszero\n      iszero\n        /* \".deps/studying-solidity/testament/Testament.sol\":6838:6847  testament */\n      0x00\n        /* \".deps/studying-solidity/testament/Testament.sol\":6838:6859  testament[msg.sender] */\n      dup1\n        /* \".deps/studying-solidity/testament/Testament.sol\":6848:6858  msg.sender */\n      caller\n        /* \".deps/studying-solidity/testament/Testament.sol\":6838:6859  testament[msg.sender] */\n      0xffffffffffffffffffffffffffffffffffffffff\n      and\n      0xffffffffffffffffffffffffffffffffffffffff\n      and\n      dup2\n      mstore\n      0x20\n      add\n      swap1\n      dup2\n      mstore\n      0x20\n      add\n      0x00\n      keccak256\n        /* \".deps/studying-solidity/testament/Testament.sol\":6838:6865  testament[msg.sender].exist */\n      0x01\n      add\n      0x00\n      swap1\n      sload\n      swap1\n      0x0100\n      exp\n      swap1\n      div\n      0xff\n      and\n        /* \".deps/studying-solidity/testament/Testament.sol\":6838:6873  testament[msg.sender].exist == true */\n      iszero\n      iszero\n      eq\n        /* \".deps/studying-solidity/testament/Testament.sol\":6817:6932  require(... */\n      tag_100\n      jumpi\n      mload(0x40)\n      0x08c379a000000000000000000000000000000000000000000000000000000000\n      dup2\n      mstore\n      0x04\n      add\n      tag_101\n      swap1\n      tag_102\n      jump\t// in\n    tag_101:\n      mload(0x40)\n      dup1\n      swap2\n      sub\n      swap1\n      revert\n    tag_100:\n        /* \".deps/studying-solidity/testament/Testament.sol\":6962:6963  0 */\n      0x00\n        /* \".deps/studying-solidity/testament/Testament.sol\":6950:6959  msg.value */\n      callvalue\n        /* \".deps/studying-solidity/testament/Testament.sol\":6950:6963  msg.value > 0 */\n      gt\n        /* \".deps/studying-solidity/testament/Testament.sol\":6942:6983  require(msg.value > 0, \"insira um valor\") */\n      tag_103\n      jumpi\n      mload(0x40)\n      0x08c379a000000000000000000000000000000000000000000000000000000000\n      dup2\n      mstore\n      0x04\n      add\n      tag_104\n      swap1\n      tag_105\n      jump\t// in\n    tag_104:\n      mload(0x40)\n      dup1\n      swap2\n      sub\n      swap1\n      revert\n    tag_103:\n        /* \".deps/studying-solidity/testament/Testament.sol\":7035:7044  msg.value */\n      callvalue\n        /* \".deps/studying-solidity/testament/Testament.sol\":6993:7002  testament */\n      0x00\n        /* \".deps/studying-solidity/testament/Testament.sol\":6993:7014  testament[msg.sender] */\n      dup1\n        /* \".deps/studying-solidity/testament/Testament.sol\":7003:7013  msg.sender */\n      caller\n        /* \".deps/studying-solidity/testament/Testament.sol\":6993:7014  testament[msg.sender] */\n      0xffffffffffffffffffffffffffffffffffffffff\n      and\n      0xffffffffffffffffffffffffffffffffffffffff\n      and\n      dup2\n      mstore\n      0x20\n      add\n      swap1\n      dup2\n      mstore\n      0x20\n      add\n      0x00\n      keccak256\n        /* \".deps/studying-solidity/testament/Testament.sol\":6993:7031  testament[msg.sender].inheritanceValue */\n      0x02\n      add\n      0x00\n        /* \".deps/studying-solidity/testament/Testament.sol\":6993:7044  testament[msg.sender].inheritanceValue += msg.value */\n      dup3\n      dup3\n      sload\n      tag_106\n      swap2\n      swap1\n      tag_107\n      jump\t// in\n    tag_106:\n      swap3\n      pop\n      pop\n      dup2\n      swap1\n      sstore\n      pop\n        /* \".deps/studying-solidity/testament/Testament.sol\":6758:7051  function addAssetsInTestament() external payable {... */\n      jump\t// out\n        /* \".deps/studying-solidity/testament/Testament.sol\":4485:4937  function cancelTestament() external {... */\n    tag_24:\n        /* \".deps/studying-solidity/testament/Testament.sol\":4531:4552  address _ownTestament */\n      0x00\n        /* \".deps/studying-solidity/testament/Testament.sol\":4555:4565  msg.sender */\n      caller\n        /* \".deps/studying-solidity/testament/Testament.sol\":4531:4565  address _ownTestament = msg.sender */\n      swap1\n      pop\n        /* \".deps/studying-solidity/testament/Testament.sol\":4584:4593  testament */\n      0x00\n        /* \".deps/studying-solidity/testament/Testament.sol\":4584:4608  testament[_ownTestament] */\n      dup1\n        /* \".deps/studying-solidity/testament/Testament.sol\":4594:4607  _ownTestament */\n      dup3\n        /* \".deps/studying-solidity/testament/Testament.sol\":4584:4608  testament[_ownTestament] */\n      0xffffffffffffffffffffffffffffffffffffffff\n      and\n      0xffffffffffffffffffffffffffffffffffffffff\n      and\n      dup2\n      mstore\n      0x20\n      add\n      swap1\n      dup2\n      mstore\n      0x20\n      add\n      0x00\n      keccak256\n        /* \".deps/studying-solidity/testament/Testament.sol\":4584:4614  testament[_ownTestament].exist */\n      0x01\n      add\n      0x00\n      swap1\n      sload\n      swap1\n      0x0100\n      exp\n      swap1\n      div\n      0xff\n      and\n        /* \".deps/studying-solidity/testament/Testament.sol\":4576:4645  require(testament[_ownTestament].exist, \"voce nao possui testamento\") */\n      tag_109\n      jumpi\n      mload(0x40)\n      0x08c379a000000000000000000000000000000000000000000000000000000000\n      dup2\n      mstore\n      0x04\n      add\n      tag_110\n      swap1\n      tag_111\n      jump\t// in\n    tag_110:\n      mload(0x40)\n      dup1\n      swap2\n      sub\n      swap1\n      revert\n    tag_109:\n        /* \".deps/studying-solidity/testament/Testament.sol\":4656:4668  bool success */\n      0x00\n        /* \".deps/studying-solidity/testament/Testament.sol\":4674:4684  msg.sender */\n      caller\n        /* \".deps/studying-solidity/testament/Testament.sol\":4674:4689  msg.sender.call */\n      0xffffffffffffffffffffffffffffffffffffffff\n      and\n        /* \".deps/studying-solidity/testament/Testament.sol\":4710:4719  testament */\n      0x00\n        /* \".deps/studying-solidity/testament/Testament.sol\":4710:4734  testament[_ownTestament] */\n      dup1\n        /* \".deps/studying-solidity/testament/Testament.sol\":4720:4733  _ownTestament */\n      dup5\n        /* \".deps/studying-solidity/testament/Testament.sol\":4710:4734  testament[_ownTestament] */\n      0xffffffffffffffffffffffffffffffffffffffff\n      and\n      0xffffffffffffffffffffffffffffffffffffffff\n      and\n      dup2\n      mstore\n      0x20\n      add\n      swap1\n      dup2\n      mstore\n      0x20\n      add\n      0x00\n      keccak256\n        /* \".deps/studying-solidity/testament/Testament.sol\":4710:4751  testament[_ownTestament].inheritanceValue */\n      0x02\n      add\n      sload\n        /* \".deps/studying-solidity/testament/Testament.sol\":4674:4765  msg.sender.call{... */\n      mload(0x40)\n      tag_112\n      swap1\n      tag_113\n      jump\t// in\n    tag_112:\n      0x00\n      mload(0x40)\n      dup1\n      dup4\n      sub\n      dup2\n      dup6\n      dup8\n      gas\n      call\n      swap3\n      pop\n      pop\n      pop\n      returndatasize\n      dup1\n      0x00\n      dup2\n      eq\n      tag_116\n      jumpi\n      mload(0x40)\n      swap2\n      pop\n      and(add(returndatasize, 0x3f), not(0x1f))\n      dup3\n      add\n      0x40\n      mstore\n      returndatasize\n      dup3\n      mstore\n      returndatasize\n      0x00\n      0x20\n      dup5\n      add\n      returndatacopy\n      jump(tag_115)\n    tag_116:\n      0x60\n      swap2\n      pop\n    tag_115:\n      pop\n        /* \".deps/studying-solidity/testament/Testament.sol\":4655:4765  (bool success, ) = msg.sender.call{... */\n      pop\n      swap1\n      pop\n        /* \".deps/studying-solidity/testament/Testament.sol\":4783:4790  success */\n      dup1\n        /* \".deps/studying-solidity/testament/Testament.sol\":4775:4833  require(success, \"cancelTestament(), Falha ao enviar ETH\") */\n      tag_117\n      jumpi\n      mload(0x40)\n      0x08c379a000000000000000000000000000000000000000000000000000000000\n      dup2\n      mstore\n      0x04\n      add\n      tag_118\n      swap1\n      tag_119\n      jump\t// in\n    tag_118:\n      mload(0x40)\n      dup1\n      swap2\n      sub\n      swap1\n      revert\n    tag_117:\n        /* \".deps/studying-solidity/testament/Testament.sol\":4844:4888  clearOldInheritorsOfTestament(_ownTestament) */\n      tag_120\n        /* \".deps/studying-solidity/testament/Testament.sol\":4874:4887  _ownTestament */\n      dup3\n        /* \".deps/studying-solidity/testament/Testament.sol\":4844:4873  clearOldInheritorsOfTestament */\n      tag_80\n        /* \".deps/studying-solidity/testament/Testament.sol\":4844:4888  clearOldInheritorsOfTestament(_ownTestament) */\n      jump\t// in\n    tag_120:\n        /* \".deps/studying-solidity/testament/Testament.sol\":4906:4915  testament */\n      0x00\n        /* \".deps/studying-solidity/testament/Testament.sol\":4906:4930  testament[_ownTestament] */\n      dup1\n        /* \".deps/studying-solidity/testament/Testament.sol\":4916:4929  _ownTestament */\n      dup4\n        /* \".deps/studying-solidity/testament/Testament.sol\":4906:4930  testament[_ownTestament] */\n      0xffffffffffffffffffffffffffffffffffffffff\n      and\n      0xffffffffffffffffffffffffffffffffffffffff\n      and\n      dup2\n      mstore\n      0x20\n      add\n      swap1\n      dup2\n      mstore\n      0x20\n      add\n      0x00\n      keccak256\n      0x00\n        /* \".deps/studying-solidity/testament/Testament.sol\":4899:4930  delete testament[_ownTestament] */\n      dup1\n      dup3\n      add\n      0x00\n      tag_121\n      swap2\n      swap1\n      tag_82\n      jump\t// in\n    tag_121:\n      0x01\n      dup3\n      add\n      exp(0x0100, 0x00)\n      dup2\n      sload\n      swap1\n      0xff\n      mul\n      not\n      and\n      swap1\n      sstore\n      0x01\n      dup3\n      add\n      exp(0x0100, 0x01)\n      dup2\n      sload\n      swap1\n      0xffffffffffffffffffffffffffffffff\n      mul\n      not\n      and\n      swap1\n      sstore\n      0x02\n      dup3\n      add\n      0x00\n      swap1\n      sstore\n      pop\n      pop\n        /* \".deps/studying-solidity/testament/Testament.sol\":4521:4937  {... */\n      pop\n      pop\n        /* \".deps/studying-solidity/testament/Testament.sol\":4485:4937  function cancelTestament() external {... */\n      jump\t// out\n        /* \".deps/studying-solidity/testament/Testament.sol\":7577:9200  function withdraw(address testator) external {... */\n    tag_29:\n        /* \".deps/studying-solidity/testament/Testament.sol\":7632:7650  address _inheritor */\n      0x00\n        /* \".deps/studying-solidity/testament/Testament.sol\":7653:7663  msg.sender */\n      caller\n        /* \".deps/studying-solidity/testament/Testament.sol\":7632:7663  address _inheritor = msg.sender */\n      swap1\n      pop\n        /* \".deps/studying-solidity/testament/Testament.sol\":7736:7769  inheritorsCanWithdrawal(testator) */\n      tag_123\n        /* \".deps/studying-solidity/testament/Testament.sol\":7760:7768  testator */\n      dup3\n        /* \".deps/studying-solidity/testament/Testament.sol\":7736:7759  inheritorsCanWithdrawal */\n      tag_45\n        /* \".deps/studying-solidity/testament/Testament.sol\":7736:7769  inheritorsCanWithdrawal(testator) */\n      jump\t// in\n    tag_123:\n        /* \".deps/studying-solidity/testament/Testament.sol\":7715:7828  require(... */\n      tag_124\n      jumpi\n      mload(0x40)\n      0x08c379a000000000000000000000000000000000000000000000000000000000\n      dup2\n      mstore\n      0x04\n      add\n      tag_125\n      swap1\n      tag_126\n      jump\t// in\n    tag_125:\n      mload(0x40)\n      dup1\n      swap2\n      sub\n      swap1\n      revert\n    tag_124:\n        /* \".deps/studying-solidity/testament/Testament.sol\":7887:7888  0 */\n      0x00\n        /* \".deps/studying-solidity/testament/Testament.sol\":7847:7856  testament */\n      dup1\n        /* \".deps/studying-solidity/testament/Testament.sol\":7847:7866  testament[testator] */\n      0x00\n        /* \".deps/studying-solidity/testament/Testament.sol\":7857:7865  testator */\n      dup5\n        /* \".deps/studying-solidity/testament/Testament.sol\":7847:7866  testament[testator] */\n      0xffffffffffffffffffffffffffffffffffffffff\n      and\n      0xffffffffffffffffffffffffffffffffffffffff\n      and\n      dup2\n      mstore\n      0x20\n      add\n      swap1\n      dup2\n      mstore\n      0x20\n      add\n      0x00\n      keccak256\n        /* \".deps/studying-solidity/testament/Testament.sol\":7847:7877  testament[testator].inheritors */\n      0x00\n      add\n        /* \".deps/studying-solidity/testament/Testament.sol\":7847:7884  testament[testator].inheritors.length */\n      dup1\n      sload\n      swap1\n      pop\n        /* \".deps/studying-solidity/testament/Testament.sol\":7847:7888  testament[testator].inheritors.length > 0 */\n      gt\n        /* \".deps/studying-solidity/testament/Testament.sol\":7839:7910  require(testament[testator].inheritors.length > 0, \"nao tem herdeiros\") */\n      tag_127\n      jumpi\n      mload(0x40)\n      0x08c379a000000000000000000000000000000000000000000000000000000000\n      dup2\n      mstore\n      0x04\n      add\n      tag_128\n      swap1\n      tag_129\n      jump\t// in\n    tag_128:\n      mload(0x40)\n      dup1\n      swap2\n      sub\n      swap1\n      revert\n    tag_127:\n        /* \".deps/studying-solidity/testament/Testament.sol\":7926:7935  uint256 i */\n      0x00\n        /* \".deps/studying-solidity/testament/Testament.sol\":7921:9194  for (uint256 i = 0; i < testament[testator].inheritors.length; i++) {... */\n    tag_130:\n        /* \".deps/studying-solidity/testament/Testament.sol\":7945:7954  testament */\n      0x00\n        /* \".deps/studying-solidity/testament/Testament.sol\":7945:7964  testament[testator] */\n      dup1\n        /* \".deps/studying-solidity/testament/Testament.sol\":7955:7963  testator */\n      dup5\n        /* \".deps/studying-solidity/testament/Testament.sol\":7945:7964  testament[testator] */\n      0xffffffffffffffffffffffffffffffffffffffff\n      and\n      0xffffffffffffffffffffffffffffffffffffffff\n      and\n      dup2\n      mstore\n      0x20\n      add\n      swap1\n      dup2\n      mstore\n      0x20\n      add\n      0x00\n      keccak256\n        /* \".deps/studying-solidity/testament/Testament.sol\":7945:7975  testament[testator].inheritors */\n      0x00\n      add\n        /* \".deps/studying-solidity/testament/Testament.sol\":7945:7982  testament[testator].inheritors.length */\n      dup1\n      sload\n      swap1\n      pop\n        /* \".deps/studying-solidity/testament/Testament.sol\":7941:7942  i */\n      dup2\n        /* \".deps/studying-solidity/testament/Testament.sol\":7941:7982  i < testament[testator].inheritors.length */\n      lt\n        /* \".deps/studying-solidity/testament/Testament.sol\":7921:9194  for (uint256 i = 0; i < testament[testator].inheritors.length; i++) {... */\n      iszero\n      tag_131\n      jumpi\n        /* \".deps/studying-solidity/testament/Testament.sol\":8003:8040  Inheritor memory inheritorOfTestament */\n      0x00\n        /* \".deps/studying-solidity/testament/Testament.sol\":8043:8052  testament */\n      dup1\n        /* \".deps/studying-solidity/testament/Testament.sol\":8043:8062  testament[testator] */\n      0x00\n        /* \".deps/studying-solidity/testament/Testament.sol\":8053:8061  testator */\n      dup6\n        /* \".deps/studying-solidity/testament/Testament.sol\":8043:8062  testament[testator] */\n      0xffffffffffffffffffffffffffffffffffffffff\n      and\n      0xffffffffffffffffffffffffffffffffffffffff\n      and\n      dup2\n      mstore\n      0x20\n      add\n      swap1\n      dup2\n      mstore\n      0x20\n      add\n      0x00\n      keccak256\n        /* \".deps/studying-solidity/testament/Testament.sol\":8043:8090  testament[testator]... */\n      0x00\n      add\n        /* \".deps/studying-solidity/testament/Testament.sol\":8091:8092  i */\n      dup3\n        /* \".deps/studying-solidity/testament/Testament.sol\":8043:8093  testament[testator]... */\n      dup2\n      sload\n      dup2\n      lt\n      tag_133\n      jumpi\n      tag_134\n      tag_88\n      jump\t// in\n    tag_134:\n    tag_133:\n      swap1\n      0x00\n      mstore\n      keccak256(0x00, 0x20)\n      add\n        /* \".deps/studying-solidity/testament/Testament.sol\":8003:8093  Inheritor memory inheritorOfTestament = testament[testator]... */\n      mload(0x40)\n      dup1\n      0x60\n      add\n      0x40\n      mstore\n      swap1\n      dup2\n      0x00\n      dup3\n      add\n      0x00\n      swap1\n      sload\n      swap1\n      0x0100\n      exp\n      swap1\n      div\n      0xffffffffffffffffffffffffffffffffffffffff\n      and\n      0xffffffffffffffffffffffffffffffffffffffff\n      and\n      0xffffffffffffffffffffffffffffffffffffffff\n      and\n      dup2\n      mstore\n      0x20\n      add\n      0x00\n      dup3\n      add\n      0x14\n      swap1\n      sload\n      swap1\n      0x0100\n      exp\n      swap1\n      div\n      0xffff\n      and\n      0xffff\n      and\n      0xffff\n      and\n      dup2\n      mstore\n      0x20\n      add\n      0x00\n      dup3\n      add\n      0x16\n      swap1\n      sload\n      swap1\n      0x0100\n      exp\n      swap1\n      div\n      0xff\n      and\n      iszero\n      iszero\n      iszero\n      iszero\n      dup2\n      mstore\n      pop\n      pop\n      swap1\n      pop\n        /* \".deps/studying-solidity/testament/Testament.sol\":8174:8184  _inheritor */\n      dup3\n        /* \".deps/studying-solidity/testament/Testament.sol\":8133:8184  inheritorOfTestament.inheritorAddress == _inheritor */\n      0xffffffffffffffffffffffffffffffffffffffff\n      and\n        /* \".deps/studying-solidity/testament/Testament.sol\":8133:8153  inheritorOfTestament */\n      dup2\n        /* \".deps/studying-solidity/testament/Testament.sol\":8133:8170  inheritorOfTestament.inheritorAddress */\n      0x00\n      add\n      mload\n        /* \".deps/studying-solidity/testament/Testament.sol\":8133:8184  inheritorOfTestament.inheritorAddress == _inheritor */\n      0xffffffffffffffffffffffffffffffffffffffff\n      and\n      eq\n        /* \".deps/studying-solidity/testament/Testament.sol\":8108:8279  require(... */\n      tag_136\n      jumpi\n      mload(0x40)\n      0x08c379a000000000000000000000000000000000000000000000000000000000\n      dup2\n      mstore\n      0x04\n      add\n      tag_137\n      swap1\n      tag_138\n      jump\t// in\n    tag_137:\n      mload(0x40)\n      dup1\n      swap2\n      sub\n      swap1\n      revert\n    tag_136:\n        /* \".deps/studying-solidity/testament/Testament.sol\":8301:8321  inheritorOfTestament */\n      dup1\n        /* \".deps/studying-solidity/testament/Testament.sol\":8301:8333  inheritorOfTestament.canWithdraw */\n      0x40\n      add\n      mload\n        /* \".deps/studying-solidity/testament/Testament.sol\":8293:8352  require(inheritorOfTestament.canWithdraw, \"nao pode sacar\") */\n      tag_139\n      jumpi\n      mload(0x40)\n      0x08c379a000000000000000000000000000000000000000000000000000000000\n      dup2\n      mstore\n      0x04\n      add\n      tag_140\n      swap1\n      tag_141\n      jump\t// in\n    tag_140:\n      mload(0x40)\n      dup1\n      swap2\n      sub\n      swap1\n      revert\n    tag_139:\n        /* \".deps/studying-solidity/testament/Testament.sol\":8725:8737  bool success */\n      0x00\n        /* \".deps/studying-solidity/testament/Testament.sol\":8772:8792  inheritorOfTestament */\n      dup2\n        /* \".deps/studying-solidity/testament/Testament.sol\":8772:8809  inheritorOfTestament.inheritorAddress */\n      0x00\n      add\n      mload\n        /* \".deps/studying-solidity/testament/Testament.sol\":8743:8832  payable(... */\n      0xffffffffffffffffffffffffffffffffffffffff\n      and\n        /* \".deps/studying-solidity/testament/Testament.sol\":8889:8898  testament */\n      0x00\n        /* \".deps/studying-solidity/testament/Testament.sol\":8889:8910  testament[_inheritor] */\n      dup1\n        /* \".deps/studying-solidity/testament/Testament.sol\":8899:8909  _inheritor */\n      dup7\n        /* \".deps/studying-solidity/testament/Testament.sol\":8889:8910  testament[_inheritor] */\n      0xffffffffffffffffffffffffffffffffffffffff\n      and\n      0xffffffffffffffffffffffffffffffffffffffff\n      and\n      dup2\n      mstore\n      0x20\n      add\n      swap1\n      dup2\n      mstore\n      0x20\n      add\n      0x00\n      keccak256\n        /* \".deps/studying-solidity/testament/Testament.sol\":8889:8948  testament[_inheritor]... */\n      0x02\n      add\n      sload\n        /* \".deps/studying-solidity/testament/Testament.sol\":8743:9018  payable(... */\n      mload(0x40)\n      tag_142\n      swap1\n      tag_113\n      jump\t// in\n    tag_142:\n      0x00\n      mload(0x40)\n      dup1\n      dup4\n      sub\n      dup2\n      dup6\n      dup8\n      gas\n      call\n      swap3\n      pop\n      pop\n      pop\n      returndatasize\n      dup1\n      0x00\n      dup2\n      eq\n      tag_145\n      jumpi\n      mload(0x40)\n      swap2\n      pop\n      and(add(returndatasize, 0x3f), not(0x1f))\n      dup3\n      add\n      0x40\n      mstore\n      returndatasize\n      dup3\n      mstore\n      returndatasize\n      0x00\n      0x20\n      dup5\n      add\n      returndatacopy\n      jump(tag_144)\n    tag_145:\n      0x60\n      swap2\n      pop\n    tag_144:\n      pop\n        /* \".deps/studying-solidity/testament/Testament.sol\":8724:9018  (bool success, ) = payable(... */\n      pop\n      swap1\n      pop\n        /* \".deps/studying-solidity/testament/Testament.sol\":9057:9064  success */\n      dup1\n        /* \".deps/studying-solidity/testament/Testament.sol\":9049:9088  require(success, \"Falha ao enviar ETH\") */\n      tag_146\n      jumpi\n      mload(0x40)\n      0x08c379a000000000000000000000000000000000000000000000000000000000\n      dup2\n      mstore\n      0x04\n      add\n      tag_147\n      swap1\n      tag_148\n      jump\t// in\n    tag_147:\n      mload(0x40)\n      dup1\n      swap2\n      sub\n      swap1\n      revert\n    tag_146:\n        /* \".deps/studying-solidity/testament/Testament.sol\":9141:9146  false */\n      0x00\n        /* \".deps/studying-solidity/testament/Testament.sol\":9106:9126  inheritorOfTestament */\n      dup3\n        /* \".deps/studying-solidity/testament/Testament.sol\":9106:9138  inheritorOfTestament.canWithdraw */\n      0x40\n      add\n        /* \".deps/studying-solidity/testament/Testament.sol\":9106:9146  inheritorOfTestament.canWithdraw = false */\n      swap1\n      iszero\n      iszero\n      swap1\n      dup2\n      iszero\n      iszero\n      dup2\n      mstore\n      pop\n      pop\n        /* \".deps/studying-solidity/testament/Testament.sol\":7989:9194  {... */\n      pop\n      pop\n        /* \".deps/studying-solidity/testament/Testament.sol\":7984:7987  i++ */\n      dup1\n      dup1\n      0x01\n      add\n      swap2\n      pop\n      pop\n        /* \".deps/studying-solidity/testament/Testament.sol\":7921:9194  for (uint256 i = 0; i < testament[testator].inheritors.length; i++) {... */\n      jump(tag_130)\n    tag_131:\n      pop\n        /* \".deps/studying-solidity/testament/Testament.sol\":7622:9200  {... */\n      pop\n        /* \".deps/studying-solidity/testament/Testament.sol\":7577:9200  function withdraw(address testator) external {... */\n      pop\n      jump\t// out\n        /* \".deps/studying-solidity/testament/Testament.sol\":308:365  mapping(address => address[]) public inheritorToTestators */\n    tag_34:\n      mstore(0x20, 0x01)\n      dup2\n      0x00\n      mstore\n      keccak256(0x00, 0x40)\n      dup2\n      dup2\n      sload\n      dup2\n      lt\n      tag_149\n      jumpi\n      0x00\n      dup1\n      revert\n    tag_149:\n      swap1\n      0x00\n      mstore\n      keccak256(0x00, 0x20)\n      add\n      0x00\n      swap2\n      pop\n      swap2\n      pop\n      swap1\n      sload\n      swap1\n      0x0100\n      exp\n      swap1\n      div\n      0xffffffffffffffffffffffffffffffffffffffff\n      and\n      dup2\n      jump\t// out\n        /* \".deps/studying-solidity/testament/Testament.sol\":7057:7544  function removeAssetsInTestament(uint256 value) external {... */\n    tag_41:\n        /* \".deps/studying-solidity/testament/Testament.sol\":7176:7180  true */\n      0x01\n        /* \".deps/studying-solidity/testament/Testament.sol\":7145:7180  testament[msg.sender].exist == true */\n      iszero\n      iszero\n        /* \".deps/studying-solidity/testament/Testament.sol\":7145:7154  testament */\n      0x00\n        /* \".deps/studying-solidity/testament/Testament.sol\":7145:7166  testament[msg.sender] */\n      dup1\n        /* \".deps/studying-solidity/testament/Testament.sol\":7155:7165  msg.sender */\n      caller\n        /* \".deps/studying-solidity/testament/Testament.sol\":7145:7166  testament[msg.sender] */\n      0xffffffffffffffffffffffffffffffffffffffff\n      and\n      0xffffffffffffffffffffffffffffffffffffffff\n      and\n      dup2\n      mstore\n      0x20\n      add\n      swap1\n      dup2\n      mstore\n      0x20\n      add\n      0x00\n      keccak256\n        /* \".deps/studying-solidity/testament/Testament.sol\":7145:7172  testament[msg.sender].exist */\n      0x01\n      add\n      0x00\n      swap1\n      sload\n      swap1\n      0x0100\n      exp\n      swap1\n      div\n      0xff\n      and\n        /* \".deps/studying-solidity/testament/Testament.sol\":7145:7180  testament[msg.sender].exist == true */\n      iszero\n      iszero\n      eq\n        /* \".deps/studying-solidity/testament/Testament.sol\":7124:7239  require(... */\n      tag_152\n      jumpi\n      mload(0x40)\n      0x08c379a000000000000000000000000000000000000000000000000000000000\n      dup2\n      mstore\n      0x04\n      add\n      tag_153\n      swap1\n      tag_102\n      jump\t// in\n    tag_153:\n      mload(0x40)\n      dup1\n      swap2\n      sub\n      swap1\n      revert\n    tag_152:\n        /* \".deps/studying-solidity/testament/Testament.sol\":7279:7288  testament */\n      0x00\n        /* \".deps/studying-solidity/testament/Testament.sol\":7279:7300  testament[msg.sender] */\n      dup1\n        /* \".deps/studying-solidity/testament/Testament.sol\":7289:7299  msg.sender */\n      caller\n        /* \".deps/studying-solidity/testament/Testament.sol\":7279:7300  testament[msg.sender] */\n      0xffffffffffffffffffffffffffffffffffffffff\n      and\n      0xffffffffffffffffffffffffffffffffffffffff\n      and\n      dup2\n      mstore\n      0x20\n      add\n      swap1\n      dup2\n      mstore\n      0x20\n      add\n      0x00\n      keccak256\n        /* \".deps/studying-solidity/testament/Testament.sol\":7279:7317  testament[msg.sender].inheritanceValue */\n      0x02\n      add\n      sload\n        /* \".deps/studying-solidity/testament/Testament.sol\":7270:7275  value */\n      dup2\n        /* \".deps/studying-solidity/testament/Testament.sol\":7270:7317  value <= testament[msg.sender].inheritanceValue */\n      gt\n      iszero\n        /* \".deps/studying-solidity/testament/Testament.sol\":7249:7368  require(... */\n      tag_154\n      jumpi\n      mload(0x40)\n      0x08c379a000000000000000000000000000000000000000000000000000000000\n      dup2\n      mstore\n      0x04\n      add\n      tag_155\n      swap1\n      tag_156\n      jump\t// in\n    tag_155:\n      mload(0x40)\n      dup1\n      swap2\n      sub\n      swap1\n      revert\n    tag_154:\n        /* \".deps/studying-solidity/testament/Testament.sol\":7380:7392  bool success */\n      0x00\n        /* \".deps/studying-solidity/testament/Testament.sol\":7406:7416  msg.sender */\n      caller\n        /* \".deps/studying-solidity/testament/Testament.sol\":7398:7422  payable(msg.sender).call */\n      0xffffffffffffffffffffffffffffffffffffffff\n      and\n        /* \".deps/studying-solidity/testament/Testament.sol\":7430:7435  value */\n      dup3\n        /* \".deps/studying-solidity/testament/Testament.sol\":7398:7440  payable(msg.sender).call{value: value}(\"\") */\n      mload(0x40)\n      tag_157\n      swap1\n      tag_113\n      jump\t// in\n    tag_157:\n      0x00\n      mload(0x40)\n      dup1\n      dup4\n      sub\n      dup2\n      dup6\n      dup8\n      gas\n      call\n      swap3\n      pop\n      pop\n      pop\n      returndatasize\n      dup1\n      0x00\n      dup2\n      eq\n      tag_160\n      jumpi\n      mload(0x40)\n      swap2\n      pop\n      and(add(returndatasize, 0x3f), not(0x1f))\n      dup3\n      add\n      0x40\n      mstore\n      returndatasize\n      dup3\n      mstore\n      returndatasize\n      0x00\n      0x20\n      dup5\n      add\n      returndatacopy\n      jump(tag_159)\n    tag_160:\n      0x60\n      swap2\n      pop\n    tag_159:\n      pop\n        /* \".deps/studying-solidity/testament/Testament.sol\":7379:7440  (bool success, ) = payable(msg.sender).call{value: value}(\"\") */\n      pop\n      swap1\n      pop\n        /* \".deps/studying-solidity/testament/Testament.sol\":7459:7466  success */\n      dup1\n        /* \".deps/studying-solidity/testament/Testament.sol\":7451:7480  require(success, \"nao tirou\") */\n      tag_161\n      jumpi\n      mload(0x40)\n      0x08c379a000000000000000000000000000000000000000000000000000000000\n      dup2\n      mstore\n      0x04\n      add\n      tag_162\n      swap1\n      tag_163\n      jump\t// in\n    tag_162:\n      mload(0x40)\n      dup1\n      swap2\n      sub\n      swap1\n      revert\n    tag_161:\n        /* \".deps/studying-solidity/testament/Testament.sol\":7532:7537  value */\n      dup2\n        /* \".deps/studying-solidity/testament/Testament.sol\":7490:7499  testament */\n      0x00\n        /* \".deps/studying-solidity/testament/Testament.sol\":7490:7511  testament[msg.sender] */\n      dup1\n        /* \".deps/studying-solidity/testament/Testament.sol\":7500:7510  msg.sender */\n      caller\n        /* \".deps/studying-solidity/testament/Testament.sol\":7490:7511  testament[msg.sender] */\n      0xffffffffffffffffffffffffffffffffffffffff\n      and\n      0xffffffffffffffffffffffffffffffffffffffff\n      and\n      dup2\n      mstore\n      0x20\n      add\n      swap1\n      dup2\n      mstore\n      0x20\n      add\n      0x00\n      keccak256\n        /* \".deps/studying-solidity/testament/Testament.sol\":7490:7528  testament[msg.sender].inheritanceValue */\n      0x02\n      add\n      0x00\n        /* \".deps/studying-solidity/testament/Testament.sol\":7490:7537  testament[msg.sender].inheritanceValue -= value */\n      dup3\n      dup3\n      sload\n      tag_164\n      swap2\n      swap1\n      tag_165\n      jump\t// in\n    tag_164:\n      swap3\n      pop\n      pop\n      dup2\n      swap1\n      sstore\n      pop\n        /* \".deps/studying-solidity/testament/Testament.sol\":7114:7544  {... */\n      pop\n        /* \".deps/studying-solidity/testament/Testament.sol\":7057:7544  function removeAssetsInTestament(uint256 value) external {... */\n      pop\n      jump\t// out\n        /* \".deps/studying-solidity/testament/Testament.sol\":6465:6752  function inheritorsCanWithdrawal(address testator)... */\n    tag_45:\n        /* \".deps/studying-solidity/testament/Testament.sol\":6561:6565  bool */\n      0x00\n        /* \".deps/studying-solidity/testament/Testament.sol\":6581:6599  uint256 ninetyDays */\n      dup1\n        /* \".deps/studying-solidity/testament/Testament.sol\":6602:6603  1 */\n      0x01\n        /* \".deps/studying-solidity/testament/Testament.sol\":6581:6603  uint256 ninetyDays = 1 */\n      swap1\n      pop\n        /* \".deps/studying-solidity/testament/Testament.sol\":6735:6745  ninetyDays */\n      dup1\n        /* \".deps/studying-solidity/testament/Testament.sol\":6697:6706  testament */\n      0x00\n        /* \".deps/studying-solidity/testament/Testament.sol\":6697:6716  testament[testator] */\n      dup1\n        /* \".deps/studying-solidity/testament/Testament.sol\":6707:6715  testator */\n      dup6\n        /* \".deps/studying-solidity/testament/Testament.sol\":6697:6716  testament[testator] */\n      0xffffffffffffffffffffffffffffffffffffffff\n      and\n      0xffffffffffffffffffffffffffffffffffffffff\n      and\n      dup2\n      mstore\n      0x20\n      add\n      swap1\n      dup2\n      mstore\n      0x20\n      add\n      0x00\n      keccak256\n        /* \".deps/studying-solidity/testament/Testament.sol\":6697:6732  testament[testator].lastProofOfLife */\n      0x01\n      add\n      0x01\n      swap1\n      sload\n      swap1\n      0x0100\n      exp\n      swap1\n      div\n      0xffffffffffffffffffffffffffffffff\n      and\n        /* \".deps/studying-solidity/testament/Testament.sol\":6697:6745  testament[testator].lastProofOfLife + ninetyDays */\n      0xffffffffffffffffffffffffffffffff\n      and\n      tag_167\n      swap2\n      swap1\n      tag_107\n      jump\t// in\n    tag_167:\n        /* \".deps/studying-solidity/testament/Testament.sol\":6678:6693  block.timestamp */\n      timestamp\n        /* \".deps/studying-solidity/testament/Testament.sol\":6678:6745  block.timestamp >= testament[testator].lastProofOfLife + ninetyDays */\n      lt\n      iszero\n        /* \".deps/studying-solidity/testament/Testament.sol\":6659:6745  return... */\n      swap2\n      pop\n      pop\n        /* \".deps/studying-solidity/testament/Testament.sol\":6465:6752  function inheritorsCanWithdrawal(address testator)... */\n      swap2\n      swap1\n      pop\n      jump\t// out\n        /* \".deps/studying-solidity/testament/Testament.sol\":188:234  mapping(address => Testament) public testament */\n    tag_51:\n      mstore(0x20, 0x00)\n      dup1\n      0x00\n      mstore\n      keccak256(0x00, 0x40)\n      0x00\n      swap2\n      pop\n      swap1\n      pop\n      dup1\n      0x01\n      add\n      0x00\n      swap1\n      sload\n      swap1\n      0x0100\n      exp\n      swap1\n      div\n      0xff\n      and\n      swap1\n      dup1\n      0x01\n      add\n      0x01\n      swap1\n      sload\n      swap1\n      0x0100\n      exp\n      swap1\n      div\n      0xffffffffffffffffffffffffffffffff\n      and\n      swap1\n      dup1\n      0x02\n      add\n      sload\n      swap1\n      pop\n      dup4\n      jump\t// out\n        /* \".deps/studying-solidity/testament/Testament.sol\":1808:3013  function getMyTestament(address testator)... */\n    tag_57:\n        /* \".deps/studying-solidity/testament/Testament.sol\":1910:1926  address[] memory */\n      0x60\n        /* \".deps/studying-solidity/testament/Testament.sol\":1940:1955  uint16[] memory */\n      dup1\n        /* \".deps/studying-solidity/testament/Testament.sol\":1969:1982  bool[] memory */\n      0x60\n        /* \".deps/studying-solidity/testament/Testament.sol\":1996:2003  uint128 */\n      0x00\n        /* \".deps/studying-solidity/testament/Testament.sol\":2017:2024  uint256 */\n      dup1\n        /* \".deps/studying-solidity/testament/Testament.sol\":2049:2075  Testament memory _testator */\n      0x00\n        /* \".deps/studying-solidity/testament/Testament.sol\":2078:2087  testament */\n      dup1\n        /* \".deps/studying-solidity/testament/Testament.sol\":2078:2097  testament[testator] */\n      0x00\n        /* \".deps/studying-solidity/testament/Testament.sol\":2088:2096  testator */\n      dup9\n        /* \".deps/studying-solidity/testament/Testament.sol\":2078:2097  testament[testator] */\n      0xffffffffffffffffffffffffffffffffffffffff\n      and\n      0xffffffffffffffffffffffffffffffffffffffff\n      and\n      dup2\n      mstore\n      0x20\n      add\n      swap1\n      dup2\n      mstore\n      0x20\n      add\n      0x00\n      keccak256\n        /* \".deps/studying-solidity/testament/Testament.sol\":2049:2097  Testament memory _testator = testament[testator] */\n      mload(0x40)\n      dup1\n      0x80\n      add\n      0x40\n      mstore\n      swap1\n      dup2\n      0x00\n      dup3\n      add\n      dup1\n      sload\n      dup1\n      0x20\n      mul\n      0x20\n      add\n      mload(0x40)\n      swap1\n      dup2\n      add\n      0x40\n      mstore\n      dup1\n      swap3\n      swap2\n      swap1\n      dup2\n      dup2\n      mstore\n      0x20\n      add\n      0x00\n      swap1\n    tag_169:\n      dup3\n      dup3\n      lt\n      iszero\n      tag_170\n      jumpi\n      dup4\n      dup3\n      swap1\n      0x00\n      mstore\n      keccak256(0x00, 0x20)\n      add\n      mload(0x40)\n      dup1\n      0x60\n      add\n      0x40\n      mstore\n      swap1\n      dup2\n      0x00\n      dup3\n      add\n      0x00\n      swap1\n      sload\n      swap1\n      0x0100\n      exp\n      swap1\n      div\n      0xffffffffffffffffffffffffffffffffffffffff\n      and\n      0xffffffffffffffffffffffffffffffffffffffff\n      and\n      0xffffffffffffffffffffffffffffffffffffffff\n      and\n      dup2\n      mstore\n      0x20\n      add\n      0x00\n      dup3\n      add\n      0x14\n      swap1\n      sload\n      swap1\n      0x0100\n      exp\n      swap1\n      div\n      0xffff\n      and\n      0xffff\n      and\n      0xffff\n      and\n      dup2\n      mstore\n      0x20\n      add\n      0x00\n      dup3\n      add\n      0x16\n      swap1\n      sload\n      swap1\n      0x0100\n      exp\n      swap1\n      div\n      0xff\n      and\n      iszero\n      iszero\n      iszero\n      iszero\n      dup2\n      mstore\n      pop\n      pop\n      dup2\n      mstore\n      0x20\n      add\n      swap1\n      0x01\n      add\n      swap1\n      jump(tag_169)\n    tag_170:\n      pop\n      pop\n      pop\n      pop\n      dup2\n      mstore\n      0x20\n      add\n      0x01\n      dup3\n      add\n      0x00\n      swap1\n      sload\n      swap1\n      0x0100\n      exp\n      swap1\n      div\n      0xff\n      and\n      iszero\n      iszero\n      iszero\n      iszero\n      dup2\n      mstore\n      0x20\n      add\n      0x01\n      dup3\n      add\n      0x01\n      swap1\n      sload\n      swap1\n      0x0100\n      exp\n      swap1\n      div\n      0xffffffffffffffffffffffffffffffff\n      and\n      0xffffffffffffffffffffffffffffffff\n      and\n      0xffffffffffffffffffffffffffffffff\n      and\n      dup2\n      mstore\n      0x20\n      add\n      0x02\n      dup3\n      add\n      sload\n      dup2\n      mstore\n      pop\n      pop\n      swap1\n      pop\n        /* \".deps/studying-solidity/testament/Testament.sol\":2116:2125  _testator */\n      dup1\n        /* \".deps/studying-solidity/testament/Testament.sol\":2116:2131  _testator.exist */\n      0x20\n      add\n      mload\n        /* \".deps/studying-solidity/testament/Testament.sol\":2108:2159  require(_testator.exist, \"Testador nao encontrado\") */\n      tag_172\n      jumpi\n      mload(0x40)\n      0x08c379a000000000000000000000000000000000000000000000000000000000\n      dup2\n      mstore\n      0x04\n      add\n      tag_173\n      swap1\n      tag_174\n      jump\t// in\n    tag_173:\n      mload(0x40)\n      dup1\n      swap2\n      sub\n      swap1\n      revert\n    tag_172:\n        /* \".deps/studying-solidity/testament/Testament.sol\":2170:2206  address[] memory _inheritorAddresses */\n      0x00\n        /* \".deps/studying-solidity/testament/Testament.sol\":2236:2245  _testator */\n      dup2\n        /* \".deps/studying-solidity/testament/Testament.sol\":2236:2256  _testator.inheritors */\n      0x00\n      add\n      mload\n        /* \".deps/studying-solidity/testament/Testament.sol\":2236:2263  _testator.inheritors.length */\n      mload\n        /* \".deps/studying-solidity/testament/Testament.sol\":2209:2273  new address[](... */\n      0xffffffffffffffff\n      dup2\n      gt\n      iszero\n      tag_175\n      jumpi\n      tag_176\n      tag_177\n      jump\t// in\n    tag_176:\n    tag_175:\n      mload(0x40)\n      swap1\n      dup1\n      dup3\n      mstore\n      dup1\n      0x20\n      mul\n      0x20\n      add\n      dup3\n      add\n      0x40\n      mstore\n      dup1\n      iszero\n      tag_178\n      jumpi\n      dup2\n      0x20\n      add\n      0x20\n      dup3\n      mul\n      dup1\n      calldatasize\n      dup4\n      calldatacopy\n      dup1\n      dup3\n      add\n      swap2\n      pop\n      pop\n      swap1\n      pop\n    tag_178:\n      pop\n        /* \".deps/studying-solidity/testament/Testament.sol\":2170:2273  address[] memory _inheritorAddresses = new address[](... */\n      swap1\n      pop\n        /* \".deps/studying-solidity/testament/Testament.sol\":2284:2312  uint16[] memory _percentages */\n      0x00\n        /* \".deps/studying-solidity/testament/Testament.sol\":2341:2350  _testator */\n      dup3\n        /* \".deps/studying-solidity/testament/Testament.sol\":2341:2361  _testator.inheritors */\n      0x00\n      add\n      mload\n        /* \".deps/studying-solidity/testament/Testament.sol\":2341:2368  _testator.inheritors.length */\n      mload\n        /* \".deps/studying-solidity/testament/Testament.sol\":2315:2378  new uint16[](... */\n      0xffffffffffffffff\n      dup2\n      gt\n      iszero\n      tag_179\n      jumpi\n      tag_180\n      tag_177\n      jump\t// in\n    tag_180:\n    tag_179:\n      mload(0x40)\n      swap1\n      dup1\n      dup3\n      mstore\n      dup1\n      0x20\n      mul\n      0x20\n      add\n      dup3\n      add\n      0x40\n      mstore\n      dup1\n      iszero\n      tag_181\n      jumpi\n      dup2\n      0x20\n      add\n      0x20\n      dup3\n      mul\n      dup1\n      calldatasize\n      dup4\n      calldatacopy\n      dup1\n      dup3\n      add\n      swap2\n      pop\n      pop\n      swap1\n      pop\n    tag_181:\n      pop\n        /* \".deps/studying-solidity/testament/Testament.sol\":2284:2378  uint16[] memory _percentages = new uint16[](... */\n      swap1\n      pop\n        /* \".deps/studying-solidity/testament/Testament.sol\":2389:2417  bool[] memory _canWithdrawal */\n      0x00\n        /* \".deps/studying-solidity/testament/Testament.sol\":2431:2440  _testator */\n      dup4\n        /* \".deps/studying-solidity/testament/Testament.sol\":2431:2451  _testator.inheritors */\n      0x00\n      add\n      mload\n        /* \".deps/studying-solidity/testament/Testament.sol\":2431:2458  _testator.inheritors.length */\n      mload\n        /* \".deps/studying-solidity/testament/Testament.sol\":2420:2459  new bool[](_testator.inheritors.length) */\n      0xffffffffffffffff\n      dup2\n      gt\n      iszero\n      tag_182\n      jumpi\n      tag_183\n      tag_177\n      jump\t// in\n    tag_183:\n    tag_182:\n      mload(0x40)\n      swap1\n      dup1\n      dup3\n      mstore\n      dup1\n      0x20\n      mul\n      0x20\n      add\n      dup3\n      add\n      0x40\n      mstore\n      dup1\n      iszero\n      tag_184\n      jumpi\n      dup2\n      0x20\n      add\n      0x20\n      dup3\n      mul\n      dup1\n      calldatasize\n      dup4\n      calldatacopy\n      dup1\n      dup3\n      add\n      swap2\n      pop\n      pop\n      swap1\n      pop\n    tag_184:\n      pop\n        /* \".deps/studying-solidity/testament/Testament.sol\":2389:2459  bool[] memory _canWithdrawal = new bool[](_testator.inheritors.length) */\n      swap1\n      pop\n        /* \".deps/studying-solidity/testament/Testament.sol\":2475:2483  uint64 i */\n      0x00\n        /* \".deps/studying-solidity/testament/Testament.sol\":2470:2813  for (uint64 i = 0; i < _testator.inheritors.length; i++) {... */\n    tag_185:\n        /* \".deps/studying-solidity/testament/Testament.sol\":2493:2502  _testator */\n      dup5\n        /* \".deps/studying-solidity/testament/Testament.sol\":2493:2513  _testator.inheritors */\n      0x00\n      add\n      mload\n        /* \".deps/studying-solidity/testament/Testament.sol\":2493:2520  _testator.inheritors.length */\n      mload\n        /* \".deps/studying-solidity/testament/Testament.sol\":2489:2490  i */\n      dup2\n        /* \".deps/studying-solidity/testament/Testament.sol\":2489:2520  i < _testator.inheritors.length */\n      0xffffffffffffffff\n      and\n      lt\n        /* \".deps/studying-solidity/testament/Testament.sol\":2470:2813  for (uint64 i = 0; i < _testator.inheritors.length; i++) {... */\n      iszero\n      tag_186\n      jumpi\n        /* \".deps/studying-solidity/testament/Testament.sol\":2541:2575  Inheritor memory _currentInheritor */\n      0x00\n        /* \".deps/studying-solidity/testament/Testament.sol\":2578:2587  _testator */\n      dup6\n        /* \".deps/studying-solidity/testament/Testament.sol\":2578:2598  _testator.inheritors */\n      0x00\n      add\n      mload\n        /* \".deps/studying-solidity/testament/Testament.sol\":2599:2600  i */\n      dup3\n        /* \".deps/studying-solidity/testament/Testament.sol\":2578:2601  _testator.inheritors[i] */\n      0xffffffffffffffff\n      and\n      dup2\n      mload\n      dup2\n      lt\n      tag_188\n      jumpi\n      tag_189\n      tag_88\n      jump\t// in\n    tag_189:\n    tag_188:\n      0x20\n      mul\n      0x20\n      add\n      add\n      mload\n        /* \".deps/studying-solidity/testament/Testament.sol\":2541:2601  Inheritor memory _currentInheritor = _testator.inheritors[i] */\n      swap1\n      pop\n        /* \".deps/studying-solidity/testament/Testament.sol\":2642:2659  _currentInheritor */\n      dup1\n        /* \".deps/studying-solidity/testament/Testament.sol\":2642:2676  _currentInheritor.inheritorAddress */\n      0x00\n      add\n      mload\n        /* \".deps/studying-solidity/testament/Testament.sol\":2616:2635  _inheritorAddresses */\n      dup6\n        /* \".deps/studying-solidity/testament/Testament.sol\":2636:2637  i */\n      dup4\n        /* \".deps/studying-solidity/testament/Testament.sol\":2616:2638  _inheritorAddresses[i] */\n      0xffffffffffffffff\n      and\n      dup2\n      mload\n      dup2\n      lt\n      tag_190\n      jumpi\n      tag_191\n      tag_88\n      jump\t// in\n    tag_191:\n    tag_190:\n      0x20\n      mul\n      0x20\n      add\n      add\n        /* \".deps/studying-solidity/testament/Testament.sol\":2616:2677  _inheritorAddresses[i] = (_currentInheritor.inheritorAddress) */\n      swap1\n      0xffffffffffffffffffffffffffffffffffffffff\n      and\n      swap1\n      dup2\n      0xffffffffffffffffffffffffffffffffffffffff\n      and\n      dup2\n      mstore\n      pop\n      pop\n        /* \".deps/studying-solidity/testament/Testament.sol\":2710:2727  _currentInheritor */\n      dup1\n        /* \".deps/studying-solidity/testament/Testament.sol\":2710:2738  _currentInheritor.percentage */\n      0x20\n      add\n      mload\n        /* \".deps/studying-solidity/testament/Testament.sol\":2691:2703  _percentages */\n      dup5\n        /* \".deps/studying-solidity/testament/Testament.sol\":2704:2705  i */\n      dup4\n        /* \".deps/studying-solidity/testament/Testament.sol\":2691:2706  _percentages[i] */\n      0xffffffffffffffff\n      and\n      dup2\n      mload\n      dup2\n      lt\n      tag_192\n      jumpi\n      tag_193\n      tag_88\n      jump\t// in\n    tag_193:\n    tag_192:\n      0x20\n      mul\n      0x20\n      add\n      add\n        /* \".deps/studying-solidity/testament/Testament.sol\":2691:2739  _percentages[i] = (_currentInheritor.percentage) */\n      swap1\n      0xffff\n      and\n      swap1\n      dup2\n      0xffff\n      and\n      dup2\n      mstore\n      pop\n      pop\n        /* \".deps/studying-solidity/testament/Testament.sol\":2773:2790  _currentInheritor */\n      dup1\n        /* \".deps/studying-solidity/testament/Testament.sol\":2773:2802  _currentInheritor.canWithdraw */\n      0x40\n      add\n      mload\n        /* \".deps/studying-solidity/testament/Testament.sol\":2753:2767  _canWithdrawal */\n      dup4\n        /* \".deps/studying-solidity/testament/Testament.sol\":2768:2769  i */\n      dup4\n        /* \".deps/studying-solidity/testament/Testament.sol\":2753:2770  _canWithdrawal[i] */\n      0xffffffffffffffff\n      and\n      dup2\n      mload\n      dup2\n      lt\n      tag_194\n      jumpi\n      tag_195\n      tag_88\n      jump\t// in\n    tag_195:\n    tag_194:\n      0x20\n      mul\n      0x20\n      add\n      add\n        /* \".deps/studying-solidity/testament/Testament.sol\":2753:2802  _canWithdrawal[i] = _currentInheritor.canWithdraw */\n      swap1\n      iszero\n      iszero\n      swap1\n      dup2\n      iszero\n      iszero\n      dup2\n      mstore\n      pop\n      pop\n        /* \".deps/studying-solidity/testament/Testament.sol\":2527:2813  {... */\n      pop\n        /* \".deps/studying-solidity/testament/Testament.sol\":2522:2525  i++ */\n      dup1\n      dup1\n      tag_196\n      swap1\n      tag_197\n      jump\t// in\n    tag_196:\n      swap2\n      pop\n      pop\n        /* \".deps/studying-solidity/testament/Testament.sol\":2470:2813  for (uint64 i = 0; i < _testator.inheritors.length; i++) {... */\n      jump(tag_185)\n    tag_186:\n      pop\n        /* \".deps/studying-solidity/testament/Testament.sol\":2844:2863  _inheritorAddresses */\n      dup3\n        /* \".deps/studying-solidity/testament/Testament.sol\":2877:2889  _percentages */\n      dup3\n        /* \".deps/studying-solidity/testament/Testament.sol\":2903:2917  _canWithdrawal */\n      dup3\n        /* \".deps/studying-solidity/testament/Testament.sol\":2931:2940  _testator */\n      dup7\n        /* \".deps/studying-solidity/testament/Testament.sol\":2931:2956  _testator.lastProofOfLife */\n      0x40\n      add\n      mload\n        /* \".deps/studying-solidity/testament/Testament.sol\":2970:2979  _testator */\n      dup8\n        /* \".deps/studying-solidity/testament/Testament.sol\":2970:2996  _testator.inheritanceValue */\n      0x60\n      add\n      mload\n        /* \".deps/studying-solidity/testament/Testament.sol\":2823:3006  return (... */\n      swap9\n      pop\n      swap9\n      pop\n      swap9\n      pop\n      swap9\n      pop\n      swap9\n      pop\n      pop\n      pop\n      pop\n      pop\n        /* \".deps/studying-solidity/testament/Testament.sol\":1808:3013  function getMyTestament(address testator)... */\n      swap2\n      swap4\n      swap6\n      swap1\n      swap3\n      swap5\n      pop\n      jump\t// out\n        /* \".deps/studying-solidity/testament/Testament.sol\":4943:5204  function updateProofOfLife() public {... */\n    tag_62:\n        /* \".deps/studying-solidity/testament/Testament.sol\":4989:5000  address own */\n      0x00\n        /* \".deps/studying-solidity/testament/Testament.sol\":5003:5013  msg.sender */\n      caller\n        /* \".deps/studying-solidity/testament/Testament.sol\":4989:5013  address own = msg.sender */\n      swap1\n      pop\n        /* \".deps/studying-solidity/testament/Testament.sol\":5044:5053  testament */\n      0x00\n        /* \".deps/studying-solidity/testament/Testament.sol\":5044:5058  testament[own] */\n      dup1\n        /* \".deps/studying-solidity/testament/Testament.sol\":5054:5057  own */\n      dup3\n        /* \".deps/studying-solidity/testament/Testament.sol\":5044:5058  testament[own] */\n      0xffffffffffffffffffffffffffffffffffffffff\n      and\n      0xffffffffffffffffffffffffffffffffffffffff\n      and\n      dup2\n      mstore\n      0x20\n      add\n      swap1\n      dup2\n      mstore\n      0x20\n      add\n      0x00\n      keccak256\n        /* \".deps/studying-solidity/testament/Testament.sol\":5044:5064  testament[own].exist */\n      0x01\n      add\n      0x00\n      swap1\n      sload\n      swap1\n      0x0100\n      exp\n      swap1\n      div\n      0xff\n      and\n        /* \".deps/studying-solidity/testament/Testament.sol\":5023:5130  require(... */\n      tag_199\n      jumpi\n      mload(0x40)\n      0x08c379a000000000000000000000000000000000000000000000000000000000\n      dup2\n      mstore\n      0x04\n      add\n      tag_200\n      swap1\n      tag_201\n      jump\t// in\n    tag_200:\n      mload(0x40)\n      dup1\n      swap2\n      sub\n      swap1\n      revert\n    tag_199:\n        /* \".deps/studying-solidity/testament/Testament.sol\":5181:5196  block.timestamp */\n      timestamp\n        /* \".deps/studying-solidity/testament/Testament.sol\":5140:5149  testament */\n      0x00\n        /* \".deps/studying-solidity/testament/Testament.sol\":5140:5154  testament[own] */\n      dup1\n        /* \".deps/studying-solidity/testament/Testament.sol\":5150:5153  own */\n      dup4\n        /* \".deps/studying-solidity/testament/Testament.sol\":5140:5154  testament[own] */\n      0xffffffffffffffffffffffffffffffffffffffff\n      and\n      0xffffffffffffffffffffffffffffffffffffffff\n      and\n      dup2\n      mstore\n      0x20\n      add\n      swap1\n      dup2\n      mstore\n      0x20\n      add\n      0x00\n      keccak256\n        /* \".deps/studying-solidity/testament/Testament.sol\":5140:5170  testament[own].lastProofOfLife */\n      0x01\n      add\n      0x01\n        /* \".deps/studying-solidity/testament/Testament.sol\":5140:5197  testament[own].lastProofOfLife = uint128(block.timestamp) */\n      0x0100\n      exp\n      dup2\n      sload\n      dup2\n      0xffffffffffffffffffffffffffffffff\n      mul\n      not\n      and\n      swap1\n      dup4\n      0xffffffffffffffffffffffffffffffff\n      and\n      mul\n      or\n      swap1\n      sstore\n      pop\n        /* \".deps/studying-solidity/testament/Testament.sol\":4979:5204  {... */\n      pop\n        /* \".deps/studying-solidity/testament/Testament.sol\":4943:5204  function updateProofOfLife() public {... */\n      jump\t// out\n        /* \".deps/studying-solidity/testament/Testament.sol\":3019:3264  function getMyTestators() external view returns (address[] memory) {... */\n    tag_65:\n        /* \".deps/studying-solidity/testament/Testament.sol\":3068:3084  address[] memory */\n      0x60\n        /* \".deps/studying-solidity/testament/Testament.sol\":3096:3114  address _inheritor */\n      0x00\n        /* \".deps/studying-solidity/testament/Testament.sol\":3117:3127  msg.sender */\n      caller\n        /* \".deps/studying-solidity/testament/Testament.sol\":3096:3127  address _inheritor = msg.sender */\n      swap1\n      pop\n        /* \".deps/studying-solidity/testament/Testament.sol\":3225:3245  inheritorToTestators */\n      0x01\n        /* \".deps/studying-solidity/testament/Testament.sol\":3225:3257  inheritorToTestators[_inheritor] */\n      0x00\n        /* \".deps/studying-solidity/testament/Testament.sol\":3246:3256  _inheritor */\n      dup3\n        /* \".deps/studying-solidity/testament/Testament.sol\":3225:3257  inheritorToTestators[_inheritor] */\n      0xffffffffffffffffffffffffffffffffffffffff\n      and\n      0xffffffffffffffffffffffffffffffffffffffff\n      and\n      dup2\n      mstore\n      0x20\n      add\n      swap1\n      dup2\n      mstore\n      0x20\n      add\n      0x00\n      keccak256\n        /* \".deps/studying-solidity/testament/Testament.sol\":3218:3257  return inheritorToTestators[_inheritor] */\n      dup1\n      sload\n      dup1\n      0x20\n      mul\n      0x20\n      add\n      mload(0x40)\n      swap1\n      dup2\n      add\n      0x40\n      mstore\n      dup1\n      swap3\n      swap2\n      swap1\n      dup2\n      dup2\n      mstore\n      0x20\n      add\n      dup3\n      dup1\n      sload\n      dup1\n      iszero\n      tag_203\n      jumpi\n      0x20\n      mul\n      dup3\n      add\n      swap2\n      swap1\n      0x00\n      mstore\n      keccak256(0x00, 0x20)\n      swap1\n    tag_204:\n      dup2\n      0x00\n      swap1\n      sload\n      swap1\n      0x0100\n      exp\n      swap1\n      div\n      0xffffffffffffffffffffffffffffffffffffffff\n      and\n      0xffffffffffffffffffffffffffffffffffffffff\n      and\n      dup2\n      mstore\n      0x20\n      add\n      swap1\n      0x01\n      add\n      swap1\n      dup1\n      dup4\n      gt\n      tag_204\n      jumpi\n    tag_203:\n      pop\n      pop\n      pop\n      pop\n      pop\n      swap2\n      pop\n      pop\n        /* \".deps/studying-solidity/testament/Testament.sol\":3019:3264  function getMyTestators() external view returns (address[] memory) {... */\n      swap1\n      jump\t// out\n        /* \".deps/studying-solidity/testament/Testament.sol\":372:1802  function createInheritance(... */\n    tag_71:\n        /* \".deps/studying-solidity/testament/Testament.sol\":575:576  0 */\n      0x00\n        /* \".deps/studying-solidity/testament/Testament.sol\":562:571  msg.value */\n      callvalue\n        /* \".deps/studying-solidity/testament/Testament.sol\":562:576  msg.value != 0 */\n      sub\n        /* \".deps/studying-solidity/testament/Testament.sol\":554:616  require(msg.value != 0, \"createInheritance(), valor invalido\") */\n      tag_206\n      jumpi\n      mload(0x40)\n      0x08c379a000000000000000000000000000000000000000000000000000000000\n      dup2\n      mstore\n      0x04\n      add\n      tag_207\n      swap1\n      tag_208\n      jump\t// in\n    tag_207:\n      mload(0x40)\n      dup1\n      swap2\n      sub\n      swap1\n      revert\n    tag_206:\n        /* \".deps/studying-solidity/testament/Testament.sol\":668:669  0 */\n      0x00\n        /* \".deps/studying-solidity/testament/Testament.sol\":647:657  _addresses */\n      dup3\n        /* \".deps/studying-solidity/testament/Testament.sol\":647:664  _addresses.length */\n      mload\n        /* \".deps/studying-solidity/testament/Testament.sol\":647:669  _addresses.length != 0 */\n      sub\n        /* \".deps/studying-solidity/testament/Testament.sol\":626:737  require(... */\n      tag_209\n      jumpi\n      mload(0x40)\n      0x08c379a000000000000000000000000000000000000000000000000000000000\n      dup2\n      mstore\n      0x04\n      add\n      tag_210\n      swap1\n      tag_75\n      jump\t// in\n    tag_210:\n      mload(0x40)\n      dup1\n      swap2\n      sub\n      swap1\n      revert\n    tag_209:\n        /* \".deps/studying-solidity/testament/Testament.sol\":789:802  _percentagens */\n      dup1\n        /* \".deps/studying-solidity/testament/Testament.sol\":789:809  _percentagens.length */\n      mload\n        /* \".deps/studying-solidity/testament/Testament.sol\":768:778  _addresses */\n      dup3\n        /* \".deps/studying-solidity/testament/Testament.sol\":768:785  _addresses.length */\n      mload\n        /* \".deps/studying-solidity/testament/Testament.sol\":768:809  _addresses.length == _percentagens.length */\n      eq\n        /* \".deps/studying-solidity/testament/Testament.sol\":747:905  require(... */\n      tag_211\n      jumpi\n      mload(0x40)\n      0x08c379a000000000000000000000000000000000000000000000000000000000\n      dup2\n      mstore\n      0x04\n      add\n      tag_212\n      swap1\n      tag_78\n      jump\t// in\n    tag_212:\n      mload(0x40)\n      dup1\n      swap2\n      sub\n      swap1\n      revert\n    tag_211:\n        /* \".deps/studying-solidity/testament/Testament.sol\":915:938  address _ownOfTestament */\n      0x00\n        /* \".deps/studying-solidity/testament/Testament.sol\":941:951  msg.sender */\n      caller\n        /* \".deps/studying-solidity/testament/Testament.sol\":915:951  address _ownOfTestament = msg.sender */\n      swap1\n      pop\n        /* \".deps/studying-solidity/testament/Testament.sol\":984:993  testament */\n      0x00\n        /* \".deps/studying-solidity/testament/Testament.sol\":984:1010  testament[_ownOfTestament] */\n      dup1\n        /* \".deps/studying-solidity/testament/Testament.sol\":994:1009  _ownOfTestament */\n      dup3\n        /* \".deps/studying-solidity/testament/Testament.sol\":984:1010  testament[_ownOfTestament] */\n      0xffffffffffffffffffffffffffffffffffffffff\n      and\n      0xffffffffffffffffffffffffffffffffffffffff\n      and\n      dup2\n      mstore\n      0x20\n      add\n      swap1\n      dup2\n      mstore\n      0x20\n      add\n      0x00\n      keccak256\n        /* \".deps/studying-solidity/testament/Testament.sol\":984:1016  testament[_ownOfTestament].exist */\n      0x01\n      add\n      0x00\n      swap1\n      sload\n      swap1\n      0x0100\n      exp\n      swap1\n      div\n      0xff\n      and\n        /* \".deps/studying-solidity/testament/Testament.sol\":983:1016  !testament[_ownOfTestament].exist */\n      iszero\n        /* \".deps/studying-solidity/testament/Testament.sol\":962:1106  require(... */\n      tag_213\n      jumpi\n      mload(0x40)\n      0x08c379a000000000000000000000000000000000000000000000000000000000\n      dup2\n      mstore\n      0x04\n      add\n      tag_214\n      swap1\n      tag_215\n      jump\t// in\n    tag_214:\n      mload(0x40)\n      dup1\n      swap2\n      sub\n      swap1\n      revert\n    tag_213:\n        /* \".deps/studying-solidity/testament/Testament.sol\":1183:1192  uint256 i */\n      0x00\n        /* \".deps/studying-solidity/testament/Testament.sol\":1178:1652  for (uint256 i = 0; i < _addresses.length; i++) {... */\n    tag_216:\n        /* \".deps/studying-solidity/testament/Testament.sol\":1202:1212  _addresses */\n      dup4\n        /* \".deps/studying-solidity/testament/Testament.sol\":1202:1219  _addresses.length */\n      mload\n        /* \".deps/studying-solidity/testament/Testament.sol\":1198:1199  i */\n      dup2\n        /* \".deps/studying-solidity/testament/Testament.sol\":1198:1219  i < _addresses.length */\n      lt\n        /* \".deps/studying-solidity/testament/Testament.sol\":1178:1652  for (uint256 i = 0; i < _addresses.length; i++) {... */\n      iszero\n      tag_217\n      jumpi\n        /* \".deps/studying-solidity/testament/Testament.sol\":1240:1267  Inheritor memory _inheritor */\n      0x00\n        /* \".deps/studying-solidity/testament/Testament.sol\":1270:1380  Inheritor(... */\n      mload(0x40)\n      dup1\n      0x60\n      add\n      0x40\n      mstore\n      dup1\n        /* \".deps/studying-solidity/testament/Testament.sol\":1297:1307  _addresses */\n      dup7\n        /* \".deps/studying-solidity/testament/Testament.sol\":1308:1309  i */\n      dup5\n        /* \".deps/studying-solidity/testament/Testament.sol\":1297:1310  _addresses[i] */\n      dup2\n      mload\n      dup2\n      lt\n      tag_219\n      jumpi\n      tag_220\n      tag_88\n      jump\t// in\n    tag_220:\n    tag_219:\n      0x20\n      mul\n      0x20\n      add\n      add\n      mload\n        /* \".deps/studying-solidity/testament/Testament.sol\":1270:1380  Inheritor(... */\n      0xffffffffffffffffffffffffffffffffffffffff\n      and\n      dup2\n      mstore\n      0x20\n      add\n        /* \".deps/studying-solidity/testament/Testament.sol\":1328:1341  _percentagens */\n      dup6\n        /* \".deps/studying-solidity/testament/Testament.sol\":1342:1343  i */\n      dup5\n        /* \".deps/studying-solidity/testament/Testament.sol\":1328:1344  _percentagens[i] */\n      dup2\n      mload\n      dup2\n      lt\n      tag_221\n      jumpi\n      tag_222\n      tag_88\n      jump\t// in\n    tag_222:\n    tag_221:\n      0x20\n      mul\n      0x20\n      add\n      add\n      mload\n        /* \".deps/studying-solidity/testament/Testament.sol\":1270:1380  Inheritor(... */\n      0xffff\n      and\n      dup2\n      mstore\n      0x20\n      add\n        /* \".deps/studying-solidity/testament/Testament.sol\":1362:1366  true */\n      0x01\n        /* \".deps/studying-solidity/testament/Testament.sol\":1270:1380  Inheritor(... */\n      iszero\n      iszero\n      dup2\n      mstore\n      pop\n        /* \".deps/studying-solidity/testament/Testament.sol\":1240:1380  Inheritor memory _inheritor = Inheritor(... */\n      swap1\n      pop\n        /* \".deps/studying-solidity/testament/Testament.sol\":1463:1483  inheritorToTestators */\n      0x01\n        /* \".deps/studying-solidity/testament/Testament.sol\":1463:1498  inheritorToTestators[_addresses[i]] */\n      0x00\n        /* \".deps/studying-solidity/testament/Testament.sol\":1484:1494  _addresses */\n      dup7\n        /* \".deps/studying-solidity/testament/Testament.sol\":1495:1496  i */\n      dup5\n        /* \".deps/studying-solidity/testament/Testament.sol\":1484:1497  _addresses[i] */\n      dup2\n      mload\n      dup2\n      lt\n      tag_223\n      jumpi\n      tag_224\n      tag_88\n      jump\t// in\n    tag_224:\n    tag_223:\n      0x20\n      mul\n      0x20\n      add\n      add\n      mload\n        /* \".deps/studying-solidity/testament/Testament.sol\":1463:1498  inheritorToTestators[_addresses[i]] */\n      0xffffffffffffffffffffffffffffffffffffffff\n      and\n      0xffffffffffffffffffffffffffffffffffffffff\n      and\n      dup2\n      mstore\n      0x20\n      add\n      swap1\n      dup2\n      mstore\n      0x20\n      add\n      0x00\n      keccak256\n        /* \".deps/studying-solidity/testament/Testament.sol\":1504:1519  _ownOfTestament */\n      dup4\n        /* \".deps/studying-solidity/testament/Testament.sol\":1463:1520  inheritorToTestators[_addresses[i]].push(_ownOfTestament) */\n      swap1\n      dup1\n      0x01\n      dup2\n      sload\n      add\n      dup1\n      dup3\n      sstore\n      dup1\n      swap2\n      pop\n      pop\n      0x01\n      swap1\n      sub\n      swap1\n      0x00\n      mstore\n      keccak256(0x00, 0x20)\n      add\n      0x00\n      swap1\n      swap2\n      swap1\n      swap2\n      swap1\n      swap2\n      0x0100\n      exp\n      dup2\n      sload\n      dup2\n      0xffffffffffffffffffffffffffffffffffffffff\n      mul\n      not\n      and\n      swap1\n      dup4\n      0xffffffffffffffffffffffffffffffffffffffff\n      and\n      mul\n      or\n      swap1\n      sstore\n      pop\n        /* \".deps/studying-solidity/testament/Testament.sol\":1587:1596  testament */\n      0x00\n        /* \".deps/studying-solidity/testament/Testament.sol\":1587:1613  testament[_ownOfTestament] */\n      dup1\n        /* \".deps/studying-solidity/testament/Testament.sol\":1597:1612  _ownOfTestament */\n      dup5\n        /* \".deps/studying-solidity/testament/Testament.sol\":1587:1613  testament[_ownOfTestament] */\n      0xffffffffffffffffffffffffffffffffffffffff\n      and\n      0xffffffffffffffffffffffffffffffffffffffff\n      and\n      dup2\n      mstore\n      0x20\n      add\n      swap1\n      dup2\n      mstore\n      0x20\n      add\n      0x00\n      keccak256\n        /* \".deps/studying-solidity/testament/Testament.sol\":1587:1624  testament[_ownOfTestament].inheritors */\n      0x00\n      add\n        /* \".deps/studying-solidity/testament/Testament.sol\":1630:1640  _inheritor */\n      dup2\n        /* \".deps/studying-solidity/testament/Testament.sol\":1587:1641  testament[_ownOfTestament].inheritors.push(_inheritor) */\n      swap1\n      dup1\n      0x01\n      dup2\n      sload\n      add\n      dup1\n      dup3\n      sstore\n      dup1\n      swap2\n      pop\n      pop\n      0x01\n      swap1\n      sub\n      swap1\n      0x00\n      mstore\n      keccak256(0x00, 0x20)\n      add\n      0x00\n      swap1\n      swap2\n      swap1\n      swap2\n      swap1\n      swap2\n      pop\n      0x00\n      dup3\n      add\n      mload\n      dup2\n      0x00\n      add\n      exp(0x0100, 0x00)\n      dup2\n      sload\n      dup2\n      0xffffffffffffffffffffffffffffffffffffffff\n      mul\n      not\n      and\n      swap1\n      dup4\n      0xffffffffffffffffffffffffffffffffffffffff\n      and\n      mul\n      or\n      swap1\n      sstore\n      pop\n      0x20\n      dup3\n      add\n      mload\n      dup2\n      0x00\n      add\n      exp(0x0100, 0x14)\n      dup2\n      sload\n      dup2\n      0xffff\n      mul\n      not\n      and\n      swap1\n      dup4\n      0xffff\n      and\n      mul\n      or\n      swap1\n      sstore\n      pop\n      0x40\n      dup3\n      add\n      mload\n      dup2\n      0x00\n      add\n      exp(0x0100, 0x16)\n      dup2\n      sload\n      dup2\n      0xff\n      mul\n      not\n      and\n      swap1\n      dup4\n      iszero\n      iszero\n      mul\n      or\n      swap1\n      sstore\n      pop\n      pop\n      pop\n        /* \".deps/studying-solidity/testament/Testament.sol\":1226:1652  {... */\n      pop\n        /* \".deps/studying-solidity/testament/Testament.sol\":1221:1224  i++ */\n      dup1\n      dup1\n      0x01\n      add\n      swap2\n      pop\n      pop\n        /* \".deps/studying-solidity/testament/Testament.sol\":1178:1652  for (uint256 i = 0; i < _addresses.length; i++) {... */\n      jump(tag_216)\n    tag_217:\n      pop\n        /* \".deps/studying-solidity/testament/Testament.sol\":1697:1701  true */\n      0x01\n        /* \".deps/studying-solidity/testament/Testament.sol\":1662:1671  testament */\n      0x00\n        /* \".deps/studying-solidity/testament/Testament.sol\":1662:1688  testament[_ownOfTestament] */\n      dup1\n        /* \".deps/studying-solidity/testament/Testament.sol\":1672:1687  _ownOfTestament */\n      dup4\n        /* \".deps/studying-solidity/testament/Testament.sol\":1662:1688  testament[_ownOfTestament] */\n      0xffffffffffffffffffffffffffffffffffffffff\n      and\n      0xffffffffffffffffffffffffffffffffffffffff\n      and\n      dup2\n      mstore\n      0x20\n      add\n      swap1\n      dup2\n      mstore\n      0x20\n      add\n      0x00\n      keccak256\n        /* \".deps/studying-solidity/testament/Testament.sol\":1662:1694  testament[_ownOfTestament].exist */\n      0x01\n      add\n      0x00\n        /* \".deps/studying-solidity/testament/Testament.sol\":1662:1701  testament[_ownOfTestament].exist = true */\n      0x0100\n      exp\n      dup2\n      sload\n      dup2\n      0xff\n      mul\n      not\n      and\n      swap1\n      dup4\n      iszero\n      iszero\n      mul\n      or\n      swap1\n      sstore\n      pop\n        /* \".deps/studying-solidity/testament/Testament.sol\":1757:1766  msg.value */\n      callvalue\n        /* \".deps/studying-solidity/testament/Testament.sol\":1711:1720  testament */\n      0x00\n        /* \".deps/studying-solidity/testament/Testament.sol\":1711:1737  testament[_ownOfTestament] */\n      dup1\n        /* \".deps/studying-solidity/testament/Testament.sol\":1721:1736  _ownOfTestament */\n      dup4\n        /* \".deps/studying-solidity/testament/Testament.sol\":1711:1737  testament[_ownOfTestament] */\n      0xffffffffffffffffffffffffffffffffffffffff\n      and\n      0xffffffffffffffffffffffffffffffffffffffff\n      and\n      dup2\n      mstore\n      0x20\n      add\n      swap1\n      dup2\n      mstore\n      0x20\n      add\n      0x00\n      keccak256\n        /* \".deps/studying-solidity/testament/Testament.sol\":1711:1754  testament[_ownOfTestament].inheritanceValue */\n      0x02\n      add\n        /* \".deps/studying-solidity/testament/Testament.sol\":1711:1766  testament[_ownOfTestament].inheritanceValue = msg.value */\n      dup2\n      swap1\n      sstore\n      pop\n        /* \".deps/studying-solidity/testament/Testament.sol\":1776:1795  updateProofOfLife() */\n      tag_227\n        /* \".deps/studying-solidity/testament/Testament.sol\":1776:1793  updateProofOfLife */\n      tag_62\n        /* \".deps/studying-solidity/testament/Testament.sol\":1776:1795  updateProofOfLife() */\n      jump\t// in\n    tag_227:\n        /* \".deps/studying-solidity/testament/Testament.sol\":498:1802  {... */\n      pop\n        /* \".deps/studying-solidity/testament/Testament.sol\":372:1802  function createInheritance(... */\n      pop\n      pop\n      jump\t// out\n        /* \".deps/studying-solidity/testament/Testament.sol\":5210:6459  function clearOldInheritorsOfTestament(address _ownTestament) internal {... */\n    tag_80:\n        /* \".deps/studying-solidity/testament/Testament.sol\":5360:5392  Inheritor[] memory oldInheritors */\n      0x00\n        /* \".deps/studying-solidity/testament/Testament.sol\":5395:5404  testament */\n      dup1\n        /* \".deps/studying-solidity/testament/Testament.sol\":5395:5419  testament[_ownTestament] */\n      0x00\n        /* \".deps/studying-solidity/testament/Testament.sol\":5405:5418  _ownTestament */\n      dup4\n        /* \".deps/studying-solidity/testament/Testament.sol\":5395:5419  testament[_ownTestament] */\n      0xffffffffffffffffffffffffffffffffffffffff\n      and\n      0xffffffffffffffffffffffffffffffffffffffff\n      and\n      dup2\n      mstore\n      0x20\n      add\n      swap1\n      dup2\n      mstore\n      0x20\n      add\n      0x00\n      keccak256\n        /* \".deps/studying-solidity/testament/Testament.sol\":5395:5430  testament[_ownTestament].inheritors */\n      0x00\n      add\n        /* \".deps/studying-solidity/testament/Testament.sol\":5360:5430  Inheritor[] memory oldInheritors = testament[_ownTestament].inheritors */\n      dup1\n      sload\n      dup1\n      0x20\n      mul\n      0x20\n      add\n      mload(0x40)\n      swap1\n      dup2\n      add\n      0x40\n      mstore\n      dup1\n      swap3\n      swap2\n      swap1\n      dup2\n      dup2\n      mstore\n      0x20\n      add\n      0x00\n      swap1\n    tag_229:\n      dup3\n      dup3\n      lt\n      iszero\n      tag_230\n      jumpi\n      dup4\n      dup3\n      swap1\n      0x00\n      mstore\n      keccak256(0x00, 0x20)\n      add\n      mload(0x40)\n      dup1\n      0x60\n      add\n      0x40\n      mstore\n      swap1\n      dup2\n      0x00\n      dup3\n      add\n      0x00\n      swap1\n      sload\n      swap1\n      0x0100\n      exp\n      swap1\n      div\n      0xffffffffffffffffffffffffffffffffffffffff\n      and\n      0xffffffffffffffffffffffffffffffffffffffff\n      and\n      0xffffffffffffffffffffffffffffffffffffffff\n      and\n      dup2\n      mstore\n      0x20\n      add\n      0x00\n      dup3\n      add\n      0x14\n      swap1\n      sload\n      swap1\n      0x0100\n      exp\n      swap1\n      div\n      0xffff\n      and\n      0xffff\n      and\n      0xffff\n      and\n      dup2\n      mstore\n      0x20\n      add\n      0x00\n      dup3\n      add\n      0x16\n      swap1\n      sload\n      swap1\n      0x0100\n      exp\n      swap1\n      div\n      0xff\n      and\n      iszero\n      iszero\n      iszero\n      iszero\n      dup2\n      mstore\n      pop\n      pop\n      dup2\n      mstore\n      0x20\n      add\n      swap1\n      0x01\n      add\n      swap1\n      jump(tag_229)\n    tag_230:\n      pop\n      pop\n      pop\n      pop\n      swap1\n      pop\n        /* \".deps/studying-solidity/testament/Testament.sol\":5491:5500  uint256 i */\n      0x00\n        /* \".deps/studying-solidity/testament/Testament.sol\":5486:6453  for (uint256 i = 0; i < oldInheritors.length; i++) {... */\n    tag_232:\n        /* \".deps/studying-solidity/testament/Testament.sol\":5510:5523  oldInheritors */\n      dup2\n        /* \".deps/studying-solidity/testament/Testament.sol\":5510:5530  oldInheritors.length */\n      mload\n        /* \".deps/studying-solidity/testament/Testament.sol\":5506:5507  i */\n      dup2\n        /* \".deps/studying-solidity/testament/Testament.sol\":5506:5530  i < oldInheritors.length */\n      lt\n        /* \".deps/studying-solidity/testament/Testament.sol\":5486:6453  for (uint256 i = 0; i < oldInheritors.length; i++) {... */\n      iszero\n      tag_233\n      jumpi\n        /* \".deps/studying-solidity/testament/Testament.sol\":5627:5667  address[] memory testatorsOfOldInheritor */\n      0x00\n        /* \".deps/studying-solidity/testament/Testament.sol\":5670:5690  inheritorToTestators */\n      0x01\n        /* \".deps/studying-solidity/testament/Testament.sol\":5670:5755  inheritorToTestators[... */\n      0x00\n        /* \".deps/studying-solidity/testament/Testament.sol\":5708:5721  oldInheritors */\n      dup5\n        /* \".deps/studying-solidity/testament/Testament.sol\":5722:5723  i */\n      dup5\n        /* \".deps/studying-solidity/testament/Testament.sol\":5708:5724  oldInheritors[i] */\n      dup2\n      mload\n      dup2\n      lt\n      tag_235\n      jumpi\n      tag_236\n      tag_88\n      jump\t// in\n    tag_236:\n    tag_235:\n      0x20\n      mul\n      0x20\n      add\n      add\n      mload\n        /* \".deps/studying-solidity/testament/Testament.sol\":5708:5741  oldInheritors[i].inheritorAddress */\n      0x00\n      add\n      mload\n        /* \".deps/studying-solidity/testament/Testament.sol\":5670:5755  inheritorToTestators[... */\n      0xffffffffffffffffffffffffffffffffffffffff\n      and\n      0xffffffffffffffffffffffffffffffffffffffff\n      and\n      dup2\n      mstore\n      0x20\n      add\n      swap1\n      dup2\n      mstore\n      0x20\n      add\n      0x00\n      keccak256\n        /* \".deps/studying-solidity/testament/Testament.sol\":5627:5755  address[] memory testatorsOfOldInheritor = inheritorToTestators[... */\n      dup1\n      sload\n      dup1\n      0x20\n      mul\n      0x20\n      add\n      mload(0x40)\n      swap1\n      dup2\n      add\n      0x40\n      mstore\n      dup1\n      swap3\n      swap2\n      swap1\n      dup2\n      dup2\n      mstore\n      0x20\n      add\n      dup3\n      dup1\n      sload\n      dup1\n      iszero\n      tag_237\n      jumpi\n      0x20\n      mul\n      dup3\n      add\n      swap2\n      swap1\n      0x00\n      mstore\n      keccak256(0x00, 0x20)\n      swap1\n    tag_238:\n      dup2\n      0x00\n      swap1\n      sload\n      swap1\n      0x0100\n      exp\n      swap1\n      div\n      0xffffffffffffffffffffffffffffffffffffffff\n      and\n      0xffffffffffffffffffffffffffffffffffffffff\n      and\n      dup2\n      mstore\n      0x20\n      add\n      swap1\n      0x01\n      add\n      swap1\n      dup1\n      dup4\n      gt\n      tag_238\n      jumpi\n    tag_237:\n      pop\n      pop\n      pop\n      pop\n      pop\n      swap1\n      pop\n        /* \".deps/studying-solidity/testament/Testament.sol\":5770:5784  uint256 length */\n      0x00\n        /* \".deps/studying-solidity/testament/Testament.sol\":5787:5810  testatorsOfOldInheritor */\n      dup2\n        /* \".deps/studying-solidity/testament/Testament.sol\":5787:5817  testatorsOfOldInheritor.length */\n      mload\n        /* \".deps/studying-solidity/testament/Testament.sol\":5770:5817  uint256 length = testatorsOfOldInheritor.length */\n      swap1\n      pop\n        /* \".deps/studying-solidity/testament/Testament.sol\":5960:5969  uint256 j */\n      0x00\n        /* \".deps/studying-solidity/testament/Testament.sol\":5955:6443  for (uint256 j = 0; j < length; j++) {... */\n    tag_239:\n        /* \".deps/studying-solidity/testament/Testament.sol\":5979:5985  length */\n      dup2\n        /* \".deps/studying-solidity/testament/Testament.sol\":5975:5976  j */\n      dup2\n        /* \".deps/studying-solidity/testament/Testament.sol\":5975:5985  j < length */\n      lt\n        /* \".deps/studying-solidity/testament/Testament.sol\":5955:6443  for (uint256 j = 0; j < length; j++) {... */\n      iszero\n      tag_240\n      jumpi\n        /* \".deps/studying-solidity/testament/Testament.sol\":6044:6057  _ownTestament */\n      dup6\n        /* \".deps/studying-solidity/testament/Testament.sol\":6014:6057  testatorsOfOldInheritor[j] == _ownTestament */\n      0xffffffffffffffffffffffffffffffffffffffff\n      and\n        /* \".deps/studying-solidity/testament/Testament.sol\":6014:6037  testatorsOfOldInheritor */\n      dup4\n        /* \".deps/studying-solidity/testament/Testament.sol\":6038:6039  j */\n      dup3\n        /* \".deps/studying-solidity/testament/Testament.sol\":6014:6040  testatorsOfOldInheritor[j] */\n      dup2\n      mload\n      dup2\n      lt\n      tag_242\n      jumpi\n      tag_243\n      tag_88\n      jump\t// in\n    tag_243:\n    tag_242:\n      0x20\n      mul\n      0x20\n      add\n      add\n      mload\n        /* \".deps/studying-solidity/testament/Testament.sol\":6014:6057  testatorsOfOldInheritor[j] == _ownTestament */\n      0xffffffffffffffffffffffffffffffffffffffff\n      and\n      sub\n        /* \".deps/studying-solidity/testament/Testament.sol\":6010:6429  if (testatorsOfOldInheritor[j] == _ownTestament) {... */\n      tag_244\n      jumpi\n        /* \".deps/studying-solidity/testament/Testament.sol\":6110:6133  testatorsOfOldInheritor */\n      dup3\n        /* \".deps/studying-solidity/testament/Testament.sol\":6168:6169  1 */\n      0x01\n        /* \".deps/studying-solidity/testament/Testament.sol\":6159:6165  length */\n      dup4\n        /* \".deps/studying-solidity/testament/Testament.sol\":6159:6169  length - 1 */\n      tag_245\n      swap2\n      swap1\n      tag_165\n      jump\t// in\n    tag_245:\n        /* \".deps/studying-solidity/testament/Testament.sol\":6110:6191  testatorsOfOldInheritor[... */\n      dup2\n      mload\n      dup2\n      lt\n      tag_246\n      jumpi\n      tag_247\n      tag_88\n      jump\t// in\n    tag_247:\n    tag_246:\n      0x20\n      mul\n      0x20\n      add\n      add\n      mload\n        /* \".deps/studying-solidity/testament/Testament.sol\":6081:6104  testatorsOfOldInheritor */\n      dup4\n        /* \".deps/studying-solidity/testament/Testament.sol\":6105:6106  j */\n      dup3\n        /* \".deps/studying-solidity/testament/Testament.sol\":6081:6107  testatorsOfOldInheritor[j] */\n      dup2\n      mload\n      dup2\n      lt\n      tag_248\n      jumpi\n      tag_249\n      tag_88\n      jump\t// in\n    tag_249:\n    tag_248:\n      0x20\n      mul\n      0x20\n      add\n      add\n        /* \".deps/studying-solidity/testament/Testament.sol\":6081:6191  testatorsOfOldInheritor[j] = testatorsOfOldInheritor[... */\n      swap1\n      0xffffffffffffffffffffffffffffffffffffffff\n      and\n      swap1\n      dup2\n      0xffffffffffffffffffffffffffffffffffffffff\n      and\n      dup2\n      mstore\n      pop\n      pop\n        /* \".deps/studying-solidity/testament/Testament.sol\":6239:6259  inheritorToTestators */\n      0x01\n        /* \".deps/studying-solidity/testament/Testament.sol\":6239:6294  inheritorToTestators[oldInheritors[i].inheritorAddress] */\n      0x00\n        /* \".deps/studying-solidity/testament/Testament.sol\":6260:6273  oldInheritors */\n      dup7\n        /* \".deps/studying-solidity/testament/Testament.sol\":6274:6275  i */\n      dup7\n        /* \".deps/studying-solidity/testament/Testament.sol\":6260:6276  oldInheritors[i] */\n      dup2\n      mload\n      dup2\n      lt\n      tag_250\n      jumpi\n      tag_251\n      tag_88\n      jump\t// in\n    tag_251:\n    tag_250:\n      0x20\n      mul\n      0x20\n      add\n      add\n      mload\n        /* \".deps/studying-solidity/testament/Testament.sol\":6260:6293  oldInheritors[i].inheritorAddress */\n      0x00\n      add\n      mload\n        /* \".deps/studying-solidity/testament/Testament.sol\":6239:6294  inheritorToTestators[oldInheritors[i].inheritorAddress] */\n      0xffffffffffffffffffffffffffffffffffffffff\n      and\n      0xffffffffffffffffffffffffffffffffffffffff\n      and\n      dup2\n      mstore\n      0x20\n      add\n      swap1\n      dup2\n      mstore\n      0x20\n      add\n      0x00\n      keccak256\n        /* \".deps/studying-solidity/testament/Testament.sol\":6239:6325  inheritorToTestators[oldInheritors[i].inheritorAddress]... */\n      dup1\n      sload\n      dup1\n      tag_252\n      jumpi\n      tag_253\n      tag_254\n      jump\t// in\n    tag_253:\n    tag_252:\n      0x01\n      swap1\n      sub\n      dup2\n      dup2\n      swap1\n      0x00\n      mstore\n      keccak256(0x00, 0x20)\n      add\n      exp(0x0100, 0x00)\n      dup2\n      sload\n      swap1\n      0xffffffffffffffffffffffffffffffffffffffff\n      mul\n      not\n      and\n      swap1\n      sstore\n      swap1\n      sstore\n        /* \".deps/studying-solidity/testament/Testament.sol\":6367:6372  break */\n      jump(tag_240)\n        /* \".deps/studying-solidity/testament/Testament.sol\":6010:6429  if (testatorsOfOldInheritor[j] == _ownTestament) {... */\n    tag_244:\n        /* \".deps/studying-solidity/testament/Testament.sol\":5987:5990  j++ */\n      dup1\n      dup1\n      0x01\n      add\n      swap2\n      pop\n      pop\n        /* \".deps/studying-solidity/testament/Testament.sol\":5955:6443  for (uint256 j = 0; j < length; j++) {... */\n      jump(tag_239)\n    tag_240:\n      pop\n        /* \".deps/studying-solidity/testament/Testament.sol\":5537:6453  {... */\n      pop\n      pop\n        /* \".deps/studying-solidity/testament/Testament.sol\":5532:5535  i++ */\n      dup1\n      dup1\n      0x01\n      add\n      swap2\n      pop\n      pop\n        /* \".deps/studying-solidity/testament/Testament.sol\":5486:6453  for (uint256 i = 0; i < oldInheritors.length; i++) {... */\n      jump(tag_232)\n    tag_233:\n      pop\n        /* \".deps/studying-solidity/testament/Testament.sol\":5281:6459  {... */\n      pop\n        /* \".deps/studying-solidity/testament/Testament.sol\":5210:6459  function clearOldInheritorsOfTestament(address _ownTestament) internal {... */\n      pop\n      jump\t// out\n    tag_82:\n      pop\n      dup1\n      sload\n      0x00\n      dup3\n      sstore\n      swap1\n      0x00\n      mstore\n      keccak256(0x00, 0x20)\n      swap1\n      dup2\n      add\n      swap1\n      tag_257\n      swap2\n      swap1\n      tag_258\n      jump\t// in\n    tag_257:\n      pop\n      jump\t// out\n    tag_258:\n    tag_259:\n      dup1\n      dup3\n      gt\n      iszero\n      tag_260\n      jumpi\n      0x00\n      dup1\n      dup3\n      add\n      exp(0x0100, 0x00)\n      dup2\n      sload\n      swap1\n      0xffffffffffffffffffffffffffffffffffffffff\n      mul\n      not\n      and\n      swap1\n      sstore\n      0x00\n      dup3\n      add\n      exp(0x0100, 0x14)\n      dup2\n      sload\n      swap1\n      0xffff\n      mul\n      not\n      and\n      swap1\n      sstore\n      0x00\n      dup3\n      add\n      exp(0x0100, 0x16)\n      dup2\n      sload\n      swap1\n      0xff\n      mul\n      not\n      and\n      swap1\n      sstore\n      pop\n      0x01\n      add\n      jump(tag_259)\n    tag_260:\n      pop\n      swap1\n      jump\t// out\n        /* \"#utility.yul\":7:82   */\n    tag_261:\n        /* \"#utility.yul\":40:46   */\n      0x00\n        /* \"#utility.yul\":73:75   */\n      0x40\n        /* \"#utility.yul\":67:76   */\n      mload\n        /* \"#utility.yul\":57:76   */\n      swap1\n      pop\n        /* \"#utility.yul\":7:82   */\n      swap1\n      jump\t// out\n        /* \"#utility.yul\":88:205   */\n    tag_262:\n        /* \"#utility.yul\":197:198   */\n      0x00\n        /* \"#utility.yul\":194:195   */\n      dup1\n        /* \"#utility.yul\":187:199   */\n      revert\n        /* \"#utility.yul\":211:328   */\n    tag_263:\n        /* \"#utility.yul\":320:321   */\n      0x00\n        /* \"#utility.yul\":317:318   */\n      dup1\n        /* \"#utility.yul\":310:322   */\n      revert\n        /* \"#utility.yul\":334:451   */\n    tag_264:\n        /* \"#utility.yul\":443:444   */\n      0x00\n        /* \"#utility.yul\":440:441   */\n      dup1\n        /* \"#utility.yul\":433:445   */\n      revert\n        /* \"#utility.yul\":457:574   */\n    tag_265:\n        /* \"#utility.yul\":566:567   */\n      0x00\n        /* \"#utility.yul\":563:564   */\n      dup1\n        /* \"#utility.yul\":556:568   */\n      revert\n        /* \"#utility.yul\":580:697   */\n    tag_266:\n        /* \"#utility.yul\":689:690   */\n      0x00\n        /* \"#utility.yul\":686:687   */\n      dup1\n        /* \"#utility.yul\":679:691   */\n      revert\n        /* \"#utility.yul\":720:1288   */\n    tag_267:\n        /* \"#utility.yul\":793:801   */\n      0x00\n        /* \"#utility.yul\":803:809   */\n      dup1\n        /* \"#utility.yul\":853:856   */\n      dup4\n        /* \"#utility.yul\":846:850   */\n      0x1f\n        /* \"#utility.yul\":838:844   */\n      dup5\n        /* \"#utility.yul\":834:851   */\n      add\n        /* \"#utility.yul\":830:857   */\n      slt\n        /* \"#utility.yul\":820:942   */\n      tag_363\n      jumpi\n        /* \"#utility.yul\":861:940   */\n      tag_364\n      tag_264\n      jump\t// in\n    tag_364:\n        /* \"#utility.yul\":820:942   */\n    tag_363:\n        /* \"#utility.yul\":974:980   */\n      dup3\n        /* \"#utility.yul\":961:981   */\n      calldataload\n        /* \"#utility.yul\":951:981   */\n      swap1\n      pop\n        /* \"#utility.yul\":1004:1022   */\n      0xffffffffffffffff\n        /* \"#utility.yul\":996:1002   */\n      dup2\n        /* \"#utility.yul\":993:1023   */\n      gt\n        /* \"#utility.yul\":990:1107   */\n      iszero\n      tag_365\n      jumpi\n        /* \"#utility.yul\":1026:1105   */\n      tag_366\n      tag_265\n      jump\t// in\n    tag_366:\n        /* \"#utility.yul\":990:1107   */\n    tag_365:\n        /* \"#utility.yul\":1140:1144   */\n      0x20\n        /* \"#utility.yul\":1132:1138   */\n      dup4\n        /* \"#utility.yul\":1128:1145   */\n      add\n        /* \"#utility.yul\":1116:1145   */\n      swap2\n      pop\n        /* \"#utility.yul\":1194:1197   */\n      dup4\n        /* \"#utility.yul\":1186:1190   */\n      0x20\n        /* \"#utility.yul\":1178:1184   */\n      dup3\n        /* \"#utility.yul\":1174:1191   */\n      mul\n        /* \"#utility.yul\":1164:1172   */\n      dup4\n        /* \"#utility.yul\":1160:1192   */\n      add\n        /* \"#utility.yul\":1157:1198   */\n      gt\n        /* \"#utility.yul\":1154:1282   */\n      iszero\n      tag_367\n      jumpi\n        /* \"#utility.yul\":1201:1280   */\n      tag_368\n      tag_266\n      jump\t// in\n    tag_368:\n        /* \"#utility.yul\":1154:1282   */\n    tag_367:\n        /* \"#utility.yul\":720:1288   */\n      swap3\n      pop\n      swap3\n      swap1\n      pop\n      jump\t// out\n        /* \"#utility.yul\":1310:1877   */\n    tag_268:\n        /* \"#utility.yul\":1382:1390   */\n      0x00\n        /* \"#utility.yul\":1392:1398   */\n      dup1\n        /* \"#utility.yul\":1442:1445   */\n      dup4\n        /* \"#utility.yul\":1435:1439   */\n      0x1f\n        /* \"#utility.yul\":1427:1433   */\n      dup5\n        /* \"#utility.yul\":1423:1440   */\n      add\n        /* \"#utility.yul\":1419:1446   */\n      slt\n        /* \"#utility.yul\":1409:1531   */\n      tag_370\n      jumpi\n        /* \"#utility.yul\":1450:1529   */\n      tag_371\n      tag_264\n      jump\t// in\n    tag_371:\n        /* \"#utility.yul\":1409:1531   */\n    tag_370:\n        /* \"#utility.yul\":1563:1569   */\n      dup3\n        /* \"#utility.yul\":1550:1570   */\n      calldataload\n        /* \"#utility.yul\":1540:1570   */\n      swap1\n      pop\n        /* \"#utility.yul\":1593:1611   */\n      0xffffffffffffffff\n        /* \"#utility.yul\":1585:1591   */\n      dup2\n        /* \"#utility.yul\":1582:1612   */\n      gt\n        /* \"#utility.yul\":1579:1696   */\n      iszero\n      tag_372\n      jumpi\n        /* \"#utility.yul\":1615:1694   */\n      tag_373\n      tag_265\n      jump\t// in\n    tag_373:\n        /* \"#utility.yul\":1579:1696   */\n    tag_372:\n        /* \"#utility.yul\":1729:1733   */\n      0x20\n        /* \"#utility.yul\":1721:1727   */\n      dup4\n        /* \"#utility.yul\":1717:1734   */\n      add\n        /* \"#utility.yul\":1705:1734   */\n      swap2\n      pop\n        /* \"#utility.yul\":1783:1786   */\n      dup4\n        /* \"#utility.yul\":1775:1779   */\n      0x20\n        /* \"#utility.yul\":1767:1773   */\n      dup3\n        /* \"#utility.yul\":1763:1780   */\n      mul\n        /* \"#utility.yul\":1753:1761   */\n      dup4\n        /* \"#utility.yul\":1749:1781   */\n      add\n        /* \"#utility.yul\":1746:1787   */\n      gt\n        /* \"#utility.yul\":1743:1871   */\n      iszero\n      tag_374\n      jumpi\n        /* \"#utility.yul\":1790:1869   */\n      tag_375\n      tag_266\n      jump\t// in\n    tag_375:\n        /* \"#utility.yul\":1743:1871   */\n    tag_374:\n        /* \"#utility.yul\":1310:1877   */\n      swap3\n      pop\n      swap3\n      swap1\n      pop\n      jump\t// out\n        /* \"#utility.yul\":1883:2815   */\n    tag_18:\n        /* \"#utility.yul\":2004:2010   */\n      0x00\n        /* \"#utility.yul\":2012:2018   */\n      dup1\n        /* \"#utility.yul\":2020:2026   */\n      0x00\n        /* \"#utility.yul\":2028:2034   */\n      dup1\n        /* \"#utility.yul\":2077:2079   */\n      0x40\n        /* \"#utility.yul\":2065:2074   */\n      dup6\n        /* \"#utility.yul\":2056:2063   */\n      dup8\n        /* \"#utility.yul\":2052:2075   */\n      sub\n        /* \"#utility.yul\":2048:2080   */\n      slt\n        /* \"#utility.yul\":2045:2164   */\n      iszero\n      tag_377\n      jumpi\n        /* \"#utility.yul\":2083:2162   */\n      tag_378\n      tag_262\n      jump\t// in\n    tag_378:\n        /* \"#utility.yul\":2045:2164   */\n    tag_377:\n        /* \"#utility.yul\":2231:2232   */\n      0x00\n        /* \"#utility.yul\":2220:2229   */\n      dup6\n        /* \"#utility.yul\":2216:2233   */\n      add\n        /* \"#utility.yul\":2203:2234   */\n      calldataload\n        /* \"#utility.yul\":2261:2279   */\n      0xffffffffffffffff\n        /* \"#utility.yul\":2253:2259   */\n      dup2\n        /* \"#utility.yul\":2250:2280   */\n      gt\n        /* \"#utility.yul\":2247:2364   */\n      iszero\n      tag_379\n      jumpi\n        /* \"#utility.yul\":2283:2362   */\n      tag_380\n      tag_263\n      jump\t// in\n    tag_380:\n        /* \"#utility.yul\":2247:2364   */\n    tag_379:\n        /* \"#utility.yul\":2396:2476   */\n      tag_381\n        /* \"#utility.yul\":2468:2475   */\n      dup8\n        /* \"#utility.yul\":2459:2465   */\n      dup3\n        /* \"#utility.yul\":2448:2457   */\n      dup9\n        /* \"#utility.yul\":2444:2466   */\n      add\n        /* \"#utility.yul\":2396:2476   */\n      tag_267\n      jump\t// in\n    tag_381:\n        /* \"#utility.yul\":2378:2476   */\n      swap5\n      pop\n      swap5\n      pop\n        /* \"#utility.yul\":2174:2486   */\n      pop\n        /* \"#utility.yul\":2553:2555   */\n      0x20\n        /* \"#utility.yul\":2542:2551   */\n      dup6\n        /* \"#utility.yul\":2538:2556   */\n      add\n        /* \"#utility.yul\":2525:2557   */\n      calldataload\n        /* \"#utility.yul\":2584:2602   */\n      0xffffffffffffffff\n        /* \"#utility.yul\":2576:2582   */\n      dup2\n        /* \"#utility.yul\":2573:2603   */\n      gt\n        /* \"#utility.yul\":2570:2687   */\n      iszero\n      tag_382\n      jumpi\n        /* \"#utility.yul\":2606:2685   */\n      tag_383\n      tag_263\n      jump\t// in\n    tag_383:\n        /* \"#utility.yul\":2570:2687   */\n    tag_382:\n        /* \"#utility.yul\":2719:2798   */\n      tag_384\n        /* \"#utility.yul\":2790:2797   */\n      dup8\n        /* \"#utility.yul\":2781:2787   */\n      dup3\n        /* \"#utility.yul\":2770:2779   */\n      dup9\n        /* \"#utility.yul\":2766:2788   */\n      add\n        /* \"#utility.yul\":2719:2798   */\n      tag_268\n      jump\t// in\n    tag_384:\n        /* \"#utility.yul\":2701:2798   */\n      swap3\n      pop\n      swap3\n      pop\n        /* \"#utility.yul\":2496:2808   */\n      pop\n        /* \"#utility.yul\":1883:2815   */\n      swap3\n      swap6\n      swap2\n      swap5\n      pop\n      swap3\n      pop\n      jump\t// out\n        /* \"#utility.yul\":2821:2947   */\n    tag_269:\n        /* \"#utility.yul\":2858:2865   */\n      0x00\n        /* \"#utility.yul\":2898:2940   */\n      0xffffffffffffffffffffffffffffffffffffffff\n        /* \"#utility.yul\":2891:2896   */\n      dup3\n        /* \"#utility.yul\":2887:2941   */\n      and\n        /* \"#utility.yul\":2876:2941   */\n      swap1\n      pop\n        /* \"#utility.yul\":2821:2947   */\n      swap2\n      swap1\n      pop\n      jump\t// out\n        /* \"#utility.yul\":2953:3049   */\n    tag_270:\n        /* \"#utility.yul\":2990:2997   */\n      0x00\n        /* \"#utility.yul\":3019:3043   */\n      tag_387\n        /* \"#utility.yul\":3037:3042   */\n      dup3\n        /* \"#utility.yul\":3019:3043   */\n      tag_269\n      jump\t// in\n    tag_387:\n        /* \"#utility.yul\":3008:3043   */\n      swap1\n      pop\n        /* \"#utility.yul\":2953:3049   */\n      swap2\n      swap1\n      pop\n      jump\t// out\n        /* \"#utility.yul\":3055:3177   */\n    tag_271:\n        /* \"#utility.yul\":3128:3152   */\n      tag_389\n        /* \"#utility.yul\":3146:3151   */\n      dup2\n        /* \"#utility.yul\":3128:3152   */\n      tag_270\n      jump\t// in\n    tag_389:\n        /* \"#utility.yul\":3121:3126   */\n      dup2\n        /* \"#utility.yul\":3118:3153   */\n      eq\n        /* \"#utility.yul\":3108:3171   */\n      tag_390\n      jumpi\n        /* \"#utility.yul\":3167:3168   */\n      0x00\n        /* \"#utility.yul\":3164:3165   */\n      dup1\n        /* \"#utility.yul\":3157:3169   */\n      revert\n        /* \"#utility.yul\":3108:3171   */\n    tag_390:\n        /* \"#utility.yul\":3055:3177   */\n      pop\n      jump\t// out\n        /* \"#utility.yul\":3183:3322   */\n    tag_272:\n        /* \"#utility.yul\":3229:3234   */\n      0x00\n        /* \"#utility.yul\":3267:3273   */\n      dup2\n        /* \"#utility.yul\":3254:3274   */\n      calldataload\n        /* \"#utility.yul\":3245:3274   */\n      swap1\n      pop\n        /* \"#utility.yul\":3283:3316   */\n      tag_392\n        /* \"#utility.yul\":3310:3315   */\n      dup2\n        /* \"#utility.yul\":3283:3316   */\n      tag_271\n      jump\t// in\n    tag_392:\n        /* \"#utility.yul\":3183:3322   */\n      swap3\n      swap2\n      pop\n      pop\n      jump\t// out\n        /* \"#utility.yul\":3328:3657   */\n    tag_28:\n        /* \"#utility.yul\":3387:3393   */\n      0x00\n        /* \"#utility.yul\":3436:3438   */\n      0x20\n        /* \"#utility.yul\":3424:3433   */\n      dup3\n        /* \"#utility.yul\":3415:3422   */\n      dup5\n        /* \"#utility.yul\":3411:3434   */\n      sub\n        /* \"#utility.yul\":3407:3439   */\n      slt\n        /* \"#utility.yul\":3404:3523   */\n      iszero\n      tag_394\n      jumpi\n        /* \"#utility.yul\":3442:3521   */\n      tag_395\n      tag_262\n      jump\t// in\n    tag_395:\n        /* \"#utility.yul\":3404:3523   */\n    tag_394:\n        /* \"#utility.yul\":3562:3563   */\n      0x00\n        /* \"#utility.yul\":3587:3640   */\n      tag_396\n        /* \"#utility.yul\":3632:3639   */\n      dup5\n        /* \"#utility.yul\":3623:3629   */\n      dup3\n        /* \"#utility.yul\":3612:3621   */\n      dup6\n        /* \"#utility.yul\":3608:3630   */\n      add\n        /* \"#utility.yul\":3587:3640   */\n      tag_272\n      jump\t// in\n    tag_396:\n        /* \"#utility.yul\":3577:3640   */\n      swap2\n      pop\n        /* \"#utility.yul\":3533:3650   */\n      pop\n        /* \"#utility.yul\":3328:3657   */\n      swap3\n      swap2\n      pop\n      pop\n      jump\t// out\n        /* \"#utility.yul\":3663:3740   */\n    tag_273:\n        /* \"#utility.yul\":3700:3707   */\n      0x00\n        /* \"#utility.yul\":3729:3734   */\n      dup2\n        /* \"#utility.yul\":3718:3734   */\n      swap1\n      pop\n        /* \"#utility.yul\":3663:3740   */\n      swap2\n      swap1\n      pop\n      jump\t// out\n        /* \"#utility.yul\":3746:3868   */\n    tag_274:\n        /* \"#utility.yul\":3819:3843   */\n      tag_399\n        /* \"#utility.yul\":3837:3842   */\n      dup2\n        /* \"#utility.yul\":3819:3843   */\n      tag_273\n      jump\t// in\n    tag_399:\n        /* \"#utility.yul\":3812:3817   */\n      dup2\n        /* \"#utility.yul\":3809:3844   */\n      eq\n        /* \"#utility.yul\":3799:3862   */\n      tag_400\n      jumpi\n        /* \"#utility.yul\":3858:3859   */\n      0x00\n        /* \"#utility.yul\":3855:3856   */\n      dup1\n        /* \"#utility.yul\":3848:3860   */\n      revert\n        /* \"#utility.yul\":3799:3862   */\n    tag_400:\n        /* \"#utility.yul\":3746:3868   */\n      pop\n      jump\t// out\n        /* \"#utility.yul\":3874:4013   */\n    tag_275:\n        /* \"#utility.yul\":3920:3925   */\n      0x00\n        /* \"#utility.yul\":3958:3964   */\n      dup2\n        /* \"#utility.yul\":3945:3965   */\n      calldataload\n        /* \"#utility.yul\":3936:3965   */\n      swap1\n      pop\n        /* \"#utility.yul\":3974:4007   */\n      tag_402\n        /* \"#utility.yul\":4001:4006   */\n      dup2\n        /* \"#utility.yul\":3974:4007   */\n      tag_274\n      jump\t// in\n    tag_402:\n        /* \"#utility.yul\":3874:4013   */\n      swap3\n      swap2\n      pop\n      pop\n      jump\t// out\n        /* \"#utility.yul\":4019:4493   */\n    tag_33:\n        /* \"#utility.yul\":4087:4093   */\n      0x00\n        /* \"#utility.yul\":4095:4101   */\n      dup1\n        /* \"#utility.yul\":4144:4146   */\n      0x40\n        /* \"#utility.yul\":4132:4141   */\n      dup4\n        /* \"#utility.yul\":4123:4130   */\n      dup6\n        /* \"#utility.yul\":4119:4142   */\n      sub\n        /* \"#utility.yul\":4115:4147   */\n      slt\n        /* \"#utility.yul\":4112:4231   */\n      iszero\n      tag_404\n      jumpi\n        /* \"#utility.yul\":4150:4229   */\n      tag_405\n      tag_262\n      jump\t// in\n    tag_405:\n        /* \"#utility.yul\":4112:4231   */\n    tag_404:\n        /* \"#utility.yul\":4270:4271   */\n      0x00\n        /* \"#utility.yul\":4295:4348   */\n      tag_406\n        /* \"#utility.yul\":4340:4347   */\n      dup6\n        /* \"#utility.yul\":4331:4337   */\n      dup3\n        /* \"#utility.yul\":4320:4329   */\n      dup7\n        /* \"#utility.yul\":4316:4338   */\n      add\n        /* \"#utility.yul\":4295:4348   */\n      tag_272\n      jump\t// in\n    tag_406:\n        /* \"#utility.yul\":4285:4348   */\n      swap3\n      pop\n        /* \"#utility.yul\":4241:4358   */\n      pop\n        /* \"#utility.yul\":4397:4399   */\n      0x20\n        /* \"#utility.yul\":4423:4476   */\n      tag_407\n        /* \"#utility.yul\":4468:4475   */\n      dup6\n        /* \"#utility.yul\":4459:4465   */\n      dup3\n        /* \"#utility.yul\":4448:4457   */\n      dup7\n        /* \"#utility.yul\":4444:4466   */\n      add\n        /* \"#utility.yul\":4423:4476   */\n      tag_275\n      jump\t// in\n    tag_407:\n        /* \"#utility.yul\":4413:4476   */\n      swap2\n      pop\n        /* \"#utility.yul\":4368:4486   */\n      pop\n        /* \"#utility.yul\":4019:4493   */\n      swap3\n      pop\n      swap3\n      swap1\n      pop\n      jump\t// out\n        /* \"#utility.yul\":4499:4617   */\n    tag_276:\n        /* \"#utility.yul\":4586:4610   */\n      tag_409\n        /* \"#utility.yul\":4604:4609   */\n      dup2\n        /* \"#utility.yul\":4586:4610   */\n      tag_270\n      jump\t// in\n    tag_409:\n        /* \"#utility.yul\":4581:4584   */\n      dup3\n        /* \"#utility.yul\":4574:4611   */\n      mstore\n        /* \"#utility.yul\":4499:4617   */\n      pop\n      pop\n      jump\t// out\n        /* \"#utility.yul\":4623:4845   */\n    tag_36:\n        /* \"#utility.yul\":4716:4720   */\n      0x00\n        /* \"#utility.yul\":4754:4756   */\n      0x20\n        /* \"#utility.yul\":4743:4752   */\n      dup3\n        /* \"#utility.yul\":4739:4757   */\n      add\n        /* \"#utility.yul\":4731:4757   */\n      swap1\n      pop\n        /* \"#utility.yul\":4767:4838   */\n      tag_411\n        /* \"#utility.yul\":4835:4836   */\n      0x00\n        /* \"#utility.yul\":4824:4833   */\n      dup4\n        /* \"#utility.yul\":4820:4837   */\n      add\n        /* \"#utility.yul\":4811:4817   */\n      dup5\n        /* \"#utility.yul\":4767:4838   */\n      tag_276\n      jump\t// in\n    tag_411:\n        /* \"#utility.yul\":4623:4845   */\n      swap3\n      swap2\n      pop\n      pop\n      jump\t// out\n        /* \"#utility.yul\":4851:5180   */\n    tag_40:\n        /* \"#utility.yul\":4910:4916   */\n      0x00\n        /* \"#utility.yul\":4959:4961   */\n      0x20\n        /* \"#utility.yul\":4947:4956   */\n      dup3\n        /* \"#utility.yul\":4938:4945   */\n      dup5\n        /* \"#utility.yul\":4934:4957   */\n      sub\n        /* \"#utility.yul\":4930:4962   */\n      slt\n        /* \"#utility.yul\":4927:5046   */\n      iszero\n      tag_413\n      jumpi\n        /* \"#utility.yul\":4965:5044   */\n      tag_414\n      tag_262\n      jump\t// in\n    tag_414:\n        /* \"#utility.yul\":4927:5046   */\n    tag_413:\n        /* \"#utility.yul\":5085:5086   */\n      0x00\n        /* \"#utility.yul\":5110:5163   */\n      tag_415\n        /* \"#utility.yul\":5155:5162   */\n      dup5\n        /* \"#utility.yul\":5146:5152   */\n      dup3\n        /* \"#utility.yul\":5135:5144   */\n      dup6\n        /* \"#utility.yul\":5131:5153   */\n      add\n        /* \"#utility.yul\":5110:5163   */\n      tag_275\n      jump\t// in\n    tag_415:\n        /* \"#utility.yul\":5100:5163   */\n      swap2\n      pop\n        /* \"#utility.yul\":5056:5173   */\n      pop\n        /* \"#utility.yul\":4851:5180   */\n      swap3\n      swap2\n      pop\n      pop\n      jump\t// out\n        /* \"#utility.yul\":5186:5276   */\n    tag_277:\n        /* \"#utility.yul\":5220:5227   */\n      0x00\n        /* \"#utility.yul\":5263:5268   */\n      dup2\n        /* \"#utility.yul\":5256:5269   */\n      iszero\n        /* \"#utility.yul\":5249:5270   */\n      iszero\n        /* \"#utility.yul\":5238:5270   */\n      swap1\n      pop\n        /* \"#utility.yul\":5186:5276   */\n      swap2\n      swap1\n      pop\n      jump\t// out\n        /* \"#utility.yul\":5282:5391   */\n    tag_278:\n        /* \"#utility.yul\":5363:5384   */\n      tag_418\n        /* \"#utility.yul\":5378:5383   */\n      dup2\n        /* \"#utility.yul\":5363:5384   */\n      tag_277\n      jump\t// in\n    tag_418:\n        /* \"#utility.yul\":5358:5361   */\n      dup3\n        /* \"#utility.yul\":5351:5385   */\n      mstore\n        /* \"#utility.yul\":5282:5391   */\n      pop\n      pop\n      jump\t// out\n        /* \"#utility.yul\":5397:5607   */\n    tag_47:\n        /* \"#utility.yul\":5484:5488   */\n      0x00\n        /* \"#utility.yul\":5522:5524   */\n      0x20\n        /* \"#utility.yul\":5511:5520   */\n      dup3\n        /* \"#utility.yul\":5507:5525   */\n      add\n        /* \"#utility.yul\":5499:5525   */\n      swap1\n      pop\n        /* \"#utility.yul\":5535:5600   */\n      tag_420\n        /* \"#utility.yul\":5597:5598   */\n      0x00\n        /* \"#utility.yul\":5586:5595   */\n      dup4\n        /* \"#utility.yul\":5582:5599   */\n      add\n        /* \"#utility.yul\":5573:5579   */\n      dup5\n        /* \"#utility.yul\":5535:5600   */\n      tag_278\n      jump\t// in\n    tag_420:\n        /* \"#utility.yul\":5397:5607   */\n      swap3\n      swap2\n      pop\n      pop\n      jump\t// out\n        /* \"#utility.yul\":5613:5731   */\n    tag_279:\n        /* \"#utility.yul\":5650:5657   */\n      0x00\n        /* \"#utility.yul\":5690:5724   */\n      0xffffffffffffffffffffffffffffffff\n        /* \"#utility.yul\":5683:5688   */\n      dup3\n        /* \"#utility.yul\":5679:5725   */\n      and\n        /* \"#utility.yul\":5668:5725   */\n      swap1\n      pop\n        /* \"#utility.yul\":5613:5731   */\n      swap2\n      swap1\n      pop\n      jump\t// out\n        /* \"#utility.yul\":5737:5855   */\n    tag_280:\n        /* \"#utility.yul\":5824:5848   */\n      tag_423\n        /* \"#utility.yul\":5842:5847   */\n      dup2\n        /* \"#utility.yul\":5824:5848   */\n      tag_279\n      jump\t// in\n    tag_423:\n        /* \"#utility.yul\":5819:5822   */\n      dup3\n        /* \"#utility.yul\":5812:5849   */\n      mstore\n        /* \"#utility.yul\":5737:5855   */\n      pop\n      pop\n      jump\t// out\n        /* \"#utility.yul\":5861:5979   */\n    tag_281:\n        /* \"#utility.yul\":5948:5972   */\n      tag_425\n        /* \"#utility.yul\":5966:5971   */\n      dup2\n        /* \"#utility.yul\":5948:5972   */\n      tag_273\n      jump\t// in\n    tag_425:\n        /* \"#utility.yul\":5943:5946   */\n      dup3\n        /* \"#utility.yul\":5936:5973   */\n      mstore\n        /* \"#utility.yul\":5861:5979   */\n      pop\n      pop\n      jump\t// out\n        /* \"#utility.yul\":5985:6415   */\n    tag_53:\n        /* \"#utility.yul\":6128:6132   */\n      0x00\n        /* \"#utility.yul\":6166:6168   */\n      0x60\n        /* \"#utility.yul\":6155:6164   */\n      dup3\n        /* \"#utility.yul\":6151:6169   */\n      add\n        /* \"#utility.yul\":6143:6169   */\n      swap1\n      pop\n        /* \"#utility.yul\":6179:6244   */\n      tag_427\n        /* \"#utility.yul\":6241:6242   */\n      0x00\n        /* \"#utility.yul\":6230:6239   */\n      dup4\n        /* \"#utility.yul\":6226:6243   */\n      add\n        /* \"#utility.yul\":6217:6223   */\n      dup7\n        /* \"#utility.yul\":6179:6244   */\n      tag_278\n      jump\t// in\n    tag_427:\n        /* \"#utility.yul\":6254:6326   */\n      tag_428\n        /* \"#utility.yul\":6322:6324   */\n      0x20\n        /* \"#utility.yul\":6311:6320   */\n      dup4\n        /* \"#utility.yul\":6307:6325   */\n      add\n        /* \"#utility.yul\":6298:6304   */\n      dup6\n        /* \"#utility.yul\":6254:6326   */\n      tag_280\n      jump\t// in\n    tag_428:\n        /* \"#utility.yul\":6336:6408   */\n      tag_429\n        /* \"#utility.yul\":6404:6406   */\n      0x40\n        /* \"#utility.yul\":6393:6402   */\n      dup4\n        /* \"#utility.yul\":6389:6407   */\n      add\n        /* \"#utility.yul\":6380:6386   */\n      dup5\n        /* \"#utility.yul\":6336:6408   */\n      tag_281\n      jump\t// in\n    tag_429:\n        /* \"#utility.yul\":5985:6415   */\n      swap5\n      swap4\n      pop\n      pop\n      pop\n      pop\n      jump\t// out\n        /* \"#utility.yul\":6421:6535   */\n    tag_282:\n        /* \"#utility.yul\":6488:6494   */\n      0x00\n        /* \"#utility.yul\":6522:6527   */\n      dup2\n        /* \"#utility.yul\":6516:6528   */\n      mload\n        /* \"#utility.yul\":6506:6528   */\n      swap1\n      pop\n        /* \"#utility.yul\":6421:6535   */\n      swap2\n      swap1\n      pop\n      jump\t// out\n        /* \"#utility.yul\":6541:6725   */\n    tag_283:\n        /* \"#utility.yul\":6640:6651   */\n      0x00\n        /* \"#utility.yul\":6674:6680   */\n      dup3\n        /* \"#utility.yul\":6669:6672   */\n      dup3\n        /* \"#utility.yul\":6662:6681   */\n      mstore\n        /* \"#utility.yul\":6714:6718   */\n      0x20\n        /* \"#utility.yul\":6709:6712   */\n      dup3\n        /* \"#utility.yul\":6705:6719   */\n      add\n        /* \"#utility.yul\":6690:6719   */\n      swap1\n      pop\n        /* \"#utility.yul\":6541:6725   */\n      swap3\n      swap2\n      pop\n      pop\n      jump\t// out\n        /* \"#utility.yul\":6731:6863   */\n    tag_284:\n        /* \"#utility.yul\":6798:6802   */\n      0x00\n        /* \"#utility.yul\":6821:6824   */\n      dup2\n        /* \"#utility.yul\":6813:6824   */\n      swap1\n      pop\n        /* \"#utility.yul\":6851:6855   */\n      0x20\n        /* \"#utility.yul\":6846:6849   */\n      dup3\n        /* \"#utility.yul\":6842:6856   */\n      add\n        /* \"#utility.yul\":6834:6856   */\n      swap1\n      pop\n        /* \"#utility.yul\":6731:6863   */\n      swap2\n      swap1\n      pop\n      jump\t// out\n        /* \"#utility.yul\":6869:6977   */\n    tag_285:\n        /* \"#utility.yul\":6946:6970   */\n      tag_434\n        /* \"#utility.yul\":6964:6969   */\n      dup2\n        /* \"#utility.yul\":6946:6970   */\n      tag_270\n      jump\t// in\n    tag_434:\n        /* \"#utility.yul\":6941:6944   */\n      dup3\n        /* \"#utility.yul\":6934:6971   */\n      mstore\n        /* \"#utility.yul\":6869:6977   */\n      pop\n      pop\n      jump\t// out\n        /* \"#utility.yul\":6983:7162   */\n    tag_286:\n        /* \"#utility.yul\":7052:7062   */\n      0x00\n        /* \"#utility.yul\":7073:7119   */\n      tag_436\n        /* \"#utility.yul\":7115:7118   */\n      dup4\n        /* \"#utility.yul\":7107:7113   */\n      dup4\n        /* \"#utility.yul\":7073:7119   */\n      tag_285\n      jump\t// in\n    tag_436:\n        /* \"#utility.yul\":7151:7155   */\n      0x20\n        /* \"#utility.yul\":7146:7149   */\n      dup4\n        /* \"#utility.yul\":7142:7156   */\n      add\n        /* \"#utility.yul\":7128:7156   */\n      swap1\n      pop\n        /* \"#utility.yul\":6983:7162   */\n      swap3\n      swap2\n      pop\n      pop\n      jump\t// out\n        /* \"#utility.yul\":7168:7281   */\n    tag_287:\n        /* \"#utility.yul\":7238:7242   */\n      0x00\n        /* \"#utility.yul\":7270:7274   */\n      0x20\n        /* \"#utility.yul\":7265:7268   */\n      dup3\n        /* \"#utility.yul\":7261:7275   */\n      add\n        /* \"#utility.yul\":7253:7275   */\n      swap1\n      pop\n        /* \"#utility.yul\":7168:7281   */\n      swap2\n      swap1\n      pop\n      jump\t// out\n        /* \"#utility.yul\":7317:8049   */\n    tag_288:\n        /* \"#utility.yul\":7436:7439   */\n      0x00\n        /* \"#utility.yul\":7465:7519   */\n      tag_439\n        /* \"#utility.yul\":7513:7518   */\n      dup3\n        /* \"#utility.yul\":7465:7519   */\n      tag_282\n      jump\t// in\n    tag_439:\n        /* \"#utility.yul\":7535:7621   */\n      tag_440\n        /* \"#utility.yul\":7614:7620   */\n      dup2\n        /* \"#utility.yul\":7609:7612   */\n      dup6\n        /* \"#utility.yul\":7535:7621   */\n      tag_283\n      jump\t// in\n    tag_440:\n        /* \"#utility.yul\":7528:7621   */\n      swap4\n      pop\n        /* \"#utility.yul\":7645:7701   */\n      tag_441\n        /* \"#utility.yul\":7695:7700   */\n      dup4\n        /* \"#utility.yul\":7645:7701   */\n      tag_284\n      jump\t// in\n    tag_441:\n        /* \"#utility.yul\":7724:7731   */\n      dup1\n        /* \"#utility.yul\":7755:7756   */\n      0x00\n        /* \"#utility.yul\":7740:8024   */\n    tag_442:\n        /* \"#utility.yul\":7765:7771   */\n      dup4\n        /* \"#utility.yul\":7762:7763   */\n      dup2\n        /* \"#utility.yul\":7759:7772   */\n      lt\n        /* \"#utility.yul\":7740:8024   */\n      iszero\n      tag_444\n      jumpi\n        /* \"#utility.yul\":7841:7847   */\n      dup2\n        /* \"#utility.yul\":7835:7848   */\n      mload\n        /* \"#utility.yul\":7868:7931   */\n      tag_445\n        /* \"#utility.yul\":7927:7930   */\n      dup9\n        /* \"#utility.yul\":7912:7925   */\n      dup3\n        /* \"#utility.yul\":7868:7931   */\n      tag_286\n      jump\t// in\n    tag_445:\n        /* \"#utility.yul\":7861:7931   */\n      swap8\n      pop\n        /* \"#utility.yul\":7954:8014   */\n      tag_446\n        /* \"#utility.yul\":8007:8013   */\n      dup4\n        /* \"#utility.yul\":7954:8014   */\n      tag_287\n      jump\t// in\n    tag_446:\n        /* \"#utility.yul\":7944:8014   */\n      swap3\n      pop\n        /* \"#utility.yul\":7800:8024   */\n      pop\n        /* \"#utility.yul\":7787:7788   */\n      0x01\n        /* \"#utility.yul\":7784:7785   */\n      dup2\n        /* \"#utility.yul\":7780:7789   */\n      add\n        /* \"#utility.yul\":7775:7789   */\n      swap1\n      pop\n        /* \"#utility.yul\":7740:8024   */\n      jump(tag_442)\n    tag_444:\n        /* \"#utility.yul\":7744:7758   */\n      pop\n        /* \"#utility.yul\":8040:8043   */\n      dup6\n        /* \"#utility.yul\":8033:8043   */\n      swap4\n      pop\n        /* \"#utility.yul\":7441:8049   */\n      pop\n      pop\n      pop\n        /* \"#utility.yul\":7317:8049   */\n      swap3\n      swap2\n      pop\n      pop\n      jump\t// out\n        /* \"#utility.yul\":8055:8168   */\n    tag_289:\n        /* \"#utility.yul\":8121:8127   */\n      0x00\n        /* \"#utility.yul\":8155:8160   */\n      dup2\n        /* \"#utility.yul\":8149:8161   */\n      mload\n        /* \"#utility.yul\":8139:8161   */\n      swap1\n      pop\n        /* \"#utility.yul\":8055:8168   */\n      swap2\n      swap1\n      pop\n      jump\t// out\n        /* \"#utility.yul\":8174:8357   */\n    tag_290:\n        /* \"#utility.yul\":8272:8283   */\n      0x00\n        /* \"#utility.yul\":8306:8312   */\n      dup3\n        /* \"#utility.yul\":8301:8304   */\n      dup3\n        /* \"#utility.yul\":8294:8313   */\n      mstore\n        /* \"#utility.yul\":8346:8350   */\n      0x20\n        /* \"#utility.yul\":8341:8344   */\n      dup3\n        /* \"#utility.yul\":8337:8351   */\n      add\n        /* \"#utility.yul\":8322:8351   */\n      swap1\n      pop\n        /* \"#utility.yul\":8174:8357   */\n      swap3\n      swap2\n      pop\n      pop\n      jump\t// out\n        /* \"#utility.yul\":8363:8494   */\n    tag_291:\n        /* \"#utility.yul\":8429:8433   */\n      0x00\n        /* \"#utility.yul\":8452:8455   */\n      dup2\n        /* \"#utility.yul\":8444:8455   */\n      swap1\n      pop\n        /* \"#utility.yul\":8482:8486   */\n      0x20\n        /* \"#utility.yul\":8477:8480   */\n      dup3\n        /* \"#utility.yul\":8473:8487   */\n      add\n        /* \"#utility.yul\":8465:8487   */\n      swap1\n      pop\n        /* \"#utility.yul\":8363:8494   */\n      swap2\n      swap1\n      pop\n      jump\t// out\n        /* \"#utility.yul\":8500:8589   */\n    tag_292:\n        /* \"#utility.yul\":8536:8543   */\n      0x00\n        /* \"#utility.yul\":8576:8582   */\n      0xffff\n        /* \"#utility.yul\":8569:8574   */\n      dup3\n        /* \"#utility.yul\":8565:8583   */\n      and\n        /* \"#utility.yul\":8554:8583   */\n      swap1\n      pop\n        /* \"#utility.yul\":8500:8589   */\n      swap2\n      swap1\n      pop\n      jump\t// out\n        /* \"#utility.yul\":8595:8700   */\n    tag_293:\n        /* \"#utility.yul\":8670:8693   */\n      tag_452\n        /* \"#utility.yul\":8687:8692   */\n      dup2\n        /* \"#utility.yul\":8670:8693   */\n      tag_292\n      jump\t// in\n    tag_452:\n        /* \"#utility.yul\":8665:8668   */\n      dup3\n        /* \"#utility.yul\":8658:8694   */\n      mstore\n        /* \"#utility.yul\":8595:8700   */\n      pop\n      pop\n      jump\t// out\n        /* \"#utility.yul\":8706:8881   */\n    tag_294:\n        /* \"#utility.yul\":8773:8783   */\n      0x00\n        /* \"#utility.yul\":8794:8838   */\n      tag_454\n        /* \"#utility.yul\":8834:8837   */\n      dup4\n        /* \"#utility.yul\":8826:8832   */\n      dup4\n        /* \"#utility.yul\":8794:8838   */\n      tag_293\n      jump\t// in\n    tag_454:\n        /* \"#utility.yul\":8870:8874   */\n      0x20\n        /* \"#utility.yul\":8865:8868   */\n      dup4\n        /* \"#utility.yul\":8861:8875   */\n      add\n        /* \"#utility.yul\":8847:8875   */\n      swap1\n      pop\n        /* \"#utility.yul\":8706:8881   */\n      swap3\n      swap2\n      pop\n      pop\n      jump\t// out\n        /* \"#utility.yul\":8887:8999   */\n    tag_295:\n        /* \"#utility.yul\":8956:8960   */\n      0x00\n        /* \"#utility.yul\":8988:8992   */\n      0x20\n        /* \"#utility.yul\":8983:8986   */\n      dup3\n        /* \"#utility.yul\":8979:8993   */\n      add\n        /* \"#utility.yul\":8971:8993   */\n      swap1\n      pop\n        /* \"#utility.yul\":8887:8999   */\n      swap2\n      swap1\n      pop\n      jump\t// out\n        /* \"#utility.yul\":9033:9757   */\n    tag_296:\n        /* \"#utility.yul\":9150:9153   */\n      0x00\n        /* \"#utility.yul\":9179:9232   */\n      tag_457\n        /* \"#utility.yul\":9226:9231   */\n      dup3\n        /* \"#utility.yul\":9179:9232   */\n      tag_289\n      jump\t// in\n    tag_457:\n        /* \"#utility.yul\":9248:9333   */\n      tag_458\n        /* \"#utility.yul\":9326:9332   */\n      dup2\n        /* \"#utility.yul\":9321:9324   */\n      dup6\n        /* \"#utility.yul\":9248:9333   */\n      tag_290\n      jump\t// in\n    tag_458:\n        /* \"#utility.yul\":9241:9333   */\n      swap4\n      pop\n        /* \"#utility.yul\":9357:9412   */\n      tag_459\n        /* \"#utility.yul\":9406:9411   */\n      dup4\n        /* \"#utility.yul\":9357:9412   */\n      tag_291\n      jump\t// in\n    tag_459:\n        /* \"#utility.yul\":9435:9442   */\n      dup1\n        /* \"#utility.yul\":9466:9467   */\n      0x00\n        /* \"#utility.yul\":9451:9732   */\n    tag_460:\n        /* \"#utility.yul\":9476:9482   */\n      dup4\n        /* \"#utility.yul\":9473:9474   */\n      dup2\n        /* \"#utility.yul\":9470:9483   */\n      lt\n        /* \"#utility.yul\":9451:9732   */\n      iszero\n      tag_462\n      jumpi\n        /* \"#utility.yul\":9552:9558   */\n      dup2\n        /* \"#utility.yul\":9546:9559   */\n      mload\n        /* \"#utility.yul\":9579:9640   */\n      tag_463\n        /* \"#utility.yul\":9636:9639   */\n      dup9\n        /* \"#utility.yul\":9621:9634   */\n      dup3\n        /* \"#utility.yul\":9579:9640   */\n      tag_294\n      jump\t// in\n    tag_463:\n        /* \"#utility.yul\":9572:9640   */\n      swap8\n      pop\n        /* \"#utility.yul\":9663:9722   */\n      tag_464\n        /* \"#utility.yul\":9715:9721   */\n      dup4\n        /* \"#utility.yul\":9663:9722   */\n      tag_295\n      jump\t// in\n    tag_464:\n        /* \"#utility.yul\":9653:9722   */\n      swap3\n      pop\n        /* \"#utility.yul\":9511:9732   */\n      pop\n        /* \"#utility.yul\":9498:9499   */\n      0x01\n        /* \"#utility.yul\":9495:9496   */\n      dup2\n        /* \"#utility.yul\":9491:9500   */\n      add\n        /* \"#utility.yul\":9486:9500   */\n      swap1\n      pop\n        /* \"#utility.yul\":9451:9732   */\n      jump(tag_460)\n    tag_462:\n        /* \"#utility.yul\":9455:9469   */\n      pop\n        /* \"#utility.yul\":9748:9751   */\n      dup6\n        /* \"#utility.yul\":9741:9751   */\n      swap4\n      pop\n        /* \"#utility.yul\":9155:9757   */\n      pop\n      pop\n      pop\n        /* \"#utility.yul\":9033:9757   */\n      swap3\n      swap2\n      pop\n      pop\n      jump\t// out\n        /* \"#utility.yul\":9763:9874   */\n    tag_297:\n        /* \"#utility.yul\":9827:9833   */\n      0x00\n        /* \"#utility.yul\":9861:9866   */\n      dup2\n        /* \"#utility.yul\":9855:9867   */\n      mload\n        /* \"#utility.yul\":9845:9867   */\n      swap1\n      pop\n        /* \"#utility.yul\":9763:9874   */\n      swap2\n      swap1\n      pop\n      jump\t// out\n        /* \"#utility.yul\":9880:10061   */\n    tag_298:\n        /* \"#utility.yul\":9976:9987   */\n      0x00\n        /* \"#utility.yul\":10010:10016   */\n      dup3\n        /* \"#utility.yul\":10005:10008   */\n      dup3\n        /* \"#utility.yul\":9998:10017   */\n      mstore\n        /* \"#utility.yul\":10050:10054   */\n      0x20\n        /* \"#utility.yul\":10045:10048   */\n      dup3\n        /* \"#utility.yul\":10041:10055   */\n      add\n        /* \"#utility.yul\":10026:10055   */\n      swap1\n      pop\n        /* \"#utility.yul\":9880:10061   */\n      swap3\n      swap2\n      pop\n      pop\n      jump\t// out\n        /* \"#utility.yul\":10067:10196   */\n    tag_299:\n        /* \"#utility.yul\":10131:10135   */\n      0x00\n        /* \"#utility.yul\":10154:10157   */\n      dup2\n        /* \"#utility.yul\":10146:10157   */\n      swap1\n      pop\n        /* \"#utility.yul\":10184:10188   */\n      0x20\n        /* \"#utility.yul\":10179:10182   */\n      dup3\n        /* \"#utility.yul\":10175:10189   */\n      add\n        /* \"#utility.yul\":10167:10189   */\n      swap1\n      pop\n        /* \"#utility.yul\":10067:10196   */\n      swap2\n      swap1\n      pop\n      jump\t// out\n        /* \"#utility.yul\":10202:10301   */\n    tag_300:\n        /* \"#utility.yul\":10273:10294   */\n      tag_469\n        /* \"#utility.yul\":10288:10293   */\n      dup2\n        /* \"#utility.yul\":10273:10294   */\n      tag_277\n      jump\t// in\n    tag_469:\n        /* \"#utility.yul\":10268:10271   */\n      dup3\n        /* \"#utility.yul\":10261:10295   */\n      mstore\n        /* \"#utility.yul\":10202:10301   */\n      pop\n      pop\n      jump\t// out\n        /* \"#utility.yul\":10307:10474   */\n    tag_301:\n        /* \"#utility.yul\":10370:10380   */\n      0x00\n        /* \"#utility.yul\":10391:10431   */\n      tag_471\n        /* \"#utility.yul\":10427:10430   */\n      dup4\n        /* \"#utility.yul\":10419:10425   */\n      dup4\n        /* \"#utility.yul\":10391:10431   */\n      tag_300\n      jump\t// in\n    tag_471:\n        /* \"#utility.yul\":10463:10467   */\n      0x20\n        /* \"#utility.yul\":10458:10461   */\n      dup4\n        /* \"#utility.yul\":10454:10468   */\n      add\n        /* \"#utility.yul\":10440:10468   */\n      swap1\n      pop\n        /* \"#utility.yul\":10307:10474   */\n      swap3\n      swap2\n      pop\n      pop\n      jump\t// out\n        /* \"#utility.yul\":10480:10590   */\n    tag_302:\n        /* \"#utility.yul\":10547:10551   */\n      0x00\n        /* \"#utility.yul\":10579:10583   */\n      0x20\n        /* \"#utility.yul\":10574:10577   */\n      dup3\n        /* \"#utility.yul\":10570:10584   */\n      add\n        /* \"#utility.yul\":10562:10584   */\n      swap1\n      pop\n        /* \"#utility.yul\":10480:10590   */\n      swap2\n      swap1\n      pop\n      jump\t// out\n        /* \"#utility.yul\":10620:11328   */\n    tag_303:\n        /* \"#utility.yul\":10733:10736   */\n      0x00\n        /* \"#utility.yul\":10762:10813   */\n      tag_474\n        /* \"#utility.yul\":10807:10812   */\n      dup3\n        /* \"#utility.yul\":10762:10813   */\n      tag_297\n      jump\t// in\n    tag_474:\n        /* \"#utility.yul\":10829:10912   */\n      tag_475\n        /* \"#utility.yul\":10905:10911   */\n      dup2\n        /* \"#utility.yul\":10900:10903   */\n      dup6\n        /* \"#utility.yul\":10829:10912   */\n      tag_298\n      jump\t// in\n    tag_475:\n        /* \"#utility.yul\":10822:10912   */\n      swap4\n      pop\n        /* \"#utility.yul\":10936:10989   */\n      tag_476\n        /* \"#utility.yul\":10983:10988   */\n      dup4\n        /* \"#utility.yul\":10936:10989   */\n      tag_299\n      jump\t// in\n    tag_476:\n        /* \"#utility.yul\":11012:11019   */\n      dup1\n        /* \"#utility.yul\":11043:11044   */\n      0x00\n        /* \"#utility.yul\":11028:11303   */\n    tag_477:\n        /* \"#utility.yul\":11053:11059   */\n      dup4\n        /* \"#utility.yul\":11050:11051   */\n      dup2\n        /* \"#utility.yul\":11047:11060   */\n      lt\n        /* \"#utility.yul\":11028:11303   */\n      iszero\n      tag_479\n      jumpi\n        /* \"#utility.yul\":11129:11135   */\n      dup2\n        /* \"#utility.yul\":11123:11136   */\n      mload\n        /* \"#utility.yul\":11156:11213   */\n      tag_480\n        /* \"#utility.yul\":11209:11212   */\n      dup9\n        /* \"#utility.yul\":11194:11207   */\n      dup3\n        /* \"#utility.yul\":11156:11213   */\n      tag_301\n      jump\t// in\n    tag_480:\n        /* \"#utility.yul\":11149:11213   */\n      swap8\n      pop\n        /* \"#utility.yul\":11236:11293   */\n      tag_481\n        /* \"#utility.yul\":11286:11292   */\n      dup4\n        /* \"#utility.yul\":11236:11293   */\n      tag_302\n      jump\t// in\n    tag_481:\n        /* \"#utility.yul\":11226:11293   */\n      swap3\n      pop\n        /* \"#utility.yul\":11088:11303   */\n      pop\n        /* \"#utility.yul\":11075:11076   */\n      0x01\n        /* \"#utility.yul\":11072:11073   */\n      dup2\n        /* \"#utility.yul\":11068:11077   */\n      add\n        /* \"#utility.yul\":11063:11077   */\n      swap1\n      pop\n        /* \"#utility.yul\":11028:11303   */\n      jump(tag_477)\n    tag_479:\n        /* \"#utility.yul\":11032:11046   */\n      pop\n        /* \"#utility.yul\":11319:11322   */\n      dup6\n        /* \"#utility.yul\":11312:11322   */\n      swap4\n      pop\n        /* \"#utility.yul\":10738:11328   */\n      pop\n      pop\n      pop\n        /* \"#utility.yul\":10620:11328   */\n      swap3\n      swap2\n      pop\n      pop\n      jump\t// out\n        /* \"#utility.yul\":11334:12435   */\n    tag_59:\n        /* \"#utility.yul\":11681:11685   */\n      0x00\n        /* \"#utility.yul\":11719:11722   */\n      0xa0\n        /* \"#utility.yul\":11708:11717   */\n      dup3\n        /* \"#utility.yul\":11704:11723   */\n      add\n        /* \"#utility.yul\":11696:11723   */\n      swap1\n      pop\n        /* \"#utility.yul\":11769:11778   */\n      dup2\n        /* \"#utility.yul\":11763:11767   */\n      dup2\n        /* \"#utility.yul\":11759:11779   */\n      sub\n        /* \"#utility.yul\":11755:11756   */\n      0x00\n        /* \"#utility.yul\":11744:11753   */\n      dup4\n        /* \"#utility.yul\":11740:11757   */\n      add\n        /* \"#utility.yul\":11733:11780   */\n      mstore\n        /* \"#utility.yul\":11797:11905   */\n      tag_483\n        /* \"#utility.yul\":11900:11904   */\n      dup2\n        /* \"#utility.yul\":11891:11897   */\n      dup9\n        /* \"#utility.yul\":11797:11905   */\n      tag_288\n      jump\t// in\n    tag_483:\n        /* \"#utility.yul\":11789:11905   */\n      swap1\n      pop\n        /* \"#utility.yul\":11952:11961   */\n      dup2\n        /* \"#utility.yul\":11946:11950   */\n      dup2\n        /* \"#utility.yul\":11942:11962   */\n      sub\n        /* \"#utility.yul\":11937:11939   */\n      0x20\n        /* \"#utility.yul\":11926:11935   */\n      dup4\n        /* \"#utility.yul\":11922:11940   */\n      add\n        /* \"#utility.yul\":11915:11963   */\n      mstore\n        /* \"#utility.yul\":11980:12086   */\n      tag_484\n        /* \"#utility.yul\":12081:12085   */\n      dup2\n        /* \"#utility.yul\":12072:12078   */\n      dup8\n        /* \"#utility.yul\":11980:12086   */\n      tag_296\n      jump\t// in\n    tag_484:\n        /* \"#utility.yul\":11972:12086   */\n      swap1\n      pop\n        /* \"#utility.yul\":12133:12142   */\n      dup2\n        /* \"#utility.yul\":12127:12131   */\n      dup2\n        /* \"#utility.yul\":12123:12143   */\n      sub\n        /* \"#utility.yul\":12118:12120   */\n      0x40\n        /* \"#utility.yul\":12107:12116   */\n      dup4\n        /* \"#utility.yul\":12103:12121   */\n      add\n        /* \"#utility.yul\":12096:12144   */\n      mstore\n        /* \"#utility.yul\":12161:12263   */\n      tag_485\n        /* \"#utility.yul\":12258:12262   */\n      dup2\n        /* \"#utility.yul\":12249:12255   */\n      dup7\n        /* \"#utility.yul\":12161:12263   */\n      tag_303\n      jump\t// in\n    tag_485:\n        /* \"#utility.yul\":12153:12263   */\n      swap1\n      pop\n        /* \"#utility.yul\":12273:12345   */\n      tag_486\n        /* \"#utility.yul\":12341:12343   */\n      0x60\n        /* \"#utility.yul\":12330:12339   */\n      dup4\n        /* \"#utility.yul\":12326:12344   */\n      add\n        /* \"#utility.yul\":12317:12323   */\n      dup6\n        /* \"#utility.yul\":12273:12345   */\n      tag_280\n      jump\t// in\n    tag_486:\n        /* \"#utility.yul\":12355:12428   */\n      tag_487\n        /* \"#utility.yul\":12423:12426   */\n      0x80\n        /* \"#utility.yul\":12412:12421   */\n      dup4\n        /* \"#utility.yul\":12408:12427   */\n      add\n        /* \"#utility.yul\":12399:12405   */\n      dup5\n        /* \"#utility.yul\":12355:12428   */\n      tag_281\n      jump\t// in\n    tag_487:\n        /* \"#utility.yul\":11334:12435   */\n      swap7\n      swap6\n      pop\n      pop\n      pop\n      pop\n      pop\n      pop\n      jump\t// out\n        /* \"#utility.yul\":12441:12814   */\n    tag_67:\n        /* \"#utility.yul\":12584:12588   */\n      0x00\n        /* \"#utility.yul\":12622:12624   */\n      0x20\n        /* \"#utility.yul\":12611:12620   */\n      dup3\n        /* \"#utility.yul\":12607:12625   */\n      add\n        /* \"#utility.yul\":12599:12625   */\n      swap1\n      pop\n        /* \"#utility.yul\":12671:12680   */\n      dup2\n        /* \"#utility.yul\":12665:12669   */\n      dup2\n        /* \"#utility.yul\":12661:12681   */\n      sub\n        /* \"#utility.yul\":12657:12658   */\n      0x00\n        /* \"#utility.yul\":12646:12655   */\n      dup4\n        /* \"#utility.yul\":12642:12659   */\n      add\n        /* \"#utility.yul\":12635:12682   */\n      mstore\n        /* \"#utility.yul\":12699:12807   */\n      tag_489\n        /* \"#utility.yul\":12802:12806   */\n      dup2\n        /* \"#utility.yul\":12793:12799   */\n      dup5\n        /* \"#utility.yul\":12699:12807   */\n      tag_288\n      jump\t// in\n    tag_489:\n        /* \"#utility.yul\":12691:12807   */\n      swap1\n      pop\n        /* \"#utility.yul\":12441:12814   */\n      swap3\n      swap2\n      pop\n      pop\n      jump\t// out\n        /* \"#utility.yul\":12820:12922   */\n    tag_304:\n        /* \"#utility.yul\":12861:12867   */\n      0x00\n        /* \"#utility.yul\":12912:12914   */\n      0x1f\n        /* \"#utility.yul\":12908:12915   */\n      not\n        /* \"#utility.yul\":12903:12905   */\n      0x1f\n        /* \"#utility.yul\":12896:12901   */\n      dup4\n        /* \"#utility.yul\":12892:12906   */\n      add\n        /* \"#utility.yul\":12888:12916   */\n      and\n        /* \"#utility.yul\":12878:12916   */\n      swap1\n      pop\n        /* \"#utility.yul\":12820:12922   */\n      swap2\n      swap1\n      pop\n      jump\t// out\n        /* \"#utility.yul\":12928:13108   */\n    tag_177:\n        /* \"#utility.yul\":12976:13053   */\n      0x4e487b7100000000000000000000000000000000000000000000000000000000\n        /* \"#utility.yul\":12973:12974   */\n      0x00\n        /* \"#utility.yul\":12966:13054   */\n      mstore\n        /* \"#utility.yul\":13073:13077   */\n      0x41\n        /* \"#utility.yul\":13070:13071   */\n      0x04\n        /* \"#utility.yul\":13063:13078   */\n      mstore\n        /* \"#utility.yul\":13097:13101   */\n      0x24\n        /* \"#utility.yul\":13094:13095   */\n      0x00\n        /* \"#utility.yul\":13087:13102   */\n      revert\n        /* \"#utility.yul\":13114:13395   */\n    tag_305:\n        /* \"#utility.yul\":13197:13224   */\n      tag_493\n        /* \"#utility.yul\":13219:13223   */\n      dup3\n        /* \"#utility.yul\":13197:13224   */\n      tag_304\n      jump\t// in\n    tag_493:\n        /* \"#utility.yul\":13189:13195   */\n      dup2\n        /* \"#utility.yul\":13185:13225   */\n      add\n        /* \"#utility.yul\":13327:13333   */\n      dup2\n        /* \"#utility.yul\":13315:13325   */\n      dup2\n        /* \"#utility.yul\":13312:13334   */\n      lt\n        /* \"#utility.yul\":13291:13309   */\n      0xffffffffffffffff\n        /* \"#utility.yul\":13279:13289   */\n      dup3\n        /* \"#utility.yul\":13276:13310   */\n      gt\n        /* \"#utility.yul\":13273:13335   */\n      or\n        /* \"#utility.yul\":13270:13358   */\n      iszero\n      tag_494\n      jumpi\n        /* \"#utility.yul\":13338:13356   */\n      tag_495\n      tag_177\n      jump\t// in\n    tag_495:\n        /* \"#utility.yul\":13270:13358   */\n    tag_494:\n        /* \"#utility.yul\":13378:13388   */\n      dup1\n        /* \"#utility.yul\":13374:13376   */\n      0x40\n        /* \"#utility.yul\":13367:13389   */\n      mstore\n        /* \"#utility.yul\":13157:13395   */\n      pop\n        /* \"#utility.yul\":13114:13395   */\n      pop\n      pop\n      jump\t// out\n        /* \"#utility.yul\":13401:13530   */\n    tag_306:\n        /* \"#utility.yul\":13435:13441   */\n      0x00\n        /* \"#utility.yul\":13462:13482   */\n      tag_497\n      tag_261\n      jump\t// in\n    tag_497:\n        /* \"#utility.yul\":13452:13482   */\n      swap1\n      pop\n        /* \"#utility.yul\":13491:13524   */\n      tag_498\n        /* \"#utility.yul\":13519:13523   */\n      dup3\n        /* \"#utility.yul\":13511:13517   */\n      dup3\n        /* \"#utility.yul\":13491:13524   */\n      tag_305\n      jump\t// in\n    tag_498:\n        /* \"#utility.yul\":13401:13530   */\n      swap2\n      swap1\n      pop\n      jump\t// out\n        /* \"#utility.yul\":13536:13847   */\n    tag_307:\n        /* \"#utility.yul\":13613:13617   */\n      0x00\n        /* \"#utility.yul\":13703:13721   */\n      0xffffffffffffffff\n        /* \"#utility.yul\":13695:13701   */\n      dup3\n        /* \"#utility.yul\":13692:13722   */\n      gt\n        /* \"#utility.yul\":13689:13745   */\n      iszero\n      tag_500\n      jumpi\n        /* \"#utility.yul\":13725:13743   */\n      tag_501\n      tag_177\n      jump\t// in\n    tag_501:\n        /* \"#utility.yul\":13689:13745   */\n    tag_500:\n        /* \"#utility.yul\":13775:13779   */\n      0x20\n        /* \"#utility.yul\":13767:13773   */\n      dup3\n        /* \"#utility.yul\":13763:13780   */\n      mul\n        /* \"#utility.yul\":13755:13780   */\n      swap1\n      pop\n        /* \"#utility.yul\":13835:13839   */\n      0x20\n        /* \"#utility.yul\":13829:13833   */\n      dup2\n        /* \"#utility.yul\":13825:13840   */\n      add\n        /* \"#utility.yul\":13817:13840   */\n      swap1\n      pop\n        /* \"#utility.yul\":13536:13847   */\n      swap2\n      swap1\n      pop\n      jump\t// out\n        /* \"#utility.yul\":13870:14580   */\n    tag_308:\n        /* \"#utility.yul\":13966:13971   */\n      0x00\n        /* \"#utility.yul\":13991:14072   */\n      tag_503\n        /* \"#utility.yul\":14007:14071   */\n      tag_504\n        /* \"#utility.yul\":14064:14070   */\n      dup5\n        /* \"#utility.yul\":14007:14071   */\n      tag_307\n      jump\t// in\n    tag_504:\n        /* \"#utility.yul\":13991:14072   */\n      tag_306\n      jump\t// in\n    tag_503:\n        /* \"#utility.yul\":13982:14072   */\n      swap1\n      pop\n        /* \"#utility.yul\":14092:14097   */\n      dup1\n        /* \"#utility.yul\":14121:14127   */\n      dup4\n        /* \"#utility.yul\":14114:14119   */\n      dup3\n        /* \"#utility.yul\":14107:14128   */\n      mstore\n        /* \"#utility.yul\":14155:14159   */\n      0x20\n        /* \"#utility.yul\":14148:14153   */\n      dup3\n        /* \"#utility.yul\":14144:14160   */\n      add\n        /* \"#utility.yul\":14137:14160   */\n      swap1\n      pop\n        /* \"#utility.yul\":14208:14212   */\n      0x20\n        /* \"#utility.yul\":14200:14206   */\n      dup5\n        /* \"#utility.yul\":14196:14213   */\n      mul\n        /* \"#utility.yul\":14188:14194   */\n      dup4\n        /* \"#utility.yul\":14184:14214   */\n      add\n        /* \"#utility.yul\":14237:14240   */\n      dup6\n        /* \"#utility.yul\":14229:14235   */\n      dup2\n        /* \"#utility.yul\":14226:14241   */\n      gt\n        /* \"#utility.yul\":14223:14345   */\n      iszero\n      tag_505\n      jumpi\n        /* \"#utility.yul\":14256:14335   */\n      tag_506\n      tag_266\n      jump\t// in\n    tag_506:\n        /* \"#utility.yul\":14223:14345   */\n    tag_505:\n        /* \"#utility.yul\":14371:14377   */\n      dup4\n        /* \"#utility.yul\":14354:14574   */\n    tag_507:\n        /* \"#utility.yul\":14388:14394   */\n      dup2\n        /* \"#utility.yul\":14383:14386   */\n      dup2\n        /* \"#utility.yul\":14380:14395   */\n      lt\n        /* \"#utility.yul\":14354:14574   */\n      iszero\n      tag_509\n      jumpi\n        /* \"#utility.yul\":14463:14466   */\n      dup1\n        /* \"#utility.yul\":14492:14529   */\n      tag_510\n        /* \"#utility.yul\":14525:14528   */\n      dup9\n        /* \"#utility.yul\":14513:14523   */\n      dup3\n        /* \"#utility.yul\":14492:14529   */\n      tag_272\n      jump\t// in\n    tag_510:\n        /* \"#utility.yul\":14487:14490   */\n      dup5\n        /* \"#utility.yul\":14480:14530   */\n      mstore\n        /* \"#utility.yul\":14559:14563   */\n      0x20\n        /* \"#utility.yul\":14554:14557   */\n      dup5\n        /* \"#utility.yul\":14550:14564   */\n      add\n        /* \"#utility.yul\":14543:14564   */\n      swap4\n      pop\n        /* \"#utility.yul\":14430:14574   */\n      pop\n        /* \"#utility.yul\":14414:14418   */\n      0x20\n        /* \"#utility.yul\":14409:14412   */\n      dup2\n        /* \"#utility.yul\":14405:14419   */\n      add\n        /* \"#utility.yul\":14398:14419   */\n      swap1\n      pop\n        /* \"#utility.yul\":14354:14574   */\n      jump(tag_507)\n    tag_509:\n        /* \"#utility.yul\":14358:14379   */\n      pop\n        /* \"#utility.yul\":13972:14580   */\n      pop\n      pop\n        /* \"#utility.yul\":13870:14580   */\n      swap4\n      swap3\n      pop\n      pop\n      pop\n      jump\t// out\n        /* \"#utility.yul\":14603:14973   */\n    tag_309:\n        /* \"#utility.yul\":14674:14679   */\n      0x00\n        /* \"#utility.yul\":14723:14726   */\n      dup3\n        /* \"#utility.yul\":14716:14720   */\n      0x1f\n        /* \"#utility.yul\":14708:14714   */\n      dup4\n        /* \"#utility.yul\":14704:14721   */\n      add\n        /* \"#utility.yul\":14700:14727   */\n      slt\n        /* \"#utility.yul\":14690:14812   */\n      tag_512\n      jumpi\n        /* \"#utility.yul\":14731:14810   */\n      tag_513\n      tag_264\n      jump\t// in\n    tag_513:\n        /* \"#utility.yul\":14690:14812   */\n    tag_512:\n        /* \"#utility.yul\":14848:14854   */\n      dup2\n        /* \"#utility.yul\":14835:14855   */\n      calldataload\n        /* \"#utility.yul\":14873:14967   */\n      tag_514\n        /* \"#utility.yul\":14963:14966   */\n      dup5\n        /* \"#utility.yul\":14955:14961   */\n      dup3\n        /* \"#utility.yul\":14948:14952   */\n      0x20\n        /* \"#utility.yul\":14940:14946   */\n      dup7\n        /* \"#utility.yul\":14936:14953   */\n      add\n        /* \"#utility.yul\":14873:14967   */\n      tag_308\n      jump\t// in\n    tag_514:\n        /* \"#utility.yul\":14864:14967   */\n      swap2\n      pop\n        /* \"#utility.yul\":14680:14973   */\n      pop\n        /* \"#utility.yul\":14603:14973   */\n      swap3\n      swap2\n      pop\n      pop\n      jump\t// out\n        /* \"#utility.yul\":14979:15289   */\n    tag_310:\n        /* \"#utility.yul\":15055:15059   */\n      0x00\n        /* \"#utility.yul\":15145:15163   */\n      0xffffffffffffffff\n        /* \"#utility.yul\":15137:15143   */\n      dup3\n        /* \"#utility.yul\":15134:15164   */\n      gt\n        /* \"#utility.yul\":15131:15187   */\n      iszero\n      tag_516\n      jumpi\n        /* \"#utility.yul\":15167:15185   */\n      tag_517\n      tag_177\n      jump\t// in\n    tag_517:\n        /* \"#utility.yul\":15131:15187   */\n    tag_516:\n        /* \"#utility.yul\":15217:15221   */\n      0x20\n        /* \"#utility.yul\":15209:15215   */\n      dup3\n        /* \"#utility.yul\":15205:15222   */\n      mul\n        /* \"#utility.yul\":15197:15222   */\n      swap1\n      pop\n        /* \"#utility.yul\":15277:15281   */\n      0x20\n        /* \"#utility.yul\":15271:15275   */\n      dup2\n        /* \"#utility.yul\":15267:15282   */\n      add\n        /* \"#utility.yul\":15259:15282   */\n      swap1\n      pop\n        /* \"#utility.yul\":14979:15289   */\n      swap2\n      swap1\n      pop\n      jump\t// out\n        /* \"#utility.yul\":15295:15415   */\n    tag_311:\n        /* \"#utility.yul\":15367:15390   */\n      tag_519\n        /* \"#utility.yul\":15384:15389   */\n      dup2\n        /* \"#utility.yul\":15367:15390   */\n      tag_292\n      jump\t// in\n    tag_519:\n        /* \"#utility.yul\":15360:15365   */\n      dup2\n        /* \"#utility.yul\":15357:15391   */\n      eq\n        /* \"#utility.yul\":15347:15409   */\n      tag_520\n      jumpi\n        /* \"#utility.yul\":15405:15406   */\n      0x00\n        /* \"#utility.yul\":15402:15403   */\n      dup1\n        /* \"#utility.yul\":15395:15407   */\n      revert\n        /* \"#utility.yul\":15347:15409   */\n    tag_520:\n        /* \"#utility.yul\":15295:15415   */\n      pop\n      jump\t// out\n        /* \"#utility.yul\":15421:15558   */\n    tag_312:\n        /* \"#utility.yul\":15466:15471   */\n      0x00\n        /* \"#utility.yul\":15504:15510   */\n      dup2\n        /* \"#utility.yul\":15491:15511   */\n      calldataload\n        /* \"#utility.yul\":15482:15511   */\n      swap1\n      pop\n        /* \"#utility.yul\":15520:15552   */\n      tag_522\n        /* \"#utility.yul\":15546:15551   */\n      dup2\n        /* \"#utility.yul\":15520:15552   */\n      tag_311\n      jump\t// in\n    tag_522:\n        /* \"#utility.yul\":15421:15558   */\n      swap3\n      swap2\n      pop\n      pop\n      jump\t// out\n        /* \"#utility.yul\":15580:16287   */\n    tag_313:\n        /* \"#utility.yul\":15675:15680   */\n      0x00\n        /* \"#utility.yul\":15700:15780   */\n      tag_524\n        /* \"#utility.yul\":15716:15779   */\n      tag_525\n        /* \"#utility.yul\":15772:15778   */\n      dup5\n        /* \"#utility.yul\":15716:15779   */\n      tag_310\n      jump\t// in\n    tag_525:\n        /* \"#utility.yul\":15700:15780   */\n      tag_306\n      jump\t// in\n    tag_524:\n        /* \"#utility.yul\":15691:15780   */\n      swap1\n      pop\n        /* \"#utility.yul\":15800:15805   */\n      dup1\n        /* \"#utility.yul\":15829:15835   */\n      dup4\n        /* \"#utility.yul\":15822:15827   */\n      dup3\n        /* \"#utility.yul\":15815:15836   */\n      mstore\n        /* \"#utility.yul\":15863:15867   */\n      0x20\n        /* \"#utility.yul\":15856:15861   */\n      dup3\n        /* \"#utility.yul\":15852:15868   */\n      add\n        /* \"#utility.yul\":15845:15868   */\n      swap1\n      pop\n        /* \"#utility.yul\":15916:15920   */\n      0x20\n        /* \"#utility.yul\":15908:15914   */\n      dup5\n        /* \"#utility.yul\":15904:15921   */\n      mul\n        /* \"#utility.yul\":15896:15902   */\n      dup4\n        /* \"#utility.yul\":15892:15922   */\n      add\n        /* \"#utility.yul\":15945:15948   */\n      dup6\n        /* \"#utility.yul\":15937:15943   */\n      dup2\n        /* \"#utility.yul\":15934:15949   */\n      gt\n        /* \"#utility.yul\":15931:16053   */\n      iszero\n      tag_526\n      jumpi\n        /* \"#utility.yul\":15964:16043   */\n      tag_527\n      tag_266\n      jump\t// in\n    tag_527:\n        /* \"#utility.yul\":15931:16053   */\n    tag_526:\n        /* \"#utility.yul\":16079:16085   */\n      dup4\n        /* \"#utility.yul\":16062:16281   */\n    tag_528:\n        /* \"#utility.yul\":16096:16102   */\n      dup2\n        /* \"#utility.yul\":16091:16094   */\n      dup2\n        /* \"#utility.yul\":16088:16103   */\n      lt\n        /* \"#utility.yul\":16062:16281   */\n      iszero\n      tag_530\n      jumpi\n        /* \"#utility.yul\":16171:16174   */\n      dup1\n        /* \"#utility.yul\":16200:16236   */\n      tag_531\n        /* \"#utility.yul\":16232:16235   */\n      dup9\n        /* \"#utility.yul\":16220:16230   */\n      dup3\n        /* \"#utility.yul\":16200:16236   */\n      tag_312\n      jump\t// in\n    tag_531:\n        /* \"#utility.yul\":16195:16198   */\n      dup5\n        /* \"#utility.yul\":16188:16237   */\n      mstore\n        /* \"#utility.yul\":16266:16270   */\n      0x20\n        /* \"#utility.yul\":16261:16264   */\n      dup5\n        /* \"#utility.yul\":16257:16271   */\n      add\n        /* \"#utility.yul\":16250:16271   */\n      swap4\n      pop\n        /* \"#utility.yul\":16138:16281   */\n      pop\n        /* \"#utility.yul\":16122:16126   */\n      0x20\n        /* \"#utility.yul\":16117:16120   */\n      dup2\n        /* \"#utility.yul\":16113:16127   */\n      add\n        /* \"#utility.yul\":16106:16127   */\n      swap1\n      pop\n        /* \"#utility.yul\":16062:16281   */\n      jump(tag_528)\n    tag_530:\n        /* \"#utility.yul\":16066:16087   */\n      pop\n        /* \"#utility.yul\":15681:16287   */\n      pop\n      pop\n        /* \"#utility.yul\":15580:16287   */\n      swap4\n      swap3\n      pop\n      pop\n      pop\n      jump\t// out\n        /* \"#utility.yul\":16309:16677   */\n    tag_314:\n        /* \"#utility.yul\":16379:16384   */\n      0x00\n        /* \"#utility.yul\":16428:16431   */\n      dup3\n        /* \"#utility.yul\":16421:16425   */\n      0x1f\n        /* \"#utility.yul\":16413:16419   */\n      dup4\n        /* \"#utility.yul\":16409:16426   */\n      add\n        /* \"#utility.yul\":16405:16432   */\n      slt\n        /* \"#utility.yul\":16395:16517   */\n      tag_533\n      jumpi\n        /* \"#utility.yul\":16436:16515   */\n      tag_534\n      tag_264\n      jump\t// in\n    tag_534:\n        /* \"#utility.yul\":16395:16517   */\n    tag_533:\n        /* \"#utility.yul\":16553:16559   */\n      dup2\n        /* \"#utility.yul\":16540:16560   */\n      calldataload\n        /* \"#utility.yul\":16578:16671   */\n      tag_535\n        /* \"#utility.yul\":16667:16670   */\n      dup5\n        /* \"#utility.yul\":16659:16665   */\n      dup3\n        /* \"#utility.yul\":16652:16656   */\n      0x20\n        /* \"#utility.yul\":16644:16650   */\n      dup7\n        /* \"#utility.yul\":16640:16657   */\n      add\n        /* \"#utility.yul\":16578:16671   */\n      tag_313\n      jump\t// in\n    tag_535:\n        /* \"#utility.yul\":16569:16671   */\n      swap2\n      pop\n        /* \"#utility.yul\":16385:16677   */\n      pop\n        /* \"#utility.yul\":16309:16677   */\n      swap3\n      swap2\n      pop\n      pop\n      jump\t// out\n        /* \"#utility.yul\":16683:17575   */\n    tag_70:\n        /* \"#utility.yul\":16800:16806   */\n      0x00\n        /* \"#utility.yul\":16808:16814   */\n      dup1\n        /* \"#utility.yul\":16857:16859   */\n      0x40\n        /* \"#utility.yul\":16845:16854   */\n      dup4\n        /* \"#utility.yul\":16836:16843   */\n      dup6\n        /* \"#utility.yul\":16832:16855   */\n      sub\n        /* \"#utility.yul\":16828:16860   */\n      slt\n        /* \"#utility.yul\":16825:16944   */\n      iszero\n      tag_537\n      jumpi\n        /* \"#utility.yul\":16863:16942   */\n      tag_538\n      tag_262\n      jump\t// in\n    tag_538:\n        /* \"#utility.yul\":16825:16944   */\n    tag_537:\n        /* \"#utility.yul\":17011:17012   */\n      0x00\n        /* \"#utility.yul\":17000:17009   */\n      dup4\n        /* \"#utility.yul\":16996:17013   */\n      add\n        /* \"#utility.yul\":16983:17014   */\n      calldataload\n        /* \"#utility.yul\":17041:17059   */\n      0xffffffffffffffff\n        /* \"#utility.yul\":17033:17039   */\n      dup2\n        /* \"#utility.yul\":17030:17060   */\n      gt\n        /* \"#utility.yul\":17027:17144   */\n      iszero\n      tag_539\n      jumpi\n        /* \"#utility.yul\":17063:17142   */\n      tag_540\n      tag_263\n      jump\t// in\n    tag_540:\n        /* \"#utility.yul\":17027:17144   */\n    tag_539:\n        /* \"#utility.yul\":17168:17246   */\n      tag_541\n        /* \"#utility.yul\":17238:17245   */\n      dup6\n        /* \"#utility.yul\":17229:17235   */\n      dup3\n        /* \"#utility.yul\":17218:17227   */\n      dup7\n        /* \"#utility.yul\":17214:17236   */\n      add\n        /* \"#utility.yul\":17168:17246   */\n      tag_309\n      jump\t// in\n    tag_541:\n        /* \"#utility.yul\":17158:17246   */\n      swap3\n      pop\n        /* \"#utility.yul\":16954:17256   */\n      pop\n        /* \"#utility.yul\":17323:17325   */\n      0x20\n        /* \"#utility.yul\":17312:17321   */\n      dup4\n        /* \"#utility.yul\":17308:17326   */\n      add\n        /* \"#utility.yul\":17295:17327   */\n      calldataload\n        /* \"#utility.yul\":17354:17372   */\n      0xffffffffffffffff\n        /* \"#utility.yul\":17346:17352   */\n      dup2\n        /* \"#utility.yul\":17343:17373   */\n      gt\n        /* \"#utility.yul\":17340:17457   */\n      iszero\n      tag_542\n      jumpi\n        /* \"#utility.yul\":17376:17455   */\n      tag_543\n      tag_263\n      jump\t// in\n    tag_543:\n        /* \"#utility.yul\":17340:17457   */\n    tag_542:\n        /* \"#utility.yul\":17481:17558   */\n      tag_544\n        /* \"#utility.yul\":17550:17557   */\n      dup6\n        /* \"#utility.yul\":17541:17547   */\n      dup3\n        /* \"#utility.yul\":17530:17539   */\n      dup7\n        /* \"#utility.yul\":17526:17548   */\n      add\n        /* \"#utility.yul\":17481:17558   */\n      tag_314\n      jump\t// in\n    tag_544:\n        /* \"#utility.yul\":17471:17558   */\n      swap2\n      pop\n        /* \"#utility.yul\":17266:17568   */\n      pop\n        /* \"#utility.yul\":16683:17575   */\n      swap3\n      pop\n      swap3\n      swap1\n      pop\n      jump\t// out\n        /* \"#utility.yul\":17581:17750   */\n    tag_315:\n        /* \"#utility.yul\":17665:17676   */\n      0x00\n        /* \"#utility.yul\":17699:17705   */\n      dup3\n        /* \"#utility.yul\":17694:17697   */\n      dup3\n        /* \"#utility.yul\":17687:17706   */\n      mstore\n        /* \"#utility.yul\":17739:17743   */\n      0x20\n        /* \"#utility.yul\":17734:17737   */\n      dup3\n        /* \"#utility.yul\":17730:17744   */\n      add\n        /* \"#utility.yul\":17715:17744   */\n      swap1\n      pop\n        /* \"#utility.yul\":17581:17750   */\n      swap3\n      swap2\n      pop\n      pop\n      jump\t// out\n        /* \"#utility.yul\":17756:17985   */\n    tag_316:\n        /* \"#utility.yul\":17896:17930   */\n      0x637265617465496e6865726974616e636528292c2061646963696f6e65206f73\n        /* \"#utility.yul\":17892:17893   */\n      0x00\n        /* \"#utility.yul\":17884:17890   */\n      dup3\n        /* \"#utility.yul\":17880:17894   */\n      add\n        /* \"#utility.yul\":17873:17931   */\n      mstore\n        /* \"#utility.yul\":17965:17977   */\n      0x20686572646569726f7300000000000000000000000000000000000000000000\n        /* \"#utility.yul\":17960:17962   */\n      0x20\n        /* \"#utility.yul\":17952:17958   */\n      dup3\n        /* \"#utility.yul\":17948:17963   */\n      add\n        /* \"#utility.yul\":17941:17978   */\n      mstore\n        /* \"#utility.yul\":17756:17985   */\n      pop\n      jump\t// out\n        /* \"#utility.yul\":17991:18357   */\n    tag_317:\n        /* \"#utility.yul\":18133:18136   */\n      0x00\n        /* \"#utility.yul\":18154:18221   */\n      tag_548\n        /* \"#utility.yul\":18218:18220   */\n      0x2a\n        /* \"#utility.yul\":18213:18216   */\n      dup4\n        /* \"#utility.yul\":18154:18221   */\n      tag_315\n      jump\t// in\n    tag_548:\n        /* \"#utility.yul\":18147:18221   */\n      swap2\n      pop\n        /* \"#utility.yul\":18230:18323   */\n      tag_549\n        /* \"#utility.yul\":18319:18322   */\n      dup3\n        /* \"#utility.yul\":18230:18323   */\n      tag_316\n      jump\t// in\n    tag_549:\n        /* \"#utility.yul\":18348:18350   */\n      0x40\n        /* \"#utility.yul\":18343:18346   */\n      dup3\n        /* \"#utility.yul\":18339:18351   */\n      add\n        /* \"#utility.yul\":18332:18351   */\n      swap1\n      pop\n        /* \"#utility.yul\":17991:18357   */\n      swap2\n      swap1\n      pop\n      jump\t// out\n        /* \"#utility.yul\":18363:18782   */\n    tag_75:\n        /* \"#utility.yul\":18529:18533   */\n      0x00\n        /* \"#utility.yul\":18567:18569   */\n      0x20\n        /* \"#utility.yul\":18556:18565   */\n      dup3\n        /* \"#utility.yul\":18552:18570   */\n      add\n        /* \"#utility.yul\":18544:18570   */\n      swap1\n      pop\n        /* \"#utility.yul\":18616:18625   */\n      dup2\n        /* \"#utility.yul\":18610:18614   */\n      dup2\n        /* \"#utility.yul\":18606:18626   */\n      sub\n        /* \"#utility.yul\":18602:18603   */\n      0x00\n        /* \"#utility.yul\":18591:18600   */\n      dup4\n        /* \"#utility.yul\":18587:18604   */\n      add\n        /* \"#utility.yul\":18580:18627   */\n      mstore\n        /* \"#utility.yul\":18644:18775   */\n      tag_551\n        /* \"#utility.yul\":18770:18774   */\n      dup2\n        /* \"#utility.yul\":18644:18775   */\n      tag_317\n      jump\t// in\n    tag_551:\n        /* \"#utility.yul\":18636:18775   */\n      swap1\n      pop\n        /* \"#utility.yul\":18363:18782   */\n      swap2\n      swap1\n      pop\n      jump\t// out\n        /* \"#utility.yul\":18788:19082   */\n    tag_318:\n        /* \"#utility.yul\":18928:18962   */\n      0x637265617465496e6865726974616e636528292c207175616e74696461646520\n        /* \"#utility.yul\":18924:18925   */\n      0x00\n        /* \"#utility.yul\":18916:18922   */\n      dup3\n        /* \"#utility.yul\":18912:18926   */\n      add\n        /* \"#utility.yul\":18905:18963   */\n      mstore\n        /* \"#utility.yul\":18997:19031   */\n      0x646520656e64657265636f73206520706f7263656e746167656e732064696665\n        /* \"#utility.yul\":18992:18994   */\n      0x20\n        /* \"#utility.yul\":18984:18990   */\n      dup3\n        /* \"#utility.yul\":18980:18995   */\n      add\n        /* \"#utility.yul\":18973:19032   */\n      mstore\n        /* \"#utility.yul\":19066:19074   */\n      0x72656e7465730000000000000000000000000000000000000000000000000000\n        /* \"#utility.yul\":19061:19063   */\n      0x40\n        /* \"#utility.yul\":19053:19059   */\n      dup3\n        /* \"#utility.yul\":19049:19064   */\n      add\n        /* \"#utility.yul\":19042:19075   */\n      mstore\n        /* \"#utility.yul\":18788:19082   */\n      pop\n      jump\t// out\n        /* \"#utility.yul\":19088:19454   */\n    tag_319:\n        /* \"#utility.yul\":19230:19233   */\n      0x00\n        /* \"#utility.yul\":19251:19318   */\n      tag_554\n        /* \"#utility.yul\":19315:19317   */\n      0x46\n        /* \"#utility.yul\":19310:19313   */\n      dup4\n        /* \"#utility.yul\":19251:19318   */\n      tag_315\n      jump\t// in\n    tag_554:\n        /* \"#utility.yul\":19244:19318   */\n      swap2\n      pop\n        /* \"#utility.yul\":19327:19420   */\n      tag_555\n        /* \"#utility.yul\":19416:19419   */\n      dup3\n        /* \"#utility.yul\":19327:19420   */\n      tag_318\n      jump\t// in\n    tag_555:\n        /* \"#utility.yul\":19445:19447   */\n      0x60\n        /* \"#utility.yul\":19440:19443   */\n      dup3\n        /* \"#utility.yul\":19436:19448   */\n      add\n        /* \"#utility.yul\":19429:19448   */\n      swap1\n      pop\n        /* \"#utility.yul\":19088:19454   */\n      swap2\n      swap1\n      pop\n      jump\t// out\n        /* \"#utility.yul\":19460:19879   */\n    tag_78:\n        /* \"#utility.yul\":19626:19630   */\n      0x00\n        /* \"#utility.yul\":19664:19666   */\n      0x20\n        /* \"#utility.yul\":19653:19662   */\n      dup3\n        /* \"#utility.yul\":19649:19667   */\n      add\n        /* \"#utility.yul\":19641:19667   */\n      swap1\n      pop\n        /* \"#utility.yul\":19713:19722   */\n      dup2\n        /* \"#utility.yul\":19707:19711   */\n      dup2\n        /* \"#utility.yul\":19703:19723   */\n      sub\n        /* \"#utility.yul\":19699:19700   */\n      0x00\n        /* \"#utility.yul\":19688:19697   */\n      dup4\n        /* \"#utility.yul\":19684:19701   */\n      add\n        /* \"#utility.yul\":19677:19724   */\n      mstore\n        /* \"#utility.yul\":19741:19872   */\n      tag_557\n        /* \"#utility.yul\":19867:19871   */\n      dup2\n        /* \"#utility.yul\":19741:19872   */\n      tag_319\n      jump\t// in\n    tag_557:\n        /* \"#utility.yul\":19733:19872   */\n      swap1\n      pop\n        /* \"#utility.yul\":19460:19879   */\n      swap2\n      swap1\n      pop\n      jump\t// out\n        /* \"#utility.yul\":19885:20065   */\n    tag_88:\n        /* \"#utility.yul\":19933:20010   */\n      0x4e487b7100000000000000000000000000000000000000000000000000000000\n        /* \"#utility.yul\":19930:19931   */\n      0x00\n        /* \"#utility.yul\":19923:20011   */\n      mstore\n        /* \"#utility.yul\":20030:20034   */\n      0x32\n        /* \"#utility.yul\":20027:20028   */\n      0x04\n        /* \"#utility.yul\":20020:20035   */\n      mstore\n        /* \"#utility.yul\":20054:20058   */\n      0x24\n        /* \"#utility.yul\":20051:20052   */\n      0x00\n        /* \"#utility.yul\":20044:20059   */\n      revert\n        /* \"#utility.yul\":20071:20398   */\n    tag_93:\n        /* \"#utility.yul\":20129:20135   */\n      0x00\n        /* \"#utility.yul\":20178:20180   */\n      0x20\n        /* \"#utility.yul\":20166:20175   */\n      dup3\n        /* \"#utility.yul\":20157:20164   */\n      dup5\n        /* \"#utility.yul\":20153:20176   */\n      sub\n        /* \"#utility.yul\":20149:20181   */\n      slt\n        /* \"#utility.yul\":20146:20265   */\n      iszero\n      tag_560\n      jumpi\n        /* \"#utility.yul\":20184:20263   */\n      tag_561\n      tag_262\n      jump\t// in\n    tag_561:\n        /* \"#utility.yul\":20146:20265   */\n    tag_560:\n        /* \"#utility.yul\":20304:20305   */\n      0x00\n        /* \"#utility.yul\":20329:20381   */\n      tag_562\n        /* \"#utility.yul\":20373:20380   */\n      dup5\n        /* \"#utility.yul\":20364:20370   */\n      dup3\n        /* \"#utility.yul\":20353:20362   */\n      dup6\n        /* \"#utility.yul\":20349:20371   */\n      add\n        /* \"#utility.yul\":20329:20381   */\n      tag_312\n      jump\t// in\n    tag_562:\n        /* \"#utility.yul\":20319:20381   */\n      swap2\n      pop\n        /* \"#utility.yul\":20275:20391   */\n      pop\n        /* \"#utility.yul\":20071:20398   */\n      swap3\n      swap2\n      pop\n      pop\n      jump\t// out\n        /* \"#utility.yul\":20404:20624   */\n    tag_320:\n        /* \"#utility.yul\":20544:20578   */\n      0x766f6365206e616f20706f737375692074657374616d656e746f206372696164\n        /* \"#utility.yul\":20540:20541   */\n      0x00\n        /* \"#utility.yul\":20532:20538   */\n      dup3\n        /* \"#utility.yul\":20528:20542   */\n      add\n        /* \"#utility.yul\":20521:20579   */\n      mstore\n        /* \"#utility.yul\":20613:20616   */\n      0x6f00000000000000000000000000000000000000000000000000000000000000\n        /* \"#utility.yul\":20608:20610   */\n      0x20\n        /* \"#utility.yul\":20600:20606   */\n      dup3\n        /* \"#utility.yul\":20596:20611   */\n      add\n        /* \"#utility.yul\":20589:20617   */\n      mstore\n        /* \"#utility.yul\":20404:20624   */\n      pop\n      jump\t// out\n        /* \"#utility.yul\":20630:20996   */\n    tag_321:\n        /* \"#utility.yul\":20772:20775   */\n      0x00\n        /* \"#utility.yul\":20793:20860   */\n      tag_565\n        /* \"#utility.yul\":20857:20859   */\n      0x21\n        /* \"#utility.yul\":20852:20855   */\n      dup4\n        /* \"#utility.yul\":20793:20860   */\n      tag_315\n      jump\t// in\n    tag_565:\n        /* \"#utility.yul\":20786:20860   */\n      swap2\n      pop\n        /* \"#utility.yul\":20869:20962   */\n      tag_566\n        /* \"#utility.yul\":20958:20961   */\n      dup3\n        /* \"#utility.yul\":20869:20962   */\n      tag_320\n      jump\t// in\n    tag_566:\n        /* \"#utility.yul\":20987:20989   */\n      0x40\n        /* \"#utility.yul\":20982:20985   */\n      dup3\n        /* \"#utility.yul\":20978:20990   */\n      add\n        /* \"#utility.yul\":20971:20990   */\n      swap1\n      pop\n        /* \"#utility.yul\":20630:20996   */\n      swap2\n      swap1\n      pop\n      jump\t// out\n        /* \"#utility.yul\":21002:21421   */\n    tag_102:\n        /* \"#utility.yul\":21168:21172   */\n      0x00\n        /* \"#utility.yul\":21206:21208   */\n      0x20\n        /* \"#utility.yul\":21195:21204   */\n      dup3\n        /* \"#utility.yul\":21191:21209   */\n      add\n        /* \"#utility.yul\":21183:21209   */\n      swap1\n      pop\n        /* \"#utility.yul\":21255:21264   */\n      dup2\n        /* \"#utility.yul\":21249:21253   */\n      dup2\n        /* \"#utility.yul\":21245:21265   */\n      sub\n        /* \"#utility.yul\":21241:21242   */\n      0x00\n        /* \"#utility.yul\":21230:21239   */\n      dup4\n        /* \"#utility.yul\":21226:21243   */\n      add\n        /* \"#utility.yul\":21219:21266   */\n      mstore\n        /* \"#utility.yul\":21283:21414   */\n      tag_568\n        /* \"#utility.yul\":21409:21413   */\n      dup2\n        /* \"#utility.yul\":21283:21414   */\n      tag_321\n      jump\t// in\n    tag_568:\n        /* \"#utility.yul\":21275:21414   */\n      swap1\n      pop\n        /* \"#utility.yul\":21002:21421   */\n      swap2\n      swap1\n      pop\n      jump\t// out\n        /* \"#utility.yul\":21427:21592   */\n    tag_322:\n        /* \"#utility.yul\":21567:21584   */\n      0x696e7369726120756d2076616c6f720000000000000000000000000000000000\n        /* \"#utility.yul\":21563:21564   */\n      0x00\n        /* \"#utility.yul\":21555:21561   */\n      dup3\n        /* \"#utility.yul\":21551:21565   */\n      add\n        /* \"#utility.yul\":21544:21585   */\n      mstore\n        /* \"#utility.yul\":21427:21592   */\n      pop\n      jump\t// out\n        /* \"#utility.yul\":21598:21964   */\n    tag_323:\n        /* \"#utility.yul\":21740:21743   */\n      0x00\n        /* \"#utility.yul\":21761:21828   */\n      tag_571\n        /* \"#utility.yul\":21825:21827   */\n      0x0f\n        /* \"#utility.yul\":21820:21823   */\n      dup4\n        /* \"#utility.yul\":21761:21828   */\n      tag_315\n      jump\t// in\n    tag_571:\n        /* \"#utility.yul\":21754:21828   */\n      swap2\n      pop\n        /* \"#utility.yul\":21837:21930   */\n      tag_572\n        /* \"#utility.yul\":21926:21929   */\n      dup3\n        /* \"#utility.yul\":21837:21930   */\n      tag_322\n      jump\t// in\n    tag_572:\n        /* \"#utility.yul\":21955:21957   */\n      0x20\n        /* \"#utility.yul\":21950:21953   */\n      dup3\n        /* \"#utility.yul\":21946:21958   */\n      add\n        /* \"#utility.yul\":21939:21958   */\n      swap1\n      pop\n        /* \"#utility.yul\":21598:21964   */\n      swap2\n      swap1\n      pop\n      jump\t// out\n        /* \"#utility.yul\":21970:22389   */\n    tag_105:\n        /* \"#utility.yul\":22136:22140   */\n      0x00\n        /* \"#utility.yul\":22174:22176   */\n      0x20\n        /* \"#utility.yul\":22163:22172   */\n      dup3\n        /* \"#utility.yul\":22159:22177   */\n      add\n        /* \"#utility.yul\":22151:22177   */\n      swap1\n      pop\n        /* \"#utility.yul\":22223:22232   */\n      dup2\n        /* \"#utility.yul\":22217:22221   */\n      dup2\n        /* \"#utility.yul\":22213:22233   */\n      sub\n        /* \"#utility.yul\":22209:22210   */\n      0x00\n        /* \"#utility.yul\":22198:22207   */\n      dup4\n        /* \"#utility.yul\":22194:22211   */\n      add\n        /* \"#utility.yul\":22187:22234   */\n      mstore\n        /* \"#utility.yul\":22251:22382   */\n      tag_574\n        /* \"#utility.yul\":22377:22381   */\n      dup2\n        /* \"#utility.yul\":22251:22382   */\n      tag_323\n      jump\t// in\n    tag_574:\n        /* \"#utility.yul\":22243:22382   */\n      swap1\n      pop\n        /* \"#utility.yul\":21970:22389   */\n      swap2\n      swap1\n      pop\n      jump\t// out\n        /* \"#utility.yul\":22395:22575   */\n    tag_324:\n        /* \"#utility.yul\":22443:22520   */\n      0x4e487b7100000000000000000000000000000000000000000000000000000000\n        /* \"#utility.yul\":22440:22441   */\n      0x00\n        /* \"#utility.yul\":22433:22521   */\n      mstore\n        /* \"#utility.yul\":22540:22544   */\n      0x11\n        /* \"#utility.yul\":22537:22538   */\n      0x04\n        /* \"#utility.yul\":22530:22545   */\n      mstore\n        /* \"#utility.yul\":22564:22568   */\n      0x24\n        /* \"#utility.yul\":22561:22562   */\n      0x00\n        /* \"#utility.yul\":22554:22569   */\n      revert\n        /* \"#utility.yul\":22581:22772   */\n    tag_107:\n        /* \"#utility.yul\":22621:22624   */\n      0x00\n        /* \"#utility.yul\":22640:22660   */\n      tag_577\n        /* \"#utility.yul\":22658:22659   */\n      dup3\n        /* \"#utility.yul\":22640:22660   */\n      tag_273\n      jump\t// in\n    tag_577:\n        /* \"#utility.yul\":22635:22660   */\n      swap2\n      pop\n        /* \"#utility.yul\":22674:22694   */\n      tag_578\n        /* \"#utility.yul\":22692:22693   */\n      dup4\n        /* \"#utility.yul\":22674:22694   */\n      tag_273\n      jump\t// in\n    tag_578:\n        /* \"#utility.yul\":22669:22694   */\n      swap3\n      pop\n        /* \"#utility.yul\":22717:22718   */\n      dup3\n        /* \"#utility.yul\":22714:22715   */\n      dup3\n        /* \"#utility.yul\":22710:22719   */\n      add\n        /* \"#utility.yul\":22703:22719   */\n      swap1\n      pop\n        /* \"#utility.yul\":22738:22741   */\n      dup1\n        /* \"#utility.yul\":22735:22736   */\n      dup3\n        /* \"#utility.yul\":22732:22742   */\n      gt\n        /* \"#utility.yul\":22729:22765   */\n      iszero\n      tag_579\n      jumpi\n        /* \"#utility.yul\":22745:22763   */\n      tag_580\n      tag_324\n      jump\t// in\n    tag_580:\n        /* \"#utility.yul\":22729:22765   */\n    tag_579:\n        /* \"#utility.yul\":22581:22772   */\n      swap3\n      swap2\n      pop\n      pop\n      jump\t// out\n        /* \"#utility.yul\":22778:22954   */\n    tag_325:\n        /* \"#utility.yul\":22918:22946   */\n      0x766f6365206e616f20706f737375692074657374616d656e746f000000000000\n        /* \"#utility.yul\":22914:22915   */\n      0x00\n        /* \"#utility.yul\":22906:22912   */\n      dup3\n        /* \"#utility.yul\":22902:22916   */\n      add\n        /* \"#utility.yul\":22895:22947   */\n      mstore\n        /* \"#utility.yul\":22778:22954   */\n      pop\n      jump\t// out\n        /* \"#utility.yul\":22960:23326   */\n    tag_326:\n        /* \"#utility.yul\":23102:23105   */\n      0x00\n        /* \"#utility.yul\":23123:23190   */\n      tag_583\n        /* \"#utility.yul\":23187:23189   */\n      0x1a\n        /* \"#utility.yul\":23182:23185   */\n      dup4\n        /* \"#utility.yul\":23123:23190   */\n      tag_315\n      jump\t// in\n    tag_583:\n        /* \"#utility.yul\":23116:23190   */\n      swap2\n      pop\n        /* \"#utility.yul\":23199:23292   */\n      tag_584\n        /* \"#utility.yul\":23288:23291   */\n      dup3\n        /* \"#utility.yul\":23199:23292   */\n      tag_325\n      jump\t// in\n    tag_584:\n        /* \"#utility.yul\":23317:23319   */\n      0x20\n        /* \"#utility.yul\":23312:23315   */\n      dup3\n        /* \"#utility.yul\":23308:23320   */\n      add\n        /* \"#utility.yul\":23301:23320   */\n      swap1\n      pop\n        /* \"#utility.yul\":22960:23326   */\n      swap2\n      swap1\n      pop\n      jump\t// out\n        /* \"#utility.yul\":23332:23751   */\n    tag_111:\n        /* \"#utility.yul\":23498:23502   */\n      0x00\n        /* \"#utility.yul\":23536:23538   */\n      0x20\n        /* \"#utility.yul\":23525:23534   */\n      dup3\n        /* \"#utility.yul\":23521:23539   */\n      add\n        /* \"#utility.yul\":23513:23539   */\n      swap1\n      pop\n        /* \"#utility.yul\":23585:23594   */\n      dup2\n        /* \"#utility.yul\":23579:23583   */\n      dup2\n        /* \"#utility.yul\":23575:23595   */\n      sub\n        /* \"#utility.yul\":23571:23572   */\n      0x00\n        /* \"#utility.yul\":23560:23569   */\n      dup4\n        /* \"#utility.yul\":23556:23573   */\n      add\n        /* \"#utility.yul\":23549:23596   */\n      mstore\n        /* \"#utility.yul\":23613:23744   */\n      tag_586\n        /* \"#utility.yul\":23739:23743   */\n      dup2\n        /* \"#utility.yul\":23613:23744   */\n      tag_326\n      jump\t// in\n    tag_586:\n        /* \"#utility.yul\":23605:23744   */\n      swap1\n      pop\n        /* \"#utility.yul\":23332:23751   */\n      swap2\n      swap1\n      pop\n      jump\t// out\n        /* \"#utility.yul\":23757:23904   */\n    tag_327:\n        /* \"#utility.yul\":23858:23869   */\n      0x00\n        /* \"#utility.yul\":23895:23898   */\n      dup2\n        /* \"#utility.yul\":23880:23898   */\n      swap1\n      pop\n        /* \"#utility.yul\":23757:23904   */\n      swap3\n      swap2\n      pop\n      pop\n      jump\t// out\n        /* \"#utility.yul\":23910:24024   */\n    tag_328:\n      pop\n      jump\t// out\n        /* \"#utility.yul\":24030:24428   */\n    tag_329:\n        /* \"#utility.yul\":24189:24192   */\n      0x00\n        /* \"#utility.yul\":24210:24293   */\n      tag_590\n        /* \"#utility.yul\":24291:24292   */\n      0x00\n        /* \"#utility.yul\":24286:24289   */\n      dup4\n        /* \"#utility.yul\":24210:24293   */\n      tag_327\n      jump\t// in\n    tag_590:\n        /* \"#utility.yul\":24203:24293   */\n      swap2\n      pop\n        /* \"#utility.yul\":24302:24395   */\n      tag_591\n        /* \"#utility.yul\":24391:24394   */\n      dup3\n        /* \"#utility.yul\":24302:24395   */\n      tag_328\n      jump\t// in\n    tag_591:\n        /* \"#utility.yul\":24420:24421   */\n      0x00\n        /* \"#utility.yul\":24415:24418   */\n      dup3\n        /* \"#utility.yul\":24411:24422   */\n      add\n        /* \"#utility.yul\":24404:24422   */\n      swap1\n      pop\n        /* \"#utility.yul\":24030:24428   */\n      swap2\n      swap1\n      pop\n      jump\t// out\n        /* \"#utility.yul\":24434:24813   */\n    tag_113:\n        /* \"#utility.yul\":24618:24621   */\n      0x00\n        /* \"#utility.yul\":24640:24787   */\n      tag_593\n        /* \"#utility.yul\":24783:24786   */\n      dup3\n        /* \"#utility.yul\":24640:24787   */\n      tag_329\n      jump\t// in\n    tag_593:\n        /* \"#utility.yul\":24633:24787   */\n      swap2\n      pop\n        /* \"#utility.yul\":24804:24807   */\n      dup2\n        /* \"#utility.yul\":24797:24807   */\n      swap1\n      pop\n        /* \"#utility.yul\":24434:24813   */\n      swap2\n      swap1\n      pop\n      jump\t// out\n        /* \"#utility.yul\":24819:25044   */\n    tag_330:\n        /* \"#utility.yul\":24959:24993   */\n      0x63616e63656c54657374616d656e7428292c2046616c686120616f20656e7669\n        /* \"#utility.yul\":24955:24956   */\n      0x00\n        /* \"#utility.yul\":24947:24953   */\n      dup3\n        /* \"#utility.yul\":24943:24957   */\n      add\n        /* \"#utility.yul\":24936:24994   */\n      mstore\n        /* \"#utility.yul\":25028:25036   */\n      0x6172204554480000000000000000000000000000000000000000000000000000\n        /* \"#utility.yul\":25023:25025   */\n      0x20\n        /* \"#utility.yul\":25015:25021   */\n      dup3\n        /* \"#utility.yul\":25011:25026   */\n      add\n        /* \"#utility.yul\":25004:25037   */\n      mstore\n        /* \"#utility.yul\":24819:25044   */\n      pop\n      jump\t// out\n        /* \"#utility.yul\":25050:25416   */\n    tag_331:\n        /* \"#utility.yul\":25192:25195   */\n      0x00\n        /* \"#utility.yul\":25213:25280   */\n      tag_596\n        /* \"#utility.yul\":25277:25279   */\n      0x26\n        /* \"#utility.yul\":25272:25275   */\n      dup4\n        /* \"#utility.yul\":25213:25280   */\n      tag_315\n      jump\t// in\n    tag_596:\n        /* \"#utility.yul\":25206:25280   */\n      swap2\n      pop\n        /* \"#utility.yul\":25289:25382   */\n      tag_597\n        /* \"#utility.yul\":25378:25381   */\n      dup3\n        /* \"#utility.yul\":25289:25382   */\n      tag_330\n      jump\t// in\n    tag_597:\n        /* \"#utility.yul\":25407:25409   */\n      0x40\n        /* \"#utility.yul\":25402:25405   */\n      dup3\n        /* \"#utility.yul\":25398:25410   */\n      add\n        /* \"#utility.yul\":25391:25410   */\n      swap1\n      pop\n        /* \"#utility.yul\":25050:25416   */\n      swap2\n      swap1\n      pop\n      jump\t// out\n        /* \"#utility.yul\":25422:25841   */\n    tag_119:\n        /* \"#utility.yul\":25588:25592   */\n      0x00\n        /* \"#utility.yul\":25626:25628   */\n      0x20\n        /* \"#utility.yul\":25615:25624   */\n      dup3\n        /* \"#utility.yul\":25611:25629   */\n      add\n        /* \"#utility.yul\":25603:25629   */\n      swap1\n      pop\n        /* \"#utility.yul\":25675:25684   */\n      dup2\n        /* \"#utility.yul\":25669:25673   */\n      dup2\n        /* \"#utility.yul\":25665:25685   */\n      sub\n        /* \"#utility.yul\":25661:25662   */\n      0x00\n        /* \"#utility.yul\":25650:25659   */\n      dup4\n        /* \"#utility.yul\":25646:25663   */\n      add\n        /* \"#utility.yul\":25639:25686   */\n      mstore\n        /* \"#utility.yul\":25703:25834   */\n      tag_599\n        /* \"#utility.yul\":25829:25833   */\n      dup2\n        /* \"#utility.yul\":25703:25834   */\n      tag_331\n      jump\t// in\n    tag_599:\n        /* \"#utility.yul\":25695:25834   */\n      swap1\n      pop\n        /* \"#utility.yul\":25422:25841   */\n      swap2\n      swap1\n      pop\n      jump\t// out\n        /* \"#utility.yul\":25847:26067   */\n    tag_332:\n        /* \"#utility.yul\":25987:26021   */\n      0x41207265746972616461206e616f20706f646520736572207265616c697a6164\n        /* \"#utility.yul\":25983:25984   */\n      0x00\n        /* \"#utility.yul\":25975:25981   */\n      dup3\n        /* \"#utility.yul\":25971:25985   */\n      add\n        /* \"#utility.yul\":25964:26022   */\n      mstore\n        /* \"#utility.yul\":26056:26059   */\n      0x6100000000000000000000000000000000000000000000000000000000000000\n        /* \"#utility.yul\":26051:26053   */\n      0x20\n        /* \"#utility.yul\":26043:26049   */\n      dup3\n        /* \"#utility.yul\":26039:26054   */\n      add\n        /* \"#utility.yul\":26032:26060   */\n      mstore\n        /* \"#utility.yul\":25847:26067   */\n      pop\n      jump\t// out\n        /* \"#utility.yul\":26073:26439   */\n    tag_333:\n        /* \"#utility.yul\":26215:26218   */\n      0x00\n        /* \"#utility.yul\":26236:26303   */\n      tag_602\n        /* \"#utility.yul\":26300:26302   */\n      0x21\n        /* \"#utility.yul\":26295:26298   */\n      dup4\n        /* \"#utility.yul\":26236:26303   */\n      tag_315\n      jump\t// in\n    tag_602:\n        /* \"#utility.yul\":26229:26303   */\n      swap2\n      pop\n        /* \"#utility.yul\":26312:26405   */\n      tag_603\n        /* \"#utility.yul\":26401:26404   */\n      dup3\n        /* \"#utility.yul\":26312:26405   */\n      tag_332\n      jump\t// in\n    tag_603:\n        /* \"#utility.yul\":26430:26432   */\n      0x40\n        /* \"#utility.yul\":26425:26428   */\n      dup3\n        /* \"#utility.yul\":26421:26433   */\n      add\n        /* \"#utility.yul\":26414:26433   */\n      swap1\n      pop\n        /* \"#utility.yul\":26073:26439   */\n      swap2\n      swap1\n      pop\n      jump\t// out\n        /* \"#utility.yul\":26445:26864   */\n    tag_126:\n        /* \"#utility.yul\":26611:26615   */\n      0x00\n        /* \"#utility.yul\":26649:26651   */\n      0x20\n        /* \"#utility.yul\":26638:26647   */\n      dup3\n        /* \"#utility.yul\":26634:26652   */\n      add\n        /* \"#utility.yul\":26626:26652   */\n      swap1\n      pop\n        /* \"#utility.yul\":26698:26707   */\n      dup2\n        /* \"#utility.yul\":26692:26696   */\n      dup2\n        /* \"#utility.yul\":26688:26708   */\n      sub\n        /* \"#utility.yul\":26684:26685   */\n      0x00\n        /* \"#utility.yul\":26673:26682   */\n      dup4\n        /* \"#utility.yul\":26669:26686   */\n      add\n        /* \"#utility.yul\":26662:26709   */\n      mstore\n        /* \"#utility.yul\":26726:26857   */\n      tag_605\n        /* \"#utility.yul\":26852:26856   */\n      dup2\n        /* \"#utility.yul\":26726:26857   */\n      tag_333\n      jump\t// in\n    tag_605:\n        /* \"#utility.yul\":26718:26857   */\n      swap1\n      pop\n        /* \"#utility.yul\":26445:26864   */\n      swap2\n      swap1\n      pop\n      jump\t// out\n        /* \"#utility.yul\":26870:27037   */\n    tag_334:\n        /* \"#utility.yul\":27010:27029   */\n      0x6e616f2074656d20686572646569726f73000000000000000000000000000000\n        /* \"#utility.yul\":27006:27007   */\n      0x00\n        /* \"#utility.yul\":26998:27004   */\n      dup3\n        /* \"#utility.yul\":26994:27008   */\n      add\n        /* \"#utility.yul\":26987:27030   */\n      mstore\n        /* \"#utility.yul\":26870:27037   */\n      pop\n      jump\t// out\n        /* \"#utility.yul\":27043:27409   */\n    tag_335:\n        /* \"#utility.yul\":27185:27188   */\n      0x00\n        /* \"#utility.yul\":27206:27273   */\n      tag_608\n        /* \"#utility.yul\":27270:27272   */\n      0x11\n        /* \"#utility.yul\":27265:27268   */\n      dup4\n        /* \"#utility.yul\":27206:27273   */\n      tag_315\n      jump\t// in\n    tag_608:\n        /* \"#utility.yul\":27199:27273   */\n      swap2\n      pop\n        /* \"#utility.yul\":27282:27375   */\n      tag_609\n        /* \"#utility.yul\":27371:27374   */\n      dup3\n        /* \"#utility.yul\":27282:27375   */\n      tag_334\n      jump\t// in\n    tag_609:\n        /* \"#utility.yul\":27400:27402   */\n      0x20\n        /* \"#utility.yul\":27395:27398   */\n      dup3\n        /* \"#utility.yul\":27391:27403   */\n      add\n        /* \"#utility.yul\":27384:27403   */\n      swap1\n      pop\n        /* \"#utility.yul\":27043:27409   */\n      swap2\n      swap1\n      pop\n      jump\t// out\n        /* \"#utility.yul\":27415:27834   */\n    tag_129:\n        /* \"#utility.yul\":27581:27585   */\n      0x00\n        /* \"#utility.yul\":27619:27621   */\n      0x20\n        /* \"#utility.yul\":27608:27617   */\n      dup3\n        /* \"#utility.yul\":27604:27622   */\n      add\n        /* \"#utility.yul\":27596:27622   */\n      swap1\n      pop\n        /* \"#utility.yul\":27668:27677   */\n      dup2\n        /* \"#utility.yul\":27662:27666   */\n      dup2\n        /* \"#utility.yul\":27658:27678   */\n      sub\n        /* \"#utility.yul\":27654:27655   */\n      0x00\n        /* \"#utility.yul\":27643:27652   */\n      dup4\n        /* \"#utility.yul\":27639:27656   */\n      add\n        /* \"#utility.yul\":27632:27679   */\n      mstore\n        /* \"#utility.yul\":27696:27827   */\n      tag_611\n        /* \"#utility.yul\":27822:27826   */\n      dup2\n        /* \"#utility.yul\":27696:27827   */\n      tag_335\n      jump\t// in\n    tag_611:\n        /* \"#utility.yul\":27688:27827   */\n      swap1\n      pop\n        /* \"#utility.yul\":27415:27834   */\n      swap2\n      swap1\n      pop\n      jump\t// out\n        /* \"#utility.yul\":27840:28088   */\n    tag_336:\n        /* \"#utility.yul\":27980:28014   */\n      0x74657374616d656e746f2065207175656d20746120726f64616e646f20612066\n        /* \"#utility.yul\":27976:27977   */\n      0x00\n        /* \"#utility.yul\":27968:27974   */\n      dup3\n        /* \"#utility.yul\":27964:27978   */\n      add\n        /* \"#utility.yul\":27957:28015   */\n      mstore\n        /* \"#utility.yul\":28049:28080   */\n      0x756e63616f2064652073617175652073616f206469666572656e746573000000\n        /* \"#utility.yul\":28044:28046   */\n      0x20\n        /* \"#utility.yul\":28036:28042   */\n      dup3\n        /* \"#utility.yul\":28032:28047   */\n      add\n        /* \"#utility.yul\":28025:28081   */\n      mstore\n        /* \"#utility.yul\":27840:28088   */\n      pop\n      jump\t// out\n        /* \"#utility.yul\":28094:28460   */\n    tag_337:\n        /* \"#utility.yul\":28236:28239   */\n      0x00\n        /* \"#utility.yul\":28257:28324   */\n      tag_614\n        /* \"#utility.yul\":28321:28323   */\n      0x3d\n        /* \"#utility.yul\":28316:28319   */\n      dup4\n        /* \"#utility.yul\":28257:28324   */\n      tag_315\n      jump\t// in\n    tag_614:\n        /* \"#utility.yul\":28250:28324   */\n      swap2\n      pop\n        /* \"#utility.yul\":28333:28426   */\n      tag_615\n        /* \"#utility.yul\":28422:28425   */\n      dup3\n        /* \"#utility.yul\":28333:28426   */\n      tag_336\n      jump\t// in\n    tag_615:\n        /* \"#utility.yul\":28451:28453   */\n      0x40\n        /* \"#utility.yul\":28446:28449   */\n      dup3\n        /* \"#utility.yul\":28442:28454   */\n      add\n        /* \"#utility.yul\":28435:28454   */\n      swap1\n      pop\n        /* \"#utility.yul\":28094:28460   */\n      swap2\n      swap1\n      pop\n      jump\t// out\n        /* \"#utility.yul\":28466:28885   */\n    tag_138:\n        /* \"#utility.yul\":28632:28636   */\n      0x00\n        /* \"#utility.yul\":28670:28672   */\n      0x20\n        /* \"#utility.yul\":28659:28668   */\n      dup3\n        /* \"#utility.yul\":28655:28673   */\n      add\n        /* \"#utility.yul\":28647:28673   */\n      swap1\n      pop\n        /* \"#utility.yul\":28719:28728   */\n      dup2\n        /* \"#utility.yul\":28713:28717   */\n      dup2\n        /* \"#utility.yul\":28709:28729   */\n      sub\n        /* \"#utility.yul\":28705:28706   */\n      0x00\n        /* \"#utility.yul\":28694:28703   */\n      dup4\n        /* \"#utility.yul\":28690:28707   */\n      add\n        /* \"#utility.yul\":28683:28730   */\n      mstore\n        /* \"#utility.yul\":28747:28878   */\n      tag_617\n        /* \"#utility.yul\":28873:28877   */\n      dup2\n        /* \"#utility.yul\":28747:28878   */\n      tag_337\n      jump\t// in\n    tag_617:\n        /* \"#utility.yul\":28739:28878   */\n      swap1\n      pop\n        /* \"#utility.yul\":28466:28885   */\n      swap2\n      swap1\n      pop\n      jump\t// out\n        /* \"#utility.yul\":28891:29055   */\n    tag_338:\n        /* \"#utility.yul\":29031:29047   */\n      0x6e616f20706f6465207361636172000000000000000000000000000000000000\n        /* \"#utility.yul\":29027:29028   */\n      0x00\n        /* \"#utility.yul\":29019:29025   */\n      dup3\n        /* \"#utility.yul\":29015:29029   */\n      add\n        /* \"#utility.yul\":29008:29048   */\n      mstore\n        /* \"#utility.yul\":28891:29055   */\n      pop\n      jump\t// out\n        /* \"#utility.yul\":29061:29427   */\n    tag_339:\n        /* \"#utility.yul\":29203:29206   */\n      0x00\n        /* \"#utility.yul\":29224:29291   */\n      tag_620\n        /* \"#utility.yul\":29288:29290   */\n      0x0e\n        /* \"#utility.yul\":29283:29286   */\n      dup4\n        /* \"#utility.yul\":29224:29291   */\n      tag_315\n      jump\t// in\n    tag_620:\n        /* \"#utility.yul\":29217:29291   */\n      swap2\n      pop\n        /* \"#utility.yul\":29300:29393   */\n      tag_621\n        /* \"#utility.yul\":29389:29392   */\n      dup3\n        /* \"#utility.yul\":29300:29393   */\n      tag_338\n      jump\t// in\n    tag_621:\n        /* \"#utility.yul\":29418:29420   */\n      0x20\n        /* \"#utility.yul\":29413:29416   */\n      dup3\n        /* \"#utility.yul\":29409:29421   */\n      add\n        /* \"#utility.yul\":29402:29421   */\n      swap1\n      pop\n        /* \"#utility.yul\":29061:29427   */\n      swap2\n      swap1\n      pop\n      jump\t// out\n        /* \"#utility.yul\":29433:29852   */\n    tag_141:\n        /* \"#utility.yul\":29599:29603   */\n      0x00\n        /* \"#utility.yul\":29637:29639   */\n      0x20\n        /* \"#utility.yul\":29626:29635   */\n      dup3\n        /* \"#utility.yul\":29622:29640   */\n      add\n        /* \"#utility.yul\":29614:29640   */\n      swap1\n      pop\n        /* \"#utility.yul\":29686:29695   */\n      dup2\n        /* \"#utility.yul\":29680:29684   */\n      dup2\n        /* \"#utility.yul\":29676:29696   */\n      sub\n        /* \"#utility.yul\":29672:29673   */\n      0x00\n        /* \"#utility.yul\":29661:29670   */\n      dup4\n        /* \"#utility.yul\":29657:29674   */\n      add\n        /* \"#utility.yul\":29650:29697   */\n      mstore\n        /* \"#utility.yul\":29714:29845   */\n      tag_623\n        /* \"#utility.yul\":29840:29844   */\n      dup2\n        /* \"#utility.yul\":29714:29845   */\n      tag_339\n      jump\t// in\n    tag_623:\n        /* \"#utility.yul\":29706:29845   */\n      swap1\n      pop\n        /* \"#utility.yul\":29433:29852   */\n      swap2\n      swap1\n      pop\n      jump\t// out\n        /* \"#utility.yul\":29858:30027   */\n    tag_340:\n        /* \"#utility.yul\":29998:30019   */\n      0x46616c686120616f20656e766961722045544800000000000000000000000000\n        /* \"#utility.yul\":29994:29995   */\n      0x00\n        /* \"#utility.yul\":29986:29992   */\n      dup3\n        /* \"#utility.yul\":29982:29996   */\n      add\n        /* \"#utility.yul\":29975:30020   */\n      mstore\n        /* \"#utility.yul\":29858:30027   */\n      pop\n      jump\t// out\n        /* \"#utility.yul\":30033:30399   */\n    tag_341:\n        /* \"#utility.yul\":30175:30178   */\n      0x00\n        /* \"#utility.yul\":30196:30263   */\n      tag_626\n        /* \"#utility.yul\":30260:30262   */\n      0x13\n        /* \"#utility.yul\":30255:30258   */\n      dup4\n        /* \"#utility.yul\":30196:30263   */\n      tag_315\n      jump\t// in\n    tag_626:\n        /* \"#utility.yul\":30189:30263   */\n      swap2\n      pop\n        /* \"#utility.yul\":30272:30365   */\n      tag_627\n        /* \"#utility.yul\":30361:30364   */\n      dup3\n        /* \"#utility.yul\":30272:30365   */\n      tag_340\n      jump\t// in\n    tag_627:\n        /* \"#utility.yul\":30390:30392   */\n      0x20\n        /* \"#utility.yul\":30385:30388   */\n      dup3\n        /* \"#utility.yul\":30381:30393   */\n      add\n        /* \"#utility.yul\":30374:30393   */\n      swap1\n      pop\n        /* \"#utility.yul\":30033:30399   */\n      swap2\n      swap1\n      pop\n      jump\t// out\n        /* \"#utility.yul\":30405:30824   */\n    tag_148:\n        /* \"#utility.yul\":30571:30575   */\n      0x00\n        /* \"#utility.yul\":30609:30611   */\n      0x20\n        /* \"#utility.yul\":30598:30607   */\n      dup3\n        /* \"#utility.yul\":30594:30612   */\n      add\n        /* \"#utility.yul\":30586:30612   */\n      swap1\n      pop\n        /* \"#utility.yul\":30658:30667   */\n      dup2\n        /* \"#utility.yul\":30652:30656   */\n      dup2\n        /* \"#utility.yul\":30648:30668   */\n      sub\n        /* \"#utility.yul\":30644:30645   */\n      0x00\n        /* \"#utility.yul\":30633:30642   */\n      dup4\n        /* \"#utility.yul\":30629:30646   */\n      add\n        /* \"#utility.yul\":30622:30669   */\n      mstore\n        /* \"#utility.yul\":30686:30817   */\n      tag_629\n        /* \"#utility.yul\":30812:30816   */\n      dup2\n        /* \"#utility.yul\":30686:30817   */\n      tag_341\n      jump\t// in\n    tag_629:\n        /* \"#utility.yul\":30678:30817   */\n      swap1\n      pop\n        /* \"#utility.yul\":30405:30824   */\n      swap2\n      swap1\n      pop\n      jump\t// out\n        /* \"#utility.yul\":30830:31005   */\n    tag_342:\n        /* \"#utility.yul\":30970:30997   */\n      0x766f6365206e616f2074656d206973736f207475646f20616900000000000000\n        /* \"#utility.yul\":30966:30967   */\n      0x00\n        /* \"#utility.yul\":30958:30964   */\n      dup3\n        /* \"#utility.yul\":30954:30968   */\n      add\n        /* \"#utility.yul\":30947:30998   */\n      mstore\n        /* \"#utility.yul\":30830:31005   */\n      pop\n      jump\t// out\n        /* \"#utility.yul\":31011:31377   */\n    tag_343:\n        /* \"#utility.yul\":31153:31156   */\n      0x00\n        /* \"#utility.yul\":31174:31241   */\n      tag_632\n        /* \"#utility.yul\":31238:31240   */\n      0x19\n        /* \"#utility.yul\":31233:31236   */\n      dup4\n        /* \"#utility.yul\":31174:31241   */\n      tag_315\n      jump\t// in\n    tag_632:\n        /* \"#utility.yul\":31167:31241   */\n      swap2\n      pop\n        /* \"#utility.yul\":31250:31343   */\n      tag_633\n        /* \"#utility.yul\":31339:31342   */\n      dup3\n        /* \"#utility.yul\":31250:31343   */\n      tag_342\n      jump\t// in\n    tag_633:\n        /* \"#utility.yul\":31368:31370   */\n      0x20\n        /* \"#utility.yul\":31363:31366   */\n      dup3\n        /* \"#utility.yul\":31359:31371   */\n      add\n        /* \"#utility.yul\":31352:31371   */\n      swap1\n      pop\n        /* \"#utility.yul\":31011:31377   */\n      swap2\n      swap1\n      pop\n      jump\t// out\n        /* \"#utility.yul\":31383:31802   */\n    tag_156:\n        /* \"#utility.yul\":31549:31553   */\n      0x00\n        /* \"#utility.yul\":31587:31589   */\n      0x20\n        /* \"#utility.yul\":31576:31585   */\n      dup3\n        /* \"#utility.yul\":31572:31590   */\n      add\n        /* \"#utility.yul\":31564:31590   */\n      swap1\n      pop\n        /* \"#utility.yul\":31636:31645   */\n      dup2\n        /* \"#utility.yul\":31630:31634   */\n      dup2\n        /* \"#utility.yul\":31626:31646   */\n      sub\n        /* \"#utility.yul\":31622:31623   */\n      0x00\n        /* \"#utility.yul\":31611:31620   */\n      dup4\n        /* \"#utility.yul\":31607:31624   */\n      add\n        /* \"#utility.yul\":31600:31647   */\n      mstore\n        /* \"#utility.yul\":31664:31795   */\n      tag_635\n        /* \"#utility.yul\":31790:31794   */\n      dup2\n        /* \"#utility.yul\":31664:31795   */\n      tag_343\n      jump\t// in\n    tag_635:\n        /* \"#utility.yul\":31656:31795   */\n      swap1\n      pop\n        /* \"#utility.yul\":31383:31802   */\n      swap2\n      swap1\n      pop\n      jump\t// out\n        /* \"#utility.yul\":31808:31967   */\n    tag_344:\n        /* \"#utility.yul\":31948:31959   */\n      0x6e616f207469726f750000000000000000000000000000000000000000000000\n        /* \"#utility.yul\":31944:31945   */\n      0x00\n        /* \"#utility.yul\":31936:31942   */\n      dup3\n        /* \"#utility.yul\":31932:31946   */\n      add\n        /* \"#utility.yul\":31925:31960   */\n      mstore\n        /* \"#utility.yul\":31808:31967   */\n      pop\n      jump\t// out\n        /* \"#utility.yul\":31973:32338   */\n    tag_345:\n        /* \"#utility.yul\":32115:32118   */\n      0x00\n        /* \"#utility.yul\":32136:32202   */\n      tag_638\n        /* \"#utility.yul\":32200:32201   */\n      0x09\n        /* \"#utility.yul\":32195:32198   */\n      dup4\n        /* \"#utility.yul\":32136:32202   */\n      tag_315\n      jump\t// in\n    tag_638:\n        /* \"#utility.yul\":32129:32202   */\n      swap2\n      pop\n        /* \"#utility.yul\":32211:32304   */\n      tag_639\n        /* \"#utility.yul\":32300:32303   */\n      dup3\n        /* \"#utility.yul\":32211:32304   */\n      tag_344\n      jump\t// in\n    tag_639:\n        /* \"#utility.yul\":32329:32331   */\n      0x20\n        /* \"#utility.yul\":32324:32327   */\n      dup3\n        /* \"#utility.yul\":32320:32332   */\n      add\n        /* \"#utility.yul\":32313:32332   */\n      swap1\n      pop\n        /* \"#utility.yul\":31973:32338   */\n      swap2\n      swap1\n      pop\n      jump\t// out\n        /* \"#utility.yul\":32344:32763   */\n    tag_163:\n        /* \"#utility.yul\":32510:32514   */\n      0x00\n        /* \"#utility.yul\":32548:32550   */\n      0x20\n        /* \"#utility.yul\":32537:32546   */\n      dup3\n        /* \"#utility.yul\":32533:32551   */\n      add\n        /* \"#utility.yul\":32525:32551   */\n      swap1\n      pop\n        /* \"#utility.yul\":32597:32606   */\n      dup2\n        /* \"#utility.yul\":32591:32595   */\n      dup2\n        /* \"#utility.yul\":32587:32607   */\n      sub\n        /* \"#utility.yul\":32583:32584   */\n      0x00\n        /* \"#utility.yul\":32572:32581   */\n      dup4\n        /* \"#utility.yul\":32568:32585   */\n      add\n        /* \"#utility.yul\":32561:32608   */\n      mstore\n        /* \"#utility.yul\":32625:32756   */\n      tag_641\n        /* \"#utility.yul\":32751:32755   */\n      dup2\n        /* \"#utility.yul\":32625:32756   */\n      tag_345\n      jump\t// in\n    tag_641:\n        /* \"#utility.yul\":32617:32756   */\n      swap1\n      pop\n        /* \"#utility.yul\":32344:32763   */\n      swap2\n      swap1\n      pop\n      jump\t// out\n        /* \"#utility.yul\":32769:32963   */\n    tag_165:\n        /* \"#utility.yul\":32809:32813   */\n      0x00\n        /* \"#utility.yul\":32829:32849   */\n      tag_643\n        /* \"#utility.yul\":32847:32848   */\n      dup3\n        /* \"#utility.yul\":32829:32849   */\n      tag_273\n      jump\t// in\n    tag_643:\n        /* \"#utility.yul\":32824:32849   */\n      swap2\n      pop\n        /* \"#utility.yul\":32863:32883   */\n      tag_644\n        /* \"#utility.yul\":32881:32882   */\n      dup4\n        /* \"#utility.yul\":32863:32883   */\n      tag_273\n      jump\t// in\n    tag_644:\n        /* \"#utility.yul\":32858:32883   */\n      swap3\n      pop\n        /* \"#utility.yul\":32907:32908   */\n      dup3\n        /* \"#utility.yul\":32904:32905   */\n      dup3\n        /* \"#utility.yul\":32900:32909   */\n      sub\n        /* \"#utility.yul\":32892:32909   */\n      swap1\n      pop\n        /* \"#utility.yul\":32931:32932   */\n      dup2\n        /* \"#utility.yul\":32925:32929   */\n      dup2\n        /* \"#utility.yul\":32922:32933   */\n      gt\n        /* \"#utility.yul\":32919:32956   */\n      iszero\n      tag_645\n      jumpi\n        /* \"#utility.yul\":32936:32954   */\n      tag_646\n      tag_324\n      jump\t// in\n    tag_646:\n        /* \"#utility.yul\":32919:32956   */\n    tag_645:\n        /* \"#utility.yul\":32769:32963   */\n      swap3\n      swap2\n      pop\n      pop\n      jump\t// out\n        /* \"#utility.yul\":32969:33142   */\n    tag_346:\n        /* \"#utility.yul\":33109:33134   */\n      0x5465737461646f72206e616f20656e636f6e747261646f000000000000000000\n        /* \"#utility.yul\":33105:33106   */\n      0x00\n        /* \"#utility.yul\":33097:33103   */\n      dup3\n        /* \"#utility.yul\":33093:33107   */\n      add\n        /* \"#utility.yul\":33086:33135   */\n      mstore\n        /* \"#utility.yul\":32969:33142   */\n      pop\n      jump\t// out\n        /* \"#utility.yul\":33148:33514   */\n    tag_347:\n        /* \"#utility.yul\":33290:33293   */\n      0x00\n        /* \"#utility.yul\":33311:33378   */\n      tag_649\n        /* \"#utility.yul\":33375:33377   */\n      0x17\n        /* \"#utility.yul\":33370:33373   */\n      dup4\n        /* \"#utility.yul\":33311:33378   */\n      tag_315\n      jump\t// in\n    tag_649:\n        /* \"#utility.yul\":33304:33378   */\n      swap2\n      pop\n        /* \"#utility.yul\":33387:33480   */\n      tag_650\n        /* \"#utility.yul\":33476:33479   */\n      dup3\n        /* \"#utility.yul\":33387:33480   */\n      tag_346\n      jump\t// in\n    tag_650:\n        /* \"#utility.yul\":33505:33507   */\n      0x20\n        /* \"#utility.yul\":33500:33503   */\n      dup3\n        /* \"#utility.yul\":33496:33508   */\n      add\n        /* \"#utility.yul\":33489:33508   */\n      swap1\n      pop\n        /* \"#utility.yul\":33148:33514   */\n      swap2\n      swap1\n      pop\n      jump\t// out\n        /* \"#utility.yul\":33520:33939   */\n    tag_174:\n        /* \"#utility.yul\":33686:33690   */\n      0x00\n        /* \"#utility.yul\":33724:33726   */\n      0x20\n        /* \"#utility.yul\":33713:33722   */\n      dup3\n        /* \"#utility.yul\":33709:33727   */\n      add\n        /* \"#utility.yul\":33701:33727   */\n      swap1\n      pop\n        /* \"#utility.yul\":33773:33782   */\n      dup2\n        /* \"#utility.yul\":33767:33771   */\n      dup2\n        /* \"#utility.yul\":33763:33783   */\n      sub\n        /* \"#utility.yul\":33759:33760   */\n      0x00\n        /* \"#utility.yul\":33748:33757   */\n      dup4\n        /* \"#utility.yul\":33744:33761   */\n      add\n        /* \"#utility.yul\":33737:33784   */\n      mstore\n        /* \"#utility.yul\":33801:33932   */\n      tag_652\n        /* \"#utility.yul\":33927:33931   */\n      dup2\n        /* \"#utility.yul\":33801:33932   */\n      tag_347\n      jump\t// in\n    tag_652:\n        /* \"#utility.yul\":33793:33932   */\n      swap1\n      pop\n        /* \"#utility.yul\":33520:33939   */\n      swap2\n      swap1\n      pop\n      jump\t// out\n        /* \"#utility.yul\":33945:34046   */\n    tag_348:\n        /* \"#utility.yul\":33981:33988   */\n      0x00\n        /* \"#utility.yul\":34021:34039   */\n      0xffffffffffffffff\n        /* \"#utility.yul\":34014:34019   */\n      dup3\n        /* \"#utility.yul\":34010:34040   */\n      and\n        /* \"#utility.yul\":33999:34040   */\n      swap1\n      pop\n        /* \"#utility.yul\":33945:34046   */\n      swap2\n      swap1\n      pop\n      jump\t// out\n        /* \"#utility.yul\":34052:34235   */\n    tag_197:\n        /* \"#utility.yul\":34090:34093   */\n      0x00\n        /* \"#utility.yul\":34113:34136   */\n      tag_655\n        /* \"#utility.yul\":34130:34135   */\n      dup3\n        /* \"#utility.yul\":34113:34136   */\n      tag_348\n      jump\t// in\n    tag_655:\n        /* \"#utility.yul\":34104:34136   */\n      swap2\n      pop\n        /* \"#utility.yul\":34158:34176   */\n      0xffffffffffffffff\n        /* \"#utility.yul\":34151:34156   */\n      dup3\n        /* \"#utility.yul\":34148:34177   */\n      sub\n        /* \"#utility.yul\":34145:34200   */\n      tag_656\n      jumpi\n        /* \"#utility.yul\":34180:34198   */\n      tag_657\n      tag_324\n      jump\t// in\n    tag_657:\n        /* \"#utility.yul\":34145:34200   */\n    tag_656:\n        /* \"#utility.yul\":34227:34228   */\n      0x01\n        /* \"#utility.yul\":34220:34225   */\n      dup3\n        /* \"#utility.yul\":34216:34229   */\n      add\n        /* \"#utility.yul\":34209:34229   */\n      swap1\n      pop\n        /* \"#utility.yul\":34052:34235   */\n      swap2\n      swap1\n      pop\n      jump\t// out\n        /* \"#utility.yul\":34241:34468   */\n    tag_349:\n        /* \"#utility.yul\":34381:34415   */\n      0x566f6365206e616f20706f73737569206e656e68756d2074657374616d656e74\n        /* \"#utility.yul\":34377:34378   */\n      0x00\n        /* \"#utility.yul\":34369:34375   */\n      dup3\n        /* \"#utility.yul\":34365:34379   */\n      add\n        /* \"#utility.yul\":34358:34416   */\n      mstore\n        /* \"#utility.yul\":34450:34460   */\n      0x6f2063726961646f000000000000000000000000000000000000000000000000\n        /* \"#utility.yul\":34445:34447   */\n      0x20\n        /* \"#utility.yul\":34437:34443   */\n      dup3\n        /* \"#utility.yul\":34433:34448   */\n      add\n        /* \"#utility.yul\":34426:34461   */\n      mstore\n        /* \"#utility.yul\":34241:34468   */\n      pop\n      jump\t// out\n        /* \"#utility.yul\":34474:34840   */\n    tag_350:\n        /* \"#utility.yul\":34616:34619   */\n      0x00\n        /* \"#utility.yul\":34637:34704   */\n      tag_660\n        /* \"#utility.yul\":34701:34703   */\n      0x28\n        /* \"#utility.yul\":34696:34699   */\n      dup4\n        /* \"#utility.yul\":34637:34704   */\n      tag_315\n      jump\t// in\n    tag_660:\n        /* \"#utility.yul\":34630:34704   */\n      swap2\n      pop\n        /* \"#utility.yul\":34713:34806   */\n      tag_661\n        /* \"#utility.yul\":34802:34805   */\n      dup3\n        /* \"#utility.yul\":34713:34806   */\n      tag_349\n      jump\t// in\n    tag_661:\n        /* \"#utility.yul\":34831:34833   */\n      0x40\n        /* \"#utility.yul\":34826:34829   */\n      dup3\n        /* \"#utility.yul\":34822:34834   */\n      add\n        /* \"#utility.yul\":34815:34834   */\n      swap1\n      pop\n        /* \"#utility.yul\":34474:34840   */\n      swap2\n      swap1\n      pop\n      jump\t// out\n        /* \"#utility.yul\":34846:35265   */\n    tag_201:\n        /* \"#utility.yul\":35012:35016   */\n      0x00\n        /* \"#utility.yul\":35050:35052   */\n      0x20\n        /* \"#utility.yul\":35039:35048   */\n      dup3\n        /* \"#utility.yul\":35035:35053   */\n      add\n        /* \"#utility.yul\":35027:35053   */\n      swap1\n      pop\n        /* \"#utility.yul\":35099:35108   */\n      dup2\n        /* \"#utility.yul\":35093:35097   */\n      dup2\n        /* \"#utility.yul\":35089:35109   */\n      sub\n        /* \"#utility.yul\":35085:35086   */\n      0x00\n        /* \"#utility.yul\":35074:35083   */\n      dup4\n        /* \"#utility.yul\":35070:35087   */\n      add\n        /* \"#utility.yul\":35063:35110   */\n      mstore\n        /* \"#utility.yul\":35127:35258   */\n      tag_663\n        /* \"#utility.yul\":35253:35257   */\n      dup2\n        /* \"#utility.yul\":35127:35258   */\n      tag_350\n      jump\t// in\n    tag_663:\n        /* \"#utility.yul\":35119:35258   */\n      swap1\n      pop\n        /* \"#utility.yul\":34846:35265   */\n      swap2\n      swap1\n      pop\n      jump\t// out\n        /* \"#utility.yul\":35271:35493   */\n    tag_351:\n        /* \"#utility.yul\":35411:35445   */\n      0x637265617465496e6865726974616e636528292c2076616c6f7220696e76616c\n        /* \"#utility.yul\":35407:35408   */\n      0x00\n        /* \"#utility.yul\":35399:35405   */\n      dup3\n        /* \"#utility.yul\":35395:35409   */\n      add\n        /* \"#utility.yul\":35388:35446   */\n      mstore\n        /* \"#utility.yul\":35480:35485   */\n      0x69646f0000000000000000000000000000000000000000000000000000000000\n        /* \"#utility.yul\":35475:35477   */\n      0x20\n        /* \"#utility.yul\":35467:35473   */\n      dup3\n        /* \"#utility.yul\":35463:35478   */\n      add\n        /* \"#utility.yul\":35456:35486   */\n      mstore\n        /* \"#utility.yul\":35271:35493   */\n      pop\n      jump\t// out\n        /* \"#utility.yul\":35499:35865   */\n    tag_352:\n        /* \"#utility.yul\":35641:35644   */\n      0x00\n        /* \"#utility.yul\":35662:35729   */\n      tag_666\n        /* \"#utility.yul\":35726:35728   */\n      0x23\n        /* \"#utility.yul\":35721:35724   */\n      dup4\n        /* \"#utility.yul\":35662:35729   */\n      tag_315\n      jump\t// in\n    tag_666:\n        /* \"#utility.yul\":35655:35729   */\n      swap2\n      pop\n        /* \"#utility.yul\":35738:35831   */\n      tag_667\n        /* \"#utility.yul\":35827:35830   */\n      dup3\n        /* \"#utility.yul\":35738:35831   */\n      tag_351\n      jump\t// in\n    tag_667:\n        /* \"#utility.yul\":35856:35858   */\n      0x40\n        /* \"#utility.yul\":35851:35854   */\n      dup3\n        /* \"#utility.yul\":35847:35859   */\n      add\n        /* \"#utility.yul\":35840:35859   */\n      swap1\n      pop\n        /* \"#utility.yul\":35499:35865   */\n      swap2\n      swap1\n      pop\n      jump\t// out\n        /* \"#utility.yul\":35871:36290   */\n    tag_208:\n        /* \"#utility.yul\":36037:36041   */\n      0x00\n        /* \"#utility.yul\":36075:36077   */\n      0x20\n        /* \"#utility.yul\":36064:36073   */\n      dup3\n        /* \"#utility.yul\":36060:36078   */\n      add\n        /* \"#utility.yul\":36052:36078   */\n      swap1\n      pop\n        /* \"#utility.yul\":36124:36133   */\n      dup2\n        /* \"#utility.yul\":36118:36122   */\n      dup2\n        /* \"#utility.yul\":36114:36134   */\n      sub\n        /* \"#utility.yul\":36110:36111   */\n      0x00\n        /* \"#utility.yul\":36099:36108   */\n      dup4\n        /* \"#utility.yul\":36095:36112   */\n      add\n        /* \"#utility.yul\":36088:36135   */\n      mstore\n        /* \"#utility.yul\":36152:36283   */\n      tag_669\n        /* \"#utility.yul\":36278:36282   */\n      dup2\n        /* \"#utility.yul\":36152:36283   */\n      tag_352\n      jump\t// in\n    tag_669:\n        /* \"#utility.yul\":36144:36283   */\n      swap1\n      pop\n        /* \"#utility.yul\":35871:36290   */\n      swap2\n      swap1\n      pop\n      jump\t// out\n        /* \"#utility.yul\":36296:36547   */\n    tag_353:\n        /* \"#utility.yul\":36436:36470   */\n      0x637265617465496e6865726974616e636528292c20766f6365206a612074656d\n        /* \"#utility.yul\":36432:36433   */\n      0x00\n        /* \"#utility.yul\":36424:36430   */\n      dup3\n        /* \"#utility.yul\":36420:36434   */\n      add\n        /* \"#utility.yul\":36413:36471   */\n      mstore\n        /* \"#utility.yul\":36505:36539   */\n      0x20756d2074657374616d656e746f2063726961646f2c20656469746520656c65\n        /* \"#utility.yul\":36500:36502   */\n      0x20\n        /* \"#utility.yul\":36492:36498   */\n      dup3\n        /* \"#utility.yul\":36488:36503   */\n      add\n        /* \"#utility.yul\":36481:36540   */\n      mstore\n        /* \"#utility.yul\":36296:36547   */\n      pop\n      jump\t// out\n        /* \"#utility.yul\":36553:36919   */\n    tag_354:\n        /* \"#utility.yul\":36695:36698   */\n      0x00\n        /* \"#utility.yul\":36716:36783   */\n      tag_672\n        /* \"#utility.yul\":36780:36782   */\n      0x40\n        /* \"#utility.yul\":36775:36778   */\n      dup4\n        /* \"#utility.yul\":36716:36783   */\n      tag_315\n      jump\t// in\n    tag_672:\n        /* \"#utility.yul\":36709:36783   */\n      swap2\n      pop\n        /* \"#utility.yul\":36792:36885   */\n      tag_673\n        /* \"#utility.yul\":36881:36884   */\n      dup3\n        /* \"#utility.yul\":36792:36885   */\n      tag_353\n      jump\t// in\n    tag_673:\n        /* \"#utility.yul\":36910:36912   */\n      0x40\n        /* \"#utility.yul\":36905:36908   */\n      dup3\n        /* \"#utility.yul\":36901:36913   */\n      add\n        /* \"#utility.yul\":36894:36913   */\n      swap1\n      pop\n        /* \"#utility.yul\":36553:36919   */\n      swap2\n      swap1\n      pop\n      jump\t// out\n        /* \"#utility.yul\":36925:37344   */\n    tag_215:\n        /* \"#utility.yul\":37091:37095   */\n      0x00\n        /* \"#utility.yul\":37129:37131   */\n      0x20\n        /* \"#utility.yul\":37118:37127   */\n      dup3\n        /* \"#utility.yul\":37114:37132   */\n      add\n        /* \"#utility.yul\":37106:37132   */\n      swap1\n      pop\n        /* \"#utility.yul\":37178:37187   */\n      dup2\n        /* \"#utility.yul\":37172:37176   */\n      dup2\n        /* \"#utility.yul\":37168:37188   */\n      sub\n        /* \"#utility.yul\":37164:37165   */\n      0x00\n        /* \"#utility.yul\":37153:37162   */\n      dup4\n        /* \"#utility.yul\":37149:37166   */\n      add\n        /* \"#utility.yul\":37142:37189   */\n      mstore\n        /* \"#utility.yul\":37206:37337   */\n      tag_675\n        /* \"#utility.yul\":37332:37336   */\n      dup2\n        /* \"#utility.yul\":37206:37337   */\n      tag_354\n      jump\t// in\n    tag_675:\n        /* \"#utility.yul\":37198:37337   */\n      swap1\n      pop\n        /* \"#utility.yul\":36925:37344   */\n      swap2\n      swap1\n      pop\n      jump\t// out\n        /* \"#utility.yul\":37350:37530   */\n    tag_254:\n        /* \"#utility.yul\":37398:37475   */\n      0x4e487b7100000000000000000000000000000000000000000000000000000000\n        /* \"#utility.yul\":37395:37396   */\n      0x00\n        /* \"#utility.yul\":37388:37476   */\n      mstore\n        /* \"#utility.yul\":37495:37499   */\n      0x31\n        /* \"#utility.yul\":37492:37493   */\n      0x04\n        /* \"#utility.yul\":37485:37500   */\n      mstore\n        /* \"#utility.yul\":37519:37523   */\n      0x24\n        /* \"#utility.yul\":37516:37517   */\n      0x00\n        /* \"#utility.yul\":37509:37524   */\n      revert\n\n    auxdata: 0xa2646970667358221220d37e8f52cd4f8725099f1ec5f350070c314f44d098f093fbcfe8cdf3308648bb64736f6c634300081a0033\n}\n",
				"bytecode": {
					"linkReferences": {},
					"object": "6080604052348015600e575f80fd5b5061310d8061001c5f395ff3fe6080604052600436106100a6575f3560e01c80635df11fb7116100635780635df11fb71461017e5780637618d0a7146101ba578063c6064610146101f8578063c80cc41114610238578063ca7252ea1461024e578063e7a84bc314610278576100a6565b80630bbd5839146100aa5780630d78946e146100d25780631aba6da6146100dc57806351cff8d9146100f25780635b084db91461011a5780635bd36e2914610156575b5f80fd5b3480156100b5575f80fd5b506100d060048036038101906100cb9190611f00565b610294565b005b6100da6105cd565b005b3480156100e7575f80fd5b506100f06106f8565b005b3480156100fd575f80fd5b5061011860048036038101906101139190611fd8565b610905565b005b348015610125575f80fd5b50610140600480360381019061013b9190612036565b610cd5565b60405161014d9190612083565b60405180910390f35b348015610161575f80fd5b5061017c6004803603810190610177919061209c565b610d1d565b005b348015610189575f80fd5b506101a4600480360381019061019f9190611fd8565b610f32565b6040516101b191906120e1565b60405180910390f35b3480156101c5575f80fd5b506101e060048036038101906101db9190611fd8565b610fbc565b6040516101ef93929190612133565b60405180910390f35b348015610203575f80fd5b5061021e60048036038101906102199190611fd8565b61100a565b60405161022f95949392919061239a565b60405180910390f35b348015610243575f80fd5b5061024c611424565b005b348015610259575f80fd5b5061026261152c565b60405161026f9190612400565b60405180910390f35b610292600480360381019061028d9190612652565b6115f7565b005b5f3390505f85859050036102dd576040517f08c379a00000000000000000000000000000000000000000000000000000000081526004016102d490612748565b60405180910390fd5b828290508585905014610325576040517f08c379a000000000000000000000000000000000000000000000000000000000815260040161031c906127fc565b60405180910390fd5b61032e81611a1e565b5f808273ffffffffffffffffffffffffffffffffffffffff1673ffffffffffffffffffffffffffffffffffffffff1681526020019081526020015f205f015f6103779190611db8565b5f5b858590508110156105c5575f60405180606001604052808888858181106103a3576103a261281a565b5b90506020020160208101906103b89190611fd8565b73ffffffffffffffffffffffffffffffffffffffff1681526020018686858181106103e6576103e561281a565b5b90506020020160208101906103fb9190612847565b61ffff1681526020016001151581525090505f808473ffffffffffffffffffffffffffffffffffffffff1673ffffffffffffffffffffffffffffffffffffffff1681526020019081526020015f205f0181908060018154018082558091505060019003905f5260205f20015f909190919091505f820151815f015f6101000a81548173ffffffffffffffffffffffffffffffffffffffff021916908373ffffffffffffffffffffffffffffffffffffffff1602179055506020820151815f0160146101000a81548161ffff021916908361ffff1602179055506040820151815f0160166101000a81548160ff021916908315150217905550505060015f88888581811061050b5761050a61281a565b5b90506020020160208101906105209190611fd8565b73ffffffffffffffffffffffffffffffffffffffff1673ffffffffffffffffffffffffffffffffffffffff1681526020019081526020015f2083908060018154018082558091505060019003905f5260205f20015f9091909190916101000a81548173ffffffffffffffffffffffffffffffffffffffff021916908373ffffffffffffffffffffffffffffffffffffffff160217905550508080600101915050610379565b505050505050565b600115155f803373ffffffffffffffffffffffffffffffffffffffff1673ffffffffffffffffffffffffffffffffffffffff1681526020019081526020015f206001015f9054906101000a900460ff1615151461065f576040517f08c379a0000000000000000000000000000000000000000000000000000000008152600401610656906128e2565b60405180910390fd5b5f34116106a1576040517f08c379a00000000000000000000000000000000000000000000000000000000081526004016106989061294a565b60405180910390fd5b345f803373ffffffffffffffffffffffffffffffffffffffff1673ffffffffffffffffffffffffffffffffffffffff1681526020019081526020015f206002015f8282546106ef9190612995565b92505081905550565b5f3390505f808273ffffffffffffffffffffffffffffffffffffffff1673ffffffffffffffffffffffffffffffffffffffff1681526020019081526020015f206001015f9054906101000a900460ff16610787576040517f08c379a000000000000000000000000000000000000000000000000000000000815260040161077e90612a12565b60405180910390fd5b5f3373ffffffffffffffffffffffffffffffffffffffff165f808473ffffffffffffffffffffffffffffffffffffffff1673ffffffffffffffffffffffffffffffffffffffff1681526020019081526020015f20600201546040516107eb90612a5d565b5f6040518083038185875af1925050503d805f8114610825576040519150601f19603f3d011682016040523d82523d5f602084013e61082a565b606091505b505090508061086e576040517f08c379a000000000000000000000000000000000000000000000000000000000815260040161086590612ae1565b60405180910390fd5b61087782611a1e565b5f808373ffffffffffffffffffffffffffffffffffffffff1673ffffffffffffffffffffffffffffffffffffffff1681526020019081526020015f205f8082015f6108c29190611db8565b600182015f6101000a81549060ff02191690556001820160016101000a8154906fffffffffffffffffffffffffffffffff0219169055600282015f905550505050565b5f33905061091282610f32565b610951576040517f08c379a000000000000000000000000000000000000000000000000000000000815260040161094890612b6f565b60405180910390fd5b5f805f8473ffffffffffffffffffffffffffffffffffffffff1673ffffffffffffffffffffffffffffffffffffffff1681526020019081526020015f205f0180549050116109d4576040517f08c379a00000000000000000000000000000000000000000000000000000000081526004016109cb90612bd7565b60405180910390fd5b5f5b5f808473ffffffffffffffffffffffffffffffffffffffff1673ffffffffffffffffffffffffffffffffffffffff1681526020019081526020015f205f0180549050811015610cd0575f805f8573ffffffffffffffffffffffffffffffffffffffff1673ffffffffffffffffffffffffffffffffffffffff1681526020019081526020015f205f018281548110610a7057610a6f61281a565b5b905f5260205f20016040518060600160405290815f82015f9054906101000a900473ffffffffffffffffffffffffffffffffffffffff1673ffffffffffffffffffffffffffffffffffffffff1673ffffffffffffffffffffffffffffffffffffffff1681526020015f820160149054906101000a900461ffff1661ffff1661ffff1681526020015f820160169054906101000a900460ff16151515158152505090508273ffffffffffffffffffffffffffffffffffffffff16815f015173ffffffffffffffffffffffffffffffffffffffff1614610b83576040517f08c379a0000000000000000000000000000000000000000000000000000000008152600401610b7a90612c65565b60405180910390fd5b8060400151610bc7576040517f08c379a0000000000000000000000000000000000000000000000000000000008152600401610bbe90612ccd565b60405180910390fd5b5f815f015173ffffffffffffffffffffffffffffffffffffffff165f808673ffffffffffffffffffffffffffffffffffffffff1673ffffffffffffffffffffffffffffffffffffffff1681526020019081526020015f2060020154604051610c2e90612a5d565b5f6040518083038185875af1925050503d805f8114610c68576040519150601f19603f3d011682016040523d82523d5f602084013e610c6d565b606091505b5050905080610cb1576040517f08c379a0000000000000000000000000000000000000000000000000000000008152600401610ca890612d35565b60405180910390fd5b5f826040019015159081151581525050505080806001019150506109d6565b505050565b6001602052815f5260405f208181548110610cee575f80fd5b905f5260205f20015f915091509054906101000a900473ffffffffffffffffffffffffffffffffffffffff1681565b600115155f803373ffffffffffffffffffffffffffffffffffffffff1673ffffffffffffffffffffffffffffffffffffffff1681526020019081526020015f206001015f9054906101000a900460ff16151514610daf576040517f08c379a0000000000000000000000000000000000000000000000000000000008152600401610da6906128e2565b60405180910390fd5b5f803373ffffffffffffffffffffffffffffffffffffffff1673ffffffffffffffffffffffffffffffffffffffff1681526020019081526020015f2060020154811115610e31576040517f08c379a0000000000000000000000000000000000000000000000000000000008152600401610e2890612d9d565b60405180910390fd5b5f3373ffffffffffffffffffffffffffffffffffffffff1682604051610e5690612a5d565b5f6040518083038185875af1925050503d805f8114610e90576040519150601f19603f3d011682016040523d82523d5f602084013e610e95565b606091505b5050905080610ed9576040517f08c379a0000000000000000000000000000000000000000000000000000000008152600401610ed090612e05565b60405180910390fd5b815f803373ffffffffffffffffffffffffffffffffffffffff1673ffffffffffffffffffffffffffffffffffffffff1681526020019081526020015f206002015f828254610f279190612e23565b925050819055505050565b5f8060019050805f808573ffffffffffffffffffffffffffffffffffffffff1673ffffffffffffffffffffffffffffffffffffffff1681526020019081526020015f2060010160019054906101000a90046fffffffffffffffffffffffffffffffff166fffffffffffffffffffffffffffffffff16610fb19190612995565b421015915050919050565b5f602052805f5260405f205f91509050806001015f9054906101000a900460ff16908060010160019054906101000a90046fffffffffffffffffffffffffffffffff16908060020154905083565b60608060605f805f805f8873ffffffffffffffffffffffffffffffffffffffff1673ffffffffffffffffffffffffffffffffffffffff1681526020019081526020015f206040518060800160405290815f8201805480602002602001604051908101604052809291908181526020015f905b82821015611135578382905f5260205f20016040518060600160405290815f82015f9054906101000a900473ffffffffffffffffffffffffffffffffffffffff1673ffffffffffffffffffffffffffffffffffffffff1673ffffffffffffffffffffffffffffffffffffffff1681526020015f820160149054906101000a900461ffff1661ffff1661ffff1681526020015f820160169054906101000a900460ff1615151515815250508152602001906001019061107c565b505050508152602001600182015f9054906101000a900460ff161515151581526020016001820160019054906101000a90046fffffffffffffffffffffffffffffffff166fffffffffffffffffffffffffffffffff166fffffffffffffffffffffffffffffffff168152602001600282015481525050905080602001516111f1576040517f08c379a00000000000000000000000000000000000000000000000000000000081526004016111e890612ea0565b60405180910390fd5b5f815f01515167ffffffffffffffff8111156112105761120f612430565b5b60405190808252806020026020018201604052801561123e5781602001602082028036833780820191505090505b5090505f825f01515167ffffffffffffffff8111156112605761125f612430565b5b60405190808252806020026020018201604052801561128e5781602001602082028036833780820191505090505b5090505f835f01515167ffffffffffffffff8111156112b0576112af612430565b5b6040519080825280602002602001820160405280156112de5781602001602082028036833780820191505090505b5090505f5b845f0151518167ffffffffffffffff1610156113ff575f855f01518267ffffffffffffffff168151811061131a5761131961281a565b5b60200260200101519050805f0151858367ffffffffffffffff16815181106113455761134461281a565b5b602002602001019073ffffffffffffffffffffffffffffffffffffffff16908173ffffffffffffffffffffffffffffffffffffffff16815250508060200151848367ffffffffffffffff16815181106113a1576113a061281a565b5b602002602001019061ffff16908161ffff16815250508060400151838367ffffffffffffffff16815181106113d9576113d861281a565b5b6020026020010190151590811515815250505080806113f790612ed1565b9150506112e3565b5082828286604001518760600151985098509850985098505050505091939590929450565b5f3390505f808273ffffffffffffffffffffffffffffffffffffffff1673ffffffffffffffffffffffffffffffffffffffff1681526020019081526020015f206001015f9054906101000a900460ff166114b3576040517f08c379a00000000000000000000000000000000000000000000000000000000081526004016114aa90612f70565b60405180910390fd5b425f808373ffffffffffffffffffffffffffffffffffffffff1673ffffffffffffffffffffffffffffffffffffffff1681526020019081526020015f2060010160016101000a8154816fffffffffffffffffffffffffffffffff02191690836fffffffffffffffffffffffffffffffff16021790555050565b60605f33905060015f8273ffffffffffffffffffffffffffffffffffffffff1673ffffffffffffffffffffffffffffffffffffffff1681526020019081526020015f208054806020026020016040519081016040528092919081815260200182805480156115ec57602002820191905f5260205f20905b815f9054906101000a900473ffffffffffffffffffffffffffffffffffffffff1673ffffffffffffffffffffffffffffffffffffffff16815260200190600101908083116115a3575b505050505091505090565b5f3403611639576040517f08c379a000000000000000000000000000000000000000000000000000000000815260040161163090612ffe565b60405180910390fd5b5f82510361167c576040517f08c379a000000000000000000000000000000000000000000000000000000000815260040161167390612748565b60405180910390fd5b80518251146116c0576040517f08c379a00000000000000000000000000000000000000000000000000000000081526004016116b7906127fc565b60405180910390fd5b5f3390505f808273ffffffffffffffffffffffffffffffffffffffff1673ffffffffffffffffffffffffffffffffffffffff1681526020019081526020015f206001015f9054906101000a900460ff1615611750576040517f08c379a00000000000000000000000000000000000000000000000000000000081526004016117479061308c565b60405180910390fd5b5f5b8351811015611975575f604051806060016040528086848151811061177a5761177961281a565b5b602002602001015173ffffffffffffffffffffffffffffffffffffffff1681526020018584815181106117b0576117af61281a565b5b602002602001015161ffff16815260200160011515815250905060015f8684815181106117e0576117df61281a565b5b602002602001015173ffffffffffffffffffffffffffffffffffffffff1673ffffffffffffffffffffffffffffffffffffffff1681526020019081526020015f2083908060018154018082558091505060019003905f5260205f20015f9091909190916101000a81548173ffffffffffffffffffffffffffffffffffffffff021916908373ffffffffffffffffffffffffffffffffffffffff1602179055505f808473ffffffffffffffffffffffffffffffffffffffff1673ffffffffffffffffffffffffffffffffffffffff1681526020019081526020015f205f0181908060018154018082558091505060019003905f5260205f20015f909190919091505f820151815f015f6101000a81548173ffffffffffffffffffffffffffffffffffffffff021916908373ffffffffffffffffffffffffffffffffffffffff1602179055506020820151815f0160146101000a81548161ffff021916908361ffff1602179055506040820151815f0160166101000a81548160ff0219169083151502179055505050508080600101915050611752565b5060015f808373ffffffffffffffffffffffffffffffffffffffff1673ffffffffffffffffffffffffffffffffffffffff1681526020019081526020015f206001015f6101000a81548160ff021916908315150217905550345f808373ffffffffffffffffffffffffffffffffffffffff1673ffffffffffffffffffffffffffffffffffffffff1681526020019081526020015f2060020181905550611a19611424565b505050565b5f805f8373ffffffffffffffffffffffffffffffffffffffff1673ffffffffffffffffffffffffffffffffffffffff1681526020019081526020015f205f01805480602002602001604051908101604052809291908181526020015f905b82821015611b35578382905f5260205f20016040518060600160405290815f82015f9054906101000a900473ffffffffffffffffffffffffffffffffffffffff1673ffffffffffffffffffffffffffffffffffffffff1673ffffffffffffffffffffffffffffffffffffffff1681526020015f820160149054906101000a900461ffff1661ffff1661ffff1681526020015f820160169054906101000a900460ff16151515158152505081526020019060010190611a7c565b5050505090505f5b8151811015611db3575f60015f848481518110611b5d57611b5c61281a565b5b60200260200101515f015173ffffffffffffffffffffffffffffffffffffffff1673ffffffffffffffffffffffffffffffffffffffff1681526020019081526020015f20805480602002602001604051908101604052809291908181526020018280548015611c1e57602002820191905f5260205f20905b815f9054906101000a900473ffffffffffffffffffffffffffffffffffffffff1673ffffffffffffffffffffffffffffffffffffffff1681526020019060010190808311611bd5575b505050505090505f815190505f5b81811015611da3578573ffffffffffffffffffffffffffffffffffffffff16838281518110611c5e57611c5d61281a565b5b602002602001015173ffffffffffffffffffffffffffffffffffffffff1603611d965782600183611c8f9190612e23565b81518110611ca057611c9f61281a565b5b6020026020010151838281518110611cbb57611cba61281a565b5b602002602001019073ffffffffffffffffffffffffffffffffffffffff16908173ffffffffffffffffffffffffffffffffffffffff168152505060015f868681518110611d0b57611d0a61281a565b5b60200260200101515f015173ffffffffffffffffffffffffffffffffffffffff1673ffffffffffffffffffffffffffffffffffffffff1681526020019081526020015f20805480611d5f57611d5e6130aa565b5b600190038181905f5260205f20015f6101000a81549073ffffffffffffffffffffffffffffffffffffffff02191690559055611da3565b8080600101915050611c2c565b5050508080600101915050611b3d565b505050565b5080545f8255905f5260205f2090810190611dd39190611dd6565b50565b5b80821115611e35575f8082015f6101000a81549073ffffffffffffffffffffffffffffffffffffffff02191690555f820160146101000a81549061ffff02191690555f820160166101000a81549060ff021916905550600101611dd7565b5090565b5f604051905090565b5f80fd5b5f80fd5b5f80fd5b5f80fd5b5f80fd5b5f8083601f840112611e6b57611e6a611e4a565b5b8235905067ffffffffffffffff811115611e8857611e87611e4e565b5b602083019150836020820283011115611ea457611ea3611e52565b5b9250929050565b5f8083601f840112611ec057611ebf611e4a565b5b8235905067ffffffffffffffff811115611edd57611edc611e4e565b5b602083019150836020820283011115611ef957611ef8611e52565b5b9250929050565b5f805f8060408587031215611f1857611f17611e42565b5b5f85013567ffffffffffffffff811115611f3557611f34611e46565b5b611f4187828801611e56565b9450945050602085013567ffffffffffffffff811115611f6457611f63611e46565b5b611f7087828801611eab565b925092505092959194509250565b5f73ffffffffffffffffffffffffffffffffffffffff82169050919050565b5f611fa782611f7e565b9050919050565b611fb781611f9d565b8114611fc1575f80fd5b50565b5f81359050611fd281611fae565b92915050565b5f60208284031215611fed57611fec611e42565b5b5f611ffa84828501611fc4565b91505092915050565b5f819050919050565b61201581612003565b811461201f575f80fd5b50565b5f813590506120308161200c565b92915050565b5f806040838503121561204c5761204b611e42565b5b5f61205985828601611fc4565b925050602061206a85828601612022565b9150509250929050565b61207d81611f9d565b82525050565b5f6020820190506120965f830184612074565b92915050565b5f602082840312156120b1576120b0611e42565b5b5f6120be84828501612022565b91505092915050565b5f8115159050919050565b6120db816120c7565b82525050565b5f6020820190506120f45f8301846120d2565b92915050565b5f6fffffffffffffffffffffffffffffffff82169050919050565b61211e816120fa565b82525050565b61212d81612003565b82525050565b5f6060820190506121465f8301866120d2565b6121536020830185612115565b6121606040830184612124565b949350505050565b5f81519050919050565b5f82825260208201905092915050565b5f819050602082019050919050565b61219a81611f9d565b82525050565b5f6121ab8383612191565b60208301905092915050565b5f602082019050919050565b5f6121cd82612168565b6121d78185612172565b93506121e283612182565b805f5b838110156122125781516121f988826121a0565b9750612204836121b7565b9250506001810190506121e5565b5085935050505092915050565b5f81519050919050565b5f82825260208201905092915050565b5f819050602082019050919050565b5f61ffff82169050919050565b61225e81612248565b82525050565b5f61226f8383612255565b60208301905092915050565b5f602082019050919050565b5f6122918261221f565b61229b8185612229565b93506122a683612239565b805f5b838110156122d65781516122bd8882612264565b97506122c88361227b565b9250506001810190506122a9565b5085935050505092915050565b5f81519050919050565b5f82825260208201905092915050565b5f819050602082019050919050565b612315816120c7565b82525050565b5f612326838361230c565b60208301905092915050565b5f602082019050919050565b5f612348826122e3565b61235281856122ed565b935061235d836122fd565b805f5b8381101561238d578151612374888261231b565b975061237f83612332565b925050600181019050612360565b5085935050505092915050565b5f60a0820190508181035f8301526123b281886121c3565b905081810360208301526123c68187612287565b905081810360408301526123da818661233e565b90506123e96060830185612115565b6123f66080830184612124565b9695505050505050565b5f6020820190508181035f83015261241881846121c3565b905092915050565b5f601f19601f8301169050919050565b7f4e487b71000000000000000000000000000000000000000000000000000000005f52604160045260245ffd5b61246682612420565b810181811067ffffffffffffffff8211171561248557612484612430565b5b80604052505050565b5f612497611e39565b90506124a3828261245d565b919050565b5f67ffffffffffffffff8211156124c2576124c1612430565b5b602082029050602081019050919050565b5f6124e56124e0846124a8565b61248e565b9050808382526020820190506020840283018581111561250857612507611e52565b5b835b81811015612531578061251d8882611fc4565b84526020840193505060208101905061250a565b5050509392505050565b5f82601f83011261254f5761254e611e4a565b5b813561255f8482602086016124d3565b91505092915050565b5f67ffffffffffffffff82111561258257612581612430565b5b602082029050602081019050919050565b61259c81612248565b81146125a6575f80fd5b50565b5f813590506125b781612593565b92915050565b5f6125cf6125ca84612568565b61248e565b905080838252602082019050602084028301858111156125f2576125f1611e52565b5b835b8181101561261b578061260788826125a9565b8452602084019350506020810190506125f4565b5050509392505050565b5f82601f83011261263957612638611e4a565b5b81356126498482602086016125bd565b91505092915050565b5f806040838503121561266857612667611e42565b5b5f83013567ffffffffffffffff81111561268557612684611e46565b5b6126918582860161253b565b925050602083013567ffffffffffffffff8111156126b2576126b1611e46565b5b6126be85828601612625565b9150509250929050565b5f82825260208201905092915050565b7f637265617465496e6865726974616e636528292c2061646963696f6e65206f735f8201527f20686572646569726f7300000000000000000000000000000000000000000000602082015250565b5f612732602a836126c8565b915061273d826126d8565b604082019050919050565b5f6020820190508181035f83015261275f81612726565b9050919050565b7f637265617465496e6865726974616e636528292c207175616e746964616465205f8201527f646520656e64657265636f73206520706f7263656e746167656e73206469666560208201527f72656e7465730000000000000000000000000000000000000000000000000000604082015250565b5f6127e66046836126c8565b91506127f182612766565b606082019050919050565b5f6020820190508181035f830152612813816127da565b9050919050565b7f4e487b71000000000000000000000000000000000000000000000000000000005f52603260045260245ffd5b5f6020828403121561285c5761285b611e42565b5b5f612869848285016125a9565b91505092915050565b7f766f6365206e616f20706f737375692074657374616d656e746f2063726961645f8201527f6f00000000000000000000000000000000000000000000000000000000000000602082015250565b5f6128cc6021836126c8565b91506128d782612872565b604082019050919050565b5f6020820190508181035f8301526128f9816128c0565b9050919050565b7f696e7369726120756d2076616c6f7200000000000000000000000000000000005f82015250565b5f612934600f836126c8565b915061293f82612900565b602082019050919050565b5f6020820190508181035f83015261296181612928565b9050919050565b7f4e487b71000000000000000000000000000000000000000000000000000000005f52601160045260245ffd5b5f61299f82612003565b91506129aa83612003565b92508282019050808211156129c2576129c1612968565b5b92915050565b7f766f6365206e616f20706f737375692074657374616d656e746f0000000000005f82015250565b5f6129fc601a836126c8565b9150612a07826129c8565b602082019050919050565b5f6020820190508181035f830152612a29816129f0565b9050919050565b5f81905092915050565b50565b5f612a485f83612a30565b9150612a5382612a3a565b5f82019050919050565b5f612a6782612a3d565b9150819050919050565b7f63616e63656c54657374616d656e7428292c2046616c686120616f20656e76695f8201527f6172204554480000000000000000000000000000000000000000000000000000602082015250565b5f612acb6026836126c8565b9150612ad682612a71565b604082019050919050565b5f6020820190508181035f830152612af881612abf565b9050919050565b7f41207265746972616461206e616f20706f646520736572207265616c697a61645f8201527f6100000000000000000000000000000000000000000000000000000000000000602082015250565b5f612b596021836126c8565b9150612b6482612aff565b604082019050919050565b5f6020820190508181035f830152612b8681612b4d565b9050919050565b7f6e616f2074656d20686572646569726f730000000000000000000000000000005f82015250565b5f612bc16011836126c8565b9150612bcc82612b8d565b602082019050919050565b5f6020820190508181035f830152612bee81612bb5565b9050919050565b7f74657374616d656e746f2065207175656d20746120726f64616e646f206120665f8201527f756e63616f2064652073617175652073616f206469666572656e746573000000602082015250565b5f612c4f603d836126c8565b9150612c5a82612bf5565b604082019050919050565b5f6020820190508181035f830152612c7c81612c43565b9050919050565b7f6e616f20706f64652073616361720000000000000000000000000000000000005f82015250565b5f612cb7600e836126c8565b9150612cc282612c83565b602082019050919050565b5f6020820190508181035f830152612ce481612cab565b9050919050565b7f46616c686120616f20656e7669617220455448000000000000000000000000005f82015250565b5f612d1f6013836126c8565b9150612d2a82612ceb565b602082019050919050565b5f6020820190508181035f830152612d4c81612d13565b9050919050565b7f766f6365206e616f2074656d206973736f207475646f206169000000000000005f82015250565b5f612d876019836126c8565b9150612d9282612d53565b602082019050919050565b5f6020820190508181035f830152612db481612d7b565b9050919050565b7f6e616f207469726f7500000000000000000000000000000000000000000000005f82015250565b5f612def6009836126c8565b9150612dfa82612dbb565b602082019050919050565b5f6020820190508181035f830152612e1c81612de3565b9050919050565b5f612e2d82612003565b9150612e3883612003565b9250828203905081811115612e5057612e4f612968565b5b92915050565b7f5465737461646f72206e616f20656e636f6e747261646f0000000000000000005f82015250565b5f612e8a6017836126c8565b9150612e9582612e56565b602082019050919050565b5f6020820190508181035f830152612eb781612e7e565b9050919050565b5f67ffffffffffffffff82169050919050565b5f612edb82612ebe565b915067ffffffffffffffff8203612ef557612ef4612968565b5b600182019050919050565b7f566f6365206e616f20706f73737569206e656e68756d2074657374616d656e745f8201527f6f2063726961646f000000000000000000000000000000000000000000000000602082015250565b5f612f5a6028836126c8565b9150612f6582612f00565b604082019050919050565b5f6020820190508181035f830152612f8781612f4e565b9050919050565b7f637265617465496e6865726974616e636528292c2076616c6f7220696e76616c5f8201527f69646f0000000000000000000000000000000000000000000000000000000000602082015250565b5f612fe86023836126c8565b9150612ff382612f8e565b604082019050919050565b5f6020820190508181035f83015261301581612fdc565b9050919050565b7f637265617465496e6865726974616e636528292c20766f6365206a612074656d5f8201527f20756d2074657374616d656e746f2063726961646f2c20656469746520656c65602082015250565b5f6130766040836126c8565b91506130818261301c565b604082019050919050565b5f6020820190508181035f8301526130a38161306a565b9050919050565b7f4e487b71000000000000000000000000000000000000000000000000000000005f52603160045260245ffdfea2646970667358221220d37e8f52cd4f8725099f1ec5f350070c314f44d098f093fbcfe8cdf3308648bb64736f6c634300081a0033",
					"opcodes": "PUSH1 0x80 PUSH1 0x40 MSTORE CALLVALUE DUP1 ISZERO PUSH1 0xE JUMPI PUSH0 DUP1 REVERT JUMPDEST POP PUSH2 0x310D DUP1 PUSH2 0x1C PUSH0 CODECOPY PUSH0 RETURN INVALID PUSH1 0x80 PUSH1 0x40 MSTORE PUSH1 0x4 CALLDATASIZE LT PUSH2 0xA6 JUMPI PUSH0 CALLDATALOAD PUSH1 0xE0 SHR DUP1 PUSH4 0x5DF11FB7 GT PUSH2 0x63 JUMPI DUP1 PUSH4 0x5DF11FB7 EQ PUSH2 0x17E JUMPI DUP1 PUSH4 0x7618D0A7 EQ PUSH2 0x1BA JUMPI DUP1 PUSH4 0xC6064610 EQ PUSH2 0x1F8 JUMPI DUP1 PUSH4 0xC80CC411 EQ PUSH2 0x238 JUMPI DUP1 PUSH4 0xCA7252EA EQ PUSH2 0x24E JUMPI DUP1 PUSH4 0xE7A84BC3 EQ PUSH2 0x278 JUMPI PUSH2 0xA6 JUMP JUMPDEST DUP1 PUSH4 0xBBD5839 EQ PUSH2 0xAA JUMPI DUP1 PUSH4 0xD78946E EQ PUSH2 0xD2 JUMPI DUP1 PUSH4 0x1ABA6DA6 EQ PUSH2 0xDC JUMPI DUP1 PUSH4 0x51CFF8D9 EQ PUSH2 0xF2 JUMPI DUP1 PUSH4 0x5B084DB9 EQ PUSH2 0x11A JUMPI DUP1 PUSH4 0x5BD36E29 EQ PUSH2 0x156 JUMPI JUMPDEST PUSH0 DUP1 REVERT JUMPDEST CALLVALUE DUP1 ISZERO PUSH2 0xB5 JUMPI PUSH0 DUP1 REVERT JUMPDEST POP PUSH2 0xD0 PUSH1 0x4 DUP1 CALLDATASIZE SUB DUP2 ADD SWAP1 PUSH2 0xCB SWAP2 SWAP1 PUSH2 0x1F00 JUMP JUMPDEST PUSH2 0x294 JUMP JUMPDEST STOP JUMPDEST PUSH2 0xDA PUSH2 0x5CD JUMP JUMPDEST STOP JUMPDEST CALLVALUE DUP1 ISZERO PUSH2 0xE7 JUMPI PUSH0 DUP1 REVERT JUMPDEST POP PUSH2 0xF0 PUSH2 0x6F8 JUMP JUMPDEST STOP JUMPDEST CALLVALUE DUP1 ISZERO PUSH2 0xFD JUMPI PUSH0 DUP1 REVERT JUMPDEST POP PUSH2 0x118 PUSH1 0x4 DUP1 CALLDATASIZE SUB DUP2 ADD SWAP1 PUSH2 0x113 SWAP2 SWAP1 PUSH2 0x1FD8 JUMP JUMPDEST PUSH2 0x905 JUMP JUMPDEST STOP JUMPDEST CALLVALUE DUP1 ISZERO PUSH2 0x125 JUMPI PUSH0 DUP1 REVERT JUMPDEST POP PUSH2 0x140 PUSH1 0x4 DUP1 CALLDATASIZE SUB DUP2 ADD SWAP1 PUSH2 0x13B SWAP2 SWAP1 PUSH2 0x2036 JUMP JUMPDEST PUSH2 0xCD5 JUMP JUMPDEST PUSH1 0x40 MLOAD PUSH2 0x14D SWAP2 SWAP1 PUSH2 0x2083 JUMP JUMPDEST PUSH1 0x40 MLOAD DUP1 SWAP2 SUB SWAP1 RETURN JUMPDEST CALLVALUE DUP1 ISZERO PUSH2 0x161 JUMPI PUSH0 DUP1 REVERT JUMPDEST POP PUSH2 0x17C PUSH1 0x4 DUP1 CALLDATASIZE SUB DUP2 ADD SWAP1 PUSH2 0x177 SWAP2 SWAP1 PUSH2 0x209C JUMP JUMPDEST PUSH2 0xD1D JUMP JUMPDEST STOP JUMPDEST CALLVALUE DUP1 ISZERO PUSH2 0x189 JUMPI PUSH0 DUP1 REVERT JUMPDEST POP PUSH2 0x1A4 PUSH1 0x4 DUP1 CALLDATASIZE SUB DUP2 ADD SWAP1 PUSH2 0x19F SWAP2 SWAP1 PUSH2 0x1FD8 JUMP JUMPDEST PUSH2 0xF32 JUMP JUMPDEST PUSH1 0x40 MLOAD PUSH2 0x1B1 SWAP2 SWAP1 PUSH2 0x20E1 JUMP JUMPDEST PUSH1 0x40 MLOAD DUP1 SWAP2 SUB SWAP1 RETURN JUMPDEST CALLVALUE DUP1 ISZERO PUSH2 0x1C5 JUMPI PUSH0 DUP1 REVERT JUMPDEST POP PUSH2 0x1E0 PUSH1 0x4 DUP1 CALLDATASIZE SUB DUP2 ADD SWAP1 PUSH2 0x1DB SWAP2 SWAP1 PUSH2 0x1FD8 JUMP JUMPDEST PUSH2 0xFBC JUMP JUMPDEST PUSH1 0x40 MLOAD PUSH2 0x1EF SWAP4 SWAP3 SWAP2 SWAP1 PUSH2 0x2133 JUMP JUMPDEST PUSH1 0x40 MLOAD DUP1 SWAP2 SUB SWAP1 RETURN JUMPDEST CALLVALUE DUP1 ISZERO PUSH2 0x203 JUMPI PUSH0 DUP1 REVERT JUMPDEST POP PUSH2 0x21E PUSH1 0x4 DUP1 CALLDATASIZE SUB DUP2 ADD SWAP1 PUSH2 0x219 SWAP2 SWAP1 PUSH2 0x1FD8 JUMP JUMPDEST PUSH2 0x100A JUMP JUMPDEST PUSH1 0x40 MLOAD PUSH2 0x22F SWAP6 SWAP5 SWAP4 SWAP3 SWAP2 SWAP1 PUSH2 0x239A JUMP JUMPDEST PUSH1 0x40 MLOAD DUP1 SWAP2 SUB SWAP1 RETURN JUMPDEST CALLVALUE DUP1 ISZERO PUSH2 0x243 JUMPI PUSH0 DUP1 REVERT JUMPDEST POP PUSH2 0x24C PUSH2 0x1424 JUMP JUMPDEST STOP JUMPDEST CALLVALUE DUP1 ISZERO PUSH2 0x259 JUMPI PUSH0 DUP1 REVERT JUMPDEST POP PUSH2 0x262 PUSH2 0x152C JUMP JUMPDEST PUSH1 0x40 MLOAD PUSH2 0x26F SWAP2 SWAP1 PUSH2 0x2400 JUMP JUMPDEST PUSH1 0x40 MLOAD DUP1 SWAP2 SUB SWAP1 RETURN JUMPDEST PUSH2 0x292 PUSH1 0x4 DUP1 CALLDATASIZE SUB DUP2 ADD SWAP1 PUSH2 0x28D SWAP2 SWAP1 PUSH2 0x2652 JUMP JUMPDEST PUSH2 0x15F7 JUMP JUMPDEST STOP JUMPDEST PUSH0 CALLER SWAP1 POP PUSH0 DUP6 DUP6 SWAP1 POP SUB PUSH2 0x2DD JUMPI PUSH1 0x40 MLOAD PUSH32 0x8C379A000000000000000000000000000000000000000000000000000000000 DUP2 MSTORE PUSH1 0x4 ADD PUSH2 0x2D4 SWAP1 PUSH2 0x2748 JUMP JUMPDEST PUSH1 0x40 MLOAD DUP1 SWAP2 SUB SWAP1 REVERT JUMPDEST DUP3 DUP3 SWAP1 POP DUP6 DUP6 SWAP1 POP EQ PUSH2 0x325 JUMPI PUSH1 0x40 MLOAD PUSH32 0x8C379A000000000000000000000000000000000000000000000000000000000 DUP2 MSTORE PUSH1 0x4 ADD PUSH2 0x31C SWAP1 PUSH2 0x27FC JUMP JUMPDEST PUSH1 0x40 MLOAD DUP1 SWAP2 SUB SWAP1 REVERT JUMPDEST PUSH2 0x32E DUP2 PUSH2 0x1A1E JUMP JUMPDEST PUSH0 DUP1 DUP3 PUSH20 0xFFFFFFFFFFFFFFFFFFFFFFFFFFFFFFFFFFFFFFFF AND PUSH20 0xFFFFFFFFFFFFFFFFFFFFFFFFFFFFFFFFFFFFFFFF AND DUP2 MSTORE PUSH1 0x20 ADD SWAP1 DUP2 MSTORE PUSH1 0x20 ADD PUSH0 KECCAK256 PUSH0 ADD PUSH0 PUSH2 0x377 SWAP2 SWAP1 PUSH2 0x1DB8 JUMP JUMPDEST PUSH0 JUMPDEST DUP6 DUP6 SWAP1 POP DUP2 LT ISZERO PUSH2 0x5C5 JUMPI PUSH0 PUSH1 0x40 MLOAD DUP1 PUSH1 0x60 ADD PUSH1 0x40 MSTORE DUP1 DUP9 DUP9 DUP6 DUP2 DUP2 LT PUSH2 0x3A3 JUMPI PUSH2 0x3A2 PUSH2 0x281A JUMP JUMPDEST JUMPDEST SWAP1 POP PUSH1 0x20 MUL ADD PUSH1 0x20 DUP2 ADD SWAP1 PUSH2 0x3B8 SWAP2 SWAP1 PUSH2 0x1FD8 JUMP JUMPDEST PUSH20 0xFFFFFFFFFFFFFFFFFFFFFFFFFFFFFFFFFFFFFFFF AND DUP2 MSTORE PUSH1 0x20 ADD DUP7 DUP7 DUP6 DUP2 DUP2 LT PUSH2 0x3E6 JUMPI PUSH2 0x3E5 PUSH2 0x281A JUMP JUMPDEST JUMPDEST SWAP1 POP PUSH1 0x20 MUL ADD PUSH1 0x20 DUP2 ADD SWAP1 PUSH2 0x3FB SWAP2 SWAP1 PUSH2 0x2847 JUMP JUMPDEST PUSH2 0xFFFF AND DUP2 MSTORE PUSH1 0x20 ADD PUSH1 0x1 ISZERO ISZERO DUP2 MSTORE POP SWAP1 POP PUSH0 DUP1 DUP5 PUSH20 0xFFFFFFFFFFFFFFFFFFFFFFFFFFFFFFFFFFFFFFFF AND PUSH20 0xFFFFFFFFFFFFFFFFFFFFFFFFFFFFFFFFFFFFFFFF AND DUP2 MSTORE PUSH1 0x20 ADD SWAP1 DUP2 MSTORE PUSH1 0x20 ADD PUSH0 KECCAK256 PUSH0 ADD DUP2 SWAP1 DUP1 PUSH1 0x1 DUP2 SLOAD ADD DUP1 DUP3 SSTORE DUP1 SWAP2 POP POP PUSH1 0x1 SWAP1 SUB SWAP1 PUSH0 MSTORE PUSH1 0x20 PUSH0 KECCAK256 ADD PUSH0 SWAP1 SWAP2 SWAP1 SWAP2 SWAP1 SWAP2 POP PUSH0 DUP3 ADD MLOAD DUP2 PUSH0 ADD PUSH0 PUSH2 0x100 EXP DUP2 SLOAD DUP2 PUSH20 0xFFFFFFFFFFFFFFFFFFFFFFFFFFFFFFFFFFFFFFFF MUL NOT AND SWAP1 DUP4 PUSH20 0xFFFFFFFFFFFFFFFFFFFFFFFFFFFFFFFFFFFFFFFF AND MUL OR SWAP1 SSTORE POP PUSH1 0x20 DUP3 ADD MLOAD DUP2 PUSH0 ADD PUSH1 0x14 PUSH2 0x100 EXP DUP2 SLOAD DUP2 PUSH2 0xFFFF MUL NOT AND SWAP1 DUP4 PUSH2 0xFFFF AND MUL OR SWAP1 SSTORE POP PUSH1 0x40 DUP3 ADD MLOAD DUP2 PUSH0 ADD PUSH1 0x16 PUSH2 0x100 EXP DUP2 SLOAD DUP2 PUSH1 0xFF MUL NOT AND SWAP1 DUP4 ISZERO ISZERO MUL OR SWAP1 SSTORE POP POP POP PUSH1 0x1 PUSH0 DUP9 DUP9 DUP6 DUP2 DUP2 LT PUSH2 0x50B JUMPI PUSH2 0x50A PUSH2 0x281A JUMP JUMPDEST JUMPDEST SWAP1 POP PUSH1 0x20 MUL ADD PUSH1 0x20 DUP2 ADD SWAP1 PUSH2 0x520 SWAP2 SWAP1 PUSH2 0x1FD8 JUMP JUMPDEST PUSH20 0xFFFFFFFFFFFFFFFFFFFFFFFFFFFFFFFFFFFFFFFF AND PUSH20 0xFFFFFFFFFFFFFFFFFFFFFFFFFFFFFFFFFFFFFFFF AND DUP2 MSTORE PUSH1 0x20 ADD SWAP1 DUP2 MSTORE PUSH1 0x20 ADD PUSH0 KECCAK256 DUP4 SWAP1 DUP1 PUSH1 0x1 DUP2 SLOAD ADD DUP1 DUP3 SSTORE DUP1 SWAP2 POP POP PUSH1 0x1 SWAP1 SUB SWAP1 PUSH0 MSTORE PUSH1 0x20 PUSH0 KECCAK256 ADD PUSH0 SWAP1 SWAP2 SWAP1 SWAP2 SWAP1 SWAP2 PUSH2 0x100 EXP DUP2 SLOAD DUP2 PUSH20 0xFFFFFFFFFFFFFFFFFFFFFFFFFFFFFFFFFFFFFFFF MUL NOT AND SWAP1 DUP4 PUSH20 0xFFFFFFFFFFFFFFFFFFFFFFFFFFFFFFFFFFFFFFFF AND MUL OR SWAP1 SSTORE POP POP DUP1 DUP1 PUSH1 0x1 ADD SWAP2 POP POP PUSH2 0x379 JUMP JUMPDEST POP POP POP POP POP POP JUMP JUMPDEST PUSH1 0x1 ISZERO ISZERO PUSH0 DUP1 CALLER PUSH20 0xFFFFFFFFFFFFFFFFFFFFFFFFFFFFFFFFFFFFFFFF AND PUSH20 0xFFFFFFFFFFFFFFFFFFFFFFFFFFFFFFFFFFFFFFFF AND DUP2 MSTORE PUSH1 0x20 ADD SWAP1 DUP2 MSTORE PUSH1 0x20 ADD PUSH0 KECCAK256 PUSH1 0x1 ADD PUSH0 SWAP1 SLOAD SWAP1 PUSH2 0x100 EXP SWAP1 DIV PUSH1 0xFF AND ISZERO ISZERO EQ PUSH2 0x65F JUMPI PUSH1 0x40 MLOAD PUSH32 0x8C379A000000000000000000000000000000000000000000000000000000000 DUP2 MSTORE PUSH1 0x4 ADD PUSH2 0x656 SWAP1 PUSH2 0x28E2 JUMP JUMPDEST PUSH1 0x40 MLOAD DUP1 SWAP2 SUB SWAP1 REVERT JUMPDEST PUSH0 CALLVALUE GT PUSH2 0x6A1 JUMPI PUSH1 0x40 MLOAD PUSH32 0x8C379A000000000000000000000000000000000000000000000000000000000 DUP2 MSTORE PUSH1 0x4 ADD PUSH2 0x698 SWAP1 PUSH2 0x294A JUMP JUMPDEST PUSH1 0x40 MLOAD DUP1 SWAP2 SUB SWAP1 REVERT JUMPDEST CALLVALUE PUSH0 DUP1 CALLER PUSH20 0xFFFFFFFFFFFFFFFFFFFFFFFFFFFFFFFFFFFFFFFF AND PUSH20 0xFFFFFFFFFFFFFFFFFFFFFFFFFFFFFFFFFFFFFFFF AND DUP2 MSTORE PUSH1 0x20 ADD SWAP1 DUP2 MSTORE PUSH1 0x20 ADD PUSH0 KECCAK256 PUSH1 0x2 ADD PUSH0 DUP3 DUP3 SLOAD PUSH2 0x6EF SWAP2 SWAP1 PUSH2 0x2995 JUMP JUMPDEST SWAP3 POP POP DUP2 SWAP1 SSTORE POP JUMP JUMPDEST PUSH0 CALLER SWAP1 POP PUSH0 DUP1 DUP3 PUSH20 0xFFFFFFFFFFFFFFFFFFFFFFFFFFFFFFFFFFFFFFFF AND PUSH20 0xFFFFFFFFFFFFFFFFFFFFFFFFFFFFFFFFFFFFFFFF AND DUP2 MSTORE PUSH1 0x20 ADD SWAP1 DUP2 MSTORE PUSH1 0x20 ADD PUSH0 KECCAK256 PUSH1 0x1 ADD PUSH0 SWAP1 SLOAD SWAP1 PUSH2 0x100 EXP SWAP1 DIV PUSH1 0xFF AND PUSH2 0x787 JUMPI PUSH1 0x40 MLOAD PUSH32 0x8C379A000000000000000000000000000000000000000000000000000000000 DUP2 MSTORE PUSH1 0x4 ADD PUSH2 0x77E SWAP1 PUSH2 0x2A12 JUMP JUMPDEST PUSH1 0x40 MLOAD DUP1 SWAP2 SUB SWAP1 REVERT JUMPDEST PUSH0 CALLER PUSH20 0xFFFFFFFFFFFFFFFFFFFFFFFFFFFFFFFFFFFFFFFF AND PUSH0 DUP1 DUP5 PUSH20 0xFFFFFFFFFFFFFFFFFFFFFFFFFFFFFFFFFFFFFFFF AND PUSH20 0xFFFFFFFFFFFFFFFFFFFFFFFFFFFFFFFFFFFFFFFF AND DUP2 MSTORE PUSH1 0x20 ADD SWAP1 DUP2 MSTORE PUSH1 0x20 ADD PUSH0 KECCAK256 PUSH1 0x2 ADD SLOAD PUSH1 0x40 MLOAD PUSH2 0x7EB SWAP1 PUSH2 0x2A5D JUMP JUMPDEST PUSH0 PUSH1 0x40 MLOAD DUP1 DUP4 SUB DUP2 DUP6 DUP8 GAS CALL SWAP3 POP POP POP RETURNDATASIZE DUP1 PUSH0 DUP2 EQ PUSH2 0x825 JUMPI PUSH1 0x40 MLOAD SWAP2 POP PUSH1 0x1F NOT PUSH1 0x3F RETURNDATASIZE ADD AND DUP3 ADD PUSH1 0x40 MSTORE RETURNDATASIZE DUP3 MSTORE RETURNDATASIZE PUSH0 PUSH1 0x20 DUP5 ADD RETURNDATACOPY PUSH2 0x82A JUMP JUMPDEST PUSH1 0x60 SWAP2 POP JUMPDEST POP POP SWAP1 POP DUP1 PUSH2 0x86E JUMPI PUSH1 0x40 MLOAD PUSH32 0x8C379A000000000000000000000000000000000000000000000000000000000 DUP2 MSTORE PUSH1 0x4 ADD PUSH2 0x865 SWAP1 PUSH2 0x2AE1 JUMP JUMPDEST PUSH1 0x40 MLOAD DUP1 SWAP2 SUB SWAP1 REVERT JUMPDEST PUSH2 0x877 DUP3 PUSH2 0x1A1E JUMP JUMPDEST PUSH0 DUP1 DUP4 PUSH20 0xFFFFFFFFFFFFFFFFFFFFFFFFFFFFFFFFFFFFFFFF AND PUSH20 0xFFFFFFFFFFFFFFFFFFFFFFFFFFFFFFFFFFFFFFFF AND DUP2 MSTORE PUSH1 0x20 ADD SWAP1 DUP2 MSTORE PUSH1 0x20 ADD PUSH0 KECCAK256 PUSH0 DUP1 DUP3 ADD PUSH0 PUSH2 0x8C2 SWAP2 SWAP1 PUSH2 0x1DB8 JUMP JUMPDEST PUSH1 0x1 DUP3 ADD PUSH0 PUSH2 0x100 EXP DUP2 SLOAD SWAP1 PUSH1 0xFF MUL NOT AND SWAP1 SSTORE PUSH1 0x1 DUP3 ADD PUSH1 0x1 PUSH2 0x100 EXP DUP2 SLOAD SWAP1 PUSH16 0xFFFFFFFFFFFFFFFFFFFFFFFFFFFFFFFF MUL NOT AND SWAP1 SSTORE PUSH1 0x2 DUP3 ADD PUSH0 SWAP1 SSTORE POP POP POP POP JUMP JUMPDEST PUSH0 CALLER SWAP1 POP PUSH2 0x912 DUP3 PUSH2 0xF32 JUMP JUMPDEST PUSH2 0x951 JUMPI PUSH1 0x40 MLOAD PUSH32 0x8C379A000000000000000000000000000000000000000000000000000000000 DUP2 MSTORE PUSH1 0x4 ADD PUSH2 0x948 SWAP1 PUSH2 0x2B6F JUMP JUMPDEST PUSH1 0x40 MLOAD DUP1 SWAP2 SUB SWAP1 REVERT JUMPDEST PUSH0 DUP1 PUSH0 DUP5 PUSH20 0xFFFFFFFFFFFFFFFFFFFFFFFFFFFFFFFFFFFFFFFF AND PUSH20 0xFFFFFFFFFFFFFFFFFFFFFFFFFFFFFFFFFFFFFFFF AND DUP2 MSTORE PUSH1 0x20 ADD SWAP1 DUP2 MSTORE PUSH1 0x20 ADD PUSH0 KECCAK256 PUSH0 ADD DUP1 SLOAD SWAP1 POP GT PUSH2 0x9D4 JUMPI PUSH1 0x40 MLOAD PUSH32 0x8C379A000000000000000000000000000000000000000000000000000000000 DUP2 MSTORE PUSH1 0x4 ADD PUSH2 0x9CB SWAP1 PUSH2 0x2BD7 JUMP JUMPDEST PUSH1 0x40 MLOAD DUP1 SWAP2 SUB SWAP1 REVERT JUMPDEST PUSH0 JUMPDEST PUSH0 DUP1 DUP5 PUSH20 0xFFFFFFFFFFFFFFFFFFFFFFFFFFFFFFFFFFFFFFFF AND PUSH20 0xFFFFFFFFFFFFFFFFFFFFFFFFFFFFFFFFFFFFFFFF AND DUP2 MSTORE PUSH1 0x20 ADD SWAP1 DUP2 MSTORE PUSH1 0x20 ADD PUSH0 KECCAK256 PUSH0 ADD DUP1 SLOAD SWAP1 POP DUP2 LT ISZERO PUSH2 0xCD0 JUMPI PUSH0 DUP1 PUSH0 DUP6 PUSH20 0xFFFFFFFFFFFFFFFFFFFFFFFFFFFFFFFFFFFFFFFF AND PUSH20 0xFFFFFFFFFFFFFFFFFFFFFFFFFFFFFFFFFFFFFFFF AND DUP2 MSTORE PUSH1 0x20 ADD SWAP1 DUP2 MSTORE PUSH1 0x20 ADD PUSH0 KECCAK256 PUSH0 ADD DUP3 DUP2 SLOAD DUP2 LT PUSH2 0xA70 JUMPI PUSH2 0xA6F PUSH2 0x281A JUMP JUMPDEST JUMPDEST SWAP1 PUSH0 MSTORE PUSH1 0x20 PUSH0 KECCAK256 ADD PUSH1 0x40 MLOAD DUP1 PUSH1 0x60 ADD PUSH1 0x40 MSTORE SWAP1 DUP2 PUSH0 DUP3 ADD PUSH0 SWAP1 SLOAD SWAP1 PUSH2 0x100 EXP SWAP1 DIV PUSH20 0xFFFFFFFFFFFFFFFFFFFFFFFFFFFFFFFFFFFFFFFF AND PUSH20 0xFFFFFFFFFFFFFFFFFFFFFFFFFFFFFFFFFFFFFFFF AND PUSH20 0xFFFFFFFFFFFFFFFFFFFFFFFFFFFFFFFFFFFFFFFF AND DUP2 MSTORE PUSH1 0x20 ADD PUSH0 DUP3 ADD PUSH1 0x14 SWAP1 SLOAD SWAP1 PUSH2 0x100 EXP SWAP1 DIV PUSH2 0xFFFF AND PUSH2 0xFFFF AND PUSH2 0xFFFF AND DUP2 MSTORE PUSH1 0x20 ADD PUSH0 DUP3 ADD PUSH1 0x16 SWAP1 SLOAD SWAP1 PUSH2 0x100 EXP SWAP1 DIV PUSH1 0xFF AND ISZERO ISZERO ISZERO ISZERO DUP2 MSTORE POP POP SWAP1 POP DUP3 PUSH20 0xFFFFFFFFFFFFFFFFFFFFFFFFFFFFFFFFFFFFFFFF AND DUP2 PUSH0 ADD MLOAD PUSH20 0xFFFFFFFFFFFFFFFFFFFFFFFFFFFFFFFFFFFFFFFF AND EQ PUSH2 0xB83 JUMPI PUSH1 0x40 MLOAD PUSH32 0x8C379A000000000000000000000000000000000000000000000000000000000 DUP2 MSTORE PUSH1 0x4 ADD PUSH2 0xB7A SWAP1 PUSH2 0x2C65 JUMP JUMPDEST PUSH1 0x40 MLOAD DUP1 SWAP2 SUB SWAP1 REVERT JUMPDEST DUP1 PUSH1 0x40 ADD MLOAD PUSH2 0xBC7 JUMPI PUSH1 0x40 MLOAD PUSH32 0x8C379A000000000000000000000000000000000000000000000000000000000 DUP2 MSTORE PUSH1 0x4 ADD PUSH2 0xBBE SWAP1 PUSH2 0x2CCD JUMP JUMPDEST PUSH1 0x40 MLOAD DUP1 SWAP2 SUB SWAP1 REVERT JUMPDEST PUSH0 DUP2 PUSH0 ADD MLOAD PUSH20 0xFFFFFFFFFFFFFFFFFFFFFFFFFFFFFFFFFFFFFFFF AND PUSH0 DUP1 DUP7 PUSH20 0xFFFFFFFFFFFFFFFFFFFFFFFFFFFFFFFFFFFFFFFF AND PUSH20 0xFFFFFFFFFFFFFFFFFFFFFFFFFFFFFFFFFFFFFFFF AND DUP2 MSTORE PUSH1 0x20 ADD SWAP1 DUP2 MSTORE PUSH1 0x20 ADD PUSH0 KECCAK256 PUSH1 0x2 ADD SLOAD PUSH1 0x40 MLOAD PUSH2 0xC2E SWAP1 PUSH2 0x2A5D JUMP JUMPDEST PUSH0 PUSH1 0x40 MLOAD DUP1 DUP4 SUB DUP2 DUP6 DUP8 GAS CALL SWAP3 POP POP POP RETURNDATASIZE DUP1 PUSH0 DUP2 EQ PUSH2 0xC68 JUMPI PUSH1 0x40 MLOAD SWAP2 POP PUSH1 0x1F NOT PUSH1 0x3F RETURNDATASIZE ADD AND DUP3 ADD PUSH1 0x40 MSTORE RETURNDATASIZE DUP3 MSTORE RETURNDATASIZE PUSH0 PUSH1 0x20 DUP5 ADD RETURNDATACOPY PUSH2 0xC6D JUMP JUMPDEST PUSH1 0x60 SWAP2 POP JUMPDEST POP POP SWAP1 POP DUP1 PUSH2 0xCB1 JUMPI PUSH1 0x40 MLOAD PUSH32 0x8C379A000000000000000000000000000000000000000000000000000000000 DUP2 MSTORE PUSH1 0x4 ADD PUSH2 0xCA8 SWAP1 PUSH2 0x2D35 JUMP JUMPDEST PUSH1 0x40 MLOAD DUP1 SWAP2 SUB SWAP1 REVERT JUMPDEST PUSH0 DUP3 PUSH1 0x40 ADD SWAP1 ISZERO ISZERO SWAP1 DUP2 ISZERO ISZERO DUP2 MSTORE POP POP POP POP DUP1 DUP1 PUSH1 0x1 ADD SWAP2 POP POP PUSH2 0x9D6 JUMP JUMPDEST POP POP POP JUMP JUMPDEST PUSH1 0x1 PUSH1 0x20 MSTORE DUP2 PUSH0 MSTORE PUSH1 0x40 PUSH0 KECCAK256 DUP2 DUP2 SLOAD DUP2 LT PUSH2 0xCEE JUMPI PUSH0 DUP1 REVERT JUMPDEST SWAP1 PUSH0 MSTORE PUSH1 0x20 PUSH0 KECCAK256 ADD PUSH0 SWAP2 POP SWAP2 POP SWAP1 SLOAD SWAP1 PUSH2 0x100 EXP SWAP1 DIV PUSH20 0xFFFFFFFFFFFFFFFFFFFFFFFFFFFFFFFFFFFFFFFF AND DUP2 JUMP JUMPDEST PUSH1 0x1 ISZERO ISZERO PUSH0 DUP1 CALLER PUSH20 0xFFFFFFFFFFFFFFFFFFFFFFFFFFFFFFFFFFFFFFFF AND PUSH20 0xFFFFFFFFFFFFFFFFFFFFFFFFFFFFFFFFFFFFFFFF AND DUP2 MSTORE PUSH1 0x20 ADD SWAP1 DUP2 MSTORE PUSH1 0x20 ADD PUSH0 KECCAK256 PUSH1 0x1 ADD PUSH0 SWAP1 SLOAD SWAP1 PUSH2 0x100 EXP SWAP1 DIV PUSH1 0xFF AND ISZERO ISZERO EQ PUSH2 0xDAF JUMPI PUSH1 0x40 MLOAD PUSH32 0x8C379A000000000000000000000000000000000000000000000000000000000 DUP2 MSTORE PUSH1 0x4 ADD PUSH2 0xDA6 SWAP1 PUSH2 0x28E2 JUMP JUMPDEST PUSH1 0x40 MLOAD DUP1 SWAP2 SUB SWAP1 REVERT JUMPDEST PUSH0 DUP1 CALLER PUSH20 0xFFFFFFFFFFFFFFFFFFFFFFFFFFFFFFFFFFFFFFFF AND PUSH20 0xFFFFFFFFFFFFFFFFFFFFFFFFFFFFFFFFFFFFFFFF AND DUP2 MSTORE PUSH1 0x20 ADD SWAP1 DUP2 MSTORE PUSH1 0x20 ADD PUSH0 KECCAK256 PUSH1 0x2 ADD SLOAD DUP2 GT ISZERO PUSH2 0xE31 JUMPI PUSH1 0x40 MLOAD PUSH32 0x8C379A000000000000000000000000000000000000000000000000000000000 DUP2 MSTORE PUSH1 0x4 ADD PUSH2 0xE28 SWAP1 PUSH2 0x2D9D JUMP JUMPDEST PUSH1 0x40 MLOAD DUP1 SWAP2 SUB SWAP1 REVERT JUMPDEST PUSH0 CALLER PUSH20 0xFFFFFFFFFFFFFFFFFFFFFFFFFFFFFFFFFFFFFFFF AND DUP3 PUSH1 0x40 MLOAD PUSH2 0xE56 SWAP1 PUSH2 0x2A5D JUMP JUMPDEST PUSH0 PUSH1 0x40 MLOAD DUP1 DUP4 SUB DUP2 DUP6 DUP8 GAS CALL SWAP3 POP POP POP RETURNDATASIZE DUP1 PUSH0 DUP2 EQ PUSH2 0xE90 JUMPI PUSH1 0x40 MLOAD SWAP2 POP PUSH1 0x1F NOT PUSH1 0x3F RETURNDATASIZE ADD AND DUP3 ADD PUSH1 0x40 MSTORE RETURNDATASIZE DUP3 MSTORE RETURNDATASIZE PUSH0 PUSH1 0x20 DUP5 ADD RETURNDATACOPY PUSH2 0xE95 JUMP JUMPDEST PUSH1 0x60 SWAP2 POP JUMPDEST POP POP SWAP1 POP DUP1 PUSH2 0xED9 JUMPI PUSH1 0x40 MLOAD PUSH32 0x8C379A000000000000000000000000000000000000000000000000000000000 DUP2 MSTORE PUSH1 0x4 ADD PUSH2 0xED0 SWAP1 PUSH2 0x2E05 JUMP JUMPDEST PUSH1 0x40 MLOAD DUP1 SWAP2 SUB SWAP1 REVERT JUMPDEST DUP2 PUSH0 DUP1 CALLER PUSH20 0xFFFFFFFFFFFFFFFFFFFFFFFFFFFFFFFFFFFFFFFF AND PUSH20 0xFFFFFFFFFFFFFFFFFFFFFFFFFFFFFFFFFFFFFFFF AND DUP2 MSTORE PUSH1 0x20 ADD SWAP1 DUP2 MSTORE PUSH1 0x20 ADD PUSH0 KECCAK256 PUSH1 0x2 ADD PUSH0 DUP3 DUP3 SLOAD PUSH2 0xF27 SWAP2 SWAP1 PUSH2 0x2E23 JUMP JUMPDEST SWAP3 POP POP DUP2 SWAP1 SSTORE POP POP POP JUMP JUMPDEST PUSH0 DUP1 PUSH1 0x1 SWAP1 POP DUP1 PUSH0 DUP1 DUP6 PUSH20 0xFFFFFFFFFFFFFFFFFFFFFFFFFFFFFFFFFFFFFFFF AND PUSH20 0xFFFFFFFFFFFFFFFFFFFFFFFFFFFFFFFFFFFFFFFF AND DUP2 MSTORE PUSH1 0x20 ADD SWAP1 DUP2 MSTORE PUSH1 0x20 ADD PUSH0 KECCAK256 PUSH1 0x1 ADD PUSH1 0x1 SWAP1 SLOAD SWAP1 PUSH2 0x100 EXP SWAP1 DIV PUSH16 0xFFFFFFFFFFFFFFFFFFFFFFFFFFFFFFFF AND PUSH16 0xFFFFFFFFFFFFFFFFFFFFFFFFFFFFFFFF AND PUSH2 0xFB1 SWAP2 SWAP1 PUSH2 0x2995 JUMP JUMPDEST TIMESTAMP LT ISZERO SWAP2 POP POP SWAP2 SWAP1 POP JUMP JUMPDEST PUSH0 PUSH1 0x20 MSTORE DUP1 PUSH0 MSTORE PUSH1 0x40 PUSH0 KECCAK256 PUSH0 SWAP2 POP SWAP1 POP DUP1 PUSH1 0x1 ADD PUSH0 SWAP1 SLOAD SWAP1 PUSH2 0x100 EXP SWAP1 DIV PUSH1 0xFF AND SWAP1 DUP1 PUSH1 0x1 ADD PUSH1 0x1 SWAP1 SLOAD SWAP1 PUSH2 0x100 EXP SWAP1 DIV PUSH16 0xFFFFFFFFFFFFFFFFFFFFFFFFFFFFFFFF AND SWAP1 DUP1 PUSH1 0x2 ADD SLOAD SWAP1 POP DUP4 JUMP JUMPDEST PUSH1 0x60 DUP1 PUSH1 0x60 PUSH0 DUP1 PUSH0 DUP1 PUSH0 DUP9 PUSH20 0xFFFFFFFFFFFFFFFFFFFFFFFFFFFFFFFFFFFFFFFF AND PUSH20 0xFFFFFFFFFFFFFFFFFFFFFFFFFFFFFFFFFFFFFFFF AND DUP2 MSTORE PUSH1 0x20 ADD SWAP1 DUP2 MSTORE PUSH1 0x20 ADD PUSH0 KECCAK256 PUSH1 0x40 MLOAD DUP1 PUSH1 0x80 ADD PUSH1 0x40 MSTORE SWAP1 DUP2 PUSH0 DUP3 ADD DUP1 SLOAD DUP1 PUSH1 0x20 MUL PUSH1 0x20 ADD PUSH1 0x40 MLOAD SWAP1 DUP2 ADD PUSH1 0x40 MSTORE DUP1 SWAP3 SWAP2 SWAP1 DUP2 DUP2 MSTORE PUSH1 0x20 ADD PUSH0 SWAP1 JUMPDEST DUP3 DUP3 LT ISZERO PUSH2 0x1135 JUMPI DUP4 DUP3 SWAP1 PUSH0 MSTORE PUSH1 0x20 PUSH0 KECCAK256 ADD PUSH1 0x40 MLOAD DUP1 PUSH1 0x60 ADD PUSH1 0x40 MSTORE SWAP1 DUP2 PUSH0 DUP3 ADD PUSH0 SWAP1 SLOAD SWAP1 PUSH2 0x100 EXP SWAP1 DIV PUSH20 0xFFFFFFFFFFFFFFFFFFFFFFFFFFFFFFFFFFFFFFFF AND PUSH20 0xFFFFFFFFFFFFFFFFFFFFFFFFFFFFFFFFFFFFFFFF AND PUSH20 0xFFFFFFFFFFFFFFFFFFFFFFFFFFFFFFFFFFFFFFFF AND DUP2 MSTORE PUSH1 0x20 ADD PUSH0 DUP3 ADD PUSH1 0x14 SWAP1 SLOAD SWAP1 PUSH2 0x100 EXP SWAP1 DIV PUSH2 0xFFFF AND PUSH2 0xFFFF AND PUSH2 0xFFFF AND DUP2 MSTORE PUSH1 0x20 ADD PUSH0 DUP3 ADD PUSH1 0x16 SWAP1 SLOAD SWAP1 PUSH2 0x100 EXP SWAP1 DIV PUSH1 0xFF AND ISZERO ISZERO ISZERO ISZERO DUP2 MSTORE POP POP DUP2 MSTORE PUSH1 0x20 ADD SWAP1 PUSH1 0x1 ADD SWAP1 PUSH2 0x107C JUMP JUMPDEST POP POP POP POP DUP2 MSTORE PUSH1 0x20 ADD PUSH1 0x1 DUP3 ADD PUSH0 SWAP1 SLOAD SWAP1 PUSH2 0x100 EXP SWAP1 DIV PUSH1 0xFF AND ISZERO ISZERO ISZERO ISZERO DUP2 MSTORE PUSH1 0x20 ADD PUSH1 0x1 DUP3 ADD PUSH1 0x1 SWAP1 SLOAD SWAP1 PUSH2 0x100 EXP SWAP1 DIV PUSH16 0xFFFFFFFFFFFFFFFFFFFFFFFFFFFFFFFF AND PUSH16 0xFFFFFFFFFFFFFFFFFFFFFFFFFFFFFFFF AND PUSH16 0xFFFFFFFFFFFFFFFFFFFFFFFFFFFFFFFF AND DUP2 MSTORE PUSH1 0x20 ADD PUSH1 0x2 DUP3 ADD SLOAD DUP2 MSTORE POP POP SWAP1 POP DUP1 PUSH1 0x20 ADD MLOAD PUSH2 0x11F1 JUMPI PUSH1 0x40 MLOAD PUSH32 0x8C379A000000000000000000000000000000000000000000000000000000000 DUP2 MSTORE PUSH1 0x4 ADD PUSH2 0x11E8 SWAP1 PUSH2 0x2EA0 JUMP JUMPDEST PUSH1 0x40 MLOAD DUP1 SWAP2 SUB SWAP1 REVERT JUMPDEST PUSH0 DUP2 PUSH0 ADD MLOAD MLOAD PUSH8 0xFFFFFFFFFFFFFFFF DUP2 GT ISZERO PUSH2 0x1210 JUMPI PUSH2 0x120F PUSH2 0x2430 JUMP JUMPDEST JUMPDEST PUSH1 0x40 MLOAD SWAP1 DUP1 DUP3 MSTORE DUP1 PUSH1 0x20 MUL PUSH1 0x20 ADD DUP3 ADD PUSH1 0x40 MSTORE DUP1 ISZERO PUSH2 0x123E JUMPI DUP2 PUSH1 0x20 ADD PUSH1 0x20 DUP3 MUL DUP1 CALLDATASIZE DUP4 CALLDATACOPY DUP1 DUP3 ADD SWAP2 POP POP SWAP1 POP JUMPDEST POP SWAP1 POP PUSH0 DUP3 PUSH0 ADD MLOAD MLOAD PUSH8 0xFFFFFFFFFFFFFFFF DUP2 GT ISZERO PUSH2 0x1260 JUMPI PUSH2 0x125F PUSH2 0x2430 JUMP JUMPDEST JUMPDEST PUSH1 0x40 MLOAD SWAP1 DUP1 DUP3 MSTORE DUP1 PUSH1 0x20 MUL PUSH1 0x20 ADD DUP3 ADD PUSH1 0x40 MSTORE DUP1 ISZERO PUSH2 0x128E JUMPI DUP2 PUSH1 0x20 ADD PUSH1 0x20 DUP3 MUL DUP1 CALLDATASIZE DUP4 CALLDATACOPY DUP1 DUP3 ADD SWAP2 POP POP SWAP1 POP JUMPDEST POP SWAP1 POP PUSH0 DUP4 PUSH0 ADD MLOAD MLOAD PUSH8 0xFFFFFFFFFFFFFFFF DUP2 GT ISZERO PUSH2 0x12B0 JUMPI PUSH2 0x12AF PUSH2 0x2430 JUMP JUMPDEST JUMPDEST PUSH1 0x40 MLOAD SWAP1 DUP1 DUP3 MSTORE DUP1 PUSH1 0x20 MUL PUSH1 0x20 ADD DUP3 ADD PUSH1 0x40 MSTORE DUP1 ISZERO PUSH2 0x12DE JUMPI DUP2 PUSH1 0x20 ADD PUSH1 0x20 DUP3 MUL DUP1 CALLDATASIZE DUP4 CALLDATACOPY DUP1 DUP3 ADD SWAP2 POP POP SWAP1 POP JUMPDEST POP SWAP1 POP PUSH0 JUMPDEST DUP5 PUSH0 ADD MLOAD MLOAD DUP2 PUSH8 0xFFFFFFFFFFFFFFFF AND LT ISZERO PUSH2 0x13FF JUMPI PUSH0 DUP6 PUSH0 ADD MLOAD DUP3 PUSH8 0xFFFFFFFFFFFFFFFF AND DUP2 MLOAD DUP2 LT PUSH2 0x131A JUMPI PUSH2 0x1319 PUSH2 0x281A JUMP JUMPDEST JUMPDEST PUSH1 0x20 MUL PUSH1 0x20 ADD ADD MLOAD SWAP1 POP DUP1 PUSH0 ADD MLOAD DUP6 DUP4 PUSH8 0xFFFFFFFFFFFFFFFF AND DUP2 MLOAD DUP2 LT PUSH2 0x1345 JUMPI PUSH2 0x1344 PUSH2 0x281A JUMP JUMPDEST JUMPDEST PUSH1 0x20 MUL PUSH1 0x20 ADD ADD SWAP1 PUSH20 0xFFFFFFFFFFFFFFFFFFFFFFFFFFFFFFFFFFFFFFFF AND SWAP1 DUP2 PUSH20 0xFFFFFFFFFFFFFFFFFFFFFFFFFFFFFFFFFFFFFFFF AND DUP2 MSTORE POP POP DUP1 PUSH1 0x20 ADD MLOAD DUP5 DUP4 PUSH8 0xFFFFFFFFFFFFFFFF AND DUP2 MLOAD DUP2 LT PUSH2 0x13A1 JUMPI PUSH2 0x13A0 PUSH2 0x281A JUMP JUMPDEST JUMPDEST PUSH1 0x20 MUL PUSH1 0x20 ADD ADD SWAP1 PUSH2 0xFFFF AND SWAP1 DUP2 PUSH2 0xFFFF AND DUP2 MSTORE POP POP DUP1 PUSH1 0x40 ADD MLOAD DUP4 DUP4 PUSH8 0xFFFFFFFFFFFFFFFF AND DUP2 MLOAD DUP2 LT PUSH2 0x13D9 JUMPI PUSH2 0x13D8 PUSH2 0x281A JUMP JUMPDEST JUMPDEST PUSH1 0x20 MUL PUSH1 0x20 ADD ADD SWAP1 ISZERO ISZERO SWAP1 DUP2 ISZERO ISZERO DUP2 MSTORE POP POP POP DUP1 DUP1 PUSH2 0x13F7 SWAP1 PUSH2 0x2ED1 JUMP JUMPDEST SWAP2 POP POP PUSH2 0x12E3 JUMP JUMPDEST POP DUP3 DUP3 DUP3 DUP7 PUSH1 0x40 ADD MLOAD DUP8 PUSH1 0x60 ADD MLOAD SWAP9 POP SWAP9 POP SWAP9 POP SWAP9 POP SWAP9 POP POP POP POP POP SWAP2 SWAP4 SWAP6 SWAP1 SWAP3 SWAP5 POP JUMP JUMPDEST PUSH0 CALLER SWAP1 POP PUSH0 DUP1 DUP3 PUSH20 0xFFFFFFFFFFFFFFFFFFFFFFFFFFFFFFFFFFFFFFFF AND PUSH20 0xFFFFFFFFFFFFFFFFFFFFFFFFFFFFFFFFFFFFFFFF AND DUP2 MSTORE PUSH1 0x20 ADD SWAP1 DUP2 MSTORE PUSH1 0x20 ADD PUSH0 KECCAK256 PUSH1 0x1 ADD PUSH0 SWAP1 SLOAD SWAP1 PUSH2 0x100 EXP SWAP1 DIV PUSH1 0xFF AND PUSH2 0x14B3 JUMPI PUSH1 0x40 MLOAD PUSH32 0x8C379A000000000000000000000000000000000000000000000000000000000 DUP2 MSTORE PUSH1 0x4 ADD PUSH2 0x14AA SWAP1 PUSH2 0x2F70 JUMP JUMPDEST PUSH1 0x40 MLOAD DUP1 SWAP2 SUB SWAP1 REVERT JUMPDEST TIMESTAMP PUSH0 DUP1 DUP4 PUSH20 0xFFFFFFFFFFFFFFFFFFFFFFFFFFFFFFFFFFFFFFFF AND PUSH20 0xFFFFFFFFFFFFFFFFFFFFFFFFFFFFFFFFFFFFFFFF AND DUP2 MSTORE PUSH1 0x20 ADD SWAP1 DUP2 MSTORE PUSH1 0x20 ADD PUSH0 KECCAK256 PUSH1 0x1 ADD PUSH1 0x1 PUSH2 0x100 EXP DUP2 SLOAD DUP2 PUSH16 0xFFFFFFFFFFFFFFFFFFFFFFFFFFFFFFFF MUL NOT AND SWAP1 DUP4 PUSH16 0xFFFFFFFFFFFFFFFFFFFFFFFFFFFFFFFF AND MUL OR SWAP1 SSTORE POP POP JUMP JUMPDEST PUSH1 0x60 PUSH0 CALLER SWAP1 POP PUSH1 0x1 PUSH0 DUP3 PUSH20 0xFFFFFFFFFFFFFFFFFFFFFFFFFFFFFFFFFFFFFFFF AND PUSH20 0xFFFFFFFFFFFFFFFFFFFFFFFFFFFFFFFFFFFFFFFF AND DUP2 MSTORE PUSH1 0x20 ADD SWAP1 DUP2 MSTORE PUSH1 0x20 ADD PUSH0 KECCAK256 DUP1 SLOAD DUP1 PUSH1 0x20 MUL PUSH1 0x20 ADD PUSH1 0x40 MLOAD SWAP1 DUP2 ADD PUSH1 0x40 MSTORE DUP1 SWAP3 SWAP2 SWAP1 DUP2 DUP2 MSTORE PUSH1 0x20 ADD DUP3 DUP1 SLOAD DUP1 ISZERO PUSH2 0x15EC JUMPI PUSH1 0x20 MUL DUP3 ADD SWAP2 SWAP1 PUSH0 MSTORE PUSH1 0x20 PUSH0 KECCAK256 SWAP1 JUMPDEST DUP2 PUSH0 SWAP1 SLOAD SWAP1 PUSH2 0x100 EXP SWAP1 DIV PUSH20 0xFFFFFFFFFFFFFFFFFFFFFFFFFFFFFFFFFFFFFFFF AND PUSH20 0xFFFFFFFFFFFFFFFFFFFFFFFFFFFFFFFFFFFFFFFF AND DUP2 MSTORE PUSH1 0x20 ADD SWAP1 PUSH1 0x1 ADD SWAP1 DUP1 DUP4 GT PUSH2 0x15A3 JUMPI JUMPDEST POP POP POP POP POP SWAP2 POP POP SWAP1 JUMP JUMPDEST PUSH0 CALLVALUE SUB PUSH2 0x1639 JUMPI PUSH1 0x40 MLOAD PUSH32 0x8C379A000000000000000000000000000000000000000000000000000000000 DUP2 MSTORE PUSH1 0x4 ADD PUSH2 0x1630 SWAP1 PUSH2 0x2FFE JUMP JUMPDEST PUSH1 0x40 MLOAD DUP1 SWAP2 SUB SWAP1 REVERT JUMPDEST PUSH0 DUP3 MLOAD SUB PUSH2 0x167C JUMPI PUSH1 0x40 MLOAD PUSH32 0x8C379A000000000000000000000000000000000000000000000000000000000 DUP2 MSTORE PUSH1 0x4 ADD PUSH2 0x1673 SWAP1 PUSH2 0x2748 JUMP JUMPDEST PUSH1 0x40 MLOAD DUP1 SWAP2 SUB SWAP1 REVERT JUMPDEST DUP1 MLOAD DUP3 MLOAD EQ PUSH2 0x16C0 JUMPI PUSH1 0x40 MLOAD PUSH32 0x8C379A000000000000000000000000000000000000000000000000000000000 DUP2 MSTORE PUSH1 0x4 ADD PUSH2 0x16B7 SWAP1 PUSH2 0x27FC JUMP JUMPDEST PUSH1 0x40 MLOAD DUP1 SWAP2 SUB SWAP1 REVERT JUMPDEST PUSH0 CALLER SWAP1 POP PUSH0 DUP1 DUP3 PUSH20 0xFFFFFFFFFFFFFFFFFFFFFFFFFFFFFFFFFFFFFFFF AND PUSH20 0xFFFFFFFFFFFFFFFFFFFFFFFFFFFFFFFFFFFFFFFF AND DUP2 MSTORE PUSH1 0x20 ADD SWAP1 DUP2 MSTORE PUSH1 0x20 ADD PUSH0 KECCAK256 PUSH1 0x1 ADD PUSH0 SWAP1 SLOAD SWAP1 PUSH2 0x100 EXP SWAP1 DIV PUSH1 0xFF AND ISZERO PUSH2 0x1750 JUMPI PUSH1 0x40 MLOAD PUSH32 0x8C379A000000000000000000000000000000000000000000000000000000000 DUP2 MSTORE PUSH1 0x4 ADD PUSH2 0x1747 SWAP1 PUSH2 0x308C JUMP JUMPDEST PUSH1 0x40 MLOAD DUP1 SWAP2 SUB SWAP1 REVERT JUMPDEST PUSH0 JUMPDEST DUP4 MLOAD DUP2 LT ISZERO PUSH2 0x1975 JUMPI PUSH0 PUSH1 0x40 MLOAD DUP1 PUSH1 0x60 ADD PUSH1 0x40 MSTORE DUP1 DUP7 DUP5 DUP2 MLOAD DUP2 LT PUSH2 0x177A JUMPI PUSH2 0x1779 PUSH2 0x281A JUMP JUMPDEST JUMPDEST PUSH1 0x20 MUL PUSH1 0x20 ADD ADD MLOAD PUSH20 0xFFFFFFFFFFFFFFFFFFFFFFFFFFFFFFFFFFFFFFFF AND DUP2 MSTORE PUSH1 0x20 ADD DUP6 DUP5 DUP2 MLOAD DUP2 LT PUSH2 0x17B0 JUMPI PUSH2 0x17AF PUSH2 0x281A JUMP JUMPDEST JUMPDEST PUSH1 0x20 MUL PUSH1 0x20 ADD ADD MLOAD PUSH2 0xFFFF AND DUP2 MSTORE PUSH1 0x20 ADD PUSH1 0x1 ISZERO ISZERO DUP2 MSTORE POP SWAP1 POP PUSH1 0x1 PUSH0 DUP7 DUP5 DUP2 MLOAD DUP2 LT PUSH2 0x17E0 JUMPI PUSH2 0x17DF PUSH2 0x281A JUMP JUMPDEST JUMPDEST PUSH1 0x20 MUL PUSH1 0x20 ADD ADD MLOAD PUSH20 0xFFFFFFFFFFFFFFFFFFFFFFFFFFFFFFFFFFFFFFFF AND PUSH20 0xFFFFFFFFFFFFFFFFFFFFFFFFFFFFFFFFFFFFFFFF AND DUP2 MSTORE PUSH1 0x20 ADD SWAP1 DUP2 MSTORE PUSH1 0x20 ADD PUSH0 KECCAK256 DUP4 SWAP1 DUP1 PUSH1 0x1 DUP2 SLOAD ADD DUP1 DUP3 SSTORE DUP1 SWAP2 POP POP PUSH1 0x1 SWAP1 SUB SWAP1 PUSH0 MSTORE PUSH1 0x20 PUSH0 KECCAK256 ADD PUSH0 SWAP1 SWAP2 SWAP1 SWAP2 SWAP1 SWAP2 PUSH2 0x100 EXP DUP2 SLOAD DUP2 PUSH20 0xFFFFFFFFFFFFFFFFFFFFFFFFFFFFFFFFFFFFFFFF MUL NOT AND SWAP1 DUP4 PUSH20 0xFFFFFFFFFFFFFFFFFFFFFFFFFFFFFFFFFFFFFFFF AND MUL OR SWAP1 SSTORE POP PUSH0 DUP1 DUP5 PUSH20 0xFFFFFFFFFFFFFFFFFFFFFFFFFFFFFFFFFFFFFFFF AND PUSH20 0xFFFFFFFFFFFFFFFFFFFFFFFFFFFFFFFFFFFFFFFF AND DUP2 MSTORE PUSH1 0x20 ADD SWAP1 DUP2 MSTORE PUSH1 0x20 ADD PUSH0 KECCAK256 PUSH0 ADD DUP2 SWAP1 DUP1 PUSH1 0x1 DUP2 SLOAD ADD DUP1 DUP3 SSTORE DUP1 SWAP2 POP POP PUSH1 0x1 SWAP1 SUB SWAP1 PUSH0 MSTORE PUSH1 0x20 PUSH0 KECCAK256 ADD PUSH0 SWAP1 SWAP2 SWAP1 SWAP2 SWAP1 SWAP2 POP PUSH0 DUP3 ADD MLOAD DUP2 PUSH0 ADD PUSH0 PUSH2 0x100 EXP DUP2 SLOAD DUP2 PUSH20 0xFFFFFFFFFFFFFFFFFFFFFFFFFFFFFFFFFFFFFFFF MUL NOT AND SWAP1 DUP4 PUSH20 0xFFFFFFFFFFFFFFFFFFFFFFFFFFFFFFFFFFFFFFFF AND MUL OR SWAP1 SSTORE POP PUSH1 0x20 DUP3 ADD MLOAD DUP2 PUSH0 ADD PUSH1 0x14 PUSH2 0x100 EXP DUP2 SLOAD DUP2 PUSH2 0xFFFF MUL NOT AND SWAP1 DUP4 PUSH2 0xFFFF AND MUL OR SWAP1 SSTORE POP PUSH1 0x40 DUP3 ADD MLOAD DUP2 PUSH0 ADD PUSH1 0x16 PUSH2 0x100 EXP DUP2 SLOAD DUP2 PUSH1 0xFF MUL NOT AND SWAP1 DUP4 ISZERO ISZERO MUL OR SWAP1 SSTORE POP POP POP POP DUP1 DUP1 PUSH1 0x1 ADD SWAP2 POP POP PUSH2 0x1752 JUMP JUMPDEST POP PUSH1 0x1 PUSH0 DUP1 DUP4 PUSH20 0xFFFFFFFFFFFFFFFFFFFFFFFFFFFFFFFFFFFFFFFF AND PUSH20 0xFFFFFFFFFFFFFFFFFFFFFFFFFFFFFFFFFFFFFFFF AND DUP2 MSTORE PUSH1 0x20 ADD SWAP1 DUP2 MSTORE PUSH1 0x20 ADD PUSH0 KECCAK256 PUSH1 0x1 ADD PUSH0 PUSH2 0x100 EXP DUP2 SLOAD DUP2 PUSH1 0xFF MUL NOT AND SWAP1 DUP4 ISZERO ISZERO MUL OR SWAP1 SSTORE POP CALLVALUE PUSH0 DUP1 DUP4 PUSH20 0xFFFFFFFFFFFFFFFFFFFFFFFFFFFFFFFFFFFFFFFF AND PUSH20 0xFFFFFFFFFFFFFFFFFFFFFFFFFFFFFFFFFFFFFFFF AND DUP2 MSTORE PUSH1 0x20 ADD SWAP1 DUP2 MSTORE PUSH1 0x20 ADD PUSH0 KECCAK256 PUSH1 0x2 ADD DUP2 SWAP1 SSTORE POP PUSH2 0x1A19 PUSH2 0x1424 JUMP JUMPDEST POP POP POP JUMP JUMPDEST PUSH0 DUP1 PUSH0 DUP4 PUSH20 0xFFFFFFFFFFFFFFFFFFFFFFFFFFFFFFFFFFFFFFFF AND PUSH20 0xFFFFFFFFFFFFFFFFFFFFFFFFFFFFFFFFFFFFFFFF AND DUP2 MSTORE PUSH1 0x20 ADD SWAP1 DUP2 MSTORE PUSH1 0x20 ADD PUSH0 KECCAK256 PUSH0 ADD DUP1 SLOAD DUP1 PUSH1 0x20 MUL PUSH1 0x20 ADD PUSH1 0x40 MLOAD SWAP1 DUP2 ADD PUSH1 0x40 MSTORE DUP1 SWAP3 SWAP2 SWAP1 DUP2 DUP2 MSTORE PUSH1 0x20 ADD PUSH0 SWAP1 JUMPDEST DUP3 DUP3 LT ISZERO PUSH2 0x1B35 JUMPI DUP4 DUP3 SWAP1 PUSH0 MSTORE PUSH1 0x20 PUSH0 KECCAK256 ADD PUSH1 0x40 MLOAD DUP1 PUSH1 0x60 ADD PUSH1 0x40 MSTORE SWAP1 DUP2 PUSH0 DUP3 ADD PUSH0 SWAP1 SLOAD SWAP1 PUSH2 0x100 EXP SWAP1 DIV PUSH20 0xFFFFFFFFFFFFFFFFFFFFFFFFFFFFFFFFFFFFFFFF AND PUSH20 0xFFFFFFFFFFFFFFFFFFFFFFFFFFFFFFFFFFFFFFFF AND PUSH20 0xFFFFFFFFFFFFFFFFFFFFFFFFFFFFFFFFFFFFFFFF AND DUP2 MSTORE PUSH1 0x20 ADD PUSH0 DUP3 ADD PUSH1 0x14 SWAP1 SLOAD SWAP1 PUSH2 0x100 EXP SWAP1 DIV PUSH2 0xFFFF AND PUSH2 0xFFFF AND PUSH2 0xFFFF AND DUP2 MSTORE PUSH1 0x20 ADD PUSH0 DUP3 ADD PUSH1 0x16 SWAP1 SLOAD SWAP1 PUSH2 0x100 EXP SWAP1 DIV PUSH1 0xFF AND ISZERO ISZERO ISZERO ISZERO DUP2 MSTORE POP POP DUP2 MSTORE PUSH1 0x20 ADD SWAP1 PUSH1 0x1 ADD SWAP1 PUSH2 0x1A7C JUMP JUMPDEST POP POP POP POP SWAP1 POP PUSH0 JUMPDEST DUP2 MLOAD DUP2 LT ISZERO PUSH2 0x1DB3 JUMPI PUSH0 PUSH1 0x1 PUSH0 DUP5 DUP5 DUP2 MLOAD DUP2 LT PUSH2 0x1B5D JUMPI PUSH2 0x1B5C PUSH2 0x281A JUMP JUMPDEST JUMPDEST PUSH1 0x20 MUL PUSH1 0x20 ADD ADD MLOAD PUSH0 ADD MLOAD PUSH20 0xFFFFFFFFFFFFFFFFFFFFFFFFFFFFFFFFFFFFFFFF AND PUSH20 0xFFFFFFFFFFFFFFFFFFFFFFFFFFFFFFFFFFFFFFFF AND DUP2 MSTORE PUSH1 0x20 ADD SWAP1 DUP2 MSTORE PUSH1 0x20 ADD PUSH0 KECCAK256 DUP1 SLOAD DUP1 PUSH1 0x20 MUL PUSH1 0x20 ADD PUSH1 0x40 MLOAD SWAP1 DUP2 ADD PUSH1 0x40 MSTORE DUP1 SWAP3 SWAP2 SWAP1 DUP2 DUP2 MSTORE PUSH1 0x20 ADD DUP3 DUP1 SLOAD DUP1 ISZERO PUSH2 0x1C1E JUMPI PUSH1 0x20 MUL DUP3 ADD SWAP2 SWAP1 PUSH0 MSTORE PUSH1 0x20 PUSH0 KECCAK256 SWAP1 JUMPDEST DUP2 PUSH0 SWAP1 SLOAD SWAP1 PUSH2 0x100 EXP SWAP1 DIV PUSH20 0xFFFFFFFFFFFFFFFFFFFFFFFFFFFFFFFFFFFFFFFF AND PUSH20 0xFFFFFFFFFFFFFFFFFFFFFFFFFFFFFFFFFFFFFFFF AND DUP2 MSTORE PUSH1 0x20 ADD SWAP1 PUSH1 0x1 ADD SWAP1 DUP1 DUP4 GT PUSH2 0x1BD5 JUMPI JUMPDEST POP POP POP POP POP SWAP1 POP PUSH0 DUP2 MLOAD SWAP1 POP PUSH0 JUMPDEST DUP2 DUP2 LT ISZERO PUSH2 0x1DA3 JUMPI DUP6 PUSH20 0xFFFFFFFFFFFFFFFFFFFFFFFFFFFFFFFFFFFFFFFF AND DUP4 DUP3 DUP2 MLOAD DUP2 LT PUSH2 0x1C5E JUMPI PUSH2 0x1C5D PUSH2 0x281A JUMP JUMPDEST JUMPDEST PUSH1 0x20 MUL PUSH1 0x20 ADD ADD MLOAD PUSH20 0xFFFFFFFFFFFFFFFFFFFFFFFFFFFFFFFFFFFFFFFF AND SUB PUSH2 0x1D96 JUMPI DUP3 PUSH1 0x1 DUP4 PUSH2 0x1C8F SWAP2 SWAP1 PUSH2 0x2E23 JUMP JUMPDEST DUP2 MLOAD DUP2 LT PUSH2 0x1CA0 JUMPI PUSH2 0x1C9F PUSH2 0x281A JUMP JUMPDEST JUMPDEST PUSH1 0x20 MUL PUSH1 0x20 ADD ADD MLOAD DUP4 DUP3 DUP2 MLOAD DUP2 LT PUSH2 0x1CBB JUMPI PUSH2 0x1CBA PUSH2 0x281A JUMP JUMPDEST JUMPDEST PUSH1 0x20 MUL PUSH1 0x20 ADD ADD SWAP1 PUSH20 0xFFFFFFFFFFFFFFFFFFFFFFFFFFFFFFFFFFFFFFFF AND SWAP1 DUP2 PUSH20 0xFFFFFFFFFFFFFFFFFFFFFFFFFFFFFFFFFFFFFFFF AND DUP2 MSTORE POP POP PUSH1 0x1 PUSH0 DUP7 DUP7 DUP2 MLOAD DUP2 LT PUSH2 0x1D0B JUMPI PUSH2 0x1D0A PUSH2 0x281A JUMP JUMPDEST JUMPDEST PUSH1 0x20 MUL PUSH1 0x20 ADD ADD MLOAD PUSH0 ADD MLOAD PUSH20 0xFFFFFFFFFFFFFFFFFFFFFFFFFFFFFFFFFFFFFFFF AND PUSH20 0xFFFFFFFFFFFFFFFFFFFFFFFFFFFFFFFFFFFFFFFF AND DUP2 MSTORE PUSH1 0x20 ADD SWAP1 DUP2 MSTORE PUSH1 0x20 ADD PUSH0 KECCAK256 DUP1 SLOAD DUP1 PUSH2 0x1D5F JUMPI PUSH2 0x1D5E PUSH2 0x30AA JUMP JUMPDEST JUMPDEST PUSH1 0x1 SWAP1 SUB DUP2 DUP2 SWAP1 PUSH0 MSTORE PUSH1 0x20 PUSH0 KECCAK256 ADD PUSH0 PUSH2 0x100 EXP DUP2 SLOAD SWAP1 PUSH20 0xFFFFFFFFFFFFFFFFFFFFFFFFFFFFFFFFFFFFFFFF MUL NOT AND SWAP1 SSTORE SWAP1 SSTORE PUSH2 0x1DA3 JUMP JUMPDEST DUP1 DUP1 PUSH1 0x1 ADD SWAP2 POP POP PUSH2 0x1C2C JUMP JUMPDEST POP POP POP DUP1 DUP1 PUSH1 0x1 ADD SWAP2 POP POP PUSH2 0x1B3D JUMP JUMPDEST POP POP POP JUMP JUMPDEST POP DUP1 SLOAD PUSH0 DUP3 SSTORE SWAP1 PUSH0 MSTORE PUSH1 0x20 PUSH0 KECCAK256 SWAP1 DUP2 ADD SWAP1 PUSH2 0x1DD3 SWAP2 SWAP1 PUSH2 0x1DD6 JUMP JUMPDEST POP JUMP JUMPDEST JUMPDEST DUP1 DUP3 GT ISZERO PUSH2 0x1E35 JUMPI PUSH0 DUP1 DUP3 ADD PUSH0 PUSH2 0x100 EXP DUP2 SLOAD SWAP1 PUSH20 0xFFFFFFFFFFFFFFFFFFFFFFFFFFFFFFFFFFFFFFFF MUL NOT AND SWAP1 SSTORE PUSH0 DUP3 ADD PUSH1 0x14 PUSH2 0x100 EXP DUP2 SLOAD SWAP1 PUSH2 0xFFFF MUL NOT AND SWAP1 SSTORE PUSH0 DUP3 ADD PUSH1 0x16 PUSH2 0x100 EXP DUP2 SLOAD SWAP1 PUSH1 0xFF MUL NOT AND SWAP1 SSTORE POP PUSH1 0x1 ADD PUSH2 0x1DD7 JUMP JUMPDEST POP SWAP1 JUMP JUMPDEST PUSH0 PUSH1 0x40 MLOAD SWAP1 POP SWAP1 JUMP JUMPDEST PUSH0 DUP1 REVERT JUMPDEST PUSH0 DUP1 REVERT JUMPDEST PUSH0 DUP1 REVERT JUMPDEST PUSH0 DUP1 REVERT JUMPDEST PUSH0 DUP1 REVERT JUMPDEST PUSH0 DUP1 DUP4 PUSH1 0x1F DUP5 ADD SLT PUSH2 0x1E6B JUMPI PUSH2 0x1E6A PUSH2 0x1E4A JUMP JUMPDEST JUMPDEST DUP3 CALLDATALOAD SWAP1 POP PUSH8 0xFFFFFFFFFFFFFFFF DUP2 GT ISZERO PUSH2 0x1E88 JUMPI PUSH2 0x1E87 PUSH2 0x1E4E JUMP JUMPDEST JUMPDEST PUSH1 0x20 DUP4 ADD SWAP2 POP DUP4 PUSH1 0x20 DUP3 MUL DUP4 ADD GT ISZERO PUSH2 0x1EA4 JUMPI PUSH2 0x1EA3 PUSH2 0x1E52 JUMP JUMPDEST JUMPDEST SWAP3 POP SWAP3 SWAP1 POP JUMP JUMPDEST PUSH0 DUP1 DUP4 PUSH1 0x1F DUP5 ADD SLT PUSH2 0x1EC0 JUMPI PUSH2 0x1EBF PUSH2 0x1E4A JUMP JUMPDEST JUMPDEST DUP3 CALLDATALOAD SWAP1 POP PUSH8 0xFFFFFFFFFFFFFFFF DUP2 GT ISZERO PUSH2 0x1EDD JUMPI PUSH2 0x1EDC PUSH2 0x1E4E JUMP JUMPDEST JUMPDEST PUSH1 0x20 DUP4 ADD SWAP2 POP DUP4 PUSH1 0x20 DUP3 MUL DUP4 ADD GT ISZERO PUSH2 0x1EF9 JUMPI PUSH2 0x1EF8 PUSH2 0x1E52 JUMP JUMPDEST JUMPDEST SWAP3 POP SWAP3 SWAP1 POP JUMP JUMPDEST PUSH0 DUP1 PUSH0 DUP1 PUSH1 0x40 DUP6 DUP8 SUB SLT ISZERO PUSH2 0x1F18 JUMPI PUSH2 0x1F17 PUSH2 0x1E42 JUMP JUMPDEST JUMPDEST PUSH0 DUP6 ADD CALLDATALOAD PUSH8 0xFFFFFFFFFFFFFFFF DUP2 GT ISZERO PUSH2 0x1F35 JUMPI PUSH2 0x1F34 PUSH2 0x1E46 JUMP JUMPDEST JUMPDEST PUSH2 0x1F41 DUP8 DUP3 DUP9 ADD PUSH2 0x1E56 JUMP JUMPDEST SWAP5 POP SWAP5 POP POP PUSH1 0x20 DUP6 ADD CALLDATALOAD PUSH8 0xFFFFFFFFFFFFFFFF DUP2 GT ISZERO PUSH2 0x1F64 JUMPI PUSH2 0x1F63 PUSH2 0x1E46 JUMP JUMPDEST JUMPDEST PUSH2 0x1F70 DUP8 DUP3 DUP9 ADD PUSH2 0x1EAB JUMP JUMPDEST SWAP3 POP SWAP3 POP POP SWAP3 SWAP6 SWAP2 SWAP5 POP SWAP3 POP JUMP JUMPDEST PUSH0 PUSH20 0xFFFFFFFFFFFFFFFFFFFFFFFFFFFFFFFFFFFFFFFF DUP3 AND SWAP1 POP SWAP2 SWAP1 POP JUMP JUMPDEST PUSH0 PUSH2 0x1FA7 DUP3 PUSH2 0x1F7E JUMP JUMPDEST SWAP1 POP SWAP2 SWAP1 POP JUMP JUMPDEST PUSH2 0x1FB7 DUP2 PUSH2 0x1F9D JUMP JUMPDEST DUP2 EQ PUSH2 0x1FC1 JUMPI PUSH0 DUP1 REVERT JUMPDEST POP JUMP JUMPDEST PUSH0 DUP2 CALLDATALOAD SWAP1 POP PUSH2 0x1FD2 DUP2 PUSH2 0x1FAE JUMP JUMPDEST SWAP3 SWAP2 POP POP JUMP JUMPDEST PUSH0 PUSH1 0x20 DUP3 DUP5 SUB SLT ISZERO PUSH2 0x1FED JUMPI PUSH2 0x1FEC PUSH2 0x1E42 JUMP JUMPDEST JUMPDEST PUSH0 PUSH2 0x1FFA DUP5 DUP3 DUP6 ADD PUSH2 0x1FC4 JUMP JUMPDEST SWAP2 POP POP SWAP3 SWAP2 POP POP JUMP JUMPDEST PUSH0 DUP2 SWAP1 POP SWAP2 SWAP1 POP JUMP JUMPDEST PUSH2 0x2015 DUP2 PUSH2 0x2003 JUMP JUMPDEST DUP2 EQ PUSH2 0x201F JUMPI PUSH0 DUP1 REVERT JUMPDEST POP JUMP JUMPDEST PUSH0 DUP2 CALLDATALOAD SWAP1 POP PUSH2 0x2030 DUP2 PUSH2 0x200C JUMP JUMPDEST SWAP3 SWAP2 POP POP JUMP JUMPDEST PUSH0 DUP1 PUSH1 0x40 DUP4 DUP6 SUB SLT ISZERO PUSH2 0x204C JUMPI PUSH2 0x204B PUSH2 0x1E42 JUMP JUMPDEST JUMPDEST PUSH0 PUSH2 0x2059 DUP6 DUP3 DUP7 ADD PUSH2 0x1FC4 JUMP JUMPDEST SWAP3 POP POP PUSH1 0x20 PUSH2 0x206A DUP6 DUP3 DUP7 ADD PUSH2 0x2022 JUMP JUMPDEST SWAP2 POP POP SWAP3 POP SWAP3 SWAP1 POP JUMP JUMPDEST PUSH2 0x207D DUP2 PUSH2 0x1F9D JUMP JUMPDEST DUP3 MSTORE POP POP JUMP JUMPDEST PUSH0 PUSH1 0x20 DUP3 ADD SWAP1 POP PUSH2 0x2096 PUSH0 DUP4 ADD DUP5 PUSH2 0x2074 JUMP JUMPDEST SWAP3 SWAP2 POP POP JUMP JUMPDEST PUSH0 PUSH1 0x20 DUP3 DUP5 SUB SLT ISZERO PUSH2 0x20B1 JUMPI PUSH2 0x20B0 PUSH2 0x1E42 JUMP JUMPDEST JUMPDEST PUSH0 PUSH2 0x20BE DUP5 DUP3 DUP6 ADD PUSH2 0x2022 JUMP JUMPDEST SWAP2 POP POP SWAP3 SWAP2 POP POP JUMP JUMPDEST PUSH0 DUP2 ISZERO ISZERO SWAP1 POP SWAP2 SWAP1 POP JUMP JUMPDEST PUSH2 0x20DB DUP2 PUSH2 0x20C7 JUMP JUMPDEST DUP3 MSTORE POP POP JUMP JUMPDEST PUSH0 PUSH1 0x20 DUP3 ADD SWAP1 POP PUSH2 0x20F4 PUSH0 DUP4 ADD DUP5 PUSH2 0x20D2 JUMP JUMPDEST SWAP3 SWAP2 POP POP JUMP JUMPDEST PUSH0 PUSH16 0xFFFFFFFFFFFFFFFFFFFFFFFFFFFFFFFF DUP3 AND SWAP1 POP SWAP2 SWAP1 POP JUMP JUMPDEST PUSH2 0x211E DUP2 PUSH2 0x20FA JUMP JUMPDEST DUP3 MSTORE POP POP JUMP JUMPDEST PUSH2 0x212D DUP2 PUSH2 0x2003 JUMP JUMPDEST DUP3 MSTORE POP POP JUMP JUMPDEST PUSH0 PUSH1 0x60 DUP3 ADD SWAP1 POP PUSH2 0x2146 PUSH0 DUP4 ADD DUP7 PUSH2 0x20D2 JUMP JUMPDEST PUSH2 0x2153 PUSH1 0x20 DUP4 ADD DUP6 PUSH2 0x2115 JUMP JUMPDEST PUSH2 0x2160 PUSH1 0x40 DUP4 ADD DUP5 PUSH2 0x2124 JUMP JUMPDEST SWAP5 SWAP4 POP POP POP POP JUMP JUMPDEST PUSH0 DUP2 MLOAD SWAP1 POP SWAP2 SWAP1 POP JUMP JUMPDEST PUSH0 DUP3 DUP3 MSTORE PUSH1 0x20 DUP3 ADD SWAP1 POP SWAP3 SWAP2 POP POP JUMP JUMPDEST PUSH0 DUP2 SWAP1 POP PUSH1 0x20 DUP3 ADD SWAP1 POP SWAP2 SWAP1 POP JUMP JUMPDEST PUSH2 0x219A DUP2 PUSH2 0x1F9D JUMP JUMPDEST DUP3 MSTORE POP POP JUMP JUMPDEST PUSH0 PUSH2 0x21AB DUP4 DUP4 PUSH2 0x2191 JUMP JUMPDEST PUSH1 0x20 DUP4 ADD SWAP1 POP SWAP3 SWAP2 POP POP JUMP JUMPDEST PUSH0 PUSH1 0x20 DUP3 ADD SWAP1 POP SWAP2 SWAP1 POP JUMP JUMPDEST PUSH0 PUSH2 0x21CD DUP3 PUSH2 0x2168 JUMP JUMPDEST PUSH2 0x21D7 DUP2 DUP6 PUSH2 0x2172 JUMP JUMPDEST SWAP4 POP PUSH2 0x21E2 DUP4 PUSH2 0x2182 JUMP JUMPDEST DUP1 PUSH0 JUMPDEST DUP4 DUP2 LT ISZERO PUSH2 0x2212 JUMPI DUP2 MLOAD PUSH2 0x21F9 DUP9 DUP3 PUSH2 0x21A0 JUMP JUMPDEST SWAP8 POP PUSH2 0x2204 DUP4 PUSH2 0x21B7 JUMP JUMPDEST SWAP3 POP POP PUSH1 0x1 DUP2 ADD SWAP1 POP PUSH2 0x21E5 JUMP JUMPDEST POP DUP6 SWAP4 POP POP POP POP SWAP3 SWAP2 POP POP JUMP JUMPDEST PUSH0 DUP2 MLOAD SWAP1 POP SWAP2 SWAP1 POP JUMP JUMPDEST PUSH0 DUP3 DUP3 MSTORE PUSH1 0x20 DUP3 ADD SWAP1 POP SWAP3 SWAP2 POP POP JUMP JUMPDEST PUSH0 DUP2 SWAP1 POP PUSH1 0x20 DUP3 ADD SWAP1 POP SWAP2 SWAP1 POP JUMP JUMPDEST PUSH0 PUSH2 0xFFFF DUP3 AND SWAP1 POP SWAP2 SWAP1 POP JUMP JUMPDEST PUSH2 0x225E DUP2 PUSH2 0x2248 JUMP JUMPDEST DUP3 MSTORE POP POP JUMP JUMPDEST PUSH0 PUSH2 0x226F DUP4 DUP4 PUSH2 0x2255 JUMP JUMPDEST PUSH1 0x20 DUP4 ADD SWAP1 POP SWAP3 SWAP2 POP POP JUMP JUMPDEST PUSH0 PUSH1 0x20 DUP3 ADD SWAP1 POP SWAP2 SWAP1 POP JUMP JUMPDEST PUSH0 PUSH2 0x2291 DUP3 PUSH2 0x221F JUMP JUMPDEST PUSH2 0x229B DUP2 DUP6 PUSH2 0x2229 JUMP JUMPDEST SWAP4 POP PUSH2 0x22A6 DUP4 PUSH2 0x2239 JUMP JUMPDEST DUP1 PUSH0 JUMPDEST DUP4 DUP2 LT ISZERO PUSH2 0x22D6 JUMPI DUP2 MLOAD PUSH2 0x22BD DUP9 DUP3 PUSH2 0x2264 JUMP JUMPDEST SWAP8 POP PUSH2 0x22C8 DUP4 PUSH2 0x227B JUMP JUMPDEST SWAP3 POP POP PUSH1 0x1 DUP2 ADD SWAP1 POP PUSH2 0x22A9 JUMP JUMPDEST POP DUP6 SWAP4 POP POP POP POP SWAP3 SWAP2 POP POP JUMP JUMPDEST PUSH0 DUP2 MLOAD SWAP1 POP SWAP2 SWAP1 POP JUMP JUMPDEST PUSH0 DUP3 DUP3 MSTORE PUSH1 0x20 DUP3 ADD SWAP1 POP SWAP3 SWAP2 POP POP JUMP JUMPDEST PUSH0 DUP2 SWAP1 POP PUSH1 0x20 DUP3 ADD SWAP1 POP SWAP2 SWAP1 POP JUMP JUMPDEST PUSH2 0x2315 DUP2 PUSH2 0x20C7 JUMP JUMPDEST DUP3 MSTORE POP POP JUMP JUMPDEST PUSH0 PUSH2 0x2326 DUP4 DUP4 PUSH2 0x230C JUMP JUMPDEST PUSH1 0x20 DUP4 ADD SWAP1 POP SWAP3 SWAP2 POP POP JUMP JUMPDEST PUSH0 PUSH1 0x20 DUP3 ADD SWAP1 POP SWAP2 SWAP1 POP JUMP JUMPDEST PUSH0 PUSH2 0x2348 DUP3 PUSH2 0x22E3 JUMP JUMPDEST PUSH2 0x2352 DUP2 DUP6 PUSH2 0x22ED JUMP JUMPDEST SWAP4 POP PUSH2 0x235D DUP4 PUSH2 0x22FD JUMP JUMPDEST DUP1 PUSH0 JUMPDEST DUP4 DUP2 LT ISZERO PUSH2 0x238D JUMPI DUP2 MLOAD PUSH2 0x2374 DUP9 DUP3 PUSH2 0x231B JUMP JUMPDEST SWAP8 POP PUSH2 0x237F DUP4 PUSH2 0x2332 JUMP JUMPDEST SWAP3 POP POP PUSH1 0x1 DUP2 ADD SWAP1 POP PUSH2 0x2360 JUMP JUMPDEST POP DUP6 SWAP4 POP POP POP POP SWAP3 SWAP2 POP POP JUMP JUMPDEST PUSH0 PUSH1 0xA0 DUP3 ADD SWAP1 POP DUP2 DUP2 SUB PUSH0 DUP4 ADD MSTORE PUSH2 0x23B2 DUP2 DUP9 PUSH2 0x21C3 JUMP JUMPDEST SWAP1 POP DUP2 DUP2 SUB PUSH1 0x20 DUP4 ADD MSTORE PUSH2 0x23C6 DUP2 DUP8 PUSH2 0x2287 JUMP JUMPDEST SWAP1 POP DUP2 DUP2 SUB PUSH1 0x40 DUP4 ADD MSTORE PUSH2 0x23DA DUP2 DUP7 PUSH2 0x233E JUMP JUMPDEST SWAP1 POP PUSH2 0x23E9 PUSH1 0x60 DUP4 ADD DUP6 PUSH2 0x2115 JUMP JUMPDEST PUSH2 0x23F6 PUSH1 0x80 DUP4 ADD DUP5 PUSH2 0x2124 JUMP JUMPDEST SWAP7 SWAP6 POP POP POP POP POP POP JUMP JUMPDEST PUSH0 PUSH1 0x20 DUP3 ADD SWAP1 POP DUP2 DUP2 SUB PUSH0 DUP4 ADD MSTORE PUSH2 0x2418 DUP2 DUP5 PUSH2 0x21C3 JUMP JUMPDEST SWAP1 POP SWAP3 SWAP2 POP POP JUMP JUMPDEST PUSH0 PUSH1 0x1F NOT PUSH1 0x1F DUP4 ADD AND SWAP1 POP SWAP2 SWAP1 POP JUMP JUMPDEST PUSH32 0x4E487B7100000000000000000000000000000000000000000000000000000000 PUSH0 MSTORE PUSH1 0x41 PUSH1 0x4 MSTORE PUSH1 0x24 PUSH0 REVERT JUMPDEST PUSH2 0x2466 DUP3 PUSH2 0x2420 JUMP JUMPDEST DUP2 ADD DUP2 DUP2 LT PUSH8 0xFFFFFFFFFFFFFFFF DUP3 GT OR ISZERO PUSH2 0x2485 JUMPI PUSH2 0x2484 PUSH2 0x2430 JUMP JUMPDEST JUMPDEST DUP1 PUSH1 0x40 MSTORE POP POP POP JUMP JUMPDEST PUSH0 PUSH2 0x2497 PUSH2 0x1E39 JUMP JUMPDEST SWAP1 POP PUSH2 0x24A3 DUP3 DUP3 PUSH2 0x245D JUMP JUMPDEST SWAP2 SWAP1 POP JUMP JUMPDEST PUSH0 PUSH8 0xFFFFFFFFFFFFFFFF DUP3 GT ISZERO PUSH2 0x24C2 JUMPI PUSH2 0x24C1 PUSH2 0x2430 JUMP JUMPDEST JUMPDEST PUSH1 0x20 DUP3 MUL SWAP1 POP PUSH1 0x20 DUP2 ADD SWAP1 POP SWAP2 SWAP1 POP JUMP JUMPDEST PUSH0 PUSH2 0x24E5 PUSH2 0x24E0 DUP5 PUSH2 0x24A8 JUMP JUMPDEST PUSH2 0x248E JUMP JUMPDEST SWAP1 POP DUP1 DUP4 DUP3 MSTORE PUSH1 0x20 DUP3 ADD SWAP1 POP PUSH1 0x20 DUP5 MUL DUP4 ADD DUP6 DUP2 GT ISZERO PUSH2 0x2508 JUMPI PUSH2 0x2507 PUSH2 0x1E52 JUMP JUMPDEST JUMPDEST DUP4 JUMPDEST DUP2 DUP2 LT ISZERO PUSH2 0x2531 JUMPI DUP1 PUSH2 0x251D DUP9 DUP3 PUSH2 0x1FC4 JUMP JUMPDEST DUP5 MSTORE PUSH1 0x20 DUP5 ADD SWAP4 POP POP PUSH1 0x20 DUP2 ADD SWAP1 POP PUSH2 0x250A JUMP JUMPDEST POP POP POP SWAP4 SWAP3 POP POP POP JUMP JUMPDEST PUSH0 DUP3 PUSH1 0x1F DUP4 ADD SLT PUSH2 0x254F JUMPI PUSH2 0x254E PUSH2 0x1E4A JUMP JUMPDEST JUMPDEST DUP2 CALLDATALOAD PUSH2 0x255F DUP5 DUP3 PUSH1 0x20 DUP7 ADD PUSH2 0x24D3 JUMP JUMPDEST SWAP2 POP POP SWAP3 SWAP2 POP POP JUMP JUMPDEST PUSH0 PUSH8 0xFFFFFFFFFFFFFFFF DUP3 GT ISZERO PUSH2 0x2582 JUMPI PUSH2 0x2581 PUSH2 0x2430 JUMP JUMPDEST JUMPDEST PUSH1 0x20 DUP3 MUL SWAP1 POP PUSH1 0x20 DUP2 ADD SWAP1 POP SWAP2 SWAP1 POP JUMP JUMPDEST PUSH2 0x259C DUP2 PUSH2 0x2248 JUMP JUMPDEST DUP2 EQ PUSH2 0x25A6 JUMPI PUSH0 DUP1 REVERT JUMPDEST POP JUMP JUMPDEST PUSH0 DUP2 CALLDATALOAD SWAP1 POP PUSH2 0x25B7 DUP2 PUSH2 0x2593 JUMP JUMPDEST SWAP3 SWAP2 POP POP JUMP JUMPDEST PUSH0 PUSH2 0x25CF PUSH2 0x25CA DUP5 PUSH2 0x2568 JUMP JUMPDEST PUSH2 0x248E JUMP JUMPDEST SWAP1 POP DUP1 DUP4 DUP3 MSTORE PUSH1 0x20 DUP3 ADD SWAP1 POP PUSH1 0x20 DUP5 MUL DUP4 ADD DUP6 DUP2 GT ISZERO PUSH2 0x25F2 JUMPI PUSH2 0x25F1 PUSH2 0x1E52 JUMP JUMPDEST JUMPDEST DUP4 JUMPDEST DUP2 DUP2 LT ISZERO PUSH2 0x261B JUMPI DUP1 PUSH2 0x2607 DUP9 DUP3 PUSH2 0x25A9 JUMP JUMPDEST DUP5 MSTORE PUSH1 0x20 DUP5 ADD SWAP4 POP POP PUSH1 0x20 DUP2 ADD SWAP1 POP PUSH2 0x25F4 JUMP JUMPDEST POP POP POP SWAP4 SWAP3 POP POP POP JUMP JUMPDEST PUSH0 DUP3 PUSH1 0x1F DUP4 ADD SLT PUSH2 0x2639 JUMPI PUSH2 0x2638 PUSH2 0x1E4A JUMP JUMPDEST JUMPDEST DUP2 CALLDATALOAD PUSH2 0x2649 DUP5 DUP3 PUSH1 0x20 DUP7 ADD PUSH2 0x25BD JUMP JUMPDEST SWAP2 POP POP SWAP3 SWAP2 POP POP JUMP JUMPDEST PUSH0 DUP1 PUSH1 0x40 DUP4 DUP6 SUB SLT ISZERO PUSH2 0x2668 JUMPI PUSH2 0x2667 PUSH2 0x1E42 JUMP JUMPDEST JUMPDEST PUSH0 DUP4 ADD CALLDATALOAD PUSH8 0xFFFFFFFFFFFFFFFF DUP2 GT ISZERO PUSH2 0x2685 JUMPI PUSH2 0x2684 PUSH2 0x1E46 JUMP JUMPDEST JUMPDEST PUSH2 0x2691 DUP6 DUP3 DUP7 ADD PUSH2 0x253B JUMP JUMPDEST SWAP3 POP POP PUSH1 0x20 DUP4 ADD CALLDATALOAD PUSH8 0xFFFFFFFFFFFFFFFF DUP2 GT ISZERO PUSH2 0x26B2 JUMPI PUSH2 0x26B1 PUSH2 0x1E46 JUMP JUMPDEST JUMPDEST PUSH2 0x26BE DUP6 DUP3 DUP7 ADD PUSH2 0x2625 JUMP JUMPDEST SWAP2 POP POP SWAP3 POP SWAP3 SWAP1 POP JUMP JUMPDEST PUSH0 DUP3 DUP3 MSTORE PUSH1 0x20 DUP3 ADD SWAP1 POP SWAP3 SWAP2 POP POP JUMP JUMPDEST PUSH32 0x637265617465496E6865726974616E636528292C2061646963696F6E65206F73 PUSH0 DUP3 ADD MSTORE PUSH32 0x20686572646569726F7300000000000000000000000000000000000000000000 PUSH1 0x20 DUP3 ADD MSTORE POP JUMP JUMPDEST PUSH0 PUSH2 0x2732 PUSH1 0x2A DUP4 PUSH2 0x26C8 JUMP JUMPDEST SWAP2 POP PUSH2 0x273D DUP3 PUSH2 0x26D8 JUMP JUMPDEST PUSH1 0x40 DUP3 ADD SWAP1 POP SWAP2 SWAP1 POP JUMP JUMPDEST PUSH0 PUSH1 0x20 DUP3 ADD SWAP1 POP DUP2 DUP2 SUB PUSH0 DUP4 ADD MSTORE PUSH2 0x275F DUP2 PUSH2 0x2726 JUMP JUMPDEST SWAP1 POP SWAP2 SWAP1 POP JUMP JUMPDEST PUSH32 0x637265617465496E6865726974616E636528292C207175616E74696461646520 PUSH0 DUP3 ADD MSTORE PUSH32 0x646520656E64657265636F73206520706F7263656E746167656E732064696665 PUSH1 0x20 DUP3 ADD MSTORE PUSH32 0x72656E7465730000000000000000000000000000000000000000000000000000 PUSH1 0x40 DUP3 ADD MSTORE POP JUMP JUMPDEST PUSH0 PUSH2 0x27E6 PUSH1 0x46 DUP4 PUSH2 0x26C8 JUMP JUMPDEST SWAP2 POP PUSH2 0x27F1 DUP3 PUSH2 0x2766 JUMP JUMPDEST PUSH1 0x60 DUP3 ADD SWAP1 POP SWAP2 SWAP1 POP JUMP JUMPDEST PUSH0 PUSH1 0x20 DUP3 ADD SWAP1 POP DUP2 DUP2 SUB PUSH0 DUP4 ADD MSTORE PUSH2 0x2813 DUP2 PUSH2 0x27DA JUMP JUMPDEST SWAP1 POP SWAP2 SWAP1 POP JUMP JUMPDEST PUSH32 0x4E487B7100000000000000000000000000000000000000000000000000000000 PUSH0 MSTORE PUSH1 0x32 PUSH1 0x4 MSTORE PUSH1 0x24 PUSH0 REVERT JUMPDEST PUSH0 PUSH1 0x20 DUP3 DUP5 SUB SLT ISZERO PUSH2 0x285C JUMPI PUSH2 0x285B PUSH2 0x1E42 JUMP JUMPDEST JUMPDEST PUSH0 PUSH2 0x2869 DUP5 DUP3 DUP6 ADD PUSH2 0x25A9 JUMP JUMPDEST SWAP2 POP POP SWAP3 SWAP2 POP POP JUMP JUMPDEST PUSH32 0x766F6365206E616F20706F737375692074657374616D656E746F206372696164 PUSH0 DUP3 ADD MSTORE PUSH32 0x6F00000000000000000000000000000000000000000000000000000000000000 PUSH1 0x20 DUP3 ADD MSTORE POP JUMP JUMPDEST PUSH0 PUSH2 0x28CC PUSH1 0x21 DUP4 PUSH2 0x26C8 JUMP JUMPDEST SWAP2 POP PUSH2 0x28D7 DUP3 PUSH2 0x2872 JUMP JUMPDEST PUSH1 0x40 DUP3 ADD SWAP1 POP SWAP2 SWAP1 POP JUMP JUMPDEST PUSH0 PUSH1 0x20 DUP3 ADD SWAP1 POP DUP2 DUP2 SUB PUSH0 DUP4 ADD MSTORE PUSH2 0x28F9 DUP2 PUSH2 0x28C0 JUMP JUMPDEST SWAP1 POP SWAP2 SWAP1 POP JUMP JUMPDEST PUSH32 0x696E7369726120756D2076616C6F720000000000000000000000000000000000 PUSH0 DUP3 ADD MSTORE POP JUMP JUMPDEST PUSH0 PUSH2 0x2934 PUSH1 0xF DUP4 PUSH2 0x26C8 JUMP JUMPDEST SWAP2 POP PUSH2 0x293F DUP3 PUSH2 0x2900 JUMP JUMPDEST PUSH1 0x20 DUP3 ADD SWAP1 POP SWAP2 SWAP1 POP JUMP JUMPDEST PUSH0 PUSH1 0x20 DUP3 ADD SWAP1 POP DUP2 DUP2 SUB PUSH0 DUP4 ADD MSTORE PUSH2 0x2961 DUP2 PUSH2 0x2928 JUMP JUMPDEST SWAP1 POP SWAP2 SWAP1 POP JUMP JUMPDEST PUSH32 0x4E487B7100000000000000000000000000000000000000000000000000000000 PUSH0 MSTORE PUSH1 0x11 PUSH1 0x4 MSTORE PUSH1 0x24 PUSH0 REVERT JUMPDEST PUSH0 PUSH2 0x299F DUP3 PUSH2 0x2003 JUMP JUMPDEST SWAP2 POP PUSH2 0x29AA DUP4 PUSH2 0x2003 JUMP JUMPDEST SWAP3 POP DUP3 DUP3 ADD SWAP1 POP DUP1 DUP3 GT ISZERO PUSH2 0x29C2 JUMPI PUSH2 0x29C1 PUSH2 0x2968 JUMP JUMPDEST JUMPDEST SWAP3 SWAP2 POP POP JUMP JUMPDEST PUSH32 0x766F6365206E616F20706F737375692074657374616D656E746F000000000000 PUSH0 DUP3 ADD MSTORE POP JUMP JUMPDEST PUSH0 PUSH2 0x29FC PUSH1 0x1A DUP4 PUSH2 0x26C8 JUMP JUMPDEST SWAP2 POP PUSH2 0x2A07 DUP3 PUSH2 0x29C8 JUMP JUMPDEST PUSH1 0x20 DUP3 ADD SWAP1 POP SWAP2 SWAP1 POP JUMP JUMPDEST PUSH0 PUSH1 0x20 DUP3 ADD SWAP1 POP DUP2 DUP2 SUB PUSH0 DUP4 ADD MSTORE PUSH2 0x2A29 DUP2 PUSH2 0x29F0 JUMP JUMPDEST SWAP1 POP SWAP2 SWAP1 POP JUMP JUMPDEST PUSH0 DUP2 SWAP1 POP SWAP3 SWAP2 POP POP JUMP JUMPDEST POP JUMP JUMPDEST PUSH0 PUSH2 0x2A48 PUSH0 DUP4 PUSH2 0x2A30 JUMP JUMPDEST SWAP2 POP PUSH2 0x2A53 DUP3 PUSH2 0x2A3A JUMP JUMPDEST PUSH0 DUP3 ADD SWAP1 POP SWAP2 SWAP1 POP JUMP JUMPDEST PUSH0 PUSH2 0x2A67 DUP3 PUSH2 0x2A3D JUMP JUMPDEST SWAP2 POP DUP2 SWAP1 POP SWAP2 SWAP1 POP JUMP JUMPDEST PUSH32 0x63616E63656C54657374616D656E7428292C2046616C686120616F20656E7669 PUSH0 DUP3 ADD MSTORE PUSH32 0x6172204554480000000000000000000000000000000000000000000000000000 PUSH1 0x20 DUP3 ADD MSTORE POP JUMP JUMPDEST PUSH0 PUSH2 0x2ACB PUSH1 0x26 DUP4 PUSH2 0x26C8 JUMP JUMPDEST SWAP2 POP PUSH2 0x2AD6 DUP3 PUSH2 0x2A71 JUMP JUMPDEST PUSH1 0x40 DUP3 ADD SWAP1 POP SWAP2 SWAP1 POP JUMP JUMPDEST PUSH0 PUSH1 0x20 DUP3 ADD SWAP1 POP DUP2 DUP2 SUB PUSH0 DUP4 ADD MSTORE PUSH2 0x2AF8 DUP2 PUSH2 0x2ABF JUMP JUMPDEST SWAP1 POP SWAP2 SWAP1 POP JUMP JUMPDEST PUSH32 0x41207265746972616461206E616F20706F646520736572207265616C697A6164 PUSH0 DUP3 ADD MSTORE PUSH32 0x6100000000000000000000000000000000000000000000000000000000000000 PUSH1 0x20 DUP3 ADD MSTORE POP JUMP JUMPDEST PUSH0 PUSH2 0x2B59 PUSH1 0x21 DUP4 PUSH2 0x26C8 JUMP JUMPDEST SWAP2 POP PUSH2 0x2B64 DUP3 PUSH2 0x2AFF JUMP JUMPDEST PUSH1 0x40 DUP3 ADD SWAP1 POP SWAP2 SWAP1 POP JUMP JUMPDEST PUSH0 PUSH1 0x20 DUP3 ADD SWAP1 POP DUP2 DUP2 SUB PUSH0 DUP4 ADD MSTORE PUSH2 0x2B86 DUP2 PUSH2 0x2B4D JUMP JUMPDEST SWAP1 POP SWAP2 SWAP1 POP JUMP JUMPDEST PUSH32 0x6E616F2074656D20686572646569726F73000000000000000000000000000000 PUSH0 DUP3 ADD MSTORE POP JUMP JUMPDEST PUSH0 PUSH2 0x2BC1 PUSH1 0x11 DUP4 PUSH2 0x26C8 JUMP JUMPDEST SWAP2 POP PUSH2 0x2BCC DUP3 PUSH2 0x2B8D JUMP JUMPDEST PUSH1 0x20 DUP3 ADD SWAP1 POP SWAP2 SWAP1 POP JUMP JUMPDEST PUSH0 PUSH1 0x20 DUP3 ADD SWAP1 POP DUP2 DUP2 SUB PUSH0 DUP4 ADD MSTORE PUSH2 0x2BEE DUP2 PUSH2 0x2BB5 JUMP JUMPDEST SWAP1 POP SWAP2 SWAP1 POP JUMP JUMPDEST PUSH32 0x74657374616D656E746F2065207175656D20746120726F64616E646F20612066 PUSH0 DUP3 ADD MSTORE PUSH32 0x756E63616F2064652073617175652073616F206469666572656E746573000000 PUSH1 0x20 DUP3 ADD MSTORE POP JUMP JUMPDEST PUSH0 PUSH2 0x2C4F PUSH1 0x3D DUP4 PUSH2 0x26C8 JUMP JUMPDEST SWAP2 POP PUSH2 0x2C5A DUP3 PUSH2 0x2BF5 JUMP JUMPDEST PUSH1 0x40 DUP3 ADD SWAP1 POP SWAP2 SWAP1 POP JUMP JUMPDEST PUSH0 PUSH1 0x20 DUP3 ADD SWAP1 POP DUP2 DUP2 SUB PUSH0 DUP4 ADD MSTORE PUSH2 0x2C7C DUP2 PUSH2 0x2C43 JUMP JUMPDEST SWAP1 POP SWAP2 SWAP1 POP JUMP JUMPDEST PUSH32 0x6E616F20706F6465207361636172000000000000000000000000000000000000 PUSH0 DUP3 ADD MSTORE POP JUMP JUMPDEST PUSH0 PUSH2 0x2CB7 PUSH1 0xE DUP4 PUSH2 0x26C8 JUMP JUMPDEST SWAP2 POP PUSH2 0x2CC2 DUP3 PUSH2 0x2C83 JUMP JUMPDEST PUSH1 0x20 DUP3 ADD SWAP1 POP SWAP2 SWAP1 POP JUMP JUMPDEST PUSH0 PUSH1 0x20 DUP3 ADD SWAP1 POP DUP2 DUP2 SUB PUSH0 DUP4 ADD MSTORE PUSH2 0x2CE4 DUP2 PUSH2 0x2CAB JUMP JUMPDEST SWAP1 POP SWAP2 SWAP1 POP JUMP JUMPDEST PUSH32 0x46616C686120616F20656E766961722045544800000000000000000000000000 PUSH0 DUP3 ADD MSTORE POP JUMP JUMPDEST PUSH0 PUSH2 0x2D1F PUSH1 0x13 DUP4 PUSH2 0x26C8 JUMP JUMPDEST SWAP2 POP PUSH2 0x2D2A DUP3 PUSH2 0x2CEB JUMP JUMPDEST PUSH1 0x20 DUP3 ADD SWAP1 POP SWAP2 SWAP1 POP JUMP JUMPDEST PUSH0 PUSH1 0x20 DUP3 ADD SWAP1 POP DUP2 DUP2 SUB PUSH0 DUP4 ADD MSTORE PUSH2 0x2D4C DUP2 PUSH2 0x2D13 JUMP JUMPDEST SWAP1 POP SWAP2 SWAP1 POP JUMP JUMPDEST PUSH32 0x766F6365206E616F2074656D206973736F207475646F20616900000000000000 PUSH0 DUP3 ADD MSTORE POP JUMP JUMPDEST PUSH0 PUSH2 0x2D87 PUSH1 0x19 DUP4 PUSH2 0x26C8 JUMP JUMPDEST SWAP2 POP PUSH2 0x2D92 DUP3 PUSH2 0x2D53 JUMP JUMPDEST PUSH1 0x20 DUP3 ADD SWAP1 POP SWAP2 SWAP1 POP JUMP JUMPDEST PUSH0 PUSH1 0x20 DUP3 ADD SWAP1 POP DUP2 DUP2 SUB PUSH0 DUP4 ADD MSTORE PUSH2 0x2DB4 DUP2 PUSH2 0x2D7B JUMP JUMPDEST SWAP1 POP SWAP2 SWAP1 POP JUMP JUMPDEST PUSH32 0x6E616F207469726F750000000000000000000000000000000000000000000000 PUSH0 DUP3 ADD MSTORE POP JUMP JUMPDEST PUSH0 PUSH2 0x2DEF PUSH1 0x9 DUP4 PUSH2 0x26C8 JUMP JUMPDEST SWAP2 POP PUSH2 0x2DFA DUP3 PUSH2 0x2DBB JUMP JUMPDEST PUSH1 0x20 DUP3 ADD SWAP1 POP SWAP2 SWAP1 POP JUMP JUMPDEST PUSH0 PUSH1 0x20 DUP3 ADD SWAP1 POP DUP2 DUP2 SUB PUSH0 DUP4 ADD MSTORE PUSH2 0x2E1C DUP2 PUSH2 0x2DE3 JUMP JUMPDEST SWAP1 POP SWAP2 SWAP1 POP JUMP JUMPDEST PUSH0 PUSH2 0x2E2D DUP3 PUSH2 0x2003 JUMP JUMPDEST SWAP2 POP PUSH2 0x2E38 DUP4 PUSH2 0x2003 JUMP JUMPDEST SWAP3 POP DUP3 DUP3 SUB SWAP1 POP DUP2 DUP2 GT ISZERO PUSH2 0x2E50 JUMPI PUSH2 0x2E4F PUSH2 0x2968 JUMP JUMPDEST JUMPDEST SWAP3 SWAP2 POP POP JUMP JUMPDEST PUSH32 0x5465737461646F72206E616F20656E636F6E747261646F000000000000000000 PUSH0 DUP3 ADD MSTORE POP JUMP JUMPDEST PUSH0 PUSH2 0x2E8A PUSH1 0x17 DUP4 PUSH2 0x26C8 JUMP JUMPDEST SWAP2 POP PUSH2 0x2E95 DUP3 PUSH2 0x2E56 JUMP JUMPDEST PUSH1 0x20 DUP3 ADD SWAP1 POP SWAP2 SWAP1 POP JUMP JUMPDEST PUSH0 PUSH1 0x20 DUP3 ADD SWAP1 POP DUP2 DUP2 SUB PUSH0 DUP4 ADD MSTORE PUSH2 0x2EB7 DUP2 PUSH2 0x2E7E JUMP JUMPDEST SWAP1 POP SWAP2 SWAP1 POP JUMP JUMPDEST PUSH0 PUSH8 0xFFFFFFFFFFFFFFFF DUP3 AND SWAP1 POP SWAP2 SWAP1 POP JUMP JUMPDEST PUSH0 PUSH2 0x2EDB DUP3 PUSH2 0x2EBE JUMP JUMPDEST SWAP2 POP PUSH8 0xFFFFFFFFFFFFFFFF DUP3 SUB PUSH2 0x2EF5 JUMPI PUSH2 0x2EF4 PUSH2 0x2968 JUMP JUMPDEST JUMPDEST PUSH1 0x1 DUP3 ADD SWAP1 POP SWAP2 SWAP1 POP JUMP JUMPDEST PUSH32 0x566F6365206E616F20706F73737569206E656E68756D2074657374616D656E74 PUSH0 DUP3 ADD MSTORE PUSH32 0x6F2063726961646F000000000000000000000000000000000000000000000000 PUSH1 0x20 DUP3 ADD MSTORE POP JUMP JUMPDEST PUSH0 PUSH2 0x2F5A PUSH1 0x28 DUP4 PUSH2 0x26C8 JUMP JUMPDEST SWAP2 POP PUSH2 0x2F65 DUP3 PUSH2 0x2F00 JUMP JUMPDEST PUSH1 0x40 DUP3 ADD SWAP1 POP SWAP2 SWAP1 POP JUMP JUMPDEST PUSH0 PUSH1 0x20 DUP3 ADD SWAP1 POP DUP2 DUP2 SUB PUSH0 DUP4 ADD MSTORE PUSH2 0x2F87 DUP2 PUSH2 0x2F4E JUMP JUMPDEST SWAP1 POP SWAP2 SWAP1 POP JUMP JUMPDEST PUSH32 0x637265617465496E6865726974616E636528292C2076616C6F7220696E76616C PUSH0 DUP3 ADD MSTORE PUSH32 0x69646F0000000000000000000000000000000000000000000000000000000000 PUSH1 0x20 DUP3 ADD MSTORE POP JUMP JUMPDEST PUSH0 PUSH2 0x2FE8 PUSH1 0x23 DUP4 PUSH2 0x26C8 JUMP JUMPDEST SWAP2 POP PUSH2 0x2FF3 DUP3 PUSH2 0x2F8E JUMP JUMPDEST PUSH1 0x40 DUP3 ADD SWAP1 POP SWAP2 SWAP1 POP JUMP JUMPDEST PUSH0 PUSH1 0x20 DUP3 ADD SWAP1 POP DUP2 DUP2 SUB PUSH0 DUP4 ADD MSTORE PUSH2 0x3015 DUP2 PUSH2 0x2FDC JUMP JUMPDEST SWAP1 POP SWAP2 SWAP1 POP JUMP JUMPDEST PUSH32 0x637265617465496E6865726974616E636528292C20766F6365206A612074656D PUSH0 DUP3 ADD MSTORE PUSH32 0x20756D2074657374616D656E746F2063726961646F2C20656469746520656C65 PUSH1 0x20 DUP3 ADD MSTORE POP JUMP JUMPDEST PUSH0 PUSH2 0x3076 PUSH1 0x40 DUP4 PUSH2 0x26C8 JUMP JUMPDEST SWAP2 POP PUSH2 0x3081 DUP3 PUSH2 0x301C JUMP JUMPDEST PUSH1 0x40 DUP3 ADD SWAP1 POP SWAP2 SWAP1 POP JUMP JUMPDEST PUSH0 PUSH1 0x20 DUP3 ADD SWAP1 POP DUP2 DUP2 SUB PUSH0 DUP4 ADD MSTORE PUSH2 0x30A3 DUP2 PUSH2 0x306A JUMP JUMPDEST SWAP1 POP SWAP2 SWAP1 POP JUMP JUMPDEST PUSH32 0x4E487B7100000000000000000000000000000000000000000000000000000000 PUSH0 MSTORE PUSH1 0x31 PUSH1 0x4 MSTORE PUSH1 0x24 PUSH0 REVERT INVALID LOG2 PUSH5 0x6970667358 0x22 SLT KECCAK256 0xD3 PUSH31 0x8F52CD4F8725099F1EC5F350070C314F44D098F093FBCFE8CDF3308648BB64 PUSH20 0x6F6C634300081A00330000000000000000000000 "
				},
				"gasEstimates": {
					"creation": {
						"codeDepositCost": "2511400",
						"executionCost": "2708",
						"totalCost": "2514108"
					},
					"external": {
						"addAssetsInTestament()": "infinite",
						"cancelTestament()": "infinite",
						"createInheritance(address[],uint16[])": "infinite",
						"editInheritorsInMyTestament(address[],uint16[])": "infinite",
						"getMyTestament(address)": "infinite",
						"getMyTestators()": "infinite",
						"inheritorToTestators(address,uint256)": "infinite",
						"inheritorsCanWithdrawal(address)": "infinite",
						"removeAssetsInTestament(uint256)": "infinite",
						"testament(address)": "7392",
						"updateProofOfLife()": "26876",
						"withdraw(address)": "infinite"
					},
					"internal": {
						"clearOldInheritorsOfTestament(address)": "infinite"
					}
				},
				"methodIdentifiers": {
					"addAssetsInTestament()": "0d78946e",
					"cancelTestament()": "1aba6da6",
					"createInheritance(address[],uint16[])": "e7a84bc3",
					"editInheritorsInMyTestament(address[],uint16[])": "0bbd5839",
					"getMyTestament(address)": "c6064610",
					"getMyTestators()": "ca7252ea",
					"inheritorToTestators(address,uint256)": "5b084db9",
					"inheritorsCanWithdrawal(address)": "5df11fb7",
					"removeAssetsInTestament(uint256)": "5bd36e29",
					"testament(address)": "7618d0a7",
					"updateProofOfLife()": "c80cc411",
					"withdraw(address)": "51cff8d9"
				}
			},
			"storageLayout": {
				"storage": [
					{
						"astId": 30,
						"contract": ".deps/studying-solidity/testament/Testament.sol:Testament",
						"label": "testament",
						"offset": 0,
						"slot": "0",
						"type": "t_mapping(t_address,t_struct(Testament)19_storage)"
					},
					{
						"astId": 35,
						"contract": ".deps/studying-solidity/testament/Testament.sol:Testament",
						"label": "inheritorToTestators",
						"offset": 0,
						"slot": "1",
						"type": "t_mapping(t_address,t_array(t_address)dyn_storage)"
					}
				],
				"types": {
					"t_address": {
						"encoding": "inplace",
						"label": "address",
						"numberOfBytes": "20"
					},
					"t_array(t_address)dyn_storage": {
						"base": "t_address",
						"encoding": "dynamic_array",
						"label": "address[]",
						"numberOfBytes": "32"
					},
					"t_array(t_struct(Inheritor)8_storage)dyn_storage": {
						"base": "t_struct(Inheritor)8_storage",
						"encoding": "dynamic_array",
						"label": "struct StructsToTestament.Inheritor[]",
						"numberOfBytes": "32"
					},
					"t_bool": {
						"encoding": "inplace",
						"label": "bool",
						"numberOfBytes": "1"
					},
					"t_mapping(t_address,t_array(t_address)dyn_storage)": {
						"encoding": "mapping",
						"key": "t_address",
						"label": "mapping(address => address[])",
						"numberOfBytes": "32",
						"value": "t_array(t_address)dyn_storage"
					},
					"t_mapping(t_address,t_struct(Testament)19_storage)": {
						"encoding": "mapping",
						"key": "t_address",
						"label": "mapping(address => struct StructsToTestament.Testament)",
						"numberOfBytes": "32",
						"value": "t_struct(Testament)19_storage"
					},
					"t_struct(Inheritor)8_storage": {
						"encoding": "inplace",
						"label": "struct StructsToTestament.Inheritor",
						"members": [
							{
								"astId": 3,
								"contract": ".deps/studying-solidity/testament/Testament.sol:Testament",
								"label": "inheritorAddress",
								"offset": 0,
								"slot": "0",
								"type": "t_address"
							},
							{
								"astId": 5,
								"contract": ".deps/studying-solidity/testament/Testament.sol:Testament",
								"label": "percentage",
								"offset": 20,
								"slot": "0",
								"type": "t_uint16"
							},
							{
								"astId": 7,
								"contract": ".deps/studying-solidity/testament/Testament.sol:Testament",
								"label": "canWithdraw",
								"offset": 22,
								"slot": "0",
								"type": "t_bool"
							}
						],
						"numberOfBytes": "32"
					},
					"t_struct(Testament)19_storage": {
						"encoding": "inplace",
						"label": "struct StructsToTestament.Testament",
						"members": [
							{
								"astId": 12,
								"contract": ".deps/studying-solidity/testament/Testament.sol:Testament",
								"label": "inheritors",
								"offset": 0,
								"slot": "0",
								"type": "t_array(t_struct(Inheritor)8_storage)dyn_storage"
							},
							{
								"astId": 14,
								"contract": ".deps/studying-solidity/testament/Testament.sol:Testament",
								"label": "exist",
								"offset": 0,
								"slot": "1",
								"type": "t_bool"
							},
							{
								"astId": 16,
								"contract": ".deps/studying-solidity/testament/Testament.sol:Testament",
								"label": "lastProofOfLife",
								"offset": 1,
								"slot": "1",
								"type": "t_uint128"
							},
							{
								"astId": 18,
								"contract": ".deps/studying-solidity/testament/Testament.sol:Testament",
								"label": "inheritanceValue",
								"offset": 0,
								"slot": "2",
								"type": "t_uint256"
							}
						],
						"numberOfBytes": "96"
					},
					"t_uint128": {
						"encoding": "inplace",
						"label": "uint128",
						"numberOfBytes": "16"
					},
					"t_uint16": {
						"encoding": "inplace",
						"label": "uint16",
						"numberOfBytes": "2"
					},
					"t_uint256": {
						"encoding": "inplace",
						"label": "uint256",
						"numberOfBytes": "32"
					}
				}
			},
			"userdoc": {
				"kind": "user",
				"methods": {},
				"version": 1
			}
		}
	}
}