{
	".deps/studying-solidity/testament/Testament.sol": {
		"Testament": {
			"abi": [
				{
					"inputs": [],
					"name": "addAssetsInTestament",
					"outputs": [],
					"stateMutability": "payable",
					"type": "function"
				},
				{
					"inputs": [],
					"name": "cancelTestament",
					"outputs": [],
					"stateMutability": "nonpayable",
					"type": "function"
				},
				{
					"inputs": [
						{
							"internalType": "address[]",
							"name": "_addresses",
							"type": "address[]"
						},
						{
							"internalType": "uint16[]",
							"name": "_percentagens",
							"type": "uint16[]"
						}
					],
					"name": "createInheritance",
					"outputs": [],
					"stateMutability": "payable",
					"type": "function"
				},
				{
					"inputs": [
						{
							"internalType": "address[]",
							"name": "inheritorsAddresses",
							"type": "address[]"
						},
						{
							"internalType": "uint16[]",
							"name": "percentages",
							"type": "uint16[]"
						}
					],
					"name": "editInheritorsInMyTestament",
					"outputs": [],
					"stateMutability": "nonpayable",
					"type": "function"
				},
				{
					"inputs": [
						{
							"internalType": "address",
							"name": "testator",
							"type": "address"
						}
					],
					"name": "getMyTestament",
					"outputs": [
						{
							"internalType": "address[]",
							"name": "",
							"type": "address[]"
						},
						{
							"internalType": "uint16[]",
							"name": "",
							"type": "uint16[]"
						},
						{
							"internalType": "bool[]",
							"name": "",
							"type": "bool[]"
						},
						{
							"internalType": "uint128",
							"name": "",
							"type": "uint128"
						},
						{
							"internalType": "uint256",
							"name": "",
							"type": "uint256"
						}
					],
					"stateMutability": "view",
					"type": "function"
				},
				{
					"inputs": [],
					"name": "getMyTestators",
					"outputs": [
						{
							"internalType": "address[]",
							"name": "",
							"type": "address[]"
						}
					],
					"stateMutability": "view",
					"type": "function"
				},
				{
					"inputs": [
						{
							"internalType": "address",
							"name": "",
							"type": "address"
						},
						{
							"internalType": "uint256",
							"name": "",
							"type": "uint256"
						}
					],
					"name": "inheritorToTestators",
					"outputs": [
						{
							"internalType": "address",
							"name": "",
							"type": "address"
						}
					],
					"stateMutability": "view",
					"type": "function"
				},
				{
					"inputs": [
						{
							"internalType": "address",
							"name": "testator",
							"type": "address"
						}
					],
					"name": "inheritorsCanWithdraw",
					"outputs": [
						{
							"internalType": "bool",
							"name": "",
							"type": "bool"
						}
					],
					"stateMutability": "view",
					"type": "function"
				},
				{
					"inputs": [
						{
							"internalType": "uint256",
							"name": "value",
							"type": "uint256"
						}
					],
					"name": "removeAssetsInTestament",
					"outputs": [],
					"stateMutability": "nonpayable",
					"type": "function"
				},
				{
					"inputs": [
						{
							"internalType": "address",
							"name": "",
							"type": "address"
						}
					],
					"name": "testament",
					"outputs": [
						{
							"internalType": "bool",
							"name": "exist",
							"type": "bool"
						},
						{
							"internalType": "uint128",
							"name": "lastProofOfLife",
							"type": "uint128"
						},
						{
							"internalType": "uint256",
							"name": "inheritanceValue",
							"type": "uint256"
						}
					],
					"stateMutability": "view",
					"type": "function"
				},
				{
					"inputs": [],
					"name": "updateProofOfLife",
					"outputs": [],
					"stateMutability": "nonpayable",
					"type": "function"
				},
				{
					"inputs": [
						{
							"internalType": "address",
							"name": "testator",
							"type": "address"
						}
					],
					"name": "withdraw",
					"outputs": [],
					"stateMutability": "nonpayable",
					"type": "function"
				}
			],
			"devdoc": {
				"kind": "dev",
				"methods": {},
				"version": 1
			},
			"evm": {
				"assembly": "    /* \".deps/studying-solidity/testament/Testament.sol\":104:9076  contract Testament is StructsToTestament {... */\n  mstore(0x40, 0x80)\n  callvalue\n  dup1\n  iszero\n  tag_1\n  jumpi\n  0x00\n  dup1\n  revert\ntag_1:\n  pop\n  dataSize(sub_0)\n  dup1\n  dataOffset(sub_0)\n  0x00\n  codecopy\n  0x00\n  return\nstop\n\nsub_0: assembly {\n        /* \".deps/studying-solidity/testament/Testament.sol\":104:9076  contract Testament is StructsToTestament {... */\n      mstore(0x40, 0x80)\n      jumpi(tag_1, lt(calldatasize, 0x04))\n      shr(0xe0, calldataload(0x00))\n      dup1\n      0x7618d0a7\n      gt\n      tag_14\n      jumpi\n      dup1\n      0x7618d0a7\n      eq\n      tag_8\n      jumpi\n      dup1\n      0xc6064610\n      eq\n      tag_9\n      jumpi\n      dup1\n      0xc80cc411\n      eq\n      tag_10\n      jumpi\n      dup1\n      0xca7252ea\n      eq\n      tag_11\n      jumpi\n      dup1\n      0xe7a84bc3\n      eq\n      tag_12\n      jumpi\n      dup1\n      0xf3550b9b\n      eq\n      tag_13\n      jumpi\n      jump(tag_1)\n    tag_14:\n      dup1\n      0x0bbd5839\n      eq\n      tag_2\n      jumpi\n      dup1\n      0x0d78946e\n      eq\n      tag_3\n      jumpi\n      dup1\n      0x1aba6da6\n      eq\n      tag_4\n      jumpi\n      dup1\n      0x51cff8d9\n      eq\n      tag_5\n      jumpi\n      dup1\n      0x5b084db9\n      eq\n      tag_6\n      jumpi\n      dup1\n      0x5bd36e29\n      eq\n      tag_7\n      jumpi\n    tag_1:\n      0x00\n      dup1\n      revert\n        /* \".deps/studying-solidity/testament/Testament.sol\":3429:4638  function editInheritorsInMyTestament(... */\n    tag_2:\n      callvalue\n      dup1\n      iszero\n      tag_15\n      jumpi\n      0x00\n      dup1\n      revert\n    tag_15:\n      pop\n      tag_16\n      0x04\n      dup1\n      calldatasize\n      sub\n      dup2\n      add\n      swap1\n      tag_17\n      swap2\n      swap1\n      tag_18\n      jump\t// in\n    tag_17:\n      tag_19\n      jump\t// in\n    tag_16:\n      stop\n        /* \".deps/studying-solidity/testament/Testament.sol\":6970:7255  function addAssetsInTestament() external payable {... */\n    tag_3:\n      tag_20\n      tag_21\n      jump\t// in\n    tag_20:\n      stop\n        /* \".deps/studying-solidity/testament/Testament.sol\":4644:5096  function cancelTestament() external {... */\n    tag_4:\n      callvalue\n      dup1\n      iszero\n      tag_22\n      jumpi\n      0x00\n      dup1\n      revert\n    tag_22:\n      pop\n      tag_23\n      tag_24\n      jump\t// in\n    tag_23:\n      stop\n        /* \".deps/studying-solidity/testament/Testament.sol\":7772:9074  function withdraw(address testator) external {... */\n    tag_5:\n      callvalue\n      dup1\n      iszero\n      tag_25\n      jumpi\n      0x00\n      dup1\n      revert\n    tag_25:\n      pop\n      tag_26\n      0x04\n      dup1\n      calldatasize\n      sub\n      dup2\n      add\n      swap1\n      tag_27\n      swap2\n      swap1\n      tag_28\n      jump\t// in\n    tag_27:\n      tag_29\n      jump\t// in\n    tag_26:\n      stop\n        /* \".deps/studying-solidity/testament/Testament.sol\":308:365  mapping(address => address[]) public inheritorToTestators */\n    tag_6:\n      callvalue\n      dup1\n      iszero\n      tag_30\n      jumpi\n      0x00\n      dup1\n      revert\n    tag_30:\n      pop\n      tag_31\n      0x04\n      dup1\n      calldatasize\n      sub\n      dup2\n      add\n      swap1\n      tag_32\n      swap2\n      swap1\n      tag_33\n      jump\t// in\n    tag_32:\n      tag_34\n      jump\t// in\n    tag_31:\n      mload(0x40)\n      tag_35\n      swap2\n      swap1\n      tag_36\n      jump\t// in\n    tag_35:\n      mload(0x40)\n      dup1\n      swap2\n      sub\n      swap1\n      return\n        /* \".deps/studying-solidity/testament/Testament.sol\":7261:7740  function removeAssetsInTestament(uint256 value) external {... */\n    tag_7:\n      callvalue\n      dup1\n      iszero\n      tag_37\n      jumpi\n      0x00\n      dup1\n      revert\n    tag_37:\n      pop\n      tag_38\n      0x04\n      dup1\n      calldatasize\n      sub\n      dup2\n      add\n      swap1\n      tag_39\n      swap2\n      swap1\n      tag_40\n      jump\t// in\n    tag_39:\n      tag_41\n      jump\t// in\n    tag_38:\n      stop\n        /* \".deps/studying-solidity/testament/Testament.sol\":188:234  mapping(address => Testament) public testament */\n    tag_8:\n      callvalue\n      dup1\n      iszero\n      tag_42\n      jumpi\n      0x00\n      dup1\n      revert\n    tag_42:\n      pop\n      tag_43\n      0x04\n      dup1\n      calldatasize\n      sub\n      dup2\n      add\n      swap1\n      tag_44\n      swap2\n      swap1\n      tag_28\n      jump\t// in\n    tag_44:\n      tag_45\n      jump\t// in\n    tag_43:\n      mload(0x40)\n      tag_46\n      swap4\n      swap3\n      swap2\n      swap1\n      tag_47\n      jump\t// in\n    tag_46:\n      mload(0x40)\n      dup1\n      swap2\n      sub\n      swap1\n      return\n        /* \".deps/studying-solidity/testament/Testament.sol\":1832:3037  function getMyTestament(address testator)... */\n    tag_9:\n      callvalue\n      dup1\n      iszero\n      tag_48\n      jumpi\n      0x00\n      dup1\n      revert\n    tag_48:\n      pop\n      tag_49\n      0x04\n      dup1\n      calldatasize\n      sub\n      dup2\n      add\n      swap1\n      tag_50\n      swap2\n      swap1\n      tag_28\n      jump\t// in\n    tag_50:\n      tag_51\n      jump\t// in\n    tag_49:\n      mload(0x40)\n      tag_52\n      swap6\n      swap5\n      swap4\n      swap3\n      swap2\n      swap1\n      tag_53\n      jump\t// in\n    tag_52:\n      mload(0x40)\n      dup1\n      swap2\n      sub\n      swap1\n      return\n        /* \".deps/studying-solidity/testament/Testament.sol\":5102:5363  function updateProofOfLife() public {... */\n    tag_10:\n      callvalue\n      dup1\n      iszero\n      tag_54\n      jumpi\n      0x00\n      dup1\n      revert\n    tag_54:\n      pop\n      tag_55\n      tag_56\n      jump\t// in\n    tag_55:\n      stop\n        /* \".deps/studying-solidity/testament/Testament.sol\":3043:3423  function getMyTestators() external view returns (address[] memory) {... */\n    tag_11:\n      callvalue\n      dup1\n      iszero\n      tag_57\n      jumpi\n      0x00\n      dup1\n      revert\n    tag_57:\n      pop\n      tag_58\n      tag_59\n      jump\t// in\n    tag_58:\n      mload(0x40)\n      tag_60\n      swap2\n      swap1\n      tag_61\n      jump\t// in\n    tag_60:\n      mload(0x40)\n      dup1\n      swap2\n      sub\n      swap1\n      return\n        /* \".deps/studying-solidity/testament/Testament.sol\":372:1826  function createInheritance(... */\n    tag_12:\n      tag_62\n      0x04\n      dup1\n      calldatasize\n      sub\n      dup2\n      add\n      swap1\n      tag_63\n      swap2\n      swap1\n      tag_18\n      jump\t// in\n    tag_63:\n      tag_64\n      jump\t// in\n    tag_62:\n      stop\n        /* \".deps/studying-solidity/testament/Testament.sol\":6624:6964  function inheritorsCanWithdraw(address testator)... */\n    tag_13:\n      callvalue\n      dup1\n      iszero\n      tag_65\n      jumpi\n      0x00\n      dup1\n      revert\n    tag_65:\n      pop\n      tag_66\n      0x04\n      dup1\n      calldatasize\n      sub\n      dup2\n      add\n      swap1\n      tag_67\n      swap2\n      swap1\n      tag_28\n      jump\t// in\n    tag_67:\n      tag_68\n      jump\t// in\n    tag_66:\n      mload(0x40)\n      tag_69\n      swap2\n      swap1\n      tag_70\n      jump\t// in\n    tag_69:\n      mload(0x40)\n      dup1\n      swap2\n      sub\n      swap1\n      return\n        /* \".deps/studying-solidity/testament/Testament.sol\":3429:4638  function editInheritorsInMyTestament(... */\n    tag_19:\n        /* \".deps/studying-solidity/testament/Testament.sol\":3578:3599  address _ownTestament */\n      0x00\n        /* \".deps/studying-solidity/testament/Testament.sol\":3602:3612  msg.sender */\n      caller\n        /* \".deps/studying-solidity/testament/Testament.sol\":3578:3612  address _ownTestament = msg.sender */\n      swap1\n      pop\n        /* \".deps/studying-solidity/testament/Testament.sol\":3673:3674  0 */\n      0x00\n        /* \".deps/studying-solidity/testament/Testament.sol\":3643:3662  inheritorsAddresses */\n      dup6\n      dup6\n        /* \".deps/studying-solidity/testament/Testament.sol\":3643:3669  inheritorsAddresses.length */\n      swap1\n      pop\n        /* \".deps/studying-solidity/testament/Testament.sol\":3643:3674  inheritorsAddresses.length != 0 */\n      sub\n        /* \".deps/studying-solidity/testament/Testament.sol\":3622:3742  require(... */\n      tag_72\n      jumpi\n      mload(0x40)\n      0x08c379a000000000000000000000000000000000000000000000000000000000\n      dup2\n      mstore\n      0x04\n      add\n      tag_73\n      swap1\n      tag_74\n      jump\t// in\n    tag_73:\n      mload(0x40)\n      dup1\n      swap2\n      sub\n      swap1\n      revert\n    tag_72:\n        /* \".deps/studying-solidity/testament/Testament.sol\":3803:3814  percentages */\n      dup3\n      dup3\n        /* \".deps/studying-solidity/testament/Testament.sol\":3803:3821  percentages.length */\n      swap1\n      pop\n        /* \".deps/studying-solidity/testament/Testament.sol\":3773:3792  inheritorsAddresses */\n      dup6\n      dup6\n        /* \".deps/studying-solidity/testament/Testament.sol\":3773:3799  inheritorsAddresses.length */\n      swap1\n      pop\n        /* \".deps/studying-solidity/testament/Testament.sol\":3773:3821  inheritorsAddresses.length == percentages.length */\n      eq\n        /* \".deps/studying-solidity/testament/Testament.sol\":3752:3917  require(... */\n      tag_75\n      jumpi\n      mload(0x40)\n      0x08c379a000000000000000000000000000000000000000000000000000000000\n      dup2\n      mstore\n      0x04\n      add\n      tag_76\n      swap1\n      tag_77\n      jump\t// in\n    tag_76:\n      mload(0x40)\n      dup1\n      swap2\n      sub\n      swap1\n      revert\n    tag_75:\n        /* \".deps/studying-solidity/testament/Testament.sol\":3928:3972  clearOldInheritorsOfTestament(_ownTestament) */\n      tag_78\n        /* \".deps/studying-solidity/testament/Testament.sol\":3958:3971  _ownTestament */\n      dup2\n        /* \".deps/studying-solidity/testament/Testament.sol\":3928:3957  clearOldInheritorsOfTestament */\n      tag_79\n        /* \".deps/studying-solidity/testament/Testament.sol\":3928:3972  clearOldInheritorsOfTestament(_ownTestament) */\n      jump\t// in\n    tag_78:\n        /* \".deps/studying-solidity/testament/Testament.sol\":4091:4100  testament */\n      0x00\n        /* \".deps/studying-solidity/testament/Testament.sol\":4091:4115  testament[_ownTestament] */\n      dup1\n        /* \".deps/studying-solidity/testament/Testament.sol\":4101:4114  _ownTestament */\n      dup3\n        /* \".deps/studying-solidity/testament/Testament.sol\":4091:4115  testament[_ownTestament] */\n      0xffffffffffffffffffffffffffffffffffffffff\n      and\n      0xffffffffffffffffffffffffffffffffffffffff\n      and\n      dup2\n      mstore\n      0x20\n      add\n      swap1\n      dup2\n      mstore\n      0x20\n      add\n      0x00\n      keccak256\n        /* \".deps/studying-solidity/testament/Testament.sol\":4091:4126  testament[_ownTestament].inheritors */\n      0x00\n      add\n      0x00\n        /* \".deps/studying-solidity/testament/Testament.sol\":4084:4126  delete testament[_ownTestament].inheritors */\n      tag_80\n      swap2\n      swap1\n      tag_81\n      jump\t// in\n    tag_80:\n        /* \".deps/studying-solidity/testament/Testament.sol\":4142:4151  uint256 i */\n      0x00\n        /* \".deps/studying-solidity/testament/Testament.sol\":4137:4632  for (uint256 i = 0; i < inheritorsAddresses.length; i++) {... */\n    tag_82:\n        /* \".deps/studying-solidity/testament/Testament.sol\":4161:4180  inheritorsAddresses */\n      dup6\n      dup6\n        /* \".deps/studying-solidity/testament/Testament.sol\":4161:4187  inheritorsAddresses.length */\n      swap1\n      pop\n        /* \".deps/studying-solidity/testament/Testament.sol\":4157:4158  i */\n      dup2\n        /* \".deps/studying-solidity/testament/Testament.sol\":4157:4187  i < inheritorsAddresses.length */\n      lt\n        /* \".deps/studying-solidity/testament/Testament.sol\":4137:4632  for (uint256 i = 0; i < inheritorsAddresses.length; i++) {... */\n      iszero\n      tag_83\n      jumpi\n        /* \".deps/studying-solidity/testament/Testament.sol\":4208:4235  Inheritor memory _inheritor */\n      0x00\n        /* \".deps/studying-solidity/testament/Testament.sol\":4238:4355  Inheritor(... */\n      mload(0x40)\n      dup1\n      0x60\n      add\n      0x40\n      mstore\n      dup1\n        /* \".deps/studying-solidity/testament/Testament.sol\":4265:4284  inheritorsAddresses */\n      dup9\n      dup9\n        /* \".deps/studying-solidity/testament/Testament.sol\":4285:4286  i */\n      dup6\n        /* \".deps/studying-solidity/testament/Testament.sol\":4265:4287  inheritorsAddresses[i] */\n      dup2\n      dup2\n      lt\n      tag_85\n      jumpi\n      tag_86\n      tag_87\n      jump\t// in\n    tag_86:\n    tag_85:\n      swap1\n      pop\n      0x20\n      mul\n      add\n      0x20\n      dup2\n      add\n      swap1\n      tag_88\n      swap2\n      swap1\n      tag_28\n      jump\t// in\n    tag_88:\n        /* \".deps/studying-solidity/testament/Testament.sol\":4238:4355  Inheritor(... */\n      0xffffffffffffffffffffffffffffffffffffffff\n      and\n      dup2\n      mstore\n      0x20\n      add\n        /* \".deps/studying-solidity/testament/Testament.sol\":4305:4316  percentages */\n      dup7\n      dup7\n        /* \".deps/studying-solidity/testament/Testament.sol\":4317:4318  i */\n      dup6\n        /* \".deps/studying-solidity/testament/Testament.sol\":4305:4319  percentages[i] */\n      dup2\n      dup2\n      lt\n      tag_89\n      jumpi\n      tag_90\n      tag_87\n      jump\t// in\n    tag_90:\n    tag_89:\n      swap1\n      pop\n      0x20\n      mul\n      add\n      0x20\n      dup2\n      add\n      swap1\n      tag_91\n      swap2\n      swap1\n      tag_92\n      jump\t// in\n    tag_91:\n        /* \".deps/studying-solidity/testament/Testament.sol\":4238:4355  Inheritor(... */\n      0xffff\n      and\n      dup2\n      mstore\n      0x20\n      add\n        /* \".deps/studying-solidity/testament/Testament.sol\":4337:4341  true */\n      0x01\n        /* \".deps/studying-solidity/testament/Testament.sol\":4238:4355  Inheritor(... */\n      iszero\n      iszero\n      dup2\n      mstore\n      pop\n        /* \".deps/studying-solidity/testament/Testament.sol\":4208:4355  Inheritor memory _inheritor = Inheritor(... */\n      swap1\n      pop\n        /* \".deps/studying-solidity/testament/Testament.sol\":4422:4431  testament */\n      0x00\n        /* \".deps/studying-solidity/testament/Testament.sol\":4422:4446  testament[_ownTestament] */\n      dup1\n        /* \".deps/studying-solidity/testament/Testament.sol\":4432:4445  _ownTestament */\n      dup5\n        /* \".deps/studying-solidity/testament/Testament.sol\":4422:4446  testament[_ownTestament] */\n      0xffffffffffffffffffffffffffffffffffffffff\n      and\n      0xffffffffffffffffffffffffffffffffffffffff\n      and\n      dup2\n      mstore\n      0x20\n      add\n      swap1\n      dup2\n      mstore\n      0x20\n      add\n      0x00\n      keccak256\n        /* \".deps/studying-solidity/testament/Testament.sol\":4422:4457  testament[_ownTestament].inheritors */\n      0x00\n      add\n        /* \".deps/studying-solidity/testament/Testament.sol\":4463:4473  _inheritor */\n      dup2\n        /* \".deps/studying-solidity/testament/Testament.sol\":4422:4474  testament[_ownTestament].inheritors.push(_inheritor) */\n      swap1\n      dup1\n      0x01\n      dup2\n      sload\n      add\n      dup1\n      dup3\n      sstore\n      dup1\n      swap2\n      pop\n      pop\n      0x01\n      swap1\n      sub\n      swap1\n      0x00\n      mstore\n      keccak256(0x00, 0x20)\n      add\n      0x00\n      swap1\n      swap2\n      swap1\n      swap2\n      swap1\n      swap2\n      pop\n      0x00\n      dup3\n      add\n      mload\n      dup2\n      0x00\n      add\n      exp(0x0100, 0x00)\n      dup2\n      sload\n      dup2\n      0xffffffffffffffffffffffffffffffffffffffff\n      mul\n      not\n      and\n      swap1\n      dup4\n      0xffffffffffffffffffffffffffffffffffffffff\n      and\n      mul\n      or\n      swap1\n      sstore\n      pop\n      0x20\n      dup3\n      add\n      mload\n      dup2\n      0x00\n      add\n      exp(0x0100, 0x14)\n      dup2\n      sload\n      dup2\n      0xffff\n      mul\n      not\n      and\n      swap1\n      dup4\n      0xffff\n      and\n      mul\n      or\n      swap1\n      sstore\n      pop\n      0x40\n      dup3\n      add\n      mload\n      dup2\n      0x00\n      add\n      exp(0x0100, 0x16)\n      dup2\n      sload\n      dup2\n      0xff\n      mul\n      not\n      and\n      swap1\n      dup4\n      iszero\n      iszero\n      mul\n      or\n      swap1\n      sstore\n      pop\n      pop\n      pop\n        /* \".deps/studying-solidity/testament/Testament.sol\":4557:4577  inheritorToTestators */\n      0x01\n        /* \".deps/studying-solidity/testament/Testament.sol\":4557:4601  inheritorToTestators[inheritorsAddresses[i]] */\n      0x00\n        /* \".deps/studying-solidity/testament/Testament.sol\":4578:4597  inheritorsAddresses */\n      dup9\n      dup9\n        /* \".deps/studying-solidity/testament/Testament.sol\":4598:4599  i */\n      dup6\n        /* \".deps/studying-solidity/testament/Testament.sol\":4578:4600  inheritorsAddresses[i] */\n      dup2\n      dup2\n      lt\n      tag_94\n      jumpi\n      tag_95\n      tag_87\n      jump\t// in\n    tag_95:\n    tag_94:\n      swap1\n      pop\n      0x20\n      mul\n      add\n      0x20\n      dup2\n      add\n      swap1\n      tag_96\n      swap2\n      swap1\n      tag_28\n      jump\t// in\n    tag_96:\n        /* \".deps/studying-solidity/testament/Testament.sol\":4557:4601  inheritorToTestators[inheritorsAddresses[i]] */\n      0xffffffffffffffffffffffffffffffffffffffff\n      and\n      0xffffffffffffffffffffffffffffffffffffffff\n      and\n      dup2\n      mstore\n      0x20\n      add\n      swap1\n      dup2\n      mstore\n      0x20\n      add\n      0x00\n      keccak256\n        /* \".deps/studying-solidity/testament/Testament.sol\":4607:4620  _ownTestament */\n      dup4\n        /* \".deps/studying-solidity/testament/Testament.sol\":4557:4621  inheritorToTestators[inheritorsAddresses[i]].push(_ownTestament) */\n      swap1\n      dup1\n      0x01\n      dup2\n      sload\n      add\n      dup1\n      dup3\n      sstore\n      dup1\n      swap2\n      pop\n      pop\n      0x01\n      swap1\n      sub\n      swap1\n      0x00\n      mstore\n      keccak256(0x00, 0x20)\n      add\n      0x00\n      swap1\n      swap2\n      swap1\n      swap2\n      swap1\n      swap2\n      0x0100\n      exp\n      dup2\n      sload\n      dup2\n      0xffffffffffffffffffffffffffffffffffffffff\n      mul\n      not\n      and\n      swap1\n      dup4\n      0xffffffffffffffffffffffffffffffffffffffff\n      and\n      mul\n      or\n      swap1\n      sstore\n      pop\n        /* \".deps/studying-solidity/testament/Testament.sol\":4194:4632  {... */\n      pop\n        /* \".deps/studying-solidity/testament/Testament.sol\":4189:4192  i++ */\n      dup1\n      dup1\n      0x01\n      add\n      swap2\n      pop\n      pop\n        /* \".deps/studying-solidity/testament/Testament.sol\":4137:4632  for (uint256 i = 0; i < inheritorsAddresses.length; i++) {... */\n      jump(tag_82)\n    tag_83:\n      pop\n        /* \".deps/studying-solidity/testament/Testament.sol\":3568:4638  {... */\n      pop\n        /* \".deps/studying-solidity/testament/Testament.sol\":3429:4638  function editInheritorsInMyTestament(... */\n      pop\n      pop\n      pop\n      pop\n      jump\t// out\n        /* \".deps/studying-solidity/testament/Testament.sol\":6970:7255  function addAssetsInTestament() external payable {... */\n    tag_21:\n        /* \".deps/studying-solidity/testament/Testament.sol\":7050:7059  testament */\n      0x00\n        /* \".deps/studying-solidity/testament/Testament.sol\":7050:7071  testament[msg.sender] */\n      dup1\n        /* \".deps/studying-solidity/testament/Testament.sol\":7060:7070  msg.sender */\n      caller\n        /* \".deps/studying-solidity/testament/Testament.sol\":7050:7071  testament[msg.sender] */\n      0xffffffffffffffffffffffffffffffffffffffff\n      and\n      0xffffffffffffffffffffffffffffffffffffffff\n      and\n      dup2\n      mstore\n      0x20\n      add\n      swap1\n      dup2\n      mstore\n      0x20\n      add\n      0x00\n      keccak256\n        /* \".deps/studying-solidity/testament/Testament.sol\":7050:7077  testament[msg.sender].exist */\n      0x01\n      add\n      0x00\n      swap1\n      sload\n      swap1\n      0x0100\n      exp\n      swap1\n      div\n      0xff\n      and\n        /* \".deps/studying-solidity/testament/Testament.sol\":7029:7136  require(... */\n      tag_99\n      jumpi\n      mload(0x40)\n      0x08c379a000000000000000000000000000000000000000000000000000000000\n      dup2\n      mstore\n      0x04\n      add\n      tag_100\n      swap1\n      tag_101\n      jump\t// in\n    tag_100:\n      mload(0x40)\n      dup1\n      swap2\n      sub\n      swap1\n      revert\n    tag_99:\n        /* \".deps/studying-solidity/testament/Testament.sol\":7166:7167  0 */\n      0x00\n        /* \".deps/studying-solidity/testament/Testament.sol\":7154:7163  msg.value */\n      callvalue\n        /* \".deps/studying-solidity/testament/Testament.sol\":7154:7167  msg.value > 0 */\n      gt\n        /* \".deps/studying-solidity/testament/Testament.sol\":7146:7187  require(msg.value > 0, \"insira um valor\") */\n      tag_102\n      jumpi\n      mload(0x40)\n      0x08c379a000000000000000000000000000000000000000000000000000000000\n      dup2\n      mstore\n      0x04\n      add\n      tag_103\n      swap1\n      tag_104\n      jump\t// in\n    tag_103:\n      mload(0x40)\n      dup1\n      swap2\n      sub\n      swap1\n      revert\n    tag_102:\n        /* \".deps/studying-solidity/testament/Testament.sol\":7239:7248  msg.value */\n      callvalue\n        /* \".deps/studying-solidity/testament/Testament.sol\":7197:7206  testament */\n      0x00\n        /* \".deps/studying-solidity/testament/Testament.sol\":7197:7218  testament[msg.sender] */\n      dup1\n        /* \".deps/studying-solidity/testament/Testament.sol\":7207:7217  msg.sender */\n      caller\n        /* \".deps/studying-solidity/testament/Testament.sol\":7197:7218  testament[msg.sender] */\n      0xffffffffffffffffffffffffffffffffffffffff\n      and\n      0xffffffffffffffffffffffffffffffffffffffff\n      and\n      dup2\n      mstore\n      0x20\n      add\n      swap1\n      dup2\n      mstore\n      0x20\n      add\n      0x00\n      keccak256\n        /* \".deps/studying-solidity/testament/Testament.sol\":7197:7235  testament[msg.sender].inheritanceValue */\n      0x02\n      add\n      0x00\n        /* \".deps/studying-solidity/testament/Testament.sol\":7197:7248  testament[msg.sender].inheritanceValue += msg.value */\n      dup3\n      dup3\n      sload\n      tag_105\n      swap2\n      swap1\n      tag_106\n      jump\t// in\n    tag_105:\n      swap3\n      pop\n      pop\n      dup2\n      swap1\n      sstore\n      pop\n        /* \".deps/studying-solidity/testament/Testament.sol\":6970:7255  function addAssetsInTestament() external payable {... */\n      jump\t// out\n        /* \".deps/studying-solidity/testament/Testament.sol\":4644:5096  function cancelTestament() external {... */\n    tag_24:\n        /* \".deps/studying-solidity/testament/Testament.sol\":4690:4711  address _ownTestament */\n      0x00\n        /* \".deps/studying-solidity/testament/Testament.sol\":4714:4724  msg.sender */\n      caller\n        /* \".deps/studying-solidity/testament/Testament.sol\":4690:4724  address _ownTestament = msg.sender */\n      swap1\n      pop\n        /* \".deps/studying-solidity/testament/Testament.sol\":4743:4752  testament */\n      0x00\n        /* \".deps/studying-solidity/testament/Testament.sol\":4743:4767  testament[_ownTestament] */\n      dup1\n        /* \".deps/studying-solidity/testament/Testament.sol\":4753:4766  _ownTestament */\n      dup3\n        /* \".deps/studying-solidity/testament/Testament.sol\":4743:4767  testament[_ownTestament] */\n      0xffffffffffffffffffffffffffffffffffffffff\n      and\n      0xffffffffffffffffffffffffffffffffffffffff\n      and\n      dup2\n      mstore\n      0x20\n      add\n      swap1\n      dup2\n      mstore\n      0x20\n      add\n      0x00\n      keccak256\n        /* \".deps/studying-solidity/testament/Testament.sol\":4743:4773  testament[_ownTestament].exist */\n      0x01\n      add\n      0x00\n      swap1\n      sload\n      swap1\n      0x0100\n      exp\n      swap1\n      div\n      0xff\n      and\n        /* \".deps/studying-solidity/testament/Testament.sol\":4735:4804  require(testament[_ownTestament].exist, \"voce nao possui testamento\") */\n      tag_108\n      jumpi\n      mload(0x40)\n      0x08c379a000000000000000000000000000000000000000000000000000000000\n      dup2\n      mstore\n      0x04\n      add\n      tag_109\n      swap1\n      tag_110\n      jump\t// in\n    tag_109:\n      mload(0x40)\n      dup1\n      swap2\n      sub\n      swap1\n      revert\n    tag_108:\n        /* \".deps/studying-solidity/testament/Testament.sol\":4815:4827  bool success */\n      0x00\n        /* \".deps/studying-solidity/testament/Testament.sol\":4833:4843  msg.sender */\n      caller\n        /* \".deps/studying-solidity/testament/Testament.sol\":4833:4848  msg.sender.call */\n      0xffffffffffffffffffffffffffffffffffffffff\n      and\n        /* \".deps/studying-solidity/testament/Testament.sol\":4869:4878  testament */\n      0x00\n        /* \".deps/studying-solidity/testament/Testament.sol\":4869:4893  testament[_ownTestament] */\n      dup1\n        /* \".deps/studying-solidity/testament/Testament.sol\":4879:4892  _ownTestament */\n      dup5\n        /* \".deps/studying-solidity/testament/Testament.sol\":4869:4893  testament[_ownTestament] */\n      0xffffffffffffffffffffffffffffffffffffffff\n      and\n      0xffffffffffffffffffffffffffffffffffffffff\n      and\n      dup2\n      mstore\n      0x20\n      add\n      swap1\n      dup2\n      mstore\n      0x20\n      add\n      0x00\n      keccak256\n        /* \".deps/studying-solidity/testament/Testament.sol\":4869:4910  testament[_ownTestament].inheritanceValue */\n      0x02\n      add\n      sload\n        /* \".deps/studying-solidity/testament/Testament.sol\":4833:4924  msg.sender.call{... */\n      mload(0x40)\n      tag_111\n      swap1\n      tag_112\n      jump\t// in\n    tag_111:\n      0x00\n      mload(0x40)\n      dup1\n      dup4\n      sub\n      dup2\n      dup6\n      dup8\n      gas\n      call\n      swap3\n      pop\n      pop\n      pop\n      returndatasize\n      dup1\n      0x00\n      dup2\n      eq\n      tag_115\n      jumpi\n      mload(0x40)\n      swap2\n      pop\n      and(add(returndatasize, 0x3f), not(0x1f))\n      dup3\n      add\n      0x40\n      mstore\n      returndatasize\n      dup3\n      mstore\n      returndatasize\n      0x00\n      0x20\n      dup5\n      add\n      returndatacopy\n      jump(tag_114)\n    tag_115:\n      0x60\n      swap2\n      pop\n    tag_114:\n      pop\n        /* \".deps/studying-solidity/testament/Testament.sol\":4814:4924  (bool success, ) = msg.sender.call{... */\n      pop\n      swap1\n      pop\n        /* \".deps/studying-solidity/testament/Testament.sol\":4942:4949  success */\n      dup1\n        /* \".deps/studying-solidity/testament/Testament.sol\":4934:4992  require(success, \"cancelTestament(), Falha ao enviar ETH\") */\n      tag_116\n      jumpi\n      mload(0x40)\n      0x08c379a000000000000000000000000000000000000000000000000000000000\n      dup2\n      mstore\n      0x04\n      add\n      tag_117\n      swap1\n      tag_118\n      jump\t// in\n    tag_117:\n      mload(0x40)\n      dup1\n      swap2\n      sub\n      swap1\n      revert\n    tag_116:\n        /* \".deps/studying-solidity/testament/Testament.sol\":5003:5047  clearOldInheritorsOfTestament(_ownTestament) */\n      tag_119\n        /* \".deps/studying-solidity/testament/Testament.sol\":5033:5046  _ownTestament */\n      dup3\n        /* \".deps/studying-solidity/testament/Testament.sol\":5003:5032  clearOldInheritorsOfTestament */\n      tag_79\n        /* \".deps/studying-solidity/testament/Testament.sol\":5003:5047  clearOldInheritorsOfTestament(_ownTestament) */\n      jump\t// in\n    tag_119:\n        /* \".deps/studying-solidity/testament/Testament.sol\":5065:5074  testament */\n      0x00\n        /* \".deps/studying-solidity/testament/Testament.sol\":5065:5089  testament[_ownTestament] */\n      dup1\n        /* \".deps/studying-solidity/testament/Testament.sol\":5075:5088  _ownTestament */\n      dup4\n        /* \".deps/studying-solidity/testament/Testament.sol\":5065:5089  testament[_ownTestament] */\n      0xffffffffffffffffffffffffffffffffffffffff\n      and\n      0xffffffffffffffffffffffffffffffffffffffff\n      and\n      dup2\n      mstore\n      0x20\n      add\n      swap1\n      dup2\n      mstore\n      0x20\n      add\n      0x00\n      keccak256\n      0x00\n        /* \".deps/studying-solidity/testament/Testament.sol\":5058:5089  delete testament[_ownTestament] */\n      dup1\n      dup3\n      add\n      0x00\n      tag_120\n      swap2\n      swap1\n      tag_81\n      jump\t// in\n    tag_120:\n      0x01\n      dup3\n      add\n      exp(0x0100, 0x00)\n      dup2\n      sload\n      swap1\n      0xff\n      mul\n      not\n      and\n      swap1\n      sstore\n      0x01\n      dup3\n      add\n      exp(0x0100, 0x01)\n      dup2\n      sload\n      swap1\n      0xffffffffffffffffffffffffffffffff\n      mul\n      not\n      and\n      swap1\n      sstore\n      0x02\n      dup3\n      add\n      0x00\n      swap1\n      sstore\n      pop\n      pop\n        /* \".deps/studying-solidity/testament/Testament.sol\":4680:5096  {... */\n      pop\n      pop\n        /* \".deps/studying-solidity/testament/Testament.sol\":4644:5096  function cancelTestament() external {... */\n      jump\t// out\n        /* \".deps/studying-solidity/testament/Testament.sol\":7772:9074  function withdraw(address testator) external {... */\n    tag_29:\n        /* \".deps/studying-solidity/testament/Testament.sol\":7827:7845  address _inheritor */\n      0x00\n        /* \".deps/studying-solidity/testament/Testament.sol\":7848:7858  msg.sender */\n      caller\n        /* \".deps/studying-solidity/testament/Testament.sol\":7827:7858  address _inheritor = msg.sender */\n      swap1\n      pop\n        /* \".deps/studying-solidity/testament/Testament.sol\":7931:7962  inheritorsCanWithdraw(testator) */\n      tag_122\n        /* \".deps/studying-solidity/testament/Testament.sol\":7953:7961  testator */\n      dup3\n        /* \".deps/studying-solidity/testament/Testament.sol\":7931:7952  inheritorsCanWithdraw */\n      tag_68\n        /* \".deps/studying-solidity/testament/Testament.sol\":7931:7962  inheritorsCanWithdraw(testator) */\n      jump\t// in\n    tag_122:\n        /* \".deps/studying-solidity/testament/Testament.sol\":7910:8021  require(... */\n      tag_123\n      jumpi\n      mload(0x40)\n      0x08c379a000000000000000000000000000000000000000000000000000000000\n      dup2\n      mstore\n      0x04\n      add\n      tag_124\n      swap1\n      tag_125\n      jump\t// in\n    tag_124:\n      mload(0x40)\n      dup1\n      swap2\n      sub\n      swap1\n      revert\n    tag_123:\n        /* \".deps/studying-solidity/testament/Testament.sol\":8080:8081  0 */\n      0x00\n        /* \".deps/studying-solidity/testament/Testament.sol\":8040:8049  testament */\n      dup1\n        /* \".deps/studying-solidity/testament/Testament.sol\":8040:8059  testament[testator] */\n      0x00\n        /* \".deps/studying-solidity/testament/Testament.sol\":8050:8058  testator */\n      dup5\n        /* \".deps/studying-solidity/testament/Testament.sol\":8040:8059  testament[testator] */\n      0xffffffffffffffffffffffffffffffffffffffff\n      and\n      0xffffffffffffffffffffffffffffffffffffffff\n      and\n      dup2\n      mstore\n      0x20\n      add\n      swap1\n      dup2\n      mstore\n      0x20\n      add\n      0x00\n      keccak256\n        /* \".deps/studying-solidity/testament/Testament.sol\":8040:8070  testament[testator].inheritors */\n      0x00\n      add\n        /* \".deps/studying-solidity/testament/Testament.sol\":8040:8077  testament[testator].inheritors.length */\n      dup1\n      sload\n      swap1\n      pop\n        /* \".deps/studying-solidity/testament/Testament.sol\":8040:8081  testament[testator].inheritors.length > 0 */\n      gt\n        /* \".deps/studying-solidity/testament/Testament.sol\":8032:8103  require(testament[testator].inheritors.length > 0, \"nao tem herdeiros\") */\n      tag_126\n      jumpi\n      mload(0x40)\n      0x08c379a000000000000000000000000000000000000000000000000000000000\n      dup2\n      mstore\n      0x04\n      add\n      tag_127\n      swap1\n      tag_128\n      jump\t// in\n    tag_127:\n      mload(0x40)\n      dup1\n      swap2\n      sub\n      swap1\n      revert\n    tag_126:\n        /* \".deps/studying-solidity/testament/Testament.sol\":8119:8128  uint256 i */\n      0x00\n        /* \".deps/studying-solidity/testament/Testament.sol\":8114:9068  for (uint256 i = 0; i < testament[testator].inheritors.length; i++) {... */\n    tag_129:\n        /* \".deps/studying-solidity/testament/Testament.sol\":8138:8147  testament */\n      0x00\n        /* \".deps/studying-solidity/testament/Testament.sol\":8138:8157  testament[testator] */\n      dup1\n        /* \".deps/studying-solidity/testament/Testament.sol\":8148:8156  testator */\n      dup5\n        /* \".deps/studying-solidity/testament/Testament.sol\":8138:8157  testament[testator] */\n      0xffffffffffffffffffffffffffffffffffffffff\n      and\n      0xffffffffffffffffffffffffffffffffffffffff\n      and\n      dup2\n      mstore\n      0x20\n      add\n      swap1\n      dup2\n      mstore\n      0x20\n      add\n      0x00\n      keccak256\n        /* \".deps/studying-solidity/testament/Testament.sol\":8138:8168  testament[testator].inheritors */\n      0x00\n      add\n        /* \".deps/studying-solidity/testament/Testament.sol\":8138:8175  testament[testator].inheritors.length */\n      dup1\n      sload\n      swap1\n      pop\n        /* \".deps/studying-solidity/testament/Testament.sol\":8134:8135  i */\n      dup2\n        /* \".deps/studying-solidity/testament/Testament.sol\":8134:8175  i < testament[testator].inheritors.length */\n      lt\n        /* \".deps/studying-solidity/testament/Testament.sol\":8114:9068  for (uint256 i = 0; i < testament[testator].inheritors.length; i++) {... */\n      iszero\n      tag_130\n      jumpi\n        /* \".deps/studying-solidity/testament/Testament.sol\":8196:8234  Inheritor storage inheritorOfTestament */\n      0x00\n        /* \".deps/studying-solidity/testament/Testament.sol\":8237:8246  testament */\n      dup1\n        /* \".deps/studying-solidity/testament/Testament.sol\":8237:8256  testament[testator] */\n      0x00\n        /* \".deps/studying-solidity/testament/Testament.sol\":8247:8255  testator */\n      dup6\n        /* \".deps/studying-solidity/testament/Testament.sol\":8237:8256  testament[testator] */\n      0xffffffffffffffffffffffffffffffffffffffff\n      and\n      0xffffffffffffffffffffffffffffffffffffffff\n      and\n      dup2\n      mstore\n      0x20\n      add\n      swap1\n      dup2\n      mstore\n      0x20\n      add\n      0x00\n      keccak256\n        /* \".deps/studying-solidity/testament/Testament.sol\":8237:8284  testament[testator]... */\n      0x00\n      add\n        /* \".deps/studying-solidity/testament/Testament.sol\":8285:8286  i */\n      dup3\n        /* \".deps/studying-solidity/testament/Testament.sol\":8237:8287  testament[testator]... */\n      dup2\n      sload\n      dup2\n      lt\n      tag_132\n      jumpi\n      tag_133\n      tag_87\n      jump\t// in\n    tag_133:\n    tag_132:\n      swap1\n      0x00\n      mstore\n      keccak256(0x00, 0x20)\n      add\n        /* \".deps/studying-solidity/testament/Testament.sol\":8196:8287  Inheritor storage inheritorOfTestament = testament[testator]... */\n      swap1\n      pop\n        /* \".deps/studying-solidity/testament/Testament.sol\":8364:8374  _inheritor */\n      dup3\n        /* \".deps/studying-solidity/testament/Testament.sol\":8323:8374  inheritorOfTestament.inheritorAddress == _inheritor */\n      0xffffffffffffffffffffffffffffffffffffffff\n      and\n        /* \".deps/studying-solidity/testament/Testament.sol\":8323:8343  inheritorOfTestament */\n      dup2\n        /* \".deps/studying-solidity/testament/Testament.sol\":8323:8360  inheritorOfTestament.inheritorAddress */\n      0x00\n      add\n      0x00\n      swap1\n      sload\n      swap1\n      0x0100\n      exp\n      swap1\n      div\n      0xffffffffffffffffffffffffffffffffffffffff\n      and\n        /* \".deps/studying-solidity/testament/Testament.sol\":8323:8374  inheritorOfTestament.inheritorAddress == _inheritor */\n      0xffffffffffffffffffffffffffffffffffffffff\n      and\n      eq\n        /* \".deps/studying-solidity/testament/Testament.sol\":8323:8426  inheritorOfTestament.inheritorAddress == _inheritor &&... */\n      dup1\n      iszero\n      tag_135\n      jumpi\n      pop\n        /* \".deps/studying-solidity/testament/Testament.sol\":8394:8414  inheritorOfTestament */\n      dup1\n        /* \".deps/studying-solidity/testament/Testament.sol\":8394:8426  inheritorOfTestament.canWithdraw */\n      0x00\n      add\n      0x16\n      swap1\n      sload\n      swap1\n      0x0100\n      exp\n      swap1\n      div\n      0xff\n      and\n        /* \".deps/studying-solidity/testament/Testament.sol\":8323:8426  inheritorOfTestament.inheritorAddress == _inheritor &&... */\n    tag_135:\n        /* \".deps/studying-solidity/testament/Testament.sol\":8302:9058  if (... */\n      iszero\n      tag_136\n      jumpi\n        /* \".deps/studying-solidity/testament/Testament.sol\":8527:8528  0 */\n      0x00\n        /* \".deps/studying-solidity/testament/Testament.sol\":8488:8497  testament */\n      dup1\n        /* \".deps/studying-solidity/testament/Testament.sol\":8488:8507  testament[testator] */\n      0x00\n        /* \".deps/studying-solidity/testament/Testament.sol\":8498:8506  testator */\n      dup7\n        /* \".deps/studying-solidity/testament/Testament.sol\":8488:8507  testament[testator] */\n      0xffffffffffffffffffffffffffffffffffffffff\n      and\n      0xffffffffffffffffffffffffffffffffffffffff\n      and\n      dup2\n      mstore\n      0x20\n      add\n      swap1\n      dup2\n      mstore\n      0x20\n      add\n      0x00\n      keccak256\n        /* \".deps/studying-solidity/testament/Testament.sol\":8488:8524  testament[testator].inheritanceValue */\n      0x02\n      add\n      sload\n        /* \".deps/studying-solidity/testament/Testament.sol\":8488:8528  testament[testator].inheritanceValue > 0 */\n      gt\n        /* \".deps/studying-solidity/testament/Testament.sol\":8459:8597  require(... */\n      tag_137\n      jumpi\n      mload(0x40)\n      0x08c379a000000000000000000000000000000000000000000000000000000000\n      dup2\n      mstore\n      0x04\n      add\n      tag_138\n      swap1\n      tag_139\n      jump\t// in\n    tag_138:\n      mload(0x40)\n      dup1\n      swap2\n      sub\n      swap1\n      revert\n    tag_137:\n        /* \".deps/studying-solidity/testament/Testament.sol\":8617:8629  bool success */\n      0x00\n        /* \".deps/studying-solidity/testament/Testament.sol\":8664:8684  inheritorOfTestament */\n      dup2\n        /* \".deps/studying-solidity/testament/Testament.sol\":8664:8701  inheritorOfTestament.inheritorAddress */\n      0x00\n      add\n      0x00\n      swap1\n      sload\n      swap1\n      0x0100\n      exp\n      swap1\n      div\n      0xffffffffffffffffffffffffffffffffffffffff\n      and\n        /* \".deps/studying-solidity/testament/Testament.sol\":8635:8724  payable(... */\n      0xffffffffffffffffffffffffffffffffffffffff\n      and\n        /* \".deps/studying-solidity/testament/Testament.sol\":8853:8858  10000 */\n      0x2710\n        /* \".deps/studying-solidity/testament/Testament.sol\":8818:8838  inheritorOfTestament */\n      dup4\n        /* \".deps/studying-solidity/testament/Testament.sol\":8818:8849  inheritorOfTestament.percentage */\n      0x00\n      add\n      0x14\n      swap1\n      sload\n      swap1\n      0x0100\n      exp\n      swap1\n      div\n      0xffff\n      and\n        /* \".deps/studying-solidity/testament/Testament.sol\":8755:8849  testament[testator].inheritanceValue *... */\n      0xffff\n      and\n        /* \".deps/studying-solidity/testament/Testament.sol\":8755:8764  testament */\n      0x00\n        /* \".deps/studying-solidity/testament/Testament.sol\":8755:8774  testament[testator] */\n      dup1\n        /* \".deps/studying-solidity/testament/Testament.sol\":8765:8773  testator */\n      dup10\n        /* \".deps/studying-solidity/testament/Testament.sol\":8755:8774  testament[testator] */\n      0xffffffffffffffffffffffffffffffffffffffff\n      and\n      0xffffffffffffffffffffffffffffffffffffffff\n      and\n      dup2\n      mstore\n      0x20\n      add\n      swap1\n      dup2\n      mstore\n      0x20\n      add\n      0x00\n      keccak256\n        /* \".deps/studying-solidity/testament/Testament.sol\":8755:8791  testament[testator].inheritanceValue */\n      0x02\n      add\n      sload\n        /* \".deps/studying-solidity/testament/Testament.sol\":8755:8849  testament[testator].inheritanceValue *... */\n      tag_140\n      swap2\n      swap1\n      tag_141\n      jump\t// in\n    tag_140:\n        /* \".deps/studying-solidity/testament/Testament.sol\":8754:8858  (testament[testator].inheritanceValue *... */\n      tag_142\n      swap2\n      swap1\n      tag_143\n      jump\t// in\n    tag_142:\n        /* \".deps/studying-solidity/testament/Testament.sol\":8635:8881  payable(... */\n      mload(0x40)\n      tag_144\n      swap1\n      tag_112\n      jump\t// in\n    tag_144:\n      0x00\n      mload(0x40)\n      dup1\n      dup4\n      sub\n      dup2\n      dup6\n      dup8\n      gas\n      call\n      swap3\n      pop\n      pop\n      pop\n      returndatasize\n      dup1\n      0x00\n      dup2\n      eq\n      tag_147\n      jumpi\n      mload(0x40)\n      swap2\n      pop\n      and(add(returndatasize, 0x3f), not(0x1f))\n      dup3\n      add\n      0x40\n      mstore\n      returndatasize\n      dup3\n      mstore\n      returndatasize\n      0x00\n      0x20\n      dup5\n      add\n      returndatacopy\n      jump(tag_146)\n    tag_147:\n      0x60\n      swap2\n      pop\n    tag_146:\n      pop\n        /* \".deps/studying-solidity/testament/Testament.sol\":8616:8881  (bool success, ) = payable(... */\n      pop\n      swap1\n      pop\n        /* \".deps/studying-solidity/testament/Testament.sol\":8908:8915  success */\n      dup1\n        /* \".deps/studying-solidity/testament/Testament.sol\":8900:8939  require(success, \"Falha ao enviar ETH\") */\n      tag_148\n      jumpi\n      mload(0x40)\n      0x08c379a000000000000000000000000000000000000000000000000000000000\n      dup2\n      mstore\n      0x04\n      add\n      tag_149\n      swap1\n      tag_150\n      jump\t// in\n    tag_149:\n      mload(0x40)\n      dup1\n      swap2\n      sub\n      swap1\n      revert\n    tag_148:\n        /* \".deps/studying-solidity/testament/Testament.sol\":8992:8997  false */\n      0x00\n        /* \".deps/studying-solidity/testament/Testament.sol\":8957:8977  inheritorOfTestament */\n      dup3\n        /* \".deps/studying-solidity/testament/Testament.sol\":8957:8989  inheritorOfTestament.canWithdraw */\n      0x00\n      add\n      0x16\n        /* \".deps/studying-solidity/testament/Testament.sol\":8957:8997  inheritorOfTestament.canWithdraw = false */\n      0x0100\n      exp\n      dup2\n      sload\n      dup2\n      0xff\n      mul\n      not\n      and\n      swap1\n      dup4\n      iszero\n      iszero\n      mul\n      or\n      swap1\n      sstore\n      pop\n        /* \".deps/studying-solidity/testament/Testament.sol\":8441:9058  {... */\n      pop\n        /* \".deps/studying-solidity/testament/Testament.sol\":8302:9058  if (... */\n    tag_136:\n        /* \".deps/studying-solidity/testament/Testament.sol\":8182:9068  {... */\n      pop\n        /* \".deps/studying-solidity/testament/Testament.sol\":8177:8180  i++ */\n      dup1\n      dup1\n      0x01\n      add\n      swap2\n      pop\n      pop\n        /* \".deps/studying-solidity/testament/Testament.sol\":8114:9068  for (uint256 i = 0; i < testament[testator].inheritors.length; i++) {... */\n      jump(tag_129)\n    tag_130:\n      pop\n        /* \".deps/studying-solidity/testament/Testament.sol\":7817:9074  {... */\n      pop\n        /* \".deps/studying-solidity/testament/Testament.sol\":7772:9074  function withdraw(address testator) external {... */\n      pop\n      jump\t// out\n        /* \".deps/studying-solidity/testament/Testament.sol\":308:365  mapping(address => address[]) public inheritorToTestators */\n    tag_34:\n      mstore(0x20, 0x01)\n      dup2\n      0x00\n      mstore\n      keccak256(0x00, 0x40)\n      dup2\n      dup2\n      sload\n      dup2\n      lt\n      tag_151\n      jumpi\n      0x00\n      dup1\n      revert\n    tag_151:\n      swap1\n      0x00\n      mstore\n      keccak256(0x00, 0x20)\n      add\n      0x00\n      swap2\n      pop\n      swap2\n      pop\n      swap1\n      sload\n      swap1\n      0x0100\n      exp\n      swap1\n      div\n      0xffffffffffffffffffffffffffffffffffffffff\n      and\n      dup2\n      jump\t// out\n        /* \".deps/studying-solidity/testament/Testament.sol\":7261:7740  function removeAssetsInTestament(uint256 value) external {... */\n    tag_41:\n        /* \".deps/studying-solidity/testament/Testament.sol\":7349:7358  testament */\n      0x00\n        /* \".deps/studying-solidity/testament/Testament.sol\":7349:7370  testament[msg.sender] */\n      dup1\n        /* \".deps/studying-solidity/testament/Testament.sol\":7359:7369  msg.sender */\n      caller\n        /* \".deps/studying-solidity/testament/Testament.sol\":7349:7370  testament[msg.sender] */\n      0xffffffffffffffffffffffffffffffffffffffff\n      and\n      0xffffffffffffffffffffffffffffffffffffffff\n      and\n      dup2\n      mstore\n      0x20\n      add\n      swap1\n      dup2\n      mstore\n      0x20\n      add\n      0x00\n      keccak256\n        /* \".deps/studying-solidity/testament/Testament.sol\":7349:7376  testament[msg.sender].exist */\n      0x01\n      add\n      0x00\n      swap1\n      sload\n      swap1\n      0x0100\n      exp\n      swap1\n      div\n      0xff\n      and\n        /* \".deps/studying-solidity/testament/Testament.sol\":7328:7435  require(... */\n      tag_154\n      jumpi\n      mload(0x40)\n      0x08c379a000000000000000000000000000000000000000000000000000000000\n      dup2\n      mstore\n      0x04\n      add\n      tag_155\n      swap1\n      tag_101\n      jump\t// in\n    tag_155:\n      mload(0x40)\n      dup1\n      swap2\n      sub\n      swap1\n      revert\n    tag_154:\n        /* \".deps/studying-solidity/testament/Testament.sol\":7475:7484  testament */\n      0x00\n        /* \".deps/studying-solidity/testament/Testament.sol\":7475:7496  testament[msg.sender] */\n      dup1\n        /* \".deps/studying-solidity/testament/Testament.sol\":7485:7495  msg.sender */\n      caller\n        /* \".deps/studying-solidity/testament/Testament.sol\":7475:7496  testament[msg.sender] */\n      0xffffffffffffffffffffffffffffffffffffffff\n      and\n      0xffffffffffffffffffffffffffffffffffffffff\n      and\n      dup2\n      mstore\n      0x20\n      add\n      swap1\n      dup2\n      mstore\n      0x20\n      add\n      0x00\n      keccak256\n        /* \".deps/studying-solidity/testament/Testament.sol\":7475:7513  testament[msg.sender].inheritanceValue */\n      0x02\n      add\n      sload\n        /* \".deps/studying-solidity/testament/Testament.sol\":7466:7471  value */\n      dup2\n        /* \".deps/studying-solidity/testament/Testament.sol\":7466:7513  value <= testament[msg.sender].inheritanceValue */\n      gt\n      iszero\n        /* \".deps/studying-solidity/testament/Testament.sol\":7445:7564  require(... */\n      tag_156\n      jumpi\n      mload(0x40)\n      0x08c379a000000000000000000000000000000000000000000000000000000000\n      dup2\n      mstore\n      0x04\n      add\n      tag_157\n      swap1\n      tag_158\n      jump\t// in\n    tag_157:\n      mload(0x40)\n      dup1\n      swap2\n      sub\n      swap1\n      revert\n    tag_156:\n        /* \".deps/studying-solidity/testament/Testament.sol\":7576:7588  bool success */\n      0x00\n        /* \".deps/studying-solidity/testament/Testament.sol\":7602:7612  msg.sender */\n      caller\n        /* \".deps/studying-solidity/testament/Testament.sol\":7594:7618  payable(msg.sender).call */\n      0xffffffffffffffffffffffffffffffffffffffff\n      and\n        /* \".deps/studying-solidity/testament/Testament.sol\":7626:7631  value */\n      dup3\n        /* \".deps/studying-solidity/testament/Testament.sol\":7594:7636  payable(msg.sender).call{value: value}(\"\") */\n      mload(0x40)\n      tag_159\n      swap1\n      tag_112\n      jump\t// in\n    tag_159:\n      0x00\n      mload(0x40)\n      dup1\n      dup4\n      sub\n      dup2\n      dup6\n      dup8\n      gas\n      call\n      swap3\n      pop\n      pop\n      pop\n      returndatasize\n      dup1\n      0x00\n      dup2\n      eq\n      tag_162\n      jumpi\n      mload(0x40)\n      swap2\n      pop\n      and(add(returndatasize, 0x3f), not(0x1f))\n      dup3\n      add\n      0x40\n      mstore\n      returndatasize\n      dup3\n      mstore\n      returndatasize\n      0x00\n      0x20\n      dup5\n      add\n      returndatacopy\n      jump(tag_161)\n    tag_162:\n      0x60\n      swap2\n      pop\n    tag_161:\n      pop\n        /* \".deps/studying-solidity/testament/Testament.sol\":7575:7636  (bool success, ) = payable(msg.sender).call{value: value}(\"\") */\n      pop\n      swap1\n      pop\n        /* \".deps/studying-solidity/testament/Testament.sol\":7655:7662  success */\n      dup1\n        /* \".deps/studying-solidity/testament/Testament.sol\":7647:7676  require(success, \"nao tirou\") */\n      tag_163\n      jumpi\n      mload(0x40)\n      0x08c379a000000000000000000000000000000000000000000000000000000000\n      dup2\n      mstore\n      0x04\n      add\n      tag_164\n      swap1\n      tag_165\n      jump\t// in\n    tag_164:\n      mload(0x40)\n      dup1\n      swap2\n      sub\n      swap1\n      revert\n    tag_163:\n        /* \".deps/studying-solidity/testament/Testament.sol\":7728:7733  value */\n      dup2\n        /* \".deps/studying-solidity/testament/Testament.sol\":7686:7695  testament */\n      0x00\n        /* \".deps/studying-solidity/testament/Testament.sol\":7686:7707  testament[msg.sender] */\n      dup1\n        /* \".deps/studying-solidity/testament/Testament.sol\":7696:7706  msg.sender */\n      caller\n        /* \".deps/studying-solidity/testament/Testament.sol\":7686:7707  testament[msg.sender] */\n      0xffffffffffffffffffffffffffffffffffffffff\n      and\n      0xffffffffffffffffffffffffffffffffffffffff\n      and\n      dup2\n      mstore\n      0x20\n      add\n      swap1\n      dup2\n      mstore\n      0x20\n      add\n      0x00\n      keccak256\n        /* \".deps/studying-solidity/testament/Testament.sol\":7686:7724  testament[msg.sender].inheritanceValue */\n      0x02\n      add\n      0x00\n        /* \".deps/studying-solidity/testament/Testament.sol\":7686:7733  testament[msg.sender].inheritanceValue -= value */\n      dup3\n      dup3\n      sload\n      tag_166\n      swap2\n      swap1\n      tag_167\n      jump\t// in\n    tag_166:\n      swap3\n      pop\n      pop\n      dup2\n      swap1\n      sstore\n      pop\n        /* \".deps/studying-solidity/testament/Testament.sol\":7318:7740  {... */\n      pop\n        /* \".deps/studying-solidity/testament/Testament.sol\":7261:7740  function removeAssetsInTestament(uint256 value) external {... */\n      pop\n      jump\t// out\n        /* \".deps/studying-solidity/testament/Testament.sol\":188:234  mapping(address => Testament) public testament */\n    tag_45:\n      mstore(0x20, 0x00)\n      dup1\n      0x00\n      mstore\n      keccak256(0x00, 0x40)\n      0x00\n      swap2\n      pop\n      swap1\n      pop\n      dup1\n      0x01\n      add\n      0x00\n      swap1\n      sload\n      swap1\n      0x0100\n      exp\n      swap1\n      div\n      0xff\n      and\n      swap1\n      dup1\n      0x01\n      add\n      0x01\n      swap1\n      sload\n      swap1\n      0x0100\n      exp\n      swap1\n      div\n      0xffffffffffffffffffffffffffffffff\n      and\n      swap1\n      dup1\n      0x02\n      add\n      sload\n      swap1\n      pop\n      dup4\n      jump\t// out\n        /* \".deps/studying-solidity/testament/Testament.sol\":1832:3037  function getMyTestament(address testator)... */\n    tag_51:\n        /* \".deps/studying-solidity/testament/Testament.sol\":1934:1950  address[] memory */\n      0x60\n        /* \".deps/studying-solidity/testament/Testament.sol\":1964:1979  uint16[] memory */\n      dup1\n        /* \".deps/studying-solidity/testament/Testament.sol\":1993:2006  bool[] memory */\n      0x60\n        /* \".deps/studying-solidity/testament/Testament.sol\":2020:2027  uint128 */\n      0x00\n        /* \".deps/studying-solidity/testament/Testament.sol\":2041:2048  uint256 */\n      dup1\n        /* \".deps/studying-solidity/testament/Testament.sol\":2073:2099  Testament memory _testator */\n      0x00\n        /* \".deps/studying-solidity/testament/Testament.sol\":2102:2111  testament */\n      dup1\n        /* \".deps/studying-solidity/testament/Testament.sol\":2102:2121  testament[testator] */\n      0x00\n        /* \".deps/studying-solidity/testament/Testament.sol\":2112:2120  testator */\n      dup9\n        /* \".deps/studying-solidity/testament/Testament.sol\":2102:2121  testament[testator] */\n      0xffffffffffffffffffffffffffffffffffffffff\n      and\n      0xffffffffffffffffffffffffffffffffffffffff\n      and\n      dup2\n      mstore\n      0x20\n      add\n      swap1\n      dup2\n      mstore\n      0x20\n      add\n      0x00\n      keccak256\n        /* \".deps/studying-solidity/testament/Testament.sol\":2073:2121  Testament memory _testator = testament[testator] */\n      mload(0x40)\n      dup1\n      0x80\n      add\n      0x40\n      mstore\n      swap1\n      dup2\n      0x00\n      dup3\n      add\n      dup1\n      sload\n      dup1\n      0x20\n      mul\n      0x20\n      add\n      mload(0x40)\n      swap1\n      dup2\n      add\n      0x40\n      mstore\n      dup1\n      swap3\n      swap2\n      swap1\n      dup2\n      dup2\n      mstore\n      0x20\n      add\n      0x00\n      swap1\n    tag_169:\n      dup3\n      dup3\n      lt\n      iszero\n      tag_170\n      jumpi\n      dup4\n      dup3\n      swap1\n      0x00\n      mstore\n      keccak256(0x00, 0x20)\n      add\n      mload(0x40)\n      dup1\n      0x60\n      add\n      0x40\n      mstore\n      swap1\n      dup2\n      0x00\n      dup3\n      add\n      0x00\n      swap1\n      sload\n      swap1\n      0x0100\n      exp\n      swap1\n      div\n      0xffffffffffffffffffffffffffffffffffffffff\n      and\n      0xffffffffffffffffffffffffffffffffffffffff\n      and\n      0xffffffffffffffffffffffffffffffffffffffff\n      and\n      dup2\n      mstore\n      0x20\n      add\n      0x00\n      dup3\n      add\n      0x14\n      swap1\n      sload\n      swap1\n      0x0100\n      exp\n      swap1\n      div\n      0xffff\n      and\n      0xffff\n      and\n      0xffff\n      and\n      dup2\n      mstore\n      0x20\n      add\n      0x00\n      dup3\n      add\n      0x16\n      swap1\n      sload\n      swap1\n      0x0100\n      exp\n      swap1\n      div\n      0xff\n      and\n      iszero\n      iszero\n      iszero\n      iszero\n      dup2\n      mstore\n      pop\n      pop\n      dup2\n      mstore\n      0x20\n      add\n      swap1\n      0x01\n      add\n      swap1\n      jump(tag_169)\n    tag_170:\n      pop\n      pop\n      pop\n      pop\n      dup2\n      mstore\n      0x20\n      add\n      0x01\n      dup3\n      add\n      0x00\n      swap1\n      sload\n      swap1\n      0x0100\n      exp\n      swap1\n      div\n      0xff\n      and\n      iszero\n      iszero\n      iszero\n      iszero\n      dup2\n      mstore\n      0x20\n      add\n      0x01\n      dup3\n      add\n      0x01\n      swap1\n      sload\n      swap1\n      0x0100\n      exp\n      swap1\n      div\n      0xffffffffffffffffffffffffffffffff\n      and\n      0xffffffffffffffffffffffffffffffff\n      and\n      0xffffffffffffffffffffffffffffffff\n      and\n      dup2\n      mstore\n      0x20\n      add\n      0x02\n      dup3\n      add\n      sload\n      dup2\n      mstore\n      pop\n      pop\n      swap1\n      pop\n        /* \".deps/studying-solidity/testament/Testament.sol\":2140:2149  _testator */\n      dup1\n        /* \".deps/studying-solidity/testament/Testament.sol\":2140:2155  _testator.exist */\n      0x20\n      add\n      mload\n        /* \".deps/studying-solidity/testament/Testament.sol\":2132:2183  require(_testator.exist, \"Testador nao encontrado\") */\n      tag_172\n      jumpi\n      mload(0x40)\n      0x08c379a000000000000000000000000000000000000000000000000000000000\n      dup2\n      mstore\n      0x04\n      add\n      tag_173\n      swap1\n      tag_174\n      jump\t// in\n    tag_173:\n      mload(0x40)\n      dup1\n      swap2\n      sub\n      swap1\n      revert\n    tag_172:\n        /* \".deps/studying-solidity/testament/Testament.sol\":2194:2230  address[] memory _inheritorAddresses */\n      0x00\n        /* \".deps/studying-solidity/testament/Testament.sol\":2260:2269  _testator */\n      dup2\n        /* \".deps/studying-solidity/testament/Testament.sol\":2260:2280  _testator.inheritors */\n      0x00\n      add\n      mload\n        /* \".deps/studying-solidity/testament/Testament.sol\":2260:2287  _testator.inheritors.length */\n      mload\n        /* \".deps/studying-solidity/testament/Testament.sol\":2233:2297  new address[](... */\n      0xffffffffffffffff\n      dup2\n      gt\n      iszero\n      tag_175\n      jumpi\n      tag_176\n      tag_177\n      jump\t// in\n    tag_176:\n    tag_175:\n      mload(0x40)\n      swap1\n      dup1\n      dup3\n      mstore\n      dup1\n      0x20\n      mul\n      0x20\n      add\n      dup3\n      add\n      0x40\n      mstore\n      dup1\n      iszero\n      tag_178\n      jumpi\n      dup2\n      0x20\n      add\n      0x20\n      dup3\n      mul\n      dup1\n      calldatasize\n      dup4\n      calldatacopy\n      dup1\n      dup3\n      add\n      swap2\n      pop\n      pop\n      swap1\n      pop\n    tag_178:\n      pop\n        /* \".deps/studying-solidity/testament/Testament.sol\":2194:2297  address[] memory _inheritorAddresses = new address[](... */\n      swap1\n      pop\n        /* \".deps/studying-solidity/testament/Testament.sol\":2308:2336  uint16[] memory _percentages */\n      0x00\n        /* \".deps/studying-solidity/testament/Testament.sol\":2365:2374  _testator */\n      dup3\n        /* \".deps/studying-solidity/testament/Testament.sol\":2365:2385  _testator.inheritors */\n      0x00\n      add\n      mload\n        /* \".deps/studying-solidity/testament/Testament.sol\":2365:2392  _testator.inheritors.length */\n      mload\n        /* \".deps/studying-solidity/testament/Testament.sol\":2339:2402  new uint16[](... */\n      0xffffffffffffffff\n      dup2\n      gt\n      iszero\n      tag_179\n      jumpi\n      tag_180\n      tag_177\n      jump\t// in\n    tag_180:\n    tag_179:\n      mload(0x40)\n      swap1\n      dup1\n      dup3\n      mstore\n      dup1\n      0x20\n      mul\n      0x20\n      add\n      dup3\n      add\n      0x40\n      mstore\n      dup1\n      iszero\n      tag_181\n      jumpi\n      dup2\n      0x20\n      add\n      0x20\n      dup3\n      mul\n      dup1\n      calldatasize\n      dup4\n      calldatacopy\n      dup1\n      dup3\n      add\n      swap2\n      pop\n      pop\n      swap1\n      pop\n    tag_181:\n      pop\n        /* \".deps/studying-solidity/testament/Testament.sol\":2308:2402  uint16[] memory _percentages = new uint16[](... */\n      swap1\n      pop\n        /* \".deps/studying-solidity/testament/Testament.sol\":2413:2441  bool[] memory _canWithdrawal */\n      0x00\n        /* \".deps/studying-solidity/testament/Testament.sol\":2455:2464  _testator */\n      dup4\n        /* \".deps/studying-solidity/testament/Testament.sol\":2455:2475  _testator.inheritors */\n      0x00\n      add\n      mload\n        /* \".deps/studying-solidity/testament/Testament.sol\":2455:2482  _testator.inheritors.length */\n      mload\n        /* \".deps/studying-solidity/testament/Testament.sol\":2444:2483  new bool[](_testator.inheritors.length) */\n      0xffffffffffffffff\n      dup2\n      gt\n      iszero\n      tag_182\n      jumpi\n      tag_183\n      tag_177\n      jump\t// in\n    tag_183:\n    tag_182:\n      mload(0x40)\n      swap1\n      dup1\n      dup3\n      mstore\n      dup1\n      0x20\n      mul\n      0x20\n      add\n      dup3\n      add\n      0x40\n      mstore\n      dup1\n      iszero\n      tag_184\n      jumpi\n      dup2\n      0x20\n      add\n      0x20\n      dup3\n      mul\n      dup1\n      calldatasize\n      dup4\n      calldatacopy\n      dup1\n      dup3\n      add\n      swap2\n      pop\n      pop\n      swap1\n      pop\n    tag_184:\n      pop\n        /* \".deps/studying-solidity/testament/Testament.sol\":2413:2483  bool[] memory _canWithdrawal = new bool[](_testator.inheritors.length) */\n      swap1\n      pop\n        /* \".deps/studying-solidity/testament/Testament.sol\":2499:2507  uint64 i */\n      0x00\n        /* \".deps/studying-solidity/testament/Testament.sol\":2494:2837  for (uint64 i = 0; i < _testator.inheritors.length; i++) {... */\n    tag_185:\n        /* \".deps/studying-solidity/testament/Testament.sol\":2517:2526  _testator */\n      dup5\n        /* \".deps/studying-solidity/testament/Testament.sol\":2517:2537  _testator.inheritors */\n      0x00\n      add\n      mload\n        /* \".deps/studying-solidity/testament/Testament.sol\":2517:2544  _testator.inheritors.length */\n      mload\n        /* \".deps/studying-solidity/testament/Testament.sol\":2513:2514  i */\n      dup2\n        /* \".deps/studying-solidity/testament/Testament.sol\":2513:2544  i < _testator.inheritors.length */\n      0xffffffffffffffff\n      and\n      lt\n        /* \".deps/studying-solidity/testament/Testament.sol\":2494:2837  for (uint64 i = 0; i < _testator.inheritors.length; i++) {... */\n      iszero\n      tag_186\n      jumpi\n        /* \".deps/studying-solidity/testament/Testament.sol\":2565:2599  Inheritor memory _currentInheritor */\n      0x00\n        /* \".deps/studying-solidity/testament/Testament.sol\":2602:2611  _testator */\n      dup6\n        /* \".deps/studying-solidity/testament/Testament.sol\":2602:2622  _testator.inheritors */\n      0x00\n      add\n      mload\n        /* \".deps/studying-solidity/testament/Testament.sol\":2623:2624  i */\n      dup3\n        /* \".deps/studying-solidity/testament/Testament.sol\":2602:2625  _testator.inheritors[i] */\n      0xffffffffffffffff\n      and\n      dup2\n      mload\n      dup2\n      lt\n      tag_188\n      jumpi\n      tag_189\n      tag_87\n      jump\t// in\n    tag_189:\n    tag_188:\n      0x20\n      mul\n      0x20\n      add\n      add\n      mload\n        /* \".deps/studying-solidity/testament/Testament.sol\":2565:2625  Inheritor memory _currentInheritor = _testator.inheritors[i] */\n      swap1\n      pop\n        /* \".deps/studying-solidity/testament/Testament.sol\":2666:2683  _currentInheritor */\n      dup1\n        /* \".deps/studying-solidity/testament/Testament.sol\":2666:2700  _currentInheritor.inheritorAddress */\n      0x00\n      add\n      mload\n        /* \".deps/studying-solidity/testament/Testament.sol\":2640:2659  _inheritorAddresses */\n      dup6\n        /* \".deps/studying-solidity/testament/Testament.sol\":2660:2661  i */\n      dup4\n        /* \".deps/studying-solidity/testament/Testament.sol\":2640:2662  _inheritorAddresses[i] */\n      0xffffffffffffffff\n      and\n      dup2\n      mload\n      dup2\n      lt\n      tag_190\n      jumpi\n      tag_191\n      tag_87\n      jump\t// in\n    tag_191:\n    tag_190:\n      0x20\n      mul\n      0x20\n      add\n      add\n        /* \".deps/studying-solidity/testament/Testament.sol\":2640:2701  _inheritorAddresses[i] = (_currentInheritor.inheritorAddress) */\n      swap1\n      0xffffffffffffffffffffffffffffffffffffffff\n      and\n      swap1\n      dup2\n      0xffffffffffffffffffffffffffffffffffffffff\n      and\n      dup2\n      mstore\n      pop\n      pop\n        /* \".deps/studying-solidity/testament/Testament.sol\":2734:2751  _currentInheritor */\n      dup1\n        /* \".deps/studying-solidity/testament/Testament.sol\":2734:2762  _currentInheritor.percentage */\n      0x20\n      add\n      mload\n        /* \".deps/studying-solidity/testament/Testament.sol\":2715:2727  _percentages */\n      dup5\n        /* \".deps/studying-solidity/testament/Testament.sol\":2728:2729  i */\n      dup4\n        /* \".deps/studying-solidity/testament/Testament.sol\":2715:2730  _percentages[i] */\n      0xffffffffffffffff\n      and\n      dup2\n      mload\n      dup2\n      lt\n      tag_192\n      jumpi\n      tag_193\n      tag_87\n      jump\t// in\n    tag_193:\n    tag_192:\n      0x20\n      mul\n      0x20\n      add\n      add\n        /* \".deps/studying-solidity/testament/Testament.sol\":2715:2763  _percentages[i] = (_currentInheritor.percentage) */\n      swap1\n      0xffff\n      and\n      swap1\n      dup2\n      0xffff\n      and\n      dup2\n      mstore\n      pop\n      pop\n        /* \".deps/studying-solidity/testament/Testament.sol\":2797:2814  _currentInheritor */\n      dup1\n        /* \".deps/studying-solidity/testament/Testament.sol\":2797:2826  _currentInheritor.canWithdraw */\n      0x40\n      add\n      mload\n        /* \".deps/studying-solidity/testament/Testament.sol\":2777:2791  _canWithdrawal */\n      dup4\n        /* \".deps/studying-solidity/testament/Testament.sol\":2792:2793  i */\n      dup4\n        /* \".deps/studying-solidity/testament/Testament.sol\":2777:2794  _canWithdrawal[i] */\n      0xffffffffffffffff\n      and\n      dup2\n      mload\n      dup2\n      lt\n      tag_194\n      jumpi\n      tag_195\n      tag_87\n      jump\t// in\n    tag_195:\n    tag_194:\n      0x20\n      mul\n      0x20\n      add\n      add\n        /* \".deps/studying-solidity/testament/Testament.sol\":2777:2826  _canWithdrawal[i] = _currentInheritor.canWithdraw */\n      swap1\n      iszero\n      iszero\n      swap1\n      dup2\n      iszero\n      iszero\n      dup2\n      mstore\n      pop\n      pop\n        /* \".deps/studying-solidity/testament/Testament.sol\":2551:2837  {... */\n      pop\n        /* \".deps/studying-solidity/testament/Testament.sol\":2546:2549  i++ */\n      dup1\n      dup1\n      tag_196\n      swap1\n      tag_197\n      jump\t// in\n    tag_196:\n      swap2\n      pop\n      pop\n        /* \".deps/studying-solidity/testament/Testament.sol\":2494:2837  for (uint64 i = 0; i < _testator.inheritors.length; i++) {... */\n      jump(tag_185)\n    tag_186:\n      pop\n        /* \".deps/studying-solidity/testament/Testament.sol\":2868:2887  _inheritorAddresses */\n      dup3\n        /* \".deps/studying-solidity/testament/Testament.sol\":2901:2913  _percentages */\n      dup3\n        /* \".deps/studying-solidity/testament/Testament.sol\":2927:2941  _canWithdrawal */\n      dup3\n        /* \".deps/studying-solidity/testament/Testament.sol\":2955:2964  _testator */\n      dup7\n        /* \".deps/studying-solidity/testament/Testament.sol\":2955:2980  _testator.lastProofOfLife */\n      0x40\n      add\n      mload\n        /* \".deps/studying-solidity/testament/Testament.sol\":2994:3003  _testator */\n      dup8\n        /* \".deps/studying-solidity/testament/Testament.sol\":2994:3020  _testator.inheritanceValue */\n      0x60\n      add\n      mload\n        /* \".deps/studying-solidity/testament/Testament.sol\":2847:3030  return (... */\n      swap9\n      pop\n      swap9\n      pop\n      swap9\n      pop\n      swap9\n      pop\n      swap9\n      pop\n      pop\n      pop\n      pop\n      pop\n        /* \".deps/studying-solidity/testament/Testament.sol\":1832:3037  function getMyTestament(address testator)... */\n      swap2\n      swap4\n      swap6\n      swap1\n      swap3\n      swap5\n      pop\n      jump\t// out\n        /* \".deps/studying-solidity/testament/Testament.sol\":5102:5363  function updateProofOfLife() public {... */\n    tag_56:\n        /* \".deps/studying-solidity/testament/Testament.sol\":5148:5159  address own */\n      0x00\n        /* \".deps/studying-solidity/testament/Testament.sol\":5162:5172  msg.sender */\n      caller\n        /* \".deps/studying-solidity/testament/Testament.sol\":5148:5172  address own = msg.sender */\n      swap1\n      pop\n        /* \".deps/studying-solidity/testament/Testament.sol\":5203:5212  testament */\n      0x00\n        /* \".deps/studying-solidity/testament/Testament.sol\":5203:5217  testament[own] */\n      dup1\n        /* \".deps/studying-solidity/testament/Testament.sol\":5213:5216  own */\n      dup3\n        /* \".deps/studying-solidity/testament/Testament.sol\":5203:5217  testament[own] */\n      0xffffffffffffffffffffffffffffffffffffffff\n      and\n      0xffffffffffffffffffffffffffffffffffffffff\n      and\n      dup2\n      mstore\n      0x20\n      add\n      swap1\n      dup2\n      mstore\n      0x20\n      add\n      0x00\n      keccak256\n        /* \".deps/studying-solidity/testament/Testament.sol\":5203:5223  testament[own].exist */\n      0x01\n      add\n      0x00\n      swap1\n      sload\n      swap1\n      0x0100\n      exp\n      swap1\n      div\n      0xff\n      and\n        /* \".deps/studying-solidity/testament/Testament.sol\":5182:5289  require(... */\n      tag_199\n      jumpi\n      mload(0x40)\n      0x08c379a000000000000000000000000000000000000000000000000000000000\n      dup2\n      mstore\n      0x04\n      add\n      tag_200\n      swap1\n      tag_201\n      jump\t// in\n    tag_200:\n      mload(0x40)\n      dup1\n      swap2\n      sub\n      swap1\n      revert\n    tag_199:\n        /* \".deps/studying-solidity/testament/Testament.sol\":5340:5355  block.timestamp */\n      timestamp\n        /* \".deps/studying-solidity/testament/Testament.sol\":5299:5308  testament */\n      0x00\n        /* \".deps/studying-solidity/testament/Testament.sol\":5299:5313  testament[own] */\n      dup1\n        /* \".deps/studying-solidity/testament/Testament.sol\":5309:5312  own */\n      dup4\n        /* \".deps/studying-solidity/testament/Testament.sol\":5299:5313  testament[own] */\n      0xffffffffffffffffffffffffffffffffffffffff\n      and\n      0xffffffffffffffffffffffffffffffffffffffff\n      and\n      dup2\n      mstore\n      0x20\n      add\n      swap1\n      dup2\n      mstore\n      0x20\n      add\n      0x00\n      keccak256\n        /* \".deps/studying-solidity/testament/Testament.sol\":5299:5329  testament[own].lastProofOfLife */\n      0x01\n      add\n      0x01\n        /* \".deps/studying-solidity/testament/Testament.sol\":5299:5356  testament[own].lastProofOfLife = uint128(block.timestamp) */\n      0x0100\n      exp\n      dup2\n      sload\n      dup2\n      0xffffffffffffffffffffffffffffffff\n      mul\n      not\n      and\n      swap1\n      dup4\n      0xffffffffffffffffffffffffffffffff\n      and\n      mul\n      or\n      swap1\n      sstore\n      pop\n        /* \".deps/studying-solidity/testament/Testament.sol\":5138:5363  {... */\n      pop\n        /* \".deps/studying-solidity/testament/Testament.sol\":5102:5363  function updateProofOfLife() public {... */\n      jump\t// out\n        /* \".deps/studying-solidity/testament/Testament.sol\":3043:3423  function getMyTestators() external view returns (address[] memory) {... */\n    tag_59:\n        /* \".deps/studying-solidity/testament/Testament.sol\":3092:3108  address[] memory */\n      0x60\n        /* \".deps/studying-solidity/testament/Testament.sol\":3120:3138  address _inheritor */\n      0x00\n        /* \".deps/studying-solidity/testament/Testament.sol\":3141:3151  msg.sender */\n      caller\n        /* \".deps/studying-solidity/testament/Testament.sol\":3120:3151  address _inheritor = msg.sender */\n      swap1\n      pop\n        /* \".deps/studying-solidity/testament/Testament.sol\":3225:3226  0 */\n      0x00\n        /* \".deps/studying-solidity/testament/Testament.sol\":3183:3203  inheritorToTestators */\n      0x01\n        /* \".deps/studying-solidity/testament/Testament.sol\":3183:3215  inheritorToTestators[_inheritor] */\n      0x00\n        /* \".deps/studying-solidity/testament/Testament.sol\":3204:3214  _inheritor */\n      dup4\n        /* \".deps/studying-solidity/testament/Testament.sol\":3183:3215  inheritorToTestators[_inheritor] */\n      0xffffffffffffffffffffffffffffffffffffffff\n      and\n      0xffffffffffffffffffffffffffffffffffffffff\n      and\n      dup2\n      mstore\n      0x20\n      add\n      swap1\n      dup2\n      mstore\n      0x20\n      add\n      0x00\n      keccak256\n        /* \".deps/studying-solidity/testament/Testament.sol\":3183:3222  inheritorToTestators[_inheritor].length */\n      dup1\n      sload\n      swap1\n      pop\n        /* \".deps/studying-solidity/testament/Testament.sol\":3183:3226  inheritorToTestators[_inheritor].length > 0 */\n      gt\n        /* \".deps/studying-solidity/testament/Testament.sol\":3162:3286  require(... */\n      tag_203\n      jumpi\n      mload(0x40)\n      0x08c379a000000000000000000000000000000000000000000000000000000000\n      dup2\n      mstore\n      0x04\n      add\n      tag_204\n      swap1\n      tag_205\n      jump\t// in\n    tag_204:\n      mload(0x40)\n      dup1\n      swap2\n      sub\n      swap1\n      revert\n    tag_203:\n        /* \".deps/studying-solidity/testament/Testament.sol\":3384:3404  inheritorToTestators */\n      0x01\n        /* \".deps/studying-solidity/testament/Testament.sol\":3384:3416  inheritorToTestators[_inheritor] */\n      0x00\n        /* \".deps/studying-solidity/testament/Testament.sol\":3405:3415  _inheritor */\n      dup3\n        /* \".deps/studying-solidity/testament/Testament.sol\":3384:3416  inheritorToTestators[_inheritor] */\n      0xffffffffffffffffffffffffffffffffffffffff\n      and\n      0xffffffffffffffffffffffffffffffffffffffff\n      and\n      dup2\n      mstore\n      0x20\n      add\n      swap1\n      dup2\n      mstore\n      0x20\n      add\n      0x00\n      keccak256\n        /* \".deps/studying-solidity/testament/Testament.sol\":3377:3416  return inheritorToTestators[_inheritor] */\n      dup1\n      sload\n      dup1\n      0x20\n      mul\n      0x20\n      add\n      mload(0x40)\n      swap1\n      dup2\n      add\n      0x40\n      mstore\n      dup1\n      swap3\n      swap2\n      swap1\n      dup2\n      dup2\n      mstore\n      0x20\n      add\n      dup3\n      dup1\n      sload\n      dup1\n      iszero\n      tag_206\n      jumpi\n      0x20\n      mul\n      dup3\n      add\n      swap2\n      swap1\n      0x00\n      mstore\n      keccak256(0x00, 0x20)\n      swap1\n    tag_207:\n      dup2\n      0x00\n      swap1\n      sload\n      swap1\n      0x0100\n      exp\n      swap1\n      div\n      0xffffffffffffffffffffffffffffffffffffffff\n      and\n      0xffffffffffffffffffffffffffffffffffffffff\n      and\n      dup2\n      mstore\n      0x20\n      add\n      swap1\n      0x01\n      add\n      swap1\n      dup1\n      dup4\n      gt\n      tag_207\n      jumpi\n    tag_206:\n      pop\n      pop\n      pop\n      pop\n      pop\n      swap2\n      pop\n      pop\n        /* \".deps/studying-solidity/testament/Testament.sol\":3043:3423  function getMyTestators() external view returns (address[] memory) {... */\n      swap1\n      jump\t// out\n        /* \".deps/studying-solidity/testament/Testament.sol\":372:1826  function createInheritance(... */\n    tag_64:\n        /* \".deps/studying-solidity/testament/Testament.sol\":579:580  0 */\n      0x00\n        /* \".deps/studying-solidity/testament/Testament.sol\":566:575  msg.value */\n      callvalue\n        /* \".deps/studying-solidity/testament/Testament.sol\":566:580  msg.value != 0 */\n      sub\n        /* \".deps/studying-solidity/testament/Testament.sol\":558:620  require(msg.value != 0, \"createInheritance(), valor invalido\") */\n      tag_209\n      jumpi\n      mload(0x40)\n      0x08c379a000000000000000000000000000000000000000000000000000000000\n      dup2\n      mstore\n      0x04\n      add\n      tag_210\n      swap1\n      tag_211\n      jump\t// in\n    tag_210:\n      mload(0x40)\n      dup1\n      swap2\n      sub\n      swap1\n      revert\n    tag_209:\n        /* \".deps/studying-solidity/testament/Testament.sol\":672:673  0 */\n      0x00\n        /* \".deps/studying-solidity/testament/Testament.sol\":651:661  _addresses */\n      dup5\n      dup5\n        /* \".deps/studying-solidity/testament/Testament.sol\":651:668  _addresses.length */\n      swap1\n      pop\n        /* \".deps/studying-solidity/testament/Testament.sol\":651:673  _addresses.length != 0 */\n      sub\n        /* \".deps/studying-solidity/testament/Testament.sol\":630:741  require(... */\n      tag_212\n      jumpi\n      mload(0x40)\n      0x08c379a000000000000000000000000000000000000000000000000000000000\n      dup2\n      mstore\n      0x04\n      add\n      tag_213\n      swap1\n      tag_74\n      jump\t// in\n    tag_213:\n      mload(0x40)\n      dup1\n      swap2\n      sub\n      swap1\n      revert\n    tag_212:\n        /* \".deps/studying-solidity/testament/Testament.sol\":793:806  _percentagens */\n      dup2\n      dup2\n        /* \".deps/studying-solidity/testament/Testament.sol\":793:813  _percentagens.length */\n      swap1\n      pop\n        /* \".deps/studying-solidity/testament/Testament.sol\":772:782  _addresses */\n      dup5\n      dup5\n        /* \".deps/studying-solidity/testament/Testament.sol\":772:789  _addresses.length */\n      swap1\n      pop\n        /* \".deps/studying-solidity/testament/Testament.sol\":772:813  _addresses.length == _percentagens.length */\n      eq\n        /* \".deps/studying-solidity/testament/Testament.sol\":751:909  require(... */\n      tag_214\n      jumpi\n      mload(0x40)\n      0x08c379a000000000000000000000000000000000000000000000000000000000\n      dup2\n      mstore\n      0x04\n      add\n      tag_215\n      swap1\n      tag_77\n      jump\t// in\n    tag_215:\n      mload(0x40)\n      dup1\n      swap2\n      sub\n      swap1\n      revert\n    tag_214:\n        /* \".deps/studying-solidity/testament/Testament.sol\":919:942  address _ownOfTestament */\n      0x00\n        /* \".deps/studying-solidity/testament/Testament.sol\":945:955  msg.sender */\n      caller\n        /* \".deps/studying-solidity/testament/Testament.sol\":919:955  address _ownOfTestament = msg.sender */\n      swap1\n      pop\n        /* \".deps/studying-solidity/testament/Testament.sol\":988:997  testament */\n      0x00\n        /* \".deps/studying-solidity/testament/Testament.sol\":988:1014  testament[_ownOfTestament] */\n      dup1\n        /* \".deps/studying-solidity/testament/Testament.sol\":998:1013  _ownOfTestament */\n      dup3\n        /* \".deps/studying-solidity/testament/Testament.sol\":988:1014  testament[_ownOfTestament] */\n      0xffffffffffffffffffffffffffffffffffffffff\n      and\n      0xffffffffffffffffffffffffffffffffffffffff\n      and\n      dup2\n      mstore\n      0x20\n      add\n      swap1\n      dup2\n      mstore\n      0x20\n      add\n      0x00\n      keccak256\n        /* \".deps/studying-solidity/testament/Testament.sol\":988:1020  testament[_ownOfTestament].exist */\n      0x01\n      add\n      0x00\n      swap1\n      sload\n      swap1\n      0x0100\n      exp\n      swap1\n      div\n      0xff\n      and\n        /* \".deps/studying-solidity/testament/Testament.sol\":987:1020  !testament[_ownOfTestament].exist */\n      iszero\n        /* \".deps/studying-solidity/testament/Testament.sol\":966:1110  require(... */\n      tag_216\n      jumpi\n      mload(0x40)\n      0x08c379a000000000000000000000000000000000000000000000000000000000\n      dup2\n      mstore\n      0x04\n      add\n      tag_217\n      swap1\n      tag_218\n      jump\t// in\n    tag_217:\n      mload(0x40)\n      dup1\n      swap2\n      sub\n      swap1\n      revert\n    tag_216:\n        /* \".deps/studying-solidity/testament/Testament.sol\":1121:1149  Testament storage _testament */\n      0x00\n        /* \".deps/studying-solidity/testament/Testament.sol\":1152:1161  testament */\n      dup1\n        /* \".deps/studying-solidity/testament/Testament.sol\":1152:1178  testament[_ownOfTestament] */\n      0x00\n        /* \".deps/studying-solidity/testament/Testament.sol\":1162:1177  _ownOfTestament */\n      dup4\n        /* \".deps/studying-solidity/testament/Testament.sol\":1152:1178  testament[_ownOfTestament] */\n      0xffffffffffffffffffffffffffffffffffffffff\n      and\n      0xffffffffffffffffffffffffffffffffffffffff\n      and\n      dup2\n      mstore\n      0x20\n      add\n      swap1\n      dup2\n      mstore\n      0x20\n      add\n      0x00\n      keccak256\n        /* \".deps/studying-solidity/testament/Testament.sol\":1121:1178  Testament storage _testament = testament[_ownOfTestament] */\n      swap1\n      pop\n        /* \".deps/studying-solidity/testament/Testament.sol\":1255:1264  uint256 i */\n      0x00\n        /* \".deps/studying-solidity/testament/Testament.sol\":1250:1708  for (uint256 i = 0; i < _addresses.length; i++) {... */\n    tag_219:\n        /* \".deps/studying-solidity/testament/Testament.sol\":1274:1284  _addresses */\n      dup7\n      dup7\n        /* \".deps/studying-solidity/testament/Testament.sol\":1274:1291  _addresses.length */\n      swap1\n      pop\n        /* \".deps/studying-solidity/testament/Testament.sol\":1270:1271  i */\n      dup2\n        /* \".deps/studying-solidity/testament/Testament.sol\":1270:1291  i < _addresses.length */\n      lt\n        /* \".deps/studying-solidity/testament/Testament.sol\":1250:1708  for (uint256 i = 0; i < _addresses.length; i++) {... */\n      iszero\n      tag_220\n      jumpi\n        /* \".deps/studying-solidity/testament/Testament.sol\":1312:1339  Inheritor memory _inheritor */\n      0x00\n        /* \".deps/studying-solidity/testament/Testament.sol\":1342:1452  Inheritor(... */\n      mload(0x40)\n      dup1\n      0x60\n      add\n      0x40\n      mstore\n      dup1\n        /* \".deps/studying-solidity/testament/Testament.sol\":1369:1379  _addresses */\n      dup10\n      dup10\n        /* \".deps/studying-solidity/testament/Testament.sol\":1380:1381  i */\n      dup6\n        /* \".deps/studying-solidity/testament/Testament.sol\":1369:1382  _addresses[i] */\n      dup2\n      dup2\n      lt\n      tag_222\n      jumpi\n      tag_223\n      tag_87\n      jump\t// in\n    tag_223:\n    tag_222:\n      swap1\n      pop\n      0x20\n      mul\n      add\n      0x20\n      dup2\n      add\n      swap1\n      tag_224\n      swap2\n      swap1\n      tag_28\n      jump\t// in\n    tag_224:\n        /* \".deps/studying-solidity/testament/Testament.sol\":1342:1452  Inheritor(... */\n      0xffffffffffffffffffffffffffffffffffffffff\n      and\n      dup2\n      mstore\n      0x20\n      add\n        /* \".deps/studying-solidity/testament/Testament.sol\":1400:1413  _percentagens */\n      dup8\n      dup8\n        /* \".deps/studying-solidity/testament/Testament.sol\":1414:1415  i */\n      dup6\n        /* \".deps/studying-solidity/testament/Testament.sol\":1400:1416  _percentagens[i] */\n      dup2\n      dup2\n      lt\n      tag_225\n      jumpi\n      tag_226\n      tag_87\n      jump\t// in\n    tag_226:\n    tag_225:\n      swap1\n      pop\n      0x20\n      mul\n      add\n      0x20\n      dup2\n      add\n      swap1\n      tag_227\n      swap2\n      swap1\n      tag_92\n      jump\t// in\n    tag_227:\n        /* \".deps/studying-solidity/testament/Testament.sol\":1342:1452  Inheritor(... */\n      0xffff\n      and\n      dup2\n      mstore\n      0x20\n      add\n        /* \".deps/studying-solidity/testament/Testament.sol\":1434:1438  true */\n      0x01\n        /* \".deps/studying-solidity/testament/Testament.sol\":1342:1452  Inheritor(... */\n      iszero\n      iszero\n      dup2\n      mstore\n      pop\n        /* \".deps/studying-solidity/testament/Testament.sol\":1312:1452  Inheritor memory _inheritor = Inheritor(... */\n      swap1\n      pop\n        /* \".deps/studying-solidity/testament/Testament.sol\":1535:1555  inheritorToTestators */\n      0x01\n        /* \".deps/studying-solidity/testament/Testament.sol\":1535:1570  inheritorToTestators[_addresses[i]] */\n      0x00\n        /* \".deps/studying-solidity/testament/Testament.sol\":1556:1566  _addresses */\n      dup10\n      dup10\n        /* \".deps/studying-solidity/testament/Testament.sol\":1567:1568  i */\n      dup6\n        /* \".deps/studying-solidity/testament/Testament.sol\":1556:1569  _addresses[i] */\n      dup2\n      dup2\n      lt\n      tag_228\n      jumpi\n      tag_229\n      tag_87\n      jump\t// in\n    tag_229:\n    tag_228:\n      swap1\n      pop\n      0x20\n      mul\n      add\n      0x20\n      dup2\n      add\n      swap1\n      tag_230\n      swap2\n      swap1\n      tag_28\n      jump\t// in\n    tag_230:\n        /* \".deps/studying-solidity/testament/Testament.sol\":1535:1570  inheritorToTestators[_addresses[i]] */\n      0xffffffffffffffffffffffffffffffffffffffff\n      and\n      0xffffffffffffffffffffffffffffffffffffffff\n      and\n      dup2\n      mstore\n      0x20\n      add\n      swap1\n      dup2\n      mstore\n      0x20\n      add\n      0x00\n      keccak256\n        /* \".deps/studying-solidity/testament/Testament.sol\":1576:1591  _ownOfTestament */\n      dup5\n        /* \".deps/studying-solidity/testament/Testament.sol\":1535:1592  inheritorToTestators[_addresses[i]].push(_ownOfTestament) */\n      swap1\n      dup1\n      0x01\n      dup2\n      sload\n      add\n      dup1\n      dup3\n      sstore\n      dup1\n      swap2\n      pop\n      pop\n      0x01\n      swap1\n      sub\n      swap1\n      0x00\n      mstore\n      keccak256(0x00, 0x20)\n      add\n      0x00\n      swap1\n      swap2\n      swap1\n      swap2\n      swap1\n      swap2\n      0x0100\n      exp\n      dup2\n      sload\n      dup2\n      0xffffffffffffffffffffffffffffffffffffffff\n      mul\n      not\n      and\n      swap1\n      dup4\n      0xffffffffffffffffffffffffffffffffffffffff\n      and\n      mul\n      or\n      swap1\n      sstore\n      pop\n        /* \".deps/studying-solidity/testament/Testament.sol\":1659:1669  _testament */\n      dup3\n        /* \".deps/studying-solidity/testament/Testament.sol\":1659:1680  _testament.inheritors */\n      0x00\n      add\n        /* \".deps/studying-solidity/testament/Testament.sol\":1686:1696  _inheritor */\n      dup2\n        /* \".deps/studying-solidity/testament/Testament.sol\":1659:1697  _testament.inheritors.push(_inheritor) */\n      swap1\n      dup1\n      0x01\n      dup2\n      sload\n      add\n      dup1\n      dup3\n      sstore\n      dup1\n      swap2\n      pop\n      pop\n      0x01\n      swap1\n      sub\n      swap1\n      0x00\n      mstore\n      keccak256(0x00, 0x20)\n      add\n      0x00\n      swap1\n      swap2\n      swap1\n      swap2\n      swap1\n      swap2\n      pop\n      0x00\n      dup3\n      add\n      mload\n      dup2\n      0x00\n      add\n      exp(0x0100, 0x00)\n      dup2\n      sload\n      dup2\n      0xffffffffffffffffffffffffffffffffffffffff\n      mul\n      not\n      and\n      swap1\n      dup4\n      0xffffffffffffffffffffffffffffffffffffffff\n      and\n      mul\n      or\n      swap1\n      sstore\n      pop\n      0x20\n      dup3\n      add\n      mload\n      dup2\n      0x00\n      add\n      exp(0x0100, 0x14)\n      dup2\n      sload\n      dup2\n      0xffff\n      mul\n      not\n      and\n      swap1\n      dup4\n      0xffff\n      and\n      mul\n      or\n      swap1\n      sstore\n      pop\n      0x40\n      dup3\n      add\n      mload\n      dup2\n      0x00\n      add\n      exp(0x0100, 0x16)\n      dup2\n      sload\n      dup2\n      0xff\n      mul\n      not\n      and\n      swap1\n      dup4\n      iszero\n      iszero\n      mul\n      or\n      swap1\n      sstore\n      pop\n      pop\n      pop\n        /* \".deps/studying-solidity/testament/Testament.sol\":1298:1708  {... */\n      pop\n        /* \".deps/studying-solidity/testament/Testament.sol\":1293:1296  i++ */\n      dup1\n      dup1\n      0x01\n      add\n      swap2\n      pop\n      pop\n        /* \".deps/studying-solidity/testament/Testament.sol\":1250:1708  for (uint256 i = 0; i < _addresses.length; i++) {... */\n      jump(tag_219)\n    tag_220:\n      pop\n        /* \".deps/studying-solidity/testament/Testament.sol\":1737:1741  true */\n      0x01\n        /* \".deps/studying-solidity/testament/Testament.sol\":1718:1728  _testament */\n      dup2\n        /* \".deps/studying-solidity/testament/Testament.sol\":1718:1734  _testament.exist */\n      0x01\n      add\n      0x00\n        /* \".deps/studying-solidity/testament/Testament.sol\":1718:1741  _testament.exist = true */\n      0x0100\n      exp\n      dup2\n      sload\n      dup2\n      0xff\n      mul\n      not\n      and\n      swap1\n      dup4\n      iszero\n      iszero\n      mul\n      or\n      swap1\n      sstore\n      pop\n        /* \".deps/studying-solidity/testament/Testament.sol\":1781:1790  msg.value */\n      callvalue\n        /* \".deps/studying-solidity/testament/Testament.sol\":1751:1761  _testament */\n      dup2\n        /* \".deps/studying-solidity/testament/Testament.sol\":1751:1778  _testament.inheritanceValue */\n      0x02\n      add\n        /* \".deps/studying-solidity/testament/Testament.sol\":1751:1790  _testament.inheritanceValue = msg.value */\n      dup2\n      swap1\n      sstore\n      pop\n        /* \".deps/studying-solidity/testament/Testament.sol\":1800:1819  updateProofOfLife() */\n      tag_233\n        /* \".deps/studying-solidity/testament/Testament.sol\":1800:1817  updateProofOfLife */\n      tag_56\n        /* \".deps/studying-solidity/testament/Testament.sol\":1800:1819  updateProofOfLife() */\n      jump\t// in\n    tag_233:\n        /* \".deps/studying-solidity/testament/Testament.sol\":502:1826  {... */\n      pop\n      pop\n        /* \".deps/studying-solidity/testament/Testament.sol\":372:1826  function createInheritance(... */\n      pop\n      pop\n      pop\n      pop\n      jump\t// out\n        /* \".deps/studying-solidity/testament/Testament.sol\":6624:6964  function inheritorsCanWithdraw(address testator)... */\n    tag_68:\n        /* \".deps/studying-solidity/testament/Testament.sol\":6718:6722  bool */\n      0x00\n        /* \".deps/studying-solidity/testament/Testament.sol\":6743:6752  testament */\n      dup1\n        /* \".deps/studying-solidity/testament/Testament.sol\":6743:6762  testament[testator] */\n      0x00\n        /* \".deps/studying-solidity/testament/Testament.sol\":6753:6761  testator */\n      dup4\n        /* \".deps/studying-solidity/testament/Testament.sol\":6743:6762  testament[testator] */\n      0xffffffffffffffffffffffffffffffffffffffff\n      and\n      0xffffffffffffffffffffffffffffffffffffffff\n      and\n      dup2\n      mstore\n      0x20\n      add\n      swap1\n      dup2\n      mstore\n      0x20\n      add\n      0x00\n      keccak256\n        /* \".deps/studying-solidity/testament/Testament.sol\":6743:6768  testament[testator].exist */\n      0x01\n      add\n      0x00\n      swap1\n      sload\n      swap1\n      0x0100\n      exp\n      swap1\n      div\n      0xff\n      and\n        /* \".deps/studying-solidity/testament/Testament.sol\":6738:6782  if (!testament[testator].exist) return false */\n      tag_235\n      jumpi\n        /* \".deps/studying-solidity/testament/Testament.sol\":6777:6782  false */\n      0x00\n        /* \".deps/studying-solidity/testament/Testament.sol\":6770:6782  return false */\n      swap1\n      pop\n      jump(tag_234)\n        /* \".deps/studying-solidity/testament/Testament.sol\":6738:6782  if (!testament[testator].exist) return false */\n    tag_235:\n        /* \".deps/studying-solidity/testament/Testament.sol\":6793:6811  uint256 ninetyDays */\n      0x00\n        /* \".deps/studying-solidity/testament/Testament.sol\":6814:6815  1 */\n      0x01\n        /* \".deps/studying-solidity/testament/Testament.sol\":6793:6815  uint256 ninetyDays = 1 */\n      swap1\n      pop\n        /* \".deps/studying-solidity/testament/Testament.sol\":6947:6957  ninetyDays */\n      dup1\n        /* \".deps/studying-solidity/testament/Testament.sol\":6909:6918  testament */\n      0x00\n        /* \".deps/studying-solidity/testament/Testament.sol\":6909:6928  testament[testator] */\n      dup1\n        /* \".deps/studying-solidity/testament/Testament.sol\":6919:6927  testator */\n      dup6\n        /* \".deps/studying-solidity/testament/Testament.sol\":6909:6928  testament[testator] */\n      0xffffffffffffffffffffffffffffffffffffffff\n      and\n      0xffffffffffffffffffffffffffffffffffffffff\n      and\n      dup2\n      mstore\n      0x20\n      add\n      swap1\n      dup2\n      mstore\n      0x20\n      add\n      0x00\n      keccak256\n        /* \".deps/studying-solidity/testament/Testament.sol\":6909:6944  testament[testator].lastProofOfLife */\n      0x01\n      add\n      0x01\n      swap1\n      sload\n      swap1\n      0x0100\n      exp\n      swap1\n      div\n      0xffffffffffffffffffffffffffffffff\n      and\n        /* \".deps/studying-solidity/testament/Testament.sol\":6909:6957  testament[testator].lastProofOfLife + ninetyDays */\n      0xffffffffffffffffffffffffffffffff\n      and\n      tag_236\n      swap2\n      swap1\n      tag_106\n      jump\t// in\n    tag_236:\n        /* \".deps/studying-solidity/testament/Testament.sol\":6890:6905  block.timestamp */\n      timestamp\n        /* \".deps/studying-solidity/testament/Testament.sol\":6890:6957  block.timestamp >= testament[testator].lastProofOfLife + ninetyDays */\n      lt\n      iszero\n        /* \".deps/studying-solidity/testament/Testament.sol\":6871:6957  return... */\n      swap2\n      pop\n      pop\n        /* \".deps/studying-solidity/testament/Testament.sol\":6624:6964  function inheritorsCanWithdraw(address testator)... */\n    tag_234:\n      swap2\n      swap1\n      pop\n      jump\t// out\n        /* \".deps/studying-solidity/testament/Testament.sol\":5369:6618  function clearOldInheritorsOfTestament(address _ownTestament) internal {... */\n    tag_79:\n        /* \".deps/studying-solidity/testament/Testament.sol\":5519:5551  Inheritor[] memory oldInheritors */\n      0x00\n        /* \".deps/studying-solidity/testament/Testament.sol\":5554:5563  testament */\n      dup1\n        /* \".deps/studying-solidity/testament/Testament.sol\":5554:5578  testament[_ownTestament] */\n      0x00\n        /* \".deps/studying-solidity/testament/Testament.sol\":5564:5577  _ownTestament */\n      dup4\n        /* \".deps/studying-solidity/testament/Testament.sol\":5554:5578  testament[_ownTestament] */\n      0xffffffffffffffffffffffffffffffffffffffff\n      and\n      0xffffffffffffffffffffffffffffffffffffffff\n      and\n      dup2\n      mstore\n      0x20\n      add\n      swap1\n      dup2\n      mstore\n      0x20\n      add\n      0x00\n      keccak256\n        /* \".deps/studying-solidity/testament/Testament.sol\":5554:5589  testament[_ownTestament].inheritors */\n      0x00\n      add\n        /* \".deps/studying-solidity/testament/Testament.sol\":5519:5589  Inheritor[] memory oldInheritors = testament[_ownTestament].inheritors */\n      dup1\n      sload\n      dup1\n      0x20\n      mul\n      0x20\n      add\n      mload(0x40)\n      swap1\n      dup2\n      add\n      0x40\n      mstore\n      dup1\n      swap3\n      swap2\n      swap1\n      dup2\n      dup2\n      mstore\n      0x20\n      add\n      0x00\n      swap1\n    tag_238:\n      dup3\n      dup3\n      lt\n      iszero\n      tag_239\n      jumpi\n      dup4\n      dup3\n      swap1\n      0x00\n      mstore\n      keccak256(0x00, 0x20)\n      add\n      mload(0x40)\n      dup1\n      0x60\n      add\n      0x40\n      mstore\n      swap1\n      dup2\n      0x00\n      dup3\n      add\n      0x00\n      swap1\n      sload\n      swap1\n      0x0100\n      exp\n      swap1\n      div\n      0xffffffffffffffffffffffffffffffffffffffff\n      and\n      0xffffffffffffffffffffffffffffffffffffffff\n      and\n      0xffffffffffffffffffffffffffffffffffffffff\n      and\n      dup2\n      mstore\n      0x20\n      add\n      0x00\n      dup3\n      add\n      0x14\n      swap1\n      sload\n      swap1\n      0x0100\n      exp\n      swap1\n      div\n      0xffff\n      and\n      0xffff\n      and\n      0xffff\n      and\n      dup2\n      mstore\n      0x20\n      add\n      0x00\n      dup3\n      add\n      0x16\n      swap1\n      sload\n      swap1\n      0x0100\n      exp\n      swap1\n      div\n      0xff\n      and\n      iszero\n      iszero\n      iszero\n      iszero\n      dup2\n      mstore\n      pop\n      pop\n      dup2\n      mstore\n      0x20\n      add\n      swap1\n      0x01\n      add\n      swap1\n      jump(tag_238)\n    tag_239:\n      pop\n      pop\n      pop\n      pop\n      swap1\n      pop\n        /* \".deps/studying-solidity/testament/Testament.sol\":5650:5659  uint256 i */\n      0x00\n        /* \".deps/studying-solidity/testament/Testament.sol\":5645:6612  for (uint256 i = 0; i < oldInheritors.length; i++) {... */\n    tag_241:\n        /* \".deps/studying-solidity/testament/Testament.sol\":5669:5682  oldInheritors */\n      dup2\n        /* \".deps/studying-solidity/testament/Testament.sol\":5669:5689  oldInheritors.length */\n      mload\n        /* \".deps/studying-solidity/testament/Testament.sol\":5665:5666  i */\n      dup2\n        /* \".deps/studying-solidity/testament/Testament.sol\":5665:5689  i < oldInheritors.length */\n      lt\n        /* \".deps/studying-solidity/testament/Testament.sol\":5645:6612  for (uint256 i = 0; i < oldInheritors.length; i++) {... */\n      iszero\n      tag_242\n      jumpi\n        /* \".deps/studying-solidity/testament/Testament.sol\":5786:5826  address[] memory testatorsOfOldInheritor */\n      0x00\n        /* \".deps/studying-solidity/testament/Testament.sol\":5829:5849  inheritorToTestators */\n      0x01\n        /* \".deps/studying-solidity/testament/Testament.sol\":5829:5914  inheritorToTestators[... */\n      0x00\n        /* \".deps/studying-solidity/testament/Testament.sol\":5867:5880  oldInheritors */\n      dup5\n        /* \".deps/studying-solidity/testament/Testament.sol\":5881:5882  i */\n      dup5\n        /* \".deps/studying-solidity/testament/Testament.sol\":5867:5883  oldInheritors[i] */\n      dup2\n      mload\n      dup2\n      lt\n      tag_244\n      jumpi\n      tag_245\n      tag_87\n      jump\t// in\n    tag_245:\n    tag_244:\n      0x20\n      mul\n      0x20\n      add\n      add\n      mload\n        /* \".deps/studying-solidity/testament/Testament.sol\":5867:5900  oldInheritors[i].inheritorAddress */\n      0x00\n      add\n      mload\n        /* \".deps/studying-solidity/testament/Testament.sol\":5829:5914  inheritorToTestators[... */\n      0xffffffffffffffffffffffffffffffffffffffff\n      and\n      0xffffffffffffffffffffffffffffffffffffffff\n      and\n      dup2\n      mstore\n      0x20\n      add\n      swap1\n      dup2\n      mstore\n      0x20\n      add\n      0x00\n      keccak256\n        /* \".deps/studying-solidity/testament/Testament.sol\":5786:5914  address[] memory testatorsOfOldInheritor = inheritorToTestators[... */\n      dup1\n      sload\n      dup1\n      0x20\n      mul\n      0x20\n      add\n      mload(0x40)\n      swap1\n      dup2\n      add\n      0x40\n      mstore\n      dup1\n      swap3\n      swap2\n      swap1\n      dup2\n      dup2\n      mstore\n      0x20\n      add\n      dup3\n      dup1\n      sload\n      dup1\n      iszero\n      tag_246\n      jumpi\n      0x20\n      mul\n      dup3\n      add\n      swap2\n      swap1\n      0x00\n      mstore\n      keccak256(0x00, 0x20)\n      swap1\n    tag_247:\n      dup2\n      0x00\n      swap1\n      sload\n      swap1\n      0x0100\n      exp\n      swap1\n      div\n      0xffffffffffffffffffffffffffffffffffffffff\n      and\n      0xffffffffffffffffffffffffffffffffffffffff\n      and\n      dup2\n      mstore\n      0x20\n      add\n      swap1\n      0x01\n      add\n      swap1\n      dup1\n      dup4\n      gt\n      tag_247\n      jumpi\n    tag_246:\n      pop\n      pop\n      pop\n      pop\n      pop\n      swap1\n      pop\n        /* \".deps/studying-solidity/testament/Testament.sol\":5929:5943  uint256 length */\n      0x00\n        /* \".deps/studying-solidity/testament/Testament.sol\":5946:5969  testatorsOfOldInheritor */\n      dup2\n        /* \".deps/studying-solidity/testament/Testament.sol\":5946:5976  testatorsOfOldInheritor.length */\n      mload\n        /* \".deps/studying-solidity/testament/Testament.sol\":5929:5976  uint256 length = testatorsOfOldInheritor.length */\n      swap1\n      pop\n        /* \".deps/studying-solidity/testament/Testament.sol\":6119:6128  uint256 j */\n      0x00\n        /* \".deps/studying-solidity/testament/Testament.sol\":6114:6602  for (uint256 j = 0; j < length; j++) {... */\n    tag_248:\n        /* \".deps/studying-solidity/testament/Testament.sol\":6138:6144  length */\n      dup2\n        /* \".deps/studying-solidity/testament/Testament.sol\":6134:6135  j */\n      dup2\n        /* \".deps/studying-solidity/testament/Testament.sol\":6134:6144  j < length */\n      lt\n        /* \".deps/studying-solidity/testament/Testament.sol\":6114:6602  for (uint256 j = 0; j < length; j++) {... */\n      iszero\n      tag_249\n      jumpi\n        /* \".deps/studying-solidity/testament/Testament.sol\":6203:6216  _ownTestament */\n      dup6\n        /* \".deps/studying-solidity/testament/Testament.sol\":6173:6216  testatorsOfOldInheritor[j] == _ownTestament */\n      0xffffffffffffffffffffffffffffffffffffffff\n      and\n        /* \".deps/studying-solidity/testament/Testament.sol\":6173:6196  testatorsOfOldInheritor */\n      dup4\n        /* \".deps/studying-solidity/testament/Testament.sol\":6197:6198  j */\n      dup3\n        /* \".deps/studying-solidity/testament/Testament.sol\":6173:6199  testatorsOfOldInheritor[j] */\n      dup2\n      mload\n      dup2\n      lt\n      tag_251\n      jumpi\n      tag_252\n      tag_87\n      jump\t// in\n    tag_252:\n    tag_251:\n      0x20\n      mul\n      0x20\n      add\n      add\n      mload\n        /* \".deps/studying-solidity/testament/Testament.sol\":6173:6216  testatorsOfOldInheritor[j] == _ownTestament */\n      0xffffffffffffffffffffffffffffffffffffffff\n      and\n      sub\n        /* \".deps/studying-solidity/testament/Testament.sol\":6169:6588  if (testatorsOfOldInheritor[j] == _ownTestament) {... */\n      tag_253\n      jumpi\n        /* \".deps/studying-solidity/testament/Testament.sol\":6269:6292  testatorsOfOldInheritor */\n      dup3\n        /* \".deps/studying-solidity/testament/Testament.sol\":6327:6328  1 */\n      0x01\n        /* \".deps/studying-solidity/testament/Testament.sol\":6318:6324  length */\n      dup4\n        /* \".deps/studying-solidity/testament/Testament.sol\":6318:6328  length - 1 */\n      tag_254\n      swap2\n      swap1\n      tag_167\n      jump\t// in\n    tag_254:\n        /* \".deps/studying-solidity/testament/Testament.sol\":6269:6350  testatorsOfOldInheritor[... */\n      dup2\n      mload\n      dup2\n      lt\n      tag_255\n      jumpi\n      tag_256\n      tag_87\n      jump\t// in\n    tag_256:\n    tag_255:\n      0x20\n      mul\n      0x20\n      add\n      add\n      mload\n        /* \".deps/studying-solidity/testament/Testament.sol\":6240:6263  testatorsOfOldInheritor */\n      dup4\n        /* \".deps/studying-solidity/testament/Testament.sol\":6264:6265  j */\n      dup3\n        /* \".deps/studying-solidity/testament/Testament.sol\":6240:6266  testatorsOfOldInheritor[j] */\n      dup2\n      mload\n      dup2\n      lt\n      tag_257\n      jumpi\n      tag_258\n      tag_87\n      jump\t// in\n    tag_258:\n    tag_257:\n      0x20\n      mul\n      0x20\n      add\n      add\n        /* \".deps/studying-solidity/testament/Testament.sol\":6240:6350  testatorsOfOldInheritor[j] = testatorsOfOldInheritor[... */\n      swap1\n      0xffffffffffffffffffffffffffffffffffffffff\n      and\n      swap1\n      dup2\n      0xffffffffffffffffffffffffffffffffffffffff\n      and\n      dup2\n      mstore\n      pop\n      pop\n        /* \".deps/studying-solidity/testament/Testament.sol\":6398:6418  inheritorToTestators */\n      0x01\n        /* \".deps/studying-solidity/testament/Testament.sol\":6398:6453  inheritorToTestators[oldInheritors[i].inheritorAddress] */\n      0x00\n        /* \".deps/studying-solidity/testament/Testament.sol\":6419:6432  oldInheritors */\n      dup7\n        /* \".deps/studying-solidity/testament/Testament.sol\":6433:6434  i */\n      dup7\n        /* \".deps/studying-solidity/testament/Testament.sol\":6419:6435  oldInheritors[i] */\n      dup2\n      mload\n      dup2\n      lt\n      tag_259\n      jumpi\n      tag_260\n      tag_87\n      jump\t// in\n    tag_260:\n    tag_259:\n      0x20\n      mul\n      0x20\n      add\n      add\n      mload\n        /* \".deps/studying-solidity/testament/Testament.sol\":6419:6452  oldInheritors[i].inheritorAddress */\n      0x00\n      add\n      mload\n        /* \".deps/studying-solidity/testament/Testament.sol\":6398:6453  inheritorToTestators[oldInheritors[i].inheritorAddress] */\n      0xffffffffffffffffffffffffffffffffffffffff\n      and\n      0xffffffffffffffffffffffffffffffffffffffff\n      and\n      dup2\n      mstore\n      0x20\n      add\n      swap1\n      dup2\n      mstore\n      0x20\n      add\n      0x00\n      keccak256\n        /* \".deps/studying-solidity/testament/Testament.sol\":6398:6484  inheritorToTestators[oldInheritors[i].inheritorAddress]... */\n      dup1\n      sload\n      dup1\n      tag_261\n      jumpi\n      tag_262\n      tag_263\n      jump\t// in\n    tag_262:\n    tag_261:\n      0x01\n      swap1\n      sub\n      dup2\n      dup2\n      swap1\n      0x00\n      mstore\n      keccak256(0x00, 0x20)\n      add\n      exp(0x0100, 0x00)\n      dup2\n      sload\n      swap1\n      0xffffffffffffffffffffffffffffffffffffffff\n      mul\n      not\n      and\n      swap1\n      sstore\n      swap1\n      sstore\n        /* \".deps/studying-solidity/testament/Testament.sol\":6526:6531  break */\n      jump(tag_249)\n        /* \".deps/studying-solidity/testament/Testament.sol\":6169:6588  if (testatorsOfOldInheritor[j] == _ownTestament) {... */\n    tag_253:\n        /* \".deps/studying-solidity/testament/Testament.sol\":6146:6149  j++ */\n      dup1\n      dup1\n      0x01\n      add\n      swap2\n      pop\n      pop\n        /* \".deps/studying-solidity/testament/Testament.sol\":6114:6602  for (uint256 j = 0; j < length; j++) {... */\n      jump(tag_248)\n    tag_249:\n      pop\n        /* \".deps/studying-solidity/testament/Testament.sol\":5696:6612  {... */\n      pop\n      pop\n        /* \".deps/studying-solidity/testament/Testament.sol\":5691:5694  i++ */\n      dup1\n      dup1\n      0x01\n      add\n      swap2\n      pop\n      pop\n        /* \".deps/studying-solidity/testament/Testament.sol\":5645:6612  for (uint256 i = 0; i < oldInheritors.length; i++) {... */\n      jump(tag_241)\n    tag_242:\n      pop\n        /* \".deps/studying-solidity/testament/Testament.sol\":5440:6618  {... */\n      pop\n        /* \".deps/studying-solidity/testament/Testament.sol\":5369:6618  function clearOldInheritorsOfTestament(address _ownTestament) internal {... */\n      pop\n      jump\t// out\n    tag_81:\n      pop\n      dup1\n      sload\n      0x00\n      dup3\n      sstore\n      swap1\n      0x00\n      mstore\n      keccak256(0x00, 0x20)\n      swap1\n      dup2\n      add\n      swap1\n      tag_266\n      swap2\n      swap1\n      tag_267\n      jump\t// in\n    tag_266:\n      pop\n      jump\t// out\n    tag_267:\n    tag_268:\n      dup1\n      dup3\n      gt\n      iszero\n      tag_269\n      jumpi\n      0x00\n      dup1\n      dup3\n      add\n      exp(0x0100, 0x00)\n      dup2\n      sload\n      swap1\n      0xffffffffffffffffffffffffffffffffffffffff\n      mul\n      not\n      and\n      swap1\n      sstore\n      0x00\n      dup3\n      add\n      exp(0x0100, 0x14)\n      dup2\n      sload\n      swap1\n      0xffff\n      mul\n      not\n      and\n      swap1\n      sstore\n      0x00\n      dup3\n      add\n      exp(0x0100, 0x16)\n      dup2\n      sload\n      swap1\n      0xff\n      mul\n      not\n      and\n      swap1\n      sstore\n      pop\n      0x01\n      add\n      jump(tag_268)\n    tag_269:\n      pop\n      swap1\n      jump\t// out\n        /* \"#utility.yul\":88:205   */\n    tag_271:\n        /* \"#utility.yul\":197:198   */\n      0x00\n        /* \"#utility.yul\":194:195   */\n      dup1\n        /* \"#utility.yul\":187:199   */\n      revert\n        /* \"#utility.yul\":211:328   */\n    tag_272:\n        /* \"#utility.yul\":320:321   */\n      0x00\n        /* \"#utility.yul\":317:318   */\n      dup1\n        /* \"#utility.yul\":310:322   */\n      revert\n        /* \"#utility.yul\":334:451   */\n    tag_273:\n        /* \"#utility.yul\":443:444   */\n      0x00\n        /* \"#utility.yul\":440:441   */\n      dup1\n        /* \"#utility.yul\":433:445   */\n      revert\n        /* \"#utility.yul\":457:574   */\n    tag_274:\n        /* \"#utility.yul\":566:567   */\n      0x00\n        /* \"#utility.yul\":563:564   */\n      dup1\n        /* \"#utility.yul\":556:568   */\n      revert\n        /* \"#utility.yul\":580:697   */\n    tag_275:\n        /* \"#utility.yul\":689:690   */\n      0x00\n        /* \"#utility.yul\":686:687   */\n      dup1\n        /* \"#utility.yul\":679:691   */\n      revert\n        /* \"#utility.yul\":720:1288   */\n    tag_276:\n        /* \"#utility.yul\":793:801   */\n      0x00\n        /* \"#utility.yul\":803:809   */\n      dup1\n        /* \"#utility.yul\":853:856   */\n      dup4\n        /* \"#utility.yul\":846:850   */\n      0x1f\n        /* \"#utility.yul\":838:844   */\n      dup5\n        /* \"#utility.yul\":834:851   */\n      add\n        /* \"#utility.yul\":830:857   */\n      slt\n        /* \"#utility.yul\":820:942   */\n      tag_364\n      jumpi\n        /* \"#utility.yul\":861:940   */\n      tag_365\n      tag_273\n      jump\t// in\n    tag_365:\n        /* \"#utility.yul\":820:942   */\n    tag_364:\n        /* \"#utility.yul\":974:980   */\n      dup3\n        /* \"#utility.yul\":961:981   */\n      calldataload\n        /* \"#utility.yul\":951:981   */\n      swap1\n      pop\n        /* \"#utility.yul\":1004:1022   */\n      0xffffffffffffffff\n        /* \"#utility.yul\":996:1002   */\n      dup2\n        /* \"#utility.yul\":993:1023   */\n      gt\n        /* \"#utility.yul\":990:1107   */\n      iszero\n      tag_366\n      jumpi\n        /* \"#utility.yul\":1026:1105   */\n      tag_367\n      tag_274\n      jump\t// in\n    tag_367:\n        /* \"#utility.yul\":990:1107   */\n    tag_366:\n        /* \"#utility.yul\":1140:1144   */\n      0x20\n        /* \"#utility.yul\":1132:1138   */\n      dup4\n        /* \"#utility.yul\":1128:1145   */\n      add\n        /* \"#utility.yul\":1116:1145   */\n      swap2\n      pop\n        /* \"#utility.yul\":1194:1197   */\n      dup4\n        /* \"#utility.yul\":1186:1190   */\n      0x20\n        /* \"#utility.yul\":1178:1184   */\n      dup3\n        /* \"#utility.yul\":1174:1191   */\n      mul\n        /* \"#utility.yul\":1164:1172   */\n      dup4\n        /* \"#utility.yul\":1160:1192   */\n      add\n        /* \"#utility.yul\":1157:1198   */\n      gt\n        /* \"#utility.yul\":1154:1282   */\n      iszero\n      tag_368\n      jumpi\n        /* \"#utility.yul\":1201:1280   */\n      tag_369\n      tag_275\n      jump\t// in\n    tag_369:\n        /* \"#utility.yul\":1154:1282   */\n    tag_368:\n        /* \"#utility.yul\":720:1288   */\n      swap3\n      pop\n      swap3\n      swap1\n      pop\n      jump\t// out\n        /* \"#utility.yul\":1310:1877   */\n    tag_277:\n        /* \"#utility.yul\":1382:1390   */\n      0x00\n        /* \"#utility.yul\":1392:1398   */\n      dup1\n        /* \"#utility.yul\":1442:1445   */\n      dup4\n        /* \"#utility.yul\":1435:1439   */\n      0x1f\n        /* \"#utility.yul\":1427:1433   */\n      dup5\n        /* \"#utility.yul\":1423:1440   */\n      add\n        /* \"#utility.yul\":1419:1446   */\n      slt\n        /* \"#utility.yul\":1409:1531   */\n      tag_371\n      jumpi\n        /* \"#utility.yul\":1450:1529   */\n      tag_372\n      tag_273\n      jump\t// in\n    tag_372:\n        /* \"#utility.yul\":1409:1531   */\n    tag_371:\n        /* \"#utility.yul\":1563:1569   */\n      dup3\n        /* \"#utility.yul\":1550:1570   */\n      calldataload\n        /* \"#utility.yul\":1540:1570   */\n      swap1\n      pop\n        /* \"#utility.yul\":1593:1611   */\n      0xffffffffffffffff\n        /* \"#utility.yul\":1585:1591   */\n      dup2\n        /* \"#utility.yul\":1582:1612   */\n      gt\n        /* \"#utility.yul\":1579:1696   */\n      iszero\n      tag_373\n      jumpi\n        /* \"#utility.yul\":1615:1694   */\n      tag_374\n      tag_274\n      jump\t// in\n    tag_374:\n        /* \"#utility.yul\":1579:1696   */\n    tag_373:\n        /* \"#utility.yul\":1729:1733   */\n      0x20\n        /* \"#utility.yul\":1721:1727   */\n      dup4\n        /* \"#utility.yul\":1717:1734   */\n      add\n        /* \"#utility.yul\":1705:1734   */\n      swap2\n      pop\n        /* \"#utility.yul\":1783:1786   */\n      dup4\n        /* \"#utility.yul\":1775:1779   */\n      0x20\n        /* \"#utility.yul\":1767:1773   */\n      dup3\n        /* \"#utility.yul\":1763:1780   */\n      mul\n        /* \"#utility.yul\":1753:1761   */\n      dup4\n        /* \"#utility.yul\":1749:1781   */\n      add\n        /* \"#utility.yul\":1746:1787   */\n      gt\n        /* \"#utility.yul\":1743:1871   */\n      iszero\n      tag_375\n      jumpi\n        /* \"#utility.yul\":1790:1869   */\n      tag_376\n      tag_275\n      jump\t// in\n    tag_376:\n        /* \"#utility.yul\":1743:1871   */\n    tag_375:\n        /* \"#utility.yul\":1310:1877   */\n      swap3\n      pop\n      swap3\n      swap1\n      pop\n      jump\t// out\n        /* \"#utility.yul\":1883:2815   */\n    tag_18:\n        /* \"#utility.yul\":2004:2010   */\n      0x00\n        /* \"#utility.yul\":2012:2018   */\n      dup1\n        /* \"#utility.yul\":2020:2026   */\n      0x00\n        /* \"#utility.yul\":2028:2034   */\n      dup1\n        /* \"#utility.yul\":2077:2079   */\n      0x40\n        /* \"#utility.yul\":2065:2074   */\n      dup6\n        /* \"#utility.yul\":2056:2063   */\n      dup8\n        /* \"#utility.yul\":2052:2075   */\n      sub\n        /* \"#utility.yul\":2048:2080   */\n      slt\n        /* \"#utility.yul\":2045:2164   */\n      iszero\n      tag_378\n      jumpi\n        /* \"#utility.yul\":2083:2162   */\n      tag_379\n      tag_271\n      jump\t// in\n    tag_379:\n        /* \"#utility.yul\":2045:2164   */\n    tag_378:\n        /* \"#utility.yul\":2231:2232   */\n      0x00\n        /* \"#utility.yul\":2220:2229   */\n      dup6\n        /* \"#utility.yul\":2216:2233   */\n      add\n        /* \"#utility.yul\":2203:2234   */\n      calldataload\n        /* \"#utility.yul\":2261:2279   */\n      0xffffffffffffffff\n        /* \"#utility.yul\":2253:2259   */\n      dup2\n        /* \"#utility.yul\":2250:2280   */\n      gt\n        /* \"#utility.yul\":2247:2364   */\n      iszero\n      tag_380\n      jumpi\n        /* \"#utility.yul\":2283:2362   */\n      tag_381\n      tag_272\n      jump\t// in\n    tag_381:\n        /* \"#utility.yul\":2247:2364   */\n    tag_380:\n        /* \"#utility.yul\":2396:2476   */\n      tag_382\n        /* \"#utility.yul\":2468:2475   */\n      dup8\n        /* \"#utility.yul\":2459:2465   */\n      dup3\n        /* \"#utility.yul\":2448:2457   */\n      dup9\n        /* \"#utility.yul\":2444:2466   */\n      add\n        /* \"#utility.yul\":2396:2476   */\n      tag_276\n      jump\t// in\n    tag_382:\n        /* \"#utility.yul\":2378:2476   */\n      swap5\n      pop\n      swap5\n      pop\n        /* \"#utility.yul\":2174:2486   */\n      pop\n        /* \"#utility.yul\":2553:2555   */\n      0x20\n        /* \"#utility.yul\":2542:2551   */\n      dup6\n        /* \"#utility.yul\":2538:2556   */\n      add\n        /* \"#utility.yul\":2525:2557   */\n      calldataload\n        /* \"#utility.yul\":2584:2602   */\n      0xffffffffffffffff\n        /* \"#utility.yul\":2576:2582   */\n      dup2\n        /* \"#utility.yul\":2573:2603   */\n      gt\n        /* \"#utility.yul\":2570:2687   */\n      iszero\n      tag_383\n      jumpi\n        /* \"#utility.yul\":2606:2685   */\n      tag_384\n      tag_272\n      jump\t// in\n    tag_384:\n        /* \"#utility.yul\":2570:2687   */\n    tag_383:\n        /* \"#utility.yul\":2719:2798   */\n      tag_385\n        /* \"#utility.yul\":2790:2797   */\n      dup8\n        /* \"#utility.yul\":2781:2787   */\n      dup3\n        /* \"#utility.yul\":2770:2779   */\n      dup9\n        /* \"#utility.yul\":2766:2788   */\n      add\n        /* \"#utility.yul\":2719:2798   */\n      tag_277\n      jump\t// in\n    tag_385:\n        /* \"#utility.yul\":2701:2798   */\n      swap3\n      pop\n      swap3\n      pop\n        /* \"#utility.yul\":2496:2808   */\n      pop\n        /* \"#utility.yul\":1883:2815   */\n      swap3\n      swap6\n      swap2\n      swap5\n      pop\n      swap3\n      pop\n      jump\t// out\n        /* \"#utility.yul\":2821:2947   */\n    tag_278:\n        /* \"#utility.yul\":2858:2865   */\n      0x00\n        /* \"#utility.yul\":2898:2940   */\n      0xffffffffffffffffffffffffffffffffffffffff\n        /* \"#utility.yul\":2891:2896   */\n      dup3\n        /* \"#utility.yul\":2887:2941   */\n      and\n        /* \"#utility.yul\":2876:2941   */\n      swap1\n      pop\n        /* \"#utility.yul\":2821:2947   */\n      swap2\n      swap1\n      pop\n      jump\t// out\n        /* \"#utility.yul\":2953:3049   */\n    tag_279:\n        /* \"#utility.yul\":2990:2997   */\n      0x00\n        /* \"#utility.yul\":3019:3043   */\n      tag_388\n        /* \"#utility.yul\":3037:3042   */\n      dup3\n        /* \"#utility.yul\":3019:3043   */\n      tag_278\n      jump\t// in\n    tag_388:\n        /* \"#utility.yul\":3008:3043   */\n      swap1\n      pop\n        /* \"#utility.yul\":2953:3049   */\n      swap2\n      swap1\n      pop\n      jump\t// out\n        /* \"#utility.yul\":3055:3177   */\n    tag_280:\n        /* \"#utility.yul\":3128:3152   */\n      tag_390\n        /* \"#utility.yul\":3146:3151   */\n      dup2\n        /* \"#utility.yul\":3128:3152   */\n      tag_279\n      jump\t// in\n    tag_390:\n        /* \"#utility.yul\":3121:3126   */\n      dup2\n        /* \"#utility.yul\":3118:3153   */\n      eq\n        /* \"#utility.yul\":3108:3171   */\n      tag_391\n      jumpi\n        /* \"#utility.yul\":3167:3168   */\n      0x00\n        /* \"#utility.yul\":3164:3165   */\n      dup1\n        /* \"#utility.yul\":3157:3169   */\n      revert\n        /* \"#utility.yul\":3108:3171   */\n    tag_391:\n        /* \"#utility.yul\":3055:3177   */\n      pop\n      jump\t// out\n        /* \"#utility.yul\":3183:3322   */\n    tag_281:\n        /* \"#utility.yul\":3229:3234   */\n      0x00\n        /* \"#utility.yul\":3267:3273   */\n      dup2\n        /* \"#utility.yul\":3254:3274   */\n      calldataload\n        /* \"#utility.yul\":3245:3274   */\n      swap1\n      pop\n        /* \"#utility.yul\":3283:3316   */\n      tag_393\n        /* \"#utility.yul\":3310:3315   */\n      dup2\n        /* \"#utility.yul\":3283:3316   */\n      tag_280\n      jump\t// in\n    tag_393:\n        /* \"#utility.yul\":3183:3322   */\n      swap3\n      swap2\n      pop\n      pop\n      jump\t// out\n        /* \"#utility.yul\":3328:3657   */\n    tag_28:\n        /* \"#utility.yul\":3387:3393   */\n      0x00\n        /* \"#utility.yul\":3436:3438   */\n      0x20\n        /* \"#utility.yul\":3424:3433   */\n      dup3\n        /* \"#utility.yul\":3415:3422   */\n      dup5\n        /* \"#utility.yul\":3411:3434   */\n      sub\n        /* \"#utility.yul\":3407:3439   */\n      slt\n        /* \"#utility.yul\":3404:3523   */\n      iszero\n      tag_395\n      jumpi\n        /* \"#utility.yul\":3442:3521   */\n      tag_396\n      tag_271\n      jump\t// in\n    tag_396:\n        /* \"#utility.yul\":3404:3523   */\n    tag_395:\n        /* \"#utility.yul\":3562:3563   */\n      0x00\n        /* \"#utility.yul\":3587:3640   */\n      tag_397\n        /* \"#utility.yul\":3632:3639   */\n      dup5\n        /* \"#utility.yul\":3623:3629   */\n      dup3\n        /* \"#utility.yul\":3612:3621   */\n      dup6\n        /* \"#utility.yul\":3608:3630   */\n      add\n        /* \"#utility.yul\":3587:3640   */\n      tag_281\n      jump\t// in\n    tag_397:\n        /* \"#utility.yul\":3577:3640   */\n      swap2\n      pop\n        /* \"#utility.yul\":3533:3650   */\n      pop\n        /* \"#utility.yul\":3328:3657   */\n      swap3\n      swap2\n      pop\n      pop\n      jump\t// out\n        /* \"#utility.yul\":3663:3740   */\n    tag_282:\n        /* \"#utility.yul\":3700:3707   */\n      0x00\n        /* \"#utility.yul\":3729:3734   */\n      dup2\n        /* \"#utility.yul\":3718:3734   */\n      swap1\n      pop\n        /* \"#utility.yul\":3663:3740   */\n      swap2\n      swap1\n      pop\n      jump\t// out\n        /* \"#utility.yul\":3746:3868   */\n    tag_283:\n        /* \"#utility.yul\":3819:3843   */\n      tag_400\n        /* \"#utility.yul\":3837:3842   */\n      dup2\n        /* \"#utility.yul\":3819:3843   */\n      tag_282\n      jump\t// in\n    tag_400:\n        /* \"#utility.yul\":3812:3817   */\n      dup2\n        /* \"#utility.yul\":3809:3844   */\n      eq\n        /* \"#utility.yul\":3799:3862   */\n      tag_401\n      jumpi\n        /* \"#utility.yul\":3858:3859   */\n      0x00\n        /* \"#utility.yul\":3855:3856   */\n      dup1\n        /* \"#utility.yul\":3848:3860   */\n      revert\n        /* \"#utility.yul\":3799:3862   */\n    tag_401:\n        /* \"#utility.yul\":3746:3868   */\n      pop\n      jump\t// out\n        /* \"#utility.yul\":3874:4013   */\n    tag_284:\n        /* \"#utility.yul\":3920:3925   */\n      0x00\n        /* \"#utility.yul\":3958:3964   */\n      dup2\n        /* \"#utility.yul\":3945:3965   */\n      calldataload\n        /* \"#utility.yul\":3936:3965   */\n      swap1\n      pop\n        /* \"#utility.yul\":3974:4007   */\n      tag_403\n        /* \"#utility.yul\":4001:4006   */\n      dup2\n        /* \"#utility.yul\":3974:4007   */\n      tag_283\n      jump\t// in\n    tag_403:\n        /* \"#utility.yul\":3874:4013   */\n      swap3\n      swap2\n      pop\n      pop\n      jump\t// out\n        /* \"#utility.yul\":4019:4493   */\n    tag_33:\n        /* \"#utility.yul\":4087:4093   */\n      0x00\n        /* \"#utility.yul\":4095:4101   */\n      dup1\n        /* \"#utility.yul\":4144:4146   */\n      0x40\n        /* \"#utility.yul\":4132:4141   */\n      dup4\n        /* \"#utility.yul\":4123:4130   */\n      dup6\n        /* \"#utility.yul\":4119:4142   */\n      sub\n        /* \"#utility.yul\":4115:4147   */\n      slt\n        /* \"#utility.yul\":4112:4231   */\n      iszero\n      tag_405\n      jumpi\n        /* \"#utility.yul\":4150:4229   */\n      tag_406\n      tag_271\n      jump\t// in\n    tag_406:\n        /* \"#utility.yul\":4112:4231   */\n    tag_405:\n        /* \"#utility.yul\":4270:4271   */\n      0x00\n        /* \"#utility.yul\":4295:4348   */\n      tag_407\n        /* \"#utility.yul\":4340:4347   */\n      dup6\n        /* \"#utility.yul\":4331:4337   */\n      dup3\n        /* \"#utility.yul\":4320:4329   */\n      dup7\n        /* \"#utility.yul\":4316:4338   */\n      add\n        /* \"#utility.yul\":4295:4348   */\n      tag_281\n      jump\t// in\n    tag_407:\n        /* \"#utility.yul\":4285:4348   */\n      swap3\n      pop\n        /* \"#utility.yul\":4241:4358   */\n      pop\n        /* \"#utility.yul\":4397:4399   */\n      0x20\n        /* \"#utility.yul\":4423:4476   */\n      tag_408\n        /* \"#utility.yul\":4468:4475   */\n      dup6\n        /* \"#utility.yul\":4459:4465   */\n      dup3\n        /* \"#utility.yul\":4448:4457   */\n      dup7\n        /* \"#utility.yul\":4444:4466   */\n      add\n        /* \"#utility.yul\":4423:4476   */\n      tag_284\n      jump\t// in\n    tag_408:\n        /* \"#utility.yul\":4413:4476   */\n      swap2\n      pop\n        /* \"#utility.yul\":4368:4486   */\n      pop\n        /* \"#utility.yul\":4019:4493   */\n      swap3\n      pop\n      swap3\n      swap1\n      pop\n      jump\t// out\n        /* \"#utility.yul\":4499:4617   */\n    tag_285:\n        /* \"#utility.yul\":4586:4610   */\n      tag_410\n        /* \"#utility.yul\":4604:4609   */\n      dup2\n        /* \"#utility.yul\":4586:4610   */\n      tag_279\n      jump\t// in\n    tag_410:\n        /* \"#utility.yul\":4581:4584   */\n      dup3\n        /* \"#utility.yul\":4574:4611   */\n      mstore\n        /* \"#utility.yul\":4499:4617   */\n      pop\n      pop\n      jump\t// out\n        /* \"#utility.yul\":4623:4845   */\n    tag_36:\n        /* \"#utility.yul\":4716:4720   */\n      0x00\n        /* \"#utility.yul\":4754:4756   */\n      0x20\n        /* \"#utility.yul\":4743:4752   */\n      dup3\n        /* \"#utility.yul\":4739:4757   */\n      add\n        /* \"#utility.yul\":4731:4757   */\n      swap1\n      pop\n        /* \"#utility.yul\":4767:4838   */\n      tag_412\n        /* \"#utility.yul\":4835:4836   */\n      0x00\n        /* \"#utility.yul\":4824:4833   */\n      dup4\n        /* \"#utility.yul\":4820:4837   */\n      add\n        /* \"#utility.yul\":4811:4817   */\n      dup5\n        /* \"#utility.yul\":4767:4838   */\n      tag_285\n      jump\t// in\n    tag_412:\n        /* \"#utility.yul\":4623:4845   */\n      swap3\n      swap2\n      pop\n      pop\n      jump\t// out\n        /* \"#utility.yul\":4851:5180   */\n    tag_40:\n        /* \"#utility.yul\":4910:4916   */\n      0x00\n        /* \"#utility.yul\":4959:4961   */\n      0x20\n        /* \"#utility.yul\":4947:4956   */\n      dup3\n        /* \"#utility.yul\":4938:4945   */\n      dup5\n        /* \"#utility.yul\":4934:4957   */\n      sub\n        /* \"#utility.yul\":4930:4962   */\n      slt\n        /* \"#utility.yul\":4927:5046   */\n      iszero\n      tag_414\n      jumpi\n        /* \"#utility.yul\":4965:5044   */\n      tag_415\n      tag_271\n      jump\t// in\n    tag_415:\n        /* \"#utility.yul\":4927:5046   */\n    tag_414:\n        /* \"#utility.yul\":5085:5086   */\n      0x00\n        /* \"#utility.yul\":5110:5163   */\n      tag_416\n        /* \"#utility.yul\":5155:5162   */\n      dup5\n        /* \"#utility.yul\":5146:5152   */\n      dup3\n        /* \"#utility.yul\":5135:5144   */\n      dup6\n        /* \"#utility.yul\":5131:5153   */\n      add\n        /* \"#utility.yul\":5110:5163   */\n      tag_284\n      jump\t// in\n    tag_416:\n        /* \"#utility.yul\":5100:5163   */\n      swap2\n      pop\n        /* \"#utility.yul\":5056:5173   */\n      pop\n        /* \"#utility.yul\":4851:5180   */\n      swap3\n      swap2\n      pop\n      pop\n      jump\t// out\n        /* \"#utility.yul\":5186:5276   */\n    tag_286:\n        /* \"#utility.yul\":5220:5227   */\n      0x00\n        /* \"#utility.yul\":5263:5268   */\n      dup2\n        /* \"#utility.yul\":5256:5269   */\n      iszero\n        /* \"#utility.yul\":5249:5270   */\n      iszero\n        /* \"#utility.yul\":5238:5270   */\n      swap1\n      pop\n        /* \"#utility.yul\":5186:5276   */\n      swap2\n      swap1\n      pop\n      jump\t// out\n        /* \"#utility.yul\":5282:5391   */\n    tag_287:\n        /* \"#utility.yul\":5363:5384   */\n      tag_419\n        /* \"#utility.yul\":5378:5383   */\n      dup2\n        /* \"#utility.yul\":5363:5384   */\n      tag_286\n      jump\t// in\n    tag_419:\n        /* \"#utility.yul\":5358:5361   */\n      dup3\n        /* \"#utility.yul\":5351:5385   */\n      mstore\n        /* \"#utility.yul\":5282:5391   */\n      pop\n      pop\n      jump\t// out\n        /* \"#utility.yul\":5397:5515   */\n    tag_288:\n        /* \"#utility.yul\":5434:5441   */\n      0x00\n        /* \"#utility.yul\":5474:5508   */\n      0xffffffffffffffffffffffffffffffff\n        /* \"#utility.yul\":5467:5472   */\n      dup3\n        /* \"#utility.yul\":5463:5509   */\n      and\n        /* \"#utility.yul\":5452:5509   */\n      swap1\n      pop\n        /* \"#utility.yul\":5397:5515   */\n      swap2\n      swap1\n      pop\n      jump\t// out\n        /* \"#utility.yul\":5521:5639   */\n    tag_289:\n        /* \"#utility.yul\":5608:5632   */\n      tag_422\n        /* \"#utility.yul\":5626:5631   */\n      dup2\n        /* \"#utility.yul\":5608:5632   */\n      tag_288\n      jump\t// in\n    tag_422:\n        /* \"#utility.yul\":5603:5606   */\n      dup3\n        /* \"#utility.yul\":5596:5633   */\n      mstore\n        /* \"#utility.yul\":5521:5639   */\n      pop\n      pop\n      jump\t// out\n        /* \"#utility.yul\":5645:5763   */\n    tag_290:\n        /* \"#utility.yul\":5732:5756   */\n      tag_424\n        /* \"#utility.yul\":5750:5755   */\n      dup2\n        /* \"#utility.yul\":5732:5756   */\n      tag_282\n      jump\t// in\n    tag_424:\n        /* \"#utility.yul\":5727:5730   */\n      dup3\n        /* \"#utility.yul\":5720:5757   */\n      mstore\n        /* \"#utility.yul\":5645:5763   */\n      pop\n      pop\n      jump\t// out\n        /* \"#utility.yul\":5769:6199   */\n    tag_47:\n        /* \"#utility.yul\":5912:5916   */\n      0x00\n        /* \"#utility.yul\":5950:5952   */\n      0x60\n        /* \"#utility.yul\":5939:5948   */\n      dup3\n        /* \"#utility.yul\":5935:5953   */\n      add\n        /* \"#utility.yul\":5927:5953   */\n      swap1\n      pop\n        /* \"#utility.yul\":5963:6028   */\n      tag_426\n        /* \"#utility.yul\":6025:6026   */\n      0x00\n        /* \"#utility.yul\":6014:6023   */\n      dup4\n        /* \"#utility.yul\":6010:6027   */\n      add\n        /* \"#utility.yul\":6001:6007   */\n      dup7\n        /* \"#utility.yul\":5963:6028   */\n      tag_287\n      jump\t// in\n    tag_426:\n        /* \"#utility.yul\":6038:6110   */\n      tag_427\n        /* \"#utility.yul\":6106:6108   */\n      0x20\n        /* \"#utility.yul\":6095:6104   */\n      dup4\n        /* \"#utility.yul\":6091:6109   */\n      add\n        /* \"#utility.yul\":6082:6088   */\n      dup6\n        /* \"#utility.yul\":6038:6110   */\n      tag_289\n      jump\t// in\n    tag_427:\n        /* \"#utility.yul\":6120:6192   */\n      tag_428\n        /* \"#utility.yul\":6188:6190   */\n      0x40\n        /* \"#utility.yul\":6177:6186   */\n      dup4\n        /* \"#utility.yul\":6173:6191   */\n      add\n        /* \"#utility.yul\":6164:6170   */\n      dup5\n        /* \"#utility.yul\":6120:6192   */\n      tag_290\n      jump\t// in\n    tag_428:\n        /* \"#utility.yul\":5769:6199   */\n      swap5\n      swap4\n      pop\n      pop\n      pop\n      pop\n      jump\t// out\n        /* \"#utility.yul\":6205:6319   */\n    tag_291:\n        /* \"#utility.yul\":6272:6278   */\n      0x00\n        /* \"#utility.yul\":6306:6311   */\n      dup2\n        /* \"#utility.yul\":6300:6312   */\n      mload\n        /* \"#utility.yul\":6290:6312   */\n      swap1\n      pop\n        /* \"#utility.yul\":6205:6319   */\n      swap2\n      swap1\n      pop\n      jump\t// out\n        /* \"#utility.yul\":6325:6509   */\n    tag_292:\n        /* \"#utility.yul\":6424:6435   */\n      0x00\n        /* \"#utility.yul\":6458:6464   */\n      dup3\n        /* \"#utility.yul\":6453:6456   */\n      dup3\n        /* \"#utility.yul\":6446:6465   */\n      mstore\n        /* \"#utility.yul\":6498:6502   */\n      0x20\n        /* \"#utility.yul\":6493:6496   */\n      dup3\n        /* \"#utility.yul\":6489:6503   */\n      add\n        /* \"#utility.yul\":6474:6503   */\n      swap1\n      pop\n        /* \"#utility.yul\":6325:6509   */\n      swap3\n      swap2\n      pop\n      pop\n      jump\t// out\n        /* \"#utility.yul\":6515:6647   */\n    tag_293:\n        /* \"#utility.yul\":6582:6586   */\n      0x00\n        /* \"#utility.yul\":6605:6608   */\n      dup2\n        /* \"#utility.yul\":6597:6608   */\n      swap1\n      pop\n        /* \"#utility.yul\":6635:6639   */\n      0x20\n        /* \"#utility.yul\":6630:6633   */\n      dup3\n        /* \"#utility.yul\":6626:6640   */\n      add\n        /* \"#utility.yul\":6618:6640   */\n      swap1\n      pop\n        /* \"#utility.yul\":6515:6647   */\n      swap2\n      swap1\n      pop\n      jump\t// out\n        /* \"#utility.yul\":6653:6761   */\n    tag_294:\n        /* \"#utility.yul\":6730:6754   */\n      tag_433\n        /* \"#utility.yul\":6748:6753   */\n      dup2\n        /* \"#utility.yul\":6730:6754   */\n      tag_279\n      jump\t// in\n    tag_433:\n        /* \"#utility.yul\":6725:6728   */\n      dup3\n        /* \"#utility.yul\":6718:6755   */\n      mstore\n        /* \"#utility.yul\":6653:6761   */\n      pop\n      pop\n      jump\t// out\n        /* \"#utility.yul\":6767:6946   */\n    tag_295:\n        /* \"#utility.yul\":6836:6846   */\n      0x00\n        /* \"#utility.yul\":6857:6903   */\n      tag_435\n        /* \"#utility.yul\":6899:6902   */\n      dup4\n        /* \"#utility.yul\":6891:6897   */\n      dup4\n        /* \"#utility.yul\":6857:6903   */\n      tag_294\n      jump\t// in\n    tag_435:\n        /* \"#utility.yul\":6935:6939   */\n      0x20\n        /* \"#utility.yul\":6930:6933   */\n      dup4\n        /* \"#utility.yul\":6926:6940   */\n      add\n        /* \"#utility.yul\":6912:6940   */\n      swap1\n      pop\n        /* \"#utility.yul\":6767:6946   */\n      swap3\n      swap2\n      pop\n      pop\n      jump\t// out\n        /* \"#utility.yul\":6952:7065   */\n    tag_296:\n        /* \"#utility.yul\":7022:7026   */\n      0x00\n        /* \"#utility.yul\":7054:7058   */\n      0x20\n        /* \"#utility.yul\":7049:7052   */\n      dup3\n        /* \"#utility.yul\":7045:7059   */\n      add\n        /* \"#utility.yul\":7037:7059   */\n      swap1\n      pop\n        /* \"#utility.yul\":6952:7065   */\n      swap2\n      swap1\n      pop\n      jump\t// out\n        /* \"#utility.yul\":7101:7833   */\n    tag_297:\n        /* \"#utility.yul\":7220:7223   */\n      0x00\n        /* \"#utility.yul\":7249:7303   */\n      tag_438\n        /* \"#utility.yul\":7297:7302   */\n      dup3\n        /* \"#utility.yul\":7249:7303   */\n      tag_291\n      jump\t// in\n    tag_438:\n        /* \"#utility.yul\":7319:7405   */\n      tag_439\n        /* \"#utility.yul\":7398:7404   */\n      dup2\n        /* \"#utility.yul\":7393:7396   */\n      dup6\n        /* \"#utility.yul\":7319:7405   */\n      tag_292\n      jump\t// in\n    tag_439:\n        /* \"#utility.yul\":7312:7405   */\n      swap4\n      pop\n        /* \"#utility.yul\":7429:7485   */\n      tag_440\n        /* \"#utility.yul\":7479:7484   */\n      dup4\n        /* \"#utility.yul\":7429:7485   */\n      tag_293\n      jump\t// in\n    tag_440:\n        /* \"#utility.yul\":7508:7515   */\n      dup1\n        /* \"#utility.yul\":7539:7540   */\n      0x00\n        /* \"#utility.yul\":7524:7808   */\n    tag_441:\n        /* \"#utility.yul\":7549:7555   */\n      dup4\n        /* \"#utility.yul\":7546:7547   */\n      dup2\n        /* \"#utility.yul\":7543:7556   */\n      lt\n        /* \"#utility.yul\":7524:7808   */\n      iszero\n      tag_443\n      jumpi\n        /* \"#utility.yul\":7625:7631   */\n      dup2\n        /* \"#utility.yul\":7619:7632   */\n      mload\n        /* \"#utility.yul\":7652:7715   */\n      tag_444\n        /* \"#utility.yul\":7711:7714   */\n      dup9\n        /* \"#utility.yul\":7696:7709   */\n      dup3\n        /* \"#utility.yul\":7652:7715   */\n      tag_295\n      jump\t// in\n    tag_444:\n        /* \"#utility.yul\":7645:7715   */\n      swap8\n      pop\n        /* \"#utility.yul\":7738:7798   */\n      tag_445\n        /* \"#utility.yul\":7791:7797   */\n      dup4\n        /* \"#utility.yul\":7738:7798   */\n      tag_296\n      jump\t// in\n    tag_445:\n        /* \"#utility.yul\":7728:7798   */\n      swap3\n      pop\n        /* \"#utility.yul\":7584:7808   */\n      pop\n        /* \"#utility.yul\":7571:7572   */\n      0x01\n        /* \"#utility.yul\":7568:7569   */\n      dup2\n        /* \"#utility.yul\":7564:7573   */\n      add\n        /* \"#utility.yul\":7559:7573   */\n      swap1\n      pop\n        /* \"#utility.yul\":7524:7808   */\n      jump(tag_441)\n    tag_443:\n        /* \"#utility.yul\":7528:7542   */\n      pop\n        /* \"#utility.yul\":7824:7827   */\n      dup6\n        /* \"#utility.yul\":7817:7827   */\n      swap4\n      pop\n        /* \"#utility.yul\":7225:7833   */\n      pop\n      pop\n      pop\n        /* \"#utility.yul\":7101:7833   */\n      swap3\n      swap2\n      pop\n      pop\n      jump\t// out\n        /* \"#utility.yul\":7839:7952   */\n    tag_298:\n        /* \"#utility.yul\":7905:7911   */\n      0x00\n        /* \"#utility.yul\":7939:7944   */\n      dup2\n        /* \"#utility.yul\":7933:7945   */\n      mload\n        /* \"#utility.yul\":7923:7945   */\n      swap1\n      pop\n        /* \"#utility.yul\":7839:7952   */\n      swap2\n      swap1\n      pop\n      jump\t// out\n        /* \"#utility.yul\":7958:8141   */\n    tag_299:\n        /* \"#utility.yul\":8056:8067   */\n      0x00\n        /* \"#utility.yul\":8090:8096   */\n      dup3\n        /* \"#utility.yul\":8085:8088   */\n      dup3\n        /* \"#utility.yul\":8078:8097   */\n      mstore\n        /* \"#utility.yul\":8130:8134   */\n      0x20\n        /* \"#utility.yul\":8125:8128   */\n      dup3\n        /* \"#utility.yul\":8121:8135   */\n      add\n        /* \"#utility.yul\":8106:8135   */\n      swap1\n      pop\n        /* \"#utility.yul\":7958:8141   */\n      swap3\n      swap2\n      pop\n      pop\n      jump\t// out\n        /* \"#utility.yul\":8147:8278   */\n    tag_300:\n        /* \"#utility.yul\":8213:8217   */\n      0x00\n        /* \"#utility.yul\":8236:8239   */\n      dup2\n        /* \"#utility.yul\":8228:8239   */\n      swap1\n      pop\n        /* \"#utility.yul\":8266:8270   */\n      0x20\n        /* \"#utility.yul\":8261:8264   */\n      dup3\n        /* \"#utility.yul\":8257:8271   */\n      add\n        /* \"#utility.yul\":8249:8271   */\n      swap1\n      pop\n        /* \"#utility.yul\":8147:8278   */\n      swap2\n      swap1\n      pop\n      jump\t// out\n        /* \"#utility.yul\":8284:8373   */\n    tag_301:\n        /* \"#utility.yul\":8320:8327   */\n      0x00\n        /* \"#utility.yul\":8360:8366   */\n      0xffff\n        /* \"#utility.yul\":8353:8358   */\n      dup3\n        /* \"#utility.yul\":8349:8367   */\n      and\n        /* \"#utility.yul\":8338:8367   */\n      swap1\n      pop\n        /* \"#utility.yul\":8284:8373   */\n      swap2\n      swap1\n      pop\n      jump\t// out\n        /* \"#utility.yul\":8379:8484   */\n    tag_302:\n        /* \"#utility.yul\":8454:8477   */\n      tag_451\n        /* \"#utility.yul\":8471:8476   */\n      dup2\n        /* \"#utility.yul\":8454:8477   */\n      tag_301\n      jump\t// in\n    tag_451:\n        /* \"#utility.yul\":8449:8452   */\n      dup3\n        /* \"#utility.yul\":8442:8478   */\n      mstore\n        /* \"#utility.yul\":8379:8484   */\n      pop\n      pop\n      jump\t// out\n        /* \"#utility.yul\":8490:8665   */\n    tag_303:\n        /* \"#utility.yul\":8557:8567   */\n      0x00\n        /* \"#utility.yul\":8578:8622   */\n      tag_453\n        /* \"#utility.yul\":8618:8621   */\n      dup4\n        /* \"#utility.yul\":8610:8616   */\n      dup4\n        /* \"#utility.yul\":8578:8622   */\n      tag_302\n      jump\t// in\n    tag_453:\n        /* \"#utility.yul\":8654:8658   */\n      0x20\n        /* \"#utility.yul\":8649:8652   */\n      dup4\n        /* \"#utility.yul\":8645:8659   */\n      add\n        /* \"#utility.yul\":8631:8659   */\n      swap1\n      pop\n        /* \"#utility.yul\":8490:8665   */\n      swap3\n      swap2\n      pop\n      pop\n      jump\t// out\n        /* \"#utility.yul\":8671:8783   */\n    tag_304:\n        /* \"#utility.yul\":8740:8744   */\n      0x00\n        /* \"#utility.yul\":8772:8776   */\n      0x20\n        /* \"#utility.yul\":8767:8770   */\n      dup3\n        /* \"#utility.yul\":8763:8777   */\n      add\n        /* \"#utility.yul\":8755:8777   */\n      swap1\n      pop\n        /* \"#utility.yul\":8671:8783   */\n      swap2\n      swap1\n      pop\n      jump\t// out\n        /* \"#utility.yul\":8817:9541   */\n    tag_305:\n        /* \"#utility.yul\":8934:8937   */\n      0x00\n        /* \"#utility.yul\":8963:9016   */\n      tag_456\n        /* \"#utility.yul\":9010:9015   */\n      dup3\n        /* \"#utility.yul\":8963:9016   */\n      tag_298\n      jump\t// in\n    tag_456:\n        /* \"#utility.yul\":9032:9117   */\n      tag_457\n        /* \"#utility.yul\":9110:9116   */\n      dup2\n        /* \"#utility.yul\":9105:9108   */\n      dup6\n        /* \"#utility.yul\":9032:9117   */\n      tag_299\n      jump\t// in\n    tag_457:\n        /* \"#utility.yul\":9025:9117   */\n      swap4\n      pop\n        /* \"#utility.yul\":9141:9196   */\n      tag_458\n        /* \"#utility.yul\":9190:9195   */\n      dup4\n        /* \"#utility.yul\":9141:9196   */\n      tag_300\n      jump\t// in\n    tag_458:\n        /* \"#utility.yul\":9219:9226   */\n      dup1\n        /* \"#utility.yul\":9250:9251   */\n      0x00\n        /* \"#utility.yul\":9235:9516   */\n    tag_459:\n        /* \"#utility.yul\":9260:9266   */\n      dup4\n        /* \"#utility.yul\":9257:9258   */\n      dup2\n        /* \"#utility.yul\":9254:9267   */\n      lt\n        /* \"#utility.yul\":9235:9516   */\n      iszero\n      tag_461\n      jumpi\n        /* \"#utility.yul\":9336:9342   */\n      dup2\n        /* \"#utility.yul\":9330:9343   */\n      mload\n        /* \"#utility.yul\":9363:9424   */\n      tag_462\n        /* \"#utility.yul\":9420:9423   */\n      dup9\n        /* \"#utility.yul\":9405:9418   */\n      dup3\n        /* \"#utility.yul\":9363:9424   */\n      tag_303\n      jump\t// in\n    tag_462:\n        /* \"#utility.yul\":9356:9424   */\n      swap8\n      pop\n        /* \"#utility.yul\":9447:9506   */\n      tag_463\n        /* \"#utility.yul\":9499:9505   */\n      dup4\n        /* \"#utility.yul\":9447:9506   */\n      tag_304\n      jump\t// in\n    tag_463:\n        /* \"#utility.yul\":9437:9506   */\n      swap3\n      pop\n        /* \"#utility.yul\":9295:9516   */\n      pop\n        /* \"#utility.yul\":9282:9283   */\n      0x01\n        /* \"#utility.yul\":9279:9280   */\n      dup2\n        /* \"#utility.yul\":9275:9284   */\n      add\n        /* \"#utility.yul\":9270:9284   */\n      swap1\n      pop\n        /* \"#utility.yul\":9235:9516   */\n      jump(tag_459)\n    tag_461:\n        /* \"#utility.yul\":9239:9253   */\n      pop\n        /* \"#utility.yul\":9532:9535   */\n      dup6\n        /* \"#utility.yul\":9525:9535   */\n      swap4\n      pop\n        /* \"#utility.yul\":8939:9541   */\n      pop\n      pop\n      pop\n        /* \"#utility.yul\":8817:9541   */\n      swap3\n      swap2\n      pop\n      pop\n      jump\t// out\n        /* \"#utility.yul\":9547:9658   */\n    tag_306:\n        /* \"#utility.yul\":9611:9617   */\n      0x00\n        /* \"#utility.yul\":9645:9650   */\n      dup2\n        /* \"#utility.yul\":9639:9651   */\n      mload\n        /* \"#utility.yul\":9629:9651   */\n      swap1\n      pop\n        /* \"#utility.yul\":9547:9658   */\n      swap2\n      swap1\n      pop\n      jump\t// out\n        /* \"#utility.yul\":9664:9845   */\n    tag_307:\n        /* \"#utility.yul\":9760:9771   */\n      0x00\n        /* \"#utility.yul\":9794:9800   */\n      dup3\n        /* \"#utility.yul\":9789:9792   */\n      dup3\n        /* \"#utility.yul\":9782:9801   */\n      mstore\n        /* \"#utility.yul\":9834:9838   */\n      0x20\n        /* \"#utility.yul\":9829:9832   */\n      dup3\n        /* \"#utility.yul\":9825:9839   */\n      add\n        /* \"#utility.yul\":9810:9839   */\n      swap1\n      pop\n        /* \"#utility.yul\":9664:9845   */\n      swap3\n      swap2\n      pop\n      pop\n      jump\t// out\n        /* \"#utility.yul\":9851:9980   */\n    tag_308:\n        /* \"#utility.yul\":9915:9919   */\n      0x00\n        /* \"#utility.yul\":9938:9941   */\n      dup2\n        /* \"#utility.yul\":9930:9941   */\n      swap1\n      pop\n        /* \"#utility.yul\":9968:9972   */\n      0x20\n        /* \"#utility.yul\":9963:9966   */\n      dup3\n        /* \"#utility.yul\":9959:9973   */\n      add\n        /* \"#utility.yul\":9951:9973   */\n      swap1\n      pop\n        /* \"#utility.yul\":9851:9980   */\n      swap2\n      swap1\n      pop\n      jump\t// out\n        /* \"#utility.yul\":9986:10085   */\n    tag_309:\n        /* \"#utility.yul\":10057:10078   */\n      tag_468\n        /* \"#utility.yul\":10072:10077   */\n      dup2\n        /* \"#utility.yul\":10057:10078   */\n      tag_286\n      jump\t// in\n    tag_468:\n        /* \"#utility.yul\":10052:10055   */\n      dup3\n        /* \"#utility.yul\":10045:10079   */\n      mstore\n        /* \"#utility.yul\":9986:10085   */\n      pop\n      pop\n      jump\t// out\n        /* \"#utility.yul\":10091:10258   */\n    tag_310:\n        /* \"#utility.yul\":10154:10164   */\n      0x00\n        /* \"#utility.yul\":10175:10215   */\n      tag_470\n        /* \"#utility.yul\":10211:10214   */\n      dup4\n        /* \"#utility.yul\":10203:10209   */\n      dup4\n        /* \"#utility.yul\":10175:10215   */\n      tag_309\n      jump\t// in\n    tag_470:\n        /* \"#utility.yul\":10247:10251   */\n      0x20\n        /* \"#utility.yul\":10242:10245   */\n      dup4\n        /* \"#utility.yul\":10238:10252   */\n      add\n        /* \"#utility.yul\":10224:10252   */\n      swap1\n      pop\n        /* \"#utility.yul\":10091:10258   */\n      swap3\n      swap2\n      pop\n      pop\n      jump\t// out\n        /* \"#utility.yul\":10264:10374   */\n    tag_311:\n        /* \"#utility.yul\":10331:10335   */\n      0x00\n        /* \"#utility.yul\":10363:10367   */\n      0x20\n        /* \"#utility.yul\":10358:10361   */\n      dup3\n        /* \"#utility.yul\":10354:10368   */\n      add\n        /* \"#utility.yul\":10346:10368   */\n      swap1\n      pop\n        /* \"#utility.yul\":10264:10374   */\n      swap2\n      swap1\n      pop\n      jump\t// out\n        /* \"#utility.yul\":10404:11112   */\n    tag_312:\n        /* \"#utility.yul\":10517:10520   */\n      0x00\n        /* \"#utility.yul\":10546:10597   */\n      tag_473\n        /* \"#utility.yul\":10591:10596   */\n      dup3\n        /* \"#utility.yul\":10546:10597   */\n      tag_306\n      jump\t// in\n    tag_473:\n        /* \"#utility.yul\":10613:10696   */\n      tag_474\n        /* \"#utility.yul\":10689:10695   */\n      dup2\n        /* \"#utility.yul\":10684:10687   */\n      dup6\n        /* \"#utility.yul\":10613:10696   */\n      tag_307\n      jump\t// in\n    tag_474:\n        /* \"#utility.yul\":10606:10696   */\n      swap4\n      pop\n        /* \"#utility.yul\":10720:10773   */\n      tag_475\n        /* \"#utility.yul\":10767:10772   */\n      dup4\n        /* \"#utility.yul\":10720:10773   */\n      tag_308\n      jump\t// in\n    tag_475:\n        /* \"#utility.yul\":10796:10803   */\n      dup1\n        /* \"#utility.yul\":10827:10828   */\n      0x00\n        /* \"#utility.yul\":10812:11087   */\n    tag_476:\n        /* \"#utility.yul\":10837:10843   */\n      dup4\n        /* \"#utility.yul\":10834:10835   */\n      dup2\n        /* \"#utility.yul\":10831:10844   */\n      lt\n        /* \"#utility.yul\":10812:11087   */\n      iszero\n      tag_478\n      jumpi\n        /* \"#utility.yul\":10913:10919   */\n      dup2\n        /* \"#utility.yul\":10907:10920   */\n      mload\n        /* \"#utility.yul\":10940:10997   */\n      tag_479\n        /* \"#utility.yul\":10993:10996   */\n      dup9\n        /* \"#utility.yul\":10978:10991   */\n      dup3\n        /* \"#utility.yul\":10940:10997   */\n      tag_310\n      jump\t// in\n    tag_479:\n        /* \"#utility.yul\":10933:10997   */\n      swap8\n      pop\n        /* \"#utility.yul\":11020:11077   */\n      tag_480\n        /* \"#utility.yul\":11070:11076   */\n      dup4\n        /* \"#utility.yul\":11020:11077   */\n      tag_311\n      jump\t// in\n    tag_480:\n        /* \"#utility.yul\":11010:11077   */\n      swap3\n      pop\n        /* \"#utility.yul\":10872:11087   */\n      pop\n        /* \"#utility.yul\":10859:10860   */\n      0x01\n        /* \"#utility.yul\":10856:10857   */\n      dup2\n        /* \"#utility.yul\":10852:10861   */\n      add\n        /* \"#utility.yul\":10847:10861   */\n      swap1\n      pop\n        /* \"#utility.yul\":10812:11087   */\n      jump(tag_476)\n    tag_478:\n        /* \"#utility.yul\":10816:10830   */\n      pop\n        /* \"#utility.yul\":11103:11106   */\n      dup6\n        /* \"#utility.yul\":11096:11106   */\n      swap4\n      pop\n        /* \"#utility.yul\":10522:11112   */\n      pop\n      pop\n      pop\n        /* \"#utility.yul\":10404:11112   */\n      swap3\n      swap2\n      pop\n      pop\n      jump\t// out\n        /* \"#utility.yul\":11118:12219   */\n    tag_53:\n        /* \"#utility.yul\":11465:11469   */\n      0x00\n        /* \"#utility.yul\":11503:11506   */\n      0xa0\n        /* \"#utility.yul\":11492:11501   */\n      dup3\n        /* \"#utility.yul\":11488:11507   */\n      add\n        /* \"#utility.yul\":11480:11507   */\n      swap1\n      pop\n        /* \"#utility.yul\":11553:11562   */\n      dup2\n        /* \"#utility.yul\":11547:11551   */\n      dup2\n        /* \"#utility.yul\":11543:11563   */\n      sub\n        /* \"#utility.yul\":11539:11540   */\n      0x00\n        /* \"#utility.yul\":11528:11537   */\n      dup4\n        /* \"#utility.yul\":11524:11541   */\n      add\n        /* \"#utility.yul\":11517:11564   */\n      mstore\n        /* \"#utility.yul\":11581:11689   */\n      tag_482\n        /* \"#utility.yul\":11684:11688   */\n      dup2\n        /* \"#utility.yul\":11675:11681   */\n      dup9\n        /* \"#utility.yul\":11581:11689   */\n      tag_297\n      jump\t// in\n    tag_482:\n        /* \"#utility.yul\":11573:11689   */\n      swap1\n      pop\n        /* \"#utility.yul\":11736:11745   */\n      dup2\n        /* \"#utility.yul\":11730:11734   */\n      dup2\n        /* \"#utility.yul\":11726:11746   */\n      sub\n        /* \"#utility.yul\":11721:11723   */\n      0x20\n        /* \"#utility.yul\":11710:11719   */\n      dup4\n        /* \"#utility.yul\":11706:11724   */\n      add\n        /* \"#utility.yul\":11699:11747   */\n      mstore\n        /* \"#utility.yul\":11764:11870   */\n      tag_483\n        /* \"#utility.yul\":11865:11869   */\n      dup2\n        /* \"#utility.yul\":11856:11862   */\n      dup8\n        /* \"#utility.yul\":11764:11870   */\n      tag_305\n      jump\t// in\n    tag_483:\n        /* \"#utility.yul\":11756:11870   */\n      swap1\n      pop\n        /* \"#utility.yul\":11917:11926   */\n      dup2\n        /* \"#utility.yul\":11911:11915   */\n      dup2\n        /* \"#utility.yul\":11907:11927   */\n      sub\n        /* \"#utility.yul\":11902:11904   */\n      0x40\n        /* \"#utility.yul\":11891:11900   */\n      dup4\n        /* \"#utility.yul\":11887:11905   */\n      add\n        /* \"#utility.yul\":11880:11928   */\n      mstore\n        /* \"#utility.yul\":11945:12047   */\n      tag_484\n        /* \"#utility.yul\":12042:12046   */\n      dup2\n        /* \"#utility.yul\":12033:12039   */\n      dup7\n        /* \"#utility.yul\":11945:12047   */\n      tag_312\n      jump\t// in\n    tag_484:\n        /* \"#utility.yul\":11937:12047   */\n      swap1\n      pop\n        /* \"#utility.yul\":12057:12129   */\n      tag_485\n        /* \"#utility.yul\":12125:12127   */\n      0x60\n        /* \"#utility.yul\":12114:12123   */\n      dup4\n        /* \"#utility.yul\":12110:12128   */\n      add\n        /* \"#utility.yul\":12101:12107   */\n      dup6\n        /* \"#utility.yul\":12057:12129   */\n      tag_289\n      jump\t// in\n    tag_485:\n        /* \"#utility.yul\":12139:12212   */\n      tag_486\n        /* \"#utility.yul\":12207:12210   */\n      0x80\n        /* \"#utility.yul\":12196:12205   */\n      dup4\n        /* \"#utility.yul\":12192:12211   */\n      add\n        /* \"#utility.yul\":12183:12189   */\n      dup5\n        /* \"#utility.yul\":12139:12212   */\n      tag_290\n      jump\t// in\n    tag_486:\n        /* \"#utility.yul\":11118:12219   */\n      swap7\n      swap6\n      pop\n      pop\n      pop\n      pop\n      pop\n      pop\n      jump\t// out\n        /* \"#utility.yul\":12225:12598   */\n    tag_61:\n        /* \"#utility.yul\":12368:12372   */\n      0x00\n        /* \"#utility.yul\":12406:12408   */\n      0x20\n        /* \"#utility.yul\":12395:12404   */\n      dup3\n        /* \"#utility.yul\":12391:12409   */\n      add\n        /* \"#utility.yul\":12383:12409   */\n      swap1\n      pop\n        /* \"#utility.yul\":12455:12464   */\n      dup2\n        /* \"#utility.yul\":12449:12453   */\n      dup2\n        /* \"#utility.yul\":12445:12465   */\n      sub\n        /* \"#utility.yul\":12441:12442   */\n      0x00\n        /* \"#utility.yul\":12430:12439   */\n      dup4\n        /* \"#utility.yul\":12426:12443   */\n      add\n        /* \"#utility.yul\":12419:12466   */\n      mstore\n        /* \"#utility.yul\":12483:12591   */\n      tag_488\n        /* \"#utility.yul\":12586:12590   */\n      dup2\n        /* \"#utility.yul\":12577:12583   */\n      dup5\n        /* \"#utility.yul\":12483:12591   */\n      tag_297\n      jump\t// in\n    tag_488:\n        /* \"#utility.yul\":12475:12591   */\n      swap1\n      pop\n        /* \"#utility.yul\":12225:12598   */\n      swap3\n      swap2\n      pop\n      pop\n      jump\t// out\n        /* \"#utility.yul\":12604:12814   */\n    tag_70:\n        /* \"#utility.yul\":12691:12695   */\n      0x00\n        /* \"#utility.yul\":12729:12731   */\n      0x20\n        /* \"#utility.yul\":12718:12727   */\n      dup3\n        /* \"#utility.yul\":12714:12732   */\n      add\n        /* \"#utility.yul\":12706:12732   */\n      swap1\n      pop\n        /* \"#utility.yul\":12742:12807   */\n      tag_490\n        /* \"#utility.yul\":12804:12805   */\n      0x00\n        /* \"#utility.yul\":12793:12802   */\n      dup4\n        /* \"#utility.yul\":12789:12806   */\n      add\n        /* \"#utility.yul\":12780:12786   */\n      dup5\n        /* \"#utility.yul\":12742:12807   */\n      tag_287\n      jump\t// in\n    tag_490:\n        /* \"#utility.yul\":12604:12814   */\n      swap3\n      swap2\n      pop\n      pop\n      jump\t// out\n        /* \"#utility.yul\":12820:12989   */\n    tag_313:\n        /* \"#utility.yul\":12904:12915   */\n      0x00\n        /* \"#utility.yul\":12938:12944   */\n      dup3\n        /* \"#utility.yul\":12933:12936   */\n      dup3\n        /* \"#utility.yul\":12926:12945   */\n      mstore\n        /* \"#utility.yul\":12978:12982   */\n      0x20\n        /* \"#utility.yul\":12973:12976   */\n      dup3\n        /* \"#utility.yul\":12969:12983   */\n      add\n        /* \"#utility.yul\":12954:12983   */\n      swap1\n      pop\n        /* \"#utility.yul\":12820:12989   */\n      swap3\n      swap2\n      pop\n      pop\n      jump\t// out\n        /* \"#utility.yul\":12995:13224   */\n    tag_314:\n        /* \"#utility.yul\":13135:13169   */\n      0x637265617465496e6865726974616e636528292c2061646963696f6e65206f73\n        /* \"#utility.yul\":13131:13132   */\n      0x00\n        /* \"#utility.yul\":13123:13129   */\n      dup3\n        /* \"#utility.yul\":13119:13133   */\n      add\n        /* \"#utility.yul\":13112:13170   */\n      mstore\n        /* \"#utility.yul\":13204:13216   */\n      0x20686572646569726f7300000000000000000000000000000000000000000000\n        /* \"#utility.yul\":13199:13201   */\n      0x20\n        /* \"#utility.yul\":13191:13197   */\n      dup3\n        /* \"#utility.yul\":13187:13202   */\n      add\n        /* \"#utility.yul\":13180:13217   */\n      mstore\n        /* \"#utility.yul\":12995:13224   */\n      pop\n      jump\t// out\n        /* \"#utility.yul\":13230:13596   */\n    tag_315:\n        /* \"#utility.yul\":13372:13375   */\n      0x00\n        /* \"#utility.yul\":13393:13460   */\n      tag_494\n        /* \"#utility.yul\":13457:13459   */\n      0x2a\n        /* \"#utility.yul\":13452:13455   */\n      dup4\n        /* \"#utility.yul\":13393:13460   */\n      tag_313\n      jump\t// in\n    tag_494:\n        /* \"#utility.yul\":13386:13460   */\n      swap2\n      pop\n        /* \"#utility.yul\":13469:13562   */\n      tag_495\n        /* \"#utility.yul\":13558:13561   */\n      dup3\n        /* \"#utility.yul\":13469:13562   */\n      tag_314\n      jump\t// in\n    tag_495:\n        /* \"#utility.yul\":13587:13589   */\n      0x40\n        /* \"#utility.yul\":13582:13585   */\n      dup3\n        /* \"#utility.yul\":13578:13590   */\n      add\n        /* \"#utility.yul\":13571:13590   */\n      swap1\n      pop\n        /* \"#utility.yul\":13230:13596   */\n      swap2\n      swap1\n      pop\n      jump\t// out\n        /* \"#utility.yul\":13602:14021   */\n    tag_74:\n        /* \"#utility.yul\":13768:13772   */\n      0x00\n        /* \"#utility.yul\":13806:13808   */\n      0x20\n        /* \"#utility.yul\":13795:13804   */\n      dup3\n        /* \"#utility.yul\":13791:13809   */\n      add\n        /* \"#utility.yul\":13783:13809   */\n      swap1\n      pop\n        /* \"#utility.yul\":13855:13864   */\n      dup2\n        /* \"#utility.yul\":13849:13853   */\n      dup2\n        /* \"#utility.yul\":13845:13865   */\n      sub\n        /* \"#utility.yul\":13841:13842   */\n      0x00\n        /* \"#utility.yul\":13830:13839   */\n      dup4\n        /* \"#utility.yul\":13826:13843   */\n      add\n        /* \"#utility.yul\":13819:13866   */\n      mstore\n        /* \"#utility.yul\":13883:14014   */\n      tag_497\n        /* \"#utility.yul\":14009:14013   */\n      dup2\n        /* \"#utility.yul\":13883:14014   */\n      tag_315\n      jump\t// in\n    tag_497:\n        /* \"#utility.yul\":13875:14014   */\n      swap1\n      pop\n        /* \"#utility.yul\":13602:14021   */\n      swap2\n      swap1\n      pop\n      jump\t// out\n        /* \"#utility.yul\":14027:14321   */\n    tag_316:\n        /* \"#utility.yul\":14167:14201   */\n      0x637265617465496e6865726974616e636528292c207175616e74696461646520\n        /* \"#utility.yul\":14163:14164   */\n      0x00\n        /* \"#utility.yul\":14155:14161   */\n      dup3\n        /* \"#utility.yul\":14151:14165   */\n      add\n        /* \"#utility.yul\":14144:14202   */\n      mstore\n        /* \"#utility.yul\":14236:14270   */\n      0x646520656e64657265636f73206520706f7263656e746167656e732064696665\n        /* \"#utility.yul\":14231:14233   */\n      0x20\n        /* \"#utility.yul\":14223:14229   */\n      dup3\n        /* \"#utility.yul\":14219:14234   */\n      add\n        /* \"#utility.yul\":14212:14271   */\n      mstore\n        /* \"#utility.yul\":14305:14313   */\n      0x72656e7465730000000000000000000000000000000000000000000000000000\n        /* \"#utility.yul\":14300:14302   */\n      0x40\n        /* \"#utility.yul\":14292:14298   */\n      dup3\n        /* \"#utility.yul\":14288:14303   */\n      add\n        /* \"#utility.yul\":14281:14314   */\n      mstore\n        /* \"#utility.yul\":14027:14321   */\n      pop\n      jump\t// out\n        /* \"#utility.yul\":14327:14693   */\n    tag_317:\n        /* \"#utility.yul\":14469:14472   */\n      0x00\n        /* \"#utility.yul\":14490:14557   */\n      tag_500\n        /* \"#utility.yul\":14554:14556   */\n      0x46\n        /* \"#utility.yul\":14549:14552   */\n      dup4\n        /* \"#utility.yul\":14490:14557   */\n      tag_313\n      jump\t// in\n    tag_500:\n        /* \"#utility.yul\":14483:14557   */\n      swap2\n      pop\n        /* \"#utility.yul\":14566:14659   */\n      tag_501\n        /* \"#utility.yul\":14655:14658   */\n      dup3\n        /* \"#utility.yul\":14566:14659   */\n      tag_316\n      jump\t// in\n    tag_501:\n        /* \"#utility.yul\":14684:14686   */\n      0x60\n        /* \"#utility.yul\":14679:14682   */\n      dup3\n        /* \"#utility.yul\":14675:14687   */\n      add\n        /* \"#utility.yul\":14668:14687   */\n      swap1\n      pop\n        /* \"#utility.yul\":14327:14693   */\n      swap2\n      swap1\n      pop\n      jump\t// out\n        /* \"#utility.yul\":14699:15118   */\n    tag_77:\n        /* \"#utility.yul\":14865:14869   */\n      0x00\n        /* \"#utility.yul\":14903:14905   */\n      0x20\n        /* \"#utility.yul\":14892:14901   */\n      dup3\n        /* \"#utility.yul\":14888:14906   */\n      add\n        /* \"#utility.yul\":14880:14906   */\n      swap1\n      pop\n        /* \"#utility.yul\":14952:14961   */\n      dup2\n        /* \"#utility.yul\":14946:14950   */\n      dup2\n        /* \"#utility.yul\":14942:14962   */\n      sub\n        /* \"#utility.yul\":14938:14939   */\n      0x00\n        /* \"#utility.yul\":14927:14936   */\n      dup4\n        /* \"#utility.yul\":14923:14940   */\n      add\n        /* \"#utility.yul\":14916:14963   */\n      mstore\n        /* \"#utility.yul\":14980:15111   */\n      tag_503\n        /* \"#utility.yul\":15106:15110   */\n      dup2\n        /* \"#utility.yul\":14980:15111   */\n      tag_317\n      jump\t// in\n    tag_503:\n        /* \"#utility.yul\":14972:15111   */\n      swap1\n      pop\n        /* \"#utility.yul\":14699:15118   */\n      swap2\n      swap1\n      pop\n      jump\t// out\n        /* \"#utility.yul\":15124:15304   */\n    tag_87:\n        /* \"#utility.yul\":15172:15249   */\n      0x4e487b7100000000000000000000000000000000000000000000000000000000\n        /* \"#utility.yul\":15169:15170   */\n      0x00\n        /* \"#utility.yul\":15162:15250   */\n      mstore\n        /* \"#utility.yul\":15269:15273   */\n      0x32\n        /* \"#utility.yul\":15266:15267   */\n      0x04\n        /* \"#utility.yul\":15259:15274   */\n      mstore\n        /* \"#utility.yul\":15293:15297   */\n      0x24\n        /* \"#utility.yul\":15290:15291   */\n      0x00\n        /* \"#utility.yul\":15283:15298   */\n      revert\n        /* \"#utility.yul\":15310:15430   */\n    tag_318:\n        /* \"#utility.yul\":15382:15405   */\n      tag_506\n        /* \"#utility.yul\":15399:15404   */\n      dup2\n        /* \"#utility.yul\":15382:15405   */\n      tag_301\n      jump\t// in\n    tag_506:\n        /* \"#utility.yul\":15375:15380   */\n      dup2\n        /* \"#utility.yul\":15372:15406   */\n      eq\n        /* \"#utility.yul\":15362:15424   */\n      tag_507\n      jumpi\n        /* \"#utility.yul\":15420:15421   */\n      0x00\n        /* \"#utility.yul\":15417:15418   */\n      dup1\n        /* \"#utility.yul\":15410:15422   */\n      revert\n        /* \"#utility.yul\":15362:15424   */\n    tag_507:\n        /* \"#utility.yul\":15310:15430   */\n      pop\n      jump\t// out\n        /* \"#utility.yul\":15436:15573   */\n    tag_319:\n        /* \"#utility.yul\":15481:15486   */\n      0x00\n        /* \"#utility.yul\":15519:15525   */\n      dup2\n        /* \"#utility.yul\":15506:15526   */\n      calldataload\n        /* \"#utility.yul\":15497:15526   */\n      swap1\n      pop\n        /* \"#utility.yul\":15535:15567   */\n      tag_509\n        /* \"#utility.yul\":15561:15566   */\n      dup2\n        /* \"#utility.yul\":15535:15567   */\n      tag_318\n      jump\t// in\n    tag_509:\n        /* \"#utility.yul\":15436:15573   */\n      swap3\n      swap2\n      pop\n      pop\n      jump\t// out\n        /* \"#utility.yul\":15579:15906   */\n    tag_92:\n        /* \"#utility.yul\":15637:15643   */\n      0x00\n        /* \"#utility.yul\":15686:15688   */\n      0x20\n        /* \"#utility.yul\":15674:15683   */\n      dup3\n        /* \"#utility.yul\":15665:15672   */\n      dup5\n        /* \"#utility.yul\":15661:15684   */\n      sub\n        /* \"#utility.yul\":15657:15689   */\n      slt\n        /* \"#utility.yul\":15654:15773   */\n      iszero\n      tag_511\n      jumpi\n        /* \"#utility.yul\":15692:15771   */\n      tag_512\n      tag_271\n      jump\t// in\n    tag_512:\n        /* \"#utility.yul\":15654:15773   */\n    tag_511:\n        /* \"#utility.yul\":15812:15813   */\n      0x00\n        /* \"#utility.yul\":15837:15889   */\n      tag_513\n        /* \"#utility.yul\":15881:15888   */\n      dup5\n        /* \"#utility.yul\":15872:15878   */\n      dup3\n        /* \"#utility.yul\":15861:15870   */\n      dup6\n        /* \"#utility.yul\":15857:15879   */\n      add\n        /* \"#utility.yul\":15837:15889   */\n      tag_319\n      jump\t// in\n    tag_513:\n        /* \"#utility.yul\":15827:15889   */\n      swap2\n      pop\n        /* \"#utility.yul\":15783:15899   */\n      pop\n        /* \"#utility.yul\":15579:15906   */\n      swap3\n      swap2\n      pop\n      pop\n      jump\t// out\n        /* \"#utility.yul\":15912:16132   */\n    tag_320:\n        /* \"#utility.yul\":16052:16086   */\n      0x766f6365206e616f20706f737375692074657374616d656e746f206372696164\n        /* \"#utility.yul\":16048:16049   */\n      0x00\n        /* \"#utility.yul\":16040:16046   */\n      dup3\n        /* \"#utility.yul\":16036:16050   */\n      add\n        /* \"#utility.yul\":16029:16087   */\n      mstore\n        /* \"#utility.yul\":16121:16124   */\n      0x6f00000000000000000000000000000000000000000000000000000000000000\n        /* \"#utility.yul\":16116:16118   */\n      0x20\n        /* \"#utility.yul\":16108:16114   */\n      dup3\n        /* \"#utility.yul\":16104:16119   */\n      add\n        /* \"#utility.yul\":16097:16125   */\n      mstore\n        /* \"#utility.yul\":15912:16132   */\n      pop\n      jump\t// out\n        /* \"#utility.yul\":16138:16504   */\n    tag_321:\n        /* \"#utility.yul\":16280:16283   */\n      0x00\n        /* \"#utility.yul\":16301:16368   */\n      tag_516\n        /* \"#utility.yul\":16365:16367   */\n      0x21\n        /* \"#utility.yul\":16360:16363   */\n      dup4\n        /* \"#utility.yul\":16301:16368   */\n      tag_313\n      jump\t// in\n    tag_516:\n        /* \"#utility.yul\":16294:16368   */\n      swap2\n      pop\n        /* \"#utility.yul\":16377:16470   */\n      tag_517\n        /* \"#utility.yul\":16466:16469   */\n      dup3\n        /* \"#utility.yul\":16377:16470   */\n      tag_320\n      jump\t// in\n    tag_517:\n        /* \"#utility.yul\":16495:16497   */\n      0x40\n        /* \"#utility.yul\":16490:16493   */\n      dup3\n        /* \"#utility.yul\":16486:16498   */\n      add\n        /* \"#utility.yul\":16479:16498   */\n      swap1\n      pop\n        /* \"#utility.yul\":16138:16504   */\n      swap2\n      swap1\n      pop\n      jump\t// out\n        /* \"#utility.yul\":16510:16929   */\n    tag_101:\n        /* \"#utility.yul\":16676:16680   */\n      0x00\n        /* \"#utility.yul\":16714:16716   */\n      0x20\n        /* \"#utility.yul\":16703:16712   */\n      dup3\n        /* \"#utility.yul\":16699:16717   */\n      add\n        /* \"#utility.yul\":16691:16717   */\n      swap1\n      pop\n        /* \"#utility.yul\":16763:16772   */\n      dup2\n        /* \"#utility.yul\":16757:16761   */\n      dup2\n        /* \"#utility.yul\":16753:16773   */\n      sub\n        /* \"#utility.yul\":16749:16750   */\n      0x00\n        /* \"#utility.yul\":16738:16747   */\n      dup4\n        /* \"#utility.yul\":16734:16751   */\n      add\n        /* \"#utility.yul\":16727:16774   */\n      mstore\n        /* \"#utility.yul\":16791:16922   */\n      tag_519\n        /* \"#utility.yul\":16917:16921   */\n      dup2\n        /* \"#utility.yul\":16791:16922   */\n      tag_321\n      jump\t// in\n    tag_519:\n        /* \"#utility.yul\":16783:16922   */\n      swap1\n      pop\n        /* \"#utility.yul\":16510:16929   */\n      swap2\n      swap1\n      pop\n      jump\t// out\n        /* \"#utility.yul\":16935:17100   */\n    tag_322:\n        /* \"#utility.yul\":17075:17092   */\n      0x696e7369726120756d2076616c6f720000000000000000000000000000000000\n        /* \"#utility.yul\":17071:17072   */\n      0x00\n        /* \"#utility.yul\":17063:17069   */\n      dup3\n        /* \"#utility.yul\":17059:17073   */\n      add\n        /* \"#utility.yul\":17052:17093   */\n      mstore\n        /* \"#utility.yul\":16935:17100   */\n      pop\n      jump\t// out\n        /* \"#utility.yul\":17106:17472   */\n    tag_323:\n        /* \"#utility.yul\":17248:17251   */\n      0x00\n        /* \"#utility.yul\":17269:17336   */\n      tag_522\n        /* \"#utility.yul\":17333:17335   */\n      0x0f\n        /* \"#utility.yul\":17328:17331   */\n      dup4\n        /* \"#utility.yul\":17269:17336   */\n      tag_313\n      jump\t// in\n    tag_522:\n        /* \"#utility.yul\":17262:17336   */\n      swap2\n      pop\n        /* \"#utility.yul\":17345:17438   */\n      tag_523\n        /* \"#utility.yul\":17434:17437   */\n      dup3\n        /* \"#utility.yul\":17345:17438   */\n      tag_322\n      jump\t// in\n    tag_523:\n        /* \"#utility.yul\":17463:17465   */\n      0x20\n        /* \"#utility.yul\":17458:17461   */\n      dup3\n        /* \"#utility.yul\":17454:17466   */\n      add\n        /* \"#utility.yul\":17447:17466   */\n      swap1\n      pop\n        /* \"#utility.yul\":17106:17472   */\n      swap2\n      swap1\n      pop\n      jump\t// out\n        /* \"#utility.yul\":17478:17897   */\n    tag_104:\n        /* \"#utility.yul\":17644:17648   */\n      0x00\n        /* \"#utility.yul\":17682:17684   */\n      0x20\n        /* \"#utility.yul\":17671:17680   */\n      dup3\n        /* \"#utility.yul\":17667:17685   */\n      add\n        /* \"#utility.yul\":17659:17685   */\n      swap1\n      pop\n        /* \"#utility.yul\":17731:17740   */\n      dup2\n        /* \"#utility.yul\":17725:17729   */\n      dup2\n        /* \"#utility.yul\":17721:17741   */\n      sub\n        /* \"#utility.yul\":17717:17718   */\n      0x00\n        /* \"#utility.yul\":17706:17715   */\n      dup4\n        /* \"#utility.yul\":17702:17719   */\n      add\n        /* \"#utility.yul\":17695:17742   */\n      mstore\n        /* \"#utility.yul\":17759:17890   */\n      tag_525\n        /* \"#utility.yul\":17885:17889   */\n      dup2\n        /* \"#utility.yul\":17759:17890   */\n      tag_323\n      jump\t// in\n    tag_525:\n        /* \"#utility.yul\":17751:17890   */\n      swap1\n      pop\n        /* \"#utility.yul\":17478:17897   */\n      swap2\n      swap1\n      pop\n      jump\t// out\n        /* \"#utility.yul\":17903:18083   */\n    tag_324:\n        /* \"#utility.yul\":17951:18028   */\n      0x4e487b7100000000000000000000000000000000000000000000000000000000\n        /* \"#utility.yul\":17948:17949   */\n      0x00\n        /* \"#utility.yul\":17941:18029   */\n      mstore\n        /* \"#utility.yul\":18048:18052   */\n      0x11\n        /* \"#utility.yul\":18045:18046   */\n      0x04\n        /* \"#utility.yul\":18038:18053   */\n      mstore\n        /* \"#utility.yul\":18072:18076   */\n      0x24\n        /* \"#utility.yul\":18069:18070   */\n      0x00\n        /* \"#utility.yul\":18062:18077   */\n      revert\n        /* \"#utility.yul\":18089:18280   */\n    tag_106:\n        /* \"#utility.yul\":18129:18132   */\n      0x00\n        /* \"#utility.yul\":18148:18168   */\n      tag_528\n        /* \"#utility.yul\":18166:18167   */\n      dup3\n        /* \"#utility.yul\":18148:18168   */\n      tag_282\n      jump\t// in\n    tag_528:\n        /* \"#utility.yul\":18143:18168   */\n      swap2\n      pop\n        /* \"#utility.yul\":18182:18202   */\n      tag_529\n        /* \"#utility.yul\":18200:18201   */\n      dup4\n        /* \"#utility.yul\":18182:18202   */\n      tag_282\n      jump\t// in\n    tag_529:\n        /* \"#utility.yul\":18177:18202   */\n      swap3\n      pop\n        /* \"#utility.yul\":18225:18226   */\n      dup3\n        /* \"#utility.yul\":18222:18223   */\n      dup3\n        /* \"#utility.yul\":18218:18227   */\n      add\n        /* \"#utility.yul\":18211:18227   */\n      swap1\n      pop\n        /* \"#utility.yul\":18246:18249   */\n      dup1\n        /* \"#utility.yul\":18243:18244   */\n      dup3\n        /* \"#utility.yul\":18240:18250   */\n      gt\n        /* \"#utility.yul\":18237:18273   */\n      iszero\n      tag_530\n      jumpi\n        /* \"#utility.yul\":18253:18271   */\n      tag_531\n      tag_324\n      jump\t// in\n    tag_531:\n        /* \"#utility.yul\":18237:18273   */\n    tag_530:\n        /* \"#utility.yul\":18089:18280   */\n      swap3\n      swap2\n      pop\n      pop\n      jump\t// out\n        /* \"#utility.yul\":18286:18462   */\n    tag_325:\n        /* \"#utility.yul\":18426:18454   */\n      0x766f6365206e616f20706f737375692074657374616d656e746f000000000000\n        /* \"#utility.yul\":18422:18423   */\n      0x00\n        /* \"#utility.yul\":18414:18420   */\n      dup3\n        /* \"#utility.yul\":18410:18424   */\n      add\n        /* \"#utility.yul\":18403:18455   */\n      mstore\n        /* \"#utility.yul\":18286:18462   */\n      pop\n      jump\t// out\n        /* \"#utility.yul\":18468:18834   */\n    tag_326:\n        /* \"#utility.yul\":18610:18613   */\n      0x00\n        /* \"#utility.yul\":18631:18698   */\n      tag_534\n        /* \"#utility.yul\":18695:18697   */\n      0x1a\n        /* \"#utility.yul\":18690:18693   */\n      dup4\n        /* \"#utility.yul\":18631:18698   */\n      tag_313\n      jump\t// in\n    tag_534:\n        /* \"#utility.yul\":18624:18698   */\n      swap2\n      pop\n        /* \"#utility.yul\":18707:18800   */\n      tag_535\n        /* \"#utility.yul\":18796:18799   */\n      dup3\n        /* \"#utility.yul\":18707:18800   */\n      tag_325\n      jump\t// in\n    tag_535:\n        /* \"#utility.yul\":18825:18827   */\n      0x20\n        /* \"#utility.yul\":18820:18823   */\n      dup3\n        /* \"#utility.yul\":18816:18828   */\n      add\n        /* \"#utility.yul\":18809:18828   */\n      swap1\n      pop\n        /* \"#utility.yul\":18468:18834   */\n      swap2\n      swap1\n      pop\n      jump\t// out\n        /* \"#utility.yul\":18840:19259   */\n    tag_110:\n        /* \"#utility.yul\":19006:19010   */\n      0x00\n        /* \"#utility.yul\":19044:19046   */\n      0x20\n        /* \"#utility.yul\":19033:19042   */\n      dup3\n        /* \"#utility.yul\":19029:19047   */\n      add\n        /* \"#utility.yul\":19021:19047   */\n      swap1\n      pop\n        /* \"#utility.yul\":19093:19102   */\n      dup2\n        /* \"#utility.yul\":19087:19091   */\n      dup2\n        /* \"#utility.yul\":19083:19103   */\n      sub\n        /* \"#utility.yul\":19079:19080   */\n      0x00\n        /* \"#utility.yul\":19068:19077   */\n      dup4\n        /* \"#utility.yul\":19064:19081   */\n      add\n        /* \"#utility.yul\":19057:19104   */\n      mstore\n        /* \"#utility.yul\":19121:19252   */\n      tag_537\n        /* \"#utility.yul\":19247:19251   */\n      dup2\n        /* \"#utility.yul\":19121:19252   */\n      tag_326\n      jump\t// in\n    tag_537:\n        /* \"#utility.yul\":19113:19252   */\n      swap1\n      pop\n        /* \"#utility.yul\":18840:19259   */\n      swap2\n      swap1\n      pop\n      jump\t// out\n        /* \"#utility.yul\":19265:19412   */\n    tag_327:\n        /* \"#utility.yul\":19366:19377   */\n      0x00\n        /* \"#utility.yul\":19403:19406   */\n      dup2\n        /* \"#utility.yul\":19388:19406   */\n      swap1\n      pop\n        /* \"#utility.yul\":19265:19412   */\n      swap3\n      swap2\n      pop\n      pop\n      jump\t// out\n        /* \"#utility.yul\":19418:19532   */\n    tag_328:\n      pop\n      jump\t// out\n        /* \"#utility.yul\":19538:19936   */\n    tag_329:\n        /* \"#utility.yul\":19697:19700   */\n      0x00\n        /* \"#utility.yul\":19718:19801   */\n      tag_541\n        /* \"#utility.yul\":19799:19800   */\n      0x00\n        /* \"#utility.yul\":19794:19797   */\n      dup4\n        /* \"#utility.yul\":19718:19801   */\n      tag_327\n      jump\t// in\n    tag_541:\n        /* \"#utility.yul\":19711:19801   */\n      swap2\n      pop\n        /* \"#utility.yul\":19810:19903   */\n      tag_542\n        /* \"#utility.yul\":19899:19902   */\n      dup3\n        /* \"#utility.yul\":19810:19903   */\n      tag_328\n      jump\t// in\n    tag_542:\n        /* \"#utility.yul\":19928:19929   */\n      0x00\n        /* \"#utility.yul\":19923:19926   */\n      dup3\n        /* \"#utility.yul\":19919:19930   */\n      add\n        /* \"#utility.yul\":19912:19930   */\n      swap1\n      pop\n        /* \"#utility.yul\":19538:19936   */\n      swap2\n      swap1\n      pop\n      jump\t// out\n        /* \"#utility.yul\":19942:20321   */\n    tag_112:\n        /* \"#utility.yul\":20126:20129   */\n      0x00\n        /* \"#utility.yul\":20148:20295   */\n      tag_544\n        /* \"#utility.yul\":20291:20294   */\n      dup3\n        /* \"#utility.yul\":20148:20295   */\n      tag_329\n      jump\t// in\n    tag_544:\n        /* \"#utility.yul\":20141:20295   */\n      swap2\n      pop\n        /* \"#utility.yul\":20312:20315   */\n      dup2\n        /* \"#utility.yul\":20305:20315   */\n      swap1\n      pop\n        /* \"#utility.yul\":19942:20321   */\n      swap2\n      swap1\n      pop\n      jump\t// out\n        /* \"#utility.yul\":20327:20552   */\n    tag_330:\n        /* \"#utility.yul\":20467:20501   */\n      0x63616e63656c54657374616d656e7428292c2046616c686120616f20656e7669\n        /* \"#utility.yul\":20463:20464   */\n      0x00\n        /* \"#utility.yul\":20455:20461   */\n      dup3\n        /* \"#utility.yul\":20451:20465   */\n      add\n        /* \"#utility.yul\":20444:20502   */\n      mstore\n        /* \"#utility.yul\":20536:20544   */\n      0x6172204554480000000000000000000000000000000000000000000000000000\n        /* \"#utility.yul\":20531:20533   */\n      0x20\n        /* \"#utility.yul\":20523:20529   */\n      dup3\n        /* \"#utility.yul\":20519:20534   */\n      add\n        /* \"#utility.yul\":20512:20545   */\n      mstore\n        /* \"#utility.yul\":20327:20552   */\n      pop\n      jump\t// out\n        /* \"#utility.yul\":20558:20924   */\n    tag_331:\n        /* \"#utility.yul\":20700:20703   */\n      0x00\n        /* \"#utility.yul\":20721:20788   */\n      tag_547\n        /* \"#utility.yul\":20785:20787   */\n      0x26\n        /* \"#utility.yul\":20780:20783   */\n      dup4\n        /* \"#utility.yul\":20721:20788   */\n      tag_313\n      jump\t// in\n    tag_547:\n        /* \"#utility.yul\":20714:20788   */\n      swap2\n      pop\n        /* \"#utility.yul\":20797:20890   */\n      tag_548\n        /* \"#utility.yul\":20886:20889   */\n      dup3\n        /* \"#utility.yul\":20797:20890   */\n      tag_330\n      jump\t// in\n    tag_548:\n        /* \"#utility.yul\":20915:20917   */\n      0x40\n        /* \"#utility.yul\":20910:20913   */\n      dup3\n        /* \"#utility.yul\":20906:20918   */\n      add\n        /* \"#utility.yul\":20899:20918   */\n      swap1\n      pop\n        /* \"#utility.yul\":20558:20924   */\n      swap2\n      swap1\n      pop\n      jump\t// out\n        /* \"#utility.yul\":20930:21349   */\n    tag_118:\n        /* \"#utility.yul\":21096:21100   */\n      0x00\n        /* \"#utility.yul\":21134:21136   */\n      0x20\n        /* \"#utility.yul\":21123:21132   */\n      dup3\n        /* \"#utility.yul\":21119:21137   */\n      add\n        /* \"#utility.yul\":21111:21137   */\n      swap1\n      pop\n        /* \"#utility.yul\":21183:21192   */\n      dup2\n        /* \"#utility.yul\":21177:21181   */\n      dup2\n        /* \"#utility.yul\":21173:21193   */\n      sub\n        /* \"#utility.yul\":21169:21170   */\n      0x00\n        /* \"#utility.yul\":21158:21167   */\n      dup4\n        /* \"#utility.yul\":21154:21171   */\n      add\n        /* \"#utility.yul\":21147:21194   */\n      mstore\n        /* \"#utility.yul\":21211:21342   */\n      tag_550\n        /* \"#utility.yul\":21337:21341   */\n      dup2\n        /* \"#utility.yul\":21211:21342   */\n      tag_331\n      jump\t// in\n    tag_550:\n        /* \"#utility.yul\":21203:21342   */\n      swap1\n      pop\n        /* \"#utility.yul\":20930:21349   */\n      swap2\n      swap1\n      pop\n      jump\t// out\n        /* \"#utility.yul\":21355:21575   */\n    tag_332:\n        /* \"#utility.yul\":21495:21529   */\n      0x41207265746972616461206e616f20706f646520736572207265616c697a6164\n        /* \"#utility.yul\":21491:21492   */\n      0x00\n        /* \"#utility.yul\":21483:21489   */\n      dup3\n        /* \"#utility.yul\":21479:21493   */\n      add\n        /* \"#utility.yul\":21472:21530   */\n      mstore\n        /* \"#utility.yul\":21564:21567   */\n      0x6100000000000000000000000000000000000000000000000000000000000000\n        /* \"#utility.yul\":21559:21561   */\n      0x20\n        /* \"#utility.yul\":21551:21557   */\n      dup3\n        /* \"#utility.yul\":21547:21562   */\n      add\n        /* \"#utility.yul\":21540:21568   */\n      mstore\n        /* \"#utility.yul\":21355:21575   */\n      pop\n      jump\t// out\n        /* \"#utility.yul\":21581:21947   */\n    tag_333:\n        /* \"#utility.yul\":21723:21726   */\n      0x00\n        /* \"#utility.yul\":21744:21811   */\n      tag_553\n        /* \"#utility.yul\":21808:21810   */\n      0x21\n        /* \"#utility.yul\":21803:21806   */\n      dup4\n        /* \"#utility.yul\":21744:21811   */\n      tag_313\n      jump\t// in\n    tag_553:\n        /* \"#utility.yul\":21737:21811   */\n      swap2\n      pop\n        /* \"#utility.yul\":21820:21913   */\n      tag_554\n        /* \"#utility.yul\":21909:21912   */\n      dup3\n        /* \"#utility.yul\":21820:21913   */\n      tag_332\n      jump\t// in\n    tag_554:\n        /* \"#utility.yul\":21938:21940   */\n      0x40\n        /* \"#utility.yul\":21933:21936   */\n      dup3\n        /* \"#utility.yul\":21929:21941   */\n      add\n        /* \"#utility.yul\":21922:21941   */\n      swap1\n      pop\n        /* \"#utility.yul\":21581:21947   */\n      swap2\n      swap1\n      pop\n      jump\t// out\n        /* \"#utility.yul\":21953:22372   */\n    tag_125:\n        /* \"#utility.yul\":22119:22123   */\n      0x00\n        /* \"#utility.yul\":22157:22159   */\n      0x20\n        /* \"#utility.yul\":22146:22155   */\n      dup3\n        /* \"#utility.yul\":22142:22160   */\n      add\n        /* \"#utility.yul\":22134:22160   */\n      swap1\n      pop\n        /* \"#utility.yul\":22206:22215   */\n      dup2\n        /* \"#utility.yul\":22200:22204   */\n      dup2\n        /* \"#utility.yul\":22196:22216   */\n      sub\n        /* \"#utility.yul\":22192:22193   */\n      0x00\n        /* \"#utility.yul\":22181:22190   */\n      dup4\n        /* \"#utility.yul\":22177:22194   */\n      add\n        /* \"#utility.yul\":22170:22217   */\n      mstore\n        /* \"#utility.yul\":22234:22365   */\n      tag_556\n        /* \"#utility.yul\":22360:22364   */\n      dup2\n        /* \"#utility.yul\":22234:22365   */\n      tag_333\n      jump\t// in\n    tag_556:\n        /* \"#utility.yul\":22226:22365   */\n      swap1\n      pop\n        /* \"#utility.yul\":21953:22372   */\n      swap2\n      swap1\n      pop\n      jump\t// out\n        /* \"#utility.yul\":22378:22545   */\n    tag_334:\n        /* \"#utility.yul\":22518:22537   */\n      0x6e616f2074656d20686572646569726f73000000000000000000000000000000\n        /* \"#utility.yul\":22514:22515   */\n      0x00\n        /* \"#utility.yul\":22506:22512   */\n      dup3\n        /* \"#utility.yul\":22502:22516   */\n      add\n        /* \"#utility.yul\":22495:22538   */\n      mstore\n        /* \"#utility.yul\":22378:22545   */\n      pop\n      jump\t// out\n        /* \"#utility.yul\":22551:22917   */\n    tag_335:\n        /* \"#utility.yul\":22693:22696   */\n      0x00\n        /* \"#utility.yul\":22714:22781   */\n      tag_559\n        /* \"#utility.yul\":22778:22780   */\n      0x11\n        /* \"#utility.yul\":22773:22776   */\n      dup4\n        /* \"#utility.yul\":22714:22781   */\n      tag_313\n      jump\t// in\n    tag_559:\n        /* \"#utility.yul\":22707:22781   */\n      swap2\n      pop\n        /* \"#utility.yul\":22790:22883   */\n      tag_560\n        /* \"#utility.yul\":22879:22882   */\n      dup3\n        /* \"#utility.yul\":22790:22883   */\n      tag_334\n      jump\t// in\n    tag_560:\n        /* \"#utility.yul\":22908:22910   */\n      0x20\n        /* \"#utility.yul\":22903:22906   */\n      dup3\n        /* \"#utility.yul\":22899:22911   */\n      add\n        /* \"#utility.yul\":22892:22911   */\n      swap1\n      pop\n        /* \"#utility.yul\":22551:22917   */\n      swap2\n      swap1\n      pop\n      jump\t// out\n        /* \"#utility.yul\":22923:23342   */\n    tag_128:\n        /* \"#utility.yul\":23089:23093   */\n      0x00\n        /* \"#utility.yul\":23127:23129   */\n      0x20\n        /* \"#utility.yul\":23116:23125   */\n      dup3\n        /* \"#utility.yul\":23112:23130   */\n      add\n        /* \"#utility.yul\":23104:23130   */\n      swap1\n      pop\n        /* \"#utility.yul\":23176:23185   */\n      dup2\n        /* \"#utility.yul\":23170:23174   */\n      dup2\n        /* \"#utility.yul\":23166:23186   */\n      sub\n        /* \"#utility.yul\":23162:23163   */\n      0x00\n        /* \"#utility.yul\":23151:23160   */\n      dup4\n        /* \"#utility.yul\":23147:23164   */\n      add\n        /* \"#utility.yul\":23140:23187   */\n      mstore\n        /* \"#utility.yul\":23204:23335   */\n      tag_562\n        /* \"#utility.yul\":23330:23334   */\n      dup2\n        /* \"#utility.yul\":23204:23335   */\n      tag_335\n      jump\t// in\n    tag_562:\n        /* \"#utility.yul\":23196:23335   */\n      swap1\n      pop\n        /* \"#utility.yul\":22923:23342   */\n      swap2\n      swap1\n      pop\n      jump\t// out\n        /* \"#utility.yul\":23348:23525   */\n    tag_336:\n        /* \"#utility.yul\":23488:23517   */\n      0x6e616f2074656d2076616c7565206e6f2074657374616d656e746f0000000000\n        /* \"#utility.yul\":23484:23485   */\n      0x00\n        /* \"#utility.yul\":23476:23482   */\n      dup3\n        /* \"#utility.yul\":23472:23486   */\n      add\n        /* \"#utility.yul\":23465:23518   */\n      mstore\n        /* \"#utility.yul\":23348:23525   */\n      pop\n      jump\t// out\n        /* \"#utility.yul\":23531:23897   */\n    tag_337:\n        /* \"#utility.yul\":23673:23676   */\n      0x00\n        /* \"#utility.yul\":23694:23761   */\n      tag_565\n        /* \"#utility.yul\":23758:23760   */\n      0x1b\n        /* \"#utility.yul\":23753:23756   */\n      dup4\n        /* \"#utility.yul\":23694:23761   */\n      tag_313\n      jump\t// in\n    tag_565:\n        /* \"#utility.yul\":23687:23761   */\n      swap2\n      pop\n        /* \"#utility.yul\":23770:23863   */\n      tag_566\n        /* \"#utility.yul\":23859:23862   */\n      dup3\n        /* \"#utility.yul\":23770:23863   */\n      tag_336\n      jump\t// in\n    tag_566:\n        /* \"#utility.yul\":23888:23890   */\n      0x20\n        /* \"#utility.yul\":23883:23886   */\n      dup3\n        /* \"#utility.yul\":23879:23891   */\n      add\n        /* \"#utility.yul\":23872:23891   */\n      swap1\n      pop\n        /* \"#utility.yul\":23531:23897   */\n      swap2\n      swap1\n      pop\n      jump\t// out\n        /* \"#utility.yul\":23903:24322   */\n    tag_139:\n        /* \"#utility.yul\":24069:24073   */\n      0x00\n        /* \"#utility.yul\":24107:24109   */\n      0x20\n        /* \"#utility.yul\":24096:24105   */\n      dup3\n        /* \"#utility.yul\":24092:24110   */\n      add\n        /* \"#utility.yul\":24084:24110   */\n      swap1\n      pop\n        /* \"#utility.yul\":24156:24165   */\n      dup2\n        /* \"#utility.yul\":24150:24154   */\n      dup2\n        /* \"#utility.yul\":24146:24166   */\n      sub\n        /* \"#utility.yul\":24142:24143   */\n      0x00\n        /* \"#utility.yul\":24131:24140   */\n      dup4\n        /* \"#utility.yul\":24127:24144   */\n      add\n        /* \"#utility.yul\":24120:24167   */\n      mstore\n        /* \"#utility.yul\":24184:24315   */\n      tag_568\n        /* \"#utility.yul\":24310:24314   */\n      dup2\n        /* \"#utility.yul\":24184:24315   */\n      tag_337\n      jump\t// in\n    tag_568:\n        /* \"#utility.yul\":24176:24315   */\n      swap1\n      pop\n        /* \"#utility.yul\":23903:24322   */\n      swap2\n      swap1\n      pop\n      jump\t// out\n        /* \"#utility.yul\":24328:24738   */\n    tag_141:\n        /* \"#utility.yul\":24368:24375   */\n      0x00\n        /* \"#utility.yul\":24391:24411   */\n      tag_570\n        /* \"#utility.yul\":24409:24410   */\n      dup3\n        /* \"#utility.yul\":24391:24411   */\n      tag_282\n      jump\t// in\n    tag_570:\n        /* \"#utility.yul\":24386:24411   */\n      swap2\n      pop\n        /* \"#utility.yul\":24425:24445   */\n      tag_571\n        /* \"#utility.yul\":24443:24444   */\n      dup4\n        /* \"#utility.yul\":24425:24445   */\n      tag_282\n      jump\t// in\n    tag_571:\n        /* \"#utility.yul\":24420:24445   */\n      swap3\n      pop\n        /* \"#utility.yul\":24480:24481   */\n      dup3\n        /* \"#utility.yul\":24477:24478   */\n      dup3\n        /* \"#utility.yul\":24473:24482   */\n      mul\n        /* \"#utility.yul\":24502:24532   */\n      tag_572\n        /* \"#utility.yul\":24520:24531   */\n      dup2\n        /* \"#utility.yul\":24502:24532   */\n      tag_282\n      jump\t// in\n    tag_572:\n        /* \"#utility.yul\":24491:24532   */\n      swap2\n      pop\n        /* \"#utility.yul\":24681:24682   */\n      dup3\n        /* \"#utility.yul\":24672:24679   */\n      dup3\n        /* \"#utility.yul\":24668:24683   */\n      div\n        /* \"#utility.yul\":24665:24666   */\n      dup5\n        /* \"#utility.yul\":24662:24684   */\n      eq\n        /* \"#utility.yul\":24642:24643   */\n      dup4\n        /* \"#utility.yul\":24635:24644   */\n      iszero\n        /* \"#utility.yul\":24615:24698   */\n      or\n        /* \"#utility.yul\":24592:24731   */\n      tag_573\n      jumpi\n        /* \"#utility.yul\":24711:24729   */\n      tag_574\n      tag_324\n      jump\t// in\n    tag_574:\n        /* \"#utility.yul\":24592:24731   */\n    tag_573:\n        /* \"#utility.yul\":24376:24738   */\n      pop\n        /* \"#utility.yul\":24328:24738   */\n      swap3\n      swap2\n      pop\n      pop\n      jump\t// out\n        /* \"#utility.yul\":24744:24924   */\n    tag_338:\n        /* \"#utility.yul\":24792:24869   */\n      0x4e487b7100000000000000000000000000000000000000000000000000000000\n        /* \"#utility.yul\":24789:24790   */\n      0x00\n        /* \"#utility.yul\":24782:24870   */\n      mstore\n        /* \"#utility.yul\":24889:24893   */\n      0x12\n        /* \"#utility.yul\":24886:24887   */\n      0x04\n        /* \"#utility.yul\":24879:24894   */\n      mstore\n        /* \"#utility.yul\":24913:24917   */\n      0x24\n        /* \"#utility.yul\":24910:24911   */\n      0x00\n        /* \"#utility.yul\":24903:24918   */\n      revert\n        /* \"#utility.yul\":24930:25115   */\n    tag_143:\n        /* \"#utility.yul\":24970:24971   */\n      0x00\n        /* \"#utility.yul\":24987:25007   */\n      tag_577\n        /* \"#utility.yul\":25005:25006   */\n      dup3\n        /* \"#utility.yul\":24987:25007   */\n      tag_282\n      jump\t// in\n    tag_577:\n        /* \"#utility.yul\":24982:25007   */\n      swap2\n      pop\n        /* \"#utility.yul\":25021:25041   */\n      tag_578\n        /* \"#utility.yul\":25039:25040   */\n      dup4\n        /* \"#utility.yul\":25021:25041   */\n      tag_282\n      jump\t// in\n    tag_578:\n        /* \"#utility.yul\":25016:25041   */\n      swap3\n      pop\n        /* \"#utility.yul\":25060:25061   */\n      dup3\n        /* \"#utility.yul\":25050:25085   */\n      tag_579\n      jumpi\n        /* \"#utility.yul\":25065:25083   */\n      tag_580\n      tag_338\n      jump\t// in\n    tag_580:\n        /* \"#utility.yul\":25050:25085   */\n    tag_579:\n        /* \"#utility.yul\":25107:25108   */\n      dup3\n        /* \"#utility.yul\":25104:25105   */\n      dup3\n        /* \"#utility.yul\":25100:25109   */\n      div\n        /* \"#utility.yul\":25095:25109   */\n      swap1\n      pop\n        /* \"#utility.yul\":24930:25115   */\n      swap3\n      swap2\n      pop\n      pop\n      jump\t// out\n        /* \"#utility.yul\":25121:25290   */\n    tag_339:\n        /* \"#utility.yul\":25261:25282   */\n      0x46616c686120616f20656e766961722045544800000000000000000000000000\n        /* \"#utility.yul\":25257:25258   */\n      0x00\n        /* \"#utility.yul\":25249:25255   */\n      dup3\n        /* \"#utility.yul\":25245:25259   */\n      add\n        /* \"#utility.yul\":25238:25283   */\n      mstore\n        /* \"#utility.yul\":25121:25290   */\n      pop\n      jump\t// out\n        /* \"#utility.yul\":25296:25662   */\n    tag_340:\n        /* \"#utility.yul\":25438:25441   */\n      0x00\n        /* \"#utility.yul\":25459:25526   */\n      tag_583\n        /* \"#utility.yul\":25523:25525   */\n      0x13\n        /* \"#utility.yul\":25518:25521   */\n      dup4\n        /* \"#utility.yul\":25459:25526   */\n      tag_313\n      jump\t// in\n    tag_583:\n        /* \"#utility.yul\":25452:25526   */\n      swap2\n      pop\n        /* \"#utility.yul\":25535:25628   */\n      tag_584\n        /* \"#utility.yul\":25624:25627   */\n      dup3\n        /* \"#utility.yul\":25535:25628   */\n      tag_339\n      jump\t// in\n    tag_584:\n        /* \"#utility.yul\":25653:25655   */\n      0x20\n        /* \"#utility.yul\":25648:25651   */\n      dup3\n        /* \"#utility.yul\":25644:25656   */\n      add\n        /* \"#utility.yul\":25637:25656   */\n      swap1\n      pop\n        /* \"#utility.yul\":25296:25662   */\n      swap2\n      swap1\n      pop\n      jump\t// out\n        /* \"#utility.yul\":25668:26087   */\n    tag_150:\n        /* \"#utility.yul\":25834:25838   */\n      0x00\n        /* \"#utility.yul\":25872:25874   */\n      0x20\n        /* \"#utility.yul\":25861:25870   */\n      dup3\n        /* \"#utility.yul\":25857:25875   */\n      add\n        /* \"#utility.yul\":25849:25875   */\n      swap1\n      pop\n        /* \"#utility.yul\":25921:25930   */\n      dup2\n        /* \"#utility.yul\":25915:25919   */\n      dup2\n        /* \"#utility.yul\":25911:25931   */\n      sub\n        /* \"#utility.yul\":25907:25908   */\n      0x00\n        /* \"#utility.yul\":25896:25905   */\n      dup4\n        /* \"#utility.yul\":25892:25909   */\n      add\n        /* \"#utility.yul\":25885:25932   */\n      mstore\n        /* \"#utility.yul\":25949:26080   */\n      tag_586\n        /* \"#utility.yul\":26075:26079   */\n      dup2\n        /* \"#utility.yul\":25949:26080   */\n      tag_340\n      jump\t// in\n    tag_586:\n        /* \"#utility.yul\":25941:26080   */\n      swap1\n      pop\n        /* \"#utility.yul\":25668:26087   */\n      swap2\n      swap1\n      pop\n      jump\t// out\n        /* \"#utility.yul\":26093:26268   */\n    tag_341:\n        /* \"#utility.yul\":26233:26260   */\n      0x766f6365206e616f2074656d206973736f207475646f20616900000000000000\n        /* \"#utility.yul\":26229:26230   */\n      0x00\n        /* \"#utility.yul\":26221:26227   */\n      dup3\n        /* \"#utility.yul\":26217:26231   */\n      add\n        /* \"#utility.yul\":26210:26261   */\n      mstore\n        /* \"#utility.yul\":26093:26268   */\n      pop\n      jump\t// out\n        /* \"#utility.yul\":26274:26640   */\n    tag_342:\n        /* \"#utility.yul\":26416:26419   */\n      0x00\n        /* \"#utility.yul\":26437:26504   */\n      tag_589\n        /* \"#utility.yul\":26501:26503   */\n      0x19\n        /* \"#utility.yul\":26496:26499   */\n      dup4\n        /* \"#utility.yul\":26437:26504   */\n      tag_313\n      jump\t// in\n    tag_589:\n        /* \"#utility.yul\":26430:26504   */\n      swap2\n      pop\n        /* \"#utility.yul\":26513:26606   */\n      tag_590\n        /* \"#utility.yul\":26602:26605   */\n      dup3\n        /* \"#utility.yul\":26513:26606   */\n      tag_341\n      jump\t// in\n    tag_590:\n        /* \"#utility.yul\":26631:26633   */\n      0x20\n        /* \"#utility.yul\":26626:26629   */\n      dup3\n        /* \"#utility.yul\":26622:26634   */\n      add\n        /* \"#utility.yul\":26615:26634   */\n      swap1\n      pop\n        /* \"#utility.yul\":26274:26640   */\n      swap2\n      swap1\n      pop\n      jump\t// out\n        /* \"#utility.yul\":26646:27065   */\n    tag_158:\n        /* \"#utility.yul\":26812:26816   */\n      0x00\n        /* \"#utility.yul\":26850:26852   */\n      0x20\n        /* \"#utility.yul\":26839:26848   */\n      dup3\n        /* \"#utility.yul\":26835:26853   */\n      add\n        /* \"#utility.yul\":26827:26853   */\n      swap1\n      pop\n        /* \"#utility.yul\":26899:26908   */\n      dup2\n        /* \"#utility.yul\":26893:26897   */\n      dup2\n        /* \"#utility.yul\":26889:26909   */\n      sub\n        /* \"#utility.yul\":26885:26886   */\n      0x00\n        /* \"#utility.yul\":26874:26883   */\n      dup4\n        /* \"#utility.yul\":26870:26887   */\n      add\n        /* \"#utility.yul\":26863:26910   */\n      mstore\n        /* \"#utility.yul\":26927:27058   */\n      tag_592\n        /* \"#utility.yul\":27053:27057   */\n      dup2\n        /* \"#utility.yul\":26927:27058   */\n      tag_342\n      jump\t// in\n    tag_592:\n        /* \"#utility.yul\":26919:27058   */\n      swap1\n      pop\n        /* \"#utility.yul\":26646:27065   */\n      swap2\n      swap1\n      pop\n      jump\t// out\n        /* \"#utility.yul\":27071:27230   */\n    tag_343:\n        /* \"#utility.yul\":27211:27222   */\n      0x6e616f207469726f750000000000000000000000000000000000000000000000\n        /* \"#utility.yul\":27207:27208   */\n      0x00\n        /* \"#utility.yul\":27199:27205   */\n      dup3\n        /* \"#utility.yul\":27195:27209   */\n      add\n        /* \"#utility.yul\":27188:27223   */\n      mstore\n        /* \"#utility.yul\":27071:27230   */\n      pop\n      jump\t// out\n        /* \"#utility.yul\":27236:27601   */\n    tag_344:\n        /* \"#utility.yul\":27378:27381   */\n      0x00\n        /* \"#utility.yul\":27399:27465   */\n      tag_595\n        /* \"#utility.yul\":27463:27464   */\n      0x09\n        /* \"#utility.yul\":27458:27461   */\n      dup4\n        /* \"#utility.yul\":27399:27465   */\n      tag_313\n      jump\t// in\n    tag_595:\n        /* \"#utility.yul\":27392:27465   */\n      swap2\n      pop\n        /* \"#utility.yul\":27474:27567   */\n      tag_596\n        /* \"#utility.yul\":27563:27566   */\n      dup3\n        /* \"#utility.yul\":27474:27567   */\n      tag_343\n      jump\t// in\n    tag_596:\n        /* \"#utility.yul\":27592:27594   */\n      0x20\n        /* \"#utility.yul\":27587:27590   */\n      dup3\n        /* \"#utility.yul\":27583:27595   */\n      add\n        /* \"#utility.yul\":27576:27595   */\n      swap1\n      pop\n        /* \"#utility.yul\":27236:27601   */\n      swap2\n      swap1\n      pop\n      jump\t// out\n        /* \"#utility.yul\":27607:28026   */\n    tag_165:\n        /* \"#utility.yul\":27773:27777   */\n      0x00\n        /* \"#utility.yul\":27811:27813   */\n      0x20\n        /* \"#utility.yul\":27800:27809   */\n      dup3\n        /* \"#utility.yul\":27796:27814   */\n      add\n        /* \"#utility.yul\":27788:27814   */\n      swap1\n      pop\n        /* \"#utility.yul\":27860:27869   */\n      dup2\n        /* \"#utility.yul\":27854:27858   */\n      dup2\n        /* \"#utility.yul\":27850:27870   */\n      sub\n        /* \"#utility.yul\":27846:27847   */\n      0x00\n        /* \"#utility.yul\":27835:27844   */\n      dup4\n        /* \"#utility.yul\":27831:27848   */\n      add\n        /* \"#utility.yul\":27824:27871   */\n      mstore\n        /* \"#utility.yul\":27888:28019   */\n      tag_598\n        /* \"#utility.yul\":28014:28018   */\n      dup2\n        /* \"#utility.yul\":27888:28019   */\n      tag_344\n      jump\t// in\n    tag_598:\n        /* \"#utility.yul\":27880:28019   */\n      swap1\n      pop\n        /* \"#utility.yul\":27607:28026   */\n      swap2\n      swap1\n      pop\n      jump\t// out\n        /* \"#utility.yul\":28032:28226   */\n    tag_167:\n        /* \"#utility.yul\":28072:28076   */\n      0x00\n        /* \"#utility.yul\":28092:28112   */\n      tag_600\n        /* \"#utility.yul\":28110:28111   */\n      dup3\n        /* \"#utility.yul\":28092:28112   */\n      tag_282\n      jump\t// in\n    tag_600:\n        /* \"#utility.yul\":28087:28112   */\n      swap2\n      pop\n        /* \"#utility.yul\":28126:28146   */\n      tag_601\n        /* \"#utility.yul\":28144:28145   */\n      dup4\n        /* \"#utility.yul\":28126:28146   */\n      tag_282\n      jump\t// in\n    tag_601:\n        /* \"#utility.yul\":28121:28146   */\n      swap3\n      pop\n        /* \"#utility.yul\":28170:28171   */\n      dup3\n        /* \"#utility.yul\":28167:28168   */\n      dup3\n        /* \"#utility.yul\":28163:28172   */\n      sub\n        /* \"#utility.yul\":28155:28172   */\n      swap1\n      pop\n        /* \"#utility.yul\":28194:28195   */\n      dup2\n        /* \"#utility.yul\":28188:28192   */\n      dup2\n        /* \"#utility.yul\":28185:28196   */\n      gt\n        /* \"#utility.yul\":28182:28219   */\n      iszero\n      tag_602\n      jumpi\n        /* \"#utility.yul\":28199:28217   */\n      tag_603\n      tag_324\n      jump\t// in\n    tag_603:\n        /* \"#utility.yul\":28182:28219   */\n    tag_602:\n        /* \"#utility.yul\":28032:28226   */\n      swap3\n      swap2\n      pop\n      pop\n      jump\t// out\n        /* \"#utility.yul\":28232:28405   */\n    tag_345:\n        /* \"#utility.yul\":28372:28397   */\n      0x5465737461646f72206e616f20656e636f6e747261646f000000000000000000\n        /* \"#utility.yul\":28368:28369   */\n      0x00\n        /* \"#utility.yul\":28360:28366   */\n      dup3\n        /* \"#utility.yul\":28356:28370   */\n      add\n        /* \"#utility.yul\":28349:28398   */\n      mstore\n        /* \"#utility.yul\":28232:28405   */\n      pop\n      jump\t// out\n        /* \"#utility.yul\":28411:28777   */\n    tag_346:\n        /* \"#utility.yul\":28553:28556   */\n      0x00\n        /* \"#utility.yul\":28574:28641   */\n      tag_606\n        /* \"#utility.yul\":28638:28640   */\n      0x17\n        /* \"#utility.yul\":28633:28636   */\n      dup4\n        /* \"#utility.yul\":28574:28641   */\n      tag_313\n      jump\t// in\n    tag_606:\n        /* \"#utility.yul\":28567:28641   */\n      swap2\n      pop\n        /* \"#utility.yul\":28650:28743   */\n      tag_607\n        /* \"#utility.yul\":28739:28742   */\n      dup3\n        /* \"#utility.yul\":28650:28743   */\n      tag_345\n      jump\t// in\n    tag_607:\n        /* \"#utility.yul\":28768:28770   */\n      0x20\n        /* \"#utility.yul\":28763:28766   */\n      dup3\n        /* \"#utility.yul\":28759:28771   */\n      add\n        /* \"#utility.yul\":28752:28771   */\n      swap1\n      pop\n        /* \"#utility.yul\":28411:28777   */\n      swap2\n      swap1\n      pop\n      jump\t// out\n        /* \"#utility.yul\":28783:29202   */\n    tag_174:\n        /* \"#utility.yul\":28949:28953   */\n      0x00\n        /* \"#utility.yul\":28987:28989   */\n      0x20\n        /* \"#utility.yul\":28976:28985   */\n      dup3\n        /* \"#utility.yul\":28972:28990   */\n      add\n        /* \"#utility.yul\":28964:28990   */\n      swap1\n      pop\n        /* \"#utility.yul\":29036:29045   */\n      dup2\n        /* \"#utility.yul\":29030:29034   */\n      dup2\n        /* \"#utility.yul\":29026:29046   */\n      sub\n        /* \"#utility.yul\":29022:29023   */\n      0x00\n        /* \"#utility.yul\":29011:29020   */\n      dup4\n        /* \"#utility.yul\":29007:29024   */\n      add\n        /* \"#utility.yul\":29000:29047   */\n      mstore\n        /* \"#utility.yul\":29064:29195   */\n      tag_609\n        /* \"#utility.yul\":29190:29194   */\n      dup2\n        /* \"#utility.yul\":29064:29195   */\n      tag_346\n      jump\t// in\n    tag_609:\n        /* \"#utility.yul\":29056:29195   */\n      swap1\n      pop\n        /* \"#utility.yul\":28783:29202   */\n      swap2\n      swap1\n      pop\n      jump\t// out\n        /* \"#utility.yul\":29208:29388   */\n    tag_177:\n        /* \"#utility.yul\":29256:29333   */\n      0x4e487b7100000000000000000000000000000000000000000000000000000000\n        /* \"#utility.yul\":29253:29254   */\n      0x00\n        /* \"#utility.yul\":29246:29334   */\n      mstore\n        /* \"#utility.yul\":29353:29357   */\n      0x41\n        /* \"#utility.yul\":29350:29351   */\n      0x04\n        /* \"#utility.yul\":29343:29358   */\n      mstore\n        /* \"#utility.yul\":29377:29381   */\n      0x24\n        /* \"#utility.yul\":29374:29375   */\n      0x00\n        /* \"#utility.yul\":29367:29382   */\n      revert\n        /* \"#utility.yul\":29394:29495   */\n    tag_347:\n        /* \"#utility.yul\":29430:29437   */\n      0x00\n        /* \"#utility.yul\":29470:29488   */\n      0xffffffffffffffff\n        /* \"#utility.yul\":29463:29468   */\n      dup3\n        /* \"#utility.yul\":29459:29489   */\n      and\n        /* \"#utility.yul\":29448:29489   */\n      swap1\n      pop\n        /* \"#utility.yul\":29394:29495   */\n      swap2\n      swap1\n      pop\n      jump\t// out\n        /* \"#utility.yul\":29501:29684   */\n    tag_197:\n        /* \"#utility.yul\":29539:29542   */\n      0x00\n        /* \"#utility.yul\":29562:29585   */\n      tag_613\n        /* \"#utility.yul\":29579:29584   */\n      dup3\n        /* \"#utility.yul\":29562:29585   */\n      tag_347\n      jump\t// in\n    tag_613:\n        /* \"#utility.yul\":29553:29585   */\n      swap2\n      pop\n        /* \"#utility.yul\":29607:29625   */\n      0xffffffffffffffff\n        /* \"#utility.yul\":29600:29605   */\n      dup3\n        /* \"#utility.yul\":29597:29626   */\n      sub\n        /* \"#utility.yul\":29594:29649   */\n      tag_614\n      jumpi\n        /* \"#utility.yul\":29629:29647   */\n      tag_615\n      tag_324\n      jump\t// in\n    tag_615:\n        /* \"#utility.yul\":29594:29649   */\n    tag_614:\n        /* \"#utility.yul\":29676:29677   */\n      0x01\n        /* \"#utility.yul\":29669:29674   */\n      dup3\n        /* \"#utility.yul\":29665:29678   */\n      add\n        /* \"#utility.yul\":29658:29678   */\n      swap1\n      pop\n        /* \"#utility.yul\":29501:29684   */\n      swap2\n      swap1\n      pop\n      jump\t// out\n        /* \"#utility.yul\":29690:29917   */\n    tag_348:\n        /* \"#utility.yul\":29830:29864   */\n      0x566f6365206e616f20706f73737569206e656e68756d2074657374616d656e74\n        /* \"#utility.yul\":29826:29827   */\n      0x00\n        /* \"#utility.yul\":29818:29824   */\n      dup3\n        /* \"#utility.yul\":29814:29828   */\n      add\n        /* \"#utility.yul\":29807:29865   */\n      mstore\n        /* \"#utility.yul\":29899:29909   */\n      0x6f2063726961646f000000000000000000000000000000000000000000000000\n        /* \"#utility.yul\":29894:29896   */\n      0x20\n        /* \"#utility.yul\":29886:29892   */\n      dup3\n        /* \"#utility.yul\":29882:29897   */\n      add\n        /* \"#utility.yul\":29875:29910   */\n      mstore\n        /* \"#utility.yul\":29690:29917   */\n      pop\n      jump\t// out\n        /* \"#utility.yul\":29923:30289   */\n    tag_349:\n        /* \"#utility.yul\":30065:30068   */\n      0x00\n        /* \"#utility.yul\":30086:30153   */\n      tag_618\n        /* \"#utility.yul\":30150:30152   */\n      0x28\n        /* \"#utility.yul\":30145:30148   */\n      dup4\n        /* \"#utility.yul\":30086:30153   */\n      tag_313\n      jump\t// in\n    tag_618:\n        /* \"#utility.yul\":30079:30153   */\n      swap2\n      pop\n        /* \"#utility.yul\":30162:30255   */\n      tag_619\n        /* \"#utility.yul\":30251:30254   */\n      dup3\n        /* \"#utility.yul\":30162:30255   */\n      tag_348\n      jump\t// in\n    tag_619:\n        /* \"#utility.yul\":30280:30282   */\n      0x40\n        /* \"#utility.yul\":30275:30278   */\n      dup3\n        /* \"#utility.yul\":30271:30283   */\n      add\n        /* \"#utility.yul\":30264:30283   */\n      swap1\n      pop\n        /* \"#utility.yul\":29923:30289   */\n      swap2\n      swap1\n      pop\n      jump\t// out\n        /* \"#utility.yul\":30295:30714   */\n    tag_201:\n        /* \"#utility.yul\":30461:30465   */\n      0x00\n        /* \"#utility.yul\":30499:30501   */\n      0x20\n        /* \"#utility.yul\":30488:30497   */\n      dup3\n        /* \"#utility.yul\":30484:30502   */\n      add\n        /* \"#utility.yul\":30476:30502   */\n      swap1\n      pop\n        /* \"#utility.yul\":30548:30557   */\n      dup2\n        /* \"#utility.yul\":30542:30546   */\n      dup2\n        /* \"#utility.yul\":30538:30558   */\n      sub\n        /* \"#utility.yul\":30534:30535   */\n      0x00\n        /* \"#utility.yul\":30523:30532   */\n      dup4\n        /* \"#utility.yul\":30519:30536   */\n      add\n        /* \"#utility.yul\":30512:30559   */\n      mstore\n        /* \"#utility.yul\":30576:30707   */\n      tag_621\n        /* \"#utility.yul\":30702:30706   */\n      dup2\n        /* \"#utility.yul\":30576:30707   */\n      tag_349\n      jump\t// in\n    tag_621:\n        /* \"#utility.yul\":30568:30707   */\n      swap1\n      pop\n        /* \"#utility.yul\":30295:30714   */\n      swap2\n      swap1\n      pop\n      jump\t// out\n        /* \"#utility.yul\":30720:30941   */\n    tag_350:\n        /* \"#utility.yul\":30860:30894   */\n      0x566f6365206e616f206573746120656d206e656e68756d2074657374616d656e\n        /* \"#utility.yul\":30856:30857   */\n      0x00\n        /* \"#utility.yul\":30848:30854   */\n      dup3\n        /* \"#utility.yul\":30844:30858   */\n      add\n        /* \"#utility.yul\":30837:30895   */\n      mstore\n        /* \"#utility.yul\":30929:30933   */\n      0x746f000000000000000000000000000000000000000000000000000000000000\n        /* \"#utility.yul\":30924:30926   */\n      0x20\n        /* \"#utility.yul\":30916:30922   */\n      dup3\n        /* \"#utility.yul\":30912:30927   */\n      add\n        /* \"#utility.yul\":30905:30934   */\n      mstore\n        /* \"#utility.yul\":30720:30941   */\n      pop\n      jump\t// out\n        /* \"#utility.yul\":30947:31313   */\n    tag_351:\n        /* \"#utility.yul\":31089:31092   */\n      0x00\n        /* \"#utility.yul\":31110:31177   */\n      tag_624\n        /* \"#utility.yul\":31174:31176   */\n      0x22\n        /* \"#utility.yul\":31169:31172   */\n      dup4\n        /* \"#utility.yul\":31110:31177   */\n      tag_313\n      jump\t// in\n    tag_624:\n        /* \"#utility.yul\":31103:31177   */\n      swap2\n      pop\n        /* \"#utility.yul\":31186:31279   */\n      tag_625\n        /* \"#utility.yul\":31275:31278   */\n      dup3\n        /* \"#utility.yul\":31186:31279   */\n      tag_350\n      jump\t// in\n    tag_625:\n        /* \"#utility.yul\":31304:31306   */\n      0x40\n        /* \"#utility.yul\":31299:31302   */\n      dup3\n        /* \"#utility.yul\":31295:31307   */\n      add\n        /* \"#utility.yul\":31288:31307   */\n      swap1\n      pop\n        /* \"#utility.yul\":30947:31313   */\n      swap2\n      swap1\n      pop\n      jump\t// out\n        /* \"#utility.yul\":31319:31738   */\n    tag_205:\n        /* \"#utility.yul\":31485:31489   */\n      0x00\n        /* \"#utility.yul\":31523:31525   */\n      0x20\n        /* \"#utility.yul\":31512:31521   */\n      dup3\n        /* \"#utility.yul\":31508:31526   */\n      add\n        /* \"#utility.yul\":31500:31526   */\n      swap1\n      pop\n        /* \"#utility.yul\":31572:31581   */\n      dup2\n        /* \"#utility.yul\":31566:31570   */\n      dup2\n        /* \"#utility.yul\":31562:31582   */\n      sub\n        /* \"#utility.yul\":31558:31559   */\n      0x00\n        /* \"#utility.yul\":31547:31556   */\n      dup4\n        /* \"#utility.yul\":31543:31560   */\n      add\n        /* \"#utility.yul\":31536:31583   */\n      mstore\n        /* \"#utility.yul\":31600:31731   */\n      tag_627\n        /* \"#utility.yul\":31726:31730   */\n      dup2\n        /* \"#utility.yul\":31600:31731   */\n      tag_351\n      jump\t// in\n    tag_627:\n        /* \"#utility.yul\":31592:31731   */\n      swap1\n      pop\n        /* \"#utility.yul\":31319:31738   */\n      swap2\n      swap1\n      pop\n      jump\t// out\n        /* \"#utility.yul\":31744:31966   */\n    tag_352:\n        /* \"#utility.yul\":31884:31918   */\n      0x637265617465496e6865726974616e636528292c2076616c6f7220696e76616c\n        /* \"#utility.yul\":31880:31881   */\n      0x00\n        /* \"#utility.yul\":31872:31878   */\n      dup3\n        /* \"#utility.yul\":31868:31882   */\n      add\n        /* \"#utility.yul\":31861:31919   */\n      mstore\n        /* \"#utility.yul\":31953:31958   */\n      0x69646f0000000000000000000000000000000000000000000000000000000000\n        /* \"#utility.yul\":31948:31950   */\n      0x20\n        /* \"#utility.yul\":31940:31946   */\n      dup3\n        /* \"#utility.yul\":31936:31951   */\n      add\n        /* \"#utility.yul\":31929:31959   */\n      mstore\n        /* \"#utility.yul\":31744:31966   */\n      pop\n      jump\t// out\n        /* \"#utility.yul\":31972:32338   */\n    tag_353:\n        /* \"#utility.yul\":32114:32117   */\n      0x00\n        /* \"#utility.yul\":32135:32202   */\n      tag_630\n        /* \"#utility.yul\":32199:32201   */\n      0x23\n        /* \"#utility.yul\":32194:32197   */\n      dup4\n        /* \"#utility.yul\":32135:32202   */\n      tag_313\n      jump\t// in\n    tag_630:\n        /* \"#utility.yul\":32128:32202   */\n      swap2\n      pop\n        /* \"#utility.yul\":32211:32304   */\n      tag_631\n        /* \"#utility.yul\":32300:32303   */\n      dup3\n        /* \"#utility.yul\":32211:32304   */\n      tag_352\n      jump\t// in\n    tag_631:\n        /* \"#utility.yul\":32329:32331   */\n      0x40\n        /* \"#utility.yul\":32324:32327   */\n      dup3\n        /* \"#utility.yul\":32320:32332   */\n      add\n        /* \"#utility.yul\":32313:32332   */\n      swap1\n      pop\n        /* \"#utility.yul\":31972:32338   */\n      swap2\n      swap1\n      pop\n      jump\t// out\n        /* \"#utility.yul\":32344:32763   */\n    tag_211:\n        /* \"#utility.yul\":32510:32514   */\n      0x00\n        /* \"#utility.yul\":32548:32550   */\n      0x20\n        /* \"#utility.yul\":32537:32546   */\n      dup3\n        /* \"#utility.yul\":32533:32551   */\n      add\n        /* \"#utility.yul\":32525:32551   */\n      swap1\n      pop\n        /* \"#utility.yul\":32597:32606   */\n      dup2\n        /* \"#utility.yul\":32591:32595   */\n      dup2\n        /* \"#utility.yul\":32587:32607   */\n      sub\n        /* \"#utility.yul\":32583:32584   */\n      0x00\n        /* \"#utility.yul\":32572:32581   */\n      dup4\n        /* \"#utility.yul\":32568:32585   */\n      add\n        /* \"#utility.yul\":32561:32608   */\n      mstore\n        /* \"#utility.yul\":32625:32756   */\n      tag_633\n        /* \"#utility.yul\":32751:32755   */\n      dup2\n        /* \"#utility.yul\":32625:32756   */\n      tag_353\n      jump\t// in\n    tag_633:\n        /* \"#utility.yul\":32617:32756   */\n      swap1\n      pop\n        /* \"#utility.yul\":32344:32763   */\n      swap2\n      swap1\n      pop\n      jump\t// out\n        /* \"#utility.yul\":32769:33020   */\n    tag_354:\n        /* \"#utility.yul\":32909:32943   */\n      0x637265617465496e6865726974616e636528292c20766f6365206a612074656d\n        /* \"#utility.yul\":32905:32906   */\n      0x00\n        /* \"#utility.yul\":32897:32903   */\n      dup3\n        /* \"#utility.yul\":32893:32907   */\n      add\n        /* \"#utility.yul\":32886:32944   */\n      mstore\n        /* \"#utility.yul\":32978:33012   */\n      0x20756d2074657374616d656e746f2063726961646f2c20656469746520656c65\n        /* \"#utility.yul\":32973:32975   */\n      0x20\n        /* \"#utility.yul\":32965:32971   */\n      dup3\n        /* \"#utility.yul\":32961:32976   */\n      add\n        /* \"#utility.yul\":32954:33013   */\n      mstore\n        /* \"#utility.yul\":32769:33020   */\n      pop\n      jump\t// out\n        /* \"#utility.yul\":33026:33392   */\n    tag_355:\n        /* \"#utility.yul\":33168:33171   */\n      0x00\n        /* \"#utility.yul\":33189:33256   */\n      tag_636\n        /* \"#utility.yul\":33253:33255   */\n      0x40\n        /* \"#utility.yul\":33248:33251   */\n      dup4\n        /* \"#utility.yul\":33189:33256   */\n      tag_313\n      jump\t// in\n    tag_636:\n        /* \"#utility.yul\":33182:33256   */\n      swap2\n      pop\n        /* \"#utility.yul\":33265:33358   */\n      tag_637\n        /* \"#utility.yul\":33354:33357   */\n      dup3\n        /* \"#utility.yul\":33265:33358   */\n      tag_354\n      jump\t// in\n    tag_637:\n        /* \"#utility.yul\":33383:33385   */\n      0x40\n        /* \"#utility.yul\":33378:33381   */\n      dup3\n        /* \"#utility.yul\":33374:33386   */\n      add\n        /* \"#utility.yul\":33367:33386   */\n      swap1\n      pop\n        /* \"#utility.yul\":33026:33392   */\n      swap2\n      swap1\n      pop\n      jump\t// out\n        /* \"#utility.yul\":33398:33817   */\n    tag_218:\n        /* \"#utility.yul\":33564:33568   */\n      0x00\n        /* \"#utility.yul\":33602:33604   */\n      0x20\n        /* \"#utility.yul\":33591:33600   */\n      dup3\n        /* \"#utility.yul\":33587:33605   */\n      add\n        /* \"#utility.yul\":33579:33605   */\n      swap1\n      pop\n        /* \"#utility.yul\":33651:33660   */\n      dup2\n        /* \"#utility.yul\":33645:33649   */\n      dup2\n        /* \"#utility.yul\":33641:33661   */\n      sub\n        /* \"#utility.yul\":33637:33638   */\n      0x00\n        /* \"#utility.yul\":33626:33635   */\n      dup4\n        /* \"#utility.yul\":33622:33639   */\n      add\n        /* \"#utility.yul\":33615:33662   */\n      mstore\n        /* \"#utility.yul\":33679:33810   */\n      tag_639\n        /* \"#utility.yul\":33805:33809   */\n      dup2\n        /* \"#utility.yul\":33679:33810   */\n      tag_355\n      jump\t// in\n    tag_639:\n        /* \"#utility.yul\":33671:33810   */\n      swap1\n      pop\n        /* \"#utility.yul\":33398:33817   */\n      swap2\n      swap1\n      pop\n      jump\t// out\n        /* \"#utility.yul\":33823:34003   */\n    tag_263:\n        /* \"#utility.yul\":33871:33948   */\n      0x4e487b7100000000000000000000000000000000000000000000000000000000\n        /* \"#utility.yul\":33868:33869   */\n      0x00\n        /* \"#utility.yul\":33861:33949   */\n      mstore\n        /* \"#utility.yul\":33968:33972   */\n      0x31\n        /* \"#utility.yul\":33965:33966   */\n      0x04\n        /* \"#utility.yul\":33958:33973   */\n      mstore\n        /* \"#utility.yul\":33992:33996   */\n      0x24\n        /* \"#utility.yul\":33989:33990   */\n      0x00\n        /* \"#utility.yul\":33982:33997   */\n      revert\n\n    auxdata: 0xa264697066735822122091858489eec3be50ed05acd0578a224b306dffe9560f8a4bbbd4942c12afcae964736f6c634300081a0033\n}\n",
				"bytecode": {
					"linkReferences": {},
					"object": "6080604052348015600e575f80fd5b50612fd98061001c5f395ff3fe6080604052600436106100a6575f3560e01c80637618d0a7116100635780637618d0a71461017e578063c6064610146101bc578063c80cc411146101fc578063ca7252ea14610212578063e7a84bc31461023c578063f3550b9b14610258576100a6565b80630bbd5839146100aa5780630d78946e146100d25780631aba6da6146100dc57806351cff8d9146100f25780635b084db91461011a5780635bd36e2914610156575b5f80fd5b3480156100b5575f80fd5b506100d060048036038101906100cb9190611f7f565b610294565b005b6100da6105cd565b005b3480156100e7575f80fd5b506100f06106f1565b005b3480156100fd575f80fd5b5061011860048036038101906101139190612057565b6108fe565b005b348015610125575f80fd5b50610140600480360381019061013b91906120b5565b610cc9565b60405161014d9190612102565b60405180910390f35b348015610161575f80fd5b5061017c6004803603810190610177919061211b565b610d11565b005b348015610189575f80fd5b506101a4600480360381019061019f9190612057565b610f1f565b6040516101b393929190612199565b60405180910390f35b3480156101c7575f80fd5b506101e260048036038101906101dd9190612057565b610f6d565b6040516101f3959493929190612400565b60405180910390f35b348015610207575f80fd5b50610210611387565b005b34801561021d575f80fd5b5061022661148f565b6040516102339190612466565b60405180910390f35b61025660048036038101906102519190611f7f565b6115dc565b005b348015610263575f80fd5b5061027e60048036038101906102799190612057565b6119c3565b60405161028b9190612486565b60405180910390f35b5f3390505f85859050036102dd576040517f08c379a00000000000000000000000000000000000000000000000000000000081526004016102d49061251f565b60405180910390fd5b828290508585905014610325576040517f08c379a000000000000000000000000000000000000000000000000000000000815260040161031c906125d3565b60405180910390fd5b61032e81611aa6565b5f808273ffffffffffffffffffffffffffffffffffffffff1673ffffffffffffffffffffffffffffffffffffffff1681526020019081526020015f205f015f6103779190611e40565b5f5b858590508110156105c5575f60405180606001604052808888858181106103a3576103a26125f1565b5b90506020020160208101906103b89190612057565b73ffffffffffffffffffffffffffffffffffffffff1681526020018686858181106103e6576103e56125f1565b5b90506020020160208101906103fb9190612648565b61ffff1681526020016001151581525090505f808473ffffffffffffffffffffffffffffffffffffffff1673ffffffffffffffffffffffffffffffffffffffff1681526020019081526020015f205f0181908060018154018082558091505060019003905f5260205f20015f909190919091505f820151815f015f6101000a81548173ffffffffffffffffffffffffffffffffffffffff021916908373ffffffffffffffffffffffffffffffffffffffff1602179055506020820151815f0160146101000a81548161ffff021916908361ffff1602179055506040820151815f0160166101000a81548160ff021916908315150217905550505060015f88888581811061050b5761050a6125f1565b5b90506020020160208101906105209190612057565b73ffffffffffffffffffffffffffffffffffffffff1673ffffffffffffffffffffffffffffffffffffffff1681526020019081526020015f2083908060018154018082558091505060019003905f5260205f20015f9091909190916101000a81548173ffffffffffffffffffffffffffffffffffffffff021916908373ffffffffffffffffffffffffffffffffffffffff160217905550508080600101915050610379565b505050505050565b5f803373ffffffffffffffffffffffffffffffffffffffff1673ffffffffffffffffffffffffffffffffffffffff1681526020019081526020015f206001015f9054906101000a900460ff16610658576040517f08c379a000000000000000000000000000000000000000000000000000000000815260040161064f906126e3565b60405180910390fd5b5f341161069a576040517f08c379a00000000000000000000000000000000000000000000000000000000081526004016106919061274b565b60405180910390fd5b345f803373ffffffffffffffffffffffffffffffffffffffff1673ffffffffffffffffffffffffffffffffffffffff1681526020019081526020015f206002015f8282546106e89190612796565b92505081905550565b5f3390505f808273ffffffffffffffffffffffffffffffffffffffff1673ffffffffffffffffffffffffffffffffffffffff1681526020019081526020015f206001015f9054906101000a900460ff16610780576040517f08c379a000000000000000000000000000000000000000000000000000000000815260040161077790612813565b60405180910390fd5b5f3373ffffffffffffffffffffffffffffffffffffffff165f808473ffffffffffffffffffffffffffffffffffffffff1673ffffffffffffffffffffffffffffffffffffffff1681526020019081526020015f20600201546040516107e49061285e565b5f6040518083038185875af1925050503d805f811461081e576040519150601f19603f3d011682016040523d82523d5f602084013e610823565b606091505b5050905080610867576040517f08c379a000000000000000000000000000000000000000000000000000000000815260040161085e906128e2565b60405180910390fd5b61087082611aa6565b5f808373ffffffffffffffffffffffffffffffffffffffff1673ffffffffffffffffffffffffffffffffffffffff1681526020019081526020015f205f8082015f6108bb9190611e40565b600182015f6101000a81549060ff02191690556001820160016101000a8154906fffffffffffffffffffffffffffffffff0219169055600282015f905550505050565b5f33905061090b826119c3565b61094a576040517f08c379a000000000000000000000000000000000000000000000000000000000815260040161094190612970565b60405180910390fd5b5f805f8473ffffffffffffffffffffffffffffffffffffffff1673ffffffffffffffffffffffffffffffffffffffff1681526020019081526020015f205f0180549050116109cd576040517f08c379a00000000000000000000000000000000000000000000000000000000081526004016109c4906129d8565b60405180910390fd5b5f5b5f808473ffffffffffffffffffffffffffffffffffffffff1673ffffffffffffffffffffffffffffffffffffffff1681526020019081526020015f205f0180549050811015610cc4575f805f8573ffffffffffffffffffffffffffffffffffffffff1673ffffffffffffffffffffffffffffffffffffffff1681526020019081526020015f205f018281548110610a6957610a686125f1565b5b905f5260205f200190508273ffffffffffffffffffffffffffffffffffffffff16815f015f9054906101000a900473ffffffffffffffffffffffffffffffffffffffff1673ffffffffffffffffffffffffffffffffffffffff16148015610add5750805f0160169054906101000a900460ff165b15610cb6575f805f8673ffffffffffffffffffffffffffffffffffffffff1673ffffffffffffffffffffffffffffffffffffffff1681526020019081526020015f206002015411610b63576040517f08c379a0000000000000000000000000000000000000000000000000000000008152600401610b5a90612a40565b60405180910390fd5b5f815f015f9054906101000a900473ffffffffffffffffffffffffffffffffffffffff1673ffffffffffffffffffffffffffffffffffffffff16612710835f0160149054906101000a900461ffff1661ffff165f808973ffffffffffffffffffffffffffffffffffffffff1673ffffffffffffffffffffffffffffffffffffffff1681526020019081526020015f2060020154610c009190612a5e565b610c0a9190612acc565b604051610c169061285e565b5f6040518083038185875af1925050503d805f8114610c50576040519150601f19603f3d011682016040523d82523d5f602084013e610c55565b606091505b5050905080610c99576040517f08c379a0000000000000000000000000000000000000000000000000000000008152600401610c9090612b46565b60405180910390fd5b5f825f0160166101000a81548160ff021916908315150217905550505b5080806001019150506109cf565b505050565b6001602052815f5260405f208181548110610ce2575f80fd5b905f5260205f20015f915091509054906101000a900473ffffffffffffffffffffffffffffffffffffffff1681565b5f803373ffffffffffffffffffffffffffffffffffffffff1673ffffffffffffffffffffffffffffffffffffffff1681526020019081526020015f206001015f9054906101000a900460ff16610d9c576040517f08c379a0000000000000000000000000000000000000000000000000000000008152600401610d93906126e3565b60405180910390fd5b5f803373ffffffffffffffffffffffffffffffffffffffff1673ffffffffffffffffffffffffffffffffffffffff1681526020019081526020015f2060020154811115610e1e576040517f08c379a0000000000000000000000000000000000000000000000000000000008152600401610e1590612bae565b60405180910390fd5b5f3373ffffffffffffffffffffffffffffffffffffffff1682604051610e439061285e565b5f6040518083038185875af1925050503d805f8114610e7d576040519150601f19603f3d011682016040523d82523d5f602084013e610e82565b606091505b5050905080610ec6576040517f08c379a0000000000000000000000000000000000000000000000000000000008152600401610ebd90612c16565b60405180910390fd5b815f803373ffffffffffffffffffffffffffffffffffffffff1673ffffffffffffffffffffffffffffffffffffffff1681526020019081526020015f206002015f828254610f149190612c34565b925050819055505050565b5f602052805f5260405f205f91509050806001015f9054906101000a900460ff16908060010160019054906101000a90046fffffffffffffffffffffffffffffffff16908060020154905083565b60608060605f805f805f8873ffffffffffffffffffffffffffffffffffffffff1673ffffffffffffffffffffffffffffffffffffffff1681526020019081526020015f206040518060800160405290815f8201805480602002602001604051908101604052809291908181526020015f905b82821015611098578382905f5260205f20016040518060600160405290815f82015f9054906101000a900473ffffffffffffffffffffffffffffffffffffffff1673ffffffffffffffffffffffffffffffffffffffff1673ffffffffffffffffffffffffffffffffffffffff1681526020015f820160149054906101000a900461ffff1661ffff1661ffff1681526020015f820160169054906101000a900460ff16151515158152505081526020019060010190610fdf565b505050508152602001600182015f9054906101000a900460ff161515151581526020016001820160019054906101000a90046fffffffffffffffffffffffffffffffff166fffffffffffffffffffffffffffffffff166fffffffffffffffffffffffffffffffff16815260200160028201548152505090508060200151611154576040517f08c379a000000000000000000000000000000000000000000000000000000000815260040161114b90612cb1565b60405180910390fd5b5f815f01515167ffffffffffffffff81111561117357611172612ccf565b5b6040519080825280602002602001820160405280156111a15781602001602082028036833780820191505090505b5090505f825f01515167ffffffffffffffff8111156111c3576111c2612ccf565b5b6040519080825280602002602001820160405280156111f15781602001602082028036833780820191505090505b5090505f835f01515167ffffffffffffffff81111561121357611212612ccf565b5b6040519080825280602002602001820160405280156112415781602001602082028036833780820191505090505b5090505f5b845f0151518167ffffffffffffffff161015611362575f855f01518267ffffffffffffffff168151811061127d5761127c6125f1565b5b60200260200101519050805f0151858367ffffffffffffffff16815181106112a8576112a76125f1565b5b602002602001019073ffffffffffffffffffffffffffffffffffffffff16908173ffffffffffffffffffffffffffffffffffffffff16815250508060200151848367ffffffffffffffff1681518110611304576113036125f1565b5b602002602001019061ffff16908161ffff16815250508060400151838367ffffffffffffffff168151811061133c5761133b6125f1565b5b60200260200101901515908115158152505050808061135a90612d0f565b915050611246565b5082828286604001518760600151985098509850985098505050505091939590929450565b5f3390505f808273ffffffffffffffffffffffffffffffffffffffff1673ffffffffffffffffffffffffffffffffffffffff1681526020019081526020015f206001015f9054906101000a900460ff16611416576040517f08c379a000000000000000000000000000000000000000000000000000000000815260040161140d90612dae565b60405180910390fd5b425f808373ffffffffffffffffffffffffffffffffffffffff1673ffffffffffffffffffffffffffffffffffffffff1681526020019081526020015f2060010160016101000a8154816fffffffffffffffffffffffffffffffff02191690836fffffffffffffffffffffffffffffffff16021790555050565b60605f3390505f60015f8373ffffffffffffffffffffffffffffffffffffffff1673ffffffffffffffffffffffffffffffffffffffff1681526020019081526020015f208054905011611517576040517f08c379a000000000000000000000000000000000000000000000000000000000815260040161150e90612e3c565b60405180910390fd5b60015f8273ffffffffffffffffffffffffffffffffffffffff1673ffffffffffffffffffffffffffffffffffffffff1681526020019081526020015f208054806020026020016040519081016040528092919081815260200182805480156115d157602002820191905f5260205f20905b815f9054906101000a900473ffffffffffffffffffffffffffffffffffffffff1673ffffffffffffffffffffffffffffffffffffffff1681526020019060010190808311611588575b505050505091505090565b5f340361161e576040517f08c379a000000000000000000000000000000000000000000000000000000000815260040161161590612eca565b60405180910390fd5b5f8484905003611663576040517f08c379a000000000000000000000000000000000000000000000000000000000815260040161165a9061251f565b60405180910390fd5b8181905084849050146116ab576040517f08c379a00000000000000000000000000000000000000000000000000000000081526004016116a2906125d3565b60405180910390fd5b5f3390505f808273ffffffffffffffffffffffffffffffffffffffff1673ffffffffffffffffffffffffffffffffffffffff1681526020019081526020015f206001015f9054906101000a900460ff161561173b576040517f08c379a000000000000000000000000000000000000000000000000000000000815260040161173290612f58565b60405180910390fd5b5f805f8373ffffffffffffffffffffffffffffffffffffffff1673ffffffffffffffffffffffffffffffffffffffff1681526020019081526020015f2090505f5b8686905081101561198d575f60405180606001604052808989858181106117a6576117a56125f1565b5b90506020020160208101906117bb9190612057565b73ffffffffffffffffffffffffffffffffffffffff1681526020018787858181106117e9576117e86125f1565b5b90506020020160208101906117fe9190612648565b61ffff16815260200160011515815250905060015f898985818110611826576118256125f1565b5b905060200201602081019061183b9190612057565b73ffffffffffffffffffffffffffffffffffffffff1673ffffffffffffffffffffffffffffffffffffffff1681526020019081526020015f2084908060018154018082558091505060019003905f5260205f20015f9091909190916101000a81548173ffffffffffffffffffffffffffffffffffffffff021916908373ffffffffffffffffffffffffffffffffffffffff160217905550825f0181908060018154018082558091505060019003905f5260205f20015f909190919091505f820151815f015f6101000a81548173ffffffffffffffffffffffffffffffffffffffff021916908373ffffffffffffffffffffffffffffffffffffffff1602179055506020820151815f0160146101000a81548161ffff021916908361ffff1602179055506040820151815f0160166101000a81548160ff021916908315150217905550505050808060010191505061177c565b506001816001015f6101000a81548160ff0219169083151502179055503481600201819055506119bb611387565b505050505050565b5f805f8373ffffffffffffffffffffffffffffffffffffffff1673ffffffffffffffffffffffffffffffffffffffff1681526020019081526020015f206001015f9054906101000a900460ff16611a1c575f9050611aa1565b5f60019050805f808573ffffffffffffffffffffffffffffffffffffffff1673ffffffffffffffffffffffffffffffffffffffff1681526020019081526020015f2060010160019054906101000a90046fffffffffffffffffffffffffffffffff166fffffffffffffffffffffffffffffffff16611a9a9190612796565b4210159150505b919050565b5f805f8373ffffffffffffffffffffffffffffffffffffffff1673ffffffffffffffffffffffffffffffffffffffff1681526020019081526020015f205f01805480602002602001604051908101604052809291908181526020015f905b82821015611bbd578382905f5260205f20016040518060600160405290815f82015f9054906101000a900473ffffffffffffffffffffffffffffffffffffffff1673ffffffffffffffffffffffffffffffffffffffff1673ffffffffffffffffffffffffffffffffffffffff1681526020015f820160149054906101000a900461ffff1661ffff1661ffff1681526020015f820160169054906101000a900460ff16151515158152505081526020019060010190611b04565b5050505090505f5b8151811015611e3b575f60015f848481518110611be557611be46125f1565b5b60200260200101515f015173ffffffffffffffffffffffffffffffffffffffff1673ffffffffffffffffffffffffffffffffffffffff1681526020019081526020015f20805480602002602001604051908101604052809291908181526020018280548015611ca657602002820191905f5260205f20905b815f9054906101000a900473ffffffffffffffffffffffffffffffffffffffff1673ffffffffffffffffffffffffffffffffffffffff1681526020019060010190808311611c5d575b505050505090505f815190505f5b81811015611e2b578573ffffffffffffffffffffffffffffffffffffffff16838281518110611ce657611ce56125f1565b5b602002602001015173ffffffffffffffffffffffffffffffffffffffff1603611e1e5782600183611d179190612c34565b81518110611d2857611d276125f1565b5b6020026020010151838281518110611d4357611d426125f1565b5b602002602001019073ffffffffffffffffffffffffffffffffffffffff16908173ffffffffffffffffffffffffffffffffffffffff168152505060015f868681518110611d9357611d926125f1565b5b60200260200101515f015173ffffffffffffffffffffffffffffffffffffffff1673ffffffffffffffffffffffffffffffffffffffff1681526020019081526020015f20805480611de757611de6612f76565b5b600190038181905f5260205f20015f6101000a81549073ffffffffffffffffffffffffffffffffffffffff02191690559055611e2b565b8080600101915050611cb4565b5050508080600101915050611bc5565b505050565b5080545f8255905f5260205f2090810190611e5b9190611e5e565b50565b5b80821115611ebd575f8082015f6101000a81549073ffffffffffffffffffffffffffffffffffffffff02191690555f820160146101000a81549061ffff02191690555f820160166101000a81549060ff021916905550600101611e5f565b5090565b5f80fd5b5f80fd5b5f80fd5b5f80fd5b5f80fd5b5f8083601f840112611eea57611ee9611ec9565b5b8235905067ffffffffffffffff811115611f0757611f06611ecd565b5b602083019150836020820283011115611f2357611f22611ed1565b5b9250929050565b5f8083601f840112611f3f57611f3e611ec9565b5b8235905067ffffffffffffffff811115611f5c57611f5b611ecd565b5b602083019150836020820283011115611f7857611f77611ed1565b5b9250929050565b5f805f8060408587031215611f9757611f96611ec1565b5b5f85013567ffffffffffffffff811115611fb457611fb3611ec5565b5b611fc087828801611ed5565b9450945050602085013567ffffffffffffffff811115611fe357611fe2611ec5565b5b611fef87828801611f2a565b925092505092959194509250565b5f73ffffffffffffffffffffffffffffffffffffffff82169050919050565b5f61202682611ffd565b9050919050565b6120368161201c565b8114612040575f80fd5b50565b5f813590506120518161202d565b92915050565b5f6020828403121561206c5761206b611ec1565b5b5f61207984828501612043565b91505092915050565b5f819050919050565b61209481612082565b811461209e575f80fd5b50565b5f813590506120af8161208b565b92915050565b5f80604083850312156120cb576120ca611ec1565b5b5f6120d885828601612043565b92505060206120e9858286016120a1565b9150509250929050565b6120fc8161201c565b82525050565b5f6020820190506121155f8301846120f3565b92915050565b5f602082840312156121305761212f611ec1565b5b5f61213d848285016120a1565b91505092915050565b5f8115159050919050565b61215a81612146565b82525050565b5f6fffffffffffffffffffffffffffffffff82169050919050565b61218481612160565b82525050565b61219381612082565b82525050565b5f6060820190506121ac5f830186612151565b6121b9602083018561217b565b6121c6604083018461218a565b949350505050565b5f81519050919050565b5f82825260208201905092915050565b5f819050602082019050919050565b6122008161201c565b82525050565b5f61221183836121f7565b60208301905092915050565b5f602082019050919050565b5f612233826121ce565b61223d81856121d8565b9350612248836121e8565b805f5b8381101561227857815161225f8882612206565b975061226a8361221d565b92505060018101905061224b565b5085935050505092915050565b5f81519050919050565b5f82825260208201905092915050565b5f819050602082019050919050565b5f61ffff82169050919050565b6122c4816122ae565b82525050565b5f6122d583836122bb565b60208301905092915050565b5f602082019050919050565b5f6122f782612285565b612301818561228f565b935061230c8361229f565b805f5b8381101561233c57815161232388826122ca565b975061232e836122e1565b92505060018101905061230f565b5085935050505092915050565b5f81519050919050565b5f82825260208201905092915050565b5f819050602082019050919050565b61237b81612146565b82525050565b5f61238c8383612372565b60208301905092915050565b5f602082019050919050565b5f6123ae82612349565b6123b88185612353565b93506123c383612363565b805f5b838110156123f35781516123da8882612381565b97506123e583612398565b9250506001810190506123c6565b5085935050505092915050565b5f60a0820190508181035f8301526124188188612229565b9050818103602083015261242c81876122ed565b9050818103604083015261244081866123a4565b905061244f606083018561217b565b61245c608083018461218a565b9695505050505050565b5f6020820190508181035f83015261247e8184612229565b905092915050565b5f6020820190506124995f830184612151565b92915050565b5f82825260208201905092915050565b7f637265617465496e6865726974616e636528292c2061646963696f6e65206f735f8201527f20686572646569726f7300000000000000000000000000000000000000000000602082015250565b5f612509602a8361249f565b9150612514826124af565b604082019050919050565b5f6020820190508181035f830152612536816124fd565b9050919050565b7f637265617465496e6865726974616e636528292c207175616e746964616465205f8201527f646520656e64657265636f73206520706f7263656e746167656e73206469666560208201527f72656e7465730000000000000000000000000000000000000000000000000000604082015250565b5f6125bd60468361249f565b91506125c88261253d565b606082019050919050565b5f6020820190508181035f8301526125ea816125b1565b9050919050565b7f4e487b71000000000000000000000000000000000000000000000000000000005f52603260045260245ffd5b612627816122ae565b8114612631575f80fd5b50565b5f813590506126428161261e565b92915050565b5f6020828403121561265d5761265c611ec1565b5b5f61266a84828501612634565b91505092915050565b7f766f6365206e616f20706f737375692074657374616d656e746f2063726961645f8201527f6f00000000000000000000000000000000000000000000000000000000000000602082015250565b5f6126cd60218361249f565b91506126d882612673565b604082019050919050565b5f6020820190508181035f8301526126fa816126c1565b9050919050565b7f696e7369726120756d2076616c6f7200000000000000000000000000000000005f82015250565b5f612735600f8361249f565b915061274082612701565b602082019050919050565b5f6020820190508181035f83015261276281612729565b9050919050565b7f4e487b71000000000000000000000000000000000000000000000000000000005f52601160045260245ffd5b5f6127a082612082565b91506127ab83612082565b92508282019050808211156127c3576127c2612769565b5b92915050565b7f766f6365206e616f20706f737375692074657374616d656e746f0000000000005f82015250565b5f6127fd601a8361249f565b9150612808826127c9565b602082019050919050565b5f6020820190508181035f83015261282a816127f1565b9050919050565b5f81905092915050565b50565b5f6128495f83612831565b91506128548261283b565b5f82019050919050565b5f6128688261283e565b9150819050919050565b7f63616e63656c54657374616d656e7428292c2046616c686120616f20656e76695f8201527f6172204554480000000000000000000000000000000000000000000000000000602082015250565b5f6128cc60268361249f565b91506128d782612872565b604082019050919050565b5f6020820190508181035f8301526128f9816128c0565b9050919050565b7f41207265746972616461206e616f20706f646520736572207265616c697a61645f8201527f6100000000000000000000000000000000000000000000000000000000000000602082015250565b5f61295a60218361249f565b915061296582612900565b604082019050919050565b5f6020820190508181035f8301526129878161294e565b9050919050565b7f6e616f2074656d20686572646569726f730000000000000000000000000000005f82015250565b5f6129c260118361249f565b91506129cd8261298e565b602082019050919050565b5f6020820190508181035f8301526129ef816129b6565b9050919050565b7f6e616f2074656d2076616c7565206e6f2074657374616d656e746f00000000005f82015250565b5f612a2a601b8361249f565b9150612a35826129f6565b602082019050919050565b5f6020820190508181035f830152612a5781612a1e565b9050919050565b5f612a6882612082565b9150612a7383612082565b9250828202612a8181612082565b91508282048414831517612a9857612a97612769565b5b5092915050565b7f4e487b71000000000000000000000000000000000000000000000000000000005f52601260045260245ffd5b5f612ad682612082565b9150612ae183612082565b925082612af157612af0612a9f565b5b828204905092915050565b7f46616c686120616f20656e7669617220455448000000000000000000000000005f82015250565b5f612b3060138361249f565b9150612b3b82612afc565b602082019050919050565b5f6020820190508181035f830152612b5d81612b24565b9050919050565b7f766f6365206e616f2074656d206973736f207475646f206169000000000000005f82015250565b5f612b9860198361249f565b9150612ba382612b64565b602082019050919050565b5f6020820190508181035f830152612bc581612b8c565b9050919050565b7f6e616f207469726f7500000000000000000000000000000000000000000000005f82015250565b5f612c0060098361249f565b9150612c0b82612bcc565b602082019050919050565b5f6020820190508181035f830152612c2d81612bf4565b9050919050565b5f612c3e82612082565b9150612c4983612082565b9250828203905081811115612c6157612c60612769565b5b92915050565b7f5465737461646f72206e616f20656e636f6e747261646f0000000000000000005f82015250565b5f612c9b60178361249f565b9150612ca682612c67565b602082019050919050565b5f6020820190508181035f830152612cc881612c8f565b9050919050565b7f4e487b71000000000000000000000000000000000000000000000000000000005f52604160045260245ffd5b5f67ffffffffffffffff82169050919050565b5f612d1982612cfc565b915067ffffffffffffffff8203612d3357612d32612769565b5b600182019050919050565b7f566f6365206e616f20706f73737569206e656e68756d2074657374616d656e745f8201527f6f2063726961646f000000000000000000000000000000000000000000000000602082015250565b5f612d9860288361249f565b9150612da382612d3e565b604082019050919050565b5f6020820190508181035f830152612dc581612d8c565b9050919050565b7f566f6365206e616f206573746120656d206e656e68756d2074657374616d656e5f8201527f746f000000000000000000000000000000000000000000000000000000000000602082015250565b5f612e2660228361249f565b9150612e3182612dcc565b604082019050919050565b5f6020820190508181035f830152612e5381612e1a565b9050919050565b7f637265617465496e6865726974616e636528292c2076616c6f7220696e76616c5f8201527f69646f0000000000000000000000000000000000000000000000000000000000602082015250565b5f612eb460238361249f565b9150612ebf82612e5a565b604082019050919050565b5f6020820190508181035f830152612ee181612ea8565b9050919050565b7f637265617465496e6865726974616e636528292c20766f6365206a612074656d5f8201527f20756d2074657374616d656e746f2063726961646f2c20656469746520656c65602082015250565b5f612f4260408361249f565b9150612f4d82612ee8565b604082019050919050565b5f6020820190508181035f830152612f6f81612f36565b9050919050565b7f4e487b71000000000000000000000000000000000000000000000000000000005f52603160045260245ffdfea264697066735822122091858489eec3be50ed05acd0578a224b306dffe9560f8a4bbbd4942c12afcae964736f6c634300081a0033",
					"opcodes": "PUSH1 0x80 PUSH1 0x40 MSTORE CALLVALUE DUP1 ISZERO PUSH1 0xE JUMPI PUSH0 DUP1 REVERT JUMPDEST POP PUSH2 0x2FD9 DUP1 PUSH2 0x1C PUSH0 CODECOPY PUSH0 RETURN INVALID PUSH1 0x80 PUSH1 0x40 MSTORE PUSH1 0x4 CALLDATASIZE LT PUSH2 0xA6 JUMPI PUSH0 CALLDATALOAD PUSH1 0xE0 SHR DUP1 PUSH4 0x7618D0A7 GT PUSH2 0x63 JUMPI DUP1 PUSH4 0x7618D0A7 EQ PUSH2 0x17E JUMPI DUP1 PUSH4 0xC6064610 EQ PUSH2 0x1BC JUMPI DUP1 PUSH4 0xC80CC411 EQ PUSH2 0x1FC JUMPI DUP1 PUSH4 0xCA7252EA EQ PUSH2 0x212 JUMPI DUP1 PUSH4 0xE7A84BC3 EQ PUSH2 0x23C JUMPI DUP1 PUSH4 0xF3550B9B EQ PUSH2 0x258 JUMPI PUSH2 0xA6 JUMP JUMPDEST DUP1 PUSH4 0xBBD5839 EQ PUSH2 0xAA JUMPI DUP1 PUSH4 0xD78946E EQ PUSH2 0xD2 JUMPI DUP1 PUSH4 0x1ABA6DA6 EQ PUSH2 0xDC JUMPI DUP1 PUSH4 0x51CFF8D9 EQ PUSH2 0xF2 JUMPI DUP1 PUSH4 0x5B084DB9 EQ PUSH2 0x11A JUMPI DUP1 PUSH4 0x5BD36E29 EQ PUSH2 0x156 JUMPI JUMPDEST PUSH0 DUP1 REVERT JUMPDEST CALLVALUE DUP1 ISZERO PUSH2 0xB5 JUMPI PUSH0 DUP1 REVERT JUMPDEST POP PUSH2 0xD0 PUSH1 0x4 DUP1 CALLDATASIZE SUB DUP2 ADD SWAP1 PUSH2 0xCB SWAP2 SWAP1 PUSH2 0x1F7F JUMP JUMPDEST PUSH2 0x294 JUMP JUMPDEST STOP JUMPDEST PUSH2 0xDA PUSH2 0x5CD JUMP JUMPDEST STOP JUMPDEST CALLVALUE DUP1 ISZERO PUSH2 0xE7 JUMPI PUSH0 DUP1 REVERT JUMPDEST POP PUSH2 0xF0 PUSH2 0x6F1 JUMP JUMPDEST STOP JUMPDEST CALLVALUE DUP1 ISZERO PUSH2 0xFD JUMPI PUSH0 DUP1 REVERT JUMPDEST POP PUSH2 0x118 PUSH1 0x4 DUP1 CALLDATASIZE SUB DUP2 ADD SWAP1 PUSH2 0x113 SWAP2 SWAP1 PUSH2 0x2057 JUMP JUMPDEST PUSH2 0x8FE JUMP JUMPDEST STOP JUMPDEST CALLVALUE DUP1 ISZERO PUSH2 0x125 JUMPI PUSH0 DUP1 REVERT JUMPDEST POP PUSH2 0x140 PUSH1 0x4 DUP1 CALLDATASIZE SUB DUP2 ADD SWAP1 PUSH2 0x13B SWAP2 SWAP1 PUSH2 0x20B5 JUMP JUMPDEST PUSH2 0xCC9 JUMP JUMPDEST PUSH1 0x40 MLOAD PUSH2 0x14D SWAP2 SWAP1 PUSH2 0x2102 JUMP JUMPDEST PUSH1 0x40 MLOAD DUP1 SWAP2 SUB SWAP1 RETURN JUMPDEST CALLVALUE DUP1 ISZERO PUSH2 0x161 JUMPI PUSH0 DUP1 REVERT JUMPDEST POP PUSH2 0x17C PUSH1 0x4 DUP1 CALLDATASIZE SUB DUP2 ADD SWAP1 PUSH2 0x177 SWAP2 SWAP1 PUSH2 0x211B JUMP JUMPDEST PUSH2 0xD11 JUMP JUMPDEST STOP JUMPDEST CALLVALUE DUP1 ISZERO PUSH2 0x189 JUMPI PUSH0 DUP1 REVERT JUMPDEST POP PUSH2 0x1A4 PUSH1 0x4 DUP1 CALLDATASIZE SUB DUP2 ADD SWAP1 PUSH2 0x19F SWAP2 SWAP1 PUSH2 0x2057 JUMP JUMPDEST PUSH2 0xF1F JUMP JUMPDEST PUSH1 0x40 MLOAD PUSH2 0x1B3 SWAP4 SWAP3 SWAP2 SWAP1 PUSH2 0x2199 JUMP JUMPDEST PUSH1 0x40 MLOAD DUP1 SWAP2 SUB SWAP1 RETURN JUMPDEST CALLVALUE DUP1 ISZERO PUSH2 0x1C7 JUMPI PUSH0 DUP1 REVERT JUMPDEST POP PUSH2 0x1E2 PUSH1 0x4 DUP1 CALLDATASIZE SUB DUP2 ADD SWAP1 PUSH2 0x1DD SWAP2 SWAP1 PUSH2 0x2057 JUMP JUMPDEST PUSH2 0xF6D JUMP JUMPDEST PUSH1 0x40 MLOAD PUSH2 0x1F3 SWAP6 SWAP5 SWAP4 SWAP3 SWAP2 SWAP1 PUSH2 0x2400 JUMP JUMPDEST PUSH1 0x40 MLOAD DUP1 SWAP2 SUB SWAP1 RETURN JUMPDEST CALLVALUE DUP1 ISZERO PUSH2 0x207 JUMPI PUSH0 DUP1 REVERT JUMPDEST POP PUSH2 0x210 PUSH2 0x1387 JUMP JUMPDEST STOP JUMPDEST CALLVALUE DUP1 ISZERO PUSH2 0x21D JUMPI PUSH0 DUP1 REVERT JUMPDEST POP PUSH2 0x226 PUSH2 0x148F JUMP JUMPDEST PUSH1 0x40 MLOAD PUSH2 0x233 SWAP2 SWAP1 PUSH2 0x2466 JUMP JUMPDEST PUSH1 0x40 MLOAD DUP1 SWAP2 SUB SWAP1 RETURN JUMPDEST PUSH2 0x256 PUSH1 0x4 DUP1 CALLDATASIZE SUB DUP2 ADD SWAP1 PUSH2 0x251 SWAP2 SWAP1 PUSH2 0x1F7F JUMP JUMPDEST PUSH2 0x15DC JUMP JUMPDEST STOP JUMPDEST CALLVALUE DUP1 ISZERO PUSH2 0x263 JUMPI PUSH0 DUP1 REVERT JUMPDEST POP PUSH2 0x27E PUSH1 0x4 DUP1 CALLDATASIZE SUB DUP2 ADD SWAP1 PUSH2 0x279 SWAP2 SWAP1 PUSH2 0x2057 JUMP JUMPDEST PUSH2 0x19C3 JUMP JUMPDEST PUSH1 0x40 MLOAD PUSH2 0x28B SWAP2 SWAP1 PUSH2 0x2486 JUMP JUMPDEST PUSH1 0x40 MLOAD DUP1 SWAP2 SUB SWAP1 RETURN JUMPDEST PUSH0 CALLER SWAP1 POP PUSH0 DUP6 DUP6 SWAP1 POP SUB PUSH2 0x2DD JUMPI PUSH1 0x40 MLOAD PUSH32 0x8C379A000000000000000000000000000000000000000000000000000000000 DUP2 MSTORE PUSH1 0x4 ADD PUSH2 0x2D4 SWAP1 PUSH2 0x251F JUMP JUMPDEST PUSH1 0x40 MLOAD DUP1 SWAP2 SUB SWAP1 REVERT JUMPDEST DUP3 DUP3 SWAP1 POP DUP6 DUP6 SWAP1 POP EQ PUSH2 0x325 JUMPI PUSH1 0x40 MLOAD PUSH32 0x8C379A000000000000000000000000000000000000000000000000000000000 DUP2 MSTORE PUSH1 0x4 ADD PUSH2 0x31C SWAP1 PUSH2 0x25D3 JUMP JUMPDEST PUSH1 0x40 MLOAD DUP1 SWAP2 SUB SWAP1 REVERT JUMPDEST PUSH2 0x32E DUP2 PUSH2 0x1AA6 JUMP JUMPDEST PUSH0 DUP1 DUP3 PUSH20 0xFFFFFFFFFFFFFFFFFFFFFFFFFFFFFFFFFFFFFFFF AND PUSH20 0xFFFFFFFFFFFFFFFFFFFFFFFFFFFFFFFFFFFFFFFF AND DUP2 MSTORE PUSH1 0x20 ADD SWAP1 DUP2 MSTORE PUSH1 0x20 ADD PUSH0 KECCAK256 PUSH0 ADD PUSH0 PUSH2 0x377 SWAP2 SWAP1 PUSH2 0x1E40 JUMP JUMPDEST PUSH0 JUMPDEST DUP6 DUP6 SWAP1 POP DUP2 LT ISZERO PUSH2 0x5C5 JUMPI PUSH0 PUSH1 0x40 MLOAD DUP1 PUSH1 0x60 ADD PUSH1 0x40 MSTORE DUP1 DUP9 DUP9 DUP6 DUP2 DUP2 LT PUSH2 0x3A3 JUMPI PUSH2 0x3A2 PUSH2 0x25F1 JUMP JUMPDEST JUMPDEST SWAP1 POP PUSH1 0x20 MUL ADD PUSH1 0x20 DUP2 ADD SWAP1 PUSH2 0x3B8 SWAP2 SWAP1 PUSH2 0x2057 JUMP JUMPDEST PUSH20 0xFFFFFFFFFFFFFFFFFFFFFFFFFFFFFFFFFFFFFFFF AND DUP2 MSTORE PUSH1 0x20 ADD DUP7 DUP7 DUP6 DUP2 DUP2 LT PUSH2 0x3E6 JUMPI PUSH2 0x3E5 PUSH2 0x25F1 JUMP JUMPDEST JUMPDEST SWAP1 POP PUSH1 0x20 MUL ADD PUSH1 0x20 DUP2 ADD SWAP1 PUSH2 0x3FB SWAP2 SWAP1 PUSH2 0x2648 JUMP JUMPDEST PUSH2 0xFFFF AND DUP2 MSTORE PUSH1 0x20 ADD PUSH1 0x1 ISZERO ISZERO DUP2 MSTORE POP SWAP1 POP PUSH0 DUP1 DUP5 PUSH20 0xFFFFFFFFFFFFFFFFFFFFFFFFFFFFFFFFFFFFFFFF AND PUSH20 0xFFFFFFFFFFFFFFFFFFFFFFFFFFFFFFFFFFFFFFFF AND DUP2 MSTORE PUSH1 0x20 ADD SWAP1 DUP2 MSTORE PUSH1 0x20 ADD PUSH0 KECCAK256 PUSH0 ADD DUP2 SWAP1 DUP1 PUSH1 0x1 DUP2 SLOAD ADD DUP1 DUP3 SSTORE DUP1 SWAP2 POP POP PUSH1 0x1 SWAP1 SUB SWAP1 PUSH0 MSTORE PUSH1 0x20 PUSH0 KECCAK256 ADD PUSH0 SWAP1 SWAP2 SWAP1 SWAP2 SWAP1 SWAP2 POP PUSH0 DUP3 ADD MLOAD DUP2 PUSH0 ADD PUSH0 PUSH2 0x100 EXP DUP2 SLOAD DUP2 PUSH20 0xFFFFFFFFFFFFFFFFFFFFFFFFFFFFFFFFFFFFFFFF MUL NOT AND SWAP1 DUP4 PUSH20 0xFFFFFFFFFFFFFFFFFFFFFFFFFFFFFFFFFFFFFFFF AND MUL OR SWAP1 SSTORE POP PUSH1 0x20 DUP3 ADD MLOAD DUP2 PUSH0 ADD PUSH1 0x14 PUSH2 0x100 EXP DUP2 SLOAD DUP2 PUSH2 0xFFFF MUL NOT AND SWAP1 DUP4 PUSH2 0xFFFF AND MUL OR SWAP1 SSTORE POP PUSH1 0x40 DUP3 ADD MLOAD DUP2 PUSH0 ADD PUSH1 0x16 PUSH2 0x100 EXP DUP2 SLOAD DUP2 PUSH1 0xFF MUL NOT AND SWAP1 DUP4 ISZERO ISZERO MUL OR SWAP1 SSTORE POP POP POP PUSH1 0x1 PUSH0 DUP9 DUP9 DUP6 DUP2 DUP2 LT PUSH2 0x50B JUMPI PUSH2 0x50A PUSH2 0x25F1 JUMP JUMPDEST JUMPDEST SWAP1 POP PUSH1 0x20 MUL ADD PUSH1 0x20 DUP2 ADD SWAP1 PUSH2 0x520 SWAP2 SWAP1 PUSH2 0x2057 JUMP JUMPDEST PUSH20 0xFFFFFFFFFFFFFFFFFFFFFFFFFFFFFFFFFFFFFFFF AND PUSH20 0xFFFFFFFFFFFFFFFFFFFFFFFFFFFFFFFFFFFFFFFF AND DUP2 MSTORE PUSH1 0x20 ADD SWAP1 DUP2 MSTORE PUSH1 0x20 ADD PUSH0 KECCAK256 DUP4 SWAP1 DUP1 PUSH1 0x1 DUP2 SLOAD ADD DUP1 DUP3 SSTORE DUP1 SWAP2 POP POP PUSH1 0x1 SWAP1 SUB SWAP1 PUSH0 MSTORE PUSH1 0x20 PUSH0 KECCAK256 ADD PUSH0 SWAP1 SWAP2 SWAP1 SWAP2 SWAP1 SWAP2 PUSH2 0x100 EXP DUP2 SLOAD DUP2 PUSH20 0xFFFFFFFFFFFFFFFFFFFFFFFFFFFFFFFFFFFFFFFF MUL NOT AND SWAP1 DUP4 PUSH20 0xFFFFFFFFFFFFFFFFFFFFFFFFFFFFFFFFFFFFFFFF AND MUL OR SWAP1 SSTORE POP POP DUP1 DUP1 PUSH1 0x1 ADD SWAP2 POP POP PUSH2 0x379 JUMP JUMPDEST POP POP POP POP POP POP JUMP JUMPDEST PUSH0 DUP1 CALLER PUSH20 0xFFFFFFFFFFFFFFFFFFFFFFFFFFFFFFFFFFFFFFFF AND PUSH20 0xFFFFFFFFFFFFFFFFFFFFFFFFFFFFFFFFFFFFFFFF AND DUP2 MSTORE PUSH1 0x20 ADD SWAP1 DUP2 MSTORE PUSH1 0x20 ADD PUSH0 KECCAK256 PUSH1 0x1 ADD PUSH0 SWAP1 SLOAD SWAP1 PUSH2 0x100 EXP SWAP1 DIV PUSH1 0xFF AND PUSH2 0x658 JUMPI PUSH1 0x40 MLOAD PUSH32 0x8C379A000000000000000000000000000000000000000000000000000000000 DUP2 MSTORE PUSH1 0x4 ADD PUSH2 0x64F SWAP1 PUSH2 0x26E3 JUMP JUMPDEST PUSH1 0x40 MLOAD DUP1 SWAP2 SUB SWAP1 REVERT JUMPDEST PUSH0 CALLVALUE GT PUSH2 0x69A JUMPI PUSH1 0x40 MLOAD PUSH32 0x8C379A000000000000000000000000000000000000000000000000000000000 DUP2 MSTORE PUSH1 0x4 ADD PUSH2 0x691 SWAP1 PUSH2 0x274B JUMP JUMPDEST PUSH1 0x40 MLOAD DUP1 SWAP2 SUB SWAP1 REVERT JUMPDEST CALLVALUE PUSH0 DUP1 CALLER PUSH20 0xFFFFFFFFFFFFFFFFFFFFFFFFFFFFFFFFFFFFFFFF AND PUSH20 0xFFFFFFFFFFFFFFFFFFFFFFFFFFFFFFFFFFFFFFFF AND DUP2 MSTORE PUSH1 0x20 ADD SWAP1 DUP2 MSTORE PUSH1 0x20 ADD PUSH0 KECCAK256 PUSH1 0x2 ADD PUSH0 DUP3 DUP3 SLOAD PUSH2 0x6E8 SWAP2 SWAP1 PUSH2 0x2796 JUMP JUMPDEST SWAP3 POP POP DUP2 SWAP1 SSTORE POP JUMP JUMPDEST PUSH0 CALLER SWAP1 POP PUSH0 DUP1 DUP3 PUSH20 0xFFFFFFFFFFFFFFFFFFFFFFFFFFFFFFFFFFFFFFFF AND PUSH20 0xFFFFFFFFFFFFFFFFFFFFFFFFFFFFFFFFFFFFFFFF AND DUP2 MSTORE PUSH1 0x20 ADD SWAP1 DUP2 MSTORE PUSH1 0x20 ADD PUSH0 KECCAK256 PUSH1 0x1 ADD PUSH0 SWAP1 SLOAD SWAP1 PUSH2 0x100 EXP SWAP1 DIV PUSH1 0xFF AND PUSH2 0x780 JUMPI PUSH1 0x40 MLOAD PUSH32 0x8C379A000000000000000000000000000000000000000000000000000000000 DUP2 MSTORE PUSH1 0x4 ADD PUSH2 0x777 SWAP1 PUSH2 0x2813 JUMP JUMPDEST PUSH1 0x40 MLOAD DUP1 SWAP2 SUB SWAP1 REVERT JUMPDEST PUSH0 CALLER PUSH20 0xFFFFFFFFFFFFFFFFFFFFFFFFFFFFFFFFFFFFFFFF AND PUSH0 DUP1 DUP5 PUSH20 0xFFFFFFFFFFFFFFFFFFFFFFFFFFFFFFFFFFFFFFFF AND PUSH20 0xFFFFFFFFFFFFFFFFFFFFFFFFFFFFFFFFFFFFFFFF AND DUP2 MSTORE PUSH1 0x20 ADD SWAP1 DUP2 MSTORE PUSH1 0x20 ADD PUSH0 KECCAK256 PUSH1 0x2 ADD SLOAD PUSH1 0x40 MLOAD PUSH2 0x7E4 SWAP1 PUSH2 0x285E JUMP JUMPDEST PUSH0 PUSH1 0x40 MLOAD DUP1 DUP4 SUB DUP2 DUP6 DUP8 GAS CALL SWAP3 POP POP POP RETURNDATASIZE DUP1 PUSH0 DUP2 EQ PUSH2 0x81E JUMPI PUSH1 0x40 MLOAD SWAP2 POP PUSH1 0x1F NOT PUSH1 0x3F RETURNDATASIZE ADD AND DUP3 ADD PUSH1 0x40 MSTORE RETURNDATASIZE DUP3 MSTORE RETURNDATASIZE PUSH0 PUSH1 0x20 DUP5 ADD RETURNDATACOPY PUSH2 0x823 JUMP JUMPDEST PUSH1 0x60 SWAP2 POP JUMPDEST POP POP SWAP1 POP DUP1 PUSH2 0x867 JUMPI PUSH1 0x40 MLOAD PUSH32 0x8C379A000000000000000000000000000000000000000000000000000000000 DUP2 MSTORE PUSH1 0x4 ADD PUSH2 0x85E SWAP1 PUSH2 0x28E2 JUMP JUMPDEST PUSH1 0x40 MLOAD DUP1 SWAP2 SUB SWAP1 REVERT JUMPDEST PUSH2 0x870 DUP3 PUSH2 0x1AA6 JUMP JUMPDEST PUSH0 DUP1 DUP4 PUSH20 0xFFFFFFFFFFFFFFFFFFFFFFFFFFFFFFFFFFFFFFFF AND PUSH20 0xFFFFFFFFFFFFFFFFFFFFFFFFFFFFFFFFFFFFFFFF AND DUP2 MSTORE PUSH1 0x20 ADD SWAP1 DUP2 MSTORE PUSH1 0x20 ADD PUSH0 KECCAK256 PUSH0 DUP1 DUP3 ADD PUSH0 PUSH2 0x8BB SWAP2 SWAP1 PUSH2 0x1E40 JUMP JUMPDEST PUSH1 0x1 DUP3 ADD PUSH0 PUSH2 0x100 EXP DUP2 SLOAD SWAP1 PUSH1 0xFF MUL NOT AND SWAP1 SSTORE PUSH1 0x1 DUP3 ADD PUSH1 0x1 PUSH2 0x100 EXP DUP2 SLOAD SWAP1 PUSH16 0xFFFFFFFFFFFFFFFFFFFFFFFFFFFFFFFF MUL NOT AND SWAP1 SSTORE PUSH1 0x2 DUP3 ADD PUSH0 SWAP1 SSTORE POP POP POP POP JUMP JUMPDEST PUSH0 CALLER SWAP1 POP PUSH2 0x90B DUP3 PUSH2 0x19C3 JUMP JUMPDEST PUSH2 0x94A JUMPI PUSH1 0x40 MLOAD PUSH32 0x8C379A000000000000000000000000000000000000000000000000000000000 DUP2 MSTORE PUSH1 0x4 ADD PUSH2 0x941 SWAP1 PUSH2 0x2970 JUMP JUMPDEST PUSH1 0x40 MLOAD DUP1 SWAP2 SUB SWAP1 REVERT JUMPDEST PUSH0 DUP1 PUSH0 DUP5 PUSH20 0xFFFFFFFFFFFFFFFFFFFFFFFFFFFFFFFFFFFFFFFF AND PUSH20 0xFFFFFFFFFFFFFFFFFFFFFFFFFFFFFFFFFFFFFFFF AND DUP2 MSTORE PUSH1 0x20 ADD SWAP1 DUP2 MSTORE PUSH1 0x20 ADD PUSH0 KECCAK256 PUSH0 ADD DUP1 SLOAD SWAP1 POP GT PUSH2 0x9CD JUMPI PUSH1 0x40 MLOAD PUSH32 0x8C379A000000000000000000000000000000000000000000000000000000000 DUP2 MSTORE PUSH1 0x4 ADD PUSH2 0x9C4 SWAP1 PUSH2 0x29D8 JUMP JUMPDEST PUSH1 0x40 MLOAD DUP1 SWAP2 SUB SWAP1 REVERT JUMPDEST PUSH0 JUMPDEST PUSH0 DUP1 DUP5 PUSH20 0xFFFFFFFFFFFFFFFFFFFFFFFFFFFFFFFFFFFFFFFF AND PUSH20 0xFFFFFFFFFFFFFFFFFFFFFFFFFFFFFFFFFFFFFFFF AND DUP2 MSTORE PUSH1 0x20 ADD SWAP1 DUP2 MSTORE PUSH1 0x20 ADD PUSH0 KECCAK256 PUSH0 ADD DUP1 SLOAD SWAP1 POP DUP2 LT ISZERO PUSH2 0xCC4 JUMPI PUSH0 DUP1 PUSH0 DUP6 PUSH20 0xFFFFFFFFFFFFFFFFFFFFFFFFFFFFFFFFFFFFFFFF AND PUSH20 0xFFFFFFFFFFFFFFFFFFFFFFFFFFFFFFFFFFFFFFFF AND DUP2 MSTORE PUSH1 0x20 ADD SWAP1 DUP2 MSTORE PUSH1 0x20 ADD PUSH0 KECCAK256 PUSH0 ADD DUP3 DUP2 SLOAD DUP2 LT PUSH2 0xA69 JUMPI PUSH2 0xA68 PUSH2 0x25F1 JUMP JUMPDEST JUMPDEST SWAP1 PUSH0 MSTORE PUSH1 0x20 PUSH0 KECCAK256 ADD SWAP1 POP DUP3 PUSH20 0xFFFFFFFFFFFFFFFFFFFFFFFFFFFFFFFFFFFFFFFF AND DUP2 PUSH0 ADD PUSH0 SWAP1 SLOAD SWAP1 PUSH2 0x100 EXP SWAP1 DIV PUSH20 0xFFFFFFFFFFFFFFFFFFFFFFFFFFFFFFFFFFFFFFFF AND PUSH20 0xFFFFFFFFFFFFFFFFFFFFFFFFFFFFFFFFFFFFFFFF AND EQ DUP1 ISZERO PUSH2 0xADD JUMPI POP DUP1 PUSH0 ADD PUSH1 0x16 SWAP1 SLOAD SWAP1 PUSH2 0x100 EXP SWAP1 DIV PUSH1 0xFF AND JUMPDEST ISZERO PUSH2 0xCB6 JUMPI PUSH0 DUP1 PUSH0 DUP7 PUSH20 0xFFFFFFFFFFFFFFFFFFFFFFFFFFFFFFFFFFFFFFFF AND PUSH20 0xFFFFFFFFFFFFFFFFFFFFFFFFFFFFFFFFFFFFFFFF AND DUP2 MSTORE PUSH1 0x20 ADD SWAP1 DUP2 MSTORE PUSH1 0x20 ADD PUSH0 KECCAK256 PUSH1 0x2 ADD SLOAD GT PUSH2 0xB63 JUMPI PUSH1 0x40 MLOAD PUSH32 0x8C379A000000000000000000000000000000000000000000000000000000000 DUP2 MSTORE PUSH1 0x4 ADD PUSH2 0xB5A SWAP1 PUSH2 0x2A40 JUMP JUMPDEST PUSH1 0x40 MLOAD DUP1 SWAP2 SUB SWAP1 REVERT JUMPDEST PUSH0 DUP2 PUSH0 ADD PUSH0 SWAP1 SLOAD SWAP1 PUSH2 0x100 EXP SWAP1 DIV PUSH20 0xFFFFFFFFFFFFFFFFFFFFFFFFFFFFFFFFFFFFFFFF AND PUSH20 0xFFFFFFFFFFFFFFFFFFFFFFFFFFFFFFFFFFFFFFFF AND PUSH2 0x2710 DUP4 PUSH0 ADD PUSH1 0x14 SWAP1 SLOAD SWAP1 PUSH2 0x100 EXP SWAP1 DIV PUSH2 0xFFFF AND PUSH2 0xFFFF AND PUSH0 DUP1 DUP10 PUSH20 0xFFFFFFFFFFFFFFFFFFFFFFFFFFFFFFFFFFFFFFFF AND PUSH20 0xFFFFFFFFFFFFFFFFFFFFFFFFFFFFFFFFFFFFFFFF AND DUP2 MSTORE PUSH1 0x20 ADD SWAP1 DUP2 MSTORE PUSH1 0x20 ADD PUSH0 KECCAK256 PUSH1 0x2 ADD SLOAD PUSH2 0xC00 SWAP2 SWAP1 PUSH2 0x2A5E JUMP JUMPDEST PUSH2 0xC0A SWAP2 SWAP1 PUSH2 0x2ACC JUMP JUMPDEST PUSH1 0x40 MLOAD PUSH2 0xC16 SWAP1 PUSH2 0x285E JUMP JUMPDEST PUSH0 PUSH1 0x40 MLOAD DUP1 DUP4 SUB DUP2 DUP6 DUP8 GAS CALL SWAP3 POP POP POP RETURNDATASIZE DUP1 PUSH0 DUP2 EQ PUSH2 0xC50 JUMPI PUSH1 0x40 MLOAD SWAP2 POP PUSH1 0x1F NOT PUSH1 0x3F RETURNDATASIZE ADD AND DUP3 ADD PUSH1 0x40 MSTORE RETURNDATASIZE DUP3 MSTORE RETURNDATASIZE PUSH0 PUSH1 0x20 DUP5 ADD RETURNDATACOPY PUSH2 0xC55 JUMP JUMPDEST PUSH1 0x60 SWAP2 POP JUMPDEST POP POP SWAP1 POP DUP1 PUSH2 0xC99 JUMPI PUSH1 0x40 MLOAD PUSH32 0x8C379A000000000000000000000000000000000000000000000000000000000 DUP2 MSTORE PUSH1 0x4 ADD PUSH2 0xC90 SWAP1 PUSH2 0x2B46 JUMP JUMPDEST PUSH1 0x40 MLOAD DUP1 SWAP2 SUB SWAP1 REVERT JUMPDEST PUSH0 DUP3 PUSH0 ADD PUSH1 0x16 PUSH2 0x100 EXP DUP2 SLOAD DUP2 PUSH1 0xFF MUL NOT AND SWAP1 DUP4 ISZERO ISZERO MUL OR SWAP1 SSTORE POP POP JUMPDEST POP DUP1 DUP1 PUSH1 0x1 ADD SWAP2 POP POP PUSH2 0x9CF JUMP JUMPDEST POP POP POP JUMP JUMPDEST PUSH1 0x1 PUSH1 0x20 MSTORE DUP2 PUSH0 MSTORE PUSH1 0x40 PUSH0 KECCAK256 DUP2 DUP2 SLOAD DUP2 LT PUSH2 0xCE2 JUMPI PUSH0 DUP1 REVERT JUMPDEST SWAP1 PUSH0 MSTORE PUSH1 0x20 PUSH0 KECCAK256 ADD PUSH0 SWAP2 POP SWAP2 POP SWAP1 SLOAD SWAP1 PUSH2 0x100 EXP SWAP1 DIV PUSH20 0xFFFFFFFFFFFFFFFFFFFFFFFFFFFFFFFFFFFFFFFF AND DUP2 JUMP JUMPDEST PUSH0 DUP1 CALLER PUSH20 0xFFFFFFFFFFFFFFFFFFFFFFFFFFFFFFFFFFFFFFFF AND PUSH20 0xFFFFFFFFFFFFFFFFFFFFFFFFFFFFFFFFFFFFFFFF AND DUP2 MSTORE PUSH1 0x20 ADD SWAP1 DUP2 MSTORE PUSH1 0x20 ADD PUSH0 KECCAK256 PUSH1 0x1 ADD PUSH0 SWAP1 SLOAD SWAP1 PUSH2 0x100 EXP SWAP1 DIV PUSH1 0xFF AND PUSH2 0xD9C JUMPI PUSH1 0x40 MLOAD PUSH32 0x8C379A000000000000000000000000000000000000000000000000000000000 DUP2 MSTORE PUSH1 0x4 ADD PUSH2 0xD93 SWAP1 PUSH2 0x26E3 JUMP JUMPDEST PUSH1 0x40 MLOAD DUP1 SWAP2 SUB SWAP1 REVERT JUMPDEST PUSH0 DUP1 CALLER PUSH20 0xFFFFFFFFFFFFFFFFFFFFFFFFFFFFFFFFFFFFFFFF AND PUSH20 0xFFFFFFFFFFFFFFFFFFFFFFFFFFFFFFFFFFFFFFFF AND DUP2 MSTORE PUSH1 0x20 ADD SWAP1 DUP2 MSTORE PUSH1 0x20 ADD PUSH0 KECCAK256 PUSH1 0x2 ADD SLOAD DUP2 GT ISZERO PUSH2 0xE1E JUMPI PUSH1 0x40 MLOAD PUSH32 0x8C379A000000000000000000000000000000000000000000000000000000000 DUP2 MSTORE PUSH1 0x4 ADD PUSH2 0xE15 SWAP1 PUSH2 0x2BAE JUMP JUMPDEST PUSH1 0x40 MLOAD DUP1 SWAP2 SUB SWAP1 REVERT JUMPDEST PUSH0 CALLER PUSH20 0xFFFFFFFFFFFFFFFFFFFFFFFFFFFFFFFFFFFFFFFF AND DUP3 PUSH1 0x40 MLOAD PUSH2 0xE43 SWAP1 PUSH2 0x285E JUMP JUMPDEST PUSH0 PUSH1 0x40 MLOAD DUP1 DUP4 SUB DUP2 DUP6 DUP8 GAS CALL SWAP3 POP POP POP RETURNDATASIZE DUP1 PUSH0 DUP2 EQ PUSH2 0xE7D JUMPI PUSH1 0x40 MLOAD SWAP2 POP PUSH1 0x1F NOT PUSH1 0x3F RETURNDATASIZE ADD AND DUP3 ADD PUSH1 0x40 MSTORE RETURNDATASIZE DUP3 MSTORE RETURNDATASIZE PUSH0 PUSH1 0x20 DUP5 ADD RETURNDATACOPY PUSH2 0xE82 JUMP JUMPDEST PUSH1 0x60 SWAP2 POP JUMPDEST POP POP SWAP1 POP DUP1 PUSH2 0xEC6 JUMPI PUSH1 0x40 MLOAD PUSH32 0x8C379A000000000000000000000000000000000000000000000000000000000 DUP2 MSTORE PUSH1 0x4 ADD PUSH2 0xEBD SWAP1 PUSH2 0x2C16 JUMP JUMPDEST PUSH1 0x40 MLOAD DUP1 SWAP2 SUB SWAP1 REVERT JUMPDEST DUP2 PUSH0 DUP1 CALLER PUSH20 0xFFFFFFFFFFFFFFFFFFFFFFFFFFFFFFFFFFFFFFFF AND PUSH20 0xFFFFFFFFFFFFFFFFFFFFFFFFFFFFFFFFFFFFFFFF AND DUP2 MSTORE PUSH1 0x20 ADD SWAP1 DUP2 MSTORE PUSH1 0x20 ADD PUSH0 KECCAK256 PUSH1 0x2 ADD PUSH0 DUP3 DUP3 SLOAD PUSH2 0xF14 SWAP2 SWAP1 PUSH2 0x2C34 JUMP JUMPDEST SWAP3 POP POP DUP2 SWAP1 SSTORE POP POP POP JUMP JUMPDEST PUSH0 PUSH1 0x20 MSTORE DUP1 PUSH0 MSTORE PUSH1 0x40 PUSH0 KECCAK256 PUSH0 SWAP2 POP SWAP1 POP DUP1 PUSH1 0x1 ADD PUSH0 SWAP1 SLOAD SWAP1 PUSH2 0x100 EXP SWAP1 DIV PUSH1 0xFF AND SWAP1 DUP1 PUSH1 0x1 ADD PUSH1 0x1 SWAP1 SLOAD SWAP1 PUSH2 0x100 EXP SWAP1 DIV PUSH16 0xFFFFFFFFFFFFFFFFFFFFFFFFFFFFFFFF AND SWAP1 DUP1 PUSH1 0x2 ADD SLOAD SWAP1 POP DUP4 JUMP JUMPDEST PUSH1 0x60 DUP1 PUSH1 0x60 PUSH0 DUP1 PUSH0 DUP1 PUSH0 DUP9 PUSH20 0xFFFFFFFFFFFFFFFFFFFFFFFFFFFFFFFFFFFFFFFF AND PUSH20 0xFFFFFFFFFFFFFFFFFFFFFFFFFFFFFFFFFFFFFFFF AND DUP2 MSTORE PUSH1 0x20 ADD SWAP1 DUP2 MSTORE PUSH1 0x20 ADD PUSH0 KECCAK256 PUSH1 0x40 MLOAD DUP1 PUSH1 0x80 ADD PUSH1 0x40 MSTORE SWAP1 DUP2 PUSH0 DUP3 ADD DUP1 SLOAD DUP1 PUSH1 0x20 MUL PUSH1 0x20 ADD PUSH1 0x40 MLOAD SWAP1 DUP2 ADD PUSH1 0x40 MSTORE DUP1 SWAP3 SWAP2 SWAP1 DUP2 DUP2 MSTORE PUSH1 0x20 ADD PUSH0 SWAP1 JUMPDEST DUP3 DUP3 LT ISZERO PUSH2 0x1098 JUMPI DUP4 DUP3 SWAP1 PUSH0 MSTORE PUSH1 0x20 PUSH0 KECCAK256 ADD PUSH1 0x40 MLOAD DUP1 PUSH1 0x60 ADD PUSH1 0x40 MSTORE SWAP1 DUP2 PUSH0 DUP3 ADD PUSH0 SWAP1 SLOAD SWAP1 PUSH2 0x100 EXP SWAP1 DIV PUSH20 0xFFFFFFFFFFFFFFFFFFFFFFFFFFFFFFFFFFFFFFFF AND PUSH20 0xFFFFFFFFFFFFFFFFFFFFFFFFFFFFFFFFFFFFFFFF AND PUSH20 0xFFFFFFFFFFFFFFFFFFFFFFFFFFFFFFFFFFFFFFFF AND DUP2 MSTORE PUSH1 0x20 ADD PUSH0 DUP3 ADD PUSH1 0x14 SWAP1 SLOAD SWAP1 PUSH2 0x100 EXP SWAP1 DIV PUSH2 0xFFFF AND PUSH2 0xFFFF AND PUSH2 0xFFFF AND DUP2 MSTORE PUSH1 0x20 ADD PUSH0 DUP3 ADD PUSH1 0x16 SWAP1 SLOAD SWAP1 PUSH2 0x100 EXP SWAP1 DIV PUSH1 0xFF AND ISZERO ISZERO ISZERO ISZERO DUP2 MSTORE POP POP DUP2 MSTORE PUSH1 0x20 ADD SWAP1 PUSH1 0x1 ADD SWAP1 PUSH2 0xFDF JUMP JUMPDEST POP POP POP POP DUP2 MSTORE PUSH1 0x20 ADD PUSH1 0x1 DUP3 ADD PUSH0 SWAP1 SLOAD SWAP1 PUSH2 0x100 EXP SWAP1 DIV PUSH1 0xFF AND ISZERO ISZERO ISZERO ISZERO DUP2 MSTORE PUSH1 0x20 ADD PUSH1 0x1 DUP3 ADD PUSH1 0x1 SWAP1 SLOAD SWAP1 PUSH2 0x100 EXP SWAP1 DIV PUSH16 0xFFFFFFFFFFFFFFFFFFFFFFFFFFFFFFFF AND PUSH16 0xFFFFFFFFFFFFFFFFFFFFFFFFFFFFFFFF AND PUSH16 0xFFFFFFFFFFFFFFFFFFFFFFFFFFFFFFFF AND DUP2 MSTORE PUSH1 0x20 ADD PUSH1 0x2 DUP3 ADD SLOAD DUP2 MSTORE POP POP SWAP1 POP DUP1 PUSH1 0x20 ADD MLOAD PUSH2 0x1154 JUMPI PUSH1 0x40 MLOAD PUSH32 0x8C379A000000000000000000000000000000000000000000000000000000000 DUP2 MSTORE PUSH1 0x4 ADD PUSH2 0x114B SWAP1 PUSH2 0x2CB1 JUMP JUMPDEST PUSH1 0x40 MLOAD DUP1 SWAP2 SUB SWAP1 REVERT JUMPDEST PUSH0 DUP2 PUSH0 ADD MLOAD MLOAD PUSH8 0xFFFFFFFFFFFFFFFF DUP2 GT ISZERO PUSH2 0x1173 JUMPI PUSH2 0x1172 PUSH2 0x2CCF JUMP JUMPDEST JUMPDEST PUSH1 0x40 MLOAD SWAP1 DUP1 DUP3 MSTORE DUP1 PUSH1 0x20 MUL PUSH1 0x20 ADD DUP3 ADD PUSH1 0x40 MSTORE DUP1 ISZERO PUSH2 0x11A1 JUMPI DUP2 PUSH1 0x20 ADD PUSH1 0x20 DUP3 MUL DUP1 CALLDATASIZE DUP4 CALLDATACOPY DUP1 DUP3 ADD SWAP2 POP POP SWAP1 POP JUMPDEST POP SWAP1 POP PUSH0 DUP3 PUSH0 ADD MLOAD MLOAD PUSH8 0xFFFFFFFFFFFFFFFF DUP2 GT ISZERO PUSH2 0x11C3 JUMPI PUSH2 0x11C2 PUSH2 0x2CCF JUMP JUMPDEST JUMPDEST PUSH1 0x40 MLOAD SWAP1 DUP1 DUP3 MSTORE DUP1 PUSH1 0x20 MUL PUSH1 0x20 ADD DUP3 ADD PUSH1 0x40 MSTORE DUP1 ISZERO PUSH2 0x11F1 JUMPI DUP2 PUSH1 0x20 ADD PUSH1 0x20 DUP3 MUL DUP1 CALLDATASIZE DUP4 CALLDATACOPY DUP1 DUP3 ADD SWAP2 POP POP SWAP1 POP JUMPDEST POP SWAP1 POP PUSH0 DUP4 PUSH0 ADD MLOAD MLOAD PUSH8 0xFFFFFFFFFFFFFFFF DUP2 GT ISZERO PUSH2 0x1213 JUMPI PUSH2 0x1212 PUSH2 0x2CCF JUMP JUMPDEST JUMPDEST PUSH1 0x40 MLOAD SWAP1 DUP1 DUP3 MSTORE DUP1 PUSH1 0x20 MUL PUSH1 0x20 ADD DUP3 ADD PUSH1 0x40 MSTORE DUP1 ISZERO PUSH2 0x1241 JUMPI DUP2 PUSH1 0x20 ADD PUSH1 0x20 DUP3 MUL DUP1 CALLDATASIZE DUP4 CALLDATACOPY DUP1 DUP3 ADD SWAP2 POP POP SWAP1 POP JUMPDEST POP SWAP1 POP PUSH0 JUMPDEST DUP5 PUSH0 ADD MLOAD MLOAD DUP2 PUSH8 0xFFFFFFFFFFFFFFFF AND LT ISZERO PUSH2 0x1362 JUMPI PUSH0 DUP6 PUSH0 ADD MLOAD DUP3 PUSH8 0xFFFFFFFFFFFFFFFF AND DUP2 MLOAD DUP2 LT PUSH2 0x127D JUMPI PUSH2 0x127C PUSH2 0x25F1 JUMP JUMPDEST JUMPDEST PUSH1 0x20 MUL PUSH1 0x20 ADD ADD MLOAD SWAP1 POP DUP1 PUSH0 ADD MLOAD DUP6 DUP4 PUSH8 0xFFFFFFFFFFFFFFFF AND DUP2 MLOAD DUP2 LT PUSH2 0x12A8 JUMPI PUSH2 0x12A7 PUSH2 0x25F1 JUMP JUMPDEST JUMPDEST PUSH1 0x20 MUL PUSH1 0x20 ADD ADD SWAP1 PUSH20 0xFFFFFFFFFFFFFFFFFFFFFFFFFFFFFFFFFFFFFFFF AND SWAP1 DUP2 PUSH20 0xFFFFFFFFFFFFFFFFFFFFFFFFFFFFFFFFFFFFFFFF AND DUP2 MSTORE POP POP DUP1 PUSH1 0x20 ADD MLOAD DUP5 DUP4 PUSH8 0xFFFFFFFFFFFFFFFF AND DUP2 MLOAD DUP2 LT PUSH2 0x1304 JUMPI PUSH2 0x1303 PUSH2 0x25F1 JUMP JUMPDEST JUMPDEST PUSH1 0x20 MUL PUSH1 0x20 ADD ADD SWAP1 PUSH2 0xFFFF AND SWAP1 DUP2 PUSH2 0xFFFF AND DUP2 MSTORE POP POP DUP1 PUSH1 0x40 ADD MLOAD DUP4 DUP4 PUSH8 0xFFFFFFFFFFFFFFFF AND DUP2 MLOAD DUP2 LT PUSH2 0x133C JUMPI PUSH2 0x133B PUSH2 0x25F1 JUMP JUMPDEST JUMPDEST PUSH1 0x20 MUL PUSH1 0x20 ADD ADD SWAP1 ISZERO ISZERO SWAP1 DUP2 ISZERO ISZERO DUP2 MSTORE POP POP POP DUP1 DUP1 PUSH2 0x135A SWAP1 PUSH2 0x2D0F JUMP JUMPDEST SWAP2 POP POP PUSH2 0x1246 JUMP JUMPDEST POP DUP3 DUP3 DUP3 DUP7 PUSH1 0x40 ADD MLOAD DUP8 PUSH1 0x60 ADD MLOAD SWAP9 POP SWAP9 POP SWAP9 POP SWAP9 POP SWAP9 POP POP POP POP POP SWAP2 SWAP4 SWAP6 SWAP1 SWAP3 SWAP5 POP JUMP JUMPDEST PUSH0 CALLER SWAP1 POP PUSH0 DUP1 DUP3 PUSH20 0xFFFFFFFFFFFFFFFFFFFFFFFFFFFFFFFFFFFFFFFF AND PUSH20 0xFFFFFFFFFFFFFFFFFFFFFFFFFFFFFFFFFFFFFFFF AND DUP2 MSTORE PUSH1 0x20 ADD SWAP1 DUP2 MSTORE PUSH1 0x20 ADD PUSH0 KECCAK256 PUSH1 0x1 ADD PUSH0 SWAP1 SLOAD SWAP1 PUSH2 0x100 EXP SWAP1 DIV PUSH1 0xFF AND PUSH2 0x1416 JUMPI PUSH1 0x40 MLOAD PUSH32 0x8C379A000000000000000000000000000000000000000000000000000000000 DUP2 MSTORE PUSH1 0x4 ADD PUSH2 0x140D SWAP1 PUSH2 0x2DAE JUMP JUMPDEST PUSH1 0x40 MLOAD DUP1 SWAP2 SUB SWAP1 REVERT JUMPDEST TIMESTAMP PUSH0 DUP1 DUP4 PUSH20 0xFFFFFFFFFFFFFFFFFFFFFFFFFFFFFFFFFFFFFFFF AND PUSH20 0xFFFFFFFFFFFFFFFFFFFFFFFFFFFFFFFFFFFFFFFF AND DUP2 MSTORE PUSH1 0x20 ADD SWAP1 DUP2 MSTORE PUSH1 0x20 ADD PUSH0 KECCAK256 PUSH1 0x1 ADD PUSH1 0x1 PUSH2 0x100 EXP DUP2 SLOAD DUP2 PUSH16 0xFFFFFFFFFFFFFFFFFFFFFFFFFFFFFFFF MUL NOT AND SWAP1 DUP4 PUSH16 0xFFFFFFFFFFFFFFFFFFFFFFFFFFFFFFFF AND MUL OR SWAP1 SSTORE POP POP JUMP JUMPDEST PUSH1 0x60 PUSH0 CALLER SWAP1 POP PUSH0 PUSH1 0x1 PUSH0 DUP4 PUSH20 0xFFFFFFFFFFFFFFFFFFFFFFFFFFFFFFFFFFFFFFFF AND PUSH20 0xFFFFFFFFFFFFFFFFFFFFFFFFFFFFFFFFFFFFFFFF AND DUP2 MSTORE PUSH1 0x20 ADD SWAP1 DUP2 MSTORE PUSH1 0x20 ADD PUSH0 KECCAK256 DUP1 SLOAD SWAP1 POP GT PUSH2 0x1517 JUMPI PUSH1 0x40 MLOAD PUSH32 0x8C379A000000000000000000000000000000000000000000000000000000000 DUP2 MSTORE PUSH1 0x4 ADD PUSH2 0x150E SWAP1 PUSH2 0x2E3C JUMP JUMPDEST PUSH1 0x40 MLOAD DUP1 SWAP2 SUB SWAP1 REVERT JUMPDEST PUSH1 0x1 PUSH0 DUP3 PUSH20 0xFFFFFFFFFFFFFFFFFFFFFFFFFFFFFFFFFFFFFFFF AND PUSH20 0xFFFFFFFFFFFFFFFFFFFFFFFFFFFFFFFFFFFFFFFF AND DUP2 MSTORE PUSH1 0x20 ADD SWAP1 DUP2 MSTORE PUSH1 0x20 ADD PUSH0 KECCAK256 DUP1 SLOAD DUP1 PUSH1 0x20 MUL PUSH1 0x20 ADD PUSH1 0x40 MLOAD SWAP1 DUP2 ADD PUSH1 0x40 MSTORE DUP1 SWAP3 SWAP2 SWAP1 DUP2 DUP2 MSTORE PUSH1 0x20 ADD DUP3 DUP1 SLOAD DUP1 ISZERO PUSH2 0x15D1 JUMPI PUSH1 0x20 MUL DUP3 ADD SWAP2 SWAP1 PUSH0 MSTORE PUSH1 0x20 PUSH0 KECCAK256 SWAP1 JUMPDEST DUP2 PUSH0 SWAP1 SLOAD SWAP1 PUSH2 0x100 EXP SWAP1 DIV PUSH20 0xFFFFFFFFFFFFFFFFFFFFFFFFFFFFFFFFFFFFFFFF AND PUSH20 0xFFFFFFFFFFFFFFFFFFFFFFFFFFFFFFFFFFFFFFFF AND DUP2 MSTORE PUSH1 0x20 ADD SWAP1 PUSH1 0x1 ADD SWAP1 DUP1 DUP4 GT PUSH2 0x1588 JUMPI JUMPDEST POP POP POP POP POP SWAP2 POP POP SWAP1 JUMP JUMPDEST PUSH0 CALLVALUE SUB PUSH2 0x161E JUMPI PUSH1 0x40 MLOAD PUSH32 0x8C379A000000000000000000000000000000000000000000000000000000000 DUP2 MSTORE PUSH1 0x4 ADD PUSH2 0x1615 SWAP1 PUSH2 0x2ECA JUMP JUMPDEST PUSH1 0x40 MLOAD DUP1 SWAP2 SUB SWAP1 REVERT JUMPDEST PUSH0 DUP5 DUP5 SWAP1 POP SUB PUSH2 0x1663 JUMPI PUSH1 0x40 MLOAD PUSH32 0x8C379A000000000000000000000000000000000000000000000000000000000 DUP2 MSTORE PUSH1 0x4 ADD PUSH2 0x165A SWAP1 PUSH2 0x251F JUMP JUMPDEST PUSH1 0x40 MLOAD DUP1 SWAP2 SUB SWAP1 REVERT JUMPDEST DUP2 DUP2 SWAP1 POP DUP5 DUP5 SWAP1 POP EQ PUSH2 0x16AB JUMPI PUSH1 0x40 MLOAD PUSH32 0x8C379A000000000000000000000000000000000000000000000000000000000 DUP2 MSTORE PUSH1 0x4 ADD PUSH2 0x16A2 SWAP1 PUSH2 0x25D3 JUMP JUMPDEST PUSH1 0x40 MLOAD DUP1 SWAP2 SUB SWAP1 REVERT JUMPDEST PUSH0 CALLER SWAP1 POP PUSH0 DUP1 DUP3 PUSH20 0xFFFFFFFFFFFFFFFFFFFFFFFFFFFFFFFFFFFFFFFF AND PUSH20 0xFFFFFFFFFFFFFFFFFFFFFFFFFFFFFFFFFFFFFFFF AND DUP2 MSTORE PUSH1 0x20 ADD SWAP1 DUP2 MSTORE PUSH1 0x20 ADD PUSH0 KECCAK256 PUSH1 0x1 ADD PUSH0 SWAP1 SLOAD SWAP1 PUSH2 0x100 EXP SWAP1 DIV PUSH1 0xFF AND ISZERO PUSH2 0x173B JUMPI PUSH1 0x40 MLOAD PUSH32 0x8C379A000000000000000000000000000000000000000000000000000000000 DUP2 MSTORE PUSH1 0x4 ADD PUSH2 0x1732 SWAP1 PUSH2 0x2F58 JUMP JUMPDEST PUSH1 0x40 MLOAD DUP1 SWAP2 SUB SWAP1 REVERT JUMPDEST PUSH0 DUP1 PUSH0 DUP4 PUSH20 0xFFFFFFFFFFFFFFFFFFFFFFFFFFFFFFFFFFFFFFFF AND PUSH20 0xFFFFFFFFFFFFFFFFFFFFFFFFFFFFFFFFFFFFFFFF AND DUP2 MSTORE PUSH1 0x20 ADD SWAP1 DUP2 MSTORE PUSH1 0x20 ADD PUSH0 KECCAK256 SWAP1 POP PUSH0 JUMPDEST DUP7 DUP7 SWAP1 POP DUP2 LT ISZERO PUSH2 0x198D JUMPI PUSH0 PUSH1 0x40 MLOAD DUP1 PUSH1 0x60 ADD PUSH1 0x40 MSTORE DUP1 DUP10 DUP10 DUP6 DUP2 DUP2 LT PUSH2 0x17A6 JUMPI PUSH2 0x17A5 PUSH2 0x25F1 JUMP JUMPDEST JUMPDEST SWAP1 POP PUSH1 0x20 MUL ADD PUSH1 0x20 DUP2 ADD SWAP1 PUSH2 0x17BB SWAP2 SWAP1 PUSH2 0x2057 JUMP JUMPDEST PUSH20 0xFFFFFFFFFFFFFFFFFFFFFFFFFFFFFFFFFFFFFFFF AND DUP2 MSTORE PUSH1 0x20 ADD DUP8 DUP8 DUP6 DUP2 DUP2 LT PUSH2 0x17E9 JUMPI PUSH2 0x17E8 PUSH2 0x25F1 JUMP JUMPDEST JUMPDEST SWAP1 POP PUSH1 0x20 MUL ADD PUSH1 0x20 DUP2 ADD SWAP1 PUSH2 0x17FE SWAP2 SWAP1 PUSH2 0x2648 JUMP JUMPDEST PUSH2 0xFFFF AND DUP2 MSTORE PUSH1 0x20 ADD PUSH1 0x1 ISZERO ISZERO DUP2 MSTORE POP SWAP1 POP PUSH1 0x1 PUSH0 DUP10 DUP10 DUP6 DUP2 DUP2 LT PUSH2 0x1826 JUMPI PUSH2 0x1825 PUSH2 0x25F1 JUMP JUMPDEST JUMPDEST SWAP1 POP PUSH1 0x20 MUL ADD PUSH1 0x20 DUP2 ADD SWAP1 PUSH2 0x183B SWAP2 SWAP1 PUSH2 0x2057 JUMP JUMPDEST PUSH20 0xFFFFFFFFFFFFFFFFFFFFFFFFFFFFFFFFFFFFFFFF AND PUSH20 0xFFFFFFFFFFFFFFFFFFFFFFFFFFFFFFFFFFFFFFFF AND DUP2 MSTORE PUSH1 0x20 ADD SWAP1 DUP2 MSTORE PUSH1 0x20 ADD PUSH0 KECCAK256 DUP5 SWAP1 DUP1 PUSH1 0x1 DUP2 SLOAD ADD DUP1 DUP3 SSTORE DUP1 SWAP2 POP POP PUSH1 0x1 SWAP1 SUB SWAP1 PUSH0 MSTORE PUSH1 0x20 PUSH0 KECCAK256 ADD PUSH0 SWAP1 SWAP2 SWAP1 SWAP2 SWAP1 SWAP2 PUSH2 0x100 EXP DUP2 SLOAD DUP2 PUSH20 0xFFFFFFFFFFFFFFFFFFFFFFFFFFFFFFFFFFFFFFFF MUL NOT AND SWAP1 DUP4 PUSH20 0xFFFFFFFFFFFFFFFFFFFFFFFFFFFFFFFFFFFFFFFF AND MUL OR SWAP1 SSTORE POP DUP3 PUSH0 ADD DUP2 SWAP1 DUP1 PUSH1 0x1 DUP2 SLOAD ADD DUP1 DUP3 SSTORE DUP1 SWAP2 POP POP PUSH1 0x1 SWAP1 SUB SWAP1 PUSH0 MSTORE PUSH1 0x20 PUSH0 KECCAK256 ADD PUSH0 SWAP1 SWAP2 SWAP1 SWAP2 SWAP1 SWAP2 POP PUSH0 DUP3 ADD MLOAD DUP2 PUSH0 ADD PUSH0 PUSH2 0x100 EXP DUP2 SLOAD DUP2 PUSH20 0xFFFFFFFFFFFFFFFFFFFFFFFFFFFFFFFFFFFFFFFF MUL NOT AND SWAP1 DUP4 PUSH20 0xFFFFFFFFFFFFFFFFFFFFFFFFFFFFFFFFFFFFFFFF AND MUL OR SWAP1 SSTORE POP PUSH1 0x20 DUP3 ADD MLOAD DUP2 PUSH0 ADD PUSH1 0x14 PUSH2 0x100 EXP DUP2 SLOAD DUP2 PUSH2 0xFFFF MUL NOT AND SWAP1 DUP4 PUSH2 0xFFFF AND MUL OR SWAP1 SSTORE POP PUSH1 0x40 DUP3 ADD MLOAD DUP2 PUSH0 ADD PUSH1 0x16 PUSH2 0x100 EXP DUP2 SLOAD DUP2 PUSH1 0xFF MUL NOT AND SWAP1 DUP4 ISZERO ISZERO MUL OR SWAP1 SSTORE POP POP POP POP DUP1 DUP1 PUSH1 0x1 ADD SWAP2 POP POP PUSH2 0x177C JUMP JUMPDEST POP PUSH1 0x1 DUP2 PUSH1 0x1 ADD PUSH0 PUSH2 0x100 EXP DUP2 SLOAD DUP2 PUSH1 0xFF MUL NOT AND SWAP1 DUP4 ISZERO ISZERO MUL OR SWAP1 SSTORE POP CALLVALUE DUP2 PUSH1 0x2 ADD DUP2 SWAP1 SSTORE POP PUSH2 0x19BB PUSH2 0x1387 JUMP JUMPDEST POP POP POP POP POP POP JUMP JUMPDEST PUSH0 DUP1 PUSH0 DUP4 PUSH20 0xFFFFFFFFFFFFFFFFFFFFFFFFFFFFFFFFFFFFFFFF AND PUSH20 0xFFFFFFFFFFFFFFFFFFFFFFFFFFFFFFFFFFFFFFFF AND DUP2 MSTORE PUSH1 0x20 ADD SWAP1 DUP2 MSTORE PUSH1 0x20 ADD PUSH0 KECCAK256 PUSH1 0x1 ADD PUSH0 SWAP1 SLOAD SWAP1 PUSH2 0x100 EXP SWAP1 DIV PUSH1 0xFF AND PUSH2 0x1A1C JUMPI PUSH0 SWAP1 POP PUSH2 0x1AA1 JUMP JUMPDEST PUSH0 PUSH1 0x1 SWAP1 POP DUP1 PUSH0 DUP1 DUP6 PUSH20 0xFFFFFFFFFFFFFFFFFFFFFFFFFFFFFFFFFFFFFFFF AND PUSH20 0xFFFFFFFFFFFFFFFFFFFFFFFFFFFFFFFFFFFFFFFF AND DUP2 MSTORE PUSH1 0x20 ADD SWAP1 DUP2 MSTORE PUSH1 0x20 ADD PUSH0 KECCAK256 PUSH1 0x1 ADD PUSH1 0x1 SWAP1 SLOAD SWAP1 PUSH2 0x100 EXP SWAP1 DIV PUSH16 0xFFFFFFFFFFFFFFFFFFFFFFFFFFFFFFFF AND PUSH16 0xFFFFFFFFFFFFFFFFFFFFFFFFFFFFFFFF AND PUSH2 0x1A9A SWAP2 SWAP1 PUSH2 0x2796 JUMP JUMPDEST TIMESTAMP LT ISZERO SWAP2 POP POP JUMPDEST SWAP2 SWAP1 POP JUMP JUMPDEST PUSH0 DUP1 PUSH0 DUP4 PUSH20 0xFFFFFFFFFFFFFFFFFFFFFFFFFFFFFFFFFFFFFFFF AND PUSH20 0xFFFFFFFFFFFFFFFFFFFFFFFFFFFFFFFFFFFFFFFF AND DUP2 MSTORE PUSH1 0x20 ADD SWAP1 DUP2 MSTORE PUSH1 0x20 ADD PUSH0 KECCAK256 PUSH0 ADD DUP1 SLOAD DUP1 PUSH1 0x20 MUL PUSH1 0x20 ADD PUSH1 0x40 MLOAD SWAP1 DUP2 ADD PUSH1 0x40 MSTORE DUP1 SWAP3 SWAP2 SWAP1 DUP2 DUP2 MSTORE PUSH1 0x20 ADD PUSH0 SWAP1 JUMPDEST DUP3 DUP3 LT ISZERO PUSH2 0x1BBD JUMPI DUP4 DUP3 SWAP1 PUSH0 MSTORE PUSH1 0x20 PUSH0 KECCAK256 ADD PUSH1 0x40 MLOAD DUP1 PUSH1 0x60 ADD PUSH1 0x40 MSTORE SWAP1 DUP2 PUSH0 DUP3 ADD PUSH0 SWAP1 SLOAD SWAP1 PUSH2 0x100 EXP SWAP1 DIV PUSH20 0xFFFFFFFFFFFFFFFFFFFFFFFFFFFFFFFFFFFFFFFF AND PUSH20 0xFFFFFFFFFFFFFFFFFFFFFFFFFFFFFFFFFFFFFFFF AND PUSH20 0xFFFFFFFFFFFFFFFFFFFFFFFFFFFFFFFFFFFFFFFF AND DUP2 MSTORE PUSH1 0x20 ADD PUSH0 DUP3 ADD PUSH1 0x14 SWAP1 SLOAD SWAP1 PUSH2 0x100 EXP SWAP1 DIV PUSH2 0xFFFF AND PUSH2 0xFFFF AND PUSH2 0xFFFF AND DUP2 MSTORE PUSH1 0x20 ADD PUSH0 DUP3 ADD PUSH1 0x16 SWAP1 SLOAD SWAP1 PUSH2 0x100 EXP SWAP1 DIV PUSH1 0xFF AND ISZERO ISZERO ISZERO ISZERO DUP2 MSTORE POP POP DUP2 MSTORE PUSH1 0x20 ADD SWAP1 PUSH1 0x1 ADD SWAP1 PUSH2 0x1B04 JUMP JUMPDEST POP POP POP POP SWAP1 POP PUSH0 JUMPDEST DUP2 MLOAD DUP2 LT ISZERO PUSH2 0x1E3B JUMPI PUSH0 PUSH1 0x1 PUSH0 DUP5 DUP5 DUP2 MLOAD DUP2 LT PUSH2 0x1BE5 JUMPI PUSH2 0x1BE4 PUSH2 0x25F1 JUMP JUMPDEST JUMPDEST PUSH1 0x20 MUL PUSH1 0x20 ADD ADD MLOAD PUSH0 ADD MLOAD PUSH20 0xFFFFFFFFFFFFFFFFFFFFFFFFFFFFFFFFFFFFFFFF AND PUSH20 0xFFFFFFFFFFFFFFFFFFFFFFFFFFFFFFFFFFFFFFFF AND DUP2 MSTORE PUSH1 0x20 ADD SWAP1 DUP2 MSTORE PUSH1 0x20 ADD PUSH0 KECCAK256 DUP1 SLOAD DUP1 PUSH1 0x20 MUL PUSH1 0x20 ADD PUSH1 0x40 MLOAD SWAP1 DUP2 ADD PUSH1 0x40 MSTORE DUP1 SWAP3 SWAP2 SWAP1 DUP2 DUP2 MSTORE PUSH1 0x20 ADD DUP3 DUP1 SLOAD DUP1 ISZERO PUSH2 0x1CA6 JUMPI PUSH1 0x20 MUL DUP3 ADD SWAP2 SWAP1 PUSH0 MSTORE PUSH1 0x20 PUSH0 KECCAK256 SWAP1 JUMPDEST DUP2 PUSH0 SWAP1 SLOAD SWAP1 PUSH2 0x100 EXP SWAP1 DIV PUSH20 0xFFFFFFFFFFFFFFFFFFFFFFFFFFFFFFFFFFFFFFFF AND PUSH20 0xFFFFFFFFFFFFFFFFFFFFFFFFFFFFFFFFFFFFFFFF AND DUP2 MSTORE PUSH1 0x20 ADD SWAP1 PUSH1 0x1 ADD SWAP1 DUP1 DUP4 GT PUSH2 0x1C5D JUMPI JUMPDEST POP POP POP POP POP SWAP1 POP PUSH0 DUP2 MLOAD SWAP1 POP PUSH0 JUMPDEST DUP2 DUP2 LT ISZERO PUSH2 0x1E2B JUMPI DUP6 PUSH20 0xFFFFFFFFFFFFFFFFFFFFFFFFFFFFFFFFFFFFFFFF AND DUP4 DUP3 DUP2 MLOAD DUP2 LT PUSH2 0x1CE6 JUMPI PUSH2 0x1CE5 PUSH2 0x25F1 JUMP JUMPDEST JUMPDEST PUSH1 0x20 MUL PUSH1 0x20 ADD ADD MLOAD PUSH20 0xFFFFFFFFFFFFFFFFFFFFFFFFFFFFFFFFFFFFFFFF AND SUB PUSH2 0x1E1E JUMPI DUP3 PUSH1 0x1 DUP4 PUSH2 0x1D17 SWAP2 SWAP1 PUSH2 0x2C34 JUMP JUMPDEST DUP2 MLOAD DUP2 LT PUSH2 0x1D28 JUMPI PUSH2 0x1D27 PUSH2 0x25F1 JUMP JUMPDEST JUMPDEST PUSH1 0x20 MUL PUSH1 0x20 ADD ADD MLOAD DUP4 DUP3 DUP2 MLOAD DUP2 LT PUSH2 0x1D43 JUMPI PUSH2 0x1D42 PUSH2 0x25F1 JUMP JUMPDEST JUMPDEST PUSH1 0x20 MUL PUSH1 0x20 ADD ADD SWAP1 PUSH20 0xFFFFFFFFFFFFFFFFFFFFFFFFFFFFFFFFFFFFFFFF AND SWAP1 DUP2 PUSH20 0xFFFFFFFFFFFFFFFFFFFFFFFFFFFFFFFFFFFFFFFF AND DUP2 MSTORE POP POP PUSH1 0x1 PUSH0 DUP7 DUP7 DUP2 MLOAD DUP2 LT PUSH2 0x1D93 JUMPI PUSH2 0x1D92 PUSH2 0x25F1 JUMP JUMPDEST JUMPDEST PUSH1 0x20 MUL PUSH1 0x20 ADD ADD MLOAD PUSH0 ADD MLOAD PUSH20 0xFFFFFFFFFFFFFFFFFFFFFFFFFFFFFFFFFFFFFFFF AND PUSH20 0xFFFFFFFFFFFFFFFFFFFFFFFFFFFFFFFFFFFFFFFF AND DUP2 MSTORE PUSH1 0x20 ADD SWAP1 DUP2 MSTORE PUSH1 0x20 ADD PUSH0 KECCAK256 DUP1 SLOAD DUP1 PUSH2 0x1DE7 JUMPI PUSH2 0x1DE6 PUSH2 0x2F76 JUMP JUMPDEST JUMPDEST PUSH1 0x1 SWAP1 SUB DUP2 DUP2 SWAP1 PUSH0 MSTORE PUSH1 0x20 PUSH0 KECCAK256 ADD PUSH0 PUSH2 0x100 EXP DUP2 SLOAD SWAP1 PUSH20 0xFFFFFFFFFFFFFFFFFFFFFFFFFFFFFFFFFFFFFFFF MUL NOT AND SWAP1 SSTORE SWAP1 SSTORE PUSH2 0x1E2B JUMP JUMPDEST DUP1 DUP1 PUSH1 0x1 ADD SWAP2 POP POP PUSH2 0x1CB4 JUMP JUMPDEST POP POP POP DUP1 DUP1 PUSH1 0x1 ADD SWAP2 POP POP PUSH2 0x1BC5 JUMP JUMPDEST POP POP POP JUMP JUMPDEST POP DUP1 SLOAD PUSH0 DUP3 SSTORE SWAP1 PUSH0 MSTORE PUSH1 0x20 PUSH0 KECCAK256 SWAP1 DUP2 ADD SWAP1 PUSH2 0x1E5B SWAP2 SWAP1 PUSH2 0x1E5E JUMP JUMPDEST POP JUMP JUMPDEST JUMPDEST DUP1 DUP3 GT ISZERO PUSH2 0x1EBD JUMPI PUSH0 DUP1 DUP3 ADD PUSH0 PUSH2 0x100 EXP DUP2 SLOAD SWAP1 PUSH20 0xFFFFFFFFFFFFFFFFFFFFFFFFFFFFFFFFFFFFFFFF MUL NOT AND SWAP1 SSTORE PUSH0 DUP3 ADD PUSH1 0x14 PUSH2 0x100 EXP DUP2 SLOAD SWAP1 PUSH2 0xFFFF MUL NOT AND SWAP1 SSTORE PUSH0 DUP3 ADD PUSH1 0x16 PUSH2 0x100 EXP DUP2 SLOAD SWAP1 PUSH1 0xFF MUL NOT AND SWAP1 SSTORE POP PUSH1 0x1 ADD PUSH2 0x1E5F JUMP JUMPDEST POP SWAP1 JUMP JUMPDEST PUSH0 DUP1 REVERT JUMPDEST PUSH0 DUP1 REVERT JUMPDEST PUSH0 DUP1 REVERT JUMPDEST PUSH0 DUP1 REVERT JUMPDEST PUSH0 DUP1 REVERT JUMPDEST PUSH0 DUP1 DUP4 PUSH1 0x1F DUP5 ADD SLT PUSH2 0x1EEA JUMPI PUSH2 0x1EE9 PUSH2 0x1EC9 JUMP JUMPDEST JUMPDEST DUP3 CALLDATALOAD SWAP1 POP PUSH8 0xFFFFFFFFFFFFFFFF DUP2 GT ISZERO PUSH2 0x1F07 JUMPI PUSH2 0x1F06 PUSH2 0x1ECD JUMP JUMPDEST JUMPDEST PUSH1 0x20 DUP4 ADD SWAP2 POP DUP4 PUSH1 0x20 DUP3 MUL DUP4 ADD GT ISZERO PUSH2 0x1F23 JUMPI PUSH2 0x1F22 PUSH2 0x1ED1 JUMP JUMPDEST JUMPDEST SWAP3 POP SWAP3 SWAP1 POP JUMP JUMPDEST PUSH0 DUP1 DUP4 PUSH1 0x1F DUP5 ADD SLT PUSH2 0x1F3F JUMPI PUSH2 0x1F3E PUSH2 0x1EC9 JUMP JUMPDEST JUMPDEST DUP3 CALLDATALOAD SWAP1 POP PUSH8 0xFFFFFFFFFFFFFFFF DUP2 GT ISZERO PUSH2 0x1F5C JUMPI PUSH2 0x1F5B PUSH2 0x1ECD JUMP JUMPDEST JUMPDEST PUSH1 0x20 DUP4 ADD SWAP2 POP DUP4 PUSH1 0x20 DUP3 MUL DUP4 ADD GT ISZERO PUSH2 0x1F78 JUMPI PUSH2 0x1F77 PUSH2 0x1ED1 JUMP JUMPDEST JUMPDEST SWAP3 POP SWAP3 SWAP1 POP JUMP JUMPDEST PUSH0 DUP1 PUSH0 DUP1 PUSH1 0x40 DUP6 DUP8 SUB SLT ISZERO PUSH2 0x1F97 JUMPI PUSH2 0x1F96 PUSH2 0x1EC1 JUMP JUMPDEST JUMPDEST PUSH0 DUP6 ADD CALLDATALOAD PUSH8 0xFFFFFFFFFFFFFFFF DUP2 GT ISZERO PUSH2 0x1FB4 JUMPI PUSH2 0x1FB3 PUSH2 0x1EC5 JUMP JUMPDEST JUMPDEST PUSH2 0x1FC0 DUP8 DUP3 DUP9 ADD PUSH2 0x1ED5 JUMP JUMPDEST SWAP5 POP SWAP5 POP POP PUSH1 0x20 DUP6 ADD CALLDATALOAD PUSH8 0xFFFFFFFFFFFFFFFF DUP2 GT ISZERO PUSH2 0x1FE3 JUMPI PUSH2 0x1FE2 PUSH2 0x1EC5 JUMP JUMPDEST JUMPDEST PUSH2 0x1FEF DUP8 DUP3 DUP9 ADD PUSH2 0x1F2A JUMP JUMPDEST SWAP3 POP SWAP3 POP POP SWAP3 SWAP6 SWAP2 SWAP5 POP SWAP3 POP JUMP JUMPDEST PUSH0 PUSH20 0xFFFFFFFFFFFFFFFFFFFFFFFFFFFFFFFFFFFFFFFF DUP3 AND SWAP1 POP SWAP2 SWAP1 POP JUMP JUMPDEST PUSH0 PUSH2 0x2026 DUP3 PUSH2 0x1FFD JUMP JUMPDEST SWAP1 POP SWAP2 SWAP1 POP JUMP JUMPDEST PUSH2 0x2036 DUP2 PUSH2 0x201C JUMP JUMPDEST DUP2 EQ PUSH2 0x2040 JUMPI PUSH0 DUP1 REVERT JUMPDEST POP JUMP JUMPDEST PUSH0 DUP2 CALLDATALOAD SWAP1 POP PUSH2 0x2051 DUP2 PUSH2 0x202D JUMP JUMPDEST SWAP3 SWAP2 POP POP JUMP JUMPDEST PUSH0 PUSH1 0x20 DUP3 DUP5 SUB SLT ISZERO PUSH2 0x206C JUMPI PUSH2 0x206B PUSH2 0x1EC1 JUMP JUMPDEST JUMPDEST PUSH0 PUSH2 0x2079 DUP5 DUP3 DUP6 ADD PUSH2 0x2043 JUMP JUMPDEST SWAP2 POP POP SWAP3 SWAP2 POP POP JUMP JUMPDEST PUSH0 DUP2 SWAP1 POP SWAP2 SWAP1 POP JUMP JUMPDEST PUSH2 0x2094 DUP2 PUSH2 0x2082 JUMP JUMPDEST DUP2 EQ PUSH2 0x209E JUMPI PUSH0 DUP1 REVERT JUMPDEST POP JUMP JUMPDEST PUSH0 DUP2 CALLDATALOAD SWAP1 POP PUSH2 0x20AF DUP2 PUSH2 0x208B JUMP JUMPDEST SWAP3 SWAP2 POP POP JUMP JUMPDEST PUSH0 DUP1 PUSH1 0x40 DUP4 DUP6 SUB SLT ISZERO PUSH2 0x20CB JUMPI PUSH2 0x20CA PUSH2 0x1EC1 JUMP JUMPDEST JUMPDEST PUSH0 PUSH2 0x20D8 DUP6 DUP3 DUP7 ADD PUSH2 0x2043 JUMP JUMPDEST SWAP3 POP POP PUSH1 0x20 PUSH2 0x20E9 DUP6 DUP3 DUP7 ADD PUSH2 0x20A1 JUMP JUMPDEST SWAP2 POP POP SWAP3 POP SWAP3 SWAP1 POP JUMP JUMPDEST PUSH2 0x20FC DUP2 PUSH2 0x201C JUMP JUMPDEST DUP3 MSTORE POP POP JUMP JUMPDEST PUSH0 PUSH1 0x20 DUP3 ADD SWAP1 POP PUSH2 0x2115 PUSH0 DUP4 ADD DUP5 PUSH2 0x20F3 JUMP JUMPDEST SWAP3 SWAP2 POP POP JUMP JUMPDEST PUSH0 PUSH1 0x20 DUP3 DUP5 SUB SLT ISZERO PUSH2 0x2130 JUMPI PUSH2 0x212F PUSH2 0x1EC1 JUMP JUMPDEST JUMPDEST PUSH0 PUSH2 0x213D DUP5 DUP3 DUP6 ADD PUSH2 0x20A1 JUMP JUMPDEST SWAP2 POP POP SWAP3 SWAP2 POP POP JUMP JUMPDEST PUSH0 DUP2 ISZERO ISZERO SWAP1 POP SWAP2 SWAP1 POP JUMP JUMPDEST PUSH2 0x215A DUP2 PUSH2 0x2146 JUMP JUMPDEST DUP3 MSTORE POP POP JUMP JUMPDEST PUSH0 PUSH16 0xFFFFFFFFFFFFFFFFFFFFFFFFFFFFFFFF DUP3 AND SWAP1 POP SWAP2 SWAP1 POP JUMP JUMPDEST PUSH2 0x2184 DUP2 PUSH2 0x2160 JUMP JUMPDEST DUP3 MSTORE POP POP JUMP JUMPDEST PUSH2 0x2193 DUP2 PUSH2 0x2082 JUMP JUMPDEST DUP3 MSTORE POP POP JUMP JUMPDEST PUSH0 PUSH1 0x60 DUP3 ADD SWAP1 POP PUSH2 0x21AC PUSH0 DUP4 ADD DUP7 PUSH2 0x2151 JUMP JUMPDEST PUSH2 0x21B9 PUSH1 0x20 DUP4 ADD DUP6 PUSH2 0x217B JUMP JUMPDEST PUSH2 0x21C6 PUSH1 0x40 DUP4 ADD DUP5 PUSH2 0x218A JUMP JUMPDEST SWAP5 SWAP4 POP POP POP POP JUMP JUMPDEST PUSH0 DUP2 MLOAD SWAP1 POP SWAP2 SWAP1 POP JUMP JUMPDEST PUSH0 DUP3 DUP3 MSTORE PUSH1 0x20 DUP3 ADD SWAP1 POP SWAP3 SWAP2 POP POP JUMP JUMPDEST PUSH0 DUP2 SWAP1 POP PUSH1 0x20 DUP3 ADD SWAP1 POP SWAP2 SWAP1 POP JUMP JUMPDEST PUSH2 0x2200 DUP2 PUSH2 0x201C JUMP JUMPDEST DUP3 MSTORE POP POP JUMP JUMPDEST PUSH0 PUSH2 0x2211 DUP4 DUP4 PUSH2 0x21F7 JUMP JUMPDEST PUSH1 0x20 DUP4 ADD SWAP1 POP SWAP3 SWAP2 POP POP JUMP JUMPDEST PUSH0 PUSH1 0x20 DUP3 ADD SWAP1 POP SWAP2 SWAP1 POP JUMP JUMPDEST PUSH0 PUSH2 0x2233 DUP3 PUSH2 0x21CE JUMP JUMPDEST PUSH2 0x223D DUP2 DUP6 PUSH2 0x21D8 JUMP JUMPDEST SWAP4 POP PUSH2 0x2248 DUP4 PUSH2 0x21E8 JUMP JUMPDEST DUP1 PUSH0 JUMPDEST DUP4 DUP2 LT ISZERO PUSH2 0x2278 JUMPI DUP2 MLOAD PUSH2 0x225F DUP9 DUP3 PUSH2 0x2206 JUMP JUMPDEST SWAP8 POP PUSH2 0x226A DUP4 PUSH2 0x221D JUMP JUMPDEST SWAP3 POP POP PUSH1 0x1 DUP2 ADD SWAP1 POP PUSH2 0x224B JUMP JUMPDEST POP DUP6 SWAP4 POP POP POP POP SWAP3 SWAP2 POP POP JUMP JUMPDEST PUSH0 DUP2 MLOAD SWAP1 POP SWAP2 SWAP1 POP JUMP JUMPDEST PUSH0 DUP3 DUP3 MSTORE PUSH1 0x20 DUP3 ADD SWAP1 POP SWAP3 SWAP2 POP POP JUMP JUMPDEST PUSH0 DUP2 SWAP1 POP PUSH1 0x20 DUP3 ADD SWAP1 POP SWAP2 SWAP1 POP JUMP JUMPDEST PUSH0 PUSH2 0xFFFF DUP3 AND SWAP1 POP SWAP2 SWAP1 POP JUMP JUMPDEST PUSH2 0x22C4 DUP2 PUSH2 0x22AE JUMP JUMPDEST DUP3 MSTORE POP POP JUMP JUMPDEST PUSH0 PUSH2 0x22D5 DUP4 DUP4 PUSH2 0x22BB JUMP JUMPDEST PUSH1 0x20 DUP4 ADD SWAP1 POP SWAP3 SWAP2 POP POP JUMP JUMPDEST PUSH0 PUSH1 0x20 DUP3 ADD SWAP1 POP SWAP2 SWAP1 POP JUMP JUMPDEST PUSH0 PUSH2 0x22F7 DUP3 PUSH2 0x2285 JUMP JUMPDEST PUSH2 0x2301 DUP2 DUP6 PUSH2 0x228F JUMP JUMPDEST SWAP4 POP PUSH2 0x230C DUP4 PUSH2 0x229F JUMP JUMPDEST DUP1 PUSH0 JUMPDEST DUP4 DUP2 LT ISZERO PUSH2 0x233C JUMPI DUP2 MLOAD PUSH2 0x2323 DUP9 DUP3 PUSH2 0x22CA JUMP JUMPDEST SWAP8 POP PUSH2 0x232E DUP4 PUSH2 0x22E1 JUMP JUMPDEST SWAP3 POP POP PUSH1 0x1 DUP2 ADD SWAP1 POP PUSH2 0x230F JUMP JUMPDEST POP DUP6 SWAP4 POP POP POP POP SWAP3 SWAP2 POP POP JUMP JUMPDEST PUSH0 DUP2 MLOAD SWAP1 POP SWAP2 SWAP1 POP JUMP JUMPDEST PUSH0 DUP3 DUP3 MSTORE PUSH1 0x20 DUP3 ADD SWAP1 POP SWAP3 SWAP2 POP POP JUMP JUMPDEST PUSH0 DUP2 SWAP1 POP PUSH1 0x20 DUP3 ADD SWAP1 POP SWAP2 SWAP1 POP JUMP JUMPDEST PUSH2 0x237B DUP2 PUSH2 0x2146 JUMP JUMPDEST DUP3 MSTORE POP POP JUMP JUMPDEST PUSH0 PUSH2 0x238C DUP4 DUP4 PUSH2 0x2372 JUMP JUMPDEST PUSH1 0x20 DUP4 ADD SWAP1 POP SWAP3 SWAP2 POP POP JUMP JUMPDEST PUSH0 PUSH1 0x20 DUP3 ADD SWAP1 POP SWAP2 SWAP1 POP JUMP JUMPDEST PUSH0 PUSH2 0x23AE DUP3 PUSH2 0x2349 JUMP JUMPDEST PUSH2 0x23B8 DUP2 DUP6 PUSH2 0x2353 JUMP JUMPDEST SWAP4 POP PUSH2 0x23C3 DUP4 PUSH2 0x2363 JUMP JUMPDEST DUP1 PUSH0 JUMPDEST DUP4 DUP2 LT ISZERO PUSH2 0x23F3 JUMPI DUP2 MLOAD PUSH2 0x23DA DUP9 DUP3 PUSH2 0x2381 JUMP JUMPDEST SWAP8 POP PUSH2 0x23E5 DUP4 PUSH2 0x2398 JUMP JUMPDEST SWAP3 POP POP PUSH1 0x1 DUP2 ADD SWAP1 POP PUSH2 0x23C6 JUMP JUMPDEST POP DUP6 SWAP4 POP POP POP POP SWAP3 SWAP2 POP POP JUMP JUMPDEST PUSH0 PUSH1 0xA0 DUP3 ADD SWAP1 POP DUP2 DUP2 SUB PUSH0 DUP4 ADD MSTORE PUSH2 0x2418 DUP2 DUP9 PUSH2 0x2229 JUMP JUMPDEST SWAP1 POP DUP2 DUP2 SUB PUSH1 0x20 DUP4 ADD MSTORE PUSH2 0x242C DUP2 DUP8 PUSH2 0x22ED JUMP JUMPDEST SWAP1 POP DUP2 DUP2 SUB PUSH1 0x40 DUP4 ADD MSTORE PUSH2 0x2440 DUP2 DUP7 PUSH2 0x23A4 JUMP JUMPDEST SWAP1 POP PUSH2 0x244F PUSH1 0x60 DUP4 ADD DUP6 PUSH2 0x217B JUMP JUMPDEST PUSH2 0x245C PUSH1 0x80 DUP4 ADD DUP5 PUSH2 0x218A JUMP JUMPDEST SWAP7 SWAP6 POP POP POP POP POP POP JUMP JUMPDEST PUSH0 PUSH1 0x20 DUP3 ADD SWAP1 POP DUP2 DUP2 SUB PUSH0 DUP4 ADD MSTORE PUSH2 0x247E DUP2 DUP5 PUSH2 0x2229 JUMP JUMPDEST SWAP1 POP SWAP3 SWAP2 POP POP JUMP JUMPDEST PUSH0 PUSH1 0x20 DUP3 ADD SWAP1 POP PUSH2 0x2499 PUSH0 DUP4 ADD DUP5 PUSH2 0x2151 JUMP JUMPDEST SWAP3 SWAP2 POP POP JUMP JUMPDEST PUSH0 DUP3 DUP3 MSTORE PUSH1 0x20 DUP3 ADD SWAP1 POP SWAP3 SWAP2 POP POP JUMP JUMPDEST PUSH32 0x637265617465496E6865726974616E636528292C2061646963696F6E65206F73 PUSH0 DUP3 ADD MSTORE PUSH32 0x20686572646569726F7300000000000000000000000000000000000000000000 PUSH1 0x20 DUP3 ADD MSTORE POP JUMP JUMPDEST PUSH0 PUSH2 0x2509 PUSH1 0x2A DUP4 PUSH2 0x249F JUMP JUMPDEST SWAP2 POP PUSH2 0x2514 DUP3 PUSH2 0x24AF JUMP JUMPDEST PUSH1 0x40 DUP3 ADD SWAP1 POP SWAP2 SWAP1 POP JUMP JUMPDEST PUSH0 PUSH1 0x20 DUP3 ADD SWAP1 POP DUP2 DUP2 SUB PUSH0 DUP4 ADD MSTORE PUSH2 0x2536 DUP2 PUSH2 0x24FD JUMP JUMPDEST SWAP1 POP SWAP2 SWAP1 POP JUMP JUMPDEST PUSH32 0x637265617465496E6865726974616E636528292C207175616E74696461646520 PUSH0 DUP3 ADD MSTORE PUSH32 0x646520656E64657265636F73206520706F7263656E746167656E732064696665 PUSH1 0x20 DUP3 ADD MSTORE PUSH32 0x72656E7465730000000000000000000000000000000000000000000000000000 PUSH1 0x40 DUP3 ADD MSTORE POP JUMP JUMPDEST PUSH0 PUSH2 0x25BD PUSH1 0x46 DUP4 PUSH2 0x249F JUMP JUMPDEST SWAP2 POP PUSH2 0x25C8 DUP3 PUSH2 0x253D JUMP JUMPDEST PUSH1 0x60 DUP3 ADD SWAP1 POP SWAP2 SWAP1 POP JUMP JUMPDEST PUSH0 PUSH1 0x20 DUP3 ADD SWAP1 POP DUP2 DUP2 SUB PUSH0 DUP4 ADD MSTORE PUSH2 0x25EA DUP2 PUSH2 0x25B1 JUMP JUMPDEST SWAP1 POP SWAP2 SWAP1 POP JUMP JUMPDEST PUSH32 0x4E487B7100000000000000000000000000000000000000000000000000000000 PUSH0 MSTORE PUSH1 0x32 PUSH1 0x4 MSTORE PUSH1 0x24 PUSH0 REVERT JUMPDEST PUSH2 0x2627 DUP2 PUSH2 0x22AE JUMP JUMPDEST DUP2 EQ PUSH2 0x2631 JUMPI PUSH0 DUP1 REVERT JUMPDEST POP JUMP JUMPDEST PUSH0 DUP2 CALLDATALOAD SWAP1 POP PUSH2 0x2642 DUP2 PUSH2 0x261E JUMP JUMPDEST SWAP3 SWAP2 POP POP JUMP JUMPDEST PUSH0 PUSH1 0x20 DUP3 DUP5 SUB SLT ISZERO PUSH2 0x265D JUMPI PUSH2 0x265C PUSH2 0x1EC1 JUMP JUMPDEST JUMPDEST PUSH0 PUSH2 0x266A DUP5 DUP3 DUP6 ADD PUSH2 0x2634 JUMP JUMPDEST SWAP2 POP POP SWAP3 SWAP2 POP POP JUMP JUMPDEST PUSH32 0x766F6365206E616F20706F737375692074657374616D656E746F206372696164 PUSH0 DUP3 ADD MSTORE PUSH32 0x6F00000000000000000000000000000000000000000000000000000000000000 PUSH1 0x20 DUP3 ADD MSTORE POP JUMP JUMPDEST PUSH0 PUSH2 0x26CD PUSH1 0x21 DUP4 PUSH2 0x249F JUMP JUMPDEST SWAP2 POP PUSH2 0x26D8 DUP3 PUSH2 0x2673 JUMP JUMPDEST PUSH1 0x40 DUP3 ADD SWAP1 POP SWAP2 SWAP1 POP JUMP JUMPDEST PUSH0 PUSH1 0x20 DUP3 ADD SWAP1 POP DUP2 DUP2 SUB PUSH0 DUP4 ADD MSTORE PUSH2 0x26FA DUP2 PUSH2 0x26C1 JUMP JUMPDEST SWAP1 POP SWAP2 SWAP1 POP JUMP JUMPDEST PUSH32 0x696E7369726120756D2076616C6F720000000000000000000000000000000000 PUSH0 DUP3 ADD MSTORE POP JUMP JUMPDEST PUSH0 PUSH2 0x2735 PUSH1 0xF DUP4 PUSH2 0x249F JUMP JUMPDEST SWAP2 POP PUSH2 0x2740 DUP3 PUSH2 0x2701 JUMP JUMPDEST PUSH1 0x20 DUP3 ADD SWAP1 POP SWAP2 SWAP1 POP JUMP JUMPDEST PUSH0 PUSH1 0x20 DUP3 ADD SWAP1 POP DUP2 DUP2 SUB PUSH0 DUP4 ADD MSTORE PUSH2 0x2762 DUP2 PUSH2 0x2729 JUMP JUMPDEST SWAP1 POP SWAP2 SWAP1 POP JUMP JUMPDEST PUSH32 0x4E487B7100000000000000000000000000000000000000000000000000000000 PUSH0 MSTORE PUSH1 0x11 PUSH1 0x4 MSTORE PUSH1 0x24 PUSH0 REVERT JUMPDEST PUSH0 PUSH2 0x27A0 DUP3 PUSH2 0x2082 JUMP JUMPDEST SWAP2 POP PUSH2 0x27AB DUP4 PUSH2 0x2082 JUMP JUMPDEST SWAP3 POP DUP3 DUP3 ADD SWAP1 POP DUP1 DUP3 GT ISZERO PUSH2 0x27C3 JUMPI PUSH2 0x27C2 PUSH2 0x2769 JUMP JUMPDEST JUMPDEST SWAP3 SWAP2 POP POP JUMP JUMPDEST PUSH32 0x766F6365206E616F20706F737375692074657374616D656E746F000000000000 PUSH0 DUP3 ADD MSTORE POP JUMP JUMPDEST PUSH0 PUSH2 0x27FD PUSH1 0x1A DUP4 PUSH2 0x249F JUMP JUMPDEST SWAP2 POP PUSH2 0x2808 DUP3 PUSH2 0x27C9 JUMP JUMPDEST PUSH1 0x20 DUP3 ADD SWAP1 POP SWAP2 SWAP1 POP JUMP JUMPDEST PUSH0 PUSH1 0x20 DUP3 ADD SWAP1 POP DUP2 DUP2 SUB PUSH0 DUP4 ADD MSTORE PUSH2 0x282A DUP2 PUSH2 0x27F1 JUMP JUMPDEST SWAP1 POP SWAP2 SWAP1 POP JUMP JUMPDEST PUSH0 DUP2 SWAP1 POP SWAP3 SWAP2 POP POP JUMP JUMPDEST POP JUMP JUMPDEST PUSH0 PUSH2 0x2849 PUSH0 DUP4 PUSH2 0x2831 JUMP JUMPDEST SWAP2 POP PUSH2 0x2854 DUP3 PUSH2 0x283B JUMP JUMPDEST PUSH0 DUP3 ADD SWAP1 POP SWAP2 SWAP1 POP JUMP JUMPDEST PUSH0 PUSH2 0x2868 DUP3 PUSH2 0x283E JUMP JUMPDEST SWAP2 POP DUP2 SWAP1 POP SWAP2 SWAP1 POP JUMP JUMPDEST PUSH32 0x63616E63656C54657374616D656E7428292C2046616C686120616F20656E7669 PUSH0 DUP3 ADD MSTORE PUSH32 0x6172204554480000000000000000000000000000000000000000000000000000 PUSH1 0x20 DUP3 ADD MSTORE POP JUMP JUMPDEST PUSH0 PUSH2 0x28CC PUSH1 0x26 DUP4 PUSH2 0x249F JUMP JUMPDEST SWAP2 POP PUSH2 0x28D7 DUP3 PUSH2 0x2872 JUMP JUMPDEST PUSH1 0x40 DUP3 ADD SWAP1 POP SWAP2 SWAP1 POP JUMP JUMPDEST PUSH0 PUSH1 0x20 DUP3 ADD SWAP1 POP DUP2 DUP2 SUB PUSH0 DUP4 ADD MSTORE PUSH2 0x28F9 DUP2 PUSH2 0x28C0 JUMP JUMPDEST SWAP1 POP SWAP2 SWAP1 POP JUMP JUMPDEST PUSH32 0x41207265746972616461206E616F20706F646520736572207265616C697A6164 PUSH0 DUP3 ADD MSTORE PUSH32 0x6100000000000000000000000000000000000000000000000000000000000000 PUSH1 0x20 DUP3 ADD MSTORE POP JUMP JUMPDEST PUSH0 PUSH2 0x295A PUSH1 0x21 DUP4 PUSH2 0x249F JUMP JUMPDEST SWAP2 POP PUSH2 0x2965 DUP3 PUSH2 0x2900 JUMP JUMPDEST PUSH1 0x40 DUP3 ADD SWAP1 POP SWAP2 SWAP1 POP JUMP JUMPDEST PUSH0 PUSH1 0x20 DUP3 ADD SWAP1 POP DUP2 DUP2 SUB PUSH0 DUP4 ADD MSTORE PUSH2 0x2987 DUP2 PUSH2 0x294E JUMP JUMPDEST SWAP1 POP SWAP2 SWAP1 POP JUMP JUMPDEST PUSH32 0x6E616F2074656D20686572646569726F73000000000000000000000000000000 PUSH0 DUP3 ADD MSTORE POP JUMP JUMPDEST PUSH0 PUSH2 0x29C2 PUSH1 0x11 DUP4 PUSH2 0x249F JUMP JUMPDEST SWAP2 POP PUSH2 0x29CD DUP3 PUSH2 0x298E JUMP JUMPDEST PUSH1 0x20 DUP3 ADD SWAP1 POP SWAP2 SWAP1 POP JUMP JUMPDEST PUSH0 PUSH1 0x20 DUP3 ADD SWAP1 POP DUP2 DUP2 SUB PUSH0 DUP4 ADD MSTORE PUSH2 0x29EF DUP2 PUSH2 0x29B6 JUMP JUMPDEST SWAP1 POP SWAP2 SWAP1 POP JUMP JUMPDEST PUSH32 0x6E616F2074656D2076616C7565206E6F2074657374616D656E746F0000000000 PUSH0 DUP3 ADD MSTORE POP JUMP JUMPDEST PUSH0 PUSH2 0x2A2A PUSH1 0x1B DUP4 PUSH2 0x249F JUMP JUMPDEST SWAP2 POP PUSH2 0x2A35 DUP3 PUSH2 0x29F6 JUMP JUMPDEST PUSH1 0x20 DUP3 ADD SWAP1 POP SWAP2 SWAP1 POP JUMP JUMPDEST PUSH0 PUSH1 0x20 DUP3 ADD SWAP1 POP DUP2 DUP2 SUB PUSH0 DUP4 ADD MSTORE PUSH2 0x2A57 DUP2 PUSH2 0x2A1E JUMP JUMPDEST SWAP1 POP SWAP2 SWAP1 POP JUMP JUMPDEST PUSH0 PUSH2 0x2A68 DUP3 PUSH2 0x2082 JUMP JUMPDEST SWAP2 POP PUSH2 0x2A73 DUP4 PUSH2 0x2082 JUMP JUMPDEST SWAP3 POP DUP3 DUP3 MUL PUSH2 0x2A81 DUP2 PUSH2 0x2082 JUMP JUMPDEST SWAP2 POP DUP3 DUP3 DIV DUP5 EQ DUP4 ISZERO OR PUSH2 0x2A98 JUMPI PUSH2 0x2A97 PUSH2 0x2769 JUMP JUMPDEST JUMPDEST POP SWAP3 SWAP2 POP POP JUMP JUMPDEST PUSH32 0x4E487B7100000000000000000000000000000000000000000000000000000000 PUSH0 MSTORE PUSH1 0x12 PUSH1 0x4 MSTORE PUSH1 0x24 PUSH0 REVERT JUMPDEST PUSH0 PUSH2 0x2AD6 DUP3 PUSH2 0x2082 JUMP JUMPDEST SWAP2 POP PUSH2 0x2AE1 DUP4 PUSH2 0x2082 JUMP JUMPDEST SWAP3 POP DUP3 PUSH2 0x2AF1 JUMPI PUSH2 0x2AF0 PUSH2 0x2A9F JUMP JUMPDEST JUMPDEST DUP3 DUP3 DIV SWAP1 POP SWAP3 SWAP2 POP POP JUMP JUMPDEST PUSH32 0x46616C686120616F20656E766961722045544800000000000000000000000000 PUSH0 DUP3 ADD MSTORE POP JUMP JUMPDEST PUSH0 PUSH2 0x2B30 PUSH1 0x13 DUP4 PUSH2 0x249F JUMP JUMPDEST SWAP2 POP PUSH2 0x2B3B DUP3 PUSH2 0x2AFC JUMP JUMPDEST PUSH1 0x20 DUP3 ADD SWAP1 POP SWAP2 SWAP1 POP JUMP JUMPDEST PUSH0 PUSH1 0x20 DUP3 ADD SWAP1 POP DUP2 DUP2 SUB PUSH0 DUP4 ADD MSTORE PUSH2 0x2B5D DUP2 PUSH2 0x2B24 JUMP JUMPDEST SWAP1 POP SWAP2 SWAP1 POP JUMP JUMPDEST PUSH32 0x766F6365206E616F2074656D206973736F207475646F20616900000000000000 PUSH0 DUP3 ADD MSTORE POP JUMP JUMPDEST PUSH0 PUSH2 0x2B98 PUSH1 0x19 DUP4 PUSH2 0x249F JUMP JUMPDEST SWAP2 POP PUSH2 0x2BA3 DUP3 PUSH2 0x2B64 JUMP JUMPDEST PUSH1 0x20 DUP3 ADD SWAP1 POP SWAP2 SWAP1 POP JUMP JUMPDEST PUSH0 PUSH1 0x20 DUP3 ADD SWAP1 POP DUP2 DUP2 SUB PUSH0 DUP4 ADD MSTORE PUSH2 0x2BC5 DUP2 PUSH2 0x2B8C JUMP JUMPDEST SWAP1 POP SWAP2 SWAP1 POP JUMP JUMPDEST PUSH32 0x6E616F207469726F750000000000000000000000000000000000000000000000 PUSH0 DUP3 ADD MSTORE POP JUMP JUMPDEST PUSH0 PUSH2 0x2C00 PUSH1 0x9 DUP4 PUSH2 0x249F JUMP JUMPDEST SWAP2 POP PUSH2 0x2C0B DUP3 PUSH2 0x2BCC JUMP JUMPDEST PUSH1 0x20 DUP3 ADD SWAP1 POP SWAP2 SWAP1 POP JUMP JUMPDEST PUSH0 PUSH1 0x20 DUP3 ADD SWAP1 POP DUP2 DUP2 SUB PUSH0 DUP4 ADD MSTORE PUSH2 0x2C2D DUP2 PUSH2 0x2BF4 JUMP JUMPDEST SWAP1 POP SWAP2 SWAP1 POP JUMP JUMPDEST PUSH0 PUSH2 0x2C3E DUP3 PUSH2 0x2082 JUMP JUMPDEST SWAP2 POP PUSH2 0x2C49 DUP4 PUSH2 0x2082 JUMP JUMPDEST SWAP3 POP DUP3 DUP3 SUB SWAP1 POP DUP2 DUP2 GT ISZERO PUSH2 0x2C61 JUMPI PUSH2 0x2C60 PUSH2 0x2769 JUMP JUMPDEST JUMPDEST SWAP3 SWAP2 POP POP JUMP JUMPDEST PUSH32 0x5465737461646F72206E616F20656E636F6E747261646F000000000000000000 PUSH0 DUP3 ADD MSTORE POP JUMP JUMPDEST PUSH0 PUSH2 0x2C9B PUSH1 0x17 DUP4 PUSH2 0x249F JUMP JUMPDEST SWAP2 POP PUSH2 0x2CA6 DUP3 PUSH2 0x2C67 JUMP JUMPDEST PUSH1 0x20 DUP3 ADD SWAP1 POP SWAP2 SWAP1 POP JUMP JUMPDEST PUSH0 PUSH1 0x20 DUP3 ADD SWAP1 POP DUP2 DUP2 SUB PUSH0 DUP4 ADD MSTORE PUSH2 0x2CC8 DUP2 PUSH2 0x2C8F JUMP JUMPDEST SWAP1 POP SWAP2 SWAP1 POP JUMP JUMPDEST PUSH32 0x4E487B7100000000000000000000000000000000000000000000000000000000 PUSH0 MSTORE PUSH1 0x41 PUSH1 0x4 MSTORE PUSH1 0x24 PUSH0 REVERT JUMPDEST PUSH0 PUSH8 0xFFFFFFFFFFFFFFFF DUP3 AND SWAP1 POP SWAP2 SWAP1 POP JUMP JUMPDEST PUSH0 PUSH2 0x2D19 DUP3 PUSH2 0x2CFC JUMP JUMPDEST SWAP2 POP PUSH8 0xFFFFFFFFFFFFFFFF DUP3 SUB PUSH2 0x2D33 JUMPI PUSH2 0x2D32 PUSH2 0x2769 JUMP JUMPDEST JUMPDEST PUSH1 0x1 DUP3 ADD SWAP1 POP SWAP2 SWAP1 POP JUMP JUMPDEST PUSH32 0x566F6365206E616F20706F73737569206E656E68756D2074657374616D656E74 PUSH0 DUP3 ADD MSTORE PUSH32 0x6F2063726961646F000000000000000000000000000000000000000000000000 PUSH1 0x20 DUP3 ADD MSTORE POP JUMP JUMPDEST PUSH0 PUSH2 0x2D98 PUSH1 0x28 DUP4 PUSH2 0x249F JUMP JUMPDEST SWAP2 POP PUSH2 0x2DA3 DUP3 PUSH2 0x2D3E JUMP JUMPDEST PUSH1 0x40 DUP3 ADD SWAP1 POP SWAP2 SWAP1 POP JUMP JUMPDEST PUSH0 PUSH1 0x20 DUP3 ADD SWAP1 POP DUP2 DUP2 SUB PUSH0 DUP4 ADD MSTORE PUSH2 0x2DC5 DUP2 PUSH2 0x2D8C JUMP JUMPDEST SWAP1 POP SWAP2 SWAP1 POP JUMP JUMPDEST PUSH32 0x566F6365206E616F206573746120656D206E656E68756D2074657374616D656E PUSH0 DUP3 ADD MSTORE PUSH32 0x746F000000000000000000000000000000000000000000000000000000000000 PUSH1 0x20 DUP3 ADD MSTORE POP JUMP JUMPDEST PUSH0 PUSH2 0x2E26 PUSH1 0x22 DUP4 PUSH2 0x249F JUMP JUMPDEST SWAP2 POP PUSH2 0x2E31 DUP3 PUSH2 0x2DCC JUMP JUMPDEST PUSH1 0x40 DUP3 ADD SWAP1 POP SWAP2 SWAP1 POP JUMP JUMPDEST PUSH0 PUSH1 0x20 DUP3 ADD SWAP1 POP DUP2 DUP2 SUB PUSH0 DUP4 ADD MSTORE PUSH2 0x2E53 DUP2 PUSH2 0x2E1A JUMP JUMPDEST SWAP1 POP SWAP2 SWAP1 POP JUMP JUMPDEST PUSH32 0x637265617465496E6865726974616E636528292C2076616C6F7220696E76616C PUSH0 DUP3 ADD MSTORE PUSH32 0x69646F0000000000000000000000000000000000000000000000000000000000 PUSH1 0x20 DUP3 ADD MSTORE POP JUMP JUMPDEST PUSH0 PUSH2 0x2EB4 PUSH1 0x23 DUP4 PUSH2 0x249F JUMP JUMPDEST SWAP2 POP PUSH2 0x2EBF DUP3 PUSH2 0x2E5A JUMP JUMPDEST PUSH1 0x40 DUP3 ADD SWAP1 POP SWAP2 SWAP1 POP JUMP JUMPDEST PUSH0 PUSH1 0x20 DUP3 ADD SWAP1 POP DUP2 DUP2 SUB PUSH0 DUP4 ADD MSTORE PUSH2 0x2EE1 DUP2 PUSH2 0x2EA8 JUMP JUMPDEST SWAP1 POP SWAP2 SWAP1 POP JUMP JUMPDEST PUSH32 0x637265617465496E6865726974616E636528292C20766F6365206A612074656D PUSH0 DUP3 ADD MSTORE PUSH32 0x20756D2074657374616D656E746F2063726961646F2C20656469746520656C65 PUSH1 0x20 DUP3 ADD MSTORE POP JUMP JUMPDEST PUSH0 PUSH2 0x2F42 PUSH1 0x40 DUP4 PUSH2 0x249F JUMP JUMPDEST SWAP2 POP PUSH2 0x2F4D DUP3 PUSH2 0x2EE8 JUMP JUMPDEST PUSH1 0x40 DUP3 ADD SWAP1 POP SWAP2 SWAP1 POP JUMP JUMPDEST PUSH0 PUSH1 0x20 DUP3 ADD SWAP1 POP DUP2 DUP2 SUB PUSH0 DUP4 ADD MSTORE PUSH2 0x2F6F DUP2 PUSH2 0x2F36 JUMP JUMPDEST SWAP1 POP SWAP2 SWAP1 POP JUMP JUMPDEST PUSH32 0x4E487B7100000000000000000000000000000000000000000000000000000000 PUSH0 MSTORE PUSH1 0x31 PUSH1 0x4 MSTORE PUSH1 0x24 PUSH0 REVERT INVALID LOG2 PUSH5 0x6970667358 0x22 SLT KECCAK256 SWAP2 DUP6 DUP5 DUP10 0xEE 0xC3 0xBE POP 0xED SDIV 0xAC 0xD0 JUMPI DUP11 0x22 0x4B ADDRESS PUSH14 0xFFE9560F8A4BBBD4942C12AFCAE9 PUSH5 0x736F6C6343 STOP ADDMOD BYTE STOP CALLER "
				},
				"gasEstimates": {
					"creation": {
						"codeDepositCost": "2449800",
						"executionCost": "2633",
						"totalCost": "2452433"
					},
					"external": {
						"addAssetsInTestament()": "infinite",
						"cancelTestament()": "infinite",
						"createInheritance(address[],uint16[])": "infinite",
						"editInheritorsInMyTestament(address[],uint16[])": "infinite",
						"getMyTestament(address)": "infinite",
						"getMyTestators()": "infinite",
						"inheritorToTestators(address,uint256)": "infinite",
						"inheritorsCanWithdraw(address)": "infinite",
						"removeAssetsInTestament(uint256)": "infinite",
						"testament(address)": "7370",
						"updateProofOfLife()": "26854",
						"withdraw(address)": "infinite"
					},
					"internal": {
						"clearOldInheritorsOfTestament(address)": "infinite"
					}
				},
				"methodIdentifiers": {
					"addAssetsInTestament()": "0d78946e",
					"cancelTestament()": "1aba6da6",
					"createInheritance(address[],uint16[])": "e7a84bc3",
					"editInheritorsInMyTestament(address[],uint16[])": "0bbd5839",
					"getMyTestament(address)": "c6064610",
					"getMyTestators()": "ca7252ea",
					"inheritorToTestators(address,uint256)": "5b084db9",
					"inheritorsCanWithdraw(address)": "f3550b9b",
					"removeAssetsInTestament(uint256)": "5bd36e29",
					"testament(address)": "7618d0a7",
					"updateProofOfLife()": "c80cc411",
					"withdraw(address)": "51cff8d9"
				}
			},
			"storageLayout": {
				"storage": [
					{
						"astId": 30,
						"contract": ".deps/studying-solidity/testament/Testament.sol:Testament",
						"label": "testament",
						"offset": 0,
						"slot": "0",
						"type": "t_mapping(t_address,t_struct(Testament)19_storage)"
					},
					{
						"astId": 35,
						"contract": ".deps/studying-solidity/testament/Testament.sol:Testament",
						"label": "inheritorToTestators",
						"offset": 0,
						"slot": "1",
						"type": "t_mapping(t_address,t_array(t_address)dyn_storage)"
					}
				],
				"types": {
					"t_address": {
						"encoding": "inplace",
						"label": "address",
						"numberOfBytes": "20"
					},
					"t_array(t_address)dyn_storage": {
						"base": "t_address",
						"encoding": "dynamic_array",
						"label": "address[]",
						"numberOfBytes": "32"
					},
					"t_array(t_struct(Inheritor)8_storage)dyn_storage": {
						"base": "t_struct(Inheritor)8_storage",
						"encoding": "dynamic_array",
						"label": "struct StructsToTestament.Inheritor[]",
						"numberOfBytes": "32"
					},
					"t_bool": {
						"encoding": "inplace",
						"label": "bool",
						"numberOfBytes": "1"
					},
					"t_mapping(t_address,t_array(t_address)dyn_storage)": {
						"encoding": "mapping",
						"key": "t_address",
						"label": "mapping(address => address[])",
						"numberOfBytes": "32",
						"value": "t_array(t_address)dyn_storage"
					},
					"t_mapping(t_address,t_struct(Testament)19_storage)": {
						"encoding": "mapping",
						"key": "t_address",
						"label": "mapping(address => struct StructsToTestament.Testament)",
						"numberOfBytes": "32",
						"value": "t_struct(Testament)19_storage"
					},
					"t_struct(Inheritor)8_storage": {
						"encoding": "inplace",
						"label": "struct StructsToTestament.Inheritor",
						"members": [
							{
								"astId": 3,
								"contract": ".deps/studying-solidity/testament/Testament.sol:Testament",
								"label": "inheritorAddress",
								"offset": 0,
								"slot": "0",
								"type": "t_address"
							},
							{
								"astId": 5,
								"contract": ".deps/studying-solidity/testament/Testament.sol:Testament",
								"label": "percentage",
								"offset": 20,
								"slot": "0",
								"type": "t_uint16"
							},
							{
								"astId": 7,
								"contract": ".deps/studying-solidity/testament/Testament.sol:Testament",
								"label": "canWithdraw",
								"offset": 22,
								"slot": "0",
								"type": "t_bool"
							}
						],
						"numberOfBytes": "32"
					},
					"t_struct(Testament)19_storage": {
						"encoding": "inplace",
						"label": "struct StructsToTestament.Testament",
						"members": [
							{
								"astId": 12,
								"contract": ".deps/studying-solidity/testament/Testament.sol:Testament",
								"label": "inheritors",
								"offset": 0,
								"slot": "0",
								"type": "t_array(t_struct(Inheritor)8_storage)dyn_storage"
							},
							{
								"astId": 14,
								"contract": ".deps/studying-solidity/testament/Testament.sol:Testament",
								"label": "exist",
								"offset": 0,
								"slot": "1",
								"type": "t_bool"
							},
							{
								"astId": 16,
								"contract": ".deps/studying-solidity/testament/Testament.sol:Testament",
								"label": "lastProofOfLife",
								"offset": 1,
								"slot": "1",
								"type": "t_uint128"
							},
							{
								"astId": 18,
								"contract": ".deps/studying-solidity/testament/Testament.sol:Testament",
								"label": "inheritanceValue",
								"offset": 0,
								"slot": "2",
								"type": "t_uint256"
							}
						],
						"numberOfBytes": "96"
					},
					"t_uint128": {
						"encoding": "inplace",
						"label": "uint128",
						"numberOfBytes": "16"
					},
					"t_uint16": {
						"encoding": "inplace",
						"label": "uint16",
						"numberOfBytes": "2"
					},
					"t_uint256": {
						"encoding": "inplace",
						"label": "uint256",
						"numberOfBytes": "32"
					}
				}
			},
			"userdoc": {
				"kind": "user",
				"methods": {},
				"version": 1
			}
		}
	}
}