{
	".deps/studying-solidity/v0.1/TestamentProxy.sol": {
		"Proxy": {
			"abi": [
				{
					"inputs": [
						{
							"internalType": "address",
							"name": "_implementation",
							"type": "address"
						}
					],
					"stateMutability": "nonpayable",
					"type": "constructor"
				},
				{
					"stateMutability": "payable",
					"type": "fallback"
				},
				{
					"inputs": [],
					"name": "admin",
					"outputs": [
						{
							"internalType": "address",
							"name": "",
							"type": "address"
						}
					],
					"stateMutability": "view",
					"type": "function"
				},
				{
					"inputs": [],
					"name": "implementation",
					"outputs": [
						{
							"internalType": "address",
							"name": "",
							"type": "address"
						}
					],
					"stateMutability": "view",
					"type": "function"
				},
				{
					"inputs": [
						{
							"internalType": "address",
							"name": "_newImplementation",
							"type": "address"
						}
					],
					"name": "updateImplementation",
					"outputs": [],
					"stateMutability": "nonpayable",
					"type": "function"
				},
				{
					"stateMutability": "payable",
					"type": "receive"
				}
			],
			"devdoc": {
				"kind": "dev",
				"methods": {},
				"version": 1
			},
			"evm": {
				"assembly": "    /* \".deps/studying-solidity/v0.1/TestamentProxy.sol\":61:1195  contract Proxy {... */\n  mstore(0x40, 0x80)\n    /* \".deps/studying-solidity/v0.1/TestamentProxy.sol\":240:357  constructor(address _implementation) {... */\n  callvalue\n  dup1\n  iszero\n  tag_1\n  jumpi\n  0x00\n  dup1\n  revert\ntag_1:\n  pop\n  mload(0x40)\n  sub(codesize, bytecodeSize)\n  dup1\n  bytecodeSize\n  dup4\n  codecopy\n  dup2\n  dup2\n  add\n  0x40\n  mstore\n  dup2\n  add\n  swap1\n  tag_2\n  swap2\n  swap1\n  tag_3\n  jump\t// in\ntag_2:\n    /* \".deps/studying-solidity/v0.1/TestamentProxy.sol\":305:320  _implementation */\n  dup1\n    /* \".deps/studying-solidity/v0.1/TestamentProxy.sol\":288:302  implementation */\n  0x00\n  dup1\n    /* \".deps/studying-solidity/v0.1/TestamentProxy.sol\":288:320  implementation = _implementation */\n  0x0100\n  exp\n  dup2\n  sload\n  dup2\n  0xffffffffffffffffffffffffffffffffffffffff\n  mul\n  not\n  and\n  swap1\n  dup4\n  0xffffffffffffffffffffffffffffffffffffffff\n  and\n  mul\n  or\n  swap1\n  sstore\n  pop\n    /* \".deps/studying-solidity/v0.1/TestamentProxy.sol\":339:349  msg.sender */\n  caller\n    /* \".deps/studying-solidity/v0.1/TestamentProxy.sol\":331:336  admin */\n  0x01\n  0x00\n    /* \".deps/studying-solidity/v0.1/TestamentProxy.sol\":331:349  admin = msg.sender */\n  0x0100\n  exp\n  dup2\n  sload\n  dup2\n  0xffffffffffffffffffffffffffffffffffffffff\n  mul\n  not\n  and\n  swap1\n  dup4\n  0xffffffffffffffffffffffffffffffffffffffff\n  and\n  mul\n  or\n  swap1\n  sstore\n  pop\n    /* \".deps/studying-solidity/v0.1/TestamentProxy.sol\":240:357  constructor(address _implementation) {... */\n  pop\n    /* \".deps/studying-solidity/v0.1/TestamentProxy.sol\":61:1195  contract Proxy {... */\n  jump(tag_6)\n    /* \"#utility.yul\":88:205   */\ntag_8:\n    /* \"#utility.yul\":197:198   */\n  0x00\n    /* \"#utility.yul\":194:195   */\n  dup1\n    /* \"#utility.yul\":187:199   */\n  revert\n    /* \"#utility.yul\":334:460   */\ntag_10:\n    /* \"#utility.yul\":371:378   */\n  0x00\n    /* \"#utility.yul\":411:453   */\n  0xffffffffffffffffffffffffffffffffffffffff\n    /* \"#utility.yul\":404:409   */\n  dup3\n    /* \"#utility.yul\":400:454   */\n  and\n    /* \"#utility.yul\":389:454   */\n  swap1\n  pop\n    /* \"#utility.yul\":334:460   */\n  swap2\n  swap1\n  pop\n  jump\t// out\n    /* \"#utility.yul\":466:562   */\ntag_11:\n    /* \"#utility.yul\":503:510   */\n  0x00\n    /* \"#utility.yul\":532:556   */\n  tag_20\n    /* \"#utility.yul\":550:555   */\n  dup3\n    /* \"#utility.yul\":532:556   */\n  tag_10\n  jump\t// in\ntag_20:\n    /* \"#utility.yul\":521:556   */\n  swap1\n  pop\n    /* \"#utility.yul\":466:562   */\n  swap2\n  swap1\n  pop\n  jump\t// out\n    /* \"#utility.yul\":568:690   */\ntag_12:\n    /* \"#utility.yul\":641:665   */\n  tag_22\n    /* \"#utility.yul\":659:664   */\n  dup2\n    /* \"#utility.yul\":641:665   */\n  tag_11\n  jump\t// in\ntag_22:\n    /* \"#utility.yul\":634:639   */\n  dup2\n    /* \"#utility.yul\":631:666   */\n  eq\n    /* \"#utility.yul\":621:684   */\n  tag_23\n  jumpi\n    /* \"#utility.yul\":680:681   */\n  0x00\n    /* \"#utility.yul\":677:678   */\n  dup1\n    /* \"#utility.yul\":670:682   */\n  revert\n    /* \"#utility.yul\":621:684   */\ntag_23:\n    /* \"#utility.yul\":568:690   */\n  pop\n  jump\t// out\n    /* \"#utility.yul\":696:839   */\ntag_13:\n    /* \"#utility.yul\":753:758   */\n  0x00\n    /* \"#utility.yul\":784:790   */\n  dup2\n    /* \"#utility.yul\":778:791   */\n  mload\n    /* \"#utility.yul\":769:791   */\n  swap1\n  pop\n    /* \"#utility.yul\":800:833   */\n  tag_25\n    /* \"#utility.yul\":827:832   */\n  dup2\n    /* \"#utility.yul\":800:833   */\n  tag_12\n  jump\t// in\ntag_25:\n    /* \"#utility.yul\":696:839   */\n  swap3\n  swap2\n  pop\n  pop\n  jump\t// out\n    /* \"#utility.yul\":845:1196   */\ntag_3:\n    /* \"#utility.yul\":915:921   */\n  0x00\n    /* \"#utility.yul\":964:966   */\n  0x20\n    /* \"#utility.yul\":952:961   */\n  dup3\n    /* \"#utility.yul\":943:950   */\n  dup5\n    /* \"#utility.yul\":939:962   */\n  sub\n    /* \"#utility.yul\":935:967   */\n  slt\n    /* \"#utility.yul\":932:1051   */\n  iszero\n  tag_27\n  jumpi\n    /* \"#utility.yul\":970:1049   */\n  tag_28\n  tag_8\n  jump\t// in\ntag_28:\n    /* \"#utility.yul\":932:1051   */\ntag_27:\n    /* \"#utility.yul\":1090:1091   */\n  0x00\n    /* \"#utility.yul\":1115:1179   */\n  tag_29\n    /* \"#utility.yul\":1171:1178   */\n  dup5\n    /* \"#utility.yul\":1162:1168   */\n  dup3\n    /* \"#utility.yul\":1151:1160   */\n  dup6\n    /* \"#utility.yul\":1147:1169   */\n  add\n    /* \"#utility.yul\":1115:1179   */\n  tag_13\n  jump\t// in\ntag_29:\n    /* \"#utility.yul\":1105:1179   */\n  swap2\n  pop\n    /* \"#utility.yul\":1061:1189   */\n  pop\n    /* \"#utility.yul\":845:1196   */\n  swap3\n  swap2\n  pop\n  pop\n  jump\t// out\n    /* \".deps/studying-solidity/v0.1/TestamentProxy.sol\":61:1195  contract Proxy {... */\ntag_6:\n  dataSize(sub_0)\n  dup1\n  dataOffset(sub_0)\n  0x00\n  codecopy\n  0x00\n  return\nstop\n\nsub_0: assembly {\n        /* \".deps/studying-solidity/v0.1/TestamentProxy.sol\":61:1195  contract Proxy {... */\n      mstore(0x40, 0x80)\n      jumpi(tag_1, lt(calldatasize, 0x04))\n      shr(0xe0, calldataload(0x00))\n      dup1\n      0x025b22bc\n      eq\n      tag_3\n      jumpi\n      dup1\n      0x5c60da1b\n      eq\n      tag_4\n      jumpi\n      dup1\n      0xf851a440\n      eq\n      tag_5\n      jumpi\n      jump(tag_2)\n    tag_1:\n      jumpi(tag_2, calldatasize)\n      stop\n    tag_2:\n        /* \".deps/studying-solidity/v0.1/TestamentProxy.sol\":600:612  address impl */\n      0x00\n        /* \".deps/studying-solidity/v0.1/TestamentProxy.sol\":615:629  implementation */\n      dup1\n      0x00\n      swap1\n      sload\n      swap1\n      0x0100\n      exp\n      swap1\n      div\n      0xffffffffffffffffffffffffffffffffffffffff\n      and\n        /* \".deps/studying-solidity/v0.1/TestamentProxy.sol\":600:629  address impl = implementation */\n      swap1\n      pop\n        /* \".deps/studying-solidity/v0.1/TestamentProxy.sol\":664:665  0 */\n      0x00\n        /* \".deps/studying-solidity/v0.1/TestamentProxy.sol\":648:666  impl != address(0) */\n      0xffffffffffffffffffffffffffffffffffffffff\n      and\n        /* \".deps/studying-solidity/v0.1/TestamentProxy.sol\":648:652  impl */\n      dup2\n        /* \".deps/studying-solidity/v0.1/TestamentProxy.sol\":648:666  impl != address(0) */\n      0xffffffffffffffffffffffffffffffffffffffff\n      and\n      sub\n        /* \".deps/studying-solidity/v0.1/TestamentProxy.sol\":640:696  require(impl != address(0), \"Implementation nao setada\") */\n      tag_10\n      jumpi\n      mload(0x40)\n      0x08c379a000000000000000000000000000000000000000000000000000000000\n      dup2\n      mstore\n      0x04\n      add\n      tag_11\n      swap1\n      tag_12\n      jump\t// in\n    tag_11:\n      mload(0x40)\n      dup1\n      swap2\n      sub\n      swap1\n      revert\n    tag_10:\n        /* \".deps/studying-solidity/v0.1/TestamentProxy.sol\":783:797  calldatasize() */\n      calldatasize\n        /* \".deps/studying-solidity/v0.1/TestamentProxy.sol\":780:781  0 */\n      0x00\n        /* \".deps/studying-solidity/v0.1/TestamentProxy.sol\":777:778  0 */\n      dup1\n        /* \".deps/studying-solidity/v0.1/TestamentProxy.sol\":764:798  calldatacopy(0, 0, calldatasize()) */\n      calldatacopy\n        /* \".deps/studying-solidity/v0.1/TestamentProxy.sol\":918:919  0 */\n      0x00\n        /* \".deps/studying-solidity/v0.1/TestamentProxy.sol\":915:916  0 */\n      dup1\n        /* \".deps/studying-solidity/v0.1/TestamentProxy.sol\":899:913  calldatasize() */\n      calldatasize\n        /* \".deps/studying-solidity/v0.1/TestamentProxy.sol\":896:897  0 */\n      0x00\n        /* \".deps/studying-solidity/v0.1/TestamentProxy.sol\":890:894  impl */\n      dup5\n        /* \".deps/studying-solidity/v0.1/TestamentProxy.sol\":883:888  gas() */\n      gas\n        /* \".deps/studying-solidity/v0.1/TestamentProxy.sol\":870:920  delegatecall(gas(), impl, 0, calldatasize(), 0, 0) */\n      delegatecall\n        /* \".deps/studying-solidity/v0.1/TestamentProxy.sol\":986:1002  returndatasize() */\n      returndatasize\n        /* \".deps/studying-solidity/v0.1/TestamentProxy.sol\":983:984  0 */\n      0x00\n        /* \".deps/studying-solidity/v0.1/TestamentProxy.sol\":980:981  0 */\n      dup1\n        /* \".deps/studying-solidity/v0.1/TestamentProxy.sol\":965:1003  returndatacopy(0, 0, returndatasize()) */\n      returndatacopy\n        /* \".deps/studying-solidity/v0.1/TestamentProxy.sol\":1026:1032  result */\n      dup1\n        /* \".deps/studying-solidity/v0.1/TestamentProxy.sol\":1051:1052  0 */\n      0x00\n        /* \".deps/studying-solidity/v0.1/TestamentProxy.sol\":1046:1084  case 0 { revert(0, returndatasize()) } */\n      dup2\n      eq\n      tag_14\n      jumpi\n        /* \".deps/studying-solidity/v0.1/TestamentProxy.sol\":1118:1134  returndatasize() */\n      returndatasize\n        /* \".deps/studying-solidity/v0.1/TestamentProxy.sol\":1115:1116  0 */\n      0x00\n        /* \".deps/studying-solidity/v0.1/TestamentProxy.sol\":1108:1135  return(0, returndatasize()) */\n      return\n        /* \".deps/studying-solidity/v0.1/TestamentProxy.sol\":1046:1084  case 0 { revert(0, returndatasize()) } */\n    tag_14:\n        /* \".deps/studying-solidity/v0.1/TestamentProxy.sol\":1065:1081  returndatasize() */\n      returndatasize\n        /* \".deps/studying-solidity/v0.1/TestamentProxy.sol\":1062:1063  0 */\n      0x00\n        /* \".deps/studying-solidity/v0.1/TestamentProxy.sol\":1055:1082  revert(0, returndatasize()) */\n      revert\n        /* \".deps/studying-solidity/v0.1/TestamentProxy.sol\":365:553  function updateImplementation(address _newImplementation) external {... */\n    tag_3:\n      callvalue\n      dup1\n      iszero\n      tag_15\n      jumpi\n      0x00\n      dup1\n      revert\n    tag_15:\n      pop\n      tag_16\n      0x04\n      dup1\n      calldatasize\n      sub\n      dup2\n      add\n      swap1\n      tag_17\n      swap2\n      swap1\n      tag_18\n      jump\t// in\n    tag_17:\n      tag_19\n      jump\t// in\n    tag_16:\n      stop\n        /* \".deps/studying-solidity/v0.1/TestamentProxy.sol\":83:112  address public implementation */\n    tag_4:\n      callvalue\n      dup1\n      iszero\n      tag_20\n      jumpi\n      0x00\n      dup1\n      revert\n    tag_20:\n      pop\n      tag_21\n      tag_22\n      jump\t// in\n    tag_21:\n      mload(0x40)\n      tag_23\n      swap2\n      swap1\n      tag_24\n      jump\t// in\n    tag_23:\n      mload(0x40)\n      dup1\n      swap2\n      sub\n      swap1\n      return\n        /* \".deps/studying-solidity/v0.1/TestamentProxy.sol\":160:180  address public admin */\n    tag_5:\n      callvalue\n      dup1\n      iszero\n      tag_25\n      jumpi\n      0x00\n      dup1\n      revert\n    tag_25:\n      pop\n      tag_26\n      tag_27\n      jump\t// in\n    tag_26:\n      mload(0x40)\n      tag_28\n      swap2\n      swap1\n      tag_24\n      jump\t// in\n    tag_28:\n      mload(0x40)\n      dup1\n      swap2\n      sub\n      swap1\n      return\n        /* \".deps/studying-solidity/v0.1/TestamentProxy.sol\":365:553  function updateImplementation(address _newImplementation) external {... */\n    tag_19:\n        /* \".deps/studying-solidity/v0.1/TestamentProxy.sol\":465:470  admin */\n      0x01\n      0x00\n      swap1\n      sload\n      swap1\n      0x0100\n      exp\n      swap1\n      div\n      0xffffffffffffffffffffffffffffffffffffffff\n      and\n        /* \".deps/studying-solidity/v0.1/TestamentProxy.sol\":451:470  msg.sender == admin */\n      0xffffffffffffffffffffffffffffffffffffffff\n      and\n        /* \".deps/studying-solidity/v0.1/TestamentProxy.sol\":451:461  msg.sender */\n      caller\n        /* \".deps/studying-solidity/v0.1/TestamentProxy.sol\":451:470  msg.sender == admin */\n      0xffffffffffffffffffffffffffffffffffffffff\n      and\n      eq\n        /* \".deps/studying-solidity/v0.1/TestamentProxy.sol\":443:499  require(msg.sender == admin, \"Somente admin pode mudar\") */\n      tag_30\n      jumpi\n      mload(0x40)\n      0x08c379a000000000000000000000000000000000000000000000000000000000\n      dup2\n      mstore\n      0x04\n      add\n      tag_31\n      swap1\n      tag_32\n      jump\t// in\n    tag_31:\n      mload(0x40)\n      dup1\n      swap2\n      sub\n      swap1\n      revert\n    tag_30:\n        /* \".deps/studying-solidity/v0.1/TestamentProxy.sol\":527:545  _newImplementation */\n      dup1\n        /* \".deps/studying-solidity/v0.1/TestamentProxy.sol\":510:524  implementation */\n      0x00\n      dup1\n        /* \".deps/studying-solidity/v0.1/TestamentProxy.sol\":510:545  implementation = _newImplementation */\n      0x0100\n      exp\n      dup2\n      sload\n      dup2\n      0xffffffffffffffffffffffffffffffffffffffff\n      mul\n      not\n      and\n      swap1\n      dup4\n      0xffffffffffffffffffffffffffffffffffffffff\n      and\n      mul\n      or\n      swap1\n      sstore\n      pop\n        /* \".deps/studying-solidity/v0.1/TestamentProxy.sol\":365:553  function updateImplementation(address _newImplementation) external {... */\n      pop\n      jump\t// out\n        /* \".deps/studying-solidity/v0.1/TestamentProxy.sol\":83:112  address public implementation */\n    tag_22:\n      0x00\n      dup1\n      sload\n      swap1\n      0x0100\n      exp\n      swap1\n      div\n      0xffffffffffffffffffffffffffffffffffffffff\n      and\n      dup2\n      jump\t// out\n        /* \".deps/studying-solidity/v0.1/TestamentProxy.sol\":160:180  address public admin */\n    tag_27:\n      0x01\n      0x00\n      swap1\n      sload\n      swap1\n      0x0100\n      exp\n      swap1\n      div\n      0xffffffffffffffffffffffffffffffffffffffff\n      and\n      dup2\n      jump\t// out\n        /* \"#utility.yul\":7:176   */\n    tag_33:\n        /* \"#utility.yul\":91:102   */\n      0x00\n        /* \"#utility.yul\":125:131   */\n      dup3\n        /* \"#utility.yul\":120:123   */\n      dup3\n        /* \"#utility.yul\":113:132   */\n      mstore\n        /* \"#utility.yul\":165:169   */\n      0x20\n        /* \"#utility.yul\":160:163   */\n      dup3\n        /* \"#utility.yul\":156:170   */\n      add\n        /* \"#utility.yul\":141:170   */\n      swap1\n      pop\n        /* \"#utility.yul\":7:176   */\n      swap3\n      swap2\n      pop\n      pop\n      jump\t// out\n        /* \"#utility.yul\":182:357   */\n    tag_34:\n        /* \"#utility.yul\":322:349   */\n      0x496d706c656d656e746174696f6e206e616f2073657461646100000000000000\n        /* \"#utility.yul\":318:319   */\n      0x00\n        /* \"#utility.yul\":310:316   */\n      dup3\n        /* \"#utility.yul\":306:320   */\n      add\n        /* \"#utility.yul\":299:350   */\n      mstore\n        /* \"#utility.yul\":182:357   */\n      pop\n      jump\t// out\n        /* \"#utility.yul\":363:729   */\n    tag_35:\n        /* \"#utility.yul\":505:508   */\n      0x00\n        /* \"#utility.yul\":526:593   */\n      tag_50\n        /* \"#utility.yul\":590:592   */\n      0x19\n        /* \"#utility.yul\":585:588   */\n      dup4\n        /* \"#utility.yul\":526:593   */\n      tag_33\n      jump\t// in\n    tag_50:\n        /* \"#utility.yul\":519:593   */\n      swap2\n      pop\n        /* \"#utility.yul\":602:695   */\n      tag_51\n        /* \"#utility.yul\":691:694   */\n      dup3\n        /* \"#utility.yul\":602:695   */\n      tag_34\n      jump\t// in\n    tag_51:\n        /* \"#utility.yul\":720:722   */\n      0x20\n        /* \"#utility.yul\":715:718   */\n      dup3\n        /* \"#utility.yul\":711:723   */\n      add\n        /* \"#utility.yul\":704:723   */\n      swap1\n      pop\n        /* \"#utility.yul\":363:729   */\n      swap2\n      swap1\n      pop\n      jump\t// out\n        /* \"#utility.yul\":735:1154   */\n    tag_12:\n        /* \"#utility.yul\":901:905   */\n      0x00\n        /* \"#utility.yul\":939:941   */\n      0x20\n        /* \"#utility.yul\":928:937   */\n      dup3\n        /* \"#utility.yul\":924:942   */\n      add\n        /* \"#utility.yul\":916:942   */\n      swap1\n      pop\n        /* \"#utility.yul\":988:997   */\n      dup2\n        /* \"#utility.yul\":982:986   */\n      dup2\n        /* \"#utility.yul\":978:998   */\n      sub\n        /* \"#utility.yul\":974:975   */\n      0x00\n        /* \"#utility.yul\":963:972   */\n      dup4\n        /* \"#utility.yul\":959:976   */\n      add\n        /* \"#utility.yul\":952:999   */\n      mstore\n        /* \"#utility.yul\":1016:1147   */\n      tag_53\n        /* \"#utility.yul\":1142:1146   */\n      dup2\n        /* \"#utility.yul\":1016:1147   */\n      tag_35\n      jump\t// in\n    tag_53:\n        /* \"#utility.yul\":1008:1147   */\n      swap1\n      pop\n        /* \"#utility.yul\":735:1154   */\n      swap2\n      swap1\n      pop\n      jump\t// out\n        /* \"#utility.yul\":1241:1358   */\n    tag_37:\n        /* \"#utility.yul\":1350:1351   */\n      0x00\n        /* \"#utility.yul\":1347:1348   */\n      dup1\n        /* \"#utility.yul\":1340:1352   */\n      revert\n        /* \"#utility.yul\":1487:1613   */\n    tag_39:\n        /* \"#utility.yul\":1524:1531   */\n      0x00\n        /* \"#utility.yul\":1564:1606   */\n      0xffffffffffffffffffffffffffffffffffffffff\n        /* \"#utility.yul\":1557:1562   */\n      dup3\n        /* \"#utility.yul\":1553:1607   */\n      and\n        /* \"#utility.yul\":1542:1607   */\n      swap1\n      pop\n        /* \"#utility.yul\":1487:1613   */\n      swap2\n      swap1\n      pop\n      jump\t// out\n        /* \"#utility.yul\":1619:1715   */\n    tag_40:\n        /* \"#utility.yul\":1656:1663   */\n      0x00\n        /* \"#utility.yul\":1685:1709   */\n      tag_59\n        /* \"#utility.yul\":1703:1708   */\n      dup3\n        /* \"#utility.yul\":1685:1709   */\n      tag_39\n      jump\t// in\n    tag_59:\n        /* \"#utility.yul\":1674:1709   */\n      swap1\n      pop\n        /* \"#utility.yul\":1619:1715   */\n      swap2\n      swap1\n      pop\n      jump\t// out\n        /* \"#utility.yul\":1721:1843   */\n    tag_41:\n        /* \"#utility.yul\":1794:1818   */\n      tag_61\n        /* \"#utility.yul\":1812:1817   */\n      dup2\n        /* \"#utility.yul\":1794:1818   */\n      tag_40\n      jump\t// in\n    tag_61:\n        /* \"#utility.yul\":1787:1792   */\n      dup2\n        /* \"#utility.yul\":1784:1819   */\n      eq\n        /* \"#utility.yul\":1774:1837   */\n      tag_62\n      jumpi\n        /* \"#utility.yul\":1833:1834   */\n      0x00\n        /* \"#utility.yul\":1830:1831   */\n      dup1\n        /* \"#utility.yul\":1823:1835   */\n      revert\n        /* \"#utility.yul\":1774:1837   */\n    tag_62:\n        /* \"#utility.yul\":1721:1843   */\n      pop\n      jump\t// out\n        /* \"#utility.yul\":1849:1988   */\n    tag_42:\n        /* \"#utility.yul\":1895:1900   */\n      0x00\n        /* \"#utility.yul\":1933:1939   */\n      dup2\n        /* \"#utility.yul\":1920:1940   */\n      calldataload\n        /* \"#utility.yul\":1911:1940   */\n      swap1\n      pop\n        /* \"#utility.yul\":1949:1982   */\n      tag_64\n        /* \"#utility.yul\":1976:1981   */\n      dup2\n        /* \"#utility.yul\":1949:1982   */\n      tag_41\n      jump\t// in\n    tag_64:\n        /* \"#utility.yul\":1849:1988   */\n      swap3\n      swap2\n      pop\n      pop\n      jump\t// out\n        /* \"#utility.yul\":1994:2323   */\n    tag_18:\n        /* \"#utility.yul\":2053:2059   */\n      0x00\n        /* \"#utility.yul\":2102:2104   */\n      0x20\n        /* \"#utility.yul\":2090:2099   */\n      dup3\n        /* \"#utility.yul\":2081:2088   */\n      dup5\n        /* \"#utility.yul\":2077:2100   */\n      sub\n        /* \"#utility.yul\":2073:2105   */\n      slt\n        /* \"#utility.yul\":2070:2189   */\n      iszero\n      tag_66\n      jumpi\n        /* \"#utility.yul\":2108:2187   */\n      tag_67\n      tag_37\n      jump\t// in\n    tag_67:\n        /* \"#utility.yul\":2070:2189   */\n    tag_66:\n        /* \"#utility.yul\":2228:2229   */\n      0x00\n        /* \"#utility.yul\":2253:2306   */\n      tag_68\n        /* \"#utility.yul\":2298:2305   */\n      dup5\n        /* \"#utility.yul\":2289:2295   */\n      dup3\n        /* \"#utility.yul\":2278:2287   */\n      dup6\n        /* \"#utility.yul\":2274:2296   */\n      add\n        /* \"#utility.yul\":2253:2306   */\n      tag_42\n      jump\t// in\n    tag_68:\n        /* \"#utility.yul\":2243:2306   */\n      swap2\n      pop\n        /* \"#utility.yul\":2199:2316   */\n      pop\n        /* \"#utility.yul\":1994:2323   */\n      swap3\n      swap2\n      pop\n      pop\n      jump\t// out\n        /* \"#utility.yul\":2329:2447   */\n    tag_43:\n        /* \"#utility.yul\":2416:2440   */\n      tag_70\n        /* \"#utility.yul\":2434:2439   */\n      dup2\n        /* \"#utility.yul\":2416:2440   */\n      tag_40\n      jump\t// in\n    tag_70:\n        /* \"#utility.yul\":2411:2414   */\n      dup3\n        /* \"#utility.yul\":2404:2441   */\n      mstore\n        /* \"#utility.yul\":2329:2447   */\n      pop\n      pop\n      jump\t// out\n        /* \"#utility.yul\":2453:2675   */\n    tag_24:\n        /* \"#utility.yul\":2546:2550   */\n      0x00\n        /* \"#utility.yul\":2584:2586   */\n      0x20\n        /* \"#utility.yul\":2573:2582   */\n      dup3\n        /* \"#utility.yul\":2569:2587   */\n      add\n        /* \"#utility.yul\":2561:2587   */\n      swap1\n      pop\n        /* \"#utility.yul\":2597:2668   */\n      tag_72\n        /* \"#utility.yul\":2665:2666   */\n      0x00\n        /* \"#utility.yul\":2654:2663   */\n      dup4\n        /* \"#utility.yul\":2650:2667   */\n      add\n        /* \"#utility.yul\":2641:2647   */\n      dup5\n        /* \"#utility.yul\":2597:2668   */\n      tag_43\n      jump\t// in\n    tag_72:\n        /* \"#utility.yul\":2453:2675   */\n      swap3\n      swap2\n      pop\n      pop\n      jump\t// out\n        /* \"#utility.yul\":2681:2855   */\n    tag_44:\n        /* \"#utility.yul\":2821:2847   */\n      0x536f6d656e74652061646d696e20706f6465206d756461720000000000000000\n        /* \"#utility.yul\":2817:2818   */\n      0x00\n        /* \"#utility.yul\":2809:2815   */\n      dup3\n        /* \"#utility.yul\":2805:2819   */\n      add\n        /* \"#utility.yul\":2798:2848   */\n      mstore\n        /* \"#utility.yul\":2681:2855   */\n      pop\n      jump\t// out\n        /* \"#utility.yul\":2861:3227   */\n    tag_45:\n        /* \"#utility.yul\":3003:3006   */\n      0x00\n        /* \"#utility.yul\":3024:3091   */\n      tag_75\n        /* \"#utility.yul\":3088:3090   */\n      0x18\n        /* \"#utility.yul\":3083:3086   */\n      dup4\n        /* \"#utility.yul\":3024:3091   */\n      tag_33\n      jump\t// in\n    tag_75:\n        /* \"#utility.yul\":3017:3091   */\n      swap2\n      pop\n        /* \"#utility.yul\":3100:3193   */\n      tag_76\n        /* \"#utility.yul\":3189:3192   */\n      dup3\n        /* \"#utility.yul\":3100:3193   */\n      tag_44\n      jump\t// in\n    tag_76:\n        /* \"#utility.yul\":3218:3220   */\n      0x20\n        /* \"#utility.yul\":3213:3216   */\n      dup3\n        /* \"#utility.yul\":3209:3221   */\n      add\n        /* \"#utility.yul\":3202:3221   */\n      swap1\n      pop\n        /* \"#utility.yul\":2861:3227   */\n      swap2\n      swap1\n      pop\n      jump\t// out\n        /* \"#utility.yul\":3233:3652   */\n    tag_32:\n        /* \"#utility.yul\":3399:3403   */\n      0x00\n        /* \"#utility.yul\":3437:3439   */\n      0x20\n        /* \"#utility.yul\":3426:3435   */\n      dup3\n        /* \"#utility.yul\":3422:3440   */\n      add\n        /* \"#utility.yul\":3414:3440   */\n      swap1\n      pop\n        /* \"#utility.yul\":3486:3495   */\n      dup2\n        /* \"#utility.yul\":3480:3484   */\n      dup2\n        /* \"#utility.yul\":3476:3496   */\n      sub\n        /* \"#utility.yul\":3472:3473   */\n      0x00\n        /* \"#utility.yul\":3461:3470   */\n      dup4\n        /* \"#utility.yul\":3457:3474   */\n      add\n        /* \"#utility.yul\":3450:3497   */\n      mstore\n        /* \"#utility.yul\":3514:3645   */\n      tag_78\n        /* \"#utility.yul\":3640:3644   */\n      dup2\n        /* \"#utility.yul\":3514:3645   */\n      tag_45\n      jump\t// in\n    tag_78:\n        /* \"#utility.yul\":3506:3645   */\n      swap1\n      pop\n        /* \"#utility.yul\":3233:3652   */\n      swap2\n      swap1\n      pop\n      jump\t// out\n\n    auxdata: 0xa2646970667358221220def40748fc5419e13f0e2f8d4ffafecf431daf38e91069ed2a7faa20cf185bfb64736f6c634300081a0033\n}\n",
				"bytecode": {
					"linkReferences": {},
					"object": "608060405234801561000f575f80fd5b5060405161059738038061059783398181016040528101906100319190610114565b805f806101000a81548173ffffffffffffffffffffffffffffffffffffffff021916908373ffffffffffffffffffffffffffffffffffffffff1602179055503360015f6101000a81548173ffffffffffffffffffffffffffffffffffffffff021916908373ffffffffffffffffffffffffffffffffffffffff1602179055505061013f565b5f80fd5b5f73ffffffffffffffffffffffffffffffffffffffff82169050919050565b5f6100e3826100ba565b9050919050565b6100f3816100d9565b81146100fd575f80fd5b50565b5f8151905061010e816100ea565b92915050565b5f60208284031215610129576101286100b6565b5b5f61013684828501610100565b91505092915050565b61044b8061014c5f395ff3fe608060405260043610610037575f3560e01c8063025b22bc146100ef5780635c60da1b14610117578063f851a440146101415761003e565b3661003e57005b5f805f9054906101000a900473ffffffffffffffffffffffffffffffffffffffff1690505f73ffffffffffffffffffffffffffffffffffffffff168173ffffffffffffffffffffffffffffffffffffffff16036100d0576040517f08c379a00000000000000000000000000000000000000000000000000000000081526004016100c7906102de565b60405180910390fd5b365f80375f80365f845af43d5f803e805f81146100eb573d5ff35b3d5ffd5b3480156100fa575f80fd5b506101156004803603810190610110919061035a565b61016b565b005b348015610122575f80fd5b5061012b61023c565b6040516101389190610394565b60405180910390f35b34801561014c575f80fd5b5061015561025f565b6040516101629190610394565b60405180910390f35b60015f9054906101000a900473ffffffffffffffffffffffffffffffffffffffff1673ffffffffffffffffffffffffffffffffffffffff163373ffffffffffffffffffffffffffffffffffffffff16146101fa576040517f08c379a00000000000000000000000000000000000000000000000000000000081526004016101f1906103f7565b60405180910390fd5b805f806101000a81548173ffffffffffffffffffffffffffffffffffffffff021916908373ffffffffffffffffffffffffffffffffffffffff16021790555050565b5f8054906101000a900473ffffffffffffffffffffffffffffffffffffffff1681565b60015f9054906101000a900473ffffffffffffffffffffffffffffffffffffffff1681565b5f82825260208201905092915050565b7f496d706c656d656e746174696f6e206e616f20736574616461000000000000005f82015250565b5f6102c8601983610284565b91506102d382610294565b602082019050919050565b5f6020820190508181035f8301526102f5816102bc565b9050919050565b5f80fd5b5f73ffffffffffffffffffffffffffffffffffffffff82169050919050565b5f61032982610300565b9050919050565b6103398161031f565b8114610343575f80fd5b50565b5f8135905061035481610330565b92915050565b5f6020828403121561036f5761036e6102fc565b5b5f61037c84828501610346565b91505092915050565b61038e8161031f565b82525050565b5f6020820190506103a75f830184610385565b92915050565b7f536f6d656e74652061646d696e20706f6465206d7564617200000000000000005f82015250565b5f6103e1601883610284565b91506103ec826103ad565b602082019050919050565b5f6020820190508181035f83015261040e816103d5565b905091905056fea2646970667358221220def40748fc5419e13f0e2f8d4ffafecf431daf38e91069ed2a7faa20cf185bfb64736f6c634300081a0033",
					"opcodes": "PUSH1 0x80 PUSH1 0x40 MSTORE CALLVALUE DUP1 ISZERO PUSH2 0xF JUMPI PUSH0 DUP1 REVERT JUMPDEST POP PUSH1 0x40 MLOAD PUSH2 0x597 CODESIZE SUB DUP1 PUSH2 0x597 DUP4 CODECOPY DUP2 DUP2 ADD PUSH1 0x40 MSTORE DUP2 ADD SWAP1 PUSH2 0x31 SWAP2 SWAP1 PUSH2 0x114 JUMP JUMPDEST DUP1 PUSH0 DUP1 PUSH2 0x100 EXP DUP2 SLOAD DUP2 PUSH20 0xFFFFFFFFFFFFFFFFFFFFFFFFFFFFFFFFFFFFFFFF MUL NOT AND SWAP1 DUP4 PUSH20 0xFFFFFFFFFFFFFFFFFFFFFFFFFFFFFFFFFFFFFFFF AND MUL OR SWAP1 SSTORE POP CALLER PUSH1 0x1 PUSH0 PUSH2 0x100 EXP DUP2 SLOAD DUP2 PUSH20 0xFFFFFFFFFFFFFFFFFFFFFFFFFFFFFFFFFFFFFFFF MUL NOT AND SWAP1 DUP4 PUSH20 0xFFFFFFFFFFFFFFFFFFFFFFFFFFFFFFFFFFFFFFFF AND MUL OR SWAP1 SSTORE POP POP PUSH2 0x13F JUMP JUMPDEST PUSH0 DUP1 REVERT JUMPDEST PUSH0 PUSH20 0xFFFFFFFFFFFFFFFFFFFFFFFFFFFFFFFFFFFFFFFF DUP3 AND SWAP1 POP SWAP2 SWAP1 POP JUMP JUMPDEST PUSH0 PUSH2 0xE3 DUP3 PUSH2 0xBA JUMP JUMPDEST SWAP1 POP SWAP2 SWAP1 POP JUMP JUMPDEST PUSH2 0xF3 DUP2 PUSH2 0xD9 JUMP JUMPDEST DUP2 EQ PUSH2 0xFD JUMPI PUSH0 DUP1 REVERT JUMPDEST POP JUMP JUMPDEST PUSH0 DUP2 MLOAD SWAP1 POP PUSH2 0x10E DUP2 PUSH2 0xEA JUMP JUMPDEST SWAP3 SWAP2 POP POP JUMP JUMPDEST PUSH0 PUSH1 0x20 DUP3 DUP5 SUB SLT ISZERO PUSH2 0x129 JUMPI PUSH2 0x128 PUSH2 0xB6 JUMP JUMPDEST JUMPDEST PUSH0 PUSH2 0x136 DUP5 DUP3 DUP6 ADD PUSH2 0x100 JUMP JUMPDEST SWAP2 POP POP SWAP3 SWAP2 POP POP JUMP JUMPDEST PUSH2 0x44B DUP1 PUSH2 0x14C PUSH0 CODECOPY PUSH0 RETURN INVALID PUSH1 0x80 PUSH1 0x40 MSTORE PUSH1 0x4 CALLDATASIZE LT PUSH2 0x37 JUMPI PUSH0 CALLDATALOAD PUSH1 0xE0 SHR DUP1 PUSH4 0x25B22BC EQ PUSH2 0xEF JUMPI DUP1 PUSH4 0x5C60DA1B EQ PUSH2 0x117 JUMPI DUP1 PUSH4 0xF851A440 EQ PUSH2 0x141 JUMPI PUSH2 0x3E JUMP JUMPDEST CALLDATASIZE PUSH2 0x3E JUMPI STOP JUMPDEST PUSH0 DUP1 PUSH0 SWAP1 SLOAD SWAP1 PUSH2 0x100 EXP SWAP1 DIV PUSH20 0xFFFFFFFFFFFFFFFFFFFFFFFFFFFFFFFFFFFFFFFF AND SWAP1 POP PUSH0 PUSH20 0xFFFFFFFFFFFFFFFFFFFFFFFFFFFFFFFFFFFFFFFF AND DUP2 PUSH20 0xFFFFFFFFFFFFFFFFFFFFFFFFFFFFFFFFFFFFFFFF AND SUB PUSH2 0xD0 JUMPI PUSH1 0x40 MLOAD PUSH32 0x8C379A000000000000000000000000000000000000000000000000000000000 DUP2 MSTORE PUSH1 0x4 ADD PUSH2 0xC7 SWAP1 PUSH2 0x2DE JUMP JUMPDEST PUSH1 0x40 MLOAD DUP1 SWAP2 SUB SWAP1 REVERT JUMPDEST CALLDATASIZE PUSH0 DUP1 CALLDATACOPY PUSH0 DUP1 CALLDATASIZE PUSH0 DUP5 GAS DELEGATECALL RETURNDATASIZE PUSH0 DUP1 RETURNDATACOPY DUP1 PUSH0 DUP2 EQ PUSH2 0xEB JUMPI RETURNDATASIZE PUSH0 RETURN JUMPDEST RETURNDATASIZE PUSH0 REVERT JUMPDEST CALLVALUE DUP1 ISZERO PUSH2 0xFA JUMPI PUSH0 DUP1 REVERT JUMPDEST POP PUSH2 0x115 PUSH1 0x4 DUP1 CALLDATASIZE SUB DUP2 ADD SWAP1 PUSH2 0x110 SWAP2 SWAP1 PUSH2 0x35A JUMP JUMPDEST PUSH2 0x16B JUMP JUMPDEST STOP JUMPDEST CALLVALUE DUP1 ISZERO PUSH2 0x122 JUMPI PUSH0 DUP1 REVERT JUMPDEST POP PUSH2 0x12B PUSH2 0x23C JUMP JUMPDEST PUSH1 0x40 MLOAD PUSH2 0x138 SWAP2 SWAP1 PUSH2 0x394 JUMP JUMPDEST PUSH1 0x40 MLOAD DUP1 SWAP2 SUB SWAP1 RETURN JUMPDEST CALLVALUE DUP1 ISZERO PUSH2 0x14C JUMPI PUSH0 DUP1 REVERT JUMPDEST POP PUSH2 0x155 PUSH2 0x25F JUMP JUMPDEST PUSH1 0x40 MLOAD PUSH2 0x162 SWAP2 SWAP1 PUSH2 0x394 JUMP JUMPDEST PUSH1 0x40 MLOAD DUP1 SWAP2 SUB SWAP1 RETURN JUMPDEST PUSH1 0x1 PUSH0 SWAP1 SLOAD SWAP1 PUSH2 0x100 EXP SWAP1 DIV PUSH20 0xFFFFFFFFFFFFFFFFFFFFFFFFFFFFFFFFFFFFFFFF AND PUSH20 0xFFFFFFFFFFFFFFFFFFFFFFFFFFFFFFFFFFFFFFFF AND CALLER PUSH20 0xFFFFFFFFFFFFFFFFFFFFFFFFFFFFFFFFFFFFFFFF AND EQ PUSH2 0x1FA JUMPI PUSH1 0x40 MLOAD PUSH32 0x8C379A000000000000000000000000000000000000000000000000000000000 DUP2 MSTORE PUSH1 0x4 ADD PUSH2 0x1F1 SWAP1 PUSH2 0x3F7 JUMP JUMPDEST PUSH1 0x40 MLOAD DUP1 SWAP2 SUB SWAP1 REVERT JUMPDEST DUP1 PUSH0 DUP1 PUSH2 0x100 EXP DUP2 SLOAD DUP2 PUSH20 0xFFFFFFFFFFFFFFFFFFFFFFFFFFFFFFFFFFFFFFFF MUL NOT AND SWAP1 DUP4 PUSH20 0xFFFFFFFFFFFFFFFFFFFFFFFFFFFFFFFFFFFFFFFF AND MUL OR SWAP1 SSTORE POP POP JUMP JUMPDEST PUSH0 DUP1 SLOAD SWAP1 PUSH2 0x100 EXP SWAP1 DIV PUSH20 0xFFFFFFFFFFFFFFFFFFFFFFFFFFFFFFFFFFFFFFFF AND DUP2 JUMP JUMPDEST PUSH1 0x1 PUSH0 SWAP1 SLOAD SWAP1 PUSH2 0x100 EXP SWAP1 DIV PUSH20 0xFFFFFFFFFFFFFFFFFFFFFFFFFFFFFFFFFFFFFFFF AND DUP2 JUMP JUMPDEST PUSH0 DUP3 DUP3 MSTORE PUSH1 0x20 DUP3 ADD SWAP1 POP SWAP3 SWAP2 POP POP JUMP JUMPDEST PUSH32 0x496D706C656D656E746174696F6E206E616F2073657461646100000000000000 PUSH0 DUP3 ADD MSTORE POP JUMP JUMPDEST PUSH0 PUSH2 0x2C8 PUSH1 0x19 DUP4 PUSH2 0x284 JUMP JUMPDEST SWAP2 POP PUSH2 0x2D3 DUP3 PUSH2 0x294 JUMP JUMPDEST PUSH1 0x20 DUP3 ADD SWAP1 POP SWAP2 SWAP1 POP JUMP JUMPDEST PUSH0 PUSH1 0x20 DUP3 ADD SWAP1 POP DUP2 DUP2 SUB PUSH0 DUP4 ADD MSTORE PUSH2 0x2F5 DUP2 PUSH2 0x2BC JUMP JUMPDEST SWAP1 POP SWAP2 SWAP1 POP JUMP JUMPDEST PUSH0 DUP1 REVERT JUMPDEST PUSH0 PUSH20 0xFFFFFFFFFFFFFFFFFFFFFFFFFFFFFFFFFFFFFFFF DUP3 AND SWAP1 POP SWAP2 SWAP1 POP JUMP JUMPDEST PUSH0 PUSH2 0x329 DUP3 PUSH2 0x300 JUMP JUMPDEST SWAP1 POP SWAP2 SWAP1 POP JUMP JUMPDEST PUSH2 0x339 DUP2 PUSH2 0x31F JUMP JUMPDEST DUP2 EQ PUSH2 0x343 JUMPI PUSH0 DUP1 REVERT JUMPDEST POP JUMP JUMPDEST PUSH0 DUP2 CALLDATALOAD SWAP1 POP PUSH2 0x354 DUP2 PUSH2 0x330 JUMP JUMPDEST SWAP3 SWAP2 POP POP JUMP JUMPDEST PUSH0 PUSH1 0x20 DUP3 DUP5 SUB SLT ISZERO PUSH2 0x36F JUMPI PUSH2 0x36E PUSH2 0x2FC JUMP JUMPDEST JUMPDEST PUSH0 PUSH2 0x37C DUP5 DUP3 DUP6 ADD PUSH2 0x346 JUMP JUMPDEST SWAP2 POP POP SWAP3 SWAP2 POP POP JUMP JUMPDEST PUSH2 0x38E DUP2 PUSH2 0x31F JUMP JUMPDEST DUP3 MSTORE POP POP JUMP JUMPDEST PUSH0 PUSH1 0x20 DUP3 ADD SWAP1 POP PUSH2 0x3A7 PUSH0 DUP4 ADD DUP5 PUSH2 0x385 JUMP JUMPDEST SWAP3 SWAP2 POP POP JUMP JUMPDEST PUSH32 0x536F6D656E74652061646D696E20706F6465206D756461720000000000000000 PUSH0 DUP3 ADD MSTORE POP JUMP JUMPDEST PUSH0 PUSH2 0x3E1 PUSH1 0x18 DUP4 PUSH2 0x284 JUMP JUMPDEST SWAP2 POP PUSH2 0x3EC DUP3 PUSH2 0x3AD JUMP JUMPDEST PUSH1 0x20 DUP3 ADD SWAP1 POP SWAP2 SWAP1 POP JUMP JUMPDEST PUSH0 PUSH1 0x20 DUP3 ADD SWAP1 POP DUP2 DUP2 SUB PUSH0 DUP4 ADD MSTORE PUSH2 0x40E DUP2 PUSH2 0x3D5 JUMP JUMPDEST SWAP1 POP SWAP2 SWAP1 POP JUMP INVALID LOG2 PUSH5 0x6970667358 0x22 SLT KECCAK256 0xDE DELEGATECALL SMOD BASEFEE 0xFC SLOAD NOT 0xE1 EXTCODEHASH 0xE 0x2F DUP14 0x4F STATICCALL INVALID 0xCF NUMBER SAR 0xAF CODESIZE 0xE9 LT PUSH10 0xED2A7FAA20CF185BFB64 PUSH20 0x6F6C634300081A00330000000000000000000000 "
				},
				"gasEstimates": {
					"creation": {
						"codeDepositCost": "219800",
						"executionCost": "infinite",
						"totalCost": "infinite"
					},
					"external": {
						"": "infinite",
						"admin()": "2530",
						"implementation()": "2505",
						"updateImplementation(address)": "26862"
					}
				},
				"methodIdentifiers": {
					"admin()": "f851a440",
					"implementation()": "5c60da1b",
					"updateImplementation(address)": "025b22bc"
				}
			},
			"storageLayout": {
				"storage": [
					{
						"astId": 3,
						"contract": ".deps/studying-solidity/v0.1/TestamentProxy.sol:Proxy",
						"label": "implementation",
						"offset": 0,
						"slot": "0",
						"type": "t_address"
					},
					{
						"astId": 5,
						"contract": ".deps/studying-solidity/v0.1/TestamentProxy.sol:Proxy",
						"label": "admin",
						"offset": 0,
						"slot": "1",
						"type": "t_address"
					}
				],
				"types": {
					"t_address": {
						"encoding": "inplace",
						"label": "address",
						"numberOfBytes": "20"
					}
				}
			},
			"userdoc": {
				"kind": "user",
				"methods": {},
				"version": 1
			}
		}
	}
}