{
	".deps/studying-solidity/v0.1/TestamentCore.sol": {
		"TestamentCore": {
			"abi": [
				{
					"inputs": [],
					"name": "cancelTestament",
					"outputs": [],
					"stateMutability": "nonpayable",
					"type": "function"
				},
				{
					"inputs": [
						{
							"internalType": "address[]",
							"name": "_addresses",
							"type": "address[]"
						},
						{
							"internalType": "uint16[]",
							"name": "_percentagens",
							"type": "uint16[]"
						}
					],
					"name": "createInheritance",
					"outputs": [],
					"stateMutability": "payable",
					"type": "function"
				},
				{
					"inputs": [],
					"name": "editInheritorsInMyTestament",
					"outputs": [],
					"stateMutability": "nonpayable",
					"type": "function"
				},
				{
					"inputs": [
						{
							"internalType": "address",
							"name": "",
							"type": "address"
						},
						{
							"internalType": "uint256",
							"name": "",
							"type": "uint256"
						}
					],
					"name": "inheritorToTestators",
					"outputs": [
						{
							"internalType": "address",
							"name": "",
							"type": "address"
						}
					],
					"stateMutability": "view",
					"type": "function"
				},
				{
					"inputs": [
						{
							"internalType": "address",
							"name": "",
							"type": "address"
						}
					],
					"name": "testaments",
					"outputs": [
						{
							"internalType": "bool",
							"name": "exist",
							"type": "bool"
						},
						{
							"internalType": "uint128",
							"name": "lastProofOfLife",
							"type": "uint128"
						},
						{
							"internalType": "uint256",
							"name": "inheritanceTotalValue",
							"type": "uint256"
						}
					],
					"stateMutability": "view",
					"type": "function"
				}
			],
			"devdoc": {
				"kind": "dev",
				"methods": {},
				"version": 1
			},
			"evm": {
				"assembly": "    /* \".deps/studying-solidity/v0.1/TestamentCore.sol\":156:1902  contract TestamentCore is TestamentStorage, ProofOfLife, BaseModifiers {... */\n  mstore(0x40, 0x80)\n  callvalue\n  dup1\n  iszero\n  tag_1\n  jumpi\n  0x00\n  dup1\n  revert\ntag_1:\n  pop\n  dataSize(sub_0)\n  dup1\n  dataOffset(sub_0)\n  0x00\n  codecopy\n  0x00\n  return\nstop\n\nsub_0: assembly {\n        /* \".deps/studying-solidity/v0.1/TestamentCore.sol\":156:1902  contract TestamentCore is TestamentStorage, ProofOfLife, BaseModifiers {... */\n      mstore(0x40, 0x80)\n      jumpi(tag_1, lt(calldatasize, 0x04))\n      shr(0xe0, calldataload(0x00))\n      dup1\n      0x1aba6da6\n      eq\n      tag_2\n      jumpi\n      dup1\n      0x1acb49b4\n      eq\n      tag_3\n      jumpi\n      dup1\n      0x5b084db9\n      eq\n      tag_4\n      jumpi\n      dup1\n      0x67892597\n      eq\n      tag_5\n      jumpi\n      dup1\n      0xe7a84bc3\n      eq\n      tag_6\n      jumpi\n    tag_1:\n      0x00\n      dup1\n      revert\n        /* \".deps/studying-solidity/v0.1/TestamentCore.sol\":1823:1899  function cancelTestament() external {... */\n    tag_2:\n      callvalue\n      dup1\n      iszero\n      tag_7\n      jumpi\n      0x00\n      dup1\n      revert\n    tag_7:\n      pop\n      tag_8\n      tag_9\n      jump\t// in\n    tag_8:\n      stop\n        /* \".deps/studying-solidity/v0.1/TestamentStorage.sol\":457:504  mapping(address => Testament) public testaments */\n    tag_3:\n      callvalue\n      dup1\n      iszero\n      tag_10\n      jumpi\n      0x00\n      dup1\n      revert\n    tag_10:\n      pop\n      tag_11\n      0x04\n      dup1\n      calldatasize\n      sub\n      dup2\n      add\n      swap1\n      tag_12\n      swap2\n      swap1\n      tag_13\n      jump\t// in\n    tag_12:\n      tag_14\n      jump\t// in\n    tag_11:\n      mload(0x40)\n      tag_15\n      swap4\n      swap3\n      swap2\n      swap1\n      tag_16\n      jump\t// in\n    tag_15:\n      mload(0x40)\n      dup1\n      swap2\n      sub\n      swap1\n      return\n        /* \".deps/studying-solidity/v0.1/TestamentStorage.sol\":581:638  mapping(address => address[]) public inheritorToTestators */\n    tag_4:\n      callvalue\n      dup1\n      iszero\n      tag_17\n      jumpi\n      0x00\n      dup1\n      revert\n    tag_17:\n      pop\n      tag_18\n      0x04\n      dup1\n      calldatasize\n      sub\n      dup2\n      add\n      swap1\n      tag_19\n      swap2\n      swap1\n      tag_20\n      jump\t// in\n    tag_19:\n      tag_21\n      jump\t// in\n    tag_18:\n      mload(0x40)\n      tag_22\n      swap2\n      swap1\n      tag_23\n      jump\t// in\n    tag_22:\n      mload(0x40)\n      dup1\n      swap2\n      sub\n      swap1\n      return\n        /* \".deps/studying-solidity/v0.1/TestamentCore.sol\":1730:1815  function editInheritorsInMyTestament() external {... */\n    tag_5:\n      callvalue\n      dup1\n      iszero\n      tag_24\n      jumpi\n      0x00\n      dup1\n      revert\n    tag_24:\n      pop\n      tag_25\n      tag_26\n      jump\t// in\n    tag_25:\n      stop\n        /* \".deps/studying-solidity/v0.1/TestamentCore.sol\":236:1722  function createInheritance(address[] calldata _addresses,... */\n    tag_6:\n      tag_27\n      0x04\n      dup1\n      calldatasize\n      sub\n      dup2\n      add\n      swap1\n      tag_28\n      swap2\n      swap1\n      tag_29\n      jump\t// in\n    tag_28:\n      tag_30\n      jump\t// in\n    tag_27:\n      stop\n        /* \".deps/studying-solidity/v0.1/TestamentCore.sol\":1823:1899  function cancelTestament() external {... */\n    tag_9:\n      jump\t// out\n        /* \".deps/studying-solidity/v0.1/TestamentStorage.sol\":457:504  mapping(address => Testament) public testaments */\n    tag_14:\n      mstore(0x20, 0x00)\n      dup1\n      0x00\n      mstore\n      keccak256(0x00, 0x40)\n      0x00\n      swap2\n      pop\n      swap1\n      pop\n      dup1\n      0x01\n      add\n      0x00\n      swap1\n      sload\n      swap1\n      0x0100\n      exp\n      swap1\n      div\n      0xff\n      and\n      swap1\n      dup1\n      0x01\n      add\n      0x01\n      swap1\n      sload\n      swap1\n      0x0100\n      exp\n      swap1\n      div\n      0xffffffffffffffffffffffffffffffff\n      and\n      swap1\n      dup1\n      0x02\n      add\n      sload\n      swap1\n      pop\n      dup4\n      jump\t// out\n        /* \".deps/studying-solidity/v0.1/TestamentStorage.sol\":581:638  mapping(address => address[]) public inheritorToTestators */\n    tag_21:\n      mstore(0x20, 0x01)\n      dup2\n      0x00\n      mstore\n      keccak256(0x00, 0x40)\n      dup2\n      dup2\n      sload\n      dup2\n      lt\n      tag_32\n      jumpi\n      0x00\n      dup1\n      revert\n    tag_32:\n      swap1\n      0x00\n      mstore\n      keccak256(0x00, 0x20)\n      add\n      0x00\n      swap2\n      pop\n      swap2\n      pop\n      swap1\n      sload\n      swap1\n      0x0100\n      exp\n      swap1\n      div\n      0xffffffffffffffffffffffffffffffffffffffff\n      and\n      dup2\n      jump\t// out\n        /* \".deps/studying-solidity/v0.1/TestamentCore.sol\":1730:1815  function editInheritorsInMyTestament() external {... */\n    tag_26:\n      jump\t// out\n        /* \".deps/studying-solidity/v0.1/TestamentCore.sol\":236:1722  function createInheritance(address[] calldata _addresses,... */\n    tag_30:\n        /* \".deps/studying-solidity/v0.1/TestamentCore.sol\":432:433  0 */\n      0x00\n        /* \".deps/studying-solidity/v0.1/TestamentCore.sol\":419:428  msg.value */\n      callvalue\n        /* \".deps/studying-solidity/v0.1/TestamentCore.sol\":419:433  msg.value != 0 */\n      sub\n        /* \".deps/studying-solidity/v0.1/TestamentCore.sol\":411:473  require(msg.value != 0, \"createInheritance(), valor invalido\") */\n      tag_36\n      jumpi\n      mload(0x40)\n      0x08c379a000000000000000000000000000000000000000000000000000000000\n      dup2\n      mstore\n      0x04\n      add\n      tag_37\n      swap1\n      tag_38\n      jump\t// in\n    tag_37:\n      mload(0x40)\n      dup1\n      swap2\n      sub\n      swap1\n      revert\n    tag_36:\n        /* \".deps/studying-solidity/v0.1/TestamentCore.sol\":527:528  0 */\n      0x00\n        /* \".deps/studying-solidity/v0.1/TestamentCore.sol\":506:516  _addresses */\n      dup5\n      dup5\n        /* \".deps/studying-solidity/v0.1/TestamentCore.sol\":506:523  _addresses.length */\n      swap1\n      pop\n        /* \".deps/studying-solidity/v0.1/TestamentCore.sol\":506:528  _addresses.length != 0 */\n      sub\n        /* \".deps/studying-solidity/v0.1/TestamentCore.sol\":484:598  require(... */\n      tag_39\n      jumpi\n      mload(0x40)\n      0x08c379a000000000000000000000000000000000000000000000000000000000\n      dup2\n      mstore\n      0x04\n      add\n      tag_40\n      swap1\n      tag_41\n      jump\t// in\n    tag_40:\n      mload(0x40)\n      dup1\n      swap2\n      sub\n      swap1\n      revert\n    tag_39:\n        /* \".deps/studying-solidity/v0.1/TestamentCore.sol\":652:665  _percentagens */\n      dup2\n      dup2\n        /* \".deps/studying-solidity/v0.1/TestamentCore.sol\":652:672  _percentagens.length */\n      swap1\n      pop\n        /* \".deps/studying-solidity/v0.1/TestamentCore.sol\":631:641  _addresses */\n      dup5\n      dup5\n        /* \".deps/studying-solidity/v0.1/TestamentCore.sol\":631:648  _addresses.length */\n      swap1\n      pop\n        /* \".deps/studying-solidity/v0.1/TestamentCore.sol\":631:672  _addresses.length == _percentagens.length */\n      eq\n        /* \".deps/studying-solidity/v0.1/TestamentCore.sol\":609:770  require(... */\n      tag_42\n      jumpi\n      mload(0x40)\n      0x08c379a000000000000000000000000000000000000000000000000000000000\n      dup2\n      mstore\n      0x04\n      add\n      tag_43\n      swap1\n      tag_44\n      jump\t// in\n    tag_43:\n      mload(0x40)\n      dup1\n      swap2\n      sub\n      swap1\n      revert\n    tag_42:\n        /* \".deps/studying-solidity/v0.1/TestamentCore.sol\":781:804  address _ownOfTestament */\n      0x00\n        /* \".deps/studying-solidity/v0.1/TestamentCore.sol\":807:817  msg.sender */\n      caller\n        /* \".deps/studying-solidity/v0.1/TestamentCore.sol\":781:817  address _ownOfTestament = msg.sender */\n      swap1\n      pop\n        /* \".deps/studying-solidity/v0.1/TestamentCore.sol\":853:863  testaments */\n      0x00\n        /* \".deps/studying-solidity/v0.1/TestamentCore.sol\":853:880  testaments[_ownOfTestament] */\n      dup1\n        /* \".deps/studying-solidity/v0.1/TestamentCore.sol\":864:879  _ownOfTestament */\n      dup3\n        /* \".deps/studying-solidity/v0.1/TestamentCore.sol\":853:880  testaments[_ownOfTestament] */\n      0xffffffffffffffffffffffffffffffffffffffff\n      and\n      0xffffffffffffffffffffffffffffffffffffffff\n      and\n      dup2\n      mstore\n      0x20\n      add\n      swap1\n      dup2\n      mstore\n      0x20\n      add\n      0x00\n      keccak256\n        /* \".deps/studying-solidity/v0.1/TestamentCore.sol\":853:886  testaments[_ownOfTestament].exist */\n      0x01\n      add\n      0x00\n      swap1\n      sload\n      swap1\n      0x0100\n      exp\n      swap1\n      div\n      0xff\n      and\n        /* \".deps/studying-solidity/v0.1/TestamentCore.sol\":852:886  !testaments[_ownOfTestament].exist */\n      iszero\n        /* \".deps/studying-solidity/v0.1/TestamentCore.sol\":830:978  require(... */\n      tag_45\n      jumpi\n      mload(0x40)\n      0x08c379a000000000000000000000000000000000000000000000000000000000\n      dup2\n      mstore\n      0x04\n      add\n      tag_46\n      swap1\n      tag_47\n      jump\t// in\n    tag_46:\n      mload(0x40)\n      dup1\n      swap2\n      sub\n      swap1\n      revert\n    tag_45:\n        /* \".deps/studying-solidity/v0.1/TestamentCore.sol\":991:1019  Testament storage _testament */\n      0x00\n        /* \".deps/studying-solidity/v0.1/TestamentCore.sol\":1022:1032  testaments */\n      dup1\n        /* \".deps/studying-solidity/v0.1/TestamentCore.sol\":1022:1049  testaments[_ownOfTestament] */\n      0x00\n        /* \".deps/studying-solidity/v0.1/TestamentCore.sol\":1033:1048  _ownOfTestament */\n      dup4\n        /* \".deps/studying-solidity/v0.1/TestamentCore.sol\":1022:1049  testaments[_ownOfTestament] */\n      0xffffffffffffffffffffffffffffffffffffffff\n      and\n      0xffffffffffffffffffffffffffffffffffffffff\n      and\n      dup2\n      mstore\n      0x20\n      add\n      swap1\n      dup2\n      mstore\n      0x20\n      add\n      0x00\n      keccak256\n        /* \".deps/studying-solidity/v0.1/TestamentCore.sol\":991:1049  Testament storage _testament = testaments[_ownOfTestament] */\n      swap1\n      pop\n        /* \".deps/studying-solidity/v0.1/TestamentCore.sol\":1129:1138  uint256 i */\n      0x00\n        /* \".deps/studying-solidity/v0.1/TestamentCore.sol\":1124:1594  for (uint256 i = 0; i < _addresses.length; i++) {... */\n    tag_48:\n        /* \".deps/studying-solidity/v0.1/TestamentCore.sol\":1148:1158  _addresses */\n      dup7\n      dup7\n        /* \".deps/studying-solidity/v0.1/TestamentCore.sol\":1148:1165  _addresses.length */\n      swap1\n      pop\n        /* \".deps/studying-solidity/v0.1/TestamentCore.sol\":1144:1145  i */\n      dup2\n        /* \".deps/studying-solidity/v0.1/TestamentCore.sol\":1144:1165  i < _addresses.length */\n      lt\n        /* \".deps/studying-solidity/v0.1/TestamentCore.sol\":1124:1594  for (uint256 i = 0; i < _addresses.length; i++) {... */\n      iszero\n      tag_49\n      jumpi\n        /* \".deps/studying-solidity/v0.1/TestamentCore.sol\":1187:1214  Inheritor memory _inheritor */\n      0x00\n        /* \".deps/studying-solidity/v0.1/TestamentCore.sol\":1217:1331  Inheritor(... */\n      mload(0x40)\n      dup1\n      0x60\n      add\n      0x40\n      mstore\n      dup1\n        /* \".deps/studying-solidity/v0.1/TestamentCore.sol\":1245:1255  _addresses */\n      dup10\n      dup10\n        /* \".deps/studying-solidity/v0.1/TestamentCore.sol\":1256:1257  i */\n      dup6\n        /* \".deps/studying-solidity/v0.1/TestamentCore.sol\":1245:1258  _addresses[i] */\n      dup2\n      dup2\n      lt\n      tag_51\n      jumpi\n      tag_52\n      tag_53\n      jump\t// in\n    tag_52:\n    tag_51:\n      swap1\n      pop\n      0x20\n      mul\n      add\n      0x20\n      dup2\n      add\n      swap1\n      tag_54\n      swap2\n      swap1\n      tag_13\n      jump\t// in\n    tag_54:\n        /* \".deps/studying-solidity/v0.1/TestamentCore.sol\":1217:1331  Inheritor(... */\n      0xffffffffffffffffffffffffffffffffffffffff\n      and\n      dup2\n      mstore\n      0x20\n      add\n        /* \".deps/studying-solidity/v0.1/TestamentCore.sol\":1277:1290  _percentagens */\n      dup8\n      dup8\n        /* \".deps/studying-solidity/v0.1/TestamentCore.sol\":1291:1292  i */\n      dup6\n        /* \".deps/studying-solidity/v0.1/TestamentCore.sol\":1277:1293  _percentagens[i] */\n      dup2\n      dup2\n      lt\n      tag_55\n      jumpi\n      tag_56\n      tag_53\n      jump\t// in\n    tag_56:\n    tag_55:\n      swap1\n      pop\n      0x20\n      mul\n      add\n      0x20\n      dup2\n      add\n      swap1\n      tag_57\n      swap2\n      swap1\n      tag_58\n      jump\t// in\n    tag_57:\n        /* \".deps/studying-solidity/v0.1/TestamentCore.sol\":1217:1331  Inheritor(... */\n      0xffff\n      and\n      dup2\n      mstore\n      0x20\n      add\n        /* \".deps/studying-solidity/v0.1/TestamentCore.sol\":1312:1316  true */\n      0x01\n        /* \".deps/studying-solidity/v0.1/TestamentCore.sol\":1217:1331  Inheritor(... */\n      iszero\n      iszero\n      dup2\n      mstore\n      pop\n        /* \".deps/studying-solidity/v0.1/TestamentCore.sol\":1187:1331  Inheritor memory _inheritor = Inheritor(... */\n      swap1\n      pop\n        /* \".deps/studying-solidity/v0.1/TestamentCore.sol\":1417:1437  inheritorToTestators */\n      0x01\n        /* \".deps/studying-solidity/v0.1/TestamentCore.sol\":1417:1452  inheritorToTestators[_addresses[i]] */\n      0x00\n        /* \".deps/studying-solidity/v0.1/TestamentCore.sol\":1438:1448  _addresses */\n      dup10\n      dup10\n        /* \".deps/studying-solidity/v0.1/TestamentCore.sol\":1449:1450  i */\n      dup6\n        /* \".deps/studying-solidity/v0.1/TestamentCore.sol\":1438:1451  _addresses[i] */\n      dup2\n      dup2\n      lt\n      tag_59\n      jumpi\n      tag_60\n      tag_53\n      jump\t// in\n    tag_60:\n    tag_59:\n      swap1\n      pop\n      0x20\n      mul\n      add\n      0x20\n      dup2\n      add\n      swap1\n      tag_61\n      swap2\n      swap1\n      tag_13\n      jump\t// in\n    tag_61:\n        /* \".deps/studying-solidity/v0.1/TestamentCore.sol\":1417:1452  inheritorToTestators[_addresses[i]] */\n      0xffffffffffffffffffffffffffffffffffffffff\n      and\n      0xffffffffffffffffffffffffffffffffffffffff\n      and\n      dup2\n      mstore\n      0x20\n      add\n      swap1\n      dup2\n      mstore\n      0x20\n      add\n      0x00\n      keccak256\n        /* \".deps/studying-solidity/v0.1/TestamentCore.sol\":1458:1473  _ownOfTestament */\n      dup5\n        /* \".deps/studying-solidity/v0.1/TestamentCore.sol\":1417:1474  inheritorToTestators[_addresses[i]].push(_ownOfTestament) */\n      swap1\n      dup1\n      0x01\n      dup2\n      sload\n      add\n      dup1\n      dup3\n      sstore\n      dup1\n      swap2\n      pop\n      pop\n      0x01\n      swap1\n      sub\n      swap1\n      0x00\n      mstore\n      keccak256(0x00, 0x20)\n      add\n      0x00\n      swap1\n      swap2\n      swap1\n      swap2\n      swap1\n      swap2\n      0x0100\n      exp\n      dup2\n      sload\n      dup2\n      0xffffffffffffffffffffffffffffffffffffffff\n      mul\n      not\n      and\n      swap1\n      dup4\n      0xffffffffffffffffffffffffffffffffffffffff\n      and\n      mul\n      or\n      swap1\n      sstore\n      pop\n        /* \".deps/studying-solidity/v0.1/TestamentCore.sol\":1544:1554  _testament */\n      dup3\n        /* \".deps/studying-solidity/v0.1/TestamentCore.sol\":1544:1565  _testament.inheritors */\n      0x00\n      add\n        /* \".deps/studying-solidity/v0.1/TestamentCore.sol\":1571:1581  _inheritor */\n      dup2\n        /* \".deps/studying-solidity/v0.1/TestamentCore.sol\":1544:1582  _testament.inheritors.push(_inheritor) */\n      swap1\n      dup1\n      0x01\n      dup2\n      sload\n      add\n      dup1\n      dup3\n      sstore\n      dup1\n      swap2\n      pop\n      pop\n      0x01\n      swap1\n      sub\n      swap1\n      0x00\n      mstore\n      keccak256(0x00, 0x20)\n      add\n      0x00\n      swap1\n      swap2\n      swap1\n      swap2\n      swap1\n      swap2\n      pop\n      0x00\n      dup3\n      add\n      mload\n      dup2\n      0x00\n      add\n      exp(0x0100, 0x00)\n      dup2\n      sload\n      dup2\n      0xffffffffffffffffffffffffffffffffffffffff\n      mul\n      not\n      and\n      swap1\n      dup4\n      0xffffffffffffffffffffffffffffffffffffffff\n      and\n      mul\n      or\n      swap1\n      sstore\n      pop\n      0x20\n      dup3\n      add\n      mload\n      dup2\n      0x00\n      add\n      exp(0x0100, 0x14)\n      dup2\n      sload\n      dup2\n      0xffff\n      mul\n      not\n      and\n      swap1\n      dup4\n      0xffff\n      and\n      mul\n      or\n      swap1\n      sstore\n      pop\n      0x40\n      dup3\n      add\n      mload\n      dup2\n      0x00\n      add\n      exp(0x0100, 0x16)\n      dup2\n      sload\n      dup2\n      0xff\n      mul\n      not\n      and\n      swap1\n      dup4\n      iszero\n      iszero\n      mul\n      or\n      swap1\n      sstore\n      pop\n      pop\n      pop\n        /* \".deps/studying-solidity/v0.1/TestamentCore.sol\":1172:1594  {... */\n      pop\n        /* \".deps/studying-solidity/v0.1/TestamentCore.sol\":1167:1170  i++ */\n      dup1\n      dup1\n      0x01\n      add\n      swap2\n      pop\n      pop\n        /* \".deps/studying-solidity/v0.1/TestamentCore.sol\":1124:1594  for (uint256 i = 0; i < _addresses.length; i++) {... */\n      jump(tag_48)\n    tag_49:\n      pop\n        /* \".deps/studying-solidity/v0.1/TestamentCore.sol\":1625:1629  true */\n      0x01\n        /* \".deps/studying-solidity/v0.1/TestamentCore.sol\":1606:1616  _testament */\n      dup2\n        /* \".deps/studying-solidity/v0.1/TestamentCore.sol\":1606:1622  _testament.exist */\n      0x01\n      add\n      0x00\n        /* \".deps/studying-solidity/v0.1/TestamentCore.sol\":1606:1629  _testament.exist = true */\n      0x0100\n      exp\n      dup2\n      sload\n      dup2\n      0xff\n      mul\n      not\n      and\n      swap1\n      dup4\n      iszero\n      iszero\n      mul\n      or\n      swap1\n      sstore\n      pop\n        /* \".deps/studying-solidity/v0.1/TestamentCore.sol\":1675:1684  msg.value */\n      callvalue\n        /* \".deps/studying-solidity/v0.1/TestamentCore.sol\":1640:1650  _testament */\n      dup2\n        /* \".deps/studying-solidity/v0.1/TestamentCore.sol\":1640:1672  _testament.inheritanceTotalValue */\n      0x02\n      add\n        /* \".deps/studying-solidity/v0.1/TestamentCore.sol\":1640:1684  _testament.inheritanceTotalValue = msg.value */\n      dup2\n      swap1\n      sstore\n      pop\n        /* \".deps/studying-solidity/v0.1/TestamentCore.sol\":1695:1714  updateProofOfLife() */\n      tag_64\n        /* \".deps/studying-solidity/v0.1/TestamentCore.sol\":1695:1712  updateProofOfLife */\n      tag_65\n        /* \".deps/studying-solidity/v0.1/TestamentCore.sol\":1695:1714  updateProofOfLife() */\n      jump\t// in\n    tag_64:\n        /* \".deps/studying-solidity/v0.1/TestamentCore.sol\":353:1722  {... */\n      pop\n      pop\n        /* \".deps/studying-solidity/v0.1/TestamentCore.sol\":236:1722  function createInheritance(address[] calldata _addresses,... */\n      pop\n      pop\n      pop\n      pop\n      jump\t// out\n        /* \".deps/studying-solidity/v0.1/ProofOfLife.sol\":146:418  function updateProofOfLife() internal {... */\n    tag_65:\n        /* \".deps/studying-solidity/v0.1/ProofOfLife.sol\":195:206  address own */\n      0x00\n        /* \".deps/studying-solidity/v0.1/ProofOfLife.sol\":209:219  msg.sender */\n      caller\n        /* \".deps/studying-solidity/v0.1/ProofOfLife.sol\":195:219  address own = msg.sender */\n      swap1\n      pop\n        /* \".deps/studying-solidity/v0.1/ProofOfLife.sol\":252:262  testaments */\n      0x00\n        /* \".deps/studying-solidity/v0.1/ProofOfLife.sol\":252:267  testaments[own] */\n      dup1\n        /* \".deps/studying-solidity/v0.1/ProofOfLife.sol\":263:266  own */\n      dup3\n        /* \".deps/studying-solidity/v0.1/ProofOfLife.sol\":252:267  testaments[own] */\n      0xffffffffffffffffffffffffffffffffffffffff\n      and\n      0xffffffffffffffffffffffffffffffffffffffff\n      and\n      dup2\n      mstore\n      0x20\n      add\n      swap1\n      dup2\n      mstore\n      0x20\n      add\n      0x00\n      keccak256\n        /* \".deps/studying-solidity/v0.1/ProofOfLife.sol\":252:273  testaments[own].exist */\n      0x01\n      add\n      0x00\n      swap1\n      sload\n      swap1\n      0x0100\n      exp\n      swap1\n      div\n      0xff\n      and\n        /* \".deps/studying-solidity/v0.1/ProofOfLife.sol\":230:341  require(... */\n      tag_67\n      jumpi\n      mload(0x40)\n      0x08c379a000000000000000000000000000000000000000000000000000000000\n      dup2\n      mstore\n      0x04\n      add\n      tag_68\n      swap1\n      tag_69\n      jump\t// in\n    tag_68:\n      mload(0x40)\n      dup1\n      swap2\n      sub\n      swap1\n      revert\n    tag_67:\n        /* \".deps/studying-solidity/v0.1/ProofOfLife.sol\":394:409  block.timestamp */\n      timestamp\n        /* \".deps/studying-solidity/v0.1/ProofOfLife.sol\":352:362  testaments */\n      0x00\n        /* \".deps/studying-solidity/v0.1/ProofOfLife.sol\":352:367  testaments[own] */\n      dup1\n        /* \".deps/studying-solidity/v0.1/ProofOfLife.sol\":363:366  own */\n      dup4\n        /* \".deps/studying-solidity/v0.1/ProofOfLife.sol\":352:367  testaments[own] */\n      0xffffffffffffffffffffffffffffffffffffffff\n      and\n      0xffffffffffffffffffffffffffffffffffffffff\n      and\n      dup2\n      mstore\n      0x20\n      add\n      swap1\n      dup2\n      mstore\n      0x20\n      add\n      0x00\n      keccak256\n        /* \".deps/studying-solidity/v0.1/ProofOfLife.sol\":352:383  testaments[own].lastProofOfLife */\n      0x01\n      add\n      0x01\n        /* \".deps/studying-solidity/v0.1/ProofOfLife.sol\":352:410  testaments[own].lastProofOfLife = uint128(block.timestamp) */\n      0x0100\n      exp\n      dup2\n      sload\n      dup2\n      0xffffffffffffffffffffffffffffffff\n      mul\n      not\n      and\n      swap1\n      dup4\n      0xffffffffffffffffffffffffffffffff\n      and\n      mul\n      or\n      swap1\n      sstore\n      pop\n        /* \".deps/studying-solidity/v0.1/ProofOfLife.sol\":184:418  {... */\n      pop\n        /* \".deps/studying-solidity/v0.1/ProofOfLife.sol\":146:418  function updateProofOfLife() internal {... */\n      jump\t// out\n        /* \"#utility.yul\":88:205   */\n    tag_71:\n        /* \"#utility.yul\":197:198   */\n      0x00\n        /* \"#utility.yul\":194:195   */\n      dup1\n        /* \"#utility.yul\":187:199   */\n      revert\n        /* \"#utility.yul\":211:328   */\n    tag_72:\n        /* \"#utility.yul\":320:321   */\n      0x00\n        /* \"#utility.yul\":317:318   */\n      dup1\n        /* \"#utility.yul\":310:322   */\n      revert\n        /* \"#utility.yul\":334:460   */\n    tag_73:\n        /* \"#utility.yul\":371:378   */\n      0x00\n        /* \"#utility.yul\":411:453   */\n      0xffffffffffffffffffffffffffffffffffffffff\n        /* \"#utility.yul\":404:409   */\n      dup3\n        /* \"#utility.yul\":400:454   */\n      and\n        /* \"#utility.yul\":389:454   */\n      swap1\n      pop\n        /* \"#utility.yul\":334:460   */\n      swap2\n      swap1\n      pop\n      jump\t// out\n        /* \"#utility.yul\":466:562   */\n    tag_74:\n        /* \"#utility.yul\":503:510   */\n      0x00\n        /* \"#utility.yul\":532:556   */\n      tag_111\n        /* \"#utility.yul\":550:555   */\n      dup3\n        /* \"#utility.yul\":532:556   */\n      tag_73\n      jump\t// in\n    tag_111:\n        /* \"#utility.yul\":521:556   */\n      swap1\n      pop\n        /* \"#utility.yul\":466:562   */\n      swap2\n      swap1\n      pop\n      jump\t// out\n        /* \"#utility.yul\":568:690   */\n    tag_75:\n        /* \"#utility.yul\":641:665   */\n      tag_113\n        /* \"#utility.yul\":659:664   */\n      dup2\n        /* \"#utility.yul\":641:665   */\n      tag_74\n      jump\t// in\n    tag_113:\n        /* \"#utility.yul\":634:639   */\n      dup2\n        /* \"#utility.yul\":631:666   */\n      eq\n        /* \"#utility.yul\":621:684   */\n      tag_114\n      jumpi\n        /* \"#utility.yul\":680:681   */\n      0x00\n        /* \"#utility.yul\":677:678   */\n      dup1\n        /* \"#utility.yul\":670:682   */\n      revert\n        /* \"#utility.yul\":621:684   */\n    tag_114:\n        /* \"#utility.yul\":568:690   */\n      pop\n      jump\t// out\n        /* \"#utility.yul\":696:835   */\n    tag_76:\n        /* \"#utility.yul\":742:747   */\n      0x00\n        /* \"#utility.yul\":780:786   */\n      dup2\n        /* \"#utility.yul\":767:787   */\n      calldataload\n        /* \"#utility.yul\":758:787   */\n      swap1\n      pop\n        /* \"#utility.yul\":796:829   */\n      tag_116\n        /* \"#utility.yul\":823:828   */\n      dup2\n        /* \"#utility.yul\":796:829   */\n      tag_75\n      jump\t// in\n    tag_116:\n        /* \"#utility.yul\":696:835   */\n      swap3\n      swap2\n      pop\n      pop\n      jump\t// out\n        /* \"#utility.yul\":841:1170   */\n    tag_13:\n        /* \"#utility.yul\":900:906   */\n      0x00\n        /* \"#utility.yul\":949:951   */\n      0x20\n        /* \"#utility.yul\":937:946   */\n      dup3\n        /* \"#utility.yul\":928:935   */\n      dup5\n        /* \"#utility.yul\":924:947   */\n      sub\n        /* \"#utility.yul\":920:952   */\n      slt\n        /* \"#utility.yul\":917:1036   */\n      iszero\n      tag_118\n      jumpi\n        /* \"#utility.yul\":955:1034   */\n      tag_119\n      tag_71\n      jump\t// in\n    tag_119:\n        /* \"#utility.yul\":917:1036   */\n    tag_118:\n        /* \"#utility.yul\":1075:1076   */\n      0x00\n        /* \"#utility.yul\":1100:1153   */\n      tag_120\n        /* \"#utility.yul\":1145:1152   */\n      dup5\n        /* \"#utility.yul\":1136:1142   */\n      dup3\n        /* \"#utility.yul\":1125:1134   */\n      dup6\n        /* \"#utility.yul\":1121:1143   */\n      add\n        /* \"#utility.yul\":1100:1153   */\n      tag_76\n      jump\t// in\n    tag_120:\n        /* \"#utility.yul\":1090:1153   */\n      swap2\n      pop\n        /* \"#utility.yul\":1046:1163   */\n      pop\n        /* \"#utility.yul\":841:1170   */\n      swap3\n      swap2\n      pop\n      pop\n      jump\t// out\n        /* \"#utility.yul\":1176:1266   */\n    tag_77:\n        /* \"#utility.yul\":1210:1217   */\n      0x00\n        /* \"#utility.yul\":1253:1258   */\n      dup2\n        /* \"#utility.yul\":1246:1259   */\n      iszero\n        /* \"#utility.yul\":1239:1260   */\n      iszero\n        /* \"#utility.yul\":1228:1260   */\n      swap1\n      pop\n        /* \"#utility.yul\":1176:1266   */\n      swap2\n      swap1\n      pop\n      jump\t// out\n        /* \"#utility.yul\":1272:1381   */\n    tag_78:\n        /* \"#utility.yul\":1353:1374   */\n      tag_123\n        /* \"#utility.yul\":1368:1373   */\n      dup2\n        /* \"#utility.yul\":1353:1374   */\n      tag_77\n      jump\t// in\n    tag_123:\n        /* \"#utility.yul\":1348:1351   */\n      dup3\n        /* \"#utility.yul\":1341:1375   */\n      mstore\n        /* \"#utility.yul\":1272:1381   */\n      pop\n      pop\n      jump\t// out\n        /* \"#utility.yul\":1387:1505   */\n    tag_79:\n        /* \"#utility.yul\":1424:1431   */\n      0x00\n        /* \"#utility.yul\":1464:1498   */\n      0xffffffffffffffffffffffffffffffff\n        /* \"#utility.yul\":1457:1462   */\n      dup3\n        /* \"#utility.yul\":1453:1499   */\n      and\n        /* \"#utility.yul\":1442:1499   */\n      swap1\n      pop\n        /* \"#utility.yul\":1387:1505   */\n      swap2\n      swap1\n      pop\n      jump\t// out\n        /* \"#utility.yul\":1511:1629   */\n    tag_80:\n        /* \"#utility.yul\":1598:1622   */\n      tag_126\n        /* \"#utility.yul\":1616:1621   */\n      dup2\n        /* \"#utility.yul\":1598:1622   */\n      tag_79\n      jump\t// in\n    tag_126:\n        /* \"#utility.yul\":1593:1596   */\n      dup3\n        /* \"#utility.yul\":1586:1623   */\n      mstore\n        /* \"#utility.yul\":1511:1629   */\n      pop\n      pop\n      jump\t// out\n        /* \"#utility.yul\":1635:1712   */\n    tag_81:\n        /* \"#utility.yul\":1672:1679   */\n      0x00\n        /* \"#utility.yul\":1701:1706   */\n      dup2\n        /* \"#utility.yul\":1690:1706   */\n      swap1\n      pop\n        /* \"#utility.yul\":1635:1712   */\n      swap2\n      swap1\n      pop\n      jump\t// out\n        /* \"#utility.yul\":1718:1836   */\n    tag_82:\n        /* \"#utility.yul\":1805:1829   */\n      tag_129\n        /* \"#utility.yul\":1823:1828   */\n      dup2\n        /* \"#utility.yul\":1805:1829   */\n      tag_81\n      jump\t// in\n    tag_129:\n        /* \"#utility.yul\":1800:1803   */\n      dup3\n        /* \"#utility.yul\":1793:1830   */\n      mstore\n        /* \"#utility.yul\":1718:1836   */\n      pop\n      pop\n      jump\t// out\n        /* \"#utility.yul\":1842:2272   */\n    tag_16:\n        /* \"#utility.yul\":1985:1989   */\n      0x00\n        /* \"#utility.yul\":2023:2025   */\n      0x60\n        /* \"#utility.yul\":2012:2021   */\n      dup3\n        /* \"#utility.yul\":2008:2026   */\n      add\n        /* \"#utility.yul\":2000:2026   */\n      swap1\n      pop\n        /* \"#utility.yul\":2036:2101   */\n      tag_131\n        /* \"#utility.yul\":2098:2099   */\n      0x00\n        /* \"#utility.yul\":2087:2096   */\n      dup4\n        /* \"#utility.yul\":2083:2100   */\n      add\n        /* \"#utility.yul\":2074:2080   */\n      dup7\n        /* \"#utility.yul\":2036:2101   */\n      tag_78\n      jump\t// in\n    tag_131:\n        /* \"#utility.yul\":2111:2183   */\n      tag_132\n        /* \"#utility.yul\":2179:2181   */\n      0x20\n        /* \"#utility.yul\":2168:2177   */\n      dup4\n        /* \"#utility.yul\":2164:2182   */\n      add\n        /* \"#utility.yul\":2155:2161   */\n      dup6\n        /* \"#utility.yul\":2111:2183   */\n      tag_80\n      jump\t// in\n    tag_132:\n        /* \"#utility.yul\":2193:2265   */\n      tag_133\n        /* \"#utility.yul\":2261:2263   */\n      0x40\n        /* \"#utility.yul\":2250:2259   */\n      dup4\n        /* \"#utility.yul\":2246:2264   */\n      add\n        /* \"#utility.yul\":2237:2243   */\n      dup5\n        /* \"#utility.yul\":2193:2265   */\n      tag_82\n      jump\t// in\n    tag_133:\n        /* \"#utility.yul\":1842:2272   */\n      swap5\n      swap4\n      pop\n      pop\n      pop\n      pop\n      jump\t// out\n        /* \"#utility.yul\":2278:2400   */\n    tag_83:\n        /* \"#utility.yul\":2351:2375   */\n      tag_135\n        /* \"#utility.yul\":2369:2374   */\n      dup2\n        /* \"#utility.yul\":2351:2375   */\n      tag_81\n      jump\t// in\n    tag_135:\n        /* \"#utility.yul\":2344:2349   */\n      dup2\n        /* \"#utility.yul\":2341:2376   */\n      eq\n        /* \"#utility.yul\":2331:2394   */\n      tag_136\n      jumpi\n        /* \"#utility.yul\":2390:2391   */\n      0x00\n        /* \"#utility.yul\":2387:2388   */\n      dup1\n        /* \"#utility.yul\":2380:2392   */\n      revert\n        /* \"#utility.yul\":2331:2394   */\n    tag_136:\n        /* \"#utility.yul\":2278:2400   */\n      pop\n      jump\t// out\n        /* \"#utility.yul\":2406:2545   */\n    tag_84:\n        /* \"#utility.yul\":2452:2457   */\n      0x00\n        /* \"#utility.yul\":2490:2496   */\n      dup2\n        /* \"#utility.yul\":2477:2497   */\n      calldataload\n        /* \"#utility.yul\":2468:2497   */\n      swap1\n      pop\n        /* \"#utility.yul\":2506:2539   */\n      tag_138\n        /* \"#utility.yul\":2533:2538   */\n      dup2\n        /* \"#utility.yul\":2506:2539   */\n      tag_83\n      jump\t// in\n    tag_138:\n        /* \"#utility.yul\":2406:2545   */\n      swap3\n      swap2\n      pop\n      pop\n      jump\t// out\n        /* \"#utility.yul\":2551:3025   */\n    tag_20:\n        /* \"#utility.yul\":2619:2625   */\n      0x00\n        /* \"#utility.yul\":2627:2633   */\n      dup1\n        /* \"#utility.yul\":2676:2678   */\n      0x40\n        /* \"#utility.yul\":2664:2673   */\n      dup4\n        /* \"#utility.yul\":2655:2662   */\n      dup6\n        /* \"#utility.yul\":2651:2674   */\n      sub\n        /* \"#utility.yul\":2647:2679   */\n      slt\n        /* \"#utility.yul\":2644:2763   */\n      iszero\n      tag_140\n      jumpi\n        /* \"#utility.yul\":2682:2761   */\n      tag_141\n      tag_71\n      jump\t// in\n    tag_141:\n        /* \"#utility.yul\":2644:2763   */\n    tag_140:\n        /* \"#utility.yul\":2802:2803   */\n      0x00\n        /* \"#utility.yul\":2827:2880   */\n      tag_142\n        /* \"#utility.yul\":2872:2879   */\n      dup6\n        /* \"#utility.yul\":2863:2869   */\n      dup3\n        /* \"#utility.yul\":2852:2861   */\n      dup7\n        /* \"#utility.yul\":2848:2870   */\n      add\n        /* \"#utility.yul\":2827:2880   */\n      tag_76\n      jump\t// in\n    tag_142:\n        /* \"#utility.yul\":2817:2880   */\n      swap3\n      pop\n        /* \"#utility.yul\":2773:2890   */\n      pop\n        /* \"#utility.yul\":2929:2931   */\n      0x20\n        /* \"#utility.yul\":2955:3008   */\n      tag_143\n        /* \"#utility.yul\":3000:3007   */\n      dup6\n        /* \"#utility.yul\":2991:2997   */\n      dup3\n        /* \"#utility.yul\":2980:2989   */\n      dup7\n        /* \"#utility.yul\":2976:2998   */\n      add\n        /* \"#utility.yul\":2955:3008   */\n      tag_84\n      jump\t// in\n    tag_143:\n        /* \"#utility.yul\":2945:3008   */\n      swap2\n      pop\n        /* \"#utility.yul\":2900:3018   */\n      pop\n        /* \"#utility.yul\":2551:3025   */\n      swap3\n      pop\n      swap3\n      swap1\n      pop\n      jump\t// out\n        /* \"#utility.yul\":3031:3149   */\n    tag_85:\n        /* \"#utility.yul\":3118:3142   */\n      tag_145\n        /* \"#utility.yul\":3136:3141   */\n      dup2\n        /* \"#utility.yul\":3118:3142   */\n      tag_74\n      jump\t// in\n    tag_145:\n        /* \"#utility.yul\":3113:3116   */\n      dup3\n        /* \"#utility.yul\":3106:3143   */\n      mstore\n        /* \"#utility.yul\":3031:3149   */\n      pop\n      pop\n      jump\t// out\n        /* \"#utility.yul\":3155:3377   */\n    tag_23:\n        /* \"#utility.yul\":3248:3252   */\n      0x00\n        /* \"#utility.yul\":3286:3288   */\n      0x20\n        /* \"#utility.yul\":3275:3284   */\n      dup3\n        /* \"#utility.yul\":3271:3289   */\n      add\n        /* \"#utility.yul\":3263:3289   */\n      swap1\n      pop\n        /* \"#utility.yul\":3299:3370   */\n      tag_147\n        /* \"#utility.yul\":3367:3368   */\n      0x00\n        /* \"#utility.yul\":3356:3365   */\n      dup4\n        /* \"#utility.yul\":3352:3369   */\n      add\n        /* \"#utility.yul\":3343:3349   */\n      dup5\n        /* \"#utility.yul\":3299:3370   */\n      tag_85\n      jump\t// in\n    tag_147:\n        /* \"#utility.yul\":3155:3377   */\n      swap3\n      swap2\n      pop\n      pop\n      jump\t// out\n        /* \"#utility.yul\":3383:3500   */\n    tag_86:\n        /* \"#utility.yul\":3492:3493   */\n      0x00\n        /* \"#utility.yul\":3489:3490   */\n      dup1\n        /* \"#utility.yul\":3482:3494   */\n      revert\n        /* \"#utility.yul\":3506:3623   */\n    tag_87:\n        /* \"#utility.yul\":3615:3616   */\n      0x00\n        /* \"#utility.yul\":3612:3613   */\n      dup1\n        /* \"#utility.yul\":3605:3617   */\n      revert\n        /* \"#utility.yul\":3629:3746   */\n    tag_88:\n        /* \"#utility.yul\":3738:3739   */\n      0x00\n        /* \"#utility.yul\":3735:3736   */\n      dup1\n        /* \"#utility.yul\":3728:3740   */\n      revert\n        /* \"#utility.yul\":3769:4337   */\n    tag_89:\n        /* \"#utility.yul\":3842:3850   */\n      0x00\n        /* \"#utility.yul\":3852:3858   */\n      dup1\n        /* \"#utility.yul\":3902:3905   */\n      dup4\n        /* \"#utility.yul\":3895:3899   */\n      0x1f\n        /* \"#utility.yul\":3887:3893   */\n      dup5\n        /* \"#utility.yul\":3883:3900   */\n      add\n        /* \"#utility.yul\":3879:3906   */\n      slt\n        /* \"#utility.yul\":3869:3991   */\n      tag_152\n      jumpi\n        /* \"#utility.yul\":3910:3989   */\n      tag_153\n      tag_86\n      jump\t// in\n    tag_153:\n        /* \"#utility.yul\":3869:3991   */\n    tag_152:\n        /* \"#utility.yul\":4023:4029   */\n      dup3\n        /* \"#utility.yul\":4010:4030   */\n      calldataload\n        /* \"#utility.yul\":4000:4030   */\n      swap1\n      pop\n        /* \"#utility.yul\":4053:4071   */\n      0xffffffffffffffff\n        /* \"#utility.yul\":4045:4051   */\n      dup2\n        /* \"#utility.yul\":4042:4072   */\n      gt\n        /* \"#utility.yul\":4039:4156   */\n      iszero\n      tag_154\n      jumpi\n        /* \"#utility.yul\":4075:4154   */\n      tag_155\n      tag_87\n      jump\t// in\n    tag_155:\n        /* \"#utility.yul\":4039:4156   */\n    tag_154:\n        /* \"#utility.yul\":4189:4193   */\n      0x20\n        /* \"#utility.yul\":4181:4187   */\n      dup4\n        /* \"#utility.yul\":4177:4194   */\n      add\n        /* \"#utility.yul\":4165:4194   */\n      swap2\n      pop\n        /* \"#utility.yul\":4243:4246   */\n      dup4\n        /* \"#utility.yul\":4235:4239   */\n      0x20\n        /* \"#utility.yul\":4227:4233   */\n      dup3\n        /* \"#utility.yul\":4223:4240   */\n      mul\n        /* \"#utility.yul\":4213:4221   */\n      dup4\n        /* \"#utility.yul\":4209:4241   */\n      add\n        /* \"#utility.yul\":4206:4247   */\n      gt\n        /* \"#utility.yul\":4203:4331   */\n      iszero\n      tag_156\n      jumpi\n        /* \"#utility.yul\":4250:4329   */\n      tag_157\n      tag_88\n      jump\t// in\n    tag_157:\n        /* \"#utility.yul\":4203:4331   */\n    tag_156:\n        /* \"#utility.yul\":3769:4337   */\n      swap3\n      pop\n      swap3\n      swap1\n      pop\n      jump\t// out\n        /* \"#utility.yul\":4359:4926   */\n    tag_90:\n        /* \"#utility.yul\":4431:4439   */\n      0x00\n        /* \"#utility.yul\":4441:4447   */\n      dup1\n        /* \"#utility.yul\":4491:4494   */\n      dup4\n        /* \"#utility.yul\":4484:4488   */\n      0x1f\n        /* \"#utility.yul\":4476:4482   */\n      dup5\n        /* \"#utility.yul\":4472:4489   */\n      add\n        /* \"#utility.yul\":4468:4495   */\n      slt\n        /* \"#utility.yul\":4458:4580   */\n      tag_159\n      jumpi\n        /* \"#utility.yul\":4499:4578   */\n      tag_160\n      tag_86\n      jump\t// in\n    tag_160:\n        /* \"#utility.yul\":4458:4580   */\n    tag_159:\n        /* \"#utility.yul\":4612:4618   */\n      dup3\n        /* \"#utility.yul\":4599:4619   */\n      calldataload\n        /* \"#utility.yul\":4589:4619   */\n      swap1\n      pop\n        /* \"#utility.yul\":4642:4660   */\n      0xffffffffffffffff\n        /* \"#utility.yul\":4634:4640   */\n      dup2\n        /* \"#utility.yul\":4631:4661   */\n      gt\n        /* \"#utility.yul\":4628:4745   */\n      iszero\n      tag_161\n      jumpi\n        /* \"#utility.yul\":4664:4743   */\n      tag_162\n      tag_87\n      jump\t// in\n    tag_162:\n        /* \"#utility.yul\":4628:4745   */\n    tag_161:\n        /* \"#utility.yul\":4778:4782   */\n      0x20\n        /* \"#utility.yul\":4770:4776   */\n      dup4\n        /* \"#utility.yul\":4766:4783   */\n      add\n        /* \"#utility.yul\":4754:4783   */\n      swap2\n      pop\n        /* \"#utility.yul\":4832:4835   */\n      dup4\n        /* \"#utility.yul\":4824:4828   */\n      0x20\n        /* \"#utility.yul\":4816:4822   */\n      dup3\n        /* \"#utility.yul\":4812:4829   */\n      mul\n        /* \"#utility.yul\":4802:4810   */\n      dup4\n        /* \"#utility.yul\":4798:4830   */\n      add\n        /* \"#utility.yul\":4795:4836   */\n      gt\n        /* \"#utility.yul\":4792:4920   */\n      iszero\n      tag_163\n      jumpi\n        /* \"#utility.yul\":4839:4918   */\n      tag_164\n      tag_88\n      jump\t// in\n    tag_164:\n        /* \"#utility.yul\":4792:4920   */\n    tag_163:\n        /* \"#utility.yul\":4359:4926   */\n      swap3\n      pop\n      swap3\n      swap1\n      pop\n      jump\t// out\n        /* \"#utility.yul\":4932:5864   */\n    tag_29:\n        /* \"#utility.yul\":5053:5059   */\n      0x00\n        /* \"#utility.yul\":5061:5067   */\n      dup1\n        /* \"#utility.yul\":5069:5075   */\n      0x00\n        /* \"#utility.yul\":5077:5083   */\n      dup1\n        /* \"#utility.yul\":5126:5128   */\n      0x40\n        /* \"#utility.yul\":5114:5123   */\n      dup6\n        /* \"#utility.yul\":5105:5112   */\n      dup8\n        /* \"#utility.yul\":5101:5124   */\n      sub\n        /* \"#utility.yul\":5097:5129   */\n      slt\n        /* \"#utility.yul\":5094:5213   */\n      iszero\n      tag_166\n      jumpi\n        /* \"#utility.yul\":5132:5211   */\n      tag_167\n      tag_71\n      jump\t// in\n    tag_167:\n        /* \"#utility.yul\":5094:5213   */\n    tag_166:\n        /* \"#utility.yul\":5280:5281   */\n      0x00\n        /* \"#utility.yul\":5269:5278   */\n      dup6\n        /* \"#utility.yul\":5265:5282   */\n      add\n        /* \"#utility.yul\":5252:5283   */\n      calldataload\n        /* \"#utility.yul\":5310:5328   */\n      0xffffffffffffffff\n        /* \"#utility.yul\":5302:5308   */\n      dup2\n        /* \"#utility.yul\":5299:5329   */\n      gt\n        /* \"#utility.yul\":5296:5413   */\n      iszero\n      tag_168\n      jumpi\n        /* \"#utility.yul\":5332:5411   */\n      tag_169\n      tag_72\n      jump\t// in\n    tag_169:\n        /* \"#utility.yul\":5296:5413   */\n    tag_168:\n        /* \"#utility.yul\":5445:5525   */\n      tag_170\n        /* \"#utility.yul\":5517:5524   */\n      dup8\n        /* \"#utility.yul\":5508:5514   */\n      dup3\n        /* \"#utility.yul\":5497:5506   */\n      dup9\n        /* \"#utility.yul\":5493:5515   */\n      add\n        /* \"#utility.yul\":5445:5525   */\n      tag_89\n      jump\t// in\n    tag_170:\n        /* \"#utility.yul\":5427:5525   */\n      swap5\n      pop\n      swap5\n      pop\n        /* \"#utility.yul\":5223:5535   */\n      pop\n        /* \"#utility.yul\":5602:5604   */\n      0x20\n        /* \"#utility.yul\":5591:5600   */\n      dup6\n        /* \"#utility.yul\":5587:5605   */\n      add\n        /* \"#utility.yul\":5574:5606   */\n      calldataload\n        /* \"#utility.yul\":5633:5651   */\n      0xffffffffffffffff\n        /* \"#utility.yul\":5625:5631   */\n      dup2\n        /* \"#utility.yul\":5622:5652   */\n      gt\n        /* \"#utility.yul\":5619:5736   */\n      iszero\n      tag_171\n      jumpi\n        /* \"#utility.yul\":5655:5734   */\n      tag_172\n      tag_72\n      jump\t// in\n    tag_172:\n        /* \"#utility.yul\":5619:5736   */\n    tag_171:\n        /* \"#utility.yul\":5768:5847   */\n      tag_173\n        /* \"#utility.yul\":5839:5846   */\n      dup8\n        /* \"#utility.yul\":5830:5836   */\n      dup3\n        /* \"#utility.yul\":5819:5828   */\n      dup9\n        /* \"#utility.yul\":5815:5837   */\n      add\n        /* \"#utility.yul\":5768:5847   */\n      tag_90\n      jump\t// in\n    tag_173:\n        /* \"#utility.yul\":5750:5847   */\n      swap3\n      pop\n      swap3\n      pop\n        /* \"#utility.yul\":5545:5857   */\n      pop\n        /* \"#utility.yul\":4932:5864   */\n      swap3\n      swap6\n      swap2\n      swap5\n      pop\n      swap3\n      pop\n      jump\t// out\n        /* \"#utility.yul\":5870:6039   */\n    tag_91:\n        /* \"#utility.yul\":5954:5965   */\n      0x00\n        /* \"#utility.yul\":5988:5994   */\n      dup3\n        /* \"#utility.yul\":5983:5986   */\n      dup3\n        /* \"#utility.yul\":5976:5995   */\n      mstore\n        /* \"#utility.yul\":6028:6032   */\n      0x20\n        /* \"#utility.yul\":6023:6026   */\n      dup3\n        /* \"#utility.yul\":6019:6033   */\n      add\n        /* \"#utility.yul\":6004:6033   */\n      swap1\n      pop\n        /* \"#utility.yul\":5870:6039   */\n      swap3\n      swap2\n      pop\n      pop\n      jump\t// out\n        /* \"#utility.yul\":6045:6267   */\n    tag_92:\n        /* \"#utility.yul\":6185:6219   */\n      0x637265617465496e6865726974616e636528292c2076616c6f7220696e76616c\n        /* \"#utility.yul\":6181:6182   */\n      0x00\n        /* \"#utility.yul\":6173:6179   */\n      dup3\n        /* \"#utility.yul\":6169:6183   */\n      add\n        /* \"#utility.yul\":6162:6220   */\n      mstore\n        /* \"#utility.yul\":6254:6259   */\n      0x69646f0000000000000000000000000000000000000000000000000000000000\n        /* \"#utility.yul\":6249:6251   */\n      0x20\n        /* \"#utility.yul\":6241:6247   */\n      dup3\n        /* \"#utility.yul\":6237:6252   */\n      add\n        /* \"#utility.yul\":6230:6260   */\n      mstore\n        /* \"#utility.yul\":6045:6267   */\n      pop\n      jump\t// out\n        /* \"#utility.yul\":6273:6639   */\n    tag_93:\n        /* \"#utility.yul\":6415:6418   */\n      0x00\n        /* \"#utility.yul\":6436:6503   */\n      tag_177\n        /* \"#utility.yul\":6500:6502   */\n      0x23\n        /* \"#utility.yul\":6495:6498   */\n      dup4\n        /* \"#utility.yul\":6436:6503   */\n      tag_91\n      jump\t// in\n    tag_177:\n        /* \"#utility.yul\":6429:6503   */\n      swap2\n      pop\n        /* \"#utility.yul\":6512:6605   */\n      tag_178\n        /* \"#utility.yul\":6601:6604   */\n      dup3\n        /* \"#utility.yul\":6512:6605   */\n      tag_92\n      jump\t// in\n    tag_178:\n        /* \"#utility.yul\":6630:6632   */\n      0x40\n        /* \"#utility.yul\":6625:6628   */\n      dup3\n        /* \"#utility.yul\":6621:6633   */\n      add\n        /* \"#utility.yul\":6614:6633   */\n      swap1\n      pop\n        /* \"#utility.yul\":6273:6639   */\n      swap2\n      swap1\n      pop\n      jump\t// out\n        /* \"#utility.yul\":6645:7064   */\n    tag_38:\n        /* \"#utility.yul\":6811:6815   */\n      0x00\n        /* \"#utility.yul\":6849:6851   */\n      0x20\n        /* \"#utility.yul\":6838:6847   */\n      dup3\n        /* \"#utility.yul\":6834:6852   */\n      add\n        /* \"#utility.yul\":6826:6852   */\n      swap1\n      pop\n        /* \"#utility.yul\":6898:6907   */\n      dup2\n        /* \"#utility.yul\":6892:6896   */\n      dup2\n        /* \"#utility.yul\":6888:6908   */\n      sub\n        /* \"#utility.yul\":6884:6885   */\n      0x00\n        /* \"#utility.yul\":6873:6882   */\n      dup4\n        /* \"#utility.yul\":6869:6886   */\n      add\n        /* \"#utility.yul\":6862:6909   */\n      mstore\n        /* \"#utility.yul\":6926:7057   */\n      tag_180\n        /* \"#utility.yul\":7052:7056   */\n      dup2\n        /* \"#utility.yul\":6926:7057   */\n      tag_93\n      jump\t// in\n    tag_180:\n        /* \"#utility.yul\":6918:7057   */\n      swap1\n      pop\n        /* \"#utility.yul\":6645:7064   */\n      swap2\n      swap1\n      pop\n      jump\t// out\n        /* \"#utility.yul\":7070:7299   */\n    tag_94:\n        /* \"#utility.yul\":7210:7244   */\n      0x637265617465496e6865726974616e636528292c2061646963696f6e65206f73\n        /* \"#utility.yul\":7206:7207   */\n      0x00\n        /* \"#utility.yul\":7198:7204   */\n      dup3\n        /* \"#utility.yul\":7194:7208   */\n      add\n        /* \"#utility.yul\":7187:7245   */\n      mstore\n        /* \"#utility.yul\":7279:7291   */\n      0x20686572646569726f7300000000000000000000000000000000000000000000\n        /* \"#utility.yul\":7274:7276   */\n      0x20\n        /* \"#utility.yul\":7266:7272   */\n      dup3\n        /* \"#utility.yul\":7262:7277   */\n      add\n        /* \"#utility.yul\":7255:7292   */\n      mstore\n        /* \"#utility.yul\":7070:7299   */\n      pop\n      jump\t// out\n        /* \"#utility.yul\":7305:7671   */\n    tag_95:\n        /* \"#utility.yul\":7447:7450   */\n      0x00\n        /* \"#utility.yul\":7468:7535   */\n      tag_183\n        /* \"#utility.yul\":7532:7534   */\n      0x2a\n        /* \"#utility.yul\":7527:7530   */\n      dup4\n        /* \"#utility.yul\":7468:7535   */\n      tag_91\n      jump\t// in\n    tag_183:\n        /* \"#utility.yul\":7461:7535   */\n      swap2\n      pop\n        /* \"#utility.yul\":7544:7637   */\n      tag_184\n        /* \"#utility.yul\":7633:7636   */\n      dup3\n        /* \"#utility.yul\":7544:7637   */\n      tag_94\n      jump\t// in\n    tag_184:\n        /* \"#utility.yul\":7662:7664   */\n      0x40\n        /* \"#utility.yul\":7657:7660   */\n      dup3\n        /* \"#utility.yul\":7653:7665   */\n      add\n        /* \"#utility.yul\":7646:7665   */\n      swap1\n      pop\n        /* \"#utility.yul\":7305:7671   */\n      swap2\n      swap1\n      pop\n      jump\t// out\n        /* \"#utility.yul\":7677:8096   */\n    tag_41:\n        /* \"#utility.yul\":7843:7847   */\n      0x00\n        /* \"#utility.yul\":7881:7883   */\n      0x20\n        /* \"#utility.yul\":7870:7879   */\n      dup3\n        /* \"#utility.yul\":7866:7884   */\n      add\n        /* \"#utility.yul\":7858:7884   */\n      swap1\n      pop\n        /* \"#utility.yul\":7930:7939   */\n      dup2\n        /* \"#utility.yul\":7924:7928   */\n      dup2\n        /* \"#utility.yul\":7920:7940   */\n      sub\n        /* \"#utility.yul\":7916:7917   */\n      0x00\n        /* \"#utility.yul\":7905:7914   */\n      dup4\n        /* \"#utility.yul\":7901:7918   */\n      add\n        /* \"#utility.yul\":7894:7941   */\n      mstore\n        /* \"#utility.yul\":7958:8089   */\n      tag_186\n        /* \"#utility.yul\":8084:8088   */\n      dup2\n        /* \"#utility.yul\":7958:8089   */\n      tag_95\n      jump\t// in\n    tag_186:\n        /* \"#utility.yul\":7950:8089   */\n      swap1\n      pop\n        /* \"#utility.yul\":7677:8096   */\n      swap2\n      swap1\n      pop\n      jump\t// out\n        /* \"#utility.yul\":8102:8396   */\n    tag_96:\n        /* \"#utility.yul\":8242:8276   */\n      0x637265617465496e6865726974616e636528292c207175616e74696461646520\n        /* \"#utility.yul\":8238:8239   */\n      0x00\n        /* \"#utility.yul\":8230:8236   */\n      dup3\n        /* \"#utility.yul\":8226:8240   */\n      add\n        /* \"#utility.yul\":8219:8277   */\n      mstore\n        /* \"#utility.yul\":8311:8345   */\n      0x646520656e64657265636f73206520706f7263656e746167656e732064696665\n        /* \"#utility.yul\":8306:8308   */\n      0x20\n        /* \"#utility.yul\":8298:8304   */\n      dup3\n        /* \"#utility.yul\":8294:8309   */\n      add\n        /* \"#utility.yul\":8287:8346   */\n      mstore\n        /* \"#utility.yul\":8380:8388   */\n      0x72656e7465730000000000000000000000000000000000000000000000000000\n        /* \"#utility.yul\":8375:8377   */\n      0x40\n        /* \"#utility.yul\":8367:8373   */\n      dup3\n        /* \"#utility.yul\":8363:8378   */\n      add\n        /* \"#utility.yul\":8356:8389   */\n      mstore\n        /* \"#utility.yul\":8102:8396   */\n      pop\n      jump\t// out\n        /* \"#utility.yul\":8402:8768   */\n    tag_97:\n        /* \"#utility.yul\":8544:8547   */\n      0x00\n        /* \"#utility.yul\":8565:8632   */\n      tag_189\n        /* \"#utility.yul\":8629:8631   */\n      0x46\n        /* \"#utility.yul\":8624:8627   */\n      dup4\n        /* \"#utility.yul\":8565:8632   */\n      tag_91\n      jump\t// in\n    tag_189:\n        /* \"#utility.yul\":8558:8632   */\n      swap2\n      pop\n        /* \"#utility.yul\":8641:8734   */\n      tag_190\n        /* \"#utility.yul\":8730:8733   */\n      dup3\n        /* \"#utility.yul\":8641:8734   */\n      tag_96\n      jump\t// in\n    tag_190:\n        /* \"#utility.yul\":8759:8761   */\n      0x60\n        /* \"#utility.yul\":8754:8757   */\n      dup3\n        /* \"#utility.yul\":8750:8762   */\n      add\n        /* \"#utility.yul\":8743:8762   */\n      swap1\n      pop\n        /* \"#utility.yul\":8402:8768   */\n      swap2\n      swap1\n      pop\n      jump\t// out\n        /* \"#utility.yul\":8774:9193   */\n    tag_44:\n        /* \"#utility.yul\":8940:8944   */\n      0x00\n        /* \"#utility.yul\":8978:8980   */\n      0x20\n        /* \"#utility.yul\":8967:8976   */\n      dup3\n        /* \"#utility.yul\":8963:8981   */\n      add\n        /* \"#utility.yul\":8955:8981   */\n      swap1\n      pop\n        /* \"#utility.yul\":9027:9036   */\n      dup2\n        /* \"#utility.yul\":9021:9025   */\n      dup2\n        /* \"#utility.yul\":9017:9037   */\n      sub\n        /* \"#utility.yul\":9013:9014   */\n      0x00\n        /* \"#utility.yul\":9002:9011   */\n      dup4\n        /* \"#utility.yul\":8998:9015   */\n      add\n        /* \"#utility.yul\":8991:9038   */\n      mstore\n        /* \"#utility.yul\":9055:9186   */\n      tag_192\n        /* \"#utility.yul\":9181:9185   */\n      dup2\n        /* \"#utility.yul\":9055:9186   */\n      tag_97\n      jump\t// in\n    tag_192:\n        /* \"#utility.yul\":9047:9186   */\n      swap1\n      pop\n        /* \"#utility.yul\":8774:9193   */\n      swap2\n      swap1\n      pop\n      jump\t// out\n        /* \"#utility.yul\":9199:9450   */\n    tag_98:\n        /* \"#utility.yul\":9339:9373   */\n      0x637265617465496e6865726974616e636528292c20766f6365206a612074656d\n        /* \"#utility.yul\":9335:9336   */\n      0x00\n        /* \"#utility.yul\":9327:9333   */\n      dup3\n        /* \"#utility.yul\":9323:9337   */\n      add\n        /* \"#utility.yul\":9316:9374   */\n      mstore\n        /* \"#utility.yul\":9408:9442   */\n      0x20756d2074657374616d656e746f2063726961646f2c20656469746520656c65\n        /* \"#utility.yul\":9403:9405   */\n      0x20\n        /* \"#utility.yul\":9395:9401   */\n      dup3\n        /* \"#utility.yul\":9391:9406   */\n      add\n        /* \"#utility.yul\":9384:9443   */\n      mstore\n        /* \"#utility.yul\":9199:9450   */\n      pop\n      jump\t// out\n        /* \"#utility.yul\":9456:9822   */\n    tag_99:\n        /* \"#utility.yul\":9598:9601   */\n      0x00\n        /* \"#utility.yul\":9619:9686   */\n      tag_195\n        /* \"#utility.yul\":9683:9685   */\n      0x40\n        /* \"#utility.yul\":9678:9681   */\n      dup4\n        /* \"#utility.yul\":9619:9686   */\n      tag_91\n      jump\t// in\n    tag_195:\n        /* \"#utility.yul\":9612:9686   */\n      swap2\n      pop\n        /* \"#utility.yul\":9695:9788   */\n      tag_196\n        /* \"#utility.yul\":9784:9787   */\n      dup3\n        /* \"#utility.yul\":9695:9788   */\n      tag_98\n      jump\t// in\n    tag_196:\n        /* \"#utility.yul\":9813:9815   */\n      0x40\n        /* \"#utility.yul\":9808:9811   */\n      dup3\n        /* \"#utility.yul\":9804:9816   */\n      add\n        /* \"#utility.yul\":9797:9816   */\n      swap1\n      pop\n        /* \"#utility.yul\":9456:9822   */\n      swap2\n      swap1\n      pop\n      jump\t// out\n        /* \"#utility.yul\":9828:10247   */\n    tag_47:\n        /* \"#utility.yul\":9994:9998   */\n      0x00\n        /* \"#utility.yul\":10032:10034   */\n      0x20\n        /* \"#utility.yul\":10021:10030   */\n      dup3\n        /* \"#utility.yul\":10017:10035   */\n      add\n        /* \"#utility.yul\":10009:10035   */\n      swap1\n      pop\n        /* \"#utility.yul\":10081:10090   */\n      dup2\n        /* \"#utility.yul\":10075:10079   */\n      dup2\n        /* \"#utility.yul\":10071:10091   */\n      sub\n        /* \"#utility.yul\":10067:10068   */\n      0x00\n        /* \"#utility.yul\":10056:10065   */\n      dup4\n        /* \"#utility.yul\":10052:10069   */\n      add\n        /* \"#utility.yul\":10045:10092   */\n      mstore\n        /* \"#utility.yul\":10109:10240   */\n      tag_198\n        /* \"#utility.yul\":10235:10239   */\n      dup2\n        /* \"#utility.yul\":10109:10240   */\n      tag_99\n      jump\t// in\n    tag_198:\n        /* \"#utility.yul\":10101:10240   */\n      swap1\n      pop\n        /* \"#utility.yul\":9828:10247   */\n      swap2\n      swap1\n      pop\n      jump\t// out\n        /* \"#utility.yul\":10253:10433   */\n    tag_53:\n        /* \"#utility.yul\":10301:10378   */\n      0x4e487b7100000000000000000000000000000000000000000000000000000000\n        /* \"#utility.yul\":10298:10299   */\n      0x00\n        /* \"#utility.yul\":10291:10379   */\n      mstore\n        /* \"#utility.yul\":10398:10402   */\n      0x32\n        /* \"#utility.yul\":10395:10396   */\n      0x04\n        /* \"#utility.yul\":10388:10403   */\n      mstore\n        /* \"#utility.yul\":10422:10426   */\n      0x24\n        /* \"#utility.yul\":10419:10420   */\n      0x00\n        /* \"#utility.yul\":10412:10427   */\n      revert\n        /* \"#utility.yul\":10439:10528   */\n    tag_100:\n        /* \"#utility.yul\":10475:10482   */\n      0x00\n        /* \"#utility.yul\":10515:10521   */\n      0xffff\n        /* \"#utility.yul\":10508:10513   */\n      dup3\n        /* \"#utility.yul\":10504:10522   */\n      and\n        /* \"#utility.yul\":10493:10522   */\n      swap1\n      pop\n        /* \"#utility.yul\":10439:10528   */\n      swap2\n      swap1\n      pop\n      jump\t// out\n        /* \"#utility.yul\":10534:10654   */\n    tag_101:\n        /* \"#utility.yul\":10606:10629   */\n      tag_202\n        /* \"#utility.yul\":10623:10628   */\n      dup2\n        /* \"#utility.yul\":10606:10629   */\n      tag_100\n      jump\t// in\n    tag_202:\n        /* \"#utility.yul\":10599:10604   */\n      dup2\n        /* \"#utility.yul\":10596:10630   */\n      eq\n        /* \"#utility.yul\":10586:10648   */\n      tag_203\n      jumpi\n        /* \"#utility.yul\":10644:10645   */\n      0x00\n        /* \"#utility.yul\":10641:10642   */\n      dup1\n        /* \"#utility.yul\":10634:10646   */\n      revert\n        /* \"#utility.yul\":10586:10648   */\n    tag_203:\n        /* \"#utility.yul\":10534:10654   */\n      pop\n      jump\t// out\n        /* \"#utility.yul\":10660:10797   */\n    tag_102:\n        /* \"#utility.yul\":10705:10710   */\n      0x00\n        /* \"#utility.yul\":10743:10749   */\n      dup2\n        /* \"#utility.yul\":10730:10750   */\n      calldataload\n        /* \"#utility.yul\":10721:10750   */\n      swap1\n      pop\n        /* \"#utility.yul\":10759:10791   */\n      tag_205\n        /* \"#utility.yul\":10785:10790   */\n      dup2\n        /* \"#utility.yul\":10759:10791   */\n      tag_101\n      jump\t// in\n    tag_205:\n        /* \"#utility.yul\":10660:10797   */\n      swap3\n      swap2\n      pop\n      pop\n      jump\t// out\n        /* \"#utility.yul\":10803:11130   */\n    tag_58:\n        /* \"#utility.yul\":10861:10867   */\n      0x00\n        /* \"#utility.yul\":10910:10912   */\n      0x20\n        /* \"#utility.yul\":10898:10907   */\n      dup3\n        /* \"#utility.yul\":10889:10896   */\n      dup5\n        /* \"#utility.yul\":10885:10908   */\n      sub\n        /* \"#utility.yul\":10881:10913   */\n      slt\n        /* \"#utility.yul\":10878:10997   */\n      iszero\n      tag_207\n      jumpi\n        /* \"#utility.yul\":10916:10995   */\n      tag_208\n      tag_71\n      jump\t// in\n    tag_208:\n        /* \"#utility.yul\":10878:10997   */\n    tag_207:\n        /* \"#utility.yul\":11036:11037   */\n      0x00\n        /* \"#utility.yul\":11061:11113   */\n      tag_209\n        /* \"#utility.yul\":11105:11112   */\n      dup5\n        /* \"#utility.yul\":11096:11102   */\n      dup3\n        /* \"#utility.yul\":11085:11094   */\n      dup6\n        /* \"#utility.yul\":11081:11103   */\n      add\n        /* \"#utility.yul\":11061:11113   */\n      tag_102\n      jump\t// in\n    tag_209:\n        /* \"#utility.yul\":11051:11113   */\n      swap2\n      pop\n        /* \"#utility.yul\":11007:11123   */\n      pop\n        /* \"#utility.yul\":10803:11130   */\n      swap3\n      swap2\n      pop\n      pop\n      jump\t// out\n        /* \"#utility.yul\":11136:11363   */\n    tag_103:\n        /* \"#utility.yul\":11276:11310   */\n      0x566f6365206e616f20706f73737569206e656e68756d2074657374616d656e74\n        /* \"#utility.yul\":11272:11273   */\n      0x00\n        /* \"#utility.yul\":11264:11270   */\n      dup3\n        /* \"#utility.yul\":11260:11274   */\n      add\n        /* \"#utility.yul\":11253:11311   */\n      mstore\n        /* \"#utility.yul\":11345:11355   */\n      0x6f2063726961646f000000000000000000000000000000000000000000000000\n        /* \"#utility.yul\":11340:11342   */\n      0x20\n        /* \"#utility.yul\":11332:11338   */\n      dup3\n        /* \"#utility.yul\":11328:11343   */\n      add\n        /* \"#utility.yul\":11321:11356   */\n      mstore\n        /* \"#utility.yul\":11136:11363   */\n      pop\n      jump\t// out\n        /* \"#utility.yul\":11369:11735   */\n    tag_104:\n        /* \"#utility.yul\":11511:11514   */\n      0x00\n        /* \"#utility.yul\":11532:11599   */\n      tag_212\n        /* \"#utility.yul\":11596:11598   */\n      0x28\n        /* \"#utility.yul\":11591:11594   */\n      dup4\n        /* \"#utility.yul\":11532:11599   */\n      tag_91\n      jump\t// in\n    tag_212:\n        /* \"#utility.yul\":11525:11599   */\n      swap2\n      pop\n        /* \"#utility.yul\":11608:11701   */\n      tag_213\n        /* \"#utility.yul\":11697:11700   */\n      dup3\n        /* \"#utility.yul\":11608:11701   */\n      tag_103\n      jump\t// in\n    tag_213:\n        /* \"#utility.yul\":11726:11728   */\n      0x40\n        /* \"#utility.yul\":11721:11724   */\n      dup3\n        /* \"#utility.yul\":11717:11729   */\n      add\n        /* \"#utility.yul\":11710:11729   */\n      swap1\n      pop\n        /* \"#utility.yul\":11369:11735   */\n      swap2\n      swap1\n      pop\n      jump\t// out\n        /* \"#utility.yul\":11741:12160   */\n    tag_69:\n        /* \"#utility.yul\":11907:11911   */\n      0x00\n        /* \"#utility.yul\":11945:11947   */\n      0x20\n        /* \"#utility.yul\":11934:11943   */\n      dup3\n        /* \"#utility.yul\":11930:11948   */\n      add\n        /* \"#utility.yul\":11922:11948   */\n      swap1\n      pop\n        /* \"#utility.yul\":11994:12003   */\n      dup2\n        /* \"#utility.yul\":11988:11992   */\n      dup2\n        /* \"#utility.yul\":11984:12004   */\n      sub\n        /* \"#utility.yul\":11980:11981   */\n      0x00\n        /* \"#utility.yul\":11969:11978   */\n      dup4\n        /* \"#utility.yul\":11965:11982   */\n      add\n        /* \"#utility.yul\":11958:12005   */\n      mstore\n        /* \"#utility.yul\":12022:12153   */\n      tag_215\n        /* \"#utility.yul\":12148:12152   */\n      dup2\n        /* \"#utility.yul\":12022:12153   */\n      tag_104\n      jump\t// in\n    tag_215:\n        /* \"#utility.yul\":12014:12153   */\n      swap1\n      pop\n        /* \"#utility.yul\":11741:12160   */\n      swap2\n      swap1\n      pop\n      jump\t// out\n\n    auxdata: 0xa26469706673582212202f9eba5c72ef37edca67d6fc801342ce6a669d407988914387c1541c8d3d843864736f6c634300081a0033\n}\n",
				"bytecode": {
					"linkReferences": {},
					"object": "6080604052348015600e575f80fd5b50610d3b8061001c5f395ff3fe608060405260043610610049575f3560e01c80631aba6da61461004d5780631acb49b4146100635780635b084db9146100a157806367892597146100dd578063e7a84bc3146100f3575b5f80fd5b348015610058575f80fd5b5061006161010f565b005b34801561006e575f80fd5b50610089600480360381019061008491906106fa565b610111565b60405161009893929190610781565b60405180910390f35b3480156100ac575f80fd5b506100c760048036038101906100c291906107e0565b61015f565b6040516100d4919061082d565b60405180910390f35b3480156100e8575f80fd5b506100f16101a7565b005b61010d600480360381019061010891906108fc565b6101a9565b005b565b5f602052805f5260405f205f91509050806001015f9054906101000a900460ff16908060010160019054906101000a90046fffffffffffffffffffffffffffffffff16908060020154905083565b6001602052815f5260405f208181548110610178575f80fd5b905f5260205f20015f915091509054906101000a900473ffffffffffffffffffffffffffffffffffffffff1681565b565b5f34036101eb576040517f08c379a00000000000000000000000000000000000000000000000000000000081526004016101e2906109fa565b60405180910390fd5b5f8484905003610230576040517f08c379a000000000000000000000000000000000000000000000000000000000815260040161022790610a88565b60405180910390fd5b818190508484905014610278576040517f08c379a000000000000000000000000000000000000000000000000000000000815260040161026f90610b3c565b60405180910390fd5b5f3390505f808273ffffffffffffffffffffffffffffffffffffffff1673ffffffffffffffffffffffffffffffffffffffff1681526020019081526020015f206001015f9054906101000a900460ff1615610308576040517f08c379a00000000000000000000000000000000000000000000000000000000081526004016102ff90610bca565b60405180910390fd5b5f805f8373ffffffffffffffffffffffffffffffffffffffff1673ffffffffffffffffffffffffffffffffffffffff1681526020019081526020015f2090505f5b8686905081101561055a575f604051806060016040528089898581811061037357610372610be8565b5b905060200201602081019061038891906106fa565b73ffffffffffffffffffffffffffffffffffffffff1681526020018787858181106103b6576103b5610be8565b5b90506020020160208101906103cb9190610c4c565b61ffff16815260200160011515815250905060015f8989858181106103f3576103f2610be8565b5b905060200201602081019061040891906106fa565b73ffffffffffffffffffffffffffffffffffffffff1673ffffffffffffffffffffffffffffffffffffffff1681526020019081526020015f2084908060018154018082558091505060019003905f5260205f20015f9091909190916101000a81548173ffffffffffffffffffffffffffffffffffffffff021916908373ffffffffffffffffffffffffffffffffffffffff160217905550825f0181908060018154018082558091505060019003905f5260205f20015f909190919091505f820151815f015f6101000a81548173ffffffffffffffffffffffffffffffffffffffff021916908373ffffffffffffffffffffffffffffffffffffffff1602179055506020820151815f0160146101000a81548161ffff021916908361ffff1602179055506040820151815f0160166101000a81548160ff0219169083151502179055505050508080600101915050610349565b506001816001015f6101000a81548160ff021916908315150217905550348160020181905550610588610590565b505050505050565b5f3390505f808273ffffffffffffffffffffffffffffffffffffffff1673ffffffffffffffffffffffffffffffffffffffff1681526020019081526020015f206001015f9054906101000a900460ff1661061f576040517f08c379a000000000000000000000000000000000000000000000000000000000815260040161061690610ce7565b60405180910390fd5b425f808373ffffffffffffffffffffffffffffffffffffffff1673ffffffffffffffffffffffffffffffffffffffff1681526020019081526020015f2060010160016101000a8154816fffffffffffffffffffffffffffffffff02191690836fffffffffffffffffffffffffffffffff16021790555050565b5f80fd5b5f80fd5b5f73ffffffffffffffffffffffffffffffffffffffff82169050919050565b5f6106c9826106a0565b9050919050565b6106d9816106bf565b81146106e3575f80fd5b50565b5f813590506106f4816106d0565b92915050565b5f6020828403121561070f5761070e610698565b5b5f61071c848285016106e6565b91505092915050565b5f8115159050919050565b61073981610725565b82525050565b5f6fffffffffffffffffffffffffffffffff82169050919050565b6107638161073f565b82525050565b5f819050919050565b61077b81610769565b82525050565b5f6060820190506107945f830186610730565b6107a1602083018561075a565b6107ae6040830184610772565b949350505050565b6107bf81610769565b81146107c9575f80fd5b50565b5f813590506107da816107b6565b92915050565b5f80604083850312156107f6576107f5610698565b5b5f610803858286016106e6565b9250506020610814858286016107cc565b9150509250929050565b610827816106bf565b82525050565b5f6020820190506108405f83018461081e565b92915050565b5f80fd5b5f80fd5b5f80fd5b5f8083601f84011261086757610866610846565b5b8235905067ffffffffffffffff8111156108845761088361084a565b5b6020830191508360208202830111156108a05761089f61084e565b5b9250929050565b5f8083601f8401126108bc576108bb610846565b5b8235905067ffffffffffffffff8111156108d9576108d861084a565b5b6020830191508360208202830111156108f5576108f461084e565b5b9250929050565b5f805f806040858703121561091457610913610698565b5b5f85013567ffffffffffffffff8111156109315761093061069c565b5b61093d87828801610852565b9450945050602085013567ffffffffffffffff8111156109605761095f61069c565b5b61096c878288016108a7565b925092505092959194509250565b5f82825260208201905092915050565b7f637265617465496e6865726974616e636528292c2076616c6f7220696e76616c5f8201527f69646f0000000000000000000000000000000000000000000000000000000000602082015250565b5f6109e460238361097a565b91506109ef8261098a565b604082019050919050565b5f6020820190508181035f830152610a11816109d8565b9050919050565b7f637265617465496e6865726974616e636528292c2061646963696f6e65206f735f8201527f20686572646569726f7300000000000000000000000000000000000000000000602082015250565b5f610a72602a8361097a565b9150610a7d82610a18565b604082019050919050565b5f6020820190508181035f830152610a9f81610a66565b9050919050565b7f637265617465496e6865726974616e636528292c207175616e746964616465205f8201527f646520656e64657265636f73206520706f7263656e746167656e73206469666560208201527f72656e7465730000000000000000000000000000000000000000000000000000604082015250565b5f610b2660468361097a565b9150610b3182610aa6565b606082019050919050565b5f6020820190508181035f830152610b5381610b1a565b9050919050565b7f637265617465496e6865726974616e636528292c20766f6365206a612074656d5f8201527f20756d2074657374616d656e746f2063726961646f2c20656469746520656c65602082015250565b5f610bb460408361097a565b9150610bbf82610b5a565b604082019050919050565b5f6020820190508181035f830152610be181610ba8565b9050919050565b7f4e487b71000000000000000000000000000000000000000000000000000000005f52603260045260245ffd5b5f61ffff82169050919050565b610c2b81610c15565b8114610c35575f80fd5b50565b5f81359050610c4681610c22565b92915050565b5f60208284031215610c6157610c60610698565b5b5f610c6e84828501610c38565b91505092915050565b7f566f6365206e616f20706f73737569206e656e68756d2074657374616d656e745f8201527f6f2063726961646f000000000000000000000000000000000000000000000000602082015250565b5f610cd160288361097a565b9150610cdc82610c77565b604082019050919050565b5f6020820190508181035f830152610cfe81610cc5565b905091905056fea26469706673582212202f9eba5c72ef37edca67d6fc801342ce6a669d407988914387c1541c8d3d843864736f6c634300081a0033",
					"opcodes": "PUSH1 0x80 PUSH1 0x40 MSTORE CALLVALUE DUP1 ISZERO PUSH1 0xE JUMPI PUSH0 DUP1 REVERT JUMPDEST POP PUSH2 0xD3B DUP1 PUSH2 0x1C PUSH0 CODECOPY PUSH0 RETURN INVALID PUSH1 0x80 PUSH1 0x40 MSTORE PUSH1 0x4 CALLDATASIZE LT PUSH2 0x49 JUMPI PUSH0 CALLDATALOAD PUSH1 0xE0 SHR DUP1 PUSH4 0x1ABA6DA6 EQ PUSH2 0x4D JUMPI DUP1 PUSH4 0x1ACB49B4 EQ PUSH2 0x63 JUMPI DUP1 PUSH4 0x5B084DB9 EQ PUSH2 0xA1 JUMPI DUP1 PUSH4 0x67892597 EQ PUSH2 0xDD JUMPI DUP1 PUSH4 0xE7A84BC3 EQ PUSH2 0xF3 JUMPI JUMPDEST PUSH0 DUP1 REVERT JUMPDEST CALLVALUE DUP1 ISZERO PUSH2 0x58 JUMPI PUSH0 DUP1 REVERT JUMPDEST POP PUSH2 0x61 PUSH2 0x10F JUMP JUMPDEST STOP JUMPDEST CALLVALUE DUP1 ISZERO PUSH2 0x6E JUMPI PUSH0 DUP1 REVERT JUMPDEST POP PUSH2 0x89 PUSH1 0x4 DUP1 CALLDATASIZE SUB DUP2 ADD SWAP1 PUSH2 0x84 SWAP2 SWAP1 PUSH2 0x6FA JUMP JUMPDEST PUSH2 0x111 JUMP JUMPDEST PUSH1 0x40 MLOAD PUSH2 0x98 SWAP4 SWAP3 SWAP2 SWAP1 PUSH2 0x781 JUMP JUMPDEST PUSH1 0x40 MLOAD DUP1 SWAP2 SUB SWAP1 RETURN JUMPDEST CALLVALUE DUP1 ISZERO PUSH2 0xAC JUMPI PUSH0 DUP1 REVERT JUMPDEST POP PUSH2 0xC7 PUSH1 0x4 DUP1 CALLDATASIZE SUB DUP2 ADD SWAP1 PUSH2 0xC2 SWAP2 SWAP1 PUSH2 0x7E0 JUMP JUMPDEST PUSH2 0x15F JUMP JUMPDEST PUSH1 0x40 MLOAD PUSH2 0xD4 SWAP2 SWAP1 PUSH2 0x82D JUMP JUMPDEST PUSH1 0x40 MLOAD DUP1 SWAP2 SUB SWAP1 RETURN JUMPDEST CALLVALUE DUP1 ISZERO PUSH2 0xE8 JUMPI PUSH0 DUP1 REVERT JUMPDEST POP PUSH2 0xF1 PUSH2 0x1A7 JUMP JUMPDEST STOP JUMPDEST PUSH2 0x10D PUSH1 0x4 DUP1 CALLDATASIZE SUB DUP2 ADD SWAP1 PUSH2 0x108 SWAP2 SWAP1 PUSH2 0x8FC JUMP JUMPDEST PUSH2 0x1A9 JUMP JUMPDEST STOP JUMPDEST JUMP JUMPDEST PUSH0 PUSH1 0x20 MSTORE DUP1 PUSH0 MSTORE PUSH1 0x40 PUSH0 KECCAK256 PUSH0 SWAP2 POP SWAP1 POP DUP1 PUSH1 0x1 ADD PUSH0 SWAP1 SLOAD SWAP1 PUSH2 0x100 EXP SWAP1 DIV PUSH1 0xFF AND SWAP1 DUP1 PUSH1 0x1 ADD PUSH1 0x1 SWAP1 SLOAD SWAP1 PUSH2 0x100 EXP SWAP1 DIV PUSH16 0xFFFFFFFFFFFFFFFFFFFFFFFFFFFFFFFF AND SWAP1 DUP1 PUSH1 0x2 ADD SLOAD SWAP1 POP DUP4 JUMP JUMPDEST PUSH1 0x1 PUSH1 0x20 MSTORE DUP2 PUSH0 MSTORE PUSH1 0x40 PUSH0 KECCAK256 DUP2 DUP2 SLOAD DUP2 LT PUSH2 0x178 JUMPI PUSH0 DUP1 REVERT JUMPDEST SWAP1 PUSH0 MSTORE PUSH1 0x20 PUSH0 KECCAK256 ADD PUSH0 SWAP2 POP SWAP2 POP SWAP1 SLOAD SWAP1 PUSH2 0x100 EXP SWAP1 DIV PUSH20 0xFFFFFFFFFFFFFFFFFFFFFFFFFFFFFFFFFFFFFFFF AND DUP2 JUMP JUMPDEST JUMP JUMPDEST PUSH0 CALLVALUE SUB PUSH2 0x1EB JUMPI PUSH1 0x40 MLOAD PUSH32 0x8C379A000000000000000000000000000000000000000000000000000000000 DUP2 MSTORE PUSH1 0x4 ADD PUSH2 0x1E2 SWAP1 PUSH2 0x9FA JUMP JUMPDEST PUSH1 0x40 MLOAD DUP1 SWAP2 SUB SWAP1 REVERT JUMPDEST PUSH0 DUP5 DUP5 SWAP1 POP SUB PUSH2 0x230 JUMPI PUSH1 0x40 MLOAD PUSH32 0x8C379A000000000000000000000000000000000000000000000000000000000 DUP2 MSTORE PUSH1 0x4 ADD PUSH2 0x227 SWAP1 PUSH2 0xA88 JUMP JUMPDEST PUSH1 0x40 MLOAD DUP1 SWAP2 SUB SWAP1 REVERT JUMPDEST DUP2 DUP2 SWAP1 POP DUP5 DUP5 SWAP1 POP EQ PUSH2 0x278 JUMPI PUSH1 0x40 MLOAD PUSH32 0x8C379A000000000000000000000000000000000000000000000000000000000 DUP2 MSTORE PUSH1 0x4 ADD PUSH2 0x26F SWAP1 PUSH2 0xB3C JUMP JUMPDEST PUSH1 0x40 MLOAD DUP1 SWAP2 SUB SWAP1 REVERT JUMPDEST PUSH0 CALLER SWAP1 POP PUSH0 DUP1 DUP3 PUSH20 0xFFFFFFFFFFFFFFFFFFFFFFFFFFFFFFFFFFFFFFFF AND PUSH20 0xFFFFFFFFFFFFFFFFFFFFFFFFFFFFFFFFFFFFFFFF AND DUP2 MSTORE PUSH1 0x20 ADD SWAP1 DUP2 MSTORE PUSH1 0x20 ADD PUSH0 KECCAK256 PUSH1 0x1 ADD PUSH0 SWAP1 SLOAD SWAP1 PUSH2 0x100 EXP SWAP1 DIV PUSH1 0xFF AND ISZERO PUSH2 0x308 JUMPI PUSH1 0x40 MLOAD PUSH32 0x8C379A000000000000000000000000000000000000000000000000000000000 DUP2 MSTORE PUSH1 0x4 ADD PUSH2 0x2FF SWAP1 PUSH2 0xBCA JUMP JUMPDEST PUSH1 0x40 MLOAD DUP1 SWAP2 SUB SWAP1 REVERT JUMPDEST PUSH0 DUP1 PUSH0 DUP4 PUSH20 0xFFFFFFFFFFFFFFFFFFFFFFFFFFFFFFFFFFFFFFFF AND PUSH20 0xFFFFFFFFFFFFFFFFFFFFFFFFFFFFFFFFFFFFFFFF AND DUP2 MSTORE PUSH1 0x20 ADD SWAP1 DUP2 MSTORE PUSH1 0x20 ADD PUSH0 KECCAK256 SWAP1 POP PUSH0 JUMPDEST DUP7 DUP7 SWAP1 POP DUP2 LT ISZERO PUSH2 0x55A JUMPI PUSH0 PUSH1 0x40 MLOAD DUP1 PUSH1 0x60 ADD PUSH1 0x40 MSTORE DUP1 DUP10 DUP10 DUP6 DUP2 DUP2 LT PUSH2 0x373 JUMPI PUSH2 0x372 PUSH2 0xBE8 JUMP JUMPDEST JUMPDEST SWAP1 POP PUSH1 0x20 MUL ADD PUSH1 0x20 DUP2 ADD SWAP1 PUSH2 0x388 SWAP2 SWAP1 PUSH2 0x6FA JUMP JUMPDEST PUSH20 0xFFFFFFFFFFFFFFFFFFFFFFFFFFFFFFFFFFFFFFFF AND DUP2 MSTORE PUSH1 0x20 ADD DUP8 DUP8 DUP6 DUP2 DUP2 LT PUSH2 0x3B6 JUMPI PUSH2 0x3B5 PUSH2 0xBE8 JUMP JUMPDEST JUMPDEST SWAP1 POP PUSH1 0x20 MUL ADD PUSH1 0x20 DUP2 ADD SWAP1 PUSH2 0x3CB SWAP2 SWAP1 PUSH2 0xC4C JUMP JUMPDEST PUSH2 0xFFFF AND DUP2 MSTORE PUSH1 0x20 ADD PUSH1 0x1 ISZERO ISZERO DUP2 MSTORE POP SWAP1 POP PUSH1 0x1 PUSH0 DUP10 DUP10 DUP6 DUP2 DUP2 LT PUSH2 0x3F3 JUMPI PUSH2 0x3F2 PUSH2 0xBE8 JUMP JUMPDEST JUMPDEST SWAP1 POP PUSH1 0x20 MUL ADD PUSH1 0x20 DUP2 ADD SWAP1 PUSH2 0x408 SWAP2 SWAP1 PUSH2 0x6FA JUMP JUMPDEST PUSH20 0xFFFFFFFFFFFFFFFFFFFFFFFFFFFFFFFFFFFFFFFF AND PUSH20 0xFFFFFFFFFFFFFFFFFFFFFFFFFFFFFFFFFFFFFFFF AND DUP2 MSTORE PUSH1 0x20 ADD SWAP1 DUP2 MSTORE PUSH1 0x20 ADD PUSH0 KECCAK256 DUP5 SWAP1 DUP1 PUSH1 0x1 DUP2 SLOAD ADD DUP1 DUP3 SSTORE DUP1 SWAP2 POP POP PUSH1 0x1 SWAP1 SUB SWAP1 PUSH0 MSTORE PUSH1 0x20 PUSH0 KECCAK256 ADD PUSH0 SWAP1 SWAP2 SWAP1 SWAP2 SWAP1 SWAP2 PUSH2 0x100 EXP DUP2 SLOAD DUP2 PUSH20 0xFFFFFFFFFFFFFFFFFFFFFFFFFFFFFFFFFFFFFFFF MUL NOT AND SWAP1 DUP4 PUSH20 0xFFFFFFFFFFFFFFFFFFFFFFFFFFFFFFFFFFFFFFFF AND MUL OR SWAP1 SSTORE POP DUP3 PUSH0 ADD DUP2 SWAP1 DUP1 PUSH1 0x1 DUP2 SLOAD ADD DUP1 DUP3 SSTORE DUP1 SWAP2 POP POP PUSH1 0x1 SWAP1 SUB SWAP1 PUSH0 MSTORE PUSH1 0x20 PUSH0 KECCAK256 ADD PUSH0 SWAP1 SWAP2 SWAP1 SWAP2 SWAP1 SWAP2 POP PUSH0 DUP3 ADD MLOAD DUP2 PUSH0 ADD PUSH0 PUSH2 0x100 EXP DUP2 SLOAD DUP2 PUSH20 0xFFFFFFFFFFFFFFFFFFFFFFFFFFFFFFFFFFFFFFFF MUL NOT AND SWAP1 DUP4 PUSH20 0xFFFFFFFFFFFFFFFFFFFFFFFFFFFFFFFFFFFFFFFF AND MUL OR SWAP1 SSTORE POP PUSH1 0x20 DUP3 ADD MLOAD DUP2 PUSH0 ADD PUSH1 0x14 PUSH2 0x100 EXP DUP2 SLOAD DUP2 PUSH2 0xFFFF MUL NOT AND SWAP1 DUP4 PUSH2 0xFFFF AND MUL OR SWAP1 SSTORE POP PUSH1 0x40 DUP3 ADD MLOAD DUP2 PUSH0 ADD PUSH1 0x16 PUSH2 0x100 EXP DUP2 SLOAD DUP2 PUSH1 0xFF MUL NOT AND SWAP1 DUP4 ISZERO ISZERO MUL OR SWAP1 SSTORE POP POP POP POP DUP1 DUP1 PUSH1 0x1 ADD SWAP2 POP POP PUSH2 0x349 JUMP JUMPDEST POP PUSH1 0x1 DUP2 PUSH1 0x1 ADD PUSH0 PUSH2 0x100 EXP DUP2 SLOAD DUP2 PUSH1 0xFF MUL NOT AND SWAP1 DUP4 ISZERO ISZERO MUL OR SWAP1 SSTORE POP CALLVALUE DUP2 PUSH1 0x2 ADD DUP2 SWAP1 SSTORE POP PUSH2 0x588 PUSH2 0x590 JUMP JUMPDEST POP POP POP POP POP POP JUMP JUMPDEST PUSH0 CALLER SWAP1 POP PUSH0 DUP1 DUP3 PUSH20 0xFFFFFFFFFFFFFFFFFFFFFFFFFFFFFFFFFFFFFFFF AND PUSH20 0xFFFFFFFFFFFFFFFFFFFFFFFFFFFFFFFFFFFFFFFF AND DUP2 MSTORE PUSH1 0x20 ADD SWAP1 DUP2 MSTORE PUSH1 0x20 ADD PUSH0 KECCAK256 PUSH1 0x1 ADD PUSH0 SWAP1 SLOAD SWAP1 PUSH2 0x100 EXP SWAP1 DIV PUSH1 0xFF AND PUSH2 0x61F JUMPI PUSH1 0x40 MLOAD PUSH32 0x8C379A000000000000000000000000000000000000000000000000000000000 DUP2 MSTORE PUSH1 0x4 ADD PUSH2 0x616 SWAP1 PUSH2 0xCE7 JUMP JUMPDEST PUSH1 0x40 MLOAD DUP1 SWAP2 SUB SWAP1 REVERT JUMPDEST TIMESTAMP PUSH0 DUP1 DUP4 PUSH20 0xFFFFFFFFFFFFFFFFFFFFFFFFFFFFFFFFFFFFFFFF AND PUSH20 0xFFFFFFFFFFFFFFFFFFFFFFFFFFFFFFFFFFFFFFFF AND DUP2 MSTORE PUSH1 0x20 ADD SWAP1 DUP2 MSTORE PUSH1 0x20 ADD PUSH0 KECCAK256 PUSH1 0x1 ADD PUSH1 0x1 PUSH2 0x100 EXP DUP2 SLOAD DUP2 PUSH16 0xFFFFFFFFFFFFFFFFFFFFFFFFFFFFFFFF MUL NOT AND SWAP1 DUP4 PUSH16 0xFFFFFFFFFFFFFFFFFFFFFFFFFFFFFFFF AND MUL OR SWAP1 SSTORE POP POP JUMP JUMPDEST PUSH0 DUP1 REVERT JUMPDEST PUSH0 DUP1 REVERT JUMPDEST PUSH0 PUSH20 0xFFFFFFFFFFFFFFFFFFFFFFFFFFFFFFFFFFFFFFFF DUP3 AND SWAP1 POP SWAP2 SWAP1 POP JUMP JUMPDEST PUSH0 PUSH2 0x6C9 DUP3 PUSH2 0x6A0 JUMP JUMPDEST SWAP1 POP SWAP2 SWAP1 POP JUMP JUMPDEST PUSH2 0x6D9 DUP2 PUSH2 0x6BF JUMP JUMPDEST DUP2 EQ PUSH2 0x6E3 JUMPI PUSH0 DUP1 REVERT JUMPDEST POP JUMP JUMPDEST PUSH0 DUP2 CALLDATALOAD SWAP1 POP PUSH2 0x6F4 DUP2 PUSH2 0x6D0 JUMP JUMPDEST SWAP3 SWAP2 POP POP JUMP JUMPDEST PUSH0 PUSH1 0x20 DUP3 DUP5 SUB SLT ISZERO PUSH2 0x70F JUMPI PUSH2 0x70E PUSH2 0x698 JUMP JUMPDEST JUMPDEST PUSH0 PUSH2 0x71C DUP5 DUP3 DUP6 ADD PUSH2 0x6E6 JUMP JUMPDEST SWAP2 POP POP SWAP3 SWAP2 POP POP JUMP JUMPDEST PUSH0 DUP2 ISZERO ISZERO SWAP1 POP SWAP2 SWAP1 POP JUMP JUMPDEST PUSH2 0x739 DUP2 PUSH2 0x725 JUMP JUMPDEST DUP3 MSTORE POP POP JUMP JUMPDEST PUSH0 PUSH16 0xFFFFFFFFFFFFFFFFFFFFFFFFFFFFFFFF DUP3 AND SWAP1 POP SWAP2 SWAP1 POP JUMP JUMPDEST PUSH2 0x763 DUP2 PUSH2 0x73F JUMP JUMPDEST DUP3 MSTORE POP POP JUMP JUMPDEST PUSH0 DUP2 SWAP1 POP SWAP2 SWAP1 POP JUMP JUMPDEST PUSH2 0x77B DUP2 PUSH2 0x769 JUMP JUMPDEST DUP3 MSTORE POP POP JUMP JUMPDEST PUSH0 PUSH1 0x60 DUP3 ADD SWAP1 POP PUSH2 0x794 PUSH0 DUP4 ADD DUP7 PUSH2 0x730 JUMP JUMPDEST PUSH2 0x7A1 PUSH1 0x20 DUP4 ADD DUP6 PUSH2 0x75A JUMP JUMPDEST PUSH2 0x7AE PUSH1 0x40 DUP4 ADD DUP5 PUSH2 0x772 JUMP JUMPDEST SWAP5 SWAP4 POP POP POP POP JUMP JUMPDEST PUSH2 0x7BF DUP2 PUSH2 0x769 JUMP JUMPDEST DUP2 EQ PUSH2 0x7C9 JUMPI PUSH0 DUP1 REVERT JUMPDEST POP JUMP JUMPDEST PUSH0 DUP2 CALLDATALOAD SWAP1 POP PUSH2 0x7DA DUP2 PUSH2 0x7B6 JUMP JUMPDEST SWAP3 SWAP2 POP POP JUMP JUMPDEST PUSH0 DUP1 PUSH1 0x40 DUP4 DUP6 SUB SLT ISZERO PUSH2 0x7F6 JUMPI PUSH2 0x7F5 PUSH2 0x698 JUMP JUMPDEST JUMPDEST PUSH0 PUSH2 0x803 DUP6 DUP3 DUP7 ADD PUSH2 0x6E6 JUMP JUMPDEST SWAP3 POP POP PUSH1 0x20 PUSH2 0x814 DUP6 DUP3 DUP7 ADD PUSH2 0x7CC JUMP JUMPDEST SWAP2 POP POP SWAP3 POP SWAP3 SWAP1 POP JUMP JUMPDEST PUSH2 0x827 DUP2 PUSH2 0x6BF JUMP JUMPDEST DUP3 MSTORE POP POP JUMP JUMPDEST PUSH0 PUSH1 0x20 DUP3 ADD SWAP1 POP PUSH2 0x840 PUSH0 DUP4 ADD DUP5 PUSH2 0x81E JUMP JUMPDEST SWAP3 SWAP2 POP POP JUMP JUMPDEST PUSH0 DUP1 REVERT JUMPDEST PUSH0 DUP1 REVERT JUMPDEST PUSH0 DUP1 REVERT JUMPDEST PUSH0 DUP1 DUP4 PUSH1 0x1F DUP5 ADD SLT PUSH2 0x867 JUMPI PUSH2 0x866 PUSH2 0x846 JUMP JUMPDEST JUMPDEST DUP3 CALLDATALOAD SWAP1 POP PUSH8 0xFFFFFFFFFFFFFFFF DUP2 GT ISZERO PUSH2 0x884 JUMPI PUSH2 0x883 PUSH2 0x84A JUMP JUMPDEST JUMPDEST PUSH1 0x20 DUP4 ADD SWAP2 POP DUP4 PUSH1 0x20 DUP3 MUL DUP4 ADD GT ISZERO PUSH2 0x8A0 JUMPI PUSH2 0x89F PUSH2 0x84E JUMP JUMPDEST JUMPDEST SWAP3 POP SWAP3 SWAP1 POP JUMP JUMPDEST PUSH0 DUP1 DUP4 PUSH1 0x1F DUP5 ADD SLT PUSH2 0x8BC JUMPI PUSH2 0x8BB PUSH2 0x846 JUMP JUMPDEST JUMPDEST DUP3 CALLDATALOAD SWAP1 POP PUSH8 0xFFFFFFFFFFFFFFFF DUP2 GT ISZERO PUSH2 0x8D9 JUMPI PUSH2 0x8D8 PUSH2 0x84A JUMP JUMPDEST JUMPDEST PUSH1 0x20 DUP4 ADD SWAP2 POP DUP4 PUSH1 0x20 DUP3 MUL DUP4 ADD GT ISZERO PUSH2 0x8F5 JUMPI PUSH2 0x8F4 PUSH2 0x84E JUMP JUMPDEST JUMPDEST SWAP3 POP SWAP3 SWAP1 POP JUMP JUMPDEST PUSH0 DUP1 PUSH0 DUP1 PUSH1 0x40 DUP6 DUP8 SUB SLT ISZERO PUSH2 0x914 JUMPI PUSH2 0x913 PUSH2 0x698 JUMP JUMPDEST JUMPDEST PUSH0 DUP6 ADD CALLDATALOAD PUSH8 0xFFFFFFFFFFFFFFFF DUP2 GT ISZERO PUSH2 0x931 JUMPI PUSH2 0x930 PUSH2 0x69C JUMP JUMPDEST JUMPDEST PUSH2 0x93D DUP8 DUP3 DUP9 ADD PUSH2 0x852 JUMP JUMPDEST SWAP5 POP SWAP5 POP POP PUSH1 0x20 DUP6 ADD CALLDATALOAD PUSH8 0xFFFFFFFFFFFFFFFF DUP2 GT ISZERO PUSH2 0x960 JUMPI PUSH2 0x95F PUSH2 0x69C JUMP JUMPDEST JUMPDEST PUSH2 0x96C DUP8 DUP3 DUP9 ADD PUSH2 0x8A7 JUMP JUMPDEST SWAP3 POP SWAP3 POP POP SWAP3 SWAP6 SWAP2 SWAP5 POP SWAP3 POP JUMP JUMPDEST PUSH0 DUP3 DUP3 MSTORE PUSH1 0x20 DUP3 ADD SWAP1 POP SWAP3 SWAP2 POP POP JUMP JUMPDEST PUSH32 0x637265617465496E6865726974616E636528292C2076616C6F7220696E76616C PUSH0 DUP3 ADD MSTORE PUSH32 0x69646F0000000000000000000000000000000000000000000000000000000000 PUSH1 0x20 DUP3 ADD MSTORE POP JUMP JUMPDEST PUSH0 PUSH2 0x9E4 PUSH1 0x23 DUP4 PUSH2 0x97A JUMP JUMPDEST SWAP2 POP PUSH2 0x9EF DUP3 PUSH2 0x98A JUMP JUMPDEST PUSH1 0x40 DUP3 ADD SWAP1 POP SWAP2 SWAP1 POP JUMP JUMPDEST PUSH0 PUSH1 0x20 DUP3 ADD SWAP1 POP DUP2 DUP2 SUB PUSH0 DUP4 ADD MSTORE PUSH2 0xA11 DUP2 PUSH2 0x9D8 JUMP JUMPDEST SWAP1 POP SWAP2 SWAP1 POP JUMP JUMPDEST PUSH32 0x637265617465496E6865726974616E636528292C2061646963696F6E65206F73 PUSH0 DUP3 ADD MSTORE PUSH32 0x20686572646569726F7300000000000000000000000000000000000000000000 PUSH1 0x20 DUP3 ADD MSTORE POP JUMP JUMPDEST PUSH0 PUSH2 0xA72 PUSH1 0x2A DUP4 PUSH2 0x97A JUMP JUMPDEST SWAP2 POP PUSH2 0xA7D DUP3 PUSH2 0xA18 JUMP JUMPDEST PUSH1 0x40 DUP3 ADD SWAP1 POP SWAP2 SWAP1 POP JUMP JUMPDEST PUSH0 PUSH1 0x20 DUP3 ADD SWAP1 POP DUP2 DUP2 SUB PUSH0 DUP4 ADD MSTORE PUSH2 0xA9F DUP2 PUSH2 0xA66 JUMP JUMPDEST SWAP1 POP SWAP2 SWAP1 POP JUMP JUMPDEST PUSH32 0x637265617465496E6865726974616E636528292C207175616E74696461646520 PUSH0 DUP3 ADD MSTORE PUSH32 0x646520656E64657265636F73206520706F7263656E746167656E732064696665 PUSH1 0x20 DUP3 ADD MSTORE PUSH32 0x72656E7465730000000000000000000000000000000000000000000000000000 PUSH1 0x40 DUP3 ADD MSTORE POP JUMP JUMPDEST PUSH0 PUSH2 0xB26 PUSH1 0x46 DUP4 PUSH2 0x97A JUMP JUMPDEST SWAP2 POP PUSH2 0xB31 DUP3 PUSH2 0xAA6 JUMP JUMPDEST PUSH1 0x60 DUP3 ADD SWAP1 POP SWAP2 SWAP1 POP JUMP JUMPDEST PUSH0 PUSH1 0x20 DUP3 ADD SWAP1 POP DUP2 DUP2 SUB PUSH0 DUP4 ADD MSTORE PUSH2 0xB53 DUP2 PUSH2 0xB1A JUMP JUMPDEST SWAP1 POP SWAP2 SWAP1 POP JUMP JUMPDEST PUSH32 0x637265617465496E6865726974616E636528292C20766F6365206A612074656D PUSH0 DUP3 ADD MSTORE PUSH32 0x20756D2074657374616D656E746F2063726961646F2C20656469746520656C65 PUSH1 0x20 DUP3 ADD MSTORE POP JUMP JUMPDEST PUSH0 PUSH2 0xBB4 PUSH1 0x40 DUP4 PUSH2 0x97A JUMP JUMPDEST SWAP2 POP PUSH2 0xBBF DUP3 PUSH2 0xB5A JUMP JUMPDEST PUSH1 0x40 DUP3 ADD SWAP1 POP SWAP2 SWAP1 POP JUMP JUMPDEST PUSH0 PUSH1 0x20 DUP3 ADD SWAP1 POP DUP2 DUP2 SUB PUSH0 DUP4 ADD MSTORE PUSH2 0xBE1 DUP2 PUSH2 0xBA8 JUMP JUMPDEST SWAP1 POP SWAP2 SWAP1 POP JUMP JUMPDEST PUSH32 0x4E487B7100000000000000000000000000000000000000000000000000000000 PUSH0 MSTORE PUSH1 0x32 PUSH1 0x4 MSTORE PUSH1 0x24 PUSH0 REVERT JUMPDEST PUSH0 PUSH2 0xFFFF DUP3 AND SWAP1 POP SWAP2 SWAP1 POP JUMP JUMPDEST PUSH2 0xC2B DUP2 PUSH2 0xC15 JUMP JUMPDEST DUP2 EQ PUSH2 0xC35 JUMPI PUSH0 DUP1 REVERT JUMPDEST POP JUMP JUMPDEST PUSH0 DUP2 CALLDATALOAD SWAP1 POP PUSH2 0xC46 DUP2 PUSH2 0xC22 JUMP JUMPDEST SWAP3 SWAP2 POP POP JUMP JUMPDEST PUSH0 PUSH1 0x20 DUP3 DUP5 SUB SLT ISZERO PUSH2 0xC61 JUMPI PUSH2 0xC60 PUSH2 0x698 JUMP JUMPDEST JUMPDEST PUSH0 PUSH2 0xC6E DUP5 DUP3 DUP6 ADD PUSH2 0xC38 JUMP JUMPDEST SWAP2 POP POP SWAP3 SWAP2 POP POP JUMP JUMPDEST PUSH32 0x566F6365206E616F20706F73737569206E656E68756D2074657374616D656E74 PUSH0 DUP3 ADD MSTORE PUSH32 0x6F2063726961646F000000000000000000000000000000000000000000000000 PUSH1 0x20 DUP3 ADD MSTORE POP JUMP JUMPDEST PUSH0 PUSH2 0xCD1 PUSH1 0x28 DUP4 PUSH2 0x97A JUMP JUMPDEST SWAP2 POP PUSH2 0xCDC DUP3 PUSH2 0xC77 JUMP JUMPDEST PUSH1 0x40 DUP3 ADD SWAP1 POP SWAP2 SWAP1 POP JUMP JUMPDEST PUSH0 PUSH1 0x20 DUP3 ADD SWAP1 POP DUP2 DUP2 SUB PUSH0 DUP4 ADD MSTORE PUSH2 0xCFE DUP2 PUSH2 0xCC5 JUMP JUMPDEST SWAP1 POP SWAP2 SWAP1 POP JUMP INVALID LOG2 PUSH5 0x6970667358 0x22 SLT KECCAK256 0x2F SWAP15 0xBA TLOAD PUSH19 0xEF37EDCA67D6FC801342CE6A669D4079889143 DUP8 0xC1 SLOAD SHR DUP14 RETURNDATASIZE DUP5 CODESIZE PUSH5 0x736F6C6343 STOP ADDMOD BYTE STOP CALLER "
				},
				"gasEstimates": {
					"creation": {
						"codeDepositCost": "677400",
						"executionCost": "706",
						"totalCost": "678106"
					},
					"external": {
						"cancelTestament()": "121",
						"createInheritance(address[],uint16[])": "infinite",
						"editInheritorsInMyTestament()": "187",
						"inheritorToTestators(address,uint256)": "infinite",
						"testaments(address)": "7370"
					}
				},
				"methodIdentifiers": {
					"cancelTestament()": "1aba6da6",
					"createInheritance(address[],uint16[])": "e7a84bc3",
					"editInheritorsInMyTestament()": "67892597",
					"inheritorToTestators(address,uint256)": "5b084db9",
					"testaments(address)": "1acb49b4"
				}
			},
			"storageLayout": {
				"storage": [
					{
						"astId": 212,
						"contract": ".deps/studying-solidity/v0.1/TestamentCore.sol:TestamentCore",
						"label": "testaments",
						"offset": 0,
						"slot": "0",
						"type": "t_mapping(t_address,t_struct(Testament)207_storage)"
					},
					{
						"astId": 217,
						"contract": ".deps/studying-solidity/v0.1/TestamentCore.sol:TestamentCore",
						"label": "inheritorToTestators",
						"offset": 0,
						"slot": "1",
						"type": "t_mapping(t_address,t_array(t_address)dyn_storage)"
					}
				],
				"types": {
					"t_address": {
						"encoding": "inplace",
						"label": "address",
						"numberOfBytes": "20"
					},
					"t_array(t_address)dyn_storage": {
						"base": "t_address",
						"encoding": "dynamic_array",
						"label": "address[]",
						"numberOfBytes": "32"
					},
					"t_array(t_struct(Inheritor)196_storage)dyn_storage": {
						"base": "t_struct(Inheritor)196_storage",
						"encoding": "dynamic_array",
						"label": "struct TestamentStorage.Inheritor[]",
						"numberOfBytes": "32"
					},
					"t_bool": {
						"encoding": "inplace",
						"label": "bool",
						"numberOfBytes": "1"
					},
					"t_mapping(t_address,t_array(t_address)dyn_storage)": {
						"encoding": "mapping",
						"key": "t_address",
						"label": "mapping(address => address[])",
						"numberOfBytes": "32",
						"value": "t_array(t_address)dyn_storage"
					},
					"t_mapping(t_address,t_struct(Testament)207_storage)": {
						"encoding": "mapping",
						"key": "t_address",
						"label": "mapping(address => struct TestamentStorage.Testament)",
						"numberOfBytes": "32",
						"value": "t_struct(Testament)207_storage"
					},
					"t_struct(Inheritor)196_storage": {
						"encoding": "inplace",
						"label": "struct TestamentStorage.Inheritor",
						"members": [
							{
								"astId": 191,
								"contract": ".deps/studying-solidity/v0.1/TestamentCore.sol:TestamentCore",
								"label": "inheritorAddress",
								"offset": 0,
								"slot": "0",
								"type": "t_address"
							},
							{
								"astId": 193,
								"contract": ".deps/studying-solidity/v0.1/TestamentCore.sol:TestamentCore",
								"label": "percentage",
								"offset": 20,
								"slot": "0",
								"type": "t_uint16"
							},
							{
								"astId": 195,
								"contract": ".deps/studying-solidity/v0.1/TestamentCore.sol:TestamentCore",
								"label": "canWithdraw",
								"offset": 22,
								"slot": "0",
								"type": "t_bool"
							}
						],
						"numberOfBytes": "32"
					},
					"t_struct(Testament)207_storage": {
						"encoding": "inplace",
						"label": "struct TestamentStorage.Testament",
						"members": [
							{
								"astId": 200,
								"contract": ".deps/studying-solidity/v0.1/TestamentCore.sol:TestamentCore",
								"label": "inheritors",
								"offset": 0,
								"slot": "0",
								"type": "t_array(t_struct(Inheritor)196_storage)dyn_storage"
							},
							{
								"astId": 202,
								"contract": ".deps/studying-solidity/v0.1/TestamentCore.sol:TestamentCore",
								"label": "exist",
								"offset": 0,
								"slot": "1",
								"type": "t_bool"
							},
							{
								"astId": 204,
								"contract": ".deps/studying-solidity/v0.1/TestamentCore.sol:TestamentCore",
								"label": "lastProofOfLife",
								"offset": 1,
								"slot": "1",
								"type": "t_uint128"
							},
							{
								"astId": 206,
								"contract": ".deps/studying-solidity/v0.1/TestamentCore.sol:TestamentCore",
								"label": "inheritanceTotalValue",
								"offset": 0,
								"slot": "2",
								"type": "t_uint256"
							}
						],
						"numberOfBytes": "96"
					},
					"t_uint128": {
						"encoding": "inplace",
						"label": "uint128",
						"numberOfBytes": "16"
					},
					"t_uint16": {
						"encoding": "inplace",
						"label": "uint16",
						"numberOfBytes": "2"
					},
					"t_uint256": {
						"encoding": "inplace",
						"label": "uint256",
						"numberOfBytes": "32"
					}
				}
			},
			"userdoc": {
				"kind": "user",
				"methods": {},
				"version": 1
			}
		}
	}
}