{
	".deps/studying-solidity/v0.1/Testament/TestamentCore.sol": {
		"TestamentCore": {
			"abi": [
				{
					"inputs": [],
					"name": "AccessControlBadConfirmation",
					"type": "error"
				},
				{
					"inputs": [
						{
							"internalType": "address",
							"name": "account",
							"type": "address"
						},
						{
							"internalType": "bytes32",
							"name": "neededRole",
							"type": "bytes32"
						}
					],
					"name": "AccessControlUnauthorizedAccount",
					"type": "error"
				},
				{
					"inputs": [
						{
							"internalType": "address",
							"name": "target",
							"type": "address"
						}
					],
					"name": "AddressEmptyCode",
					"type": "error"
				},
				{
					"inputs": [
						{
							"internalType": "address",
							"name": "implementation",
							"type": "address"
						}
					],
					"name": "ERC1967InvalidImplementation",
					"type": "error"
				},
				{
					"inputs": [],
					"name": "ERC1967NonPayable",
					"type": "error"
				},
				{
					"inputs": [],
					"name": "FailedCall",
					"type": "error"
				},
				{
					"inputs": [],
					"name": "InvalidInitialization",
					"type": "error"
				},
				{
					"inputs": [],
					"name": "NotInitializing",
					"type": "error"
				},
				{
					"inputs": [
						{
							"internalType": "address",
							"name": "owner",
							"type": "address"
						}
					],
					"name": "OwnableInvalidOwner",
					"type": "error"
				},
				{
					"inputs": [
						{
							"internalType": "address",
							"name": "account",
							"type": "address"
						}
					],
					"name": "OwnableUnauthorizedAccount",
					"type": "error"
				},
				{
					"inputs": [],
					"name": "UUPSUnauthorizedCallContext",
					"type": "error"
				},
				{
					"inputs": [
						{
							"internalType": "bytes32",
							"name": "slot",
							"type": "bytes32"
						}
					],
					"name": "UUPSUnsupportedProxiableUUID",
					"type": "error"
				},
				{
					"anonymous": false,
					"inputs": [
						{
							"indexed": false,
							"internalType": "uint64",
							"name": "version",
							"type": "uint64"
						}
					],
					"name": "Initialized",
					"type": "event"
				},
				{
					"anonymous": false,
					"inputs": [
						{
							"indexed": true,
							"internalType": "address",
							"name": "previousOwner",
							"type": "address"
						},
						{
							"indexed": true,
							"internalType": "address",
							"name": "newOwner",
							"type": "address"
						}
					],
					"name": "OwnershipTransferred",
					"type": "event"
				},
				{
					"anonymous": false,
					"inputs": [
						{
							"indexed": false,
							"internalType": "address",
							"name": "account",
							"type": "address"
						}
					],
					"name": "Paused",
					"type": "event"
				},
				{
					"anonymous": false,
					"inputs": [
						{
							"indexed": true,
							"internalType": "bytes32",
							"name": "role",
							"type": "bytes32"
						},
						{
							"indexed": true,
							"internalType": "bytes32",
							"name": "previousAdminRole",
							"type": "bytes32"
						},
						{
							"indexed": true,
							"internalType": "bytes32",
							"name": "newAdminRole",
							"type": "bytes32"
						}
					],
					"name": "RoleAdminChanged",
					"type": "event"
				},
				{
					"anonymous": false,
					"inputs": [
						{
							"indexed": true,
							"internalType": "bytes32",
							"name": "role",
							"type": "bytes32"
						},
						{
							"indexed": true,
							"internalType": "address",
							"name": "account",
							"type": "address"
						},
						{
							"indexed": true,
							"internalType": "address",
							"name": "sender",
							"type": "address"
						}
					],
					"name": "RoleGranted",
					"type": "event"
				},
				{
					"anonymous": false,
					"inputs": [
						{
							"indexed": true,
							"internalType": "bytes32",
							"name": "role",
							"type": "bytes32"
						},
						{
							"indexed": true,
							"internalType": "address",
							"name": "account",
							"type": "address"
						},
						{
							"indexed": true,
							"internalType": "address",
							"name": "sender",
							"type": "address"
						}
					],
					"name": "RoleRevoked",
					"type": "event"
				},
				{
					"anonymous": false,
					"inputs": [
						{
							"indexed": false,
							"internalType": "address",
							"name": "account",
							"type": "address"
						}
					],
					"name": "Unpaused",
					"type": "event"
				},
				{
					"anonymous": false,
					"inputs": [
						{
							"indexed": true,
							"internalType": "address",
							"name": "implementation",
							"type": "address"
						}
					],
					"name": "Upgraded",
					"type": "event"
				},
				{
					"inputs": [],
					"name": "DEFAULT_ADMIN_ROLE",
					"outputs": [
						{
							"internalType": "bytes32",
							"name": "",
							"type": "bytes32"
						}
					],
					"stateMutability": "view",
					"type": "function"
				},
				{
					"inputs": [],
					"name": "UPGRADE_INTERFACE_VERSION",
					"outputs": [
						{
							"internalType": "string",
							"name": "",
							"type": "string"
						}
					],
					"stateMutability": "view",
					"type": "function"
				},
				{
					"inputs": [],
					"name": "cancelTestament",
					"outputs": [],
					"stateMutability": "nonpayable",
					"type": "function"
				},
				{
					"inputs": [
						{
							"internalType": "address[]",
							"name": "_addresses",
							"type": "address[]"
						},
						{
							"internalType": "uint16[]",
							"name": "_percentagens",
							"type": "uint16[]"
						}
					],
					"name": "createInheritance",
					"outputs": [],
					"stateMutability": "payable",
					"type": "function"
				},
				{
					"inputs": [],
					"name": "editInheritorsInMyTestament",
					"outputs": [],
					"stateMutability": "nonpayable",
					"type": "function"
				},
				{
					"inputs": [
						{
							"internalType": "bytes32",
							"name": "role",
							"type": "bytes32"
						}
					],
					"name": "getRoleAdmin",
					"outputs": [
						{
							"internalType": "bytes32",
							"name": "",
							"type": "bytes32"
						}
					],
					"stateMutability": "view",
					"type": "function"
				},
				{
					"inputs": [
						{
							"internalType": "bytes32",
							"name": "role",
							"type": "bytes32"
						},
						{
							"internalType": "address",
							"name": "account",
							"type": "address"
						}
					],
					"name": "grantRole",
					"outputs": [],
					"stateMutability": "nonpayable",
					"type": "function"
				},
				{
					"inputs": [
						{
							"internalType": "bytes32",
							"name": "role",
							"type": "bytes32"
						},
						{
							"internalType": "address",
							"name": "account",
							"type": "address"
						}
					],
					"name": "hasRole",
					"outputs": [
						{
							"internalType": "bool",
							"name": "",
							"type": "bool"
						}
					],
					"stateMutability": "view",
					"type": "function"
				},
				{
					"inputs": [],
					"name": "inheritanceManager",
					"outputs": [
						{
							"internalType": "address",
							"name": "",
							"type": "address"
						}
					],
					"stateMutability": "view",
					"type": "function"
				},
				{
					"inputs": [
						{
							"internalType": "address",
							"name": "",
							"type": "address"
						},
						{
							"internalType": "uint256",
							"name": "",
							"type": "uint256"
						}
					],
					"name": "inheritorToTestators",
					"outputs": [
						{
							"internalType": "address",
							"name": "",
							"type": "address"
						}
					],
					"stateMutability": "view",
					"type": "function"
				},
				{
					"inputs": [
						{
							"internalType": "address",
							"name": "_storage",
							"type": "address"
						},
						{
							"internalType": "address",
							"name": "_inheritance",
							"type": "address"
						},
						{
							"internalType": "address",
							"name": "_withdrawal",
							"type": "address"
						},
						{
							"internalType": "address",
							"name": "_proofOfLife",
							"type": "address"
						}
					],
					"name": "initialize",
					"outputs": [],
					"stateMutability": "nonpayable",
					"type": "function"
				},
				{
					"inputs": [],
					"name": "owner",
					"outputs": [
						{
							"internalType": "address",
							"name": "",
							"type": "address"
						}
					],
					"stateMutability": "view",
					"type": "function"
				},
				{
					"inputs": [],
					"name": "pause",
					"outputs": [],
					"stateMutability": "nonpayable",
					"type": "function"
				},
				{
					"inputs": [],
					"name": "paused",
					"outputs": [
						{
							"internalType": "bool",
							"name": "",
							"type": "bool"
						}
					],
					"stateMutability": "view",
					"type": "function"
				},
				{
					"inputs": [],
					"name": "proofOfLife",
					"outputs": [
						{
							"internalType": "address",
							"name": "",
							"type": "address"
						}
					],
					"stateMutability": "view",
					"type": "function"
				},
				{
					"inputs": [],
					"name": "proxiableUUID",
					"outputs": [
						{
							"internalType": "bytes32",
							"name": "",
							"type": "bytes32"
						}
					],
					"stateMutability": "view",
					"type": "function"
				},
				{
					"inputs": [],
					"name": "renounceOwnership",
					"outputs": [],
					"stateMutability": "nonpayable",
					"type": "function"
				},
				{
					"inputs": [
						{
							"internalType": "bytes32",
							"name": "role",
							"type": "bytes32"
						},
						{
							"internalType": "address",
							"name": "callerConfirmation",
							"type": "address"
						}
					],
					"name": "renounceRole",
					"outputs": [],
					"stateMutability": "nonpayable",
					"type": "function"
				},
				{
					"inputs": [
						{
							"internalType": "bytes32",
							"name": "role",
							"type": "bytes32"
						},
						{
							"internalType": "address",
							"name": "account",
							"type": "address"
						}
					],
					"name": "revokeRole",
					"outputs": [],
					"stateMutability": "nonpayable",
					"type": "function"
				},
				{
					"inputs": [],
					"name": "storageContract",
					"outputs": [
						{
							"internalType": "address",
							"name": "",
							"type": "address"
						}
					],
					"stateMutability": "view",
					"type": "function"
				},
				{
					"inputs": [
						{
							"internalType": "bytes4",
							"name": "interfaceId",
							"type": "bytes4"
						}
					],
					"name": "supportsInterface",
					"outputs": [
						{
							"internalType": "bool",
							"name": "",
							"type": "bool"
						}
					],
					"stateMutability": "view",
					"type": "function"
				},
				{
					"inputs": [
						{
							"internalType": "address",
							"name": "",
							"type": "address"
						}
					],
					"name": "testaments",
					"outputs": [
						{
							"internalType": "bool",
							"name": "exist",
							"type": "bool"
						},
						{
							"internalType": "uint128",
							"name": "lastProofOfLife",
							"type": "uint128"
						},
						{
							"internalType": "uint256",
							"name": "inheritanceTotalValue",
							"type": "uint256"
						}
					],
					"stateMutability": "view",
					"type": "function"
				},
				{
					"inputs": [
						{
							"internalType": "address",
							"name": "newOwner",
							"type": "address"
						}
					],
					"name": "transferOwnership",
					"outputs": [],
					"stateMutability": "nonpayable",
					"type": "function"
				},
				{
					"inputs": [],
					"name": "unpause",
					"outputs": [],
					"stateMutability": "nonpayable",
					"type": "function"
				},
				{
					"inputs": [
						{
							"internalType": "address",
							"name": "newImplementation",
							"type": "address"
						},
						{
							"internalType": "bytes",
							"name": "data",
							"type": "bytes"
						}
					],
					"name": "upgradeToAndCall",
					"outputs": [],
					"stateMutability": "payable",
					"type": "function"
				},
				{
					"inputs": [],
					"name": "withdrawalManager",
					"outputs": [
						{
							"internalType": "address",
							"name": "",
							"type": "address"
						}
					],
					"stateMutability": "view",
					"type": "function"
				}
			],
			"devdoc": {
				"errors": {
					"AccessControlBadConfirmation()": [
						{
							"details": "The caller of a function is not the expected one. NOTE: Don't confuse with {AccessControlUnauthorizedAccount}."
						}
					],
					"AccessControlUnauthorizedAccount(address,bytes32)": [
						{
							"details": "The `account` is missing a role."
						}
					],
					"AddressEmptyCode(address)": [
						{
							"details": "There's no code at `target` (it is not a contract)."
						}
					],
					"ERC1967InvalidImplementation(address)": [
						{
							"details": "The `implementation` of the proxy is invalid."
						}
					],
					"ERC1967NonPayable()": [
						{
							"details": "An upgrade function sees `msg.value > 0` that may be lost."
						}
					],
					"FailedCall()": [
						{
							"details": "A call to an address target failed. The target may have reverted."
						}
					],
					"InvalidInitialization()": [
						{
							"details": "The contract is already initialized."
						}
					],
					"NotInitializing()": [
						{
							"details": "The contract is not initializing."
						}
					],
					"OwnableInvalidOwner(address)": [
						{
							"details": "The owner is not a valid owner account. (eg. `address(0)`)"
						}
					],
					"OwnableUnauthorizedAccount(address)": [
						{
							"details": "The caller account is not authorized to perform an operation."
						}
					],
					"UUPSUnauthorizedCallContext()": [
						{
							"details": "The call is from an unauthorized context."
						}
					],
					"UUPSUnsupportedProxiableUUID(bytes32)": [
						{
							"details": "The storage `slot` is unsupported as a UUID."
						}
					]
				},
				"events": {
					"Initialized(uint64)": {
						"details": "Triggered when the contract has been initialized or reinitialized."
					},
					"Paused(address)": {
						"details": "Emitted when the pause is triggered by `account`."
					},
					"RoleAdminChanged(bytes32,bytes32,bytes32)": {
						"details": "Emitted when `newAdminRole` is set as ``role``'s admin role, replacing `previousAdminRole` `DEFAULT_ADMIN_ROLE` is the starting admin for all roles, despite {RoleAdminChanged} not being emitted to signal this."
					},
					"RoleGranted(bytes32,address,address)": {
						"details": "Emitted when `account` is granted `role`. `sender` is the account that originated the contract call. This account bears the admin role (for the granted role). Expected in cases where the role was granted using the internal {AccessControl-_grantRole}."
					},
					"RoleRevoked(bytes32,address,address)": {
						"details": "Emitted when `account` is revoked `role`. `sender` is the account that originated the contract call:   - if using `revokeRole`, it is the admin role bearer   - if using `renounceRole`, it is the role bearer (i.e. `account`)"
					},
					"Unpaused(address)": {
						"details": "Emitted when the pause is lifted by `account`."
					},
					"Upgraded(address)": {
						"details": "Emitted when the implementation is upgraded."
					}
				},
				"kind": "dev",
				"methods": {
					"getRoleAdmin(bytes32)": {
						"details": "Returns the admin role that controls `role`. See {grantRole} and {revokeRole}. To change a role's admin, use {_setRoleAdmin}."
					},
					"grantRole(bytes32,address)": {
						"details": "Grants `role` to `account`. If `account` had not been already granted `role`, emits a {RoleGranted} event. Requirements: - the caller must have ``role``'s admin role. May emit a {RoleGranted} event."
					},
					"hasRole(bytes32,address)": {
						"details": "Returns `true` if `account` has been granted `role`."
					},
					"owner()": {
						"details": "Returns the address of the current owner."
					},
					"paused()": {
						"details": "Returns true if the contract is paused, and false otherwise."
					},
					"proxiableUUID()": {
						"details": "Implementation of the ERC-1822 {proxiableUUID} function. This returns the storage slot used by the implementation. It is used to validate the implementation's compatibility when performing an upgrade. IMPORTANT: A proxy pointing at a proxiable contract should not be considered proxiable itself, because this risks bricking a proxy that upgrades to it, by delegating to itself until out of gas. Thus it is critical that this function revert if invoked through a proxy. This is guaranteed by the `notDelegated` modifier."
					},
					"renounceOwnership()": {
						"details": "Leaves the contract without owner. It will not be possible to call `onlyOwner` functions. Can only be called by the current owner. NOTE: Renouncing ownership will leave the contract without an owner, thereby disabling any functionality that is only available to the owner."
					},
					"renounceRole(bytes32,address)": {
						"details": "Revokes `role` from the calling account. Roles are often managed via {grantRole} and {revokeRole}: this function's purpose is to provide a mechanism for accounts to lose their privileges if they are compromised (such as when a trusted device is misplaced). If the calling account had been revoked `role`, emits a {RoleRevoked} event. Requirements: - the caller must be `callerConfirmation`. May emit a {RoleRevoked} event."
					},
					"revokeRole(bytes32,address)": {
						"details": "Revokes `role` from `account`. If `account` had been granted `role`, emits a {RoleRevoked} event. Requirements: - the caller must have ``role``'s admin role. May emit a {RoleRevoked} event."
					},
					"supportsInterface(bytes4)": {
						"details": "See {IERC165-supportsInterface}."
					},
					"transferOwnership(address)": {
						"details": "Transfers ownership of the contract to a new account (`newOwner`). Can only be called by the current owner."
					},
					"upgradeToAndCall(address,bytes)": {
						"custom:oz-upgrades-unsafe-allow-reachable": "delegatecall",
						"details": "Upgrade the implementation of the proxy to `newImplementation`, and subsequently execute the function call encoded in `data`. Calls {_authorizeUpgrade}. Emits an {Upgraded} event."
					}
				},
				"version": 1
			},
			"evm": {
				"assembly": "    /* \".deps/studying-solidity/v0.1/Testament/TestamentCore.sol\":628:2044  contract TestamentCore is... */\n  mstore(0x40, 0xa0)\n    /* \"@openzeppelin/contracts-upgradeable/proxy/utils/UUPSUpgradeable.sol\":1171:1175  this */\n  address\n    /* \"@openzeppelin/contracts-upgradeable/proxy/utils/UUPSUpgradeable.sol\":1128:1176  address private immutable __self = address(this) */\n  0xffffffffffffffffffffffffffffffffffffffff\n  and\n  0x80\n  swap1\n  0xffffffffffffffffffffffffffffffffffffffff\n  and\n  dup2\n  mstore\n  pop\n    /* \".deps/studying-solidity/v0.1/Testament/TestamentCore.sol\":628:2044  contract TestamentCore is... */\n  callvalue\n  dup1\n  iszero\n  tag_1\n  jumpi\n  revert(0x00, 0x00)\ntag_1:\n  pop\n  mload(0x80)\n  codecopy(0x00, dataOffset(sub_0), dataSize(sub_0))\n  0x00\n  assignImmutable(\"0x29c0b879db10ec07344c06c1c2858043ca65327670e82844139a1e183eece6a8\")\n  return(0x00, dataSize(sub_0))\nstop\n\nsub_0: assembly {\n        /* \".deps/studying-solidity/v0.1/Testament/TestamentCore.sol\":628:2044  contract TestamentCore is... */\n      mstore(0x40, 0x80)\n      jumpi(tag_1, lt(calldatasize, 0x04))\n      shr(0xe0, calldataload(0x00))\n      dup1\n      0x5c975abb\n      gt\n      tag_28\n      jumpi\n      dup1\n      0x91d14854\n      gt\n      tag_29\n      jumpi\n      dup1\n      0xd547741f\n      gt\n      tag_30\n      jumpi\n      dup1\n      0xd547741f\n      eq\n      tag_24\n      jumpi\n      dup1\n      0xe7a84bc3\n      eq\n      tag_25\n      jumpi\n      dup1\n      0xf2fde38b\n      eq\n      tag_26\n      jumpi\n      dup1\n      0xf8c8765e\n      eq\n      tag_27\n      jumpi\n      jump(tag_1)\n    tag_30:\n      dup1\n      0x91d14854\n      eq\n      tag_21\n      jumpi\n      dup1\n      0xa217fddf\n      eq\n      tag_22\n      jumpi\n      dup1\n      0xad3cb1cc\n      eq\n      tag_23\n      jumpi\n      jump(tag_1)\n    tag_29:\n      dup1\n      0x5c975abb\n      eq\n      tag_15\n      jumpi\n      dup1\n      0x67892597\n      eq\n      tag_16\n      jumpi\n      dup1\n      0x715018a6\n      eq\n      tag_17\n      jumpi\n      dup1\n      0x82fe535a\n      eq\n      tag_18\n      jumpi\n      dup1\n      0x8456cb59\n      eq\n      tag_19\n      jumpi\n      dup1\n      0x8da5cb5b\n      eq\n      tag_20\n      jumpi\n      jump(tag_1)\n    tag_28:\n      dup1\n      0x2f2ff15d\n      gt\n      tag_31\n      jumpi\n      dup1\n      0x4f1ef286\n      gt\n      tag_32\n      jumpi\n      dup1\n      0x4f1ef286\n      eq\n      tag_11\n      jumpi\n      dup1\n      0x52d1902d\n      eq\n      tag_12\n      jumpi\n      dup1\n      0x578dcf6d\n      eq\n      tag_13\n      jumpi\n      dup1\n      0x5b084db9\n      eq\n      tag_14\n      jumpi\n      jump(tag_1)\n    tag_32:\n      dup1\n      0x2f2ff15d\n      eq\n      tag_8\n      jumpi\n      dup1\n      0x36568abe\n      eq\n      tag_9\n      jumpi\n      dup1\n      0x3f4ba83a\n      eq\n      tag_10\n      jumpi\n      jump(tag_1)\n    tag_31:\n      dup1\n      0x01ffc9a7\n      eq\n      tag_2\n      jumpi\n      dup1\n      0x11ce0267\n      eq\n      tag_3\n      jumpi\n      dup1\n      0x1aba6da6\n      eq\n      tag_4\n      jumpi\n      dup1\n      0x1acb49b4\n      eq\n      tag_5\n      jumpi\n      dup1\n      0x20888d1e\n      eq\n      tag_6\n      jumpi\n      dup1\n      0x248a9ca3\n      eq\n      tag_7\n      jumpi\n    tag_1:\n      revert(0x00, 0x00)\n        /* \"@openzeppelin/contracts-upgradeable/access/AccessControlUpgradeable.sol\":3443:3645  function supportsInterface(bytes4 interfaceId) public view virtual override returns (bool) {... */\n    tag_2:\n      callvalue\n      dup1\n      iszero\n      tag_33\n      jumpi\n      revert(0x00, 0x00)\n    tag_33:\n      pop\n      tag_34\n      0x04\n      dup1\n      calldatasize\n      sub\n      dup2\n      add\n      swap1\n      tag_35\n      swap2\n      swap1\n      tag_36\n      jump\t// in\n    tag_35:\n      tag_37\n      jump\t// in\n    tag_34:\n      mload(0x40)\n      tag_38\n      swap2\n      swap1\n      tag_39\n      jump\t// in\n    tag_38:\n      mload(0x40)\n      dup1\n      swap2\n      sub\n      swap1\n      return\n        /* \".deps/studying-solidity/v0.1/Testament/TestamentCore.sol\":849:879  address public storageContract */\n    tag_3:\n      callvalue\n      dup1\n      iszero\n      tag_40\n      jumpi\n      revert(0x00, 0x00)\n    tag_40:\n      pop\n      tag_41\n      tag_42\n      jump\t// in\n    tag_41:\n      mload(0x40)\n      tag_43\n      swap2\n      swap1\n      tag_44\n      jump\t// in\n    tag_43:\n      mload(0x40)\n      dup1\n      swap2\n      sub\n      swap1\n      return\n        /* \".deps/studying-solidity/v0.1/Testament/TestamentCore.sol\":1968:2042  function cancelTestament() external {... */\n    tag_4:\n      callvalue\n      dup1\n      iszero\n      tag_45\n      jumpi\n      revert(0x00, 0x00)\n    tag_45:\n      pop\n      tag_46\n      tag_47\n      jump\t// in\n    tag_46:\n      stop\n        /* \".deps/studying-solidity/v0.1/Testament/TestamentStorage.sol\":448:495  mapping(address => Testament) public testaments */\n    tag_5:\n      callvalue\n      dup1\n      iszero\n      tag_48\n      jumpi\n      revert(0x00, 0x00)\n    tag_48:\n      pop\n      tag_49\n      0x04\n      dup1\n      calldatasize\n      sub\n      dup2\n      add\n      swap1\n      tag_50\n      swap2\n      swap1\n      tag_51\n      jump\t// in\n    tag_50:\n      tag_52\n      jump\t// in\n    tag_49:\n      mload(0x40)\n      tag_53\n      swap4\n      swap3\n      swap2\n      swap1\n      tag_54\n      jump\t// in\n    tag_53:\n      mload(0x40)\n      dup1\n      swap2\n      sub\n      swap1\n      return\n        /* \".deps/studying-solidity/v0.1/Testament/TestamentCore.sol\":962:988  address public proofOfLife */\n    tag_6:\n      callvalue\n      dup1\n      iszero\n      tag_55\n      jumpi\n      revert(0x00, 0x00)\n    tag_55:\n      pop\n      tag_56\n      tag_57\n      jump\t// in\n    tag_56:\n      mload(0x40)\n      tag_58\n      swap2\n      swap1\n      tag_44\n      jump\t// in\n    tag_58:\n      mload(0x40)\n      dup1\n      swap2\n      sub\n      swap1\n      return\n        /* \"@openzeppelin/contracts-upgradeable/access/AccessControlUpgradeable.sol\":4759:4950  function getRoleAdmin(bytes32 role) public view virtual returns (bytes32) {... */\n    tag_7:\n      callvalue\n      dup1\n      iszero\n      tag_59\n      jumpi\n      revert(0x00, 0x00)\n    tag_59:\n      pop\n      tag_60\n      0x04\n      dup1\n      calldatasize\n      sub\n      dup2\n      add\n      swap1\n      tag_61\n      swap2\n      swap1\n      tag_62\n      jump\t// in\n    tag_61:\n      tag_63\n      jump\t// in\n    tag_60:\n      mload(0x40)\n      tag_64\n      swap2\n      swap1\n      tag_65\n      jump\t// in\n    tag_64:\n      mload(0x40)\n      dup1\n      swap2\n      sub\n      swap1\n      return\n        /* \"@openzeppelin/contracts-upgradeable/access/AccessControlUpgradeable.sol\":5246:5382  function grantRole(bytes32 role, address account) public virtual onlyRole(getRoleAdmin(role)) {... */\n    tag_8:\n      callvalue\n      dup1\n      iszero\n      tag_66\n      jumpi\n      revert(0x00, 0x00)\n    tag_66:\n      pop\n      tag_67\n      0x04\n      dup1\n      calldatasize\n      sub\n      dup2\n      add\n      swap1\n      tag_68\n      swap2\n      swap1\n      tag_69\n      jump\t// in\n    tag_68:\n      tag_70\n      jump\t// in\n    tag_67:\n      stop\n        /* \"@openzeppelin/contracts-upgradeable/access/AccessControlUpgradeable.sol\":6348:6593  function renounceRole(bytes32 role, address callerConfirmation) public virtual {... */\n    tag_9:\n      callvalue\n      dup1\n      iszero\n      tag_71\n      jumpi\n      revert(0x00, 0x00)\n    tag_71:\n      pop\n      tag_72\n      0x04\n      dup1\n      calldatasize\n      sub\n      dup2\n      add\n      swap1\n      tag_73\n      swap2\n      swap1\n      tag_69\n      jump\t// in\n    tag_73:\n      tag_74\n      jump\t// in\n    tag_72:\n      stop\n        /* \".deps/studying-solidity/v0.1/Testament/TestamentCore.sol\":1627:1692  function unpause() external onlyOwner {... */\n    tag_10:\n      callvalue\n      dup1\n      iszero\n      tag_75\n      jumpi\n      revert(0x00, 0x00)\n    tag_75:\n      pop\n      tag_76\n      tag_77\n      jump\t// in\n    tag_76:\n      stop\n        /* \"@openzeppelin/contracts-upgradeable/proxy/utils/UUPSUpgradeable.sol\":4161:4375  function upgradeToAndCall(address newImplementation, bytes memory data) public payable virtual onlyProxy {... */\n    tag_11:\n      tag_78\n      0x04\n      dup1\n      calldatasize\n      sub\n      dup2\n      add\n      swap1\n      tag_79\n      swap2\n      swap1\n      tag_80\n      jump\t// in\n    tag_79:\n      tag_81\n      jump\t// in\n    tag_78:\n      stop\n        /* \"@openzeppelin/contracts-upgradeable/proxy/utils/UUPSUpgradeable.sol\":3708:3842  function proxiableUUID() external view virtual notDelegated returns (bytes32) {... */\n    tag_12:\n      callvalue\n      dup1\n      iszero\n      tag_82\n      jumpi\n      revert(0x00, 0x00)\n    tag_82:\n      pop\n      tag_83\n      tag_84\n      jump\t// in\n    tag_83:\n      mload(0x40)\n      tag_85\n      swap2\n      swap1\n      tag_65\n      jump\t// in\n    tag_85:\n      mload(0x40)\n      dup1\n      swap2\n      sub\n      swap1\n      return\n        /* \".deps/studying-solidity/v0.1/Testament/TestamentCore.sol\":885:918  address public inheritanceManager */\n    tag_13:\n      callvalue\n      dup1\n      iszero\n      tag_86\n      jumpi\n      revert(0x00, 0x00)\n    tag_86:\n      pop\n      tag_87\n      tag_88\n      jump\t// in\n    tag_87:\n      mload(0x40)\n      tag_89\n      swap2\n      swap1\n      tag_44\n      jump\t// in\n    tag_89:\n      mload(0x40)\n      dup1\n      swap2\n      sub\n      swap1\n      return\n        /* \".deps/studying-solidity/v0.1/Testament/TestamentStorage.sol\":572:629  mapping(address => address[]) public inheritorToTestators */\n    tag_14:\n      callvalue\n      dup1\n      iszero\n      tag_90\n      jumpi\n      revert(0x00, 0x00)\n    tag_90:\n      pop\n      tag_91\n      0x04\n      dup1\n      calldatasize\n      sub\n      dup2\n      add\n      swap1\n      tag_92\n      swap2\n      swap1\n      tag_93\n      jump\t// in\n    tag_92:\n      tag_94\n      jump\t// in\n    tag_91:\n      mload(0x40)\n      tag_95\n      swap2\n      swap1\n      tag_44\n      jump\t// in\n    tag_95:\n      mload(0x40)\n      dup1\n      swap2\n      sub\n      swap1\n      return\n        /* \"@openzeppelin/contracts-upgradeable/security/PausableUpgradeable.sol\":1879:1963  function paused() public view virtual returns (bool) {... */\n    tag_15:\n      callvalue\n      dup1\n      iszero\n      tag_96\n      jumpi\n      revert(0x00, 0x00)\n    tag_96:\n      pop\n      tag_97\n      tag_98\n      jump\t// in\n    tag_97:\n      mload(0x40)\n      tag_99\n      swap2\n      swap1\n      tag_39\n      jump\t// in\n    tag_99:\n      mload(0x40)\n      dup1\n      swap2\n      sub\n      swap1\n      return\n        /* \".deps/studying-solidity/v0.1/Testament/TestamentCore.sol\":1879:1962  function editInheritorsInMyTestament() external {... */\n    tag_16:\n      callvalue\n      dup1\n      iszero\n      tag_100\n      jumpi\n      revert(0x00, 0x00)\n    tag_100:\n      pop\n      tag_101\n      tag_102\n      jump\t// in\n    tag_101:\n      stop\n        /* \"@openzeppelin/contracts-upgradeable/access/OwnableUpgradeable.sol\":3155:3256  function renounceOwnership() public virtual onlyOwner {... */\n    tag_17:\n      callvalue\n      dup1\n      iszero\n      tag_103\n      jumpi\n      revert(0x00, 0x00)\n    tag_103:\n      pop\n      tag_104\n      tag_105\n      jump\t// in\n    tag_104:\n      stop\n        /* \".deps/studying-solidity/v0.1/Testament/TestamentCore.sol\":924:956  address public withdrawalManager */\n    tag_18:\n      callvalue\n      dup1\n      iszero\n      tag_106\n      jumpi\n      revert(0x00, 0x00)\n    tag_106:\n      pop\n      tag_107\n      tag_108\n      jump\t// in\n    tag_107:\n      mload(0x40)\n      tag_109\n      swap2\n      swap1\n      tag_44\n      jump\t// in\n    tag_109:\n      mload(0x40)\n      dup1\n      swap2\n      sub\n      swap1\n      return\n        /* \".deps/studying-solidity/v0.1/Testament/TestamentCore.sol\":1560:1621  function pause() external onlyOwner {... */\n    tag_19:\n      callvalue\n      dup1\n      iszero\n      tag_110\n      jumpi\n      revert(0x00, 0x00)\n    tag_110:\n      pop\n      tag_111\n      tag_112\n      jump\t// in\n    tag_111:\n      stop\n        /* \"@openzeppelin/contracts-upgradeable/access/OwnableUpgradeable.sol\":2441:2585  function owner() public view virtual returns (address) {... */\n    tag_20:\n      callvalue\n      dup1\n      iszero\n      tag_113\n      jumpi\n      revert(0x00, 0x00)\n    tag_113:\n      pop\n      tag_114\n      tag_115\n      jump\t// in\n    tag_114:\n      mload(0x40)\n      tag_116\n      swap2\n      swap1\n      tag_44\n      jump\t// in\n    tag_116:\n      mload(0x40)\n      dup1\n      swap2\n      sub\n      swap1\n      return\n        /* \"@openzeppelin/contracts-upgradeable/access/AccessControlUpgradeable.sol\":3732:3939  function hasRole(bytes32 role, address account) public view virtual returns (bool) {... */\n    tag_21:\n      callvalue\n      dup1\n      iszero\n      tag_117\n      jumpi\n      revert(0x00, 0x00)\n    tag_117:\n      pop\n      tag_118\n      0x04\n      dup1\n      calldatasize\n      sub\n      dup2\n      add\n      swap1\n      tag_119\n      swap2\n      swap1\n      tag_69\n      jump\t// in\n    tag_119:\n      tag_120\n      jump\t// in\n    tag_118:\n      mload(0x40)\n      tag_121\n      swap2\n      swap1\n      tag_39\n      jump\t// in\n    tag_121:\n      mload(0x40)\n      dup1\n      swap2\n      sub\n      swap1\n      return\n        /* \"@openzeppelin/contracts-upgradeable/access/AccessControlUpgradeable.sol\":2317:2366  bytes32 public constant DEFAULT_ADMIN_ROLE = 0x00 */\n    tag_22:\n      callvalue\n      dup1\n      iszero\n      tag_122\n      jumpi\n      revert(0x00, 0x00)\n    tag_122:\n      pop\n      tag_123\n      tag_124\n      jump\t// in\n    tag_123:\n      mload(0x40)\n      tag_125\n      swap2\n      swap1\n      tag_65\n      jump\t// in\n    tag_125:\n      mload(0x40)\n      dup1\n      swap2\n      sub\n      swap1\n      return\n        /* \"@openzeppelin/contracts-upgradeable/proxy/utils/UUPSUpgradeable.sol\":1819:1877  string public constant UPGRADE_INTERFACE_VERSION = \"5.0.0\" */\n    tag_23:\n      callvalue\n      dup1\n      iszero\n      tag_126\n      jumpi\n      revert(0x00, 0x00)\n    tag_126:\n      pop\n      tag_127\n      tag_128\n      jump\t// in\n    tag_127:\n      mload(0x40)\n      tag_129\n      swap2\n      swap1\n      tag_130\n      jump\t// in\n    tag_129:\n      mload(0x40)\n      dup1\n      swap2\n      sub\n      swap1\n      return\n        /* \"@openzeppelin/contracts-upgradeable/access/AccessControlUpgradeable.sol\":5662:5800  function revokeRole(bytes32 role, address account) public virtual onlyRole(getRoleAdmin(role)) {... */\n    tag_24:\n      callvalue\n      dup1\n      iszero\n      tag_131\n      jumpi\n      revert(0x00, 0x00)\n    tag_131:\n      pop\n      tag_132\n      0x04\n      dup1\n      calldatasize\n      sub\n      dup2\n      add\n      swap1\n      tag_133\n      swap2\n      swap1\n      tag_69\n      jump\t// in\n    tag_133:\n      tag_134\n      jump\t// in\n    tag_132:\n      stop\n        /* \".deps/studying-solidity/v0.1/Testament/TestamentCore.sol\":1698:1873  function createInheritance(... */\n    tag_25:\n      tag_135\n      0x04\n      dup1\n      calldatasize\n      sub\n      dup2\n      add\n      swap1\n      tag_136\n      swap2\n      swap1\n      tag_137\n      jump\t// in\n    tag_136:\n      tag_138\n      jump\t// in\n    tag_135:\n      stop\n        /* \"@openzeppelin/contracts-upgradeable/access/OwnableUpgradeable.sol\":3405:3620  function transferOwnership(address newOwner) public virtual onlyOwner {... */\n    tag_26:\n      callvalue\n      dup1\n      iszero\n      tag_139\n      jumpi\n      revert(0x00, 0x00)\n    tag_139:\n      pop\n      tag_140\n      0x04\n      dup1\n      calldatasize\n      sub\n      dup2\n      add\n      swap1\n      tag_141\n      swap2\n      swap1\n      tag_51\n      jump\t// in\n    tag_141:\n      tag_142\n      jump\t// in\n    tag_140:\n      stop\n        /* \".deps/studying-solidity/v0.1/Testament/TestamentCore.sol\":995:1482  function initialize(... */\n    tag_27:\n      callvalue\n      dup1\n      iszero\n      tag_143\n      jumpi\n      revert(0x00, 0x00)\n    tag_143:\n      pop\n      tag_144\n      0x04\n      dup1\n      calldatasize\n      sub\n      dup2\n      add\n      swap1\n      tag_145\n      swap2\n      swap1\n      tag_146\n      jump\t// in\n    tag_145:\n      tag_147\n      jump\t// in\n    tag_144:\n      stop\n        /* \"@openzeppelin/contracts-upgradeable/access/AccessControlUpgradeable.sol\":3443:3645  function supportsInterface(bytes4 interfaceId) public view virtual override returns (bool) {... */\n    tag_37:\n        /* \"@openzeppelin/contracts-upgradeable/access/AccessControlUpgradeable.sol\":3528:3532  bool */\n      0x00\n        /* \"@openzeppelin/contracts-upgradeable/access/AccessControlUpgradeable.sol\":3566:3598  type(IAccessControl).interfaceId */\n      0x7965db0b00000000000000000000000000000000000000000000000000000000\n        /* \"@openzeppelin/contracts-upgradeable/access/AccessControlUpgradeable.sol\":3551:3598  interfaceId == type(IAccessControl).interfaceId */\n      not(0xffffffffffffffffffffffffffffffffffffffffffffffffffffffff)\n      and\n        /* \"@openzeppelin/contracts-upgradeable/access/AccessControlUpgradeable.sol\":3551:3562  interfaceId */\n      dup3\n        /* \"@openzeppelin/contracts-upgradeable/access/AccessControlUpgradeable.sol\":3551:3598  interfaceId == type(IAccessControl).interfaceId */\n      not(0xffffffffffffffffffffffffffffffffffffffffffffffffffffffff)\n      and\n      eq\n        /* \"@openzeppelin/contracts-upgradeable/access/AccessControlUpgradeable.sol\":3551:3638  interfaceId == type(IAccessControl).interfaceId || super.supportsInterface(interfaceId) */\n      dup1\n      tag_149\n      jumpi\n      pop\n        /* \"@openzeppelin/contracts-upgradeable/access/AccessControlUpgradeable.sol\":3602:3638  super.supportsInterface(interfaceId) */\n      tag_150\n        /* \"@openzeppelin/contracts-upgradeable/access/AccessControlUpgradeable.sol\":3626:3637  interfaceId */\n      dup3\n        /* \"@openzeppelin/contracts-upgradeable/access/AccessControlUpgradeable.sol\":3602:3625  super.supportsInterface */\n      tag_151\n        /* \"@openzeppelin/contracts-upgradeable/access/AccessControlUpgradeable.sol\":3602:3638  super.supportsInterface(interfaceId) */\n      jump\t// in\n    tag_150:\n        /* \"@openzeppelin/contracts-upgradeable/access/AccessControlUpgradeable.sol\":3551:3638  interfaceId == type(IAccessControl).interfaceId || super.supportsInterface(interfaceId) */\n    tag_149:\n        /* \"@openzeppelin/contracts-upgradeable/access/AccessControlUpgradeable.sol\":3544:3638  return interfaceId == type(IAccessControl).interfaceId || super.supportsInterface(interfaceId) */\n      swap1\n      pop\n        /* \"@openzeppelin/contracts-upgradeable/access/AccessControlUpgradeable.sol\":3443:3645  function supportsInterface(bytes4 interfaceId) public view virtual override returns (bool) {... */\n      swap2\n      swap1\n      pop\n      jump\t// out\n        /* \".deps/studying-solidity/v0.1/Testament/TestamentCore.sol\":849:879  address public storageContract */\n    tag_42:\n      0x66\n      0x00\n      swap1\n      sload\n      swap1\n      0x0100\n      exp\n      swap1\n      div\n      0xffffffffffffffffffffffffffffffffffffffff\n      and\n      dup2\n      jump\t// out\n        /* \".deps/studying-solidity/v0.1/Testament/TestamentCore.sol\":1968:2042  function cancelTestament() external {... */\n    tag_47:\n      jump\t// out\n        /* \".deps/studying-solidity/v0.1/Testament/TestamentStorage.sol\":448:495  mapping(address => Testament) public testaments */\n    tag_52:\n      mstore(0x20, 0x64)\n      dup1\n      0x00\n      mstore\n      keccak256(0x00, 0x40)\n      0x00\n      swap2\n      pop\n      swap1\n      pop\n      dup1\n      0x01\n      add\n      0x00\n      swap1\n      sload\n      swap1\n      0x0100\n      exp\n      swap1\n      div\n      0xff\n      and\n      swap1\n      dup1\n      0x01\n      add\n      0x01\n      swap1\n      sload\n      swap1\n      0x0100\n      exp\n      swap1\n      div\n      0xffffffffffffffffffffffffffffffff\n      and\n      swap1\n      dup1\n      0x02\n      add\n      sload\n      swap1\n      pop\n      dup4\n      jump\t// out\n        /* \".deps/studying-solidity/v0.1/Testament/TestamentCore.sol\":962:988  address public proofOfLife */\n    tag_57:\n      0x69\n      0x00\n      swap1\n      sload\n      swap1\n      0x0100\n      exp\n      swap1\n      div\n      0xffffffffffffffffffffffffffffffffffffffff\n      and\n      dup2\n      jump\t// out\n        /* \"@openzeppelin/contracts-upgradeable/access/AccessControlUpgradeable.sol\":4759:4950  function getRoleAdmin(bytes32 role) public view virtual returns (bytes32) {... */\n    tag_63:\n        /* \"@openzeppelin/contracts-upgradeable/access/AccessControlUpgradeable.sol\":4824:4831  bytes32 */\n      0x00\n        /* \"@openzeppelin/contracts-upgradeable/access/AccessControlUpgradeable.sol\":4843:4873  AccessControlStorage storage $ */\n      0x00\n        /* \"@openzeppelin/contracts-upgradeable/access/AccessControlUpgradeable.sol\":4876:4902  _getAccessControlStorage() */\n      tag_154\n        /* \"@openzeppelin/contracts-upgradeable/access/AccessControlUpgradeable.sol\":4876:4900  _getAccessControlStorage */\n      tag_155\n        /* \"@openzeppelin/contracts-upgradeable/access/AccessControlUpgradeable.sol\":4876:4902  _getAccessControlStorage() */\n      jump\t// in\n    tag_154:\n        /* \"@openzeppelin/contracts-upgradeable/access/AccessControlUpgradeable.sol\":4843:4902  AccessControlStorage storage $ = _getAccessControlStorage() */\n      swap1\n      pop\n        /* \"@openzeppelin/contracts-upgradeable/access/AccessControlUpgradeable.sol\":4919:4920  $ */\n      dup1\n        /* \"@openzeppelin/contracts-upgradeable/access/AccessControlUpgradeable.sol\":4919:4927  $._roles */\n      0x00\n      add\n        /* \"@openzeppelin/contracts-upgradeable/access/AccessControlUpgradeable.sol\":4919:4933  $._roles[role] */\n      0x00\n        /* \"@openzeppelin/contracts-upgradeable/access/AccessControlUpgradeable.sol\":4928:4932  role */\n      dup5\n        /* \"@openzeppelin/contracts-upgradeable/access/AccessControlUpgradeable.sol\":4919:4933  $._roles[role] */\n      dup2\n      mstore\n      0x20\n      add\n      swap1\n      dup2\n      mstore\n      0x20\n      add\n      0x00\n      keccak256\n        /* \"@openzeppelin/contracts-upgradeable/access/AccessControlUpgradeable.sol\":4919:4943  $._roles[role].adminRole */\n      0x01\n      add\n      sload\n        /* \"@openzeppelin/contracts-upgradeable/access/AccessControlUpgradeable.sol\":4912:4943  return $._roles[role].adminRole */\n      swap2\n      pop\n      pop\n        /* \"@openzeppelin/contracts-upgradeable/access/AccessControlUpgradeable.sol\":4759:4950  function getRoleAdmin(bytes32 role) public view virtual returns (bytes32) {... */\n      swap2\n      swap1\n      pop\n      jump\t// out\n        /* \"@openzeppelin/contracts-upgradeable/access/AccessControlUpgradeable.sol\":5246:5382  function grantRole(bytes32 role, address account) public virtual onlyRole(getRoleAdmin(role)) {... */\n    tag_70:\n        /* \"@openzeppelin/contracts-upgradeable/access/AccessControlUpgradeable.sol\":5320:5338  getRoleAdmin(role) */\n      tag_156\n        /* \"@openzeppelin/contracts-upgradeable/access/AccessControlUpgradeable.sol\":5333:5337  role */\n      dup3\n        /* \"@openzeppelin/contracts-upgradeable/access/AccessControlUpgradeable.sol\":5320:5332  getRoleAdmin */\n      tag_63\n        /* \"@openzeppelin/contracts-upgradeable/access/AccessControlUpgradeable.sol\":5320:5338  getRoleAdmin(role) */\n      jump\t// in\n    tag_156:\n        /* \"@openzeppelin/contracts-upgradeable/access/AccessControlUpgradeable.sol\":3191:3207  _checkRole(role) */\n      tag_158\n        /* \"@openzeppelin/contracts-upgradeable/access/AccessControlUpgradeable.sol\":3202:3206  role */\n      dup2\n        /* \"@openzeppelin/contracts-upgradeable/access/AccessControlUpgradeable.sol\":3191:3201  _checkRole */\n      tag_159\n        /* \"@openzeppelin/contracts-upgradeable/access/AccessControlUpgradeable.sol\":3191:3207  _checkRole(role) */\n      jump\t// in\n    tag_158:\n        /* \"@openzeppelin/contracts-upgradeable/access/AccessControlUpgradeable.sol\":5350:5375  _grantRole(role, account) */\n      tag_161\n        /* \"@openzeppelin/contracts-upgradeable/access/AccessControlUpgradeable.sol\":5361:5365  role */\n      dup4\n        /* \"@openzeppelin/contracts-upgradeable/access/AccessControlUpgradeable.sol\":5367:5374  account */\n      dup4\n        /* \"@openzeppelin/contracts-upgradeable/access/AccessControlUpgradeable.sol\":5350:5360  _grantRole */\n      tag_162\n        /* \"@openzeppelin/contracts-upgradeable/access/AccessControlUpgradeable.sol\":5350:5375  _grantRole(role, account) */\n      jump\t// in\n    tag_161:\n      pop\n        /* \"@openzeppelin/contracts-upgradeable/access/AccessControlUpgradeable.sol\":5246:5382  function grantRole(bytes32 role, address account) public virtual onlyRole(getRoleAdmin(role)) {... */\n      pop\n      pop\n      pop\n      jump\t// out\n        /* \"@openzeppelin/contracts-upgradeable/access/AccessControlUpgradeable.sol\":6348:6593  function renounceRole(bytes32 role, address callerConfirmation) public virtual {... */\n    tag_74:\n        /* \"@openzeppelin/contracts-upgradeable/access/AccessControlUpgradeable.sol\":6463:6475  _msgSender() */\n      tag_164\n        /* \"@openzeppelin/contracts-upgradeable/access/AccessControlUpgradeable.sol\":6463:6473  _msgSender */\n      tag_165\n        /* \"@openzeppelin/contracts-upgradeable/access/AccessControlUpgradeable.sol\":6463:6475  _msgSender() */\n      jump\t// in\n    tag_164:\n        /* \"@openzeppelin/contracts-upgradeable/access/AccessControlUpgradeable.sol\":6441:6475  callerConfirmation != _msgSender() */\n      0xffffffffffffffffffffffffffffffffffffffff\n      and\n        /* \"@openzeppelin/contracts-upgradeable/access/AccessControlUpgradeable.sol\":6441:6459  callerConfirmation */\n      dup2\n        /* \"@openzeppelin/contracts-upgradeable/access/AccessControlUpgradeable.sol\":6441:6475  callerConfirmation != _msgSender() */\n      0xffffffffffffffffffffffffffffffffffffffff\n      and\n      eq\n        /* \"@openzeppelin/contracts-upgradeable/access/AccessControlUpgradeable.sol\":6437:6539  if (callerConfirmation != _msgSender()) {... */\n      tag_166\n      jumpi\n        /* \"@openzeppelin/contracts-upgradeable/access/AccessControlUpgradeable.sol\":6498:6528  AccessControlBadConfirmation() */\n      mload(0x40)\n      0x6697b23200000000000000000000000000000000000000000000000000000000\n      dup2\n      mstore\n      0x04\n      add\n      mload(0x40)\n      dup1\n      swap2\n      sub\n      swap1\n      revert\n        /* \"@openzeppelin/contracts-upgradeable/access/AccessControlUpgradeable.sol\":6437:6539  if (callerConfirmation != _msgSender()) {... */\n    tag_166:\n        /* \"@openzeppelin/contracts-upgradeable/access/AccessControlUpgradeable.sol\":6549:6586  _revokeRole(role, callerConfirmation) */\n      tag_167\n        /* \"@openzeppelin/contracts-upgradeable/access/AccessControlUpgradeable.sol\":6561:6565  role */\n      dup3\n        /* \"@openzeppelin/contracts-upgradeable/access/AccessControlUpgradeable.sol\":6567:6585  callerConfirmation */\n      dup3\n        /* \"@openzeppelin/contracts-upgradeable/access/AccessControlUpgradeable.sol\":6549:6560  _revokeRole */\n      tag_168\n        /* \"@openzeppelin/contracts-upgradeable/access/AccessControlUpgradeable.sol\":6549:6586  _revokeRole(role, callerConfirmation) */\n      jump\t// in\n    tag_167:\n      pop\n        /* \"@openzeppelin/contracts-upgradeable/access/AccessControlUpgradeable.sol\":6348:6593  function renounceRole(bytes32 role, address callerConfirmation) public virtual {... */\n      pop\n      pop\n      jump\t// out\n        /* \".deps/studying-solidity/v0.1/Testament/TestamentCore.sol\":1627:1692  function unpause() external onlyOwner {... */\n    tag_77:\n        /* \"@openzeppelin/contracts-upgradeable/access/OwnableUpgradeable.sol\":2334:2347  _checkOwner() */\n      tag_170\n        /* \"@openzeppelin/contracts-upgradeable/access/OwnableUpgradeable.sol\":2334:2345  _checkOwner */\n      tag_171\n        /* \"@openzeppelin/contracts-upgradeable/access/OwnableUpgradeable.sol\":2334:2347  _checkOwner() */\n      jump\t// in\n    tag_170:\n        /* \".deps/studying-solidity/v0.1/Testament/TestamentCore.sol\":1675:1685  _unpause() */\n      tag_173\n        /* \".deps/studying-solidity/v0.1/Testament/TestamentCore.sol\":1675:1683  _unpause */\n      tag_174\n        /* \".deps/studying-solidity/v0.1/Testament/TestamentCore.sol\":1675:1685  _unpause() */\n      jump\t// in\n    tag_173:\n        /* \".deps/studying-solidity/v0.1/Testament/TestamentCore.sol\":1627:1692  function unpause() external onlyOwner {... */\n      jump\t// out\n        /* \"@openzeppelin/contracts-upgradeable/proxy/utils/UUPSUpgradeable.sol\":4161:4375  function upgradeToAndCall(address newImplementation, bytes memory data) public payable virtual onlyProxy {... */\n    tag_81:\n        /* \"@openzeppelin/contracts-upgradeable/proxy/utils/UUPSUpgradeable.sol\":2655:2668  _checkProxy() */\n      tag_176\n        /* \"@openzeppelin/contracts-upgradeable/proxy/utils/UUPSUpgradeable.sol\":2655:2666  _checkProxy */\n      tag_177\n        /* \"@openzeppelin/contracts-upgradeable/proxy/utils/UUPSUpgradeable.sol\":2655:2668  _checkProxy() */\n      jump\t// in\n    tag_176:\n        /* \"@openzeppelin/contracts-upgradeable/proxy/utils/UUPSUpgradeable.sol\":4276:4312  _authorizeUpgrade(newImplementation) */\n      tag_179\n        /* \"@openzeppelin/contracts-upgradeable/proxy/utils/UUPSUpgradeable.sol\":4294:4311  newImplementation */\n      dup3\n        /* \"@openzeppelin/contracts-upgradeable/proxy/utils/UUPSUpgradeable.sol\":4276:4293  _authorizeUpgrade */\n      tag_180\n        /* \"@openzeppelin/contracts-upgradeable/proxy/utils/UUPSUpgradeable.sol\":4276:4312  _authorizeUpgrade(newImplementation) */\n      jump\t// in\n    tag_179:\n        /* \"@openzeppelin/contracts-upgradeable/proxy/utils/UUPSUpgradeable.sol\":4322:4368  _upgradeToAndCallUUPS(newImplementation, data) */\n      tag_181\n        /* \"@openzeppelin/contracts-upgradeable/proxy/utils/UUPSUpgradeable.sol\":4344:4361  newImplementation */\n      dup3\n        /* \"@openzeppelin/contracts-upgradeable/proxy/utils/UUPSUpgradeable.sol\":4363:4367  data */\n      dup3\n        /* \"@openzeppelin/contracts-upgradeable/proxy/utils/UUPSUpgradeable.sol\":4322:4343  _upgradeToAndCallUUPS */\n      tag_182\n        /* \"@openzeppelin/contracts-upgradeable/proxy/utils/UUPSUpgradeable.sol\":4322:4368  _upgradeToAndCallUUPS(newImplementation, data) */\n      jump\t// in\n    tag_181:\n        /* \"@openzeppelin/contracts-upgradeable/proxy/utils/UUPSUpgradeable.sol\":4161:4375  function upgradeToAndCall(address newImplementation, bytes memory data) public payable virtual onlyProxy {... */\n      pop\n      pop\n      jump\t// out\n        /* \"@openzeppelin/contracts-upgradeable/proxy/utils/UUPSUpgradeable.sol\":3708:3842  function proxiableUUID() external view virtual notDelegated returns (bytes32) {... */\n    tag_84:\n        /* \"@openzeppelin/contracts-upgradeable/proxy/utils/UUPSUpgradeable.sol\":3777:3784  bytes32 */\n      0x00\n        /* \"@openzeppelin/contracts-upgradeable/proxy/utils/UUPSUpgradeable.sol\":2926:2946  _checkNotDelegated() */\n      tag_184\n        /* \"@openzeppelin/contracts-upgradeable/proxy/utils/UUPSUpgradeable.sol\":2926:2944  _checkNotDelegated */\n      tag_185\n        /* \"@openzeppelin/contracts-upgradeable/proxy/utils/UUPSUpgradeable.sol\":2926:2946  _checkNotDelegated() */\n      jump\t// in\n    tag_184:\n        /* \"@openzeppelin/contracts/proxy/ERC1967/ERC1967Utils.sol\":811:877  0x360894a13ba1a3210667c828492db98dca3e2076cc3735a920a3ca505d382bbc */\n      0x360894a13ba1a3210667c828492db98dca3e2076cc3735a920a3ca505d382bbc\n        /* \"@openzeppelin/contracts-upgradeable/proxy/utils/UUPSUpgradeable.sol\":3803:3835  ERC1967Utils.IMPLEMENTATION_SLOT */\n      0x00\n      shl\n        /* \"@openzeppelin/contracts-upgradeable/proxy/utils/UUPSUpgradeable.sol\":3796:3835  return ERC1967Utils.IMPLEMENTATION_SLOT */\n      swap1\n      pop\n        /* \"@openzeppelin/contracts-upgradeable/proxy/utils/UUPSUpgradeable.sol\":3708:3842  function proxiableUUID() external view virtual notDelegated returns (bytes32) {... */\n      swap1\n      jump\t// out\n        /* \".deps/studying-solidity/v0.1/Testament/TestamentCore.sol\":885:918  address public inheritanceManager */\n    tag_88:\n      0x67\n      0x00\n      swap1\n      sload\n      swap1\n      0x0100\n      exp\n      swap1\n      div\n      0xffffffffffffffffffffffffffffffffffffffff\n      and\n      dup2\n      jump\t// out\n        /* \".deps/studying-solidity/v0.1/Testament/TestamentStorage.sol\":572:629  mapping(address => address[]) public inheritorToTestators */\n    tag_94:\n      mstore(0x20, 0x65)\n      dup2\n      0x00\n      mstore\n      keccak256(0x00, 0x40)\n      dup2\n      dup2\n      sload\n      dup2\n      lt\n      tag_187\n      jumpi\n      0x00\n      dup1\n      revert\n    tag_187:\n      swap1\n      0x00\n      mstore\n      keccak256(0x00, 0x20)\n      add\n      0x00\n      swap2\n      pop\n      swap2\n      pop\n      swap1\n      sload\n      swap1\n      0x0100\n      exp\n      swap1\n      div\n      0xffffffffffffffffffffffffffffffffffffffff\n      and\n      dup2\n      jump\t// out\n        /* \"@openzeppelin/contracts-upgradeable/security/PausableUpgradeable.sol\":1879:1963  function paused() public view virtual returns (bool) {... */\n    tag_98:\n        /* \"@openzeppelin/contracts-upgradeable/security/PausableUpgradeable.sol\":1926:1930  bool */\n      0x00\n        /* \"@openzeppelin/contracts-upgradeable/security/PausableUpgradeable.sol\":1949:1956  _paused */\n      0x00\n      0x00\n      swap1\n      sload\n      swap1\n      0x0100\n      exp\n      swap1\n      div\n      0xff\n      and\n        /* \"@openzeppelin/contracts-upgradeable/security/PausableUpgradeable.sol\":1942:1956  return _paused */\n      swap1\n      pop\n        /* \"@openzeppelin/contracts-upgradeable/security/PausableUpgradeable.sol\":1879:1963  function paused() public view virtual returns (bool) {... */\n      swap1\n      jump\t// out\n        /* \".deps/studying-solidity/v0.1/Testament/TestamentCore.sol\":1879:1962  function editInheritorsInMyTestament() external {... */\n    tag_102:\n      jump\t// out\n        /* \"@openzeppelin/contracts-upgradeable/access/OwnableUpgradeable.sol\":3155:3256  function renounceOwnership() public virtual onlyOwner {... */\n    tag_105:\n        /* \"@openzeppelin/contracts-upgradeable/access/OwnableUpgradeable.sol\":2334:2347  _checkOwner() */\n      tag_192\n        /* \"@openzeppelin/contracts-upgradeable/access/OwnableUpgradeable.sol\":2334:2345  _checkOwner */\n      tag_171\n        /* \"@openzeppelin/contracts-upgradeable/access/OwnableUpgradeable.sol\":2334:2347  _checkOwner() */\n      jump\t// in\n    tag_192:\n        /* \"@openzeppelin/contracts-upgradeable/access/OwnableUpgradeable.sol\":3219:3249  _transferOwnership(address(0)) */\n      tag_194\n        /* \"@openzeppelin/contracts-upgradeable/access/OwnableUpgradeable.sol\":3246:3247  0 */\n      0x00\n        /* \"@openzeppelin/contracts-upgradeable/access/OwnableUpgradeable.sol\":3219:3237  _transferOwnership */\n      tag_195\n        /* \"@openzeppelin/contracts-upgradeable/access/OwnableUpgradeable.sol\":3219:3249  _transferOwnership(address(0)) */\n      jump\t// in\n    tag_194:\n        /* \"@openzeppelin/contracts-upgradeable/access/OwnableUpgradeable.sol\":3155:3256  function renounceOwnership() public virtual onlyOwner {... */\n      jump\t// out\n        /* \".deps/studying-solidity/v0.1/Testament/TestamentCore.sol\":924:956  address public withdrawalManager */\n    tag_108:\n      0x68\n      0x00\n      swap1\n      sload\n      swap1\n      0x0100\n      exp\n      swap1\n      div\n      0xffffffffffffffffffffffffffffffffffffffff\n      and\n      dup2\n      jump\t// out\n        /* \".deps/studying-solidity/v0.1/Testament/TestamentCore.sol\":1560:1621  function pause() external onlyOwner {... */\n    tag_112:\n        /* \"@openzeppelin/contracts-upgradeable/access/OwnableUpgradeable.sol\":2334:2347  _checkOwner() */\n      tag_197\n        /* \"@openzeppelin/contracts-upgradeable/access/OwnableUpgradeable.sol\":2334:2345  _checkOwner */\n      tag_171\n        /* \"@openzeppelin/contracts-upgradeable/access/OwnableUpgradeable.sol\":2334:2347  _checkOwner() */\n      jump\t// in\n    tag_197:\n        /* \".deps/studying-solidity/v0.1/Testament/TestamentCore.sol\":1606:1614  _pause() */\n      tag_199\n        /* \".deps/studying-solidity/v0.1/Testament/TestamentCore.sol\":1606:1612  _pause */\n      tag_200\n        /* \".deps/studying-solidity/v0.1/Testament/TestamentCore.sol\":1606:1614  _pause() */\n      jump\t// in\n    tag_199:\n        /* \".deps/studying-solidity/v0.1/Testament/TestamentCore.sol\":1560:1621  function pause() external onlyOwner {... */\n      jump\t// out\n        /* \"@openzeppelin/contracts-upgradeable/access/OwnableUpgradeable.sol\":2441:2585  function owner() public view virtual returns (address) {... */\n    tag_115:\n        /* \"@openzeppelin/contracts-upgradeable/access/OwnableUpgradeable.sol\":2487:2494  address */\n      0x00\n        /* \"@openzeppelin/contracts-upgradeable/access/OwnableUpgradeable.sol\":2506:2530  OwnableStorage storage $ */\n      0x00\n        /* \"@openzeppelin/contracts-upgradeable/access/OwnableUpgradeable.sol\":2533:2553  _getOwnableStorage() */\n      tag_202\n        /* \"@openzeppelin/contracts-upgradeable/access/OwnableUpgradeable.sol\":2533:2551  _getOwnableStorage */\n      tag_203\n        /* \"@openzeppelin/contracts-upgradeable/access/OwnableUpgradeable.sol\":2533:2553  _getOwnableStorage() */\n      jump\t// in\n    tag_202:\n        /* \"@openzeppelin/contracts-upgradeable/access/OwnableUpgradeable.sol\":2506:2553  OwnableStorage storage $ = _getOwnableStorage() */\n      swap1\n      pop\n        /* \"@openzeppelin/contracts-upgradeable/access/OwnableUpgradeable.sol\":2570:2571  $ */\n      dup1\n        /* \"@openzeppelin/contracts-upgradeable/access/OwnableUpgradeable.sol\":2570:2578  $._owner */\n      0x00\n      add\n      0x00\n      swap1\n      sload\n      swap1\n      0x0100\n      exp\n      swap1\n      div\n      0xffffffffffffffffffffffffffffffffffffffff\n      and\n        /* \"@openzeppelin/contracts-upgradeable/access/OwnableUpgradeable.sol\":2563:2578  return $._owner */\n      swap2\n      pop\n      pop\n        /* \"@openzeppelin/contracts-upgradeable/access/OwnableUpgradeable.sol\":2441:2585  function owner() public view virtual returns (address) {... */\n      swap1\n      jump\t// out\n        /* \"@openzeppelin/contracts-upgradeable/access/AccessControlUpgradeable.sol\":3732:3939  function hasRole(bytes32 role, address account) public view virtual returns (bool) {... */\n    tag_120:\n        /* \"@openzeppelin/contracts-upgradeable/access/AccessControlUpgradeable.sol\":3809:3813  bool */\n      0x00\n        /* \"@openzeppelin/contracts-upgradeable/access/AccessControlUpgradeable.sol\":3825:3855  AccessControlStorage storage $ */\n      0x00\n        /* \"@openzeppelin/contracts-upgradeable/access/AccessControlUpgradeable.sol\":3858:3884  _getAccessControlStorage() */\n      tag_205\n        /* \"@openzeppelin/contracts-upgradeable/access/AccessControlUpgradeable.sol\":3858:3882  _getAccessControlStorage */\n      tag_155\n        /* \"@openzeppelin/contracts-upgradeable/access/AccessControlUpgradeable.sol\":3858:3884  _getAccessControlStorage() */\n      jump\t// in\n    tag_205:\n        /* \"@openzeppelin/contracts-upgradeable/access/AccessControlUpgradeable.sol\":3825:3884  AccessControlStorage storage $ = _getAccessControlStorage() */\n      swap1\n      pop\n        /* \"@openzeppelin/contracts-upgradeable/access/AccessControlUpgradeable.sol\":3901:3902  $ */\n      dup1\n        /* \"@openzeppelin/contracts-upgradeable/access/AccessControlUpgradeable.sol\":3901:3909  $._roles */\n      0x00\n      add\n        /* \"@openzeppelin/contracts-upgradeable/access/AccessControlUpgradeable.sol\":3901:3915  $._roles[role] */\n      0x00\n        /* \"@openzeppelin/contracts-upgradeable/access/AccessControlUpgradeable.sol\":3910:3914  role */\n      dup6\n        /* \"@openzeppelin/contracts-upgradeable/access/AccessControlUpgradeable.sol\":3901:3915  $._roles[role] */\n      dup2\n      mstore\n      0x20\n      add\n      swap1\n      dup2\n      mstore\n      0x20\n      add\n      0x00\n      keccak256\n        /* \"@openzeppelin/contracts-upgradeable/access/AccessControlUpgradeable.sol\":3901:3923  $._roles[role].hasRole */\n      0x00\n      add\n        /* \"@openzeppelin/contracts-upgradeable/access/AccessControlUpgradeable.sol\":3901:3932  $._roles[role].hasRole[account] */\n      0x00\n        /* \"@openzeppelin/contracts-upgradeable/access/AccessControlUpgradeable.sol\":3924:3931  account */\n      dup5\n        /* \"@openzeppelin/contracts-upgradeable/access/AccessControlUpgradeable.sol\":3901:3932  $._roles[role].hasRole[account] */\n      0xffffffffffffffffffffffffffffffffffffffff\n      and\n      0xffffffffffffffffffffffffffffffffffffffff\n      and\n      dup2\n      mstore\n      0x20\n      add\n      swap1\n      dup2\n      mstore\n      0x20\n      add\n      0x00\n      keccak256\n      0x00\n      swap1\n      sload\n      swap1\n      0x0100\n      exp\n      swap1\n      div\n      0xff\n      and\n        /* \"@openzeppelin/contracts-upgradeable/access/AccessControlUpgradeable.sol\":3894:3932  return $._roles[role].hasRole[account] */\n      swap2\n      pop\n      pop\n        /* \"@openzeppelin/contracts-upgradeable/access/AccessControlUpgradeable.sol\":3732:3939  function hasRole(bytes32 role, address account) public view virtual returns (bool) {... */\n      swap3\n      swap2\n      pop\n      pop\n      jump\t// out\n        /* \"@openzeppelin/contracts-upgradeable/access/AccessControlUpgradeable.sol\":2317:2366  bytes32 public constant DEFAULT_ADMIN_ROLE = 0x00 */\n    tag_124:\n        /* \"@openzeppelin/contracts-upgradeable/access/AccessControlUpgradeable.sol\":2362:2366  0x00 */\n      0x00\n        /* \"@openzeppelin/contracts-upgradeable/access/AccessControlUpgradeable.sol\":2317:2366  bytes32 public constant DEFAULT_ADMIN_ROLE = 0x00 */\n      0x00\n      shl\n      dup2\n      jump\t// out\n        /* \"@openzeppelin/contracts-upgradeable/proxy/utils/UUPSUpgradeable.sol\":1819:1877  string public constant UPGRADE_INTERFACE_VERSION = \"5.0.0\" */\n    tag_128:\n      mload(0x40)\n      dup1\n      0x40\n      add\n      0x40\n      mstore\n      dup1\n      0x05\n      dup2\n      mstore\n      0x20\n      add\n      0x352e302e30000000000000000000000000000000000000000000000000000000\n      dup2\n      mstore\n      pop\n      dup2\n      jump\t// out\n        /* \"@openzeppelin/contracts-upgradeable/access/AccessControlUpgradeable.sol\":5662:5800  function revokeRole(bytes32 role, address account) public virtual onlyRole(getRoleAdmin(role)) {... */\n    tag_134:\n        /* \"@openzeppelin/contracts-upgradeable/access/AccessControlUpgradeable.sol\":5737:5755  getRoleAdmin(role) */\n      tag_206\n        /* \"@openzeppelin/contracts-upgradeable/access/AccessControlUpgradeable.sol\":5750:5754  role */\n      dup3\n        /* \"@openzeppelin/contracts-upgradeable/access/AccessControlUpgradeable.sol\":5737:5749  getRoleAdmin */\n      tag_63\n        /* \"@openzeppelin/contracts-upgradeable/access/AccessControlUpgradeable.sol\":5737:5755  getRoleAdmin(role) */\n      jump\t// in\n    tag_206:\n        /* \"@openzeppelin/contracts-upgradeable/access/AccessControlUpgradeable.sol\":3191:3207  _checkRole(role) */\n      tag_208\n        /* \"@openzeppelin/contracts-upgradeable/access/AccessControlUpgradeable.sol\":3202:3206  role */\n      dup2\n        /* \"@openzeppelin/contracts-upgradeable/access/AccessControlUpgradeable.sol\":3191:3201  _checkRole */\n      tag_159\n        /* \"@openzeppelin/contracts-upgradeable/access/AccessControlUpgradeable.sol\":3191:3207  _checkRole(role) */\n      jump\t// in\n    tag_208:\n        /* \"@openzeppelin/contracts-upgradeable/access/AccessControlUpgradeable.sol\":5767:5793  _revokeRole(role, account) */\n      tag_210\n        /* \"@openzeppelin/contracts-upgradeable/access/AccessControlUpgradeable.sol\":5779:5783  role */\n      dup4\n        /* \"@openzeppelin/contracts-upgradeable/access/AccessControlUpgradeable.sol\":5785:5792  account */\n      dup4\n        /* \"@openzeppelin/contracts-upgradeable/access/AccessControlUpgradeable.sol\":5767:5778  _revokeRole */\n      tag_168\n        /* \"@openzeppelin/contracts-upgradeable/access/AccessControlUpgradeable.sol\":5767:5793  _revokeRole(role, account) */\n      jump\t// in\n    tag_210:\n      pop\n        /* \"@openzeppelin/contracts-upgradeable/access/AccessControlUpgradeable.sol\":5662:5800  function revokeRole(bytes32 role, address account) public virtual onlyRole(getRoleAdmin(role)) {... */\n      pop\n      pop\n      pop\n      jump\t// out\n        /* \".deps/studying-solidity/v0.1/Testament/TestamentCore.sol\":1698:1873  function createInheritance(... */\n    tag_138:\n        /* \".deps/studying-solidity/v0.1/Testament/TestamentCore.sol\":1847:1866  updateProofOfLife() */\n      tag_212\n        /* \".deps/studying-solidity/v0.1/Testament/TestamentCore.sol\":1847:1864  updateProofOfLife */\n      tag_213\n        /* \".deps/studying-solidity/v0.1/Testament/TestamentCore.sol\":1847:1866  updateProofOfLife() */\n      jump\t// in\n    tag_212:\n        /* \".deps/studying-solidity/v0.1/Testament/TestamentCore.sol\":1698:1873  function createInheritance(... */\n      pop\n      pop\n      pop\n      pop\n      jump\t// out\n        /* \"@openzeppelin/contracts-upgradeable/access/OwnableUpgradeable.sol\":3405:3620  function transferOwnership(address newOwner) public virtual onlyOwner {... */\n    tag_142:\n        /* \"@openzeppelin/contracts-upgradeable/access/OwnableUpgradeable.sol\":2334:2347  _checkOwner() */\n      tag_215\n        /* \"@openzeppelin/contracts-upgradeable/access/OwnableUpgradeable.sol\":2334:2345  _checkOwner */\n      tag_171\n        /* \"@openzeppelin/contracts-upgradeable/access/OwnableUpgradeable.sol\":2334:2347  _checkOwner() */\n      jump\t// in\n    tag_215:\n        /* \"@openzeppelin/contracts-upgradeable/access/OwnableUpgradeable.sol\":3509:3510  0 */\n      0x00\n        /* \"@openzeppelin/contracts-upgradeable/access/OwnableUpgradeable.sol\":3489:3511  newOwner == address(0) */\n      0xffffffffffffffffffffffffffffffffffffffff\n      and\n        /* \"@openzeppelin/contracts-upgradeable/access/OwnableUpgradeable.sol\":3489:3497  newOwner */\n      dup2\n        /* \"@openzeppelin/contracts-upgradeable/access/OwnableUpgradeable.sol\":3489:3511  newOwner == address(0) */\n      0xffffffffffffffffffffffffffffffffffffffff\n      and\n      sub\n        /* \"@openzeppelin/contracts-upgradeable/access/OwnableUpgradeable.sol\":3485:3576  if (newOwner == address(0)) {... */\n      tag_217\n      jumpi\n        /* \"@openzeppelin/contracts-upgradeable/access/OwnableUpgradeable.sol\":3562:3563  0 */\n      0x00\n        /* \"@openzeppelin/contracts-upgradeable/access/OwnableUpgradeable.sol\":3534:3565  OwnableInvalidOwner(address(0)) */\n      mload(0x40)\n      0x1e4fbdf700000000000000000000000000000000000000000000000000000000\n      dup2\n      mstore\n      0x04\n      add\n      tag_218\n      swap2\n      swap1\n      tag_44\n      jump\t// in\n    tag_218:\n      mload(0x40)\n      dup1\n      swap2\n      sub\n      swap1\n      revert\n        /* \"@openzeppelin/contracts-upgradeable/access/OwnableUpgradeable.sol\":3485:3576  if (newOwner == address(0)) {... */\n    tag_217:\n        /* \"@openzeppelin/contracts-upgradeable/access/OwnableUpgradeable.sol\":3585:3613  _transferOwnership(newOwner) */\n      tag_219\n        /* \"@openzeppelin/contracts-upgradeable/access/OwnableUpgradeable.sol\":3604:3612  newOwner */\n      dup2\n        /* \"@openzeppelin/contracts-upgradeable/access/OwnableUpgradeable.sol\":3585:3603  _transferOwnership */\n      tag_195\n        /* \"@openzeppelin/contracts-upgradeable/access/OwnableUpgradeable.sol\":3585:3613  _transferOwnership(newOwner) */\n      jump\t// in\n    tag_219:\n        /* \"@openzeppelin/contracts-upgradeable/access/OwnableUpgradeable.sol\":3405:3620  function transferOwnership(address newOwner) public virtual onlyOwner {... */\n      pop\n      jump\t// out\n        /* \".deps/studying-solidity/v0.1/Testament/TestamentCore.sol\":995:1482  function initialize(... */\n    tag_147:\n        /* \"@openzeppelin/contracts-upgradeable/proxy/utils/Initializable.sol\":4158:4188  InitializableStorage storage $ */\n      0x00\n        /* \"@openzeppelin/contracts-upgradeable/proxy/utils/Initializable.sol\":4191:4217  _getInitializableStorage() */\n      tag_221\n        /* \"@openzeppelin/contracts-upgradeable/proxy/utils/Initializable.sol\":4191:4215  _getInitializableStorage */\n      tag_222\n        /* \"@openzeppelin/contracts-upgradeable/proxy/utils/Initializable.sol\":4191:4217  _getInitializableStorage() */\n      jump\t// in\n    tag_221:\n        /* \"@openzeppelin/contracts-upgradeable/proxy/utils/Initializable.sol\":4158:4217  InitializableStorage storage $ = _getInitializableStorage() */\n      swap1\n      pop\n        /* \"@openzeppelin/contracts-upgradeable/proxy/utils/Initializable.sol\":4279:4298  bool isTopLevelCall */\n      0x00\n        /* \"@openzeppelin/contracts-upgradeable/proxy/utils/Initializable.sol\":4302:4303  $ */\n      dup2\n        /* \"@openzeppelin/contracts-upgradeable/proxy/utils/Initializable.sol\":4302:4317  $._initializing */\n      0x00\n      add\n      0x08\n      swap1\n      sload\n      swap1\n      0x0100\n      exp\n      swap1\n      div\n      0xff\n      and\n        /* \"@openzeppelin/contracts-upgradeable/proxy/utils/Initializable.sol\":4301:4317  !$._initializing */\n      iszero\n        /* \"@openzeppelin/contracts-upgradeable/proxy/utils/Initializable.sol\":4279:4317  bool isTopLevelCall = !$._initializing */\n      swap1\n      pop\n        /* \"@openzeppelin/contracts-upgradeable/proxy/utils/Initializable.sol\":4327:4345  uint64 initialized */\n      0x00\n        /* \"@openzeppelin/contracts-upgradeable/proxy/utils/Initializable.sol\":4348:4349  $ */\n      dup3\n        /* \"@openzeppelin/contracts-upgradeable/proxy/utils/Initializable.sol\":4348:4362  $._initialized */\n      0x00\n      add\n      0x00\n      swap1\n      sload\n      swap1\n      0x0100\n      exp\n      swap1\n      div\n      0xffffffffffffffff\n      and\n        /* \"@openzeppelin/contracts-upgradeable/proxy/utils/Initializable.sol\":4327:4362  uint64 initialized = $._initialized */\n      swap1\n      pop\n        /* \"@openzeppelin/contracts-upgradeable/proxy/utils/Initializable.sol\":4704:4721  bool initialSetup */\n      0x00\n        /* \"@openzeppelin/contracts-upgradeable/proxy/utils/Initializable.sol\":4739:4740  0 */\n      0x00\n        /* \"@openzeppelin/contracts-upgradeable/proxy/utils/Initializable.sol\":4724:4735  initialized */\n      dup3\n        /* \"@openzeppelin/contracts-upgradeable/proxy/utils/Initializable.sol\":4724:4740  initialized == 0 */\n      0xffffffffffffffff\n      and\n      eq\n        /* \"@openzeppelin/contracts-upgradeable/proxy/utils/Initializable.sol\":4724:4758  initialized == 0 && isTopLevelCall */\n      dup1\n      iszero\n      tag_223\n      jumpi\n      pop\n        /* \"@openzeppelin/contracts-upgradeable/proxy/utils/Initializable.sol\":4744:4758  isTopLevelCall */\n      dup3\n        /* \"@openzeppelin/contracts-upgradeable/proxy/utils/Initializable.sol\":4724:4758  initialized == 0 && isTopLevelCall */\n    tag_223:\n        /* \"@openzeppelin/contracts-upgradeable/proxy/utils/Initializable.sol\":4704:4758  bool initialSetup = initialized == 0 && isTopLevelCall */\n      swap1\n      pop\n        /* \"@openzeppelin/contracts-upgradeable/proxy/utils/Initializable.sol\":4768:4785  bool construction */\n      0x00\n        /* \"@openzeppelin/contracts-upgradeable/proxy/utils/Initializable.sol\":4803:4804  1 */\n      0x01\n        /* \"@openzeppelin/contracts-upgradeable/proxy/utils/Initializable.sol\":4788:4799  initialized */\n      dup4\n        /* \"@openzeppelin/contracts-upgradeable/proxy/utils/Initializable.sol\":4788:4804  initialized == 1 */\n      0xffffffffffffffff\n      and\n      eq\n        /* \"@openzeppelin/contracts-upgradeable/proxy/utils/Initializable.sol\":4788:4838  initialized == 1 && address(this).code.length == 0 */\n      dup1\n      iszero\n      tag_224\n      jumpi\n      pop\n        /* \"@openzeppelin/contracts-upgradeable/proxy/utils/Initializable.sol\":4837:4838  0 */\n      0x00\n        /* \"@openzeppelin/contracts-upgradeable/proxy/utils/Initializable.sol\":4816:4820  this */\n      address\n        /* \"@openzeppelin/contracts-upgradeable/proxy/utils/Initializable.sol\":4808:4833  address(this).code.length */\n      0xffffffffffffffffffffffffffffffffffffffff\n      and\n      extcodesize\n        /* \"@openzeppelin/contracts-upgradeable/proxy/utils/Initializable.sol\":4808:4838  address(this).code.length == 0 */\n      eq\n        /* \"@openzeppelin/contracts-upgradeable/proxy/utils/Initializable.sol\":4788:4838  initialized == 1 && address(this).code.length == 0 */\n    tag_224:\n        /* \"@openzeppelin/contracts-upgradeable/proxy/utils/Initializable.sol\":4768:4838  bool construction = initialized == 1 && address(this).code.length == 0 */\n      swap1\n      pop\n        /* \"@openzeppelin/contracts-upgradeable/proxy/utils/Initializable.sol\":4854:4866  initialSetup */\n      dup2\n        /* \"@openzeppelin/contracts-upgradeable/proxy/utils/Initializable.sol\":4853:4866  !initialSetup */\n      iszero\n        /* \"@openzeppelin/contracts-upgradeable/proxy/utils/Initializable.sol\":4853:4883  !initialSetup && !construction */\n      dup1\n      iszero\n      tag_225\n      jumpi\n      pop\n        /* \"@openzeppelin/contracts-upgradeable/proxy/utils/Initializable.sol\":4871:4883  construction */\n      dup1\n        /* \"@openzeppelin/contracts-upgradeable/proxy/utils/Initializable.sol\":4870:4883  !construction */\n      iszero\n        /* \"@openzeppelin/contracts-upgradeable/proxy/utils/Initializable.sol\":4853:4883  !initialSetup && !construction */\n    tag_225:\n        /* \"@openzeppelin/contracts-upgradeable/proxy/utils/Initializable.sol\":4849:4940  if (!initialSetup && !construction) {... */\n      iszero\n      tag_226\n      jumpi\n        /* \"@openzeppelin/contracts-upgradeable/proxy/utils/Initializable.sol\":4906:4929  InvalidInitialization() */\n      mload(0x40)\n      0xf92ee8a900000000000000000000000000000000000000000000000000000000\n      dup2\n      mstore\n      0x04\n      add\n      mload(0x40)\n      dup1\n      swap2\n      sub\n      swap1\n      revert\n        /* \"@openzeppelin/contracts-upgradeable/proxy/utils/Initializable.sol\":4849:4940  if (!initialSetup && !construction) {... */\n    tag_226:\n        /* \"@openzeppelin/contracts-upgradeable/proxy/utils/Initializable.sol\":4966:4967  1 */\n      0x01\n        /* \"@openzeppelin/contracts-upgradeable/proxy/utils/Initializable.sol\":4949:4950  $ */\n      dup6\n        /* \"@openzeppelin/contracts-upgradeable/proxy/utils/Initializable.sol\":4949:4963  $._initialized */\n      0x00\n      add\n      0x00\n        /* \"@openzeppelin/contracts-upgradeable/proxy/utils/Initializable.sol\":4949:4967  $._initialized = 1 */\n      0x0100\n      exp\n      dup2\n      sload\n      dup2\n      0xffffffffffffffff\n      mul\n      not\n      and\n      swap1\n      dup4\n      0xffffffffffffffff\n      and\n      mul\n      or\n      swap1\n      sstore\n      pop\n        /* \"@openzeppelin/contracts-upgradeable/proxy/utils/Initializable.sol\":4981:4995  isTopLevelCall */\n      dup4\n        /* \"@openzeppelin/contracts-upgradeable/proxy/utils/Initializable.sol\":4977:5044  if (isTopLevelCall) {... */\n      iszero\n      tag_227\n      jumpi\n        /* \"@openzeppelin/contracts-upgradeable/proxy/utils/Initializable.sol\":5029:5033  true */\n      0x01\n        /* \"@openzeppelin/contracts-upgradeable/proxy/utils/Initializable.sol\":5011:5012  $ */\n      dup6\n        /* \"@openzeppelin/contracts-upgradeable/proxy/utils/Initializable.sol\":5011:5026  $._initializing */\n      0x00\n      add\n      0x08\n        /* \"@openzeppelin/contracts-upgradeable/proxy/utils/Initializable.sol\":5011:5033  $._initializing = true */\n      0x0100\n      exp\n      dup2\n      sload\n      dup2\n      0xff\n      mul\n      not\n      and\n      swap1\n      dup4\n      iszero\n      iszero\n      mul\n      or\n      swap1\n      sstore\n      pop\n        /* \"@openzeppelin/contracts-upgradeable/proxy/utils/Initializable.sol\":4977:5044  if (isTopLevelCall) {... */\n    tag_227:\n        /* \".deps/studying-solidity/v0.1/Testament/TestamentCore.sol\":1165:1191  __Ownable_init(msg.sender) */\n      tag_229\n        /* \".deps/studying-solidity/v0.1/Testament/TestamentCore.sol\":1180:1190  msg.sender */\n      caller\n        /* \".deps/studying-solidity/v0.1/Testament/TestamentCore.sol\":1165:1179  __Ownable_init */\n      tag_230\n        /* \".deps/studying-solidity/v0.1/Testament/TestamentCore.sol\":1165:1191  __Ownable_init(msg.sender) */\n      jump\t// in\n    tag_229:\n        /* \".deps/studying-solidity/v0.1/Testament/TestamentCore.sol\":1201:1225  __UUPSUpgradeable_init() */\n      tag_231\n        /* \".deps/studying-solidity/v0.1/Testament/TestamentCore.sol\":1201:1223  __UUPSUpgradeable_init */\n      tag_232\n        /* \".deps/studying-solidity/v0.1/Testament/TestamentCore.sol\":1201:1225  __UUPSUpgradeable_init() */\n      jump\t// in\n    tag_231:\n        /* \".deps/studying-solidity/v0.1/Testament/TestamentCore.sol\":1235:1252  __Pausable_init() */\n      tag_233\n        /* \".deps/studying-solidity/v0.1/Testament/TestamentCore.sol\":1235:1250  __Pausable_init */\n      tag_234\n        /* \".deps/studying-solidity/v0.1/Testament/TestamentCore.sol\":1235:1252  __Pausable_init() */\n      jump\t// in\n    tag_233:\n        /* \".deps/studying-solidity/v0.1/Testament/TestamentCore.sol\":1262:1286  __ReentrancyGuard_init() */\n      tag_235\n        /* \".deps/studying-solidity/v0.1/Testament/TestamentCore.sol\":1262:1284  __ReentrancyGuard_init */\n      tag_236\n        /* \".deps/studying-solidity/v0.1/Testament/TestamentCore.sol\":1262:1286  __ReentrancyGuard_init() */\n      jump\t// in\n    tag_235:\n        /* \".deps/studying-solidity/v0.1/Testament/TestamentCore.sol\":1296:1318  __AccessControl_init() */\n      tag_237\n        /* \".deps/studying-solidity/v0.1/Testament/TestamentCore.sol\":1296:1316  __AccessControl_init */\n      tag_238\n        /* \".deps/studying-solidity/v0.1/Testament/TestamentCore.sol\":1296:1318  __AccessControl_init() */\n      jump\t// in\n    tag_237:\n        /* \".deps/studying-solidity/v0.1/Testament/TestamentCore.sol\":1347:1355  _storage */\n      dup9\n        /* \".deps/studying-solidity/v0.1/Testament/TestamentCore.sol\":1329:1344  storageContract */\n      0x66\n      0x00\n        /* \".deps/studying-solidity/v0.1/Testament/TestamentCore.sol\":1329:1355  storageContract = _storage */\n      0x0100\n      exp\n      dup2\n      sload\n      dup2\n      0xffffffffffffffffffffffffffffffffffffffff\n      mul\n      not\n      and\n      swap1\n      dup4\n      0xffffffffffffffffffffffffffffffffffffffff\n      and\n      mul\n      or\n      swap1\n      sstore\n      pop\n        /* \".deps/studying-solidity/v0.1/Testament/TestamentCore.sol\":1386:1398  _inheritance */\n      dup8\n        /* \".deps/studying-solidity/v0.1/Testament/TestamentCore.sol\":1365:1383  inheritanceManager */\n      0x67\n      0x00\n        /* \".deps/studying-solidity/v0.1/Testament/TestamentCore.sol\":1365:1398  inheritanceManager = _inheritance */\n      0x0100\n      exp\n      dup2\n      sload\n      dup2\n      0xffffffffffffffffffffffffffffffffffffffff\n      mul\n      not\n      and\n      swap1\n      dup4\n      0xffffffffffffffffffffffffffffffffffffffff\n      and\n      mul\n      or\n      swap1\n      sstore\n      pop\n        /* \".deps/studying-solidity/v0.1/Testament/TestamentCore.sol\":1428:1439  _withdrawal */\n      dup7\n        /* \".deps/studying-solidity/v0.1/Testament/TestamentCore.sol\":1408:1425  withdrawalManager */\n      0x68\n      0x00\n        /* \".deps/studying-solidity/v0.1/Testament/TestamentCore.sol\":1408:1439  withdrawalManager = _withdrawal */\n      0x0100\n      exp\n      dup2\n      sload\n      dup2\n      0xffffffffffffffffffffffffffffffffffffffff\n      mul\n      not\n      and\n      swap1\n      dup4\n      0xffffffffffffffffffffffffffffffffffffffff\n      and\n      mul\n      or\n      swap1\n      sstore\n      pop\n        /* \".deps/studying-solidity/v0.1/Testament/TestamentCore.sol\":1463:1475  _proofOfLife */\n      dup6\n        /* \".deps/studying-solidity/v0.1/Testament/TestamentCore.sol\":1449:1460  proofOfLife */\n      0x69\n      0x00\n        /* \".deps/studying-solidity/v0.1/Testament/TestamentCore.sol\":1449:1475  proofOfLife = _proofOfLife */\n      0x0100\n      exp\n      dup2\n      sload\n      dup2\n      0xffffffffffffffffffffffffffffffffffffffff\n      mul\n      not\n      and\n      swap1\n      dup4\n      0xffffffffffffffffffffffffffffffffffffffff\n      and\n      mul\n      or\n      swap1\n      sstore\n      pop\n        /* \"@openzeppelin/contracts-upgradeable/proxy/utils/Initializable.sol\":5068:5082  isTopLevelCall */\n      dup4\n        /* \"@openzeppelin/contracts-upgradeable/proxy/utils/Initializable.sol\":5064:5165  if (isTopLevelCall) {... */\n      iszero\n      tag_239\n      jumpi\n        /* \"@openzeppelin/contracts-upgradeable/proxy/utils/Initializable.sol\":5116:5121  false */\n      0x00\n        /* \"@openzeppelin/contracts-upgradeable/proxy/utils/Initializable.sol\":5098:5099  $ */\n      dup6\n        /* \"@openzeppelin/contracts-upgradeable/proxy/utils/Initializable.sol\":5098:5113  $._initializing */\n      0x00\n      add\n      0x08\n        /* \"@openzeppelin/contracts-upgradeable/proxy/utils/Initializable.sol\":5098:5121  $._initializing = false */\n      0x0100\n      exp\n      dup2\n      sload\n      dup2\n      0xff\n      mul\n      not\n      and\n      swap1\n      dup4\n      iszero\n      iszero\n      mul\n      or\n      swap1\n      sstore\n      pop\n        /* \"@openzeppelin/contracts-upgradeable/proxy/utils/Initializable.sol\":5140:5154  Initialized(1) */\n      0xc7f505b2f371ae2175ee4913f4499e1f2633a7b5936321eed1cdaeb6115181d2\n        /* \"@openzeppelin/contracts-upgradeable/proxy/utils/Initializable.sol\":5152:5153  1 */\n      0x01\n        /* \"@openzeppelin/contracts-upgradeable/proxy/utils/Initializable.sol\":5140:5154  Initialized(1) */\n      mload(0x40)\n      tag_240\n      swap2\n      swap1\n      tag_241\n      jump\t// in\n    tag_240:\n      mload(0x40)\n      dup1\n      swap2\n      sub\n      swap1\n      log1\n        /* \"@openzeppelin/contracts-upgradeable/proxy/utils/Initializable.sol\":5064:5165  if (isTopLevelCall) {... */\n    tag_239:\n        /* \"@openzeppelin/contracts-upgradeable/proxy/utils/Initializable.sol\":4092:5171  {... */\n      pop\n      pop\n      pop\n      pop\n      pop\n        /* \".deps/studying-solidity/v0.1/Testament/TestamentCore.sol\":995:1482  function initialize(... */\n      pop\n      pop\n      pop\n      pop\n      jump\t// out\n        /* \"@openzeppelin/contracts-upgradeable/utils/introspection/ERC165Upgradeable.sol\":1035:1181  function supportsInterface(bytes4 interfaceId) public view virtual returns (bool) {... */\n    tag_151:\n        /* \"@openzeppelin/contracts-upgradeable/utils/introspection/ERC165Upgradeable.sol\":1111:1115  bool */\n      0x00\n        /* \"@openzeppelin/contracts-upgradeable/utils/introspection/ERC165Upgradeable.sol\":1149:1174  type(IERC165).interfaceId */\n      0x01ffc9a700000000000000000000000000000000000000000000000000000000\n        /* \"@openzeppelin/contracts-upgradeable/utils/introspection/ERC165Upgradeable.sol\":1134:1174  interfaceId == type(IERC165).interfaceId */\n      not(0xffffffffffffffffffffffffffffffffffffffffffffffffffffffff)\n      and\n        /* \"@openzeppelin/contracts-upgradeable/utils/introspection/ERC165Upgradeable.sol\":1134:1145  interfaceId */\n      dup3\n        /* \"@openzeppelin/contracts-upgradeable/utils/introspection/ERC165Upgradeable.sol\":1134:1174  interfaceId == type(IERC165).interfaceId */\n      not(0xffffffffffffffffffffffffffffffffffffffffffffffffffffffff)\n      and\n      eq\n        /* \"@openzeppelin/contracts-upgradeable/utils/introspection/ERC165Upgradeable.sol\":1127:1174  return interfaceId == type(IERC165).interfaceId */\n      swap1\n      pop\n        /* \"@openzeppelin/contracts-upgradeable/utils/introspection/ERC165Upgradeable.sol\":1035:1181  function supportsInterface(bytes4 interfaceId) public view virtual returns (bool) {... */\n      swap2\n      swap1\n      pop\n      jump\t// out\n        /* \"@openzeppelin/contracts-upgradeable/access/AccessControlUpgradeable.sol\":2787:2964  function _getAccessControlStorage() private pure returns (AccessControlStorage storage $) {... */\n    tag_155:\n        /* \"@openzeppelin/contracts-upgradeable/access/AccessControlUpgradeable.sol\":2845:2875  AccessControlStorage storage $ */\n      0x00\n        /* \"@openzeppelin/contracts-upgradeable/access/AccessControlUpgradeable.sol\":2920:2948  AccessControlStorageLocation */\n      0x02dd7bc7dec4dceedda775e58dd541e08a116c6c53815c0bd028192f7b626800\n        /* \"@openzeppelin/contracts-upgradeable/access/AccessControlUpgradeable.sol\":2910:2948  $.slot := AccessControlStorageLocation */\n      swap1\n      pop\n        /* \"@openzeppelin/contracts-upgradeable/access/AccessControlUpgradeable.sol\":2787:2964  function _getAccessControlStorage() private pure returns (AccessControlStorage storage $) {... */\n      swap1\n      jump\t// out\n        /* \"@openzeppelin/contracts-upgradeable/access/AccessControlUpgradeable.sol\":4148:4251  function _checkRole(bytes32 role) internal view virtual {... */\n    tag_159:\n        /* \"@openzeppelin/contracts-upgradeable/access/AccessControlUpgradeable.sol\":4214:4244  _checkRole(role, _msgSender()) */\n      tag_245\n        /* \"@openzeppelin/contracts-upgradeable/access/AccessControlUpgradeable.sol\":4225:4229  role */\n      dup2\n        /* \"@openzeppelin/contracts-upgradeable/access/AccessControlUpgradeable.sol\":4231:4243  _msgSender() */\n      tag_246\n        /* \"@openzeppelin/contracts-upgradeable/access/AccessControlUpgradeable.sol\":4231:4241  _msgSender */\n      tag_165\n        /* \"@openzeppelin/contracts-upgradeable/access/AccessControlUpgradeable.sol\":4231:4243  _msgSender() */\n      jump\t// in\n    tag_246:\n        /* \"@openzeppelin/contracts-upgradeable/access/AccessControlUpgradeable.sol\":4214:4224  _checkRole */\n      tag_247\n        /* \"@openzeppelin/contracts-upgradeable/access/AccessControlUpgradeable.sol\":4214:4244  _checkRole(role, _msgSender()) */\n      jump\t// in\n    tag_245:\n        /* \"@openzeppelin/contracts-upgradeable/access/AccessControlUpgradeable.sol\":4148:4251  function _checkRole(bytes32 role) internal view virtual {... */\n      pop\n      jump\t// out\n        /* \"@openzeppelin/contracts-upgradeable/access/AccessControlUpgradeable.sol\":7270:7657  function _grantRole(bytes32 role, address account) internal virtual returns (bool) {... */\n    tag_162:\n        /* \"@openzeppelin/contracts-upgradeable/access/AccessControlUpgradeable.sol\":7347:7351  bool */\n      0x00\n        /* \"@openzeppelin/contracts-upgradeable/access/AccessControlUpgradeable.sol\":7363:7393  AccessControlStorage storage $ */\n      0x00\n        /* \"@openzeppelin/contracts-upgradeable/access/AccessControlUpgradeable.sol\":7396:7422  _getAccessControlStorage() */\n      tag_249\n        /* \"@openzeppelin/contracts-upgradeable/access/AccessControlUpgradeable.sol\":7396:7420  _getAccessControlStorage */\n      tag_155\n        /* \"@openzeppelin/contracts-upgradeable/access/AccessControlUpgradeable.sol\":7396:7422  _getAccessControlStorage() */\n      jump\t// in\n    tag_249:\n        /* \"@openzeppelin/contracts-upgradeable/access/AccessControlUpgradeable.sol\":7363:7422  AccessControlStorage storage $ = _getAccessControlStorage() */\n      swap1\n      pop\n        /* \"@openzeppelin/contracts-upgradeable/access/AccessControlUpgradeable.sol\":7437:7459  hasRole(role, account) */\n      tag_250\n        /* \"@openzeppelin/contracts-upgradeable/access/AccessControlUpgradeable.sol\":7445:7449  role */\n      dup5\n        /* \"@openzeppelin/contracts-upgradeable/access/AccessControlUpgradeable.sol\":7451:7458  account */\n      dup5\n        /* \"@openzeppelin/contracts-upgradeable/access/AccessControlUpgradeable.sol\":7437:7444  hasRole */\n      tag_120\n        /* \"@openzeppelin/contracts-upgradeable/access/AccessControlUpgradeable.sol\":7437:7459  hasRole(role, account) */\n      jump\t// in\n    tag_250:\n        /* \"@openzeppelin/contracts-upgradeable/access/AccessControlUpgradeable.sol\":7432:7651  if (!hasRole(role, account)) {... */\n      tag_251\n      jumpi\n        /* \"@openzeppelin/contracts-upgradeable/access/AccessControlUpgradeable.sol\":7509:7513  true */\n      0x01\n        /* \"@openzeppelin/contracts-upgradeable/access/AccessControlUpgradeable.sol\":7475:7476  $ */\n      dup2\n        /* \"@openzeppelin/contracts-upgradeable/access/AccessControlUpgradeable.sol\":7475:7483  $._roles */\n      0x00\n      add\n        /* \"@openzeppelin/contracts-upgradeable/access/AccessControlUpgradeable.sol\":7475:7489  $._roles[role] */\n      0x00\n        /* \"@openzeppelin/contracts-upgradeable/access/AccessControlUpgradeable.sol\":7484:7488  role */\n      dup7\n        /* \"@openzeppelin/contracts-upgradeable/access/AccessControlUpgradeable.sol\":7475:7489  $._roles[role] */\n      dup2\n      mstore\n      0x20\n      add\n      swap1\n      dup2\n      mstore\n      0x20\n      add\n      0x00\n      keccak256\n        /* \"@openzeppelin/contracts-upgradeable/access/AccessControlUpgradeable.sol\":7475:7497  $._roles[role].hasRole */\n      0x00\n      add\n        /* \"@openzeppelin/contracts-upgradeable/access/AccessControlUpgradeable.sol\":7475:7506  $._roles[role].hasRole[account] */\n      0x00\n        /* \"@openzeppelin/contracts-upgradeable/access/AccessControlUpgradeable.sol\":7498:7505  account */\n      dup6\n        /* \"@openzeppelin/contracts-upgradeable/access/AccessControlUpgradeable.sol\":7475:7506  $._roles[role].hasRole[account] */\n      0xffffffffffffffffffffffffffffffffffffffff\n      and\n      0xffffffffffffffffffffffffffffffffffffffff\n      and\n      dup2\n      mstore\n      0x20\n      add\n      swap1\n      dup2\n      mstore\n      0x20\n      add\n      0x00\n      keccak256\n      0x00\n        /* \"@openzeppelin/contracts-upgradeable/access/AccessControlUpgradeable.sol\":7475:7513  $._roles[role].hasRole[account] = true */\n      0x0100\n      exp\n      dup2\n      sload\n      dup2\n      0xff\n      mul\n      not\n      and\n      swap1\n      dup4\n      iszero\n      iszero\n      mul\n      or\n      swap1\n      sstore\n      pop\n        /* \"@openzeppelin/contracts-upgradeable/access/AccessControlUpgradeable.sol\":7559:7571  _msgSender() */\n      tag_252\n        /* \"@openzeppelin/contracts-upgradeable/access/AccessControlUpgradeable.sol\":7559:7569  _msgSender */\n      tag_165\n        /* \"@openzeppelin/contracts-upgradeable/access/AccessControlUpgradeable.sol\":7559:7571  _msgSender() */\n      jump\t// in\n    tag_252:\n        /* \"@openzeppelin/contracts-upgradeable/access/AccessControlUpgradeable.sol\":7532:7572  RoleGranted(role, account, _msgSender()) */\n      0xffffffffffffffffffffffffffffffffffffffff\n      and\n        /* \"@openzeppelin/contracts-upgradeable/access/AccessControlUpgradeable.sol\":7550:7557  account */\n      dup4\n        /* \"@openzeppelin/contracts-upgradeable/access/AccessControlUpgradeable.sol\":7532:7572  RoleGranted(role, account, _msgSender()) */\n      0xffffffffffffffffffffffffffffffffffffffff\n      and\n        /* \"@openzeppelin/contracts-upgradeable/access/AccessControlUpgradeable.sol\":7544:7548  role */\n      dup6\n        /* \"@openzeppelin/contracts-upgradeable/access/AccessControlUpgradeable.sol\":7532:7572  RoleGranted(role, account, _msgSender()) */\n      0x2f8788117e7eff1d82e926ec794901d17c78024a50270940304540a733656f0d\n      mload(0x40)\n      mload(0x40)\n      dup1\n      swap2\n      sub\n      swap1\n      log4\n        /* \"@openzeppelin/contracts-upgradeable/access/AccessControlUpgradeable.sol\":7593:7597  true */\n      0x01\n        /* \"@openzeppelin/contracts-upgradeable/access/AccessControlUpgradeable.sol\":7586:7597  return true */\n      swap2\n      pop\n      pop\n      jump(tag_248)\n        /* \"@openzeppelin/contracts-upgradeable/access/AccessControlUpgradeable.sol\":7432:7651  if (!hasRole(role, account)) {... */\n    tag_251:\n        /* \"@openzeppelin/contracts-upgradeable/access/AccessControlUpgradeable.sol\":7635:7640  false */\n      0x00\n        /* \"@openzeppelin/contracts-upgradeable/access/AccessControlUpgradeable.sol\":7628:7640  return false */\n      swap2\n      pop\n      pop\n        /* \"@openzeppelin/contracts-upgradeable/access/AccessControlUpgradeable.sol\":7270:7657  function _grantRole(bytes32 role, address account) internal virtual returns (bool) {... */\n    tag_248:\n      swap3\n      swap2\n      pop\n      pop\n      jump\t// out\n        /* \"@openzeppelin/contracts-upgradeable/utils/ContextUpgradeable.sol\":887:983  function _msgSender() internal view virtual returns (address) {... */\n    tag_165:\n        /* \"@openzeppelin/contracts-upgradeable/utils/ContextUpgradeable.sol\":940:947  address */\n      0x00\n        /* \"@openzeppelin/contracts-upgradeable/utils/ContextUpgradeable.sol\":966:976  msg.sender */\n      caller\n        /* \"@openzeppelin/contracts-upgradeable/utils/ContextUpgradeable.sol\":959:976  return msg.sender */\n      swap1\n      pop\n        /* \"@openzeppelin/contracts-upgradeable/utils/ContextUpgradeable.sol\":887:983  function _msgSender() internal view virtual returns (address) {... */\n      swap1\n      jump\t// out\n        /* \"@openzeppelin/contracts-upgradeable/access/AccessControlUpgradeable.sol\":7894:8282  function _revokeRole(bytes32 role, address account) internal virtual returns (bool) {... */\n    tag_168:\n        /* \"@openzeppelin/contracts-upgradeable/access/AccessControlUpgradeable.sol\":7972:7976  bool */\n      0x00\n        /* \"@openzeppelin/contracts-upgradeable/access/AccessControlUpgradeable.sol\":7988:8018  AccessControlStorage storage $ */\n      0x00\n        /* \"@openzeppelin/contracts-upgradeable/access/AccessControlUpgradeable.sol\":8021:8047  _getAccessControlStorage() */\n      tag_256\n        /* \"@openzeppelin/contracts-upgradeable/access/AccessControlUpgradeable.sol\":8021:8045  _getAccessControlStorage */\n      tag_155\n        /* \"@openzeppelin/contracts-upgradeable/access/AccessControlUpgradeable.sol\":8021:8047  _getAccessControlStorage() */\n      jump\t// in\n    tag_256:\n        /* \"@openzeppelin/contracts-upgradeable/access/AccessControlUpgradeable.sol\":7988:8047  AccessControlStorage storage $ = _getAccessControlStorage() */\n      swap1\n      pop\n        /* \"@openzeppelin/contracts-upgradeable/access/AccessControlUpgradeable.sol\":8061:8083  hasRole(role, account) */\n      tag_257\n        /* \"@openzeppelin/contracts-upgradeable/access/AccessControlUpgradeable.sol\":8069:8073  role */\n      dup5\n        /* \"@openzeppelin/contracts-upgradeable/access/AccessControlUpgradeable.sol\":8075:8082  account */\n      dup5\n        /* \"@openzeppelin/contracts-upgradeable/access/AccessControlUpgradeable.sol\":8061:8068  hasRole */\n      tag_120\n        /* \"@openzeppelin/contracts-upgradeable/access/AccessControlUpgradeable.sol\":8061:8083  hasRole(role, account) */\n      jump\t// in\n    tag_257:\n        /* \"@openzeppelin/contracts-upgradeable/access/AccessControlUpgradeable.sol\":8057:8276  if (hasRole(role, account)) {... */\n      iszero\n      tag_258\n      jumpi\n        /* \"@openzeppelin/contracts-upgradeable/access/AccessControlUpgradeable.sol\":8133:8138  false */\n      0x00\n        /* \"@openzeppelin/contracts-upgradeable/access/AccessControlUpgradeable.sol\":8099:8100  $ */\n      dup2\n        /* \"@openzeppelin/contracts-upgradeable/access/AccessControlUpgradeable.sol\":8099:8107  $._roles */\n      0x00\n      add\n        /* \"@openzeppelin/contracts-upgradeable/access/AccessControlUpgradeable.sol\":8099:8113  $._roles[role] */\n      0x00\n        /* \"@openzeppelin/contracts-upgradeable/access/AccessControlUpgradeable.sol\":8108:8112  role */\n      dup7\n        /* \"@openzeppelin/contracts-upgradeable/access/AccessControlUpgradeable.sol\":8099:8113  $._roles[role] */\n      dup2\n      mstore\n      0x20\n      add\n      swap1\n      dup2\n      mstore\n      0x20\n      add\n      0x00\n      keccak256\n        /* \"@openzeppelin/contracts-upgradeable/access/AccessControlUpgradeable.sol\":8099:8121  $._roles[role].hasRole */\n      0x00\n      add\n        /* \"@openzeppelin/contracts-upgradeable/access/AccessControlUpgradeable.sol\":8099:8130  $._roles[role].hasRole[account] */\n      0x00\n        /* \"@openzeppelin/contracts-upgradeable/access/AccessControlUpgradeable.sol\":8122:8129  account */\n      dup6\n        /* \"@openzeppelin/contracts-upgradeable/access/AccessControlUpgradeable.sol\":8099:8130  $._roles[role].hasRole[account] */\n      0xffffffffffffffffffffffffffffffffffffffff\n      and\n      0xffffffffffffffffffffffffffffffffffffffff\n      and\n      dup2\n      mstore\n      0x20\n      add\n      swap1\n      dup2\n      mstore\n      0x20\n      add\n      0x00\n      keccak256\n      0x00\n        /* \"@openzeppelin/contracts-upgradeable/access/AccessControlUpgradeable.sol\":8099:8138  $._roles[role].hasRole[account] = false */\n      0x0100\n      exp\n      dup2\n      sload\n      dup2\n      0xff\n      mul\n      not\n      and\n      swap1\n      dup4\n      iszero\n      iszero\n      mul\n      or\n      swap1\n      sstore\n      pop\n        /* \"@openzeppelin/contracts-upgradeable/access/AccessControlUpgradeable.sol\":8184:8196  _msgSender() */\n      tag_259\n        /* \"@openzeppelin/contracts-upgradeable/access/AccessControlUpgradeable.sol\":8184:8194  _msgSender */\n      tag_165\n        /* \"@openzeppelin/contracts-upgradeable/access/AccessControlUpgradeable.sol\":8184:8196  _msgSender() */\n      jump\t// in\n    tag_259:\n        /* \"@openzeppelin/contracts-upgradeable/access/AccessControlUpgradeable.sol\":8157:8197  RoleRevoked(role, account, _msgSender()) */\n      0xffffffffffffffffffffffffffffffffffffffff\n      and\n        /* \"@openzeppelin/contracts-upgradeable/access/AccessControlUpgradeable.sol\":8175:8182  account */\n      dup4\n        /* \"@openzeppelin/contracts-upgradeable/access/AccessControlUpgradeable.sol\":8157:8197  RoleRevoked(role, account, _msgSender()) */\n      0xffffffffffffffffffffffffffffffffffffffff\n      and\n        /* \"@openzeppelin/contracts-upgradeable/access/AccessControlUpgradeable.sol\":8169:8173  role */\n      dup6\n        /* \"@openzeppelin/contracts-upgradeable/access/AccessControlUpgradeable.sol\":8157:8197  RoleRevoked(role, account, _msgSender()) */\n      0xf6391f5c32d9c69d2a47ea670b442974b53935d1edc7fd64eb21e047a839171b\n      mload(0x40)\n      mload(0x40)\n      dup1\n      swap2\n      sub\n      swap1\n      log4\n        /* \"@openzeppelin/contracts-upgradeable/access/AccessControlUpgradeable.sol\":8218:8222  true */\n      0x01\n        /* \"@openzeppelin/contracts-upgradeable/access/AccessControlUpgradeable.sol\":8211:8222  return true */\n      swap2\n      pop\n      pop\n      jump(tag_255)\n        /* \"@openzeppelin/contracts-upgradeable/access/AccessControlUpgradeable.sol\":8057:8276  if (hasRole(role, account)) {... */\n    tag_258:\n        /* \"@openzeppelin/contracts-upgradeable/access/AccessControlUpgradeable.sol\":8260:8265  false */\n      0x00\n        /* \"@openzeppelin/contracts-upgradeable/access/AccessControlUpgradeable.sol\":8253:8265  return false */\n      swap2\n      pop\n      pop\n        /* \"@openzeppelin/contracts-upgradeable/access/AccessControlUpgradeable.sol\":7894:8282  function _revokeRole(bytes32 role, address account) internal virtual returns (bool) {... */\n    tag_255:\n      swap3\n      swap2\n      pop\n      pop\n      jump\t// out\n        /* \"@openzeppelin/contracts-upgradeable/access/OwnableUpgradeable.sol\":2658:2820  function _checkOwner() internal view virtual {... */\n    tag_171:\n        /* \"@openzeppelin/contracts-upgradeable/access/OwnableUpgradeable.sol\":2728:2740  _msgSender() */\n      tag_262\n        /* \"@openzeppelin/contracts-upgradeable/access/OwnableUpgradeable.sol\":2728:2738  _msgSender */\n      tag_165\n        /* \"@openzeppelin/contracts-upgradeable/access/OwnableUpgradeable.sol\":2728:2740  _msgSender() */\n      jump\t// in\n    tag_262:\n        /* \"@openzeppelin/contracts-upgradeable/access/OwnableUpgradeable.sol\":2717:2740  owner() != _msgSender() */\n      0xffffffffffffffffffffffffffffffffffffffff\n      and\n        /* \"@openzeppelin/contracts-upgradeable/access/OwnableUpgradeable.sol\":2717:2724  owner() */\n      tag_263\n        /* \"@openzeppelin/contracts-upgradeable/access/OwnableUpgradeable.sol\":2717:2722  owner */\n      tag_115\n        /* \"@openzeppelin/contracts-upgradeable/access/OwnableUpgradeable.sol\":2717:2724  owner() */\n      jump\t// in\n    tag_263:\n        /* \"@openzeppelin/contracts-upgradeable/access/OwnableUpgradeable.sol\":2717:2740  owner() != _msgSender() */\n      0xffffffffffffffffffffffffffffffffffffffff\n      and\n      eq\n        /* \"@openzeppelin/contracts-upgradeable/access/OwnableUpgradeable.sol\":2713:2814  if (owner() != _msgSender()) {... */\n      tag_264\n      jumpi\n        /* \"@openzeppelin/contracts-upgradeable/access/OwnableUpgradeable.sol\":2790:2802  _msgSender() */\n      tag_265\n        /* \"@openzeppelin/contracts-upgradeable/access/OwnableUpgradeable.sol\":2790:2800  _msgSender */\n      tag_165\n        /* \"@openzeppelin/contracts-upgradeable/access/OwnableUpgradeable.sol\":2790:2802  _msgSender() */\n      jump\t// in\n    tag_265:\n        /* \"@openzeppelin/contracts-upgradeable/access/OwnableUpgradeable.sol\":2763:2803  OwnableUnauthorizedAccount(_msgSender()) */\n      mload(0x40)\n      0x118cdaa700000000000000000000000000000000000000000000000000000000\n      dup2\n      mstore\n      0x04\n      add\n      tag_266\n      swap2\n      swap1\n      tag_44\n      jump\t// in\n    tag_266:\n      mload(0x40)\n      dup1\n      swap2\n      sub\n      swap1\n      revert\n        /* \"@openzeppelin/contracts-upgradeable/access/OwnableUpgradeable.sol\":2713:2814  if (owner() != _msgSender()) {... */\n    tag_264:\n        /* \"@openzeppelin/contracts-upgradeable/access/OwnableUpgradeable.sol\":2658:2820  function _checkOwner() internal view virtual {... */\n      jump\t// out\n        /* \"@openzeppelin/contracts-upgradeable/security/PausableUpgradeable.sol\":2697:2814  function _unpause() internal virtual whenPaused {... */\n    tag_174:\n        /* \"@openzeppelin/contracts-upgradeable/security/PausableUpgradeable.sol\":1750:1766  _requirePaused() */\n      tag_268\n        /* \"@openzeppelin/contracts-upgradeable/security/PausableUpgradeable.sol\":1750:1764  _requirePaused */\n      tag_269\n        /* \"@openzeppelin/contracts-upgradeable/security/PausableUpgradeable.sol\":1750:1766  _requirePaused() */\n      jump\t// in\n    tag_268:\n        /* \"@openzeppelin/contracts-upgradeable/security/PausableUpgradeable.sol\":2765:2770  false */\n      0x00\n        /* \"@openzeppelin/contracts-upgradeable/security/PausableUpgradeable.sol\":2755:2762  _paused */\n      0x00\n      0x00\n        /* \"@openzeppelin/contracts-upgradeable/security/PausableUpgradeable.sol\":2755:2770  _paused = false */\n      0x0100\n      exp\n      dup2\n      sload\n      dup2\n      0xff\n      mul\n      not\n      and\n      swap1\n      dup4\n      iszero\n      iszero\n      mul\n      or\n      swap1\n      sstore\n      pop\n        /* \"@openzeppelin/contracts-upgradeable/security/PausableUpgradeable.sol\":2785:2807  Unpaused(_msgSender()) */\n      0x5db9ee0a495bf2e6ff9c91a7834c1ba4fdd244a5e8aa4e537bd38aeae4b073aa\n        /* \"@openzeppelin/contracts-upgradeable/security/PausableUpgradeable.sol\":2794:2806  _msgSender() */\n      tag_271\n        /* \"@openzeppelin/contracts-upgradeable/security/PausableUpgradeable.sol\":2794:2804  _msgSender */\n      tag_165\n        /* \"@openzeppelin/contracts-upgradeable/security/PausableUpgradeable.sol\":2794:2806  _msgSender() */\n      jump\t// in\n    tag_271:\n        /* \"@openzeppelin/contracts-upgradeable/security/PausableUpgradeable.sol\":2785:2807  Unpaused(_msgSender()) */\n      mload(0x40)\n      tag_272\n      swap2\n      swap1\n      tag_44\n      jump\t// in\n    tag_272:\n      mload(0x40)\n      dup1\n      swap2\n      sub\n      swap1\n      log1\n        /* \"@openzeppelin/contracts-upgradeable/security/PausableUpgradeable.sol\":2697:2814  function _unpause() internal virtual whenPaused {... */\n      jump\t// out\n        /* \"@openzeppelin/contracts-upgradeable/proxy/utils/UUPSUpgradeable.sol\":4578:4890  function _checkProxy() internal view virtual {... */\n    tag_177:\n        /* \"@openzeppelin/contracts-upgradeable/proxy/utils/UUPSUpgradeable.sol\":4667:4673  __self */\n      immutable(\"0x29c0b879db10ec07344c06c1c2858043ca65327670e82844139a1e183eece6a8\")\n        /* \"@openzeppelin/contracts-upgradeable/proxy/utils/UUPSUpgradeable.sol\":4650:4673  address(this) == __self */\n      0xffffffffffffffffffffffffffffffffffffffff\n      and\n        /* \"@openzeppelin/contracts-upgradeable/proxy/utils/UUPSUpgradeable.sol\":4658:4662  this */\n      address\n        /* \"@openzeppelin/contracts-upgradeable/proxy/utils/UUPSUpgradeable.sol\":4650:4673  address(this) == __self */\n      0xffffffffffffffffffffffffffffffffffffffff\n      and\n      eq\n        /* \"@openzeppelin/contracts-upgradeable/proxy/utils/UUPSUpgradeable.sol\":4650:4770  address(this) == __self || // Must be called through delegatecall... */\n      dup1\n      tag_274\n      jumpi\n      pop\n        /* \"@openzeppelin/contracts-upgradeable/proxy/utils/UUPSUpgradeable.sol\":4764:4770  __self */\n      immutable(\"0x29c0b879db10ec07344c06c1c2858043ca65327670e82844139a1e183eece6a8\")\n        /* \"@openzeppelin/contracts-upgradeable/proxy/utils/UUPSUpgradeable.sol\":4728:4770  ERC1967Utils.getImplementation() != __self */\n      0xffffffffffffffffffffffffffffffffffffffff\n      and\n        /* \"@openzeppelin/contracts-upgradeable/proxy/utils/UUPSUpgradeable.sol\":4728:4760  ERC1967Utils.getImplementation() */\n      tag_275\n        /* \"@openzeppelin/contracts-upgradeable/proxy/utils/UUPSUpgradeable.sol\":4728:4758  ERC1967Utils.getImplementation */\n      tag_276\n        /* \"@openzeppelin/contracts-upgradeable/proxy/utils/UUPSUpgradeable.sol\":4728:4760  ERC1967Utils.getImplementation() */\n      jump\t// in\n    tag_275:\n        /* \"@openzeppelin/contracts-upgradeable/proxy/utils/UUPSUpgradeable.sol\":4728:4770  ERC1967Utils.getImplementation() != __self */\n      0xffffffffffffffffffffffffffffffffffffffff\n      and\n      eq\n      iszero\n        /* \"@openzeppelin/contracts-upgradeable/proxy/utils/UUPSUpgradeable.sol\":4650:4770  address(this) == __self || // Must be called through delegatecall... */\n    tag_274:\n        /* \"@openzeppelin/contracts-upgradeable/proxy/utils/UUPSUpgradeable.sol\":4633:4884  if (... */\n      iszero\n      tag_277\n      jumpi\n        /* \"@openzeppelin/contracts-upgradeable/proxy/utils/UUPSUpgradeable.sol\":4844:4873  UUPSUnauthorizedCallContext() */\n      mload(0x40)\n      0xe07c8dba00000000000000000000000000000000000000000000000000000000\n      dup2\n      mstore\n      0x04\n      add\n      mload(0x40)\n      dup1\n      swap2\n      sub\n      swap1\n      revert\n        /* \"@openzeppelin/contracts-upgradeable/proxy/utils/UUPSUpgradeable.sol\":4633:4884  if (... */\n    tag_277:\n        /* \"@openzeppelin/contracts-upgradeable/proxy/utils/UUPSUpgradeable.sol\":4578:4890  function _checkProxy() internal view virtual {... */\n      jump\t// out\n        /* \".deps/studying-solidity/v0.1/Testament/TestamentCore.sol\":1488:1554  function _authorizeUpgrade(address) internal override onlyOwner {} */\n    tag_180:\n        /* \"@openzeppelin/contracts-upgradeable/access/OwnableUpgradeable.sol\":2334:2347  _checkOwner() */\n      tag_279\n        /* \"@openzeppelin/contracts-upgradeable/access/OwnableUpgradeable.sol\":2334:2345  _checkOwner */\n      tag_171\n        /* \"@openzeppelin/contracts-upgradeable/access/OwnableUpgradeable.sol\":2334:2347  _checkOwner() */\n      jump\t// in\n    tag_279:\n        /* \".deps/studying-solidity/v0.1/Testament/TestamentCore.sol\":1488:1554  function _authorizeUpgrade(address) internal override onlyOwner {} */\n      pop\n      jump\t// out\n        /* \"@openzeppelin/contracts-upgradeable/proxy/utils/UUPSUpgradeable.sol\":6032:6570  function _upgradeToAndCallUUPS(address newImplementation, bytes memory data) private {... */\n    tag_182:\n        /* \"@openzeppelin/contracts-upgradeable/proxy/utils/UUPSUpgradeable.sol\":6149:6166  newImplementation */\n      dup2\n        /* \"@openzeppelin/contracts-upgradeable/proxy/utils/UUPSUpgradeable.sol\":6131:6181  IERC1822Proxiable(newImplementation).proxiableUUID */\n      0xffffffffffffffffffffffffffffffffffffffff\n      and\n      0x52d1902d\n        /* \"@openzeppelin/contracts-upgradeable/proxy/utils/UUPSUpgradeable.sol\":6131:6183  IERC1822Proxiable(newImplementation).proxiableUUID() */\n      mload(0x40)\n      dup2\n      0xffffffff\n      and\n      0xe0\n      shl\n      dup2\n      mstore\n      0x04\n      add\n      0x20\n      mload(0x40)\n      dup1\n      dup4\n      sub\n      dup2\n      dup7\n      gas\n      staticcall\n      swap3\n      pop\n      pop\n      pop\n      dup1\n      iszero\n      tag_282\n      jumpi\n      pop\n      mload(0x40)\n      returndatasize\n      not(0x1f)\n      0x1f\n      dup3\n      add\n      and\n      dup3\n      add\n      dup1\n      0x40\n      mstore\n      pop\n      dup2\n      add\n      swap1\n      tag_283\n      swap2\n      swap1\n      tag_284\n      jump\t// in\n    tag_283:\n      0x01\n    tag_282:\n        /* \"@openzeppelin/contracts-upgradeable/proxy/utils/UUPSUpgradeable.sol\":6127:6564  try IERC1822Proxiable(newImplementation).proxiableUUID() returns (bytes32 slot) {... */\n      tag_285\n      jumpi\n        /* \"@openzeppelin/contracts-upgradeable/proxy/utils/UUPSUpgradeable.sol\":6535:6552  newImplementation */\n      dup2\n        /* \"@openzeppelin/contracts-upgradeable/proxy/utils/UUPSUpgradeable.sol\":6493:6553  ERC1967Utils.ERC1967InvalidImplementation(newImplementation) */\n      mload(0x40)\n      0x4c9c8ce300000000000000000000000000000000000000000000000000000000\n      dup2\n      mstore\n      0x04\n      add\n      tag_289\n      swap2\n      swap1\n      tag_44\n      jump\t// in\n    tag_289:\n      mload(0x40)\n      dup1\n      swap2\n      sub\n      swap1\n      revert\n        /* \"@openzeppelin/contracts-upgradeable/proxy/utils/UUPSUpgradeable.sol\":6127:6564  try IERC1822Proxiable(newImplementation).proxiableUUID() returns (bytes32 slot) {... */\n    tag_285:\n        /* \"@openzeppelin/contracts/proxy/ERC1967/ERC1967Utils.sol\":811:877  0x360894a13ba1a3210667c828492db98dca3e2076cc3735a920a3ca505d382bbc */\n      0x360894a13ba1a3210667c828492db98dca3e2076cc3735a920a3ca505d382bbc\n        /* \"@openzeppelin/contracts-upgradeable/proxy/utils/UUPSUpgradeable.sol\":6233:6265  ERC1967Utils.IMPLEMENTATION_SLOT */\n      0x00\n      shl\n        /* \"@openzeppelin/contracts-upgradeable/proxy/utils/UUPSUpgradeable.sol\":6225:6229  slot */\n      dup2\n        /* \"@openzeppelin/contracts-upgradeable/proxy/utils/UUPSUpgradeable.sol\":6225:6265  slot != ERC1967Utils.IMPLEMENTATION_SLOT */\n      eq\n        /* \"@openzeppelin/contracts-upgradeable/proxy/utils/UUPSUpgradeable.sol\":6221:6341  if (slot != ERC1967Utils.IMPLEMENTATION_SLOT) {... */\n      tag_291\n      jumpi\n        /* \"@openzeppelin/contracts-upgradeable/proxy/utils/UUPSUpgradeable.sol\":6321:6325  slot */\n      dup1\n        /* \"@openzeppelin/contracts-upgradeable/proxy/utils/UUPSUpgradeable.sol\":6292:6326  UUPSUnsupportedProxiableUUID(slot) */\n      mload(0x40)\n      0xaa1d49a400000000000000000000000000000000000000000000000000000000\n      dup2\n      mstore\n      0x04\n      add\n      tag_292\n      swap2\n      swap1\n      tag_65\n      jump\t// in\n    tag_292:\n      mload(0x40)\n      dup1\n      swap2\n      sub\n      swap1\n      revert\n        /* \"@openzeppelin/contracts-upgradeable/proxy/utils/UUPSUpgradeable.sol\":6221:6341  if (slot != ERC1967Utils.IMPLEMENTATION_SLOT) {... */\n    tag_291:\n        /* \"@openzeppelin/contracts-upgradeable/proxy/utils/UUPSUpgradeable.sol\":6354:6408  ERC1967Utils.upgradeToAndCall(newImplementation, data) */\n      tag_293\n        /* \"@openzeppelin/contracts-upgradeable/proxy/utils/UUPSUpgradeable.sol\":6384:6401  newImplementation */\n      dup4\n        /* \"@openzeppelin/contracts-upgradeable/proxy/utils/UUPSUpgradeable.sol\":6403:6407  data */\n      dup4\n        /* \"@openzeppelin/contracts-upgradeable/proxy/utils/UUPSUpgradeable.sol\":6354:6383  ERC1967Utils.upgradeToAndCall */\n      tag_294\n        /* \"@openzeppelin/contracts-upgradeable/proxy/utils/UUPSUpgradeable.sol\":6354:6408  ERC1967Utils.upgradeToAndCall(newImplementation, data) */\n      jump\t// in\n    tag_293:\n        /* \"@openzeppelin/contracts-upgradeable/proxy/utils/UUPSUpgradeable.sol\":6184:6419  returns (bytes32 slot) {... */\n      pop\n        /* \"@openzeppelin/contracts-upgradeable/proxy/utils/UUPSUpgradeable.sol\":6032:6570  function _upgradeToAndCallUUPS(address newImplementation, bytes memory data) private {... */\n      pop\n      pop\n      jump\t// out\n        /* \"@openzeppelin/contracts-upgradeable/proxy/utils/UUPSUpgradeable.sol\":5007:5220  function _checkNotDelegated() internal view virtual {... */\n    tag_185:\n        /* \"@openzeppelin/contracts-upgradeable/proxy/utils/UUPSUpgradeable.sol\":5090:5096  __self */\n      immutable(\"0x29c0b879db10ec07344c06c1c2858043ca65327670e82844139a1e183eece6a8\")\n        /* \"@openzeppelin/contracts-upgradeable/proxy/utils/UUPSUpgradeable.sol\":5073:5096  address(this) != __self */\n      0xffffffffffffffffffffffffffffffffffffffff\n      and\n        /* \"@openzeppelin/contracts-upgradeable/proxy/utils/UUPSUpgradeable.sol\":5081:5085  this */\n      address\n        /* \"@openzeppelin/contracts-upgradeable/proxy/utils/UUPSUpgradeable.sol\":5073:5096  address(this) != __self */\n      0xffffffffffffffffffffffffffffffffffffffff\n      and\n      eq\n        /* \"@openzeppelin/contracts-upgradeable/proxy/utils/UUPSUpgradeable.sol\":5069:5214  if (address(this) != __self) {... */\n      tag_296\n      jumpi\n        /* \"@openzeppelin/contracts-upgradeable/proxy/utils/UUPSUpgradeable.sol\":5174:5203  UUPSUnauthorizedCallContext() */\n      mload(0x40)\n      0xe07c8dba00000000000000000000000000000000000000000000000000000000\n      dup2\n      mstore\n      0x04\n      add\n      mload(0x40)\n      dup1\n      swap2\n      sub\n      swap1\n      revert\n        /* \"@openzeppelin/contracts-upgradeable/proxy/utils/UUPSUpgradeable.sol\":5069:5214  if (address(this) != __self) {... */\n    tag_296:\n        /* \"@openzeppelin/contracts-upgradeable/proxy/utils/UUPSUpgradeable.sol\":5007:5220  function _checkNotDelegated() internal view virtual {... */\n      jump\t// out\n        /* \"@openzeppelin/contracts-upgradeable/access/OwnableUpgradeable.sol\":3774:4022  function _transferOwnership(address newOwner) internal virtual {... */\n    tag_195:\n        /* \"@openzeppelin/contracts-upgradeable/access/OwnableUpgradeable.sol\":3847:3871  OwnableStorage storage $ */\n      0x00\n        /* \"@openzeppelin/contracts-upgradeable/access/OwnableUpgradeable.sol\":3874:3894  _getOwnableStorage() */\n      tag_298\n        /* \"@openzeppelin/contracts-upgradeable/access/OwnableUpgradeable.sol\":3874:3892  _getOwnableStorage */\n      tag_203\n        /* \"@openzeppelin/contracts-upgradeable/access/OwnableUpgradeable.sol\":3874:3894  _getOwnableStorage() */\n      jump\t// in\n    tag_298:\n        /* \"@openzeppelin/contracts-upgradeable/access/OwnableUpgradeable.sol\":3847:3894  OwnableStorage storage $ = _getOwnableStorage() */\n      swap1\n      pop\n        /* \"@openzeppelin/contracts-upgradeable/access/OwnableUpgradeable.sol\":3904:3920  address oldOwner */\n      0x00\n        /* \"@openzeppelin/contracts-upgradeable/access/OwnableUpgradeable.sol\":3923:3924  $ */\n      dup2\n        /* \"@openzeppelin/contracts-upgradeable/access/OwnableUpgradeable.sol\":3923:3931  $._owner */\n      0x00\n      add\n      0x00\n      swap1\n      sload\n      swap1\n      0x0100\n      exp\n      swap1\n      div\n      0xffffffffffffffffffffffffffffffffffffffff\n      and\n        /* \"@openzeppelin/contracts-upgradeable/access/OwnableUpgradeable.sol\":3904:3931  address oldOwner = $._owner */\n      swap1\n      pop\n        /* \"@openzeppelin/contracts-upgradeable/access/OwnableUpgradeable.sol\":3952:3960  newOwner */\n      dup3\n        /* \"@openzeppelin/contracts-upgradeable/access/OwnableUpgradeable.sol\":3941:3942  $ */\n      dup3\n        /* \"@openzeppelin/contracts-upgradeable/access/OwnableUpgradeable.sol\":3941:3949  $._owner */\n      0x00\n      add\n      0x00\n        /* \"@openzeppelin/contracts-upgradeable/access/OwnableUpgradeable.sol\":3941:3960  $._owner = newOwner */\n      0x0100\n      exp\n      dup2\n      sload\n      dup2\n      0xffffffffffffffffffffffffffffffffffffffff\n      mul\n      not\n      and\n      swap1\n      dup4\n      0xffffffffffffffffffffffffffffffffffffffff\n      and\n      mul\n      or\n      swap1\n      sstore\n      pop\n        /* \"@openzeppelin/contracts-upgradeable/access/OwnableUpgradeable.sol\":4006:4014  newOwner */\n      dup3\n        /* \"@openzeppelin/contracts-upgradeable/access/OwnableUpgradeable.sol\":3975:4015  OwnershipTransferred(oldOwner, newOwner) */\n      0xffffffffffffffffffffffffffffffffffffffff\n      and\n        /* \"@openzeppelin/contracts-upgradeable/access/OwnableUpgradeable.sol\":3996:4004  oldOwner */\n      dup2\n        /* \"@openzeppelin/contracts-upgradeable/access/OwnableUpgradeable.sol\":3975:4015  OwnershipTransferred(oldOwner, newOwner) */\n      0xffffffffffffffffffffffffffffffffffffffff\n      and\n      0x8be0079c531659141344cd1fd0a4f28419497f9722a3daafe3b4186f6b6457e0\n      mload(0x40)\n      mload(0x40)\n      dup1\n      swap2\n      sub\n      swap1\n      log3\n        /* \"@openzeppelin/contracts-upgradeable/access/OwnableUpgradeable.sol\":3837:4022  {... */\n      pop\n      pop\n        /* \"@openzeppelin/contracts-upgradeable/access/OwnableUpgradeable.sol\":3774:4022  function _transferOwnership(address newOwner) internal virtual {... */\n      pop\n      jump\t// out\n        /* \"@openzeppelin/contracts-upgradeable/security/PausableUpgradeable.sol\":2450:2565  function _pause() internal virtual whenNotPaused {... */\n    tag_200:\n        /* \"@openzeppelin/contracts-upgradeable/security/PausableUpgradeable.sol\":1503:1522  _requireNotPaused() */\n      tag_300\n        /* \"@openzeppelin/contracts-upgradeable/security/PausableUpgradeable.sol\":1503:1520  _requireNotPaused */\n      tag_301\n        /* \"@openzeppelin/contracts-upgradeable/security/PausableUpgradeable.sol\":1503:1522  _requireNotPaused() */\n      jump\t// in\n    tag_300:\n        /* \"@openzeppelin/contracts-upgradeable/security/PausableUpgradeable.sol\":2519:2523  true */\n      0x01\n        /* \"@openzeppelin/contracts-upgradeable/security/PausableUpgradeable.sol\":2509:2516  _paused */\n      0x00\n      0x00\n        /* \"@openzeppelin/contracts-upgradeable/security/PausableUpgradeable.sol\":2509:2523  _paused = true */\n      0x0100\n      exp\n      dup2\n      sload\n      dup2\n      0xff\n      mul\n      not\n      and\n      swap1\n      dup4\n      iszero\n      iszero\n      mul\n      or\n      swap1\n      sstore\n      pop\n        /* \"@openzeppelin/contracts-upgradeable/security/PausableUpgradeable.sol\":2538:2558  Paused(_msgSender()) */\n      0x62e78cea01bee320cd4e420270b5ea74000d11b0c9f74754ebdbfc544b05a258\n        /* \"@openzeppelin/contracts-upgradeable/security/PausableUpgradeable.sol\":2545:2557  _msgSender() */\n      tag_303\n        /* \"@openzeppelin/contracts-upgradeable/security/PausableUpgradeable.sol\":2545:2555  _msgSender */\n      tag_165\n        /* \"@openzeppelin/contracts-upgradeable/security/PausableUpgradeable.sol\":2545:2557  _msgSender() */\n      jump\t// in\n    tag_303:\n        /* \"@openzeppelin/contracts-upgradeable/security/PausableUpgradeable.sol\":2538:2558  Paused(_msgSender()) */\n      mload(0x40)\n      tag_304\n      swap2\n      swap1\n      tag_44\n      jump\t// in\n    tag_304:\n      mload(0x40)\n      dup1\n      swap2\n      sub\n      swap1\n      log1\n        /* \"@openzeppelin/contracts-upgradeable/security/PausableUpgradeable.sol\":2450:2565  function _pause() internal virtual whenNotPaused {... */\n      jump\t// out\n        /* \"@openzeppelin/contracts-upgradeable/access/OwnableUpgradeable.sol\":1192:1351  function _getOwnableStorage() private pure returns (OwnableStorage storage $) {... */\n    tag_203:\n        /* \"@openzeppelin/contracts-upgradeable/access/OwnableUpgradeable.sol\":1244:1268  OwnableStorage storage $ */\n      0x00\n        /* \"@openzeppelin/contracts-upgradeable/access/OwnableUpgradeable.sol\":1313:1335  OwnableStorageLocation */\n      0x9016d09d72d40fdae2fd8ceac6b6234c7706214fd39c1cd1e609a0528c199300\n        /* \"@openzeppelin/contracts-upgradeable/access/OwnableUpgradeable.sol\":1303:1335  $.slot := OwnableStorageLocation */\n      swap1\n      pop\n        /* \"@openzeppelin/contracts-upgradeable/access/OwnableUpgradeable.sol\":1192:1351  function _getOwnableStorage() private pure returns (OwnableStorage storage $) {... */\n      swap1\n      jump\t// out\n        /* \".deps/studying-solidity/v0.1/Testament/ProofOfLife.sol\":147:419  function updateProofOfLife() internal {... */\n    tag_213:\n        /* \".deps/studying-solidity/v0.1/Testament/ProofOfLife.sol\":196:207  address own */\n      0x00\n        /* \".deps/studying-solidity/v0.1/Testament/ProofOfLife.sol\":210:220  msg.sender */\n      caller\n        /* \".deps/studying-solidity/v0.1/Testament/ProofOfLife.sol\":196:220  address own = msg.sender */\n      swap1\n      pop\n        /* \".deps/studying-solidity/v0.1/Testament/ProofOfLife.sol\":253:263  testaments */\n      0x64\n        /* \".deps/studying-solidity/v0.1/Testament/ProofOfLife.sol\":253:268  testaments[own] */\n      0x00\n        /* \".deps/studying-solidity/v0.1/Testament/ProofOfLife.sol\":264:267  own */\n      dup3\n        /* \".deps/studying-solidity/v0.1/Testament/ProofOfLife.sol\":253:268  testaments[own] */\n      0xffffffffffffffffffffffffffffffffffffffff\n      and\n      0xffffffffffffffffffffffffffffffffffffffff\n      and\n      dup2\n      mstore\n      0x20\n      add\n      swap1\n      dup2\n      mstore\n      0x20\n      add\n      0x00\n      keccak256\n        /* \".deps/studying-solidity/v0.1/Testament/ProofOfLife.sol\":253:274  testaments[own].exist */\n      0x01\n      add\n      0x00\n      swap1\n      sload\n      swap1\n      0x0100\n      exp\n      swap1\n      div\n      0xff\n      and\n        /* \".deps/studying-solidity/v0.1/Testament/ProofOfLife.sol\":231:342  require(... */\n      tag_307\n      jumpi\n      mload(0x40)\n      0x08c379a000000000000000000000000000000000000000000000000000000000\n      dup2\n      mstore\n      0x04\n      add\n      tag_308\n      swap1\n      tag_309\n      jump\t// in\n    tag_308:\n      mload(0x40)\n      dup1\n      swap2\n      sub\n      swap1\n      revert\n    tag_307:\n        /* \".deps/studying-solidity/v0.1/Testament/ProofOfLife.sol\":395:410  block.timestamp */\n      timestamp\n        /* \".deps/studying-solidity/v0.1/Testament/ProofOfLife.sol\":353:363  testaments */\n      0x64\n        /* \".deps/studying-solidity/v0.1/Testament/ProofOfLife.sol\":353:368  testaments[own] */\n      0x00\n        /* \".deps/studying-solidity/v0.1/Testament/ProofOfLife.sol\":364:367  own */\n      dup4\n        /* \".deps/studying-solidity/v0.1/Testament/ProofOfLife.sol\":353:368  testaments[own] */\n      0xffffffffffffffffffffffffffffffffffffffff\n      and\n      0xffffffffffffffffffffffffffffffffffffffff\n      and\n      dup2\n      mstore\n      0x20\n      add\n      swap1\n      dup2\n      mstore\n      0x20\n      add\n      0x00\n      keccak256\n        /* \".deps/studying-solidity/v0.1/Testament/ProofOfLife.sol\":353:384  testaments[own].lastProofOfLife */\n      0x01\n      add\n      0x01\n        /* \".deps/studying-solidity/v0.1/Testament/ProofOfLife.sol\":353:411  testaments[own].lastProofOfLife = uint128(block.timestamp) */\n      0x0100\n      exp\n      dup2\n      sload\n      dup2\n      0xffffffffffffffffffffffffffffffff\n      mul\n      not\n      and\n      swap1\n      dup4\n      0xffffffffffffffffffffffffffffffff\n      and\n      mul\n      or\n      swap1\n      sstore\n      pop\n        /* \".deps/studying-solidity/v0.1/Testament/ProofOfLife.sol\":185:419  {... */\n      pop\n        /* \".deps/studying-solidity/v0.1/Testament/ProofOfLife.sol\":147:419  function updateProofOfLife() internal {... */\n      jump\t// out\n        /* \"@openzeppelin/contracts-upgradeable/proxy/utils/Initializable.sol\":9071:9276  function _getInitializableStorage() private pure returns (InitializableStorage storage $) {... */\n    tag_222:\n        /* \"@openzeppelin/contracts-upgradeable/proxy/utils/Initializable.sol\":9129:9159  InitializableStorage storage $ */\n      0x00\n        /* \"@openzeppelin/contracts-upgradeable/proxy/utils/Initializable.sol\":9171:9183  bytes32 slot */\n      0x00\n        /* \"@openzeppelin/contracts-upgradeable/proxy/utils/Initializable.sol\":9186:9213  _initializableStorageSlot() */\n      tag_311\n        /* \"@openzeppelin/contracts-upgradeable/proxy/utils/Initializable.sol\":9186:9211  _initializableStorageSlot */\n      tag_312\n        /* \"@openzeppelin/contracts-upgradeable/proxy/utils/Initializable.sol\":9186:9213  _initializableStorageSlot() */\n      jump\t// in\n    tag_311:\n        /* \"@openzeppelin/contracts-upgradeable/proxy/utils/Initializable.sol\":9171:9213  bytes32 slot = _initializableStorageSlot() */\n      swap1\n      pop\n        /* \"@openzeppelin/contracts-upgradeable/proxy/utils/Initializable.sol\":9256:9260  slot */\n      dup1\n        /* \"@openzeppelin/contracts-upgradeable/proxy/utils/Initializable.sol\":9246:9260  $.slot := slot */\n      swap2\n      pop\n        /* \"@openzeppelin/contracts-upgradeable/proxy/utils/Initializable.sol\":9232:9270  {... */\n      pop\n        /* \"@openzeppelin/contracts-upgradeable/proxy/utils/Initializable.sol\":9071:9276  function _getInitializableStorage() private pure returns (InitializableStorage storage $) {... */\n      swap1\n      jump\t// out\n        /* \"@openzeppelin/contracts-upgradeable/access/OwnableUpgradeable.sol\":1847:1974  function __Ownable_init(address initialOwner) internal onlyInitializing {... */\n    tag_230:\n        /* \"@openzeppelin/contracts-upgradeable/proxy/utils/Initializable.sol\":6929:6949  _checkInitializing() */\n      tag_314\n        /* \"@openzeppelin/contracts-upgradeable/proxy/utils/Initializable.sol\":6929:6947  _checkInitializing */\n      tag_315\n        /* \"@openzeppelin/contracts-upgradeable/proxy/utils/Initializable.sol\":6929:6949  _checkInitializing() */\n      jump\t// in\n    tag_314:\n        /* \"@openzeppelin/contracts-upgradeable/access/OwnableUpgradeable.sol\":1929:1967  __Ownable_init_unchained(initialOwner) */\n      tag_317\n        /* \"@openzeppelin/contracts-upgradeable/access/OwnableUpgradeable.sol\":1954:1966  initialOwner */\n      dup2\n        /* \"@openzeppelin/contracts-upgradeable/access/OwnableUpgradeable.sol\":1929:1953  __Ownable_init_unchained */\n      tag_318\n        /* \"@openzeppelin/contracts-upgradeable/access/OwnableUpgradeable.sol\":1929:1967  __Ownable_init_unchained(initialOwner) */\n      jump\t// in\n    tag_317:\n        /* \"@openzeppelin/contracts-upgradeable/access/OwnableUpgradeable.sol\":1847:1974  function __Ownable_init(address initialOwner) internal onlyInitializing {... */\n      pop\n      jump\t// out\n        /* \"@openzeppelin/contracts-upgradeable/proxy/utils/UUPSUpgradeable.sol\":2970:3037  function __UUPSUpgradeable_init() internal onlyInitializing {... */\n    tag_232:\n        /* \"@openzeppelin/contracts-upgradeable/proxy/utils/Initializable.sol\":6929:6949  _checkInitializing() */\n      tag_320\n        /* \"@openzeppelin/contracts-upgradeable/proxy/utils/Initializable.sol\":6929:6947  _checkInitializing */\n      tag_315\n        /* \"@openzeppelin/contracts-upgradeable/proxy/utils/Initializable.sol\":6929:6949  _checkInitializing() */\n      jump\t// in\n    tag_320:\n        /* \"@openzeppelin/contracts-upgradeable/proxy/utils/UUPSUpgradeable.sol\":2970:3037  function __UUPSUpgradeable_init() internal onlyInitializing {... */\n      jump\t// out\n        /* \"@openzeppelin/contracts-upgradeable/security/PausableUpgradeable.sol\":1084:1181  function __Pausable_init() internal onlyInitializing {... */\n    tag_234:\n        /* \"@openzeppelin/contracts-upgradeable/proxy/utils/Initializable.sol\":6929:6949  _checkInitializing() */\n      tag_323\n        /* \"@openzeppelin/contracts-upgradeable/proxy/utils/Initializable.sol\":6929:6947  _checkInitializing */\n      tag_315\n        /* \"@openzeppelin/contracts-upgradeable/proxy/utils/Initializable.sol\":6929:6949  _checkInitializing() */\n      jump\t// in\n    tag_323:\n        /* \"@openzeppelin/contracts-upgradeable/security/PausableUpgradeable.sol\":1147:1174  __Pausable_init_unchained() */\n      tag_325\n        /* \"@openzeppelin/contracts-upgradeable/security/PausableUpgradeable.sol\":1147:1172  __Pausable_init_unchained */\n      tag_326\n        /* \"@openzeppelin/contracts-upgradeable/security/PausableUpgradeable.sol\":1147:1174  __Pausable_init_unchained() */\n      jump\t// in\n    tag_325:\n        /* \"@openzeppelin/contracts-upgradeable/security/PausableUpgradeable.sol\":1084:1181  function __Pausable_init() internal onlyInitializing {... */\n      jump\t// out\n        /* \"@openzeppelin/contracts-upgradeable/security/ReentrancyGuardUpgradeable.sol\":1889:2000  function __ReentrancyGuard_init() internal onlyInitializing {... */\n    tag_236:\n        /* \"@openzeppelin/contracts-upgradeable/proxy/utils/Initializable.sol\":6929:6949  _checkInitializing() */\n      tag_328\n        /* \"@openzeppelin/contracts-upgradeable/proxy/utils/Initializable.sol\":6929:6947  _checkInitializing */\n      tag_315\n        /* \"@openzeppelin/contracts-upgradeable/proxy/utils/Initializable.sol\":6929:6949  _checkInitializing() */\n      jump\t// in\n    tag_328:\n        /* \"@openzeppelin/contracts-upgradeable/security/ReentrancyGuardUpgradeable.sol\":1959:1993  __ReentrancyGuard_init_unchained() */\n      tag_330\n        /* \"@openzeppelin/contracts-upgradeable/security/ReentrancyGuardUpgradeable.sol\":1959:1991  __ReentrancyGuard_init_unchained */\n      tag_331\n        /* \"@openzeppelin/contracts-upgradeable/security/ReentrancyGuardUpgradeable.sol\":1959:1993  __ReentrancyGuard_init_unchained() */\n      jump\t// in\n    tag_330:\n        /* \"@openzeppelin/contracts-upgradeable/security/ReentrancyGuardUpgradeable.sol\":1889:2000  function __ReentrancyGuard_init() internal onlyInitializing {... */\n      jump\t// out\n        /* \"@openzeppelin/contracts-upgradeable/access/AccessControlUpgradeable.sol\":3231:3296  function __AccessControl_init() internal onlyInitializing {... */\n    tag_238:\n        /* \"@openzeppelin/contracts-upgradeable/proxy/utils/Initializable.sol\":6929:6949  _checkInitializing() */\n      tag_333\n        /* \"@openzeppelin/contracts-upgradeable/proxy/utils/Initializable.sol\":6929:6947  _checkInitializing */\n      tag_315\n        /* \"@openzeppelin/contracts-upgradeable/proxy/utils/Initializable.sol\":6929:6949  _checkInitializing() */\n      jump\t// in\n    tag_333:\n        /* \"@openzeppelin/contracts-upgradeable/access/AccessControlUpgradeable.sol\":3231:3296  function __AccessControl_init() internal onlyInitializing {... */\n      jump\t// out\n        /* \"@openzeppelin/contracts-upgradeable/access/AccessControlUpgradeable.sol\":4381:4578  function _checkRole(bytes32 role, address account) internal view virtual {... */\n    tag_247:\n        /* \"@openzeppelin/contracts-upgradeable/access/AccessControlUpgradeable.sol\":4469:4491  hasRole(role, account) */\n      tag_336\n        /* \"@openzeppelin/contracts-upgradeable/access/AccessControlUpgradeable.sol\":4477:4481  role */\n      dup3\n        /* \"@openzeppelin/contracts-upgradeable/access/AccessControlUpgradeable.sol\":4483:4490  account */\n      dup3\n        /* \"@openzeppelin/contracts-upgradeable/access/AccessControlUpgradeable.sol\":4469:4476  hasRole */\n      tag_120\n        /* \"@openzeppelin/contracts-upgradeable/access/AccessControlUpgradeable.sol\":4469:4491  hasRole(role, account) */\n      jump\t// in\n    tag_336:\n        /* \"@openzeppelin/contracts-upgradeable/access/AccessControlUpgradeable.sol\":4464:4572  if (!hasRole(role, account)) {... */\n      tag_337\n      jumpi\n        /* \"@openzeppelin/contracts-upgradeable/access/AccessControlUpgradeable.sol\":4547:4554  account */\n      dup1\n        /* \"@openzeppelin/contracts-upgradeable/access/AccessControlUpgradeable.sol\":4556:4560  role */\n      dup3\n        /* \"@openzeppelin/contracts-upgradeable/access/AccessControlUpgradeable.sol\":4514:4561  AccessControlUnauthorizedAccount(account, role) */\n      mload(0x40)\n      0xe2517d3f00000000000000000000000000000000000000000000000000000000\n      dup2\n      mstore\n      0x04\n      add\n      tag_338\n      swap3\n      swap2\n      swap1\n      tag_339\n      jump\t// in\n    tag_338:\n      mload(0x40)\n      dup1\n      swap2\n      sub\n      swap1\n      revert\n        /* \"@openzeppelin/contracts-upgradeable/access/AccessControlUpgradeable.sol\":4464:4572  if (!hasRole(role, account)) {... */\n    tag_337:\n        /* \"@openzeppelin/contracts-upgradeable/access/AccessControlUpgradeable.sol\":4381:4578  function _checkRole(bytes32 role, address account) internal view virtual {... */\n      pop\n      pop\n      jump\t// out\n        /* \"@openzeppelin/contracts-upgradeable/security/PausableUpgradeable.sol\":2209:2315  function _requirePaused() internal view virtual {... */\n    tag_269:\n        /* \"@openzeppelin/contracts-upgradeable/security/PausableUpgradeable.sol\":2275:2283  paused() */\n      tag_341\n        /* \"@openzeppelin/contracts-upgradeable/security/PausableUpgradeable.sol\":2275:2281  paused */\n      tag_98\n        /* \"@openzeppelin/contracts-upgradeable/security/PausableUpgradeable.sol\":2275:2283  paused() */\n      jump\t// in\n    tag_341:\n        /* \"@openzeppelin/contracts-upgradeable/security/PausableUpgradeable.sol\":2267:2308  require(paused(), \"Pausable: not paused\") */\n      tag_342\n      jumpi\n      mload(0x40)\n      0x08c379a000000000000000000000000000000000000000000000000000000000\n      dup2\n      mstore\n      0x04\n      add\n      tag_343\n      swap1\n      tag_344\n      jump\t// in\n    tag_343:\n      mload(0x40)\n      dup1\n      swap2\n      sub\n      swap1\n      revert\n    tag_342:\n        /* \"@openzeppelin/contracts-upgradeable/security/PausableUpgradeable.sol\":2209:2315  function _requirePaused() internal view virtual {... */\n      jump\t// out\n        /* \"@openzeppelin/contracts/proxy/ERC1967/ERC1967Utils.sol\":1441:1579  function getImplementation() internal view returns (address) {... */\n    tag_276:\n        /* \"@openzeppelin/contracts/proxy/ERC1967/ERC1967Utils.sol\":1493:1500  address */\n      0x00\n        /* \"@openzeppelin/contracts/proxy/ERC1967/ERC1967Utils.sol\":1519:1566  StorageSlot.getAddressSlot(IMPLEMENTATION_SLOT) */\n      tag_346\n        /* \"@openzeppelin/contracts/proxy/ERC1967/ERC1967Utils.sol\":811:877  0x360894a13ba1a3210667c828492db98dca3e2076cc3735a920a3ca505d382bbc */\n      0x360894a13ba1a3210667c828492db98dca3e2076cc3735a920a3ca505d382bbc\n        /* \"@openzeppelin/contracts/proxy/ERC1967/ERC1967Utils.sol\":1546:1565  IMPLEMENTATION_SLOT */\n      0x00\n      shl\n        /* \"@openzeppelin/contracts/proxy/ERC1967/ERC1967Utils.sol\":1519:1545  StorageSlot.getAddressSlot */\n      tag_347\n        /* \"@openzeppelin/contracts/proxy/ERC1967/ERC1967Utils.sol\":1519:1566  StorageSlot.getAddressSlot(IMPLEMENTATION_SLOT) */\n      jump\t// in\n    tag_346:\n        /* \"@openzeppelin/contracts/proxy/ERC1967/ERC1967Utils.sol\":1519:1572  StorageSlot.getAddressSlot(IMPLEMENTATION_SLOT).value */\n      0x00\n      add\n      0x00\n      swap1\n      sload\n      swap1\n      0x0100\n      exp\n      swap1\n      div\n      0xffffffffffffffffffffffffffffffffffffffff\n      and\n        /* \"@openzeppelin/contracts/proxy/ERC1967/ERC1967Utils.sol\":1512:1572  return StorageSlot.getAddressSlot(IMPLEMENTATION_SLOT).value */\n      swap1\n      pop\n        /* \"@openzeppelin/contracts/proxy/ERC1967/ERC1967Utils.sol\":1441:1579  function getImplementation() internal view returns (address) {... */\n      swap1\n      jump\t// out\n        /* \"@openzeppelin/contracts/proxy/ERC1967/ERC1967Utils.sol\":2264:2608  function upgradeToAndCall(address newImplementation, bytes memory data) internal {... */\n    tag_294:\n        /* \"@openzeppelin/contracts/proxy/ERC1967/ERC1967Utils.sol\":2355:2392  _setImplementation(newImplementation) */\n      tag_349\n        /* \"@openzeppelin/contracts/proxy/ERC1967/ERC1967Utils.sol\":2374:2391  newImplementation */\n      dup3\n        /* \"@openzeppelin/contracts/proxy/ERC1967/ERC1967Utils.sol\":2355:2373  _setImplementation */\n      tag_350\n        /* \"@openzeppelin/contracts/proxy/ERC1967/ERC1967Utils.sol\":2355:2392  _setImplementation(newImplementation) */\n      jump\t// in\n    tag_349:\n        /* \"@openzeppelin/contracts/proxy/ERC1967/ERC1967Utils.sol\":2425:2442  newImplementation */\n      dup2\n        /* \"@openzeppelin/contracts/proxy/ERC1967/ERC1967Utils.sol\":2407:2443  IERC1967.Upgraded(newImplementation) */\n      0xffffffffffffffffffffffffffffffffffffffff\n      and\n      0xbc7cd75a20ee27fd9adebab32041f755214dbc6bffa90cc0225b39da2e5c2d3b\n      mload(0x40)\n      mload(0x40)\n      dup1\n      swap2\n      sub\n      swap1\n      log2\n        /* \"@openzeppelin/contracts/proxy/ERC1967/ERC1967Utils.sol\":2472:2473  0 */\n      0x00\n        /* \"@openzeppelin/contracts/proxy/ERC1967/ERC1967Utils.sol\":2458:2462  data */\n      dup2\n        /* \"@openzeppelin/contracts/proxy/ERC1967/ERC1967Utils.sol\":2458:2469  data.length */\n      mload\n        /* \"@openzeppelin/contracts/proxy/ERC1967/ERC1967Utils.sol\":2458:2473  data.length > 0 */\n      gt\n        /* \"@openzeppelin/contracts/proxy/ERC1967/ERC1967Utils.sol\":2454:2602  if (data.length > 0) {... */\n      iszero\n      tag_351\n      jumpi\n        /* \"@openzeppelin/contracts/proxy/ERC1967/ERC1967Utils.sol\":2489:2542  Address.functionDelegateCall(newImplementation, data) */\n      tag_352\n        /* \"@openzeppelin/contracts/proxy/ERC1967/ERC1967Utils.sol\":2518:2535  newImplementation */\n      dup3\n        /* \"@openzeppelin/contracts/proxy/ERC1967/ERC1967Utils.sol\":2537:2541  data */\n      dup3\n        /* \"@openzeppelin/contracts/proxy/ERC1967/ERC1967Utils.sol\":2489:2517  Address.functionDelegateCall */\n      tag_353\n        /* \"@openzeppelin/contracts/proxy/ERC1967/ERC1967Utils.sol\":2489:2542  Address.functionDelegateCall(newImplementation, data) */\n      jump\t// in\n    tag_352:\n      pop\n        /* \"@openzeppelin/contracts/proxy/ERC1967/ERC1967Utils.sol\":2454:2602  if (data.length > 0) {... */\n      jump(tag_354)\n    tag_351:\n        /* \"@openzeppelin/contracts/proxy/ERC1967/ERC1967Utils.sol\":2573:2591  _checkNonPayable() */\n      tag_355\n        /* \"@openzeppelin/contracts/proxy/ERC1967/ERC1967Utils.sol\":2573:2589  _checkNonPayable */\n      tag_356\n        /* \"@openzeppelin/contracts/proxy/ERC1967/ERC1967Utils.sol\":2573:2591  _checkNonPayable() */\n      jump\t// in\n    tag_355:\n        /* \"@openzeppelin/contracts/proxy/ERC1967/ERC1967Utils.sol\":2454:2602  if (data.length > 0) {... */\n    tag_354:\n        /* \"@openzeppelin/contracts/proxy/ERC1967/ERC1967Utils.sol\":2264:2608  function upgradeToAndCall(address newImplementation, bytes memory data) internal {... */\n      pop\n      pop\n      jump\t// out\n        /* \"@openzeppelin/contracts-upgradeable/security/PausableUpgradeable.sol\":2031:2137  function _requireNotPaused() internal view virtual {... */\n    tag_301:\n        /* \"@openzeppelin/contracts-upgradeable/security/PausableUpgradeable.sol\":2101:2109  paused() */\n      tag_358\n        /* \"@openzeppelin/contracts-upgradeable/security/PausableUpgradeable.sol\":2101:2107  paused */\n      tag_98\n        /* \"@openzeppelin/contracts-upgradeable/security/PausableUpgradeable.sol\":2101:2109  paused() */\n      jump\t// in\n    tag_358:\n        /* \"@openzeppelin/contracts-upgradeable/security/PausableUpgradeable.sol\":2100:2109  !paused() */\n      iszero\n        /* \"@openzeppelin/contracts-upgradeable/security/PausableUpgradeable.sol\":2092:2130  require(!paused(), \"Pausable: paused\") */\n      tag_359\n      jumpi\n      mload(0x40)\n      0x08c379a000000000000000000000000000000000000000000000000000000000\n      dup2\n      mstore\n      0x04\n      add\n      tag_360\n      swap1\n      tag_361\n      jump\t// in\n    tag_360:\n      mload(0x40)\n      dup1\n      swap2\n      sub\n      swap1\n      revert\n    tag_359:\n        /* \"@openzeppelin/contracts-upgradeable/security/PausableUpgradeable.sol\":2031:2137  function _requireNotPaused() internal view virtual {... */\n      jump\t// out\n        /* \"@openzeppelin/contracts-upgradeable/proxy/utils/Initializable.sol\":8819:8941  function _initializableStorageSlot() internal pure virtual returns (bytes32) {... */\n    tag_312:\n        /* \"@openzeppelin/contracts-upgradeable/proxy/utils/Initializable.sol\":8887:8894  bytes32 */\n      0x00\n        /* \"@openzeppelin/contracts-upgradeable/proxy/utils/Initializable.sol\":3147:3213  0xf0c57e16840df040f15088dc2f81fe391c3923bec73e23a9662efc9c229c6a00 */\n      0xf0c57e16840df040f15088dc2f81fe391c3923bec73e23a9662efc9c229c6a00\n        /* \"@openzeppelin/contracts-upgradeable/proxy/utils/Initializable.sol\":8913:8934  INITIALIZABLE_STORAGE */\n      0x00\n      shl\n        /* \"@openzeppelin/contracts-upgradeable/proxy/utils/Initializable.sol\":8906:8934  return INITIALIZABLE_STORAGE */\n      swap1\n      pop\n        /* \"@openzeppelin/contracts-upgradeable/proxy/utils/Initializable.sol\":8819:8941  function _initializableStorageSlot() internal pure virtual returns (bytes32) {... */\n      swap1\n      jump\t// out\n        /* \"@openzeppelin/contracts-upgradeable/proxy/utils/Initializable.sol\":7082:7223  function _checkInitializing() internal view virtual {... */\n    tag_315:\n        /* \"@openzeppelin/contracts-upgradeable/proxy/utils/Initializable.sol\":7149:7166  _isInitializing() */\n      tag_364\n        /* \"@openzeppelin/contracts-upgradeable/proxy/utils/Initializable.sol\":7149:7164  _isInitializing */\n      tag_365\n        /* \"@openzeppelin/contracts-upgradeable/proxy/utils/Initializable.sol\":7149:7166  _isInitializing() */\n      jump\t// in\n    tag_364:\n        /* \"@openzeppelin/contracts-upgradeable/proxy/utils/Initializable.sol\":7144:7217  if (!_isInitializing()) {... */\n      tag_366\n      jumpi\n        /* \"@openzeppelin/contracts-upgradeable/proxy/utils/Initializable.sol\":7189:7206  NotInitializing() */\n      mload(0x40)\n      0xd7e6bcf800000000000000000000000000000000000000000000000000000000\n      dup2\n      mstore\n      0x04\n      add\n      mload(0x40)\n      dup1\n      swap2\n      sub\n      swap1\n      revert\n        /* \"@openzeppelin/contracts-upgradeable/proxy/utils/Initializable.sol\":7144:7217  if (!_isInitializing()) {... */\n    tag_366:\n        /* \"@openzeppelin/contracts-upgradeable/proxy/utils/Initializable.sol\":7082:7223  function _checkInitializing() internal view virtual {... */\n      jump\t// out\n        /* \"@openzeppelin/contracts-upgradeable/access/OwnableUpgradeable.sol\":1980:2215  function __Ownable_init_unchained(address initialOwner) internal onlyInitializing {... */\n    tag_318:\n        /* \"@openzeppelin/contracts-upgradeable/proxy/utils/Initializable.sol\":6929:6949  _checkInitializing() */\n      tag_368\n        /* \"@openzeppelin/contracts-upgradeable/proxy/utils/Initializable.sol\":6929:6947  _checkInitializing */\n      tag_315\n        /* \"@openzeppelin/contracts-upgradeable/proxy/utils/Initializable.sol\":6929:6949  _checkInitializing() */\n      jump\t// in\n    tag_368:\n        /* \"@openzeppelin/contracts-upgradeable/access/OwnableUpgradeable.sol\":2100:2101  0 */\n      0x00\n        /* \"@openzeppelin/contracts-upgradeable/access/OwnableUpgradeable.sol\":2076:2102  initialOwner == address(0) */\n      0xffffffffffffffffffffffffffffffffffffffff\n      and\n        /* \"@openzeppelin/contracts-upgradeable/access/OwnableUpgradeable.sol\":2076:2088  initialOwner */\n      dup2\n        /* \"@openzeppelin/contracts-upgradeable/access/OwnableUpgradeable.sol\":2076:2102  initialOwner == address(0) */\n      0xffffffffffffffffffffffffffffffffffffffff\n      and\n      sub\n        /* \"@openzeppelin/contracts-upgradeable/access/OwnableUpgradeable.sol\":2072:2167  if (initialOwner == address(0)) {... */\n      tag_370\n      jumpi\n        /* \"@openzeppelin/contracts-upgradeable/access/OwnableUpgradeable.sol\":2153:2154  0 */\n      0x00\n        /* \"@openzeppelin/contracts-upgradeable/access/OwnableUpgradeable.sol\":2125:2156  OwnableInvalidOwner(address(0)) */\n      mload(0x40)\n      0x1e4fbdf700000000000000000000000000000000000000000000000000000000\n      dup2\n      mstore\n      0x04\n      add\n      tag_371\n      swap2\n      swap1\n      tag_44\n      jump\t// in\n    tag_371:\n      mload(0x40)\n      dup1\n      swap2\n      sub\n      swap1\n      revert\n        /* \"@openzeppelin/contracts-upgradeable/access/OwnableUpgradeable.sol\":2072:2167  if (initialOwner == address(0)) {... */\n    tag_370:\n        /* \"@openzeppelin/contracts-upgradeable/access/OwnableUpgradeable.sol\":2176:2208  _transferOwnership(initialOwner) */\n      tag_372\n        /* \"@openzeppelin/contracts-upgradeable/access/OwnableUpgradeable.sol\":2195:2207  initialOwner */\n      dup2\n        /* \"@openzeppelin/contracts-upgradeable/access/OwnableUpgradeable.sol\":2176:2194  _transferOwnership */\n      tag_195\n        /* \"@openzeppelin/contracts-upgradeable/access/OwnableUpgradeable.sol\":2176:2208  _transferOwnership(initialOwner) */\n      jump\t// in\n    tag_372:\n        /* \"@openzeppelin/contracts-upgradeable/access/OwnableUpgradeable.sol\":1980:2215  function __Ownable_init_unchained(address initialOwner) internal onlyInitializing {... */\n      pop\n      jump\t// out\n        /* \"@openzeppelin/contracts-upgradeable/security/PausableUpgradeable.sol\":1187:1282  function __Pausable_init_unchained() internal onlyInitializing {... */\n    tag_326:\n        /* \"@openzeppelin/contracts-upgradeable/proxy/utils/Initializable.sol\":6929:6949  _checkInitializing() */\n      tag_374\n        /* \"@openzeppelin/contracts-upgradeable/proxy/utils/Initializable.sol\":6929:6947  _checkInitializing */\n      tag_315\n        /* \"@openzeppelin/contracts-upgradeable/proxy/utils/Initializable.sol\":6929:6949  _checkInitializing() */\n      jump\t// in\n    tag_374:\n        /* \"@openzeppelin/contracts-upgradeable/security/PausableUpgradeable.sol\":1270:1275  false */\n      0x00\n        /* \"@openzeppelin/contracts-upgradeable/security/PausableUpgradeable.sol\":1260:1267  _paused */\n      0x00\n      0x00\n        /* \"@openzeppelin/contracts-upgradeable/security/PausableUpgradeable.sol\":1260:1275  _paused = false */\n      0x0100\n      exp\n      dup2\n      sload\n      dup2\n      0xff\n      mul\n      not\n      and\n      swap1\n      dup4\n      iszero\n      iszero\n      mul\n      or\n      swap1\n      sstore\n      pop\n        /* \"@openzeppelin/contracts-upgradeable/security/PausableUpgradeable.sol\":1187:1282  function __Pausable_init_unchained() internal onlyInitializing {... */\n      jump\t// out\n        /* \"@openzeppelin/contracts-upgradeable/security/ReentrancyGuardUpgradeable.sol\":2006:2115  function __ReentrancyGuard_init_unchained() internal onlyInitializing {... */\n    tag_331:\n        /* \"@openzeppelin/contracts-upgradeable/proxy/utils/Initializable.sol\":6929:6949  _checkInitializing() */\n      tag_377\n        /* \"@openzeppelin/contracts-upgradeable/proxy/utils/Initializable.sol\":6929:6947  _checkInitializing */\n      tag_315\n        /* \"@openzeppelin/contracts-upgradeable/proxy/utils/Initializable.sol\":6929:6949  _checkInitializing() */\n      jump\t// in\n    tag_377:\n        /* \"@openzeppelin/contracts-upgradeable/security/ReentrancyGuardUpgradeable.sol\":1808:1809  1 */\n      0x01\n        /* \"@openzeppelin/contracts-upgradeable/security/ReentrancyGuardUpgradeable.sol\":2086:2093  _status */\n      0x32\n        /* \"@openzeppelin/contracts-upgradeable/security/ReentrancyGuardUpgradeable.sol\":2086:2108  _status = _NOT_ENTERED */\n      dup2\n      swap1\n      sstore\n      pop\n        /* \"@openzeppelin/contracts-upgradeable/security/ReentrancyGuardUpgradeable.sol\":2006:2115  function __ReentrancyGuard_init_unchained() internal onlyInitializing {... */\n      jump\t// out\n        /* \"@openzeppelin/contracts/utils/StorageSlot.sol\":1899:2062  function getAddressSlot(bytes32 slot) internal pure returns (AddressSlot storage r) {... */\n    tag_347:\n        /* \"@openzeppelin/contracts/utils/StorageSlot.sol\":1960:1981  AddressSlot storage r */\n      0x00\n        /* \"@openzeppelin/contracts/utils/StorageSlot.sol\":2042:2046  slot */\n      dup2\n        /* \"@openzeppelin/contracts/utils/StorageSlot.sol\":2032:2046  r.slot := slot */\n      swap1\n      pop\n        /* \"@openzeppelin/contracts/utils/StorageSlot.sol\":1899:2062  function getAddressSlot(bytes32 slot) internal pure returns (AddressSlot storage r) {... */\n      swap2\n      swap1\n      pop\n      jump\t// out\n        /* \"@openzeppelin/contracts/proxy/ERC1967/ERC1967Utils.sol\":1671:1952  function _setImplementation(address newImplementation) private {... */\n    tag_350:\n        /* \"@openzeppelin/contracts/proxy/ERC1967/ERC1967Utils.sol\":1781:1782  0 */\n      0x00\n        /* \"@openzeppelin/contracts/proxy/ERC1967/ERC1967Utils.sol\":1748:1765  newImplementation */\n      dup2\n        /* \"@openzeppelin/contracts/proxy/ERC1967/ERC1967Utils.sol\":1748:1777  newImplementation.code.length */\n      0xffffffffffffffffffffffffffffffffffffffff\n      and\n      extcodesize\n        /* \"@openzeppelin/contracts/proxy/ERC1967/ERC1967Utils.sol\":1748:1782  newImplementation.code.length == 0 */\n      sub\n        /* \"@openzeppelin/contracts/proxy/ERC1967/ERC1967Utils.sol\":1744:1863  if (newImplementation.code.length == 0) {... */\n      tag_381\n      jumpi\n        /* \"@openzeppelin/contracts/proxy/ERC1967/ERC1967Utils.sol\":1834:1851  newImplementation */\n      dup1\n        /* \"@openzeppelin/contracts/proxy/ERC1967/ERC1967Utils.sol\":1805:1852  ERC1967InvalidImplementation(newImplementation) */\n      mload(0x40)\n      0x4c9c8ce300000000000000000000000000000000000000000000000000000000\n      dup2\n      mstore\n      0x04\n      add\n      tag_382\n      swap2\n      swap1\n      tag_44\n      jump\t// in\n    tag_382:\n      mload(0x40)\n      dup1\n      swap2\n      sub\n      swap1\n      revert\n        /* \"@openzeppelin/contracts/proxy/ERC1967/ERC1967Utils.sol\":1744:1863  if (newImplementation.code.length == 0) {... */\n    tag_381:\n        /* \"@openzeppelin/contracts/proxy/ERC1967/ERC1967Utils.sol\":1928:1945  newImplementation */\n      dup1\n        /* \"@openzeppelin/contracts/proxy/ERC1967/ERC1967Utils.sol\":1872:1919  StorageSlot.getAddressSlot(IMPLEMENTATION_SLOT) */\n      tag_383\n        /* \"@openzeppelin/contracts/proxy/ERC1967/ERC1967Utils.sol\":811:877  0x360894a13ba1a3210667c828492db98dca3e2076cc3735a920a3ca505d382bbc */\n      0x360894a13ba1a3210667c828492db98dca3e2076cc3735a920a3ca505d382bbc\n        /* \"@openzeppelin/contracts/proxy/ERC1967/ERC1967Utils.sol\":1899:1918  IMPLEMENTATION_SLOT */\n      0x00\n      shl\n        /* \"@openzeppelin/contracts/proxy/ERC1967/ERC1967Utils.sol\":1872:1898  StorageSlot.getAddressSlot */\n      tag_347\n        /* \"@openzeppelin/contracts/proxy/ERC1967/ERC1967Utils.sol\":1872:1919  StorageSlot.getAddressSlot(IMPLEMENTATION_SLOT) */\n      jump\t// in\n    tag_383:\n        /* \"@openzeppelin/contracts/proxy/ERC1967/ERC1967Utils.sol\":1872:1925  StorageSlot.getAddressSlot(IMPLEMENTATION_SLOT).value */\n      0x00\n      add\n      0x00\n        /* \"@openzeppelin/contracts/proxy/ERC1967/ERC1967Utils.sol\":1872:1945  StorageSlot.getAddressSlot(IMPLEMENTATION_SLOT).value = newImplementation */\n      0x0100\n      exp\n      dup2\n      sload\n      dup2\n      0xffffffffffffffffffffffffffffffffffffffff\n      mul\n      not\n      and\n      swap1\n      dup4\n      0xffffffffffffffffffffffffffffffffffffffff\n      and\n      mul\n      or\n      swap1\n      sstore\n      pop\n        /* \"@openzeppelin/contracts/proxy/ERC1967/ERC1967Utils.sol\":1671:1952  function _setImplementation(address newImplementation) private {... */\n      pop\n      jump\t// out\n        /* \"@openzeppelin/contracts/utils/Address.sol\":3916:4169  function functionDelegateCall(address target, bytes memory data) internal returns (bytes memory) {... */\n    tag_353:\n        /* \"@openzeppelin/contracts/utils/Address.sol\":3999:4011  bytes memory */\n      0x60\n        /* \"@openzeppelin/contracts/utils/Address.sol\":4024:4036  bool success */\n      0x00\n        /* \"@openzeppelin/contracts/utils/Address.sol\":4038:4061  bytes memory returndata */\n      0x00\n        /* \"@openzeppelin/contracts/utils/Address.sol\":4065:4071  target */\n      dup5\n        /* \"@openzeppelin/contracts/utils/Address.sol\":4065:4084  target.delegatecall */\n      0xffffffffffffffffffffffffffffffffffffffff\n      and\n        /* \"@openzeppelin/contracts/utils/Address.sol\":4085:4089  data */\n      dup5\n        /* \"@openzeppelin/contracts/utils/Address.sol\":4065:4090  target.delegatecall(data) */\n      mload(0x40)\n      tag_385\n      swap2\n      swap1\n      tag_386\n      jump\t// in\n    tag_385:\n      0x00\n      mload(0x40)\n      dup1\n      dup4\n      sub\n      dup2\n      dup6\n      gas\n      delegatecall\n      swap2\n      pop\n      pop\n      returndatasize\n      dup1\n      0x00\n      dup2\n      eq\n      tag_389\n      jumpi\n      mload(0x40)\n      swap2\n      pop\n      and(add(returndatasize, 0x3f), not(0x1f))\n      dup3\n      add\n      0x40\n      mstore\n      returndatasize\n      dup3\n      mstore\n      returndatasize\n      0x00\n      0x20\n      dup5\n      add\n      returndatacopy\n      jump(tag_388)\n    tag_389:\n      0x60\n      swap2\n      pop\n    tag_388:\n      pop\n        /* \"@openzeppelin/contracts/utils/Address.sol\":4023:4090  (bool success, bytes memory returndata) = target.delegatecall(data) */\n      swap2\n      pop\n      swap2\n      pop\n        /* \"@openzeppelin/contracts/utils/Address.sol\":4107:4162  verifyCallResultFromTarget(target, success, returndata) */\n      tag_390\n        /* \"@openzeppelin/contracts/utils/Address.sol\":4134:4140  target */\n      dup6\n        /* \"@openzeppelin/contracts/utils/Address.sol\":4142:4149  success */\n      dup4\n        /* \"@openzeppelin/contracts/utils/Address.sol\":4151:4161  returndata */\n      dup4\n        /* \"@openzeppelin/contracts/utils/Address.sol\":4107:4133  verifyCallResultFromTarget */\n      tag_391\n        /* \"@openzeppelin/contracts/utils/Address.sol\":4107:4162  verifyCallResultFromTarget(target, success, returndata) */\n      jump\t// in\n    tag_390:\n        /* \"@openzeppelin/contracts/utils/Address.sol\":4100:4162  return verifyCallResultFromTarget(target, success, returndata) */\n      swap3\n      pop\n      pop\n      pop\n        /* \"@openzeppelin/contracts/utils/Address.sol\":3916:4169  function functionDelegateCall(address target, bytes memory data) internal returns (bytes memory) {... */\n      swap3\n      swap2\n      pop\n      pop\n      jump\t// out\n        /* \"@openzeppelin/contracts/proxy/ERC1967/ERC1967Utils.sol\":6113:6235  function _checkNonPayable() private {... */\n    tag_356:\n        /* \"@openzeppelin/contracts/proxy/ERC1967/ERC1967Utils.sol\":6175:6176  0 */\n      0x00\n        /* \"@openzeppelin/contracts/proxy/ERC1967/ERC1967Utils.sol\":6163:6172  msg.value */\n      callvalue\n        /* \"@openzeppelin/contracts/proxy/ERC1967/ERC1967Utils.sol\":6163:6176  msg.value > 0 */\n      gt\n        /* \"@openzeppelin/contracts/proxy/ERC1967/ERC1967Utils.sol\":6159:6229  if (msg.value > 0) {... */\n      iszero\n      tag_393\n      jumpi\n        /* \"@openzeppelin/contracts/proxy/ERC1967/ERC1967Utils.sol\":6199:6218  ERC1967NonPayable() */\n      mload(0x40)\n      0xb398979f00000000000000000000000000000000000000000000000000000000\n      dup2\n      mstore\n      0x04\n      add\n      mload(0x40)\n      dup1\n      swap2\n      sub\n      swap1\n      revert\n        /* \"@openzeppelin/contracts/proxy/ERC1967/ERC1967Utils.sol\":6159:6229  if (msg.value > 0) {... */\n    tag_393:\n        /* \"@openzeppelin/contracts/proxy/ERC1967/ERC1967Utils.sol\":6113:6235  function _checkNonPayable() private {... */\n      jump\t// out\n        /* \"@openzeppelin/contracts-upgradeable/proxy/utils/Initializable.sol\":8485:8605  function _isInitializing() internal view returns (bool) {... */\n    tag_365:\n        /* \"@openzeppelin/contracts-upgradeable/proxy/utils/Initializable.sol\":8535:8539  bool */\n      0x00\n        /* \"@openzeppelin/contracts-upgradeable/proxy/utils/Initializable.sol\":8558:8584  _getInitializableStorage() */\n      tag_395\n        /* \"@openzeppelin/contracts-upgradeable/proxy/utils/Initializable.sol\":8558:8582  _getInitializableStorage */\n      tag_222\n        /* \"@openzeppelin/contracts-upgradeable/proxy/utils/Initializable.sol\":8558:8584  _getInitializableStorage() */\n      jump\t// in\n    tag_395:\n        /* \"@openzeppelin/contracts-upgradeable/proxy/utils/Initializable.sol\":8558:8598  _getInitializableStorage()._initializing */\n      0x00\n      add\n      0x08\n      swap1\n      sload\n      swap1\n      0x0100\n      exp\n      swap1\n      div\n      0xff\n      and\n        /* \"@openzeppelin/contracts-upgradeable/proxy/utils/Initializable.sol\":8551:8598  return _getInitializableStorage()._initializing */\n      swap1\n      pop\n        /* \"@openzeppelin/contracts-upgradeable/proxy/utils/Initializable.sol\":8485:8605  function _isInitializing() internal view returns (bool) {... */\n      swap1\n      jump\t// out\n        /* \"@openzeppelin/contracts/utils/Address.sol\":4437:5019  function verifyCallResultFromTarget(... */\n    tag_391:\n        /* \"@openzeppelin/contracts/utils/Address.sol\":4581:4593  bytes memory */\n      0x60\n        /* \"@openzeppelin/contracts/utils/Address.sol\":4610:4617  success */\n      dup3\n        /* \"@openzeppelin/contracts/utils/Address.sol\":4605:5013  if (!success) {... */\n      tag_397\n      jumpi\n        /* \"@openzeppelin/contracts/utils/Address.sol\":4633:4652  _revert(returndata) */\n      tag_398\n        /* \"@openzeppelin/contracts/utils/Address.sol\":4641:4651  returndata */\n      dup3\n        /* \"@openzeppelin/contracts/utils/Address.sol\":4633:4640  _revert */\n      tag_399\n        /* \"@openzeppelin/contracts/utils/Address.sol\":4633:4652  _revert(returndata) */\n      jump\t// in\n    tag_398:\n        /* \"@openzeppelin/contracts/utils/Address.sol\":4605:5013  if (!success) {... */\n      jump(tag_400)\n    tag_397:\n        /* \"@openzeppelin/contracts/utils/Address.sol\":4878:4879  0 */\n      0x00\n        /* \"@openzeppelin/contracts/utils/Address.sol\":4857:4867  returndata */\n      dup3\n        /* \"@openzeppelin/contracts/utils/Address.sol\":4857:4874  returndata.length */\n      mload\n        /* \"@openzeppelin/contracts/utils/Address.sol\":4857:4879  returndata.length == 0 */\n      eq\n        /* \"@openzeppelin/contracts/utils/Address.sol\":4857:4906  returndata.length == 0 && target.code.length == 0 */\n      dup1\n      iszero\n      tag_401\n      jumpi\n      pop\n        /* \"@openzeppelin/contracts/utils/Address.sol\":4905:4906  0 */\n      0x00\n        /* \"@openzeppelin/contracts/utils/Address.sol\":4883:4889  target */\n      dup5\n        /* \"@openzeppelin/contracts/utils/Address.sol\":4883:4901  target.code.length */\n      0xffffffffffffffffffffffffffffffffffffffff\n      and\n      extcodesize\n        /* \"@openzeppelin/contracts/utils/Address.sol\":4883:4906  target.code.length == 0 */\n      eq\n        /* \"@openzeppelin/contracts/utils/Address.sol\":4857:4906  returndata.length == 0 && target.code.length == 0 */\n    tag_401:\n        /* \"@openzeppelin/contracts/utils/Address.sol\":4853:4972  if (returndata.length == 0 && target.code.length == 0) {... */\n      iszero\n      tag_402\n      jumpi\n        /* \"@openzeppelin/contracts/utils/Address.sol\":4950:4956  target */\n      dup4\n        /* \"@openzeppelin/contracts/utils/Address.sol\":4933:4957  AddressEmptyCode(target) */\n      mload(0x40)\n      0x9996b31500000000000000000000000000000000000000000000000000000000\n      dup2\n      mstore\n      0x04\n      add\n      tag_403\n      swap2\n      swap1\n      tag_44\n      jump\t// in\n    tag_403:\n      mload(0x40)\n      dup1\n      swap2\n      sub\n      swap1\n      revert\n        /* \"@openzeppelin/contracts/utils/Address.sol\":4853:4972  if (returndata.length == 0 && target.code.length == 0) {... */\n    tag_402:\n        /* \"@openzeppelin/contracts/utils/Address.sol\":4992:5002  returndata */\n      dup2\n        /* \"@openzeppelin/contracts/utils/Address.sol\":4985:5002  return returndata */\n      swap1\n      pop\n      jump(tag_396)\n        /* \"@openzeppelin/contracts/utils/Address.sol\":4605:5013  if (!success) {... */\n    tag_400:\n        /* \"@openzeppelin/contracts/utils/Address.sol\":4437:5019  function verifyCallResultFromTarget(... */\n    tag_396:\n      swap4\n      swap3\n      pop\n      pop\n      pop\n      jump\t// out\n        /* \"@openzeppelin/contracts/utils/Address.sol\":5559:6046  function _revert(bytes memory returndata) private pure {... */\n    tag_399:\n        /* \"@openzeppelin/contracts/utils/Address.sol\":5710:5711  0 */\n      0x00\n        /* \"@openzeppelin/contracts/utils/Address.sol\":5690:5700  returndata */\n      dup2\n        /* \"@openzeppelin/contracts/utils/Address.sol\":5690:5707  returndata.length */\n      mload\n        /* \"@openzeppelin/contracts/utils/Address.sol\":5690:5711  returndata.length > 0 */\n      gt\n        /* \"@openzeppelin/contracts/utils/Address.sol\":5686:6040  if (returndata.length > 0) {... */\n      iszero\n      tag_405\n      jumpi\n        /* \"@openzeppelin/contracts/utils/Address.sol\":5887:5897  returndata */\n      dup1\n        /* \"@openzeppelin/contracts/utils/Address.sol\":5881:5898  mload(returndata) */\n      mload\n        /* \"@openzeppelin/contracts/utils/Address.sol\":5943:5958  returndata_size */\n      dup1\n        /* \"@openzeppelin/contracts/utils/Address.sol\":5930:5940  returndata */\n      dup3\n        /* \"@openzeppelin/contracts/utils/Address.sol\":5926:5928  32 */\n      0x20\n        /* \"@openzeppelin/contracts/utils/Address.sol\":5922:5941  add(32, returndata) */\n      add\n        /* \"@openzeppelin/contracts/utils/Address.sol\":5915:5959  revert(add(32, returndata), returndata_size) */\n      revert\n        /* \"@openzeppelin/contracts/utils/Address.sol\":5686:6040  if (returndata.length > 0) {... */\n    tag_405:\n        /* \"@openzeppelin/contracts/utils/Address.sol\":6010:6029  Errors.FailedCall() */\n      mload(0x40)\n      0xd6bda27500000000000000000000000000000000000000000000000000000000\n      dup2\n      mstore\n      0x04\n      add\n      mload(0x40)\n      dup1\n      swap2\n      sub\n      swap1\n      revert\n        /* \"#utility.yul\":7:82   */\n    tag_407:\n        /* \"#utility.yul\":40:46   */\n      0x00\n        /* \"#utility.yul\":73:75   */\n      0x40\n        /* \"#utility.yul\":67:76   */\n      mload\n        /* \"#utility.yul\":57:76   */\n      swap1\n      pop\n        /* \"#utility.yul\":7:82   */\n      swap1\n      jump\t// out\n        /* \"#utility.yul\":88:205   */\n    tag_408:\n        /* \"#utility.yul\":197:198   */\n      0x00\n        /* \"#utility.yul\":194:195   */\n      0x00\n        /* \"#utility.yul\":187:199   */\n      revert\n        /* \"#utility.yul\":211:328   */\n    tag_409:\n        /* \"#utility.yul\":320:321   */\n      0x00\n        /* \"#utility.yul\":317:318   */\n      0x00\n        /* \"#utility.yul\":310:322   */\n      revert\n        /* \"#utility.yul\":334:483   */\n    tag_410:\n        /* \"#utility.yul\":370:377   */\n      0x00\n        /* \"#utility.yul\":410:476   */\n      0xffffffff00000000000000000000000000000000000000000000000000000000\n        /* \"#utility.yul\":403:408   */\n      dup3\n        /* \"#utility.yul\":399:477   */\n      and\n        /* \"#utility.yul\":388:477   */\n      swap1\n      pop\n        /* \"#utility.yul\":334:483   */\n      swap2\n      swap1\n      pop\n      jump\t// out\n        /* \"#utility.yul\":489:609   */\n    tag_411:\n        /* \"#utility.yul\":561:584   */\n      tag_469\n        /* \"#utility.yul\":578:583   */\n      dup2\n        /* \"#utility.yul\":561:584   */\n      tag_410\n      jump\t// in\n    tag_469:\n        /* \"#utility.yul\":554:559   */\n      dup2\n        /* \"#utility.yul\":551:585   */\n      eq\n        /* \"#utility.yul\":541:603   */\n      tag_470\n      jumpi\n        /* \"#utility.yul\":599:600   */\n      0x00\n        /* \"#utility.yul\":596:597   */\n      0x00\n        /* \"#utility.yul\":589:601   */\n      revert\n        /* \"#utility.yul\":541:603   */\n    tag_470:\n        /* \"#utility.yul\":489:609   */\n      pop\n      jump\t// out\n        /* \"#utility.yul\":615:752   */\n    tag_412:\n        /* \"#utility.yul\":660:665   */\n      0x00\n        /* \"#utility.yul\":698:704   */\n      dup2\n        /* \"#utility.yul\":685:705   */\n      calldataload\n        /* \"#utility.yul\":676:705   */\n      swap1\n      pop\n        /* \"#utility.yul\":714:746   */\n      tag_472\n        /* \"#utility.yul\":740:745   */\n      dup2\n        /* \"#utility.yul\":714:746   */\n      tag_411\n      jump\t// in\n    tag_472:\n        /* \"#utility.yul\":615:752   */\n      swap3\n      swap2\n      pop\n      pop\n      jump\t// out\n        /* \"#utility.yul\":758:1085   */\n    tag_36:\n        /* \"#utility.yul\":816:822   */\n      0x00\n        /* \"#utility.yul\":865:867   */\n      0x20\n        /* \"#utility.yul\":853:862   */\n      dup3\n        /* \"#utility.yul\":844:851   */\n      dup5\n        /* \"#utility.yul\":840:863   */\n      sub\n        /* \"#utility.yul\":836:868   */\n      slt\n        /* \"#utility.yul\":833:952   */\n      iszero\n      tag_474\n      jumpi\n        /* \"#utility.yul\":871:950   */\n      tag_475\n      tag_408\n      jump\t// in\n    tag_475:\n        /* \"#utility.yul\":833:952   */\n    tag_474:\n        /* \"#utility.yul\":991:992   */\n      0x00\n        /* \"#utility.yul\":1016:1068   */\n      tag_476\n        /* \"#utility.yul\":1060:1067   */\n      dup5\n        /* \"#utility.yul\":1051:1057   */\n      dup3\n        /* \"#utility.yul\":1040:1049   */\n      dup6\n        /* \"#utility.yul\":1036:1058   */\n      add\n        /* \"#utility.yul\":1016:1068   */\n      tag_412\n      jump\t// in\n    tag_476:\n        /* \"#utility.yul\":1006:1068   */\n      swap2\n      pop\n        /* \"#utility.yul\":962:1078   */\n      pop\n        /* \"#utility.yul\":758:1085   */\n      swap3\n      swap2\n      pop\n      pop\n      jump\t// out\n        /* \"#utility.yul\":1091:1181   */\n    tag_413:\n        /* \"#utility.yul\":1125:1132   */\n      0x00\n        /* \"#utility.yul\":1168:1173   */\n      dup2\n        /* \"#utility.yul\":1161:1174   */\n      iszero\n        /* \"#utility.yul\":1154:1175   */\n      iszero\n        /* \"#utility.yul\":1143:1175   */\n      swap1\n      pop\n        /* \"#utility.yul\":1091:1181   */\n      swap2\n      swap1\n      pop\n      jump\t// out\n        /* \"#utility.yul\":1187:1296   */\n    tag_414:\n        /* \"#utility.yul\":1268:1289   */\n      tag_479\n        /* \"#utility.yul\":1283:1288   */\n      dup2\n        /* \"#utility.yul\":1268:1289   */\n      tag_413\n      jump\t// in\n    tag_479:\n        /* \"#utility.yul\":1263:1266   */\n      dup3\n        /* \"#utility.yul\":1256:1290   */\n      mstore\n        /* \"#utility.yul\":1187:1296   */\n      pop\n      pop\n      jump\t// out\n        /* \"#utility.yul\":1302:1512   */\n    tag_39:\n        /* \"#utility.yul\":1389:1393   */\n      0x00\n        /* \"#utility.yul\":1427:1429   */\n      0x20\n        /* \"#utility.yul\":1416:1425   */\n      dup3\n        /* \"#utility.yul\":1412:1430   */\n      add\n        /* \"#utility.yul\":1404:1430   */\n      swap1\n      pop\n        /* \"#utility.yul\":1440:1505   */\n      tag_481\n        /* \"#utility.yul\":1502:1503   */\n      0x00\n        /* \"#utility.yul\":1491:1500   */\n      dup4\n        /* \"#utility.yul\":1487:1504   */\n      add\n        /* \"#utility.yul\":1478:1484   */\n      dup5\n        /* \"#utility.yul\":1440:1505   */\n      tag_414\n      jump\t// in\n    tag_481:\n        /* \"#utility.yul\":1302:1512   */\n      swap3\n      swap2\n      pop\n      pop\n      jump\t// out\n        /* \"#utility.yul\":1518:1644   */\n    tag_415:\n        /* \"#utility.yul\":1555:1562   */\n      0x00\n        /* \"#utility.yul\":1595:1637   */\n      0xffffffffffffffffffffffffffffffffffffffff\n        /* \"#utility.yul\":1588:1593   */\n      dup3\n        /* \"#utility.yul\":1584:1638   */\n      and\n        /* \"#utility.yul\":1573:1638   */\n      swap1\n      pop\n        /* \"#utility.yul\":1518:1644   */\n      swap2\n      swap1\n      pop\n      jump\t// out\n        /* \"#utility.yul\":1650:1746   */\n    tag_416:\n        /* \"#utility.yul\":1687:1694   */\n      0x00\n        /* \"#utility.yul\":1716:1740   */\n      tag_484\n        /* \"#utility.yul\":1734:1739   */\n      dup3\n        /* \"#utility.yul\":1716:1740   */\n      tag_415\n      jump\t// in\n    tag_484:\n        /* \"#utility.yul\":1705:1740   */\n      swap1\n      pop\n        /* \"#utility.yul\":1650:1746   */\n      swap2\n      swap1\n      pop\n      jump\t// out\n        /* \"#utility.yul\":1752:1870   */\n    tag_417:\n        /* \"#utility.yul\":1839:1863   */\n      tag_486\n        /* \"#utility.yul\":1857:1862   */\n      dup2\n        /* \"#utility.yul\":1839:1863   */\n      tag_416\n      jump\t// in\n    tag_486:\n        /* \"#utility.yul\":1834:1837   */\n      dup3\n        /* \"#utility.yul\":1827:1864   */\n      mstore\n        /* \"#utility.yul\":1752:1870   */\n      pop\n      pop\n      jump\t// out\n        /* \"#utility.yul\":1876:2098   */\n    tag_44:\n        /* \"#utility.yul\":1969:1973   */\n      0x00\n        /* \"#utility.yul\":2007:2009   */\n      0x20\n        /* \"#utility.yul\":1996:2005   */\n      dup3\n        /* \"#utility.yul\":1992:2010   */\n      add\n        /* \"#utility.yul\":1984:2010   */\n      swap1\n      pop\n        /* \"#utility.yul\":2020:2091   */\n      tag_488\n        /* \"#utility.yul\":2088:2089   */\n      0x00\n        /* \"#utility.yul\":2077:2086   */\n      dup4\n        /* \"#utility.yul\":2073:2090   */\n      add\n        /* \"#utility.yul\":2064:2070   */\n      dup5\n        /* \"#utility.yul\":2020:2091   */\n      tag_417\n      jump\t// in\n    tag_488:\n        /* \"#utility.yul\":1876:2098   */\n      swap3\n      swap2\n      pop\n      pop\n      jump\t// out\n        /* \"#utility.yul\":2104:2226   */\n    tag_418:\n        /* \"#utility.yul\":2177:2201   */\n      tag_490\n        /* \"#utility.yul\":2195:2200   */\n      dup2\n        /* \"#utility.yul\":2177:2201   */\n      tag_416\n      jump\t// in\n    tag_490:\n        /* \"#utility.yul\":2170:2175   */\n      dup2\n        /* \"#utility.yul\":2167:2202   */\n      eq\n        /* \"#utility.yul\":2157:2220   */\n      tag_491\n      jumpi\n        /* \"#utility.yul\":2216:2217   */\n      0x00\n        /* \"#utility.yul\":2213:2214   */\n      0x00\n        /* \"#utility.yul\":2206:2218   */\n      revert\n        /* \"#utility.yul\":2157:2220   */\n    tag_491:\n        /* \"#utility.yul\":2104:2226   */\n      pop\n      jump\t// out\n        /* \"#utility.yul\":2232:2371   */\n    tag_419:\n        /* \"#utility.yul\":2278:2283   */\n      0x00\n        /* \"#utility.yul\":2316:2322   */\n      dup2\n        /* \"#utility.yul\":2303:2323   */\n      calldataload\n        /* \"#utility.yul\":2294:2323   */\n      swap1\n      pop\n        /* \"#utility.yul\":2332:2365   */\n      tag_493\n        /* \"#utility.yul\":2359:2364   */\n      dup2\n        /* \"#utility.yul\":2332:2365   */\n      tag_418\n      jump\t// in\n    tag_493:\n        /* \"#utility.yul\":2232:2371   */\n      swap3\n      swap2\n      pop\n      pop\n      jump\t// out\n        /* \"#utility.yul\":2377:2706   */\n    tag_51:\n        /* \"#utility.yul\":2436:2442   */\n      0x00\n        /* \"#utility.yul\":2485:2487   */\n      0x20\n        /* \"#utility.yul\":2473:2482   */\n      dup3\n        /* \"#utility.yul\":2464:2471   */\n      dup5\n        /* \"#utility.yul\":2460:2483   */\n      sub\n        /* \"#utility.yul\":2456:2488   */\n      slt\n        /* \"#utility.yul\":2453:2572   */\n      iszero\n      tag_495\n      jumpi\n        /* \"#utility.yul\":2491:2570   */\n      tag_496\n      tag_408\n      jump\t// in\n    tag_496:\n        /* \"#utility.yul\":2453:2572   */\n    tag_495:\n        /* \"#utility.yul\":2611:2612   */\n      0x00\n        /* \"#utility.yul\":2636:2689   */\n      tag_497\n        /* \"#utility.yul\":2681:2688   */\n      dup5\n        /* \"#utility.yul\":2672:2678   */\n      dup3\n        /* \"#utility.yul\":2661:2670   */\n      dup6\n        /* \"#utility.yul\":2657:2679   */\n      add\n        /* \"#utility.yul\":2636:2689   */\n      tag_419\n      jump\t// in\n    tag_497:\n        /* \"#utility.yul\":2626:2689   */\n      swap2\n      pop\n        /* \"#utility.yul\":2582:2699   */\n      pop\n        /* \"#utility.yul\":2377:2706   */\n      swap3\n      swap2\n      pop\n      pop\n      jump\t// out\n        /* \"#utility.yul\":2712:2830   */\n    tag_420:\n        /* \"#utility.yul\":2749:2756   */\n      0x00\n        /* \"#utility.yul\":2789:2823   */\n      0xffffffffffffffffffffffffffffffff\n        /* \"#utility.yul\":2782:2787   */\n      dup3\n        /* \"#utility.yul\":2778:2824   */\n      and\n        /* \"#utility.yul\":2767:2824   */\n      swap1\n      pop\n        /* \"#utility.yul\":2712:2830   */\n      swap2\n      swap1\n      pop\n      jump\t// out\n        /* \"#utility.yul\":2836:2954   */\n    tag_421:\n        /* \"#utility.yul\":2923:2947   */\n      tag_500\n        /* \"#utility.yul\":2941:2946   */\n      dup2\n        /* \"#utility.yul\":2923:2947   */\n      tag_420\n      jump\t// in\n    tag_500:\n        /* \"#utility.yul\":2918:2921   */\n      dup3\n        /* \"#utility.yul\":2911:2948   */\n      mstore\n        /* \"#utility.yul\":2836:2954   */\n      pop\n      pop\n      jump\t// out\n        /* \"#utility.yul\":2960:3037   */\n    tag_422:\n        /* \"#utility.yul\":2997:3004   */\n      0x00\n        /* \"#utility.yul\":3026:3031   */\n      dup2\n        /* \"#utility.yul\":3015:3031   */\n      swap1\n      pop\n        /* \"#utility.yul\":2960:3037   */\n      swap2\n      swap1\n      pop\n      jump\t// out\n        /* \"#utility.yul\":3043:3161   */\n    tag_423:\n        /* \"#utility.yul\":3130:3154   */\n      tag_503\n        /* \"#utility.yul\":3148:3153   */\n      dup2\n        /* \"#utility.yul\":3130:3154   */\n      tag_422\n      jump\t// in\n    tag_503:\n        /* \"#utility.yul\":3125:3128   */\n      dup3\n        /* \"#utility.yul\":3118:3155   */\n      mstore\n        /* \"#utility.yul\":3043:3161   */\n      pop\n      pop\n      jump\t// out\n        /* \"#utility.yul\":3167:3597   */\n    tag_54:\n        /* \"#utility.yul\":3310:3314   */\n      0x00\n        /* \"#utility.yul\":3348:3350   */\n      0x60\n        /* \"#utility.yul\":3337:3346   */\n      dup3\n        /* \"#utility.yul\":3333:3351   */\n      add\n        /* \"#utility.yul\":3325:3351   */\n      swap1\n      pop\n        /* \"#utility.yul\":3361:3426   */\n      tag_505\n        /* \"#utility.yul\":3423:3424   */\n      0x00\n        /* \"#utility.yul\":3412:3421   */\n      dup4\n        /* \"#utility.yul\":3408:3425   */\n      add\n        /* \"#utility.yul\":3399:3405   */\n      dup7\n        /* \"#utility.yul\":3361:3426   */\n      tag_414\n      jump\t// in\n    tag_505:\n        /* \"#utility.yul\":3436:3508   */\n      tag_506\n        /* \"#utility.yul\":3504:3506   */\n      0x20\n        /* \"#utility.yul\":3493:3502   */\n      dup4\n        /* \"#utility.yul\":3489:3507   */\n      add\n        /* \"#utility.yul\":3480:3486   */\n      dup6\n        /* \"#utility.yul\":3436:3508   */\n      tag_421\n      jump\t// in\n    tag_506:\n        /* \"#utility.yul\":3518:3590   */\n      tag_507\n        /* \"#utility.yul\":3586:3588   */\n      0x40\n        /* \"#utility.yul\":3575:3584   */\n      dup4\n        /* \"#utility.yul\":3571:3589   */\n      add\n        /* \"#utility.yul\":3562:3568   */\n      dup5\n        /* \"#utility.yul\":3518:3590   */\n      tag_423\n      jump\t// in\n    tag_507:\n        /* \"#utility.yul\":3167:3597   */\n      swap5\n      swap4\n      pop\n      pop\n      pop\n      pop\n      jump\t// out\n        /* \"#utility.yul\":3603:3680   */\n    tag_424:\n        /* \"#utility.yul\":3640:3647   */\n      0x00\n        /* \"#utility.yul\":3669:3674   */\n      dup2\n        /* \"#utility.yul\":3658:3674   */\n      swap1\n      pop\n        /* \"#utility.yul\":3603:3680   */\n      swap2\n      swap1\n      pop\n      jump\t// out\n        /* \"#utility.yul\":3686:3808   */\n    tag_425:\n        /* \"#utility.yul\":3759:3783   */\n      tag_510\n        /* \"#utility.yul\":3777:3782   */\n      dup2\n        /* \"#utility.yul\":3759:3783   */\n      tag_424\n      jump\t// in\n    tag_510:\n        /* \"#utility.yul\":3752:3757   */\n      dup2\n        /* \"#utility.yul\":3749:3784   */\n      eq\n        /* \"#utility.yul\":3739:3802   */\n      tag_511\n      jumpi\n        /* \"#utility.yul\":3798:3799   */\n      0x00\n        /* \"#utility.yul\":3795:3796   */\n      0x00\n        /* \"#utility.yul\":3788:3800   */\n      revert\n        /* \"#utility.yul\":3739:3802   */\n    tag_511:\n        /* \"#utility.yul\":3686:3808   */\n      pop\n      jump\t// out\n        /* \"#utility.yul\":3814:3953   */\n    tag_426:\n        /* \"#utility.yul\":3860:3865   */\n      0x00\n        /* \"#utility.yul\":3898:3904   */\n      dup2\n        /* \"#utility.yul\":3885:3905   */\n      calldataload\n        /* \"#utility.yul\":3876:3905   */\n      swap1\n      pop\n        /* \"#utility.yul\":3914:3947   */\n      tag_513\n        /* \"#utility.yul\":3941:3946   */\n      dup2\n        /* \"#utility.yul\":3914:3947   */\n      tag_425\n      jump\t// in\n    tag_513:\n        /* \"#utility.yul\":3814:3953   */\n      swap3\n      swap2\n      pop\n      pop\n      jump\t// out\n        /* \"#utility.yul\":3959:4288   */\n    tag_62:\n        /* \"#utility.yul\":4018:4024   */\n      0x00\n        /* \"#utility.yul\":4067:4069   */\n      0x20\n        /* \"#utility.yul\":4055:4064   */\n      dup3\n        /* \"#utility.yul\":4046:4053   */\n      dup5\n        /* \"#utility.yul\":4042:4065   */\n      sub\n        /* \"#utility.yul\":4038:4070   */\n      slt\n        /* \"#utility.yul\":4035:4154   */\n      iszero\n      tag_515\n      jumpi\n        /* \"#utility.yul\":4073:4152   */\n      tag_516\n      tag_408\n      jump\t// in\n    tag_516:\n        /* \"#utility.yul\":4035:4154   */\n    tag_515:\n        /* \"#utility.yul\":4193:4194   */\n      0x00\n        /* \"#utility.yul\":4218:4271   */\n      tag_517\n        /* \"#utility.yul\":4263:4270   */\n      dup5\n        /* \"#utility.yul\":4254:4260   */\n      dup3\n        /* \"#utility.yul\":4243:4252   */\n      dup6\n        /* \"#utility.yul\":4239:4261   */\n      add\n        /* \"#utility.yul\":4218:4271   */\n      tag_426\n      jump\t// in\n    tag_517:\n        /* \"#utility.yul\":4208:4271   */\n      swap2\n      pop\n        /* \"#utility.yul\":4164:4281   */\n      pop\n        /* \"#utility.yul\":3959:4288   */\n      swap3\n      swap2\n      pop\n      pop\n      jump\t// out\n        /* \"#utility.yul\":4294:4412   */\n    tag_427:\n        /* \"#utility.yul\":4381:4405   */\n      tag_519\n        /* \"#utility.yul\":4399:4404   */\n      dup2\n        /* \"#utility.yul\":4381:4405   */\n      tag_424\n      jump\t// in\n    tag_519:\n        /* \"#utility.yul\":4376:4379   */\n      dup3\n        /* \"#utility.yul\":4369:4406   */\n      mstore\n        /* \"#utility.yul\":4294:4412   */\n      pop\n      pop\n      jump\t// out\n        /* \"#utility.yul\":4418:4640   */\n    tag_65:\n        /* \"#utility.yul\":4511:4515   */\n      0x00\n        /* \"#utility.yul\":4549:4551   */\n      0x20\n        /* \"#utility.yul\":4538:4547   */\n      dup3\n        /* \"#utility.yul\":4534:4552   */\n      add\n        /* \"#utility.yul\":4526:4552   */\n      swap1\n      pop\n        /* \"#utility.yul\":4562:4633   */\n      tag_521\n        /* \"#utility.yul\":4630:4631   */\n      0x00\n        /* \"#utility.yul\":4619:4628   */\n      dup4\n        /* \"#utility.yul\":4615:4632   */\n      add\n        /* \"#utility.yul\":4606:4612   */\n      dup5\n        /* \"#utility.yul\":4562:4633   */\n      tag_427\n      jump\t// in\n    tag_521:\n        /* \"#utility.yul\":4418:4640   */\n      swap3\n      swap2\n      pop\n      pop\n      jump\t// out\n        /* \"#utility.yul\":4646:5120   */\n    tag_69:\n        /* \"#utility.yul\":4714:4720   */\n      0x00\n        /* \"#utility.yul\":4722:4728   */\n      0x00\n        /* \"#utility.yul\":4771:4773   */\n      0x40\n        /* \"#utility.yul\":4759:4768   */\n      dup4\n        /* \"#utility.yul\":4750:4757   */\n      dup6\n        /* \"#utility.yul\":4746:4769   */\n      sub\n        /* \"#utility.yul\":4742:4774   */\n      slt\n        /* \"#utility.yul\":4739:4858   */\n      iszero\n      tag_523\n      jumpi\n        /* \"#utility.yul\":4777:4856   */\n      tag_524\n      tag_408\n      jump\t// in\n    tag_524:\n        /* \"#utility.yul\":4739:4858   */\n    tag_523:\n        /* \"#utility.yul\":4897:4898   */\n      0x00\n        /* \"#utility.yul\":4922:4975   */\n      tag_525\n        /* \"#utility.yul\":4967:4974   */\n      dup6\n        /* \"#utility.yul\":4958:4964   */\n      dup3\n        /* \"#utility.yul\":4947:4956   */\n      dup7\n        /* \"#utility.yul\":4943:4965   */\n      add\n        /* \"#utility.yul\":4922:4975   */\n      tag_426\n      jump\t// in\n    tag_525:\n        /* \"#utility.yul\":4912:4975   */\n      swap3\n      pop\n        /* \"#utility.yul\":4868:4985   */\n      pop\n        /* \"#utility.yul\":5024:5026   */\n      0x20\n        /* \"#utility.yul\":5050:5103   */\n      tag_526\n        /* \"#utility.yul\":5095:5102   */\n      dup6\n        /* \"#utility.yul\":5086:5092   */\n      dup3\n        /* \"#utility.yul\":5075:5084   */\n      dup7\n        /* \"#utility.yul\":5071:5093   */\n      add\n        /* \"#utility.yul\":5050:5103   */\n      tag_419\n      jump\t// in\n    tag_526:\n        /* \"#utility.yul\":5040:5103   */\n      swap2\n      pop\n        /* \"#utility.yul\":4995:5113   */\n      pop\n        /* \"#utility.yul\":4646:5120   */\n      swap3\n      pop\n      swap3\n      swap1\n      pop\n      jump\t// out\n        /* \"#utility.yul\":5126:5243   */\n    tag_428:\n        /* \"#utility.yul\":5235:5236   */\n      0x00\n        /* \"#utility.yul\":5232:5233   */\n      0x00\n        /* \"#utility.yul\":5225:5237   */\n      revert\n        /* \"#utility.yul\":5249:5366   */\n    tag_429:\n        /* \"#utility.yul\":5358:5359   */\n      0x00\n        /* \"#utility.yul\":5355:5356   */\n      0x00\n        /* \"#utility.yul\":5348:5360   */\n      revert\n        /* \"#utility.yul\":5372:5474   */\n    tag_430:\n        /* \"#utility.yul\":5413:5419   */\n      0x00\n        /* \"#utility.yul\":5464:5466   */\n      0x1f\n        /* \"#utility.yul\":5460:5467   */\n      not\n        /* \"#utility.yul\":5455:5457   */\n      0x1f\n        /* \"#utility.yul\":5448:5453   */\n      dup4\n        /* \"#utility.yul\":5444:5458   */\n      add\n        /* \"#utility.yul\":5440:5468   */\n      and\n        /* \"#utility.yul\":5430:5468   */\n      swap1\n      pop\n        /* \"#utility.yul\":5372:5474   */\n      swap2\n      swap1\n      pop\n      jump\t// out\n        /* \"#utility.yul\":5480:5660   */\n    tag_431:\n        /* \"#utility.yul\":5528:5605   */\n      0x4e487b7100000000000000000000000000000000000000000000000000000000\n        /* \"#utility.yul\":5525:5526   */\n      0x00\n        /* \"#utility.yul\":5518:5606   */\n      mstore\n        /* \"#utility.yul\":5625:5629   */\n      0x41\n        /* \"#utility.yul\":5622:5623   */\n      0x04\n        /* \"#utility.yul\":5615:5630   */\n      mstore\n        /* \"#utility.yul\":5649:5653   */\n      0x24\n        /* \"#utility.yul\":5646:5647   */\n      0x00\n        /* \"#utility.yul\":5639:5654   */\n      revert\n        /* \"#utility.yul\":5666:5947   */\n    tag_432:\n        /* \"#utility.yul\":5749:5776   */\n      tag_532\n        /* \"#utility.yul\":5771:5775   */\n      dup3\n        /* \"#utility.yul\":5749:5776   */\n      tag_430\n      jump\t// in\n    tag_532:\n        /* \"#utility.yul\":5741:5747   */\n      dup2\n        /* \"#utility.yul\":5737:5777   */\n      add\n        /* \"#utility.yul\":5879:5885   */\n      dup2\n        /* \"#utility.yul\":5867:5877   */\n      dup2\n        /* \"#utility.yul\":5864:5886   */\n      lt\n        /* \"#utility.yul\":5843:5861   */\n      0xffffffffffffffff\n        /* \"#utility.yul\":5831:5841   */\n      dup3\n        /* \"#utility.yul\":5828:5862   */\n      gt\n        /* \"#utility.yul\":5825:5887   */\n      or\n        /* \"#utility.yul\":5822:5910   */\n      iszero\n      tag_533\n      jumpi\n        /* \"#utility.yul\":5890:5908   */\n      tag_534\n      tag_431\n      jump\t// in\n    tag_534:\n        /* \"#utility.yul\":5822:5910   */\n    tag_533:\n        /* \"#utility.yul\":5930:5940   */\n      dup1\n        /* \"#utility.yul\":5926:5928   */\n      0x40\n        /* \"#utility.yul\":5919:5941   */\n      mstore\n        /* \"#utility.yul\":5709:5947   */\n      pop\n        /* \"#utility.yul\":5666:5947   */\n      pop\n      pop\n      jump\t// out\n        /* \"#utility.yul\":5953:6082   */\n    tag_433:\n        /* \"#utility.yul\":5987:5993   */\n      0x00\n        /* \"#utility.yul\":6014:6034   */\n      tag_536\n      tag_407\n      jump\t// in\n    tag_536:\n        /* \"#utility.yul\":6004:6034   */\n      swap1\n      pop\n        /* \"#utility.yul\":6043:6076   */\n      tag_537\n        /* \"#utility.yul\":6071:6075   */\n      dup3\n        /* \"#utility.yul\":6063:6069   */\n      dup3\n        /* \"#utility.yul\":6043:6076   */\n      tag_432\n      jump\t// in\n    tag_537:\n        /* \"#utility.yul\":5953:6082   */\n      swap2\n      swap1\n      pop\n      jump\t// out\n        /* \"#utility.yul\":6088:6395   */\n    tag_434:\n        /* \"#utility.yul\":6149:6153   */\n      0x00\n        /* \"#utility.yul\":6239:6257   */\n      0xffffffffffffffff\n        /* \"#utility.yul\":6231:6237   */\n      dup3\n        /* \"#utility.yul\":6228:6258   */\n      gt\n        /* \"#utility.yul\":6225:6281   */\n      iszero\n      tag_539\n      jumpi\n        /* \"#utility.yul\":6261:6279   */\n      tag_540\n      tag_431\n      jump\t// in\n    tag_540:\n        /* \"#utility.yul\":6225:6281   */\n    tag_539:\n        /* \"#utility.yul\":6299:6328   */\n      tag_541\n        /* \"#utility.yul\":6321:6327   */\n      dup3\n        /* \"#utility.yul\":6299:6328   */\n      tag_430\n      jump\t// in\n    tag_541:\n        /* \"#utility.yul\":6291:6328   */\n      swap1\n      pop\n        /* \"#utility.yul\":6383:6387   */\n      0x20\n        /* \"#utility.yul\":6377:6381   */\n      dup2\n        /* \"#utility.yul\":6373:6388   */\n      add\n        /* \"#utility.yul\":6365:6388   */\n      swap1\n      pop\n        /* \"#utility.yul\":6088:6395   */\n      swap2\n      swap1\n      pop\n      jump\t// out\n        /* \"#utility.yul\":6401:6549   */\n    tag_435:\n        /* \"#utility.yul\":6499:6505   */\n      dup3\n        /* \"#utility.yul\":6494:6497   */\n      dup2\n        /* \"#utility.yul\":6489:6492   */\n      dup4\n        /* \"#utility.yul\":6476:6506   */\n      calldatacopy\n        /* \"#utility.yul\":6540:6541   */\n      0x00\n        /* \"#utility.yul\":6531:6537   */\n      dup4\n        /* \"#utility.yul\":6526:6529   */\n      dup4\n        /* \"#utility.yul\":6522:6538   */\n      add\n        /* \"#utility.yul\":6515:6542   */\n      mstore\n        /* \"#utility.yul\":6401:6549   */\n      pop\n      pop\n      pop\n      jump\t// out\n        /* \"#utility.yul\":6555:6978   */\n    tag_436:\n        /* \"#utility.yul\":6632:6637   */\n      0x00\n        /* \"#utility.yul\":6657:6722   */\n      tag_544\n        /* \"#utility.yul\":6673:6721   */\n      tag_545\n        /* \"#utility.yul\":6714:6720   */\n      dup5\n        /* \"#utility.yul\":6673:6721   */\n      tag_434\n      jump\t// in\n    tag_545:\n        /* \"#utility.yul\":6657:6722   */\n      tag_433\n      jump\t// in\n    tag_544:\n        /* \"#utility.yul\":6648:6722   */\n      swap1\n      pop\n        /* \"#utility.yul\":6745:6751   */\n      dup3\n        /* \"#utility.yul\":6738:6743   */\n      dup2\n        /* \"#utility.yul\":6731:6752   */\n      mstore\n        /* \"#utility.yul\":6783:6787   */\n      0x20\n        /* \"#utility.yul\":6776:6781   */\n      dup2\n        /* \"#utility.yul\":6772:6788   */\n      add\n        /* \"#utility.yul\":6821:6824   */\n      dup5\n        /* \"#utility.yul\":6812:6818   */\n      dup5\n        /* \"#utility.yul\":6807:6810   */\n      dup5\n        /* \"#utility.yul\":6803:6819   */\n      add\n        /* \"#utility.yul\":6800:6825   */\n      gt\n        /* \"#utility.yul\":6797:6909   */\n      iszero\n      tag_546\n      jumpi\n        /* \"#utility.yul\":6828:6907   */\n      tag_547\n      tag_429\n      jump\t// in\n    tag_547:\n        /* \"#utility.yul\":6797:6909   */\n    tag_546:\n        /* \"#utility.yul\":6918:6972   */\n      tag_548\n        /* \"#utility.yul\":6965:6971   */\n      dup5\n        /* \"#utility.yul\":6960:6963   */\n      dup3\n        /* \"#utility.yul\":6955:6958   */\n      dup6\n        /* \"#utility.yul\":6918:6972   */\n      tag_435\n      jump\t// in\n    tag_548:\n        /* \"#utility.yul\":6638:6978   */\n      pop\n        /* \"#utility.yul\":6555:6978   */\n      swap4\n      swap3\n      pop\n      pop\n      pop\n      jump\t// out\n        /* \"#utility.yul\":6997:7335   */\n    tag_437:\n        /* \"#utility.yul\":7052:7057   */\n      0x00\n        /* \"#utility.yul\":7101:7104   */\n      dup3\n        /* \"#utility.yul\":7094:7098   */\n      0x1f\n        /* \"#utility.yul\":7086:7092   */\n      dup4\n        /* \"#utility.yul\":7082:7099   */\n      add\n        /* \"#utility.yul\":7078:7105   */\n      slt\n        /* \"#utility.yul\":7068:7190   */\n      tag_550\n      jumpi\n        /* \"#utility.yul\":7109:7188   */\n      tag_551\n      tag_428\n      jump\t// in\n    tag_551:\n        /* \"#utility.yul\":7068:7190   */\n    tag_550:\n        /* \"#utility.yul\":7226:7232   */\n      dup2\n        /* \"#utility.yul\":7213:7233   */\n      calldataload\n        /* \"#utility.yul\":7251:7329   */\n      tag_552\n        /* \"#utility.yul\":7325:7328   */\n      dup5\n        /* \"#utility.yul\":7317:7323   */\n      dup3\n        /* \"#utility.yul\":7310:7314   */\n      0x20\n        /* \"#utility.yul\":7302:7308   */\n      dup7\n        /* \"#utility.yul\":7298:7315   */\n      add\n        /* \"#utility.yul\":7251:7329   */\n      tag_436\n      jump\t// in\n    tag_552:\n        /* \"#utility.yul\":7242:7329   */\n      swap2\n      pop\n        /* \"#utility.yul\":7058:7335   */\n      pop\n        /* \"#utility.yul\":6997:7335   */\n      swap3\n      swap2\n      pop\n      pop\n      jump\t// out\n        /* \"#utility.yul\":7341:7993   */\n    tag_80:\n        /* \"#utility.yul\":7418:7424   */\n      0x00\n        /* \"#utility.yul\":7426:7432   */\n      0x00\n        /* \"#utility.yul\":7475:7477   */\n      0x40\n        /* \"#utility.yul\":7463:7472   */\n      dup4\n        /* \"#utility.yul\":7454:7461   */\n      dup6\n        /* \"#utility.yul\":7450:7473   */\n      sub\n        /* \"#utility.yul\":7446:7478   */\n      slt\n        /* \"#utility.yul\":7443:7562   */\n      iszero\n      tag_554\n      jumpi\n        /* \"#utility.yul\":7481:7560   */\n      tag_555\n      tag_408\n      jump\t// in\n    tag_555:\n        /* \"#utility.yul\":7443:7562   */\n    tag_554:\n        /* \"#utility.yul\":7601:7602   */\n      0x00\n        /* \"#utility.yul\":7626:7679   */\n      tag_556\n        /* \"#utility.yul\":7671:7678   */\n      dup6\n        /* \"#utility.yul\":7662:7668   */\n      dup3\n        /* \"#utility.yul\":7651:7660   */\n      dup7\n        /* \"#utility.yul\":7647:7669   */\n      add\n        /* \"#utility.yul\":7626:7679   */\n      tag_419\n      jump\t// in\n    tag_556:\n        /* \"#utility.yul\":7616:7679   */\n      swap3\n      pop\n        /* \"#utility.yul\":7572:7689   */\n      pop\n        /* \"#utility.yul\":7756:7758   */\n      0x20\n        /* \"#utility.yul\":7745:7754   */\n      dup4\n        /* \"#utility.yul\":7741:7759   */\n      add\n        /* \"#utility.yul\":7728:7760   */\n      calldataload\n        /* \"#utility.yul\":7787:7805   */\n      0xffffffffffffffff\n        /* \"#utility.yul\":7779:7785   */\n      dup2\n        /* \"#utility.yul\":7776:7806   */\n      gt\n        /* \"#utility.yul\":7773:7890   */\n      iszero\n      tag_557\n      jumpi\n        /* \"#utility.yul\":7809:7888   */\n      tag_558\n      tag_409\n      jump\t// in\n    tag_558:\n        /* \"#utility.yul\":7773:7890   */\n    tag_557:\n        /* \"#utility.yul\":7914:7976   */\n      tag_559\n        /* \"#utility.yul\":7968:7975   */\n      dup6\n        /* \"#utility.yul\":7959:7965   */\n      dup3\n        /* \"#utility.yul\":7948:7957   */\n      dup7\n        /* \"#utility.yul\":7944:7966   */\n      add\n        /* \"#utility.yul\":7914:7976   */\n      tag_437\n      jump\t// in\n    tag_559:\n        /* \"#utility.yul\":7904:7976   */\n      swap2\n      pop\n        /* \"#utility.yul\":7699:7986   */\n      pop\n        /* \"#utility.yul\":7341:7993   */\n      swap3\n      pop\n      swap3\n      swap1\n      pop\n      jump\t// out\n        /* \"#utility.yul\":7999:8121   */\n    tag_438:\n        /* \"#utility.yul\":8072:8096   */\n      tag_561\n        /* \"#utility.yul\":8090:8095   */\n      dup2\n        /* \"#utility.yul\":8072:8096   */\n      tag_422\n      jump\t// in\n    tag_561:\n        /* \"#utility.yul\":8065:8070   */\n      dup2\n        /* \"#utility.yul\":8062:8097   */\n      eq\n        /* \"#utility.yul\":8052:8115   */\n      tag_562\n      jumpi\n        /* \"#utility.yul\":8111:8112   */\n      0x00\n        /* \"#utility.yul\":8108:8109   */\n      0x00\n        /* \"#utility.yul\":8101:8113   */\n      revert\n        /* \"#utility.yul\":8052:8115   */\n    tag_562:\n        /* \"#utility.yul\":7999:8121   */\n      pop\n      jump\t// out\n        /* \"#utility.yul\":8127:8266   */\n    tag_439:\n        /* \"#utility.yul\":8173:8178   */\n      0x00\n        /* \"#utility.yul\":8211:8217   */\n      dup2\n        /* \"#utility.yul\":8198:8218   */\n      calldataload\n        /* \"#utility.yul\":8189:8218   */\n      swap1\n      pop\n        /* \"#utility.yul\":8227:8260   */\n      tag_564\n        /* \"#utility.yul\":8254:8259   */\n      dup2\n        /* \"#utility.yul\":8227:8260   */\n      tag_438\n      jump\t// in\n    tag_564:\n        /* \"#utility.yul\":8127:8266   */\n      swap3\n      swap2\n      pop\n      pop\n      jump\t// out\n        /* \"#utility.yul\":8272:8746   */\n    tag_93:\n        /* \"#utility.yul\":8340:8346   */\n      0x00\n        /* \"#utility.yul\":8348:8354   */\n      0x00\n        /* \"#utility.yul\":8397:8399   */\n      0x40\n        /* \"#utility.yul\":8385:8394   */\n      dup4\n        /* \"#utility.yul\":8376:8383   */\n      dup6\n        /* \"#utility.yul\":8372:8395   */\n      sub\n        /* \"#utility.yul\":8368:8400   */\n      slt\n        /* \"#utility.yul\":8365:8484   */\n      iszero\n      tag_566\n      jumpi\n        /* \"#utility.yul\":8403:8482   */\n      tag_567\n      tag_408\n      jump\t// in\n    tag_567:\n        /* \"#utility.yul\":8365:8484   */\n    tag_566:\n        /* \"#utility.yul\":8523:8524   */\n      0x00\n        /* \"#utility.yul\":8548:8601   */\n      tag_568\n        /* \"#utility.yul\":8593:8600   */\n      dup6\n        /* \"#utility.yul\":8584:8590   */\n      dup3\n        /* \"#utility.yul\":8573:8582   */\n      dup7\n        /* \"#utility.yul\":8569:8591   */\n      add\n        /* \"#utility.yul\":8548:8601   */\n      tag_419\n      jump\t// in\n    tag_568:\n        /* \"#utility.yul\":8538:8601   */\n      swap3\n      pop\n        /* \"#utility.yul\":8494:8611   */\n      pop\n        /* \"#utility.yul\":8650:8652   */\n      0x20\n        /* \"#utility.yul\":8676:8729   */\n      tag_569\n        /* \"#utility.yul\":8721:8728   */\n      dup6\n        /* \"#utility.yul\":8712:8718   */\n      dup3\n        /* \"#utility.yul\":8701:8710   */\n      dup7\n        /* \"#utility.yul\":8697:8719   */\n      add\n        /* \"#utility.yul\":8676:8729   */\n      tag_439\n      jump\t// in\n    tag_569:\n        /* \"#utility.yul\":8666:8729   */\n      swap2\n      pop\n        /* \"#utility.yul\":8621:8739   */\n      pop\n        /* \"#utility.yul\":8272:8746   */\n      swap3\n      pop\n      swap3\n      swap1\n      pop\n      jump\t// out\n        /* \"#utility.yul\":8752:8851   */\n    tag_440:\n        /* \"#utility.yul\":8804:8810   */\n      0x00\n        /* \"#utility.yul\":8838:8843   */\n      dup2\n        /* \"#utility.yul\":8832:8844   */\n      mload\n        /* \"#utility.yul\":8822:8844   */\n      swap1\n      pop\n        /* \"#utility.yul\":8752:8851   */\n      swap2\n      swap1\n      pop\n      jump\t// out\n        /* \"#utility.yul\":8857:9026   */\n    tag_441:\n        /* \"#utility.yul\":8941:8952   */\n      0x00\n        /* \"#utility.yul\":8975:8981   */\n      dup3\n        /* \"#utility.yul\":8970:8973   */\n      dup3\n        /* \"#utility.yul\":8963:8982   */\n      mstore\n        /* \"#utility.yul\":9015:9019   */\n      0x20\n        /* \"#utility.yul\":9010:9013   */\n      dup3\n        /* \"#utility.yul\":9006:9020   */\n      add\n        /* \"#utility.yul\":8991:9020   */\n      swap1\n      pop\n        /* \"#utility.yul\":8857:9026   */\n      swap3\n      swap2\n      pop\n      pop\n      jump\t// out\n        /* \"#utility.yul\":9032:9171   */\n    tag_442:\n        /* \"#utility.yul\":9121:9127   */\n      dup3\n        /* \"#utility.yul\":9116:9119   */\n      dup2\n        /* \"#utility.yul\":9111:9114   */\n      dup4\n        /* \"#utility.yul\":9105:9128   */\n      mcopy\n        /* \"#utility.yul\":9162:9163   */\n      0x00\n        /* \"#utility.yul\":9153:9159   */\n      dup4\n        /* \"#utility.yul\":9148:9151   */\n      dup4\n        /* \"#utility.yul\":9144:9160   */\n      add\n        /* \"#utility.yul\":9137:9164   */\n      mstore\n        /* \"#utility.yul\":9032:9171   */\n      pop\n      pop\n      pop\n      jump\t// out\n        /* \"#utility.yul\":9177:9554   */\n    tag_443:\n        /* \"#utility.yul\":9265:9268   */\n      0x00\n        /* \"#utility.yul\":9293:9332   */\n      tag_574\n        /* \"#utility.yul\":9326:9331   */\n      dup3\n        /* \"#utility.yul\":9293:9332   */\n      tag_440\n      jump\t// in\n    tag_574:\n        /* \"#utility.yul\":9348:9419   */\n      tag_575\n        /* \"#utility.yul\":9412:9418   */\n      dup2\n        /* \"#utility.yul\":9407:9410   */\n      dup6\n        /* \"#utility.yul\":9348:9419   */\n      tag_441\n      jump\t// in\n    tag_575:\n        /* \"#utility.yul\":9341:9419   */\n      swap4\n      pop\n        /* \"#utility.yul\":9428:9493   */\n      tag_576\n        /* \"#utility.yul\":9486:9492   */\n      dup2\n        /* \"#utility.yul\":9481:9484   */\n      dup6\n        /* \"#utility.yul\":9474:9478   */\n      0x20\n        /* \"#utility.yul\":9467:9472   */\n      dup7\n        /* \"#utility.yul\":9463:9479   */\n      add\n        /* \"#utility.yul\":9428:9493   */\n      tag_442\n      jump\t// in\n    tag_576:\n        /* \"#utility.yul\":9518:9547   */\n      tag_577\n        /* \"#utility.yul\":9540:9546   */\n      dup2\n        /* \"#utility.yul\":9518:9547   */\n      tag_430\n      jump\t// in\n    tag_577:\n        /* \"#utility.yul\":9513:9516   */\n      dup5\n        /* \"#utility.yul\":9509:9548   */\n      add\n        /* \"#utility.yul\":9502:9548   */\n      swap2\n      pop\n        /* \"#utility.yul\":9269:9554   */\n      pop\n        /* \"#utility.yul\":9177:9554   */\n      swap3\n      swap2\n      pop\n      pop\n      jump\t// out\n        /* \"#utility.yul\":9560:9873   */\n    tag_130:\n        /* \"#utility.yul\":9673:9677   */\n      0x00\n        /* \"#utility.yul\":9711:9713   */\n      0x20\n        /* \"#utility.yul\":9700:9709   */\n      dup3\n        /* \"#utility.yul\":9696:9714   */\n      add\n        /* \"#utility.yul\":9688:9714   */\n      swap1\n      pop\n        /* \"#utility.yul\":9760:9769   */\n      dup2\n        /* \"#utility.yul\":9754:9758   */\n      dup2\n        /* \"#utility.yul\":9750:9770   */\n      sub\n        /* \"#utility.yul\":9746:9747   */\n      0x00\n        /* \"#utility.yul\":9735:9744   */\n      dup4\n        /* \"#utility.yul\":9731:9748   */\n      add\n        /* \"#utility.yul\":9724:9771   */\n      mstore\n        /* \"#utility.yul\":9788:9866   */\n      tag_579\n        /* \"#utility.yul\":9861:9865   */\n      dup2\n        /* \"#utility.yul\":9852:9858   */\n      dup5\n        /* \"#utility.yul\":9788:9866   */\n      tag_443\n      jump\t// in\n    tag_579:\n        /* \"#utility.yul\":9780:9866   */\n      swap1\n      pop\n        /* \"#utility.yul\":9560:9873   */\n      swap3\n      swap2\n      pop\n      pop\n      jump\t// out\n        /* \"#utility.yul\":9879:9996   */\n    tag_444:\n        /* \"#utility.yul\":9988:9989   */\n      0x00\n        /* \"#utility.yul\":9985:9986   */\n      0x00\n        /* \"#utility.yul\":9978:9990   */\n      revert\n        /* \"#utility.yul\":10002:10119   */\n    tag_445:\n        /* \"#utility.yul\":10111:10112   */\n      0x00\n        /* \"#utility.yul\":10108:10109   */\n      0x00\n        /* \"#utility.yul\":10101:10113   */\n      revert\n        /* \"#utility.yul\":10142:10710   */\n    tag_446:\n        /* \"#utility.yul\":10215:10223   */\n      0x00\n        /* \"#utility.yul\":10225:10231   */\n      0x00\n        /* \"#utility.yul\":10275:10278   */\n      dup4\n        /* \"#utility.yul\":10268:10272   */\n      0x1f\n        /* \"#utility.yul\":10260:10266   */\n      dup5\n        /* \"#utility.yul\":10256:10273   */\n      add\n        /* \"#utility.yul\":10252:10279   */\n      slt\n        /* \"#utility.yul\":10242:10364   */\n      tag_583\n      jumpi\n        /* \"#utility.yul\":10283:10362   */\n      tag_584\n      tag_428\n      jump\t// in\n    tag_584:\n        /* \"#utility.yul\":10242:10364   */\n    tag_583:\n        /* \"#utility.yul\":10396:10402   */\n      dup3\n        /* \"#utility.yul\":10383:10403   */\n      calldataload\n        /* \"#utility.yul\":10373:10403   */\n      swap1\n      pop\n        /* \"#utility.yul\":10426:10444   */\n      0xffffffffffffffff\n        /* \"#utility.yul\":10418:10424   */\n      dup2\n        /* \"#utility.yul\":10415:10445   */\n      gt\n        /* \"#utility.yul\":10412:10529   */\n      iszero\n      tag_585\n      jumpi\n        /* \"#utility.yul\":10448:10527   */\n      tag_586\n      tag_444\n      jump\t// in\n    tag_586:\n        /* \"#utility.yul\":10412:10529   */\n    tag_585:\n        /* \"#utility.yul\":10562:10566   */\n      0x20\n        /* \"#utility.yul\":10554:10560   */\n      dup4\n        /* \"#utility.yul\":10550:10567   */\n      add\n        /* \"#utility.yul\":10538:10567   */\n      swap2\n      pop\n        /* \"#utility.yul\":10616:10619   */\n      dup4\n        /* \"#utility.yul\":10608:10612   */\n      0x20\n        /* \"#utility.yul\":10600:10606   */\n      dup3\n        /* \"#utility.yul\":10596:10613   */\n      mul\n        /* \"#utility.yul\":10586:10594   */\n      dup4\n        /* \"#utility.yul\":10582:10614   */\n      add\n        /* \"#utility.yul\":10579:10620   */\n      gt\n        /* \"#utility.yul\":10576:10704   */\n      iszero\n      tag_587\n      jumpi\n        /* \"#utility.yul\":10623:10702   */\n      tag_588\n      tag_445\n      jump\t// in\n    tag_588:\n        /* \"#utility.yul\":10576:10704   */\n    tag_587:\n        /* \"#utility.yul\":10142:10710   */\n      swap3\n      pop\n      swap3\n      swap1\n      pop\n      jump\t// out\n        /* \"#utility.yul\":10732:11299   */\n    tag_447:\n        /* \"#utility.yul\":10804:10812   */\n      0x00\n        /* \"#utility.yul\":10814:10820   */\n      0x00\n        /* \"#utility.yul\":10864:10867   */\n      dup4\n        /* \"#utility.yul\":10857:10861   */\n      0x1f\n        /* \"#utility.yul\":10849:10855   */\n      dup5\n        /* \"#utility.yul\":10845:10862   */\n      add\n        /* \"#utility.yul\":10841:10868   */\n      slt\n        /* \"#utility.yul\":10831:10953   */\n      tag_590\n      jumpi\n        /* \"#utility.yul\":10872:10951   */\n      tag_591\n      tag_428\n      jump\t// in\n    tag_591:\n        /* \"#utility.yul\":10831:10953   */\n    tag_590:\n        /* \"#utility.yul\":10985:10991   */\n      dup3\n        /* \"#utility.yul\":10972:10992   */\n      calldataload\n        /* \"#utility.yul\":10962:10992   */\n      swap1\n      pop\n        /* \"#utility.yul\":11015:11033   */\n      0xffffffffffffffff\n        /* \"#utility.yul\":11007:11013   */\n      dup2\n        /* \"#utility.yul\":11004:11034   */\n      gt\n        /* \"#utility.yul\":11001:11118   */\n      iszero\n      tag_592\n      jumpi\n        /* \"#utility.yul\":11037:11116   */\n      tag_593\n      tag_444\n      jump\t// in\n    tag_593:\n        /* \"#utility.yul\":11001:11118   */\n    tag_592:\n        /* \"#utility.yul\":11151:11155   */\n      0x20\n        /* \"#utility.yul\":11143:11149   */\n      dup4\n        /* \"#utility.yul\":11139:11156   */\n      add\n        /* \"#utility.yul\":11127:11156   */\n      swap2\n      pop\n        /* \"#utility.yul\":11205:11208   */\n      dup4\n        /* \"#utility.yul\":11197:11201   */\n      0x20\n        /* \"#utility.yul\":11189:11195   */\n      dup3\n        /* \"#utility.yul\":11185:11202   */\n      mul\n        /* \"#utility.yul\":11175:11183   */\n      dup4\n        /* \"#utility.yul\":11171:11203   */\n      add\n        /* \"#utility.yul\":11168:11209   */\n      gt\n        /* \"#utility.yul\":11165:11293   */\n      iszero\n      tag_594\n      jumpi\n        /* \"#utility.yul\":11212:11291   */\n      tag_595\n      tag_445\n      jump\t// in\n    tag_595:\n        /* \"#utility.yul\":11165:11293   */\n    tag_594:\n        /* \"#utility.yul\":10732:11299   */\n      swap3\n      pop\n      swap3\n      swap1\n      pop\n      jump\t// out\n        /* \"#utility.yul\":11305:12237   */\n    tag_137:\n        /* \"#utility.yul\":11426:11432   */\n      0x00\n        /* \"#utility.yul\":11434:11440   */\n      0x00\n        /* \"#utility.yul\":11442:11448   */\n      0x00\n        /* \"#utility.yul\":11450:11456   */\n      0x00\n        /* \"#utility.yul\":11499:11501   */\n      0x40\n        /* \"#utility.yul\":11487:11496   */\n      dup6\n        /* \"#utility.yul\":11478:11485   */\n      dup8\n        /* \"#utility.yul\":11474:11497   */\n      sub\n        /* \"#utility.yul\":11470:11502   */\n      slt\n        /* \"#utility.yul\":11467:11586   */\n      iszero\n      tag_597\n      jumpi\n        /* \"#utility.yul\":11505:11584   */\n      tag_598\n      tag_408\n      jump\t// in\n    tag_598:\n        /* \"#utility.yul\":11467:11586   */\n    tag_597:\n        /* \"#utility.yul\":11653:11654   */\n      0x00\n        /* \"#utility.yul\":11642:11651   */\n      dup6\n        /* \"#utility.yul\":11638:11655   */\n      add\n        /* \"#utility.yul\":11625:11656   */\n      calldataload\n        /* \"#utility.yul\":11683:11701   */\n      0xffffffffffffffff\n        /* \"#utility.yul\":11675:11681   */\n      dup2\n        /* \"#utility.yul\":11672:11702   */\n      gt\n        /* \"#utility.yul\":11669:11786   */\n      iszero\n      tag_599\n      jumpi\n        /* \"#utility.yul\":11705:11784   */\n      tag_600\n      tag_409\n      jump\t// in\n    tag_600:\n        /* \"#utility.yul\":11669:11786   */\n    tag_599:\n        /* \"#utility.yul\":11818:11898   */\n      tag_601\n        /* \"#utility.yul\":11890:11897   */\n      dup8\n        /* \"#utility.yul\":11881:11887   */\n      dup3\n        /* \"#utility.yul\":11870:11879   */\n      dup9\n        /* \"#utility.yul\":11866:11888   */\n      add\n        /* \"#utility.yul\":11818:11898   */\n      tag_446\n      jump\t// in\n    tag_601:\n        /* \"#utility.yul\":11800:11898   */\n      swap5\n      pop\n      swap5\n      pop\n        /* \"#utility.yul\":11596:11908   */\n      pop\n        /* \"#utility.yul\":11975:11977   */\n      0x20\n        /* \"#utility.yul\":11964:11973   */\n      dup6\n        /* \"#utility.yul\":11960:11978   */\n      add\n        /* \"#utility.yul\":11947:11979   */\n      calldataload\n        /* \"#utility.yul\":12006:12024   */\n      0xffffffffffffffff\n        /* \"#utility.yul\":11998:12004   */\n      dup2\n        /* \"#utility.yul\":11995:12025   */\n      gt\n        /* \"#utility.yul\":11992:12109   */\n      iszero\n      tag_602\n      jumpi\n        /* \"#utility.yul\":12028:12107   */\n      tag_603\n      tag_409\n      jump\t// in\n    tag_603:\n        /* \"#utility.yul\":11992:12109   */\n    tag_602:\n        /* \"#utility.yul\":12141:12220   */\n      tag_604\n        /* \"#utility.yul\":12212:12219   */\n      dup8\n        /* \"#utility.yul\":12203:12209   */\n      dup3\n        /* \"#utility.yul\":12192:12201   */\n      dup9\n        /* \"#utility.yul\":12188:12210   */\n      add\n        /* \"#utility.yul\":12141:12220   */\n      tag_447\n      jump\t// in\n    tag_604:\n        /* \"#utility.yul\":12123:12220   */\n      swap3\n      pop\n      swap3\n      pop\n        /* \"#utility.yul\":11918:12230   */\n      pop\n        /* \"#utility.yul\":11305:12237   */\n      swap3\n      swap6\n      swap2\n      swap5\n      pop\n      swap3\n      pop\n      jump\t// out\n        /* \"#utility.yul\":12243:13008   */\n    tag_146:\n        /* \"#utility.yul\":12329:12335   */\n      0x00\n        /* \"#utility.yul\":12337:12343   */\n      0x00\n        /* \"#utility.yul\":12345:12351   */\n      0x00\n        /* \"#utility.yul\":12353:12359   */\n      0x00\n        /* \"#utility.yul\":12402:12405   */\n      0x80\n        /* \"#utility.yul\":12390:12399   */\n      dup6\n        /* \"#utility.yul\":12381:12388   */\n      dup8\n        /* \"#utility.yul\":12377:12400   */\n      sub\n        /* \"#utility.yul\":12373:12406   */\n      slt\n        /* \"#utility.yul\":12370:12490   */\n      iszero\n      tag_606\n      jumpi\n        /* \"#utility.yul\":12409:12488   */\n      tag_607\n      tag_408\n      jump\t// in\n    tag_607:\n        /* \"#utility.yul\":12370:12490   */\n    tag_606:\n        /* \"#utility.yul\":12529:12530   */\n      0x00\n        /* \"#utility.yul\":12554:12607   */\n      tag_608\n        /* \"#utility.yul\":12599:12606   */\n      dup8\n        /* \"#utility.yul\":12590:12596   */\n      dup3\n        /* \"#utility.yul\":12579:12588   */\n      dup9\n        /* \"#utility.yul\":12575:12597   */\n      add\n        /* \"#utility.yul\":12554:12607   */\n      tag_419\n      jump\t// in\n    tag_608:\n        /* \"#utility.yul\":12544:12607   */\n      swap5\n      pop\n        /* \"#utility.yul\":12500:12617   */\n      pop\n        /* \"#utility.yul\":12656:12658   */\n      0x20\n        /* \"#utility.yul\":12682:12735   */\n      tag_609\n        /* \"#utility.yul\":12727:12734   */\n      dup8\n        /* \"#utility.yul\":12718:12724   */\n      dup3\n        /* \"#utility.yul\":12707:12716   */\n      dup9\n        /* \"#utility.yul\":12703:12725   */\n      add\n        /* \"#utility.yul\":12682:12735   */\n      tag_419\n      jump\t// in\n    tag_609:\n        /* \"#utility.yul\":12672:12735   */\n      swap4\n      pop\n        /* \"#utility.yul\":12627:12745   */\n      pop\n        /* \"#utility.yul\":12784:12786   */\n      0x40\n        /* \"#utility.yul\":12810:12863   */\n      tag_610\n        /* \"#utility.yul\":12855:12862   */\n      dup8\n        /* \"#utility.yul\":12846:12852   */\n      dup3\n        /* \"#utility.yul\":12835:12844   */\n      dup9\n        /* \"#utility.yul\":12831:12853   */\n      add\n        /* \"#utility.yul\":12810:12863   */\n      tag_419\n      jump\t// in\n    tag_610:\n        /* \"#utility.yul\":12800:12863   */\n      swap3\n      pop\n        /* \"#utility.yul\":12755:12873   */\n      pop\n        /* \"#utility.yul\":12912:12914   */\n      0x60\n        /* \"#utility.yul\":12938:12991   */\n      tag_611\n        /* \"#utility.yul\":12983:12990   */\n      dup8\n        /* \"#utility.yul\":12974:12980   */\n      dup3\n        /* \"#utility.yul\":12963:12972   */\n      dup9\n        /* \"#utility.yul\":12959:12981   */\n      add\n        /* \"#utility.yul\":12938:12991   */\n      tag_419\n      jump\t// in\n    tag_611:\n        /* \"#utility.yul\":12928:12991   */\n      swap2\n      pop\n        /* \"#utility.yul\":12883:13001   */\n      pop\n        /* \"#utility.yul\":12243:13008   */\n      swap3\n      swap6\n      swap2\n      swap5\n      pop\n      swap3\n      pop\n      jump\t// out\n        /* \"#utility.yul\":13014:13099   */\n    tag_448:\n        /* \"#utility.yul\":13059:13066   */\n      0x00\n        /* \"#utility.yul\":13088:13093   */\n      dup2\n        /* \"#utility.yul\":13077:13093   */\n      swap1\n      pop\n        /* \"#utility.yul\":13014:13099   */\n      swap2\n      swap1\n      pop\n      jump\t// out\n        /* \"#utility.yul\":13105:13206   */\n    tag_449:\n        /* \"#utility.yul\":13141:13148   */\n      0x00\n        /* \"#utility.yul\":13181:13199   */\n      0xffffffffffffffff\n        /* \"#utility.yul\":13174:13179   */\n      dup3\n        /* \"#utility.yul\":13170:13200   */\n      and\n        /* \"#utility.yul\":13159:13200   */\n      swap1\n      pop\n        /* \"#utility.yul\":13105:13206   */\n      swap2\n      swap1\n      pop\n      jump\t// out\n        /* \"#utility.yul\":13212:13272   */\n    tag_450:\n        /* \"#utility.yul\":13240:13243   */\n      0x00\n        /* \"#utility.yul\":13261:13266   */\n      dup2\n        /* \"#utility.yul\":13254:13266   */\n      swap1\n      pop\n        /* \"#utility.yul\":13212:13272   */\n      swap2\n      swap1\n      pop\n      jump\t// out\n        /* \"#utility.yul\":13278:13434   */\n    tag_451:\n        /* \"#utility.yul\":13335:13344   */\n      0x00\n        /* \"#utility.yul\":13368:13428   */\n      tag_616\n        /* \"#utility.yul\":13385:13427   */\n      tag_617\n        /* \"#utility.yul\":13394:13426   */\n      tag_618\n        /* \"#utility.yul\":13420:13425   */\n      dup5\n        /* \"#utility.yul\":13394:13426   */\n      tag_448\n      jump\t// in\n    tag_618:\n        /* \"#utility.yul\":13385:13427   */\n      tag_450\n      jump\t// in\n    tag_617:\n        /* \"#utility.yul\":13368:13428   */\n      tag_449\n      jump\t// in\n    tag_616:\n        /* \"#utility.yul\":13355:13428   */\n      swap1\n      pop\n        /* \"#utility.yul\":13278:13434   */\n      swap2\n      swap1\n      pop\n      jump\t// out\n        /* \"#utility.yul\":13440:13585   */\n    tag_452:\n        /* \"#utility.yul\":13534:13578   */\n      tag_620\n        /* \"#utility.yul\":13572:13577   */\n      dup2\n        /* \"#utility.yul\":13534:13578   */\n      tag_451\n      jump\t// in\n    tag_620:\n        /* \"#utility.yul\":13529:13532   */\n      dup3\n        /* \"#utility.yul\":13522:13579   */\n      mstore\n        /* \"#utility.yul\":13440:13585   */\n      pop\n      pop\n      jump\t// out\n        /* \"#utility.yul\":13591:13827   */\n    tag_241:\n        /* \"#utility.yul\":13691:13695   */\n      0x00\n        /* \"#utility.yul\":13729:13731   */\n      0x20\n        /* \"#utility.yul\":13718:13727   */\n      dup3\n        /* \"#utility.yul\":13714:13732   */\n      add\n        /* \"#utility.yul\":13706:13732   */\n      swap1\n      pop\n        /* \"#utility.yul\":13742:13820   */\n      tag_622\n        /* \"#utility.yul\":13817:13818   */\n      0x00\n        /* \"#utility.yul\":13806:13815   */\n      dup4\n        /* \"#utility.yul\":13802:13819   */\n      add\n        /* \"#utility.yul\":13793:13799   */\n      dup5\n        /* \"#utility.yul\":13742:13820   */\n      tag_452\n      jump\t// in\n    tag_622:\n        /* \"#utility.yul\":13591:13827   */\n      swap3\n      swap2\n      pop\n      pop\n      jump\t// out\n        /* \"#utility.yul\":13833:13976   */\n    tag_453:\n        /* \"#utility.yul\":13890:13895   */\n      0x00\n        /* \"#utility.yul\":13921:13927   */\n      dup2\n        /* \"#utility.yul\":13915:13928   */\n      mload\n        /* \"#utility.yul\":13906:13928   */\n      swap1\n      pop\n        /* \"#utility.yul\":13937:13970   */\n      tag_624\n        /* \"#utility.yul\":13964:13969   */\n      dup2\n        /* \"#utility.yul\":13937:13970   */\n      tag_425\n      jump\t// in\n    tag_624:\n        /* \"#utility.yul\":13833:13976   */\n      swap3\n      swap2\n      pop\n      pop\n      jump\t// out\n        /* \"#utility.yul\":13982:14333   */\n    tag_284:\n        /* \"#utility.yul\":14052:14058   */\n      0x00\n        /* \"#utility.yul\":14101:14103   */\n      0x20\n        /* \"#utility.yul\":14089:14098   */\n      dup3\n        /* \"#utility.yul\":14080:14087   */\n      dup5\n        /* \"#utility.yul\":14076:14099   */\n      sub\n        /* \"#utility.yul\":14072:14104   */\n      slt\n        /* \"#utility.yul\":14069:14188   */\n      iszero\n      tag_626\n      jumpi\n        /* \"#utility.yul\":14107:14186   */\n      tag_627\n      tag_408\n      jump\t// in\n    tag_627:\n        /* \"#utility.yul\":14069:14188   */\n    tag_626:\n        /* \"#utility.yul\":14227:14228   */\n      0x00\n        /* \"#utility.yul\":14252:14316   */\n      tag_628\n        /* \"#utility.yul\":14308:14315   */\n      dup5\n        /* \"#utility.yul\":14299:14305   */\n      dup3\n        /* \"#utility.yul\":14288:14297   */\n      dup6\n        /* \"#utility.yul\":14284:14306   */\n      add\n        /* \"#utility.yul\":14252:14316   */\n      tag_453\n      jump\t// in\n    tag_628:\n        /* \"#utility.yul\":14242:14316   */\n      swap2\n      pop\n        /* \"#utility.yul\":14198:14326   */\n      pop\n        /* \"#utility.yul\":13982:14333   */\n      swap3\n      swap2\n      pop\n      pop\n      jump\t// out\n        /* \"#utility.yul\":14339:14566   */\n    tag_454:\n        /* \"#utility.yul\":14479:14513   */\n      0x566f6365206e616f20706f73737569206e656e68756d2074657374616d656e74\n        /* \"#utility.yul\":14475:14476   */\n      0x00\n        /* \"#utility.yul\":14467:14473   */\n      dup3\n        /* \"#utility.yul\":14463:14477   */\n      add\n        /* \"#utility.yul\":14456:14514   */\n      mstore\n        /* \"#utility.yul\":14548:14558   */\n      0x6f2063726961646f000000000000000000000000000000000000000000000000\n        /* \"#utility.yul\":14543:14545   */\n      0x20\n        /* \"#utility.yul\":14535:14541   */\n      dup3\n        /* \"#utility.yul\":14531:14546   */\n      add\n        /* \"#utility.yul\":14524:14559   */\n      mstore\n        /* \"#utility.yul\":14339:14566   */\n      pop\n      jump\t// out\n        /* \"#utility.yul\":14572:14938   */\n    tag_455:\n        /* \"#utility.yul\":14714:14717   */\n      0x00\n        /* \"#utility.yul\":14735:14802   */\n      tag_631\n        /* \"#utility.yul\":14799:14801   */\n      0x28\n        /* \"#utility.yul\":14794:14797   */\n      dup4\n        /* \"#utility.yul\":14735:14802   */\n      tag_441\n      jump\t// in\n    tag_631:\n        /* \"#utility.yul\":14728:14802   */\n      swap2\n      pop\n        /* \"#utility.yul\":14811:14904   */\n      tag_632\n        /* \"#utility.yul\":14900:14903   */\n      dup3\n        /* \"#utility.yul\":14811:14904   */\n      tag_454\n      jump\t// in\n    tag_632:\n        /* \"#utility.yul\":14929:14931   */\n      0x40\n        /* \"#utility.yul\":14924:14927   */\n      dup3\n        /* \"#utility.yul\":14920:14932   */\n      add\n        /* \"#utility.yul\":14913:14932   */\n      swap1\n      pop\n        /* \"#utility.yul\":14572:14938   */\n      swap2\n      swap1\n      pop\n      jump\t// out\n        /* \"#utility.yul\":14944:15363   */\n    tag_309:\n        /* \"#utility.yul\":15110:15114   */\n      0x00\n        /* \"#utility.yul\":15148:15150   */\n      0x20\n        /* \"#utility.yul\":15137:15146   */\n      dup3\n        /* \"#utility.yul\":15133:15151   */\n      add\n        /* \"#utility.yul\":15125:15151   */\n      swap1\n      pop\n        /* \"#utility.yul\":15197:15206   */\n      dup2\n        /* \"#utility.yul\":15191:15195   */\n      dup2\n        /* \"#utility.yul\":15187:15207   */\n      sub\n        /* \"#utility.yul\":15183:15184   */\n      0x00\n        /* \"#utility.yul\":15172:15181   */\n      dup4\n        /* \"#utility.yul\":15168:15185   */\n      add\n        /* \"#utility.yul\":15161:15208   */\n      mstore\n        /* \"#utility.yul\":15225:15356   */\n      tag_634\n        /* \"#utility.yul\":15351:15355   */\n      dup2\n        /* \"#utility.yul\":15225:15356   */\n      tag_455\n      jump\t// in\n    tag_634:\n        /* \"#utility.yul\":15217:15356   */\n      swap1\n      pop\n        /* \"#utility.yul\":14944:15363   */\n      swap2\n      swap1\n      pop\n      jump\t// out\n        /* \"#utility.yul\":15369:15701   */\n    tag_339:\n        /* \"#utility.yul\":15490:15494   */\n      0x00\n        /* \"#utility.yul\":15528:15530   */\n      0x40\n        /* \"#utility.yul\":15517:15526   */\n      dup3\n        /* \"#utility.yul\":15513:15531   */\n      add\n        /* \"#utility.yul\":15505:15531   */\n      swap1\n      pop\n        /* \"#utility.yul\":15541:15612   */\n      tag_636\n        /* \"#utility.yul\":15609:15610   */\n      0x00\n        /* \"#utility.yul\":15598:15607   */\n      dup4\n        /* \"#utility.yul\":15594:15611   */\n      add\n        /* \"#utility.yul\":15585:15591   */\n      dup6\n        /* \"#utility.yul\":15541:15612   */\n      tag_417\n      jump\t// in\n    tag_636:\n        /* \"#utility.yul\":15622:15694   */\n      tag_637\n        /* \"#utility.yul\":15690:15692   */\n      0x20\n        /* \"#utility.yul\":15679:15688   */\n      dup4\n        /* \"#utility.yul\":15675:15693   */\n      add\n        /* \"#utility.yul\":15666:15672   */\n      dup5\n        /* \"#utility.yul\":15622:15694   */\n      tag_427\n      jump\t// in\n    tag_637:\n        /* \"#utility.yul\":15369:15701   */\n      swap4\n      swap3\n      pop\n      pop\n      pop\n      jump\t// out\n        /* \"#utility.yul\":15707:15877   */\n    tag_456:\n        /* \"#utility.yul\":15847:15869   */\n      0x5061757361626c653a206e6f7420706175736564000000000000000000000000\n        /* \"#utility.yul\":15843:15844   */\n      0x00\n        /* \"#utility.yul\":15835:15841   */\n      dup3\n        /* \"#utility.yul\":15831:15845   */\n      add\n        /* \"#utility.yul\":15824:15870   */\n      mstore\n        /* \"#utility.yul\":15707:15877   */\n      pop\n      jump\t// out\n        /* \"#utility.yul\":15883:16249   */\n    tag_457:\n        /* \"#utility.yul\":16025:16028   */\n      0x00\n        /* \"#utility.yul\":16046:16113   */\n      tag_640\n        /* \"#utility.yul\":16110:16112   */\n      0x14\n        /* \"#utility.yul\":16105:16108   */\n      dup4\n        /* \"#utility.yul\":16046:16113   */\n      tag_441\n      jump\t// in\n    tag_640:\n        /* \"#utility.yul\":16039:16113   */\n      swap2\n      pop\n        /* \"#utility.yul\":16122:16215   */\n      tag_641\n        /* \"#utility.yul\":16211:16214   */\n      dup3\n        /* \"#utility.yul\":16122:16215   */\n      tag_456\n      jump\t// in\n    tag_641:\n        /* \"#utility.yul\":16240:16242   */\n      0x20\n        /* \"#utility.yul\":16235:16238   */\n      dup3\n        /* \"#utility.yul\":16231:16243   */\n      add\n        /* \"#utility.yul\":16224:16243   */\n      swap1\n      pop\n        /* \"#utility.yul\":15883:16249   */\n      swap2\n      swap1\n      pop\n      jump\t// out\n        /* \"#utility.yul\":16255:16674   */\n    tag_344:\n        /* \"#utility.yul\":16421:16425   */\n      0x00\n        /* \"#utility.yul\":16459:16461   */\n      0x20\n        /* \"#utility.yul\":16448:16457   */\n      dup3\n        /* \"#utility.yul\":16444:16462   */\n      add\n        /* \"#utility.yul\":16436:16462   */\n      swap1\n      pop\n        /* \"#utility.yul\":16508:16517   */\n      dup2\n        /* \"#utility.yul\":16502:16506   */\n      dup2\n        /* \"#utility.yul\":16498:16518   */\n      sub\n        /* \"#utility.yul\":16494:16495   */\n      0x00\n        /* \"#utility.yul\":16483:16492   */\n      dup4\n        /* \"#utility.yul\":16479:16496   */\n      add\n        /* \"#utility.yul\":16472:16519   */\n      mstore\n        /* \"#utility.yul\":16536:16667   */\n      tag_643\n        /* \"#utility.yul\":16662:16666   */\n      dup2\n        /* \"#utility.yul\":16536:16667   */\n      tag_457\n      jump\t// in\n    tag_643:\n        /* \"#utility.yul\":16528:16667   */\n      swap1\n      pop\n        /* \"#utility.yul\":16255:16674   */\n      swap2\n      swap1\n      pop\n      jump\t// out\n        /* \"#utility.yul\":16680:16846   */\n    tag_458:\n        /* \"#utility.yul\":16820:16838   */\n      0x5061757361626c653a2070617573656400000000000000000000000000000000\n        /* \"#utility.yul\":16816:16817   */\n      0x00\n        /* \"#utility.yul\":16808:16814   */\n      dup3\n        /* \"#utility.yul\":16804:16818   */\n      add\n        /* \"#utility.yul\":16797:16839   */\n      mstore\n        /* \"#utility.yul\":16680:16846   */\n      pop\n      jump\t// out\n        /* \"#utility.yul\":16852:17218   */\n    tag_459:\n        /* \"#utility.yul\":16994:16997   */\n      0x00\n        /* \"#utility.yul\":17015:17082   */\n      tag_646\n        /* \"#utility.yul\":17079:17081   */\n      0x10\n        /* \"#utility.yul\":17074:17077   */\n      dup4\n        /* \"#utility.yul\":17015:17082   */\n      tag_441\n      jump\t// in\n    tag_646:\n        /* \"#utility.yul\":17008:17082   */\n      swap2\n      pop\n        /* \"#utility.yul\":17091:17184   */\n      tag_647\n        /* \"#utility.yul\":17180:17183   */\n      dup3\n        /* \"#utility.yul\":17091:17184   */\n      tag_458\n      jump\t// in\n    tag_647:\n        /* \"#utility.yul\":17209:17211   */\n      0x20\n        /* \"#utility.yul\":17204:17207   */\n      dup3\n        /* \"#utility.yul\":17200:17212   */\n      add\n        /* \"#utility.yul\":17193:17212   */\n      swap1\n      pop\n        /* \"#utility.yul\":16852:17218   */\n      swap2\n      swap1\n      pop\n      jump\t// out\n        /* \"#utility.yul\":17224:17643   */\n    tag_361:\n        /* \"#utility.yul\":17390:17394   */\n      0x00\n        /* \"#utility.yul\":17428:17430   */\n      0x20\n        /* \"#utility.yul\":17417:17426   */\n      dup3\n        /* \"#utility.yul\":17413:17431   */\n      add\n        /* \"#utility.yul\":17405:17431   */\n      swap1\n      pop\n        /* \"#utility.yul\":17477:17486   */\n      dup2\n        /* \"#utility.yul\":17471:17475   */\n      dup2\n        /* \"#utility.yul\":17467:17487   */\n      sub\n        /* \"#utility.yul\":17463:17464   */\n      0x00\n        /* \"#utility.yul\":17452:17461   */\n      dup4\n        /* \"#utility.yul\":17448:17465   */\n      add\n        /* \"#utility.yul\":17441:17488   */\n      mstore\n        /* \"#utility.yul\":17505:17636   */\n      tag_649\n        /* \"#utility.yul\":17631:17635   */\n      dup2\n        /* \"#utility.yul\":17505:17636   */\n      tag_459\n      jump\t// in\n    tag_649:\n        /* \"#utility.yul\":17497:17636   */\n      swap1\n      pop\n        /* \"#utility.yul\":17224:17643   */\n      swap2\n      swap1\n      pop\n      jump\t// out\n        /* \"#utility.yul\":17649:17747   */\n    tag_460:\n        /* \"#utility.yul\":17700:17706   */\n      0x00\n        /* \"#utility.yul\":17734:17739   */\n      dup2\n        /* \"#utility.yul\":17728:17740   */\n      mload\n        /* \"#utility.yul\":17718:17740   */\n      swap1\n      pop\n        /* \"#utility.yul\":17649:17747   */\n      swap2\n      swap1\n      pop\n      jump\t// out\n        /* \"#utility.yul\":17753:17900   */\n    tag_461:\n        /* \"#utility.yul\":17854:17865   */\n      0x00\n        /* \"#utility.yul\":17891:17894   */\n      dup2\n        /* \"#utility.yul\":17876:17894   */\n      swap1\n      pop\n        /* \"#utility.yul\":17753:17900   */\n      swap3\n      swap2\n      pop\n      pop\n      jump\t// out\n        /* \"#utility.yul\":17906:18292   */\n    tag_462:\n        /* \"#utility.yul\":18010:18013   */\n      0x00\n        /* \"#utility.yul\":18038:18076   */\n      tag_653\n        /* \"#utility.yul\":18070:18075   */\n      dup3\n        /* \"#utility.yul\":18038:18076   */\n      tag_460\n      jump\t// in\n    tag_653:\n        /* \"#utility.yul\":18092:18180   */\n      tag_654\n        /* \"#utility.yul\":18173:18179   */\n      dup2\n        /* \"#utility.yul\":18168:18171   */\n      dup6\n        /* \"#utility.yul\":18092:18180   */\n      tag_461\n      jump\t// in\n    tag_654:\n        /* \"#utility.yul\":18085:18180   */\n      swap4\n      pop\n        /* \"#utility.yul\":18189:18254   */\n      tag_655\n        /* \"#utility.yul\":18247:18253   */\n      dup2\n        /* \"#utility.yul\":18242:18245   */\n      dup6\n        /* \"#utility.yul\":18235:18239   */\n      0x20\n        /* \"#utility.yul\":18228:18233   */\n      dup7\n        /* \"#utility.yul\":18224:18240   */\n      add\n        /* \"#utility.yul\":18189:18254   */\n      tag_442\n      jump\t// in\n    tag_655:\n        /* \"#utility.yul\":18279:18285   */\n      dup1\n        /* \"#utility.yul\":18274:18277   */\n      dup5\n        /* \"#utility.yul\":18270:18286   */\n      add\n        /* \"#utility.yul\":18263:18286   */\n      swap2\n      pop\n        /* \"#utility.yul\":18014:18292   */\n      pop\n        /* \"#utility.yul\":17906:18292   */\n      swap3\n      swap2\n      pop\n      pop\n      jump\t// out\n        /* \"#utility.yul\":18298:18569   */\n    tag_386:\n        /* \"#utility.yul\":18428:18431   */\n      0x00\n        /* \"#utility.yul\":18450:18543   */\n      tag_657\n        /* \"#utility.yul\":18539:18542   */\n      dup3\n        /* \"#utility.yul\":18530:18536   */\n      dup5\n        /* \"#utility.yul\":18450:18543   */\n      tag_462\n      jump\t// in\n    tag_657:\n        /* \"#utility.yul\":18443:18543   */\n      swap2\n      pop\n        /* \"#utility.yul\":18560:18563   */\n      dup2\n        /* \"#utility.yul\":18553:18563   */\n      swap1\n      pop\n        /* \"#utility.yul\":18298:18569   */\n      swap3\n      swap2\n      pop\n      pop\n      jump\t// out\n\n    auxdata: 0xa264697066735822122021fec5346ea75b797049cc746c77b7a837a40b4c274cfd73eb64af32ca2ca7e264736f6c634300081d0033\n}\n",
				"bytecode": {
					"linkReferences": {},
					"object": "60a06040523073ffffffffffffffffffffffffffffffffffffffff1660809073ffffffffffffffffffffffffffffffffffffffff168152503480156041575f5ffd5b506080516124826100685f395f8181611065015281816110ba015261127401526124825ff3fe608060405260043610610180575f3560e01c80635c975abb116100d057806391d1485411610089578063d547741f11610063578063d547741f14610506578063e7a84bc31461052e578063f2fde38b1461054a578063f8c8765e1461057257610180565b806391d1485414610476578063a217fddf146104b2578063ad3cb1cc146104dc57610180565b80635c975abb146103b657806367892597146103e0578063715018a6146103f657806382fe535a1461040c5780638456cb59146104365780638da5cb5b1461044c57610180565b80632f2ff15d1161013d5780634f1ef286116101175780634f1ef2861461030a57806352d1902d14610326578063578dcf6d146103505780635b084db91461037a57610180565b80632f2ff15d146102a457806336568abe146102cc5780633f4ba83a146102f457610180565b806301ffc9a71461018457806311ce0267146101c05780631aba6da6146101ea5780631acb49b41461020057806320888d1e1461023e578063248a9ca314610268575b5f5ffd5b34801561018f575f5ffd5b506101aa60048036038101906101a59190611b68565b61059a565b6040516101b79190611bad565b60405180910390f35b3480156101cb575f5ffd5b506101d4610613565b6040516101e19190611c05565b60405180910390f35b3480156101f5575f5ffd5b506101fe610638565b005b34801561020b575f5ffd5b5061022660048036038101906102219190611c48565b61063a565b60405161023593929190611cb5565b60405180910390f35b348015610249575f5ffd5b50610252610689565b60405161025f9190611c05565b60405180910390f35b348015610273575f5ffd5b5061028e60048036038101906102899190611d1d565b6106ae565b60405161029b9190611d57565b60405180910390f35b3480156102af575f5ffd5b506102ca60048036038101906102c59190611d70565b6106d8565b005b3480156102d7575f5ffd5b506102f260048036038101906102ed9190611d70565b6106fa565b005b3480156102ff575f5ffd5b50610308610775565b005b610324600480360381019061031f9190611eea565b610787565b005b348015610331575f5ffd5b5061033a6107a6565b6040516103479190611d57565b60405180910390f35b34801561035b575f5ffd5b506103646107d7565b6040516103719190611c05565b60405180910390f35b348015610385575f5ffd5b506103a0600480360381019061039b9190611f6e565b6107fc565b6040516103ad9190611c05565b60405180910390f35b3480156103c1575f5ffd5b506103ca610844565b6040516103d79190611bad565b60405180910390f35b3480156103eb575f5ffd5b506103f4610858565b005b348015610401575f5ffd5b5061040a61085a565b005b348015610417575f5ffd5b5061042061086d565b60405161042d9190611c05565b60405180910390f35b348015610441575f5ffd5b5061044a610892565b005b348015610457575f5ffd5b506104606108a4565b60405161046d9190611c05565b60405180910390f35b348015610481575f5ffd5b5061049c60048036038101906104979190611d70565b6108d9565b6040516104a99190611bad565b60405180910390f35b3480156104bd575f5ffd5b506104c661094a565b6040516104d39190611d57565b60405180910390f35b3480156104e7575f5ffd5b506104f0610950565b6040516104fd919061200c565b60405180910390f35b348015610511575f5ffd5b5061052c60048036038101906105279190611d70565b610989565b005b610548600480360381019061054391906120de565b6109ab565b005b348015610555575f5ffd5b50610570600480360381019061056b9190611c48565b6109b9565b005b34801561057d575f5ffd5b506105986004803603810190610593919061215c565b610a3d565b005b5f7f7965db0b000000000000000000000000000000000000000000000000000000007bffffffffffffffffffffffffffffffffffffffffffffffffffffffff1916827bffffffffffffffffffffffffffffffffffffffffffffffffffffffff1916148061060c575061060b82610ce1565b5b9050919050565b60665f9054906101000a900473ffffffffffffffffffffffffffffffffffffffff1681565b565b6064602052805f5260405f205f91509050806001015f9054906101000a900460ff16908060010160019054906101000a90046fffffffffffffffffffffffffffffffff16908060020154905083565b60695f9054906101000a900473ffffffffffffffffffffffffffffffffffffffff1681565b5f5f6106b8610d4a565b9050805f015f8481526020019081526020015f2060010154915050919050565b6106e1826106ae565b6106ea81610d71565b6106f48383610d85565b50505050565b610702610e7d565b73ffffffffffffffffffffffffffffffffffffffff168173ffffffffffffffffffffffffffffffffffffffff1614610766576040517f6697b23200000000000000000000000000000000000000000000000000000000815260040160405180910390fd5b6107708282610e84565b505050565b61077d610f7c565b610785611003565b565b61078f611063565b61079882611149565b6107a28282611154565b5050565b5f6107af611272565b7f360894a13ba1a3210667c828492db98dca3e2076cc3735a920a3ca505d382bbc5f1b905090565b60675f9054906101000a900473ffffffffffffffffffffffffffffffffffffffff1681565b6065602052815f5260405f208181548110610815575f80fd5b905f5260205f20015f915091509054906101000a900473ffffffffffffffffffffffffffffffffffffffff1681565b5f5f5f9054906101000a900460ff16905090565b565b610862610f7c565b61086b5f6112f9565b565b60685f9054906101000a900473ffffffffffffffffffffffffffffffffffffffff1681565b61089a610f7c565b6108a26113ca565b565b5f5f6108ae61142b565b9050805f015f9054906101000a900473ffffffffffffffffffffffffffffffffffffffff1691505090565b5f5f6108e3610d4a565b9050805f015f8581526020019081526020015f205f015f8473ffffffffffffffffffffffffffffffffffffffff1673ffffffffffffffffffffffffffffffffffffffff1681526020019081526020015f205f9054906101000a900460ff1691505092915050565b5f5f1b81565b6040518060400160405280600581526020017f352e302e3000000000000000000000000000000000000000000000000000000081525081565b610992826106ae565b61099b81610d71565b6109a58383610e84565b50505050565b6109b3611452565b50505050565b6109c1610f7c565b5f73ffffffffffffffffffffffffffffffffffffffff168173ffffffffffffffffffffffffffffffffffffffff1603610a31575f6040517f1e4fbdf7000000000000000000000000000000000000000000000000000000008152600401610a289190611c05565b60405180910390fd5b610a3a816112f9565b50565b5f610a4661155c565b90505f815f0160089054906101000a900460ff161590505f825f015f9054906101000a900467ffffffffffffffff1690505f5f8267ffffffffffffffff16148015610a8e5750825b90505f60018367ffffffffffffffff16148015610ac157505f3073ffffffffffffffffffffffffffffffffffffffff163b145b905081158015610acf575080155b15610b06576040517ff92ee8a900000000000000000000000000000000000000000000000000000000815260040160405180910390fd5b6001855f015f6101000a81548167ffffffffffffffff021916908367ffffffffffffffff1602179055508315610b53576001855f0160086101000a81548160ff0219169083151502179055505b610b5c3361156f565b610b64611583565b610b6c61158d565b610b7461159f565b610b7c6115b1565b8860665f6101000a81548173ffffffffffffffffffffffffffffffffffffffff021916908373ffffffffffffffffffffffffffffffffffffffff1602179055508760675f6101000a81548173ffffffffffffffffffffffffffffffffffffffff021916908373ffffffffffffffffffffffffffffffffffffffff1602179055508660685f6101000a81548173ffffffffffffffffffffffffffffffffffffffff021916908373ffffffffffffffffffffffffffffffffffffffff1602179055508560695f6101000a81548173ffffffffffffffffffffffffffffffffffffffff021916908373ffffffffffffffffffffffffffffffffffffffff1602179055508315610cd6575f855f0160086101000a81548160ff0219169083151502179055507fc7f505b2f371ae2175ee4913f4499e1f2633a7b5936321eed1cdaeb6115181d26001604051610ccd9190612215565b60405180910390a15b505050505050505050565b5f7f01ffc9a7000000000000000000000000000000000000000000000000000000007bffffffffffffffffffffffffffffffffffffffffffffffffffffffff1916827bffffffffffffffffffffffffffffffffffffffffffffffffffffffff1916149050919050565b5f7f02dd7bc7dec4dceedda775e58dd541e08a116c6c53815c0bd028192f7b626800905090565b610d8281610d7d610e7d565b6115bb565b50565b5f5f610d8f610d4a565b9050610d9b84846108d9565b610e72576001815f015f8681526020019081526020015f205f015f8573ffffffffffffffffffffffffffffffffffffffff1673ffffffffffffffffffffffffffffffffffffffff1681526020019081526020015f205f6101000a81548160ff021916908315150217905550610e0e610e7d565b73ffffffffffffffffffffffffffffffffffffffff168373ffffffffffffffffffffffffffffffffffffffff16857f2f8788117e7eff1d82e926ec794901d17c78024a50270940304540a733656f0d60405160405180910390a46001915050610e77565b5f9150505b92915050565b5f33905090565b5f5f610e8e610d4a565b9050610e9a84846108d9565b15610f71575f815f015f8681526020019081526020015f205f015f8573ffffffffffffffffffffffffffffffffffffffff1673ffffffffffffffffffffffffffffffffffffffff1681526020019081526020015f205f6101000a81548160ff021916908315150217905550610f0d610e7d565b73ffffffffffffffffffffffffffffffffffffffff168373ffffffffffffffffffffffffffffffffffffffff16857ff6391f5c32d9c69d2a47ea670b442974b53935d1edc7fd64eb21e047a839171b60405160405180910390a46001915050610f76565b5f9150505b92915050565b610f84610e7d565b73ffffffffffffffffffffffffffffffffffffffff16610fa26108a4565b73ffffffffffffffffffffffffffffffffffffffff161461100157610fc5610e7d565b6040517f118cdaa7000000000000000000000000000000000000000000000000000000008152600401610ff89190611c05565b60405180910390fd5b565b61100b61160c565b5f5f5f6101000a81548160ff0219169083151502179055507f5db9ee0a495bf2e6ff9c91a7834c1ba4fdd244a5e8aa4e537bd38aeae4b073aa61104c610e7d565b6040516110599190611c05565b60405180910390a1565b7f000000000000000000000000000000000000000000000000000000000000000073ffffffffffffffffffffffffffffffffffffffff163073ffffffffffffffffffffffffffffffffffffffff16148061111057507f000000000000000000000000000000000000000000000000000000000000000073ffffffffffffffffffffffffffffffffffffffff166110f7611655565b73ffffffffffffffffffffffffffffffffffffffff1614155b15611147576040517fe07c8dba00000000000000000000000000000000000000000000000000000000815260040160405180910390fd5b565b611151610f7c565b50565b8173ffffffffffffffffffffffffffffffffffffffff166352d1902d6040518163ffffffff1660e01b8152600401602060405180830381865afa9250505080156111bc57506040513d601f19601f820116820180604052508101906111b99190612242565b60015b6111fd57816040517f4c9c8ce30000000000000000000000000000000000000000000000000000000081526004016111f49190611c05565b60405180910390fd5b7f360894a13ba1a3210667c828492db98dca3e2076cc3735a920a3ca505d382bbc5f1b811461126357806040517faa1d49a400000000000000000000000000000000000000000000000000000000815260040161125a9190611d57565b60405180910390fd5b61126d83836116a8565b505050565b7f000000000000000000000000000000000000000000000000000000000000000073ffffffffffffffffffffffffffffffffffffffff163073ffffffffffffffffffffffffffffffffffffffff16146112f7576040517fe07c8dba00000000000000000000000000000000000000000000000000000000815260040160405180910390fd5b565b5f61130261142b565b90505f815f015f9054906101000a900473ffffffffffffffffffffffffffffffffffffffff16905082825f015f6101000a81548173ffffffffffffffffffffffffffffffffffffffff021916908373ffffffffffffffffffffffffffffffffffffffff1602179055508273ffffffffffffffffffffffffffffffffffffffff168173ffffffffffffffffffffffffffffffffffffffff167f8be0079c531659141344cd1fd0a4f28419497f9722a3daafe3b4186f6b6457e060405160405180910390a3505050565b6113d261171a565b60015f5f6101000a81548160ff0219169083151502179055507f62e78cea01bee320cd4e420270b5ea74000d11b0c9f74754ebdbfc544b05a258611414610e7d565b6040516114219190611c05565b60405180910390a1565b5f7f9016d09d72d40fdae2fd8ceac6b6234c7706214fd39c1cd1e609a0528c199300905090565b5f33905060645f8273ffffffffffffffffffffffffffffffffffffffff1673ffffffffffffffffffffffffffffffffffffffff1681526020019081526020015f206001015f9054906101000a900460ff166114e2576040517f08c379a00000000000000000000000000000000000000000000000000000000081526004016114d9906122dd565b60405180910390fd5b4260645f8373ffffffffffffffffffffffffffffffffffffffff1673ffffffffffffffffffffffffffffffffffffffff1681526020019081526020015f2060010160016101000a8154816fffffffffffffffffffffffffffffffff02191690836fffffffffffffffffffffffffffffffff16021790555050565b5f5f611566611764565b90508091505090565b61157761178d565b611580816117cd565b50565b61158b61178d565b565b61159561178d565b61159d611851565b565b6115a761178d565b6115af611873565b565b6115b961178d565b565b6115c582826108d9565b6116085780826040517fe2517d3f0000000000000000000000000000000000000000000000000000000081526004016115ff9291906122fb565b60405180910390fd5b5050565b611614610844565b611653576040517f08c379a000000000000000000000000000000000000000000000000000000000815260040161164a9061236c565b60405180910390fd5b565b5f6116817f360894a13ba1a3210667c828492db98dca3e2076cc3735a920a3ca505d382bbc5f1b611885565b5f015f9054906101000a900473ffffffffffffffffffffffffffffffffffffffff16905090565b6116b18261188e565b8173ffffffffffffffffffffffffffffffffffffffff167fbc7cd75a20ee27fd9adebab32041f755214dbc6bffa90cc0225b39da2e5c2d3b60405160405180910390a25f8151111561170d576117078282611957565b50611716565b6117156119d7565b5b5050565b611722610844565b15611762576040517f08c379a0000000000000000000000000000000000000000000000000000000008152600401611759906123d4565b60405180910390fd5b565b5f7ff0c57e16840df040f15088dc2f81fe391c3923bec73e23a9662efc9c229c6a005f1b905090565b611795611a13565b6117cb576040517fd7e6bcf800000000000000000000000000000000000000000000000000000000815260040160405180910390fd5b565b6117d561178d565b5f73ffffffffffffffffffffffffffffffffffffffff168173ffffffffffffffffffffffffffffffffffffffff1603611845575f6040517f1e4fbdf700000000000000000000000000000000000000000000000000000000815260040161183c9190611c05565b60405180910390fd5b61184e816112f9565b50565b61185961178d565b5f5f5f6101000a81548160ff021916908315150217905550565b61187b61178d565b6001603281905550565b5f819050919050565b5f8173ffffffffffffffffffffffffffffffffffffffff163b036118e957806040517f4c9c8ce30000000000000000000000000000000000000000000000000000000081526004016118e09190611c05565b60405180910390fd5b806119157f360894a13ba1a3210667c828492db98dca3e2076cc3735a920a3ca505d382bbc5f1b611885565b5f015f6101000a81548173ffffffffffffffffffffffffffffffffffffffff021916908373ffffffffffffffffffffffffffffffffffffffff16021790555050565b60605f5f8473ffffffffffffffffffffffffffffffffffffffff16846040516119809190612436565b5f60405180830381855af49150503d805f81146119b8576040519150601f19603f3d011682016040523d82523d5f602084013e6119bd565b606091505b50915091506119cd858383611a31565b9250505092915050565b5f341115611a11576040517fb398979f00000000000000000000000000000000000000000000000000000000815260040160405180910390fd5b565b5f611a1c61155c565b5f0160089054906101000a900460ff16905090565b606082611a4657611a4182611abe565b611ab6565b5f8251148015611a6c57505f8473ffffffffffffffffffffffffffffffffffffffff163b145b15611aae57836040517f9996b315000000000000000000000000000000000000000000000000000000008152600401611aa59190611c05565b60405180910390fd5b819050611ab7565b5b9392505050565b5f81511115611ad05780518082602001fd5b6040517fd6bda27500000000000000000000000000000000000000000000000000000000815260040160405180910390fd5b5f604051905090565b5f5ffd5b5f5ffd5b5f7fffffffff0000000000000000000000000000000000000000000000000000000082169050919050565b611b4781611b13565b8114611b51575f5ffd5b50565b5f81359050611b6281611b3e565b92915050565b5f60208284031215611b7d57611b7c611b0b565b5b5f611b8a84828501611b54565b91505092915050565b5f8115159050919050565b611ba781611b93565b82525050565b5f602082019050611bc05f830184611b9e565b92915050565b5f73ffffffffffffffffffffffffffffffffffffffff82169050919050565b5f611bef82611bc6565b9050919050565b611bff81611be5565b82525050565b5f602082019050611c185f830184611bf6565b92915050565b611c2781611be5565b8114611c31575f5ffd5b50565b5f81359050611c4281611c1e565b92915050565b5f60208284031215611c5d57611c5c611b0b565b5b5f611c6a84828501611c34565b91505092915050565b5f6fffffffffffffffffffffffffffffffff82169050919050565b611c9781611c73565b82525050565b5f819050919050565b611caf81611c9d565b82525050565b5f606082019050611cc85f830186611b9e565b611cd56020830185611c8e565b611ce26040830184611ca6565b949350505050565b5f819050919050565b611cfc81611cea565b8114611d06575f5ffd5b50565b5f81359050611d1781611cf3565b92915050565b5f60208284031215611d3257611d31611b0b565b5b5f611d3f84828501611d09565b91505092915050565b611d5181611cea565b82525050565b5f602082019050611d6a5f830184611d48565b92915050565b5f5f60408385031215611d8657611d85611b0b565b5b5f611d9385828601611d09565b9250506020611da485828601611c34565b9150509250929050565b5f5ffd5b5f5ffd5b5f601f19601f8301169050919050565b7f4e487b71000000000000000000000000000000000000000000000000000000005f52604160045260245ffd5b611dfc82611db6565b810181811067ffffffffffffffff82111715611e1b57611e1a611dc6565b5b80604052505050565b5f611e2d611b02565b9050611e398282611df3565b919050565b5f67ffffffffffffffff821115611e5857611e57611dc6565b5b611e6182611db6565b9050602081019050919050565b828183375f83830152505050565b5f611e8e611e8984611e3e565b611e24565b905082815260208101848484011115611eaa57611ea9611db2565b5b611eb5848285611e6e565b509392505050565b5f82601f830112611ed157611ed0611dae565b5b8135611ee1848260208601611e7c565b91505092915050565b5f5f60408385031215611f0057611eff611b0b565b5b5f611f0d85828601611c34565b925050602083013567ffffffffffffffff811115611f2e57611f2d611b0f565b5b611f3a85828601611ebd565b9150509250929050565b611f4d81611c9d565b8114611f57575f5ffd5b50565b5f81359050611f6881611f44565b92915050565b5f5f60408385031215611f8457611f83611b0b565b5b5f611f9185828601611c34565b9250506020611fa285828601611f5a565b9150509250929050565b5f81519050919050565b5f82825260208201905092915050565b8281835e5f83830152505050565b5f611fde82611fac565b611fe88185611fb6565b9350611ff8818560208601611fc6565b61200181611db6565b840191505092915050565b5f6020820190508181035f8301526120248184611fd4565b905092915050565b5f5ffd5b5f5ffd5b5f5f83601f84011261204957612048611dae565b5b8235905067ffffffffffffffff8111156120665761206561202c565b5b60208301915083602082028301111561208257612081612030565b5b9250929050565b5f5f83601f84011261209e5761209d611dae565b5b8235905067ffffffffffffffff8111156120bb576120ba61202c565b5b6020830191508360208202830111156120d7576120d6612030565b5b9250929050565b5f5f5f5f604085870312156120f6576120f5611b0b565b5b5f85013567ffffffffffffffff81111561211357612112611b0f565b5b61211f87828801612034565b9450945050602085013567ffffffffffffffff81111561214257612141611b0f565b5b61214e87828801612089565b925092505092959194509250565b5f5f5f5f6080858703121561217457612173611b0b565b5b5f61218187828801611c34565b945050602061219287828801611c34565b93505060406121a387828801611c34565b92505060606121b487828801611c34565b91505092959194509250565b5f819050919050565b5f67ffffffffffffffff82169050919050565b5f819050919050565b5f6121ff6121fa6121f5846121c0565b6121dc565b6121c9565b9050919050565b61220f816121e5565b82525050565b5f6020820190506122285f830184612206565b92915050565b5f8151905061223c81611cf3565b92915050565b5f6020828403121561225757612256611b0b565b5b5f6122648482850161222e565b91505092915050565b7f566f6365206e616f20706f73737569206e656e68756d2074657374616d656e745f8201527f6f2063726961646f000000000000000000000000000000000000000000000000602082015250565b5f6122c7602883611fb6565b91506122d28261226d565b604082019050919050565b5f6020820190508181035f8301526122f4816122bb565b9050919050565b5f60408201905061230e5f830185611bf6565b61231b6020830184611d48565b9392505050565b7f5061757361626c653a206e6f74207061757365640000000000000000000000005f82015250565b5f612356601483611fb6565b915061236182612322565b602082019050919050565b5f6020820190508181035f8301526123838161234a565b9050919050565b7f5061757361626c653a20706175736564000000000000000000000000000000005f82015250565b5f6123be601083611fb6565b91506123c98261238a565b602082019050919050565b5f6020820190508181035f8301526123eb816123b2565b9050919050565b5f81519050919050565b5f81905092915050565b5f612410826123f2565b61241a81856123fc565b935061242a818560208601611fc6565b80840191505092915050565b5f6124418284612406565b91508190509291505056fea264697066735822122021fec5346ea75b797049cc746c77b7a837a40b4c274cfd73eb64af32ca2ca7e264736f6c634300081d0033",
					"opcodes": "PUSH1 0xA0 PUSH1 0x40 MSTORE ADDRESS PUSH20 0xFFFFFFFFFFFFFFFFFFFFFFFFFFFFFFFFFFFFFFFF AND PUSH1 0x80 SWAP1 PUSH20 0xFFFFFFFFFFFFFFFFFFFFFFFFFFFFFFFFFFFFFFFF AND DUP2 MSTORE POP CALLVALUE DUP1 ISZERO PUSH1 0x41 JUMPI PUSH0 PUSH0 REVERT JUMPDEST POP PUSH1 0x80 MLOAD PUSH2 0x2482 PUSH2 0x68 PUSH0 CODECOPY PUSH0 DUP2 DUP2 PUSH2 0x1065 ADD MSTORE DUP2 DUP2 PUSH2 0x10BA ADD MSTORE PUSH2 0x1274 ADD MSTORE PUSH2 0x2482 PUSH0 RETURN INVALID PUSH1 0x80 PUSH1 0x40 MSTORE PUSH1 0x4 CALLDATASIZE LT PUSH2 0x180 JUMPI PUSH0 CALLDATALOAD PUSH1 0xE0 SHR DUP1 PUSH4 0x5C975ABB GT PUSH2 0xD0 JUMPI DUP1 PUSH4 0x91D14854 GT PUSH2 0x89 JUMPI DUP1 PUSH4 0xD547741F GT PUSH2 0x63 JUMPI DUP1 PUSH4 0xD547741F EQ PUSH2 0x506 JUMPI DUP1 PUSH4 0xE7A84BC3 EQ PUSH2 0x52E JUMPI DUP1 PUSH4 0xF2FDE38B EQ PUSH2 0x54A JUMPI DUP1 PUSH4 0xF8C8765E EQ PUSH2 0x572 JUMPI PUSH2 0x180 JUMP JUMPDEST DUP1 PUSH4 0x91D14854 EQ PUSH2 0x476 JUMPI DUP1 PUSH4 0xA217FDDF EQ PUSH2 0x4B2 JUMPI DUP1 PUSH4 0xAD3CB1CC EQ PUSH2 0x4DC JUMPI PUSH2 0x180 JUMP JUMPDEST DUP1 PUSH4 0x5C975ABB EQ PUSH2 0x3B6 JUMPI DUP1 PUSH4 0x67892597 EQ PUSH2 0x3E0 JUMPI DUP1 PUSH4 0x715018A6 EQ PUSH2 0x3F6 JUMPI DUP1 PUSH4 0x82FE535A EQ PUSH2 0x40C JUMPI DUP1 PUSH4 0x8456CB59 EQ PUSH2 0x436 JUMPI DUP1 PUSH4 0x8DA5CB5B EQ PUSH2 0x44C JUMPI PUSH2 0x180 JUMP JUMPDEST DUP1 PUSH4 0x2F2FF15D GT PUSH2 0x13D JUMPI DUP1 PUSH4 0x4F1EF286 GT PUSH2 0x117 JUMPI DUP1 PUSH4 0x4F1EF286 EQ PUSH2 0x30A JUMPI DUP1 PUSH4 0x52D1902D EQ PUSH2 0x326 JUMPI DUP1 PUSH4 0x578DCF6D EQ PUSH2 0x350 JUMPI DUP1 PUSH4 0x5B084DB9 EQ PUSH2 0x37A JUMPI PUSH2 0x180 JUMP JUMPDEST DUP1 PUSH4 0x2F2FF15D EQ PUSH2 0x2A4 JUMPI DUP1 PUSH4 0x36568ABE EQ PUSH2 0x2CC JUMPI DUP1 PUSH4 0x3F4BA83A EQ PUSH2 0x2F4 JUMPI PUSH2 0x180 JUMP JUMPDEST DUP1 PUSH4 0x1FFC9A7 EQ PUSH2 0x184 JUMPI DUP1 PUSH4 0x11CE0267 EQ PUSH2 0x1C0 JUMPI DUP1 PUSH4 0x1ABA6DA6 EQ PUSH2 0x1EA JUMPI DUP1 PUSH4 0x1ACB49B4 EQ PUSH2 0x200 JUMPI DUP1 PUSH4 0x20888D1E EQ PUSH2 0x23E JUMPI DUP1 PUSH4 0x248A9CA3 EQ PUSH2 0x268 JUMPI JUMPDEST PUSH0 PUSH0 REVERT JUMPDEST CALLVALUE DUP1 ISZERO PUSH2 0x18F JUMPI PUSH0 PUSH0 REVERT JUMPDEST POP PUSH2 0x1AA PUSH1 0x4 DUP1 CALLDATASIZE SUB DUP2 ADD SWAP1 PUSH2 0x1A5 SWAP2 SWAP1 PUSH2 0x1B68 JUMP JUMPDEST PUSH2 0x59A JUMP JUMPDEST PUSH1 0x40 MLOAD PUSH2 0x1B7 SWAP2 SWAP1 PUSH2 0x1BAD JUMP JUMPDEST PUSH1 0x40 MLOAD DUP1 SWAP2 SUB SWAP1 RETURN JUMPDEST CALLVALUE DUP1 ISZERO PUSH2 0x1CB JUMPI PUSH0 PUSH0 REVERT JUMPDEST POP PUSH2 0x1D4 PUSH2 0x613 JUMP JUMPDEST PUSH1 0x40 MLOAD PUSH2 0x1E1 SWAP2 SWAP1 PUSH2 0x1C05 JUMP JUMPDEST PUSH1 0x40 MLOAD DUP1 SWAP2 SUB SWAP1 RETURN JUMPDEST CALLVALUE DUP1 ISZERO PUSH2 0x1F5 JUMPI PUSH0 PUSH0 REVERT JUMPDEST POP PUSH2 0x1FE PUSH2 0x638 JUMP JUMPDEST STOP JUMPDEST CALLVALUE DUP1 ISZERO PUSH2 0x20B JUMPI PUSH0 PUSH0 REVERT JUMPDEST POP PUSH2 0x226 PUSH1 0x4 DUP1 CALLDATASIZE SUB DUP2 ADD SWAP1 PUSH2 0x221 SWAP2 SWAP1 PUSH2 0x1C48 JUMP JUMPDEST PUSH2 0x63A JUMP JUMPDEST PUSH1 0x40 MLOAD PUSH2 0x235 SWAP4 SWAP3 SWAP2 SWAP1 PUSH2 0x1CB5 JUMP JUMPDEST PUSH1 0x40 MLOAD DUP1 SWAP2 SUB SWAP1 RETURN JUMPDEST CALLVALUE DUP1 ISZERO PUSH2 0x249 JUMPI PUSH0 PUSH0 REVERT JUMPDEST POP PUSH2 0x252 PUSH2 0x689 JUMP JUMPDEST PUSH1 0x40 MLOAD PUSH2 0x25F SWAP2 SWAP1 PUSH2 0x1C05 JUMP JUMPDEST PUSH1 0x40 MLOAD DUP1 SWAP2 SUB SWAP1 RETURN JUMPDEST CALLVALUE DUP1 ISZERO PUSH2 0x273 JUMPI PUSH0 PUSH0 REVERT JUMPDEST POP PUSH2 0x28E PUSH1 0x4 DUP1 CALLDATASIZE SUB DUP2 ADD SWAP1 PUSH2 0x289 SWAP2 SWAP1 PUSH2 0x1D1D JUMP JUMPDEST PUSH2 0x6AE JUMP JUMPDEST PUSH1 0x40 MLOAD PUSH2 0x29B SWAP2 SWAP1 PUSH2 0x1D57 JUMP JUMPDEST PUSH1 0x40 MLOAD DUP1 SWAP2 SUB SWAP1 RETURN JUMPDEST CALLVALUE DUP1 ISZERO PUSH2 0x2AF JUMPI PUSH0 PUSH0 REVERT JUMPDEST POP PUSH2 0x2CA PUSH1 0x4 DUP1 CALLDATASIZE SUB DUP2 ADD SWAP1 PUSH2 0x2C5 SWAP2 SWAP1 PUSH2 0x1D70 JUMP JUMPDEST PUSH2 0x6D8 JUMP JUMPDEST STOP JUMPDEST CALLVALUE DUP1 ISZERO PUSH2 0x2D7 JUMPI PUSH0 PUSH0 REVERT JUMPDEST POP PUSH2 0x2F2 PUSH1 0x4 DUP1 CALLDATASIZE SUB DUP2 ADD SWAP1 PUSH2 0x2ED SWAP2 SWAP1 PUSH2 0x1D70 JUMP JUMPDEST PUSH2 0x6FA JUMP JUMPDEST STOP JUMPDEST CALLVALUE DUP1 ISZERO PUSH2 0x2FF JUMPI PUSH0 PUSH0 REVERT JUMPDEST POP PUSH2 0x308 PUSH2 0x775 JUMP JUMPDEST STOP JUMPDEST PUSH2 0x324 PUSH1 0x4 DUP1 CALLDATASIZE SUB DUP2 ADD SWAP1 PUSH2 0x31F SWAP2 SWAP1 PUSH2 0x1EEA JUMP JUMPDEST PUSH2 0x787 JUMP JUMPDEST STOP JUMPDEST CALLVALUE DUP1 ISZERO PUSH2 0x331 JUMPI PUSH0 PUSH0 REVERT JUMPDEST POP PUSH2 0x33A PUSH2 0x7A6 JUMP JUMPDEST PUSH1 0x40 MLOAD PUSH2 0x347 SWAP2 SWAP1 PUSH2 0x1D57 JUMP JUMPDEST PUSH1 0x40 MLOAD DUP1 SWAP2 SUB SWAP1 RETURN JUMPDEST CALLVALUE DUP1 ISZERO PUSH2 0x35B JUMPI PUSH0 PUSH0 REVERT JUMPDEST POP PUSH2 0x364 PUSH2 0x7D7 JUMP JUMPDEST PUSH1 0x40 MLOAD PUSH2 0x371 SWAP2 SWAP1 PUSH2 0x1C05 JUMP JUMPDEST PUSH1 0x40 MLOAD DUP1 SWAP2 SUB SWAP1 RETURN JUMPDEST CALLVALUE DUP1 ISZERO PUSH2 0x385 JUMPI PUSH0 PUSH0 REVERT JUMPDEST POP PUSH2 0x3A0 PUSH1 0x4 DUP1 CALLDATASIZE SUB DUP2 ADD SWAP1 PUSH2 0x39B SWAP2 SWAP1 PUSH2 0x1F6E JUMP JUMPDEST PUSH2 0x7FC JUMP JUMPDEST PUSH1 0x40 MLOAD PUSH2 0x3AD SWAP2 SWAP1 PUSH2 0x1C05 JUMP JUMPDEST PUSH1 0x40 MLOAD DUP1 SWAP2 SUB SWAP1 RETURN JUMPDEST CALLVALUE DUP1 ISZERO PUSH2 0x3C1 JUMPI PUSH0 PUSH0 REVERT JUMPDEST POP PUSH2 0x3CA PUSH2 0x844 JUMP JUMPDEST PUSH1 0x40 MLOAD PUSH2 0x3D7 SWAP2 SWAP1 PUSH2 0x1BAD JUMP JUMPDEST PUSH1 0x40 MLOAD DUP1 SWAP2 SUB SWAP1 RETURN JUMPDEST CALLVALUE DUP1 ISZERO PUSH2 0x3EB JUMPI PUSH0 PUSH0 REVERT JUMPDEST POP PUSH2 0x3F4 PUSH2 0x858 JUMP JUMPDEST STOP JUMPDEST CALLVALUE DUP1 ISZERO PUSH2 0x401 JUMPI PUSH0 PUSH0 REVERT JUMPDEST POP PUSH2 0x40A PUSH2 0x85A JUMP JUMPDEST STOP JUMPDEST CALLVALUE DUP1 ISZERO PUSH2 0x417 JUMPI PUSH0 PUSH0 REVERT JUMPDEST POP PUSH2 0x420 PUSH2 0x86D JUMP JUMPDEST PUSH1 0x40 MLOAD PUSH2 0x42D SWAP2 SWAP1 PUSH2 0x1C05 JUMP JUMPDEST PUSH1 0x40 MLOAD DUP1 SWAP2 SUB SWAP1 RETURN JUMPDEST CALLVALUE DUP1 ISZERO PUSH2 0x441 JUMPI PUSH0 PUSH0 REVERT JUMPDEST POP PUSH2 0x44A PUSH2 0x892 JUMP JUMPDEST STOP JUMPDEST CALLVALUE DUP1 ISZERO PUSH2 0x457 JUMPI PUSH0 PUSH0 REVERT JUMPDEST POP PUSH2 0x460 PUSH2 0x8A4 JUMP JUMPDEST PUSH1 0x40 MLOAD PUSH2 0x46D SWAP2 SWAP1 PUSH2 0x1C05 JUMP JUMPDEST PUSH1 0x40 MLOAD DUP1 SWAP2 SUB SWAP1 RETURN JUMPDEST CALLVALUE DUP1 ISZERO PUSH2 0x481 JUMPI PUSH0 PUSH0 REVERT JUMPDEST POP PUSH2 0x49C PUSH1 0x4 DUP1 CALLDATASIZE SUB DUP2 ADD SWAP1 PUSH2 0x497 SWAP2 SWAP1 PUSH2 0x1D70 JUMP JUMPDEST PUSH2 0x8D9 JUMP JUMPDEST PUSH1 0x40 MLOAD PUSH2 0x4A9 SWAP2 SWAP1 PUSH2 0x1BAD JUMP JUMPDEST PUSH1 0x40 MLOAD DUP1 SWAP2 SUB SWAP1 RETURN JUMPDEST CALLVALUE DUP1 ISZERO PUSH2 0x4BD JUMPI PUSH0 PUSH0 REVERT JUMPDEST POP PUSH2 0x4C6 PUSH2 0x94A JUMP JUMPDEST PUSH1 0x40 MLOAD PUSH2 0x4D3 SWAP2 SWAP1 PUSH2 0x1D57 JUMP JUMPDEST PUSH1 0x40 MLOAD DUP1 SWAP2 SUB SWAP1 RETURN JUMPDEST CALLVALUE DUP1 ISZERO PUSH2 0x4E7 JUMPI PUSH0 PUSH0 REVERT JUMPDEST POP PUSH2 0x4F0 PUSH2 0x950 JUMP JUMPDEST PUSH1 0x40 MLOAD PUSH2 0x4FD SWAP2 SWAP1 PUSH2 0x200C JUMP JUMPDEST PUSH1 0x40 MLOAD DUP1 SWAP2 SUB SWAP1 RETURN JUMPDEST CALLVALUE DUP1 ISZERO PUSH2 0x511 JUMPI PUSH0 PUSH0 REVERT JUMPDEST POP PUSH2 0x52C PUSH1 0x4 DUP1 CALLDATASIZE SUB DUP2 ADD SWAP1 PUSH2 0x527 SWAP2 SWAP1 PUSH2 0x1D70 JUMP JUMPDEST PUSH2 0x989 JUMP JUMPDEST STOP JUMPDEST PUSH2 0x548 PUSH1 0x4 DUP1 CALLDATASIZE SUB DUP2 ADD SWAP1 PUSH2 0x543 SWAP2 SWAP1 PUSH2 0x20DE JUMP JUMPDEST PUSH2 0x9AB JUMP JUMPDEST STOP JUMPDEST CALLVALUE DUP1 ISZERO PUSH2 0x555 JUMPI PUSH0 PUSH0 REVERT JUMPDEST POP PUSH2 0x570 PUSH1 0x4 DUP1 CALLDATASIZE SUB DUP2 ADD SWAP1 PUSH2 0x56B SWAP2 SWAP1 PUSH2 0x1C48 JUMP JUMPDEST PUSH2 0x9B9 JUMP JUMPDEST STOP JUMPDEST CALLVALUE DUP1 ISZERO PUSH2 0x57D JUMPI PUSH0 PUSH0 REVERT JUMPDEST POP PUSH2 0x598 PUSH1 0x4 DUP1 CALLDATASIZE SUB DUP2 ADD SWAP1 PUSH2 0x593 SWAP2 SWAP1 PUSH2 0x215C JUMP JUMPDEST PUSH2 0xA3D JUMP JUMPDEST STOP JUMPDEST PUSH0 PUSH32 0x7965DB0B00000000000000000000000000000000000000000000000000000000 PUSH28 0xFFFFFFFFFFFFFFFFFFFFFFFFFFFFFFFFFFFFFFFFFFFFFFFFFFFFFFFF NOT AND DUP3 PUSH28 0xFFFFFFFFFFFFFFFFFFFFFFFFFFFFFFFFFFFFFFFFFFFFFFFFFFFFFFFF NOT AND EQ DUP1 PUSH2 0x60C JUMPI POP PUSH2 0x60B DUP3 PUSH2 0xCE1 JUMP JUMPDEST JUMPDEST SWAP1 POP SWAP2 SWAP1 POP JUMP JUMPDEST PUSH1 0x66 PUSH0 SWAP1 SLOAD SWAP1 PUSH2 0x100 EXP SWAP1 DIV PUSH20 0xFFFFFFFFFFFFFFFFFFFFFFFFFFFFFFFFFFFFFFFF AND DUP2 JUMP JUMPDEST JUMP JUMPDEST PUSH1 0x64 PUSH1 0x20 MSTORE DUP1 PUSH0 MSTORE PUSH1 0x40 PUSH0 KECCAK256 PUSH0 SWAP2 POP SWAP1 POP DUP1 PUSH1 0x1 ADD PUSH0 SWAP1 SLOAD SWAP1 PUSH2 0x100 EXP SWAP1 DIV PUSH1 0xFF AND SWAP1 DUP1 PUSH1 0x1 ADD PUSH1 0x1 SWAP1 SLOAD SWAP1 PUSH2 0x100 EXP SWAP1 DIV PUSH16 0xFFFFFFFFFFFFFFFFFFFFFFFFFFFFFFFF AND SWAP1 DUP1 PUSH1 0x2 ADD SLOAD SWAP1 POP DUP4 JUMP JUMPDEST PUSH1 0x69 PUSH0 SWAP1 SLOAD SWAP1 PUSH2 0x100 EXP SWAP1 DIV PUSH20 0xFFFFFFFFFFFFFFFFFFFFFFFFFFFFFFFFFFFFFFFF AND DUP2 JUMP JUMPDEST PUSH0 PUSH0 PUSH2 0x6B8 PUSH2 0xD4A JUMP JUMPDEST SWAP1 POP DUP1 PUSH0 ADD PUSH0 DUP5 DUP2 MSTORE PUSH1 0x20 ADD SWAP1 DUP2 MSTORE PUSH1 0x20 ADD PUSH0 KECCAK256 PUSH1 0x1 ADD SLOAD SWAP2 POP POP SWAP2 SWAP1 POP JUMP JUMPDEST PUSH2 0x6E1 DUP3 PUSH2 0x6AE JUMP JUMPDEST PUSH2 0x6EA DUP2 PUSH2 0xD71 JUMP JUMPDEST PUSH2 0x6F4 DUP4 DUP4 PUSH2 0xD85 JUMP JUMPDEST POP POP POP POP JUMP JUMPDEST PUSH2 0x702 PUSH2 0xE7D JUMP JUMPDEST PUSH20 0xFFFFFFFFFFFFFFFFFFFFFFFFFFFFFFFFFFFFFFFF AND DUP2 PUSH20 0xFFFFFFFFFFFFFFFFFFFFFFFFFFFFFFFFFFFFFFFF AND EQ PUSH2 0x766 JUMPI PUSH1 0x40 MLOAD PUSH32 0x6697B23200000000000000000000000000000000000000000000000000000000 DUP2 MSTORE PUSH1 0x4 ADD PUSH1 0x40 MLOAD DUP1 SWAP2 SUB SWAP1 REVERT JUMPDEST PUSH2 0x770 DUP3 DUP3 PUSH2 0xE84 JUMP JUMPDEST POP POP POP JUMP JUMPDEST PUSH2 0x77D PUSH2 0xF7C JUMP JUMPDEST PUSH2 0x785 PUSH2 0x1003 JUMP JUMPDEST JUMP JUMPDEST PUSH2 0x78F PUSH2 0x1063 JUMP JUMPDEST PUSH2 0x798 DUP3 PUSH2 0x1149 JUMP JUMPDEST PUSH2 0x7A2 DUP3 DUP3 PUSH2 0x1154 JUMP JUMPDEST POP POP JUMP JUMPDEST PUSH0 PUSH2 0x7AF PUSH2 0x1272 JUMP JUMPDEST PUSH32 0x360894A13BA1A3210667C828492DB98DCA3E2076CC3735A920A3CA505D382BBC PUSH0 SHL SWAP1 POP SWAP1 JUMP JUMPDEST PUSH1 0x67 PUSH0 SWAP1 SLOAD SWAP1 PUSH2 0x100 EXP SWAP1 DIV PUSH20 0xFFFFFFFFFFFFFFFFFFFFFFFFFFFFFFFFFFFFFFFF AND DUP2 JUMP JUMPDEST PUSH1 0x65 PUSH1 0x20 MSTORE DUP2 PUSH0 MSTORE PUSH1 0x40 PUSH0 KECCAK256 DUP2 DUP2 SLOAD DUP2 LT PUSH2 0x815 JUMPI PUSH0 DUP1 REVERT JUMPDEST SWAP1 PUSH0 MSTORE PUSH1 0x20 PUSH0 KECCAK256 ADD PUSH0 SWAP2 POP SWAP2 POP SWAP1 SLOAD SWAP1 PUSH2 0x100 EXP SWAP1 DIV PUSH20 0xFFFFFFFFFFFFFFFFFFFFFFFFFFFFFFFFFFFFFFFF AND DUP2 JUMP JUMPDEST PUSH0 PUSH0 PUSH0 SWAP1 SLOAD SWAP1 PUSH2 0x100 EXP SWAP1 DIV PUSH1 0xFF AND SWAP1 POP SWAP1 JUMP JUMPDEST JUMP JUMPDEST PUSH2 0x862 PUSH2 0xF7C JUMP JUMPDEST PUSH2 0x86B PUSH0 PUSH2 0x12F9 JUMP JUMPDEST JUMP JUMPDEST PUSH1 0x68 PUSH0 SWAP1 SLOAD SWAP1 PUSH2 0x100 EXP SWAP1 DIV PUSH20 0xFFFFFFFFFFFFFFFFFFFFFFFFFFFFFFFFFFFFFFFF AND DUP2 JUMP JUMPDEST PUSH2 0x89A PUSH2 0xF7C JUMP JUMPDEST PUSH2 0x8A2 PUSH2 0x13CA JUMP JUMPDEST JUMP JUMPDEST PUSH0 PUSH0 PUSH2 0x8AE PUSH2 0x142B JUMP JUMPDEST SWAP1 POP DUP1 PUSH0 ADD PUSH0 SWAP1 SLOAD SWAP1 PUSH2 0x100 EXP SWAP1 DIV PUSH20 0xFFFFFFFFFFFFFFFFFFFFFFFFFFFFFFFFFFFFFFFF AND SWAP2 POP POP SWAP1 JUMP JUMPDEST PUSH0 PUSH0 PUSH2 0x8E3 PUSH2 0xD4A JUMP JUMPDEST SWAP1 POP DUP1 PUSH0 ADD PUSH0 DUP6 DUP2 MSTORE PUSH1 0x20 ADD SWAP1 DUP2 MSTORE PUSH1 0x20 ADD PUSH0 KECCAK256 PUSH0 ADD PUSH0 DUP5 PUSH20 0xFFFFFFFFFFFFFFFFFFFFFFFFFFFFFFFFFFFFFFFF AND PUSH20 0xFFFFFFFFFFFFFFFFFFFFFFFFFFFFFFFFFFFFFFFF AND DUP2 MSTORE PUSH1 0x20 ADD SWAP1 DUP2 MSTORE PUSH1 0x20 ADD PUSH0 KECCAK256 PUSH0 SWAP1 SLOAD SWAP1 PUSH2 0x100 EXP SWAP1 DIV PUSH1 0xFF AND SWAP2 POP POP SWAP3 SWAP2 POP POP JUMP JUMPDEST PUSH0 PUSH0 SHL DUP2 JUMP JUMPDEST PUSH1 0x40 MLOAD DUP1 PUSH1 0x40 ADD PUSH1 0x40 MSTORE DUP1 PUSH1 0x5 DUP2 MSTORE PUSH1 0x20 ADD PUSH32 0x352E302E30000000000000000000000000000000000000000000000000000000 DUP2 MSTORE POP DUP2 JUMP JUMPDEST PUSH2 0x992 DUP3 PUSH2 0x6AE JUMP JUMPDEST PUSH2 0x99B DUP2 PUSH2 0xD71 JUMP JUMPDEST PUSH2 0x9A5 DUP4 DUP4 PUSH2 0xE84 JUMP JUMPDEST POP POP POP POP JUMP JUMPDEST PUSH2 0x9B3 PUSH2 0x1452 JUMP JUMPDEST POP POP POP POP JUMP JUMPDEST PUSH2 0x9C1 PUSH2 0xF7C JUMP JUMPDEST PUSH0 PUSH20 0xFFFFFFFFFFFFFFFFFFFFFFFFFFFFFFFFFFFFFFFF AND DUP2 PUSH20 0xFFFFFFFFFFFFFFFFFFFFFFFFFFFFFFFFFFFFFFFF AND SUB PUSH2 0xA31 JUMPI PUSH0 PUSH1 0x40 MLOAD PUSH32 0x1E4FBDF700000000000000000000000000000000000000000000000000000000 DUP2 MSTORE PUSH1 0x4 ADD PUSH2 0xA28 SWAP2 SWAP1 PUSH2 0x1C05 JUMP JUMPDEST PUSH1 0x40 MLOAD DUP1 SWAP2 SUB SWAP1 REVERT JUMPDEST PUSH2 0xA3A DUP2 PUSH2 0x12F9 JUMP JUMPDEST POP JUMP JUMPDEST PUSH0 PUSH2 0xA46 PUSH2 0x155C JUMP JUMPDEST SWAP1 POP PUSH0 DUP2 PUSH0 ADD PUSH1 0x8 SWAP1 SLOAD SWAP1 PUSH2 0x100 EXP SWAP1 DIV PUSH1 0xFF AND ISZERO SWAP1 POP PUSH0 DUP3 PUSH0 ADD PUSH0 SWAP1 SLOAD SWAP1 PUSH2 0x100 EXP SWAP1 DIV PUSH8 0xFFFFFFFFFFFFFFFF AND SWAP1 POP PUSH0 PUSH0 DUP3 PUSH8 0xFFFFFFFFFFFFFFFF AND EQ DUP1 ISZERO PUSH2 0xA8E JUMPI POP DUP3 JUMPDEST SWAP1 POP PUSH0 PUSH1 0x1 DUP4 PUSH8 0xFFFFFFFFFFFFFFFF AND EQ DUP1 ISZERO PUSH2 0xAC1 JUMPI POP PUSH0 ADDRESS PUSH20 0xFFFFFFFFFFFFFFFFFFFFFFFFFFFFFFFFFFFFFFFF AND EXTCODESIZE EQ JUMPDEST SWAP1 POP DUP2 ISZERO DUP1 ISZERO PUSH2 0xACF JUMPI POP DUP1 ISZERO JUMPDEST ISZERO PUSH2 0xB06 JUMPI PUSH1 0x40 MLOAD PUSH32 0xF92EE8A900000000000000000000000000000000000000000000000000000000 DUP2 MSTORE PUSH1 0x4 ADD PUSH1 0x40 MLOAD DUP1 SWAP2 SUB SWAP1 REVERT JUMPDEST PUSH1 0x1 DUP6 PUSH0 ADD PUSH0 PUSH2 0x100 EXP DUP2 SLOAD DUP2 PUSH8 0xFFFFFFFFFFFFFFFF MUL NOT AND SWAP1 DUP4 PUSH8 0xFFFFFFFFFFFFFFFF AND MUL OR SWAP1 SSTORE POP DUP4 ISZERO PUSH2 0xB53 JUMPI PUSH1 0x1 DUP6 PUSH0 ADD PUSH1 0x8 PUSH2 0x100 EXP DUP2 SLOAD DUP2 PUSH1 0xFF MUL NOT AND SWAP1 DUP4 ISZERO ISZERO MUL OR SWAP1 SSTORE POP JUMPDEST PUSH2 0xB5C CALLER PUSH2 0x156F JUMP JUMPDEST PUSH2 0xB64 PUSH2 0x1583 JUMP JUMPDEST PUSH2 0xB6C PUSH2 0x158D JUMP JUMPDEST PUSH2 0xB74 PUSH2 0x159F JUMP JUMPDEST PUSH2 0xB7C PUSH2 0x15B1 JUMP JUMPDEST DUP9 PUSH1 0x66 PUSH0 PUSH2 0x100 EXP DUP2 SLOAD DUP2 PUSH20 0xFFFFFFFFFFFFFFFFFFFFFFFFFFFFFFFFFFFFFFFF MUL NOT AND SWAP1 DUP4 PUSH20 0xFFFFFFFFFFFFFFFFFFFFFFFFFFFFFFFFFFFFFFFF AND MUL OR SWAP1 SSTORE POP DUP8 PUSH1 0x67 PUSH0 PUSH2 0x100 EXP DUP2 SLOAD DUP2 PUSH20 0xFFFFFFFFFFFFFFFFFFFFFFFFFFFFFFFFFFFFFFFF MUL NOT AND SWAP1 DUP4 PUSH20 0xFFFFFFFFFFFFFFFFFFFFFFFFFFFFFFFFFFFFFFFF AND MUL OR SWAP1 SSTORE POP DUP7 PUSH1 0x68 PUSH0 PUSH2 0x100 EXP DUP2 SLOAD DUP2 PUSH20 0xFFFFFFFFFFFFFFFFFFFFFFFFFFFFFFFFFFFFFFFF MUL NOT AND SWAP1 DUP4 PUSH20 0xFFFFFFFFFFFFFFFFFFFFFFFFFFFFFFFFFFFFFFFF AND MUL OR SWAP1 SSTORE POP DUP6 PUSH1 0x69 PUSH0 PUSH2 0x100 EXP DUP2 SLOAD DUP2 PUSH20 0xFFFFFFFFFFFFFFFFFFFFFFFFFFFFFFFFFFFFFFFF MUL NOT AND SWAP1 DUP4 PUSH20 0xFFFFFFFFFFFFFFFFFFFFFFFFFFFFFFFFFFFFFFFF AND MUL OR SWAP1 SSTORE POP DUP4 ISZERO PUSH2 0xCD6 JUMPI PUSH0 DUP6 PUSH0 ADD PUSH1 0x8 PUSH2 0x100 EXP DUP2 SLOAD DUP2 PUSH1 0xFF MUL NOT AND SWAP1 DUP4 ISZERO ISZERO MUL OR SWAP1 SSTORE POP PUSH32 0xC7F505B2F371AE2175EE4913F4499E1F2633A7B5936321EED1CDAEB6115181D2 PUSH1 0x1 PUSH1 0x40 MLOAD PUSH2 0xCCD SWAP2 SWAP1 PUSH2 0x2215 JUMP JUMPDEST PUSH1 0x40 MLOAD DUP1 SWAP2 SUB SWAP1 LOG1 JUMPDEST POP POP POP POP POP POP POP POP POP JUMP JUMPDEST PUSH0 PUSH32 0x1FFC9A700000000000000000000000000000000000000000000000000000000 PUSH28 0xFFFFFFFFFFFFFFFFFFFFFFFFFFFFFFFFFFFFFFFFFFFFFFFFFFFFFFFF NOT AND DUP3 PUSH28 0xFFFFFFFFFFFFFFFFFFFFFFFFFFFFFFFFFFFFFFFFFFFFFFFFFFFFFFFF NOT AND EQ SWAP1 POP SWAP2 SWAP1 POP JUMP JUMPDEST PUSH0 PUSH32 0x2DD7BC7DEC4DCEEDDA775E58DD541E08A116C6C53815C0BD028192F7B626800 SWAP1 POP SWAP1 JUMP JUMPDEST PUSH2 0xD82 DUP2 PUSH2 0xD7D PUSH2 0xE7D JUMP JUMPDEST PUSH2 0x15BB JUMP JUMPDEST POP JUMP JUMPDEST PUSH0 PUSH0 PUSH2 0xD8F PUSH2 0xD4A JUMP JUMPDEST SWAP1 POP PUSH2 0xD9B DUP5 DUP5 PUSH2 0x8D9 JUMP JUMPDEST PUSH2 0xE72 JUMPI PUSH1 0x1 DUP2 PUSH0 ADD PUSH0 DUP7 DUP2 MSTORE PUSH1 0x20 ADD SWAP1 DUP2 MSTORE PUSH1 0x20 ADD PUSH0 KECCAK256 PUSH0 ADD PUSH0 DUP6 PUSH20 0xFFFFFFFFFFFFFFFFFFFFFFFFFFFFFFFFFFFFFFFF AND PUSH20 0xFFFFFFFFFFFFFFFFFFFFFFFFFFFFFFFFFFFFFFFF AND DUP2 MSTORE PUSH1 0x20 ADD SWAP1 DUP2 MSTORE PUSH1 0x20 ADD PUSH0 KECCAK256 PUSH0 PUSH2 0x100 EXP DUP2 SLOAD DUP2 PUSH1 0xFF MUL NOT AND SWAP1 DUP4 ISZERO ISZERO MUL OR SWAP1 SSTORE POP PUSH2 0xE0E PUSH2 0xE7D JUMP JUMPDEST PUSH20 0xFFFFFFFFFFFFFFFFFFFFFFFFFFFFFFFFFFFFFFFF AND DUP4 PUSH20 0xFFFFFFFFFFFFFFFFFFFFFFFFFFFFFFFFFFFFFFFF AND DUP6 PUSH32 0x2F8788117E7EFF1D82E926EC794901D17C78024A50270940304540A733656F0D PUSH1 0x40 MLOAD PUSH1 0x40 MLOAD DUP1 SWAP2 SUB SWAP1 LOG4 PUSH1 0x1 SWAP2 POP POP PUSH2 0xE77 JUMP JUMPDEST PUSH0 SWAP2 POP POP JUMPDEST SWAP3 SWAP2 POP POP JUMP JUMPDEST PUSH0 CALLER SWAP1 POP SWAP1 JUMP JUMPDEST PUSH0 PUSH0 PUSH2 0xE8E PUSH2 0xD4A JUMP JUMPDEST SWAP1 POP PUSH2 0xE9A DUP5 DUP5 PUSH2 0x8D9 JUMP JUMPDEST ISZERO PUSH2 0xF71 JUMPI PUSH0 DUP2 PUSH0 ADD PUSH0 DUP7 DUP2 MSTORE PUSH1 0x20 ADD SWAP1 DUP2 MSTORE PUSH1 0x20 ADD PUSH0 KECCAK256 PUSH0 ADD PUSH0 DUP6 PUSH20 0xFFFFFFFFFFFFFFFFFFFFFFFFFFFFFFFFFFFFFFFF AND PUSH20 0xFFFFFFFFFFFFFFFFFFFFFFFFFFFFFFFFFFFFFFFF AND DUP2 MSTORE PUSH1 0x20 ADD SWAP1 DUP2 MSTORE PUSH1 0x20 ADD PUSH0 KECCAK256 PUSH0 PUSH2 0x100 EXP DUP2 SLOAD DUP2 PUSH1 0xFF MUL NOT AND SWAP1 DUP4 ISZERO ISZERO MUL OR SWAP1 SSTORE POP PUSH2 0xF0D PUSH2 0xE7D JUMP JUMPDEST PUSH20 0xFFFFFFFFFFFFFFFFFFFFFFFFFFFFFFFFFFFFFFFF AND DUP4 PUSH20 0xFFFFFFFFFFFFFFFFFFFFFFFFFFFFFFFFFFFFFFFF AND DUP6 PUSH32 0xF6391F5C32D9C69D2A47EA670B442974B53935D1EDC7FD64EB21E047A839171B PUSH1 0x40 MLOAD PUSH1 0x40 MLOAD DUP1 SWAP2 SUB SWAP1 LOG4 PUSH1 0x1 SWAP2 POP POP PUSH2 0xF76 JUMP JUMPDEST PUSH0 SWAP2 POP POP JUMPDEST SWAP3 SWAP2 POP POP JUMP JUMPDEST PUSH2 0xF84 PUSH2 0xE7D JUMP JUMPDEST PUSH20 0xFFFFFFFFFFFFFFFFFFFFFFFFFFFFFFFFFFFFFFFF AND PUSH2 0xFA2 PUSH2 0x8A4 JUMP JUMPDEST PUSH20 0xFFFFFFFFFFFFFFFFFFFFFFFFFFFFFFFFFFFFFFFF AND EQ PUSH2 0x1001 JUMPI PUSH2 0xFC5 PUSH2 0xE7D JUMP JUMPDEST PUSH1 0x40 MLOAD PUSH32 0x118CDAA700000000000000000000000000000000000000000000000000000000 DUP2 MSTORE PUSH1 0x4 ADD PUSH2 0xFF8 SWAP2 SWAP1 PUSH2 0x1C05 JUMP JUMPDEST PUSH1 0x40 MLOAD DUP1 SWAP2 SUB SWAP1 REVERT JUMPDEST JUMP JUMPDEST PUSH2 0x100B PUSH2 0x160C JUMP JUMPDEST PUSH0 PUSH0 PUSH0 PUSH2 0x100 EXP DUP2 SLOAD DUP2 PUSH1 0xFF MUL NOT AND SWAP1 DUP4 ISZERO ISZERO MUL OR SWAP1 SSTORE POP PUSH32 0x5DB9EE0A495BF2E6FF9C91A7834C1BA4FDD244A5E8AA4E537BD38AEAE4B073AA PUSH2 0x104C PUSH2 0xE7D JUMP JUMPDEST PUSH1 0x40 MLOAD PUSH2 0x1059 SWAP2 SWAP1 PUSH2 0x1C05 JUMP JUMPDEST PUSH1 0x40 MLOAD DUP1 SWAP2 SUB SWAP1 LOG1 JUMP JUMPDEST PUSH32 0x0 PUSH20 0xFFFFFFFFFFFFFFFFFFFFFFFFFFFFFFFFFFFFFFFF AND ADDRESS PUSH20 0xFFFFFFFFFFFFFFFFFFFFFFFFFFFFFFFFFFFFFFFF AND EQ DUP1 PUSH2 0x1110 JUMPI POP PUSH32 0x0 PUSH20 0xFFFFFFFFFFFFFFFFFFFFFFFFFFFFFFFFFFFFFFFF AND PUSH2 0x10F7 PUSH2 0x1655 JUMP JUMPDEST PUSH20 0xFFFFFFFFFFFFFFFFFFFFFFFFFFFFFFFFFFFFFFFF AND EQ ISZERO JUMPDEST ISZERO PUSH2 0x1147 JUMPI PUSH1 0x40 MLOAD PUSH32 0xE07C8DBA00000000000000000000000000000000000000000000000000000000 DUP2 MSTORE PUSH1 0x4 ADD PUSH1 0x40 MLOAD DUP1 SWAP2 SUB SWAP1 REVERT JUMPDEST JUMP JUMPDEST PUSH2 0x1151 PUSH2 0xF7C JUMP JUMPDEST POP JUMP JUMPDEST DUP2 PUSH20 0xFFFFFFFFFFFFFFFFFFFFFFFFFFFFFFFFFFFFFFFF AND PUSH4 0x52D1902D PUSH1 0x40 MLOAD DUP2 PUSH4 0xFFFFFFFF AND PUSH1 0xE0 SHL DUP2 MSTORE PUSH1 0x4 ADD PUSH1 0x20 PUSH1 0x40 MLOAD DUP1 DUP4 SUB DUP2 DUP7 GAS STATICCALL SWAP3 POP POP POP DUP1 ISZERO PUSH2 0x11BC JUMPI POP PUSH1 0x40 MLOAD RETURNDATASIZE PUSH1 0x1F NOT PUSH1 0x1F DUP3 ADD AND DUP3 ADD DUP1 PUSH1 0x40 MSTORE POP DUP2 ADD SWAP1 PUSH2 0x11B9 SWAP2 SWAP1 PUSH2 0x2242 JUMP JUMPDEST PUSH1 0x1 JUMPDEST PUSH2 0x11FD JUMPI DUP2 PUSH1 0x40 MLOAD PUSH32 0x4C9C8CE300000000000000000000000000000000000000000000000000000000 DUP2 MSTORE PUSH1 0x4 ADD PUSH2 0x11F4 SWAP2 SWAP1 PUSH2 0x1C05 JUMP JUMPDEST PUSH1 0x40 MLOAD DUP1 SWAP2 SUB SWAP1 REVERT JUMPDEST PUSH32 0x360894A13BA1A3210667C828492DB98DCA3E2076CC3735A920A3CA505D382BBC PUSH0 SHL DUP2 EQ PUSH2 0x1263 JUMPI DUP1 PUSH1 0x40 MLOAD PUSH32 0xAA1D49A400000000000000000000000000000000000000000000000000000000 DUP2 MSTORE PUSH1 0x4 ADD PUSH2 0x125A SWAP2 SWAP1 PUSH2 0x1D57 JUMP JUMPDEST PUSH1 0x40 MLOAD DUP1 SWAP2 SUB SWAP1 REVERT JUMPDEST PUSH2 0x126D DUP4 DUP4 PUSH2 0x16A8 JUMP JUMPDEST POP POP POP JUMP JUMPDEST PUSH32 0x0 PUSH20 0xFFFFFFFFFFFFFFFFFFFFFFFFFFFFFFFFFFFFFFFF AND ADDRESS PUSH20 0xFFFFFFFFFFFFFFFFFFFFFFFFFFFFFFFFFFFFFFFF AND EQ PUSH2 0x12F7 JUMPI PUSH1 0x40 MLOAD PUSH32 0xE07C8DBA00000000000000000000000000000000000000000000000000000000 DUP2 MSTORE PUSH1 0x4 ADD PUSH1 0x40 MLOAD DUP1 SWAP2 SUB SWAP1 REVERT JUMPDEST JUMP JUMPDEST PUSH0 PUSH2 0x1302 PUSH2 0x142B JUMP JUMPDEST SWAP1 POP PUSH0 DUP2 PUSH0 ADD PUSH0 SWAP1 SLOAD SWAP1 PUSH2 0x100 EXP SWAP1 DIV PUSH20 0xFFFFFFFFFFFFFFFFFFFFFFFFFFFFFFFFFFFFFFFF AND SWAP1 POP DUP3 DUP3 PUSH0 ADD PUSH0 PUSH2 0x100 EXP DUP2 SLOAD DUP2 PUSH20 0xFFFFFFFFFFFFFFFFFFFFFFFFFFFFFFFFFFFFFFFF MUL NOT AND SWAP1 DUP4 PUSH20 0xFFFFFFFFFFFFFFFFFFFFFFFFFFFFFFFFFFFFFFFF AND MUL OR SWAP1 SSTORE POP DUP3 PUSH20 0xFFFFFFFFFFFFFFFFFFFFFFFFFFFFFFFFFFFFFFFF AND DUP2 PUSH20 0xFFFFFFFFFFFFFFFFFFFFFFFFFFFFFFFFFFFFFFFF AND PUSH32 0x8BE0079C531659141344CD1FD0A4F28419497F9722A3DAAFE3B4186F6B6457E0 PUSH1 0x40 MLOAD PUSH1 0x40 MLOAD DUP1 SWAP2 SUB SWAP1 LOG3 POP POP POP JUMP JUMPDEST PUSH2 0x13D2 PUSH2 0x171A JUMP JUMPDEST PUSH1 0x1 PUSH0 PUSH0 PUSH2 0x100 EXP DUP2 SLOAD DUP2 PUSH1 0xFF MUL NOT AND SWAP1 DUP4 ISZERO ISZERO MUL OR SWAP1 SSTORE POP PUSH32 0x62E78CEA01BEE320CD4E420270B5EA74000D11B0C9F74754EBDBFC544B05A258 PUSH2 0x1414 PUSH2 0xE7D JUMP JUMPDEST PUSH1 0x40 MLOAD PUSH2 0x1421 SWAP2 SWAP1 PUSH2 0x1C05 JUMP JUMPDEST PUSH1 0x40 MLOAD DUP1 SWAP2 SUB SWAP1 LOG1 JUMP JUMPDEST PUSH0 PUSH32 0x9016D09D72D40FDAE2FD8CEAC6B6234C7706214FD39C1CD1E609A0528C199300 SWAP1 POP SWAP1 JUMP JUMPDEST PUSH0 CALLER SWAP1 POP PUSH1 0x64 PUSH0 DUP3 PUSH20 0xFFFFFFFFFFFFFFFFFFFFFFFFFFFFFFFFFFFFFFFF AND PUSH20 0xFFFFFFFFFFFFFFFFFFFFFFFFFFFFFFFFFFFFFFFF AND DUP2 MSTORE PUSH1 0x20 ADD SWAP1 DUP2 MSTORE PUSH1 0x20 ADD PUSH0 KECCAK256 PUSH1 0x1 ADD PUSH0 SWAP1 SLOAD SWAP1 PUSH2 0x100 EXP SWAP1 DIV PUSH1 0xFF AND PUSH2 0x14E2 JUMPI PUSH1 0x40 MLOAD PUSH32 0x8C379A000000000000000000000000000000000000000000000000000000000 DUP2 MSTORE PUSH1 0x4 ADD PUSH2 0x14D9 SWAP1 PUSH2 0x22DD JUMP JUMPDEST PUSH1 0x40 MLOAD DUP1 SWAP2 SUB SWAP1 REVERT JUMPDEST TIMESTAMP PUSH1 0x64 PUSH0 DUP4 PUSH20 0xFFFFFFFFFFFFFFFFFFFFFFFFFFFFFFFFFFFFFFFF AND PUSH20 0xFFFFFFFFFFFFFFFFFFFFFFFFFFFFFFFFFFFFFFFF AND DUP2 MSTORE PUSH1 0x20 ADD SWAP1 DUP2 MSTORE PUSH1 0x20 ADD PUSH0 KECCAK256 PUSH1 0x1 ADD PUSH1 0x1 PUSH2 0x100 EXP DUP2 SLOAD DUP2 PUSH16 0xFFFFFFFFFFFFFFFFFFFFFFFFFFFFFFFF MUL NOT AND SWAP1 DUP4 PUSH16 0xFFFFFFFFFFFFFFFFFFFFFFFFFFFFFFFF AND MUL OR SWAP1 SSTORE POP POP JUMP JUMPDEST PUSH0 PUSH0 PUSH2 0x1566 PUSH2 0x1764 JUMP JUMPDEST SWAP1 POP DUP1 SWAP2 POP POP SWAP1 JUMP JUMPDEST PUSH2 0x1577 PUSH2 0x178D JUMP JUMPDEST PUSH2 0x1580 DUP2 PUSH2 0x17CD JUMP JUMPDEST POP JUMP JUMPDEST PUSH2 0x158B PUSH2 0x178D JUMP JUMPDEST JUMP JUMPDEST PUSH2 0x1595 PUSH2 0x178D JUMP JUMPDEST PUSH2 0x159D PUSH2 0x1851 JUMP JUMPDEST JUMP JUMPDEST PUSH2 0x15A7 PUSH2 0x178D JUMP JUMPDEST PUSH2 0x15AF PUSH2 0x1873 JUMP JUMPDEST JUMP JUMPDEST PUSH2 0x15B9 PUSH2 0x178D JUMP JUMPDEST JUMP JUMPDEST PUSH2 0x15C5 DUP3 DUP3 PUSH2 0x8D9 JUMP JUMPDEST PUSH2 0x1608 JUMPI DUP1 DUP3 PUSH1 0x40 MLOAD PUSH32 0xE2517D3F00000000000000000000000000000000000000000000000000000000 DUP2 MSTORE PUSH1 0x4 ADD PUSH2 0x15FF SWAP3 SWAP2 SWAP1 PUSH2 0x22FB JUMP JUMPDEST PUSH1 0x40 MLOAD DUP1 SWAP2 SUB SWAP1 REVERT JUMPDEST POP POP JUMP JUMPDEST PUSH2 0x1614 PUSH2 0x844 JUMP JUMPDEST PUSH2 0x1653 JUMPI PUSH1 0x40 MLOAD PUSH32 0x8C379A000000000000000000000000000000000000000000000000000000000 DUP2 MSTORE PUSH1 0x4 ADD PUSH2 0x164A SWAP1 PUSH2 0x236C JUMP JUMPDEST PUSH1 0x40 MLOAD DUP1 SWAP2 SUB SWAP1 REVERT JUMPDEST JUMP JUMPDEST PUSH0 PUSH2 0x1681 PUSH32 0x360894A13BA1A3210667C828492DB98DCA3E2076CC3735A920A3CA505D382BBC PUSH0 SHL PUSH2 0x1885 JUMP JUMPDEST PUSH0 ADD PUSH0 SWAP1 SLOAD SWAP1 PUSH2 0x100 EXP SWAP1 DIV PUSH20 0xFFFFFFFFFFFFFFFFFFFFFFFFFFFFFFFFFFFFFFFF AND SWAP1 POP SWAP1 JUMP JUMPDEST PUSH2 0x16B1 DUP3 PUSH2 0x188E JUMP JUMPDEST DUP2 PUSH20 0xFFFFFFFFFFFFFFFFFFFFFFFFFFFFFFFFFFFFFFFF AND PUSH32 0xBC7CD75A20EE27FD9ADEBAB32041F755214DBC6BFFA90CC0225B39DA2E5C2D3B PUSH1 0x40 MLOAD PUSH1 0x40 MLOAD DUP1 SWAP2 SUB SWAP1 LOG2 PUSH0 DUP2 MLOAD GT ISZERO PUSH2 0x170D JUMPI PUSH2 0x1707 DUP3 DUP3 PUSH2 0x1957 JUMP JUMPDEST POP PUSH2 0x1716 JUMP JUMPDEST PUSH2 0x1715 PUSH2 0x19D7 JUMP JUMPDEST JUMPDEST POP POP JUMP JUMPDEST PUSH2 0x1722 PUSH2 0x844 JUMP JUMPDEST ISZERO PUSH2 0x1762 JUMPI PUSH1 0x40 MLOAD PUSH32 0x8C379A000000000000000000000000000000000000000000000000000000000 DUP2 MSTORE PUSH1 0x4 ADD PUSH2 0x1759 SWAP1 PUSH2 0x23D4 JUMP JUMPDEST PUSH1 0x40 MLOAD DUP1 SWAP2 SUB SWAP1 REVERT JUMPDEST JUMP JUMPDEST PUSH0 PUSH32 0xF0C57E16840DF040F15088DC2F81FE391C3923BEC73E23A9662EFC9C229C6A00 PUSH0 SHL SWAP1 POP SWAP1 JUMP JUMPDEST PUSH2 0x1795 PUSH2 0x1A13 JUMP JUMPDEST PUSH2 0x17CB JUMPI PUSH1 0x40 MLOAD PUSH32 0xD7E6BCF800000000000000000000000000000000000000000000000000000000 DUP2 MSTORE PUSH1 0x4 ADD PUSH1 0x40 MLOAD DUP1 SWAP2 SUB SWAP1 REVERT JUMPDEST JUMP JUMPDEST PUSH2 0x17D5 PUSH2 0x178D JUMP JUMPDEST PUSH0 PUSH20 0xFFFFFFFFFFFFFFFFFFFFFFFFFFFFFFFFFFFFFFFF AND DUP2 PUSH20 0xFFFFFFFFFFFFFFFFFFFFFFFFFFFFFFFFFFFFFFFF AND SUB PUSH2 0x1845 JUMPI PUSH0 PUSH1 0x40 MLOAD PUSH32 0x1E4FBDF700000000000000000000000000000000000000000000000000000000 DUP2 MSTORE PUSH1 0x4 ADD PUSH2 0x183C SWAP2 SWAP1 PUSH2 0x1C05 JUMP JUMPDEST PUSH1 0x40 MLOAD DUP1 SWAP2 SUB SWAP1 REVERT JUMPDEST PUSH2 0x184E DUP2 PUSH2 0x12F9 JUMP JUMPDEST POP JUMP JUMPDEST PUSH2 0x1859 PUSH2 0x178D JUMP JUMPDEST PUSH0 PUSH0 PUSH0 PUSH2 0x100 EXP DUP2 SLOAD DUP2 PUSH1 0xFF MUL NOT AND SWAP1 DUP4 ISZERO ISZERO MUL OR SWAP1 SSTORE POP JUMP JUMPDEST PUSH2 0x187B PUSH2 0x178D JUMP JUMPDEST PUSH1 0x1 PUSH1 0x32 DUP2 SWAP1 SSTORE POP JUMP JUMPDEST PUSH0 DUP2 SWAP1 POP SWAP2 SWAP1 POP JUMP JUMPDEST PUSH0 DUP2 PUSH20 0xFFFFFFFFFFFFFFFFFFFFFFFFFFFFFFFFFFFFFFFF AND EXTCODESIZE SUB PUSH2 0x18E9 JUMPI DUP1 PUSH1 0x40 MLOAD PUSH32 0x4C9C8CE300000000000000000000000000000000000000000000000000000000 DUP2 MSTORE PUSH1 0x4 ADD PUSH2 0x18E0 SWAP2 SWAP1 PUSH2 0x1C05 JUMP JUMPDEST PUSH1 0x40 MLOAD DUP1 SWAP2 SUB SWAP1 REVERT JUMPDEST DUP1 PUSH2 0x1915 PUSH32 0x360894A13BA1A3210667C828492DB98DCA3E2076CC3735A920A3CA505D382BBC PUSH0 SHL PUSH2 0x1885 JUMP JUMPDEST PUSH0 ADD PUSH0 PUSH2 0x100 EXP DUP2 SLOAD DUP2 PUSH20 0xFFFFFFFFFFFFFFFFFFFFFFFFFFFFFFFFFFFFFFFF MUL NOT AND SWAP1 DUP4 PUSH20 0xFFFFFFFFFFFFFFFFFFFFFFFFFFFFFFFFFFFFFFFF AND MUL OR SWAP1 SSTORE POP POP JUMP JUMPDEST PUSH1 0x60 PUSH0 PUSH0 DUP5 PUSH20 0xFFFFFFFFFFFFFFFFFFFFFFFFFFFFFFFFFFFFFFFF AND DUP5 PUSH1 0x40 MLOAD PUSH2 0x1980 SWAP2 SWAP1 PUSH2 0x2436 JUMP JUMPDEST PUSH0 PUSH1 0x40 MLOAD DUP1 DUP4 SUB DUP2 DUP6 GAS DELEGATECALL SWAP2 POP POP RETURNDATASIZE DUP1 PUSH0 DUP2 EQ PUSH2 0x19B8 JUMPI PUSH1 0x40 MLOAD SWAP2 POP PUSH1 0x1F NOT PUSH1 0x3F RETURNDATASIZE ADD AND DUP3 ADD PUSH1 0x40 MSTORE RETURNDATASIZE DUP3 MSTORE RETURNDATASIZE PUSH0 PUSH1 0x20 DUP5 ADD RETURNDATACOPY PUSH2 0x19BD JUMP JUMPDEST PUSH1 0x60 SWAP2 POP JUMPDEST POP SWAP2 POP SWAP2 POP PUSH2 0x19CD DUP6 DUP4 DUP4 PUSH2 0x1A31 JUMP JUMPDEST SWAP3 POP POP POP SWAP3 SWAP2 POP POP JUMP JUMPDEST PUSH0 CALLVALUE GT ISZERO PUSH2 0x1A11 JUMPI PUSH1 0x40 MLOAD PUSH32 0xB398979F00000000000000000000000000000000000000000000000000000000 DUP2 MSTORE PUSH1 0x4 ADD PUSH1 0x40 MLOAD DUP1 SWAP2 SUB SWAP1 REVERT JUMPDEST JUMP JUMPDEST PUSH0 PUSH2 0x1A1C PUSH2 0x155C JUMP JUMPDEST PUSH0 ADD PUSH1 0x8 SWAP1 SLOAD SWAP1 PUSH2 0x100 EXP SWAP1 DIV PUSH1 0xFF AND SWAP1 POP SWAP1 JUMP JUMPDEST PUSH1 0x60 DUP3 PUSH2 0x1A46 JUMPI PUSH2 0x1A41 DUP3 PUSH2 0x1ABE JUMP JUMPDEST PUSH2 0x1AB6 JUMP JUMPDEST PUSH0 DUP3 MLOAD EQ DUP1 ISZERO PUSH2 0x1A6C JUMPI POP PUSH0 DUP5 PUSH20 0xFFFFFFFFFFFFFFFFFFFFFFFFFFFFFFFFFFFFFFFF AND EXTCODESIZE EQ JUMPDEST ISZERO PUSH2 0x1AAE JUMPI DUP4 PUSH1 0x40 MLOAD PUSH32 0x9996B31500000000000000000000000000000000000000000000000000000000 DUP2 MSTORE PUSH1 0x4 ADD PUSH2 0x1AA5 SWAP2 SWAP1 PUSH2 0x1C05 JUMP JUMPDEST PUSH1 0x40 MLOAD DUP1 SWAP2 SUB SWAP1 REVERT JUMPDEST DUP2 SWAP1 POP PUSH2 0x1AB7 JUMP JUMPDEST JUMPDEST SWAP4 SWAP3 POP POP POP JUMP JUMPDEST PUSH0 DUP2 MLOAD GT ISZERO PUSH2 0x1AD0 JUMPI DUP1 MLOAD DUP1 DUP3 PUSH1 0x20 ADD REVERT JUMPDEST PUSH1 0x40 MLOAD PUSH32 0xD6BDA27500000000000000000000000000000000000000000000000000000000 DUP2 MSTORE PUSH1 0x4 ADD PUSH1 0x40 MLOAD DUP1 SWAP2 SUB SWAP1 REVERT JUMPDEST PUSH0 PUSH1 0x40 MLOAD SWAP1 POP SWAP1 JUMP JUMPDEST PUSH0 PUSH0 REVERT JUMPDEST PUSH0 PUSH0 REVERT JUMPDEST PUSH0 PUSH32 0xFFFFFFFF00000000000000000000000000000000000000000000000000000000 DUP3 AND SWAP1 POP SWAP2 SWAP1 POP JUMP JUMPDEST PUSH2 0x1B47 DUP2 PUSH2 0x1B13 JUMP JUMPDEST DUP2 EQ PUSH2 0x1B51 JUMPI PUSH0 PUSH0 REVERT JUMPDEST POP JUMP JUMPDEST PUSH0 DUP2 CALLDATALOAD SWAP1 POP PUSH2 0x1B62 DUP2 PUSH2 0x1B3E JUMP JUMPDEST SWAP3 SWAP2 POP POP JUMP JUMPDEST PUSH0 PUSH1 0x20 DUP3 DUP5 SUB SLT ISZERO PUSH2 0x1B7D JUMPI PUSH2 0x1B7C PUSH2 0x1B0B JUMP JUMPDEST JUMPDEST PUSH0 PUSH2 0x1B8A DUP5 DUP3 DUP6 ADD PUSH2 0x1B54 JUMP JUMPDEST SWAP2 POP POP SWAP3 SWAP2 POP POP JUMP JUMPDEST PUSH0 DUP2 ISZERO ISZERO SWAP1 POP SWAP2 SWAP1 POP JUMP JUMPDEST PUSH2 0x1BA7 DUP2 PUSH2 0x1B93 JUMP JUMPDEST DUP3 MSTORE POP POP JUMP JUMPDEST PUSH0 PUSH1 0x20 DUP3 ADD SWAP1 POP PUSH2 0x1BC0 PUSH0 DUP4 ADD DUP5 PUSH2 0x1B9E JUMP JUMPDEST SWAP3 SWAP2 POP POP JUMP JUMPDEST PUSH0 PUSH20 0xFFFFFFFFFFFFFFFFFFFFFFFFFFFFFFFFFFFFFFFF DUP3 AND SWAP1 POP SWAP2 SWAP1 POP JUMP JUMPDEST PUSH0 PUSH2 0x1BEF DUP3 PUSH2 0x1BC6 JUMP JUMPDEST SWAP1 POP SWAP2 SWAP1 POP JUMP JUMPDEST PUSH2 0x1BFF DUP2 PUSH2 0x1BE5 JUMP JUMPDEST DUP3 MSTORE POP POP JUMP JUMPDEST PUSH0 PUSH1 0x20 DUP3 ADD SWAP1 POP PUSH2 0x1C18 PUSH0 DUP4 ADD DUP5 PUSH2 0x1BF6 JUMP JUMPDEST SWAP3 SWAP2 POP POP JUMP JUMPDEST PUSH2 0x1C27 DUP2 PUSH2 0x1BE5 JUMP JUMPDEST DUP2 EQ PUSH2 0x1C31 JUMPI PUSH0 PUSH0 REVERT JUMPDEST POP JUMP JUMPDEST PUSH0 DUP2 CALLDATALOAD SWAP1 POP PUSH2 0x1C42 DUP2 PUSH2 0x1C1E JUMP JUMPDEST SWAP3 SWAP2 POP POP JUMP JUMPDEST PUSH0 PUSH1 0x20 DUP3 DUP5 SUB SLT ISZERO PUSH2 0x1C5D JUMPI PUSH2 0x1C5C PUSH2 0x1B0B JUMP JUMPDEST JUMPDEST PUSH0 PUSH2 0x1C6A DUP5 DUP3 DUP6 ADD PUSH2 0x1C34 JUMP JUMPDEST SWAP2 POP POP SWAP3 SWAP2 POP POP JUMP JUMPDEST PUSH0 PUSH16 0xFFFFFFFFFFFFFFFFFFFFFFFFFFFFFFFF DUP3 AND SWAP1 POP SWAP2 SWAP1 POP JUMP JUMPDEST PUSH2 0x1C97 DUP2 PUSH2 0x1C73 JUMP JUMPDEST DUP3 MSTORE POP POP JUMP JUMPDEST PUSH0 DUP2 SWAP1 POP SWAP2 SWAP1 POP JUMP JUMPDEST PUSH2 0x1CAF DUP2 PUSH2 0x1C9D JUMP JUMPDEST DUP3 MSTORE POP POP JUMP JUMPDEST PUSH0 PUSH1 0x60 DUP3 ADD SWAP1 POP PUSH2 0x1CC8 PUSH0 DUP4 ADD DUP7 PUSH2 0x1B9E JUMP JUMPDEST PUSH2 0x1CD5 PUSH1 0x20 DUP4 ADD DUP6 PUSH2 0x1C8E JUMP JUMPDEST PUSH2 0x1CE2 PUSH1 0x40 DUP4 ADD DUP5 PUSH2 0x1CA6 JUMP JUMPDEST SWAP5 SWAP4 POP POP POP POP JUMP JUMPDEST PUSH0 DUP2 SWAP1 POP SWAP2 SWAP1 POP JUMP JUMPDEST PUSH2 0x1CFC DUP2 PUSH2 0x1CEA JUMP JUMPDEST DUP2 EQ PUSH2 0x1D06 JUMPI PUSH0 PUSH0 REVERT JUMPDEST POP JUMP JUMPDEST PUSH0 DUP2 CALLDATALOAD SWAP1 POP PUSH2 0x1D17 DUP2 PUSH2 0x1CF3 JUMP JUMPDEST SWAP3 SWAP2 POP POP JUMP JUMPDEST PUSH0 PUSH1 0x20 DUP3 DUP5 SUB SLT ISZERO PUSH2 0x1D32 JUMPI PUSH2 0x1D31 PUSH2 0x1B0B JUMP JUMPDEST JUMPDEST PUSH0 PUSH2 0x1D3F DUP5 DUP3 DUP6 ADD PUSH2 0x1D09 JUMP JUMPDEST SWAP2 POP POP SWAP3 SWAP2 POP POP JUMP JUMPDEST PUSH2 0x1D51 DUP2 PUSH2 0x1CEA JUMP JUMPDEST DUP3 MSTORE POP POP JUMP JUMPDEST PUSH0 PUSH1 0x20 DUP3 ADD SWAP1 POP PUSH2 0x1D6A PUSH0 DUP4 ADD DUP5 PUSH2 0x1D48 JUMP JUMPDEST SWAP3 SWAP2 POP POP JUMP JUMPDEST PUSH0 PUSH0 PUSH1 0x40 DUP4 DUP6 SUB SLT ISZERO PUSH2 0x1D86 JUMPI PUSH2 0x1D85 PUSH2 0x1B0B JUMP JUMPDEST JUMPDEST PUSH0 PUSH2 0x1D93 DUP6 DUP3 DUP7 ADD PUSH2 0x1D09 JUMP JUMPDEST SWAP3 POP POP PUSH1 0x20 PUSH2 0x1DA4 DUP6 DUP3 DUP7 ADD PUSH2 0x1C34 JUMP JUMPDEST SWAP2 POP POP SWAP3 POP SWAP3 SWAP1 POP JUMP JUMPDEST PUSH0 PUSH0 REVERT JUMPDEST PUSH0 PUSH0 REVERT JUMPDEST PUSH0 PUSH1 0x1F NOT PUSH1 0x1F DUP4 ADD AND SWAP1 POP SWAP2 SWAP1 POP JUMP JUMPDEST PUSH32 0x4E487B7100000000000000000000000000000000000000000000000000000000 PUSH0 MSTORE PUSH1 0x41 PUSH1 0x4 MSTORE PUSH1 0x24 PUSH0 REVERT JUMPDEST PUSH2 0x1DFC DUP3 PUSH2 0x1DB6 JUMP JUMPDEST DUP2 ADD DUP2 DUP2 LT PUSH8 0xFFFFFFFFFFFFFFFF DUP3 GT OR ISZERO PUSH2 0x1E1B JUMPI PUSH2 0x1E1A PUSH2 0x1DC6 JUMP JUMPDEST JUMPDEST DUP1 PUSH1 0x40 MSTORE POP POP POP JUMP JUMPDEST PUSH0 PUSH2 0x1E2D PUSH2 0x1B02 JUMP JUMPDEST SWAP1 POP PUSH2 0x1E39 DUP3 DUP3 PUSH2 0x1DF3 JUMP JUMPDEST SWAP2 SWAP1 POP JUMP JUMPDEST PUSH0 PUSH8 0xFFFFFFFFFFFFFFFF DUP3 GT ISZERO PUSH2 0x1E58 JUMPI PUSH2 0x1E57 PUSH2 0x1DC6 JUMP JUMPDEST JUMPDEST PUSH2 0x1E61 DUP3 PUSH2 0x1DB6 JUMP JUMPDEST SWAP1 POP PUSH1 0x20 DUP2 ADD SWAP1 POP SWAP2 SWAP1 POP JUMP JUMPDEST DUP3 DUP2 DUP4 CALLDATACOPY PUSH0 DUP4 DUP4 ADD MSTORE POP POP POP JUMP JUMPDEST PUSH0 PUSH2 0x1E8E PUSH2 0x1E89 DUP5 PUSH2 0x1E3E JUMP JUMPDEST PUSH2 0x1E24 JUMP JUMPDEST SWAP1 POP DUP3 DUP2 MSTORE PUSH1 0x20 DUP2 ADD DUP5 DUP5 DUP5 ADD GT ISZERO PUSH2 0x1EAA JUMPI PUSH2 0x1EA9 PUSH2 0x1DB2 JUMP JUMPDEST JUMPDEST PUSH2 0x1EB5 DUP5 DUP3 DUP6 PUSH2 0x1E6E JUMP JUMPDEST POP SWAP4 SWAP3 POP POP POP JUMP JUMPDEST PUSH0 DUP3 PUSH1 0x1F DUP4 ADD SLT PUSH2 0x1ED1 JUMPI PUSH2 0x1ED0 PUSH2 0x1DAE JUMP JUMPDEST JUMPDEST DUP2 CALLDATALOAD PUSH2 0x1EE1 DUP5 DUP3 PUSH1 0x20 DUP7 ADD PUSH2 0x1E7C JUMP JUMPDEST SWAP2 POP POP SWAP3 SWAP2 POP POP JUMP JUMPDEST PUSH0 PUSH0 PUSH1 0x40 DUP4 DUP6 SUB SLT ISZERO PUSH2 0x1F00 JUMPI PUSH2 0x1EFF PUSH2 0x1B0B JUMP JUMPDEST JUMPDEST PUSH0 PUSH2 0x1F0D DUP6 DUP3 DUP7 ADD PUSH2 0x1C34 JUMP JUMPDEST SWAP3 POP POP PUSH1 0x20 DUP4 ADD CALLDATALOAD PUSH8 0xFFFFFFFFFFFFFFFF DUP2 GT ISZERO PUSH2 0x1F2E JUMPI PUSH2 0x1F2D PUSH2 0x1B0F JUMP JUMPDEST JUMPDEST PUSH2 0x1F3A DUP6 DUP3 DUP7 ADD PUSH2 0x1EBD JUMP JUMPDEST SWAP2 POP POP SWAP3 POP SWAP3 SWAP1 POP JUMP JUMPDEST PUSH2 0x1F4D DUP2 PUSH2 0x1C9D JUMP JUMPDEST DUP2 EQ PUSH2 0x1F57 JUMPI PUSH0 PUSH0 REVERT JUMPDEST POP JUMP JUMPDEST PUSH0 DUP2 CALLDATALOAD SWAP1 POP PUSH2 0x1F68 DUP2 PUSH2 0x1F44 JUMP JUMPDEST SWAP3 SWAP2 POP POP JUMP JUMPDEST PUSH0 PUSH0 PUSH1 0x40 DUP4 DUP6 SUB SLT ISZERO PUSH2 0x1F84 JUMPI PUSH2 0x1F83 PUSH2 0x1B0B JUMP JUMPDEST JUMPDEST PUSH0 PUSH2 0x1F91 DUP6 DUP3 DUP7 ADD PUSH2 0x1C34 JUMP JUMPDEST SWAP3 POP POP PUSH1 0x20 PUSH2 0x1FA2 DUP6 DUP3 DUP7 ADD PUSH2 0x1F5A JUMP JUMPDEST SWAP2 POP POP SWAP3 POP SWAP3 SWAP1 POP JUMP JUMPDEST PUSH0 DUP2 MLOAD SWAP1 POP SWAP2 SWAP1 POP JUMP JUMPDEST PUSH0 DUP3 DUP3 MSTORE PUSH1 0x20 DUP3 ADD SWAP1 POP SWAP3 SWAP2 POP POP JUMP JUMPDEST DUP3 DUP2 DUP4 MCOPY PUSH0 DUP4 DUP4 ADD MSTORE POP POP POP JUMP JUMPDEST PUSH0 PUSH2 0x1FDE DUP3 PUSH2 0x1FAC JUMP JUMPDEST PUSH2 0x1FE8 DUP2 DUP6 PUSH2 0x1FB6 JUMP JUMPDEST SWAP4 POP PUSH2 0x1FF8 DUP2 DUP6 PUSH1 0x20 DUP7 ADD PUSH2 0x1FC6 JUMP JUMPDEST PUSH2 0x2001 DUP2 PUSH2 0x1DB6 JUMP JUMPDEST DUP5 ADD SWAP2 POP POP SWAP3 SWAP2 POP POP JUMP JUMPDEST PUSH0 PUSH1 0x20 DUP3 ADD SWAP1 POP DUP2 DUP2 SUB PUSH0 DUP4 ADD MSTORE PUSH2 0x2024 DUP2 DUP5 PUSH2 0x1FD4 JUMP JUMPDEST SWAP1 POP SWAP3 SWAP2 POP POP JUMP JUMPDEST PUSH0 PUSH0 REVERT JUMPDEST PUSH0 PUSH0 REVERT JUMPDEST PUSH0 PUSH0 DUP4 PUSH1 0x1F DUP5 ADD SLT PUSH2 0x2049 JUMPI PUSH2 0x2048 PUSH2 0x1DAE JUMP JUMPDEST JUMPDEST DUP3 CALLDATALOAD SWAP1 POP PUSH8 0xFFFFFFFFFFFFFFFF DUP2 GT ISZERO PUSH2 0x2066 JUMPI PUSH2 0x2065 PUSH2 0x202C JUMP JUMPDEST JUMPDEST PUSH1 0x20 DUP4 ADD SWAP2 POP DUP4 PUSH1 0x20 DUP3 MUL DUP4 ADD GT ISZERO PUSH2 0x2082 JUMPI PUSH2 0x2081 PUSH2 0x2030 JUMP JUMPDEST JUMPDEST SWAP3 POP SWAP3 SWAP1 POP JUMP JUMPDEST PUSH0 PUSH0 DUP4 PUSH1 0x1F DUP5 ADD SLT PUSH2 0x209E JUMPI PUSH2 0x209D PUSH2 0x1DAE JUMP JUMPDEST JUMPDEST DUP3 CALLDATALOAD SWAP1 POP PUSH8 0xFFFFFFFFFFFFFFFF DUP2 GT ISZERO PUSH2 0x20BB JUMPI PUSH2 0x20BA PUSH2 0x202C JUMP JUMPDEST JUMPDEST PUSH1 0x20 DUP4 ADD SWAP2 POP DUP4 PUSH1 0x20 DUP3 MUL DUP4 ADD GT ISZERO PUSH2 0x20D7 JUMPI PUSH2 0x20D6 PUSH2 0x2030 JUMP JUMPDEST JUMPDEST SWAP3 POP SWAP3 SWAP1 POP JUMP JUMPDEST PUSH0 PUSH0 PUSH0 PUSH0 PUSH1 0x40 DUP6 DUP8 SUB SLT ISZERO PUSH2 0x20F6 JUMPI PUSH2 0x20F5 PUSH2 0x1B0B JUMP JUMPDEST JUMPDEST PUSH0 DUP6 ADD CALLDATALOAD PUSH8 0xFFFFFFFFFFFFFFFF DUP2 GT ISZERO PUSH2 0x2113 JUMPI PUSH2 0x2112 PUSH2 0x1B0F JUMP JUMPDEST JUMPDEST PUSH2 0x211F DUP8 DUP3 DUP9 ADD PUSH2 0x2034 JUMP JUMPDEST SWAP5 POP SWAP5 POP POP PUSH1 0x20 DUP6 ADD CALLDATALOAD PUSH8 0xFFFFFFFFFFFFFFFF DUP2 GT ISZERO PUSH2 0x2142 JUMPI PUSH2 0x2141 PUSH2 0x1B0F JUMP JUMPDEST JUMPDEST PUSH2 0x214E DUP8 DUP3 DUP9 ADD PUSH2 0x2089 JUMP JUMPDEST SWAP3 POP SWAP3 POP POP SWAP3 SWAP6 SWAP2 SWAP5 POP SWAP3 POP JUMP JUMPDEST PUSH0 PUSH0 PUSH0 PUSH0 PUSH1 0x80 DUP6 DUP8 SUB SLT ISZERO PUSH2 0x2174 JUMPI PUSH2 0x2173 PUSH2 0x1B0B JUMP JUMPDEST JUMPDEST PUSH0 PUSH2 0x2181 DUP8 DUP3 DUP9 ADD PUSH2 0x1C34 JUMP JUMPDEST SWAP5 POP POP PUSH1 0x20 PUSH2 0x2192 DUP8 DUP3 DUP9 ADD PUSH2 0x1C34 JUMP JUMPDEST SWAP4 POP POP PUSH1 0x40 PUSH2 0x21A3 DUP8 DUP3 DUP9 ADD PUSH2 0x1C34 JUMP JUMPDEST SWAP3 POP POP PUSH1 0x60 PUSH2 0x21B4 DUP8 DUP3 DUP9 ADD PUSH2 0x1C34 JUMP JUMPDEST SWAP2 POP POP SWAP3 SWAP6 SWAP2 SWAP5 POP SWAP3 POP JUMP JUMPDEST PUSH0 DUP2 SWAP1 POP SWAP2 SWAP1 POP JUMP JUMPDEST PUSH0 PUSH8 0xFFFFFFFFFFFFFFFF DUP3 AND SWAP1 POP SWAP2 SWAP1 POP JUMP JUMPDEST PUSH0 DUP2 SWAP1 POP SWAP2 SWAP1 POP JUMP JUMPDEST PUSH0 PUSH2 0x21FF PUSH2 0x21FA PUSH2 0x21F5 DUP5 PUSH2 0x21C0 JUMP JUMPDEST PUSH2 0x21DC JUMP JUMPDEST PUSH2 0x21C9 JUMP JUMPDEST SWAP1 POP SWAP2 SWAP1 POP JUMP JUMPDEST PUSH2 0x220F DUP2 PUSH2 0x21E5 JUMP JUMPDEST DUP3 MSTORE POP POP JUMP JUMPDEST PUSH0 PUSH1 0x20 DUP3 ADD SWAP1 POP PUSH2 0x2228 PUSH0 DUP4 ADD DUP5 PUSH2 0x2206 JUMP JUMPDEST SWAP3 SWAP2 POP POP JUMP JUMPDEST PUSH0 DUP2 MLOAD SWAP1 POP PUSH2 0x223C DUP2 PUSH2 0x1CF3 JUMP JUMPDEST SWAP3 SWAP2 POP POP JUMP JUMPDEST PUSH0 PUSH1 0x20 DUP3 DUP5 SUB SLT ISZERO PUSH2 0x2257 JUMPI PUSH2 0x2256 PUSH2 0x1B0B JUMP JUMPDEST JUMPDEST PUSH0 PUSH2 0x2264 DUP5 DUP3 DUP6 ADD PUSH2 0x222E JUMP JUMPDEST SWAP2 POP POP SWAP3 SWAP2 POP POP JUMP JUMPDEST PUSH32 0x566F6365206E616F20706F73737569206E656E68756D2074657374616D656E74 PUSH0 DUP3 ADD MSTORE PUSH32 0x6F2063726961646F000000000000000000000000000000000000000000000000 PUSH1 0x20 DUP3 ADD MSTORE POP JUMP JUMPDEST PUSH0 PUSH2 0x22C7 PUSH1 0x28 DUP4 PUSH2 0x1FB6 JUMP JUMPDEST SWAP2 POP PUSH2 0x22D2 DUP3 PUSH2 0x226D JUMP JUMPDEST PUSH1 0x40 DUP3 ADD SWAP1 POP SWAP2 SWAP1 POP JUMP JUMPDEST PUSH0 PUSH1 0x20 DUP3 ADD SWAP1 POP DUP2 DUP2 SUB PUSH0 DUP4 ADD MSTORE PUSH2 0x22F4 DUP2 PUSH2 0x22BB JUMP JUMPDEST SWAP1 POP SWAP2 SWAP1 POP JUMP JUMPDEST PUSH0 PUSH1 0x40 DUP3 ADD SWAP1 POP PUSH2 0x230E PUSH0 DUP4 ADD DUP6 PUSH2 0x1BF6 JUMP JUMPDEST PUSH2 0x231B PUSH1 0x20 DUP4 ADD DUP5 PUSH2 0x1D48 JUMP JUMPDEST SWAP4 SWAP3 POP POP POP JUMP JUMPDEST PUSH32 0x5061757361626C653A206E6F7420706175736564000000000000000000000000 PUSH0 DUP3 ADD MSTORE POP JUMP JUMPDEST PUSH0 PUSH2 0x2356 PUSH1 0x14 DUP4 PUSH2 0x1FB6 JUMP JUMPDEST SWAP2 POP PUSH2 0x2361 DUP3 PUSH2 0x2322 JUMP JUMPDEST PUSH1 0x20 DUP3 ADD SWAP1 POP SWAP2 SWAP1 POP JUMP JUMPDEST PUSH0 PUSH1 0x20 DUP3 ADD SWAP1 POP DUP2 DUP2 SUB PUSH0 DUP4 ADD MSTORE PUSH2 0x2383 DUP2 PUSH2 0x234A JUMP JUMPDEST SWAP1 POP SWAP2 SWAP1 POP JUMP JUMPDEST PUSH32 0x5061757361626C653A2070617573656400000000000000000000000000000000 PUSH0 DUP3 ADD MSTORE POP JUMP JUMPDEST PUSH0 PUSH2 0x23BE PUSH1 0x10 DUP4 PUSH2 0x1FB6 JUMP JUMPDEST SWAP2 POP PUSH2 0x23C9 DUP3 PUSH2 0x238A JUMP JUMPDEST PUSH1 0x20 DUP3 ADD SWAP1 POP SWAP2 SWAP1 POP JUMP JUMPDEST PUSH0 PUSH1 0x20 DUP3 ADD SWAP1 POP DUP2 DUP2 SUB PUSH0 DUP4 ADD MSTORE PUSH2 0x23EB DUP2 PUSH2 0x23B2 JUMP JUMPDEST SWAP1 POP SWAP2 SWAP1 POP JUMP JUMPDEST PUSH0 DUP2 MLOAD SWAP1 POP SWAP2 SWAP1 POP JUMP JUMPDEST PUSH0 DUP2 SWAP1 POP SWAP3 SWAP2 POP POP JUMP JUMPDEST PUSH0 PUSH2 0x2410 DUP3 PUSH2 0x23F2 JUMP JUMPDEST PUSH2 0x241A DUP2 DUP6 PUSH2 0x23FC JUMP JUMPDEST SWAP4 POP PUSH2 0x242A DUP2 DUP6 PUSH1 0x20 DUP7 ADD PUSH2 0x1FC6 JUMP JUMPDEST DUP1 DUP5 ADD SWAP2 POP POP SWAP3 SWAP2 POP POP JUMP JUMPDEST PUSH0 PUSH2 0x2441 DUP3 DUP5 PUSH2 0x2406 JUMP JUMPDEST SWAP2 POP DUP2 SWAP1 POP SWAP3 SWAP2 POP POP JUMP INVALID LOG2 PUSH5 0x6970667358 0x22 SLT KECCAK256 0x21 INVALID 0xC5 CALLVALUE PUSH15 0xA75B797049CC746C77B7A837A40B4C 0x27 0x4C REVERT PUSH20 0xEB64AF32CA2CA7E264736F6C634300081D003300 "
				},
				"gasEstimates": {
					"creation": {
						"codeDepositCost": "1869200",
						"executionCost": "infinite",
						"totalCost": "infinite"
					},
					"external": {
						"DEFAULT_ADMIN_ROLE()": "396",
						"UPGRADE_INTERFACE_VERSION()": "infinite",
						"cancelTestament()": "211",
						"createInheritance(address[],uint16[])": "27438",
						"editInheritorsInMyTestament()": "188",
						"getRoleAdmin(bytes32)": "infinite",
						"grantRole(bytes32,address)": "infinite",
						"hasRole(bytes32,address)": "3217",
						"inheritanceManager()": "2597",
						"inheritorToTestators(address,uint256)": "infinite",
						"initialize(address,address,address,address)": "infinite",
						"owner()": "2699",
						"pause()": "infinite",
						"paused()": "2495",
						"proofOfLife()": "2620",
						"proxiableUUID()": "infinite",
						"renounceOwnership()": "infinite",
						"renounceRole(bytes32,address)": "infinite",
						"revokeRole(bytes32,address)": "infinite",
						"storageContract()": "2554",
						"supportsInterface(bytes4)": "741",
						"testaments(address)": "7461",
						"transferOwnership(address)": "infinite",
						"unpause()": "infinite",
						"upgradeToAndCall(address,bytes)": "infinite",
						"withdrawalManager()": "2597"
					},
					"internal": {
						"_authorizeUpgrade(address)": "infinite"
					}
				},
				"methodIdentifiers": {
					"DEFAULT_ADMIN_ROLE()": "a217fddf",
					"UPGRADE_INTERFACE_VERSION()": "ad3cb1cc",
					"cancelTestament()": "1aba6da6",
					"createInheritance(address[],uint16[])": "e7a84bc3",
					"editInheritorsInMyTestament()": "67892597",
					"getRoleAdmin(bytes32)": "248a9ca3",
					"grantRole(bytes32,address)": "2f2ff15d",
					"hasRole(bytes32,address)": "91d14854",
					"inheritanceManager()": "578dcf6d",
					"inheritorToTestators(address,uint256)": "5b084db9",
					"initialize(address,address,address,address)": "f8c8765e",
					"owner()": "8da5cb5b",
					"pause()": "8456cb59",
					"paused()": "5c975abb",
					"proofOfLife()": "20888d1e",
					"proxiableUUID()": "52d1902d",
					"renounceOwnership()": "715018a6",
					"renounceRole(bytes32,address)": "36568abe",
					"revokeRole(bytes32,address)": "d547741f",
					"storageContract()": "11ce0267",
					"supportsInterface(bytes4)": "01ffc9a7",
					"testaments(address)": "1acb49b4",
					"transferOwnership(address)": "f2fde38b",
					"unpause()": "3f4ba83a",
					"upgradeToAndCall(address,bytes)": "4f1ef286",
					"withdrawalManager()": "82fe535a"
				}
			},
			"storageLayout": {
				"storage": [
					{
						"astId": 1244,
						"contract": ".deps/studying-solidity/v0.1/Testament/TestamentCore.sol:TestamentCore",
						"label": "_paused",
						"offset": 0,
						"slot": "0",
						"type": "t_bool"
					},
					{
						"astId": 1349,
						"contract": ".deps/studying-solidity/v0.1/Testament/TestamentCore.sol:TestamentCore",
						"label": "__gap",
						"offset": 0,
						"slot": "1",
						"type": "t_array(t_uint256)49_storage"
					},
					{
						"astId": 1365,
						"contract": ".deps/studying-solidity/v0.1/Testament/TestamentCore.sol:TestamentCore",
						"label": "_status",
						"offset": 0,
						"slot": "50",
						"type": "t_uint256"
					},
					{
						"astId": 1434,
						"contract": ".deps/studying-solidity/v0.1/Testament/TestamentCore.sol:TestamentCore",
						"label": "__gap",
						"offset": 0,
						"slot": "51",
						"type": "t_array(t_uint256)49_storage"
					},
					{
						"astId": 208,
						"contract": ".deps/studying-solidity/v0.1/Testament/TestamentCore.sol:TestamentCore",
						"label": "testaments",
						"offset": 0,
						"slot": "100",
						"type": "t_mapping(t_address,t_struct(Testament)203_storage)"
					},
					{
						"astId": 213,
						"contract": ".deps/studying-solidity/v0.1/Testament/TestamentCore.sol:TestamentCore",
						"label": "inheritorToTestators",
						"offset": 0,
						"slot": "101",
						"type": "t_mapping(t_address,t_array(t_address)dyn_storage)"
					},
					{
						"astId": 81,
						"contract": ".deps/studying-solidity/v0.1/Testament/TestamentCore.sol:TestamentCore",
						"label": "storageContract",
						"offset": 0,
						"slot": "102",
						"type": "t_address"
					},
					{
						"astId": 83,
						"contract": ".deps/studying-solidity/v0.1/Testament/TestamentCore.sol:TestamentCore",
						"label": "inheritanceManager",
						"offset": 0,
						"slot": "103",
						"type": "t_address"
					},
					{
						"astId": 85,
						"contract": ".deps/studying-solidity/v0.1/Testament/TestamentCore.sol:TestamentCore",
						"label": "withdrawalManager",
						"offset": 0,
						"slot": "104",
						"type": "t_address"
					},
					{
						"astId": 87,
						"contract": ".deps/studying-solidity/v0.1/Testament/TestamentCore.sol:TestamentCore",
						"label": "proofOfLife",
						"offset": 0,
						"slot": "105",
						"type": "t_address"
					}
				],
				"types": {
					"t_address": {
						"encoding": "inplace",
						"label": "address",
						"numberOfBytes": "20"
					},
					"t_array(t_address)dyn_storage": {
						"base": "t_address",
						"encoding": "dynamic_array",
						"label": "address[]",
						"numberOfBytes": "32"
					},
					"t_array(t_struct(Inheritor)192_storage)dyn_storage": {
						"base": "t_struct(Inheritor)192_storage",
						"encoding": "dynamic_array",
						"label": "struct TestamentStorage.Inheritor[]",
						"numberOfBytes": "32"
					},
					"t_array(t_uint256)49_storage": {
						"base": "t_uint256",
						"encoding": "inplace",
						"label": "uint256[49]",
						"numberOfBytes": "1568"
					},
					"t_bool": {
						"encoding": "inplace",
						"label": "bool",
						"numberOfBytes": "1"
					},
					"t_mapping(t_address,t_array(t_address)dyn_storage)": {
						"encoding": "mapping",
						"key": "t_address",
						"label": "mapping(address => address[])",
						"numberOfBytes": "32",
						"value": "t_array(t_address)dyn_storage"
					},
					"t_mapping(t_address,t_struct(Testament)203_storage)": {
						"encoding": "mapping",
						"key": "t_address",
						"label": "mapping(address => struct TestamentStorage.Testament)",
						"numberOfBytes": "32",
						"value": "t_struct(Testament)203_storage"
					},
					"t_struct(Inheritor)192_storage": {
						"encoding": "inplace",
						"label": "struct TestamentStorage.Inheritor",
						"members": [
							{
								"astId": 187,
								"contract": ".deps/studying-solidity/v0.1/Testament/TestamentCore.sol:TestamentCore",
								"label": "inheritorAddress",
								"offset": 0,
								"slot": "0",
								"type": "t_address"
							},
							{
								"astId": 189,
								"contract": ".deps/studying-solidity/v0.1/Testament/TestamentCore.sol:TestamentCore",
								"label": "percentage",
								"offset": 20,
								"slot": "0",
								"type": "t_uint16"
							},
							{
								"astId": 191,
								"contract": ".deps/studying-solidity/v0.1/Testament/TestamentCore.sol:TestamentCore",
								"label": "canWithdraw",
								"offset": 22,
								"slot": "0",
								"type": "t_bool"
							}
						],
						"numberOfBytes": "32"
					},
					"t_struct(Testament)203_storage": {
						"encoding": "inplace",
						"label": "struct TestamentStorage.Testament",
						"members": [
							{
								"astId": 196,
								"contract": ".deps/studying-solidity/v0.1/Testament/TestamentCore.sol:TestamentCore",
								"label": "inheritors",
								"offset": 0,
								"slot": "0",
								"type": "t_array(t_struct(Inheritor)192_storage)dyn_storage"
							},
							{
								"astId": 198,
								"contract": ".deps/studying-solidity/v0.1/Testament/TestamentCore.sol:TestamentCore",
								"label": "exist",
								"offset": 0,
								"slot": "1",
								"type": "t_bool"
							},
							{
								"astId": 200,
								"contract": ".deps/studying-solidity/v0.1/Testament/TestamentCore.sol:TestamentCore",
								"label": "lastProofOfLife",
								"offset": 1,
								"slot": "1",
								"type": "t_uint128"
							},
							{
								"astId": 202,
								"contract": ".deps/studying-solidity/v0.1/Testament/TestamentCore.sol:TestamentCore",
								"label": "inheritanceTotalValue",
								"offset": 0,
								"slot": "2",
								"type": "t_uint256"
							}
						],
						"numberOfBytes": "96"
					},
					"t_uint128": {
						"encoding": "inplace",
						"label": "uint128",
						"numberOfBytes": "16"
					},
					"t_uint16": {
						"encoding": "inplace",
						"label": "uint16",
						"numberOfBytes": "2"
					},
					"t_uint256": {
						"encoding": "inplace",
						"label": "uint256",
						"numberOfBytes": "32"
					}
				}
			},
			"userdoc": {
				"kind": "user",
				"methods": {},
				"version": 1
			}
		}
	}
}