{
	".deps/studying-solidity/v0.1/Testament/BaseModifiers.sol": {
		"BaseModifiers": {
			"abi": [
				{
					"inputs": [
						{
							"internalType": "address",
							"name": "",
							"type": "address"
						},
						{
							"internalType": "uint256",
							"name": "",
							"type": "uint256"
						}
					],
					"name": "inheritorToTestators",
					"outputs": [
						{
							"internalType": "address",
							"name": "",
							"type": "address"
						}
					],
					"stateMutability": "view",
					"type": "function"
				},
				{
					"inputs": [
						{
							"internalType": "address",
							"name": "",
							"type": "address"
						}
					],
					"name": "testaments",
					"outputs": [
						{
							"internalType": "bool",
							"name": "exist",
							"type": "bool"
						},
						{
							"internalType": "uint128",
							"name": "lastProofOfLife",
							"type": "uint128"
						},
						{
							"internalType": "uint256",
							"name": "inheritanceTotalValue",
							"type": "uint256"
						}
					],
					"stateMutability": "view",
					"type": "function"
				}
			],
			"devdoc": {
				"kind": "dev",
				"methods": {},
				"version": 1
			},
			"evm": {
				"assembly": "    /* \".deps/studying-solidity/v0.1/Testament/BaseModifiers.sol\":97:340  contract BaseModifiers is TestamentStorage {... */\n  mstore(0x40, 0x80)\n  callvalue\n  dup1\n  iszero\n  tag_1\n  jumpi\n  revert(0x00, 0x00)\ntag_1:\n  pop\n  dataSize(sub_0)\n  dup1\n  dataOffset(sub_0)\n  0x00\n  codecopy\n  0x00\n  return\nstop\n\nsub_0: assembly {\n        /* \".deps/studying-solidity/v0.1/Testament/BaseModifiers.sol\":97:340  contract BaseModifiers is TestamentStorage {... */\n      mstore(0x40, 0x80)\n      callvalue\n      dup1\n      iszero\n      tag_1\n      jumpi\n      revert(0x00, 0x00)\n    tag_1:\n      pop\n      jumpi(tag_2, lt(calldatasize, 0x04))\n      shr(0xe0, calldataload(0x00))\n      dup1\n      0x1acb49b4\n      eq\n      tag_3\n      jumpi\n      dup1\n      0x5b084db9\n      eq\n      tag_4\n      jumpi\n    tag_2:\n      revert(0x00, 0x00)\n        /* \".deps/studying-solidity/v0.1/Testament/TestamentStorage.sol\":448:495  mapping(address => Testament) public testaments */\n    tag_3:\n      tag_5\n      0x04\n      dup1\n      calldatasize\n      sub\n      dup2\n      add\n      swap1\n      tag_6\n      swap2\n      swap1\n      tag_7\n      jump\t// in\n    tag_6:\n      tag_8\n      jump\t// in\n    tag_5:\n      mload(0x40)\n      tag_9\n      swap4\n      swap3\n      swap2\n      swap1\n      tag_10\n      jump\t// in\n    tag_9:\n      mload(0x40)\n      dup1\n      swap2\n      sub\n      swap1\n      return\n        /* \".deps/studying-solidity/v0.1/Testament/TestamentStorage.sol\":572:629  mapping(address => address[]) public inheritorToTestators */\n    tag_4:\n      tag_11\n      0x04\n      dup1\n      calldatasize\n      sub\n      dup2\n      add\n      swap1\n      tag_12\n      swap2\n      swap1\n      tag_13\n      jump\t// in\n    tag_12:\n      tag_14\n      jump\t// in\n    tag_11:\n      mload(0x40)\n      tag_15\n      swap2\n      swap1\n      tag_16\n      jump\t// in\n    tag_15:\n      mload(0x40)\n      dup1\n      swap2\n      sub\n      swap1\n      return\n        /* \".deps/studying-solidity/v0.1/Testament/TestamentStorage.sol\":448:495  mapping(address => Testament) public testaments */\n    tag_8:\n      mstore(0x20, 0x00)\n      dup1\n      0x00\n      mstore\n      keccak256(0x00, 0x40)\n      0x00\n      swap2\n      pop\n      swap1\n      pop\n      dup1\n      0x01\n      add\n      0x00\n      swap1\n      sload\n      swap1\n      0x0100\n      exp\n      swap1\n      div\n      0xff\n      and\n      swap1\n      dup1\n      0x01\n      add\n      0x01\n      swap1\n      sload\n      swap1\n      0x0100\n      exp\n      swap1\n      div\n      0xffffffffffffffffffffffffffffffff\n      and\n      swap1\n      dup1\n      0x02\n      add\n      sload\n      swap1\n      pop\n      dup4\n      jump\t// out\n        /* \".deps/studying-solidity/v0.1/Testament/TestamentStorage.sol\":572:629  mapping(address => address[]) public inheritorToTestators */\n    tag_14:\n      mstore(0x20, 0x01)\n      dup2\n      0x00\n      mstore\n      keccak256(0x00, 0x40)\n      dup2\n      dup2\n      sload\n      dup2\n      lt\n      tag_17\n      jumpi\n      0x00\n      dup1\n      revert\n    tag_17:\n      swap1\n      0x00\n      mstore\n      keccak256(0x00, 0x20)\n      add\n      0x00\n      swap2\n      pop\n      swap2\n      pop\n      swap1\n      sload\n      swap1\n      0x0100\n      exp\n      swap1\n      div\n      0xffffffffffffffffffffffffffffffffffffffff\n      and\n      dup2\n      jump\t// out\n        /* \"#utility.yul\":88:205   */\n    tag_20:\n        /* \"#utility.yul\":197:198   */\n      0x00\n        /* \"#utility.yul\":194:195   */\n      0x00\n        /* \"#utility.yul\":187:199   */\n      revert\n        /* \"#utility.yul\":334:460   */\n    tag_22:\n        /* \"#utility.yul\":371:378   */\n      0x00\n        /* \"#utility.yul\":411:453   */\n      0xffffffffffffffffffffffffffffffffffffffff\n        /* \"#utility.yul\":404:409   */\n      dup3\n        /* \"#utility.yul\":400:454   */\n      and\n        /* \"#utility.yul\":389:454   */\n      swap1\n      pop\n        /* \"#utility.yul\":334:460   */\n      swap2\n      swap1\n      pop\n      jump\t// out\n        /* \"#utility.yul\":466:562   */\n    tag_23:\n        /* \"#utility.yul\":503:510   */\n      0x00\n        /* \"#utility.yul\":532:556   */\n      tag_41\n        /* \"#utility.yul\":550:555   */\n      dup3\n        /* \"#utility.yul\":532:556   */\n      tag_22\n      jump\t// in\n    tag_41:\n        /* \"#utility.yul\":521:556   */\n      swap1\n      pop\n        /* \"#utility.yul\":466:562   */\n      swap2\n      swap1\n      pop\n      jump\t// out\n        /* \"#utility.yul\":568:690   */\n    tag_24:\n        /* \"#utility.yul\":641:665   */\n      tag_43\n        /* \"#utility.yul\":659:664   */\n      dup2\n        /* \"#utility.yul\":641:665   */\n      tag_23\n      jump\t// in\n    tag_43:\n        /* \"#utility.yul\":634:639   */\n      dup2\n        /* \"#utility.yul\":631:666   */\n      eq\n        /* \"#utility.yul\":621:684   */\n      tag_44\n      jumpi\n        /* \"#utility.yul\":680:681   */\n      0x00\n        /* \"#utility.yul\":677:678   */\n      0x00\n        /* \"#utility.yul\":670:682   */\n      revert\n        /* \"#utility.yul\":621:684   */\n    tag_44:\n        /* \"#utility.yul\":568:690   */\n      pop\n      jump\t// out\n        /* \"#utility.yul\":696:835   */\n    tag_25:\n        /* \"#utility.yul\":742:747   */\n      0x00\n        /* \"#utility.yul\":780:786   */\n      dup2\n        /* \"#utility.yul\":767:787   */\n      calldataload\n        /* \"#utility.yul\":758:787   */\n      swap1\n      pop\n        /* \"#utility.yul\":796:829   */\n      tag_46\n        /* \"#utility.yul\":823:828   */\n      dup2\n        /* \"#utility.yul\":796:829   */\n      tag_24\n      jump\t// in\n    tag_46:\n        /* \"#utility.yul\":696:835   */\n      swap3\n      swap2\n      pop\n      pop\n      jump\t// out\n        /* \"#utility.yul\":841:1170   */\n    tag_7:\n        /* \"#utility.yul\":900:906   */\n      0x00\n        /* \"#utility.yul\":949:951   */\n      0x20\n        /* \"#utility.yul\":937:946   */\n      dup3\n        /* \"#utility.yul\":928:935   */\n      dup5\n        /* \"#utility.yul\":924:947   */\n      sub\n        /* \"#utility.yul\":920:952   */\n      slt\n        /* \"#utility.yul\":917:1036   */\n      iszero\n      tag_48\n      jumpi\n        /* \"#utility.yul\":955:1034   */\n      tag_49\n      tag_20\n      jump\t// in\n    tag_49:\n        /* \"#utility.yul\":917:1036   */\n    tag_48:\n        /* \"#utility.yul\":1075:1076   */\n      0x00\n        /* \"#utility.yul\":1100:1153   */\n      tag_50\n        /* \"#utility.yul\":1145:1152   */\n      dup5\n        /* \"#utility.yul\":1136:1142   */\n      dup3\n        /* \"#utility.yul\":1125:1134   */\n      dup6\n        /* \"#utility.yul\":1121:1143   */\n      add\n        /* \"#utility.yul\":1100:1153   */\n      tag_25\n      jump\t// in\n    tag_50:\n        /* \"#utility.yul\":1090:1153   */\n      swap2\n      pop\n        /* \"#utility.yul\":1046:1163   */\n      pop\n        /* \"#utility.yul\":841:1170   */\n      swap3\n      swap2\n      pop\n      pop\n      jump\t// out\n        /* \"#utility.yul\":1176:1266   */\n    tag_26:\n        /* \"#utility.yul\":1210:1217   */\n      0x00\n        /* \"#utility.yul\":1253:1258   */\n      dup2\n        /* \"#utility.yul\":1246:1259   */\n      iszero\n        /* \"#utility.yul\":1239:1260   */\n      iszero\n        /* \"#utility.yul\":1228:1260   */\n      swap1\n      pop\n        /* \"#utility.yul\":1176:1266   */\n      swap2\n      swap1\n      pop\n      jump\t// out\n        /* \"#utility.yul\":1272:1381   */\n    tag_27:\n        /* \"#utility.yul\":1353:1374   */\n      tag_53\n        /* \"#utility.yul\":1368:1373   */\n      dup2\n        /* \"#utility.yul\":1353:1374   */\n      tag_26\n      jump\t// in\n    tag_53:\n        /* \"#utility.yul\":1348:1351   */\n      dup3\n        /* \"#utility.yul\":1341:1375   */\n      mstore\n        /* \"#utility.yul\":1272:1381   */\n      pop\n      pop\n      jump\t// out\n        /* \"#utility.yul\":1387:1505   */\n    tag_28:\n        /* \"#utility.yul\":1424:1431   */\n      0x00\n        /* \"#utility.yul\":1464:1498   */\n      0xffffffffffffffffffffffffffffffff\n        /* \"#utility.yul\":1457:1462   */\n      dup3\n        /* \"#utility.yul\":1453:1499   */\n      and\n        /* \"#utility.yul\":1442:1499   */\n      swap1\n      pop\n        /* \"#utility.yul\":1387:1505   */\n      swap2\n      swap1\n      pop\n      jump\t// out\n        /* \"#utility.yul\":1511:1629   */\n    tag_29:\n        /* \"#utility.yul\":1598:1622   */\n      tag_56\n        /* \"#utility.yul\":1616:1621   */\n      dup2\n        /* \"#utility.yul\":1598:1622   */\n      tag_28\n      jump\t// in\n    tag_56:\n        /* \"#utility.yul\":1593:1596   */\n      dup3\n        /* \"#utility.yul\":1586:1623   */\n      mstore\n        /* \"#utility.yul\":1511:1629   */\n      pop\n      pop\n      jump\t// out\n        /* \"#utility.yul\":1635:1712   */\n    tag_30:\n        /* \"#utility.yul\":1672:1679   */\n      0x00\n        /* \"#utility.yul\":1701:1706   */\n      dup2\n        /* \"#utility.yul\":1690:1706   */\n      swap1\n      pop\n        /* \"#utility.yul\":1635:1712   */\n      swap2\n      swap1\n      pop\n      jump\t// out\n        /* \"#utility.yul\":1718:1836   */\n    tag_31:\n        /* \"#utility.yul\":1805:1829   */\n      tag_59\n        /* \"#utility.yul\":1823:1828   */\n      dup2\n        /* \"#utility.yul\":1805:1829   */\n      tag_30\n      jump\t// in\n    tag_59:\n        /* \"#utility.yul\":1800:1803   */\n      dup3\n        /* \"#utility.yul\":1793:1830   */\n      mstore\n        /* \"#utility.yul\":1718:1836   */\n      pop\n      pop\n      jump\t// out\n        /* \"#utility.yul\":1842:2272   */\n    tag_10:\n        /* \"#utility.yul\":1985:1989   */\n      0x00\n        /* \"#utility.yul\":2023:2025   */\n      0x60\n        /* \"#utility.yul\":2012:2021   */\n      dup3\n        /* \"#utility.yul\":2008:2026   */\n      add\n        /* \"#utility.yul\":2000:2026   */\n      swap1\n      pop\n        /* \"#utility.yul\":2036:2101   */\n      tag_61\n        /* \"#utility.yul\":2098:2099   */\n      0x00\n        /* \"#utility.yul\":2087:2096   */\n      dup4\n        /* \"#utility.yul\":2083:2100   */\n      add\n        /* \"#utility.yul\":2074:2080   */\n      dup7\n        /* \"#utility.yul\":2036:2101   */\n      tag_27\n      jump\t// in\n    tag_61:\n        /* \"#utility.yul\":2111:2183   */\n      tag_62\n        /* \"#utility.yul\":2179:2181   */\n      0x20\n        /* \"#utility.yul\":2168:2177   */\n      dup4\n        /* \"#utility.yul\":2164:2182   */\n      add\n        /* \"#utility.yul\":2155:2161   */\n      dup6\n        /* \"#utility.yul\":2111:2183   */\n      tag_29\n      jump\t// in\n    tag_62:\n        /* \"#utility.yul\":2193:2265   */\n      tag_63\n        /* \"#utility.yul\":2261:2263   */\n      0x40\n        /* \"#utility.yul\":2250:2259   */\n      dup4\n        /* \"#utility.yul\":2246:2264   */\n      add\n        /* \"#utility.yul\":2237:2243   */\n      dup5\n        /* \"#utility.yul\":2193:2265   */\n      tag_31\n      jump\t// in\n    tag_63:\n        /* \"#utility.yul\":1842:2272   */\n      swap5\n      swap4\n      pop\n      pop\n      pop\n      pop\n      jump\t// out\n        /* \"#utility.yul\":2278:2400   */\n    tag_32:\n        /* \"#utility.yul\":2351:2375   */\n      tag_65\n        /* \"#utility.yul\":2369:2374   */\n      dup2\n        /* \"#utility.yul\":2351:2375   */\n      tag_30\n      jump\t// in\n    tag_65:\n        /* \"#utility.yul\":2344:2349   */\n      dup2\n        /* \"#utility.yul\":2341:2376   */\n      eq\n        /* \"#utility.yul\":2331:2394   */\n      tag_66\n      jumpi\n        /* \"#utility.yul\":2390:2391   */\n      0x00\n        /* \"#utility.yul\":2387:2388   */\n      0x00\n        /* \"#utility.yul\":2380:2392   */\n      revert\n        /* \"#utility.yul\":2331:2394   */\n    tag_66:\n        /* \"#utility.yul\":2278:2400   */\n      pop\n      jump\t// out\n        /* \"#utility.yul\":2406:2545   */\n    tag_33:\n        /* \"#utility.yul\":2452:2457   */\n      0x00\n        /* \"#utility.yul\":2490:2496   */\n      dup2\n        /* \"#utility.yul\":2477:2497   */\n      calldataload\n        /* \"#utility.yul\":2468:2497   */\n      swap1\n      pop\n        /* \"#utility.yul\":2506:2539   */\n      tag_68\n        /* \"#utility.yul\":2533:2538   */\n      dup2\n        /* \"#utility.yul\":2506:2539   */\n      tag_32\n      jump\t// in\n    tag_68:\n        /* \"#utility.yul\":2406:2545   */\n      swap3\n      swap2\n      pop\n      pop\n      jump\t// out\n        /* \"#utility.yul\":2551:3025   */\n    tag_13:\n        /* \"#utility.yul\":2619:2625   */\n      0x00\n        /* \"#utility.yul\":2627:2633   */\n      0x00\n        /* \"#utility.yul\":2676:2678   */\n      0x40\n        /* \"#utility.yul\":2664:2673   */\n      dup4\n        /* \"#utility.yul\":2655:2662   */\n      dup6\n        /* \"#utility.yul\":2651:2674   */\n      sub\n        /* \"#utility.yul\":2647:2679   */\n      slt\n        /* \"#utility.yul\":2644:2763   */\n      iszero\n      tag_70\n      jumpi\n        /* \"#utility.yul\":2682:2761   */\n      tag_71\n      tag_20\n      jump\t// in\n    tag_71:\n        /* \"#utility.yul\":2644:2763   */\n    tag_70:\n        /* \"#utility.yul\":2802:2803   */\n      0x00\n        /* \"#utility.yul\":2827:2880   */\n      tag_72\n        /* \"#utility.yul\":2872:2879   */\n      dup6\n        /* \"#utility.yul\":2863:2869   */\n      dup3\n        /* \"#utility.yul\":2852:2861   */\n      dup7\n        /* \"#utility.yul\":2848:2870   */\n      add\n        /* \"#utility.yul\":2827:2880   */\n      tag_25\n      jump\t// in\n    tag_72:\n        /* \"#utility.yul\":2817:2880   */\n      swap3\n      pop\n        /* \"#utility.yul\":2773:2890   */\n      pop\n        /* \"#utility.yul\":2929:2931   */\n      0x20\n        /* \"#utility.yul\":2955:3008   */\n      tag_73\n        /* \"#utility.yul\":3000:3007   */\n      dup6\n        /* \"#utility.yul\":2991:2997   */\n      dup3\n        /* \"#utility.yul\":2980:2989   */\n      dup7\n        /* \"#utility.yul\":2976:2998   */\n      add\n        /* \"#utility.yul\":2955:3008   */\n      tag_33\n      jump\t// in\n    tag_73:\n        /* \"#utility.yul\":2945:3008   */\n      swap2\n      pop\n        /* \"#utility.yul\":2900:3018   */\n      pop\n        /* \"#utility.yul\":2551:3025   */\n      swap3\n      pop\n      swap3\n      swap1\n      pop\n      jump\t// out\n        /* \"#utility.yul\":3031:3149   */\n    tag_34:\n        /* \"#utility.yul\":3118:3142   */\n      tag_75\n        /* \"#utility.yul\":3136:3141   */\n      dup2\n        /* \"#utility.yul\":3118:3142   */\n      tag_23\n      jump\t// in\n    tag_75:\n        /* \"#utility.yul\":3113:3116   */\n      dup3\n        /* \"#utility.yul\":3106:3143   */\n      mstore\n        /* \"#utility.yul\":3031:3149   */\n      pop\n      pop\n      jump\t// out\n        /* \"#utility.yul\":3155:3377   */\n    tag_16:\n        /* \"#utility.yul\":3248:3252   */\n      0x00\n        /* \"#utility.yul\":3286:3288   */\n      0x20\n        /* \"#utility.yul\":3275:3284   */\n      dup3\n        /* \"#utility.yul\":3271:3289   */\n      add\n        /* \"#utility.yul\":3263:3289   */\n      swap1\n      pop\n        /* \"#utility.yul\":3299:3370   */\n      tag_77\n        /* \"#utility.yul\":3367:3368   */\n      0x00\n        /* \"#utility.yul\":3356:3365   */\n      dup4\n        /* \"#utility.yul\":3352:3369   */\n      add\n        /* \"#utility.yul\":3343:3349   */\n      dup5\n        /* \"#utility.yul\":3299:3370   */\n      tag_34\n      jump\t// in\n    tag_77:\n        /* \"#utility.yul\":3155:3377   */\n      swap3\n      swap2\n      pop\n      pop\n      jump\t// out\n\n    auxdata: 0xa2646970667358221220130900fe9609ca0241126df70d5bfab9a23b5a6bd60b1b1f62a646dd45430b7364736f6c634300081d0033\n}\n",
				"bytecode": {
					"linkReferences": {},
					"object": "6080604052348015600e575f5ffd5b506103108061001c5f395ff3fe608060405234801561000f575f5ffd5b5060043610610034575f3560e01c80631acb49b4146100385780635b084db91461006a575b5f5ffd5b610052600480360381019061004d919061018e565b61009a565b60405161006193929190610215565b60405180910390f35b610084600480360381019061007f9190610274565b6100e8565b60405161009191906102c1565b60405180910390f35b5f602052805f5260405f205f91509050806001015f9054906101000a900460ff16908060010160019054906101000a90046fffffffffffffffffffffffffffffffff16908060020154905083565b6001602052815f5260405f208181548110610101575f80fd5b905f5260205f20015f915091509054906101000a900473ffffffffffffffffffffffffffffffffffffffff1681565b5f5ffd5b5f73ffffffffffffffffffffffffffffffffffffffff82169050919050565b5f61015d82610134565b9050919050565b61016d81610153565b8114610177575f5ffd5b50565b5f8135905061018881610164565b92915050565b5f602082840312156101a3576101a2610130565b5b5f6101b08482850161017a565b91505092915050565b5f8115159050919050565b6101cd816101b9565b82525050565b5f6fffffffffffffffffffffffffffffffff82169050919050565b6101f7816101d3565b82525050565b5f819050919050565b61020f816101fd565b82525050565b5f6060820190506102285f8301866101c4565b61023560208301856101ee565b6102426040830184610206565b949350505050565b610253816101fd565b811461025d575f5ffd5b50565b5f8135905061026e8161024a565b92915050565b5f5f6040838503121561028a57610289610130565b5b5f6102978582860161017a565b92505060206102a885828601610260565b9150509250929050565b6102bb81610153565b82525050565b5f6020820190506102d45f8301846102b2565b9291505056fea2646970667358221220130900fe9609ca0241126df70d5bfab9a23b5a6bd60b1b1f62a646dd45430b7364736f6c634300081d0033",
					"opcodes": "PUSH1 0x80 PUSH1 0x40 MSTORE CALLVALUE DUP1 ISZERO PUSH1 0xE JUMPI PUSH0 PUSH0 REVERT JUMPDEST POP PUSH2 0x310 DUP1 PUSH2 0x1C PUSH0 CODECOPY PUSH0 RETURN INVALID PUSH1 0x80 PUSH1 0x40 MSTORE CALLVALUE DUP1 ISZERO PUSH2 0xF JUMPI PUSH0 PUSH0 REVERT JUMPDEST POP PUSH1 0x4 CALLDATASIZE LT PUSH2 0x34 JUMPI PUSH0 CALLDATALOAD PUSH1 0xE0 SHR DUP1 PUSH4 0x1ACB49B4 EQ PUSH2 0x38 JUMPI DUP1 PUSH4 0x5B084DB9 EQ PUSH2 0x6A JUMPI JUMPDEST PUSH0 PUSH0 REVERT JUMPDEST PUSH2 0x52 PUSH1 0x4 DUP1 CALLDATASIZE SUB DUP2 ADD SWAP1 PUSH2 0x4D SWAP2 SWAP1 PUSH2 0x18E JUMP JUMPDEST PUSH2 0x9A JUMP JUMPDEST PUSH1 0x40 MLOAD PUSH2 0x61 SWAP4 SWAP3 SWAP2 SWAP1 PUSH2 0x215 JUMP JUMPDEST PUSH1 0x40 MLOAD DUP1 SWAP2 SUB SWAP1 RETURN JUMPDEST PUSH2 0x84 PUSH1 0x4 DUP1 CALLDATASIZE SUB DUP2 ADD SWAP1 PUSH2 0x7F SWAP2 SWAP1 PUSH2 0x274 JUMP JUMPDEST PUSH2 0xE8 JUMP JUMPDEST PUSH1 0x40 MLOAD PUSH2 0x91 SWAP2 SWAP1 PUSH2 0x2C1 JUMP JUMPDEST PUSH1 0x40 MLOAD DUP1 SWAP2 SUB SWAP1 RETURN JUMPDEST PUSH0 PUSH1 0x20 MSTORE DUP1 PUSH0 MSTORE PUSH1 0x40 PUSH0 KECCAK256 PUSH0 SWAP2 POP SWAP1 POP DUP1 PUSH1 0x1 ADD PUSH0 SWAP1 SLOAD SWAP1 PUSH2 0x100 EXP SWAP1 DIV PUSH1 0xFF AND SWAP1 DUP1 PUSH1 0x1 ADD PUSH1 0x1 SWAP1 SLOAD SWAP1 PUSH2 0x100 EXP SWAP1 DIV PUSH16 0xFFFFFFFFFFFFFFFFFFFFFFFFFFFFFFFF AND SWAP1 DUP1 PUSH1 0x2 ADD SLOAD SWAP1 POP DUP4 JUMP JUMPDEST PUSH1 0x1 PUSH1 0x20 MSTORE DUP2 PUSH0 MSTORE PUSH1 0x40 PUSH0 KECCAK256 DUP2 DUP2 SLOAD DUP2 LT PUSH2 0x101 JUMPI PUSH0 DUP1 REVERT JUMPDEST SWAP1 PUSH0 MSTORE PUSH1 0x20 PUSH0 KECCAK256 ADD PUSH0 SWAP2 POP SWAP2 POP SWAP1 SLOAD SWAP1 PUSH2 0x100 EXP SWAP1 DIV PUSH20 0xFFFFFFFFFFFFFFFFFFFFFFFFFFFFFFFFFFFFFFFF AND DUP2 JUMP JUMPDEST PUSH0 PUSH0 REVERT JUMPDEST PUSH0 PUSH20 0xFFFFFFFFFFFFFFFFFFFFFFFFFFFFFFFFFFFFFFFF DUP3 AND SWAP1 POP SWAP2 SWAP1 POP JUMP JUMPDEST PUSH0 PUSH2 0x15D DUP3 PUSH2 0x134 JUMP JUMPDEST SWAP1 POP SWAP2 SWAP1 POP JUMP JUMPDEST PUSH2 0x16D DUP2 PUSH2 0x153 JUMP JUMPDEST DUP2 EQ PUSH2 0x177 JUMPI PUSH0 PUSH0 REVERT JUMPDEST POP JUMP JUMPDEST PUSH0 DUP2 CALLDATALOAD SWAP1 POP PUSH2 0x188 DUP2 PUSH2 0x164 JUMP JUMPDEST SWAP3 SWAP2 POP POP JUMP JUMPDEST PUSH0 PUSH1 0x20 DUP3 DUP5 SUB SLT ISZERO PUSH2 0x1A3 JUMPI PUSH2 0x1A2 PUSH2 0x130 JUMP JUMPDEST JUMPDEST PUSH0 PUSH2 0x1B0 DUP5 DUP3 DUP6 ADD PUSH2 0x17A JUMP JUMPDEST SWAP2 POP POP SWAP3 SWAP2 POP POP JUMP JUMPDEST PUSH0 DUP2 ISZERO ISZERO SWAP1 POP SWAP2 SWAP1 POP JUMP JUMPDEST PUSH2 0x1CD DUP2 PUSH2 0x1B9 JUMP JUMPDEST DUP3 MSTORE POP POP JUMP JUMPDEST PUSH0 PUSH16 0xFFFFFFFFFFFFFFFFFFFFFFFFFFFFFFFF DUP3 AND SWAP1 POP SWAP2 SWAP1 POP JUMP JUMPDEST PUSH2 0x1F7 DUP2 PUSH2 0x1D3 JUMP JUMPDEST DUP3 MSTORE POP POP JUMP JUMPDEST PUSH0 DUP2 SWAP1 POP SWAP2 SWAP1 POP JUMP JUMPDEST PUSH2 0x20F DUP2 PUSH2 0x1FD JUMP JUMPDEST DUP3 MSTORE POP POP JUMP JUMPDEST PUSH0 PUSH1 0x60 DUP3 ADD SWAP1 POP PUSH2 0x228 PUSH0 DUP4 ADD DUP7 PUSH2 0x1C4 JUMP JUMPDEST PUSH2 0x235 PUSH1 0x20 DUP4 ADD DUP6 PUSH2 0x1EE JUMP JUMPDEST PUSH2 0x242 PUSH1 0x40 DUP4 ADD DUP5 PUSH2 0x206 JUMP JUMPDEST SWAP5 SWAP4 POP POP POP POP JUMP JUMPDEST PUSH2 0x253 DUP2 PUSH2 0x1FD JUMP JUMPDEST DUP2 EQ PUSH2 0x25D JUMPI PUSH0 PUSH0 REVERT JUMPDEST POP JUMP JUMPDEST PUSH0 DUP2 CALLDATALOAD SWAP1 POP PUSH2 0x26E DUP2 PUSH2 0x24A JUMP JUMPDEST SWAP3 SWAP2 POP POP JUMP JUMPDEST PUSH0 PUSH0 PUSH1 0x40 DUP4 DUP6 SUB SLT ISZERO PUSH2 0x28A JUMPI PUSH2 0x289 PUSH2 0x130 JUMP JUMPDEST JUMPDEST PUSH0 PUSH2 0x297 DUP6 DUP3 DUP7 ADD PUSH2 0x17A JUMP JUMPDEST SWAP3 POP POP PUSH1 0x20 PUSH2 0x2A8 DUP6 DUP3 DUP7 ADD PUSH2 0x260 JUMP JUMPDEST SWAP2 POP POP SWAP3 POP SWAP3 SWAP1 POP JUMP JUMPDEST PUSH2 0x2BB DUP2 PUSH2 0x153 JUMP JUMPDEST DUP3 MSTORE POP POP JUMP JUMPDEST PUSH0 PUSH1 0x20 DUP3 ADD SWAP1 POP PUSH2 0x2D4 PUSH0 DUP4 ADD DUP5 PUSH2 0x2B2 JUMP JUMPDEST SWAP3 SWAP2 POP POP JUMP INVALID LOG2 PUSH5 0x6970667358 0x22 SLT KECCAK256 SGT MULMOD STOP INVALID SWAP7 MULMOD 0xCA MUL COINBASE SLT PUSH14 0xF70D5BFAB9A23B5A6BD60B1B1F62 0xA6 CHAINID 0xDD GASLIMIT NUMBER SIGNEXTEND PUSH20 0x64736F6C634300081D0033000000000000000000 "
				},
				"gasEstimates": {
					"creation": {
						"codeDepositCost": "156800",
						"executionCost": "200",
						"totalCost": "157000"
					},
					"external": {
						"inheritorToTestators(address,uint256)": "infinite",
						"testaments(address)": "7348"
					}
				},
				"methodIdentifiers": {
					"inheritorToTestators(address,uint256)": "5b084db9",
					"testaments(address)": "1acb49b4"
				}
			},
			"storageLayout": {
				"storage": [
					{
						"astId": 208,
						"contract": ".deps/studying-solidity/v0.1/Testament/BaseModifiers.sol:BaseModifiers",
						"label": "testaments",
						"offset": 0,
						"slot": "0",
						"type": "t_mapping(t_address,t_struct(Testament)203_storage)"
					},
					{
						"astId": 213,
						"contract": ".deps/studying-solidity/v0.1/Testament/BaseModifiers.sol:BaseModifiers",
						"label": "inheritorToTestators",
						"offset": 0,
						"slot": "1",
						"type": "t_mapping(t_address,t_array(t_address)dyn_storage)"
					}
				],
				"types": {
					"t_address": {
						"encoding": "inplace",
						"label": "address",
						"numberOfBytes": "20"
					},
					"t_array(t_address)dyn_storage": {
						"base": "t_address",
						"encoding": "dynamic_array",
						"label": "address[]",
						"numberOfBytes": "32"
					},
					"t_array(t_struct(Inheritor)192_storage)dyn_storage": {
						"base": "t_struct(Inheritor)192_storage",
						"encoding": "dynamic_array",
						"label": "struct TestamentStorage.Inheritor[]",
						"numberOfBytes": "32"
					},
					"t_bool": {
						"encoding": "inplace",
						"label": "bool",
						"numberOfBytes": "1"
					},
					"t_mapping(t_address,t_array(t_address)dyn_storage)": {
						"encoding": "mapping",
						"key": "t_address",
						"label": "mapping(address => address[])",
						"numberOfBytes": "32",
						"value": "t_array(t_address)dyn_storage"
					},
					"t_mapping(t_address,t_struct(Testament)203_storage)": {
						"encoding": "mapping",
						"key": "t_address",
						"label": "mapping(address => struct TestamentStorage.Testament)",
						"numberOfBytes": "32",
						"value": "t_struct(Testament)203_storage"
					},
					"t_struct(Inheritor)192_storage": {
						"encoding": "inplace",
						"label": "struct TestamentStorage.Inheritor",
						"members": [
							{
								"astId": 187,
								"contract": ".deps/studying-solidity/v0.1/Testament/BaseModifiers.sol:BaseModifiers",
								"label": "inheritorAddress",
								"offset": 0,
								"slot": "0",
								"type": "t_address"
							},
							{
								"astId": 189,
								"contract": ".deps/studying-solidity/v0.1/Testament/BaseModifiers.sol:BaseModifiers",
								"label": "percentage",
								"offset": 20,
								"slot": "0",
								"type": "t_uint16"
							},
							{
								"astId": 191,
								"contract": ".deps/studying-solidity/v0.1/Testament/BaseModifiers.sol:BaseModifiers",
								"label": "canWithdraw",
								"offset": 22,
								"slot": "0",
								"type": "t_bool"
							}
						],
						"numberOfBytes": "32"
					},
					"t_struct(Testament)203_storage": {
						"encoding": "inplace",
						"label": "struct TestamentStorage.Testament",
						"members": [
							{
								"astId": 196,
								"contract": ".deps/studying-solidity/v0.1/Testament/BaseModifiers.sol:BaseModifiers",
								"label": "inheritors",
								"offset": 0,
								"slot": "0",
								"type": "t_array(t_struct(Inheritor)192_storage)dyn_storage"
							},
							{
								"astId": 198,
								"contract": ".deps/studying-solidity/v0.1/Testament/BaseModifiers.sol:BaseModifiers",
								"label": "exist",
								"offset": 0,
								"slot": "1",
								"type": "t_bool"
							},
							{
								"astId": 200,
								"contract": ".deps/studying-solidity/v0.1/Testament/BaseModifiers.sol:BaseModifiers",
								"label": "lastProofOfLife",
								"offset": 1,
								"slot": "1",
								"type": "t_uint128"
							},
							{
								"astId": 202,
								"contract": ".deps/studying-solidity/v0.1/Testament/BaseModifiers.sol:BaseModifiers",
								"label": "inheritanceTotalValue",
								"offset": 0,
								"slot": "2",
								"type": "t_uint256"
							}
						],
						"numberOfBytes": "96"
					},
					"t_uint128": {
						"encoding": "inplace",
						"label": "uint128",
						"numberOfBytes": "16"
					},
					"t_uint16": {
						"encoding": "inplace",
						"label": "uint16",
						"numberOfBytes": "2"
					},
					"t_uint256": {
						"encoding": "inplace",
						"label": "uint256",
						"numberOfBytes": "32"
					}
				}
			},
			"userdoc": {
				"kind": "user",
				"methods": {},
				"version": 1
			}
		}
	}
}